{"abi":[{"inputs":[{"internalType":"string","name":"org","type":"string"}],"name":"createService","outputs":[],"stateMutability":"nonpayable","type":"function"},{"inputs":[{"internalType":"uint256","name":"","type":"uint256"}],"name":"deployedOrgNames","outputs":[{"internalType":"string","name":"","type":"string"}],"stateMutability":"view","type":"function"},{"inputs":[{"internalType":"uint256","name":"","type":"uint256"}],"name":"deployedServices","outputs":[{"internalType":"address","name":"","type":"address"}],"stateMutability":"view","type":"function"},{"inputs":[],"name":"getDeployedServices","outputs":[{"internalType":"address[]","name":"","type":"address[]"}],"stateMutability":"view","type":"function"},{"inputs":[{"internalType":"address","name":"","type":"address"}],"name":"orgNames","outputs":[{"internalType":"string","name":"","type":"string"}],"stateMutability":"view","type":"function"}],"devdoc":{"kind":"dev","methods":{},"version":1},"evm":{"assembly":"    /* \"ServiceChain.sol\":28:555  contract Factory{... */\n  mstore(0x40, 0x80)\n  callvalue\n  dup1\n  iszero\n  tag_1\n  jumpi\n  0x00\n  dup1\n  revert\ntag_1:\n  pop\n  dataSize(sub_0)\n  dup1\n  dataOffset(sub_0)\n  0x00\n  codecopy\n  0x00\n  return\nstop\n\nsub_0: assembly {\n        /* \"ServiceChain.sol\":28:555  contract Factory{... */\n      mstore(0x40, 0x80)\n      callvalue\n      dup1\n      iszero\n      tag_1\n      jumpi\n      0x00\n      dup1\n      revert\n    tag_1:\n      pop\n      jumpi(tag_2, lt(calldatasize, 0x04))\n      shr(0xe0, calldataload(0x00))\n      dup1\n      0x0b873358\n      eq\n      tag_3\n      jumpi\n      dup1\n      0x52578012\n      eq\n      tag_4\n      jumpi\n      dup1\n      0x52be03cf\n      eq\n      tag_5\n      jumpi\n      dup1\n      0x8e8389bf\n      eq\n      tag_6\n      jumpi\n      dup1\n      0x9bfba8a9\n      eq\n      tag_7\n      jumpi\n    tag_2:\n      0x00\n      dup1\n      revert\n        /* \"ServiceChain.sol\":91:123  string[] public deployedOrgNames */\n    tag_3:\n      tag_8\n      0x04\n      dup1\n      calldatasize\n      sub\n      dup2\n      add\n      swap1\n      tag_9\n      swap2\n      swap1\n      tag_10\n      jump\t// in\n    tag_9:\n      tag_11\n      jump\t// in\n    tag_8:\n      mload(0x40)\n      tag_12\n      swap2\n      swap1\n      tag_13\n      jump\t// in\n    tag_12:\n      mload(0x40)\n      dup1\n      swap2\n      sub\n      swap1\n      return\n        /* \"ServiceChain.sol\":177:432  function createService( string calldata org) public {... */\n    tag_4:\n      tag_14\n      0x04\n      dup1\n      calldatasize\n      sub\n      dup2\n      add\n      swap1\n      tag_15\n      swap2\n      swap1\n      tag_16\n      jump\t// in\n    tag_15:\n      tag_17\n      jump\t// in\n    tag_14:\n      stop\n        /* \"ServiceChain.sol\":130:170  mapping(address=>string) public orgNames */\n    tag_5:\n      tag_18\n      0x04\n      dup1\n      calldatasize\n      sub\n      dup2\n      add\n      swap1\n      tag_19\n      swap2\n      swap1\n      tag_20\n      jump\t// in\n    tag_19:\n      tag_21\n      jump\t// in\n    tag_18:\n      mload(0x40)\n      tag_22\n      swap2\n      swap1\n      tag_13\n      jump\t// in\n    tag_22:\n      mload(0x40)\n      dup1\n      swap2\n      sub\n      swap1\n      return\n        /* \"ServiceChain.sol\":51:84  address[] public deployedServices */\n    tag_6:\n      tag_23\n      0x04\n      dup1\n      calldatasize\n      sub\n      dup2\n      add\n      swap1\n      tag_24\n      swap2\n      swap1\n      tag_10\n      jump\t// in\n    tag_24:\n      tag_25\n      jump\t// in\n    tag_23:\n      mload(0x40)\n      tag_26\n      swap2\n      swap1\n      tag_27\n      jump\t// in\n    tag_26:\n      mload(0x40)\n      dup1\n      swap2\n      sub\n      swap1\n      return\n        /* \"ServiceChain.sol\":440:550  function getDeployedServices() public view returns(address[] memory){... */\n    tag_7:\n      tag_28\n      tag_29\n      jump\t// in\n    tag_28:\n      mload(0x40)\n      tag_30\n      swap2\n      swap1\n      tag_31\n      jump\t// in\n    tag_30:\n      mload(0x40)\n      dup1\n      swap2\n      sub\n      swap1\n      return\n        /* \"ServiceChain.sol\":91:123  string[] public deployedOrgNames */\n    tag_11:\n      0x01\n      dup2\n      dup2\n      sload\n      dup2\n      lt\n      tag_32\n      jumpi\n      0x00\n      dup1\n      revert\n    tag_32:\n      swap1\n      0x00\n      mstore\n      keccak256(0x00, 0x20)\n      add\n      0x00\n      swap2\n      pop\n      swap1\n      pop\n      dup1\n      sload\n      tag_34\n      swap1\n      tag_35\n      jump\t// in\n    tag_34:\n      dup1\n      0x1f\n      add\n      0x20\n      dup1\n      swap2\n      div\n      mul\n      0x20\n      add\n      mload(0x40)\n      swap1\n      dup2\n      add\n      0x40\n      mstore\n      dup1\n      swap3\n      swap2\n      swap1\n      dup2\n      dup2\n      mstore\n      0x20\n      add\n      dup3\n      dup1\n      sload\n      tag_36\n      swap1\n      tag_35\n      jump\t// in\n    tag_36:\n      dup1\n      iszero\n      tag_37\n      jumpi\n      dup1\n      0x1f\n      lt\n      tag_38\n      jumpi\n      0x0100\n      dup1\n      dup4\n      sload\n      div\n      mul\n      dup4\n      mstore\n      swap2\n      0x20\n      add\n      swap2\n      jump(tag_37)\n    tag_38:\n      dup3\n      add\n      swap2\n      swap1\n      0x00\n      mstore\n      keccak256(0x00, 0x20)\n      swap1\n    tag_39:\n      dup2\n      sload\n      dup2\n      mstore\n      swap1\n      0x01\n      add\n      swap1\n      0x20\n      add\n      dup1\n      dup4\n      gt\n      tag_39\n      jumpi\n      dup3\n      swap1\n      sub\n      0x1f\n      and\n      dup3\n      add\n      swap2\n    tag_37:\n      pop\n      pop\n      pop\n      pop\n      pop\n      dup2\n      jump\t// out\n        /* \"ServiceChain.sol\":177:432  function createService( string calldata org) public {... */\n    tag_17:\n        /* \"ServiceChain.sol\":240:258  Service newService */\n      0x00\n        /* \"ServiceChain.sol\":273:283  msg.sender */\n      caller\n        /* \"ServiceChain.sol\":284:287  org */\n      dup4\n      dup4\n        /* \"ServiceChain.sol\":261:288  new Service(msg.sender,org) */\n      mload(0x40)\n      tag_41\n      swap1\n      tag_42\n      jump\t// in\n    tag_41:\n      tag_43\n      swap4\n      swap3\n      swap2\n      swap1\n      tag_44\n      jump\t// in\n    tag_43:\n      mload(0x40)\n      dup1\n      swap2\n      sub\n      swap1\n      0x00\n      create\n      dup1\n      iszero\n      dup1\n      iszero\n      tag_45\n      jumpi\n      returndatasize\n      0x00\n      dup1\n      returndatacopy\n      revert(0x00, returndatasize)\n    tag_45:\n      pop\n        /* \"ServiceChain.sol\":240:288  Service newService = new Service(msg.sender,org) */\n      swap1\n      pop\n        /* \"ServiceChain.sol\":299:315  deployedOrgNames */\n      0x01\n        /* \"ServiceChain.sol\":321:324  org */\n      dup4\n      dup4\n        /* \"ServiceChain.sol\":299:325  deployedOrgNames.push(org) */\n      swap1\n      swap2\n      dup1\n      0x01\n      dup2\n      sload\n      add\n      dup1\n      dup3\n      sstore\n      dup1\n      swap2\n      pop\n      pop\n      0x01\n      swap1\n      sub\n      swap1\n      0x00\n      mstore\n      keccak256(0x00, 0x20)\n      add\n      0x00\n      swap1\n      swap2\n      swap3\n      swap1\n      swap2\n      swap3\n      swap1\n      swap2\n      swap3\n      swap1\n      swap2\n      swap3\n      pop\n      swap2\n      dup3\n      tag_47\n      swap3\n      swap2\n      swap1\n      tag_48\n      jump\t// in\n    tag_47:\n      pop\n        /* \"ServiceChain.sol\":336:352  deployedServices */\n      0x00\n        /* \"ServiceChain.sol\":366:376  newService */\n      dup2\n        /* \"ServiceChain.sol\":336:378  deployedServices.push(address(newService)) */\n      swap1\n      dup1\n      0x01\n      dup2\n      sload\n      add\n      dup1\n      dup3\n      sstore\n      dup1\n      swap2\n      pop\n      pop\n      0x01\n      swap1\n      sub\n      swap1\n      0x00\n      mstore\n      keccak256(0x00, 0x20)\n      add\n      0x00\n      swap1\n      swap2\n      swap1\n      swap2\n      swap1\n      swap2\n      0x0100\n      exp\n      dup2\n      sload\n      dup2\n      0xffffffffffffffffffffffffffffffffffffffff\n      mul\n      not\n      and\n      swap1\n      dup4\n      0xffffffffffffffffffffffffffffffffffffffff\n      and\n      mul\n      or\n      swap1\n      sstore\n      pop\n        /* \"ServiceChain.sol\":421:424  org */\n      dup3\n      dup3\n        /* \"ServiceChain.sol\":389:397  orgNames */\n      0x02\n        /* \"ServiceChain.sol\":389:418  orgNames[address(newService)] */\n      0x00\n        /* \"ServiceChain.sol\":406:416  newService */\n      dup5\n        /* \"ServiceChain.sol\":389:418  orgNames[address(newService)] */\n      0xffffffffffffffffffffffffffffffffffffffff\n      and\n      0xffffffffffffffffffffffffffffffffffffffff\n      and\n      dup2\n      mstore\n      0x20\n      add\n      swap1\n      dup2\n      mstore\n      0x20\n      add\n      0x00\n      keccak256\n        /* \"ServiceChain.sol\":389:424  orgNames[address(newService)] = org */\n      swap2\n      dup3\n      tag_50\n      swap3\n      swap2\n      swap1\n      tag_48\n      jump\t// in\n    tag_50:\n      pop\n        /* \"ServiceChain.sol\":229:432  {... */\n      pop\n        /* \"ServiceChain.sol\":177:432  function createService( string calldata org) public {... */\n      pop\n      pop\n      jump\t// out\n        /* \"ServiceChain.sol\":130:170  mapping(address=>string) public orgNames */\n    tag_21:\n      mstore(0x20, 0x02)\n      dup1\n      0x00\n      mstore\n      keccak256(0x00, 0x40)\n      0x00\n      swap2\n      pop\n      swap1\n      pop\n      dup1\n      sload\n      tag_51\n      swap1\n      tag_35\n      jump\t// in\n    tag_51:\n      dup1\n      0x1f\n      add\n      0x20\n      dup1\n      swap2\n      div\n      mul\n      0x20\n      add\n      mload(0x40)\n      swap1\n      dup2\n      add\n      0x40\n      mstore\n      dup1\n      swap3\n      swap2\n      swap1\n      dup2\n      dup2\n      mstore\n      0x20\n      add\n      dup3\n      dup1\n      sload\n      tag_52\n      swap1\n      tag_35\n      jump\t// in\n    tag_52:\n      dup1\n      iszero\n      tag_53\n      jumpi\n      dup1\n      0x1f\n      lt\n      tag_54\n      jumpi\n      0x0100\n      dup1\n      dup4\n      sload\n      div\n      mul\n      dup4\n      mstore\n      swap2\n      0x20\n      add\n      swap2\n      jump(tag_53)\n    tag_54:\n      dup3\n      add\n      swap2\n      swap1\n      0x00\n      mstore\n      keccak256(0x00, 0x20)\n      swap1\n    tag_55:\n      dup2\n      sload\n      dup2\n      mstore\n      swap1\n      0x01\n      add\n      swap1\n      0x20\n      add\n      dup1\n      dup4\n      gt\n      tag_55\n      jumpi\n      dup3\n      swap1\n      sub\n      0x1f\n      and\n      dup3\n      add\n      swap2\n    tag_53:\n      pop\n      pop\n      pop\n      pop\n      pop\n      dup2\n      jump\t// out\n        /* \"ServiceChain.sol\":51:84  address[] public deployedServices */\n    tag_25:\n      0x00\n      dup2\n      dup2\n      sload\n      dup2\n      lt\n      tag_56\n      jumpi\n      0x00\n      dup1\n      revert\n    tag_56:\n      swap1\n      0x00\n      mstore\n      keccak256(0x00, 0x20)\n      add\n      0x00\n      swap2\n      pop\n      sload\n      swap1\n      0x0100\n      exp\n      swap1\n      div\n      0xffffffffffffffffffffffffffffffffffffffff\n      and\n      dup2\n      jump\t// out\n        /* \"ServiceChain.sol\":440:550  function getDeployedServices() public view returns(address[] memory){... */\n    tag_29:\n        /* \"ServiceChain.sol\":491:507  address[] memory */\n      0x60\n        /* \"ServiceChain.sol\":526:542  deployedServices */\n      0x00\n        /* \"ServiceChain.sol\":519:542  return deployedServices */\n      dup1\n      sload\n      dup1\n      0x20\n      mul\n      0x20\n      add\n      mload(0x40)\n      swap1\n      dup2\n      add\n      0x40\n      mstore\n      dup1\n      swap3\n      swap2\n      swap1\n      dup2\n      dup2\n      mstore\n      0x20\n      add\n      dup3\n      dup1\n      sload\n      dup1\n      iszero\n      tag_59\n      jumpi\n      0x20\n      mul\n      dup3\n      add\n      swap2\n      swap1\n      0x00\n      mstore\n      keccak256(0x00, 0x20)\n      swap1\n    tag_60:\n      dup2\n      0x00\n      swap1\n      sload\n      swap1\n      0x0100\n      exp\n      swap1\n      div\n      0xffffffffffffffffffffffffffffffffffffffff\n      and\n      0xffffffffffffffffffffffffffffffffffffffff\n      and\n      dup2\n      mstore\n      0x20\n      add\n      swap1\n      0x01\n      add\n      swap1\n      dup1\n      dup4\n      gt\n      tag_60\n      jumpi\n    tag_59:\n      pop\n      pop\n      pop\n      pop\n      pop\n      swap1\n      pop\n        /* \"ServiceChain.sol\":440:550  function getDeployedServices() public view returns(address[] memory){... */\n      swap1\n      jump\t// out\n    tag_42:\n      dataSize(sub_0)\n      dup1\n      dataOffset(sub_0)\n      dup4\n      codecopy\n      add\n      swap1\n      jump\t// out\n        /* \"#utility.yul\":88:205   */\n    tag_62:\n        /* \"#utility.yul\":197:198   */\n      0x00\n        /* \"#utility.yul\":194:195   */\n      dup1\n        /* \"#utility.yul\":187:199   */\n      revert\n        /* \"#utility.yul\":211:328   */\n    tag_63:\n        /* \"#utility.yul\":320:321   */\n      0x00\n        /* \"#utility.yul\":317:318   */\n      dup1\n        /* \"#utility.yul\":310:322   */\n      revert\n        /* \"#utility.yul\":334:411   */\n    tag_64:\n        /* \"#utility.yul\":371:378   */\n      0x00\n        /* \"#utility.yul\":400:405   */\n      dup2\n        /* \"#utility.yul\":389:405   */\n      swap1\n      pop\n        /* \"#utility.yul\":334:411   */\n      swap2\n      swap1\n      pop\n      jump\t// out\n        /* \"#utility.yul\":417:539   */\n    tag_65:\n        /* \"#utility.yul\":490:514   */\n      tag_114\n        /* \"#utility.yul\":508:513   */\n      dup2\n        /* \"#utility.yul\":490:514   */\n      tag_64\n      jump\t// in\n    tag_114:\n        /* \"#utility.yul\":483:488   */\n      dup2\n        /* \"#utility.yul\":480:515   */\n      eq\n        /* \"#utility.yul\":470:533   */\n      tag_115\n      jumpi\n        /* \"#utility.yul\":529:530   */\n      0x00\n        /* \"#utility.yul\":526:527   */\n      dup1\n        /* \"#utility.yul\":519:531   */\n      revert\n        /* \"#utility.yul\":470:533   */\n    tag_115:\n        /* \"#utility.yul\":417:539   */\n      pop\n      jump\t// out\n        /* \"#utility.yul\":545:684   */\n    tag_66:\n        /* \"#utility.yul\":591:596   */\n      0x00\n        /* \"#utility.yul\":629:635   */\n      dup2\n        /* \"#utility.yul\":616:636   */\n      calldataload\n        /* \"#utility.yul\":607:636   */\n      swap1\n      pop\n        /* \"#utility.yul\":645:678   */\n      tag_117\n        /* \"#utility.yul\":672:677   */\n      dup2\n        /* \"#utility.yul\":645:678   */\n      tag_65\n      jump\t// in\n    tag_117:\n        /* \"#utility.yul\":545:684   */\n      swap3\n      swap2\n      pop\n      pop\n      jump\t// out\n        /* \"#utility.yul\":690:1019   */\n    tag_10:\n        /* \"#utility.yul\":749:755   */\n      0x00\n        /* \"#utility.yul\":798:800   */\n      0x20\n        /* \"#utility.yul\":786:795   */\n      dup3\n        /* \"#utility.yul\":777:784   */\n      dup5\n        /* \"#utility.yul\":773:796   */\n      sub\n        /* \"#utility.yul\":769:801   */\n      slt\n        /* \"#utility.yul\":766:885   */\n      iszero\n      tag_119\n      jumpi\n        /* \"#utility.yul\":804:883   */\n      tag_120\n      tag_62\n      jump\t// in\n    tag_120:\n        /* \"#utility.yul\":766:885   */\n    tag_119:\n        /* \"#utility.yul\":924:925   */\n      0x00\n        /* \"#utility.yul\":949:1002   */\n      tag_121\n        /* \"#utility.yul\":994:1001   */\n      dup5\n        /* \"#utility.yul\":985:991   */\n      dup3\n        /* \"#utility.yul\":974:983   */\n      dup6\n        /* \"#utility.yul\":970:992   */\n      add\n        /* \"#utility.yul\":949:1002   */\n      tag_66\n      jump\t// in\n    tag_121:\n        /* \"#utility.yul\":939:1002   */\n      swap2\n      pop\n        /* \"#utility.yul\":895:1012   */\n      pop\n        /* \"#utility.yul\":690:1019   */\n      swap3\n      swap2\n      pop\n      pop\n      jump\t// out\n        /* \"#utility.yul\":1025:1124   */\n    tag_67:\n        /* \"#utility.yul\":1077:1083   */\n      0x00\n        /* \"#utility.yul\":1111:1116   */\n      dup2\n        /* \"#utility.yul\":1105:1117   */\n      mload\n        /* \"#utility.yul\":1095:1117   */\n      swap1\n      pop\n        /* \"#utility.yul\":1025:1124   */\n      swap2\n      swap1\n      pop\n      jump\t// out\n        /* \"#utility.yul\":1130:1299   */\n    tag_68:\n        /* \"#utility.yul\":1214:1225   */\n      0x00\n        /* \"#utility.yul\":1248:1254   */\n      dup3\n        /* \"#utility.yul\":1243:1246   */\n      dup3\n        /* \"#utility.yul\":1236:1255   */\n      mstore\n        /* \"#utility.yul\":1288:1292   */\n      0x20\n        /* \"#utility.yul\":1283:1286   */\n      dup3\n        /* \"#utility.yul\":1279:1293   */\n      add\n        /* \"#utility.yul\":1264:1293   */\n      swap1\n      pop\n        /* \"#utility.yul\":1130:1299   */\n      swap3\n      swap2\n      pop\n      pop\n      jump\t// out\n        /* \"#utility.yul\":1305:1551   */\n    tag_69:\n        /* \"#utility.yul\":1386:1387   */\n      0x00\n        /* \"#utility.yul\":1396:1509   */\n    tag_125:\n        /* \"#utility.yul\":1410:1416   */\n      dup4\n        /* \"#utility.yul\":1407:1408   */\n      dup2\n        /* \"#utility.yul\":1404:1417   */\n      lt\n        /* \"#utility.yul\":1396:1509   */\n      iszero\n      tag_127\n      jumpi\n        /* \"#utility.yul\":1495:1496   */\n      dup1\n        /* \"#utility.yul\":1490:1493   */\n      dup3\n        /* \"#utility.yul\":1486:1497   */\n      add\n        /* \"#utility.yul\":1480:1498   */\n      mload\n        /* \"#utility.yul\":1476:1477   */\n      dup2\n        /* \"#utility.yul\":1471:1474   */\n      dup5\n        /* \"#utility.yul\":1467:1478   */\n      add\n        /* \"#utility.yul\":1460:1499   */\n      mstore\n        /* \"#utility.yul\":1432:1434   */\n      0x20\n        /* \"#utility.yul\":1429:1430   */\n      dup2\n        /* \"#utility.yul\":1425:1435   */\n      add\n        /* \"#utility.yul\":1420:1435   */\n      swap1\n      pop\n        /* \"#utility.yul\":1396:1509   */\n      jump(tag_125)\n    tag_127:\n        /* \"#utility.yul\":1543:1544   */\n      0x00\n        /* \"#utility.yul\":1534:1540   */\n      dup5\n        /* \"#utility.yul\":1529:1532   */\n      dup5\n        /* \"#utility.yul\":1525:1541   */\n      add\n        /* \"#utility.yul\":1518:1545   */\n      mstore\n        /* \"#utility.yul\":1367:1551   */\n      pop\n        /* \"#utility.yul\":1305:1551   */\n      pop\n      pop\n      pop\n      jump\t// out\n        /* \"#utility.yul\":1557:1659   */\n    tag_70:\n        /* \"#utility.yul\":1598:1604   */\n      0x00\n        /* \"#utility.yul\":1649:1651   */\n      0x1f\n        /* \"#utility.yul\":1645:1652   */\n      not\n        /* \"#utility.yul\":1640:1642   */\n      0x1f\n        /* \"#utility.yul\":1633:1638   */\n      dup4\n        /* \"#utility.yul\":1629:1643   */\n      add\n        /* \"#utility.yul\":1625:1653   */\n      and\n        /* \"#utility.yul\":1615:1653   */\n      swap1\n      pop\n        /* \"#utility.yul\":1557:1659   */\n      swap2\n      swap1\n      pop\n      jump\t// out\n        /* \"#utility.yul\":1665:2042   */\n    tag_71:\n        /* \"#utility.yul\":1753:1756   */\n      0x00\n        /* \"#utility.yul\":1781:1820   */\n      tag_130\n        /* \"#utility.yul\":1814:1819   */\n      dup3\n        /* \"#utility.yul\":1781:1820   */\n      tag_67\n      jump\t// in\n    tag_130:\n        /* \"#utility.yul\":1836:1907   */\n      tag_131\n        /* \"#utility.yul\":1900:1906   */\n      dup2\n        /* \"#utility.yul\":1895:1898   */\n      dup6\n        /* \"#utility.yul\":1836:1907   */\n      tag_68\n      jump\t// in\n    tag_131:\n        /* \"#utility.yul\":1829:1907   */\n      swap4\n      pop\n        /* \"#utility.yul\":1916:1981   */\n      tag_132\n        /* \"#utility.yul\":1974:1980   */\n      dup2\n        /* \"#utility.yul\":1969:1972   */\n      dup6\n        /* \"#utility.yul\":1962:1966   */\n      0x20\n        /* \"#utility.yul\":1955:1960   */\n      dup7\n        /* \"#utility.yul\":1951:1967   */\n      add\n        /* \"#utility.yul\":1916:1981   */\n      tag_69\n      jump\t// in\n    tag_132:\n        /* \"#utility.yul\":2006:2035   */\n      tag_133\n        /* \"#utility.yul\":2028:2034   */\n      dup2\n        /* \"#utility.yul\":2006:2035   */\n      tag_70\n      jump\t// in\n    tag_133:\n        /* \"#utility.yul\":2001:2004   */\n      dup5\n        /* \"#utility.yul\":1997:2036   */\n      add\n        /* \"#utility.yul\":1990:2036   */\n      swap2\n      pop\n        /* \"#utility.yul\":1757:2042   */\n      pop\n        /* \"#utility.yul\":1665:2042   */\n      swap3\n      swap2\n      pop\n      pop\n      jump\t// out\n        /* \"#utility.yul\":2048:2361   */\n    tag_13:\n        /* \"#utility.yul\":2161:2165   */\n      0x00\n        /* \"#utility.yul\":2199:2201   */\n      0x20\n        /* \"#utility.yul\":2188:2197   */\n      dup3\n        /* \"#utility.yul\":2184:2202   */\n      add\n        /* \"#utility.yul\":2176:2202   */\n      swap1\n      pop\n        /* \"#utility.yul\":2248:2257   */\n      dup2\n        /* \"#utility.yul\":2242:2246   */\n      dup2\n        /* \"#utility.yul\":2238:2258   */\n      sub\n        /* \"#utility.yul\":2234:2235   */\n      0x00\n        /* \"#utility.yul\":2223:2232   */\n      dup4\n        /* \"#utility.yul\":2219:2236   */\n      add\n        /* \"#utility.yul\":2212:2259   */\n      mstore\n        /* \"#utility.yul\":2276:2354   */\n      tag_135\n        /* \"#utility.yul\":2349:2353   */\n      dup2\n        /* \"#utility.yul\":2340:2346   */\n      dup5\n        /* \"#utility.yul\":2276:2354   */\n      tag_71\n      jump\t// in\n    tag_135:\n        /* \"#utility.yul\":2268:2354   */\n      swap1\n      pop\n        /* \"#utility.yul\":2048:2361   */\n      swap3\n      swap2\n      pop\n      pop\n      jump\t// out\n        /* \"#utility.yul\":2367:2484   */\n    tag_72:\n        /* \"#utility.yul\":2476:2477   */\n      0x00\n        /* \"#utility.yul\":2473:2474   */\n      dup1\n        /* \"#utility.yul\":2466:2478   */\n      revert\n        /* \"#utility.yul\":2490:2607   */\n    tag_73:\n        /* \"#utility.yul\":2599:2600   */\n      0x00\n        /* \"#utility.yul\":2596:2597   */\n      dup1\n        /* \"#utility.yul\":2589:2601   */\n      revert\n        /* \"#utility.yul\":2613:2730   */\n    tag_74:\n        /* \"#utility.yul\":2722:2723   */\n      0x00\n        /* \"#utility.yul\":2719:2720   */\n      dup1\n        /* \"#utility.yul\":2712:2724   */\n      revert\n        /* \"#utility.yul\":2750:3303   */\n    tag_75:\n        /* \"#utility.yul\":2808:2816   */\n      0x00\n        /* \"#utility.yul\":2818:2824   */\n      dup1\n        /* \"#utility.yul\":2868:2871   */\n      dup4\n        /* \"#utility.yul\":2861:2865   */\n      0x1f\n        /* \"#utility.yul\":2853:2859   */\n      dup5\n        /* \"#utility.yul\":2849:2866   */\n      add\n        /* \"#utility.yul\":2845:2872   */\n      slt\n        /* \"#utility.yul\":2835:2957   */\n      tag_140\n      jumpi\n        /* \"#utility.yul\":2876:2955   */\n      tag_141\n      tag_72\n      jump\t// in\n    tag_141:\n        /* \"#utility.yul\":2835:2957   */\n    tag_140:\n        /* \"#utility.yul\":2989:2995   */\n      dup3\n        /* \"#utility.yul\":2976:2996   */\n      calldataload\n        /* \"#utility.yul\":2966:2996   */\n      swap1\n      pop\n        /* \"#utility.yul\":3019:3037   */\n      0xffffffffffffffff\n        /* \"#utility.yul\":3011:3017   */\n      dup2\n        /* \"#utility.yul\":3008:3038   */\n      gt\n        /* \"#utility.yul\":3005:3122   */\n      iszero\n      tag_142\n      jumpi\n        /* \"#utility.yul\":3041:3120   */\n      tag_143\n      tag_73\n      jump\t// in\n    tag_143:\n        /* \"#utility.yul\":3005:3122   */\n    tag_142:\n        /* \"#utility.yul\":3155:3159   */\n      0x20\n        /* \"#utility.yul\":3147:3153   */\n      dup4\n        /* \"#utility.yul\":3143:3160   */\n      add\n        /* \"#utility.yul\":3131:3160   */\n      swap2\n      pop\n        /* \"#utility.yul\":3209:3212   */\n      dup4\n        /* \"#utility.yul\":3201:3205   */\n      0x01\n        /* \"#utility.yul\":3193:3199   */\n      dup3\n        /* \"#utility.yul\":3189:3206   */\n      mul\n        /* \"#utility.yul\":3179:3187   */\n      dup4\n        /* \"#utility.yul\":3175:3207   */\n      add\n        /* \"#utility.yul\":3172:3213   */\n      gt\n        /* \"#utility.yul\":3169:3297   */\n      iszero\n      tag_144\n      jumpi\n        /* \"#utility.yul\":3216:3295   */\n      tag_145\n      tag_74\n      jump\t// in\n    tag_145:\n        /* \"#utility.yul\":3169:3297   */\n    tag_144:\n        /* \"#utility.yul\":2750:3303   */\n      swap3\n      pop\n      swap3\n      swap1\n      pop\n      jump\t// out\n        /* \"#utility.yul\":3309:3838   */\n    tag_16:\n        /* \"#utility.yul\":3380:3386   */\n      0x00\n        /* \"#utility.yul\":3388:3394   */\n      dup1\n        /* \"#utility.yul\":3437:3439   */\n      0x20\n        /* \"#utility.yul\":3425:3434   */\n      dup4\n        /* \"#utility.yul\":3416:3423   */\n      dup6\n        /* \"#utility.yul\":3412:3435   */\n      sub\n        /* \"#utility.yul\":3408:3440   */\n      slt\n        /* \"#utility.yul\":3405:3524   */\n      iszero\n      tag_147\n      jumpi\n        /* \"#utility.yul\":3443:3522   */\n      tag_148\n      tag_62\n      jump\t// in\n    tag_148:\n        /* \"#utility.yul\":3405:3524   */\n    tag_147:\n        /* \"#utility.yul\":3591:3592   */\n      0x00\n        /* \"#utility.yul\":3580:3589   */\n      dup4\n        /* \"#utility.yul\":3576:3593   */\n      add\n        /* \"#utility.yul\":3563:3594   */\n      calldataload\n        /* \"#utility.yul\":3621:3639   */\n      0xffffffffffffffff\n        /* \"#utility.yul\":3613:3619   */\n      dup2\n        /* \"#utility.yul\":3610:3640   */\n      gt\n        /* \"#utility.yul\":3607:3724   */\n      iszero\n      tag_149\n      jumpi\n        /* \"#utility.yul\":3643:3722   */\n      tag_150\n      tag_63\n      jump\t// in\n    tag_150:\n        /* \"#utility.yul\":3607:3724   */\n    tag_149:\n        /* \"#utility.yul\":3756:3821   */\n      tag_151\n        /* \"#utility.yul\":3813:3820   */\n      dup6\n        /* \"#utility.yul\":3804:3810   */\n      dup3\n        /* \"#utility.yul\":3793:3802   */\n      dup7\n        /* \"#utility.yul\":3789:3811   */\n      add\n        /* \"#utility.yul\":3756:3821   */\n      tag_75\n      jump\t// in\n    tag_151:\n        /* \"#utility.yul\":3738:3821   */\n      swap3\n      pop\n      swap3\n      pop\n        /* \"#utility.yul\":3534:3831   */\n      pop\n        /* \"#utility.yul\":3309:3838   */\n      swap3\n      pop\n      swap3\n      swap1\n      pop\n      jump\t// out\n        /* \"#utility.yul\":3844:3970   */\n    tag_76:\n        /* \"#utility.yul\":3881:3888   */\n      0x00\n        /* \"#utility.yul\":3921:3963   */\n      0xffffffffffffffffffffffffffffffffffffffff\n        /* \"#utility.yul\":3914:3919   */\n      dup3\n        /* \"#utility.yul\":3910:3964   */\n      and\n        /* \"#utility.yul\":3899:3964   */\n      swap1\n      pop\n        /* \"#utility.yul\":3844:3970   */\n      swap2\n      swap1\n      pop\n      jump\t// out\n        /* \"#utility.yul\":3976:4072   */\n    tag_77:\n        /* \"#utility.yul\":4013:4020   */\n      0x00\n        /* \"#utility.yul\":4042:4066   */\n      tag_154\n        /* \"#utility.yul\":4060:4065   */\n      dup3\n        /* \"#utility.yul\":4042:4066   */\n      tag_76\n      jump\t// in\n    tag_154:\n        /* \"#utility.yul\":4031:4066   */\n      swap1\n      pop\n        /* \"#utility.yul\":3976:4072   */\n      swap2\n      swap1\n      pop\n      jump\t// out\n        /* \"#utility.yul\":4078:4200   */\n    tag_78:\n        /* \"#utility.yul\":4151:4175   */\n      tag_156\n        /* \"#utility.yul\":4169:4174   */\n      dup2\n        /* \"#utility.yul\":4151:4175   */\n      tag_77\n      jump\t// in\n    tag_156:\n        /* \"#utility.yul\":4144:4149   */\n      dup2\n        /* \"#utility.yul\":4141:4176   */\n      eq\n        /* \"#utility.yul\":4131:4194   */\n      tag_157\n      jumpi\n        /* \"#utility.yul\":4190:4191   */\n      0x00\n        /* \"#utility.yul\":4187:4188   */\n      dup1\n        /* \"#utility.yul\":4180:4192   */\n      revert\n        /* \"#utility.yul\":4131:4194   */\n    tag_157:\n        /* \"#utility.yul\":4078:4200   */\n      pop\n      jump\t// out\n        /* \"#utility.yul\":4206:4345   */\n    tag_79:\n        /* \"#utility.yul\":4252:4257   */\n      0x00\n        /* \"#utility.yul\":4290:4296   */\n      dup2\n        /* \"#utility.yul\":4277:4297   */\n      calldataload\n        /* \"#utility.yul\":4268:4297   */\n      swap1\n      pop\n        /* \"#utility.yul\":4306:4339   */\n      tag_159\n        /* \"#utility.yul\":4333:4338   */\n      dup2\n        /* \"#utility.yul\":4306:4339   */\n      tag_78\n      jump\t// in\n    tag_159:\n        /* \"#utility.yul\":4206:4345   */\n      swap3\n      swap2\n      pop\n      pop\n      jump\t// out\n        /* \"#utility.yul\":4351:4680   */\n    tag_20:\n        /* \"#utility.yul\":4410:4416   */\n      0x00\n        /* \"#utility.yul\":4459:4461   */\n      0x20\n        /* \"#utility.yul\":4447:4456   */\n      dup3\n        /* \"#utility.yul\":4438:4445   */\n      dup5\n        /* \"#utility.yul\":4434:4457   */\n      sub\n        /* \"#utility.yul\":4430:4462   */\n      slt\n        /* \"#utility.yul\":4427:4546   */\n      iszero\n      tag_161\n      jumpi\n        /* \"#utility.yul\":4465:4544   */\n      tag_162\n      tag_62\n      jump\t// in\n    tag_162:\n        /* \"#utility.yul\":4427:4546   */\n    tag_161:\n        /* \"#utility.yul\":4585:4586   */\n      0x00\n        /* \"#utility.yul\":4610:4663   */\n      tag_163\n        /* \"#utility.yul\":4655:4662   */\n      dup5\n        /* \"#utility.yul\":4646:4652   */\n      dup3\n        /* \"#utility.yul\":4635:4644   */\n      dup6\n        /* \"#utility.yul\":4631:4653   */\n      add\n        /* \"#utility.yul\":4610:4663   */\n      tag_79\n      jump\t// in\n    tag_163:\n        /* \"#utility.yul\":4600:4663   */\n      swap2\n      pop\n        /* \"#utility.yul\":4556:4673   */\n      pop\n        /* \"#utility.yul\":4351:4680   */\n      swap3\n      swap2\n      pop\n      pop\n      jump\t// out\n        /* \"#utility.yul\":4686:4804   */\n    tag_80:\n        /* \"#utility.yul\":4773:4797   */\n      tag_165\n        /* \"#utility.yul\":4791:4796   */\n      dup2\n        /* \"#utility.yul\":4773:4797   */\n      tag_77\n      jump\t// in\n    tag_165:\n        /* \"#utility.yul\":4768:4771   */\n      dup3\n        /* \"#utility.yul\":4761:4798   */\n      mstore\n        /* \"#utility.yul\":4686:4804   */\n      pop\n      pop\n      jump\t// out\n        /* \"#utility.yul\":4810:5032   */\n    tag_27:\n        /* \"#utility.yul\":4903:4907   */\n      0x00\n        /* \"#utility.yul\":4941:4943   */\n      0x20\n        /* \"#utility.yul\":4930:4939   */\n      dup3\n        /* \"#utility.yul\":4926:4944   */\n      add\n        /* \"#utility.yul\":4918:4944   */\n      swap1\n      pop\n        /* \"#utility.yul\":4954:5025   */\n      tag_167\n        /* \"#utility.yul\":5022:5023   */\n      0x00\n        /* \"#utility.yul\":5011:5020   */\n      dup4\n        /* \"#utility.yul\":5007:5024   */\n      add\n        /* \"#utility.yul\":4998:5004   */\n      dup5\n        /* \"#utility.yul\":4954:5025   */\n      tag_80\n      jump\t// in\n    tag_167:\n        /* \"#utility.yul\":4810:5032   */\n      swap3\n      swap2\n      pop\n      pop\n      jump\t// out\n        /* \"#utility.yul\":5038:5152   */\n    tag_81:\n        /* \"#utility.yul\":5105:5111   */\n      0x00\n        /* \"#utility.yul\":5139:5144   */\n      dup2\n        /* \"#utility.yul\":5133:5145   */\n      mload\n        /* \"#utility.yul\":5123:5145   */\n      swap1\n      pop\n        /* \"#utility.yul\":5038:5152   */\n      swap2\n      swap1\n      pop\n      jump\t// out\n        /* \"#utility.yul\":5158:5342   */\n    tag_82:\n        /* \"#utility.yul\":5257:5268   */\n      0x00\n        /* \"#utility.yul\":5291:5297   */\n      dup3\n        /* \"#utility.yul\":5286:5289   */\n      dup3\n        /* \"#utility.yul\":5279:5298   */\n      mstore\n        /* \"#utility.yul\":5331:5335   */\n      0x20\n        /* \"#utility.yul\":5326:5329   */\n      dup3\n        /* \"#utility.yul\":5322:5336   */\n      add\n        /* \"#utility.yul\":5307:5336   */\n      swap1\n      pop\n        /* \"#utility.yul\":5158:5342   */\n      swap3\n      swap2\n      pop\n      pop\n      jump\t// out\n        /* \"#utility.yul\":5348:5480   */\n    tag_83:\n        /* \"#utility.yul\":5415:5419   */\n      0x00\n        /* \"#utility.yul\":5438:5441   */\n      dup2\n        /* \"#utility.yul\":5430:5441   */\n      swap1\n      pop\n        /* \"#utility.yul\":5468:5472   */\n      0x20\n        /* \"#utility.yul\":5463:5466   */\n      dup3\n        /* \"#utility.yul\":5459:5473   */\n      add\n        /* \"#utility.yul\":5451:5473   */\n      swap1\n      pop\n        /* \"#utility.yul\":5348:5480   */\n      swap2\n      swap1\n      pop\n      jump\t// out\n        /* \"#utility.yul\":5486:5594   */\n    tag_84:\n        /* \"#utility.yul\":5563:5587   */\n      tag_172\n        /* \"#utility.yul\":5581:5586   */\n      dup2\n        /* \"#utility.yul\":5563:5587   */\n      tag_77\n      jump\t// in\n    tag_172:\n        /* \"#utility.yul\":5558:5561   */\n      dup3\n        /* \"#utility.yul\":5551:5588   */\n      mstore\n        /* \"#utility.yul\":5486:5594   */\n      pop\n      pop\n      jump\t// out\n        /* \"#utility.yul\":5600:5779   */\n    tag_85:\n        /* \"#utility.yul\":5669:5679   */\n      0x00\n        /* \"#utility.yul\":5690:5736   */\n      tag_174\n        /* \"#utility.yul\":5732:5735   */\n      dup4\n        /* \"#utility.yul\":5724:5730   */\n      dup4\n        /* \"#utility.yul\":5690:5736   */\n      tag_84\n      jump\t// in\n    tag_174:\n        /* \"#utility.yul\":5768:5772   */\n      0x20\n        /* \"#utility.yul\":5763:5766   */\n      dup4\n        /* \"#utility.yul\":5759:5773   */\n      add\n        /* \"#utility.yul\":5745:5773   */\n      swap1\n      pop\n        /* \"#utility.yul\":5600:5779   */\n      swap3\n      swap2\n      pop\n      pop\n      jump\t// out\n        /* \"#utility.yul\":5785:5898   */\n    tag_86:\n        /* \"#utility.yul\":5855:5859   */\n      0x00\n        /* \"#utility.yul\":5887:5891   */\n      0x20\n        /* \"#utility.yul\":5882:5885   */\n      dup3\n        /* \"#utility.yul\":5878:5892   */\n      add\n        /* \"#utility.yul\":5870:5892   */\n      swap1\n      pop\n        /* \"#utility.yul\":5785:5898   */\n      swap2\n      swap1\n      pop\n      jump\t// out\n        /* \"#utility.yul\":5934:6666   */\n    tag_87:\n        /* \"#utility.yul\":6053:6056   */\n      0x00\n        /* \"#utility.yul\":6082:6136   */\n      tag_177\n        /* \"#utility.yul\":6130:6135   */\n      dup3\n        /* \"#utility.yul\":6082:6136   */\n      tag_81\n      jump\t// in\n    tag_177:\n        /* \"#utility.yul\":6152:6238   */\n      tag_178\n        /* \"#utility.yul\":6231:6237   */\n      dup2\n        /* \"#utility.yul\":6226:6229   */\n      dup6\n        /* \"#utility.yul\":6152:6238   */\n      tag_82\n      jump\t// in\n    tag_178:\n        /* \"#utility.yul\":6145:6238   */\n      swap4\n      pop\n        /* \"#utility.yul\":6262:6318   */\n      tag_179\n        /* \"#utility.yul\":6312:6317   */\n      dup4\n        /* \"#utility.yul\":6262:6318   */\n      tag_83\n      jump\t// in\n    tag_179:\n        /* \"#utility.yul\":6341:6348   */\n      dup1\n        /* \"#utility.yul\":6372:6373   */\n      0x00\n        /* \"#utility.yul\":6357:6641   */\n    tag_180:\n        /* \"#utility.yul\":6382:6388   */\n      dup4\n        /* \"#utility.yul\":6379:6380   */\n      dup2\n        /* \"#utility.yul\":6376:6389   */\n      lt\n        /* \"#utility.yul\":6357:6641   */\n      iszero\n      tag_182\n      jumpi\n        /* \"#utility.yul\":6458:6464   */\n      dup2\n        /* \"#utility.yul\":6452:6465   */\n      mload\n        /* \"#utility.yul\":6485:6548   */\n      tag_183\n        /* \"#utility.yul\":6544:6547   */\n      dup9\n        /* \"#utility.yul\":6529:6542   */\n      dup3\n        /* \"#utility.yul\":6485:6548   */\n      tag_85\n      jump\t// in\n    tag_183:\n        /* \"#utility.yul\":6478:6548   */\n      swap8\n      pop\n        /* \"#utility.yul\":6571:6631   */\n      tag_184\n        /* \"#utility.yul\":6624:6630   */\n      dup4\n        /* \"#utility.yul\":6571:6631   */\n      tag_86\n      jump\t// in\n    tag_184:\n        /* \"#utility.yul\":6561:6631   */\n      swap3\n      pop\n        /* \"#utility.yul\":6417:6641   */\n      pop\n        /* \"#utility.yul\":6404:6405   */\n      0x01\n        /* \"#utility.yul\":6401:6402   */\n      dup2\n        /* \"#utility.yul\":6397:6406   */\n      add\n        /* \"#utility.yul\":6392:6406   */\n      swap1\n      pop\n        /* \"#utility.yul\":6357:6641   */\n      jump(tag_180)\n    tag_182:\n        /* \"#utility.yul\":6361:6375   */\n      pop\n        /* \"#utility.yul\":6657:6660   */\n      dup6\n        /* \"#utility.yul\":6650:6660   */\n      swap4\n      pop\n        /* \"#utility.yul\":6058:6666   */\n      pop\n      pop\n      pop\n        /* \"#utility.yul\":5934:6666   */\n      swap3\n      swap2\n      pop\n      pop\n      jump\t// out\n        /* \"#utility.yul\":6672:7045   */\n    tag_31:\n        /* \"#utility.yul\":6815:6819   */\n      0x00\n        /* \"#utility.yul\":6853:6855   */\n      0x20\n        /* \"#utility.yul\":6842:6851   */\n      dup3\n        /* \"#utility.yul\":6838:6856   */\n      add\n        /* \"#utility.yul\":6830:6856   */\n      swap1\n      pop\n        /* \"#utility.yul\":6902:6911   */\n      dup2\n        /* \"#utility.yul\":6896:6900   */\n      dup2\n        /* \"#utility.yul\":6892:6912   */\n      sub\n        /* \"#utility.yul\":6888:6889   */\n      0x00\n        /* \"#utility.yul\":6877:6886   */\n      dup4\n        /* \"#utility.yul\":6873:6890   */\n      add\n        /* \"#utility.yul\":6866:6913   */\n      mstore\n        /* \"#utility.yul\":6930:7038   */\n      tag_186\n        /* \"#utility.yul\":7033:7037   */\n      dup2\n        /* \"#utility.yul\":7024:7030   */\n      dup5\n        /* \"#utility.yul\":6930:7038   */\n      tag_87\n      jump\t// in\n    tag_186:\n        /* \"#utility.yul\":6922:7038   */\n      swap1\n      pop\n        /* \"#utility.yul\":6672:7045   */\n      swap3\n      swap2\n      pop\n      pop\n      jump\t// out\n        /* \"#utility.yul\":7051:7231   */\n    tag_88:\n        /* \"#utility.yul\":7099:7176   */\n      0x4e487b7100000000000000000000000000000000000000000000000000000000\n        /* \"#utility.yul\":7096:7097   */\n      0x00\n        /* \"#utility.yul\":7089:7177   */\n      mstore\n        /* \"#utility.yul\":7196:7200   */\n      0x22\n        /* \"#utility.yul\":7193:7194   */\n      0x04\n        /* \"#utility.yul\":7186:7201   */\n      mstore\n        /* \"#utility.yul\":7220:7224   */\n      0x24\n        /* \"#utility.yul\":7217:7218   */\n      0x00\n        /* \"#utility.yul\":7210:7225   */\n      revert\n        /* \"#utility.yul\":7237:7557   */\n    tag_35:\n        /* \"#utility.yul\":7281:7287   */\n      0x00\n        /* \"#utility.yul\":7318:7319   */\n      0x02\n        /* \"#utility.yul\":7312:7316   */\n      dup3\n        /* \"#utility.yul\":7308:7320   */\n      div\n        /* \"#utility.yul\":7298:7320   */\n      swap1\n      pop\n        /* \"#utility.yul\":7365:7366   */\n      0x01\n        /* \"#utility.yul\":7359:7363   */\n      dup3\n        /* \"#utility.yul\":7355:7367   */\n      and\n        /* \"#utility.yul\":7386:7404   */\n      dup1\n        /* \"#utility.yul\":7376:7457   */\n      tag_189\n      jumpi\n        /* \"#utility.yul\":7442:7446   */\n      0x7f\n        /* \"#utility.yul\":7434:7440   */\n      dup3\n        /* \"#utility.yul\":7430:7447   */\n      and\n        /* \"#utility.yul\":7420:7447   */\n      swap2\n      pop\n        /* \"#utility.yul\":7376:7457   */\n    tag_189:\n        /* \"#utility.yul\":7504:7506   */\n      0x20\n        /* \"#utility.yul\":7496:7502   */\n      dup3\n        /* \"#utility.yul\":7493:7507   */\n      lt\n        /* \"#utility.yul\":7473:7491   */\n      dup2\n        /* \"#utility.yul\":7470:7508   */\n      sub\n        /* \"#utility.yul\":7467:7551   */\n      tag_190\n      jumpi\n        /* \"#utility.yul\":7523:7541   */\n      tag_191\n      tag_88\n      jump\t// in\n    tag_191:\n        /* \"#utility.yul\":7467:7551   */\n    tag_190:\n        /* \"#utility.yul\":7288:7557   */\n      pop\n        /* \"#utility.yul\":7237:7557   */\n      swap2\n      swap1\n      pop\n      jump\t// out\n        /* \"#utility.yul\":7563:7709   */\n    tag_89:\n        /* \"#utility.yul\":7660:7666   */\n      dup3\n        /* \"#utility.yul\":7655:7658   */\n      dup2\n        /* \"#utility.yul\":7650:7653   */\n      dup4\n        /* \"#utility.yul\":7637:7667   */\n      calldatacopy\n        /* \"#utility.yul\":7701:7702   */\n      0x00\n        /* \"#utility.yul\":7692:7698   */\n      dup4\n        /* \"#utility.yul\":7687:7690   */\n      dup4\n        /* \"#utility.yul\":7683:7699   */\n      add\n        /* \"#utility.yul\":7676:7703   */\n      mstore\n        /* \"#utility.yul\":7563:7709   */\n      pop\n      pop\n      pop\n      jump\t// out\n        /* \"#utility.yul\":7739:8056   */\n    tag_90:\n        /* \"#utility.yul\":7837:7840   */\n      0x00\n        /* \"#utility.yul\":7858:7929   */\n      tag_194\n        /* \"#utility.yul\":7922:7928   */\n      dup4\n        /* \"#utility.yul\":7917:7920   */\n      dup6\n        /* \"#utility.yul\":7858:7929   */\n      tag_68\n      jump\t// in\n    tag_194:\n        /* \"#utility.yul\":7851:7929   */\n      swap4\n      pop\n        /* \"#utility.yul\":7939:7995   */\n      tag_195\n        /* \"#utility.yul\":7988:7994   */\n      dup4\n        /* \"#utility.yul\":7983:7986   */\n      dup6\n        /* \"#utility.yul\":7976:7981   */\n      dup5\n        /* \"#utility.yul\":7939:7995   */\n      tag_89\n      jump\t// in\n    tag_195:\n        /* \"#utility.yul\":8020:8049   */\n      tag_196\n        /* \"#utility.yul\":8042:8048   */\n      dup4\n        /* \"#utility.yul\":8020:8049   */\n      tag_70\n      jump\t// in\n    tag_196:\n        /* \"#utility.yul\":8015:8018   */\n      dup5\n        /* \"#utility.yul\":8011:8050   */\n      add\n        /* \"#utility.yul\":8004:8050   */\n      swap1\n      pop\n        /* \"#utility.yul\":7739:8056   */\n      swap4\n      swap3\n      pop\n      pop\n      pop\n      jump\t// out\n        /* \"#utility.yul\":8062:8505   */\n    tag_44:\n        /* \"#utility.yul\":8213:8217   */\n      0x00\n        /* \"#utility.yul\":8251:8253   */\n      0x40\n        /* \"#utility.yul\":8240:8249   */\n      dup3\n        /* \"#utility.yul\":8236:8254   */\n      add\n        /* \"#utility.yul\":8228:8254   */\n      swap1\n      pop\n        /* \"#utility.yul\":8264:8335   */\n      tag_198\n        /* \"#utility.yul\":8332:8333   */\n      0x00\n        /* \"#utility.yul\":8321:8330   */\n      dup4\n        /* \"#utility.yul\":8317:8334   */\n      add\n        /* \"#utility.yul\":8308:8314   */\n      dup7\n        /* \"#utility.yul\":8264:8335   */\n      tag_80\n      jump\t// in\n    tag_198:\n        /* \"#utility.yul\":8382:8391   */\n      dup2\n        /* \"#utility.yul\":8376:8380   */\n      dup2\n        /* \"#utility.yul\":8372:8392   */\n      sub\n        /* \"#utility.yul\":8367:8369   */\n      0x20\n        /* \"#utility.yul\":8356:8365   */\n      dup4\n        /* \"#utility.yul\":8352:8370   */\n      add\n        /* \"#utility.yul\":8345:8393   */\n      mstore\n        /* \"#utility.yul\":8410:8498   */\n      tag_199\n        /* \"#utility.yul\":8493:8497   */\n      dup2\n        /* \"#utility.yul\":8484:8490   */\n      dup5\n        /* \"#utility.yul\":8476:8482   */\n      dup7\n        /* \"#utility.yul\":8410:8498   */\n      tag_90\n      jump\t// in\n    tag_199:\n        /* \"#utility.yul\":8402:8498   */\n      swap1\n      pop\n        /* \"#utility.yul\":8062:8505   */\n      swap5\n      swap4\n      pop\n      pop\n      pop\n      pop\n      jump\t// out\n        /* \"#utility.yul\":8511:8608   */\n    tag_91:\n        /* \"#utility.yul\":8570:8576   */\n      0x00\n        /* \"#utility.yul\":8598:8601   */\n      dup3\n        /* \"#utility.yul\":8588:8601   */\n      swap1\n      pop\n        /* \"#utility.yul\":8511:8608   */\n      swap3\n      swap2\n      pop\n      pop\n      jump\t// out\n        /* \"#utility.yul\":8614:8794   */\n    tag_92:\n        /* \"#utility.yul\":8662:8739   */\n      0x4e487b7100000000000000000000000000000000000000000000000000000000\n        /* \"#utility.yul\":8659:8660   */\n      0x00\n        /* \"#utility.yul\":8652:8740   */\n      mstore\n        /* \"#utility.yul\":8759:8763   */\n      0x41\n        /* \"#utility.yul\":8756:8757   */\n      0x04\n        /* \"#utility.yul\":8749:8764   */\n      mstore\n        /* \"#utility.yul\":8783:8787   */\n      0x24\n        /* \"#utility.yul\":8780:8781   */\n      0x00\n        /* \"#utility.yul\":8773:8788   */\n      revert\n        /* \"#utility.yul\":8800:8941   */\n    tag_93:\n        /* \"#utility.yul\":8849:8853   */\n      0x00\n        /* \"#utility.yul\":8872:8875   */\n      dup2\n        /* \"#utility.yul\":8864:8875   */\n      swap1\n      pop\n        /* \"#utility.yul\":8895:8898   */\n      dup2\n        /* \"#utility.yul\":8892:8893   */\n      0x00\n        /* \"#utility.yul\":8885:8899   */\n      mstore\n        /* \"#utility.yul\":8929:8933   */\n      0x20\n        /* \"#utility.yul\":8926:8927   */\n      0x00\n        /* \"#utility.yul\":8916:8934   */\n      keccak256\n        /* \"#utility.yul\":8908:8934   */\n      swap1\n      pop\n        /* \"#utility.yul\":8800:8941   */\n      swap2\n      swap1\n      pop\n      jump\t// out\n        /* \"#utility.yul\":8947:9040   */\n    tag_94:\n        /* \"#utility.yul\":8984:8990   */\n      0x00\n        /* \"#utility.yul\":9031:9033   */\n      0x20\n        /* \"#utility.yul\":9026:9028   */\n      0x1f\n        /* \"#utility.yul\":9019:9024   */\n      dup4\n        /* \"#utility.yul\":9015:9029   */\n      add\n        /* \"#utility.yul\":9011:9034   */\n      div\n        /* \"#utility.yul\":9001:9034   */\n      swap1\n      pop\n        /* \"#utility.yul\":8947:9040   */\n      swap2\n      swap1\n      pop\n      jump\t// out\n        /* \"#utility.yul\":9046:9153   */\n    tag_95:\n        /* \"#utility.yul\":9090:9098   */\n      0x00\n        /* \"#utility.yul\":9140:9145   */\n      dup3\n        /* \"#utility.yul\":9134:9138   */\n      dup3\n        /* \"#utility.yul\":9130:9146   */\n      shl\n        /* \"#utility.yul\":9109:9146   */\n      swap1\n      pop\n        /* \"#utility.yul\":9046:9153   */\n      swap3\n      swap2\n      pop\n      pop\n      jump\t// out\n        /* \"#utility.yul\":9159:9552   */\n    tag_96:\n        /* \"#utility.yul\":9228:9234   */\n      0x00\n        /* \"#utility.yul\":9278:9279   */\n      0x08\n        /* \"#utility.yul\":9266:9276   */\n      dup4\n        /* \"#utility.yul\":9262:9280   */\n      mul\n        /* \"#utility.yul\":9301:9398   */\n      tag_206\n        /* \"#utility.yul\":9331:9397   */\n      0xffffffffffffffffffffffffffffffffffffffffffffffffffffffffffffffff\n        /* \"#utility.yul\":9320:9329   */\n      dup3\n        /* \"#utility.yul\":9301:9398   */\n      tag_95\n      jump\t// in\n    tag_206:\n        /* \"#utility.yul\":9419:9458   */\n      tag_207\n        /* \"#utility.yul\":9449:9457   */\n      dup7\n        /* \"#utility.yul\":9438:9447   */\n      dup4\n        /* \"#utility.yul\":9419:9458   */\n      tag_95\n      jump\t// in\n    tag_207:\n        /* \"#utility.yul\":9407:9458   */\n      swap6\n      pop\n        /* \"#utility.yul\":9491:9495   */\n      dup1\n        /* \"#utility.yul\":9487:9496   */\n      not\n        /* \"#utility.yul\":9480:9485   */\n      dup5\n        /* \"#utility.yul\":9476:9497   */\n      and\n        /* \"#utility.yul\":9467:9497   */\n      swap4\n      pop\n        /* \"#utility.yul\":9540:9544   */\n      dup1\n        /* \"#utility.yul\":9530:9538   */\n      dup7\n        /* \"#utility.yul\":9526:9545   */\n      and\n        /* \"#utility.yul\":9519:9524   */\n      dup5\n        /* \"#utility.yul\":9516:9546   */\n      or\n        /* \"#utility.yul\":9506:9546   */\n      swap3\n      pop\n        /* \"#utility.yul\":9235:9552   */\n      pop\n      pop\n        /* \"#utility.yul\":9159:9552   */\n      swap4\n      swap3\n      pop\n      pop\n      pop\n      jump\t// out\n        /* \"#utility.yul\":9558:9618   */\n    tag_97:\n        /* \"#utility.yul\":9586:9589   */\n      0x00\n        /* \"#utility.yul\":9607:9612   */\n      dup2\n        /* \"#utility.yul\":9600:9612   */\n      swap1\n      pop\n        /* \"#utility.yul\":9558:9618   */\n      swap2\n      swap1\n      pop\n      jump\t// out\n        /* \"#utility.yul\":9624:9766   */\n    tag_98:\n        /* \"#utility.yul\":9674:9683   */\n      0x00\n        /* \"#utility.yul\":9707:9760   */\n      tag_210\n        /* \"#utility.yul\":9725:9759   */\n      tag_211\n        /* \"#utility.yul\":9734:9758   */\n      tag_212\n        /* \"#utility.yul\":9752:9757   */\n      dup5\n        /* \"#utility.yul\":9734:9758   */\n      tag_64\n      jump\t// in\n    tag_212:\n        /* \"#utility.yul\":9725:9759   */\n      tag_97\n      jump\t// in\n    tag_211:\n        /* \"#utility.yul\":9707:9760   */\n      tag_64\n      jump\t// in\n    tag_210:\n        /* \"#utility.yul\":9694:9760   */\n      swap1\n      pop\n        /* \"#utility.yul\":9624:9766   */\n      swap2\n      swap1\n      pop\n      jump\t// out\n        /* \"#utility.yul\":9772:9847   */\n    tag_99:\n        /* \"#utility.yul\":9815:9818   */\n      0x00\n        /* \"#utility.yul\":9836:9841   */\n      dup2\n        /* \"#utility.yul\":9829:9841   */\n      swap1\n      pop\n        /* \"#utility.yul\":9772:9847   */\n      swap2\n      swap1\n      pop\n      jump\t// out\n        /* \"#utility.yul\":9853:10122   */\n    tag_100:\n        /* \"#utility.yul\":9963:10002   */\n      tag_215\n        /* \"#utility.yul\":9994:10001   */\n      dup4\n        /* \"#utility.yul\":9963:10002   */\n      tag_98\n      jump\t// in\n    tag_215:\n        /* \"#utility.yul\":10024:10115   */\n      tag_216\n        /* \"#utility.yul\":10073:10114   */\n      tag_217\n        /* \"#utility.yul\":10097:10113   */\n      dup3\n        /* \"#utility.yul\":10073:10114   */\n      tag_99\n      jump\t// in\n    tag_217:\n        /* \"#utility.yul\":10065:10071   */\n      dup5\n        /* \"#utility.yul\":10058:10062   */\n      dup5\n        /* \"#utility.yul\":10052:10063   */\n      sload\n        /* \"#utility.yul\":10024:10115   */\n      tag_96\n      jump\t// in\n    tag_216:\n        /* \"#utility.yul\":10018:10022   */\n      dup3\n        /* \"#utility.yul\":10011:10116   */\n      sstore\n        /* \"#utility.yul\":9929:10122   */\n      pop\n        /* \"#utility.yul\":9853:10122   */\n      pop\n      pop\n      pop\n      jump\t// out\n        /* \"#utility.yul\":10128:10201   */\n    tag_101:\n        /* \"#utility.yul\":10173:10176   */\n      0x00\n        /* \"#utility.yul\":10128:10201   */\n      swap1\n      jump\t// out\n        /* \"#utility.yul\":10207:10396   */\n    tag_102:\n        /* \"#utility.yul\":10284:10316   */\n      tag_220\n      tag_101\n      jump\t// in\n    tag_220:\n        /* \"#utility.yul\":10325:10390   */\n      tag_221\n        /* \"#utility.yul\":10383:10389   */\n      dup2\n        /* \"#utility.yul\":10375:10381   */\n      dup5\n        /* \"#utility.yul\":10369:10373   */\n      dup5\n        /* \"#utility.yul\":10325:10390   */\n      tag_100\n      jump\t// in\n    tag_221:\n        /* \"#utility.yul\":10260:10396   */\n      pop\n        /* \"#utility.yul\":10207:10396   */\n      pop\n      pop\n      jump\t// out\n        /* \"#utility.yul\":10402:10588   */\n    tag_103:\n        /* \"#utility.yul\":10462:10582   */\n    tag_223:\n        /* \"#utility.yul\":10479:10482   */\n      dup2\n        /* \"#utility.yul\":10472:10477   */\n      dup2\n        /* \"#utility.yul\":10469:10483   */\n      lt\n        /* \"#utility.yul\":10462:10582   */\n      iszero\n      tag_225\n      jumpi\n        /* \"#utility.yul\":10533:10572   */\n      tag_226\n        /* \"#utility.yul\":10570:10571   */\n      0x00\n        /* \"#utility.yul\":10563:10568   */\n      dup3\n        /* \"#utility.yul\":10533:10572   */\n      tag_102\n      jump\t// in\n    tag_226:\n        /* \"#utility.yul\":10506:10507   */\n      0x01\n        /* \"#utility.yul\":10499:10504   */\n      dup2\n        /* \"#utility.yul\":10495:10508   */\n      add\n        /* \"#utility.yul\":10486:10508   */\n      swap1\n      pop\n        /* \"#utility.yul\":10462:10582   */\n      jump(tag_223)\n    tag_225:\n        /* \"#utility.yul\":10402:10588   */\n      pop\n      pop\n      jump\t// out\n        /* \"#utility.yul\":10594:11137   */\n    tag_104:\n        /* \"#utility.yul\":10695:10697   */\n      0x1f\n        /* \"#utility.yul\":10690:10693   */\n      dup3\n        /* \"#utility.yul\":10687:10698   */\n      gt\n        /* \"#utility.yul\":10684:11130   */\n      iszero\n      tag_228\n      jumpi\n        /* \"#utility.yul\":10729:10767   */\n      tag_229\n        /* \"#utility.yul\":10761:10766   */\n      dup2\n        /* \"#utility.yul\":10729:10767   */\n      tag_93\n      jump\t// in\n    tag_229:\n        /* \"#utility.yul\":10813:10842   */\n      tag_230\n        /* \"#utility.yul\":10831:10841   */\n      dup5\n        /* \"#utility.yul\":10813:10842   */\n      tag_94\n      jump\t// in\n    tag_230:\n        /* \"#utility.yul\":10803:10811   */\n      dup2\n        /* \"#utility.yul\":10799:10843   */\n      add\n        /* \"#utility.yul\":10996:10998   */\n      0x20\n        /* \"#utility.yul\":10984:10994   */\n      dup6\n        /* \"#utility.yul\":10981:10999   */\n      lt\n        /* \"#utility.yul\":10978:11027   */\n      iszero\n      tag_231\n      jumpi\n        /* \"#utility.yul\":11017:11025   */\n      dup2\n        /* \"#utility.yul\":11002:11025   */\n      swap1\n      pop\n        /* \"#utility.yul\":10978:11027   */\n    tag_231:\n        /* \"#utility.yul\":11040:11120   */\n      tag_232\n        /* \"#utility.yul\":11096:11118   */\n      tag_233\n        /* \"#utility.yul\":11114:11117   */\n      dup6\n        /* \"#utility.yul\":11096:11118   */\n      tag_94\n      jump\t// in\n    tag_233:\n        /* \"#utility.yul\":11086:11094   */\n      dup4\n        /* \"#utility.yul\":11082:11119   */\n      add\n        /* \"#utility.yul\":11069:11080   */\n      dup3\n        /* \"#utility.yul\":11040:11120   */\n      tag_103\n      jump\t// in\n    tag_232:\n        /* \"#utility.yul\":10699:11130   */\n      pop\n      pop\n        /* \"#utility.yul\":10684:11130   */\n    tag_228:\n        /* \"#utility.yul\":10594:11137   */\n      pop\n      pop\n      pop\n      jump\t// out\n        /* \"#utility.yul\":11143:11260   */\n    tag_105:\n        /* \"#utility.yul\":11197:11205   */\n      0x00\n        /* \"#utility.yul\":11247:11252   */\n      dup3\n        /* \"#utility.yul\":11241:11245   */\n      dup3\n        /* \"#utility.yul\":11237:11253   */\n      shr\n        /* \"#utility.yul\":11216:11253   */\n      swap1\n      pop\n        /* \"#utility.yul\":11143:11260   */\n      swap3\n      swap2\n      pop\n      pop\n      jump\t// out\n        /* \"#utility.yul\":11266:11435   */\n    tag_106:\n        /* \"#utility.yul\":11310:11316   */\n      0x00\n        /* \"#utility.yul\":11343:11394   */\n      tag_236\n        /* \"#utility.yul\":11391:11392   */\n      0x00\n        /* \"#utility.yul\":11387:11393   */\n      not\n        /* \"#utility.yul\":11379:11384   */\n      dup5\n        /* \"#utility.yul\":11376:11377   */\n      0x08\n        /* \"#utility.yul\":11372:11385   */\n      mul\n        /* \"#utility.yul\":11343:11394   */\n      tag_105\n      jump\t// in\n    tag_236:\n        /* \"#utility.yul\":11339:11395   */\n      not\n        /* \"#utility.yul\":11424:11428   */\n      dup1\n        /* \"#utility.yul\":11418:11422   */\n      dup4\n        /* \"#utility.yul\":11414:11429   */\n      and\n        /* \"#utility.yul\":11404:11429   */\n      swap2\n      pop\n        /* \"#utility.yul\":11317:11435   */\n      pop\n        /* \"#utility.yul\":11266:11435   */\n      swap3\n      swap2\n      pop\n      pop\n      jump\t// out\n        /* \"#utility.yul\":11440:11735   */\n    tag_107:\n        /* \"#utility.yul\":11516:11520   */\n      0x00\n        /* \"#utility.yul\":11662:11691   */\n      tag_238\n        /* \"#utility.yul\":11687:11690   */\n      dup4\n        /* \"#utility.yul\":11681:11685   */\n      dup4\n        /* \"#utility.yul\":11662:11691   */\n      tag_106\n      jump\t// in\n    tag_238:\n        /* \"#utility.yul\":11654:11691   */\n      swap2\n      pop\n        /* \"#utility.yul\":11724:11727   */\n      dup3\n        /* \"#utility.yul\":11721:11722   */\n      0x02\n        /* \"#utility.yul\":11717:11728   */\n      mul\n        /* \"#utility.yul\":11711:11715   */\n      dup3\n        /* \"#utility.yul\":11708:11729   */\n      or\n        /* \"#utility.yul\":11700:11729   */\n      swap1\n      pop\n        /* \"#utility.yul\":11440:11735   */\n      swap3\n      swap2\n      pop\n      pop\n      jump\t// out\n        /* \"#utility.yul\":11740:13143   */\n    tag_48:\n        /* \"#utility.yul\":11864:11908   */\n      tag_240\n        /* \"#utility.yul\":11904:11907   */\n      dup4\n        /* \"#utility.yul\":11899:11902   */\n      dup4\n        /* \"#utility.yul\":11864:11908   */\n      tag_91\n      jump\t// in\n    tag_240:\n        /* \"#utility.yul\":11973:11991   */\n      0xffffffffffffffff\n        /* \"#utility.yul\":11965:11971   */\n      dup2\n        /* \"#utility.yul\":11962:11992   */\n      gt\n        /* \"#utility.yul\":11959:12015   */\n      iszero\n      tag_241\n      jumpi\n        /* \"#utility.yul\":11995:12013   */\n      tag_242\n      tag_92\n      jump\t// in\n    tag_242:\n        /* \"#utility.yul\":11959:12015   */\n    tag_241:\n        /* \"#utility.yul\":12039:12077   */\n      tag_243\n        /* \"#utility.yul\":12071:12075   */\n      dup3\n        /* \"#utility.yul\":12065:12076   */\n      sload\n        /* \"#utility.yul\":12039:12077   */\n      tag_35\n      jump\t// in\n    tag_243:\n        /* \"#utility.yul\":12124:12191   */\n      tag_244\n        /* \"#utility.yul\":12184:12190   */\n      dup3\n        /* \"#utility.yul\":12176:12182   */\n      dup3\n        /* \"#utility.yul\":12170:12174   */\n      dup6\n        /* \"#utility.yul\":12124:12191   */\n      tag_104\n      jump\t// in\n    tag_244:\n        /* \"#utility.yul\":12218:12219   */\n      0x00\n        /* \"#utility.yul\":12247:12249   */\n      0x1f\n        /* \"#utility.yul\":12239:12245   */\n      dup4\n        /* \"#utility.yul\":12236:12250   */\n      gt\n        /* \"#utility.yul\":12264:12265   */\n      0x01\n        /* \"#utility.yul\":12259:12891   */\n      dup2\n      eq\n      tag_246\n      jumpi\n        /* \"#utility.yul\":12935:12936   */\n      0x00\n        /* \"#utility.yul\":12952:12958   */\n      dup5\n        /* \"#utility.yul\":12949:13033   */\n      iszero\n      tag_247\n      jumpi\n        /* \"#utility.yul\":13008:13017   */\n      dup3\n        /* \"#utility.yul\":13003:13006   */\n      dup8\n        /* \"#utility.yul\":12999:13018   */\n      add\n        /* \"#utility.yul\":12986:13019   */\n      calldataload\n        /* \"#utility.yul\":12977:13019   */\n      swap1\n      pop\n        /* \"#utility.yul\":12949:13033   */\n    tag_247:\n        /* \"#utility.yul\":13059:13126   */\n      tag_248\n        /* \"#utility.yul\":13119:13125   */\n      dup6\n        /* \"#utility.yul\":13112:13117   */\n      dup3\n        /* \"#utility.yul\":13059:13126   */\n      tag_107\n      jump\t// in\n    tag_248:\n        /* \"#utility.yul\":13053:13057   */\n      dup7\n        /* \"#utility.yul\":13046:13127   */\n      sstore\n        /* \"#utility.yul\":12908:13137   */\n      pop\n        /* \"#utility.yul\":12229:13137   */\n      jump(tag_245)\n        /* \"#utility.yul\":12259:12891   */\n    tag_246:\n        /* \"#utility.yul\":12311:12315   */\n      0x1f\n        /* \"#utility.yul\":12307:12316   */\n      not\n        /* \"#utility.yul\":12299:12305   */\n      dup5\n        /* \"#utility.yul\":12295:12317   */\n      and\n        /* \"#utility.yul\":12345:12382   */\n      tag_249\n        /* \"#utility.yul\":12377:12381   */\n      dup7\n        /* \"#utility.yul\":12345:12382   */\n      tag_93\n      jump\t// in\n    tag_249:\n        /* \"#utility.yul\":12404:12405   */\n      0x00\n        /* \"#utility.yul\":12418:12633   */\n    tag_250:\n        /* \"#utility.yul\":12432:12439   */\n      dup3\n        /* \"#utility.yul\":12429:12430   */\n      dup2\n        /* \"#utility.yul\":12426:12440   */\n      lt\n        /* \"#utility.yul\":12418:12633   */\n      iszero\n      tag_252\n      jumpi\n        /* \"#utility.yul\":12518:12527   */\n      dup5\n        /* \"#utility.yul\":12513:12516   */\n      dup10\n        /* \"#utility.yul\":12509:12528   */\n      add\n        /* \"#utility.yul\":12496:12529   */\n      calldataload\n        /* \"#utility.yul\":12488:12494   */\n      dup3\n        /* \"#utility.yul\":12481:12530   */\n      sstore\n        /* \"#utility.yul\":12569:12570   */\n      0x01\n        /* \"#utility.yul\":12561:12567   */\n      dup3\n        /* \"#utility.yul\":12557:12571   */\n      add\n        /* \"#utility.yul\":12547:12571   */\n      swap2\n      pop\n        /* \"#utility.yul\":12616:12618   */\n      0x20\n        /* \"#utility.yul\":12605:12614   */\n      dup6\n        /* \"#utility.yul\":12601:12619   */\n      add\n        /* \"#utility.yul\":12588:12619   */\n      swap5\n      pop\n        /* \"#utility.yul\":12455:12459   */\n      0x20\n        /* \"#utility.yul\":12452:12453   */\n      dup2\n        /* \"#utility.yul\":12448:12460   */\n      add\n        /* \"#utility.yul\":12443:12460   */\n      swap1\n      pop\n        /* \"#utility.yul\":12418:12633   */\n      jump(tag_250)\n    tag_252:\n        /* \"#utility.yul\":12661:12667   */\n      dup7\n        /* \"#utility.yul\":12652:12659   */\n      dup4\n        /* \"#utility.yul\":12649:12668   */\n      lt\n        /* \"#utility.yul\":12646:12832   */\n      iszero\n      tag_253\n      jumpi\n        /* \"#utility.yul\":12726:12735   */\n      dup5\n        /* \"#utility.yul\":12721:12724   */\n      dup10\n        /* \"#utility.yul\":12717:12736   */\n      add\n        /* \"#utility.yul\":12704:12737   */\n      calldataload\n        /* \"#utility.yul\":12769:12817   */\n      tag_254\n        /* \"#utility.yul\":12811:12815   */\n      0x1f\n        /* \"#utility.yul\":12803:12809   */\n      dup10\n        /* \"#utility.yul\":12799:12816   */\n      and\n        /* \"#utility.yul\":12788:12797   */\n      dup3\n        /* \"#utility.yul\":12769:12817   */\n      tag_106\n      jump\t// in\n    tag_254:\n        /* \"#utility.yul\":12761:12767   */\n      dup4\n        /* \"#utility.yul\":12754:12818   */\n      sstore\n        /* \"#utility.yul\":12669:12832   */\n      pop\n        /* \"#utility.yul\":12646:12832   */\n    tag_253:\n        /* \"#utility.yul\":12878:12879   */\n      0x01\n        /* \"#utility.yul\":12874:12875   */\n      0x02\n        /* \"#utility.yul\":12866:12872   */\n      dup9\n        /* \"#utility.yul\":12862:12876   */\n      mul\n        /* \"#utility.yul\":12858:12880   */\n      add\n        /* \"#utility.yul\":12852:12856   */\n      dup9\n        /* \"#utility.yul\":12845:12881   */\n      sstore\n        /* \"#utility.yul\":12266:12891   */\n      pop\n      pop\n      pop\n        /* \"#utility.yul\":12229:13137   */\n    tag_245:\n      pop\n        /* \"#utility.yul\":11839:13143   */\n      pop\n      pop\n      pop\n        /* \"#utility.yul\":11740:13143   */\n      pop\n      pop\n      pop\n      jump\t// out\n    stop\n\n    sub_0: assembly {\n            /* \"ServiceChain.sol\":559:3405  contract Service{... */\n          mstore(0x40, 0x80)\n            /* \"ServiceChain.sol\":1292:1396  constructor(address creator, string memory org) {... */\n          callvalue\n          dup1\n          iszero\n          tag_1\n          jumpi\n          0x00\n          dup1\n          revert\n        tag_1:\n          pop\n          mload(0x40)\n          sub(codesize, bytecodeSize)\n          dup1\n          bytecodeSize\n          dup4\n          codecopy\n          dup2\n          dup2\n          add\n          0x40\n          mstore\n          dup2\n          add\n          swap1\n          tag_2\n          swap2\n          swap1\n          tag_3\n          jump\t// in\n        tag_2:\n          pop\n          pop\n            /* \"ServiceChain.sol\":559:3405  contract Service{... */\n          jump(tag_6)\n            /* \"#utility.yul\":7:82   */\n        tag_7:\n            /* \"#utility.yul\":40:46   */\n          0x00\n            /* \"#utility.yul\":73:75   */\n          0x40\n            /* \"#utility.yul\":67:76   */\n          mload\n            /* \"#utility.yul\":57:76   */\n          swap1\n          pop\n            /* \"#utility.yul\":7:82   */\n          swap1\n          jump\t// out\n            /* \"#utility.yul\":88:205   */\n        tag_8:\n            /* \"#utility.yul\":197:198   */\n          0x00\n            /* \"#utility.yul\":194:195   */\n          dup1\n            /* \"#utility.yul\":187:199   */\n          revert\n            /* \"#utility.yul\":211:328   */\n        tag_9:\n            /* \"#utility.yul\":320:321   */\n          0x00\n            /* \"#utility.yul\":317:318   */\n          dup1\n            /* \"#utility.yul\":310:322   */\n          revert\n            /* \"#utility.yul\":334:460   */\n        tag_10:\n            /* \"#utility.yul\":371:378   */\n          0x00\n            /* \"#utility.yul\":411:453   */\n          0xffffffffffffffffffffffffffffffffffffffff\n            /* \"#utility.yul\":404:409   */\n          dup3\n            /* \"#utility.yul\":400:454   */\n          and\n            /* \"#utility.yul\":389:454   */\n          swap1\n          pop\n            /* \"#utility.yul\":334:460   */\n          swap2\n          swap1\n          pop\n          jump\t// out\n            /* \"#utility.yul\":466:562   */\n        tag_11:\n            /* \"#utility.yul\":503:510   */\n          0x00\n            /* \"#utility.yul\":532:556   */\n          tag_30\n            /* \"#utility.yul\":550:555   */\n          dup3\n            /* \"#utility.yul\":532:556   */\n          tag_10\n          jump\t// in\n        tag_30:\n            /* \"#utility.yul\":521:556   */\n          swap1\n          pop\n            /* \"#utility.yul\":466:562   */\n          swap2\n          swap1\n          pop\n          jump\t// out\n            /* \"#utility.yul\":568:690   */\n        tag_12:\n            /* \"#utility.yul\":641:665   */\n          tag_32\n            /* \"#utility.yul\":659:664   */\n          dup2\n            /* \"#utility.yul\":641:665   */\n          tag_11\n          jump\t// in\n        tag_32:\n            /* \"#utility.yul\":634:639   */\n          dup2\n            /* \"#utility.yul\":631:666   */\n          eq\n            /* \"#utility.yul\":621:684   */\n          tag_33\n          jumpi\n            /* \"#utility.yul\":680:681   */\n          0x00\n            /* \"#utility.yul\":677:678   */\n          dup1\n            /* \"#utility.yul\":670:682   */\n          revert\n            /* \"#utility.yul\":621:684   */\n        tag_33:\n            /* \"#utility.yul\":568:690   */\n          pop\n          jump\t// out\n            /* \"#utility.yul\":696:839   */\n        tag_13:\n            /* \"#utility.yul\":753:758   */\n          0x00\n            /* \"#utility.yul\":784:790   */\n          dup2\n            /* \"#utility.yul\":778:791   */\n          mload\n            /* \"#utility.yul\":769:791   */\n          swap1\n          pop\n            /* \"#utility.yul\":800:833   */\n          tag_35\n            /* \"#utility.yul\":827:832   */\n          dup2\n            /* \"#utility.yul\":800:833   */\n          tag_12\n          jump\t// in\n        tag_35:\n            /* \"#utility.yul\":696:839   */\n          swap3\n          swap2\n          pop\n          pop\n          jump\t// out\n            /* \"#utility.yul\":845:962   */\n        tag_14:\n            /* \"#utility.yul\":954:955   */\n          0x00\n            /* \"#utility.yul\":951:952   */\n          dup1\n            /* \"#utility.yul\":944:956   */\n          revert\n            /* \"#utility.yul\":968:1085   */\n        tag_15:\n            /* \"#utility.yul\":1077:1078   */\n          0x00\n            /* \"#utility.yul\":1074:1075   */\n          dup1\n            /* \"#utility.yul\":1067:1079   */\n          revert\n            /* \"#utility.yul\":1091:1193   */\n        tag_16:\n            /* \"#utility.yul\":1132:1138   */\n          0x00\n            /* \"#utility.yul\":1183:1185   */\n          0x1f\n            /* \"#utility.yul\":1179:1186   */\n          not\n            /* \"#utility.yul\":1174:1176   */\n          0x1f\n            /* \"#utility.yul\":1167:1172   */\n          dup4\n            /* \"#utility.yul\":1163:1177   */\n          add\n            /* \"#utility.yul\":1159:1187   */\n          and\n            /* \"#utility.yul\":1149:1187   */\n          swap1\n          pop\n            /* \"#utility.yul\":1091:1193   */\n          swap2\n          swap1\n          pop\n          jump\t// out\n            /* \"#utility.yul\":1199:1379   */\n        tag_17:\n            /* \"#utility.yul\":1247:1324   */\n          0x4e487b7100000000000000000000000000000000000000000000000000000000\n            /* \"#utility.yul\":1244:1245   */\n          0x00\n            /* \"#utility.yul\":1237:1325   */\n          mstore\n            /* \"#utility.yul\":1344:1348   */\n          0x41\n            /* \"#utility.yul\":1341:1342   */\n          0x04\n            /* \"#utility.yul\":1334:1349   */\n          mstore\n            /* \"#utility.yul\":1368:1372   */\n          0x24\n            /* \"#utility.yul\":1365:1366   */\n          0x00\n            /* \"#utility.yul\":1358:1373   */\n          revert\n            /* \"#utility.yul\":1385:1666   */\n        tag_18:\n            /* \"#utility.yul\":1468:1495   */\n          tag_41\n            /* \"#utility.yul\":1490:1494   */\n          dup3\n            /* \"#utility.yul\":1468:1495   */\n          tag_16\n          jump\t// in\n        tag_41:\n            /* \"#utility.yul\":1460:1466   */\n          dup2\n            /* \"#utility.yul\":1456:1496   */\n          add\n            /* \"#utility.yul\":1598:1604   */\n          dup2\n            /* \"#utility.yul\":1586:1596   */\n          dup2\n            /* \"#utility.yul\":1583:1605   */\n          lt\n            /* \"#utility.yul\":1562:1580   */\n          0xffffffffffffffff\n            /* \"#utility.yul\":1550:1560   */\n          dup3\n            /* \"#utility.yul\":1547:1581   */\n          gt\n            /* \"#utility.yul\":1544:1606   */\n          or\n            /* \"#utility.yul\":1541:1629   */\n          iszero\n          tag_42\n          jumpi\n            /* \"#utility.yul\":1609:1627   */\n          tag_43\n          tag_17\n          jump\t// in\n        tag_43:\n            /* \"#utility.yul\":1541:1629   */\n        tag_42:\n            /* \"#utility.yul\":1649:1659   */\n          dup1\n            /* \"#utility.yul\":1645:1647   */\n          0x40\n            /* \"#utility.yul\":1638:1660   */\n          mstore\n            /* \"#utility.yul\":1428:1666   */\n          pop\n            /* \"#utility.yul\":1385:1666   */\n          pop\n          pop\n          jump\t// out\n            /* \"#utility.yul\":1672:1801   */\n        tag_19:\n            /* \"#utility.yul\":1706:1712   */\n          0x00\n            /* \"#utility.yul\":1733:1753   */\n          tag_45\n          tag_7\n          jump\t// in\n        tag_45:\n            /* \"#utility.yul\":1723:1753   */\n          swap1\n          pop\n            /* \"#utility.yul\":1762:1795   */\n          tag_46\n            /* \"#utility.yul\":1790:1794   */\n          dup3\n            /* \"#utility.yul\":1782:1788   */\n          dup3\n            /* \"#utility.yul\":1762:1795   */\n          tag_18\n          jump\t// in\n        tag_46:\n            /* \"#utility.yul\":1672:1801   */\n          swap2\n          swap1\n          pop\n          jump\t// out\n            /* \"#utility.yul\":1807:2115   */\n        tag_20:\n            /* \"#utility.yul\":1869:1873   */\n          0x00\n            /* \"#utility.yul\":1959:1977   */\n          0xffffffffffffffff\n            /* \"#utility.yul\":1951:1957   */\n          dup3\n            /* \"#utility.yul\":1948:1978   */\n          gt\n            /* \"#utility.yul\":1945:2001   */\n          iszero\n          tag_48\n          jumpi\n            /* \"#utility.yul\":1981:1999   */\n          tag_49\n          tag_17\n          jump\t// in\n        tag_49:\n            /* \"#utility.yul\":1945:2001   */\n        tag_48:\n            /* \"#utility.yul\":2019:2048   */\n          tag_50\n            /* \"#utility.yul\":2041:2047   */\n          dup3\n            /* \"#utility.yul\":2019:2048   */\n          tag_16\n          jump\t// in\n        tag_50:\n            /* \"#utility.yul\":2011:2048   */\n          swap1\n          pop\n            /* \"#utility.yul\":2103:2107   */\n          0x20\n            /* \"#utility.yul\":2097:2101   */\n          dup2\n            /* \"#utility.yul\":2093:2108   */\n          add\n            /* \"#utility.yul\":2085:2108   */\n          swap1\n          pop\n            /* \"#utility.yul\":1807:2115   */\n          swap2\n          swap1\n          pop\n          jump\t// out\n            /* \"#utility.yul\":2121:2367   */\n        tag_21:\n            /* \"#utility.yul\":2202:2203   */\n          0x00\n            /* \"#utility.yul\":2212:2325   */\n        tag_52:\n            /* \"#utility.yul\":2226:2232   */\n          dup4\n            /* \"#utility.yul\":2223:2224   */\n          dup2\n            /* \"#utility.yul\":2220:2233   */\n          lt\n            /* \"#utility.yul\":2212:2325   */\n          iszero\n          tag_54\n          jumpi\n            /* \"#utility.yul\":2311:2312   */\n          dup1\n            /* \"#utility.yul\":2306:2309   */\n          dup3\n            /* \"#utility.yul\":2302:2313   */\n          add\n            /* \"#utility.yul\":2296:2314   */\n          mload\n            /* \"#utility.yul\":2292:2293   */\n          dup2\n            /* \"#utility.yul\":2287:2290   */\n          dup5\n            /* \"#utility.yul\":2283:2294   */\n          add\n            /* \"#utility.yul\":2276:2315   */\n          mstore\n            /* \"#utility.yul\":2248:2250   */\n          0x20\n            /* \"#utility.yul\":2245:2246   */\n          dup2\n            /* \"#utility.yul\":2241:2251   */\n          add\n            /* \"#utility.yul\":2236:2251   */\n          swap1\n          pop\n            /* \"#utility.yul\":2212:2325   */\n          jump(tag_52)\n        tag_54:\n            /* \"#utility.yul\":2359:2360   */\n          0x00\n            /* \"#utility.yul\":2350:2356   */\n          dup5\n            /* \"#utility.yul\":2345:2348   */\n          dup5\n            /* \"#utility.yul\":2341:2357   */\n          add\n            /* \"#utility.yul\":2334:2361   */\n          mstore\n            /* \"#utility.yul\":2183:2367   */\n          pop\n            /* \"#utility.yul\":2121:2367   */\n          pop\n          pop\n          pop\n          jump\t// out\n            /* \"#utility.yul\":2373:2807   */\n        tag_22:\n            /* \"#utility.yul\":2462:2467   */\n          0x00\n            /* \"#utility.yul\":2487:2553   */\n          tag_56\n            /* \"#utility.yul\":2503:2552   */\n          tag_57\n            /* \"#utility.yul\":2545:2551   */\n          dup5\n            /* \"#utility.yul\":2503:2552   */\n          tag_20\n          jump\t// in\n        tag_57:\n            /* \"#utility.yul\":2487:2553   */\n          tag_19\n          jump\t// in\n        tag_56:\n            /* \"#utility.yul\":2478:2553   */\n          swap1\n          pop\n            /* \"#utility.yul\":2576:2582   */\n          dup3\n            /* \"#utility.yul\":2569:2574   */\n          dup2\n            /* \"#utility.yul\":2562:2583   */\n          mstore\n            /* \"#utility.yul\":2614:2618   */\n          0x20\n            /* \"#utility.yul\":2607:2612   */\n          dup2\n            /* \"#utility.yul\":2603:2619   */\n          add\n            /* \"#utility.yul\":2652:2655   */\n          dup5\n            /* \"#utility.yul\":2643:2649   */\n          dup5\n            /* \"#utility.yul\":2638:2641   */\n          dup5\n            /* \"#utility.yul\":2634:2650   */\n          add\n            /* \"#utility.yul\":2631:2656   */\n          gt\n            /* \"#utility.yul\":2628:2740   */\n          iszero\n          tag_58\n          jumpi\n            /* \"#utility.yul\":2659:2738   */\n          tag_59\n          tag_15\n          jump\t// in\n        tag_59:\n            /* \"#utility.yul\":2628:2740   */\n        tag_58:\n            /* \"#utility.yul\":2749:2801   */\n          tag_60\n            /* \"#utility.yul\":2794:2800   */\n          dup5\n            /* \"#utility.yul\":2789:2792   */\n          dup3\n            /* \"#utility.yul\":2784:2787   */\n          dup6\n            /* \"#utility.yul\":2749:2801   */\n          tag_21\n          jump\t// in\n        tag_60:\n            /* \"#utility.yul\":2468:2807   */\n          pop\n            /* \"#utility.yul\":2373:2807   */\n          swap4\n          swap3\n          pop\n          pop\n          pop\n          jump\t// out\n            /* \"#utility.yul\":2827:3182   */\n        tag_23:\n            /* \"#utility.yul\":2894:2899   */\n          0x00\n            /* \"#utility.yul\":2943:2946   */\n          dup3\n            /* \"#utility.yul\":2936:2940   */\n          0x1f\n            /* \"#utility.yul\":2928:2934   */\n          dup4\n            /* \"#utility.yul\":2924:2941   */\n          add\n            /* \"#utility.yul\":2920:2947   */\n          slt\n            /* \"#utility.yul\":2910:3032   */\n          tag_62\n          jumpi\n            /* \"#utility.yul\":2951:3030   */\n          tag_63\n          tag_14\n          jump\t// in\n        tag_63:\n            /* \"#utility.yul\":2910:3032   */\n        tag_62:\n            /* \"#utility.yul\":3061:3067   */\n          dup2\n            /* \"#utility.yul\":3055:3068   */\n          mload\n            /* \"#utility.yul\":3086:3176   */\n          tag_64\n            /* \"#utility.yul\":3172:3175   */\n          dup5\n            /* \"#utility.yul\":3164:3170   */\n          dup3\n            /* \"#utility.yul\":3157:3161   */\n          0x20\n            /* \"#utility.yul\":3149:3155   */\n          dup7\n            /* \"#utility.yul\":3145:3162   */\n          add\n            /* \"#utility.yul\":3086:3176   */\n          tag_22\n          jump\t// in\n        tag_64:\n            /* \"#utility.yul\":3077:3176   */\n          swap2\n          pop\n            /* \"#utility.yul\":2900:3182   */\n          pop\n            /* \"#utility.yul\":2827:3182   */\n          swap3\n          swap2\n          pop\n          pop\n          jump\t// out\n            /* \"#utility.yul\":3188:3868   */\n        tag_3:\n            /* \"#utility.yul\":3277:3283   */\n          0x00\n            /* \"#utility.yul\":3285:3291   */\n          dup1\n            /* \"#utility.yul\":3334:3336   */\n          0x40\n            /* \"#utility.yul\":3322:3331   */\n          dup4\n            /* \"#utility.yul\":3313:3320   */\n          dup6\n            /* \"#utility.yul\":3309:3332   */\n          sub\n            /* \"#utility.yul\":3305:3337   */\n          slt\n            /* \"#utility.yul\":3302:3421   */\n          iszero\n          tag_66\n          jumpi\n            /* \"#utility.yul\":3340:3419   */\n          tag_67\n          tag_8\n          jump\t// in\n        tag_67:\n            /* \"#utility.yul\":3302:3421   */\n        tag_66:\n            /* \"#utility.yul\":3460:3461   */\n          0x00\n            /* \"#utility.yul\":3485:3549   */\n          tag_68\n            /* \"#utility.yul\":3541:3548   */\n          dup6\n            /* \"#utility.yul\":3532:3538   */\n          dup3\n            /* \"#utility.yul\":3521:3530   */\n          dup7\n            /* \"#utility.yul\":3517:3539   */\n          add\n            /* \"#utility.yul\":3485:3549   */\n          tag_13\n          jump\t// in\n        tag_68:\n            /* \"#utility.yul\":3475:3549   */\n          swap3\n          pop\n            /* \"#utility.yul\":3431:3559   */\n          pop\n            /* \"#utility.yul\":3619:3621   */\n          0x20\n            /* \"#utility.yul\":3608:3617   */\n          dup4\n            /* \"#utility.yul\":3604:3622   */\n          add\n            /* \"#utility.yul\":3598:3623   */\n          mload\n            /* \"#utility.yul\":3650:3668   */\n          0xffffffffffffffff\n            /* \"#utility.yul\":3642:3648   */\n          dup2\n            /* \"#utility.yul\":3639:3669   */\n          gt\n            /* \"#utility.yul\":3636:3753   */\n          iszero\n          tag_69\n          jumpi\n            /* \"#utility.yul\":3672:3751   */\n          tag_70\n          tag_9\n          jump\t// in\n        tag_70:\n            /* \"#utility.yul\":3636:3753   */\n        tag_69:\n            /* \"#utility.yul\":3777:3851   */\n          tag_71\n            /* \"#utility.yul\":3843:3850   */\n          dup6\n            /* \"#utility.yul\":3834:3840   */\n          dup3\n            /* \"#utility.yul\":3823:3832   */\n          dup7\n            /* \"#utility.yul\":3819:3841   */\n          add\n            /* \"#utility.yul\":3777:3851   */\n          tag_23\n          jump\t// in\n        tag_71:\n            /* \"#utility.yul\":3767:3851   */\n          swap2\n          pop\n            /* \"#utility.yul\":3569:3861   */\n          pop\n            /* \"#utility.yul\":3188:3868   */\n          swap3\n          pop\n          swap3\n          swap1\n          pop\n          jump\t// out\n            /* \"ServiceChain.sol\":559:3405  contract Service{... */\n        tag_6:\n          dataSize(sub_0)\n          dup1\n          dataOffset(sub_0)\n          0x00\n          codecopy\n          0x00\n          return\n        stop\n\n        sub_0: assembly {\n                /* \"ServiceChain.sol\":559:3405  contract Service{... */\n              mstore(0x40, 0x80)\n              jumpi(tag_1, lt(calldatasize, 0x04))\n              shr(0xe0, calldataload(0x00))\n              dup1\n              0x95cd63a0\n              gt\n              tag_16\n              jumpi\n              dup1\n              0x9d5f65fc\n              gt\n              tag_17\n              jumpi\n              dup1\n              0x9d5f65fc\n              eq\n              tag_12\n              jumpi\n              dup1\n              0xa329f8f6\n              eq\n              tag_13\n              jumpi\n              dup1\n              0xc12be929\n              eq\n              tag_14\n              jumpi\n              dup1\n              0xcc1e2cb0\n              eq\n              tag_15\n              jumpi\n              jump(tag_2)\n            tag_17:\n              dup1\n              0x95cd63a0\n              eq\n              tag_9\n              jumpi\n              dup1\n              0x96b98a65\n              eq\n              tag_10\n              jumpi\n              dup1\n              0x9ace38c2\n              eq\n              tag_11\n              jumpi\n              jump(tag_2)\n            tag_16:\n              dup1\n              0x02d05d3f\n              eq\n              tag_3\n              jumpi\n              dup1\n              0x2a0e54bd\n              eq\n              tag_4\n              jumpi\n              dup1\n              0x2e7700f0\n              eq\n              tag_5\n              jumpi\n              dup1\n              0x33ea3dc8\n              eq\n              tag_6\n              jumpi\n              dup1\n              0x66d34a9b\n              eq\n              tag_7\n              jumpi\n              dup1\n              0x80fc9c0e\n              eq\n              tag_8\n              jumpi\n              jump(tag_2)\n            tag_1:\n              jumpi(tag_2, calldatasize)\n                /* \"ServiceChain.sol\":2590:2600  msg.sender */\n              caller\n                /* \"ServiceChain.sol\":2582:2635  Deposit(msg.sender, msg.value, address(this).balance) */\n              0xffffffffffffffffffffffffffffffffffffffff\n              and\n              0x90890809c654f11d6e72a28fa60149770a0d11ec6c92319d6ceb2bb0a4ea1a15\n                /* \"ServiceChain.sol\":2602:2611  msg.value */\n              callvalue\n                /* \"ServiceChain.sol\":2613:2634  address(this).balance */\n              selfbalance\n                /* \"ServiceChain.sol\":2582:2635  Deposit(msg.sender, msg.value, address(this).balance) */\n              mload(0x40)\n              tag_20\n              swap3\n              swap2\n              swap1\n              tag_21\n              jump\t// in\n            tag_20:\n              mload(0x40)\n              dup1\n              swap2\n              sub\n              swap1\n              log2\n                /* \"ServiceChain.sol\":559:3405  contract Service{... */\n              stop\n            tag_2:\n              0x00\n              dup1\n              revert\n                /* \"ServiceChain.sol\":1259:1281  address public creator */\n            tag_3:\n              callvalue\n              dup1\n              iszero\n              tag_22\n              jumpi\n              0x00\n              dup1\n              revert\n            tag_22:\n              pop\n              tag_23\n              tag_24\n              jump\t// in\n            tag_23:\n              mload(0x40)\n              tag_25\n              swap2\n              swap1\n              tag_26\n              jump\t// in\n            tag_25:\n              mload(0x40)\n              dup1\n              swap2\n              sub\n              swap1\n              return\n                /* \"ServiceChain.sol\":1179:1228  mapping(address=>customerRating[]) public ratings */\n            tag_4:\n              callvalue\n              dup1\n              iszero\n              tag_27\n              jumpi\n              0x00\n              dup1\n              revert\n            tag_27:\n              pop\n              tag_28\n              0x04\n              dup1\n              calldatasize\n              sub\n              dup2\n              add\n              swap1\n              tag_29\n              swap2\n              swap1\n              tag_30\n              jump\t// in\n            tag_29:\n              tag_31\n              jump\t// in\n            tag_28:\n              mload(0x40)\n              tag_32\n              swap3\n              swap2\n              swap1\n              tag_33\n              jump\t// in\n            tag_32:\n              mload(0x40)\n              dup1\n              swap2\n              sub\n              swap1\n              return\n                /* \"ServiceChain.sol\":3006:3109  function getTransactionCount() public view returns (uint) {... */\n            tag_5:\n              callvalue\n              dup1\n              iszero\n              tag_34\n              jumpi\n              0x00\n              dup1\n              revert\n            tag_34:\n              pop\n              tag_35\n              tag_36\n              jump\t// in\n            tag_35:\n              mload(0x40)\n              tag_37\n              swap2\n              swap1\n              tag_38\n              jump\t// in\n            tag_37:\n              mload(0x40)\n              dup1\n              swap2\n              sub\n              swap1\n              return\n                /* \"ServiceChain.sol\":3117:3398  function getTransaction(uint _txIndex)... */\n            tag_6:\n              callvalue\n              dup1\n              iszero\n              tag_39\n              jumpi\n              0x00\n              dup1\n              revert\n            tag_39:\n              pop\n              tag_40\n              0x04\n              dup1\n              calldatasize\n              sub\n              dup2\n              add\n              swap1\n              tag_41\n              swap2\n              swap1\n              tag_42\n              jump\t// in\n            tag_41:\n              tag_43\n              jump\t// in\n            tag_40:\n              mload(0x40)\n              tag_44\n              swap4\n              swap3\n              swap2\n              swap1\n              tag_45\n              jump\t// in\n            tag_44:\n              mload(0x40)\n              dup1\n              swap2\n              sub\n              swap1\n              return\n                /* \"ServiceChain.sol\":2651:2996  function submitTip(address _to, uint _value, bytes memory _data)... */\n            tag_7:\n              callvalue\n              dup1\n              iszero\n              tag_46\n              jumpi\n              0x00\n              dup1\n              revert\n            tag_46:\n              pop\n              tag_47\n              0x04\n              dup1\n              calldatasize\n              sub\n              dup2\n              add\n              swap1\n              tag_48\n              swap2\n              swap1\n              tag_49\n              jump\t// in\n            tag_48:\n              tag_50\n              jump\t// in\n            tag_47:\n              stop\n                /* \"ServiceChain.sol\":2072:2391  function getRating(address waiter) public view returns (uint avgRating) {... */\n            tag_8:\n              callvalue\n              dup1\n              iszero\n              tag_51\n              jumpi\n              0x00\n              dup1\n              revert\n            tag_51:\n              pop\n              tag_52\n              0x04\n              dup1\n              calldatasize\n              sub\n              dup2\n              add\n              swap1\n              tag_53\n              swap2\n              swap1\n              tag_54\n              jump\t// in\n            tag_53:\n              tag_55\n              jump\t// in\n            tag_52:\n              mload(0x40)\n              tag_56\n              swap2\n              swap1\n              tag_38\n              jump\t// in\n            tag_56:\n              mload(0x40)\n              dup1\n              swap2\n              sub\n              swap1\n              return\n                /* \"ServiceChain.sol\":1413:1501  function enterHours(uint value) public{... */\n            tag_9:\n              callvalue\n              dup1\n              iszero\n              tag_57\n              jumpi\n              0x00\n              dup1\n              revert\n            tag_57:\n              pop\n              tag_58\n              0x04\n              dup1\n              calldatasize\n              sub\n              dup2\n              add\n              swap1\n              tag_59\n              swap2\n              swap1\n              tag_42\n              jump\t// in\n            tag_59:\n              tag_60\n              jump\t// in\n            tag_58:\n              stop\n                /* \"ServiceChain.sol\":1133:1172  mapping(address=>uint[]) public hourLog */\n            tag_10:\n              callvalue\n              dup1\n              iszero\n              tag_61\n              jumpi\n              0x00\n              dup1\n              revert\n            tag_61:\n              pop\n              tag_62\n              0x04\n              dup1\n              calldatasize\n              sub\n              dup2\n              add\n              swap1\n              tag_63\n              swap2\n              swap1\n              tag_30\n              jump\t// in\n            tag_63:\n              tag_64\n              jump\t// in\n            tag_62:\n              mload(0x40)\n              tag_65\n              swap2\n              swap1\n              tag_38\n              jump\t// in\n            tag_65:\n              mload(0x40)\n              dup1\n              swap2\n              sub\n              swap1\n              return\n                /* \"ServiceChain.sol\":1093:1126  Transaction[] public transactions */\n            tag_11:\n              callvalue\n              dup1\n              iszero\n              tag_66\n              jumpi\n              0x00\n              dup1\n              revert\n            tag_66:\n              pop\n              tag_67\n              0x04\n              dup1\n              calldatasize\n              sub\n              dup2\n              add\n              swap1\n              tag_68\n              swap2\n              swap1\n              tag_42\n              jump\t// in\n            tag_68:\n              tag_69\n              jump\t// in\n            tag_67:\n              mload(0x40)\n              tag_70\n              swap4\n              swap3\n              swap2\n              swap1\n              tag_45\n              jump\t// in\n            tag_70:\n              mload(0x40)\n              dup1\n              swap2\n              sub\n              swap1\n              return\n                /* \"ServiceChain.sol\":1736:1849  function getHourLog(address waiter) public view returns(uint[] memory){... */\n            tag_12:\n              callvalue\n              dup1\n              iszero\n              tag_71\n              jumpi\n              0x00\n              dup1\n              revert\n            tag_71:\n              pop\n              tag_72\n              0x04\n              dup1\n              calldatasize\n              sub\n              dup2\n              add\n              swap1\n              tag_73\n              swap2\n              swap1\n              tag_54\n              jump\t// in\n            tag_73:\n              tag_74\n              jump\t// in\n            tag_72:\n              mload(0x40)\n              tag_75\n              swap2\n              swap1\n              tag_76\n              jump\t// in\n            tag_75:\n              mload(0x40)\n              dup1\n              swap2\n              sub\n              swap1\n              return\n                /* \"ServiceChain.sol\":1867:2064  function sendRatings(address customer,address waiter,uint rating) public {... */\n            tag_13:\n              callvalue\n              dup1\n              iszero\n              tag_77\n              jumpi\n              0x00\n              dup1\n              revert\n            tag_77:\n              pop\n              tag_78\n              0x04\n              dup1\n              calldatasize\n              sub\n              dup2\n              add\n              swap1\n              tag_79\n              swap2\n              swap1\n              tag_80\n              jump\t// in\n            tag_79:\n              tag_81\n              jump\t// in\n            tag_78:\n              stop\n                /* \"ServiceChain.sol\":1507:1730  function getTotalHours(address waiter) public view returns(uint vals){... */\n            tag_14:\n              callvalue\n              dup1\n              iszero\n              tag_82\n              jumpi\n              0x00\n              dup1\n              revert\n            tag_82:\n              pop\n              tag_83\n              0x04\n              dup1\n              calldatasize\n              sub\n              dup2\n              add\n              swap1\n              tag_84\n              swap2\n              swap1\n              tag_54\n              jump\t// in\n            tag_84:\n              tag_85\n              jump\t// in\n            tag_83:\n              mload(0x40)\n              tag_86\n              swap2\n              swap1\n              tag_38\n              jump\t// in\n            tag_86:\n              mload(0x40)\n              dup1\n              swap2\n              sub\n              swap1\n              return\n                /* \"ServiceChain.sol\":1235:1252  string public org */\n            tag_15:\n              callvalue\n              dup1\n              iszero\n              tag_87\n              jumpi\n              0x00\n              dup1\n              revert\n            tag_87:\n              pop\n              tag_88\n              tag_89\n              jump\t// in\n            tag_88:\n              mload(0x40)\n              tag_90\n              swap2\n              swap1\n              tag_91\n              jump\t// in\n            tag_90:\n              mload(0x40)\n              dup1\n              swap2\n              sub\n              swap1\n              return\n                /* \"ServiceChain.sol\":1259:1281  address public creator */\n            tag_24:\n              0x04\n              0x00\n              swap1\n              sload\n              swap1\n              0x0100\n              exp\n              swap1\n              div\n              0xffffffffffffffffffffffffffffffffffffffff\n              and\n              dup2\n              jump\t// out\n                /* \"ServiceChain.sol\":1179:1228  mapping(address=>customerRating[]) public ratings */\n            tag_31:\n              mstore(0x20, 0x02)\n              dup2\n              0x00\n              mstore\n              keccak256(0x00, 0x40)\n              dup2\n              dup2\n              sload\n              dup2\n              lt\n              tag_92\n              jumpi\n              0x00\n              dup1\n              revert\n            tag_92:\n              swap1\n              0x00\n              mstore\n              keccak256(0x00, 0x20)\n              swap1\n              0x02\n              mul\n              add\n              0x00\n              swap2\n              pop\n              swap2\n              pop\n              pop\n              dup1\n              0x00\n              add\n              0x00\n              swap1\n              sload\n              swap1\n              0x0100\n              exp\n              swap1\n              div\n              0xffffffffffffffffffffffffffffffffffffffff\n              and\n              swap1\n              dup1\n              0x01\n              add\n              sload\n              swap1\n              pop\n              dup3\n              jump\t// out\n                /* \"ServiceChain.sol\":3006:3109  function getTransactionCount() public view returns (uint) {... */\n            tag_36:\n                /* \"ServiceChain.sol\":3058:3062  uint */\n              0x00\n                /* \"ServiceChain.sol\":3082:3094  transactions */\n              dup1\n                /* \"ServiceChain.sol\":3082:3101  transactions.length */\n              dup1\n              sload\n              swap1\n              pop\n                /* \"ServiceChain.sol\":3075:3101  return transactions.length */\n              swap1\n              pop\n                /* \"ServiceChain.sol\":3006:3109  function getTransactionCount() public view returns (uint) {... */\n              swap1\n              jump\t// out\n                /* \"ServiceChain.sol\":3117:3398  function getTransaction(uint _txIndex)... */\n            tag_43:\n                /* \"ServiceChain.sol\":3204:3214  address to */\n              0x00\n                /* \"ServiceChain.sol\":3216:3226  uint value */\n              dup1\n                /* \"ServiceChain.sol\":3228:3245  bytes memory data */\n              0x60\n                /* \"ServiceChain.sol\":3263:3294  Transaction storage transaction */\n              0x00\n                /* \"ServiceChain.sol\":3297:3309  transactions */\n              dup1\n                /* \"ServiceChain.sol\":3310:3318  _txIndex */\n              dup6\n                /* \"ServiceChain.sol\":3297:3319  transactions[_txIndex] */\n              dup2\n              sload\n              dup2\n              lt\n              tag_96\n              jumpi\n              tag_97\n              tag_98\n              jump\t// in\n            tag_97:\n            tag_96:\n              swap1\n              0x00\n              mstore\n              keccak256(0x00, 0x20)\n              swap1\n              0x03\n              mul\n              add\n                /* \"ServiceChain.sol\":3263:3319  Transaction storage transaction = transactions[_txIndex] */\n              swap1\n              pop\n                /* \"ServiceChain.sol\":3338:3349  transaction */\n              dup1\n                /* \"ServiceChain.sol\":3338:3352  transaction.to */\n              0x00\n              add\n              0x00\n              swap1\n              sload\n              swap1\n              0x0100\n              exp\n              swap1\n              div\n              0xffffffffffffffffffffffffffffffffffffffff\n              and\n                /* \"ServiceChain.sol\":3354:3365  transaction */\n              dup2\n                /* \"ServiceChain.sol\":3354:3371  transaction.value */\n              0x01\n              add\n              sload\n                /* \"ServiceChain.sol\":3373:3384  transaction */\n              dup3\n                /* \"ServiceChain.sol\":3373:3389  transaction.data */\n              0x02\n              add\n                /* \"ServiceChain.sol\":3330:3390  return (transaction.to, transaction.value, transaction.data) */\n              dup1\n              dup1\n              sload\n              tag_100\n              swap1\n              tag_101\n              jump\t// in\n            tag_100:\n              dup1\n              0x1f\n              add\n              0x20\n              dup1\n              swap2\n              div\n              mul\n              0x20\n              add\n              mload(0x40)\n              swap1\n              dup2\n              add\n              0x40\n              mstore\n              dup1\n              swap3\n              swap2\n              swap1\n              dup2\n              dup2\n              mstore\n              0x20\n              add\n              dup3\n              dup1\n              sload\n              tag_102\n              swap1\n              tag_101\n              jump\t// in\n            tag_102:\n              dup1\n              iszero\n              tag_103\n              jumpi\n              dup1\n              0x1f\n              lt\n              tag_104\n              jumpi\n              0x0100\n              dup1\n              dup4\n              sload\n              div\n              mul\n              dup4\n              mstore\n              swap2\n              0x20\n              add\n              swap2\n              jump(tag_103)\n            tag_104:\n              dup3\n              add\n              swap2\n              swap1\n              0x00\n              mstore\n              keccak256(0x00, 0x20)\n              swap1\n            tag_105:\n              dup2\n              sload\n              dup2\n              mstore\n              swap1\n              0x01\n              add\n              swap1\n              0x20\n              add\n              dup1\n              dup4\n              gt\n              tag_105\n              jumpi\n              dup3\n              swap1\n              sub\n              0x1f\n              and\n              dup3\n              add\n              swap2\n            tag_103:\n              pop\n              pop\n              pop\n              pop\n              pop\n              swap1\n              pop\n              swap4\n              pop\n              swap4\n              pop\n              swap4\n              pop\n              pop\n                /* \"ServiceChain.sol\":3117:3398  function getTransaction(uint _txIndex)... */\n              swap2\n              swap4\n              swap1\n              swap3\n              pop\n              jump\t// out\n                /* \"ServiceChain.sol\":2651:2996  function submitTip(address _to, uint _value, bytes memory _data)... */\n            tag_50:\n                /* \"ServiceChain.sol\":2748:2760  uint txIndex */\n              0x00\n                /* \"ServiceChain.sol\":2763:2775  transactions */\n              dup1\n                /* \"ServiceChain.sol\":2763:2782  transactions.length */\n              dup1\n              sload\n              swap1\n              pop\n                /* \"ServiceChain.sol\":2748:2782  uint txIndex = transactions.length */\n              swap1\n              pop\n                /* \"ServiceChain.sol\":2793:2805  transactions */\n              0x00\n                /* \"ServiceChain.sol\":2811:2911  Transaction({... */\n              mload(0x40)\n              dup1\n              0x60\n              add\n              0x40\n              mstore\n              dup1\n                /* \"ServiceChain.sol\":2842:2845  _to */\n              dup7\n                /* \"ServiceChain.sol\":2811:2911  Transaction({... */\n              0xffffffffffffffffffffffffffffffffffffffff\n              and\n              dup2\n              mstore\n              0x20\n              add\n                /* \"ServiceChain.sol\":2867:2873  _value */\n              dup6\n                /* \"ServiceChain.sol\":2811:2911  Transaction({... */\n              dup2\n              mstore\n              0x20\n              add\n                /* \"ServiceChain.sol\":2894:2899  _data */\n              dup5\n                /* \"ServiceChain.sol\":2811:2911  Transaction({... */\n              dup2\n              mstore\n              pop\n                /* \"ServiceChain.sol\":2793:2912  transactions.push(Transaction({... */\n              swap1\n              dup1\n              0x01\n              dup2\n              sload\n              add\n              dup1\n              dup3\n              sstore\n              dup1\n              swap2\n              pop\n              pop\n              0x01\n              swap1\n              sub\n              swap1\n              0x00\n              mstore\n              keccak256(0x00, 0x20)\n              swap1\n              0x03\n              mul\n              add\n              0x00\n              swap1\n              swap2\n              swap1\n              swap2\n              swap1\n              swap2\n              pop\n              0x00\n              dup3\n              add\n              mload\n              dup2\n              0x00\n              add\n              exp(0x0100, 0x00)\n              dup2\n              sload\n              dup2\n              0xffffffffffffffffffffffffffffffffffffffff\n              mul\n              not\n              and\n              swap1\n              dup4\n              0xffffffffffffffffffffffffffffffffffffffff\n              and\n              mul\n              or\n              swap1\n              sstore\n              pop\n              0x20\n              dup3\n              add\n              mload\n              dup2\n              0x01\n              add\n              sstore\n              0x40\n              dup3\n              add\n              mload\n              dup2\n              0x02\n              add\n              swap1\n              dup2\n              tag_108\n              swap2\n              swap1\n              tag_109\n              jump\t// in\n            tag_108:\n              pop\n              pop\n              pop\n                /* \"ServiceChain.sol\":2969:2972  _to */\n              dup4\n                /* \"ServiceChain.sol\":2938:2988  SubmitTip(msg.sender, txIndex, _to, _value, _data) */\n              0xffffffffffffffffffffffffffffffffffffffff\n              and\n                /* \"ServiceChain.sol\":2960:2967  txIndex */\n              dup2\n                /* \"ServiceChain.sol\":2948:2958  msg.sender */\n              caller\n                /* \"ServiceChain.sol\":2938:2988  SubmitTip(msg.sender, txIndex, _to, _value, _data) */\n              0xffffffffffffffffffffffffffffffffffffffff\n              and\n              0xff161496bb9879e11f4a70b7df1b7ba081936284851b65942ef4d782f9d39bea\n                /* \"ServiceChain.sol\":2974:2980  _value */\n              dup7\n                /* \"ServiceChain.sol\":2982:2987  _data */\n              dup7\n                /* \"ServiceChain.sol\":2938:2988  SubmitTip(msg.sender, txIndex, _to, _value, _data) */\n              mload(0x40)\n              tag_110\n              swap3\n              swap2\n              swap1\n              tag_111\n              jump\t// in\n            tag_110:\n              mload(0x40)\n              dup1\n              swap2\n              sub\n              swap1\n              log4\n                /* \"ServiceChain.sol\":2737:2996  {... */\n              pop\n                /* \"ServiceChain.sol\":2651:2996  function submitTip(address _to, uint _value, bytes memory _data)... */\n              pop\n              pop\n              pop\n              jump\t// out\n                /* \"ServiceChain.sol\":2072:2391  function getRating(address waiter) public view returns (uint avgRating) {... */\n            tag_55:\n                /* \"ServiceChain.sol\":2128:2142  uint avgRating */\n              0x00\n                /* \"ServiceChain.sol\":2155:2170  uint sumRatings */\n              dup1\n                /* \"ServiceChain.sol\":2173:2174  0 */\n              0x00\n                /* \"ServiceChain.sol\":2155:2174  uint sumRatings = 0 */\n              swap1\n              pop\n                /* \"ServiceChain.sol\":2190:2196  uint i */\n              0x00\n                /* \"ServiceChain.sol\":2185:2292  for (uint i=0;i<ratings[waiter].length;i++){... */\n            tag_113:\n                /* \"ServiceChain.sol\":2201:2208  ratings */\n              0x02\n                /* \"ServiceChain.sol\":2201:2216  ratings[waiter] */\n              0x00\n                /* \"ServiceChain.sol\":2209:2215  waiter */\n              dup6\n                /* \"ServiceChain.sol\":2201:2216  ratings[waiter] */\n              0xffffffffffffffffffffffffffffffffffffffff\n              and\n              0xffffffffffffffffffffffffffffffffffffffff\n              and\n              dup2\n              mstore\n              0x20\n              add\n              swap1\n              dup2\n              mstore\n              0x20\n              add\n              0x00\n              keccak256\n                /* \"ServiceChain.sol\":2201:2223  ratings[waiter].length */\n              dup1\n              sload\n              swap1\n              pop\n                /* \"ServiceChain.sol\":2199:2200  i */\n              dup2\n                /* \"ServiceChain.sol\":2199:2223  i<ratings[waiter].length */\n              lt\n                /* \"ServiceChain.sol\":2185:2292  for (uint i=0;i<ratings[waiter].length;i++){... */\n              iszero\n              tag_114\n              jumpi\n                /* \"ServiceChain.sol\":2255:2262  ratings */\n              0x02\n                /* \"ServiceChain.sol\":2255:2270  ratings[waiter] */\n              0x00\n                /* \"ServiceChain.sol\":2263:2269  waiter */\n              dup6\n                /* \"ServiceChain.sol\":2255:2270  ratings[waiter] */\n              0xffffffffffffffffffffffffffffffffffffffff\n              and\n              0xffffffffffffffffffffffffffffffffffffffff\n              and\n              dup2\n              mstore\n              0x20\n              add\n              swap1\n              dup2\n              mstore\n              0x20\n              add\n              0x00\n              keccak256\n                /* \"ServiceChain.sol\":2271:2272  i */\n              dup2\n                /* \"ServiceChain.sol\":2255:2273  ratings[waiter][i] */\n              dup2\n              sload\n              dup2\n              lt\n              tag_116\n              jumpi\n              tag_117\n              tag_98\n              jump\t// in\n            tag_117:\n            tag_116:\n              swap1\n              0x00\n              mstore\n              keccak256(0x00, 0x20)\n              swap1\n              0x02\n              mul\n              add\n                /* \"ServiceChain.sol\":2255:2280  ratings[waiter][i].rating */\n              0x01\n              add\n              sload\n                /* \"ServiceChain.sol\":2243:2280  sumRatings+=ratings[waiter][i].rating */\n              dup3\n              tag_119\n              swap2\n              swap1\n              tag_120\n              jump\t// in\n            tag_119:\n              swap2\n              pop\n                /* \"ServiceChain.sol\":2224:2227  i++ */\n              dup1\n              dup1\n              tag_121\n              swap1\n              tag_122\n              jump\t// in\n            tag_121:\n              swap2\n              pop\n              pop\n                /* \"ServiceChain.sol\":2185:2292  for (uint i=0;i<ratings[waiter].length;i++){... */\n              jump(tag_113)\n            tag_114:\n              pop\n                /* \"ServiceChain.sol\":2302:2316  uint avgRating */\n              0x00\n                /* \"ServiceChain.sol\":2330:2337  ratings */\n              0x02\n                /* \"ServiceChain.sol\":2330:2345  ratings[waiter] */\n              0x00\n                /* \"ServiceChain.sol\":2338:2344  waiter */\n              dup6\n                /* \"ServiceChain.sol\":2330:2345  ratings[waiter] */\n              0xffffffffffffffffffffffffffffffffffffffff\n              and\n              0xffffffffffffffffffffffffffffffffffffffff\n              and\n              dup2\n              mstore\n              0x20\n              add\n              swap1\n              dup2\n              mstore\n              0x20\n              add\n              0x00\n              keccak256\n                /* \"ServiceChain.sol\":2330:2352  ratings[waiter].length */\n              dup1\n              sload\n              swap1\n              pop\n                /* \"ServiceChain.sol\":2319:2329  sumRatings */\n              dup3\n                /* \"ServiceChain.sol\":2319:2352  sumRatings/ratings[waiter].length */\n              tag_123\n              swap2\n              swap1\n              tag_124\n              jump\t// in\n            tag_123:\n                /* \"ServiceChain.sol\":2302:2352  uint avgRating = sumRatings/ratings[waiter].length */\n              swap1\n              pop\n                /* \"ServiceChain.sol\":2370:2379  avgRating */\n              dup1\n                /* \"ServiceChain.sol\":2363:2379  return avgRating */\n              swap3\n              pop\n              pop\n              pop\n                /* \"ServiceChain.sol\":2072:2391  function getRating(address waiter) public view returns (uint avgRating) {... */\n              swap2\n              swap1\n              pop\n              jump\t// out\n                /* \"ServiceChain.sol\":1413:1501  function enterHours(uint value) public{... */\n            tag_60:\n                /* \"ServiceChain.sol\":1462:1469  hourLog */\n              0x01\n                /* \"ServiceChain.sol\":1462:1481  hourLog[msg.sender] */\n              0x00\n                /* \"ServiceChain.sol\":1470:1480  msg.sender */\n              caller\n                /* \"ServiceChain.sol\":1462:1481  hourLog[msg.sender] */\n              0xffffffffffffffffffffffffffffffffffffffff\n              and\n              0xffffffffffffffffffffffffffffffffffffffff\n              and\n              dup2\n              mstore\n              0x20\n              add\n              swap1\n              dup2\n              mstore\n              0x20\n              add\n              0x00\n              keccak256\n                /* \"ServiceChain.sol\":1487:1492  value */\n              dup2\n                /* \"ServiceChain.sol\":1462:1493  hourLog[msg.sender].push(value) */\n              swap1\n              dup1\n              0x01\n              dup2\n              sload\n              add\n              dup1\n              dup3\n              sstore\n              dup1\n              swap2\n              pop\n              pop\n              0x01\n              swap1\n              sub\n              swap1\n              0x00\n              mstore\n              keccak256(0x00, 0x20)\n              add\n              0x00\n              swap1\n              swap2\n              swap1\n              swap2\n              swap1\n              swap2\n              pop\n              sstore\n                /* \"ServiceChain.sol\":1413:1501  function enterHours(uint value) public{... */\n              pop\n              jump\t// out\n                /* \"ServiceChain.sol\":1133:1172  mapping(address=>uint[]) public hourLog */\n            tag_64:\n              mstore(0x20, 0x01)\n              dup2\n              0x00\n              mstore\n              keccak256(0x00, 0x40)\n              dup2\n              dup2\n              sload\n              dup2\n              lt\n              tag_127\n              jumpi\n              0x00\n              dup1\n              revert\n            tag_127:\n              swap1\n              0x00\n              mstore\n              keccak256(0x00, 0x20)\n              add\n              0x00\n              swap2\n              pop\n              swap2\n              pop\n              pop\n              sload\n              dup2\n              jump\t// out\n                /* \"ServiceChain.sol\":1093:1126  Transaction[] public transactions */\n            tag_69:\n              0x00\n              dup2\n              dup2\n              sload\n              dup2\n              lt\n              tag_129\n              jumpi\n              0x00\n              dup1\n              revert\n            tag_129:\n              swap1\n              0x00\n              mstore\n              keccak256(0x00, 0x20)\n              swap1\n              0x03\n              mul\n              add\n              0x00\n              swap2\n              pop\n              swap1\n              pop\n              dup1\n              0x00\n              add\n              0x00\n              swap1\n              sload\n              swap1\n              0x0100\n              exp\n              swap1\n              div\n              0xffffffffffffffffffffffffffffffffffffffff\n              and\n              swap1\n              dup1\n              0x01\n              add\n              sload\n              swap1\n              dup1\n              0x02\n              add\n              dup1\n              sload\n              tag_131\n              swap1\n              tag_101\n              jump\t// in\n            tag_131:\n              dup1\n              0x1f\n              add\n              0x20\n              dup1\n              swap2\n              div\n              mul\n              0x20\n              add\n              mload(0x40)\n              swap1\n              dup2\n              add\n              0x40\n              mstore\n              dup1\n              swap3\n              swap2\n              swap1\n              dup2\n              dup2\n              mstore\n              0x20\n              add\n              dup3\n              dup1\n              sload\n              tag_132\n              swap1\n              tag_101\n              jump\t// in\n            tag_132:\n              dup1\n              iszero\n              tag_133\n              jumpi\n              dup1\n              0x1f\n              lt\n              tag_134\n              jumpi\n              0x0100\n              dup1\n              dup4\n              sload\n              div\n              mul\n              dup4\n              mstore\n              swap2\n              0x20\n              add\n              swap2\n              jump(tag_133)\n            tag_134:\n              dup3\n              add\n              swap2\n              swap1\n              0x00\n              mstore\n              keccak256(0x00, 0x20)\n              swap1\n            tag_135:\n              dup2\n              sload\n              dup2\n              mstore\n              swap1\n              0x01\n              add\n              swap1\n              0x20\n              add\n              dup1\n              dup4\n              gt\n              tag_135\n              jumpi\n              dup3\n              swap1\n              sub\n              0x1f\n              and\n              dup3\n              add\n              swap2\n            tag_133:\n              pop\n              pop\n              pop\n              pop\n              pop\n              swap1\n              pop\n              dup4\n              jump\t// out\n                /* \"ServiceChain.sol\":1736:1849  function getHourLog(address waiter) public view returns(uint[] memory){... */\n            tag_74:\n                /* \"ServiceChain.sol\":1792:1805  uint[] memory */\n              0x60\n                /* \"ServiceChain.sol\":1824:1831  hourLog */\n              0x01\n                /* \"ServiceChain.sol\":1824:1839  hourLog[waiter] */\n              0x00\n                /* \"ServiceChain.sol\":1832:1838  waiter */\n              dup4\n                /* \"ServiceChain.sol\":1824:1839  hourLog[waiter] */\n              0xffffffffffffffffffffffffffffffffffffffff\n              and\n              0xffffffffffffffffffffffffffffffffffffffff\n              and\n              dup2\n              mstore\n              0x20\n              add\n              swap1\n              dup2\n              mstore\n              0x20\n              add\n              0x00\n              keccak256\n                /* \"ServiceChain.sol\":1817:1839  return hourLog[waiter] */\n              dup1\n              sload\n              dup1\n              0x20\n              mul\n              0x20\n              add\n              mload(0x40)\n              swap1\n              dup2\n              add\n              0x40\n              mstore\n              dup1\n              swap3\n              swap2\n              swap1\n              dup2\n              dup2\n              mstore\n              0x20\n              add\n              dup3\n              dup1\n              sload\n              dup1\n              iszero\n              tag_137\n              jumpi\n              0x20\n              mul\n              dup3\n              add\n              swap2\n              swap1\n              0x00\n              mstore\n              keccak256(0x00, 0x20)\n              swap1\n            tag_138:\n              dup2\n              sload\n              dup2\n              mstore\n              0x20\n              add\n              swap1\n              0x01\n              add\n              swap1\n              dup1\n              dup4\n              gt\n              tag_138\n              jumpi\n            tag_137:\n              pop\n              pop\n              pop\n              pop\n              pop\n              swap1\n              pop\n                /* \"ServiceChain.sol\":1736:1849  function getHourLog(address waiter) public view returns(uint[] memory){... */\n              swap2\n              swap1\n              pop\n              jump\t// out\n                /* \"ServiceChain.sol\":1867:2064  function sendRatings(address customer,address waiter,uint rating) public {... */\n            tag_81:\n                /* \"ServiceChain.sol\":1978:1984  waiter */\n              dup2\n                /* \"ServiceChain.sol\":1956:1992  submitRating(customer,waiter,rating) */\n              0xffffffffffffffffffffffffffffffffffffffff\n              and\n                /* \"ServiceChain.sol\":1969:1977  customer */\n              dup4\n                /* \"ServiceChain.sol\":1956:1992  submitRating(customer,waiter,rating) */\n              0xffffffffffffffffffffffffffffffffffffffff\n              and\n              0x5435029ae8e53f5303b6dbda07be9beb09ae106923c28bf30dc3c46852588f04\n                /* \"ServiceChain.sol\":1985:1991  rating */\n              dup4\n                /* \"ServiceChain.sol\":1956:1992  submitRating(customer,waiter,rating) */\n              mload(0x40)\n              tag_140\n              swap2\n              swap1\n              tag_38\n              jump\t// in\n            tag_140:\n              mload(0x40)\n              dup1\n              swap2\n              sub\n              swap1\n              log3\n                /* \"ServiceChain.sol\":2003:2010  ratings */\n              0x02\n                /* \"ServiceChain.sol\":2003:2018  ratings[waiter] */\n              0x00\n                /* \"ServiceChain.sol\":2011:2017  waiter */\n              dup4\n                /* \"ServiceChain.sol\":2003:2018  ratings[waiter] */\n              0xffffffffffffffffffffffffffffffffffffffff\n              and\n              0xffffffffffffffffffffffffffffffffffffffff\n              and\n              dup2\n              mstore\n              0x20\n              add\n              swap1\n              dup2\n              mstore\n              0x20\n              add\n              0x00\n              keccak256\n                /* \"ServiceChain.sol\":2024:2055  customerRating(customer,rating) */\n              mload(0x40)\n              dup1\n              0x40\n              add\n              0x40\n              mstore\n              dup1\n                /* \"ServiceChain.sol\":2039:2047  customer */\n              dup6\n                /* \"ServiceChain.sol\":2024:2055  customerRating(customer,rating) */\n              0xffffffffffffffffffffffffffffffffffffffff\n              and\n              dup2\n              mstore\n              0x20\n              add\n                /* \"ServiceChain.sol\":2048:2054  rating */\n              dup4\n                /* \"ServiceChain.sol\":2024:2055  customerRating(customer,rating) */\n              dup2\n              mstore\n              pop\n                /* \"ServiceChain.sol\":2003:2056  ratings[waiter].push(customerRating(customer,rating)) */\n              swap1\n              dup1\n              0x01\n              dup2\n              sload\n              add\n              dup1\n              dup3\n              sstore\n              dup1\n              swap2\n              pop\n              pop\n              0x01\n              swap1\n              sub\n              swap1\n              0x00\n              mstore\n              keccak256(0x00, 0x20)\n              swap1\n              0x02\n              mul\n              add\n              0x00\n              swap1\n              swap2\n              swap1\n              swap2\n              swap1\n              swap2\n              pop\n              0x00\n              dup3\n              add\n              mload\n              dup2\n              0x00\n              add\n              exp(0x0100, 0x00)\n              dup2\n              sload\n              dup2\n              0xffffffffffffffffffffffffffffffffffffffff\n              mul\n              not\n              and\n              swap1\n              dup4\n              0xffffffffffffffffffffffffffffffffffffffff\n              and\n              mul\n              or\n              swap1\n              sstore\n              pop\n              0x20\n              dup3\n              add\n              mload\n              dup2\n              0x01\n              add\n              sstore\n              pop\n              pop\n                /* \"ServiceChain.sol\":1867:2064  function sendRatings(address customer,address waiter,uint rating) public {... */\n              pop\n              pop\n              pop\n              jump\t// out\n                /* \"ServiceChain.sol\":1507:1730  function getTotalHours(address waiter) public view returns(uint vals){... */\n            tag_85:\n                /* \"ServiceChain.sol\":1566:1575  uint vals */\n              0x00\n                /* \"ServiceChain.sol\":1587:1595  uint sum */\n              dup1\n                /* \"ServiceChain.sol\":1598:1599  0 */\n              0x00\n                /* \"ServiceChain.sol\":1587:1599  uint sum = 0 */\n              swap1\n              pop\n                /* \"ServiceChain.sol\":1614:1620  uint i */\n              0x00\n                /* \"ServiceChain.sol\":1610:1702  for(uint i=0;i<hourLog[waiter].length;i++){... */\n            tag_143:\n                /* \"ServiceChain.sol\":1625:1632  hourLog */\n              0x01\n                /* \"ServiceChain.sol\":1625:1640  hourLog[waiter] */\n              0x00\n                /* \"ServiceChain.sol\":1633:1639  waiter */\n              dup6\n                /* \"ServiceChain.sol\":1625:1640  hourLog[waiter] */\n              0xffffffffffffffffffffffffffffffffffffffff\n              and\n              0xffffffffffffffffffffffffffffffffffffffff\n              and\n              dup2\n              mstore\n              0x20\n              add\n              swap1\n              dup2\n              mstore\n              0x20\n              add\n              0x00\n              keccak256\n                /* \"ServiceChain.sol\":1625:1647  hourLog[waiter].length */\n              dup1\n              sload\n              swap1\n              pop\n                /* \"ServiceChain.sol\":1623:1624  i */\n              dup2\n                /* \"ServiceChain.sol\":1623:1647  i<hourLog[waiter].length */\n              lt\n                /* \"ServiceChain.sol\":1610:1702  for(uint i=0;i<hourLog[waiter].length;i++){... */\n              iszero\n              tag_144\n              jumpi\n                /* \"ServiceChain.sol\":1672:1679  hourLog */\n              0x01\n                /* \"ServiceChain.sol\":1672:1687  hourLog[waiter] */\n              0x00\n                /* \"ServiceChain.sol\":1680:1686  waiter */\n              dup6\n                /* \"ServiceChain.sol\":1672:1687  hourLog[waiter] */\n              0xffffffffffffffffffffffffffffffffffffffff\n              and\n              0xffffffffffffffffffffffffffffffffffffffff\n              and\n              dup2\n              mstore\n              0x20\n              add\n              swap1\n              dup2\n              mstore\n              0x20\n              add\n              0x00\n              keccak256\n                /* \"ServiceChain.sol\":1688:1689  i */\n              dup2\n                /* \"ServiceChain.sol\":1672:1690  hourLog[waiter][i] */\n              dup2\n              sload\n              dup2\n              lt\n              tag_146\n              jumpi\n              tag_147\n              tag_98\n              jump\t// in\n            tag_147:\n            tag_146:\n              swap1\n              0x00\n              mstore\n              keccak256(0x00, 0x20)\n              add\n              sload\n                /* \"ServiceChain.sol\":1667:1690  sum+=hourLog[waiter][i] */\n              dup3\n              tag_149\n              swap2\n              swap1\n              tag_120\n              jump\t// in\n            tag_149:\n              swap2\n              pop\n                /* \"ServiceChain.sol\":1648:1651  i++ */\n              dup1\n              dup1\n              tag_150\n              swap1\n              tag_122\n              jump\t// in\n            tag_150:\n              swap2\n              pop\n              pop\n                /* \"ServiceChain.sol\":1610:1702  for(uint i=0;i<hourLog[waiter].length;i++){... */\n              jump(tag_143)\n            tag_144:\n              pop\n                /* \"ServiceChain.sol\":1719:1722  sum */\n              dup1\n                /* \"ServiceChain.sol\":1712:1722  return sum */\n              swap2\n              pop\n              pop\n                /* \"ServiceChain.sol\":1507:1730  function getTotalHours(address waiter) public view returns(uint vals){... */\n              swap2\n              swap1\n              pop\n              jump\t// out\n                /* \"ServiceChain.sol\":1235:1252  string public org */\n            tag_89:\n              0x03\n              dup1\n              sload\n              tag_151\n              swap1\n              tag_101\n              jump\t// in\n            tag_151:\n              dup1\n              0x1f\n              add\n              0x20\n              dup1\n              swap2\n              div\n              mul\n              0x20\n              add\n              mload(0x40)\n              swap1\n              dup2\n              add\n              0x40\n              mstore\n              dup1\n              swap3\n              swap2\n              swap1\n              dup2\n              dup2\n              mstore\n              0x20\n              add\n              dup3\n              dup1\n              sload\n              tag_152\n              swap1\n              tag_101\n              jump\t// in\n            tag_152:\n              dup1\n              iszero\n              tag_153\n              jumpi\n              dup1\n              0x1f\n              lt\n              tag_154\n              jumpi\n              0x0100\n              dup1\n              dup4\n              sload\n              div\n              mul\n              dup4\n              mstore\n              swap2\n              0x20\n              add\n              swap2\n              jump(tag_153)\n            tag_154:\n              dup3\n              add\n              swap2\n              swap1\n              0x00\n              mstore\n              keccak256(0x00, 0x20)\n              swap1\n            tag_155:\n              dup2\n              sload\n              dup2\n              mstore\n              swap1\n              0x01\n              add\n              swap1\n              0x20\n              add\n              dup1\n              dup4\n              gt\n              tag_155\n              jumpi\n              dup3\n              swap1\n              sub\n              0x1f\n              and\n              dup3\n              add\n              swap2\n            tag_153:\n              pop\n              pop\n              pop\n              pop\n              pop\n              dup2\n              jump\t// out\n                /* \"#utility.yul\":7:84   */\n            tag_156:\n                /* \"#utility.yul\":44:51   */\n              0x00\n                /* \"#utility.yul\":73:78   */\n              dup2\n                /* \"#utility.yul\":62:78   */\n              swap1\n              pop\n                /* \"#utility.yul\":7:84   */\n              swap2\n              swap1\n              pop\n              jump\t// out\n                /* \"#utility.yul\":90:208   */\n            tag_157:\n                /* \"#utility.yul\":177:201   */\n              tag_213\n                /* \"#utility.yul\":195:200   */\n              dup2\n                /* \"#utility.yul\":177:201   */\n              tag_156\n              jump\t// in\n            tag_213:\n                /* \"#utility.yul\":172:175   */\n              dup3\n                /* \"#utility.yul\":165:202   */\n              mstore\n                /* \"#utility.yul\":90:208   */\n              pop\n              pop\n              jump\t// out\n                /* \"#utility.yul\":214:546   */\n            tag_21:\n                /* \"#utility.yul\":335:339   */\n              0x00\n                /* \"#utility.yul\":373:375   */\n              0x40\n                /* \"#utility.yul\":362:371   */\n              dup3\n                /* \"#utility.yul\":358:376   */\n              add\n                /* \"#utility.yul\":350:376   */\n              swap1\n              pop\n                /* \"#utility.yul\":386:457   */\n              tag_215\n                /* \"#utility.yul\":454:455   */\n              0x00\n                /* \"#utility.yul\":443:452   */\n              dup4\n                /* \"#utility.yul\":439:456   */\n              add\n                /* \"#utility.yul\":430:436   */\n              dup6\n                /* \"#utility.yul\":386:457   */\n              tag_157\n              jump\t// in\n            tag_215:\n                /* \"#utility.yul\":467:539   */\n              tag_216\n                /* \"#utility.yul\":535:537   */\n              0x20\n                /* \"#utility.yul\":524:533   */\n              dup4\n                /* \"#utility.yul\":520:538   */\n              add\n                /* \"#utility.yul\":511:517   */\n              dup5\n                /* \"#utility.yul\":467:539   */\n              tag_157\n              jump\t// in\n            tag_216:\n                /* \"#utility.yul\":214:546   */\n              swap4\n              swap3\n              pop\n              pop\n              pop\n              jump\t// out\n                /* \"#utility.yul\":552:678   */\n            tag_158:\n                /* \"#utility.yul\":589:596   */\n              0x00\n                /* \"#utility.yul\":629:671   */\n              0xffffffffffffffffffffffffffffffffffffffff\n                /* \"#utility.yul\":622:627   */\n              dup3\n                /* \"#utility.yul\":618:672   */\n              and\n                /* \"#utility.yul\":607:672   */\n              swap1\n              pop\n                /* \"#utility.yul\":552:678   */\n              swap2\n              swap1\n              pop\n              jump\t// out\n                /* \"#utility.yul\":684:780   */\n            tag_159:\n                /* \"#utility.yul\":721:728   */\n              0x00\n                /* \"#utility.yul\":750:774   */\n              tag_219\n                /* \"#utility.yul\":768:773   */\n              dup3\n                /* \"#utility.yul\":750:774   */\n              tag_158\n              jump\t// in\n            tag_219:\n                /* \"#utility.yul\":739:774   */\n              swap1\n              pop\n                /* \"#utility.yul\":684:780   */\n              swap2\n              swap1\n              pop\n              jump\t// out\n                /* \"#utility.yul\":786:904   */\n            tag_160:\n                /* \"#utility.yul\":873:897   */\n              tag_221\n                /* \"#utility.yul\":891:896   */\n              dup2\n                /* \"#utility.yul\":873:897   */\n              tag_159\n              jump\t// in\n            tag_221:\n                /* \"#utility.yul\":868:871   */\n              dup3\n                /* \"#utility.yul\":861:898   */\n              mstore\n                /* \"#utility.yul\":786:904   */\n              pop\n              pop\n              jump\t// out\n                /* \"#utility.yul\":910:1132   */\n            tag_26:\n                /* \"#utility.yul\":1003:1007   */\n              0x00\n                /* \"#utility.yul\":1041:1043   */\n              0x20\n                /* \"#utility.yul\":1030:1039   */\n              dup3\n                /* \"#utility.yul\":1026:1044   */\n              add\n                /* \"#utility.yul\":1018:1044   */\n              swap1\n              pop\n                /* \"#utility.yul\":1054:1125   */\n              tag_223\n                /* \"#utility.yul\":1122:1123   */\n              0x00\n                /* \"#utility.yul\":1111:1120   */\n              dup4\n                /* \"#utility.yul\":1107:1124   */\n              add\n                /* \"#utility.yul\":1098:1104   */\n              dup5\n                /* \"#utility.yul\":1054:1125   */\n              tag_160\n              jump\t// in\n            tag_223:\n                /* \"#utility.yul\":910:1132   */\n              swap3\n              swap2\n              pop\n              pop\n              jump\t// out\n                /* \"#utility.yul\":1138:1213   */\n            tag_161:\n                /* \"#utility.yul\":1171:1177   */\n              0x00\n                /* \"#utility.yul\":1204:1206   */\n              0x40\n                /* \"#utility.yul\":1198:1207   */\n              mload\n                /* \"#utility.yul\":1188:1207   */\n              swap1\n              pop\n                /* \"#utility.yul\":1138:1213   */\n              swap1\n              jump\t// out\n                /* \"#utility.yul\":1219:1336   */\n            tag_162:\n                /* \"#utility.yul\":1328:1329   */\n              0x00\n                /* \"#utility.yul\":1325:1326   */\n              dup1\n                /* \"#utility.yul\":1318:1330   */\n              revert\n                /* \"#utility.yul\":1342:1459   */\n            tag_163:\n                /* \"#utility.yul\":1451:1452   */\n              0x00\n                /* \"#utility.yul\":1448:1449   */\n              dup1\n                /* \"#utility.yul\":1441:1453   */\n              revert\n                /* \"#utility.yul\":1465:1587   */\n            tag_164:\n                /* \"#utility.yul\":1538:1562   */\n              tag_228\n                /* \"#utility.yul\":1556:1561   */\n              dup2\n                /* \"#utility.yul\":1538:1562   */\n              tag_159\n              jump\t// in\n            tag_228:\n                /* \"#utility.yul\":1531:1536   */\n              dup2\n                /* \"#utility.yul\":1528:1563   */\n              eq\n                /* \"#utility.yul\":1518:1581   */\n              tag_229\n              jumpi\n                /* \"#utility.yul\":1577:1578   */\n              0x00\n                /* \"#utility.yul\":1574:1575   */\n              dup1\n                /* \"#utility.yul\":1567:1579   */\n              revert\n                /* \"#utility.yul\":1518:1581   */\n            tag_229:\n                /* \"#utility.yul\":1465:1587   */\n              pop\n              jump\t// out\n                /* \"#utility.yul\":1593:1732   */\n            tag_165:\n                /* \"#utility.yul\":1639:1644   */\n              0x00\n                /* \"#utility.yul\":1677:1683   */\n              dup2\n                /* \"#utility.yul\":1664:1684   */\n              calldataload\n                /* \"#utility.yul\":1655:1684   */\n              swap1\n              pop\n                /* \"#utility.yul\":1693:1726   */\n              tag_231\n                /* \"#utility.yul\":1720:1725   */\n              dup2\n                /* \"#utility.yul\":1693:1726   */\n              tag_164\n              jump\t// in\n            tag_231:\n                /* \"#utility.yul\":1593:1732   */\n              swap3\n              swap2\n              pop\n              pop\n              jump\t// out\n                /* \"#utility.yul\":1738:1860   */\n            tag_166:\n                /* \"#utility.yul\":1811:1835   */\n              tag_233\n                /* \"#utility.yul\":1829:1834   */\n              dup2\n                /* \"#utility.yul\":1811:1835   */\n              tag_156\n              jump\t// in\n            tag_233:\n                /* \"#utility.yul\":1804:1809   */\n              dup2\n                /* \"#utility.yul\":1801:1836   */\n              eq\n                /* \"#utility.yul\":1791:1854   */\n              tag_234\n              jumpi\n                /* \"#utility.yul\":1850:1851   */\n              0x00\n                /* \"#utility.yul\":1847:1848   */\n              dup1\n                /* \"#utility.yul\":1840:1852   */\n              revert\n                /* \"#utility.yul\":1791:1854   */\n            tag_234:\n                /* \"#utility.yul\":1738:1860   */\n              pop\n              jump\t// out\n                /* \"#utility.yul\":1866:2005   */\n            tag_167:\n                /* \"#utility.yul\":1912:1917   */\n              0x00\n                /* \"#utility.yul\":1950:1956   */\n              dup2\n                /* \"#utility.yul\":1937:1957   */\n              calldataload\n                /* \"#utility.yul\":1928:1957   */\n              swap1\n              pop\n                /* \"#utility.yul\":1966:1999   */\n              tag_236\n                /* \"#utility.yul\":1993:1998   */\n              dup2\n                /* \"#utility.yul\":1966:1999   */\n              tag_166\n              jump\t// in\n            tag_236:\n                /* \"#utility.yul\":1866:2005   */\n              swap3\n              swap2\n              pop\n              pop\n              jump\t// out\n                /* \"#utility.yul\":2011:2485   */\n            tag_30:\n                /* \"#utility.yul\":2079:2085   */\n              0x00\n                /* \"#utility.yul\":2087:2093   */\n              dup1\n                /* \"#utility.yul\":2136:2138   */\n              0x40\n                /* \"#utility.yul\":2124:2133   */\n              dup4\n                /* \"#utility.yul\":2115:2122   */\n              dup6\n                /* \"#utility.yul\":2111:2134   */\n              sub\n                /* \"#utility.yul\":2107:2139   */\n              slt\n                /* \"#utility.yul\":2104:2223   */\n              iszero\n              tag_238\n              jumpi\n                /* \"#utility.yul\":2142:2221   */\n              tag_239\n              tag_162\n              jump\t// in\n            tag_239:\n                /* \"#utility.yul\":2104:2223   */\n            tag_238:\n                /* \"#utility.yul\":2262:2263   */\n              0x00\n                /* \"#utility.yul\":2287:2340   */\n              tag_240\n                /* \"#utility.yul\":2332:2339   */\n              dup6\n                /* \"#utility.yul\":2323:2329   */\n              dup3\n                /* \"#utility.yul\":2312:2321   */\n              dup7\n                /* \"#utility.yul\":2308:2330   */\n              add\n                /* \"#utility.yul\":2287:2340   */\n              tag_165\n              jump\t// in\n            tag_240:\n                /* \"#utility.yul\":2277:2340   */\n              swap3\n              pop\n                /* \"#utility.yul\":2233:2350   */\n              pop\n                /* \"#utility.yul\":2389:2391   */\n              0x20\n                /* \"#utility.yul\":2415:2468   */\n              tag_241\n                /* \"#utility.yul\":2460:2467   */\n              dup6\n                /* \"#utility.yul\":2451:2457   */\n              dup3\n                /* \"#utility.yul\":2440:2449   */\n              dup7\n                /* \"#utility.yul\":2436:2458   */\n              add\n                /* \"#utility.yul\":2415:2468   */\n              tag_167\n              jump\t// in\n            tag_241:\n                /* \"#utility.yul\":2405:2468   */\n              swap2\n              pop\n                /* \"#utility.yul\":2360:2478   */\n              pop\n                /* \"#utility.yul\":2011:2485   */\n              swap3\n              pop\n              swap3\n              swap1\n              pop\n              jump\t// out\n                /* \"#utility.yul\":2491:2823   */\n            tag_33:\n                /* \"#utility.yul\":2612:2616   */\n              0x00\n                /* \"#utility.yul\":2650:2652   */\n              0x40\n                /* \"#utility.yul\":2639:2648   */\n              dup3\n                /* \"#utility.yul\":2635:2653   */\n              add\n                /* \"#utility.yul\":2627:2653   */\n              swap1\n              pop\n                /* \"#utility.yul\":2663:2734   */\n              tag_243\n                /* \"#utility.yul\":2731:2732   */\n              0x00\n                /* \"#utility.yul\":2720:2729   */\n              dup4\n                /* \"#utility.yul\":2716:2733   */\n              add\n                /* \"#utility.yul\":2707:2713   */\n              dup6\n                /* \"#utility.yul\":2663:2734   */\n              tag_160\n              jump\t// in\n            tag_243:\n                /* \"#utility.yul\":2744:2816   */\n              tag_244\n                /* \"#utility.yul\":2812:2814   */\n              0x20\n                /* \"#utility.yul\":2801:2810   */\n              dup4\n                /* \"#utility.yul\":2797:2815   */\n              add\n                /* \"#utility.yul\":2788:2794   */\n              dup5\n                /* \"#utility.yul\":2744:2816   */\n              tag_157\n              jump\t// in\n            tag_244:\n                /* \"#utility.yul\":2491:2823   */\n              swap4\n              swap3\n              pop\n              pop\n              pop\n              jump\t// out\n                /* \"#utility.yul\":2829:3051   */\n            tag_38:\n                /* \"#utility.yul\":2922:2926   */\n              0x00\n                /* \"#utility.yul\":2960:2962   */\n              0x20\n                /* \"#utility.yul\":2949:2958   */\n              dup3\n                /* \"#utility.yul\":2945:2963   */\n              add\n                /* \"#utility.yul\":2937:2963   */\n              swap1\n              pop\n                /* \"#utility.yul\":2973:3044   */\n              tag_246\n                /* \"#utility.yul\":3041:3042   */\n              0x00\n                /* \"#utility.yul\":3030:3039   */\n              dup4\n                /* \"#utility.yul\":3026:3043   */\n              add\n                /* \"#utility.yul\":3017:3023   */\n              dup5\n                /* \"#utility.yul\":2973:3044   */\n              tag_157\n              jump\t// in\n            tag_246:\n                /* \"#utility.yul\":2829:3051   */\n              swap3\n              swap2\n              pop\n              pop\n              jump\t// out\n                /* \"#utility.yul\":3057:3386   */\n            tag_42:\n                /* \"#utility.yul\":3116:3122   */\n              0x00\n                /* \"#utility.yul\":3165:3167   */\n              0x20\n                /* \"#utility.yul\":3153:3162   */\n              dup3\n                /* \"#utility.yul\":3144:3151   */\n              dup5\n                /* \"#utility.yul\":3140:3163   */\n              sub\n                /* \"#utility.yul\":3136:3168   */\n              slt\n                /* \"#utility.yul\":3133:3252   */\n              iszero\n              tag_248\n              jumpi\n                /* \"#utility.yul\":3171:3250   */\n              tag_249\n              tag_162\n              jump\t// in\n            tag_249:\n                /* \"#utility.yul\":3133:3252   */\n            tag_248:\n                /* \"#utility.yul\":3291:3292   */\n              0x00\n                /* \"#utility.yul\":3316:3369   */\n              tag_250\n                /* \"#utility.yul\":3361:3368   */\n              dup5\n                /* \"#utility.yul\":3352:3358   */\n              dup3\n                /* \"#utility.yul\":3341:3350   */\n              dup6\n                /* \"#utility.yul\":3337:3359   */\n              add\n                /* \"#utility.yul\":3316:3369   */\n              tag_167\n              jump\t// in\n            tag_250:\n                /* \"#utility.yul\":3306:3369   */\n              swap2\n              pop\n                /* \"#utility.yul\":3262:3379   */\n              pop\n                /* \"#utility.yul\":3057:3386   */\n              swap3\n              swap2\n              pop\n              pop\n              jump\t// out\n                /* \"#utility.yul\":3392:3490   */\n            tag_168:\n                /* \"#utility.yul\":3443:3449   */\n              0x00\n                /* \"#utility.yul\":3477:3482   */\n              dup2\n                /* \"#utility.yul\":3471:3483   */\n              mload\n                /* \"#utility.yul\":3461:3483   */\n              swap1\n              pop\n                /* \"#utility.yul\":3392:3490   */\n              swap2\n              swap1\n              pop\n              jump\t// out\n                /* \"#utility.yul\":3496:3664   */\n            tag_169:\n                /* \"#utility.yul\":3579:3590   */\n              0x00\n                /* \"#utility.yul\":3613:3619   */\n              dup3\n                /* \"#utility.yul\":3608:3611   */\n              dup3\n                /* \"#utility.yul\":3601:3620   */\n              mstore\n                /* \"#utility.yul\":3653:3657   */\n              0x20\n                /* \"#utility.yul\":3648:3651   */\n              dup3\n                /* \"#utility.yul\":3644:3658   */\n              add\n                /* \"#utility.yul\":3629:3658   */\n              swap1\n              pop\n                /* \"#utility.yul\":3496:3664   */\n              swap3\n              swap2\n              pop\n              pop\n              jump\t// out\n                /* \"#utility.yul\":3670:3916   */\n            tag_170:\n                /* \"#utility.yul\":3751:3752   */\n              0x00\n                /* \"#utility.yul\":3761:3874   */\n            tag_254:\n                /* \"#utility.yul\":3775:3781   */\n              dup4\n                /* \"#utility.yul\":3772:3773   */\n              dup2\n                /* \"#utility.yul\":3769:3782   */\n              lt\n                /* \"#utility.yul\":3761:3874   */\n              iszero\n              tag_256\n              jumpi\n                /* \"#utility.yul\":3860:3861   */\n              dup1\n                /* \"#utility.yul\":3855:3858   */\n              dup3\n                /* \"#utility.yul\":3851:3862   */\n              add\n                /* \"#utility.yul\":3845:3863   */\n              mload\n                /* \"#utility.yul\":3841:3842   */\n              dup2\n                /* \"#utility.yul\":3836:3839   */\n              dup5\n                /* \"#utility.yul\":3832:3843   */\n              add\n                /* \"#utility.yul\":3825:3864   */\n              mstore\n                /* \"#utility.yul\":3797:3799   */\n              0x20\n                /* \"#utility.yul\":3794:3795   */\n              dup2\n                /* \"#utility.yul\":3790:3800   */\n              add\n                /* \"#utility.yul\":3785:3800   */\n              swap1\n              pop\n                /* \"#utility.yul\":3761:3874   */\n              jump(tag_254)\n            tag_256:\n                /* \"#utility.yul\":3908:3909   */\n              0x00\n                /* \"#utility.yul\":3899:3905   */\n              dup5\n                /* \"#utility.yul\":3894:3897   */\n              dup5\n                /* \"#utility.yul\":3890:3906   */\n              add\n                /* \"#utility.yul\":3883:3910   */\n              mstore\n                /* \"#utility.yul\":3732:3916   */\n              pop\n                /* \"#utility.yul\":3670:3916   */\n              pop\n              pop\n              pop\n              jump\t// out\n                /* \"#utility.yul\":3922:4024   */\n            tag_171:\n                /* \"#utility.yul\":3963:3969   */\n              0x00\n                /* \"#utility.yul\":4014:4016   */\n              0x1f\n                /* \"#utility.yul\":4010:4017   */\n              not\n                /* \"#utility.yul\":4005:4007   */\n              0x1f\n                /* \"#utility.yul\":3998:4003   */\n              dup4\n                /* \"#utility.yul\":3994:4008   */\n              add\n                /* \"#utility.yul\":3990:4018   */\n              and\n                /* \"#utility.yul\":3980:4018   */\n              swap1\n              pop\n                /* \"#utility.yul\":3922:4024   */\n              swap2\n              swap1\n              pop\n              jump\t// out\n                /* \"#utility.yul\":4030:4403   */\n            tag_172:\n                /* \"#utility.yul\":4116:4119   */\n              0x00\n                /* \"#utility.yul\":4144:4182   */\n              tag_259\n                /* \"#utility.yul\":4176:4181   */\n              dup3\n                /* \"#utility.yul\":4144:4182   */\n              tag_168\n              jump\t// in\n            tag_259:\n                /* \"#utility.yul\":4198:4268   */\n              tag_260\n                /* \"#utility.yul\":4261:4267   */\n              dup2\n                /* \"#utility.yul\":4256:4259   */\n              dup6\n                /* \"#utility.yul\":4198:4268   */\n              tag_169\n              jump\t// in\n            tag_260:\n                /* \"#utility.yul\":4191:4268   */\n              swap4\n              pop\n                /* \"#utility.yul\":4277:4342   */\n              tag_261\n                /* \"#utility.yul\":4335:4341   */\n              dup2\n                /* \"#utility.yul\":4330:4333   */\n              dup6\n                /* \"#utility.yul\":4323:4327   */\n              0x20\n                /* \"#utility.yul\":4316:4321   */\n              dup7\n                /* \"#utility.yul\":4312:4328   */\n              add\n                /* \"#utility.yul\":4277:4342   */\n              tag_170\n              jump\t// in\n            tag_261:\n                /* \"#utility.yul\":4367:4396   */\n              tag_262\n                /* \"#utility.yul\":4389:4395   */\n              dup2\n                /* \"#utility.yul\":4367:4396   */\n              tag_171\n              jump\t// in\n            tag_262:\n                /* \"#utility.yul\":4362:4365   */\n              dup5\n                /* \"#utility.yul\":4358:4397   */\n              add\n                /* \"#utility.yul\":4351:4397   */\n              swap2\n              pop\n                /* \"#utility.yul\":4120:4403   */\n              pop\n                /* \"#utility.yul\":4030:4403   */\n              swap3\n              swap2\n              pop\n              pop\n              jump\t// out\n                /* \"#utility.yul\":4409:4938   */\n            tag_45:\n                /* \"#utility.yul\":4576:4580   */\n              0x00\n                /* \"#utility.yul\":4614:4616   */\n              0x60\n                /* \"#utility.yul\":4603:4612   */\n              dup3\n                /* \"#utility.yul\":4599:4617   */\n              add\n                /* \"#utility.yul\":4591:4617   */\n              swap1\n              pop\n                /* \"#utility.yul\":4627:4698   */\n              tag_264\n                /* \"#utility.yul\":4695:4696   */\n              0x00\n                /* \"#utility.yul\":4684:4693   */\n              dup4\n                /* \"#utility.yul\":4680:4697   */\n              add\n                /* \"#utility.yul\":4671:4677   */\n              dup7\n                /* \"#utility.yul\":4627:4698   */\n              tag_160\n              jump\t// in\n            tag_264:\n                /* \"#utility.yul\":4708:4780   */\n              tag_265\n                /* \"#utility.yul\":4776:4778   */\n              0x20\n                /* \"#utility.yul\":4765:4774   */\n              dup4\n                /* \"#utility.yul\":4761:4779   */\n              add\n                /* \"#utility.yul\":4752:4758   */\n              dup6\n                /* \"#utility.yul\":4708:4780   */\n              tag_157\n              jump\t// in\n            tag_265:\n                /* \"#utility.yul\":4827:4836   */\n              dup2\n                /* \"#utility.yul\":4821:4825   */\n              dup2\n                /* \"#utility.yul\":4817:4837   */\n              sub\n                /* \"#utility.yul\":4812:4814   */\n              0x40\n                /* \"#utility.yul\":4801:4810   */\n              dup4\n                /* \"#utility.yul\":4797:4815   */\n              add\n                /* \"#utility.yul\":4790:4838   */\n              mstore\n                /* \"#utility.yul\":4855:4931   */\n              tag_266\n                /* \"#utility.yul\":4926:4930   */\n              dup2\n                /* \"#utility.yul\":4917:4923   */\n              dup5\n                /* \"#utility.yul\":4855:4931   */\n              tag_172\n              jump\t// in\n            tag_266:\n                /* \"#utility.yul\":4847:4931   */\n              swap1\n              pop\n                /* \"#utility.yul\":4409:4938   */\n              swap5\n              swap4\n              pop\n              pop\n              pop\n              pop\n              jump\t// out\n                /* \"#utility.yul\":4944:5061   */\n            tag_173:\n                /* \"#utility.yul\":5053:5054   */\n              0x00\n                /* \"#utility.yul\":5050:5051   */\n              dup1\n                /* \"#utility.yul\":5043:5055   */\n              revert\n                /* \"#utility.yul\":5067:5184   */\n            tag_174:\n                /* \"#utility.yul\":5176:5177   */\n              0x00\n                /* \"#utility.yul\":5173:5174   */\n              dup1\n                /* \"#utility.yul\":5166:5178   */\n              revert\n                /* \"#utility.yul\":5190:5370   */\n            tag_175:\n                /* \"#utility.yul\":5238:5315   */\n              0x4e487b7100000000000000000000000000000000000000000000000000000000\n                /* \"#utility.yul\":5235:5236   */\n              0x00\n                /* \"#utility.yul\":5228:5316   */\n              mstore\n                /* \"#utility.yul\":5335:5339   */\n              0x41\n                /* \"#utility.yul\":5332:5333   */\n              0x04\n                /* \"#utility.yul\":5325:5340   */\n              mstore\n                /* \"#utility.yul\":5359:5363   */\n              0x24\n                /* \"#utility.yul\":5356:5357   */\n              0x00\n                /* \"#utility.yul\":5349:5364   */\n              revert\n                /* \"#utility.yul\":5376:5657   */\n            tag_176:\n                /* \"#utility.yul\":5459:5486   */\n              tag_271\n                /* \"#utility.yul\":5481:5485   */\n              dup3\n                /* \"#utility.yul\":5459:5486   */\n              tag_171\n              jump\t// in\n            tag_271:\n                /* \"#utility.yul\":5451:5457   */\n              dup2\n                /* \"#utility.yul\":5447:5487   */\n              add\n                /* \"#utility.yul\":5589:5595   */\n              dup2\n                /* \"#utility.yul\":5577:5587   */\n              dup2\n                /* \"#utility.yul\":5574:5596   */\n              lt\n                /* \"#utility.yul\":5553:5571   */\n              0xffffffffffffffff\n                /* \"#utility.yul\":5541:5551   */\n              dup3\n                /* \"#utility.yul\":5538:5572   */\n              gt\n                /* \"#utility.yul\":5535:5597   */\n              or\n                /* \"#utility.yul\":5532:5620   */\n              iszero\n              tag_272\n              jumpi\n                /* \"#utility.yul\":5600:5618   */\n              tag_273\n              tag_175\n              jump\t// in\n            tag_273:\n                /* \"#utility.yul\":5532:5620   */\n            tag_272:\n                /* \"#utility.yul\":5640:5650   */\n              dup1\n                /* \"#utility.yul\":5636:5638   */\n              0x40\n                /* \"#utility.yul\":5629:5651   */\n              mstore\n                /* \"#utility.yul\":5419:5657   */\n              pop\n                /* \"#utility.yul\":5376:5657   */\n              pop\n              pop\n              jump\t// out\n                /* \"#utility.yul\":5663:5792   */\n            tag_177:\n                /* \"#utility.yul\":5697:5703   */\n              0x00\n                /* \"#utility.yul\":5724:5744   */\n              tag_275\n              tag_161\n              jump\t// in\n            tag_275:\n                /* \"#utility.yul\":5714:5744   */\n              swap1\n              pop\n                /* \"#utility.yul\":5753:5786   */\n              tag_276\n                /* \"#utility.yul\":5781:5785   */\n              dup3\n                /* \"#utility.yul\":5773:5779   */\n              dup3\n                /* \"#utility.yul\":5753:5786   */\n              tag_176\n              jump\t// in\n            tag_276:\n                /* \"#utility.yul\":5663:5792   */\n              swap2\n              swap1\n              pop\n              jump\t// out\n                /* \"#utility.yul\":5798:6105   */\n            tag_178:\n                /* \"#utility.yul\":5859:5863   */\n              0x00\n                /* \"#utility.yul\":5949:5967   */\n              0xffffffffffffffff\n                /* \"#utility.yul\":5941:5947   */\n              dup3\n                /* \"#utility.yul\":5938:5968   */\n              gt\n                /* \"#utility.yul\":5935:5991   */\n              iszero\n              tag_278\n              jumpi\n                /* \"#utility.yul\":5971:5989   */\n              tag_279\n              tag_175\n              jump\t// in\n            tag_279:\n                /* \"#utility.yul\":5935:5991   */\n            tag_278:\n                /* \"#utility.yul\":6009:6038   */\n              tag_280\n                /* \"#utility.yul\":6031:6037   */\n              dup3\n                /* \"#utility.yul\":6009:6038   */\n              tag_171\n              jump\t// in\n            tag_280:\n                /* \"#utility.yul\":6001:6038   */\n              swap1\n              pop\n                /* \"#utility.yul\":6093:6097   */\n              0x20\n                /* \"#utility.yul\":6087:6091   */\n              dup2\n                /* \"#utility.yul\":6083:6098   */\n              add\n                /* \"#utility.yul\":6075:6098   */\n              swap1\n              pop\n                /* \"#utility.yul\":5798:6105   */\n              swap2\n              swap1\n              pop\n              jump\t// out\n                /* \"#utility.yul\":6111:6257   */\n            tag_179:\n                /* \"#utility.yul\":6208:6214   */\n              dup3\n                /* \"#utility.yul\":6203:6206   */\n              dup2\n                /* \"#utility.yul\":6198:6201   */\n              dup4\n                /* \"#utility.yul\":6185:6215   */\n              calldatacopy\n                /* \"#utility.yul\":6249:6250   */\n              0x00\n                /* \"#utility.yul\":6240:6246   */\n              dup4\n                /* \"#utility.yul\":6235:6238   */\n              dup4\n                /* \"#utility.yul\":6231:6247   */\n              add\n                /* \"#utility.yul\":6224:6251   */\n              mstore\n                /* \"#utility.yul\":6111:6257   */\n              pop\n              pop\n              pop\n              jump\t// out\n                /* \"#utility.yul\":6263:6686   */\n            tag_180:\n                /* \"#utility.yul\":6340:6345   */\n              0x00\n                /* \"#utility.yul\":6365:6430   */\n              tag_283\n                /* \"#utility.yul\":6381:6429   */\n              tag_284\n                /* \"#utility.yul\":6422:6428   */\n              dup5\n                /* \"#utility.yul\":6381:6429   */\n              tag_178\n              jump\t// in\n            tag_284:\n                /* \"#utility.yul\":6365:6430   */\n              tag_177\n              jump\t// in\n            tag_283:\n                /* \"#utility.yul\":6356:6430   */\n              swap1\n              pop\n                /* \"#utility.yul\":6453:6459   */\n              dup3\n                /* \"#utility.yul\":6446:6451   */\n              dup2\n                /* \"#utility.yul\":6439:6460   */\n              mstore\n                /* \"#utility.yul\":6491:6495   */\n              0x20\n                /* \"#utility.yul\":6484:6489   */\n              dup2\n                /* \"#utility.yul\":6480:6496   */\n              add\n                /* \"#utility.yul\":6529:6532   */\n              dup5\n                /* \"#utility.yul\":6520:6526   */\n              dup5\n                /* \"#utility.yul\":6515:6518   */\n              dup5\n                /* \"#utility.yul\":6511:6527   */\n              add\n                /* \"#utility.yul\":6508:6533   */\n              gt\n                /* \"#utility.yul\":6505:6617   */\n              iszero\n              tag_285\n              jumpi\n                /* \"#utility.yul\":6536:6615   */\n              tag_286\n              tag_174\n              jump\t// in\n            tag_286:\n                /* \"#utility.yul\":6505:6617   */\n            tag_285:\n                /* \"#utility.yul\":6626:6680   */\n              tag_287\n                /* \"#utility.yul\":6673:6679   */\n              dup5\n                /* \"#utility.yul\":6668:6671   */\n              dup3\n                /* \"#utility.yul\":6663:6666   */\n              dup6\n                /* \"#utility.yul\":6626:6680   */\n              tag_179\n              jump\t// in\n            tag_287:\n                /* \"#utility.yul\":6346:6686   */\n              pop\n                /* \"#utility.yul\":6263:6686   */\n              swap4\n              swap3\n              pop\n              pop\n              pop\n              jump\t// out\n                /* \"#utility.yul\":6705:7043   */\n            tag_181:\n                /* \"#utility.yul\":6760:6765   */\n              0x00\n                /* \"#utility.yul\":6809:6812   */\n              dup3\n                /* \"#utility.yul\":6802:6806   */\n              0x1f\n                /* \"#utility.yul\":6794:6800   */\n              dup4\n                /* \"#utility.yul\":6790:6807   */\n              add\n                /* \"#utility.yul\":6786:6813   */\n              slt\n                /* \"#utility.yul\":6776:6898   */\n              tag_289\n              jumpi\n                /* \"#utility.yul\":6817:6896   */\n              tag_290\n              tag_173\n              jump\t// in\n            tag_290:\n                /* \"#utility.yul\":6776:6898   */\n            tag_289:\n                /* \"#utility.yul\":6934:6940   */\n              dup2\n                /* \"#utility.yul\":6921:6941   */\n              calldataload\n                /* \"#utility.yul\":6959:7037   */\n              tag_291\n                /* \"#utility.yul\":7033:7036   */\n              dup5\n                /* \"#utility.yul\":7025:7031   */\n              dup3\n                /* \"#utility.yul\":7018:7022   */\n              0x20\n                /* \"#utility.yul\":7010:7016   */\n              dup7\n                /* \"#utility.yul\":7006:7023   */\n              add\n                /* \"#utility.yul\":6959:7037   */\n              tag_180\n              jump\t// in\n            tag_291:\n                /* \"#utility.yul\":6950:7037   */\n              swap2\n              pop\n                /* \"#utility.yul\":6766:7043   */\n              pop\n                /* \"#utility.yul\":6705:7043   */\n              swap3\n              swap2\n              pop\n              pop\n              jump\t// out\n                /* \"#utility.yul\":7049:7846   */\n            tag_49:\n                /* \"#utility.yul\":7135:7141   */\n              0x00\n                /* \"#utility.yul\":7143:7149   */\n              dup1\n                /* \"#utility.yul\":7151:7157   */\n              0x00\n                /* \"#utility.yul\":7200:7202   */\n              0x60\n                /* \"#utility.yul\":7188:7197   */\n              dup5\n                /* \"#utility.yul\":7179:7186   */\n              dup7\n                /* \"#utility.yul\":7175:7198   */\n              sub\n                /* \"#utility.yul\":7171:7203   */\n              slt\n                /* \"#utility.yul\":7168:7287   */\n              iszero\n              tag_293\n              jumpi\n                /* \"#utility.yul\":7206:7285   */\n              tag_294\n              tag_162\n              jump\t// in\n            tag_294:\n                /* \"#utility.yul\":7168:7287   */\n            tag_293:\n                /* \"#utility.yul\":7326:7327   */\n              0x00\n                /* \"#utility.yul\":7351:7404   */\n              tag_295\n                /* \"#utility.yul\":7396:7403   */\n              dup7\n                /* \"#utility.yul\":7387:7393   */\n              dup3\n                /* \"#utility.yul\":7376:7385   */\n              dup8\n                /* \"#utility.yul\":7372:7394   */\n              add\n                /* \"#utility.yul\":7351:7404   */\n              tag_165\n              jump\t// in\n            tag_295:\n                /* \"#utility.yul\":7341:7404   */\n              swap4\n              pop\n                /* \"#utility.yul\":7297:7414   */\n              pop\n                /* \"#utility.yul\":7453:7455   */\n              0x20\n                /* \"#utility.yul\":7479:7532   */\n              tag_296\n                /* \"#utility.yul\":7524:7531   */\n              dup7\n                /* \"#utility.yul\":7515:7521   */\n              dup3\n                /* \"#utility.yul\":7504:7513   */\n              dup8\n                /* \"#utility.yul\":7500:7522   */\n              add\n                /* \"#utility.yul\":7479:7532   */\n              tag_167\n              jump\t// in\n            tag_296:\n                /* \"#utility.yul\":7469:7532   */\n              swap3\n              pop\n                /* \"#utility.yul\":7424:7542   */\n              pop\n                /* \"#utility.yul\":7609:7611   */\n              0x40\n                /* \"#utility.yul\":7598:7607   */\n              dup5\n                /* \"#utility.yul\":7594:7612   */\n              add\n                /* \"#utility.yul\":7581:7613   */\n              calldataload\n                /* \"#utility.yul\":7640:7658   */\n              0xffffffffffffffff\n                /* \"#utility.yul\":7632:7638   */\n              dup2\n                /* \"#utility.yul\":7629:7659   */\n              gt\n                /* \"#utility.yul\":7626:7743   */\n              iszero\n              tag_297\n              jumpi\n                /* \"#utility.yul\":7662:7741   */\n              tag_298\n              tag_163\n              jump\t// in\n            tag_298:\n                /* \"#utility.yul\":7626:7743   */\n            tag_297:\n                /* \"#utility.yul\":7767:7829   */\n              tag_299\n                /* \"#utility.yul\":7821:7828   */\n              dup7\n                /* \"#utility.yul\":7812:7818   */\n              dup3\n                /* \"#utility.yul\":7801:7810   */\n              dup8\n                /* \"#utility.yul\":7797:7819   */\n              add\n                /* \"#utility.yul\":7767:7829   */\n              tag_181\n              jump\t// in\n            tag_299:\n                /* \"#utility.yul\":7757:7829   */\n              swap2\n              pop\n                /* \"#utility.yul\":7552:7839   */\n              pop\n                /* \"#utility.yul\":7049:7846   */\n              swap3\n              pop\n              swap3\n              pop\n              swap3\n              jump\t// out\n                /* \"#utility.yul\":7852:8181   */\n            tag_54:\n                /* \"#utility.yul\":7911:7917   */\n              0x00\n                /* \"#utility.yul\":7960:7962   */\n              0x20\n                /* \"#utility.yul\":7948:7957   */\n              dup3\n                /* \"#utility.yul\":7939:7946   */\n              dup5\n                /* \"#utility.yul\":7935:7958   */\n              sub\n                /* \"#utility.yul\":7931:7963   */\n              slt\n                /* \"#utility.yul\":7928:8047   */\n              iszero\n              tag_301\n              jumpi\n                /* \"#utility.yul\":7966:8045   */\n              tag_302\n              tag_162\n              jump\t// in\n            tag_302:\n                /* \"#utility.yul\":7928:8047   */\n            tag_301:\n                /* \"#utility.yul\":8086:8087   */\n              0x00\n                /* \"#utility.yul\":8111:8164   */\n              tag_303\n                /* \"#utility.yul\":8156:8163   */\n              dup5\n                /* \"#utility.yul\":8147:8153   */\n              dup3\n                /* \"#utility.yul\":8136:8145   */\n              dup6\n                /* \"#utility.yul\":8132:8154   */\n              add\n                /* \"#utility.yul\":8111:8164   */\n              tag_165\n              jump\t// in\n            tag_303:\n                /* \"#utility.yul\":8101:8164   */\n              swap2\n              pop\n                /* \"#utility.yul\":8057:8174   */\n              pop\n                /* \"#utility.yul\":7852:8181   */\n              swap3\n              swap2\n              pop\n              pop\n              jump\t// out\n                /* \"#utility.yul\":8187:8301   */\n            tag_182:\n                /* \"#utility.yul\":8254:8260   */\n              0x00\n                /* \"#utility.yul\":8288:8293   */\n              dup2\n                /* \"#utility.yul\":8282:8294   */\n              mload\n                /* \"#utility.yul\":8272:8294   */\n              swap1\n              pop\n                /* \"#utility.yul\":8187:8301   */\n              swap2\n              swap1\n              pop\n              jump\t// out\n                /* \"#utility.yul\":8307:8491   */\n            tag_183:\n                /* \"#utility.yul\":8406:8417   */\n              0x00\n                /* \"#utility.yul\":8440:8446   */\n              dup3\n                /* \"#utility.yul\":8435:8438   */\n              dup3\n                /* \"#utility.yul\":8428:8447   */\n              mstore\n                /* \"#utility.yul\":8480:8484   */\n              0x20\n                /* \"#utility.yul\":8475:8478   */\n              dup3\n                /* \"#utility.yul\":8471:8485   */\n              add\n                /* \"#utility.yul\":8456:8485   */\n              swap1\n              pop\n                /* \"#utility.yul\":8307:8491   */\n              swap3\n              swap2\n              pop\n              pop\n              jump\t// out\n                /* \"#utility.yul\":8497:8629   */\n            tag_184:\n                /* \"#utility.yul\":8564:8568   */\n              0x00\n                /* \"#utility.yul\":8587:8590   */\n              dup2\n                /* \"#utility.yul\":8579:8590   */\n              swap1\n              pop\n                /* \"#utility.yul\":8617:8621   */\n              0x20\n                /* \"#utility.yul\":8612:8615   */\n              dup3\n                /* \"#utility.yul\":8608:8622   */\n              add\n                /* \"#utility.yul\":8600:8622   */\n              swap1\n              pop\n                /* \"#utility.yul\":8497:8629   */\n              swap2\n              swap1\n              pop\n              jump\t// out\n                /* \"#utility.yul\":8635:8743   */\n            tag_185:\n                /* \"#utility.yul\":8712:8736   */\n              tag_308\n                /* \"#utility.yul\":8730:8735   */\n              dup2\n                /* \"#utility.yul\":8712:8736   */\n              tag_156\n              jump\t// in\n            tag_308:\n                /* \"#utility.yul\":8707:8710   */\n              dup3\n                /* \"#utility.yul\":8700:8737   */\n              mstore\n                /* \"#utility.yul\":8635:8743   */\n              pop\n              pop\n              jump\t// out\n                /* \"#utility.yul\":8749:8928   */\n            tag_186:\n                /* \"#utility.yul\":8818:8828   */\n              0x00\n                /* \"#utility.yul\":8839:8885   */\n              tag_310\n                /* \"#utility.yul\":8881:8884   */\n              dup4\n                /* \"#utility.yul\":8873:8879   */\n              dup4\n                /* \"#utility.yul\":8839:8885   */\n              tag_185\n              jump\t// in\n            tag_310:\n                /* \"#utility.yul\":8917:8921   */\n              0x20\n                /* \"#utility.yul\":8912:8915   */\n              dup4\n                /* \"#utility.yul\":8908:8922   */\n              add\n                /* \"#utility.yul\":8894:8922   */\n              swap1\n              pop\n                /* \"#utility.yul\":8749:8928   */\n              swap3\n              swap2\n              pop\n              pop\n              jump\t// out\n                /* \"#utility.yul\":8934:9047   */\n            tag_187:\n                /* \"#utility.yul\":9004:9008   */\n              0x00\n                /* \"#utility.yul\":9036:9040   */\n              0x20\n                /* \"#utility.yul\":9031:9034   */\n              dup3\n                /* \"#utility.yul\":9027:9041   */\n              add\n                /* \"#utility.yul\":9019:9041   */\n              swap1\n              pop\n                /* \"#utility.yul\":8934:9047   */\n              swap2\n              swap1\n              pop\n              jump\t// out\n                /* \"#utility.yul\":9083:9815   */\n            tag_188:\n                /* \"#utility.yul\":9202:9205   */\n              0x00\n                /* \"#utility.yul\":9231:9285   */\n              tag_313\n                /* \"#utility.yul\":9279:9284   */\n              dup3\n                /* \"#utility.yul\":9231:9285   */\n              tag_182\n              jump\t// in\n            tag_313:\n                /* \"#utility.yul\":9301:9387   */\n              tag_314\n                /* \"#utility.yul\":9380:9386   */\n              dup2\n                /* \"#utility.yul\":9375:9378   */\n              dup6\n                /* \"#utility.yul\":9301:9387   */\n              tag_183\n              jump\t// in\n            tag_314:\n                /* \"#utility.yul\":9294:9387   */\n              swap4\n              pop\n                /* \"#utility.yul\":9411:9467   */\n              tag_315\n                /* \"#utility.yul\":9461:9466   */\n              dup4\n                /* \"#utility.yul\":9411:9467   */\n              tag_184\n              jump\t// in\n            tag_315:\n                /* \"#utility.yul\":9490:9497   */\n              dup1\n                /* \"#utility.yul\":9521:9522   */\n              0x00\n                /* \"#utility.yul\":9506:9790   */\n            tag_316:\n                /* \"#utility.yul\":9531:9537   */\n              dup4\n                /* \"#utility.yul\":9528:9529   */\n              dup2\n                /* \"#utility.yul\":9525:9538   */\n              lt\n                /* \"#utility.yul\":9506:9790   */\n              iszero\n              tag_318\n              jumpi\n                /* \"#utility.yul\":9607:9613   */\n              dup2\n                /* \"#utility.yul\":9601:9614   */\n              mload\n                /* \"#utility.yul\":9634:9697   */\n              tag_319\n                /* \"#utility.yul\":9693:9696   */\n              dup9\n                /* \"#utility.yul\":9678:9691   */\n              dup3\n                /* \"#utility.yul\":9634:9697   */\n              tag_186\n              jump\t// in\n            tag_319:\n                /* \"#utility.yul\":9627:9697   */\n              swap8\n              pop\n                /* \"#utility.yul\":9720:9780   */\n              tag_320\n                /* \"#utility.yul\":9773:9779   */\n              dup4\n                /* \"#utility.yul\":9720:9780   */\n              tag_187\n              jump\t// in\n            tag_320:\n                /* \"#utility.yul\":9710:9780   */\n              swap3\n              pop\n                /* \"#utility.yul\":9566:9790   */\n              pop\n                /* \"#utility.yul\":9553:9554   */\n              0x01\n                /* \"#utility.yul\":9550:9551   */\n              dup2\n                /* \"#utility.yul\":9546:9555   */\n              add\n                /* \"#utility.yul\":9541:9555   */\n              swap1\n              pop\n                /* \"#utility.yul\":9506:9790   */\n              jump(tag_316)\n            tag_318:\n                /* \"#utility.yul\":9510:9524   */\n              pop\n                /* \"#utility.yul\":9806:9809   */\n              dup6\n                /* \"#utility.yul\":9799:9809   */\n              swap4\n              pop\n                /* \"#utility.yul\":9207:9815   */\n              pop\n              pop\n              pop\n                /* \"#utility.yul\":9083:9815   */\n              swap3\n              swap2\n              pop\n              pop\n              jump\t// out\n                /* \"#utility.yul\":9821:10194   */\n            tag_76:\n                /* \"#utility.yul\":9964:9968   */\n              0x00\n                /* \"#utility.yul\":10002:10004   */\n              0x20\n                /* \"#utility.yul\":9991:10000   */\n              dup3\n                /* \"#utility.yul\":9987:10005   */\n              add\n                /* \"#utility.yul\":9979:10005   */\n              swap1\n              pop\n                /* \"#utility.yul\":10051:10060   */\n              dup2\n                /* \"#utility.yul\":10045:10049   */\n              dup2\n                /* \"#utility.yul\":10041:10061   */\n              sub\n                /* \"#utility.yul\":10037:10038   */\n              0x00\n                /* \"#utility.yul\":10026:10035   */\n              dup4\n                /* \"#utility.yul\":10022:10039   */\n              add\n                /* \"#utility.yul\":10015:10062   */\n              mstore\n                /* \"#utility.yul\":10079:10187   */\n              tag_322\n                /* \"#utility.yul\":10182:10186   */\n              dup2\n                /* \"#utility.yul\":10173:10179   */\n              dup5\n                /* \"#utility.yul\":10079:10187   */\n              tag_188\n              jump\t// in\n            tag_322:\n                /* \"#utility.yul\":10071:10187   */\n              swap1\n              pop\n                /* \"#utility.yul\":9821:10194   */\n              swap3\n              swap2\n              pop\n              pop\n              jump\t// out\n                /* \"#utility.yul\":10200:10819   */\n            tag_80:\n                /* \"#utility.yul\":10277:10283   */\n              0x00\n                /* \"#utility.yul\":10285:10291   */\n              dup1\n                /* \"#utility.yul\":10293:10299   */\n              0x00\n                /* \"#utility.yul\":10342:10344   */\n              0x60\n                /* \"#utility.yul\":10330:10339   */\n              dup5\n                /* \"#utility.yul\":10321:10328   */\n              dup7\n                /* \"#utility.yul\":10317:10340   */\n              sub\n                /* \"#utility.yul\":10313:10345   */\n              slt\n                /* \"#utility.yul\":10310:10429   */\n              iszero\n              tag_324\n              jumpi\n                /* \"#utility.yul\":10348:10427   */\n              tag_325\n              tag_162\n              jump\t// in\n            tag_325:\n                /* \"#utility.yul\":10310:10429   */\n            tag_324:\n                /* \"#utility.yul\":10468:10469   */\n              0x00\n                /* \"#utility.yul\":10493:10546   */\n              tag_326\n                /* \"#utility.yul\":10538:10545   */\n              dup7\n                /* \"#utility.yul\":10529:10535   */\n              dup3\n                /* \"#utility.yul\":10518:10527   */\n              dup8\n                /* \"#utility.yul\":10514:10536   */\n              add\n                /* \"#utility.yul\":10493:10546   */\n              tag_165\n              jump\t// in\n            tag_326:\n                /* \"#utility.yul\":10483:10546   */\n              swap4\n              pop\n                /* \"#utility.yul\":10439:10556   */\n              pop\n                /* \"#utility.yul\":10595:10597   */\n              0x20\n                /* \"#utility.yul\":10621:10674   */\n              tag_327\n                /* \"#utility.yul\":10666:10673   */\n              dup7\n                /* \"#utility.yul\":10657:10663   */\n              dup3\n                /* \"#utility.yul\":10646:10655   */\n              dup8\n                /* \"#utility.yul\":10642:10664   */\n              add\n                /* \"#utility.yul\":10621:10674   */\n              tag_165\n              jump\t// in\n            tag_327:\n                /* \"#utility.yul\":10611:10674   */\n              swap3\n              pop\n                /* \"#utility.yul\":10566:10684   */\n              pop\n                /* \"#utility.yul\":10723:10725   */\n              0x40\n                /* \"#utility.yul\":10749:10802   */\n              tag_328\n                /* \"#utility.yul\":10794:10801   */\n              dup7\n                /* \"#utility.yul\":10785:10791   */\n              dup3\n                /* \"#utility.yul\":10774:10783   */\n              dup8\n                /* \"#utility.yul\":10770:10792   */\n              add\n                /* \"#utility.yul\":10749:10802   */\n              tag_167\n              jump\t// in\n            tag_328:\n                /* \"#utility.yul\":10739:10802   */\n              swap2\n              pop\n                /* \"#utility.yul\":10694:10812   */\n              pop\n                /* \"#utility.yul\":10200:10819   */\n              swap3\n              pop\n              swap3\n              pop\n              swap3\n              jump\t// out\n                /* \"#utility.yul\":10825:10924   */\n            tag_189:\n                /* \"#utility.yul\":10877:10883   */\n              0x00\n                /* \"#utility.yul\":10911:10916   */\n              dup2\n                /* \"#utility.yul\":10905:10917   */\n              mload\n                /* \"#utility.yul\":10895:10917   */\n              swap1\n              pop\n                /* \"#utility.yul\":10825:10924   */\n              swap2\n              swap1\n              pop\n              jump\t// out\n                /* \"#utility.yul\":10930:11099   */\n            tag_190:\n                /* \"#utility.yul\":11014:11025   */\n              0x00\n                /* \"#utility.yul\":11048:11054   */\n              dup3\n                /* \"#utility.yul\":11043:11046   */\n              dup3\n                /* \"#utility.yul\":11036:11055   */\n              mstore\n                /* \"#utility.yul\":11088:11092   */\n              0x20\n                /* \"#utility.yul\":11083:11086   */\n              dup3\n                /* \"#utility.yul\":11079:11093   */\n              add\n                /* \"#utility.yul\":11064:11093   */\n              swap1\n              pop\n                /* \"#utility.yul\":10930:11099   */\n              swap3\n              swap2\n              pop\n              pop\n              jump\t// out\n                /* \"#utility.yul\":11105:11482   */\n            tag_191:\n                /* \"#utility.yul\":11193:11196   */\n              0x00\n                /* \"#utility.yul\":11221:11260   */\n              tag_332\n                /* \"#utility.yul\":11254:11259   */\n              dup3\n                /* \"#utility.yul\":11221:11260   */\n              tag_189\n              jump\t// in\n            tag_332:\n                /* \"#utility.yul\":11276:11347   */\n              tag_333\n                /* \"#utility.yul\":11340:11346   */\n              dup2\n                /* \"#utility.yul\":11335:11338   */\n              dup6\n                /* \"#utility.yul\":11276:11347   */\n              tag_190\n              jump\t// in\n            tag_333:\n                /* \"#utility.yul\":11269:11347   */\n              swap4\n              pop\n                /* \"#utility.yul\":11356:11421   */\n              tag_334\n                /* \"#utility.yul\":11414:11420   */\n              dup2\n                /* \"#utility.yul\":11409:11412   */\n              dup6\n                /* \"#utility.yul\":11402:11406   */\n              0x20\n                /* \"#utility.yul\":11395:11400   */\n              dup7\n                /* \"#utility.yul\":11391:11407   */\n              add\n                /* \"#utility.yul\":11356:11421   */\n              tag_170\n              jump\t// in\n            tag_334:\n                /* \"#utility.yul\":11446:11475   */\n              tag_335\n                /* \"#utility.yul\":11468:11474   */\n              dup2\n                /* \"#utility.yul\":11446:11475   */\n              tag_171\n              jump\t// in\n            tag_335:\n                /* \"#utility.yul\":11441:11444   */\n              dup5\n                /* \"#utility.yul\":11437:11476   */\n              add\n                /* \"#utility.yul\":11430:11476   */\n              swap2\n              pop\n                /* \"#utility.yul\":11197:11482   */\n              pop\n                /* \"#utility.yul\":11105:11482   */\n              swap3\n              swap2\n              pop\n              pop\n              jump\t// out\n                /* \"#utility.yul\":11488:11801   */\n            tag_91:\n                /* \"#utility.yul\":11601:11605   */\n              0x00\n                /* \"#utility.yul\":11639:11641   */\n              0x20\n                /* \"#utility.yul\":11628:11637   */\n              dup3\n                /* \"#utility.yul\":11624:11642   */\n              add\n                /* \"#utility.yul\":11616:11642   */\n              swap1\n              pop\n                /* \"#utility.yul\":11688:11697   */\n              dup2\n                /* \"#utility.yul\":11682:11686   */\n              dup2\n                /* \"#utility.yul\":11678:11698   */\n              sub\n                /* \"#utility.yul\":11674:11675   */\n              0x00\n                /* \"#utility.yul\":11663:11672   */\n              dup4\n                /* \"#utility.yul\":11659:11676   */\n              add\n                /* \"#utility.yul\":11652:11699   */\n              mstore\n                /* \"#utility.yul\":11716:11794   */\n              tag_337\n                /* \"#utility.yul\":11789:11793   */\n              dup2\n                /* \"#utility.yul\":11780:11786   */\n              dup5\n                /* \"#utility.yul\":11716:11794   */\n              tag_191\n              jump\t// in\n            tag_337:\n                /* \"#utility.yul\":11708:11794   */\n              swap1\n              pop\n                /* \"#utility.yul\":11488:11801   */\n              swap3\n              swap2\n              pop\n              pop\n              jump\t// out\n                /* \"#utility.yul\":11807:11987   */\n            tag_98:\n                /* \"#utility.yul\":11855:11932   */\n              0x4e487b7100000000000000000000000000000000000000000000000000000000\n                /* \"#utility.yul\":11852:11853   */\n              0x00\n                /* \"#utility.yul\":11845:11933   */\n              mstore\n                /* \"#utility.yul\":11952:11956   */\n              0x32\n                /* \"#utility.yul\":11949:11950   */\n              0x04\n                /* \"#utility.yul\":11942:11957   */\n              mstore\n                /* \"#utility.yul\":11976:11980   */\n              0x24\n                /* \"#utility.yul\":11973:11974   */\n              0x00\n                /* \"#utility.yul\":11966:11981   */\n              revert\n                /* \"#utility.yul\":11993:12173   */\n            tag_192:\n                /* \"#utility.yul\":12041:12118   */\n              0x4e487b7100000000000000000000000000000000000000000000000000000000\n                /* \"#utility.yul\":12038:12039   */\n              0x00\n                /* \"#utility.yul\":12031:12119   */\n              mstore\n                /* \"#utility.yul\":12138:12142   */\n              0x22\n                /* \"#utility.yul\":12135:12136   */\n              0x04\n                /* \"#utility.yul\":12128:12143   */\n              mstore\n                /* \"#utility.yul\":12162:12166   */\n              0x24\n                /* \"#utility.yul\":12159:12160   */\n              0x00\n                /* \"#utility.yul\":12152:12167   */\n              revert\n                /* \"#utility.yul\":12179:12499   */\n            tag_101:\n                /* \"#utility.yul\":12223:12229   */\n              0x00\n                /* \"#utility.yul\":12260:12261   */\n              0x02\n                /* \"#utility.yul\":12254:12258   */\n              dup3\n                /* \"#utility.yul\":12250:12262   */\n              div\n                /* \"#utility.yul\":12240:12262   */\n              swap1\n              pop\n                /* \"#utility.yul\":12307:12308   */\n              0x01\n                /* \"#utility.yul\":12301:12305   */\n              dup3\n                /* \"#utility.yul\":12297:12309   */\n              and\n                /* \"#utility.yul\":12328:12346   */\n              dup1\n                /* \"#utility.yul\":12318:12399   */\n              tag_341\n              jumpi\n                /* \"#utility.yul\":12384:12388   */\n              0x7f\n                /* \"#utility.yul\":12376:12382   */\n              dup3\n                /* \"#utility.yul\":12372:12389   */\n              and\n                /* \"#utility.yul\":12362:12389   */\n              swap2\n              pop\n                /* \"#utility.yul\":12318:12399   */\n            tag_341:\n                /* \"#utility.yul\":12446:12448   */\n              0x20\n                /* \"#utility.yul\":12438:12444   */\n              dup3\n                /* \"#utility.yul\":12435:12449   */\n              lt\n                /* \"#utility.yul\":12415:12433   */\n              dup2\n                /* \"#utility.yul\":12412:12450   */\n              sub\n                /* \"#utility.yul\":12409:12493   */\n              tag_342\n              jumpi\n                /* \"#utility.yul\":12465:12483   */\n              tag_343\n              tag_192\n              jump\t// in\n            tag_343:\n                /* \"#utility.yul\":12409:12493   */\n            tag_342:\n                /* \"#utility.yul\":12230:12499   */\n              pop\n                /* \"#utility.yul\":12179:12499   */\n              swap2\n              swap1\n              pop\n              jump\t// out\n                /* \"#utility.yul\":12505:12645   */\n            tag_193:\n                /* \"#utility.yul\":12553:12557   */\n              0x00\n                /* \"#utility.yul\":12576:12579   */\n              dup2\n                /* \"#utility.yul\":12568:12579   */\n              swap1\n              pop\n                /* \"#utility.yul\":12599:12602   */\n              dup2\n                /* \"#utility.yul\":12596:12597   */\n              0x00\n                /* \"#utility.yul\":12589:12603   */\n              mstore\n                /* \"#utility.yul\":12633:12637   */\n              0x20\n                /* \"#utility.yul\":12630:12631   */\n              0x00\n                /* \"#utility.yul\":12620:12638   */\n              keccak256\n                /* \"#utility.yul\":12612:12638   */\n              swap1\n              pop\n                /* \"#utility.yul\":12505:12645   */\n              swap2\n              swap1\n              pop\n              jump\t// out\n                /* \"#utility.yul\":12651:12744   */\n            tag_194:\n                /* \"#utility.yul\":12688:12694   */\n              0x00\n                /* \"#utility.yul\":12735:12737   */\n              0x20\n                /* \"#utility.yul\":12730:12732   */\n              0x1f\n                /* \"#utility.yul\":12723:12728   */\n              dup4\n                /* \"#utility.yul\":12719:12733   */\n              add\n                /* \"#utility.yul\":12715:12738   */\n              div\n                /* \"#utility.yul\":12705:12738   */\n              swap1\n              pop\n                /* \"#utility.yul\":12651:12744   */\n              swap2\n              swap1\n              pop\n              jump\t// out\n                /* \"#utility.yul\":12750:12857   */\n            tag_195:\n                /* \"#utility.yul\":12794:12802   */\n              0x00\n                /* \"#utility.yul\":12844:12849   */\n              dup3\n                /* \"#utility.yul\":12838:12842   */\n              dup3\n                /* \"#utility.yul\":12834:12850   */\n              shl\n                /* \"#utility.yul\":12813:12850   */\n              swap1\n              pop\n                /* \"#utility.yul\":12750:12857   */\n              swap3\n              swap2\n              pop\n              pop\n              jump\t// out\n                /* \"#utility.yul\":12863:13256   */\n            tag_196:\n                /* \"#utility.yul\":12932:12938   */\n              0x00\n                /* \"#utility.yul\":12982:12983   */\n              0x08\n                /* \"#utility.yul\":12970:12980   */\n              dup4\n                /* \"#utility.yul\":12966:12984   */\n              mul\n                /* \"#utility.yul\":13005:13102   */\n              tag_348\n                /* \"#utility.yul\":13035:13101   */\n              0xffffffffffffffffffffffffffffffffffffffffffffffffffffffffffffffff\n                /* \"#utility.yul\":13024:13033   */\n              dup3\n                /* \"#utility.yul\":13005:13102   */\n              tag_195\n              jump\t// in\n            tag_348:\n                /* \"#utility.yul\":13123:13162   */\n              tag_349\n                /* \"#utility.yul\":13153:13161   */\n              dup7\n                /* \"#utility.yul\":13142:13151   */\n              dup4\n                /* \"#utility.yul\":13123:13162   */\n              tag_195\n              jump\t// in\n            tag_349:\n                /* \"#utility.yul\":13111:13162   */\n              swap6\n              pop\n                /* \"#utility.yul\":13195:13199   */\n              dup1\n                /* \"#utility.yul\":13191:13200   */\n              not\n                /* \"#utility.yul\":13184:13189   */\n              dup5\n                /* \"#utility.yul\":13180:13201   */\n              and\n                /* \"#utility.yul\":13171:13201   */\n              swap4\n              pop\n                /* \"#utility.yul\":13244:13248   */\n              dup1\n                /* \"#utility.yul\":13234:13242   */\n              dup7\n                /* \"#utility.yul\":13230:13249   */\n              and\n                /* \"#utility.yul\":13223:13228   */\n              dup5\n                /* \"#utility.yul\":13220:13250   */\n              or\n                /* \"#utility.yul\":13210:13250   */\n              swap3\n              pop\n                /* \"#utility.yul\":12939:13256   */\n              pop\n              pop\n                /* \"#utility.yul\":12863:13256   */\n              swap4\n              swap3\n              pop\n              pop\n              pop\n              jump\t// out\n                /* \"#utility.yul\":13262:13322   */\n            tag_197:\n                /* \"#utility.yul\":13290:13293   */\n              0x00\n                /* \"#utility.yul\":13311:13316   */\n              dup2\n                /* \"#utility.yul\":13304:13316   */\n              swap1\n              pop\n                /* \"#utility.yul\":13262:13322   */\n              swap2\n              swap1\n              pop\n              jump\t// out\n                /* \"#utility.yul\":13328:13470   */\n            tag_198:\n                /* \"#utility.yul\":13378:13387   */\n              0x00\n                /* \"#utility.yul\":13411:13464   */\n              tag_352\n                /* \"#utility.yul\":13429:13463   */\n              tag_353\n                /* \"#utility.yul\":13438:13462   */\n              tag_354\n                /* \"#utility.yul\":13456:13461   */\n              dup5\n                /* \"#utility.yul\":13438:13462   */\n              tag_156\n              jump\t// in\n            tag_354:\n                /* \"#utility.yul\":13429:13463   */\n              tag_197\n              jump\t// in\n            tag_353:\n                /* \"#utility.yul\":13411:13464   */\n              tag_156\n              jump\t// in\n            tag_352:\n                /* \"#utility.yul\":13398:13464   */\n              swap1\n              pop\n                /* \"#utility.yul\":13328:13470   */\n              swap2\n              swap1\n              pop\n              jump\t// out\n                /* \"#utility.yul\":13476:13551   */\n            tag_199:\n                /* \"#utility.yul\":13519:13522   */\n              0x00\n                /* \"#utility.yul\":13540:13545   */\n              dup2\n                /* \"#utility.yul\":13533:13545   */\n              swap1\n              pop\n                /* \"#utility.yul\":13476:13551   */\n              swap2\n              swap1\n              pop\n              jump\t// out\n                /* \"#utility.yul\":13557:13826   */\n            tag_200:\n                /* \"#utility.yul\":13667:13706   */\n              tag_357\n                /* \"#utility.yul\":13698:13705   */\n              dup4\n                /* \"#utility.yul\":13667:13706   */\n              tag_198\n              jump\t// in\n            tag_357:\n                /* \"#utility.yul\":13728:13819   */\n              tag_358\n                /* \"#utility.yul\":13777:13818   */\n              tag_359\n                /* \"#utility.yul\":13801:13817   */\n              dup3\n                /* \"#utility.yul\":13777:13818   */\n              tag_199\n              jump\t// in\n            tag_359:\n                /* \"#utility.yul\":13769:13775   */\n              dup5\n                /* \"#utility.yul\":13762:13766   */\n              dup5\n                /* \"#utility.yul\":13756:13767   */\n              sload\n                /* \"#utility.yul\":13728:13819   */\n              tag_196\n              jump\t// in\n            tag_358:\n                /* \"#utility.yul\":13722:13726   */\n              dup3\n                /* \"#utility.yul\":13715:13820   */\n              sstore\n                /* \"#utility.yul\":13633:13826   */\n              pop\n                /* \"#utility.yul\":13557:13826   */\n              pop\n              pop\n              pop\n              jump\t// out\n                /* \"#utility.yul\":13832:13905   */\n            tag_201:\n                /* \"#utility.yul\":13877:13880   */\n              0x00\n                /* \"#utility.yul\":13832:13905   */\n              swap1\n              jump\t// out\n                /* \"#utility.yul\":13911:14100   */\n            tag_202:\n                /* \"#utility.yul\":13988:14020   */\n              tag_362\n              tag_201\n              jump\t// in\n            tag_362:\n                /* \"#utility.yul\":14029:14094   */\n              tag_363\n                /* \"#utility.yul\":14087:14093   */\n              dup2\n                /* \"#utility.yul\":14079:14085   */\n              dup5\n                /* \"#utility.yul\":14073:14077   */\n              dup5\n                /* \"#utility.yul\":14029:14094   */\n              tag_200\n              jump\t// in\n            tag_363:\n                /* \"#utility.yul\":13964:14100   */\n              pop\n                /* \"#utility.yul\":13911:14100   */\n              pop\n              pop\n              jump\t// out\n                /* \"#utility.yul\":14106:14292   */\n            tag_203:\n                /* \"#utility.yul\":14166:14286   */\n            tag_365:\n                /* \"#utility.yul\":14183:14186   */\n              dup2\n                /* \"#utility.yul\":14176:14181   */\n              dup2\n                /* \"#utility.yul\":14173:14187   */\n              lt\n                /* \"#utility.yul\":14166:14286   */\n              iszero\n              tag_367\n              jumpi\n                /* \"#utility.yul\":14237:14276   */\n              tag_368\n                /* \"#utility.yul\":14274:14275   */\n              0x00\n                /* \"#utility.yul\":14267:14272   */\n              dup3\n                /* \"#utility.yul\":14237:14276   */\n              tag_202\n              jump\t// in\n            tag_368:\n                /* \"#utility.yul\":14210:14211   */\n              0x01\n                /* \"#utility.yul\":14203:14208   */\n              dup2\n                /* \"#utility.yul\":14199:14212   */\n              add\n                /* \"#utility.yul\":14190:14212   */\n              swap1\n              pop\n                /* \"#utility.yul\":14166:14286   */\n              jump(tag_365)\n            tag_367:\n                /* \"#utility.yul\":14106:14292   */\n              pop\n              pop\n              jump\t// out\n                /* \"#utility.yul\":14298:14839   */\n            tag_204:\n                /* \"#utility.yul\":14398:14400   */\n              0x1f\n                /* \"#utility.yul\":14393:14396   */\n              dup3\n                /* \"#utility.yul\":14390:14401   */\n              gt\n                /* \"#utility.yul\":14387:14832   */\n              iszero\n              tag_370\n              jumpi\n                /* \"#utility.yul\":14432:14469   */\n              tag_371\n                /* \"#utility.yul\":14463:14468   */\n              dup2\n                /* \"#utility.yul\":14432:14469   */\n              tag_193\n              jump\t// in\n            tag_371:\n                /* \"#utility.yul\":14515:14544   */\n              tag_372\n                /* \"#utility.yul\":14533:14543   */\n              dup5\n                /* \"#utility.yul\":14515:14544   */\n              tag_194\n              jump\t// in\n            tag_372:\n                /* \"#utility.yul\":14505:14513   */\n              dup2\n                /* \"#utility.yul\":14501:14545   */\n              add\n                /* \"#utility.yul\":14698:14700   */\n              0x20\n                /* \"#utility.yul\":14686:14696   */\n              dup6\n                /* \"#utility.yul\":14683:14701   */\n              lt\n                /* \"#utility.yul\":14680:14729   */\n              iszero\n              tag_373\n              jumpi\n                /* \"#utility.yul\":14719:14727   */\n              dup2\n                /* \"#utility.yul\":14704:14727   */\n              swap1\n              pop\n                /* \"#utility.yul\":14680:14729   */\n            tag_373:\n                /* \"#utility.yul\":14742:14822   */\n              tag_374\n                /* \"#utility.yul\":14798:14820   */\n              tag_375\n                /* \"#utility.yul\":14816:14819   */\n              dup6\n                /* \"#utility.yul\":14798:14820   */\n              tag_194\n              jump\t// in\n            tag_375:\n                /* \"#utility.yul\":14788:14796   */\n              dup4\n                /* \"#utility.yul\":14784:14821   */\n              add\n                /* \"#utility.yul\":14771:14782   */\n              dup3\n                /* \"#utility.yul\":14742:14822   */\n              tag_203\n              jump\t// in\n            tag_374:\n                /* \"#utility.yul\":14402:14832   */\n              pop\n              pop\n                /* \"#utility.yul\":14387:14832   */\n            tag_370:\n                /* \"#utility.yul\":14298:14839   */\n              pop\n              pop\n              pop\n              jump\t// out\n                /* \"#utility.yul\":14845:14962   */\n            tag_205:\n                /* \"#utility.yul\":14899:14907   */\n              0x00\n                /* \"#utility.yul\":14949:14954   */\n              dup3\n                /* \"#utility.yul\":14943:14947   */\n              dup3\n                /* \"#utility.yul\":14939:14955   */\n              shr\n                /* \"#utility.yul\":14918:14955   */\n              swap1\n              pop\n                /* \"#utility.yul\":14845:14962   */\n              swap3\n              swap2\n              pop\n              pop\n              jump\t// out\n                /* \"#utility.yul\":14968:15137   */\n            tag_206:\n                /* \"#utility.yul\":15012:15018   */\n              0x00\n                /* \"#utility.yul\":15045:15096   */\n              tag_378\n                /* \"#utility.yul\":15093:15094   */\n              0x00\n                /* \"#utility.yul\":15089:15095   */\n              not\n                /* \"#utility.yul\":15081:15086   */\n              dup5\n                /* \"#utility.yul\":15078:15079   */\n              0x08\n                /* \"#utility.yul\":15074:15087   */\n              mul\n                /* \"#utility.yul\":15045:15096   */\n              tag_205\n              jump\t// in\n            tag_378:\n                /* \"#utility.yul\":15041:15097   */\n              not\n                /* \"#utility.yul\":15126:15130   */\n              dup1\n                /* \"#utility.yul\":15120:15124   */\n              dup4\n                /* \"#utility.yul\":15116:15131   */\n              and\n                /* \"#utility.yul\":15106:15131   */\n              swap2\n              pop\n                /* \"#utility.yul\":15019:15137   */\n              pop\n                /* \"#utility.yul\":14968:15137   */\n              swap3\n              swap2\n              pop\n              pop\n              jump\t// out\n                /* \"#utility.yul\":15142:15437   */\n            tag_207:\n                /* \"#utility.yul\":15218:15222   */\n              0x00\n                /* \"#utility.yul\":15364:15393   */\n              tag_380\n                /* \"#utility.yul\":15389:15392   */\n              dup4\n                /* \"#utility.yul\":15383:15387   */\n              dup4\n                /* \"#utility.yul\":15364:15393   */\n              tag_206\n              jump\t// in\n            tag_380:\n                /* \"#utility.yul\":15356:15393   */\n              swap2\n              pop\n                /* \"#utility.yul\":15426:15429   */\n              dup3\n                /* \"#utility.yul\":15423:15424   */\n              0x02\n                /* \"#utility.yul\":15419:15430   */\n              mul\n                /* \"#utility.yul\":15413:15417   */\n              dup3\n                /* \"#utility.yul\":15410:15431   */\n              or\n                /* \"#utility.yul\":15402:15431   */\n              swap1\n              pop\n                /* \"#utility.yul\":15142:15437   */\n              swap3\n              swap2\n              pop\n              pop\n              jump\t// out\n                /* \"#utility.yul\":15442:16832   */\n            tag_109:\n                /* \"#utility.yul\":15557:15593   */\n              tag_382\n                /* \"#utility.yul\":15589:15592   */\n              dup3\n                /* \"#utility.yul\":15557:15593   */\n              tag_168\n              jump\t// in\n            tag_382:\n                /* \"#utility.yul\":15658:15676   */\n              0xffffffffffffffff\n                /* \"#utility.yul\":15650:15656   */\n              dup2\n                /* \"#utility.yul\":15647:15677   */\n              gt\n                /* \"#utility.yul\":15644:15700   */\n              iszero\n              tag_383\n              jumpi\n                /* \"#utility.yul\":15680:15698   */\n              tag_384\n              tag_175\n              jump\t// in\n            tag_384:\n                /* \"#utility.yul\":15644:15700   */\n            tag_383:\n                /* \"#utility.yul\":15724:15762   */\n              tag_385\n                /* \"#utility.yul\":15756:15760   */\n              dup3\n                /* \"#utility.yul\":15750:15761   */\n              sload\n                /* \"#utility.yul\":15724:15762   */\n              tag_101\n              jump\t// in\n            tag_385:\n                /* \"#utility.yul\":15809:15875   */\n              tag_386\n                /* \"#utility.yul\":15868:15874   */\n              dup3\n                /* \"#utility.yul\":15860:15866   */\n              dup3\n                /* \"#utility.yul\":15854:15858   */\n              dup6\n                /* \"#utility.yul\":15809:15875   */\n              tag_204\n              jump\t// in\n            tag_386:\n                /* \"#utility.yul\":15902:15903   */\n              0x00\n                /* \"#utility.yul\":15926:15930   */\n              0x20\n                /* \"#utility.yul\":15913:15930   */\n              swap1\n              pop\n                /* \"#utility.yul\":15958:15960   */\n              0x1f\n                /* \"#utility.yul\":15950:15956   */\n              dup4\n                /* \"#utility.yul\":15947:15961   */\n              gt\n                /* \"#utility.yul\":15975:15976   */\n              0x01\n                /* \"#utility.yul\":15970:16587   */\n              dup2\n              eq\n              tag_388\n              jumpi\n                /* \"#utility.yul\":16631:16632   */\n              0x00\n                /* \"#utility.yul\":16648:16654   */\n              dup5\n                /* \"#utility.yul\":16645:16722   */\n              iszero\n              tag_389\n              jumpi\n                /* \"#utility.yul\":16697:16706   */\n              dup3\n                /* \"#utility.yul\":16692:16695   */\n              dup8\n                /* \"#utility.yul\":16688:16707   */\n              add\n                /* \"#utility.yul\":16682:16708   */\n              mload\n                /* \"#utility.yul\":16673:16708   */\n              swap1\n              pop\n                /* \"#utility.yul\":16645:16722   */\n            tag_389:\n                /* \"#utility.yul\":16748:16815   */\n              tag_390\n                /* \"#utility.yul\":16808:16814   */\n              dup6\n                /* \"#utility.yul\":16801:16806   */\n              dup3\n                /* \"#utility.yul\":16748:16815   */\n              tag_207\n              jump\t// in\n            tag_390:\n                /* \"#utility.yul\":16742:16746   */\n              dup7\n                /* \"#utility.yul\":16735:16816   */\n              sstore\n                /* \"#utility.yul\":16604:16826   */\n              pop\n                /* \"#utility.yul\":15940:16826   */\n              jump(tag_387)\n                /* \"#utility.yul\":15970:16587   */\n            tag_388:\n                /* \"#utility.yul\":16022:16026   */\n              0x1f\n                /* \"#utility.yul\":16018:16027   */\n              not\n                /* \"#utility.yul\":16010:16016   */\n              dup5\n                /* \"#utility.yul\":16006:16028   */\n              and\n                /* \"#utility.yul\":16056:16092   */\n              tag_391\n                /* \"#utility.yul\":16087:16091   */\n              dup7\n                /* \"#utility.yul\":16056:16092   */\n              tag_193\n              jump\t// in\n            tag_391:\n                /* \"#utility.yul\":16114:16115   */\n              0x00\n                /* \"#utility.yul\":16128:16336   */\n            tag_392:\n                /* \"#utility.yul\":16142:16149   */\n              dup3\n                /* \"#utility.yul\":16139:16140   */\n              dup2\n                /* \"#utility.yul\":16136:16150   */\n              lt\n                /* \"#utility.yul\":16128:16336   */\n              iszero\n              tag_394\n              jumpi\n                /* \"#utility.yul\":16221:16230   */\n              dup5\n                /* \"#utility.yul\":16216:16219   */\n              dup10\n                /* \"#utility.yul\":16212:16231   */\n              add\n                /* \"#utility.yul\":16206:16232   */\n              mload\n                /* \"#utility.yul\":16198:16204   */\n              dup3\n                /* \"#utility.yul\":16191:16233   */\n              sstore\n                /* \"#utility.yul\":16272:16273   */\n              0x01\n                /* \"#utility.yul\":16264:16270   */\n              dup3\n                /* \"#utility.yul\":16260:16274   */\n              add\n                /* \"#utility.yul\":16250:16274   */\n              swap2\n              pop\n                /* \"#utility.yul\":16319:16321   */\n              0x20\n                /* \"#utility.yul\":16308:16317   */\n              dup6\n                /* \"#utility.yul\":16304:16322   */\n              add\n                /* \"#utility.yul\":16291:16322   */\n              swap5\n              pop\n                /* \"#utility.yul\":16165:16169   */\n              0x20\n                /* \"#utility.yul\":16162:16163   */\n              dup2\n                /* \"#utility.yul\":16158:16170   */\n              add\n                /* \"#utility.yul\":16153:16170   */\n              swap1\n              pop\n                /* \"#utility.yul\":16128:16336   */\n              jump(tag_392)\n            tag_394:\n                /* \"#utility.yul\":16364:16370   */\n              dup7\n                /* \"#utility.yul\":16355:16362   */\n              dup4\n                /* \"#utility.yul\":16352:16371   */\n              lt\n                /* \"#utility.yul\":16349:16528   */\n              iszero\n              tag_395\n              jumpi\n                /* \"#utility.yul\":16422:16431   */\n              dup5\n                /* \"#utility.yul\":16417:16420   */\n              dup10\n                /* \"#utility.yul\":16413:16432   */\n              add\n                /* \"#utility.yul\":16407:16433   */\n              mload\n                /* \"#utility.yul\":16465:16513   */\n              tag_396\n                /* \"#utility.yul\":16507:16511   */\n              0x1f\n                /* \"#utility.yul\":16499:16505   */\n              dup10\n                /* \"#utility.yul\":16495:16512   */\n              and\n                /* \"#utility.yul\":16484:16493   */\n              dup3\n                /* \"#utility.yul\":16465:16513   */\n              tag_206\n              jump\t// in\n            tag_396:\n                /* \"#utility.yul\":16457:16463   */\n              dup4\n                /* \"#utility.yul\":16450:16514   */\n              sstore\n                /* \"#utility.yul\":16372:16528   */\n              pop\n                /* \"#utility.yul\":16349:16528   */\n            tag_395:\n                /* \"#utility.yul\":16574:16575   */\n              0x01\n                /* \"#utility.yul\":16570:16571   */\n              0x02\n                /* \"#utility.yul\":16562:16568   */\n              dup9\n                /* \"#utility.yul\":16558:16572   */\n              mul\n                /* \"#utility.yul\":16554:16576   */\n              add\n                /* \"#utility.yul\":16548:16552   */\n              dup9\n                /* \"#utility.yul\":16541:16577   */\n              sstore\n                /* \"#utility.yul\":15977:16587   */\n              pop\n              pop\n              pop\n                /* \"#utility.yul\":15940:16826   */\n            tag_387:\n              pop\n                /* \"#utility.yul\":15532:16832   */\n              pop\n              pop\n              pop\n                /* \"#utility.yul\":15442:16832   */\n              pop\n              pop\n              jump\t// out\n                /* \"#utility.yul\":16838:17257   */\n            tag_111:\n                /* \"#utility.yul\":16977:16981   */\n              0x00\n                /* \"#utility.yul\":17015:17017   */\n              0x40\n                /* \"#utility.yul\":17004:17013   */\n              dup3\n                /* \"#utility.yul\":17000:17018   */\n              add\n                /* \"#utility.yul\":16992:17018   */\n              swap1\n              pop\n                /* \"#utility.yul\":17028:17099   */\n              tag_398\n                /* \"#utility.yul\":17096:17097   */\n              0x00\n                /* \"#utility.yul\":17085:17094   */\n              dup4\n                /* \"#utility.yul\":17081:17098   */\n              add\n                /* \"#utility.yul\":17072:17078   */\n              dup6\n                /* \"#utility.yul\":17028:17099   */\n              tag_157\n              jump\t// in\n            tag_398:\n                /* \"#utility.yul\":17146:17155   */\n              dup2\n                /* \"#utility.yul\":17140:17144   */\n              dup2\n                /* \"#utility.yul\":17136:17156   */\n              sub\n                /* \"#utility.yul\":17131:17133   */\n              0x20\n                /* \"#utility.yul\":17120:17129   */\n              dup4\n                /* \"#utility.yul\":17116:17134   */\n              add\n                /* \"#utility.yul\":17109:17157   */\n              mstore\n                /* \"#utility.yul\":17174:17250   */\n              tag_399\n                /* \"#utility.yul\":17245:17249   */\n              dup2\n                /* \"#utility.yul\":17236:17242   */\n              dup5\n                /* \"#utility.yul\":17174:17250   */\n              tag_172\n              jump\t// in\n            tag_399:\n                /* \"#utility.yul\":17166:17250   */\n              swap1\n              pop\n                /* \"#utility.yul\":16838:17257   */\n              swap4\n              swap3\n              pop\n              pop\n              pop\n              jump\t// out\n                /* \"#utility.yul\":17263:17443   */\n            tag_208:\n                /* \"#utility.yul\":17311:17388   */\n              0x4e487b7100000000000000000000000000000000000000000000000000000000\n                /* \"#utility.yul\":17308:17309   */\n              0x00\n                /* \"#utility.yul\":17301:17389   */\n              mstore\n                /* \"#utility.yul\":17408:17412   */\n              0x11\n                /* \"#utility.yul\":17405:17406   */\n              0x04\n                /* \"#utility.yul\":17398:17413   */\n              mstore\n                /* \"#utility.yul\":17432:17436   */\n              0x24\n                /* \"#utility.yul\":17429:17430   */\n              0x00\n                /* \"#utility.yul\":17422:17437   */\n              revert\n                /* \"#utility.yul\":17449:17640   */\n            tag_120:\n                /* \"#utility.yul\":17489:17492   */\n              0x00\n                /* \"#utility.yul\":17508:17528   */\n              tag_402\n                /* \"#utility.yul\":17526:17527   */\n              dup3\n                /* \"#utility.yul\":17508:17528   */\n              tag_156\n              jump\t// in\n            tag_402:\n                /* \"#utility.yul\":17503:17528   */\n              swap2\n              pop\n                /* \"#utility.yul\":17542:17562   */\n              tag_403\n                /* \"#utility.yul\":17560:17561   */\n              dup4\n                /* \"#utility.yul\":17542:17562   */\n              tag_156\n              jump\t// in\n            tag_403:\n                /* \"#utility.yul\":17537:17562   */\n              swap3\n              pop\n                /* \"#utility.yul\":17585:17586   */\n              dup3\n                /* \"#utility.yul\":17582:17583   */\n              dup3\n                /* \"#utility.yul\":17578:17587   */\n              add\n                /* \"#utility.yul\":17571:17587   */\n              swap1\n              pop\n                /* \"#utility.yul\":17606:17609   */\n              dup1\n                /* \"#utility.yul\":17603:17604   */\n              dup3\n                /* \"#utility.yul\":17600:17610   */\n              gt\n                /* \"#utility.yul\":17597:17633   */\n              iszero\n              tag_404\n              jumpi\n                /* \"#utility.yul\":17613:17631   */\n              tag_405\n              tag_208\n              jump\t// in\n            tag_405:\n                /* \"#utility.yul\":17597:17633   */\n            tag_404:\n                /* \"#utility.yul\":17449:17640   */\n              swap3\n              swap2\n              pop\n              pop\n              jump\t// out\n                /* \"#utility.yul\":17646:17879   */\n            tag_122:\n                /* \"#utility.yul\":17685:17688   */\n              0x00\n                /* \"#utility.yul\":17708:17732   */\n              tag_407\n                /* \"#utility.yul\":17726:17731   */\n              dup3\n                /* \"#utility.yul\":17708:17732   */\n              tag_156\n              jump\t// in\n            tag_407:\n                /* \"#utility.yul\":17699:17732   */\n              swap2\n              pop\n                /* \"#utility.yul\":17754:17820   */\n              0xffffffffffffffffffffffffffffffffffffffffffffffffffffffffffffffff\n                /* \"#utility.yul\":17747:17752   */\n              dup3\n                /* \"#utility.yul\":17744:17821   */\n              sub\n                /* \"#utility.yul\":17741:17844   */\n              tag_408\n              jumpi\n                /* \"#utility.yul\":17824:17842   */\n              tag_409\n              tag_208\n              jump\t// in\n            tag_409:\n                /* \"#utility.yul\":17741:17844   */\n            tag_408:\n                /* \"#utility.yul\":17871:17872   */\n              0x01\n                /* \"#utility.yul\":17864:17869   */\n              dup3\n                /* \"#utility.yul\":17860:17873   */\n              add\n                /* \"#utility.yul\":17853:17873   */\n              swap1\n              pop\n                /* \"#utility.yul\":17646:17879   */\n              swap2\n              swap1\n              pop\n              jump\t// out\n                /* \"#utility.yul\":17885:18065   */\n            tag_209:\n                /* \"#utility.yul\":17933:18010   */\n              0x4e487b7100000000000000000000000000000000000000000000000000000000\n                /* \"#utility.yul\":17930:17931   */\n              0x00\n                /* \"#utility.yul\":17923:18011   */\n              mstore\n                /* \"#utility.yul\":18030:18034   */\n              0x12\n                /* \"#utility.yul\":18027:18028   */\n              0x04\n                /* \"#utility.yul\":18020:18035   */\n              mstore\n                /* \"#utility.yul\":18054:18058   */\n              0x24\n                /* \"#utility.yul\":18051:18052   */\n              0x00\n                /* \"#utility.yul\":18044:18059   */\n              revert\n                /* \"#utility.yul\":18071:18256   */\n            tag_124:\n                /* \"#utility.yul\":18111:18112   */\n              0x00\n                /* \"#utility.yul\":18128:18148   */\n              tag_412\n                /* \"#utility.yul\":18146:18147   */\n              dup3\n                /* \"#utility.yul\":18128:18148   */\n              tag_156\n              jump\t// in\n            tag_412:\n                /* \"#utility.yul\":18123:18148   */\n              swap2\n              pop\n                /* \"#utility.yul\":18162:18182   */\n              tag_413\n                /* \"#utility.yul\":18180:18181   */\n              dup4\n                /* \"#utility.yul\":18162:18182   */\n              tag_156\n              jump\t// in\n            tag_413:\n                /* \"#utility.yul\":18157:18182   */\n              swap3\n              pop\n                /* \"#utility.yul\":18201:18202   */\n              dup3\n                /* \"#utility.yul\":18191:18226   */\n              tag_414\n              jumpi\n                /* \"#utility.yul\":18206:18224   */\n              tag_415\n              tag_209\n              jump\t// in\n            tag_415:\n                /* \"#utility.yul\":18191:18226   */\n            tag_414:\n                /* \"#utility.yul\":18248:18249   */\n              dup3\n                /* \"#utility.yul\":18245:18246   */\n              dup3\n                /* \"#utility.yul\":18241:18250   */\n              div\n                /* \"#utility.yul\":18236:18250   */\n              swap1\n              pop\n                /* \"#utility.yul\":18071:18256   */\n              swap3\n              swap2\n              pop\n              pop\n              jump\t// out\n\n            auxdata: 0xa2646970667358221220615fa732b457fc31cab19f1c5fe9c65fbee652196ad36e8f8655ce7ed313e43b64736f6c63430008120033\n        }\n    }\n\n    auxdata: 0xa264697066735822122045fd56a123f3932d51888ca933f46ad4f937d52e07ac5d27cc475aaa230a94fb64736f6c63430008120033\n}\n","bytecode":{"linkReferences":{},"object":"608060405234801561001057600080fd5b5061262b806100206000396000f3fe60806040523480156200001157600080fd5b50600436106200005e5760003560e01c80630b873358146200006357806352578012146200009957806352be03cf14620000b95780638e8389bf14620000ef5780639bfba8a91462000125575b600080fd5b6200008160048036038101906200007b919062000501565b62000147565b604051620000909190620005cd565b60405180910390f35b620000b76004803603810190620000b191906200065f565b620001fc565b005b620000d76004803603810190620000d1919062000719565b62000336565b604051620000e69190620005cd565b60405180910390f35b6200010d600480360381019062000107919062000501565b620003de565b6040516200011c91906200075c565b60405180910390f35b6200012f6200041e565b6040516200013e919062000847565b60405180910390f35b600181815481106200015857600080fd5b90600052602060002001600091509050805462000175906200089a565b80601f0160208091040260200160405190810160405280929190818152602001828054620001a3906200089a565b8015620001f45780601f10620001c857610100808354040283529160200191620001f4565b820191906000526020600020905b815481529060010190602001808311620001d657829003601f168201915b505050505081565b60003383836040516200020f90620004ae565b6200021d9392919062000911565b604051809103906000f0801580156200023a573d6000803e3d6000fd5b50905060018383909180600181540180825580915050600190039060005260206000200160009091929091929091929091925091826200027c92919062000b53565b506000819080600181540180825580915050600190039060005260206000200160009091909190916101000a81548173ffffffffffffffffffffffffffffffffffffffff021916908373ffffffffffffffffffffffffffffffffffffffff1602179055508282600260008473ffffffffffffffffffffffffffffffffffffffff1673ffffffffffffffffffffffffffffffffffffffff16815260200190815260200160002091826200033092919062000b53565b50505050565b6002602052806000526040600020600091509050805462000357906200089a565b80601f016020809104026020016040519081016040528092919081815260200182805462000385906200089a565b8015620003d65780601f10620003aa57610100808354040283529160200191620003d6565b820191906000526020600020905b815481529060010190602001808311620003b857829003601f168201915b505050505081565b60008181548110620003ef57600080fd5b906000526020600020016000915054906101000a900473ffffffffffffffffffffffffffffffffffffffff1681565b60606000805480602002602001604051908101604052809291908181526020018280548015620004a457602002820191906000526020600020905b8160009054906101000a900473ffffffffffffffffffffffffffffffffffffffff1673ffffffffffffffffffffffffffffffffffffffff168152602001906001019080831162000459575b5050505050905090565b6119bd8062000c3983390190565b600080fd5b600080fd5b6000819050919050565b620004db81620004c6565b8114620004e757600080fd5b50565b600081359050620004fb81620004d0565b92915050565b6000602082840312156200051a5762000519620004bc565b5b60006200052a84828501620004ea565b91505092915050565b600081519050919050565b600082825260208201905092915050565b60005b838110156200056f57808201518184015260208101905062000552565b60008484015250505050565b6000601f19601f8301169050919050565b6000620005998262000533565b620005a581856200053e565b9350620005b78185602086016200054f565b620005c2816200057b565b840191505092915050565b60006020820190508181036000830152620005e981846200058c565b905092915050565b600080fd5b600080fd5b600080fd5b60008083601f840112620006195762000618620005f1565b5b8235905067ffffffffffffffff811115620006395762000638620005f6565b5b602083019150836001820283011115620006585762000657620005fb565b5b9250929050565b60008060208385031215620006795762000678620004bc565b5b600083013567ffffffffffffffff8111156200069a5762000699620004c1565b5b620006a88582860162000600565b92509250509250929050565b600073ffffffffffffffffffffffffffffffffffffffff82169050919050565b6000620006e182620006b4565b9050919050565b620006f381620006d4565b8114620006ff57600080fd5b50565b6000813590506200071381620006e8565b92915050565b600060208284031215620007325762000731620004bc565b5b6000620007428482850162000702565b91505092915050565b6200075681620006d4565b82525050565b60006020820190506200077360008301846200074b565b92915050565b600081519050919050565b600082825260208201905092915050565b6000819050602082019050919050565b620007b081620006d4565b82525050565b6000620007c48383620007a5565b60208301905092915050565b6000602082019050919050565b6000620007ea8262000779565b620007f6818562000784565b9350620008038362000795565b8060005b838110156200083a5781516200081e8882620007b6565b97506200082b83620007d0565b92505060018101905062000807565b5085935050505092915050565b60006020820190508181036000830152620008638184620007dd565b905092915050565b7f4e487b7100000000000000000000000000000000000000000000000000000000600052602260045260246000fd5b60006002820490506001821680620008b357607f821691505b602082108103620008c957620008c86200086b565b5b50919050565b82818337600083830152505050565b6000620008ec83856200053e565b9350620008fb838584620008cf565b62000906836200057b565b840190509392505050565b60006040820190506200092860008301866200074b565b81810360208301526200093d818486620008de565b9050949350505050565b600082905092915050565b7f4e487b7100000000000000000000000000000000000000000000000000000000600052604160045260246000fd5b60008190508160005260206000209050919050565b60006020601f8301049050919050565b600082821b905092915050565b600060088302620009e57fffffffffffffffffffffffffffffffffffffffffffffffffffffffffffffffff82620009a6565b620009f18683620009a6565b95508019841693508086168417925050509392505050565b6000819050919050565b600062000a3462000a2e62000a2884620004c6565b62000a09565b620004c6565b9050919050565b6000819050919050565b62000a508362000a13565b62000a6862000a5f8262000a3b565b848454620009b3565b825550505050565b600090565b62000a7f62000a70565b62000a8c81848462000a45565b505050565b5b8181101562000ab45762000aa860008262000a75565b60018101905062000a92565b5050565b601f82111562000b035762000acd8162000981565b62000ad88462000996565b8101602085101562000ae8578190505b62000b0062000af78562000996565b83018262000a91565b50505b505050565b600082821c905092915050565b600062000b286000198460080262000b08565b1980831691505092915050565b600062000b43838362000b15565b9150826002028217905092915050565b62000b5f838362000947565b67ffffffffffffffff81111562000b7b5762000b7a62000952565b5b62000b8782546200089a565b62000b9482828562000ab8565b6000601f83116001811462000bc8576000841562000bb3578287013590505b62000bbf858262000b35565b86555062000c2f565b601f19841662000bd88662000981565b60005b8281101562000c025784890135825560018201915060208501945060208101905062000bdb565b8683101562000c22578489013562000c1e601f89168262000b15565b8355505b6001600288020188555050505b5050505050505056fe60806040523480156200001157600080fd5b50604051620019bd380380620019bd833981810160405281019062000037919062000237565b50506200029d565b6000604051905090565b600080fd5b600080fd5b600073ffffffffffffffffffffffffffffffffffffffff82169050919050565b6000620000808262000053565b9050919050565b620000928162000073565b81146200009e57600080fd5b50565b600081519050620000b28162000087565b92915050565b600080fd5b600080fd5b6000601f19601f8301169050919050565b7f4e487b7100000000000000000000000000000000000000000000000000000000600052604160045260246000fd5b6200010d82620000c2565b810181811067ffffffffffffffff821117156200012f576200012e620000d3565b5b80604052505050565b6000620001446200003f565b905062000152828262000102565b919050565b600067ffffffffffffffff821115620001755762000174620000d3565b5b6200018082620000c2565b9050602081019050919050565b60005b83811015620001ad57808201518184015260208101905062000190565b60008484015250505050565b6000620001d0620001ca8462000157565b62000138565b905082815260208101848484011115620001ef57620001ee620000bd565b5b620001fc8482856200018d565b509392505050565b600082601f8301126200021c576200021b620000b8565b5b81516200022e848260208601620001b9565b91505092915050565b6000806040838503121562000251576200025062000049565b5b60006200026185828601620000a1565b925050602083015167ffffffffffffffff8111156200028557620002846200004e565b5b620002938582860162000204565b9150509250929050565b61171080620002ad6000396000f3fe6080604052600436106100c65760003560e01c806395cd63a01161007f5780639d5f65fc116100595780639d5f65fc14610300578063a329f8f61461033d578063c12be92914610366578063cc1e2cb0146103a35761011d565b806395cd63a01461025b57806396b98a65146102845780639ace38c2146102c15761011d565b806302d05d3f146101225780632a0e54bd1461014d5780632e7700f01461018b57806333ea3dc8146101b657806366d34a9b146101f557806380fc9c0e1461021e5761011d565b3661011d573373ffffffffffffffffffffffffffffffffffffffff167f90890809c654f11d6e72a28fa60149770a0d11ec6c92319d6ceb2bb0a4ea1a153447604051610113929190610ca7565b60405180910390a2005b600080fd5b34801561012e57600080fd5b506101376103ce565b6040516101449190610d11565b60405180910390f35b34801561015957600080fd5b50610174600480360381019061016f9190610d98565b6103f4565b604051610182929190610dd8565b60405180910390f35b34801561019757600080fd5b506101a0610455565b6040516101ad9190610e01565b60405180910390f35b3480156101c257600080fd5b506101dd60048036038101906101d89190610e1c565b610461565b6040516101ec93929190610ed9565b60405180910390f35b34801561020157600080fd5b5061021c6004803603810190610217919061104c565b610553565b005b34801561022a57600080fd5b50610245600480360381019061024091906110bb565b61068f565b6040516102529190610e01565b60405180910390f35b34801561026757600080fd5b50610282600480360381019061027d9190610e1c565b6107c3565b005b34801561029057600080fd5b506102ab60048036038101906102a69190610d98565b61082c565b6040516102b89190610e01565b60405180910390f35b3480156102cd57600080fd5b506102e860048036038101906102e39190610e1c565b61085d565b6040516102f793929190610ed9565b60405180910390f35b34801561030c57600080fd5b50610327600480360381019061032291906110bb565b61093f565b60405161033491906111a6565b60405180910390f35b34801561034957600080fd5b50610364600480360381019061035f91906111c8565b6109d6565b005b34801561037257600080fd5b5061038d600480360381019061038891906110bb565b610b26565b60405161039a9190610e01565b60405180910390f35b3480156103af57600080fd5b506103b8610c00565b6040516103c59190611270565b60405180910390f35b600460009054906101000a900473ffffffffffffffffffffffffffffffffffffffff1681565b6002602052816000526040600020818154811061041057600080fd5b9060005260206000209060020201600091509150508060000160009054906101000a900473ffffffffffffffffffffffffffffffffffffffff16908060010154905082565b60008080549050905090565b6000806060600080858154811061047b5761047a611292565b5b906000526020600020906003020190508060000160009054906101000a900473ffffffffffffffffffffffffffffffffffffffff168160010154826002018080546104c5906112f0565b80601f01602080910402602001604051908101604052809291908181526020018280546104f1906112f0565b801561053e5780601f106105135761010080835404028352916020019161053e565b820191906000526020600020905b81548152906001019060200180831161052157829003601f168201915b50505050509050935093509350509193909250565b600080805490509050600060405180606001604052808673ffffffffffffffffffffffffffffffffffffffff16815260200185815260200184815250908060018154018082558091505060019003906000526020600020906003020160009091909190915060008201518160000160006101000a81548173ffffffffffffffffffffffffffffffffffffffff021916908373ffffffffffffffffffffffffffffffffffffffff16021790555060208201518160010155604082015181600201908161061e91906114cd565b5050508373ffffffffffffffffffffffffffffffffffffffff16813373ffffffffffffffffffffffffffffffffffffffff167fff161496bb9879e11f4a70b7df1b7ba081936284851b65942ef4d782f9d39bea868660405161068192919061159f565b60405180910390a450505050565b6000806000905060005b600260008573ffffffffffffffffffffffffffffffffffffffff1673ffffffffffffffffffffffffffffffffffffffff1681526020019081526020016000208054905081101561076657600260008573ffffffffffffffffffffffffffffffffffffffff1673ffffffffffffffffffffffffffffffffffffffff168152602001908152602001600020818154811061073457610733611292565b5b9060005260206000209060020201600101548261075191906115fe565b9150808061075e90611632565b915050610699565b506000600260008573ffffffffffffffffffffffffffffffffffffffff1673ffffffffffffffffffffffffffffffffffffffff16815260200190815260200160002080549050826107b791906116a9565b90508092505050919050565b600160003373ffffffffffffffffffffffffffffffffffffffff1673ffffffffffffffffffffffffffffffffffffffff16815260200190815260200160002081908060018154018082558091505060019003906000526020600020016000909190919091505550565b6001602052816000526040600020818154811061084857600080fd5b90600052602060002001600091509150505481565b6000818154811061086d57600080fd5b90600052602060002090600302016000915090508060000160009054906101000a900473ffffffffffffffffffffffffffffffffffffffff16908060010154908060020180546108bc906112f0565b80601f01602080910402602001604051908101604052809291908181526020018280546108e8906112f0565b80156109355780601f1061090a57610100808354040283529160200191610935565b820191906000526020600020905b81548152906001019060200180831161091857829003601f168201915b5050505050905083565b6060600160008373ffffffffffffffffffffffffffffffffffffffff1673ffffffffffffffffffffffffffffffffffffffff1681526020019081526020016000208054806020026020016040519081016040528092919081815260200182805480156109ca57602002820191906000526020600020905b8154815260200190600101908083116109b6575b50505050509050919050565b8173ffffffffffffffffffffffffffffffffffffffff168373ffffffffffffffffffffffffffffffffffffffff167f5435029ae8e53f5303b6dbda07be9beb09ae106923c28bf30dc3c46852588f0483604051610a339190610e01565b60405180910390a3600260008373ffffffffffffffffffffffffffffffffffffffff1673ffffffffffffffffffffffffffffffffffffffff16815260200190815260200160002060405180604001604052808573ffffffffffffffffffffffffffffffffffffffff16815260200183815250908060018154018082558091505060019003906000526020600020906002020160009091909190915060008201518160000160006101000a81548173ffffffffffffffffffffffffffffffffffffffff021916908373ffffffffffffffffffffffffffffffffffffffff160217905550602082015181600101555050505050565b6000806000905060005b600160008573ffffffffffffffffffffffffffffffffffffffff1673ffffffffffffffffffffffffffffffffffffffff16815260200190815260200160002080549050811015610bf657600160008573ffffffffffffffffffffffffffffffffffffffff1673ffffffffffffffffffffffffffffffffffffffff1681526020019081526020016000208181548110610bcb57610bca611292565b5b906000526020600020015482610be191906115fe565b91508080610bee90611632565b915050610b30565b5080915050919050565b60038054610c0d906112f0565b80601f0160208091040260200160405190810160405280929190818152602001828054610c39906112f0565b8015610c865780601f10610c5b57610100808354040283529160200191610c86565b820191906000526020600020905b815481529060010190602001808311610c6957829003601f168201915b505050505081565b6000819050919050565b610ca181610c8e565b82525050565b6000604082019050610cbc6000830185610c98565b610cc96020830184610c98565b9392505050565b600073ffffffffffffffffffffffffffffffffffffffff82169050919050565b6000610cfb82610cd0565b9050919050565b610d0b81610cf0565b82525050565b6000602082019050610d266000830184610d02565b92915050565b6000604051905090565b600080fd5b600080fd5b610d4981610cf0565b8114610d5457600080fd5b50565b600081359050610d6681610d40565b92915050565b610d7581610c8e565b8114610d8057600080fd5b50565b600081359050610d9281610d6c565b92915050565b60008060408385031215610daf57610dae610d36565b5b6000610dbd85828601610d57565b9250506020610dce85828601610d83565b9150509250929050565b6000604082019050610ded6000830185610d02565b610dfa6020830184610c98565b9392505050565b6000602082019050610e166000830184610c98565b92915050565b600060208284031215610e3257610e31610d36565b5b6000610e4084828501610d83565b91505092915050565b600081519050919050565b600082825260208201905092915050565b60005b83811015610e83578082015181840152602081019050610e68565b60008484015250505050565b6000601f19601f8301169050919050565b6000610eab82610e49565b610eb58185610e54565b9350610ec5818560208601610e65565b610ece81610e8f565b840191505092915050565b6000606082019050610eee6000830186610d02565b610efb6020830185610c98565b8181036040830152610f0d8184610ea0565b9050949350505050565b600080fd5b600080fd5b7f4e487b7100000000000000000000000000000000000000000000000000000000600052604160045260246000fd5b610f5982610e8f565b810181811067ffffffffffffffff82111715610f7857610f77610f21565b5b80604052505050565b6000610f8b610d2c565b9050610f978282610f50565b919050565b600067ffffffffffffffff821115610fb757610fb6610f21565b5b610fc082610e8f565b9050602081019050919050565b82818337600083830152505050565b6000610fef610fea84610f9c565b610f81565b90508281526020810184848401111561100b5761100a610f1c565b5b611016848285610fcd565b509392505050565b600082601f83011261103357611032610f17565b5b8135611043848260208601610fdc565b91505092915050565b60008060006060848603121561106557611064610d36565b5b600061107386828701610d57565b935050602061108486828701610d83565b925050604084013567ffffffffffffffff8111156110a5576110a4610d3b565b5b6110b18682870161101e565b9150509250925092565b6000602082840312156110d1576110d0610d36565b5b60006110df84828501610d57565b91505092915050565b600081519050919050565b600082825260208201905092915050565b6000819050602082019050919050565b61111d81610c8e565b82525050565b600061112f8383611114565b60208301905092915050565b6000602082019050919050565b6000611153826110e8565b61115d81856110f3565b935061116883611104565b8060005b838110156111995781516111808882611123565b975061118b8361113b565b92505060018101905061116c565b5085935050505092915050565b600060208201905081810360008301526111c08184611148565b905092915050565b6000806000606084860312156111e1576111e0610d36565b5b60006111ef86828701610d57565b935050602061120086828701610d57565b925050604061121186828701610d83565b9150509250925092565b600081519050919050565b600082825260208201905092915050565b60006112428261121b565b61124c8185611226565b935061125c818560208601610e65565b61126581610e8f565b840191505092915050565b6000602082019050818103600083015261128a8184611237565b905092915050565b7f4e487b7100000000000000000000000000000000000000000000000000000000600052603260045260246000fd5b7f4e487b7100000000000000000000000000000000000000000000000000000000600052602260045260246000fd5b6000600282049050600182168061130857607f821691505b60208210810361131b5761131a6112c1565b5b50919050565b60008190508160005260206000209050919050565b60006020601f8301049050919050565b600082821b905092915050565b6000600883026113837fffffffffffffffffffffffffffffffffffffffffffffffffffffffffffffffff82611346565b61138d8683611346565b95508019841693508086168417925050509392505050565b6000819050919050565b60006113ca6113c56113c084610c8e565b6113a5565b610c8e565b9050919050565b6000819050919050565b6113e4836113af565b6113f86113f0826113d1565b848454611353565b825550505050565b600090565b61140d611400565b6114188184846113db565b505050565b5b8181101561143c57611431600082611405565b60018101905061141e565b5050565b601f8211156114815761145281611321565b61145b84611336565b8101602085101561146a578190505b61147e61147685611336565b83018261141d565b50505b505050565b600082821c905092915050565b60006114a460001984600802611486565b1980831691505092915050565b60006114bd8383611493565b9150826002028217905092915050565b6114d682610e49565b67ffffffffffffffff8111156114ef576114ee610f21565b5b6114f982546112f0565b611504828285611440565b600060209050601f8311600181146115375760008415611525578287015190505b61152f85826114b1565b865550611597565b601f19841661154586611321565b60005b8281101561156d57848901518255600182019150602085019450602081019050611548565b8683101561158a5784890151611586601f891682611493565b8355505b6001600288020188555050505b505050505050565b60006040820190506115b46000830185610c98565b81810360208301526115c68184610ea0565b90509392505050565b7f4e487b7100000000000000000000000000000000000000000000000000000000600052601160045260246000fd5b600061160982610c8e565b915061161483610c8e565b925082820190508082111561162c5761162b6115cf565b5b92915050565b600061163d82610c8e565b91507fffffffffffffffffffffffffffffffffffffffffffffffffffffffffffffffff820361166f5761166e6115cf565b5b600182019050919050565b7f4e487b7100000000000000000000000000000000000000000000000000000000600052601260045260246000fd5b60006116b482610c8e565b91506116bf83610c8e565b9250826116cf576116ce61167a565b5b82820490509291505056fea2646970667358221220615fa732b457fc31cab19f1c5fe9c65fbee652196ad36e8f8655ce7ed313e43b64736f6c63430008120033a264697066735822122045fd56a123f3932d51888ca933f46ad4f937d52e07ac5d27cc475aaa230a94fb64736f6c63430008120033","opcodes":"PUSH1 0x80 PUSH1 0x40 MSTORE CALLVALUE DUP1 ISZERO PUSH2 0x10 JUMPI PUSH1 0x0 DUP1 REVERT JUMPDEST POP PUSH2 0x262B DUP1 PUSH2 0x20 PUSH1 0x0 CODECOPY PUSH1 0x0 RETURN INVALID PUSH1 0x80 PUSH1 0x40 MSTORE CALLVALUE DUP1 ISZERO PUSH3 0x11 JUMPI PUSH1 0x0 DUP1 REVERT JUMPDEST POP PUSH1 0x4 CALLDATASIZE LT PUSH3 0x5E JUMPI PUSH1 0x0 CALLDATALOAD PUSH1 0xE0 SHR DUP1 PUSH4 0xB873358 EQ PUSH3 0x63 JUMPI DUP1 PUSH4 0x52578012 EQ PUSH3 0x99 JUMPI DUP1 PUSH4 0x52BE03CF EQ PUSH3 0xB9 JUMPI DUP1 PUSH4 0x8E8389BF EQ PUSH3 0xEF JUMPI DUP1 PUSH4 0x9BFBA8A9 EQ PUSH3 0x125 JUMPI JUMPDEST PUSH1 0x0 DUP1 REVERT JUMPDEST PUSH3 0x81 PUSH1 0x4 DUP1 CALLDATASIZE SUB DUP2 ADD SWAP1 PUSH3 0x7B SWAP2 SWAP1 PUSH3 0x501 JUMP JUMPDEST PUSH3 0x147 JUMP JUMPDEST PUSH1 0x40 MLOAD PUSH3 0x90 SWAP2 SWAP1 PUSH3 0x5CD JUMP JUMPDEST PUSH1 0x40 MLOAD DUP1 SWAP2 SUB SWAP1 RETURN JUMPDEST PUSH3 0xB7 PUSH1 0x4 DUP1 CALLDATASIZE SUB DUP2 ADD SWAP1 PUSH3 0xB1 SWAP2 SWAP1 PUSH3 0x65F JUMP JUMPDEST PUSH3 0x1FC JUMP JUMPDEST STOP JUMPDEST PUSH3 0xD7 PUSH1 0x4 DUP1 CALLDATASIZE SUB DUP2 ADD SWAP1 PUSH3 0xD1 SWAP2 SWAP1 PUSH3 0x719 JUMP JUMPDEST PUSH3 0x336 JUMP JUMPDEST PUSH1 0x40 MLOAD PUSH3 0xE6 SWAP2 SWAP1 PUSH3 0x5CD JUMP JUMPDEST PUSH1 0x40 MLOAD DUP1 SWAP2 SUB SWAP1 RETURN JUMPDEST PUSH3 0x10D PUSH1 0x4 DUP1 CALLDATASIZE SUB DUP2 ADD SWAP1 PUSH3 0x107 SWAP2 SWAP1 PUSH3 0x501 JUMP JUMPDEST PUSH3 0x3DE JUMP JUMPDEST PUSH1 0x40 MLOAD PUSH3 0x11C SWAP2 SWAP1 PUSH3 0x75C JUMP JUMPDEST PUSH1 0x40 MLOAD DUP1 SWAP2 SUB SWAP1 RETURN JUMPDEST PUSH3 0x12F PUSH3 0x41E JUMP JUMPDEST PUSH1 0x40 MLOAD PUSH3 0x13E SWAP2 SWAP1 PUSH3 0x847 JUMP JUMPDEST PUSH1 0x40 MLOAD DUP1 SWAP2 SUB SWAP1 RETURN JUMPDEST PUSH1 0x1 DUP2 DUP2 SLOAD DUP2 LT PUSH3 0x158 JUMPI PUSH1 0x0 DUP1 REVERT JUMPDEST SWAP1 PUSH1 0x0 MSTORE PUSH1 0x20 PUSH1 0x0 KECCAK256 ADD PUSH1 0x0 SWAP2 POP SWAP1 POP DUP1 SLOAD PUSH3 0x175 SWAP1 PUSH3 0x89A JUMP JUMPDEST DUP1 PUSH1 0x1F ADD PUSH1 0x20 DUP1 SWAP2 DIV MUL PUSH1 0x20 ADD PUSH1 0x40 MLOAD SWAP1 DUP2 ADD PUSH1 0x40 MSTORE DUP1 SWAP3 SWAP2 SWAP1 DUP2 DUP2 MSTORE PUSH1 0x20 ADD DUP3 DUP1 SLOAD PUSH3 0x1A3 SWAP1 PUSH3 0x89A JUMP JUMPDEST DUP1 ISZERO PUSH3 0x1F4 JUMPI DUP1 PUSH1 0x1F LT PUSH3 0x1C8 JUMPI PUSH2 0x100 DUP1 DUP4 SLOAD DIV MUL DUP4 MSTORE SWAP2 PUSH1 0x20 ADD SWAP2 PUSH3 0x1F4 JUMP JUMPDEST DUP3 ADD SWAP2 SWAP1 PUSH1 0x0 MSTORE PUSH1 0x20 PUSH1 0x0 KECCAK256 SWAP1 JUMPDEST DUP2 SLOAD DUP2 MSTORE SWAP1 PUSH1 0x1 ADD SWAP1 PUSH1 0x20 ADD DUP1 DUP4 GT PUSH3 0x1D6 JUMPI DUP3 SWAP1 SUB PUSH1 0x1F AND DUP3 ADD SWAP2 JUMPDEST POP POP POP POP POP DUP2 JUMP JUMPDEST PUSH1 0x0 CALLER DUP4 DUP4 PUSH1 0x40 MLOAD PUSH3 0x20F SWAP1 PUSH3 0x4AE JUMP JUMPDEST PUSH3 0x21D SWAP4 SWAP3 SWAP2 SWAP1 PUSH3 0x911 JUMP JUMPDEST PUSH1 0x40 MLOAD DUP1 SWAP2 SUB SWAP1 PUSH1 0x0 CREATE DUP1 ISZERO DUP1 ISZERO PUSH3 0x23A JUMPI RETURNDATASIZE PUSH1 0x0 DUP1 RETURNDATACOPY RETURNDATASIZE PUSH1 0x0 REVERT JUMPDEST POP SWAP1 POP PUSH1 0x1 DUP4 DUP4 SWAP1 SWAP2 DUP1 PUSH1 0x1 DUP2 SLOAD ADD DUP1 DUP3 SSTORE DUP1 SWAP2 POP POP PUSH1 0x1 SWAP1 SUB SWAP1 PUSH1 0x0 MSTORE PUSH1 0x20 PUSH1 0x0 KECCAK256 ADD PUSH1 0x0 SWAP1 SWAP2 SWAP3 SWAP1 SWAP2 SWAP3 SWAP1 SWAP2 SWAP3 SWAP1 SWAP2 SWAP3 POP SWAP2 DUP3 PUSH3 0x27C SWAP3 SWAP2 SWAP1 PUSH3 0xB53 JUMP JUMPDEST POP PUSH1 0x0 DUP2 SWAP1 DUP1 PUSH1 0x1 DUP2 SLOAD ADD DUP1 DUP3 SSTORE DUP1 SWAP2 POP POP PUSH1 0x1 SWAP1 SUB SWAP1 PUSH1 0x0 MSTORE PUSH1 0x20 PUSH1 0x0 KECCAK256 ADD PUSH1 0x0 SWAP1 SWAP2 SWAP1 SWAP2 SWAP1 SWAP2 PUSH2 0x100 EXP DUP2 SLOAD DUP2 PUSH20 0xFFFFFFFFFFFFFFFFFFFFFFFFFFFFFFFFFFFFFFFF MUL NOT AND SWAP1 DUP4 PUSH20 0xFFFFFFFFFFFFFFFFFFFFFFFFFFFFFFFFFFFFFFFF AND MUL OR SWAP1 SSTORE POP DUP3 DUP3 PUSH1 0x2 PUSH1 0x0 DUP5 PUSH20 0xFFFFFFFFFFFFFFFFFFFFFFFFFFFFFFFFFFFFFFFF AND PUSH20 0xFFFFFFFFFFFFFFFFFFFFFFFFFFFFFFFFFFFFFFFF AND DUP2 MSTORE PUSH1 0x20 ADD SWAP1 DUP2 MSTORE PUSH1 0x20 ADD PUSH1 0x0 KECCAK256 SWAP2 DUP3 PUSH3 0x330 SWAP3 SWAP2 SWAP1 PUSH3 0xB53 JUMP JUMPDEST POP POP POP POP JUMP JUMPDEST PUSH1 0x2 PUSH1 0x20 MSTORE DUP1 PUSH1 0x0 MSTORE PUSH1 0x40 PUSH1 0x0 KECCAK256 PUSH1 0x0 SWAP2 POP SWAP1 POP DUP1 SLOAD PUSH3 0x357 SWAP1 PUSH3 0x89A JUMP JUMPDEST DUP1 PUSH1 0x1F ADD PUSH1 0x20 DUP1 SWAP2 DIV MUL PUSH1 0x20 ADD PUSH1 0x40 MLOAD SWAP1 DUP2 ADD PUSH1 0x40 MSTORE DUP1 SWAP3 SWAP2 SWAP1 DUP2 DUP2 MSTORE PUSH1 0x20 ADD DUP3 DUP1 SLOAD PUSH3 0x385 SWAP1 PUSH3 0x89A JUMP JUMPDEST DUP1 ISZERO PUSH3 0x3D6 JUMPI DUP1 PUSH1 0x1F LT PUSH3 0x3AA JUMPI PUSH2 0x100 DUP1 DUP4 SLOAD DIV MUL DUP4 MSTORE SWAP2 PUSH1 0x20 ADD SWAP2 PUSH3 0x3D6 JUMP JUMPDEST DUP3 ADD SWAP2 SWAP1 PUSH1 0x0 MSTORE PUSH1 0x20 PUSH1 0x0 KECCAK256 SWAP1 JUMPDEST DUP2 SLOAD DUP2 MSTORE SWAP1 PUSH1 0x1 ADD SWAP1 PUSH1 0x20 ADD DUP1 DUP4 GT PUSH3 0x3B8 JUMPI DUP3 SWAP1 SUB PUSH1 0x1F AND DUP3 ADD SWAP2 JUMPDEST POP POP POP POP POP DUP2 JUMP JUMPDEST PUSH1 0x0 DUP2 DUP2 SLOAD DUP2 LT PUSH3 0x3EF JUMPI PUSH1 0x0 DUP1 REVERT JUMPDEST SWAP1 PUSH1 0x0 MSTORE PUSH1 0x20 PUSH1 0x0 KECCAK256 ADD PUSH1 0x0 SWAP2 POP SLOAD SWAP1 PUSH2 0x100 EXP SWAP1 DIV PUSH20 0xFFFFFFFFFFFFFFFFFFFFFFFFFFFFFFFFFFFFFFFF AND DUP2 JUMP JUMPDEST PUSH1 0x60 PUSH1 0x0 DUP1 SLOAD DUP1 PUSH1 0x20 MUL PUSH1 0x20 ADD PUSH1 0x40 MLOAD SWAP1 DUP2 ADD PUSH1 0x40 MSTORE DUP1 SWAP3 SWAP2 SWAP1 DUP2 DUP2 MSTORE PUSH1 0x20 ADD DUP3 DUP1 SLOAD DUP1 ISZERO PUSH3 0x4A4 JUMPI PUSH1 0x20 MUL DUP3 ADD SWAP2 SWAP1 PUSH1 0x0 MSTORE PUSH1 0x20 PUSH1 0x0 KECCAK256 SWAP1 JUMPDEST DUP2 PUSH1 0x0 SWAP1 SLOAD SWAP1 PUSH2 0x100 EXP SWAP1 DIV PUSH20 0xFFFFFFFFFFFFFFFFFFFFFFFFFFFFFFFFFFFFFFFF AND PUSH20 0xFFFFFFFFFFFFFFFFFFFFFFFFFFFFFFFFFFFFFFFF AND DUP2 MSTORE PUSH1 0x20 ADD SWAP1 PUSH1 0x1 ADD SWAP1 DUP1 DUP4 GT PUSH3 0x459 JUMPI JUMPDEST POP POP POP POP POP SWAP1 POP SWAP1 JUMP JUMPDEST PUSH2 0x19BD DUP1 PUSH3 0xC39 DUP4 CODECOPY ADD SWAP1 JUMP JUMPDEST PUSH1 0x0 DUP1 REVERT JUMPDEST PUSH1 0x0 DUP1 REVERT JUMPDEST PUSH1 0x0 DUP2 SWAP1 POP SWAP2 SWAP1 POP JUMP JUMPDEST PUSH3 0x4DB DUP2 PUSH3 0x4C6 JUMP JUMPDEST DUP2 EQ PUSH3 0x4E7 JUMPI PUSH1 0x0 DUP1 REVERT JUMPDEST POP JUMP JUMPDEST PUSH1 0x0 DUP2 CALLDATALOAD SWAP1 POP PUSH3 0x4FB DUP2 PUSH3 0x4D0 JUMP JUMPDEST SWAP3 SWAP2 POP POP JUMP JUMPDEST PUSH1 0x0 PUSH1 0x20 DUP3 DUP5 SUB SLT ISZERO PUSH3 0x51A JUMPI PUSH3 0x519 PUSH3 0x4BC JUMP JUMPDEST JUMPDEST PUSH1 0x0 PUSH3 0x52A DUP5 DUP3 DUP6 ADD PUSH3 0x4EA JUMP JUMPDEST SWAP2 POP POP SWAP3 SWAP2 POP POP JUMP JUMPDEST PUSH1 0x0 DUP2 MLOAD SWAP1 POP SWAP2 SWAP1 POP JUMP JUMPDEST PUSH1 0x0 DUP3 DUP3 MSTORE PUSH1 0x20 DUP3 ADD SWAP1 POP SWAP3 SWAP2 POP POP JUMP JUMPDEST PUSH1 0x0 JUMPDEST DUP4 DUP2 LT ISZERO PUSH3 0x56F JUMPI DUP1 DUP3 ADD MLOAD DUP2 DUP5 ADD MSTORE PUSH1 0x20 DUP2 ADD SWAP1 POP PUSH3 0x552 JUMP JUMPDEST PUSH1 0x0 DUP5 DUP5 ADD MSTORE POP POP POP POP JUMP JUMPDEST PUSH1 0x0 PUSH1 0x1F NOT PUSH1 0x1F DUP4 ADD AND SWAP1 POP SWAP2 SWAP1 POP JUMP JUMPDEST PUSH1 0x0 PUSH3 0x599 DUP3 PUSH3 0x533 JUMP JUMPDEST PUSH3 0x5A5 DUP2 DUP6 PUSH3 0x53E JUMP JUMPDEST SWAP4 POP PUSH3 0x5B7 DUP2 DUP6 PUSH1 0x20 DUP7 ADD PUSH3 0x54F JUMP JUMPDEST PUSH3 0x5C2 DUP2 PUSH3 0x57B JUMP JUMPDEST DUP5 ADD SWAP2 POP POP SWAP3 SWAP2 POP POP JUMP JUMPDEST PUSH1 0x0 PUSH1 0x20 DUP3 ADD SWAP1 POP DUP2 DUP2 SUB PUSH1 0x0 DUP4 ADD MSTORE PUSH3 0x5E9 DUP2 DUP5 PUSH3 0x58C JUMP JUMPDEST SWAP1 POP SWAP3 SWAP2 POP POP JUMP JUMPDEST PUSH1 0x0 DUP1 REVERT JUMPDEST PUSH1 0x0 DUP1 REVERT JUMPDEST PUSH1 0x0 DUP1 REVERT JUMPDEST PUSH1 0x0 DUP1 DUP4 PUSH1 0x1F DUP5 ADD SLT PUSH3 0x619 JUMPI PUSH3 0x618 PUSH3 0x5F1 JUMP JUMPDEST JUMPDEST DUP3 CALLDATALOAD SWAP1 POP PUSH8 0xFFFFFFFFFFFFFFFF DUP2 GT ISZERO PUSH3 0x639 JUMPI PUSH3 0x638 PUSH3 0x5F6 JUMP JUMPDEST JUMPDEST PUSH1 0x20 DUP4 ADD SWAP2 POP DUP4 PUSH1 0x1 DUP3 MUL DUP4 ADD GT ISZERO PUSH3 0x658 JUMPI PUSH3 0x657 PUSH3 0x5FB JUMP JUMPDEST JUMPDEST SWAP3 POP SWAP3 SWAP1 POP JUMP JUMPDEST PUSH1 0x0 DUP1 PUSH1 0x20 DUP4 DUP6 SUB SLT ISZERO PUSH3 0x679 JUMPI PUSH3 0x678 PUSH3 0x4BC JUMP JUMPDEST JUMPDEST PUSH1 0x0 DUP4 ADD CALLDATALOAD PUSH8 0xFFFFFFFFFFFFFFFF DUP2 GT ISZERO PUSH3 0x69A JUMPI PUSH3 0x699 PUSH3 0x4C1 JUMP JUMPDEST JUMPDEST PUSH3 0x6A8 DUP6 DUP3 DUP7 ADD PUSH3 0x600 JUMP JUMPDEST SWAP3 POP SWAP3 POP POP SWAP3 POP SWAP3 SWAP1 POP JUMP JUMPDEST PUSH1 0x0 PUSH20 0xFFFFFFFFFFFFFFFFFFFFFFFFFFFFFFFFFFFFFFFF DUP3 AND SWAP1 POP SWAP2 SWAP1 POP JUMP JUMPDEST PUSH1 0x0 PUSH3 0x6E1 DUP3 PUSH3 0x6B4 JUMP JUMPDEST SWAP1 POP SWAP2 SWAP1 POP JUMP JUMPDEST PUSH3 0x6F3 DUP2 PUSH3 0x6D4 JUMP JUMPDEST DUP2 EQ PUSH3 0x6FF JUMPI PUSH1 0x0 DUP1 REVERT JUMPDEST POP JUMP JUMPDEST PUSH1 0x0 DUP2 CALLDATALOAD SWAP1 POP PUSH3 0x713 DUP2 PUSH3 0x6E8 JUMP JUMPDEST SWAP3 SWAP2 POP POP JUMP JUMPDEST PUSH1 0x0 PUSH1 0x20 DUP3 DUP5 SUB SLT ISZERO PUSH3 0x732 JUMPI PUSH3 0x731 PUSH3 0x4BC JUMP JUMPDEST JUMPDEST PUSH1 0x0 PUSH3 0x742 DUP5 DUP3 DUP6 ADD PUSH3 0x702 JUMP JUMPDEST SWAP2 POP POP SWAP3 SWAP2 POP POP JUMP JUMPDEST PUSH3 0x756 DUP2 PUSH3 0x6D4 JUMP JUMPDEST DUP3 MSTORE POP POP JUMP JUMPDEST PUSH1 0x0 PUSH1 0x20 DUP3 ADD SWAP1 POP PUSH3 0x773 PUSH1 0x0 DUP4 ADD DUP5 PUSH3 0x74B JUMP JUMPDEST SWAP3 SWAP2 POP POP JUMP JUMPDEST PUSH1 0x0 DUP2 MLOAD SWAP1 POP SWAP2 SWAP1 POP JUMP JUMPDEST PUSH1 0x0 DUP3 DUP3 MSTORE PUSH1 0x20 DUP3 ADD SWAP1 POP SWAP3 SWAP2 POP POP JUMP JUMPDEST PUSH1 0x0 DUP2 SWAP1 POP PUSH1 0x20 DUP3 ADD SWAP1 POP SWAP2 SWAP1 POP JUMP JUMPDEST PUSH3 0x7B0 DUP2 PUSH3 0x6D4 JUMP JUMPDEST DUP3 MSTORE POP POP JUMP JUMPDEST PUSH1 0x0 PUSH3 0x7C4 DUP4 DUP4 PUSH3 0x7A5 JUMP JUMPDEST PUSH1 0x20 DUP4 ADD SWAP1 POP SWAP3 SWAP2 POP POP JUMP JUMPDEST PUSH1 0x0 PUSH1 0x20 DUP3 ADD SWAP1 POP SWAP2 SWAP1 POP JUMP JUMPDEST PUSH1 0x0 PUSH3 0x7EA DUP3 PUSH3 0x779 JUMP JUMPDEST PUSH3 0x7F6 DUP2 DUP6 PUSH3 0x784 JUMP JUMPDEST SWAP4 POP PUSH3 0x803 DUP4 PUSH3 0x795 JUMP JUMPDEST DUP1 PUSH1 0x0 JUMPDEST DUP4 DUP2 LT ISZERO PUSH3 0x83A JUMPI DUP2 MLOAD PUSH3 0x81E DUP9 DUP3 PUSH3 0x7B6 JUMP JUMPDEST SWAP8 POP PUSH3 0x82B DUP4 PUSH3 0x7D0 JUMP JUMPDEST SWAP3 POP POP PUSH1 0x1 DUP2 ADD SWAP1 POP PUSH3 0x807 JUMP JUMPDEST POP DUP6 SWAP4 POP POP POP POP SWAP3 SWAP2 POP POP JUMP JUMPDEST PUSH1 0x0 PUSH1 0x20 DUP3 ADD SWAP1 POP DUP2 DUP2 SUB PUSH1 0x0 DUP4 ADD MSTORE PUSH3 0x863 DUP2 DUP5 PUSH3 0x7DD JUMP JUMPDEST SWAP1 POP SWAP3 SWAP2 POP POP JUMP JUMPDEST PUSH32 0x4E487B7100000000000000000000000000000000000000000000000000000000 PUSH1 0x0 MSTORE PUSH1 0x22 PUSH1 0x4 MSTORE PUSH1 0x24 PUSH1 0x0 REVERT JUMPDEST PUSH1 0x0 PUSH1 0x2 DUP3 DIV SWAP1 POP PUSH1 0x1 DUP3 AND DUP1 PUSH3 0x8B3 JUMPI PUSH1 0x7F DUP3 AND SWAP2 POP JUMPDEST PUSH1 0x20 DUP3 LT DUP2 SUB PUSH3 0x8C9 JUMPI PUSH3 0x8C8 PUSH3 0x86B JUMP JUMPDEST JUMPDEST POP SWAP2 SWAP1 POP JUMP JUMPDEST DUP3 DUP2 DUP4 CALLDATACOPY PUSH1 0x0 DUP4 DUP4 ADD MSTORE POP POP POP JUMP JUMPDEST PUSH1 0x0 PUSH3 0x8EC DUP4 DUP6 PUSH3 0x53E JUMP JUMPDEST SWAP4 POP PUSH3 0x8FB DUP4 DUP6 DUP5 PUSH3 0x8CF JUMP JUMPDEST PUSH3 0x906 DUP4 PUSH3 0x57B JUMP JUMPDEST DUP5 ADD SWAP1 POP SWAP4 SWAP3 POP POP POP JUMP JUMPDEST PUSH1 0x0 PUSH1 0x40 DUP3 ADD SWAP1 POP PUSH3 0x928 PUSH1 0x0 DUP4 ADD DUP7 PUSH3 0x74B JUMP JUMPDEST DUP2 DUP2 SUB PUSH1 0x20 DUP4 ADD MSTORE PUSH3 0x93D DUP2 DUP5 DUP7 PUSH3 0x8DE JUMP JUMPDEST SWAP1 POP SWAP5 SWAP4 POP POP POP POP JUMP JUMPDEST PUSH1 0x0 DUP3 SWAP1 POP SWAP3 SWAP2 POP POP JUMP JUMPDEST PUSH32 0x4E487B7100000000000000000000000000000000000000000000000000000000 PUSH1 0x0 MSTORE PUSH1 0x41 PUSH1 0x4 MSTORE PUSH1 0x24 PUSH1 0x0 REVERT JUMPDEST PUSH1 0x0 DUP2 SWAP1 POP DUP2 PUSH1 0x0 MSTORE PUSH1 0x20 PUSH1 0x0 KECCAK256 SWAP1 POP SWAP2 SWAP1 POP JUMP JUMPDEST PUSH1 0x0 PUSH1 0x20 PUSH1 0x1F DUP4 ADD DIV SWAP1 POP SWAP2 SWAP1 POP JUMP JUMPDEST PUSH1 0x0 DUP3 DUP3 SHL SWAP1 POP SWAP3 SWAP2 POP POP JUMP JUMPDEST PUSH1 0x0 PUSH1 0x8 DUP4 MUL PUSH3 0x9E5 PUSH32 0xFFFFFFFFFFFFFFFFFFFFFFFFFFFFFFFFFFFFFFFFFFFFFFFFFFFFFFFFFFFFFFFF DUP3 PUSH3 0x9A6 JUMP JUMPDEST PUSH3 0x9F1 DUP7 DUP4 PUSH3 0x9A6 JUMP JUMPDEST SWAP6 POP DUP1 NOT DUP5 AND SWAP4 POP DUP1 DUP7 AND DUP5 OR SWAP3 POP POP POP SWAP4 SWAP3 POP POP POP JUMP JUMPDEST PUSH1 0x0 DUP2 SWAP1 POP SWAP2 SWAP1 POP JUMP JUMPDEST PUSH1 0x0 PUSH3 0xA34 PUSH3 0xA2E PUSH3 0xA28 DUP5 PUSH3 0x4C6 JUMP JUMPDEST PUSH3 0xA09 JUMP JUMPDEST PUSH3 0x4C6 JUMP JUMPDEST SWAP1 POP SWAP2 SWAP1 POP JUMP JUMPDEST PUSH1 0x0 DUP2 SWAP1 POP SWAP2 SWAP1 POP JUMP JUMPDEST PUSH3 0xA50 DUP4 PUSH3 0xA13 JUMP JUMPDEST PUSH3 0xA68 PUSH3 0xA5F DUP3 PUSH3 0xA3B JUMP JUMPDEST DUP5 DUP5 SLOAD PUSH3 0x9B3 JUMP JUMPDEST DUP3 SSTORE POP POP POP POP JUMP JUMPDEST PUSH1 0x0 SWAP1 JUMP JUMPDEST PUSH3 0xA7F PUSH3 0xA70 JUMP JUMPDEST PUSH3 0xA8C DUP2 DUP5 DUP5 PUSH3 0xA45 JUMP JUMPDEST POP POP POP JUMP JUMPDEST JUMPDEST DUP2 DUP2 LT ISZERO PUSH3 0xAB4 JUMPI PUSH3 0xAA8 PUSH1 0x0 DUP3 PUSH3 0xA75 JUMP JUMPDEST PUSH1 0x1 DUP2 ADD SWAP1 POP PUSH3 0xA92 JUMP JUMPDEST POP POP JUMP JUMPDEST PUSH1 0x1F DUP3 GT ISZERO PUSH3 0xB03 JUMPI PUSH3 0xACD DUP2 PUSH3 0x981 JUMP JUMPDEST PUSH3 0xAD8 DUP5 PUSH3 0x996 JUMP JUMPDEST DUP2 ADD PUSH1 0x20 DUP6 LT ISZERO PUSH3 0xAE8 JUMPI DUP2 SWAP1 POP JUMPDEST PUSH3 0xB00 PUSH3 0xAF7 DUP6 PUSH3 0x996 JUMP JUMPDEST DUP4 ADD DUP3 PUSH3 0xA91 JUMP JUMPDEST POP POP JUMPDEST POP POP POP JUMP JUMPDEST PUSH1 0x0 DUP3 DUP3 SHR SWAP1 POP SWAP3 SWAP2 POP POP JUMP JUMPDEST PUSH1 0x0 PUSH3 0xB28 PUSH1 0x0 NOT DUP5 PUSH1 0x8 MUL PUSH3 0xB08 JUMP JUMPDEST NOT DUP1 DUP4 AND SWAP2 POP POP SWAP3 SWAP2 POP POP JUMP JUMPDEST PUSH1 0x0 PUSH3 0xB43 DUP4 DUP4 PUSH3 0xB15 JUMP JUMPDEST SWAP2 POP DUP3 PUSH1 0x2 MUL DUP3 OR SWAP1 POP SWAP3 SWAP2 POP POP JUMP JUMPDEST PUSH3 0xB5F DUP4 DUP4 PUSH3 0x947 JUMP JUMPDEST PUSH8 0xFFFFFFFFFFFFFFFF DUP2 GT ISZERO PUSH3 0xB7B JUMPI PUSH3 0xB7A PUSH3 0x952 JUMP JUMPDEST JUMPDEST PUSH3 0xB87 DUP3 SLOAD PUSH3 0x89A JUMP JUMPDEST PUSH3 0xB94 DUP3 DUP3 DUP6 PUSH3 0xAB8 JUMP JUMPDEST PUSH1 0x0 PUSH1 0x1F DUP4 GT PUSH1 0x1 DUP2 EQ PUSH3 0xBC8 JUMPI PUSH1 0x0 DUP5 ISZERO PUSH3 0xBB3 JUMPI DUP3 DUP8 ADD CALLDATALOAD SWAP1 POP JUMPDEST PUSH3 0xBBF DUP6 DUP3 PUSH3 0xB35 JUMP JUMPDEST DUP7 SSTORE POP PUSH3 0xC2F JUMP JUMPDEST PUSH1 0x1F NOT DUP5 AND PUSH3 0xBD8 DUP7 PUSH3 0x981 JUMP JUMPDEST PUSH1 0x0 JUMPDEST DUP3 DUP2 LT ISZERO PUSH3 0xC02 JUMPI DUP5 DUP10 ADD CALLDATALOAD DUP3 SSTORE PUSH1 0x1 DUP3 ADD SWAP2 POP PUSH1 0x20 DUP6 ADD SWAP5 POP PUSH1 0x20 DUP2 ADD SWAP1 POP PUSH3 0xBDB JUMP JUMPDEST DUP7 DUP4 LT ISZERO PUSH3 0xC22 JUMPI DUP5 DUP10 ADD CALLDATALOAD PUSH3 0xC1E PUSH1 0x1F DUP10 AND DUP3 PUSH3 0xB15 JUMP JUMPDEST DUP4 SSTORE POP JUMPDEST PUSH1 0x1 PUSH1 0x2 DUP9 MUL ADD DUP9 SSTORE POP POP POP JUMPDEST POP POP POP POP POP POP POP JUMP INVALID PUSH1 0x80 PUSH1 0x40 MSTORE CALLVALUE DUP1 ISZERO PUSH3 0x11 JUMPI PUSH1 0x0 DUP1 REVERT JUMPDEST POP PUSH1 0x40 MLOAD PUSH3 0x19BD CODESIZE SUB DUP1 PUSH3 0x19BD DUP4 CODECOPY DUP2 DUP2 ADD PUSH1 0x40 MSTORE DUP2 ADD SWAP1 PUSH3 0x37 SWAP2 SWAP1 PUSH3 0x237 JUMP JUMPDEST POP POP PUSH3 0x29D JUMP JUMPDEST PUSH1 0x0 PUSH1 0x40 MLOAD SWAP1 POP SWAP1 JUMP JUMPDEST PUSH1 0x0 DUP1 REVERT JUMPDEST PUSH1 0x0 DUP1 REVERT JUMPDEST PUSH1 0x0 PUSH20 0xFFFFFFFFFFFFFFFFFFFFFFFFFFFFFFFFFFFFFFFF DUP3 AND SWAP1 POP SWAP2 SWAP1 POP JUMP JUMPDEST PUSH1 0x0 PUSH3 0x80 DUP3 PUSH3 0x53 JUMP JUMPDEST SWAP1 POP SWAP2 SWAP1 POP JUMP JUMPDEST PUSH3 0x92 DUP2 PUSH3 0x73 JUMP JUMPDEST DUP2 EQ PUSH3 0x9E JUMPI PUSH1 0x0 DUP1 REVERT JUMPDEST POP JUMP JUMPDEST PUSH1 0x0 DUP2 MLOAD SWAP1 POP PUSH3 0xB2 DUP2 PUSH3 0x87 JUMP JUMPDEST SWAP3 SWAP2 POP POP JUMP JUMPDEST PUSH1 0x0 DUP1 REVERT JUMPDEST PUSH1 0x0 DUP1 REVERT JUMPDEST PUSH1 0x0 PUSH1 0x1F NOT PUSH1 0x1F DUP4 ADD AND SWAP1 POP SWAP2 SWAP1 POP JUMP JUMPDEST PUSH32 0x4E487B7100000000000000000000000000000000000000000000000000000000 PUSH1 0x0 MSTORE PUSH1 0x41 PUSH1 0x4 MSTORE PUSH1 0x24 PUSH1 0x0 REVERT JUMPDEST PUSH3 0x10D DUP3 PUSH3 0xC2 JUMP JUMPDEST DUP2 ADD DUP2 DUP2 LT PUSH8 0xFFFFFFFFFFFFFFFF DUP3 GT OR ISZERO PUSH3 0x12F JUMPI PUSH3 0x12E PUSH3 0xD3 JUMP JUMPDEST JUMPDEST DUP1 PUSH1 0x40 MSTORE POP POP POP JUMP JUMPDEST PUSH1 0x0 PUSH3 0x144 PUSH3 0x3F JUMP JUMPDEST SWAP1 POP PUSH3 0x152 DUP3 DUP3 PUSH3 0x102 JUMP JUMPDEST SWAP2 SWAP1 POP JUMP JUMPDEST PUSH1 0x0 PUSH8 0xFFFFFFFFFFFFFFFF DUP3 GT ISZERO PUSH3 0x175 JUMPI PUSH3 0x174 PUSH3 0xD3 JUMP JUMPDEST JUMPDEST PUSH3 0x180 DUP3 PUSH3 0xC2 JUMP JUMPDEST SWAP1 POP PUSH1 0x20 DUP2 ADD SWAP1 POP SWAP2 SWAP1 POP JUMP JUMPDEST PUSH1 0x0 JUMPDEST DUP4 DUP2 LT ISZERO PUSH3 0x1AD JUMPI DUP1 DUP3 ADD MLOAD DUP2 DUP5 ADD MSTORE PUSH1 0x20 DUP2 ADD SWAP1 POP PUSH3 0x190 JUMP JUMPDEST PUSH1 0x0 DUP5 DUP5 ADD MSTORE POP POP POP POP JUMP JUMPDEST PUSH1 0x0 PUSH3 0x1D0 PUSH3 0x1CA DUP5 PUSH3 0x157 JUMP JUMPDEST PUSH3 0x138 JUMP JUMPDEST SWAP1 POP DUP3 DUP2 MSTORE PUSH1 0x20 DUP2 ADD DUP5 DUP5 DUP5 ADD GT ISZERO PUSH3 0x1EF JUMPI PUSH3 0x1EE PUSH3 0xBD JUMP JUMPDEST JUMPDEST PUSH3 0x1FC DUP5 DUP3 DUP6 PUSH3 0x18D JUMP JUMPDEST POP SWAP4 SWAP3 POP POP POP JUMP JUMPDEST PUSH1 0x0 DUP3 PUSH1 0x1F DUP4 ADD SLT PUSH3 0x21C JUMPI PUSH3 0x21B PUSH3 0xB8 JUMP JUMPDEST JUMPDEST DUP2 MLOAD PUSH3 0x22E DUP5 DUP3 PUSH1 0x20 DUP7 ADD PUSH3 0x1B9 JUMP JUMPDEST SWAP2 POP POP SWAP3 SWAP2 POP POP JUMP JUMPDEST PUSH1 0x0 DUP1 PUSH1 0x40 DUP4 DUP6 SUB SLT ISZERO PUSH3 0x251 JUMPI PUSH3 0x250 PUSH3 0x49 JUMP JUMPDEST JUMPDEST PUSH1 0x0 PUSH3 0x261 DUP6 DUP3 DUP7 ADD PUSH3 0xA1 JUMP JUMPDEST SWAP3 POP POP PUSH1 0x20 DUP4 ADD MLOAD PUSH8 0xFFFFFFFFFFFFFFFF DUP2 GT ISZERO PUSH3 0x285 JUMPI PUSH3 0x284 PUSH3 0x4E JUMP JUMPDEST JUMPDEST PUSH3 0x293 DUP6 DUP3 DUP7 ADD PUSH3 0x204 JUMP JUMPDEST SWAP2 POP POP SWAP3 POP SWAP3 SWAP1 POP JUMP JUMPDEST PUSH2 0x1710 DUP1 PUSH3 0x2AD PUSH1 0x0 CODECOPY PUSH1 0x0 RETURN INVALID PUSH1 0x80 PUSH1 0x40 MSTORE PUSH1 0x4 CALLDATASIZE LT PUSH2 0xC6 JUMPI PUSH1 0x0 CALLDATALOAD PUSH1 0xE0 SHR DUP1 PUSH4 0x95CD63A0 GT PUSH2 0x7F JUMPI DUP1 PUSH4 0x9D5F65FC GT PUSH2 0x59 JUMPI DUP1 PUSH4 0x9D5F65FC EQ PUSH2 0x300 JUMPI DUP1 PUSH4 0xA329F8F6 EQ PUSH2 0x33D JUMPI DUP1 PUSH4 0xC12BE929 EQ PUSH2 0x366 JUMPI DUP1 PUSH4 0xCC1E2CB0 EQ PUSH2 0x3A3 JUMPI PUSH2 0x11D JUMP JUMPDEST DUP1 PUSH4 0x95CD63A0 EQ PUSH2 0x25B JUMPI DUP1 PUSH4 0x96B98A65 EQ PUSH2 0x284 JUMPI DUP1 PUSH4 0x9ACE38C2 EQ PUSH2 0x2C1 JUMPI PUSH2 0x11D JUMP JUMPDEST DUP1 PUSH4 0x2D05D3F EQ PUSH2 0x122 JUMPI DUP1 PUSH4 0x2A0E54BD EQ PUSH2 0x14D JUMPI DUP1 PUSH4 0x2E7700F0 EQ PUSH2 0x18B JUMPI DUP1 PUSH4 0x33EA3DC8 EQ PUSH2 0x1B6 JUMPI DUP1 PUSH4 0x66D34A9B EQ PUSH2 0x1F5 JUMPI DUP1 PUSH4 0x80FC9C0E EQ PUSH2 0x21E JUMPI PUSH2 0x11D JUMP JUMPDEST CALLDATASIZE PUSH2 0x11D JUMPI CALLER PUSH20 0xFFFFFFFFFFFFFFFFFFFFFFFFFFFFFFFFFFFFFFFF AND PUSH32 0x90890809C654F11D6E72A28FA60149770A0D11EC6C92319D6CEB2BB0A4EA1A15 CALLVALUE SELFBALANCE PUSH1 0x40 MLOAD PUSH2 0x113 SWAP3 SWAP2 SWAP1 PUSH2 0xCA7 JUMP JUMPDEST PUSH1 0x40 MLOAD DUP1 SWAP2 SUB SWAP1 LOG2 STOP JUMPDEST PUSH1 0x0 DUP1 REVERT JUMPDEST CALLVALUE DUP1 ISZERO PUSH2 0x12E JUMPI PUSH1 0x0 DUP1 REVERT JUMPDEST POP PUSH2 0x137 PUSH2 0x3CE JUMP JUMPDEST PUSH1 0x40 MLOAD PUSH2 0x144 SWAP2 SWAP1 PUSH2 0xD11 JUMP JUMPDEST PUSH1 0x40 MLOAD DUP1 SWAP2 SUB SWAP1 RETURN JUMPDEST CALLVALUE DUP1 ISZERO PUSH2 0x159 JUMPI PUSH1 0x0 DUP1 REVERT JUMPDEST POP PUSH2 0x174 PUSH1 0x4 DUP1 CALLDATASIZE SUB DUP2 ADD SWAP1 PUSH2 0x16F SWAP2 SWAP1 PUSH2 0xD98 JUMP JUMPDEST PUSH2 0x3F4 JUMP JUMPDEST PUSH1 0x40 MLOAD PUSH2 0x182 SWAP3 SWAP2 SWAP1 PUSH2 0xDD8 JUMP JUMPDEST PUSH1 0x40 MLOAD DUP1 SWAP2 SUB SWAP1 RETURN JUMPDEST CALLVALUE DUP1 ISZERO PUSH2 0x197 JUMPI PUSH1 0x0 DUP1 REVERT JUMPDEST POP PUSH2 0x1A0 PUSH2 0x455 JUMP JUMPDEST PUSH1 0x40 MLOAD PUSH2 0x1AD SWAP2 SWAP1 PUSH2 0xE01 JUMP JUMPDEST PUSH1 0x40 MLOAD DUP1 SWAP2 SUB SWAP1 RETURN JUMPDEST CALLVALUE DUP1 ISZERO PUSH2 0x1C2 JUMPI PUSH1 0x0 DUP1 REVERT JUMPDEST POP PUSH2 0x1DD PUSH1 0x4 DUP1 CALLDATASIZE SUB DUP2 ADD SWAP1 PUSH2 0x1D8 SWAP2 SWAP1 PUSH2 0xE1C JUMP JUMPDEST PUSH2 0x461 JUMP JUMPDEST PUSH1 0x40 MLOAD PUSH2 0x1EC SWAP4 SWAP3 SWAP2 SWAP1 PUSH2 0xED9 JUMP JUMPDEST PUSH1 0x40 MLOAD DUP1 SWAP2 SUB SWAP1 RETURN JUMPDEST CALLVALUE DUP1 ISZERO PUSH2 0x201 JUMPI PUSH1 0x0 DUP1 REVERT JUMPDEST POP PUSH2 0x21C PUSH1 0x4 DUP1 CALLDATASIZE SUB DUP2 ADD SWAP1 PUSH2 0x217 SWAP2 SWAP1 PUSH2 0x104C JUMP JUMPDEST PUSH2 0x553 JUMP JUMPDEST STOP JUMPDEST CALLVALUE DUP1 ISZERO PUSH2 0x22A JUMPI PUSH1 0x0 DUP1 REVERT JUMPDEST POP PUSH2 0x245 PUSH1 0x4 DUP1 CALLDATASIZE SUB DUP2 ADD SWAP1 PUSH2 0x240 SWAP2 SWAP1 PUSH2 0x10BB JUMP JUMPDEST PUSH2 0x68F JUMP JUMPDEST PUSH1 0x40 MLOAD PUSH2 0x252 SWAP2 SWAP1 PUSH2 0xE01 JUMP JUMPDEST PUSH1 0x40 MLOAD DUP1 SWAP2 SUB SWAP1 RETURN JUMPDEST CALLVALUE DUP1 ISZERO PUSH2 0x267 JUMPI PUSH1 0x0 DUP1 REVERT JUMPDEST POP PUSH2 0x282 PUSH1 0x4 DUP1 CALLDATASIZE SUB DUP2 ADD SWAP1 PUSH2 0x27D SWAP2 SWAP1 PUSH2 0xE1C JUMP JUMPDEST PUSH2 0x7C3 JUMP JUMPDEST STOP JUMPDEST CALLVALUE DUP1 ISZERO PUSH2 0x290 JUMPI PUSH1 0x0 DUP1 REVERT JUMPDEST POP PUSH2 0x2AB PUSH1 0x4 DUP1 CALLDATASIZE SUB DUP2 ADD SWAP1 PUSH2 0x2A6 SWAP2 SWAP1 PUSH2 0xD98 JUMP JUMPDEST PUSH2 0x82C JUMP JUMPDEST PUSH1 0x40 MLOAD PUSH2 0x2B8 SWAP2 SWAP1 PUSH2 0xE01 JUMP JUMPDEST PUSH1 0x40 MLOAD DUP1 SWAP2 SUB SWAP1 RETURN JUMPDEST CALLVALUE DUP1 ISZERO PUSH2 0x2CD JUMPI PUSH1 0x0 DUP1 REVERT JUMPDEST POP PUSH2 0x2E8 PUSH1 0x4 DUP1 CALLDATASIZE SUB DUP2 ADD SWAP1 PUSH2 0x2E3 SWAP2 SWAP1 PUSH2 0xE1C JUMP JUMPDEST PUSH2 0x85D JUMP JUMPDEST PUSH1 0x40 MLOAD PUSH2 0x2F7 SWAP4 SWAP3 SWAP2 SWAP1 PUSH2 0xED9 JUMP JUMPDEST PUSH1 0x40 MLOAD DUP1 SWAP2 SUB SWAP1 RETURN JUMPDEST CALLVALUE DUP1 ISZERO PUSH2 0x30C JUMPI PUSH1 0x0 DUP1 REVERT JUMPDEST POP PUSH2 0x327 PUSH1 0x4 DUP1 CALLDATASIZE SUB DUP2 ADD SWAP1 PUSH2 0x322 SWAP2 SWAP1 PUSH2 0x10BB JUMP JUMPDEST PUSH2 0x93F JUMP JUMPDEST PUSH1 0x40 MLOAD PUSH2 0x334 SWAP2 SWAP1 PUSH2 0x11A6 JUMP JUMPDEST PUSH1 0x40 MLOAD DUP1 SWAP2 SUB SWAP1 RETURN JUMPDEST CALLVALUE DUP1 ISZERO PUSH2 0x349 JUMPI PUSH1 0x0 DUP1 REVERT JUMPDEST POP PUSH2 0x364 PUSH1 0x4 DUP1 CALLDATASIZE SUB DUP2 ADD SWAP1 PUSH2 0x35F SWAP2 SWAP1 PUSH2 0x11C8 JUMP JUMPDEST PUSH2 0x9D6 JUMP JUMPDEST STOP JUMPDEST CALLVALUE DUP1 ISZERO PUSH2 0x372 JUMPI PUSH1 0x0 DUP1 REVERT JUMPDEST POP PUSH2 0x38D PUSH1 0x4 DUP1 CALLDATASIZE SUB DUP2 ADD SWAP1 PUSH2 0x388 SWAP2 SWAP1 PUSH2 0x10BB JUMP JUMPDEST PUSH2 0xB26 JUMP JUMPDEST PUSH1 0x40 MLOAD PUSH2 0x39A SWAP2 SWAP1 PUSH2 0xE01 JUMP JUMPDEST PUSH1 0x40 MLOAD DUP1 SWAP2 SUB SWAP1 RETURN JUMPDEST CALLVALUE DUP1 ISZERO PUSH2 0x3AF JUMPI PUSH1 0x0 DUP1 REVERT JUMPDEST POP PUSH2 0x3B8 PUSH2 0xC00 JUMP JUMPDEST PUSH1 0x40 MLOAD PUSH2 0x3C5 SWAP2 SWAP1 PUSH2 0x1270 JUMP JUMPDEST PUSH1 0x40 MLOAD DUP1 SWAP2 SUB SWAP1 RETURN JUMPDEST PUSH1 0x4 PUSH1 0x0 SWAP1 SLOAD SWAP1 PUSH2 0x100 EXP SWAP1 DIV PUSH20 0xFFFFFFFFFFFFFFFFFFFFFFFFFFFFFFFFFFFFFFFF AND DUP2 JUMP JUMPDEST PUSH1 0x2 PUSH1 0x20 MSTORE DUP2 PUSH1 0x0 MSTORE PUSH1 0x40 PUSH1 0x0 KECCAK256 DUP2 DUP2 SLOAD DUP2 LT PUSH2 0x410 JUMPI PUSH1 0x0 DUP1 REVERT JUMPDEST SWAP1 PUSH1 0x0 MSTORE PUSH1 0x20 PUSH1 0x0 KECCAK256 SWAP1 PUSH1 0x2 MUL ADD PUSH1 0x0 SWAP2 POP SWAP2 POP POP DUP1 PUSH1 0x0 ADD PUSH1 0x0 SWAP1 SLOAD SWAP1 PUSH2 0x100 EXP SWAP1 DIV PUSH20 0xFFFFFFFFFFFFFFFFFFFFFFFFFFFFFFFFFFFFFFFF AND SWAP1 DUP1 PUSH1 0x1 ADD SLOAD SWAP1 POP DUP3 JUMP JUMPDEST PUSH1 0x0 DUP1 DUP1 SLOAD SWAP1 POP SWAP1 POP SWAP1 JUMP JUMPDEST PUSH1 0x0 DUP1 PUSH1 0x60 PUSH1 0x0 DUP1 DUP6 DUP2 SLOAD DUP2 LT PUSH2 0x47B JUMPI PUSH2 0x47A PUSH2 0x1292 JUMP JUMPDEST JUMPDEST SWAP1 PUSH1 0x0 MSTORE PUSH1 0x20 PUSH1 0x0 KECCAK256 SWAP1 PUSH1 0x3 MUL ADD SWAP1 POP DUP1 PUSH1 0x0 ADD PUSH1 0x0 SWAP1 SLOAD SWAP1 PUSH2 0x100 EXP SWAP1 DIV PUSH20 0xFFFFFFFFFFFFFFFFFFFFFFFFFFFFFFFFFFFFFFFF AND DUP2 PUSH1 0x1 ADD SLOAD DUP3 PUSH1 0x2 ADD DUP1 DUP1 SLOAD PUSH2 0x4C5 SWAP1 PUSH2 0x12F0 JUMP JUMPDEST DUP1 PUSH1 0x1F ADD PUSH1 0x20 DUP1 SWAP2 DIV MUL PUSH1 0x20 ADD PUSH1 0x40 MLOAD SWAP1 DUP2 ADD PUSH1 0x40 MSTORE DUP1 SWAP3 SWAP2 SWAP1 DUP2 DUP2 MSTORE PUSH1 0x20 ADD DUP3 DUP1 SLOAD PUSH2 0x4F1 SWAP1 PUSH2 0x12F0 JUMP JUMPDEST DUP1 ISZERO PUSH2 0x53E JUMPI DUP1 PUSH1 0x1F LT PUSH2 0x513 JUMPI PUSH2 0x100 DUP1 DUP4 SLOAD DIV MUL DUP4 MSTORE SWAP2 PUSH1 0x20 ADD SWAP2 PUSH2 0x53E JUMP JUMPDEST DUP3 ADD SWAP2 SWAP1 PUSH1 0x0 MSTORE PUSH1 0x20 PUSH1 0x0 KECCAK256 SWAP1 JUMPDEST DUP2 SLOAD DUP2 MSTORE SWAP1 PUSH1 0x1 ADD SWAP1 PUSH1 0x20 ADD DUP1 DUP4 GT PUSH2 0x521 JUMPI DUP3 SWAP1 SUB PUSH1 0x1F AND DUP3 ADD SWAP2 JUMPDEST POP POP POP POP POP SWAP1 POP SWAP4 POP SWAP4 POP SWAP4 POP POP SWAP2 SWAP4 SWAP1 SWAP3 POP JUMP JUMPDEST PUSH1 0x0 DUP1 DUP1 SLOAD SWAP1 POP SWAP1 POP PUSH1 0x0 PUSH1 0x40 MLOAD DUP1 PUSH1 0x60 ADD PUSH1 0x40 MSTORE DUP1 DUP7 PUSH20 0xFFFFFFFFFFFFFFFFFFFFFFFFFFFFFFFFFFFFFFFF AND DUP2 MSTORE PUSH1 0x20 ADD DUP6 DUP2 MSTORE PUSH1 0x20 ADD DUP5 DUP2 MSTORE POP SWAP1 DUP1 PUSH1 0x1 DUP2 SLOAD ADD DUP1 DUP3 SSTORE DUP1 SWAP2 POP POP PUSH1 0x1 SWAP1 SUB SWAP1 PUSH1 0x0 MSTORE PUSH1 0x20 PUSH1 0x0 KECCAK256 SWAP1 PUSH1 0x3 MUL ADD PUSH1 0x0 SWAP1 SWAP2 SWAP1 SWAP2 SWAP1 SWAP2 POP PUSH1 0x0 DUP3 ADD MLOAD DUP2 PUSH1 0x0 ADD PUSH1 0x0 PUSH2 0x100 EXP DUP2 SLOAD DUP2 PUSH20 0xFFFFFFFFFFFFFFFFFFFFFFFFFFFFFFFFFFFFFFFF MUL NOT AND SWAP1 DUP4 PUSH20 0xFFFFFFFFFFFFFFFFFFFFFFFFFFFFFFFFFFFFFFFF AND MUL OR SWAP1 SSTORE POP PUSH1 0x20 DUP3 ADD MLOAD DUP2 PUSH1 0x1 ADD SSTORE PUSH1 0x40 DUP3 ADD MLOAD DUP2 PUSH1 0x2 ADD SWAP1 DUP2 PUSH2 0x61E SWAP2 SWAP1 PUSH2 0x14CD JUMP JUMPDEST POP POP POP DUP4 PUSH20 0xFFFFFFFFFFFFFFFFFFFFFFFFFFFFFFFFFFFFFFFF AND DUP2 CALLER PUSH20 0xFFFFFFFFFFFFFFFFFFFFFFFFFFFFFFFFFFFFFFFF AND PUSH32 0xFF161496BB9879E11F4A70B7DF1B7BA081936284851B65942EF4D782F9D39BEA DUP7 DUP7 PUSH1 0x40 MLOAD PUSH2 0x681 SWAP3 SWAP2 SWAP1 PUSH2 0x159F JUMP JUMPDEST PUSH1 0x40 MLOAD DUP1 SWAP2 SUB SWAP1 LOG4 POP POP POP POP JUMP JUMPDEST PUSH1 0x0 DUP1 PUSH1 0x0 SWAP1 POP PUSH1 0x0 JUMPDEST PUSH1 0x2 PUSH1 0x0 DUP6 PUSH20 0xFFFFFFFFFFFFFFFFFFFFFFFFFFFFFFFFFFFFFFFF AND PUSH20 0xFFFFFFFFFFFFFFFFFFFFFFFFFFFFFFFFFFFFFFFF AND DUP2 MSTORE PUSH1 0x20 ADD SWAP1 DUP2 MSTORE PUSH1 0x20 ADD PUSH1 0x0 KECCAK256 DUP1 SLOAD SWAP1 POP DUP2 LT ISZERO PUSH2 0x766 JUMPI PUSH1 0x2 PUSH1 0x0 DUP6 PUSH20 0xFFFFFFFFFFFFFFFFFFFFFFFFFFFFFFFFFFFFFFFF AND PUSH20 0xFFFFFFFFFFFFFFFFFFFFFFFFFFFFFFFFFFFFFFFF AND DUP2 MSTORE PUSH1 0x20 ADD SWAP1 DUP2 MSTORE PUSH1 0x20 ADD PUSH1 0x0 KECCAK256 DUP2 DUP2 SLOAD DUP2 LT PUSH2 0x734 JUMPI PUSH2 0x733 PUSH2 0x1292 JUMP JUMPDEST JUMPDEST SWAP1 PUSH1 0x0 MSTORE PUSH1 0x20 PUSH1 0x0 KECCAK256 SWAP1 PUSH1 0x2 MUL ADD PUSH1 0x1 ADD SLOAD DUP3 PUSH2 0x751 SWAP2 SWAP1 PUSH2 0x15FE JUMP JUMPDEST SWAP2 POP DUP1 DUP1 PUSH2 0x75E SWAP1 PUSH2 0x1632 JUMP JUMPDEST SWAP2 POP POP PUSH2 0x699 JUMP JUMPDEST POP PUSH1 0x0 PUSH1 0x2 PUSH1 0x0 DUP6 PUSH20 0xFFFFFFFFFFFFFFFFFFFFFFFFFFFFFFFFFFFFFFFF AND PUSH20 0xFFFFFFFFFFFFFFFFFFFFFFFFFFFFFFFFFFFFFFFF AND DUP2 MSTORE PUSH1 0x20 ADD SWAP1 DUP2 MSTORE PUSH1 0x20 ADD PUSH1 0x0 KECCAK256 DUP1 SLOAD SWAP1 POP DUP3 PUSH2 0x7B7 SWAP2 SWAP1 PUSH2 0x16A9 JUMP JUMPDEST SWAP1 POP DUP1 SWAP3 POP POP POP SWAP2 SWAP1 POP JUMP JUMPDEST PUSH1 0x1 PUSH1 0x0 CALLER PUSH20 0xFFFFFFFFFFFFFFFFFFFFFFFFFFFFFFFFFFFFFFFF AND PUSH20 0xFFFFFFFFFFFFFFFFFFFFFFFFFFFFFFFFFFFFFFFF AND DUP2 MSTORE PUSH1 0x20 ADD SWAP1 DUP2 MSTORE PUSH1 0x20 ADD PUSH1 0x0 KECCAK256 DUP2 SWAP1 DUP1 PUSH1 0x1 DUP2 SLOAD ADD DUP1 DUP3 SSTORE DUP1 SWAP2 POP POP PUSH1 0x1 SWAP1 SUB SWAP1 PUSH1 0x0 MSTORE PUSH1 0x20 PUSH1 0x0 KECCAK256 ADD PUSH1 0x0 SWAP1 SWAP2 SWAP1 SWAP2 SWAP1 SWAP2 POP SSTORE POP JUMP JUMPDEST PUSH1 0x1 PUSH1 0x20 MSTORE DUP2 PUSH1 0x0 MSTORE PUSH1 0x40 PUSH1 0x0 KECCAK256 DUP2 DUP2 SLOAD DUP2 LT PUSH2 0x848 JUMPI PUSH1 0x0 DUP1 REVERT JUMPDEST SWAP1 PUSH1 0x0 MSTORE PUSH1 0x20 PUSH1 0x0 KECCAK256 ADD PUSH1 0x0 SWAP2 POP SWAP2 POP POP SLOAD DUP2 JUMP JUMPDEST PUSH1 0x0 DUP2 DUP2 SLOAD DUP2 LT PUSH2 0x86D JUMPI PUSH1 0x0 DUP1 REVERT JUMPDEST SWAP1 PUSH1 0x0 MSTORE PUSH1 0x20 PUSH1 0x0 KECCAK256 SWAP1 PUSH1 0x3 MUL ADD PUSH1 0x0 SWAP2 POP SWAP1 POP DUP1 PUSH1 0x0 ADD PUSH1 0x0 SWAP1 SLOAD SWAP1 PUSH2 0x100 EXP SWAP1 DIV PUSH20 0xFFFFFFFFFFFFFFFFFFFFFFFFFFFFFFFFFFFFFFFF AND SWAP1 DUP1 PUSH1 0x1 ADD SLOAD SWAP1 DUP1 PUSH1 0x2 ADD DUP1 SLOAD PUSH2 0x8BC SWAP1 PUSH2 0x12F0 JUMP JUMPDEST DUP1 PUSH1 0x1F ADD PUSH1 0x20 DUP1 SWAP2 DIV MUL PUSH1 0x20 ADD PUSH1 0x40 MLOAD SWAP1 DUP2 ADD PUSH1 0x40 MSTORE DUP1 SWAP3 SWAP2 SWAP1 DUP2 DUP2 MSTORE PUSH1 0x20 ADD DUP3 DUP1 SLOAD PUSH2 0x8E8 SWAP1 PUSH2 0x12F0 JUMP JUMPDEST DUP1 ISZERO PUSH2 0x935 JUMPI DUP1 PUSH1 0x1F LT PUSH2 0x90A JUMPI PUSH2 0x100 DUP1 DUP4 SLOAD DIV MUL DUP4 MSTORE SWAP2 PUSH1 0x20 ADD SWAP2 PUSH2 0x935 JUMP JUMPDEST DUP3 ADD SWAP2 SWAP1 PUSH1 0x0 MSTORE PUSH1 0x20 PUSH1 0x0 KECCAK256 SWAP1 JUMPDEST DUP2 SLOAD DUP2 MSTORE SWAP1 PUSH1 0x1 ADD SWAP1 PUSH1 0x20 ADD DUP1 DUP4 GT PUSH2 0x918 JUMPI DUP3 SWAP1 SUB PUSH1 0x1F AND DUP3 ADD SWAP2 JUMPDEST POP POP POP POP POP SWAP1 POP DUP4 JUMP JUMPDEST PUSH1 0x60 PUSH1 0x1 PUSH1 0x0 DUP4 PUSH20 0xFFFFFFFFFFFFFFFFFFFFFFFFFFFFFFFFFFFFFFFF AND PUSH20 0xFFFFFFFFFFFFFFFFFFFFFFFFFFFFFFFFFFFFFFFF AND DUP2 MSTORE PUSH1 0x20 ADD SWAP1 DUP2 MSTORE PUSH1 0x20 ADD PUSH1 0x0 KECCAK256 DUP1 SLOAD DUP1 PUSH1 0x20 MUL PUSH1 0x20 ADD PUSH1 0x40 MLOAD SWAP1 DUP2 ADD PUSH1 0x40 MSTORE DUP1 SWAP3 SWAP2 SWAP1 DUP2 DUP2 MSTORE PUSH1 0x20 ADD DUP3 DUP1 SLOAD DUP1 ISZERO PUSH2 0x9CA JUMPI PUSH1 0x20 MUL DUP3 ADD SWAP2 SWAP1 PUSH1 0x0 MSTORE PUSH1 0x20 PUSH1 0x0 KECCAK256 SWAP1 JUMPDEST DUP2 SLOAD DUP2 MSTORE PUSH1 0x20 ADD SWAP1 PUSH1 0x1 ADD SWAP1 DUP1 DUP4 GT PUSH2 0x9B6 JUMPI JUMPDEST POP POP POP POP POP SWAP1 POP SWAP2 SWAP1 POP JUMP JUMPDEST DUP2 PUSH20 0xFFFFFFFFFFFFFFFFFFFFFFFFFFFFFFFFFFFFFFFF AND DUP4 PUSH20 0xFFFFFFFFFFFFFFFFFFFFFFFFFFFFFFFFFFFFFFFF AND PUSH32 0x5435029AE8E53F5303B6DBDA07BE9BEB09AE106923C28BF30DC3C46852588F04 DUP4 PUSH1 0x40 MLOAD PUSH2 0xA33 SWAP2 SWAP1 PUSH2 0xE01 JUMP JUMPDEST PUSH1 0x40 MLOAD DUP1 SWAP2 SUB SWAP1 LOG3 PUSH1 0x2 PUSH1 0x0 DUP4 PUSH20 0xFFFFFFFFFFFFFFFFFFFFFFFFFFFFFFFFFFFFFFFF AND PUSH20 0xFFFFFFFFFFFFFFFFFFFFFFFFFFFFFFFFFFFFFFFF AND DUP2 MSTORE PUSH1 0x20 ADD SWAP1 DUP2 MSTORE PUSH1 0x20 ADD PUSH1 0x0 KECCAK256 PUSH1 0x40 MLOAD DUP1 PUSH1 0x40 ADD PUSH1 0x40 MSTORE DUP1 DUP6 PUSH20 0xFFFFFFFFFFFFFFFFFFFFFFFFFFFFFFFFFFFFFFFF AND DUP2 MSTORE PUSH1 0x20 ADD DUP4 DUP2 MSTORE POP SWAP1 DUP1 PUSH1 0x1 DUP2 SLOAD ADD DUP1 DUP3 SSTORE DUP1 SWAP2 POP POP PUSH1 0x1 SWAP1 SUB SWAP1 PUSH1 0x0 MSTORE PUSH1 0x20 PUSH1 0x0 KECCAK256 SWAP1 PUSH1 0x2 MUL ADD PUSH1 0x0 SWAP1 SWAP2 SWAP1 SWAP2 SWAP1 SWAP2 POP PUSH1 0x0 DUP3 ADD MLOAD DUP2 PUSH1 0x0 ADD PUSH1 0x0 PUSH2 0x100 EXP DUP2 SLOAD DUP2 PUSH20 0xFFFFFFFFFFFFFFFFFFFFFFFFFFFFFFFFFFFFFFFF MUL NOT AND SWAP1 DUP4 PUSH20 0xFFFFFFFFFFFFFFFFFFFFFFFFFFFFFFFFFFFFFFFF AND MUL OR SWAP1 SSTORE POP PUSH1 0x20 DUP3 ADD MLOAD DUP2 PUSH1 0x1 ADD SSTORE POP POP POP POP POP JUMP JUMPDEST PUSH1 0x0 DUP1 PUSH1 0x0 SWAP1 POP PUSH1 0x0 JUMPDEST PUSH1 0x1 PUSH1 0x0 DUP6 PUSH20 0xFFFFFFFFFFFFFFFFFFFFFFFFFFFFFFFFFFFFFFFF AND PUSH20 0xFFFFFFFFFFFFFFFFFFFFFFFFFFFFFFFFFFFFFFFF AND DUP2 MSTORE PUSH1 0x20 ADD SWAP1 DUP2 MSTORE PUSH1 0x20 ADD PUSH1 0x0 KECCAK256 DUP1 SLOAD SWAP1 POP DUP2 LT ISZERO PUSH2 0xBF6 JUMPI PUSH1 0x1 PUSH1 0x0 DUP6 PUSH20 0xFFFFFFFFFFFFFFFFFFFFFFFFFFFFFFFFFFFFFFFF AND PUSH20 0xFFFFFFFFFFFFFFFFFFFFFFFFFFFFFFFFFFFFFFFF AND DUP2 MSTORE PUSH1 0x20 ADD SWAP1 DUP2 MSTORE PUSH1 0x20 ADD PUSH1 0x0 KECCAK256 DUP2 DUP2 SLOAD DUP2 LT PUSH2 0xBCB JUMPI PUSH2 0xBCA PUSH2 0x1292 JUMP JUMPDEST JUMPDEST SWAP1 PUSH1 0x0 MSTORE PUSH1 0x20 PUSH1 0x0 KECCAK256 ADD SLOAD DUP3 PUSH2 0xBE1 SWAP2 SWAP1 PUSH2 0x15FE JUMP JUMPDEST SWAP2 POP DUP1 DUP1 PUSH2 0xBEE SWAP1 PUSH2 0x1632 JUMP JUMPDEST SWAP2 POP POP PUSH2 0xB30 JUMP JUMPDEST POP DUP1 SWAP2 POP POP SWAP2 SWAP1 POP JUMP JUMPDEST PUSH1 0x3 DUP1 SLOAD PUSH2 0xC0D SWAP1 PUSH2 0x12F0 JUMP JUMPDEST DUP1 PUSH1 0x1F ADD PUSH1 0x20 DUP1 SWAP2 DIV MUL PUSH1 0x20 ADD PUSH1 0x40 MLOAD SWAP1 DUP2 ADD PUSH1 0x40 MSTORE DUP1 SWAP3 SWAP2 SWAP1 DUP2 DUP2 MSTORE PUSH1 0x20 ADD DUP3 DUP1 SLOAD PUSH2 0xC39 SWAP1 PUSH2 0x12F0 JUMP JUMPDEST DUP1 ISZERO PUSH2 0xC86 JUMPI DUP1 PUSH1 0x1F LT PUSH2 0xC5B JUMPI PUSH2 0x100 DUP1 DUP4 SLOAD DIV MUL DUP4 MSTORE SWAP2 PUSH1 0x20 ADD SWAP2 PUSH2 0xC86 JUMP JUMPDEST DUP3 ADD SWAP2 SWAP1 PUSH1 0x0 MSTORE PUSH1 0x20 PUSH1 0x0 KECCAK256 SWAP1 JUMPDEST DUP2 SLOAD DUP2 MSTORE SWAP1 PUSH1 0x1 ADD SWAP1 PUSH1 0x20 ADD DUP1 DUP4 GT PUSH2 0xC69 JUMPI DUP3 SWAP1 SUB PUSH1 0x1F AND DUP3 ADD SWAP2 JUMPDEST POP POP POP POP POP DUP2 JUMP JUMPDEST PUSH1 0x0 DUP2 SWAP1 POP SWAP2 SWAP1 POP JUMP JUMPDEST PUSH2 0xCA1 DUP2 PUSH2 0xC8E JUMP JUMPDEST DUP3 MSTORE POP POP JUMP JUMPDEST PUSH1 0x0 PUSH1 0x40 DUP3 ADD SWAP1 POP PUSH2 0xCBC PUSH1 0x0 DUP4 ADD DUP6 PUSH2 0xC98 JUMP JUMPDEST PUSH2 0xCC9 PUSH1 0x20 DUP4 ADD DUP5 PUSH2 0xC98 JUMP JUMPDEST SWAP4 SWAP3 POP POP POP JUMP JUMPDEST PUSH1 0x0 PUSH20 0xFFFFFFFFFFFFFFFFFFFFFFFFFFFFFFFFFFFFFFFF DUP3 AND SWAP1 POP SWAP2 SWAP1 POP JUMP JUMPDEST PUSH1 0x0 PUSH2 0xCFB DUP3 PUSH2 0xCD0 JUMP JUMPDEST SWAP1 POP SWAP2 SWAP1 POP JUMP JUMPDEST PUSH2 0xD0B DUP2 PUSH2 0xCF0 JUMP JUMPDEST DUP3 MSTORE POP POP JUMP JUMPDEST PUSH1 0x0 PUSH1 0x20 DUP3 ADD SWAP1 POP PUSH2 0xD26 PUSH1 0x0 DUP4 ADD DUP5 PUSH2 0xD02 JUMP JUMPDEST SWAP3 SWAP2 POP POP JUMP JUMPDEST PUSH1 0x0 PUSH1 0x40 MLOAD SWAP1 POP SWAP1 JUMP JUMPDEST PUSH1 0x0 DUP1 REVERT JUMPDEST PUSH1 0x0 DUP1 REVERT JUMPDEST PUSH2 0xD49 DUP2 PUSH2 0xCF0 JUMP JUMPDEST DUP2 EQ PUSH2 0xD54 JUMPI PUSH1 0x0 DUP1 REVERT JUMPDEST POP JUMP JUMPDEST PUSH1 0x0 DUP2 CALLDATALOAD SWAP1 POP PUSH2 0xD66 DUP2 PUSH2 0xD40 JUMP JUMPDEST SWAP3 SWAP2 POP POP JUMP JUMPDEST PUSH2 0xD75 DUP2 PUSH2 0xC8E JUMP JUMPDEST DUP2 EQ PUSH2 0xD80 JUMPI PUSH1 0x0 DUP1 REVERT JUMPDEST POP JUMP JUMPDEST PUSH1 0x0 DUP2 CALLDATALOAD SWAP1 POP PUSH2 0xD92 DUP2 PUSH2 0xD6C JUMP JUMPDEST SWAP3 SWAP2 POP POP JUMP JUMPDEST PUSH1 0x0 DUP1 PUSH1 0x40 DUP4 DUP6 SUB SLT ISZERO PUSH2 0xDAF JUMPI PUSH2 0xDAE PUSH2 0xD36 JUMP JUMPDEST JUMPDEST PUSH1 0x0 PUSH2 0xDBD DUP6 DUP3 DUP7 ADD PUSH2 0xD57 JUMP JUMPDEST SWAP3 POP POP PUSH1 0x20 PUSH2 0xDCE DUP6 DUP3 DUP7 ADD PUSH2 0xD83 JUMP JUMPDEST SWAP2 POP POP SWAP3 POP SWAP3 SWAP1 POP JUMP JUMPDEST PUSH1 0x0 PUSH1 0x40 DUP3 ADD SWAP1 POP PUSH2 0xDED PUSH1 0x0 DUP4 ADD DUP6 PUSH2 0xD02 JUMP JUMPDEST PUSH2 0xDFA PUSH1 0x20 DUP4 ADD DUP5 PUSH2 0xC98 JUMP JUMPDEST SWAP4 SWAP3 POP POP POP JUMP JUMPDEST PUSH1 0x0 PUSH1 0x20 DUP3 ADD SWAP1 POP PUSH2 0xE16 PUSH1 0x0 DUP4 ADD DUP5 PUSH2 0xC98 JUMP JUMPDEST SWAP3 SWAP2 POP POP JUMP JUMPDEST PUSH1 0x0 PUSH1 0x20 DUP3 DUP5 SUB SLT ISZERO PUSH2 0xE32 JUMPI PUSH2 0xE31 PUSH2 0xD36 JUMP JUMPDEST JUMPDEST PUSH1 0x0 PUSH2 0xE40 DUP5 DUP3 DUP6 ADD PUSH2 0xD83 JUMP JUMPDEST SWAP2 POP POP SWAP3 SWAP2 POP POP JUMP JUMPDEST PUSH1 0x0 DUP2 MLOAD SWAP1 POP SWAP2 SWAP1 POP JUMP JUMPDEST PUSH1 0x0 DUP3 DUP3 MSTORE PUSH1 0x20 DUP3 ADD SWAP1 POP SWAP3 SWAP2 POP POP JUMP JUMPDEST PUSH1 0x0 JUMPDEST DUP4 DUP2 LT ISZERO PUSH2 0xE83 JUMPI DUP1 DUP3 ADD MLOAD DUP2 DUP5 ADD MSTORE PUSH1 0x20 DUP2 ADD SWAP1 POP PUSH2 0xE68 JUMP JUMPDEST PUSH1 0x0 DUP5 DUP5 ADD MSTORE POP POP POP POP JUMP JUMPDEST PUSH1 0x0 PUSH1 0x1F NOT PUSH1 0x1F DUP4 ADD AND SWAP1 POP SWAP2 SWAP1 POP JUMP JUMPDEST PUSH1 0x0 PUSH2 0xEAB DUP3 PUSH2 0xE49 JUMP JUMPDEST PUSH2 0xEB5 DUP2 DUP6 PUSH2 0xE54 JUMP JUMPDEST SWAP4 POP PUSH2 0xEC5 DUP2 DUP6 PUSH1 0x20 DUP7 ADD PUSH2 0xE65 JUMP JUMPDEST PUSH2 0xECE DUP2 PUSH2 0xE8F JUMP JUMPDEST DUP5 ADD SWAP2 POP POP SWAP3 SWAP2 POP POP JUMP JUMPDEST PUSH1 0x0 PUSH1 0x60 DUP3 ADD SWAP1 POP PUSH2 0xEEE PUSH1 0x0 DUP4 ADD DUP7 PUSH2 0xD02 JUMP JUMPDEST PUSH2 0xEFB PUSH1 0x20 DUP4 ADD DUP6 PUSH2 0xC98 JUMP JUMPDEST DUP2 DUP2 SUB PUSH1 0x40 DUP4 ADD MSTORE PUSH2 0xF0D DUP2 DUP5 PUSH2 0xEA0 JUMP JUMPDEST SWAP1 POP SWAP5 SWAP4 POP POP POP POP JUMP JUMPDEST PUSH1 0x0 DUP1 REVERT JUMPDEST PUSH1 0x0 DUP1 REVERT JUMPDEST PUSH32 0x4E487B7100000000000000000000000000000000000000000000000000000000 PUSH1 0x0 MSTORE PUSH1 0x41 PUSH1 0x4 MSTORE PUSH1 0x24 PUSH1 0x0 REVERT JUMPDEST PUSH2 0xF59 DUP3 PUSH2 0xE8F JUMP JUMPDEST DUP2 ADD DUP2 DUP2 LT PUSH8 0xFFFFFFFFFFFFFFFF DUP3 GT OR ISZERO PUSH2 0xF78 JUMPI PUSH2 0xF77 PUSH2 0xF21 JUMP JUMPDEST JUMPDEST DUP1 PUSH1 0x40 MSTORE POP POP POP JUMP JUMPDEST PUSH1 0x0 PUSH2 0xF8B PUSH2 0xD2C JUMP JUMPDEST SWAP1 POP PUSH2 0xF97 DUP3 DUP3 PUSH2 0xF50 JUMP JUMPDEST SWAP2 SWAP1 POP JUMP JUMPDEST PUSH1 0x0 PUSH8 0xFFFFFFFFFFFFFFFF DUP3 GT ISZERO PUSH2 0xFB7 JUMPI PUSH2 0xFB6 PUSH2 0xF21 JUMP JUMPDEST JUMPDEST PUSH2 0xFC0 DUP3 PUSH2 0xE8F JUMP JUMPDEST SWAP1 POP PUSH1 0x20 DUP2 ADD SWAP1 POP SWAP2 SWAP1 POP JUMP JUMPDEST DUP3 DUP2 DUP4 CALLDATACOPY PUSH1 0x0 DUP4 DUP4 ADD MSTORE POP POP POP JUMP JUMPDEST PUSH1 0x0 PUSH2 0xFEF PUSH2 0xFEA DUP5 PUSH2 0xF9C JUMP JUMPDEST PUSH2 0xF81 JUMP JUMPDEST SWAP1 POP DUP3 DUP2 MSTORE PUSH1 0x20 DUP2 ADD DUP5 DUP5 DUP5 ADD GT ISZERO PUSH2 0x100B JUMPI PUSH2 0x100A PUSH2 0xF1C JUMP JUMPDEST JUMPDEST PUSH2 0x1016 DUP5 DUP3 DUP6 PUSH2 0xFCD JUMP JUMPDEST POP SWAP4 SWAP3 POP POP POP JUMP JUMPDEST PUSH1 0x0 DUP3 PUSH1 0x1F DUP4 ADD SLT PUSH2 0x1033 JUMPI PUSH2 0x1032 PUSH2 0xF17 JUMP JUMPDEST JUMPDEST DUP2 CALLDATALOAD PUSH2 0x1043 DUP5 DUP3 PUSH1 0x20 DUP7 ADD PUSH2 0xFDC JUMP JUMPDEST SWAP2 POP POP SWAP3 SWAP2 POP POP JUMP JUMPDEST PUSH1 0x0 DUP1 PUSH1 0x0 PUSH1 0x60 DUP5 DUP7 SUB SLT ISZERO PUSH2 0x1065 JUMPI PUSH2 0x1064 PUSH2 0xD36 JUMP JUMPDEST JUMPDEST PUSH1 0x0 PUSH2 0x1073 DUP7 DUP3 DUP8 ADD PUSH2 0xD57 JUMP JUMPDEST SWAP4 POP POP PUSH1 0x20 PUSH2 0x1084 DUP7 DUP3 DUP8 ADD PUSH2 0xD83 JUMP JUMPDEST SWAP3 POP POP PUSH1 0x40 DUP5 ADD CALLDATALOAD PUSH8 0xFFFFFFFFFFFFFFFF DUP2 GT ISZERO PUSH2 0x10A5 JUMPI PUSH2 0x10A4 PUSH2 0xD3B JUMP JUMPDEST JUMPDEST PUSH2 0x10B1 DUP7 DUP3 DUP8 ADD PUSH2 0x101E JUMP JUMPDEST SWAP2 POP POP SWAP3 POP SWAP3 POP SWAP3 JUMP JUMPDEST PUSH1 0x0 PUSH1 0x20 DUP3 DUP5 SUB SLT ISZERO PUSH2 0x10D1 JUMPI PUSH2 0x10D0 PUSH2 0xD36 JUMP JUMPDEST JUMPDEST PUSH1 0x0 PUSH2 0x10DF DUP5 DUP3 DUP6 ADD PUSH2 0xD57 JUMP JUMPDEST SWAP2 POP POP SWAP3 SWAP2 POP POP JUMP JUMPDEST PUSH1 0x0 DUP2 MLOAD SWAP1 POP SWAP2 SWAP1 POP JUMP JUMPDEST PUSH1 0x0 DUP3 DUP3 MSTORE PUSH1 0x20 DUP3 ADD SWAP1 POP SWAP3 SWAP2 POP POP JUMP JUMPDEST PUSH1 0x0 DUP2 SWAP1 POP PUSH1 0x20 DUP3 ADD SWAP1 POP SWAP2 SWAP1 POP JUMP JUMPDEST PUSH2 0x111D DUP2 PUSH2 0xC8E JUMP JUMPDEST DUP3 MSTORE POP POP JUMP JUMPDEST PUSH1 0x0 PUSH2 0x112F DUP4 DUP4 PUSH2 0x1114 JUMP JUMPDEST PUSH1 0x20 DUP4 ADD SWAP1 POP SWAP3 SWAP2 POP POP JUMP JUMPDEST PUSH1 0x0 PUSH1 0x20 DUP3 ADD SWAP1 POP SWAP2 SWAP1 POP JUMP JUMPDEST PUSH1 0x0 PUSH2 0x1153 DUP3 PUSH2 0x10E8 JUMP JUMPDEST PUSH2 0x115D DUP2 DUP6 PUSH2 0x10F3 JUMP JUMPDEST SWAP4 POP PUSH2 0x1168 DUP4 PUSH2 0x1104 JUMP JUMPDEST DUP1 PUSH1 0x0 JUMPDEST DUP4 DUP2 LT ISZERO PUSH2 0x1199 JUMPI DUP2 MLOAD PUSH2 0x1180 DUP9 DUP3 PUSH2 0x1123 JUMP JUMPDEST SWAP8 POP PUSH2 0x118B DUP4 PUSH2 0x113B JUMP JUMPDEST SWAP3 POP POP PUSH1 0x1 DUP2 ADD SWAP1 POP PUSH2 0x116C JUMP JUMPDEST POP DUP6 SWAP4 POP POP POP POP SWAP3 SWAP2 POP POP JUMP JUMPDEST PUSH1 0x0 PUSH1 0x20 DUP3 ADD SWAP1 POP DUP2 DUP2 SUB PUSH1 0x0 DUP4 ADD MSTORE PUSH2 0x11C0 DUP2 DUP5 PUSH2 0x1148 JUMP JUMPDEST SWAP1 POP SWAP3 SWAP2 POP POP JUMP JUMPDEST PUSH1 0x0 DUP1 PUSH1 0x0 PUSH1 0x60 DUP5 DUP7 SUB SLT ISZERO PUSH2 0x11E1 JUMPI PUSH2 0x11E0 PUSH2 0xD36 JUMP JUMPDEST JUMPDEST PUSH1 0x0 PUSH2 0x11EF DUP7 DUP3 DUP8 ADD PUSH2 0xD57 JUMP JUMPDEST SWAP4 POP POP PUSH1 0x20 PUSH2 0x1200 DUP7 DUP3 DUP8 ADD PUSH2 0xD57 JUMP JUMPDEST SWAP3 POP POP PUSH1 0x40 PUSH2 0x1211 DUP7 DUP3 DUP8 ADD PUSH2 0xD83 JUMP JUMPDEST SWAP2 POP POP SWAP3 POP SWAP3 POP SWAP3 JUMP JUMPDEST PUSH1 0x0 DUP2 MLOAD SWAP1 POP SWAP2 SWAP1 POP JUMP JUMPDEST PUSH1 0x0 DUP3 DUP3 MSTORE PUSH1 0x20 DUP3 ADD SWAP1 POP SWAP3 SWAP2 POP POP JUMP JUMPDEST PUSH1 0x0 PUSH2 0x1242 DUP3 PUSH2 0x121B JUMP JUMPDEST PUSH2 0x124C DUP2 DUP6 PUSH2 0x1226 JUMP JUMPDEST SWAP4 POP PUSH2 0x125C DUP2 DUP6 PUSH1 0x20 DUP7 ADD PUSH2 0xE65 JUMP JUMPDEST PUSH2 0x1265 DUP2 PUSH2 0xE8F JUMP JUMPDEST DUP5 ADD SWAP2 POP POP SWAP3 SWAP2 POP POP JUMP JUMPDEST PUSH1 0x0 PUSH1 0x20 DUP3 ADD SWAP1 POP DUP2 DUP2 SUB PUSH1 0x0 DUP4 ADD MSTORE PUSH2 0x128A DUP2 DUP5 PUSH2 0x1237 JUMP JUMPDEST SWAP1 POP SWAP3 SWAP2 POP POP JUMP JUMPDEST PUSH32 0x4E487B7100000000000000000000000000000000000000000000000000000000 PUSH1 0x0 MSTORE PUSH1 0x32 PUSH1 0x4 MSTORE PUSH1 0x24 PUSH1 0x0 REVERT JUMPDEST PUSH32 0x4E487B7100000000000000000000000000000000000000000000000000000000 PUSH1 0x0 MSTORE PUSH1 0x22 PUSH1 0x4 MSTORE PUSH1 0x24 PUSH1 0x0 REVERT JUMPDEST PUSH1 0x0 PUSH1 0x2 DUP3 DIV SWAP1 POP PUSH1 0x1 DUP3 AND DUP1 PUSH2 0x1308 JUMPI PUSH1 0x7F DUP3 AND SWAP2 POP JUMPDEST PUSH1 0x20 DUP3 LT DUP2 SUB PUSH2 0x131B JUMPI PUSH2 0x131A PUSH2 0x12C1 JUMP JUMPDEST JUMPDEST POP SWAP2 SWAP1 POP JUMP JUMPDEST PUSH1 0x0 DUP2 SWAP1 POP DUP2 PUSH1 0x0 MSTORE PUSH1 0x20 PUSH1 0x0 KECCAK256 SWAP1 POP SWAP2 SWAP1 POP JUMP JUMPDEST PUSH1 0x0 PUSH1 0x20 PUSH1 0x1F DUP4 ADD DIV SWAP1 POP SWAP2 SWAP1 POP JUMP JUMPDEST PUSH1 0x0 DUP3 DUP3 SHL SWAP1 POP SWAP3 SWAP2 POP POP JUMP JUMPDEST PUSH1 0x0 PUSH1 0x8 DUP4 MUL PUSH2 0x1383 PUSH32 0xFFFFFFFFFFFFFFFFFFFFFFFFFFFFFFFFFFFFFFFFFFFFFFFFFFFFFFFFFFFFFFFF DUP3 PUSH2 0x1346 JUMP JUMPDEST PUSH2 0x138D DUP7 DUP4 PUSH2 0x1346 JUMP JUMPDEST SWAP6 POP DUP1 NOT DUP5 AND SWAP4 POP DUP1 DUP7 AND DUP5 OR SWAP3 POP POP POP SWAP4 SWAP3 POP POP POP JUMP JUMPDEST PUSH1 0x0 DUP2 SWAP1 POP SWAP2 SWAP1 POP JUMP JUMPDEST PUSH1 0x0 PUSH2 0x13CA PUSH2 0x13C5 PUSH2 0x13C0 DUP5 PUSH2 0xC8E JUMP JUMPDEST PUSH2 0x13A5 JUMP JUMPDEST PUSH2 0xC8E JUMP JUMPDEST SWAP1 POP SWAP2 SWAP1 POP JUMP JUMPDEST PUSH1 0x0 DUP2 SWAP1 POP SWAP2 SWAP1 POP JUMP JUMPDEST PUSH2 0x13E4 DUP4 PUSH2 0x13AF JUMP JUMPDEST PUSH2 0x13F8 PUSH2 0x13F0 DUP3 PUSH2 0x13D1 JUMP JUMPDEST DUP5 DUP5 SLOAD PUSH2 0x1353 JUMP JUMPDEST DUP3 SSTORE POP POP POP POP JUMP JUMPDEST PUSH1 0x0 SWAP1 JUMP JUMPDEST PUSH2 0x140D PUSH2 0x1400 JUMP JUMPDEST PUSH2 0x1418 DUP2 DUP5 DUP5 PUSH2 0x13DB JUMP JUMPDEST POP POP POP JUMP JUMPDEST JUMPDEST DUP2 DUP2 LT ISZERO PUSH2 0x143C JUMPI PUSH2 0x1431 PUSH1 0x0 DUP3 PUSH2 0x1405 JUMP JUMPDEST PUSH1 0x1 DUP2 ADD SWAP1 POP PUSH2 0x141E JUMP JUMPDEST POP POP JUMP JUMPDEST PUSH1 0x1F DUP3 GT ISZERO PUSH2 0x1481 JUMPI PUSH2 0x1452 DUP2 PUSH2 0x1321 JUMP JUMPDEST PUSH2 0x145B DUP5 PUSH2 0x1336 JUMP JUMPDEST DUP2 ADD PUSH1 0x20 DUP6 LT ISZERO PUSH2 0x146A JUMPI DUP2 SWAP1 POP JUMPDEST PUSH2 0x147E PUSH2 0x1476 DUP6 PUSH2 0x1336 JUMP JUMPDEST DUP4 ADD DUP3 PUSH2 0x141D JUMP JUMPDEST POP POP JUMPDEST POP POP POP JUMP JUMPDEST PUSH1 0x0 DUP3 DUP3 SHR SWAP1 POP SWAP3 SWAP2 POP POP JUMP JUMPDEST PUSH1 0x0 PUSH2 0x14A4 PUSH1 0x0 NOT DUP5 PUSH1 0x8 MUL PUSH2 0x1486 JUMP JUMPDEST NOT DUP1 DUP4 AND SWAP2 POP POP SWAP3 SWAP2 POP POP JUMP JUMPDEST PUSH1 0x0 PUSH2 0x14BD DUP4 DUP4 PUSH2 0x1493 JUMP JUMPDEST SWAP2 POP DUP3 PUSH1 0x2 MUL DUP3 OR SWAP1 POP SWAP3 SWAP2 POP POP JUMP JUMPDEST PUSH2 0x14D6 DUP3 PUSH2 0xE49 JUMP JUMPDEST PUSH8 0xFFFFFFFFFFFFFFFF DUP2 GT ISZERO PUSH2 0x14EF JUMPI PUSH2 0x14EE PUSH2 0xF21 JUMP JUMPDEST JUMPDEST PUSH2 0x14F9 DUP3 SLOAD PUSH2 0x12F0 JUMP JUMPDEST PUSH2 0x1504 DUP3 DUP3 DUP6 PUSH2 0x1440 JUMP JUMPDEST PUSH1 0x0 PUSH1 0x20 SWAP1 POP PUSH1 0x1F DUP4 GT PUSH1 0x1 DUP2 EQ PUSH2 0x1537 JUMPI PUSH1 0x0 DUP5 ISZERO PUSH2 0x1525 JUMPI DUP3 DUP8 ADD MLOAD SWAP1 POP JUMPDEST PUSH2 0x152F DUP6 DUP3 PUSH2 0x14B1 JUMP JUMPDEST DUP7 SSTORE POP PUSH2 0x1597 JUMP JUMPDEST PUSH1 0x1F NOT DUP5 AND PUSH2 0x1545 DUP7 PUSH2 0x1321 JUMP JUMPDEST PUSH1 0x0 JUMPDEST DUP3 DUP2 LT ISZERO PUSH2 0x156D JUMPI DUP5 DUP10 ADD MLOAD DUP3 SSTORE PUSH1 0x1 DUP3 ADD SWAP2 POP PUSH1 0x20 DUP6 ADD SWAP5 POP PUSH1 0x20 DUP2 ADD SWAP1 POP PUSH2 0x1548 JUMP JUMPDEST DUP7 DUP4 LT ISZERO PUSH2 0x158A JUMPI DUP5 DUP10 ADD MLOAD PUSH2 0x1586 PUSH1 0x1F DUP10 AND DUP3 PUSH2 0x1493 JUMP JUMPDEST DUP4 SSTORE POP JUMPDEST PUSH1 0x1 PUSH1 0x2 DUP9 MUL ADD DUP9 SSTORE POP POP POP JUMPDEST POP POP POP POP POP POP JUMP JUMPDEST PUSH1 0x0 PUSH1 0x40 DUP3 ADD SWAP1 POP PUSH2 0x15B4 PUSH1 0x0 DUP4 ADD DUP6 PUSH2 0xC98 JUMP JUMPDEST DUP2 DUP2 SUB PUSH1 0x20 DUP4 ADD MSTORE PUSH2 0x15C6 DUP2 DUP5 PUSH2 0xEA0 JUMP JUMPDEST SWAP1 POP SWAP4 SWAP3 POP POP POP JUMP JUMPDEST PUSH32 0x4E487B7100000000000000000000000000000000000000000000000000000000 PUSH1 0x0 MSTORE PUSH1 0x11 PUSH1 0x4 MSTORE PUSH1 0x24 PUSH1 0x0 REVERT JUMPDEST PUSH1 0x0 PUSH2 0x1609 DUP3 PUSH2 0xC8E JUMP JUMPDEST SWAP2 POP PUSH2 0x1614 DUP4 PUSH2 0xC8E JUMP JUMPDEST SWAP3 POP DUP3 DUP3 ADD SWAP1 POP DUP1 DUP3 GT ISZERO PUSH2 0x162C JUMPI PUSH2 0x162B PUSH2 0x15CF JUMP JUMPDEST JUMPDEST SWAP3 SWAP2 POP POP JUMP JUMPDEST PUSH1 0x0 PUSH2 0x163D DUP3 PUSH2 0xC8E JUMP JUMPDEST SWAP2 POP PUSH32 0xFFFFFFFFFFFFFFFFFFFFFFFFFFFFFFFFFFFFFFFFFFFFFFFFFFFFFFFFFFFFFFFF DUP3 SUB PUSH2 0x166F JUMPI PUSH2 0x166E PUSH2 0x15CF JUMP JUMPDEST JUMPDEST PUSH1 0x1 DUP3 ADD SWAP1 POP SWAP2 SWAP1 POP JUMP JUMPDEST PUSH32 0x4E487B7100000000000000000000000000000000000000000000000000000000 PUSH1 0x0 MSTORE PUSH1 0x12 PUSH1 0x4 MSTORE PUSH1 0x24 PUSH1 0x0 REVERT JUMPDEST PUSH1 0x0 PUSH2 0x16B4 DUP3 PUSH2 0xC8E JUMP JUMPDEST SWAP2 POP PUSH2 0x16BF DUP4 PUSH2 0xC8E JUMP JUMPDEST SWAP3 POP DUP3 PUSH2 0x16CF JUMPI PUSH2 0x16CE PUSH2 0x167A JUMP JUMPDEST JUMPDEST DUP3 DUP3 DIV SWAP1 POP SWAP3 SWAP2 POP POP JUMP INVALID LOG2 PUSH5 0x6970667358 0x22 SLT KECCAK256 PUSH2 0x5FA7 ORIGIN 0xB4 JUMPI 0xFC BALANCE 0xCA 0xB1 SWAP16 SHR 0x5F 0xE9 0xC6 0x5F 0xBE 0xE6 MSTORE NOT PUSH11 0xD36E8F8655CE7ED313E43B PUSH5 0x736F6C6343 STOP ADDMOD SLT STOP CALLER LOG2 PUSH5 0x6970667358 0x22 SLT KECCAK256 GASLIMIT REVERT JUMP LOG1 0x23 RETURN SWAP4 0x2D MLOAD DUP9 DUP13 0xA9 CALLER DELEGATECALL PUSH11 0xD4F937D52E07AC5D27CC47 GAS 0xAA 0x23 EXP SWAP5 0xFB PUSH5 0x736F6C6343 STOP ADDMOD SLT STOP CALLER "},"gasEstimates":{"creation":{"codeDepositCost":"1954200","executionCost":"2069","totalCost":"1956269"},"external":{"createService(string)":"infinite","deployedOrgNames(uint256)":"infinite","deployedServices(uint256)":"5000","getDeployedServices()":"infinite","orgNames(address)":"infinite"}},"methodIdentifiers":{"createService(string)":"52578012","deployedOrgNames(uint256)":"0b873358","deployedServices(uint256)":"8e8389bf","getDeployedServices()":"9bfba8a9","orgNames(address)":"52be03cf"}},"storageLayout":{"storage":[{"astId":4,"contract":"ServiceChain.sol:Factory","label":"deployedServices","offset":0,"slot":"0","type":"t_array(t_address)dyn_storage"},{"astId":7,"contract":"ServiceChain.sol:Factory","label":"deployedOrgNames","offset":0,"slot":"1","type":"t_array(t_string_storage)dyn_storage"},{"astId":11,"contract":"ServiceChain.sol:Factory","label":"orgNames","offset":0,"slot":"2","type":"t_mapping(t_address,t_string_storage)"}],"types":{"t_address":{"encoding":"inplace","label":"address","numberOfBytes":"20"},"t_array(t_address)dyn_storage":{"base":"t_address","encoding":"dynamic_array","label":"address[]","numberOfBytes":"32"},"t_array(t_string_storage)dyn_storage":{"base":"t_string_storage","encoding":"dynamic_array","label":"string[]","numberOfBytes":"32"},"t_mapping(t_address,t_string_storage)":{"encoding":"mapping","key":"t_address","label":"mapping(address => string)","numberOfBytes":"32","value":"t_string_storage"},"t_string_storage":{"encoding":"bytes","label":"string","numberOfBytes":"32"}}},"userdoc":{"kind":"user","methods":{},"version":1}}