{"abi":[{"inputs":[{"internalType":"string","name":"org","type":"string"},{"internalType":"uint256","name":"hourRate","type":"uint256"}],"name":"createService","outputs":[],"stateMutability":"payable","type":"function"},{"inputs":[{"internalType":"uint256","name":"","type":"uint256"}],"name":"deployedOrgNames","outputs":[{"internalType":"string","name":"","type":"string"}],"stateMutability":"view","type":"function"},{"inputs":[{"internalType":"uint256","name":"","type":"uint256"}],"name":"deployedServices","outputs":[{"internalType":"address","name":"","type":"address"}],"stateMutability":"view","type":"function"},{"inputs":[],"name":"getDeployedServices","outputs":[{"internalType":"address[]","name":"","type":"address[]"}],"stateMutability":"view","type":"function"},{"inputs":[],"name":"manager","outputs":[{"internalType":"address","name":"","type":"address"}],"stateMutability":"view","type":"function"},{"inputs":[{"internalType":"address","name":"","type":"address"}],"name":"orgNames","outputs":[{"internalType":"string","name":"","type":"string"}],"stateMutability":"view","type":"function"}],"devdoc":{"kind":"dev","methods":{},"version":1},"evm":{"assembly":"    /* \"ServiceChain.sol\":28:798  contract Factory{... */\n  mstore(0x40, 0x80)\n  callvalue\n  dup1\n  iszero\n  tag_1\n  jumpi\n  0x00\n  dup1\n  revert\ntag_1:\n  pop\n  dataSize(sub_0)\n  dup1\n  dataOffset(sub_0)\n  0x00\n  codecopy\n  0x00\n  return\nstop\n\nsub_0: assembly {\n        /* \"ServiceChain.sol\":28:798  contract Factory{... */\n      mstore(0x40, 0x80)\n      jumpi(tag_1, lt(calldatasize, 0x04))\n      shr(0xe0, calldataload(0x00))\n      dup1\n      0x0b873358\n      eq\n      tag_2\n      jumpi\n      dup1\n      0x1cf82bd2\n      eq\n      tag_3\n      jumpi\n      dup1\n      0x481c6a75\n      eq\n      tag_4\n      jumpi\n      dup1\n      0x52be03cf\n      eq\n      tag_5\n      jumpi\n      dup1\n      0x8e8389bf\n      eq\n      tag_6\n      jumpi\n      dup1\n      0x9bfba8a9\n      eq\n      tag_7\n      jumpi\n    tag_1:\n      0x00\n      dup1\n      revert\n        /* \"ServiceChain.sol\":91:123  string[] public deployedOrgNames */\n    tag_2:\n      callvalue\n      dup1\n      iszero\n      tag_8\n      jumpi\n      0x00\n      dup1\n      revert\n    tag_8:\n      pop\n      tag_9\n      0x04\n      dup1\n      calldatasize\n      sub\n      dup2\n      add\n      swap1\n      tag_10\n      swap2\n      swap1\n      tag_11\n      jump\t// in\n    tag_10:\n      tag_12\n      jump\t// in\n    tag_9:\n      mload(0x40)\n      tag_13\n      swap2\n      swap1\n      tag_14\n      jump\t// in\n    tag_13:\n      mload(0x40)\n      dup1\n      swap2\n      sub\n      swap1\n      return\n        /* \"ServiceChain.sol\":259:675  function createService( string calldata org,uint hourRate) public payable{... */\n    tag_3:\n      tag_15\n      0x04\n      dup1\n      calldatasize\n      sub\n      dup2\n      add\n      swap1\n      tag_16\n      swap2\n      swap1\n      tag_17\n      jump\t// in\n    tag_16:\n      tag_18\n      jump\t// in\n    tag_15:\n      stop\n        /* \"ServiceChain.sol\":130:152  address public manager */\n    tag_4:\n      callvalue\n      dup1\n      iszero\n      tag_19\n      jumpi\n      0x00\n      dup1\n      revert\n    tag_19:\n      pop\n      tag_20\n      tag_21\n      jump\t// in\n    tag_20:\n      mload(0x40)\n      tag_22\n      swap2\n      swap1\n      tag_23\n      jump\t// in\n    tag_22:\n      mload(0x40)\n      dup1\n      swap2\n      sub\n      swap1\n      return\n        /* \"ServiceChain.sol\":159:199  mapping(address=>string) public orgNames */\n    tag_5:\n      callvalue\n      dup1\n      iszero\n      tag_24\n      jumpi\n      0x00\n      dup1\n      revert\n    tag_24:\n      pop\n      tag_25\n      0x04\n      dup1\n      calldatasize\n      sub\n      dup2\n      add\n      swap1\n      tag_26\n      swap2\n      swap1\n      tag_27\n      jump\t// in\n    tag_26:\n      tag_28\n      jump\t// in\n    tag_25:\n      mload(0x40)\n      tag_29\n      swap2\n      swap1\n      tag_14\n      jump\t// in\n    tag_29:\n      mload(0x40)\n      dup1\n      swap2\n      sub\n      swap1\n      return\n        /* \"ServiceChain.sol\":51:84  address[] public deployedServices */\n    tag_6:\n      callvalue\n      dup1\n      iszero\n      tag_30\n      jumpi\n      0x00\n      dup1\n      revert\n    tag_30:\n      pop\n      tag_31\n      0x04\n      dup1\n      calldatasize\n      sub\n      dup2\n      add\n      swap1\n      tag_32\n      swap2\n      swap1\n      tag_11\n      jump\t// in\n    tag_32:\n      tag_33\n      jump\t// in\n    tag_31:\n      mload(0x40)\n      tag_34\n      swap2\n      swap1\n      tag_23\n      jump\t// in\n    tag_34:\n      mload(0x40)\n      dup1\n      swap2\n      sub\n      swap1\n      return\n        /* \"ServiceChain.sol\":683:793  function getDeployedServices() public view returns(address[] memory){... */\n    tag_7:\n      callvalue\n      dup1\n      iszero\n      tag_35\n      jumpi\n      0x00\n      dup1\n      revert\n    tag_35:\n      pop\n      tag_36\n      tag_37\n      jump\t// in\n    tag_36:\n      mload(0x40)\n      tag_38\n      swap2\n      swap1\n      tag_39\n      jump\t// in\n    tag_38:\n      mload(0x40)\n      dup1\n      swap2\n      sub\n      swap1\n      return\n        /* \"ServiceChain.sol\":91:123  string[] public deployedOrgNames */\n    tag_12:\n      0x01\n      dup2\n      dup2\n      sload\n      dup2\n      lt\n      tag_40\n      jumpi\n      0x00\n      dup1\n      revert\n    tag_40:\n      swap1\n      0x00\n      mstore\n      keccak256(0x00, 0x20)\n      add\n      0x00\n      swap2\n      pop\n      swap1\n      pop\n      dup1\n      sload\n      tag_42\n      swap1\n      tag_43\n      jump\t// in\n    tag_42:\n      dup1\n      0x1f\n      add\n      0x20\n      dup1\n      swap2\n      div\n      mul\n      0x20\n      add\n      mload(0x40)\n      swap1\n      dup2\n      add\n      0x40\n      mstore\n      dup1\n      swap3\n      swap2\n      swap1\n      dup2\n      dup2\n      mstore\n      0x20\n      add\n      dup3\n      dup1\n      sload\n      tag_44\n      swap1\n      tag_43\n      jump\t// in\n    tag_44:\n      dup1\n      iszero\n      tag_45\n      jumpi\n      dup1\n      0x1f\n      lt\n      tag_46\n      jumpi\n      0x0100\n      dup1\n      dup4\n      sload\n      div\n      mul\n      dup4\n      mstore\n      swap2\n      0x20\n      add\n      swap2\n      jump(tag_45)\n    tag_46:\n      dup3\n      add\n      swap2\n      swap1\n      0x00\n      mstore\n      keccak256(0x00, 0x20)\n      swap1\n    tag_47:\n      dup2\n      sload\n      dup2\n      mstore\n      swap1\n      0x01\n      add\n      swap1\n      0x20\n      add\n      dup1\n      dup4\n      gt\n      tag_47\n      jumpi\n      dup3\n      swap1\n      sub\n      0x1f\n      and\n      dup3\n      add\n      swap2\n    tag_45:\n      pop\n      pop\n      pop\n      pop\n      pop\n      dup2\n      jump\t// out\n        /* \"ServiceChain.sol\":259:675  function createService( string calldata org,uint hourRate) public payable{... */\n    tag_18:\n        /* \"ServiceChain.sol\":353:363  msg.sender */\n      caller\n        /* \"ServiceChain.sol\":343:350  manager */\n      0x02\n      0x00\n        /* \"ServiceChain.sol\":343:363  manager = msg.sender */\n      0x0100\n      exp\n      dup2\n      sload\n      dup2\n      0xffffffffffffffffffffffffffffffffffffffff\n      mul\n      not\n      and\n      swap1\n      dup4\n      0xffffffffffffffffffffffffffffffffffffffff\n      and\n      mul\n      or\n      swap1\n      sstore\n      pop\n        /* \"ServiceChain.sol\":374:392  Service newService */\n      0x00\n        /* \"ServiceChain.sol\":407:417  msg.sender */\n      caller\n        /* \"ServiceChain.sol\":418:421  org */\n      dup5\n      dup5\n        /* \"ServiceChain.sol\":422:430  hourRate */\n      dup5\n        /* \"ServiceChain.sol\":395:431  new Service(msg.sender,org,hourRate) */\n      mload(0x40)\n      tag_49\n      swap1\n      tag_50\n      jump\t// in\n    tag_49:\n      tag_51\n      swap5\n      swap4\n      swap3\n      swap2\n      swap1\n      tag_52\n      jump\t// in\n    tag_51:\n      mload(0x40)\n      dup1\n      swap2\n      sub\n      swap1\n      0x00\n      create\n      dup1\n      iszero\n      dup1\n      iszero\n      tag_53\n      jumpi\n      returndatasize\n      0x00\n      dup1\n      returndatacopy\n      revert(0x00, returndatasize)\n    tag_53:\n      pop\n        /* \"ServiceChain.sol\":374:431  Service newService = new Service(msg.sender,org,hourRate) */\n      swap1\n      pop\n        /* \"ServiceChain.sol\":442:458  deployedOrgNames */\n      0x01\n        /* \"ServiceChain.sol\":464:467  org */\n      dup5\n      dup5\n        /* \"ServiceChain.sol\":442:468  deployedOrgNames.push(org) */\n      swap1\n      swap2\n      dup1\n      0x01\n      dup2\n      sload\n      add\n      dup1\n      dup3\n      sstore\n      dup1\n      swap2\n      pop\n      pop\n      0x01\n      swap1\n      sub\n      swap1\n      0x00\n      mstore\n      keccak256(0x00, 0x20)\n      add\n      0x00\n      swap1\n      swap2\n      swap3\n      swap1\n      swap2\n      swap3\n      swap1\n      swap2\n      swap3\n      swap1\n      swap2\n      swap3\n      pop\n      swap2\n      dup3\n      tag_55\n      swap3\n      swap2\n      swap1\n      tag_56\n      jump\t// in\n    tag_55:\n      pop\n        /* \"ServiceChain.sol\":479:502  address newContractAddr */\n      0x00\n        /* \"ServiceChain.sol\":513:523  newService */\n      dup2\n        /* \"ServiceChain.sol\":479:524  address newContractAddr = address(newService) */\n      swap1\n      pop\n        /* \"ServiceChain.sol\":535:551  deployedServices */\n      0x00\n        /* \"ServiceChain.sol\":557:572  newContractAddr */\n      dup2\n        /* \"ServiceChain.sol\":535:573  deployedServices.push(newContractAddr) */\n      swap1\n      dup1\n      0x01\n      dup2\n      sload\n      add\n      dup1\n      dup3\n      sstore\n      dup1\n      swap2\n      pop\n      pop\n      0x01\n      swap1\n      sub\n      swap1\n      0x00\n      mstore\n      keccak256(0x00, 0x20)\n      add\n      0x00\n      swap1\n      swap2\n      swap1\n      swap2\n      swap1\n      swap2\n      0x0100\n      exp\n      dup2\n      sload\n      dup2\n      0xffffffffffffffffffffffffffffffffffffffff\n      mul\n      not\n      and\n      swap1\n      dup4\n      0xffffffffffffffffffffffffffffffffffffffff\n      and\n      mul\n      or\n      swap1\n      sstore\n      pop\n        /* \"ServiceChain.sol\":584:594  newService */\n      dup2\n        /* \"ServiceChain.sol\":584:602  newService.deposit */\n      0xffffffffffffffffffffffffffffffffffffffff\n      and\n      0xd0e30db0\n        /* \"ServiceChain.sol\":609:618  msg.value */\n      callvalue\n        /* \"ServiceChain.sol\":584:621  newService.deposit{value:msg.value}() */\n      mload(0x40)\n      dup3\n      0xffffffff\n      and\n      0xe0\n      shl\n      dup2\n      mstore\n      0x04\n      add\n      0x00\n      mload(0x40)\n      dup1\n      dup4\n      sub\n      dup2\n      dup6\n      dup9\n      dup1\n      extcodesize\n      iszero\n      dup1\n      iszero\n      tag_58\n      jumpi\n      0x00\n      dup1\n      revert\n    tag_58:\n      pop\n      gas\n      call\n      iszero\n      dup1\n      iszero\n      tag_60\n      jumpi\n      returndatasize\n      0x00\n      dup1\n      returndatacopy\n      revert(0x00, returndatasize)\n    tag_60:\n      pop\n      pop\n      pop\n      pop\n      pop\n        /* \"ServiceChain.sol\":664:667  org */\n      dup5\n      dup5\n        /* \"ServiceChain.sol\":632:640  orgNames */\n      0x03\n        /* \"ServiceChain.sol\":632:661  orgNames[address(newService)] */\n      0x00\n        /* \"ServiceChain.sol\":649:659  newService */\n      dup6\n        /* \"ServiceChain.sol\":632:661  orgNames[address(newService)] */\n      0xffffffffffffffffffffffffffffffffffffffff\n      and\n      0xffffffffffffffffffffffffffffffffffffffff\n      and\n      dup2\n      mstore\n      0x20\n      add\n      swap1\n      dup2\n      mstore\n      0x20\n      add\n      0x00\n      keccak256\n        /* \"ServiceChain.sol\":632:667  orgNames[address(newService)] = org */\n      swap2\n      dup3\n      tag_61\n      swap3\n      swap2\n      swap1\n      tag_56\n      jump\t// in\n    tag_61:\n      pop\n        /* \"ServiceChain.sol\":332:675  {... */\n      pop\n      pop\n        /* \"ServiceChain.sol\":259:675  function createService( string calldata org,uint hourRate) public payable{... */\n      pop\n      pop\n      pop\n      jump\t// out\n        /* \"ServiceChain.sol\":130:152  address public manager */\n    tag_21:\n      0x02\n      0x00\n      swap1\n      sload\n      swap1\n      0x0100\n      exp\n      swap1\n      div\n      0xffffffffffffffffffffffffffffffffffffffff\n      and\n      dup2\n      jump\t// out\n        /* \"ServiceChain.sol\":159:199  mapping(address=>string) public orgNames */\n    tag_28:\n      mstore(0x20, 0x03)\n      dup1\n      0x00\n      mstore\n      keccak256(0x00, 0x40)\n      0x00\n      swap2\n      pop\n      swap1\n      pop\n      dup1\n      sload\n      tag_62\n      swap1\n      tag_43\n      jump\t// in\n    tag_62:\n      dup1\n      0x1f\n      add\n      0x20\n      dup1\n      swap2\n      div\n      mul\n      0x20\n      add\n      mload(0x40)\n      swap1\n      dup2\n      add\n      0x40\n      mstore\n      dup1\n      swap3\n      swap2\n      swap1\n      dup2\n      dup2\n      mstore\n      0x20\n      add\n      dup3\n      dup1\n      sload\n      tag_63\n      swap1\n      tag_43\n      jump\t// in\n    tag_63:\n      dup1\n      iszero\n      tag_64\n      jumpi\n      dup1\n      0x1f\n      lt\n      tag_65\n      jumpi\n      0x0100\n      dup1\n      dup4\n      sload\n      div\n      mul\n      dup4\n      mstore\n      swap2\n      0x20\n      add\n      swap2\n      jump(tag_64)\n    tag_65:\n      dup3\n      add\n      swap2\n      swap1\n      0x00\n      mstore\n      keccak256(0x00, 0x20)\n      swap1\n    tag_66:\n      dup2\n      sload\n      dup2\n      mstore\n      swap1\n      0x01\n      add\n      swap1\n      0x20\n      add\n      dup1\n      dup4\n      gt\n      tag_66\n      jumpi\n      dup3\n      swap1\n      sub\n      0x1f\n      and\n      dup3\n      add\n      swap2\n    tag_64:\n      pop\n      pop\n      pop\n      pop\n      pop\n      dup2\n      jump\t// out\n        /* \"ServiceChain.sol\":51:84  address[] public deployedServices */\n    tag_33:\n      0x00\n      dup2\n      dup2\n      sload\n      dup2\n      lt\n      tag_67\n      jumpi\n      0x00\n      dup1\n      revert\n    tag_67:\n      swap1\n      0x00\n      mstore\n      keccak256(0x00, 0x20)\n      add\n      0x00\n      swap2\n      pop\n      sload\n      swap1\n      0x0100\n      exp\n      swap1\n      div\n      0xffffffffffffffffffffffffffffffffffffffff\n      and\n      dup2\n      jump\t// out\n        /* \"ServiceChain.sol\":683:793  function getDeployedServices() public view returns(address[] memory){... */\n    tag_37:\n        /* \"ServiceChain.sol\":734:750  address[] memory */\n      0x60\n        /* \"ServiceChain.sol\":769:785  deployedServices */\n      0x00\n        /* \"ServiceChain.sol\":762:785  return deployedServices */\n      dup1\n      sload\n      dup1\n      0x20\n      mul\n      0x20\n      add\n      mload(0x40)\n      swap1\n      dup2\n      add\n      0x40\n      mstore\n      dup1\n      swap3\n      swap2\n      swap1\n      dup2\n      dup2\n      mstore\n      0x20\n      add\n      dup3\n      dup1\n      sload\n      dup1\n      iszero\n      tag_70\n      jumpi\n      0x20\n      mul\n      dup3\n      add\n      swap2\n      swap1\n      0x00\n      mstore\n      keccak256(0x00, 0x20)\n      swap1\n    tag_71:\n      dup2\n      0x00\n      swap1\n      sload\n      swap1\n      0x0100\n      exp\n      swap1\n      div\n      0xffffffffffffffffffffffffffffffffffffffff\n      and\n      0xffffffffffffffffffffffffffffffffffffffff\n      and\n      dup2\n      mstore\n      0x20\n      add\n      swap1\n      0x01\n      add\n      swap1\n      dup1\n      dup4\n      gt\n      tag_71\n      jumpi\n    tag_70:\n      pop\n      pop\n      pop\n      pop\n      pop\n      swap1\n      pop\n        /* \"ServiceChain.sol\":683:793  function getDeployedServices() public view returns(address[] memory){... */\n      swap1\n      jump\t// out\n    tag_50:\n      dataSize(sub_0)\n      dup1\n      dataOffset(sub_0)\n      dup4\n      codecopy\n      add\n      swap1\n      jump\t// out\n        /* \"#utility.yul\":88:205   */\n    tag_73:\n        /* \"#utility.yul\":197:198   */\n      0x00\n        /* \"#utility.yul\":194:195   */\n      dup1\n        /* \"#utility.yul\":187:199   */\n      revert\n        /* \"#utility.yul\":211:328   */\n    tag_74:\n        /* \"#utility.yul\":320:321   */\n      0x00\n        /* \"#utility.yul\":317:318   */\n      dup1\n        /* \"#utility.yul\":310:322   */\n      revert\n        /* \"#utility.yul\":334:411   */\n    tag_75:\n        /* \"#utility.yul\":371:378   */\n      0x00\n        /* \"#utility.yul\":400:405   */\n      dup2\n        /* \"#utility.yul\":389:405   */\n      swap1\n      pop\n        /* \"#utility.yul\":334:411   */\n      swap2\n      swap1\n      pop\n      jump\t// out\n        /* \"#utility.yul\":417:539   */\n    tag_76:\n        /* \"#utility.yul\":490:514   */\n      tag_126\n        /* \"#utility.yul\":508:513   */\n      dup2\n        /* \"#utility.yul\":490:514   */\n      tag_75\n      jump\t// in\n    tag_126:\n        /* \"#utility.yul\":483:488   */\n      dup2\n        /* \"#utility.yul\":480:515   */\n      eq\n        /* \"#utility.yul\":470:533   */\n      tag_127\n      jumpi\n        /* \"#utility.yul\":529:530   */\n      0x00\n        /* \"#utility.yul\":526:527   */\n      dup1\n        /* \"#utility.yul\":519:531   */\n      revert\n        /* \"#utility.yul\":470:533   */\n    tag_127:\n        /* \"#utility.yul\":417:539   */\n      pop\n      jump\t// out\n        /* \"#utility.yul\":545:684   */\n    tag_77:\n        /* \"#utility.yul\":591:596   */\n      0x00\n        /* \"#utility.yul\":629:635   */\n      dup2\n        /* \"#utility.yul\":616:636   */\n      calldataload\n        /* \"#utility.yul\":607:636   */\n      swap1\n      pop\n        /* \"#utility.yul\":645:678   */\n      tag_129\n        /* \"#utility.yul\":672:677   */\n      dup2\n        /* \"#utility.yul\":645:678   */\n      tag_76\n      jump\t// in\n    tag_129:\n        /* \"#utility.yul\":545:684   */\n      swap3\n      swap2\n      pop\n      pop\n      jump\t// out\n        /* \"#utility.yul\":690:1019   */\n    tag_11:\n        /* \"#utility.yul\":749:755   */\n      0x00\n        /* \"#utility.yul\":798:800   */\n      0x20\n        /* \"#utility.yul\":786:795   */\n      dup3\n        /* \"#utility.yul\":777:784   */\n      dup5\n        /* \"#utility.yul\":773:796   */\n      sub\n        /* \"#utility.yul\":769:801   */\n      slt\n        /* \"#utility.yul\":766:885   */\n      iszero\n      tag_131\n      jumpi\n        /* \"#utility.yul\":804:883   */\n      tag_132\n      tag_73\n      jump\t// in\n    tag_132:\n        /* \"#utility.yul\":766:885   */\n    tag_131:\n        /* \"#utility.yul\":924:925   */\n      0x00\n        /* \"#utility.yul\":949:1002   */\n      tag_133\n        /* \"#utility.yul\":994:1001   */\n      dup5\n        /* \"#utility.yul\":985:991   */\n      dup3\n        /* \"#utility.yul\":974:983   */\n      dup6\n        /* \"#utility.yul\":970:992   */\n      add\n        /* \"#utility.yul\":949:1002   */\n      tag_77\n      jump\t// in\n    tag_133:\n        /* \"#utility.yul\":939:1002   */\n      swap2\n      pop\n        /* \"#utility.yul\":895:1012   */\n      pop\n        /* \"#utility.yul\":690:1019   */\n      swap3\n      swap2\n      pop\n      pop\n      jump\t// out\n        /* \"#utility.yul\":1025:1124   */\n    tag_78:\n        /* \"#utility.yul\":1077:1083   */\n      0x00\n        /* \"#utility.yul\":1111:1116   */\n      dup2\n        /* \"#utility.yul\":1105:1117   */\n      mload\n        /* \"#utility.yul\":1095:1117   */\n      swap1\n      pop\n        /* \"#utility.yul\":1025:1124   */\n      swap2\n      swap1\n      pop\n      jump\t// out\n        /* \"#utility.yul\":1130:1299   */\n    tag_79:\n        /* \"#utility.yul\":1214:1225   */\n      0x00\n        /* \"#utility.yul\":1248:1254   */\n      dup3\n        /* \"#utility.yul\":1243:1246   */\n      dup3\n        /* \"#utility.yul\":1236:1255   */\n      mstore\n        /* \"#utility.yul\":1288:1292   */\n      0x20\n        /* \"#utility.yul\":1283:1286   */\n      dup3\n        /* \"#utility.yul\":1279:1293   */\n      add\n        /* \"#utility.yul\":1264:1293   */\n      swap1\n      pop\n        /* \"#utility.yul\":1130:1299   */\n      swap3\n      swap2\n      pop\n      pop\n      jump\t// out\n        /* \"#utility.yul\":1305:1551   */\n    tag_80:\n        /* \"#utility.yul\":1386:1387   */\n      0x00\n        /* \"#utility.yul\":1396:1509   */\n    tag_137:\n        /* \"#utility.yul\":1410:1416   */\n      dup4\n        /* \"#utility.yul\":1407:1408   */\n      dup2\n        /* \"#utility.yul\":1404:1417   */\n      lt\n        /* \"#utility.yul\":1396:1509   */\n      iszero\n      tag_139\n      jumpi\n        /* \"#utility.yul\":1495:1496   */\n      dup1\n        /* \"#utility.yul\":1490:1493   */\n      dup3\n        /* \"#utility.yul\":1486:1497   */\n      add\n        /* \"#utility.yul\":1480:1498   */\n      mload\n        /* \"#utility.yul\":1476:1477   */\n      dup2\n        /* \"#utility.yul\":1471:1474   */\n      dup5\n        /* \"#utility.yul\":1467:1478   */\n      add\n        /* \"#utility.yul\":1460:1499   */\n      mstore\n        /* \"#utility.yul\":1432:1434   */\n      0x20\n        /* \"#utility.yul\":1429:1430   */\n      dup2\n        /* \"#utility.yul\":1425:1435   */\n      add\n        /* \"#utility.yul\":1420:1435   */\n      swap1\n      pop\n        /* \"#utility.yul\":1396:1509   */\n      jump(tag_137)\n    tag_139:\n        /* \"#utility.yul\":1543:1544   */\n      0x00\n        /* \"#utility.yul\":1534:1540   */\n      dup5\n        /* \"#utility.yul\":1529:1532   */\n      dup5\n        /* \"#utility.yul\":1525:1541   */\n      add\n        /* \"#utility.yul\":1518:1545   */\n      mstore\n        /* \"#utility.yul\":1367:1551   */\n      pop\n        /* \"#utility.yul\":1305:1551   */\n      pop\n      pop\n      pop\n      jump\t// out\n        /* \"#utility.yul\":1557:1659   */\n    tag_81:\n        /* \"#utility.yul\":1598:1604   */\n      0x00\n        /* \"#utility.yul\":1649:1651   */\n      0x1f\n        /* \"#utility.yul\":1645:1652   */\n      not\n        /* \"#utility.yul\":1640:1642   */\n      0x1f\n        /* \"#utility.yul\":1633:1638   */\n      dup4\n        /* \"#utility.yul\":1629:1643   */\n      add\n        /* \"#utility.yul\":1625:1653   */\n      and\n        /* \"#utility.yul\":1615:1653   */\n      swap1\n      pop\n        /* \"#utility.yul\":1557:1659   */\n      swap2\n      swap1\n      pop\n      jump\t// out\n        /* \"#utility.yul\":1665:2042   */\n    tag_82:\n        /* \"#utility.yul\":1753:1756   */\n      0x00\n        /* \"#utility.yul\":1781:1820   */\n      tag_142\n        /* \"#utility.yul\":1814:1819   */\n      dup3\n        /* \"#utility.yul\":1781:1820   */\n      tag_78\n      jump\t// in\n    tag_142:\n        /* \"#utility.yul\":1836:1907   */\n      tag_143\n        /* \"#utility.yul\":1900:1906   */\n      dup2\n        /* \"#utility.yul\":1895:1898   */\n      dup6\n        /* \"#utility.yul\":1836:1907   */\n      tag_79\n      jump\t// in\n    tag_143:\n        /* \"#utility.yul\":1829:1907   */\n      swap4\n      pop\n        /* \"#utility.yul\":1916:1981   */\n      tag_144\n        /* \"#utility.yul\":1974:1980   */\n      dup2\n        /* \"#utility.yul\":1969:1972   */\n      dup6\n        /* \"#utility.yul\":1962:1966   */\n      0x20\n        /* \"#utility.yul\":1955:1960   */\n      dup7\n        /* \"#utility.yul\":1951:1967   */\n      add\n        /* \"#utility.yul\":1916:1981   */\n      tag_80\n      jump\t// in\n    tag_144:\n        /* \"#utility.yul\":2006:2035   */\n      tag_145\n        /* \"#utility.yul\":2028:2034   */\n      dup2\n        /* \"#utility.yul\":2006:2035   */\n      tag_81\n      jump\t// in\n    tag_145:\n        /* \"#utility.yul\":2001:2004   */\n      dup5\n        /* \"#utility.yul\":1997:2036   */\n      add\n        /* \"#utility.yul\":1990:2036   */\n      swap2\n      pop\n        /* \"#utility.yul\":1757:2042   */\n      pop\n        /* \"#utility.yul\":1665:2042   */\n      swap3\n      swap2\n      pop\n      pop\n      jump\t// out\n        /* \"#utility.yul\":2048:2361   */\n    tag_14:\n        /* \"#utility.yul\":2161:2165   */\n      0x00\n        /* \"#utility.yul\":2199:2201   */\n      0x20\n        /* \"#utility.yul\":2188:2197   */\n      dup3\n        /* \"#utility.yul\":2184:2202   */\n      add\n        /* \"#utility.yul\":2176:2202   */\n      swap1\n      pop\n        /* \"#utility.yul\":2248:2257   */\n      dup2\n        /* \"#utility.yul\":2242:2246   */\n      dup2\n        /* \"#utility.yul\":2238:2258   */\n      sub\n        /* \"#utility.yul\":2234:2235   */\n      0x00\n        /* \"#utility.yul\":2223:2232   */\n      dup4\n        /* \"#utility.yul\":2219:2236   */\n      add\n        /* \"#utility.yul\":2212:2259   */\n      mstore\n        /* \"#utility.yul\":2276:2354   */\n      tag_147\n        /* \"#utility.yul\":2349:2353   */\n      dup2\n        /* \"#utility.yul\":2340:2346   */\n      dup5\n        /* \"#utility.yul\":2276:2354   */\n      tag_82\n      jump\t// in\n    tag_147:\n        /* \"#utility.yul\":2268:2354   */\n      swap1\n      pop\n        /* \"#utility.yul\":2048:2361   */\n      swap3\n      swap2\n      pop\n      pop\n      jump\t// out\n        /* \"#utility.yul\":2367:2484   */\n    tag_83:\n        /* \"#utility.yul\":2476:2477   */\n      0x00\n        /* \"#utility.yul\":2473:2474   */\n      dup1\n        /* \"#utility.yul\":2466:2478   */\n      revert\n        /* \"#utility.yul\":2490:2607   */\n    tag_84:\n        /* \"#utility.yul\":2599:2600   */\n      0x00\n        /* \"#utility.yul\":2596:2597   */\n      dup1\n        /* \"#utility.yul\":2589:2601   */\n      revert\n        /* \"#utility.yul\":2613:2730   */\n    tag_85:\n        /* \"#utility.yul\":2722:2723   */\n      0x00\n        /* \"#utility.yul\":2719:2720   */\n      dup1\n        /* \"#utility.yul\":2712:2724   */\n      revert\n        /* \"#utility.yul\":2750:3303   */\n    tag_86:\n        /* \"#utility.yul\":2808:2816   */\n      0x00\n        /* \"#utility.yul\":2818:2824   */\n      dup1\n        /* \"#utility.yul\":2868:2871   */\n      dup4\n        /* \"#utility.yul\":2861:2865   */\n      0x1f\n        /* \"#utility.yul\":2853:2859   */\n      dup5\n        /* \"#utility.yul\":2849:2866   */\n      add\n        /* \"#utility.yul\":2845:2872   */\n      slt\n        /* \"#utility.yul\":2835:2957   */\n      tag_152\n      jumpi\n        /* \"#utility.yul\":2876:2955   */\n      tag_153\n      tag_83\n      jump\t// in\n    tag_153:\n        /* \"#utility.yul\":2835:2957   */\n    tag_152:\n        /* \"#utility.yul\":2989:2995   */\n      dup3\n        /* \"#utility.yul\":2976:2996   */\n      calldataload\n        /* \"#utility.yul\":2966:2996   */\n      swap1\n      pop\n        /* \"#utility.yul\":3019:3037   */\n      0xffffffffffffffff\n        /* \"#utility.yul\":3011:3017   */\n      dup2\n        /* \"#utility.yul\":3008:3038   */\n      gt\n        /* \"#utility.yul\":3005:3122   */\n      iszero\n      tag_154\n      jumpi\n        /* \"#utility.yul\":3041:3120   */\n      tag_155\n      tag_84\n      jump\t// in\n    tag_155:\n        /* \"#utility.yul\":3005:3122   */\n    tag_154:\n        /* \"#utility.yul\":3155:3159   */\n      0x20\n        /* \"#utility.yul\":3147:3153   */\n      dup4\n        /* \"#utility.yul\":3143:3160   */\n      add\n        /* \"#utility.yul\":3131:3160   */\n      swap2\n      pop\n        /* \"#utility.yul\":3209:3212   */\n      dup4\n        /* \"#utility.yul\":3201:3205   */\n      0x01\n        /* \"#utility.yul\":3193:3199   */\n      dup3\n        /* \"#utility.yul\":3189:3206   */\n      mul\n        /* \"#utility.yul\":3179:3187   */\n      dup4\n        /* \"#utility.yul\":3175:3207   */\n      add\n        /* \"#utility.yul\":3172:3213   */\n      gt\n        /* \"#utility.yul\":3169:3297   */\n      iszero\n      tag_156\n      jumpi\n        /* \"#utility.yul\":3216:3295   */\n      tag_157\n      tag_85\n      jump\t// in\n    tag_157:\n        /* \"#utility.yul\":3169:3297   */\n    tag_156:\n        /* \"#utility.yul\":2750:3303   */\n      swap3\n      pop\n      swap3\n      swap1\n      pop\n      jump\t// out\n        /* \"#utility.yul\":3309:3983   */\n    tag_17:\n        /* \"#utility.yul\":3389:3395   */\n      0x00\n        /* \"#utility.yul\":3397:3403   */\n      dup1\n        /* \"#utility.yul\":3405:3411   */\n      0x00\n        /* \"#utility.yul\":3454:3456   */\n      0x40\n        /* \"#utility.yul\":3442:3451   */\n      dup5\n        /* \"#utility.yul\":3433:3440   */\n      dup7\n        /* \"#utility.yul\":3429:3452   */\n      sub\n        /* \"#utility.yul\":3425:3457   */\n      slt\n        /* \"#utility.yul\":3422:3541   */\n      iszero\n      tag_159\n      jumpi\n        /* \"#utility.yul\":3460:3539   */\n      tag_160\n      tag_73\n      jump\t// in\n    tag_160:\n        /* \"#utility.yul\":3422:3541   */\n    tag_159:\n        /* \"#utility.yul\":3608:3609   */\n      0x00\n        /* \"#utility.yul\":3597:3606   */\n      dup5\n        /* \"#utility.yul\":3593:3610   */\n      add\n        /* \"#utility.yul\":3580:3611   */\n      calldataload\n        /* \"#utility.yul\":3638:3656   */\n      0xffffffffffffffff\n        /* \"#utility.yul\":3630:3636   */\n      dup2\n        /* \"#utility.yul\":3627:3657   */\n      gt\n        /* \"#utility.yul\":3624:3741   */\n      iszero\n      tag_161\n      jumpi\n        /* \"#utility.yul\":3660:3739   */\n      tag_162\n      tag_74\n      jump\t// in\n    tag_162:\n        /* \"#utility.yul\":3624:3741   */\n    tag_161:\n        /* \"#utility.yul\":3773:3838   */\n      tag_163\n        /* \"#utility.yul\":3830:3837   */\n      dup7\n        /* \"#utility.yul\":3821:3827   */\n      dup3\n        /* \"#utility.yul\":3810:3819   */\n      dup8\n        /* \"#utility.yul\":3806:3828   */\n      add\n        /* \"#utility.yul\":3773:3838   */\n      tag_86\n      jump\t// in\n    tag_163:\n        /* \"#utility.yul\":3755:3838   */\n      swap4\n      pop\n      swap4\n      pop\n        /* \"#utility.yul\":3551:3848   */\n      pop\n        /* \"#utility.yul\":3887:3889   */\n      0x20\n        /* \"#utility.yul\":3913:3966   */\n      tag_164\n        /* \"#utility.yul\":3958:3965   */\n      dup7\n        /* \"#utility.yul\":3949:3955   */\n      dup3\n        /* \"#utility.yul\":3938:3947   */\n      dup8\n        /* \"#utility.yul\":3934:3956   */\n      add\n        /* \"#utility.yul\":3913:3966   */\n      tag_77\n      jump\t// in\n    tag_164:\n        /* \"#utility.yul\":3903:3966   */\n      swap2\n      pop\n        /* \"#utility.yul\":3858:3976   */\n      pop\n        /* \"#utility.yul\":3309:3983   */\n      swap3\n      pop\n      swap3\n      pop\n      swap3\n      jump\t// out\n        /* \"#utility.yul\":3989:4115   */\n    tag_87:\n        /* \"#utility.yul\":4026:4033   */\n      0x00\n        /* \"#utility.yul\":4066:4108   */\n      0xffffffffffffffffffffffffffffffffffffffff\n        /* \"#utility.yul\":4059:4064   */\n      dup3\n        /* \"#utility.yul\":4055:4109   */\n      and\n        /* \"#utility.yul\":4044:4109   */\n      swap1\n      pop\n        /* \"#utility.yul\":3989:4115   */\n      swap2\n      swap1\n      pop\n      jump\t// out\n        /* \"#utility.yul\":4121:4217   */\n    tag_88:\n        /* \"#utility.yul\":4158:4165   */\n      0x00\n        /* \"#utility.yul\":4187:4211   */\n      tag_167\n        /* \"#utility.yul\":4205:4210   */\n      dup3\n        /* \"#utility.yul\":4187:4211   */\n      tag_87\n      jump\t// in\n    tag_167:\n        /* \"#utility.yul\":4176:4211   */\n      swap1\n      pop\n        /* \"#utility.yul\":4121:4217   */\n      swap2\n      swap1\n      pop\n      jump\t// out\n        /* \"#utility.yul\":4223:4341   */\n    tag_89:\n        /* \"#utility.yul\":4310:4334   */\n      tag_169\n        /* \"#utility.yul\":4328:4333   */\n      dup2\n        /* \"#utility.yul\":4310:4334   */\n      tag_88\n      jump\t// in\n    tag_169:\n        /* \"#utility.yul\":4305:4308   */\n      dup3\n        /* \"#utility.yul\":4298:4335   */\n      mstore\n        /* \"#utility.yul\":4223:4341   */\n      pop\n      pop\n      jump\t// out\n        /* \"#utility.yul\":4347:4569   */\n    tag_23:\n        /* \"#utility.yul\":4440:4444   */\n      0x00\n        /* \"#utility.yul\":4478:4480   */\n      0x20\n        /* \"#utility.yul\":4467:4476   */\n      dup3\n        /* \"#utility.yul\":4463:4481   */\n      add\n        /* \"#utility.yul\":4455:4481   */\n      swap1\n      pop\n        /* \"#utility.yul\":4491:4562   */\n      tag_171\n        /* \"#utility.yul\":4559:4560   */\n      0x00\n        /* \"#utility.yul\":4548:4557   */\n      dup4\n        /* \"#utility.yul\":4544:4561   */\n      add\n        /* \"#utility.yul\":4535:4541   */\n      dup5\n        /* \"#utility.yul\":4491:4562   */\n      tag_89\n      jump\t// in\n    tag_171:\n        /* \"#utility.yul\":4347:4569   */\n      swap3\n      swap2\n      pop\n      pop\n      jump\t// out\n        /* \"#utility.yul\":4575:4697   */\n    tag_90:\n        /* \"#utility.yul\":4648:4672   */\n      tag_173\n        /* \"#utility.yul\":4666:4671   */\n      dup2\n        /* \"#utility.yul\":4648:4672   */\n      tag_88\n      jump\t// in\n    tag_173:\n        /* \"#utility.yul\":4641:4646   */\n      dup2\n        /* \"#utility.yul\":4638:4673   */\n      eq\n        /* \"#utility.yul\":4628:4691   */\n      tag_174\n      jumpi\n        /* \"#utility.yul\":4687:4688   */\n      0x00\n        /* \"#utility.yul\":4684:4685   */\n      dup1\n        /* \"#utility.yul\":4677:4689   */\n      revert\n        /* \"#utility.yul\":4628:4691   */\n    tag_174:\n        /* \"#utility.yul\":4575:4697   */\n      pop\n      jump\t// out\n        /* \"#utility.yul\":4703:4842   */\n    tag_91:\n        /* \"#utility.yul\":4749:4754   */\n      0x00\n        /* \"#utility.yul\":4787:4793   */\n      dup2\n        /* \"#utility.yul\":4774:4794   */\n      calldataload\n        /* \"#utility.yul\":4765:4794   */\n      swap1\n      pop\n        /* \"#utility.yul\":4803:4836   */\n      tag_176\n        /* \"#utility.yul\":4830:4835   */\n      dup2\n        /* \"#utility.yul\":4803:4836   */\n      tag_90\n      jump\t// in\n    tag_176:\n        /* \"#utility.yul\":4703:4842   */\n      swap3\n      swap2\n      pop\n      pop\n      jump\t// out\n        /* \"#utility.yul\":4848:5177   */\n    tag_27:\n        /* \"#utility.yul\":4907:4913   */\n      0x00\n        /* \"#utility.yul\":4956:4958   */\n      0x20\n        /* \"#utility.yul\":4944:4953   */\n      dup3\n        /* \"#utility.yul\":4935:4942   */\n      dup5\n        /* \"#utility.yul\":4931:4954   */\n      sub\n        /* \"#utility.yul\":4927:4959   */\n      slt\n        /* \"#utility.yul\":4924:5043   */\n      iszero\n      tag_178\n      jumpi\n        /* \"#utility.yul\":4962:5041   */\n      tag_179\n      tag_73\n      jump\t// in\n    tag_179:\n        /* \"#utility.yul\":4924:5043   */\n    tag_178:\n        /* \"#utility.yul\":5082:5083   */\n      0x00\n        /* \"#utility.yul\":5107:5160   */\n      tag_180\n        /* \"#utility.yul\":5152:5159   */\n      dup5\n        /* \"#utility.yul\":5143:5149   */\n      dup3\n        /* \"#utility.yul\":5132:5141   */\n      dup6\n        /* \"#utility.yul\":5128:5150   */\n      add\n        /* \"#utility.yul\":5107:5160   */\n      tag_91\n      jump\t// in\n    tag_180:\n        /* \"#utility.yul\":5097:5160   */\n      swap2\n      pop\n        /* \"#utility.yul\":5053:5170   */\n      pop\n        /* \"#utility.yul\":4848:5177   */\n      swap3\n      swap2\n      pop\n      pop\n      jump\t// out\n        /* \"#utility.yul\":5183:5297   */\n    tag_92:\n        /* \"#utility.yul\":5250:5256   */\n      0x00\n        /* \"#utility.yul\":5284:5289   */\n      dup2\n        /* \"#utility.yul\":5278:5290   */\n      mload\n        /* \"#utility.yul\":5268:5290   */\n      swap1\n      pop\n        /* \"#utility.yul\":5183:5297   */\n      swap2\n      swap1\n      pop\n      jump\t// out\n        /* \"#utility.yul\":5303:5487   */\n    tag_93:\n        /* \"#utility.yul\":5402:5413   */\n      0x00\n        /* \"#utility.yul\":5436:5442   */\n      dup3\n        /* \"#utility.yul\":5431:5434   */\n      dup3\n        /* \"#utility.yul\":5424:5443   */\n      mstore\n        /* \"#utility.yul\":5476:5480   */\n      0x20\n        /* \"#utility.yul\":5471:5474   */\n      dup3\n        /* \"#utility.yul\":5467:5481   */\n      add\n        /* \"#utility.yul\":5452:5481   */\n      swap1\n      pop\n        /* \"#utility.yul\":5303:5487   */\n      swap3\n      swap2\n      pop\n      pop\n      jump\t// out\n        /* \"#utility.yul\":5493:5625   */\n    tag_94:\n        /* \"#utility.yul\":5560:5564   */\n      0x00\n        /* \"#utility.yul\":5583:5586   */\n      dup2\n        /* \"#utility.yul\":5575:5586   */\n      swap1\n      pop\n        /* \"#utility.yul\":5613:5617   */\n      0x20\n        /* \"#utility.yul\":5608:5611   */\n      dup3\n        /* \"#utility.yul\":5604:5618   */\n      add\n        /* \"#utility.yul\":5596:5618   */\n      swap1\n      pop\n        /* \"#utility.yul\":5493:5625   */\n      swap2\n      swap1\n      pop\n      jump\t// out\n        /* \"#utility.yul\":5631:5739   */\n    tag_95:\n        /* \"#utility.yul\":5708:5732   */\n      tag_185\n        /* \"#utility.yul\":5726:5731   */\n      dup2\n        /* \"#utility.yul\":5708:5732   */\n      tag_88\n      jump\t// in\n    tag_185:\n        /* \"#utility.yul\":5703:5706   */\n      dup3\n        /* \"#utility.yul\":5696:5733   */\n      mstore\n        /* \"#utility.yul\":5631:5739   */\n      pop\n      pop\n      jump\t// out\n        /* \"#utility.yul\":5745:5924   */\n    tag_96:\n        /* \"#utility.yul\":5814:5824   */\n      0x00\n        /* \"#utility.yul\":5835:5881   */\n      tag_187\n        /* \"#utility.yul\":5877:5880   */\n      dup4\n        /* \"#utility.yul\":5869:5875   */\n      dup4\n        /* \"#utility.yul\":5835:5881   */\n      tag_95\n      jump\t// in\n    tag_187:\n        /* \"#utility.yul\":5913:5917   */\n      0x20\n        /* \"#utility.yul\":5908:5911   */\n      dup4\n        /* \"#utility.yul\":5904:5918   */\n      add\n        /* \"#utility.yul\":5890:5918   */\n      swap1\n      pop\n        /* \"#utility.yul\":5745:5924   */\n      swap3\n      swap2\n      pop\n      pop\n      jump\t// out\n        /* \"#utility.yul\":5930:6043   */\n    tag_97:\n        /* \"#utility.yul\":6000:6004   */\n      0x00\n        /* \"#utility.yul\":6032:6036   */\n      0x20\n        /* \"#utility.yul\":6027:6030   */\n      dup3\n        /* \"#utility.yul\":6023:6037   */\n      add\n        /* \"#utility.yul\":6015:6037   */\n      swap1\n      pop\n        /* \"#utility.yul\":5930:6043   */\n      swap2\n      swap1\n      pop\n      jump\t// out\n        /* \"#utility.yul\":6079:6811   */\n    tag_98:\n        /* \"#utility.yul\":6198:6201   */\n      0x00\n        /* \"#utility.yul\":6227:6281   */\n      tag_190\n        /* \"#utility.yul\":6275:6280   */\n      dup3\n        /* \"#utility.yul\":6227:6281   */\n      tag_92\n      jump\t// in\n    tag_190:\n        /* \"#utility.yul\":6297:6383   */\n      tag_191\n        /* \"#utility.yul\":6376:6382   */\n      dup2\n        /* \"#utility.yul\":6371:6374   */\n      dup6\n        /* \"#utility.yul\":6297:6383   */\n      tag_93\n      jump\t// in\n    tag_191:\n        /* \"#utility.yul\":6290:6383   */\n      swap4\n      pop\n        /* \"#utility.yul\":6407:6463   */\n      tag_192\n        /* \"#utility.yul\":6457:6462   */\n      dup4\n        /* \"#utility.yul\":6407:6463   */\n      tag_94\n      jump\t// in\n    tag_192:\n        /* \"#utility.yul\":6486:6493   */\n      dup1\n        /* \"#utility.yul\":6517:6518   */\n      0x00\n        /* \"#utility.yul\":6502:6786   */\n    tag_193:\n        /* \"#utility.yul\":6527:6533   */\n      dup4\n        /* \"#utility.yul\":6524:6525   */\n      dup2\n        /* \"#utility.yul\":6521:6534   */\n      lt\n        /* \"#utility.yul\":6502:6786   */\n      iszero\n      tag_195\n      jumpi\n        /* \"#utility.yul\":6603:6609   */\n      dup2\n        /* \"#utility.yul\":6597:6610   */\n      mload\n        /* \"#utility.yul\":6630:6693   */\n      tag_196\n        /* \"#utility.yul\":6689:6692   */\n      dup9\n        /* \"#utility.yul\":6674:6687   */\n      dup3\n        /* \"#utility.yul\":6630:6693   */\n      tag_96\n      jump\t// in\n    tag_196:\n        /* \"#utility.yul\":6623:6693   */\n      swap8\n      pop\n        /* \"#utility.yul\":6716:6776   */\n      tag_197\n        /* \"#utility.yul\":6769:6775   */\n      dup4\n        /* \"#utility.yul\":6716:6776   */\n      tag_97\n      jump\t// in\n    tag_197:\n        /* \"#utility.yul\":6706:6776   */\n      swap3\n      pop\n        /* \"#utility.yul\":6562:6786   */\n      pop\n        /* \"#utility.yul\":6549:6550   */\n      0x01\n        /* \"#utility.yul\":6546:6547   */\n      dup2\n        /* \"#utility.yul\":6542:6551   */\n      add\n        /* \"#utility.yul\":6537:6551   */\n      swap1\n      pop\n        /* \"#utility.yul\":6502:6786   */\n      jump(tag_193)\n    tag_195:\n        /* \"#utility.yul\":6506:6520   */\n      pop\n        /* \"#utility.yul\":6802:6805   */\n      dup6\n        /* \"#utility.yul\":6795:6805   */\n      swap4\n      pop\n        /* \"#utility.yul\":6203:6811   */\n      pop\n      pop\n      pop\n        /* \"#utility.yul\":6079:6811   */\n      swap3\n      swap2\n      pop\n      pop\n      jump\t// out\n        /* \"#utility.yul\":6817:7190   */\n    tag_39:\n        /* \"#utility.yul\":6960:6964   */\n      0x00\n        /* \"#utility.yul\":6998:7000   */\n      0x20\n        /* \"#utility.yul\":6987:6996   */\n      dup3\n        /* \"#utility.yul\":6983:7001   */\n      add\n        /* \"#utility.yul\":6975:7001   */\n      swap1\n      pop\n        /* \"#utility.yul\":7047:7056   */\n      dup2\n        /* \"#utility.yul\":7041:7045   */\n      dup2\n        /* \"#utility.yul\":7037:7057   */\n      sub\n        /* \"#utility.yul\":7033:7034   */\n      0x00\n        /* \"#utility.yul\":7022:7031   */\n      dup4\n        /* \"#utility.yul\":7018:7035   */\n      add\n        /* \"#utility.yul\":7011:7058   */\n      mstore\n        /* \"#utility.yul\":7075:7183   */\n      tag_199\n        /* \"#utility.yul\":7178:7182   */\n      dup2\n        /* \"#utility.yul\":7169:7175   */\n      dup5\n        /* \"#utility.yul\":7075:7183   */\n      tag_98\n      jump\t// in\n    tag_199:\n        /* \"#utility.yul\":7067:7183   */\n      swap1\n      pop\n        /* \"#utility.yul\":6817:7190   */\n      swap3\n      swap2\n      pop\n      pop\n      jump\t// out\n        /* \"#utility.yul\":7196:7376   */\n    tag_99:\n        /* \"#utility.yul\":7244:7321   */\n      0x4e487b7100000000000000000000000000000000000000000000000000000000\n        /* \"#utility.yul\":7241:7242   */\n      0x00\n        /* \"#utility.yul\":7234:7322   */\n      mstore\n        /* \"#utility.yul\":7341:7345   */\n      0x22\n        /* \"#utility.yul\":7338:7339   */\n      0x04\n        /* \"#utility.yul\":7331:7346   */\n      mstore\n        /* \"#utility.yul\":7365:7369   */\n      0x24\n        /* \"#utility.yul\":7362:7363   */\n      0x00\n        /* \"#utility.yul\":7355:7370   */\n      revert\n        /* \"#utility.yul\":7382:7702   */\n    tag_43:\n        /* \"#utility.yul\":7426:7432   */\n      0x00\n        /* \"#utility.yul\":7463:7464   */\n      0x02\n        /* \"#utility.yul\":7457:7461   */\n      dup3\n        /* \"#utility.yul\":7453:7465   */\n      div\n        /* \"#utility.yul\":7443:7465   */\n      swap1\n      pop\n        /* \"#utility.yul\":7510:7511   */\n      0x01\n        /* \"#utility.yul\":7504:7508   */\n      dup3\n        /* \"#utility.yul\":7500:7512   */\n      and\n        /* \"#utility.yul\":7531:7549   */\n      dup1\n        /* \"#utility.yul\":7521:7602   */\n      tag_202\n      jumpi\n        /* \"#utility.yul\":7587:7591   */\n      0x7f\n        /* \"#utility.yul\":7579:7585   */\n      dup3\n        /* \"#utility.yul\":7575:7592   */\n      and\n        /* \"#utility.yul\":7565:7592   */\n      swap2\n      pop\n        /* \"#utility.yul\":7521:7602   */\n    tag_202:\n        /* \"#utility.yul\":7649:7651   */\n      0x20\n        /* \"#utility.yul\":7641:7647   */\n      dup3\n        /* \"#utility.yul\":7638:7652   */\n      lt\n        /* \"#utility.yul\":7618:7636   */\n      dup2\n        /* \"#utility.yul\":7615:7653   */\n      sub\n        /* \"#utility.yul\":7612:7696   */\n      tag_203\n      jumpi\n        /* \"#utility.yul\":7668:7686   */\n      tag_204\n      tag_99\n      jump\t// in\n    tag_204:\n        /* \"#utility.yul\":7612:7696   */\n    tag_203:\n        /* \"#utility.yul\":7433:7702   */\n      pop\n        /* \"#utility.yul\":7382:7702   */\n      swap2\n      swap1\n      pop\n      jump\t// out\n        /* \"#utility.yul\":7708:7854   */\n    tag_100:\n        /* \"#utility.yul\":7805:7811   */\n      dup3\n        /* \"#utility.yul\":7800:7803   */\n      dup2\n        /* \"#utility.yul\":7795:7798   */\n      dup4\n        /* \"#utility.yul\":7782:7812   */\n      calldatacopy\n        /* \"#utility.yul\":7846:7847   */\n      0x00\n        /* \"#utility.yul\":7837:7843   */\n      dup4\n        /* \"#utility.yul\":7832:7835   */\n      dup4\n        /* \"#utility.yul\":7828:7844   */\n      add\n        /* \"#utility.yul\":7821:7848   */\n      mstore\n        /* \"#utility.yul\":7708:7854   */\n      pop\n      pop\n      pop\n      jump\t// out\n        /* \"#utility.yul\":7884:8201   */\n    tag_101:\n        /* \"#utility.yul\":7982:7985   */\n      0x00\n        /* \"#utility.yul\":8003:8074   */\n      tag_207\n        /* \"#utility.yul\":8067:8073   */\n      dup4\n        /* \"#utility.yul\":8062:8065   */\n      dup6\n        /* \"#utility.yul\":8003:8074   */\n      tag_79\n      jump\t// in\n    tag_207:\n        /* \"#utility.yul\":7996:8074   */\n      swap4\n      pop\n        /* \"#utility.yul\":8084:8140   */\n      tag_208\n        /* \"#utility.yul\":8133:8139   */\n      dup4\n        /* \"#utility.yul\":8128:8131   */\n      dup6\n        /* \"#utility.yul\":8121:8126   */\n      dup5\n        /* \"#utility.yul\":8084:8140   */\n      tag_100\n      jump\t// in\n    tag_208:\n        /* \"#utility.yul\":8165:8194   */\n      tag_209\n        /* \"#utility.yul\":8187:8193   */\n      dup4\n        /* \"#utility.yul\":8165:8194   */\n      tag_81\n      jump\t// in\n    tag_209:\n        /* \"#utility.yul\":8160:8163   */\n      dup5\n        /* \"#utility.yul\":8156:8195   */\n      add\n        /* \"#utility.yul\":8149:8195   */\n      swap1\n      pop\n        /* \"#utility.yul\":7884:8201   */\n      swap4\n      swap3\n      pop\n      pop\n      pop\n      jump\t// out\n        /* \"#utility.yul\":8207:8325   */\n    tag_102:\n        /* \"#utility.yul\":8294:8318   */\n      tag_211\n        /* \"#utility.yul\":8312:8317   */\n      dup2\n        /* \"#utility.yul\":8294:8318   */\n      tag_75\n      jump\t// in\n    tag_211:\n        /* \"#utility.yul\":8289:8292   */\n      dup3\n        /* \"#utility.yul\":8282:8319   */\n      mstore\n        /* \"#utility.yul\":8207:8325   */\n      pop\n      pop\n      jump\t// out\n        /* \"#utility.yul\":8331:8884   */\n    tag_52:\n        /* \"#utility.yul\":8510:8514   */\n      0x00\n        /* \"#utility.yul\":8548:8550   */\n      0x60\n        /* \"#utility.yul\":8537:8546   */\n      dup3\n        /* \"#utility.yul\":8533:8551   */\n      add\n        /* \"#utility.yul\":8525:8551   */\n      swap1\n      pop\n        /* \"#utility.yul\":8561:8632   */\n      tag_213\n        /* \"#utility.yul\":8629:8630   */\n      0x00\n        /* \"#utility.yul\":8618:8627   */\n      dup4\n        /* \"#utility.yul\":8614:8631   */\n      add\n        /* \"#utility.yul\":8605:8611   */\n      dup8\n        /* \"#utility.yul\":8561:8632   */\n      tag_89\n      jump\t// in\n    tag_213:\n        /* \"#utility.yul\":8679:8688   */\n      dup2\n        /* \"#utility.yul\":8673:8677   */\n      dup2\n        /* \"#utility.yul\":8669:8689   */\n      sub\n        /* \"#utility.yul\":8664:8666   */\n      0x20\n        /* \"#utility.yul\":8653:8662   */\n      dup4\n        /* \"#utility.yul\":8649:8667   */\n      add\n        /* \"#utility.yul\":8642:8690   */\n      mstore\n        /* \"#utility.yul\":8707:8795   */\n      tag_214\n        /* \"#utility.yul\":8790:8794   */\n      dup2\n        /* \"#utility.yul\":8781:8787   */\n      dup6\n        /* \"#utility.yul\":8773:8779   */\n      dup8\n        /* \"#utility.yul\":8707:8795   */\n      tag_101\n      jump\t// in\n    tag_214:\n        /* \"#utility.yul\":8699:8795   */\n      swap1\n      pop\n        /* \"#utility.yul\":8805:8877   */\n      tag_215\n        /* \"#utility.yul\":8873:8875   */\n      0x40\n        /* \"#utility.yul\":8862:8871   */\n      dup4\n        /* \"#utility.yul\":8858:8876   */\n      add\n        /* \"#utility.yul\":8849:8855   */\n      dup5\n        /* \"#utility.yul\":8805:8877   */\n      tag_102\n      jump\t// in\n    tag_215:\n        /* \"#utility.yul\":8331:8884   */\n      swap6\n      swap5\n      pop\n      pop\n      pop\n      pop\n      pop\n      jump\t// out\n        /* \"#utility.yul\":8890:8987   */\n    tag_103:\n        /* \"#utility.yul\":8949:8955   */\n      0x00\n        /* \"#utility.yul\":8977:8980   */\n      dup3\n        /* \"#utility.yul\":8967:8980   */\n      swap1\n      pop\n        /* \"#utility.yul\":8890:8987   */\n      swap3\n      swap2\n      pop\n      pop\n      jump\t// out\n        /* \"#utility.yul\":8993:9173   */\n    tag_104:\n        /* \"#utility.yul\":9041:9118   */\n      0x4e487b7100000000000000000000000000000000000000000000000000000000\n        /* \"#utility.yul\":9038:9039   */\n      0x00\n        /* \"#utility.yul\":9031:9119   */\n      mstore\n        /* \"#utility.yul\":9138:9142   */\n      0x41\n        /* \"#utility.yul\":9135:9136   */\n      0x04\n        /* \"#utility.yul\":9128:9143   */\n      mstore\n        /* \"#utility.yul\":9162:9166   */\n      0x24\n        /* \"#utility.yul\":9159:9160   */\n      0x00\n        /* \"#utility.yul\":9152:9167   */\n      revert\n        /* \"#utility.yul\":9179:9320   */\n    tag_105:\n        /* \"#utility.yul\":9228:9232   */\n      0x00\n        /* \"#utility.yul\":9251:9254   */\n      dup2\n        /* \"#utility.yul\":9243:9254   */\n      swap1\n      pop\n        /* \"#utility.yul\":9274:9277   */\n      dup2\n        /* \"#utility.yul\":9271:9272   */\n      0x00\n        /* \"#utility.yul\":9264:9278   */\n      mstore\n        /* \"#utility.yul\":9308:9312   */\n      0x20\n        /* \"#utility.yul\":9305:9306   */\n      0x00\n        /* \"#utility.yul\":9295:9313   */\n      keccak256\n        /* \"#utility.yul\":9287:9313   */\n      swap1\n      pop\n        /* \"#utility.yul\":9179:9320   */\n      swap2\n      swap1\n      pop\n      jump\t// out\n        /* \"#utility.yul\":9326:9419   */\n    tag_106:\n        /* \"#utility.yul\":9363:9369   */\n      0x00\n        /* \"#utility.yul\":9410:9412   */\n      0x20\n        /* \"#utility.yul\":9405:9407   */\n      0x1f\n        /* \"#utility.yul\":9398:9403   */\n      dup4\n        /* \"#utility.yul\":9394:9408   */\n      add\n        /* \"#utility.yul\":9390:9413   */\n      div\n        /* \"#utility.yul\":9380:9413   */\n      swap1\n      pop\n        /* \"#utility.yul\":9326:9419   */\n      swap2\n      swap1\n      pop\n      jump\t// out\n        /* \"#utility.yul\":9425:9532   */\n    tag_107:\n        /* \"#utility.yul\":9469:9477   */\n      0x00\n        /* \"#utility.yul\":9519:9524   */\n      dup3\n        /* \"#utility.yul\":9513:9517   */\n      dup3\n        /* \"#utility.yul\":9509:9525   */\n      shl\n        /* \"#utility.yul\":9488:9525   */\n      swap1\n      pop\n        /* \"#utility.yul\":9425:9532   */\n      swap3\n      swap2\n      pop\n      pop\n      jump\t// out\n        /* \"#utility.yul\":9538:9931   */\n    tag_108:\n        /* \"#utility.yul\":9607:9613   */\n      0x00\n        /* \"#utility.yul\":9657:9658   */\n      0x08\n        /* \"#utility.yul\":9645:9655   */\n      dup4\n        /* \"#utility.yul\":9641:9659   */\n      mul\n        /* \"#utility.yul\":9680:9777   */\n      tag_222\n        /* \"#utility.yul\":9710:9776   */\n      0xffffffffffffffffffffffffffffffffffffffffffffffffffffffffffffffff\n        /* \"#utility.yul\":9699:9708   */\n      dup3\n        /* \"#utility.yul\":9680:9777   */\n      tag_107\n      jump\t// in\n    tag_222:\n        /* \"#utility.yul\":9798:9837   */\n      tag_223\n        /* \"#utility.yul\":9828:9836   */\n      dup7\n        /* \"#utility.yul\":9817:9826   */\n      dup4\n        /* \"#utility.yul\":9798:9837   */\n      tag_107\n      jump\t// in\n    tag_223:\n        /* \"#utility.yul\":9786:9837   */\n      swap6\n      pop\n        /* \"#utility.yul\":9870:9874   */\n      dup1\n        /* \"#utility.yul\":9866:9875   */\n      not\n        /* \"#utility.yul\":9859:9864   */\n      dup5\n        /* \"#utility.yul\":9855:9876   */\n      and\n        /* \"#utility.yul\":9846:9876   */\n      swap4\n      pop\n        /* \"#utility.yul\":9919:9923   */\n      dup1\n        /* \"#utility.yul\":9909:9917   */\n      dup7\n        /* \"#utility.yul\":9905:9924   */\n      and\n        /* \"#utility.yul\":9898:9903   */\n      dup5\n        /* \"#utility.yul\":9895:9925   */\n      or\n        /* \"#utility.yul\":9885:9925   */\n      swap3\n      pop\n        /* \"#utility.yul\":9614:9931   */\n      pop\n      pop\n        /* \"#utility.yul\":9538:9931   */\n      swap4\n      swap3\n      pop\n      pop\n      pop\n      jump\t// out\n        /* \"#utility.yul\":9937:9997   */\n    tag_109:\n        /* \"#utility.yul\":9965:9968   */\n      0x00\n        /* \"#utility.yul\":9986:9991   */\n      dup2\n        /* \"#utility.yul\":9979:9991   */\n      swap1\n      pop\n        /* \"#utility.yul\":9937:9997   */\n      swap2\n      swap1\n      pop\n      jump\t// out\n        /* \"#utility.yul\":10003:10145   */\n    tag_110:\n        /* \"#utility.yul\":10053:10062   */\n      0x00\n        /* \"#utility.yul\":10086:10139   */\n      tag_226\n        /* \"#utility.yul\":10104:10138   */\n      tag_227\n        /* \"#utility.yul\":10113:10137   */\n      tag_228\n        /* \"#utility.yul\":10131:10136   */\n      dup5\n        /* \"#utility.yul\":10113:10137   */\n      tag_75\n      jump\t// in\n    tag_228:\n        /* \"#utility.yul\":10104:10138   */\n      tag_109\n      jump\t// in\n    tag_227:\n        /* \"#utility.yul\":10086:10139   */\n      tag_75\n      jump\t// in\n    tag_226:\n        /* \"#utility.yul\":10073:10139   */\n      swap1\n      pop\n        /* \"#utility.yul\":10003:10145   */\n      swap2\n      swap1\n      pop\n      jump\t// out\n        /* \"#utility.yul\":10151:10226   */\n    tag_111:\n        /* \"#utility.yul\":10194:10197   */\n      0x00\n        /* \"#utility.yul\":10215:10220   */\n      dup2\n        /* \"#utility.yul\":10208:10220   */\n      swap1\n      pop\n        /* \"#utility.yul\":10151:10226   */\n      swap2\n      swap1\n      pop\n      jump\t// out\n        /* \"#utility.yul\":10232:10501   */\n    tag_112:\n        /* \"#utility.yul\":10342:10381   */\n      tag_231\n        /* \"#utility.yul\":10373:10380   */\n      dup4\n        /* \"#utility.yul\":10342:10381   */\n      tag_110\n      jump\t// in\n    tag_231:\n        /* \"#utility.yul\":10403:10494   */\n      tag_232\n        /* \"#utility.yul\":10452:10493   */\n      tag_233\n        /* \"#utility.yul\":10476:10492   */\n      dup3\n        /* \"#utility.yul\":10452:10493   */\n      tag_111\n      jump\t// in\n    tag_233:\n        /* \"#utility.yul\":10444:10450   */\n      dup5\n        /* \"#utility.yul\":10437:10441   */\n      dup5\n        /* \"#utility.yul\":10431:10442   */\n      sload\n        /* \"#utility.yul\":10403:10494   */\n      tag_108\n      jump\t// in\n    tag_232:\n        /* \"#utility.yul\":10397:10401   */\n      dup3\n        /* \"#utility.yul\":10390:10495   */\n      sstore\n        /* \"#utility.yul\":10308:10501   */\n      pop\n        /* \"#utility.yul\":10232:10501   */\n      pop\n      pop\n      pop\n      jump\t// out\n        /* \"#utility.yul\":10507:10580   */\n    tag_113:\n        /* \"#utility.yul\":10552:10555   */\n      0x00\n        /* \"#utility.yul\":10507:10580   */\n      swap1\n      jump\t// out\n        /* \"#utility.yul\":10586:10775   */\n    tag_114:\n        /* \"#utility.yul\":10663:10695   */\n      tag_236\n      tag_113\n      jump\t// in\n    tag_236:\n        /* \"#utility.yul\":10704:10769   */\n      tag_237\n        /* \"#utility.yul\":10762:10768   */\n      dup2\n        /* \"#utility.yul\":10754:10760   */\n      dup5\n        /* \"#utility.yul\":10748:10752   */\n      dup5\n        /* \"#utility.yul\":10704:10769   */\n      tag_112\n      jump\t// in\n    tag_237:\n        /* \"#utility.yul\":10639:10775   */\n      pop\n        /* \"#utility.yul\":10586:10775   */\n      pop\n      pop\n      jump\t// out\n        /* \"#utility.yul\":10781:10967   */\n    tag_115:\n        /* \"#utility.yul\":10841:10961   */\n    tag_239:\n        /* \"#utility.yul\":10858:10861   */\n      dup2\n        /* \"#utility.yul\":10851:10856   */\n      dup2\n        /* \"#utility.yul\":10848:10862   */\n      lt\n        /* \"#utility.yul\":10841:10961   */\n      iszero\n      tag_241\n      jumpi\n        /* \"#utility.yul\":10912:10951   */\n      tag_242\n        /* \"#utility.yul\":10949:10950   */\n      0x00\n        /* \"#utility.yul\":10942:10947   */\n      dup3\n        /* \"#utility.yul\":10912:10951   */\n      tag_114\n      jump\t// in\n    tag_242:\n        /* \"#utility.yul\":10885:10886   */\n      0x01\n        /* \"#utility.yul\":10878:10883   */\n      dup2\n        /* \"#utility.yul\":10874:10887   */\n      add\n        /* \"#utility.yul\":10865:10887   */\n      swap1\n      pop\n        /* \"#utility.yul\":10841:10961   */\n      jump(tag_239)\n    tag_241:\n        /* \"#utility.yul\":10781:10967   */\n      pop\n      pop\n      jump\t// out\n        /* \"#utility.yul\":10973:11516   */\n    tag_116:\n        /* \"#utility.yul\":11074:11076   */\n      0x1f\n        /* \"#utility.yul\":11069:11072   */\n      dup3\n        /* \"#utility.yul\":11066:11077   */\n      gt\n        /* \"#utility.yul\":11063:11509   */\n      iszero\n      tag_244\n      jumpi\n        /* \"#utility.yul\":11108:11146   */\n      tag_245\n        /* \"#utility.yul\":11140:11145   */\n      dup2\n        /* \"#utility.yul\":11108:11146   */\n      tag_105\n      jump\t// in\n    tag_245:\n        /* \"#utility.yul\":11192:11221   */\n      tag_246\n        /* \"#utility.yul\":11210:11220   */\n      dup5\n        /* \"#utility.yul\":11192:11221   */\n      tag_106\n      jump\t// in\n    tag_246:\n        /* \"#utility.yul\":11182:11190   */\n      dup2\n        /* \"#utility.yul\":11178:11222   */\n      add\n        /* \"#utility.yul\":11375:11377   */\n      0x20\n        /* \"#utility.yul\":11363:11373   */\n      dup6\n        /* \"#utility.yul\":11360:11378   */\n      lt\n        /* \"#utility.yul\":11357:11406   */\n      iszero\n      tag_247\n      jumpi\n        /* \"#utility.yul\":11396:11404   */\n      dup2\n        /* \"#utility.yul\":11381:11404   */\n      swap1\n      pop\n        /* \"#utility.yul\":11357:11406   */\n    tag_247:\n        /* \"#utility.yul\":11419:11499   */\n      tag_248\n        /* \"#utility.yul\":11475:11497   */\n      tag_249\n        /* \"#utility.yul\":11493:11496   */\n      dup6\n        /* \"#utility.yul\":11475:11497   */\n      tag_106\n      jump\t// in\n    tag_249:\n        /* \"#utility.yul\":11465:11473   */\n      dup4\n        /* \"#utility.yul\":11461:11498   */\n      add\n        /* \"#utility.yul\":11448:11459   */\n      dup3\n        /* \"#utility.yul\":11419:11499   */\n      tag_115\n      jump\t// in\n    tag_248:\n        /* \"#utility.yul\":11078:11509   */\n      pop\n      pop\n        /* \"#utility.yul\":11063:11509   */\n    tag_244:\n        /* \"#utility.yul\":10973:11516   */\n      pop\n      pop\n      pop\n      jump\t// out\n        /* \"#utility.yul\":11522:11639   */\n    tag_117:\n        /* \"#utility.yul\":11576:11584   */\n      0x00\n        /* \"#utility.yul\":11626:11631   */\n      dup3\n        /* \"#utility.yul\":11620:11624   */\n      dup3\n        /* \"#utility.yul\":11616:11632   */\n      shr\n        /* \"#utility.yul\":11595:11632   */\n      swap1\n      pop\n        /* \"#utility.yul\":11522:11639   */\n      swap3\n      swap2\n      pop\n      pop\n      jump\t// out\n        /* \"#utility.yul\":11645:11814   */\n    tag_118:\n        /* \"#utility.yul\":11689:11695   */\n      0x00\n        /* \"#utility.yul\":11722:11773   */\n      tag_252\n        /* \"#utility.yul\":11770:11771   */\n      0x00\n        /* \"#utility.yul\":11766:11772   */\n      not\n        /* \"#utility.yul\":11758:11763   */\n      dup5\n        /* \"#utility.yul\":11755:11756   */\n      0x08\n        /* \"#utility.yul\":11751:11764   */\n      mul\n        /* \"#utility.yul\":11722:11773   */\n      tag_117\n      jump\t// in\n    tag_252:\n        /* \"#utility.yul\":11718:11774   */\n      not\n        /* \"#utility.yul\":11803:11807   */\n      dup1\n        /* \"#utility.yul\":11797:11801   */\n      dup4\n        /* \"#utility.yul\":11793:11808   */\n      and\n        /* \"#utility.yul\":11783:11808   */\n      swap2\n      pop\n        /* \"#utility.yul\":11696:11814   */\n      pop\n        /* \"#utility.yul\":11645:11814   */\n      swap3\n      swap2\n      pop\n      pop\n      jump\t// out\n        /* \"#utility.yul\":11819:12114   */\n    tag_119:\n        /* \"#utility.yul\":11895:11899   */\n      0x00\n        /* \"#utility.yul\":12041:12070   */\n      tag_254\n        /* \"#utility.yul\":12066:12069   */\n      dup4\n        /* \"#utility.yul\":12060:12064   */\n      dup4\n        /* \"#utility.yul\":12041:12070   */\n      tag_118\n      jump\t// in\n    tag_254:\n        /* \"#utility.yul\":12033:12070   */\n      swap2\n      pop\n        /* \"#utility.yul\":12103:12106   */\n      dup3\n        /* \"#utility.yul\":12100:12101   */\n      0x02\n        /* \"#utility.yul\":12096:12107   */\n      mul\n        /* \"#utility.yul\":12090:12094   */\n      dup3\n        /* \"#utility.yul\":12087:12108   */\n      or\n        /* \"#utility.yul\":12079:12108   */\n      swap1\n      pop\n        /* \"#utility.yul\":11819:12114   */\n      swap3\n      swap2\n      pop\n      pop\n      jump\t// out\n        /* \"#utility.yul\":12119:13522   */\n    tag_56:\n        /* \"#utility.yul\":12243:12287   */\n      tag_256\n        /* \"#utility.yul\":12283:12286   */\n      dup4\n        /* \"#utility.yul\":12278:12281   */\n      dup4\n        /* \"#utility.yul\":12243:12287   */\n      tag_103\n      jump\t// in\n    tag_256:\n        /* \"#utility.yul\":12352:12370   */\n      0xffffffffffffffff\n        /* \"#utility.yul\":12344:12350   */\n      dup2\n        /* \"#utility.yul\":12341:12371   */\n      gt\n        /* \"#utility.yul\":12338:12394   */\n      iszero\n      tag_257\n      jumpi\n        /* \"#utility.yul\":12374:12392   */\n      tag_258\n      tag_104\n      jump\t// in\n    tag_258:\n        /* \"#utility.yul\":12338:12394   */\n    tag_257:\n        /* \"#utility.yul\":12418:12456   */\n      tag_259\n        /* \"#utility.yul\":12450:12454   */\n      dup3\n        /* \"#utility.yul\":12444:12455   */\n      sload\n        /* \"#utility.yul\":12418:12456   */\n      tag_43\n      jump\t// in\n    tag_259:\n        /* \"#utility.yul\":12503:12570   */\n      tag_260\n        /* \"#utility.yul\":12563:12569   */\n      dup3\n        /* \"#utility.yul\":12555:12561   */\n      dup3\n        /* \"#utility.yul\":12549:12553   */\n      dup6\n        /* \"#utility.yul\":12503:12570   */\n      tag_116\n      jump\t// in\n    tag_260:\n        /* \"#utility.yul\":12597:12598   */\n      0x00\n        /* \"#utility.yul\":12626:12628   */\n      0x1f\n        /* \"#utility.yul\":12618:12624   */\n      dup4\n        /* \"#utility.yul\":12615:12629   */\n      gt\n        /* \"#utility.yul\":12643:12644   */\n      0x01\n        /* \"#utility.yul\":12638:13270   */\n      dup2\n      eq\n      tag_262\n      jumpi\n        /* \"#utility.yul\":13314:13315   */\n      0x00\n        /* \"#utility.yul\":13331:13337   */\n      dup5\n        /* \"#utility.yul\":13328:13412   */\n      iszero\n      tag_263\n      jumpi\n        /* \"#utility.yul\":13387:13396   */\n      dup3\n        /* \"#utility.yul\":13382:13385   */\n      dup8\n        /* \"#utility.yul\":13378:13397   */\n      add\n        /* \"#utility.yul\":13365:13398   */\n      calldataload\n        /* \"#utility.yul\":13356:13398   */\n      swap1\n      pop\n        /* \"#utility.yul\":13328:13412   */\n    tag_263:\n        /* \"#utility.yul\":13438:13505   */\n      tag_264\n        /* \"#utility.yul\":13498:13504   */\n      dup6\n        /* \"#utility.yul\":13491:13496   */\n      dup3\n        /* \"#utility.yul\":13438:13505   */\n      tag_119\n      jump\t// in\n    tag_264:\n        /* \"#utility.yul\":13432:13436   */\n      dup7\n        /* \"#utility.yul\":13425:13506   */\n      sstore\n        /* \"#utility.yul\":13287:13516   */\n      pop\n        /* \"#utility.yul\":12608:13516   */\n      jump(tag_261)\n        /* \"#utility.yul\":12638:13270   */\n    tag_262:\n        /* \"#utility.yul\":12690:12694   */\n      0x1f\n        /* \"#utility.yul\":12686:12695   */\n      not\n        /* \"#utility.yul\":12678:12684   */\n      dup5\n        /* \"#utility.yul\":12674:12696   */\n      and\n        /* \"#utility.yul\":12724:12761   */\n      tag_265\n        /* \"#utility.yul\":12756:12760   */\n      dup7\n        /* \"#utility.yul\":12724:12761   */\n      tag_105\n      jump\t// in\n    tag_265:\n        /* \"#utility.yul\":12783:12784   */\n      0x00\n        /* \"#utility.yul\":12797:13012   */\n    tag_266:\n        /* \"#utility.yul\":12811:12818   */\n      dup3\n        /* \"#utility.yul\":12808:12809   */\n      dup2\n        /* \"#utility.yul\":12805:12819   */\n      lt\n        /* \"#utility.yul\":12797:13012   */\n      iszero\n      tag_268\n      jumpi\n        /* \"#utility.yul\":12897:12906   */\n      dup5\n        /* \"#utility.yul\":12892:12895   */\n      dup10\n        /* \"#utility.yul\":12888:12907   */\n      add\n        /* \"#utility.yul\":12875:12908   */\n      calldataload\n        /* \"#utility.yul\":12867:12873   */\n      dup3\n        /* \"#utility.yul\":12860:12909   */\n      sstore\n        /* \"#utility.yul\":12948:12949   */\n      0x01\n        /* \"#utility.yul\":12940:12946   */\n      dup3\n        /* \"#utility.yul\":12936:12950   */\n      add\n        /* \"#utility.yul\":12926:12950   */\n      swap2\n      pop\n        /* \"#utility.yul\":12995:12997   */\n      0x20\n        /* \"#utility.yul\":12984:12993   */\n      dup6\n        /* \"#utility.yul\":12980:12998   */\n      add\n        /* \"#utility.yul\":12967:12998   */\n      swap5\n      pop\n        /* \"#utility.yul\":12834:12838   */\n      0x20\n        /* \"#utility.yul\":12831:12832   */\n      dup2\n        /* \"#utility.yul\":12827:12839   */\n      add\n        /* \"#utility.yul\":12822:12839   */\n      swap1\n      pop\n        /* \"#utility.yul\":12797:13012   */\n      jump(tag_266)\n    tag_268:\n        /* \"#utility.yul\":13040:13046   */\n      dup7\n        /* \"#utility.yul\":13031:13038   */\n      dup4\n        /* \"#utility.yul\":13028:13047   */\n      lt\n        /* \"#utility.yul\":13025:13211   */\n      iszero\n      tag_269\n      jumpi\n        /* \"#utility.yul\":13105:13114   */\n      dup5\n        /* \"#utility.yul\":13100:13103   */\n      dup10\n        /* \"#utility.yul\":13096:13115   */\n      add\n        /* \"#utility.yul\":13083:13116   */\n      calldataload\n        /* \"#utility.yul\":13148:13196   */\n      tag_270\n        /* \"#utility.yul\":13190:13194   */\n      0x1f\n        /* \"#utility.yul\":13182:13188   */\n      dup10\n        /* \"#utility.yul\":13178:13195   */\n      and\n        /* \"#utility.yul\":13167:13176   */\n      dup3\n        /* \"#utility.yul\":13148:13196   */\n      tag_118\n      jump\t// in\n    tag_270:\n        /* \"#utility.yul\":13140:13146   */\n      dup4\n        /* \"#utility.yul\":13133:13197   */\n      sstore\n        /* \"#utility.yul\":13048:13211   */\n      pop\n        /* \"#utility.yul\":13025:13211   */\n    tag_269:\n        /* \"#utility.yul\":13257:13258   */\n      0x01\n        /* \"#utility.yul\":13253:13254   */\n      0x02\n        /* \"#utility.yul\":13245:13251   */\n      dup9\n        /* \"#utility.yul\":13241:13255   */\n      mul\n        /* \"#utility.yul\":13237:13259   */\n      add\n        /* \"#utility.yul\":13231:13235   */\n      dup9\n        /* \"#utility.yul\":13224:13260   */\n      sstore\n        /* \"#utility.yul\":12645:13270   */\n      pop\n      pop\n      pop\n        /* \"#utility.yul\":12608:13516   */\n    tag_261:\n      pop\n        /* \"#utility.yul\":12218:13522   */\n      pop\n      pop\n      pop\n        /* \"#utility.yul\":12119:13522   */\n      pop\n      pop\n      pop\n      jump\t// out\n    stop\n\n    sub_0: assembly {\n            /* \"ServiceChain.sol\":802:5152  contract Service{... */\n          mstore(0x40, 0x80)\n            /* \"ServiceChain.sol\":1847:2001  constructor(address sender, string memory organization,uint pay) {... */\n          callvalue\n          dup1\n          iszero\n          tag_1\n          jumpi\n          0x00\n          dup1\n          revert\n        tag_1:\n          pop\n          mload(0x40)\n          sub(codesize, bytecodeSize)\n          dup1\n          bytecodeSize\n          dup4\n          codecopy\n          dup2\n          dup2\n          add\n          0x40\n          mstore\n          dup2\n          add\n          swap1\n          tag_2\n          swap2\n          swap1\n          tag_3\n          jump\t// in\n        tag_2:\n            /* \"ServiceChain.sol\":1931:1937  sender */\n          dup3\n            /* \"ServiceChain.sol\":1923:1930  manager */\n          0x03\n          0x00\n            /* \"ServiceChain.sol\":1923:1937  manager=sender */\n          0x0100\n          exp\n          dup2\n          sload\n          dup2\n          0xffffffffffffffffffffffffffffffffffffffff\n          mul\n          not\n          and\n          swap1\n          dup4\n          0xffffffffffffffffffffffffffffffffffffffff\n          and\n          mul\n          or\n          swap1\n          sstore\n          pop\n            /* \"ServiceChain.sol\":1954:1966  organization */\n          dup2\n            /* \"ServiceChain.sol\":1948:1951  org */\n          0x02\n            /* \"ServiceChain.sol\":1948:1966  org = organization */\n          swap1\n          dup2\n          tag_6\n          swap2\n          swap1\n          tag_7\n          jump\t// in\n        tag_6:\n          pop\n            /* \"ServiceChain.sol\":1990:1993  pay */\n          dup1\n            /* \"ServiceChain.sol\":1977:1987  hourlyRate */\n          0x04\n            /* \"ServiceChain.sol\":1977:1993  hourlyRate = pay */\n          dup2\n          swap1\n          sstore\n          pop\n            /* \"ServiceChain.sol\":1847:2001  constructor(address sender, string memory organization,uint pay) {... */\n          pop\n          pop\n          pop\n            /* \"ServiceChain.sol\":802:5152  contract Service{... */\n          jump(tag_8)\n            /* \"#utility.yul\":7:82   */\n        tag_9:\n            /* \"#utility.yul\":40:46   */\n          0x00\n            /* \"#utility.yul\":73:75   */\n          0x40\n            /* \"#utility.yul\":67:76   */\n          mload\n            /* \"#utility.yul\":57:76   */\n          swap1\n          pop\n            /* \"#utility.yul\":7:82   */\n          swap1\n          jump\t// out\n            /* \"#utility.yul\":88:205   */\n        tag_10:\n            /* \"#utility.yul\":197:198   */\n          0x00\n            /* \"#utility.yul\":194:195   */\n          dup1\n            /* \"#utility.yul\":187:199   */\n          revert\n            /* \"#utility.yul\":211:328   */\n        tag_11:\n            /* \"#utility.yul\":320:321   */\n          0x00\n            /* \"#utility.yul\":317:318   */\n          dup1\n            /* \"#utility.yul\":310:322   */\n          revert\n            /* \"#utility.yul\":334:460   */\n        tag_12:\n            /* \"#utility.yul\":371:378   */\n          0x00\n            /* \"#utility.yul\":411:453   */\n          0xffffffffffffffffffffffffffffffffffffffff\n            /* \"#utility.yul\":404:409   */\n          dup3\n            /* \"#utility.yul\":400:454   */\n          and\n            /* \"#utility.yul\":389:454   */\n          swap1\n          pop\n            /* \"#utility.yul\":334:460   */\n          swap2\n          swap1\n          pop\n          jump\t// out\n            /* \"#utility.yul\":466:562   */\n        tag_13:\n            /* \"#utility.yul\":503:510   */\n          0x00\n            /* \"#utility.yul\":532:556   */\n          tag_53\n            /* \"#utility.yul\":550:555   */\n          dup3\n            /* \"#utility.yul\":532:556   */\n          tag_12\n          jump\t// in\n        tag_53:\n            /* \"#utility.yul\":521:556   */\n          swap1\n          pop\n            /* \"#utility.yul\":466:562   */\n          swap2\n          swap1\n          pop\n          jump\t// out\n            /* \"#utility.yul\":568:690   */\n        tag_14:\n            /* \"#utility.yul\":641:665   */\n          tag_55\n            /* \"#utility.yul\":659:664   */\n          dup2\n            /* \"#utility.yul\":641:665   */\n          tag_13\n          jump\t// in\n        tag_55:\n            /* \"#utility.yul\":634:639   */\n          dup2\n            /* \"#utility.yul\":631:666   */\n          eq\n            /* \"#utility.yul\":621:684   */\n          tag_56\n          jumpi\n            /* \"#utility.yul\":680:681   */\n          0x00\n            /* \"#utility.yul\":677:678   */\n          dup1\n            /* \"#utility.yul\":670:682   */\n          revert\n            /* \"#utility.yul\":621:684   */\n        tag_56:\n            /* \"#utility.yul\":568:690   */\n          pop\n          jump\t// out\n            /* \"#utility.yul\":696:839   */\n        tag_15:\n            /* \"#utility.yul\":753:758   */\n          0x00\n            /* \"#utility.yul\":784:790   */\n          dup2\n            /* \"#utility.yul\":778:791   */\n          mload\n            /* \"#utility.yul\":769:791   */\n          swap1\n          pop\n            /* \"#utility.yul\":800:833   */\n          tag_58\n            /* \"#utility.yul\":827:832   */\n          dup2\n            /* \"#utility.yul\":800:833   */\n          tag_14\n          jump\t// in\n        tag_58:\n            /* \"#utility.yul\":696:839   */\n          swap3\n          swap2\n          pop\n          pop\n          jump\t// out\n            /* \"#utility.yul\":845:962   */\n        tag_16:\n            /* \"#utility.yul\":954:955   */\n          0x00\n            /* \"#utility.yul\":951:952   */\n          dup1\n            /* \"#utility.yul\":944:956   */\n          revert\n            /* \"#utility.yul\":968:1085   */\n        tag_17:\n            /* \"#utility.yul\":1077:1078   */\n          0x00\n            /* \"#utility.yul\":1074:1075   */\n          dup1\n            /* \"#utility.yul\":1067:1079   */\n          revert\n            /* \"#utility.yul\":1091:1193   */\n        tag_18:\n            /* \"#utility.yul\":1132:1138   */\n          0x00\n            /* \"#utility.yul\":1183:1185   */\n          0x1f\n            /* \"#utility.yul\":1179:1186   */\n          not\n            /* \"#utility.yul\":1174:1176   */\n          0x1f\n            /* \"#utility.yul\":1167:1172   */\n          dup4\n            /* \"#utility.yul\":1163:1177   */\n          add\n            /* \"#utility.yul\":1159:1187   */\n          and\n            /* \"#utility.yul\":1149:1187   */\n          swap1\n          pop\n            /* \"#utility.yul\":1091:1193   */\n          swap2\n          swap1\n          pop\n          jump\t// out\n            /* \"#utility.yul\":1199:1379   */\n        tag_19:\n            /* \"#utility.yul\":1247:1324   */\n          0x4e487b7100000000000000000000000000000000000000000000000000000000\n            /* \"#utility.yul\":1244:1245   */\n          0x00\n            /* \"#utility.yul\":1237:1325   */\n          mstore\n            /* \"#utility.yul\":1344:1348   */\n          0x41\n            /* \"#utility.yul\":1341:1342   */\n          0x04\n            /* \"#utility.yul\":1334:1349   */\n          mstore\n            /* \"#utility.yul\":1368:1372   */\n          0x24\n            /* \"#utility.yul\":1365:1366   */\n          0x00\n            /* \"#utility.yul\":1358:1373   */\n          revert\n            /* \"#utility.yul\":1385:1666   */\n        tag_20:\n            /* \"#utility.yul\":1468:1495   */\n          tag_64\n            /* \"#utility.yul\":1490:1494   */\n          dup3\n            /* \"#utility.yul\":1468:1495   */\n          tag_18\n          jump\t// in\n        tag_64:\n            /* \"#utility.yul\":1460:1466   */\n          dup2\n            /* \"#utility.yul\":1456:1496   */\n          add\n            /* \"#utility.yul\":1598:1604   */\n          dup2\n            /* \"#utility.yul\":1586:1596   */\n          dup2\n            /* \"#utility.yul\":1583:1605   */\n          lt\n            /* \"#utility.yul\":1562:1580   */\n          0xffffffffffffffff\n            /* \"#utility.yul\":1550:1560   */\n          dup3\n            /* \"#utility.yul\":1547:1581   */\n          gt\n            /* \"#utility.yul\":1544:1606   */\n          or\n            /* \"#utility.yul\":1541:1629   */\n          iszero\n          tag_65\n          jumpi\n            /* \"#utility.yul\":1609:1627   */\n          tag_66\n          tag_19\n          jump\t// in\n        tag_66:\n            /* \"#utility.yul\":1541:1629   */\n        tag_65:\n            /* \"#utility.yul\":1649:1659   */\n          dup1\n            /* \"#utility.yul\":1645:1647   */\n          0x40\n            /* \"#utility.yul\":1638:1660   */\n          mstore\n            /* \"#utility.yul\":1428:1666   */\n          pop\n            /* \"#utility.yul\":1385:1666   */\n          pop\n          pop\n          jump\t// out\n            /* \"#utility.yul\":1672:1801   */\n        tag_21:\n            /* \"#utility.yul\":1706:1712   */\n          0x00\n            /* \"#utility.yul\":1733:1753   */\n          tag_68\n          tag_9\n          jump\t// in\n        tag_68:\n            /* \"#utility.yul\":1723:1753   */\n          swap1\n          pop\n            /* \"#utility.yul\":1762:1795   */\n          tag_69\n            /* \"#utility.yul\":1790:1794   */\n          dup3\n            /* \"#utility.yul\":1782:1788   */\n          dup3\n            /* \"#utility.yul\":1762:1795   */\n          tag_20\n          jump\t// in\n        tag_69:\n            /* \"#utility.yul\":1672:1801   */\n          swap2\n          swap1\n          pop\n          jump\t// out\n            /* \"#utility.yul\":1807:2115   */\n        tag_22:\n            /* \"#utility.yul\":1869:1873   */\n          0x00\n            /* \"#utility.yul\":1959:1977   */\n          0xffffffffffffffff\n            /* \"#utility.yul\":1951:1957   */\n          dup3\n            /* \"#utility.yul\":1948:1978   */\n          gt\n            /* \"#utility.yul\":1945:2001   */\n          iszero\n          tag_71\n          jumpi\n            /* \"#utility.yul\":1981:1999   */\n          tag_72\n          tag_19\n          jump\t// in\n        tag_72:\n            /* \"#utility.yul\":1945:2001   */\n        tag_71:\n            /* \"#utility.yul\":2019:2048   */\n          tag_73\n            /* \"#utility.yul\":2041:2047   */\n          dup3\n            /* \"#utility.yul\":2019:2048   */\n          tag_18\n          jump\t// in\n        tag_73:\n            /* \"#utility.yul\":2011:2048   */\n          swap1\n          pop\n            /* \"#utility.yul\":2103:2107   */\n          0x20\n            /* \"#utility.yul\":2097:2101   */\n          dup2\n            /* \"#utility.yul\":2093:2108   */\n          add\n            /* \"#utility.yul\":2085:2108   */\n          swap1\n          pop\n            /* \"#utility.yul\":1807:2115   */\n          swap2\n          swap1\n          pop\n          jump\t// out\n            /* \"#utility.yul\":2121:2367   */\n        tag_23:\n            /* \"#utility.yul\":2202:2203   */\n          0x00\n            /* \"#utility.yul\":2212:2325   */\n        tag_75:\n            /* \"#utility.yul\":2226:2232   */\n          dup4\n            /* \"#utility.yul\":2223:2224   */\n          dup2\n            /* \"#utility.yul\":2220:2233   */\n          lt\n            /* \"#utility.yul\":2212:2325   */\n          iszero\n          tag_77\n          jumpi\n            /* \"#utility.yul\":2311:2312   */\n          dup1\n            /* \"#utility.yul\":2306:2309   */\n          dup3\n            /* \"#utility.yul\":2302:2313   */\n          add\n            /* \"#utility.yul\":2296:2314   */\n          mload\n            /* \"#utility.yul\":2292:2293   */\n          dup2\n            /* \"#utility.yul\":2287:2290   */\n          dup5\n            /* \"#utility.yul\":2283:2294   */\n          add\n            /* \"#utility.yul\":2276:2315   */\n          mstore\n            /* \"#utility.yul\":2248:2250   */\n          0x20\n            /* \"#utility.yul\":2245:2246   */\n          dup2\n            /* \"#utility.yul\":2241:2251   */\n          add\n            /* \"#utility.yul\":2236:2251   */\n          swap1\n          pop\n            /* \"#utility.yul\":2212:2325   */\n          jump(tag_75)\n        tag_77:\n            /* \"#utility.yul\":2359:2360   */\n          0x00\n            /* \"#utility.yul\":2350:2356   */\n          dup5\n            /* \"#utility.yul\":2345:2348   */\n          dup5\n            /* \"#utility.yul\":2341:2357   */\n          add\n            /* \"#utility.yul\":2334:2361   */\n          mstore\n            /* \"#utility.yul\":2183:2367   */\n          pop\n            /* \"#utility.yul\":2121:2367   */\n          pop\n          pop\n          pop\n          jump\t// out\n            /* \"#utility.yul\":2373:2807   */\n        tag_24:\n            /* \"#utility.yul\":2462:2467   */\n          0x00\n            /* \"#utility.yul\":2487:2553   */\n          tag_79\n            /* \"#utility.yul\":2503:2552   */\n          tag_80\n            /* \"#utility.yul\":2545:2551   */\n          dup5\n            /* \"#utility.yul\":2503:2552   */\n          tag_22\n          jump\t// in\n        tag_80:\n            /* \"#utility.yul\":2487:2553   */\n          tag_21\n          jump\t// in\n        tag_79:\n            /* \"#utility.yul\":2478:2553   */\n          swap1\n          pop\n            /* \"#utility.yul\":2576:2582   */\n          dup3\n            /* \"#utility.yul\":2569:2574   */\n          dup2\n            /* \"#utility.yul\":2562:2583   */\n          mstore\n            /* \"#utility.yul\":2614:2618   */\n          0x20\n            /* \"#utility.yul\":2607:2612   */\n          dup2\n            /* \"#utility.yul\":2603:2619   */\n          add\n            /* \"#utility.yul\":2652:2655   */\n          dup5\n            /* \"#utility.yul\":2643:2649   */\n          dup5\n            /* \"#utility.yul\":2638:2641   */\n          dup5\n            /* \"#utility.yul\":2634:2650   */\n          add\n            /* \"#utility.yul\":2631:2656   */\n          gt\n            /* \"#utility.yul\":2628:2740   */\n          iszero\n          tag_81\n          jumpi\n            /* \"#utility.yul\":2659:2738   */\n          tag_82\n          tag_17\n          jump\t// in\n        tag_82:\n            /* \"#utility.yul\":2628:2740   */\n        tag_81:\n            /* \"#utility.yul\":2749:2801   */\n          tag_83\n            /* \"#utility.yul\":2794:2800   */\n          dup5\n            /* \"#utility.yul\":2789:2792   */\n          dup3\n            /* \"#utility.yul\":2784:2787   */\n          dup6\n            /* \"#utility.yul\":2749:2801   */\n          tag_23\n          jump\t// in\n        tag_83:\n            /* \"#utility.yul\":2468:2807   */\n          pop\n            /* \"#utility.yul\":2373:2807   */\n          swap4\n          swap3\n          pop\n          pop\n          pop\n          jump\t// out\n            /* \"#utility.yul\":2827:3182   */\n        tag_25:\n            /* \"#utility.yul\":2894:2899   */\n          0x00\n            /* \"#utility.yul\":2943:2946   */\n          dup3\n            /* \"#utility.yul\":2936:2940   */\n          0x1f\n            /* \"#utility.yul\":2928:2934   */\n          dup4\n            /* \"#utility.yul\":2924:2941   */\n          add\n            /* \"#utility.yul\":2920:2947   */\n          slt\n            /* \"#utility.yul\":2910:3032   */\n          tag_85\n          jumpi\n            /* \"#utility.yul\":2951:3030   */\n          tag_86\n          tag_16\n          jump\t// in\n        tag_86:\n            /* \"#utility.yul\":2910:3032   */\n        tag_85:\n            /* \"#utility.yul\":3061:3067   */\n          dup2\n            /* \"#utility.yul\":3055:3068   */\n          mload\n            /* \"#utility.yul\":3086:3176   */\n          tag_87\n            /* \"#utility.yul\":3172:3175   */\n          dup5\n            /* \"#utility.yul\":3164:3170   */\n          dup3\n            /* \"#utility.yul\":3157:3161   */\n          0x20\n            /* \"#utility.yul\":3149:3155   */\n          dup7\n            /* \"#utility.yul\":3145:3162   */\n          add\n            /* \"#utility.yul\":3086:3176   */\n          tag_24\n          jump\t// in\n        tag_87:\n            /* \"#utility.yul\":3077:3176   */\n          swap2\n          pop\n            /* \"#utility.yul\":2900:3182   */\n          pop\n            /* \"#utility.yul\":2827:3182   */\n          swap3\n          swap2\n          pop\n          pop\n          jump\t// out\n            /* \"#utility.yul\":3188:3265   */\n        tag_26:\n            /* \"#utility.yul\":3225:3232   */\n          0x00\n            /* \"#utility.yul\":3254:3259   */\n          dup2\n            /* \"#utility.yul\":3243:3259   */\n          swap1\n          pop\n            /* \"#utility.yul\":3188:3265   */\n          swap2\n          swap1\n          pop\n          jump\t// out\n            /* \"#utility.yul\":3271:3393   */\n        tag_27:\n            /* \"#utility.yul\":3344:3368   */\n          tag_90\n            /* \"#utility.yul\":3362:3367   */\n          dup2\n            /* \"#utility.yul\":3344:3368   */\n          tag_26\n          jump\t// in\n        tag_90:\n            /* \"#utility.yul\":3337:3342   */\n          dup2\n            /* \"#utility.yul\":3334:3369   */\n          eq\n            /* \"#utility.yul\":3324:3387   */\n          tag_91\n          jumpi\n            /* \"#utility.yul\":3383:3384   */\n          0x00\n            /* \"#utility.yul\":3380:3381   */\n          dup1\n            /* \"#utility.yul\":3373:3385   */\n          revert\n            /* \"#utility.yul\":3324:3387   */\n        tag_91:\n            /* \"#utility.yul\":3271:3393   */\n          pop\n          jump\t// out\n            /* \"#utility.yul\":3399:3542   */\n        tag_28:\n            /* \"#utility.yul\":3456:3461   */\n          0x00\n            /* \"#utility.yul\":3487:3493   */\n          dup2\n            /* \"#utility.yul\":3481:3494   */\n          mload\n            /* \"#utility.yul\":3472:3494   */\n          swap1\n          pop\n            /* \"#utility.yul\":3503:3536   */\n          tag_93\n            /* \"#utility.yul\":3530:3535   */\n          dup2\n            /* \"#utility.yul\":3503:3536   */\n          tag_27\n          jump\t// in\n        tag_93:\n            /* \"#utility.yul\":3399:3542   */\n          swap3\n          swap2\n          pop\n          pop\n          jump\t// out\n            /* \"#utility.yul\":3548:4384   */\n        tag_3:\n            /* \"#utility.yul\":3646:3652   */\n          0x00\n            /* \"#utility.yul\":3654:3660   */\n          dup1\n            /* \"#utility.yul\":3662:3668   */\n          0x00\n            /* \"#utility.yul\":3711:3713   */\n          0x60\n            /* \"#utility.yul\":3699:3708   */\n          dup5\n            /* \"#utility.yul\":3690:3697   */\n          dup7\n            /* \"#utility.yul\":3686:3709   */\n          sub\n            /* \"#utility.yul\":3682:3714   */\n          slt\n            /* \"#utility.yul\":3679:3798   */\n          iszero\n          tag_95\n          jumpi\n            /* \"#utility.yul\":3717:3796   */\n          tag_96\n          tag_10\n          jump\t// in\n        tag_96:\n            /* \"#utility.yul\":3679:3798   */\n        tag_95:\n            /* \"#utility.yul\":3837:3838   */\n          0x00\n            /* \"#utility.yul\":3862:3926   */\n          tag_97\n            /* \"#utility.yul\":3918:3925   */\n          dup7\n            /* \"#utility.yul\":3909:3915   */\n          dup3\n            /* \"#utility.yul\":3898:3907   */\n          dup8\n            /* \"#utility.yul\":3894:3916   */\n          add\n            /* \"#utility.yul\":3862:3926   */\n          tag_15\n          jump\t// in\n        tag_97:\n            /* \"#utility.yul\":3852:3926   */\n          swap4\n          pop\n            /* \"#utility.yul\":3808:3936   */\n          pop\n            /* \"#utility.yul\":3996:3998   */\n          0x20\n            /* \"#utility.yul\":3985:3994   */\n          dup5\n            /* \"#utility.yul\":3981:3999   */\n          add\n            /* \"#utility.yul\":3975:4000   */\n          mload\n            /* \"#utility.yul\":4027:4045   */\n          0xffffffffffffffff\n            /* \"#utility.yul\":4019:4025   */\n          dup2\n            /* \"#utility.yul\":4016:4046   */\n          gt\n            /* \"#utility.yul\":4013:4130   */\n          iszero\n          tag_98\n          jumpi\n            /* \"#utility.yul\":4049:4128   */\n          tag_99\n          tag_11\n          jump\t// in\n        tag_99:\n            /* \"#utility.yul\":4013:4130   */\n        tag_98:\n            /* \"#utility.yul\":4154:4228   */\n          tag_100\n            /* \"#utility.yul\":4220:4227   */\n          dup7\n            /* \"#utility.yul\":4211:4217   */\n          dup3\n            /* \"#utility.yul\":4200:4209   */\n          dup8\n            /* \"#utility.yul\":4196:4218   */\n          add\n            /* \"#utility.yul\":4154:4228   */\n          tag_25\n          jump\t// in\n        tag_100:\n            /* \"#utility.yul\":4144:4228   */\n          swap3\n          pop\n            /* \"#utility.yul\":3946:4238   */\n          pop\n            /* \"#utility.yul\":4277:4279   */\n          0x40\n            /* \"#utility.yul\":4303:4367   */\n          tag_101\n            /* \"#utility.yul\":4359:4366   */\n          dup7\n            /* \"#utility.yul\":4350:4356   */\n          dup3\n            /* \"#utility.yul\":4339:4348   */\n          dup8\n            /* \"#utility.yul\":4335:4357   */\n          add\n            /* \"#utility.yul\":4303:4367   */\n          tag_28\n          jump\t// in\n        tag_101:\n            /* \"#utility.yul\":4293:4367   */\n          swap2\n          pop\n            /* \"#utility.yul\":4248:4377   */\n          pop\n            /* \"#utility.yul\":3548:4384   */\n          swap3\n          pop\n          swap3\n          pop\n          swap3\n          jump\t// out\n            /* \"#utility.yul\":4390:4489   */\n        tag_29:\n            /* \"#utility.yul\":4442:4448   */\n          0x00\n            /* \"#utility.yul\":4476:4481   */\n          dup2\n            /* \"#utility.yul\":4470:4482   */\n          mload\n            /* \"#utility.yul\":4460:4482   */\n          swap1\n          pop\n            /* \"#utility.yul\":4390:4489   */\n          swap2\n          swap1\n          pop\n          jump\t// out\n            /* \"#utility.yul\":4495:4675   */\n        tag_30:\n            /* \"#utility.yul\":4543:4620   */\n          0x4e487b7100000000000000000000000000000000000000000000000000000000\n            /* \"#utility.yul\":4540:4541   */\n          0x00\n            /* \"#utility.yul\":4533:4621   */\n          mstore\n            /* \"#utility.yul\":4640:4644   */\n          0x22\n            /* \"#utility.yul\":4637:4638   */\n          0x04\n            /* \"#utility.yul\":4630:4645   */\n          mstore\n            /* \"#utility.yul\":4664:4668   */\n          0x24\n            /* \"#utility.yul\":4661:4662   */\n          0x00\n            /* \"#utility.yul\":4654:4669   */\n          revert\n            /* \"#utility.yul\":4681:5001   */\n        tag_31:\n            /* \"#utility.yul\":4725:4731   */\n          0x00\n            /* \"#utility.yul\":4762:4763   */\n          0x02\n            /* \"#utility.yul\":4756:4760   */\n          dup3\n            /* \"#utility.yul\":4752:4764   */\n          div\n            /* \"#utility.yul\":4742:4764   */\n          swap1\n          pop\n            /* \"#utility.yul\":4809:4810   */\n          0x01\n            /* \"#utility.yul\":4803:4807   */\n          dup3\n            /* \"#utility.yul\":4799:4811   */\n          and\n            /* \"#utility.yul\":4830:4848   */\n          dup1\n            /* \"#utility.yul\":4820:4901   */\n          tag_105\n          jumpi\n            /* \"#utility.yul\":4886:4890   */\n          0x7f\n            /* \"#utility.yul\":4878:4884   */\n          dup3\n            /* \"#utility.yul\":4874:4891   */\n          and\n            /* \"#utility.yul\":4864:4891   */\n          swap2\n          pop\n            /* \"#utility.yul\":4820:4901   */\n        tag_105:\n            /* \"#utility.yul\":4948:4950   */\n          0x20\n            /* \"#utility.yul\":4940:4946   */\n          dup3\n            /* \"#utility.yul\":4937:4951   */\n          lt\n            /* \"#utility.yul\":4917:4935   */\n          dup2\n            /* \"#utility.yul\":4914:4952   */\n          sub\n            /* \"#utility.yul\":4911:4995   */\n          tag_106\n          jumpi\n            /* \"#utility.yul\":4967:4985   */\n          tag_107\n          tag_30\n          jump\t// in\n        tag_107:\n            /* \"#utility.yul\":4911:4995   */\n        tag_106:\n            /* \"#utility.yul\":4732:5001   */\n          pop\n            /* \"#utility.yul\":4681:5001   */\n          swap2\n          swap1\n          pop\n          jump\t// out\n            /* \"#utility.yul\":5007:5148   */\n        tag_32:\n            /* \"#utility.yul\":5056:5060   */\n          0x00\n            /* \"#utility.yul\":5079:5082   */\n          dup2\n            /* \"#utility.yul\":5071:5082   */\n          swap1\n          pop\n            /* \"#utility.yul\":5102:5105   */\n          dup2\n            /* \"#utility.yul\":5099:5100   */\n          0x00\n            /* \"#utility.yul\":5092:5106   */\n          mstore\n            /* \"#utility.yul\":5136:5140   */\n          0x20\n            /* \"#utility.yul\":5133:5134   */\n          0x00\n            /* \"#utility.yul\":5123:5141   */\n          keccak256\n            /* \"#utility.yul\":5115:5141   */\n          swap1\n          pop\n            /* \"#utility.yul\":5007:5148   */\n          swap2\n          swap1\n          pop\n          jump\t// out\n            /* \"#utility.yul\":5154:5247   */\n        tag_33:\n            /* \"#utility.yul\":5191:5197   */\n          0x00\n            /* \"#utility.yul\":5238:5240   */\n          0x20\n            /* \"#utility.yul\":5233:5235   */\n          0x1f\n            /* \"#utility.yul\":5226:5231   */\n          dup4\n            /* \"#utility.yul\":5222:5236   */\n          add\n            /* \"#utility.yul\":5218:5241   */\n          div\n            /* \"#utility.yul\":5208:5241   */\n          swap1\n          pop\n            /* \"#utility.yul\":5154:5247   */\n          swap2\n          swap1\n          pop\n          jump\t// out\n            /* \"#utility.yul\":5253:5360   */\n        tag_34:\n            /* \"#utility.yul\":5297:5305   */\n          0x00\n            /* \"#utility.yul\":5347:5352   */\n          dup3\n            /* \"#utility.yul\":5341:5345   */\n          dup3\n            /* \"#utility.yul\":5337:5353   */\n          shl\n            /* \"#utility.yul\":5316:5353   */\n          swap1\n          pop\n            /* \"#utility.yul\":5253:5360   */\n          swap3\n          swap2\n          pop\n          pop\n          jump\t// out\n            /* \"#utility.yul\":5366:5759   */\n        tag_35:\n            /* \"#utility.yul\":5435:5441   */\n          0x00\n            /* \"#utility.yul\":5485:5486   */\n          0x08\n            /* \"#utility.yul\":5473:5483   */\n          dup4\n            /* \"#utility.yul\":5469:5487   */\n          mul\n            /* \"#utility.yul\":5508:5605   */\n          tag_112\n            /* \"#utility.yul\":5538:5604   */\n          0xffffffffffffffffffffffffffffffffffffffffffffffffffffffffffffffff\n            /* \"#utility.yul\":5527:5536   */\n          dup3\n            /* \"#utility.yul\":5508:5605   */\n          tag_34\n          jump\t// in\n        tag_112:\n            /* \"#utility.yul\":5626:5665   */\n          tag_113\n            /* \"#utility.yul\":5656:5664   */\n          dup7\n            /* \"#utility.yul\":5645:5654   */\n          dup4\n            /* \"#utility.yul\":5626:5665   */\n          tag_34\n          jump\t// in\n        tag_113:\n            /* \"#utility.yul\":5614:5665   */\n          swap6\n          pop\n            /* \"#utility.yul\":5698:5702   */\n          dup1\n            /* \"#utility.yul\":5694:5703   */\n          not\n            /* \"#utility.yul\":5687:5692   */\n          dup5\n            /* \"#utility.yul\":5683:5704   */\n          and\n            /* \"#utility.yul\":5674:5704   */\n          swap4\n          pop\n            /* \"#utility.yul\":5747:5751   */\n          dup1\n            /* \"#utility.yul\":5737:5745   */\n          dup7\n            /* \"#utility.yul\":5733:5752   */\n          and\n            /* \"#utility.yul\":5726:5731   */\n          dup5\n            /* \"#utility.yul\":5723:5753   */\n          or\n            /* \"#utility.yul\":5713:5753   */\n          swap3\n          pop\n            /* \"#utility.yul\":5442:5759   */\n          pop\n          pop\n            /* \"#utility.yul\":5366:5759   */\n          swap4\n          swap3\n          pop\n          pop\n          pop\n          jump\t// out\n            /* \"#utility.yul\":5765:5825   */\n        tag_36:\n            /* \"#utility.yul\":5793:5796   */\n          0x00\n            /* \"#utility.yul\":5814:5819   */\n          dup2\n            /* \"#utility.yul\":5807:5819   */\n          swap1\n          pop\n            /* \"#utility.yul\":5765:5825   */\n          swap2\n          swap1\n          pop\n          jump\t// out\n            /* \"#utility.yul\":5831:5973   */\n        tag_37:\n            /* \"#utility.yul\":5881:5890   */\n          0x00\n            /* \"#utility.yul\":5914:5967   */\n          tag_116\n            /* \"#utility.yul\":5932:5966   */\n          tag_117\n            /* \"#utility.yul\":5941:5965   */\n          tag_118\n            /* \"#utility.yul\":5959:5964   */\n          dup5\n            /* \"#utility.yul\":5941:5965   */\n          tag_26\n          jump\t// in\n        tag_118:\n            /* \"#utility.yul\":5932:5966   */\n          tag_36\n          jump\t// in\n        tag_117:\n            /* \"#utility.yul\":5914:5967   */\n          tag_26\n          jump\t// in\n        tag_116:\n            /* \"#utility.yul\":5901:5967   */\n          swap1\n          pop\n            /* \"#utility.yul\":5831:5973   */\n          swap2\n          swap1\n          pop\n          jump\t// out\n            /* \"#utility.yul\":5979:6054   */\n        tag_38:\n            /* \"#utility.yul\":6022:6025   */\n          0x00\n            /* \"#utility.yul\":6043:6048   */\n          dup2\n            /* \"#utility.yul\":6036:6048   */\n          swap1\n          pop\n            /* \"#utility.yul\":5979:6054   */\n          swap2\n          swap1\n          pop\n          jump\t// out\n            /* \"#utility.yul\":6060:6329   */\n        tag_39:\n            /* \"#utility.yul\":6170:6209   */\n          tag_121\n            /* \"#utility.yul\":6201:6208   */\n          dup4\n            /* \"#utility.yul\":6170:6209   */\n          tag_37\n          jump\t// in\n        tag_121:\n            /* \"#utility.yul\":6231:6322   */\n          tag_122\n            /* \"#utility.yul\":6280:6321   */\n          tag_123\n            /* \"#utility.yul\":6304:6320   */\n          dup3\n            /* \"#utility.yul\":6280:6321   */\n          tag_38\n          jump\t// in\n        tag_123:\n            /* \"#utility.yul\":6272:6278   */\n          dup5\n            /* \"#utility.yul\":6265:6269   */\n          dup5\n            /* \"#utility.yul\":6259:6270   */\n          sload\n            /* \"#utility.yul\":6231:6322   */\n          tag_35\n          jump\t// in\n        tag_122:\n            /* \"#utility.yul\":6225:6229   */\n          dup3\n            /* \"#utility.yul\":6218:6323   */\n          sstore\n            /* \"#utility.yul\":6136:6329   */\n          pop\n            /* \"#utility.yul\":6060:6329   */\n          pop\n          pop\n          pop\n          jump\t// out\n            /* \"#utility.yul\":6335:6408   */\n        tag_40:\n            /* \"#utility.yul\":6380:6383   */\n          0x00\n            /* \"#utility.yul\":6335:6408   */\n          swap1\n          jump\t// out\n            /* \"#utility.yul\":6414:6603   */\n        tag_41:\n            /* \"#utility.yul\":6491:6523   */\n          tag_126\n          tag_40\n          jump\t// in\n        tag_126:\n            /* \"#utility.yul\":6532:6597   */\n          tag_127\n            /* \"#utility.yul\":6590:6596   */\n          dup2\n            /* \"#utility.yul\":6582:6588   */\n          dup5\n            /* \"#utility.yul\":6576:6580   */\n          dup5\n            /* \"#utility.yul\":6532:6597   */\n          tag_39\n          jump\t// in\n        tag_127:\n            /* \"#utility.yul\":6467:6603   */\n          pop\n            /* \"#utility.yul\":6414:6603   */\n          pop\n          pop\n          jump\t// out\n            /* \"#utility.yul\":6609:6795   */\n        tag_42:\n            /* \"#utility.yul\":6669:6789   */\n        tag_129:\n            /* \"#utility.yul\":6686:6689   */\n          dup2\n            /* \"#utility.yul\":6679:6684   */\n          dup2\n            /* \"#utility.yul\":6676:6690   */\n          lt\n            /* \"#utility.yul\":6669:6789   */\n          iszero\n          tag_131\n          jumpi\n            /* \"#utility.yul\":6740:6779   */\n          tag_132\n            /* \"#utility.yul\":6777:6778   */\n          0x00\n            /* \"#utility.yul\":6770:6775   */\n          dup3\n            /* \"#utility.yul\":6740:6779   */\n          tag_41\n          jump\t// in\n        tag_132:\n            /* \"#utility.yul\":6713:6714   */\n          0x01\n            /* \"#utility.yul\":6706:6711   */\n          dup2\n            /* \"#utility.yul\":6702:6715   */\n          add\n            /* \"#utility.yul\":6693:6715   */\n          swap1\n          pop\n            /* \"#utility.yul\":6669:6789   */\n          jump(tag_129)\n        tag_131:\n            /* \"#utility.yul\":6609:6795   */\n          pop\n          pop\n          jump\t// out\n            /* \"#utility.yul\":6801:7344   */\n        tag_43:\n            /* \"#utility.yul\":6902:6904   */\n          0x1f\n            /* \"#utility.yul\":6897:6900   */\n          dup3\n            /* \"#utility.yul\":6894:6905   */\n          gt\n            /* \"#utility.yul\":6891:7337   */\n          iszero\n          tag_134\n          jumpi\n            /* \"#utility.yul\":6936:6974   */\n          tag_135\n            /* \"#utility.yul\":6968:6973   */\n          dup2\n            /* \"#utility.yul\":6936:6974   */\n          tag_32\n          jump\t// in\n        tag_135:\n            /* \"#utility.yul\":7020:7049   */\n          tag_136\n            /* \"#utility.yul\":7038:7048   */\n          dup5\n            /* \"#utility.yul\":7020:7049   */\n          tag_33\n          jump\t// in\n        tag_136:\n            /* \"#utility.yul\":7010:7018   */\n          dup2\n            /* \"#utility.yul\":7006:7050   */\n          add\n            /* \"#utility.yul\":7203:7205   */\n          0x20\n            /* \"#utility.yul\":7191:7201   */\n          dup6\n            /* \"#utility.yul\":7188:7206   */\n          lt\n            /* \"#utility.yul\":7185:7234   */\n          iszero\n          tag_137\n          jumpi\n            /* \"#utility.yul\":7224:7232   */\n          dup2\n            /* \"#utility.yul\":7209:7232   */\n          swap1\n          pop\n            /* \"#utility.yul\":7185:7234   */\n        tag_137:\n            /* \"#utility.yul\":7247:7327   */\n          tag_138\n            /* \"#utility.yul\":7303:7325   */\n          tag_139\n            /* \"#utility.yul\":7321:7324   */\n          dup6\n            /* \"#utility.yul\":7303:7325   */\n          tag_33\n          jump\t// in\n        tag_139:\n            /* \"#utility.yul\":7293:7301   */\n          dup4\n            /* \"#utility.yul\":7289:7326   */\n          add\n            /* \"#utility.yul\":7276:7287   */\n          dup3\n            /* \"#utility.yul\":7247:7327   */\n          tag_42\n          jump\t// in\n        tag_138:\n            /* \"#utility.yul\":6906:7337   */\n          pop\n          pop\n            /* \"#utility.yul\":6891:7337   */\n        tag_134:\n            /* \"#utility.yul\":6801:7344   */\n          pop\n          pop\n          pop\n          jump\t// out\n            /* \"#utility.yul\":7350:7467   */\n        tag_44:\n            /* \"#utility.yul\":7404:7412   */\n          0x00\n            /* \"#utility.yul\":7454:7459   */\n          dup3\n            /* \"#utility.yul\":7448:7452   */\n          dup3\n            /* \"#utility.yul\":7444:7460   */\n          shr\n            /* \"#utility.yul\":7423:7460   */\n          swap1\n          pop\n            /* \"#utility.yul\":7350:7467   */\n          swap3\n          swap2\n          pop\n          pop\n          jump\t// out\n            /* \"#utility.yul\":7473:7642   */\n        tag_45:\n            /* \"#utility.yul\":7517:7523   */\n          0x00\n            /* \"#utility.yul\":7550:7601   */\n          tag_142\n            /* \"#utility.yul\":7598:7599   */\n          0x00\n            /* \"#utility.yul\":7594:7600   */\n          not\n            /* \"#utility.yul\":7586:7591   */\n          dup5\n            /* \"#utility.yul\":7583:7584   */\n          0x08\n            /* \"#utility.yul\":7579:7592   */\n          mul\n            /* \"#utility.yul\":7550:7601   */\n          tag_44\n          jump\t// in\n        tag_142:\n            /* \"#utility.yul\":7546:7602   */\n          not\n            /* \"#utility.yul\":7631:7635   */\n          dup1\n            /* \"#utility.yul\":7625:7629   */\n          dup4\n            /* \"#utility.yul\":7621:7636   */\n          and\n            /* \"#utility.yul\":7611:7636   */\n          swap2\n          pop\n            /* \"#utility.yul\":7524:7642   */\n          pop\n            /* \"#utility.yul\":7473:7642   */\n          swap3\n          swap2\n          pop\n          pop\n          jump\t// out\n            /* \"#utility.yul\":7647:7942   */\n        tag_46:\n            /* \"#utility.yul\":7723:7727   */\n          0x00\n            /* \"#utility.yul\":7869:7898   */\n          tag_144\n            /* \"#utility.yul\":7894:7897   */\n          dup4\n            /* \"#utility.yul\":7888:7892   */\n          dup4\n            /* \"#utility.yul\":7869:7898   */\n          tag_45\n          jump\t// in\n        tag_144:\n            /* \"#utility.yul\":7861:7898   */\n          swap2\n          pop\n            /* \"#utility.yul\":7931:7934   */\n          dup3\n            /* \"#utility.yul\":7928:7929   */\n          0x02\n            /* \"#utility.yul\":7924:7935   */\n          mul\n            /* \"#utility.yul\":7918:7922   */\n          dup3\n            /* \"#utility.yul\":7915:7936   */\n          or\n            /* \"#utility.yul\":7907:7936   */\n          swap1\n          pop\n            /* \"#utility.yul\":7647:7942   */\n          swap3\n          swap2\n          pop\n          pop\n          jump\t// out\n            /* \"#utility.yul\":7947:9342   */\n        tag_7:\n            /* \"#utility.yul\":8064:8101   */\n          tag_146\n            /* \"#utility.yul\":8097:8100   */\n          dup3\n            /* \"#utility.yul\":8064:8101   */\n          tag_29\n          jump\t// in\n        tag_146:\n            /* \"#utility.yul\":8166:8184   */\n          0xffffffffffffffff\n            /* \"#utility.yul\":8158:8164   */\n          dup2\n            /* \"#utility.yul\":8155:8185   */\n          gt\n            /* \"#utility.yul\":8152:8208   */\n          iszero\n          tag_147\n          jumpi\n            /* \"#utility.yul\":8188:8206   */\n          tag_148\n          tag_19\n          jump\t// in\n        tag_148:\n            /* \"#utility.yul\":8152:8208   */\n        tag_147:\n            /* \"#utility.yul\":8232:8270   */\n          tag_149\n            /* \"#utility.yul\":8264:8268   */\n          dup3\n            /* \"#utility.yul\":8258:8269   */\n          sload\n            /* \"#utility.yul\":8232:8270   */\n          tag_31\n          jump\t// in\n        tag_149:\n            /* \"#utility.yul\":8317:8384   */\n          tag_150\n            /* \"#utility.yul\":8377:8383   */\n          dup3\n            /* \"#utility.yul\":8369:8375   */\n          dup3\n            /* \"#utility.yul\":8363:8367   */\n          dup6\n            /* \"#utility.yul\":8317:8384   */\n          tag_43\n          jump\t// in\n        tag_150:\n            /* \"#utility.yul\":8411:8412   */\n          0x00\n            /* \"#utility.yul\":8435:8439   */\n          0x20\n            /* \"#utility.yul\":8422:8439   */\n          swap1\n          pop\n            /* \"#utility.yul\":8467:8469   */\n          0x1f\n            /* \"#utility.yul\":8459:8465   */\n          dup4\n            /* \"#utility.yul\":8456:8470   */\n          gt\n            /* \"#utility.yul\":8484:8485   */\n          0x01\n            /* \"#utility.yul\":8479:9097   */\n          dup2\n          eq\n          tag_152\n          jumpi\n            /* \"#utility.yul\":9141:9142   */\n          0x00\n            /* \"#utility.yul\":9158:9164   */\n          dup5\n            /* \"#utility.yul\":9155:9232   */\n          iszero\n          tag_153\n          jumpi\n            /* \"#utility.yul\":9207:9216   */\n          dup3\n            /* \"#utility.yul\":9202:9205   */\n          dup8\n            /* \"#utility.yul\":9198:9217   */\n          add\n            /* \"#utility.yul\":9192:9218   */\n          mload\n            /* \"#utility.yul\":9183:9218   */\n          swap1\n          pop\n            /* \"#utility.yul\":9155:9232   */\n        tag_153:\n            /* \"#utility.yul\":9258:9325   */\n          tag_154\n            /* \"#utility.yul\":9318:9324   */\n          dup6\n            /* \"#utility.yul\":9311:9316   */\n          dup3\n            /* \"#utility.yul\":9258:9325   */\n          tag_46\n          jump\t// in\n        tag_154:\n            /* \"#utility.yul\":9252:9256   */\n          dup7\n            /* \"#utility.yul\":9245:9326   */\n          sstore\n            /* \"#utility.yul\":9114:9336   */\n          pop\n            /* \"#utility.yul\":8449:9336   */\n          jump(tag_151)\n            /* \"#utility.yul\":8479:9097   */\n        tag_152:\n            /* \"#utility.yul\":8531:8535   */\n          0x1f\n            /* \"#utility.yul\":8527:8536   */\n          not\n            /* \"#utility.yul\":8519:8525   */\n          dup5\n            /* \"#utility.yul\":8515:8537   */\n          and\n            /* \"#utility.yul\":8565:8602   */\n          tag_155\n            /* \"#utility.yul\":8597:8601   */\n          dup7\n            /* \"#utility.yul\":8565:8602   */\n          tag_32\n          jump\t// in\n        tag_155:\n            /* \"#utility.yul\":8624:8625   */\n          0x00\n            /* \"#utility.yul\":8638:8846   */\n        tag_156:\n            /* \"#utility.yul\":8652:8659   */\n          dup3\n            /* \"#utility.yul\":8649:8650   */\n          dup2\n            /* \"#utility.yul\":8646:8660   */\n          lt\n            /* \"#utility.yul\":8638:8846   */\n          iszero\n          tag_158\n          jumpi\n            /* \"#utility.yul\":8731:8740   */\n          dup5\n            /* \"#utility.yul\":8726:8729   */\n          dup10\n            /* \"#utility.yul\":8722:8741   */\n          add\n            /* \"#utility.yul\":8716:8742   */\n          mload\n            /* \"#utility.yul\":8708:8714   */\n          dup3\n            /* \"#utility.yul\":8701:8743   */\n          sstore\n            /* \"#utility.yul\":8782:8783   */\n          0x01\n            /* \"#utility.yul\":8774:8780   */\n          dup3\n            /* \"#utility.yul\":8770:8784   */\n          add\n            /* \"#utility.yul\":8760:8784   */\n          swap2\n          pop\n            /* \"#utility.yul\":8829:8831   */\n          0x20\n            /* \"#utility.yul\":8818:8827   */\n          dup6\n            /* \"#utility.yul\":8814:8832   */\n          add\n            /* \"#utility.yul\":8801:8832   */\n          swap5\n          pop\n            /* \"#utility.yul\":8675:8679   */\n          0x20\n            /* \"#utility.yul\":8672:8673   */\n          dup2\n            /* \"#utility.yul\":8668:8680   */\n          add\n            /* \"#utility.yul\":8663:8680   */\n          swap1\n          pop\n            /* \"#utility.yul\":8638:8846   */\n          jump(tag_156)\n        tag_158:\n            /* \"#utility.yul\":8874:8880   */\n          dup7\n            /* \"#utility.yul\":8865:8872   */\n          dup4\n            /* \"#utility.yul\":8862:8881   */\n          lt\n            /* \"#utility.yul\":8859:9038   */\n          iszero\n          tag_159\n          jumpi\n            /* \"#utility.yul\":8932:8941   */\n          dup5\n            /* \"#utility.yul\":8927:8930   */\n          dup10\n            /* \"#utility.yul\":8923:8942   */\n          add\n            /* \"#utility.yul\":8917:8943   */\n          mload\n            /* \"#utility.yul\":8975:9023   */\n          tag_160\n            /* \"#utility.yul\":9017:9021   */\n          0x1f\n            /* \"#utility.yul\":9009:9015   */\n          dup10\n            /* \"#utility.yul\":9005:9022   */\n          and\n            /* \"#utility.yul\":8994:9003   */\n          dup3\n            /* \"#utility.yul\":8975:9023   */\n          tag_45\n          jump\t// in\n        tag_160:\n            /* \"#utility.yul\":8967:8973   */\n          dup4\n            /* \"#utility.yul\":8960:9024   */\n          sstore\n            /* \"#utility.yul\":8882:9038   */\n          pop\n            /* \"#utility.yul\":8859:9038   */\n        tag_159:\n            /* \"#utility.yul\":9084:9085   */\n          0x01\n            /* \"#utility.yul\":9080:9081   */\n          0x02\n            /* \"#utility.yul\":9072:9078   */\n          dup9\n            /* \"#utility.yul\":9068:9082   */\n          mul\n            /* \"#utility.yul\":9064:9086   */\n          add\n            /* \"#utility.yul\":9058:9062   */\n          dup9\n            /* \"#utility.yul\":9051:9087   */\n          sstore\n            /* \"#utility.yul\":8486:9097   */\n          pop\n          pop\n          pop\n            /* \"#utility.yul\":8449:9336   */\n        tag_151:\n          pop\n            /* \"#utility.yul\":8039:9342   */\n          pop\n          pop\n          pop\n            /* \"#utility.yul\":7947:9342   */\n          pop\n          pop\n          jump\t// out\n            /* \"ServiceChain.sol\":802:5152  contract Service{... */\n        tag_8:\n          dataSize(sub_0)\n          dup1\n          dataOffset(sub_0)\n          0x00\n          codecopy\n          0x00\n          return\n        stop\n\n        sub_0: assembly {\n                /* \"ServiceChain.sol\":802:5152  contract Service{... */\n              mstore(0x40, 0x80)\n              jumpi(tag_1, lt(calldatasize, 0x04))\n              shr(0xe0, calldataload(0x00))\n              dup1\n              0x9ace38c2\n              gt\n              tag_16\n              jumpi\n              dup1\n              0xa4e81be0\n              gt\n              tag_17\n              jumpi\n              dup1\n              0xa4e81be0\n              eq\n              tag_12\n              jumpi\n              dup1\n              0xc17c3521\n              eq\n              tag_13\n              jumpi\n              dup1\n              0xcc1e2cb0\n              eq\n              tag_14\n              jumpi\n              dup1\n              0xd0e30db0\n              eq\n              tag_15\n              jumpi\n              jump(tag_1)\n            tag_17:\n              dup1\n              0x9ace38c2\n              eq\n              tag_9\n              jumpi\n              dup1\n              0x9d5f65fc\n              eq\n              tag_10\n              jumpi\n              dup1\n              0xa334b295\n              eq\n              tag_11\n              jumpi\n              jump(tag_1)\n            tag_16:\n              dup1\n              0x474466c2\n              gt\n              tag_18\n              jumpi\n              dup1\n              0x474466c2\n              eq\n              tag_5\n              jumpi\n              dup1\n              0x481c6a75\n              eq\n              tag_6\n              jumpi\n              dup1\n              0x59a7b3fe\n              eq\n              tag_7\n              jumpi\n              dup1\n              0x6eaf9563\n              eq\n              tag_8\n              jumpi\n              jump(tag_1)\n            tag_18:\n              dup1\n              0x0fa8d54f\n              eq\n              tag_2\n              jumpi\n              dup1\n              0x12065fe0\n              eq\n              tag_3\n              jumpi\n              dup1\n              0x20ee128e\n              eq\n              tag_4\n              jumpi\n            tag_1:\n              0x00\n              dup1\n              revert\n                /* \"ServiceChain.sol\":2311:2590  function requestHours(uint value) public{... */\n            tag_2:\n              callvalue\n              dup1\n              iszero\n              tag_19\n              jumpi\n              0x00\n              dup1\n              revert\n            tag_19:\n              pop\n              tag_20\n              0x04\n              dup1\n              calldatasize\n              sub\n              dup2\n              add\n              swap1\n              tag_21\n              swap2\n              swap1\n              tag_22\n              jump\t// in\n            tag_21:\n              tag_23\n              jump\t// in\n            tag_20:\n              stop\n                /* \"ServiceChain.sol\":5048:5143  function getBalance() public view returns(uint) {... */\n            tag_3:\n              callvalue\n              dup1\n              iszero\n              tag_24\n              jumpi\n              0x00\n              dup1\n              revert\n            tag_24:\n              pop\n              tag_25\n              tag_26\n              jump\t// in\n            tag_25:\n              mload(0x40)\n              tag_27\n              swap2\n              swap1\n              tag_28\n              jump\t// in\n            tag_27:\n              mload(0x40)\n              dup1\n              swap2\n              sub\n              swap1\n              return\n                /* \"ServiceChain.sol\":1705:1748  mapping(address=>hourLog[]) public empHours */\n            tag_4:\n              callvalue\n              dup1\n              iszero\n              tag_29\n              jumpi\n              0x00\n              dup1\n              revert\n            tag_29:\n              pop\n              tag_30\n              0x04\n              dup1\n              calldatasize\n              sub\n              dup2\n              add\n              swap1\n              tag_31\n              swap2\n              swap1\n              tag_32\n              jump\t// in\n            tag_31:\n              tag_33\n              jump\t// in\n            tag_30:\n              mload(0x40)\n              tag_34\n              swap5\n              swap4\n              swap3\n              swap2\n              swap1\n              tag_35\n              jump\t// in\n            tag_34:\n              mload(0x40)\n              dup1\n              swap2\n              sub\n              swap1\n              return\n                /* \"ServiceChain.sol\":2824:3607  function confirmHours(address payable waiter,uint index) public payable{... */\n            tag_5:\n              tag_36\n              0x04\n              dup1\n              calldatasize\n              sub\n              dup2\n              add\n              swap1\n              tag_37\n              swap2\n              swap1\n              tag_38\n              jump\t// in\n            tag_37:\n              tag_39\n              jump\t// in\n            tag_36:\n              stop\n                /* \"ServiceChain.sol\":1785:1807  address public manager */\n            tag_6:\n              callvalue\n              dup1\n              iszero\n              tag_40\n              jumpi\n              0x00\n              dup1\n              revert\n            tag_40:\n              pop\n              tag_41\n              tag_42\n              jump\t// in\n            tag_41:\n              mload(0x40)\n              tag_43\n              swap2\n              swap1\n              tag_44\n              jump\t// in\n            tag_43:\n              mload(0x40)\n              dup1\n              swap2\n              sub\n              swap1\n              return\n                /* \"ServiceChain.sol\":1814:1836  uint public hourlyRate */\n            tag_7:\n              callvalue\n              dup1\n              iszero\n              tag_45\n              jumpi\n              0x00\n              dup1\n              revert\n            tag_45:\n              pop\n              tag_46\n              tag_47\n              jump\t// in\n            tag_46:\n              mload(0x40)\n              tag_48\n              swap2\n              swap1\n              tag_28\n              jump\t// in\n            tag_48:\n              mload(0x40)\n              dup1\n              swap2\n              sub\n              swap1\n              return\n                /* \"ServiceChain.sol\":3613:4185  function denyHours(address waiter,uint index) public{... */\n            tag_8:\n              callvalue\n              dup1\n              iszero\n              tag_49\n              jumpi\n              0x00\n              dup1\n              revert\n            tag_49:\n              pop\n              tag_50\n              0x04\n              dup1\n              calldatasize\n              sub\n              dup2\n              add\n              swap1\n              tag_51\n              swap2\n              swap1\n              tag_32\n              jump\t// in\n            tag_51:\n              tag_52\n              jump\t// in\n            tag_50:\n              stop\n                /* \"ServiceChain.sol\":1665:1698  Transaction[] public transactions */\n            tag_9:\n              callvalue\n              dup1\n              iszero\n              tag_53\n              jumpi\n              0x00\n              dup1\n              revert\n            tag_53:\n              pop\n              tag_54\n              0x04\n              dup1\n              calldatasize\n              sub\n              dup2\n              add\n              swap1\n              tag_55\n              swap2\n              swap1\n              tag_22\n              jump\t// in\n            tag_55:\n              tag_56\n              jump\t// in\n            tag_54:\n              mload(0x40)\n              tag_57\n              swap4\n              swap3\n              swap2\n              swap1\n              tag_58\n              jump\t// in\n            tag_57:\n              mload(0x40)\n              dup1\n              swap2\n              sub\n              swap1\n              return\n                /* \"ServiceChain.sol\":4244:4361  function getHourLog(address waiter) public view returns(hourLog[] memory){... */\n            tag_10:\n              callvalue\n              dup1\n              iszero\n              tag_59\n              jumpi\n              0x00\n              dup1\n              revert\n            tag_59:\n              pop\n              tag_60\n              0x04\n              dup1\n              calldatasize\n              sub\n              dup2\n              add\n              swap1\n              tag_61\n              swap2\n              swap1\n              tag_62\n              jump\t// in\n            tag_61:\n              tag_63\n              jump\t// in\n            tag_60:\n              mload(0x40)\n              tag_64\n              swap2\n              swap1\n              tag_65\n              jump\t// in\n            tag_64:\n              mload(0x40)\n              dup1\n              swap2\n              sub\n              swap1\n              return\n                /* \"ServiceChain.sol\":4383:4562  function sendRatings(address waiter,uint rating) public {... */\n            tag_11:\n              callvalue\n              dup1\n              iszero\n              tag_66\n              jumpi\n              0x00\n              dup1\n              revert\n            tag_66:\n              pop\n              tag_67\n              0x04\n              dup1\n              calldatasize\n              sub\n              dup2\n              add\n              swap1\n              tag_68\n              swap2\n              swap1\n              tag_32\n              jump\t// in\n            tag_68:\n              tag_69\n              jump\t// in\n            tag_67:\n              stop\n                /* \"ServiceChain.sol\":4858:5040  function sendTip(address payable recipient) public payable {... */\n            tag_12:\n              tag_70\n              0x04\n              dup1\n              calldatasize\n              sub\n              dup2\n              add\n              swap1\n              tag_71\n              swap2\n              swap1\n              tag_72\n              jump\t// in\n            tag_71:\n              tag_73\n              jump\t// in\n            tag_70:\n              stop\n                /* \"ServiceChain.sol\":2049:2193  function setHourlyRate(uint rate) public {... */\n            tag_13:\n              callvalue\n              dup1\n              iszero\n              tag_74\n              jumpi\n              0x00\n              dup1\n              revert\n            tag_74:\n              pop\n              tag_75\n              0x04\n              dup1\n              calldatasize\n              sub\n              dup2\n              add\n              swap1\n              tag_76\n              swap2\n              swap1\n              tag_22\n              jump\t// in\n            tag_76:\n              tag_77\n              jump\t// in\n            tag_75:\n              stop\n                /* \"ServiceChain.sol\":1761:1778  string public org */\n            tag_14:\n              callvalue\n              dup1\n              iszero\n              tag_78\n              jumpi\n              0x00\n              dup1\n              revert\n            tag_78:\n              pop\n              tag_79\n              tag_80\n              jump\t// in\n            tag_79:\n              mload(0x40)\n              tag_81\n              swap2\n              swap1\n              tag_82\n              jump\t// in\n            tag_81:\n              mload(0x40)\n              dup1\n              swap2\n              sub\n              swap1\n              return\n                /* \"ServiceChain.sol\":4605:4731  function deposit() public payable {... */\n            tag_15:\n              tag_83\n              tag_84\n              jump\t// in\n            tag_83:\n              stop\n                /* \"ServiceChain.sol\":2311:2590  function requestHours(uint value) public{... */\n            tag_23:\n                /* \"ServiceChain.sol\":2487:2488  8 */\n              0x08\n                /* \"ServiceChain.sol\":2457:2465  empHours */\n              0x01\n                /* \"ServiceChain.sol\":2457:2477  empHours[msg.sender] */\n              0x00\n                /* \"ServiceChain.sol\":2466:2476  msg.sender */\n              caller\n                /* \"ServiceChain.sol\":2457:2477  empHours[msg.sender] */\n              0xffffffffffffffffffffffffffffffffffffffff\n              and\n              0xffffffffffffffffffffffffffffffffffffffff\n              and\n              dup2\n              mstore\n              0x20\n              add\n              swap1\n              dup2\n              mstore\n              0x20\n              add\n              0x00\n              keccak256\n                /* \"ServiceChain.sol\":2457:2484  empHours[msg.sender].length */\n              dup1\n              sload\n              swap1\n              pop\n                /* \"ServiceChain.sol\":2457:2488  empHours[msg.sender].length < 8 */\n              lt\n                /* \"ServiceChain.sol\":2449:2489  require(empHours[msg.sender].length < 8) */\n              tag_86\n              jumpi\n              0x00\n              dup1\n              revert\n            tag_86:\n                /* \"ServiceChain.sol\":2500:2508  empHours */\n              0x01\n                /* \"ServiceChain.sol\":2500:2520  empHours[msg.sender] */\n              0x00\n                /* \"ServiceChain.sol\":2509:2519  msg.sender */\n              caller\n                /* \"ServiceChain.sol\":2500:2520  empHours[msg.sender] */\n              0xffffffffffffffffffffffffffffffffffffffff\n              and\n              0xffffffffffffffffffffffffffffffffffffffff\n              and\n              dup2\n              mstore\n              0x20\n              add\n              swap1\n              dup2\n              mstore\n              0x20\n              add\n              0x00\n              keccak256\n                /* \"ServiceChain.sol\":2526:2581  hourLog(block.timestamp,value,hourlyRate * value,false) */\n              mload(0x40)\n              dup1\n              0x80\n              add\n              0x40\n              mstore\n              dup1\n                /* \"ServiceChain.sol\":2534:2549  block.timestamp */\n              timestamp\n                /* \"ServiceChain.sol\":2526:2581  hourLog(block.timestamp,value,hourlyRate * value,false) */\n              dup2\n              mstore\n              0x20\n              add\n                /* \"ServiceChain.sol\":2550:2555  value */\n              dup4\n                /* \"ServiceChain.sol\":2526:2581  hourLog(block.timestamp,value,hourlyRate * value,false) */\n              dup2\n              mstore\n              0x20\n              add\n                /* \"ServiceChain.sol\":2569:2574  value */\n              dup4\n                /* \"ServiceChain.sol\":2556:2566  hourlyRate */\n              sload(0x04)\n                /* \"ServiceChain.sol\":2556:2574  hourlyRate * value */\n              tag_87\n              swap2\n              swap1\n              tag_88\n              jump\t// in\n            tag_87:\n                /* \"ServiceChain.sol\":2526:2581  hourLog(block.timestamp,value,hourlyRate * value,false) */\n              dup2\n              mstore\n              0x20\n              add\n                /* \"ServiceChain.sol\":2575:2580  false */\n              0x00\n                /* \"ServiceChain.sol\":2526:2581  hourLog(block.timestamp,value,hourlyRate * value,false) */\n              iszero\n              iszero\n              dup2\n              mstore\n              pop\n                /* \"ServiceChain.sol\":2500:2582  empHours[msg.sender].push(hourLog(block.timestamp,value,hourlyRate * value,false)) */\n              swap1\n              dup1\n              0x01\n              dup2\n              sload\n              add\n              dup1\n              dup3\n              sstore\n              dup1\n              swap2\n              pop\n              pop\n              0x01\n              swap1\n              sub\n              swap1\n              0x00\n              mstore\n              keccak256(0x00, 0x20)\n              swap1\n              0x04\n              mul\n              add\n              0x00\n              swap1\n              swap2\n              swap1\n              swap2\n              swap1\n              swap2\n              pop\n              0x00\n              dup3\n              add\n              mload\n              dup2\n              0x00\n              add\n              sstore\n              0x20\n              dup3\n              add\n              mload\n              dup2\n              0x01\n              add\n              sstore\n              0x40\n              dup3\n              add\n              mload\n              dup2\n              0x02\n              add\n              sstore\n              0x60\n              dup3\n              add\n              mload\n              dup2\n              0x03\n              add\n              exp(0x0100, 0x00)\n              dup2\n              sload\n              dup2\n              0xff\n              mul\n              not\n              and\n              swap1\n              dup4\n              iszero\n              iszero\n              mul\n              or\n              swap1\n              sstore\n              pop\n              pop\n              pop\n                /* \"ServiceChain.sol\":2311:2590  function requestHours(uint value) public{... */\n              pop\n              jump\t// out\n                /* \"ServiceChain.sol\":5048:5143  function getBalance() public view returns(uint) {... */\n            tag_26:\n                /* \"ServiceChain.sol\":5090:5094  uint */\n              0x00\n                /* \"ServiceChain.sol\":5114:5135  address(this).balance */\n              selfbalance\n                /* \"ServiceChain.sol\":5107:5135  return address(this).balance */\n              swap1\n              pop\n                /* \"ServiceChain.sol\":5048:5143  function getBalance() public view returns(uint) {... */\n              swap1\n              jump\t// out\n                /* \"ServiceChain.sol\":1705:1748  mapping(address=>hourLog[]) public empHours */\n            tag_33:\n              mstore(0x20, 0x01)\n              dup2\n              0x00\n              mstore\n              keccak256(0x00, 0x40)\n              dup2\n              dup2\n              sload\n              dup2\n              lt\n              tag_91\n              jumpi\n              0x00\n              dup1\n              revert\n            tag_91:\n              swap1\n              0x00\n              mstore\n              keccak256(0x00, 0x20)\n              swap1\n              0x04\n              mul\n              add\n              0x00\n              swap2\n              pop\n              swap2\n              pop\n              pop\n              dup1\n              0x00\n              add\n              sload\n              swap1\n              dup1\n              0x01\n              add\n              sload\n              swap1\n              dup1\n              0x02\n              add\n              sload\n              swap1\n              dup1\n              0x03\n              add\n              0x00\n              swap1\n              sload\n              swap1\n              0x0100\n              exp\n              swap1\n              div\n              0xff\n              and\n              swap1\n              pop\n              dup5\n              jump\t// out\n                /* \"ServiceChain.sol\":2824:3607  function confirmHours(address payable waiter,uint index) public payable{... */\n            tag_39:\n                /* \"ServiceChain.sol\":2928:2935  manager */\n              0x03\n              0x00\n              swap1\n              sload\n              swap1\n              0x0100\n              exp\n              swap1\n              div\n              0xffffffffffffffffffffffffffffffffffffffff\n              and\n                /* \"ServiceChain.sol\":2914:2935  msg.sender == manager */\n              0xffffffffffffffffffffffffffffffffffffffff\n              and\n                /* \"ServiceChain.sol\":2914:2924  msg.sender */\n              caller\n                /* \"ServiceChain.sol\":2914:2935  msg.sender == manager */\n              0xffffffffffffffffffffffffffffffffffffffff\n              and\n              eq\n                /* \"ServiceChain.sol\":2906:2962  require(msg.sender == manager,\"You are not the manager\") */\n              tag_94\n              jumpi\n              mload(0x40)\n              0x08c379a000000000000000000000000000000000000000000000000000000000\n              dup2\n              mstore\n              0x04\n              add\n              tag_95\n              swap1\n              tag_96\n              jump\t// in\n            tag_95:\n              mload(0x40)\n              dup1\n              swap2\n              sub\n              swap1\n              revert\n            tag_94:\n                /* \"ServiceChain.sol\":3126:3130  true */\n              0x01\n                /* \"ServiceChain.sol\":3093:3232  submitApproval(msg.sender,waiter,true,empHours[waiter][index].date, empHours[waiter][index].hour,hourlyRate * empHours[waiter][index].hour) */\n              iszero\n              iszero\n                /* \"ServiceChain.sol\":3119:3125  waiter */\n              dup3\n                /* \"ServiceChain.sol\":3093:3232  submitApproval(msg.sender,waiter,true,empHours[waiter][index].date, empHours[waiter][index].hour,hourlyRate * empHours[waiter][index].hour) */\n              0xffffffffffffffffffffffffffffffffffffffff\n              and\n                /* \"ServiceChain.sol\":3108:3118  msg.sender */\n              caller\n                /* \"ServiceChain.sol\":3093:3232  submitApproval(msg.sender,waiter,true,empHours[waiter][index].date, empHours[waiter][index].hour,hourlyRate * empHours[waiter][index].hour) */\n              0xffffffffffffffffffffffffffffffffffffffff\n              and\n              0x62a0718d681b5a77ad80fbaf7e41ff461f77b69d49e3879cba8e045c85e2ac74\n                /* \"ServiceChain.sol\":3131:3139  empHours */\n              0x01\n                /* \"ServiceChain.sol\":3131:3147  empHours[waiter] */\n              0x00\n                /* \"ServiceChain.sol\":3140:3146  waiter */\n              dup8\n                /* \"ServiceChain.sol\":3131:3147  empHours[waiter] */\n              0xffffffffffffffffffffffffffffffffffffffff\n              and\n              0xffffffffffffffffffffffffffffffffffffffff\n              and\n              dup2\n              mstore\n              0x20\n              add\n              swap1\n              dup2\n              mstore\n              0x20\n              add\n              0x00\n              keccak256\n                /* \"ServiceChain.sol\":3148:3153  index */\n              dup6\n                /* \"ServiceChain.sol\":3131:3154  empHours[waiter][index] */\n              dup2\n              sload\n              dup2\n              lt\n              tag_97\n              jumpi\n              tag_98\n              tag_99\n              jump\t// in\n            tag_98:\n            tag_97:\n              swap1\n              0x00\n              mstore\n              keccak256(0x00, 0x20)\n              swap1\n              0x04\n              mul\n              add\n                /* \"ServiceChain.sol\":3131:3159  empHours[waiter][index].date */\n              0x00\n              add\n              sload\n                /* \"ServiceChain.sol\":3161:3169  empHours */\n              0x01\n                /* \"ServiceChain.sol\":3161:3177  empHours[waiter] */\n              0x00\n                /* \"ServiceChain.sol\":3170:3176  waiter */\n              dup9\n                /* \"ServiceChain.sol\":3161:3177  empHours[waiter] */\n              0xffffffffffffffffffffffffffffffffffffffff\n              and\n              0xffffffffffffffffffffffffffffffffffffffff\n              and\n              dup2\n              mstore\n              0x20\n              add\n              swap1\n              dup2\n              mstore\n              0x20\n              add\n              0x00\n              keccak256\n                /* \"ServiceChain.sol\":3178:3183  index */\n              dup7\n                /* \"ServiceChain.sol\":3161:3184  empHours[waiter][index] */\n              dup2\n              sload\n              dup2\n              lt\n              tag_101\n              jumpi\n              tag_102\n              tag_99\n              jump\t// in\n            tag_102:\n            tag_101:\n              swap1\n              0x00\n              mstore\n              keccak256(0x00, 0x20)\n              swap1\n              0x04\n              mul\n              add\n                /* \"ServiceChain.sol\":3161:3189  empHours[waiter][index].hour */\n              0x01\n              add\n              sload\n                /* \"ServiceChain.sol\":3203:3211  empHours */\n              0x01\n                /* \"ServiceChain.sol\":3203:3219  empHours[waiter] */\n              0x00\n                /* \"ServiceChain.sol\":3212:3218  waiter */\n              dup10\n                /* \"ServiceChain.sol\":3203:3219  empHours[waiter] */\n              0xffffffffffffffffffffffffffffffffffffffff\n              and\n              0xffffffffffffffffffffffffffffffffffffffff\n              and\n              dup2\n              mstore\n              0x20\n              add\n              swap1\n              dup2\n              mstore\n              0x20\n              add\n              0x00\n              keccak256\n                /* \"ServiceChain.sol\":3220:3225  index */\n              dup8\n                /* \"ServiceChain.sol\":3203:3226  empHours[waiter][index] */\n              dup2\n              sload\n              dup2\n              lt\n              tag_104\n              jumpi\n              tag_105\n              tag_99\n              jump\t// in\n            tag_105:\n            tag_104:\n              swap1\n              0x00\n              mstore\n              keccak256(0x00, 0x20)\n              swap1\n              0x04\n              mul\n              add\n                /* \"ServiceChain.sol\":3203:3231  empHours[waiter][index].hour */\n              0x01\n              add\n              sload\n                /* \"ServiceChain.sol\":3190:3200  hourlyRate */\n              sload(0x04)\n                /* \"ServiceChain.sol\":3190:3231  hourlyRate * empHours[waiter][index].hour */\n              tag_107\n              swap2\n              swap1\n              tag_88\n              jump\t// in\n            tag_107:\n                /* \"ServiceChain.sol\":3093:3232  submitApproval(msg.sender,waiter,true,empHours[waiter][index].date, empHours[waiter][index].hour,hourlyRate * empHours[waiter][index].hour) */\n              mload(0x40)\n              tag_108\n              swap4\n              swap3\n              swap2\n              swap1\n              tag_109\n              jump\t// in\n            tag_108:\n              mload(0x40)\n              dup1\n              swap2\n              sub\n              swap1\n              log4\n                /* \"ServiceChain.sol\":3325:3331  waiter */\n              dup2\n                /* \"ServiceChain.sol\":3325:3340  waiter.transfer */\n              0xffffffffffffffffffffffffffffffffffffffff\n              and\n                /* \"ServiceChain.sol\":3325:3382  waiter.transfer(hourlyRate* empHours[waiter][index].hour) */\n              0x08fc\n                /* \"ServiceChain.sol\":3353:3361  empHours */\n              0x01\n                /* \"ServiceChain.sol\":3353:3369  empHours[waiter] */\n              0x00\n                /* \"ServiceChain.sol\":3362:3368  waiter */\n              dup6\n                /* \"ServiceChain.sol\":3353:3369  empHours[waiter] */\n              0xffffffffffffffffffffffffffffffffffffffff\n              and\n              0xffffffffffffffffffffffffffffffffffffffff\n              and\n              dup2\n              mstore\n              0x20\n              add\n              swap1\n              dup2\n              mstore\n              0x20\n              add\n              0x00\n              keccak256\n                /* \"ServiceChain.sol\":3370:3375  index */\n              dup4\n                /* \"ServiceChain.sol\":3353:3376  empHours[waiter][index] */\n              dup2\n              sload\n              dup2\n              lt\n              tag_110\n              jumpi\n              tag_111\n              tag_99\n              jump\t// in\n            tag_111:\n            tag_110:\n              swap1\n              0x00\n              mstore\n              keccak256(0x00, 0x20)\n              swap1\n              0x04\n              mul\n              add\n                /* \"ServiceChain.sol\":3353:3381  empHours[waiter][index].hour */\n              0x01\n              add\n              sload\n                /* \"ServiceChain.sol\":3341:3351  hourlyRate */\n              sload(0x04)\n                /* \"ServiceChain.sol\":3341:3381  hourlyRate* empHours[waiter][index].hour */\n              tag_113\n              swap2\n              swap1\n              tag_88\n              jump\t// in\n            tag_113:\n                /* \"ServiceChain.sol\":3325:3382  waiter.transfer(hourlyRate* empHours[waiter][index].hour) */\n              swap1\n              dup2\n              iszero\n              mul\n              swap1\n              mload(0x40)\n              0x00\n              mload(0x40)\n              dup1\n              dup4\n              sub\n              dup2\n              dup6\n              dup9\n              dup9\n              call\n              swap4\n              pop\n              pop\n              pop\n              pop\n              iszero\n              dup1\n              iszero\n              tag_115\n              jumpi\n              returndatasize\n              0x00\n              dup1\n              returndatacopy\n              revert(0x00, returndatasize)\n            tag_115:\n              pop\n                /* \"ServiceChain.sol\":3446:3452  uint i */\n              0x00\n                /* \"ServiceChain.sol\":3454:3459  index */\n              dup2\n                /* \"ServiceChain.sol\":3446:3459  uint i =index */\n              swap1\n              pop\n                /* \"ServiceChain.sol\":3442:3562  for(uint i =index;i<empHours[waiter].length-1;i++){... */\n            tag_116:\n                /* \"ServiceChain.sol\":3486:3487  1 */\n              0x01\n                /* \"ServiceChain.sol\":3462:3470  empHours */\n              dup1\n                /* \"ServiceChain.sol\":3462:3478  empHours[waiter] */\n              0x00\n                /* \"ServiceChain.sol\":3471:3477  waiter */\n              dup6\n                /* \"ServiceChain.sol\":3462:3478  empHours[waiter] */\n              0xffffffffffffffffffffffffffffffffffffffff\n              and\n              0xffffffffffffffffffffffffffffffffffffffff\n              and\n              dup2\n              mstore\n              0x20\n              add\n              swap1\n              dup2\n              mstore\n              0x20\n              add\n              0x00\n              keccak256\n                /* \"ServiceChain.sol\":3462:3485  empHours[waiter].length */\n              dup1\n              sload\n              swap1\n              pop\n                /* \"ServiceChain.sol\":3462:3487  empHours[waiter].length-1 */\n              tag_119\n              swap2\n              swap1\n              tag_120\n              jump\t// in\n            tag_119:\n                /* \"ServiceChain.sol\":3460:3461  i */\n              dup2\n                /* \"ServiceChain.sol\":3460:3487  i<empHours[waiter].length-1 */\n              lt\n                /* \"ServiceChain.sol\":3442:3562  for(uint i =index;i<empHours[waiter].length-1;i++){... */\n              iszero\n              tag_117\n              jumpi\n                /* \"ServiceChain.sol\":3529:3537  empHours */\n              0x01\n                /* \"ServiceChain.sol\":3529:3545  empHours[waiter] */\n              0x00\n                /* \"ServiceChain.sol\":3538:3544  waiter */\n              dup5\n                /* \"ServiceChain.sol\":3529:3545  empHours[waiter] */\n              0xffffffffffffffffffffffffffffffffffffffff\n              and\n              0xffffffffffffffffffffffffffffffffffffffff\n              and\n              dup2\n              mstore\n              0x20\n              add\n              swap1\n              dup2\n              mstore\n              0x20\n              add\n              0x00\n              keccak256\n                /* \"ServiceChain.sol\":3548:3549  1 */\n              0x01\n                /* \"ServiceChain.sol\":3546:3547  i */\n              dup3\n                /* \"ServiceChain.sol\":3546:3549  i+1 */\n              tag_121\n              swap2\n              swap1\n              tag_122\n              jump\t// in\n            tag_121:\n                /* \"ServiceChain.sol\":3529:3550  empHours[waiter][i+1] */\n              dup2\n              sload\n              dup2\n              lt\n              tag_123\n              jumpi\n              tag_124\n              tag_99\n              jump\t// in\n            tag_124:\n            tag_123:\n              swap1\n              0x00\n              mstore\n              keccak256(0x00, 0x20)\n              swap1\n              0x04\n              mul\n              add\n                /* \"ServiceChain.sol\":3507:3515  empHours */\n              0x01\n                /* \"ServiceChain.sol\":3507:3523  empHours[waiter] */\n              0x00\n                /* \"ServiceChain.sol\":3516:3522  waiter */\n              dup6\n                /* \"ServiceChain.sol\":3507:3523  empHours[waiter] */\n              0xffffffffffffffffffffffffffffffffffffffff\n              and\n              0xffffffffffffffffffffffffffffffffffffffff\n              and\n              dup2\n              mstore\n              0x20\n              add\n              swap1\n              dup2\n              mstore\n              0x20\n              add\n              0x00\n              keccak256\n                /* \"ServiceChain.sol\":3524:3525  i */\n              dup3\n                /* \"ServiceChain.sol\":3507:3526  empHours[waiter][i] */\n              dup2\n              sload\n              dup2\n              lt\n              tag_126\n              jumpi\n              tag_127\n              tag_99\n              jump\t// in\n            tag_127:\n            tag_126:\n              swap1\n              0x00\n              mstore\n              keccak256(0x00, 0x20)\n              swap1\n              0x04\n              mul\n              add\n                /* \"ServiceChain.sol\":3507:3550  empHours[waiter][i] = empHours[waiter][i+1] */\n              0x00\n              dup3\n              add\n              sload\n              dup2\n              0x00\n              add\n              sstore\n              0x01\n              dup3\n              add\n              sload\n              dup2\n              0x01\n              add\n              sstore\n              0x02\n              dup3\n              add\n              sload\n              dup2\n              0x02\n              add\n              sstore\n              0x03\n              dup3\n              add\n              0x00\n              swap1\n              sload\n              swap1\n              0x0100\n              exp\n              swap1\n              div\n              0xff\n              and\n              dup2\n              0x03\n              add\n              exp(0x0100, 0x00)\n              dup2\n              sload\n              dup2\n              0xff\n              mul\n              not\n              and\n              swap1\n              dup4\n              iszero\n              iszero\n              mul\n              or\n              swap1\n              sstore\n              pop\n              swap1\n              pop\n              pop\n                /* \"ServiceChain.sol\":3488:3491  i++ */\n              dup1\n              dup1\n              tag_129\n              swap1\n              tag_130\n              jump\t// in\n            tag_129:\n              swap2\n              pop\n              pop\n                /* \"ServiceChain.sol\":3442:3562  for(uint i =index;i<empHours[waiter].length-1;i++){... */\n              jump(tag_116)\n            tag_117:\n              pop\n                /* \"ServiceChain.sol\":3572:3580  empHours */\n              0x01\n                /* \"ServiceChain.sol\":3572:3588  empHours[waiter] */\n              0x00\n                /* \"ServiceChain.sol\":3581:3587  waiter */\n              dup4\n                /* \"ServiceChain.sol\":3572:3588  empHours[waiter] */\n              0xffffffffffffffffffffffffffffffffffffffff\n              and\n              0xffffffffffffffffffffffffffffffffffffffff\n              and\n              dup2\n              mstore\n              0x20\n              add\n              swap1\n              dup2\n              mstore\n              0x20\n              add\n              0x00\n              keccak256\n                /* \"ServiceChain.sol\":3572:3594  empHours[waiter].pop() */\n              dup1\n              sload\n              dup1\n              tag_131\n              jumpi\n              tag_132\n              tag_133\n              jump\t// in\n            tag_132:\n            tag_131:\n              0x01\n              swap1\n              sub\n              dup2\n              dup2\n              swap1\n              0x00\n              mstore\n              keccak256(0x00, 0x20)\n              swap1\n              0x04\n              mul\n              add\n              0x00\n              dup1\n              dup3\n              add\n              0x00\n              swap1\n              sstore\n              0x01\n              dup3\n              add\n              0x00\n              swap1\n              sstore\n              0x02\n              dup3\n              add\n              0x00\n              swap1\n              sstore\n              0x03\n              dup3\n              add\n              exp(0x0100, 0x00)\n              dup2\n              sload\n              swap1\n              0xff\n              mul\n              not\n              and\n              swap1\n              sstore\n              pop\n              pop\n              swap1\n              sstore\n                /* \"ServiceChain.sol\":2824:3607  function confirmHours(address payable waiter,uint index) public payable{... */\n              pop\n              pop\n              jump\t// out\n                /* \"ServiceChain.sol\":1785:1807  address public manager */\n            tag_42:\n              0x03\n              0x00\n              swap1\n              sload\n              swap1\n              0x0100\n              exp\n              swap1\n              div\n              0xffffffffffffffffffffffffffffffffffffffff\n              and\n              dup2\n              jump\t// out\n                /* \"ServiceChain.sol\":1814:1836  uint public hourlyRate */\n            tag_47:\n              sload(0x04)\n              dup2\n              jump\t// out\n                /* \"ServiceChain.sol\":3613:4185  function denyHours(address waiter,uint index) public{... */\n            tag_52:\n                /* \"ServiceChain.sol\":3698:3705  manager */\n              0x03\n              0x00\n              swap1\n              sload\n              swap1\n              0x0100\n              exp\n              swap1\n              div\n              0xffffffffffffffffffffffffffffffffffffffff\n              and\n                /* \"ServiceChain.sol\":3684:3705  msg.sender == manager */\n              0xffffffffffffffffffffffffffffffffffffffff\n              and\n                /* \"ServiceChain.sol\":3684:3694  msg.sender */\n              caller\n                /* \"ServiceChain.sol\":3684:3705  msg.sender == manager */\n              0xffffffffffffffffffffffffffffffffffffffff\n              and\n              eq\n                /* \"ServiceChain.sol\":3676:3732  require(msg.sender == manager,\"You are not the manager\") */\n              tag_136\n              jumpi\n              mload(0x40)\n              0x08c379a000000000000000000000000000000000000000000000000000000000\n              dup2\n              mstore\n              0x04\n              add\n              tag_137\n              swap1\n              tag_96\n              jump\t// in\n            tag_137:\n              mload(0x40)\n              dup1\n              swap2\n              sub\n              swap1\n              revert\n            tag_136:\n                /* \"ServiceChain.sol\":3896:3901  false */\n              0x00\n                /* \"ServiceChain.sol\":3863:3963  submitApproval(msg.sender,waiter,false,empHours[waiter][index].date, empHours[waiter][index].hour,0) */\n              iszero\n              iszero\n                /* \"ServiceChain.sol\":3889:3895  waiter */\n              dup3\n                /* \"ServiceChain.sol\":3863:3963  submitApproval(msg.sender,waiter,false,empHours[waiter][index].date, empHours[waiter][index].hour,0) */\n              0xffffffffffffffffffffffffffffffffffffffff\n              and\n                /* \"ServiceChain.sol\":3878:3888  msg.sender */\n              caller\n                /* \"ServiceChain.sol\":3863:3963  submitApproval(msg.sender,waiter,false,empHours[waiter][index].date, empHours[waiter][index].hour,0) */\n              0xffffffffffffffffffffffffffffffffffffffff\n              and\n              0x62a0718d681b5a77ad80fbaf7e41ff461f77b69d49e3879cba8e045c85e2ac74\n                /* \"ServiceChain.sol\":3902:3910  empHours */\n              0x01\n                /* \"ServiceChain.sol\":3902:3918  empHours[waiter] */\n              0x00\n                /* \"ServiceChain.sol\":3911:3917  waiter */\n              dup8\n                /* \"ServiceChain.sol\":3902:3918  empHours[waiter] */\n              0xffffffffffffffffffffffffffffffffffffffff\n              and\n              0xffffffffffffffffffffffffffffffffffffffff\n              and\n              dup2\n              mstore\n              0x20\n              add\n              swap1\n              dup2\n              mstore\n              0x20\n              add\n              0x00\n              keccak256\n                /* \"ServiceChain.sol\":3919:3924  index */\n              dup6\n                /* \"ServiceChain.sol\":3902:3925  empHours[waiter][index] */\n              dup2\n              sload\n              dup2\n              lt\n              tag_138\n              jumpi\n              tag_139\n              tag_99\n              jump\t// in\n            tag_139:\n            tag_138:\n              swap1\n              0x00\n              mstore\n              keccak256(0x00, 0x20)\n              swap1\n              0x04\n              mul\n              add\n                /* \"ServiceChain.sol\":3902:3930  empHours[waiter][index].date */\n              0x00\n              add\n              sload\n                /* \"ServiceChain.sol\":3932:3940  empHours */\n              0x01\n                /* \"ServiceChain.sol\":3932:3948  empHours[waiter] */\n              0x00\n                /* \"ServiceChain.sol\":3941:3947  waiter */\n              dup9\n                /* \"ServiceChain.sol\":3932:3948  empHours[waiter] */\n              0xffffffffffffffffffffffffffffffffffffffff\n              and\n              0xffffffffffffffffffffffffffffffffffffffff\n              and\n              dup2\n              mstore\n              0x20\n              add\n              swap1\n              dup2\n              mstore\n              0x20\n              add\n              0x00\n              keccak256\n                /* \"ServiceChain.sol\":3949:3954  index */\n              dup7\n                /* \"ServiceChain.sol\":3932:3955  empHours[waiter][index] */\n              dup2\n              sload\n              dup2\n              lt\n              tag_141\n              jumpi\n              tag_142\n              tag_99\n              jump\t// in\n            tag_142:\n            tag_141:\n              swap1\n              0x00\n              mstore\n              keccak256(0x00, 0x20)\n              swap1\n              0x04\n              mul\n              add\n                /* \"ServiceChain.sol\":3932:3960  empHours[waiter][index].hour */\n              0x01\n              add\n              sload\n                /* \"ServiceChain.sol\":3961:3962  0 */\n              0x00\n                /* \"ServiceChain.sol\":3863:3963  submitApproval(msg.sender,waiter,false,empHours[waiter][index].date, empHours[waiter][index].hour,0) */\n              mload(0x40)\n              tag_144\n              swap4\n              swap3\n              swap2\n              swap1\n              tag_145\n              jump\t// in\n            tag_144:\n              mload(0x40)\n              dup1\n              swap2\n              sub\n              swap1\n              log4\n                /* \"ServiceChain.sol\":4027:4033  uint i */\n              0x00\n                /* \"ServiceChain.sol\":4035:4040  index */\n              dup2\n                /* \"ServiceChain.sol\":4027:4040  uint i =index */\n              swap1\n              pop\n                /* \"ServiceChain.sol\":4023:4143  for(uint i =index;i<empHours[waiter].length-1;i++){... */\n            tag_146:\n                /* \"ServiceChain.sol\":4067:4068  1 */\n              0x01\n                /* \"ServiceChain.sol\":4043:4051  empHours */\n              dup1\n                /* \"ServiceChain.sol\":4043:4059  empHours[waiter] */\n              0x00\n                /* \"ServiceChain.sol\":4052:4058  waiter */\n              dup6\n                /* \"ServiceChain.sol\":4043:4059  empHours[waiter] */\n              0xffffffffffffffffffffffffffffffffffffffff\n              and\n              0xffffffffffffffffffffffffffffffffffffffff\n              and\n              dup2\n              mstore\n              0x20\n              add\n              swap1\n              dup2\n              mstore\n              0x20\n              add\n              0x00\n              keccak256\n                /* \"ServiceChain.sol\":4043:4066  empHours[waiter].length */\n              dup1\n              sload\n              swap1\n              pop\n                /* \"ServiceChain.sol\":4043:4068  empHours[waiter].length-1 */\n              tag_149\n              swap2\n              swap1\n              tag_120\n              jump\t// in\n            tag_149:\n                /* \"ServiceChain.sol\":4041:4042  i */\n              dup2\n                /* \"ServiceChain.sol\":4041:4068  i<empHours[waiter].length-1 */\n              lt\n                /* \"ServiceChain.sol\":4023:4143  for(uint i =index;i<empHours[waiter].length-1;i++){... */\n              iszero\n              tag_147\n              jumpi\n                /* \"ServiceChain.sol\":4110:4118  empHours */\n              0x01\n                /* \"ServiceChain.sol\":4110:4126  empHours[waiter] */\n              0x00\n                /* \"ServiceChain.sol\":4119:4125  waiter */\n              dup5\n                /* \"ServiceChain.sol\":4110:4126  empHours[waiter] */\n              0xffffffffffffffffffffffffffffffffffffffff\n              and\n              0xffffffffffffffffffffffffffffffffffffffff\n              and\n              dup2\n              mstore\n              0x20\n              add\n              swap1\n              dup2\n              mstore\n              0x20\n              add\n              0x00\n              keccak256\n                /* \"ServiceChain.sol\":4129:4130  1 */\n              0x01\n                /* \"ServiceChain.sol\":4127:4128  i */\n              dup3\n                /* \"ServiceChain.sol\":4127:4130  i+1 */\n              tag_150\n              swap2\n              swap1\n              tag_122\n              jump\t// in\n            tag_150:\n                /* \"ServiceChain.sol\":4110:4131  empHours[waiter][i+1] */\n              dup2\n              sload\n              dup2\n              lt\n              tag_151\n              jumpi\n              tag_152\n              tag_99\n              jump\t// in\n            tag_152:\n            tag_151:\n              swap1\n              0x00\n              mstore\n              keccak256(0x00, 0x20)\n              swap1\n              0x04\n              mul\n              add\n                /* \"ServiceChain.sol\":4088:4096  empHours */\n              0x01\n                /* \"ServiceChain.sol\":4088:4104  empHours[waiter] */\n              0x00\n                /* \"ServiceChain.sol\":4097:4103  waiter */\n              dup6\n                /* \"ServiceChain.sol\":4088:4104  empHours[waiter] */\n              0xffffffffffffffffffffffffffffffffffffffff\n              and\n              0xffffffffffffffffffffffffffffffffffffffff\n              and\n              dup2\n              mstore\n              0x20\n              add\n              swap1\n              dup2\n              mstore\n              0x20\n              add\n              0x00\n              keccak256\n                /* \"ServiceChain.sol\":4105:4106  i */\n              dup3\n                /* \"ServiceChain.sol\":4088:4107  empHours[waiter][i] */\n              dup2\n              sload\n              dup2\n              lt\n              tag_154\n              jumpi\n              tag_155\n              tag_99\n              jump\t// in\n            tag_155:\n            tag_154:\n              swap1\n              0x00\n              mstore\n              keccak256(0x00, 0x20)\n              swap1\n              0x04\n              mul\n              add\n                /* \"ServiceChain.sol\":4088:4131  empHours[waiter][i] = empHours[waiter][i+1] */\n              0x00\n              dup3\n              add\n              sload\n              dup2\n              0x00\n              add\n              sstore\n              0x01\n              dup3\n              add\n              sload\n              dup2\n              0x01\n              add\n              sstore\n              0x02\n              dup3\n              add\n              sload\n              dup2\n              0x02\n              add\n              sstore\n              0x03\n              dup3\n              add\n              0x00\n              swap1\n              sload\n              swap1\n              0x0100\n              exp\n              swap1\n              div\n              0xff\n              and\n              dup2\n              0x03\n              add\n              exp(0x0100, 0x00)\n              dup2\n              sload\n              dup2\n              0xff\n              mul\n              not\n              and\n              swap1\n              dup4\n              iszero\n              iszero\n              mul\n              or\n              swap1\n              sstore\n              pop\n              swap1\n              pop\n              pop\n                /* \"ServiceChain.sol\":4069:4072  i++ */\n              dup1\n              dup1\n              tag_157\n              swap1\n              tag_130\n              jump\t// in\n            tag_157:\n              swap2\n              pop\n              pop\n                /* \"ServiceChain.sol\":4023:4143  for(uint i =index;i<empHours[waiter].length-1;i++){... */\n              jump(tag_146)\n            tag_147:\n              pop\n                /* \"ServiceChain.sol\":4153:4161  empHours */\n              0x01\n                /* \"ServiceChain.sol\":4153:4169  empHours[waiter] */\n              0x00\n                /* \"ServiceChain.sol\":4162:4168  waiter */\n              dup4\n                /* \"ServiceChain.sol\":4153:4169  empHours[waiter] */\n              0xffffffffffffffffffffffffffffffffffffffff\n              and\n              0xffffffffffffffffffffffffffffffffffffffff\n              and\n              dup2\n              mstore\n              0x20\n              add\n              swap1\n              dup2\n              mstore\n              0x20\n              add\n              0x00\n              keccak256\n                /* \"ServiceChain.sol\":4153:4175  empHours[waiter].pop() */\n              dup1\n              sload\n              dup1\n              tag_158\n              jumpi\n              tag_159\n              tag_133\n              jump\t// in\n            tag_159:\n            tag_158:\n              0x01\n              swap1\n              sub\n              dup2\n              dup2\n              swap1\n              0x00\n              mstore\n              keccak256(0x00, 0x20)\n              swap1\n              0x04\n              mul\n              add\n              0x00\n              dup1\n              dup3\n              add\n              0x00\n              swap1\n              sstore\n              0x01\n              dup3\n              add\n              0x00\n              swap1\n              sstore\n              0x02\n              dup3\n              add\n              0x00\n              swap1\n              sstore\n              0x03\n              dup3\n              add\n              exp(0x0100, 0x00)\n              dup2\n              sload\n              swap1\n              0xff\n              mul\n              not\n              and\n              swap1\n              sstore\n              pop\n              pop\n              swap1\n              sstore\n                /* \"ServiceChain.sol\":3613:4185  function denyHours(address waiter,uint index) public{... */\n              pop\n              pop\n              jump\t// out\n                /* \"ServiceChain.sol\":1665:1698  Transaction[] public transactions */\n            tag_56:\n              0x00\n              dup2\n              dup2\n              sload\n              dup2\n              lt\n              tag_161\n              jumpi\n              0x00\n              dup1\n              revert\n            tag_161:\n              swap1\n              0x00\n              mstore\n              keccak256(0x00, 0x20)\n              swap1\n              0x03\n              mul\n              add\n              0x00\n              swap2\n              pop\n              swap1\n              pop\n              dup1\n              0x00\n              add\n              0x00\n              swap1\n              sload\n              swap1\n              0x0100\n              exp\n              swap1\n              div\n              0xffffffffffffffffffffffffffffffffffffffff\n              and\n              swap1\n              dup1\n              0x01\n              add\n              sload\n              swap1\n              dup1\n              0x02\n              add\n              dup1\n              sload\n              tag_163\n              swap1\n              tag_164\n              jump\t// in\n            tag_163:\n              dup1\n              0x1f\n              add\n              0x20\n              dup1\n              swap2\n              div\n              mul\n              0x20\n              add\n              mload(0x40)\n              swap1\n              dup2\n              add\n              0x40\n              mstore\n              dup1\n              swap3\n              swap2\n              swap1\n              dup2\n              dup2\n              mstore\n              0x20\n              add\n              dup3\n              dup1\n              sload\n              tag_165\n              swap1\n              tag_164\n              jump\t// in\n            tag_165:\n              dup1\n              iszero\n              tag_166\n              jumpi\n              dup1\n              0x1f\n              lt\n              tag_167\n              jumpi\n              0x0100\n              dup1\n              dup4\n              sload\n              div\n              mul\n              dup4\n              mstore\n              swap2\n              0x20\n              add\n              swap2\n              jump(tag_166)\n            tag_167:\n              dup3\n              add\n              swap2\n              swap1\n              0x00\n              mstore\n              keccak256(0x00, 0x20)\n              swap1\n            tag_168:\n              dup2\n              sload\n              dup2\n              mstore\n              swap1\n              0x01\n              add\n              swap1\n              0x20\n              add\n              dup1\n              dup4\n              gt\n              tag_168\n              jumpi\n              dup3\n              swap1\n              sub\n              0x1f\n              and\n              dup3\n              add\n              swap2\n            tag_166:\n              pop\n              pop\n              pop\n              pop\n              pop\n              swap1\n              pop\n              dup4\n              jump\t// out\n                /* \"ServiceChain.sol\":4244:4361  function getHourLog(address waiter) public view returns(hourLog[] memory){... */\n            tag_63:\n                /* \"ServiceChain.sol\":4300:4316  hourLog[] memory */\n              0x60\n                /* \"ServiceChain.sol\":4335:4343  empHours */\n              0x01\n                /* \"ServiceChain.sol\":4335:4351  empHours[waiter] */\n              0x00\n                /* \"ServiceChain.sol\":4344:4350  waiter */\n              dup4\n                /* \"ServiceChain.sol\":4335:4351  empHours[waiter] */\n              0xffffffffffffffffffffffffffffffffffffffff\n              and\n              0xffffffffffffffffffffffffffffffffffffffff\n              and\n              dup2\n              mstore\n              0x20\n              add\n              swap1\n              dup2\n              mstore\n              0x20\n              add\n              0x00\n              keccak256\n                /* \"ServiceChain.sol\":4328:4351  return empHours[waiter] */\n              dup1\n              sload\n              dup1\n              0x20\n              mul\n              0x20\n              add\n              mload(0x40)\n              swap1\n              dup2\n              add\n              0x40\n              mstore\n              dup1\n              swap3\n              swap2\n              swap1\n              dup2\n              dup2\n              mstore\n              0x20\n              add\n              0x00\n              swap1\n            tag_170:\n              dup3\n              dup3\n              lt\n              iszero\n              tag_171\n              jumpi\n              dup4\n              dup3\n              swap1\n              0x00\n              mstore\n              keccak256(0x00, 0x20)\n              swap1\n              0x04\n              mul\n              add\n              mload(0x40)\n              dup1\n              0x80\n              add\n              0x40\n              mstore\n              swap1\n              dup2\n              0x00\n              dup3\n              add\n              sload\n              dup2\n              mstore\n              0x20\n              add\n              0x01\n              dup3\n              add\n              sload\n              dup2\n              mstore\n              0x20\n              add\n              0x02\n              dup3\n              add\n              sload\n              dup2\n              mstore\n              0x20\n              add\n              0x03\n              dup3\n              add\n              0x00\n              swap1\n              sload\n              swap1\n              0x0100\n              exp\n              swap1\n              div\n              0xff\n              and\n              iszero\n              iszero\n              iszero\n              iszero\n              dup2\n              mstore\n              pop\n              pop\n              dup2\n              mstore\n              0x20\n              add\n              swap1\n              0x01\n              add\n              swap1\n              jump(tag_170)\n            tag_171:\n              pop\n              pop\n              pop\n              pop\n              swap1\n              pop\n                /* \"ServiceChain.sol\":4244:4361  function getHourLog(address waiter) public view returns(hourLog[] memory){... */\n              swap2\n              swap1\n              pop\n              jump\t// out\n                /* \"ServiceChain.sol\":4383:4562  function sendRatings(address waiter,uint rating) public {... */\n            tag_69:\n                /* \"ServiceChain.sol\":4468:4469  0 */\n              0x00\n                /* \"ServiceChain.sol\":4458:4464  rating */\n              dup2\n                /* \"ServiceChain.sol\":4458:4469  rating >= 0 */\n              lt\n              iszero\n                /* \"ServiceChain.sol\":4458:4483  rating >= 0 && rating <=5 */\n              dup1\n              iszero\n              tag_174\n              jumpi\n              pop\n                /* \"ServiceChain.sol\":4482:4483  5 */\n              0x05\n                /* \"ServiceChain.sol\":4473:4479  rating */\n              dup2\n                /* \"ServiceChain.sol\":4473:4483  rating <=5 */\n              gt\n              iszero\n                /* \"ServiceChain.sol\":4458:4483  rating >= 0 && rating <=5 */\n            tag_174:\n                /* \"ServiceChain.sol\":4450:4484  require(rating >= 0 && rating <=5) */\n              tag_175\n              jumpi\n              0x00\n              dup1\n              revert\n            tag_175:\n                /* \"ServiceChain.sol\":4531:4546  block.timestamp */\n              timestamp\n                /* \"ServiceChain.sol\":4524:4530  waiter */\n              dup3\n                /* \"ServiceChain.sol\":4500:4554  submitRating(msg.sender,waiter,block.timestamp,rating) */\n              0xffffffffffffffffffffffffffffffffffffffff\n              and\n                /* \"ServiceChain.sol\":4513:4523  msg.sender */\n              caller\n                /* \"ServiceChain.sol\":4500:4554  submitRating(msg.sender,waiter,block.timestamp,rating) */\n              0xffffffffffffffffffffffffffffffffffffffff\n              and\n              0xdddb240fbb188a53bd8696322a87c3683a1ac31c64363d8fb20958c533d72b1e\n                /* \"ServiceChain.sol\":4547:4553  rating */\n              dup5\n                /* \"ServiceChain.sol\":4500:4554  submitRating(msg.sender,waiter,block.timestamp,rating) */\n              mload(0x40)\n              tag_176\n              swap2\n              swap1\n              tag_28\n              jump\t// in\n            tag_176:\n              mload(0x40)\n              dup1\n              swap2\n              sub\n              swap1\n              log4\n                /* \"ServiceChain.sol\":4383:4562  function sendRatings(address waiter,uint rating) public {... */\n              pop\n              pop\n              jump\t// out\n                /* \"ServiceChain.sol\":4858:5040  function sendTip(address payable recipient) public payable {... */\n            tag_73:\n                /* \"ServiceChain.sol\":4928:4937  recipient */\n              dup1\n                /* \"ServiceChain.sol\":4928:4946  recipient.transfer */\n              0xffffffffffffffffffffffffffffffffffffffff\n              and\n                /* \"ServiceChain.sol\":4928:4957  recipient.transfer(msg.value) */\n              0x08fc\n                /* \"ServiceChain.sol\":4947:4956  msg.value */\n              callvalue\n                /* \"ServiceChain.sol\":4928:4957  recipient.transfer(msg.value) */\n              swap1\n              dup2\n              iszero\n              mul\n              swap1\n              mload(0x40)\n              0x00\n              mload(0x40)\n              dup1\n              dup4\n              sub\n              dup2\n              dup6\n              dup9\n              dup9\n              call\n              swap4\n              pop\n              pop\n              pop\n              pop\n              iszero\n              dup1\n              iszero\n              tag_179\n              jumpi\n              returndatasize\n              0x00\n              dup1\n              returndatacopy\n              revert(0x00, returndatasize)\n            tag_179:\n              pop\n                /* \"ServiceChain.sol\":5005:5020  block.timestamp */\n              timestamp\n                /* \"ServiceChain.sol\":4995:5004  recipient */\n              dup2\n                /* \"ServiceChain.sol\":4973:5032  submitTip(msg.sender, recipient,block.timestamp, msg.value) */\n              0xffffffffffffffffffffffffffffffffffffffff\n              and\n                /* \"ServiceChain.sol\":4983:4993  msg.sender */\n              caller\n                /* \"ServiceChain.sol\":4973:5032  submitTip(msg.sender, recipient,block.timestamp, msg.value) */\n              0xffffffffffffffffffffffffffffffffffffffff\n              and\n              0x2165348cf27937d1d425739e783ea2b54d034c643767d704eb4a9f6ba834726d\n                /* \"ServiceChain.sol\":5022:5031  msg.value */\n              callvalue\n                /* \"ServiceChain.sol\":4973:5032  submitTip(msg.sender, recipient,block.timestamp, msg.value) */\n              mload(0x40)\n              tag_180\n              swap2\n              swap1\n              tag_28\n              jump\t// in\n            tag_180:\n              mload(0x40)\n              dup1\n              swap2\n              sub\n              swap1\n              log4\n                /* \"ServiceChain.sol\":4858:5040  function sendTip(address payable recipient) public payable {... */\n              pop\n              jump\t// out\n                /* \"ServiceChain.sol\":2049:2193  function setHourlyRate(uint rate) public {... */\n            tag_77:\n                /* \"ServiceChain.sol\":2134:2149  block.timestamp */\n              timestamp\n                /* \"ServiceChain.sol\":2123:2133  msg.sender */\n              caller\n                /* \"ServiceChain.sol\":2106:2155  submitHourlyRate(msg.sender,block.timestamp,rate) */\n              0xffffffffffffffffffffffffffffffffffffffff\n              and\n              0x556a8d88a81363d3d82e0a4349b1c101aa81b26dd3f3c9e97a447b9f6cafbf53\n                /* \"ServiceChain.sol\":2150:2154  rate */\n              dup4\n                /* \"ServiceChain.sol\":2106:2155  submitHourlyRate(msg.sender,block.timestamp,rate) */\n              mload(0x40)\n              tag_182\n              swap2\n              swap1\n              tag_28\n              jump\t// in\n            tag_182:\n              mload(0x40)\n              dup1\n              swap2\n              sub\n              swap1\n              log3\n                /* \"ServiceChain.sol\":2179:2183  rate */\n              dup1\n                /* \"ServiceChain.sol\":2166:2176  hourlyRate */\n              0x04\n                /* \"ServiceChain.sol\":2166:2183  hourlyRate = rate */\n              dup2\n              swap1\n              sstore\n              pop\n                /* \"ServiceChain.sol\":2049:2193  function setHourlyRate(uint rate) public {... */\n              pop\n              jump\t// out\n                /* \"ServiceChain.sol\":1761:1778  string public org */\n            tag_80:\n              0x02\n              dup1\n              sload\n              tag_183\n              swap1\n              tag_164\n              jump\t// in\n            tag_183:\n              dup1\n              0x1f\n              add\n              0x20\n              dup1\n              swap2\n              div\n              mul\n              0x20\n              add\n              mload(0x40)\n              swap1\n              dup2\n              add\n              0x40\n              mstore\n              dup1\n              swap3\n              swap2\n              swap1\n              dup2\n              dup2\n              mstore\n              0x20\n              add\n              dup3\n              dup1\n              sload\n              tag_184\n              swap1\n              tag_164\n              jump\t// in\n            tag_184:\n              dup1\n              iszero\n              tag_185\n              jumpi\n              dup1\n              0x1f\n              lt\n              tag_186\n              jumpi\n              0x0100\n              dup1\n              dup4\n              sload\n              div\n              mul\n              dup4\n              mstore\n              swap2\n              0x20\n              add\n              swap2\n              jump(tag_185)\n            tag_186:\n              dup3\n              add\n              swap2\n              swap1\n              0x00\n              mstore\n              keccak256(0x00, 0x20)\n              swap1\n            tag_187:\n              dup2\n              sload\n              dup2\n              mstore\n              swap1\n              0x01\n              add\n              swap1\n              0x20\n              add\n              dup1\n              dup4\n              gt\n              tag_187\n              jumpi\n              dup3\n              swap1\n              sub\n              0x1f\n              and\n              dup3\n              add\n              swap2\n            tag_185:\n              pop\n              pop\n              pop\n              pop\n              pop\n              dup2\n              jump\t// out\n                /* \"ServiceChain.sol\":4605:4731  function deposit() public payable {... */\n            tag_84:\n                /* \"ServiceChain.sol\":4663:4673  msg.sender */\n              caller\n                /* \"ServiceChain.sol\":4655:4723  Deposit(msg.sender,msg.value, address(this).balance,block.timestamp) */\n              0xffffffffffffffffffffffffffffffffffffffff\n              and\n              0x36af321ec8d3c75236829c5317affd40ddb308863a1236d2d277a4025cccee1e\n                /* \"ServiceChain.sol\":4674:4683  msg.value */\n              callvalue\n                /* \"ServiceChain.sol\":4685:4706  address(this).balance */\n              selfbalance\n                /* \"ServiceChain.sol\":4707:4722  block.timestamp */\n              timestamp\n                /* \"ServiceChain.sol\":4655:4723  Deposit(msg.sender,msg.value, address(this).balance,block.timestamp) */\n              mload(0x40)\n              tag_189\n              swap4\n              swap3\n              swap2\n              swap1\n              tag_109\n              jump\t// in\n            tag_189:\n              mload(0x40)\n              dup1\n              swap2\n              sub\n              swap1\n              log2\n                /* \"ServiceChain.sol\":4605:4731  function deposit() public payable {... */\n              jump\t// out\n                /* \"#utility.yul\":88:205   */\n            tag_191:\n                /* \"#utility.yul\":197:198   */\n              0x00\n                /* \"#utility.yul\":194:195   */\n              dup1\n                /* \"#utility.yul\":187:199   */\n              revert\n                /* \"#utility.yul\":334:411   */\n            tag_193:\n                /* \"#utility.yul\":371:378   */\n              0x00\n                /* \"#utility.yul\":400:405   */\n              dup2\n                /* \"#utility.yul\":389:405   */\n              swap1\n              pop\n                /* \"#utility.yul\":334:411   */\n              swap2\n              swap1\n              pop\n              jump\t// out\n                /* \"#utility.yul\":417:539   */\n            tag_194:\n                /* \"#utility.yul\":490:514   */\n              tag_238\n                /* \"#utility.yul\":508:513   */\n              dup2\n                /* \"#utility.yul\":490:514   */\n              tag_193\n              jump\t// in\n            tag_238:\n                /* \"#utility.yul\":483:488   */\n              dup2\n                /* \"#utility.yul\":480:515   */\n              eq\n                /* \"#utility.yul\":470:533   */\n              tag_239\n              jumpi\n                /* \"#utility.yul\":529:530   */\n              0x00\n                /* \"#utility.yul\":526:527   */\n              dup1\n                /* \"#utility.yul\":519:531   */\n              revert\n                /* \"#utility.yul\":470:533   */\n            tag_239:\n                /* \"#utility.yul\":417:539   */\n              pop\n              jump\t// out\n                /* \"#utility.yul\":545:684   */\n            tag_195:\n                /* \"#utility.yul\":591:596   */\n              0x00\n                /* \"#utility.yul\":629:635   */\n              dup2\n                /* \"#utility.yul\":616:636   */\n              calldataload\n                /* \"#utility.yul\":607:636   */\n              swap1\n              pop\n                /* \"#utility.yul\":645:678   */\n              tag_241\n                /* \"#utility.yul\":672:677   */\n              dup2\n                /* \"#utility.yul\":645:678   */\n              tag_194\n              jump\t// in\n            tag_241:\n                /* \"#utility.yul\":545:684   */\n              swap3\n              swap2\n              pop\n              pop\n              jump\t// out\n                /* \"#utility.yul\":690:1019   */\n            tag_22:\n                /* \"#utility.yul\":749:755   */\n              0x00\n                /* \"#utility.yul\":798:800   */\n              0x20\n                /* \"#utility.yul\":786:795   */\n              dup3\n                /* \"#utility.yul\":777:784   */\n              dup5\n                /* \"#utility.yul\":773:796   */\n              sub\n                /* \"#utility.yul\":769:801   */\n              slt\n                /* \"#utility.yul\":766:885   */\n              iszero\n              tag_243\n              jumpi\n                /* \"#utility.yul\":804:883   */\n              tag_244\n              tag_191\n              jump\t// in\n            tag_244:\n                /* \"#utility.yul\":766:885   */\n            tag_243:\n                /* \"#utility.yul\":924:925   */\n              0x00\n                /* \"#utility.yul\":949:1002   */\n              tag_245\n                /* \"#utility.yul\":994:1001   */\n              dup5\n                /* \"#utility.yul\":985:991   */\n              dup3\n                /* \"#utility.yul\":974:983   */\n              dup6\n                /* \"#utility.yul\":970:992   */\n              add\n                /* \"#utility.yul\":949:1002   */\n              tag_195\n              jump\t// in\n            tag_245:\n                /* \"#utility.yul\":939:1002   */\n              swap2\n              pop\n                /* \"#utility.yul\":895:1012   */\n              pop\n                /* \"#utility.yul\":690:1019   */\n              swap3\n              swap2\n              pop\n              pop\n              jump\t// out\n                /* \"#utility.yul\":1025:1143   */\n            tag_196:\n                /* \"#utility.yul\":1112:1136   */\n              tag_247\n                /* \"#utility.yul\":1130:1135   */\n              dup2\n                /* \"#utility.yul\":1112:1136   */\n              tag_193\n              jump\t// in\n            tag_247:\n                /* \"#utility.yul\":1107:1110   */\n              dup3\n                /* \"#utility.yul\":1100:1137   */\n              mstore\n                /* \"#utility.yul\":1025:1143   */\n              pop\n              pop\n              jump\t// out\n                /* \"#utility.yul\":1149:1371   */\n            tag_28:\n                /* \"#utility.yul\":1242:1246   */\n              0x00\n                /* \"#utility.yul\":1280:1282   */\n              0x20\n                /* \"#utility.yul\":1269:1278   */\n              dup3\n                /* \"#utility.yul\":1265:1283   */\n              add\n                /* \"#utility.yul\":1257:1283   */\n              swap1\n              pop\n                /* \"#utility.yul\":1293:1364   */\n              tag_249\n                /* \"#utility.yul\":1361:1362   */\n              0x00\n                /* \"#utility.yul\":1350:1359   */\n              dup4\n                /* \"#utility.yul\":1346:1363   */\n              add\n                /* \"#utility.yul\":1337:1343   */\n              dup5\n                /* \"#utility.yul\":1293:1364   */\n              tag_196\n              jump\t// in\n            tag_249:\n                /* \"#utility.yul\":1149:1371   */\n              swap3\n              swap2\n              pop\n              pop\n              jump\t// out\n                /* \"#utility.yul\":1377:1503   */\n            tag_197:\n                /* \"#utility.yul\":1414:1421   */\n              0x00\n                /* \"#utility.yul\":1454:1496   */\n              0xffffffffffffffffffffffffffffffffffffffff\n                /* \"#utility.yul\":1447:1452   */\n              dup3\n                /* \"#utility.yul\":1443:1497   */\n              and\n                /* \"#utility.yul\":1432:1497   */\n              swap1\n              pop\n                /* \"#utility.yul\":1377:1503   */\n              swap2\n              swap1\n              pop\n              jump\t// out\n                /* \"#utility.yul\":1509:1605   */\n            tag_198:\n                /* \"#utility.yul\":1546:1553   */\n              0x00\n                /* \"#utility.yul\":1575:1599   */\n              tag_252\n                /* \"#utility.yul\":1593:1598   */\n              dup3\n                /* \"#utility.yul\":1575:1599   */\n              tag_197\n              jump\t// in\n            tag_252:\n                /* \"#utility.yul\":1564:1599   */\n              swap1\n              pop\n                /* \"#utility.yul\":1509:1605   */\n              swap2\n              swap1\n              pop\n              jump\t// out\n                /* \"#utility.yul\":1611:1733   */\n            tag_199:\n                /* \"#utility.yul\":1684:1708   */\n              tag_254\n                /* \"#utility.yul\":1702:1707   */\n              dup2\n                /* \"#utility.yul\":1684:1708   */\n              tag_198\n              jump\t// in\n            tag_254:\n                /* \"#utility.yul\":1677:1682   */\n              dup2\n                /* \"#utility.yul\":1674:1709   */\n              eq\n                /* \"#utility.yul\":1664:1727   */\n              tag_255\n              jumpi\n                /* \"#utility.yul\":1723:1724   */\n              0x00\n                /* \"#utility.yul\":1720:1721   */\n              dup1\n                /* \"#utility.yul\":1713:1725   */\n              revert\n                /* \"#utility.yul\":1664:1727   */\n            tag_255:\n                /* \"#utility.yul\":1611:1733   */\n              pop\n              jump\t// out\n                /* \"#utility.yul\":1739:1878   */\n            tag_200:\n                /* \"#utility.yul\":1785:1790   */\n              0x00\n                /* \"#utility.yul\":1823:1829   */\n              dup2\n                /* \"#utility.yul\":1810:1830   */\n              calldataload\n                /* \"#utility.yul\":1801:1830   */\n              swap1\n              pop\n                /* \"#utility.yul\":1839:1872   */\n              tag_257\n                /* \"#utility.yul\":1866:1871   */\n              dup2\n                /* \"#utility.yul\":1839:1872   */\n              tag_199\n              jump\t// in\n            tag_257:\n                /* \"#utility.yul\":1739:1878   */\n              swap3\n              swap2\n              pop\n              pop\n              jump\t// out\n                /* \"#utility.yul\":1884:2358   */\n            tag_32:\n                /* \"#utility.yul\":1952:1958   */\n              0x00\n                /* \"#utility.yul\":1960:1966   */\n              dup1\n                /* \"#utility.yul\":2009:2011   */\n              0x40\n                /* \"#utility.yul\":1997:2006   */\n              dup4\n                /* \"#utility.yul\":1988:1995   */\n              dup6\n                /* \"#utility.yul\":1984:2007   */\n              sub\n                /* \"#utility.yul\":1980:2012   */\n              slt\n                /* \"#utility.yul\":1977:2096   */\n              iszero\n              tag_259\n              jumpi\n                /* \"#utility.yul\":2015:2094   */\n              tag_260\n              tag_191\n              jump\t// in\n            tag_260:\n                /* \"#utility.yul\":1977:2096   */\n            tag_259:\n                /* \"#utility.yul\":2135:2136   */\n              0x00\n                /* \"#utility.yul\":2160:2213   */\n              tag_261\n                /* \"#utility.yul\":2205:2212   */\n              dup6\n                /* \"#utility.yul\":2196:2202   */\n              dup3\n                /* \"#utility.yul\":2185:2194   */\n              dup7\n                /* \"#utility.yul\":2181:2203   */\n              add\n                /* \"#utility.yul\":2160:2213   */\n              tag_200\n              jump\t// in\n            tag_261:\n                /* \"#utility.yul\":2150:2213   */\n              swap3\n              pop\n                /* \"#utility.yul\":2106:2223   */\n              pop\n                /* \"#utility.yul\":2262:2264   */\n              0x20\n                /* \"#utility.yul\":2288:2341   */\n              tag_262\n                /* \"#utility.yul\":2333:2340   */\n              dup6\n                /* \"#utility.yul\":2324:2330   */\n              dup3\n                /* \"#utility.yul\":2313:2322   */\n              dup7\n                /* \"#utility.yul\":2309:2331   */\n              add\n                /* \"#utility.yul\":2288:2341   */\n              tag_195\n              jump\t// in\n            tag_262:\n                /* \"#utility.yul\":2278:2341   */\n              swap2\n              pop\n                /* \"#utility.yul\":2233:2351   */\n              pop\n                /* \"#utility.yul\":1884:2358   */\n              swap3\n              pop\n              swap3\n              swap1\n              pop\n              jump\t// out\n                /* \"#utility.yul\":2364:2454   */\n            tag_201:\n                /* \"#utility.yul\":2398:2405   */\n              0x00\n                /* \"#utility.yul\":2441:2446   */\n              dup2\n                /* \"#utility.yul\":2434:2447   */\n              iszero\n                /* \"#utility.yul\":2427:2448   */\n              iszero\n                /* \"#utility.yul\":2416:2448   */\n              swap1\n              pop\n                /* \"#utility.yul\":2364:2454   */\n              swap2\n              swap1\n              pop\n              jump\t// out\n                /* \"#utility.yul\":2460:2569   */\n            tag_202:\n                /* \"#utility.yul\":2541:2562   */\n              tag_265\n                /* \"#utility.yul\":2556:2561   */\n              dup2\n                /* \"#utility.yul\":2541:2562   */\n              tag_201\n              jump\t// in\n            tag_265:\n                /* \"#utility.yul\":2536:2539   */\n              dup3\n                /* \"#utility.yul\":2529:2563   */\n              mstore\n                /* \"#utility.yul\":2460:2569   */\n              pop\n              pop\n              jump\t// out\n                /* \"#utility.yul\":2575:3116   */\n            tag_35:\n                /* \"#utility.yul\":2746:2750   */\n              0x00\n                /* \"#utility.yul\":2784:2787   */\n              0x80\n                /* \"#utility.yul\":2773:2782   */\n              dup3\n                /* \"#utility.yul\":2769:2788   */\n              add\n                /* \"#utility.yul\":2761:2788   */\n              swap1\n              pop\n                /* \"#utility.yul\":2798:2869   */\n              tag_267\n                /* \"#utility.yul\":2866:2867   */\n              0x00\n                /* \"#utility.yul\":2855:2864   */\n              dup4\n                /* \"#utility.yul\":2851:2868   */\n              add\n                /* \"#utility.yul\":2842:2848   */\n              dup8\n                /* \"#utility.yul\":2798:2869   */\n              tag_196\n              jump\t// in\n            tag_267:\n                /* \"#utility.yul\":2879:2951   */\n              tag_268\n                /* \"#utility.yul\":2947:2949   */\n              0x20\n                /* \"#utility.yul\":2936:2945   */\n              dup4\n                /* \"#utility.yul\":2932:2950   */\n              add\n                /* \"#utility.yul\":2923:2929   */\n              dup7\n                /* \"#utility.yul\":2879:2951   */\n              tag_196\n              jump\t// in\n            tag_268:\n                /* \"#utility.yul\":2961:3033   */\n              tag_269\n                /* \"#utility.yul\":3029:3031   */\n              0x40\n                /* \"#utility.yul\":3018:3027   */\n              dup4\n                /* \"#utility.yul\":3014:3032   */\n              add\n                /* \"#utility.yul\":3005:3011   */\n              dup6\n                /* \"#utility.yul\":2961:3033   */\n              tag_196\n              jump\t// in\n            tag_269:\n                /* \"#utility.yul\":3043:3109   */\n              tag_270\n                /* \"#utility.yul\":3105:3107   */\n              0x60\n                /* \"#utility.yul\":3094:3103   */\n              dup4\n                /* \"#utility.yul\":3090:3108   */\n              add\n                /* \"#utility.yul\":3081:3087   */\n              dup5\n                /* \"#utility.yul\":3043:3109   */\n              tag_202\n              jump\t// in\n            tag_270:\n                /* \"#utility.yul\":2575:3116   */\n              swap6\n              swap5\n              pop\n              pop\n              pop\n              pop\n              pop\n              jump\t// out\n                /* \"#utility.yul\":3122:3226   */\n            tag_203:\n                /* \"#utility.yul\":3167:3174   */\n              0x00\n                /* \"#utility.yul\":3196:3220   */\n              tag_272\n                /* \"#utility.yul\":3214:3219   */\n              dup3\n                /* \"#utility.yul\":3196:3220   */\n              tag_197\n              jump\t// in\n            tag_272:\n                /* \"#utility.yul\":3185:3220   */\n              swap1\n              pop\n                /* \"#utility.yul\":3122:3226   */\n              swap2\n              swap1\n              pop\n              jump\t// out\n                /* \"#utility.yul\":3232:3370   */\n            tag_204:\n                /* \"#utility.yul\":3313:3345   */\n              tag_274\n                /* \"#utility.yul\":3339:3344   */\n              dup2\n                /* \"#utility.yul\":3313:3345   */\n              tag_203\n              jump\t// in\n            tag_274:\n                /* \"#utility.yul\":3306:3311   */\n              dup2\n                /* \"#utility.yul\":3303:3346   */\n              eq\n                /* \"#utility.yul\":3293:3364   */\n              tag_275\n              jumpi\n                /* \"#utility.yul\":3360:3361   */\n              0x00\n                /* \"#utility.yul\":3357:3358   */\n              dup1\n                /* \"#utility.yul\":3350:3362   */\n              revert\n                /* \"#utility.yul\":3293:3364   */\n            tag_275:\n                /* \"#utility.yul\":3232:3370   */\n              pop\n              jump\t// out\n                /* \"#utility.yul\":3376:3531   */\n            tag_205:\n                /* \"#utility.yul\":3430:3435   */\n              0x00\n                /* \"#utility.yul\":3468:3474   */\n              dup2\n                /* \"#utility.yul\":3455:3475   */\n              calldataload\n                /* \"#utility.yul\":3446:3475   */\n              swap1\n              pop\n                /* \"#utility.yul\":3484:3525   */\n              tag_277\n                /* \"#utility.yul\":3519:3524   */\n              dup2\n                /* \"#utility.yul\":3484:3525   */\n              tag_204\n              jump\t// in\n            tag_277:\n                /* \"#utility.yul\":3376:3531   */\n              swap3\n              swap2\n              pop\n              pop\n              jump\t// out\n                /* \"#utility.yul\":3537:4027   */\n            tag_38:\n                /* \"#utility.yul\":3613:3619   */\n              0x00\n                /* \"#utility.yul\":3621:3627   */\n              dup1\n                /* \"#utility.yul\":3670:3672   */\n              0x40\n                /* \"#utility.yul\":3658:3667   */\n              dup4\n                /* \"#utility.yul\":3649:3656   */\n              dup6\n                /* \"#utility.yul\":3645:3668   */\n              sub\n                /* \"#utility.yul\":3641:3673   */\n              slt\n                /* \"#utility.yul\":3638:3757   */\n              iszero\n              tag_279\n              jumpi\n                /* \"#utility.yul\":3676:3755   */\n              tag_280\n              tag_191\n              jump\t// in\n            tag_280:\n                /* \"#utility.yul\":3638:3757   */\n            tag_279:\n                /* \"#utility.yul\":3796:3797   */\n              0x00\n                /* \"#utility.yul\":3821:3882   */\n              tag_281\n                /* \"#utility.yul\":3874:3881   */\n              dup6\n                /* \"#utility.yul\":3865:3871   */\n              dup3\n                /* \"#utility.yul\":3854:3863   */\n              dup7\n                /* \"#utility.yul\":3850:3872   */\n              add\n                /* \"#utility.yul\":3821:3882   */\n              tag_205\n              jump\t// in\n            tag_281:\n                /* \"#utility.yul\":3811:3882   */\n              swap3\n              pop\n                /* \"#utility.yul\":3767:3892   */\n              pop\n                /* \"#utility.yul\":3931:3933   */\n              0x20\n                /* \"#utility.yul\":3957:4010   */\n              tag_282\n                /* \"#utility.yul\":4002:4009   */\n              dup6\n                /* \"#utility.yul\":3993:3999   */\n              dup3\n                /* \"#utility.yul\":3982:3991   */\n              dup7\n                /* \"#utility.yul\":3978:4000   */\n              add\n                /* \"#utility.yul\":3957:4010   */\n              tag_195\n              jump\t// in\n            tag_282:\n                /* \"#utility.yul\":3947:4010   */\n              swap2\n              pop\n                /* \"#utility.yul\":3902:4020   */\n              pop\n                /* \"#utility.yul\":3537:4027   */\n              swap3\n              pop\n              swap3\n              swap1\n              pop\n              jump\t// out\n                /* \"#utility.yul\":4033:4151   */\n            tag_206:\n                /* \"#utility.yul\":4120:4144   */\n              tag_284\n                /* \"#utility.yul\":4138:4143   */\n              dup2\n                /* \"#utility.yul\":4120:4144   */\n              tag_198\n              jump\t// in\n            tag_284:\n                /* \"#utility.yul\":4115:4118   */\n              dup3\n                /* \"#utility.yul\":4108:4145   */\n              mstore\n                /* \"#utility.yul\":4033:4151   */\n              pop\n              pop\n              jump\t// out\n                /* \"#utility.yul\":4157:4379   */\n            tag_44:\n                /* \"#utility.yul\":4250:4254   */\n              0x00\n                /* \"#utility.yul\":4288:4290   */\n              0x20\n                /* \"#utility.yul\":4277:4286   */\n              dup3\n                /* \"#utility.yul\":4273:4291   */\n              add\n                /* \"#utility.yul\":4265:4291   */\n              swap1\n              pop\n                /* \"#utility.yul\":4301:4372   */\n              tag_286\n                /* \"#utility.yul\":4369:4370   */\n              0x00\n                /* \"#utility.yul\":4358:4367   */\n              dup4\n                /* \"#utility.yul\":4354:4371   */\n              add\n                /* \"#utility.yul\":4345:4351   */\n              dup5\n                /* \"#utility.yul\":4301:4372   */\n              tag_206\n              jump\t// in\n            tag_286:\n                /* \"#utility.yul\":4157:4379   */\n              swap3\n              swap2\n              pop\n              pop\n              jump\t// out\n                /* \"#utility.yul\":4385:4483   */\n            tag_207:\n                /* \"#utility.yul\":4436:4442   */\n              0x00\n                /* \"#utility.yul\":4470:4475   */\n              dup2\n                /* \"#utility.yul\":4464:4476   */\n              mload\n                /* \"#utility.yul\":4454:4476   */\n              swap1\n              pop\n                /* \"#utility.yul\":4385:4483   */\n              swap2\n              swap1\n              pop\n              jump\t// out\n                /* \"#utility.yul\":4489:4657   */\n            tag_208:\n                /* \"#utility.yul\":4572:4583   */\n              0x00\n                /* \"#utility.yul\":4606:4612   */\n              dup3\n                /* \"#utility.yul\":4601:4604   */\n              dup3\n                /* \"#utility.yul\":4594:4613   */\n              mstore\n                /* \"#utility.yul\":4646:4650   */\n              0x20\n                /* \"#utility.yul\":4641:4644   */\n              dup3\n                /* \"#utility.yul\":4637:4651   */\n              add\n                /* \"#utility.yul\":4622:4651   */\n              swap1\n              pop\n                /* \"#utility.yul\":4489:4657   */\n              swap3\n              swap2\n              pop\n              pop\n              jump\t// out\n                /* \"#utility.yul\":4663:4909   */\n            tag_209:\n                /* \"#utility.yul\":4744:4745   */\n              0x00\n                /* \"#utility.yul\":4754:4867   */\n            tag_290:\n                /* \"#utility.yul\":4768:4774   */\n              dup4\n                /* \"#utility.yul\":4765:4766   */\n              dup2\n                /* \"#utility.yul\":4762:4775   */\n              lt\n                /* \"#utility.yul\":4754:4867   */\n              iszero\n              tag_292\n              jumpi\n                /* \"#utility.yul\":4853:4854   */\n              dup1\n                /* \"#utility.yul\":4848:4851   */\n              dup3\n                /* \"#utility.yul\":4844:4855   */\n              add\n                /* \"#utility.yul\":4838:4856   */\n              mload\n                /* \"#utility.yul\":4834:4835   */\n              dup2\n                /* \"#utility.yul\":4829:4832   */\n              dup5\n                /* \"#utility.yul\":4825:4836   */\n              add\n                /* \"#utility.yul\":4818:4857   */\n              mstore\n                /* \"#utility.yul\":4790:4792   */\n              0x20\n                /* \"#utility.yul\":4787:4788   */\n              dup2\n                /* \"#utility.yul\":4783:4793   */\n              add\n                /* \"#utility.yul\":4778:4793   */\n              swap1\n              pop\n                /* \"#utility.yul\":4754:4867   */\n              jump(tag_290)\n            tag_292:\n                /* \"#utility.yul\":4901:4902   */\n              0x00\n                /* \"#utility.yul\":4892:4898   */\n              dup5\n                /* \"#utility.yul\":4887:4890   */\n              dup5\n                /* \"#utility.yul\":4883:4899   */\n              add\n                /* \"#utility.yul\":4876:4903   */\n              mstore\n                /* \"#utility.yul\":4725:4909   */\n              pop\n                /* \"#utility.yul\":4663:4909   */\n              pop\n              pop\n              pop\n              jump\t// out\n                /* \"#utility.yul\":4915:5017   */\n            tag_210:\n                /* \"#utility.yul\":4956:4962   */\n              0x00\n                /* \"#utility.yul\":5007:5009   */\n              0x1f\n                /* \"#utility.yul\":5003:5010   */\n              not\n                /* \"#utility.yul\":4998:5000   */\n              0x1f\n                /* \"#utility.yul\":4991:4996   */\n              dup4\n                /* \"#utility.yul\":4987:5001   */\n              add\n                /* \"#utility.yul\":4983:5011   */\n              and\n                /* \"#utility.yul\":4973:5011   */\n              swap1\n              pop\n                /* \"#utility.yul\":4915:5017   */\n              swap2\n              swap1\n              pop\n              jump\t// out\n                /* \"#utility.yul\":5023:5396   */\n            tag_211:\n                /* \"#utility.yul\":5109:5112   */\n              0x00\n                /* \"#utility.yul\":5137:5175   */\n              tag_295\n                /* \"#utility.yul\":5169:5174   */\n              dup3\n                /* \"#utility.yul\":5137:5175   */\n              tag_207\n              jump\t// in\n            tag_295:\n                /* \"#utility.yul\":5191:5261   */\n              tag_296\n                /* \"#utility.yul\":5254:5260   */\n              dup2\n                /* \"#utility.yul\":5249:5252   */\n              dup6\n                /* \"#utility.yul\":5191:5261   */\n              tag_208\n              jump\t// in\n            tag_296:\n                /* \"#utility.yul\":5184:5261   */\n              swap4\n              pop\n                /* \"#utility.yul\":5270:5335   */\n              tag_297\n                /* \"#utility.yul\":5328:5334   */\n              dup2\n                /* \"#utility.yul\":5323:5326   */\n              dup6\n                /* \"#utility.yul\":5316:5320   */\n              0x20\n                /* \"#utility.yul\":5309:5314   */\n              dup7\n                /* \"#utility.yul\":5305:5321   */\n              add\n                /* \"#utility.yul\":5270:5335   */\n              tag_209\n              jump\t// in\n            tag_297:\n                /* \"#utility.yul\":5360:5389   */\n              tag_298\n                /* \"#utility.yul\":5382:5388   */\n              dup2\n                /* \"#utility.yul\":5360:5389   */\n              tag_210\n              jump\t// in\n            tag_298:\n                /* \"#utility.yul\":5355:5358   */\n              dup5\n                /* \"#utility.yul\":5351:5390   */\n              add\n                /* \"#utility.yul\":5344:5390   */\n              swap2\n              pop\n                /* \"#utility.yul\":5113:5396   */\n              pop\n                /* \"#utility.yul\":5023:5396   */\n              swap3\n              swap2\n              pop\n              pop\n              jump\t// out\n                /* \"#utility.yul\":5402:5931   */\n            tag_58:\n                /* \"#utility.yul\":5569:5573   */\n              0x00\n                /* \"#utility.yul\":5607:5609   */\n              0x60\n                /* \"#utility.yul\":5596:5605   */\n              dup3\n                /* \"#utility.yul\":5592:5610   */\n              add\n                /* \"#utility.yul\":5584:5610   */\n              swap1\n              pop\n                /* \"#utility.yul\":5620:5691   */\n              tag_300\n                /* \"#utility.yul\":5688:5689   */\n              0x00\n                /* \"#utility.yul\":5677:5686   */\n              dup4\n                /* \"#utility.yul\":5673:5690   */\n              add\n                /* \"#utility.yul\":5664:5670   */\n              dup7\n                /* \"#utility.yul\":5620:5691   */\n              tag_206\n              jump\t// in\n            tag_300:\n                /* \"#utility.yul\":5701:5773   */\n              tag_301\n                /* \"#utility.yul\":5769:5771   */\n              0x20\n                /* \"#utility.yul\":5758:5767   */\n              dup4\n                /* \"#utility.yul\":5754:5772   */\n              add\n                /* \"#utility.yul\":5745:5751   */\n              dup6\n                /* \"#utility.yul\":5701:5773   */\n              tag_196\n              jump\t// in\n            tag_301:\n                /* \"#utility.yul\":5820:5829   */\n              dup2\n                /* \"#utility.yul\":5814:5818   */\n              dup2\n                /* \"#utility.yul\":5810:5830   */\n              sub\n                /* \"#utility.yul\":5805:5807   */\n              0x40\n                /* \"#utility.yul\":5794:5803   */\n              dup4\n                /* \"#utility.yul\":5790:5808   */\n              add\n                /* \"#utility.yul\":5783:5831   */\n              mstore\n                /* \"#utility.yul\":5848:5924   */\n              tag_302\n                /* \"#utility.yul\":5919:5923   */\n              dup2\n                /* \"#utility.yul\":5910:5916   */\n              dup5\n                /* \"#utility.yul\":5848:5924   */\n              tag_211\n              jump\t// in\n            tag_302:\n                /* \"#utility.yul\":5840:5924   */\n              swap1\n              pop\n                /* \"#utility.yul\":5402:5931   */\n              swap5\n              swap4\n              pop\n              pop\n              pop\n              pop\n              jump\t// out\n                /* \"#utility.yul\":5937:6266   */\n            tag_62:\n                /* \"#utility.yul\":5996:6002   */\n              0x00\n                /* \"#utility.yul\":6045:6047   */\n              0x20\n                /* \"#utility.yul\":6033:6042   */\n              dup3\n                /* \"#utility.yul\":6024:6031   */\n              dup5\n                /* \"#utility.yul\":6020:6043   */\n              sub\n                /* \"#utility.yul\":6016:6048   */\n              slt\n                /* \"#utility.yul\":6013:6132   */\n              iszero\n              tag_304\n              jumpi\n                /* \"#utility.yul\":6051:6130   */\n              tag_305\n              tag_191\n              jump\t// in\n            tag_305:\n                /* \"#utility.yul\":6013:6132   */\n            tag_304:\n                /* \"#utility.yul\":6171:6172   */\n              0x00\n                /* \"#utility.yul\":6196:6249   */\n              tag_306\n                /* \"#utility.yul\":6241:6248   */\n              dup5\n                /* \"#utility.yul\":6232:6238   */\n              dup3\n                /* \"#utility.yul\":6221:6230   */\n              dup6\n                /* \"#utility.yul\":6217:6239   */\n              add\n                /* \"#utility.yul\":6196:6249   */\n              tag_200\n              jump\t// in\n            tag_306:\n                /* \"#utility.yul\":6186:6249   */\n              swap2\n              pop\n                /* \"#utility.yul\":6142:6259   */\n              pop\n                /* \"#utility.yul\":5937:6266   */\n              swap3\n              swap2\n              pop\n              pop\n              jump\t// out\n                /* \"#utility.yul\":6272:6410   */\n            tag_212:\n                /* \"#utility.yul\":6363:6369   */\n              0x00\n                /* \"#utility.yul\":6397:6402   */\n              dup2\n                /* \"#utility.yul\":6391:6403   */\n              mload\n                /* \"#utility.yul\":6381:6403   */\n              swap1\n              pop\n                /* \"#utility.yul\":6272:6410   */\n              swap2\n              swap1\n              pop\n              jump\t// out\n                /* \"#utility.yul\":6416:6624   */\n            tag_213:\n                /* \"#utility.yul\":6539:6550   */\n              0x00\n                /* \"#utility.yul\":6573:6579   */\n              dup3\n                /* \"#utility.yul\":6568:6571   */\n              dup3\n                /* \"#utility.yul\":6561:6580   */\n              mstore\n                /* \"#utility.yul\":6613:6617   */\n              0x20\n                /* \"#utility.yul\":6608:6611   */\n              dup3\n                /* \"#utility.yul\":6604:6618   */\n              add\n                /* \"#utility.yul\":6589:6618   */\n              swap1\n              pop\n                /* \"#utility.yul\":6416:6624   */\n              swap3\n              swap2\n              pop\n              pop\n              jump\t// out\n                /* \"#utility.yul\":6630:6786   */\n            tag_214:\n                /* \"#utility.yul\":6721:6725   */\n              0x00\n                /* \"#utility.yul\":6744:6747   */\n              dup2\n                /* \"#utility.yul\":6736:6747   */\n              swap1\n              pop\n                /* \"#utility.yul\":6774:6778   */\n              0x20\n                /* \"#utility.yul\":6769:6772   */\n              dup3\n                /* \"#utility.yul\":6765:6779   */\n              add\n                /* \"#utility.yul\":6757:6779   */\n              swap1\n              pop\n                /* \"#utility.yul\":6630:6786   */\n              swap2\n              swap1\n              pop\n              jump\t// out\n                /* \"#utility.yul\":6792:6900   */\n            tag_215:\n                /* \"#utility.yul\":6869:6893   */\n              tag_311\n                /* \"#utility.yul\":6887:6892   */\n              dup2\n                /* \"#utility.yul\":6869:6893   */\n              tag_193\n              jump\t// in\n            tag_311:\n                /* \"#utility.yul\":6864:6867   */\n              dup3\n                /* \"#utility.yul\":6857:6894   */\n              mstore\n                /* \"#utility.yul\":6792:6900   */\n              pop\n              pop\n              jump\t// out\n                /* \"#utility.yul\":6906:7005   */\n            tag_216:\n                /* \"#utility.yul\":6977:6998   */\n              tag_313\n                /* \"#utility.yul\":6992:6997   */\n              dup2\n                /* \"#utility.yul\":6977:6998   */\n              tag_201\n              jump\t// in\n            tag_313:\n                /* \"#utility.yul\":6972:6975   */\n              dup3\n                /* \"#utility.yul\":6965:6999   */\n              mstore\n                /* \"#utility.yul\":6906:7005   */\n              pop\n              pop\n              jump\t// out\n                /* \"#utility.yul\":7067:7923   */\n            tag_217:\n                /* \"#utility.yul\":7202:7206   */\n              0x80\n                /* \"#utility.yul\":7197:7200   */\n              dup3\n                /* \"#utility.yul\":7193:7207   */\n              add\n                /* \"#utility.yul\":7289:7293   */\n              0x00\n                /* \"#utility.yul\":7282:7287   */\n              dup3\n                /* \"#utility.yul\":7278:7294   */\n              add\n                /* \"#utility.yul\":7272:7295   */\n              mload\n                /* \"#utility.yul\":7308:7371   */\n              tag_315\n                /* \"#utility.yul\":7365:7369   */\n              0x00\n                /* \"#utility.yul\":7360:7363   */\n              dup6\n                /* \"#utility.yul\":7356:7370   */\n              add\n                /* \"#utility.yul\":7342:7354   */\n              dup3\n                /* \"#utility.yul\":7308:7371   */\n              tag_215\n              jump\t// in\n            tag_315:\n                /* \"#utility.yul\":7217:7381   */\n              pop\n                /* \"#utility.yul\":7463:7467   */\n              0x20\n                /* \"#utility.yul\":7456:7461   */\n              dup3\n                /* \"#utility.yul\":7452:7468   */\n              add\n                /* \"#utility.yul\":7446:7469   */\n              mload\n                /* \"#utility.yul\":7482:7545   */\n              tag_316\n                /* \"#utility.yul\":7539:7543   */\n              0x20\n                /* \"#utility.yul\":7534:7537   */\n              dup6\n                /* \"#utility.yul\":7530:7544   */\n              add\n                /* \"#utility.yul\":7516:7528   */\n              dup3\n                /* \"#utility.yul\":7482:7545   */\n              tag_215\n              jump\t// in\n            tag_316:\n                /* \"#utility.yul\":7391:7555   */\n              pop\n                /* \"#utility.yul\":7650:7654   */\n              0x40\n                /* \"#utility.yul\":7643:7648   */\n              dup3\n                /* \"#utility.yul\":7639:7655   */\n              add\n                /* \"#utility.yul\":7633:7656   */\n              mload\n                /* \"#utility.yul\":7669:7732   */\n              tag_317\n                /* \"#utility.yul\":7726:7730   */\n              0x40\n                /* \"#utility.yul\":7721:7724   */\n              dup6\n                /* \"#utility.yul\":7717:7731   */\n              add\n                /* \"#utility.yul\":7703:7715   */\n              dup3\n                /* \"#utility.yul\":7669:7732   */\n              tag_215\n              jump\t// in\n            tag_317:\n                /* \"#utility.yul\":7565:7742   */\n              pop\n                /* \"#utility.yul\":7830:7834   */\n              0x60\n                /* \"#utility.yul\":7823:7828   */\n              dup3\n                /* \"#utility.yul\":7819:7835   */\n              add\n                /* \"#utility.yul\":7813:7836   */\n              mload\n                /* \"#utility.yul\":7849:7906   */\n              tag_318\n                /* \"#utility.yul\":7900:7904   */\n              0x60\n                /* \"#utility.yul\":7895:7898   */\n              dup6\n                /* \"#utility.yul\":7891:7905   */\n              add\n                /* \"#utility.yul\":7877:7889   */\n              dup3\n                /* \"#utility.yul\":7849:7906   */\n              tag_216\n              jump\t// in\n            tag_318:\n                /* \"#utility.yul\":7752:7916   */\n              pop\n                /* \"#utility.yul\":7171:7923   */\n              pop\n                /* \"#utility.yul\":7067:7923   */\n              pop\n              pop\n              jump\t// out\n                /* \"#utility.yul\":7929:8204   */\n            tag_218:\n                /* \"#utility.yul\":8046:8056   */\n              0x00\n                /* \"#utility.yul\":8067:8161   */\n              tag_320\n                /* \"#utility.yul\":8157:8160   */\n              dup4\n                /* \"#utility.yul\":8149:8155   */\n              dup4\n                /* \"#utility.yul\":8067:8161   */\n              tag_217\n              jump\t// in\n            tag_320:\n                /* \"#utility.yul\":8193:8197   */\n              0x80\n                /* \"#utility.yul\":8188:8191   */\n              dup4\n                /* \"#utility.yul\":8184:8198   */\n              add\n                /* \"#utility.yul\":8170:8198   */\n              swap1\n              pop\n                /* \"#utility.yul\":7929:8204   */\n              swap3\n              swap2\n              pop\n              pop\n              jump\t// out\n                /* \"#utility.yul\":8210:8347   */\n            tag_219:\n                /* \"#utility.yul\":8304:8308   */\n              0x00\n                /* \"#utility.yul\":8336:8340   */\n              0x20\n                /* \"#utility.yul\":8331:8334   */\n              dup3\n                /* \"#utility.yul\":8327:8341   */\n              add\n                /* \"#utility.yul\":8319:8341   */\n              swap1\n              pop\n                /* \"#utility.yul\":8210:8347   */\n              swap2\n              swap1\n              pop\n              jump\t// out\n                /* \"#utility.yul\":8413:9337   */\n            tag_220:\n                /* \"#utility.yul\":8580:8583   */\n              0x00\n                /* \"#utility.yul\":8609:8687   */\n              tag_323\n                /* \"#utility.yul\":8681:8686   */\n              dup3\n                /* \"#utility.yul\":8609:8687   */\n              tag_212\n              jump\t// in\n            tag_323:\n                /* \"#utility.yul\":8703:8813   */\n              tag_324\n                /* \"#utility.yul\":8806:8812   */\n              dup2\n                /* \"#utility.yul\":8801:8804   */\n              dup6\n                /* \"#utility.yul\":8703:8813   */\n              tag_213\n              jump\t// in\n            tag_324:\n                /* \"#utility.yul\":8696:8813   */\n              swap4\n              pop\n                /* \"#utility.yul\":8837:8917   */\n              tag_325\n                /* \"#utility.yul\":8911:8916   */\n              dup4\n                /* \"#utility.yul\":8837:8917   */\n              tag_214\n              jump\t// in\n            tag_325:\n                /* \"#utility.yul\":8940:8947   */\n              dup1\n                /* \"#utility.yul\":8971:8972   */\n              0x00\n                /* \"#utility.yul\":8956:9312   */\n            tag_326:\n                /* \"#utility.yul\":8981:8987   */\n              dup4\n                /* \"#utility.yul\":8978:8979   */\n              dup2\n                /* \"#utility.yul\":8975:8988   */\n              lt\n                /* \"#utility.yul\":8956:9312   */\n              iszero\n              tag_328\n              jumpi\n                /* \"#utility.yul\":9057:9063   */\n              dup2\n                /* \"#utility.yul\":9051:9064   */\n              mload\n                /* \"#utility.yul\":9084:9195   */\n              tag_329\n                /* \"#utility.yul\":9191:9194   */\n              dup9\n                /* \"#utility.yul\":9176:9189   */\n              dup3\n                /* \"#utility.yul\":9084:9195   */\n              tag_218\n              jump\t// in\n            tag_329:\n                /* \"#utility.yul\":9077:9195   */\n              swap8\n              pop\n                /* \"#utility.yul\":9218:9302   */\n              tag_330\n                /* \"#utility.yul\":9295:9301   */\n              dup4\n                /* \"#utility.yul\":9218:9302   */\n              tag_219\n              jump\t// in\n            tag_330:\n                /* \"#utility.yul\":9208:9302   */\n              swap3\n              pop\n                /* \"#utility.yul\":9016:9312   */\n              pop\n                /* \"#utility.yul\":9003:9004   */\n              0x01\n                /* \"#utility.yul\":9000:9001   */\n              dup2\n                /* \"#utility.yul\":8996:9005   */\n              add\n                /* \"#utility.yul\":8991:9005   */\n              swap1\n              pop\n                /* \"#utility.yul\":8956:9312   */\n              jump(tag_326)\n            tag_328:\n                /* \"#utility.yul\":8960:8974   */\n              pop\n                /* \"#utility.yul\":9328:9331   */\n              dup6\n                /* \"#utility.yul\":9321:9331   */\n              swap4\n              pop\n                /* \"#utility.yul\":8585:9337   */\n              pop\n              pop\n              pop\n                /* \"#utility.yul\":8413:9337   */\n              swap3\n              swap2\n              pop\n              pop\n              jump\t// out\n                /* \"#utility.yul\":9343:9812   */\n            tag_65:\n                /* \"#utility.yul\":9534:9538   */\n              0x00\n                /* \"#utility.yul\":9572:9574   */\n              0x20\n                /* \"#utility.yul\":9561:9570   */\n              dup3\n                /* \"#utility.yul\":9557:9575   */\n              add\n                /* \"#utility.yul\":9549:9575   */\n              swap1\n              pop\n                /* \"#utility.yul\":9621:9630   */\n              dup2\n                /* \"#utility.yul\":9615:9619   */\n              dup2\n                /* \"#utility.yul\":9611:9631   */\n              sub\n                /* \"#utility.yul\":9607:9608   */\n              0x00\n                /* \"#utility.yul\":9596:9605   */\n              dup4\n                /* \"#utility.yul\":9592:9609   */\n              add\n                /* \"#utility.yul\":9585:9632   */\n              mstore\n                /* \"#utility.yul\":9649:9805   */\n              tag_332\n                /* \"#utility.yul\":9800:9804   */\n              dup2\n                /* \"#utility.yul\":9791:9797   */\n              dup5\n                /* \"#utility.yul\":9649:9805   */\n              tag_220\n              jump\t// in\n            tag_332:\n                /* \"#utility.yul\":9641:9805   */\n              swap1\n              pop\n                /* \"#utility.yul\":9343:9812   */\n              swap3\n              swap2\n              pop\n              pop\n              jump\t// out\n                /* \"#utility.yul\":9818:10163   */\n            tag_72:\n                /* \"#utility.yul\":9885:9891   */\n              0x00\n                /* \"#utility.yul\":9934:9936   */\n              0x20\n                /* \"#utility.yul\":9922:9931   */\n              dup3\n                /* \"#utility.yul\":9913:9920   */\n              dup5\n                /* \"#utility.yul\":9909:9932   */\n              sub\n                /* \"#utility.yul\":9905:9937   */\n              slt\n                /* \"#utility.yul\":9902:10021   */\n              iszero\n              tag_334\n              jumpi\n                /* \"#utility.yul\":9940:10019   */\n              tag_335\n              tag_191\n              jump\t// in\n            tag_335:\n                /* \"#utility.yul\":9902:10021   */\n            tag_334:\n                /* \"#utility.yul\":10060:10061   */\n              0x00\n                /* \"#utility.yul\":10085:10146   */\n              tag_336\n                /* \"#utility.yul\":10138:10145   */\n              dup5\n                /* \"#utility.yul\":10129:10135   */\n              dup3\n                /* \"#utility.yul\":10118:10127   */\n              dup6\n                /* \"#utility.yul\":10114:10136   */\n              add\n                /* \"#utility.yul\":10085:10146   */\n              tag_205\n              jump\t// in\n            tag_336:\n                /* \"#utility.yul\":10075:10146   */\n              swap2\n              pop\n                /* \"#utility.yul\":10031:10156   */\n              pop\n                /* \"#utility.yul\":9818:10163   */\n              swap3\n              swap2\n              pop\n              pop\n              jump\t// out\n                /* \"#utility.yul\":10169:10268   */\n            tag_221:\n                /* \"#utility.yul\":10221:10227   */\n              0x00\n                /* \"#utility.yul\":10255:10260   */\n              dup2\n                /* \"#utility.yul\":10249:10261   */\n              mload\n                /* \"#utility.yul\":10239:10261   */\n              swap1\n              pop\n                /* \"#utility.yul\":10169:10268   */\n              swap2\n              swap1\n              pop\n              jump\t// out\n                /* \"#utility.yul\":10274:10443   */\n            tag_222:\n                /* \"#utility.yul\":10358:10369   */\n              0x00\n                /* \"#utility.yul\":10392:10398   */\n              dup3\n                /* \"#utility.yul\":10387:10390   */\n              dup3\n                /* \"#utility.yul\":10380:10399   */\n              mstore\n                /* \"#utility.yul\":10432:10436   */\n              0x20\n                /* \"#utility.yul\":10427:10430   */\n              dup3\n                /* \"#utility.yul\":10423:10437   */\n              add\n                /* \"#utility.yul\":10408:10437   */\n              swap1\n              pop\n                /* \"#utility.yul\":10274:10443   */\n              swap3\n              swap2\n              pop\n              pop\n              jump\t// out\n                /* \"#utility.yul\":10449:10826   */\n            tag_223:\n                /* \"#utility.yul\":10537:10540   */\n              0x00\n                /* \"#utility.yul\":10565:10604   */\n              tag_340\n                /* \"#utility.yul\":10598:10603   */\n              dup3\n                /* \"#utility.yul\":10565:10604   */\n              tag_221\n              jump\t// in\n            tag_340:\n                /* \"#utility.yul\":10620:10691   */\n              tag_341\n                /* \"#utility.yul\":10684:10690   */\n              dup2\n                /* \"#utility.yul\":10679:10682   */\n              dup6\n                /* \"#utility.yul\":10620:10691   */\n              tag_222\n              jump\t// in\n            tag_341:\n                /* \"#utility.yul\":10613:10691   */\n              swap4\n              pop\n                /* \"#utility.yul\":10700:10765   */\n              tag_342\n                /* \"#utility.yul\":10758:10764   */\n              dup2\n                /* \"#utility.yul\":10753:10756   */\n              dup6\n                /* \"#utility.yul\":10746:10750   */\n              0x20\n                /* \"#utility.yul\":10739:10744   */\n              dup7\n                /* \"#utility.yul\":10735:10751   */\n              add\n                /* \"#utility.yul\":10700:10765   */\n              tag_209\n              jump\t// in\n            tag_342:\n                /* \"#utility.yul\":10790:10819   */\n              tag_343\n                /* \"#utility.yul\":10812:10818   */\n              dup2\n                /* \"#utility.yul\":10790:10819   */\n              tag_210\n              jump\t// in\n            tag_343:\n                /* \"#utility.yul\":10785:10788   */\n              dup5\n                /* \"#utility.yul\":10781:10820   */\n              add\n                /* \"#utility.yul\":10774:10820   */\n              swap2\n              pop\n                /* \"#utility.yul\":10541:10826   */\n              pop\n                /* \"#utility.yul\":10449:10826   */\n              swap3\n              swap2\n              pop\n              pop\n              jump\t// out\n                /* \"#utility.yul\":10832:11145   */\n            tag_82:\n                /* \"#utility.yul\":10945:10949   */\n              0x00\n                /* \"#utility.yul\":10983:10985   */\n              0x20\n                /* \"#utility.yul\":10972:10981   */\n              dup3\n                /* \"#utility.yul\":10968:10986   */\n              add\n                /* \"#utility.yul\":10960:10986   */\n              swap1\n              pop\n                /* \"#utility.yul\":11032:11041   */\n              dup2\n                /* \"#utility.yul\":11026:11030   */\n              dup2\n                /* \"#utility.yul\":11022:11042   */\n              sub\n                /* \"#utility.yul\":11018:11019   */\n              0x00\n                /* \"#utility.yul\":11007:11016   */\n              dup4\n                /* \"#utility.yul\":11003:11020   */\n              add\n                /* \"#utility.yul\":10996:11043   */\n              mstore\n                /* \"#utility.yul\":11060:11138   */\n              tag_345\n                /* \"#utility.yul\":11133:11137   */\n              dup2\n                /* \"#utility.yul\":11124:11130   */\n              dup5\n                /* \"#utility.yul\":11060:11138   */\n              tag_223\n              jump\t// in\n            tag_345:\n                /* \"#utility.yul\":11052:11138   */\n              swap1\n              pop\n                /* \"#utility.yul\":10832:11145   */\n              swap3\n              swap2\n              pop\n              pop\n              jump\t// out\n                /* \"#utility.yul\":11151:11331   */\n            tag_224:\n                /* \"#utility.yul\":11199:11276   */\n              0x4e487b7100000000000000000000000000000000000000000000000000000000\n                /* \"#utility.yul\":11196:11197   */\n              0x00\n                /* \"#utility.yul\":11189:11277   */\n              mstore\n                /* \"#utility.yul\":11296:11300   */\n              0x11\n                /* \"#utility.yul\":11293:11294   */\n              0x04\n                /* \"#utility.yul\":11286:11301   */\n              mstore\n                /* \"#utility.yul\":11320:11324   */\n              0x24\n                /* \"#utility.yul\":11317:11318   */\n              0x00\n                /* \"#utility.yul\":11310:11325   */\n              revert\n                /* \"#utility.yul\":11337:11747   */\n            tag_88:\n                /* \"#utility.yul\":11377:11384   */\n              0x00\n                /* \"#utility.yul\":11400:11420   */\n              tag_348\n                /* \"#utility.yul\":11418:11419   */\n              dup3\n                /* \"#utility.yul\":11400:11420   */\n              tag_193\n              jump\t// in\n            tag_348:\n                /* \"#utility.yul\":11395:11420   */\n              swap2\n              pop\n                /* \"#utility.yul\":11434:11454   */\n              tag_349\n                /* \"#utility.yul\":11452:11453   */\n              dup4\n                /* \"#utility.yul\":11434:11454   */\n              tag_193\n              jump\t// in\n            tag_349:\n                /* \"#utility.yul\":11429:11454   */\n              swap3\n              pop\n                /* \"#utility.yul\":11489:11490   */\n              dup3\n                /* \"#utility.yul\":11486:11487   */\n              dup3\n                /* \"#utility.yul\":11482:11491   */\n              mul\n                /* \"#utility.yul\":11511:11541   */\n              tag_350\n                /* \"#utility.yul\":11529:11540   */\n              dup2\n                /* \"#utility.yul\":11511:11541   */\n              tag_193\n              jump\t// in\n            tag_350:\n                /* \"#utility.yul\":11500:11541   */\n              swap2\n              pop\n                /* \"#utility.yul\":11690:11691   */\n              dup3\n                /* \"#utility.yul\":11681:11688   */\n              dup3\n                /* \"#utility.yul\":11677:11692   */\n              div\n                /* \"#utility.yul\":11674:11675   */\n              dup5\n                /* \"#utility.yul\":11671:11693   */\n              eq\n                /* \"#utility.yul\":11651:11652   */\n              dup4\n                /* \"#utility.yul\":11644:11653   */\n              iszero\n                /* \"#utility.yul\":11624:11707   */\n              or\n                /* \"#utility.yul\":11601:11740   */\n              tag_351\n              jumpi\n                /* \"#utility.yul\":11720:11738   */\n              tag_352\n              tag_224\n              jump\t// in\n            tag_352:\n                /* \"#utility.yul\":11601:11740   */\n            tag_351:\n                /* \"#utility.yul\":11385:11747   */\n              pop\n                /* \"#utility.yul\":11337:11747   */\n              swap3\n              swap2\n              pop\n              pop\n              jump\t// out\n                /* \"#utility.yul\":11753:11926   */\n            tag_225:\n                /* \"#utility.yul\":11893:11918   */\n              0x596f7520617265206e6f7420746865206d616e61676572000000000000000000\n                /* \"#utility.yul\":11889:11890   */\n              0x00\n                /* \"#utility.yul\":11881:11887   */\n              dup3\n                /* \"#utility.yul\":11877:11891   */\n              add\n                /* \"#utility.yul\":11870:11919   */\n              mstore\n                /* \"#utility.yul\":11753:11926   */\n              pop\n              jump\t// out\n                /* \"#utility.yul\":11932:12298   */\n            tag_226:\n                /* \"#utility.yul\":12074:12077   */\n              0x00\n                /* \"#utility.yul\":12095:12162   */\n              tag_355\n                /* \"#utility.yul\":12159:12161   */\n              0x17\n                /* \"#utility.yul\":12154:12157   */\n              dup4\n                /* \"#utility.yul\":12095:12162   */\n              tag_222\n              jump\t// in\n            tag_355:\n                /* \"#utility.yul\":12088:12162   */\n              swap2\n              pop\n                /* \"#utility.yul\":12171:12264   */\n              tag_356\n                /* \"#utility.yul\":12260:12263   */\n              dup3\n                /* \"#utility.yul\":12171:12264   */\n              tag_225\n              jump\t// in\n            tag_356:\n                /* \"#utility.yul\":12289:12291   */\n              0x20\n                /* \"#utility.yul\":12284:12287   */\n              dup3\n                /* \"#utility.yul\":12280:12292   */\n              add\n                /* \"#utility.yul\":12273:12292   */\n              swap1\n              pop\n                /* \"#utility.yul\":11932:12298   */\n              swap2\n              swap1\n              pop\n              jump\t// out\n                /* \"#utility.yul\":12304:12723   */\n            tag_96:\n                /* \"#utility.yul\":12470:12474   */\n              0x00\n                /* \"#utility.yul\":12508:12510   */\n              0x20\n                /* \"#utility.yul\":12497:12506   */\n              dup3\n                /* \"#utility.yul\":12493:12511   */\n              add\n                /* \"#utility.yul\":12485:12511   */\n              swap1\n              pop\n                /* \"#utility.yul\":12557:12566   */\n              dup2\n                /* \"#utility.yul\":12551:12555   */\n              dup2\n                /* \"#utility.yul\":12547:12567   */\n              sub\n                /* \"#utility.yul\":12543:12544   */\n              0x00\n                /* \"#utility.yul\":12532:12541   */\n              dup4\n                /* \"#utility.yul\":12528:12545   */\n              add\n                /* \"#utility.yul\":12521:12568   */\n              mstore\n                /* \"#utility.yul\":12585:12716   */\n              tag_358\n                /* \"#utility.yul\":12711:12715   */\n              dup2\n                /* \"#utility.yul\":12585:12716   */\n              tag_226\n              jump\t// in\n            tag_358:\n                /* \"#utility.yul\":12577:12716   */\n              swap1\n              pop\n                /* \"#utility.yul\":12304:12723   */\n              swap2\n              swap1\n              pop\n              jump\t// out\n                /* \"#utility.yul\":12729:12909   */\n            tag_99:\n                /* \"#utility.yul\":12777:12854   */\n              0x4e487b7100000000000000000000000000000000000000000000000000000000\n                /* \"#utility.yul\":12774:12775   */\n              0x00\n                /* \"#utility.yul\":12767:12855   */\n              mstore\n                /* \"#utility.yul\":12874:12878   */\n              0x32\n                /* \"#utility.yul\":12871:12872   */\n              0x04\n                /* \"#utility.yul\":12864:12879   */\n              mstore\n                /* \"#utility.yul\":12898:12902   */\n              0x24\n                /* \"#utility.yul\":12895:12896   */\n              0x00\n                /* \"#utility.yul\":12888:12903   */\n              revert\n                /* \"#utility.yul\":12915:13357   */\n            tag_109:\n                /* \"#utility.yul\":13064:13068   */\n              0x00\n                /* \"#utility.yul\":13102:13104   */\n              0x60\n                /* \"#utility.yul\":13091:13100   */\n              dup3\n                /* \"#utility.yul\":13087:13105   */\n              add\n                /* \"#utility.yul\":13079:13105   */\n              swap1\n              pop\n                /* \"#utility.yul\":13115:13186   */\n              tag_361\n                /* \"#utility.yul\":13183:13184   */\n              0x00\n                /* \"#utility.yul\":13172:13181   */\n              dup4\n                /* \"#utility.yul\":13168:13185   */\n              add\n                /* \"#utility.yul\":13159:13165   */\n              dup7\n                /* \"#utility.yul\":13115:13186   */\n              tag_196\n              jump\t// in\n            tag_361:\n                /* \"#utility.yul\":13196:13268   */\n              tag_362\n                /* \"#utility.yul\":13264:13266   */\n              0x20\n                /* \"#utility.yul\":13253:13262   */\n              dup4\n                /* \"#utility.yul\":13249:13267   */\n              add\n                /* \"#utility.yul\":13240:13246   */\n              dup6\n                /* \"#utility.yul\":13196:13268   */\n              tag_196\n              jump\t// in\n            tag_362:\n                /* \"#utility.yul\":13278:13350   */\n              tag_363\n                /* \"#utility.yul\":13346:13348   */\n              0x40\n                /* \"#utility.yul\":13335:13344   */\n              dup4\n                /* \"#utility.yul\":13331:13349   */\n              add\n                /* \"#utility.yul\":13322:13328   */\n              dup5\n                /* \"#utility.yul\":13278:13350   */\n              tag_196\n              jump\t// in\n            tag_363:\n                /* \"#utility.yul\":12915:13357   */\n              swap5\n              swap4\n              pop\n              pop\n              pop\n              pop\n              jump\t// out\n                /* \"#utility.yul\":13363:13557   */\n            tag_120:\n                /* \"#utility.yul\":13403:13407   */\n              0x00\n                /* \"#utility.yul\":13423:13443   */\n              tag_365\n                /* \"#utility.yul\":13441:13442   */\n              dup3\n                /* \"#utility.yul\":13423:13443   */\n              tag_193\n              jump\t// in\n            tag_365:\n                /* \"#utility.yul\":13418:13443   */\n              swap2\n              pop\n                /* \"#utility.yul\":13457:13477   */\n              tag_366\n                /* \"#utility.yul\":13475:13476   */\n              dup4\n                /* \"#utility.yul\":13457:13477   */\n              tag_193\n              jump\t// in\n            tag_366:\n                /* \"#utility.yul\":13452:13477   */\n              swap3\n              pop\n                /* \"#utility.yul\":13501:13502   */\n              dup3\n                /* \"#utility.yul\":13498:13499   */\n              dup3\n                /* \"#utility.yul\":13494:13503   */\n              sub\n                /* \"#utility.yul\":13486:13503   */\n              swap1\n              pop\n                /* \"#utility.yul\":13525:13526   */\n              dup2\n                /* \"#utility.yul\":13519:13523   */\n              dup2\n                /* \"#utility.yul\":13516:13527   */\n              gt\n                /* \"#utility.yul\":13513:13550   */\n              iszero\n              tag_367\n              jumpi\n                /* \"#utility.yul\":13530:13548   */\n              tag_368\n              tag_224\n              jump\t// in\n            tag_368:\n                /* \"#utility.yul\":13513:13550   */\n            tag_367:\n                /* \"#utility.yul\":13363:13557   */\n              swap3\n              swap2\n              pop\n              pop\n              jump\t// out\n                /* \"#utility.yul\":13563:13754   */\n            tag_122:\n                /* \"#utility.yul\":13603:13606   */\n              0x00\n                /* \"#utility.yul\":13622:13642   */\n              tag_370\n                /* \"#utility.yul\":13640:13641   */\n              dup3\n                /* \"#utility.yul\":13622:13642   */\n              tag_193\n              jump\t// in\n            tag_370:\n                /* \"#utility.yul\":13617:13642   */\n              swap2\n              pop\n                /* \"#utility.yul\":13656:13676   */\n              tag_371\n                /* \"#utility.yul\":13674:13675   */\n              dup4\n                /* \"#utility.yul\":13656:13676   */\n              tag_193\n              jump\t// in\n            tag_371:\n                /* \"#utility.yul\":13651:13676   */\n              swap3\n              pop\n                /* \"#utility.yul\":13699:13700   */\n              dup3\n                /* \"#utility.yul\":13696:13697   */\n              dup3\n                /* \"#utility.yul\":13692:13701   */\n              add\n                /* \"#utility.yul\":13685:13701   */\n              swap1\n              pop\n                /* \"#utility.yul\":13720:13723   */\n              dup1\n                /* \"#utility.yul\":13717:13718   */\n              dup3\n                /* \"#utility.yul\":13714:13724   */\n              gt\n                /* \"#utility.yul\":13711:13747   */\n              iszero\n              tag_372\n              jumpi\n                /* \"#utility.yul\":13727:13745   */\n              tag_373\n              tag_224\n              jump\t// in\n            tag_373:\n                /* \"#utility.yul\":13711:13747   */\n            tag_372:\n                /* \"#utility.yul\":13563:13754   */\n              swap3\n              swap2\n              pop\n              pop\n              jump\t// out\n                /* \"#utility.yul\":13760:13993   */\n            tag_130:\n                /* \"#utility.yul\":13799:13802   */\n              0x00\n                /* \"#utility.yul\":13822:13846   */\n              tag_375\n                /* \"#utility.yul\":13840:13845   */\n              dup3\n                /* \"#utility.yul\":13822:13846   */\n              tag_193\n              jump\t// in\n            tag_375:\n                /* \"#utility.yul\":13813:13846   */\n              swap2\n              pop\n                /* \"#utility.yul\":13868:13934   */\n              0xffffffffffffffffffffffffffffffffffffffffffffffffffffffffffffffff\n                /* \"#utility.yul\":13861:13866   */\n              dup3\n                /* \"#utility.yul\":13858:13935   */\n              sub\n                /* \"#utility.yul\":13855:13958   */\n              tag_376\n              jumpi\n                /* \"#utility.yul\":13938:13956   */\n              tag_377\n              tag_224\n              jump\t// in\n            tag_377:\n                /* \"#utility.yul\":13855:13958   */\n            tag_376:\n                /* \"#utility.yul\":13985:13986   */\n              0x01\n                /* \"#utility.yul\":13978:13983   */\n              dup3\n                /* \"#utility.yul\":13974:13987   */\n              add\n                /* \"#utility.yul\":13967:13987   */\n              swap1\n              pop\n                /* \"#utility.yul\":13760:13993   */\n              swap2\n              swap1\n              pop\n              jump\t// out\n                /* \"#utility.yul\":13999:14179   */\n            tag_133:\n                /* \"#utility.yul\":14047:14124   */\n              0x4e487b7100000000000000000000000000000000000000000000000000000000\n                /* \"#utility.yul\":14044:14045   */\n              0x00\n                /* \"#utility.yul\":14037:14125   */\n              mstore\n                /* \"#utility.yul\":14144:14148   */\n              0x31\n                /* \"#utility.yul\":14141:14142   */\n              0x04\n                /* \"#utility.yul\":14134:14149   */\n              mstore\n                /* \"#utility.yul\":14168:14172   */\n              0x24\n                /* \"#utility.yul\":14165:14166   */\n              0x00\n                /* \"#utility.yul\":14158:14173   */\n              revert\n                /* \"#utility.yul\":14185:14270   */\n            tag_227:\n                /* \"#utility.yul\":14230:14237   */\n              0x00\n                /* \"#utility.yul\":14259:14264   */\n              dup2\n                /* \"#utility.yul\":14248:14264   */\n              swap1\n              pop\n                /* \"#utility.yul\":14185:14270   */\n              swap2\n              swap1\n              pop\n              jump\t// out\n                /* \"#utility.yul\":14276:14336   */\n            tag_228:\n                /* \"#utility.yul\":14304:14307   */\n              0x00\n                /* \"#utility.yul\":14325:14330   */\n              dup2\n                /* \"#utility.yul\":14318:14330   */\n              swap1\n              pop\n                /* \"#utility.yul\":14276:14336   */\n              swap2\n              swap1\n              pop\n              jump\t// out\n                /* \"#utility.yul\":14342:14500   */\n            tag_229:\n                /* \"#utility.yul\":14400:14409   */\n              0x00\n                /* \"#utility.yul\":14433:14494   */\n              tag_382\n                /* \"#utility.yul\":14451:14493   */\n              tag_383\n                /* \"#utility.yul\":14460:14492   */\n              tag_384\n                /* \"#utility.yul\":14486:14491   */\n              dup5\n                /* \"#utility.yul\":14460:14492   */\n              tag_227\n              jump\t// in\n            tag_384:\n                /* \"#utility.yul\":14451:14493   */\n              tag_228\n              jump\t// in\n            tag_383:\n                /* \"#utility.yul\":14433:14494   */\n              tag_193\n              jump\t// in\n            tag_382:\n                /* \"#utility.yul\":14420:14494   */\n              swap1\n              pop\n                /* \"#utility.yul\":14342:14500   */\n              swap2\n              swap1\n              pop\n              jump\t// out\n                /* \"#utility.yul\":14506:14653   */\n            tag_230:\n                /* \"#utility.yul\":14601:14646   */\n              tag_386\n                /* \"#utility.yul\":14640:14645   */\n              dup2\n                /* \"#utility.yul\":14601:14646   */\n              tag_229\n              jump\t// in\n            tag_386:\n                /* \"#utility.yul\":14596:14599   */\n              dup3\n                /* \"#utility.yul\":14589:14647   */\n              mstore\n                /* \"#utility.yul\":14506:14653   */\n              pop\n              pop\n              jump\t// out\n                /* \"#utility.yul\":14659:15117   */\n            tag_145:\n                /* \"#utility.yul\":14816:14820   */\n              0x00\n                /* \"#utility.yul\":14854:14856   */\n              0x60\n                /* \"#utility.yul\":14843:14852   */\n              dup3\n                /* \"#utility.yul\":14839:14857   */\n              add\n                /* \"#utility.yul\":14831:14857   */\n              swap1\n              pop\n                /* \"#utility.yul\":14867:14938   */\n              tag_388\n                /* \"#utility.yul\":14935:14936   */\n              0x00\n                /* \"#utility.yul\":14924:14933   */\n              dup4\n                /* \"#utility.yul\":14920:14937   */\n              add\n                /* \"#utility.yul\":14911:14917   */\n              dup7\n                /* \"#utility.yul\":14867:14938   */\n              tag_196\n              jump\t// in\n            tag_388:\n                /* \"#utility.yul\":14948:15020   */\n              tag_389\n                /* \"#utility.yul\":15016:15018   */\n              0x20\n                /* \"#utility.yul\":15005:15014   */\n              dup4\n                /* \"#utility.yul\":15001:15019   */\n              add\n                /* \"#utility.yul\":14992:14998   */\n              dup6\n                /* \"#utility.yul\":14948:15020   */\n              tag_196\n              jump\t// in\n            tag_389:\n                /* \"#utility.yul\":15030:15110   */\n              tag_390\n                /* \"#utility.yul\":15106:15108   */\n              0x40\n                /* \"#utility.yul\":15095:15104   */\n              dup4\n                /* \"#utility.yul\":15091:15109   */\n              add\n                /* \"#utility.yul\":15082:15088   */\n              dup5\n                /* \"#utility.yul\":15030:15110   */\n              tag_230\n              jump\t// in\n            tag_390:\n                /* \"#utility.yul\":14659:15117   */\n              swap5\n              swap4\n              pop\n              pop\n              pop\n              pop\n              jump\t// out\n                /* \"#utility.yul\":15123:15303   */\n            tag_231:\n                /* \"#utility.yul\":15171:15248   */\n              0x4e487b7100000000000000000000000000000000000000000000000000000000\n                /* \"#utility.yul\":15168:15169   */\n              0x00\n                /* \"#utility.yul\":15161:15249   */\n              mstore\n                /* \"#utility.yul\":15268:15272   */\n              0x22\n                /* \"#utility.yul\":15265:15266   */\n              0x04\n                /* \"#utility.yul\":15258:15273   */\n              mstore\n                /* \"#utility.yul\":15292:15296   */\n              0x24\n                /* \"#utility.yul\":15289:15290   */\n              0x00\n                /* \"#utility.yul\":15282:15297   */\n              revert\n                /* \"#utility.yul\":15309:15629   */\n            tag_164:\n                /* \"#utility.yul\":15353:15359   */\n              0x00\n                /* \"#utility.yul\":15390:15391   */\n              0x02\n                /* \"#utility.yul\":15384:15388   */\n              dup3\n                /* \"#utility.yul\":15380:15392   */\n              div\n                /* \"#utility.yul\":15370:15392   */\n              swap1\n              pop\n                /* \"#utility.yul\":15437:15438   */\n              0x01\n                /* \"#utility.yul\":15431:15435   */\n              dup3\n                /* \"#utility.yul\":15427:15439   */\n              and\n                /* \"#utility.yul\":15458:15476   */\n              dup1\n                /* \"#utility.yul\":15448:15529   */\n              tag_393\n              jumpi\n                /* \"#utility.yul\":15514:15518   */\n              0x7f\n                /* \"#utility.yul\":15506:15512   */\n              dup3\n                /* \"#utility.yul\":15502:15519   */\n              and\n                /* \"#utility.yul\":15492:15519   */\n              swap2\n              pop\n                /* \"#utility.yul\":15448:15529   */\n            tag_393:\n                /* \"#utility.yul\":15576:15578   */\n              0x20\n                /* \"#utility.yul\":15568:15574   */\n              dup3\n                /* \"#utility.yul\":15565:15579   */\n              lt\n                /* \"#utility.yul\":15545:15563   */\n              dup2\n                /* \"#utility.yul\":15542:15580   */\n              sub\n                /* \"#utility.yul\":15539:15623   */\n              tag_394\n              jumpi\n                /* \"#utility.yul\":15595:15613   */\n              tag_395\n              tag_231\n              jump\t// in\n            tag_395:\n                /* \"#utility.yul\":15539:15623   */\n            tag_394:\n                /* \"#utility.yul\":15360:15629   */\n              pop\n                /* \"#utility.yul\":15309:15629   */\n              swap2\n              swap1\n              pop\n              jump\t// out\n\n            auxdata: 0xa2646970667358221220975de0320c4175ad12bb27f50fa10b345f70dda066375017c339e764b187828564736f6c63430008120033\n        }\n    }\n\n    auxdata: 0xa26469706673582212208278143b9e15e67be2836267dfb50fce6d6305959780144b94a6c4e1d0a6e17c64736f6c63430008120033\n}\n","bytecode":{"linkReferences":{},"object":"608060405234801561001057600080fd5b50612ea4806100206000396000f3fe6080604052600436106200005c5760003560e01c80630b87335814620000615780631cf82bd214620000a5578063481c6a7514620000c557806352be03cf14620000f55780638e8389bf14620001395780639bfba8a9146200017d575b600080fd5b3480156200006e57600080fd5b506200008d60048036038101906200008791906200063a565b620001ad565b6040516200009c919062000706565b60405180910390f35b620000c36004803603810190620000bd919062000798565b62000262565b005b348015620000d257600080fd5b50620000dd62000449565b604051620000ec919062000847565b60405180910390f35b3480156200010257600080fd5b506200012160048036038101906200011b919062000895565b6200046f565b60405162000130919062000706565b60405180910390f35b3480156200014657600080fd5b506200016560048036038101906200015f91906200063a565b62000517565b60405162000174919062000847565b60405180910390f35b3480156200018a57600080fd5b506200019562000557565b604051620001a4919062000995565b60405180910390f35b60018181548110620001be57600080fd5b906000526020600020016000915090508054620001db90620009e8565b80601f01602080910402602001604051908101604052809291908181526020018280546200020990620009e8565b80156200025a5780601f106200022e576101008083540402835291602001916200025a565b820191906000526020600020905b8154815290600101906020018083116200023c57829003601f168201915b505050505081565b33600260006101000a81548173ffffffffffffffffffffffffffffffffffffffff021916908373ffffffffffffffffffffffffffffffffffffffff160217905550600033848484604051620002b790620005e7565b620002c6949392919062000a70565b604051809103906000f080158015620002e3573d6000803e3d6000fd5b50905060018484909180600181540180825580915050600190039060005260206000200160009091929091929091929091925091826200032592919062000cc2565b5060008190506000819080600181540180825580915050600190039060005260206000200160009091909190916101000a81548173ffffffffffffffffffffffffffffffffffffffff021916908373ffffffffffffffffffffffffffffffffffffffff1602179055508173ffffffffffffffffffffffffffffffffffffffff1663d0e30db0346040518263ffffffff1660e01b81526004016000604051808303818588803b158015620003d757600080fd5b505af1158015620003ec573d6000803e3d6000fd5b50505050508484600360008573ffffffffffffffffffffffffffffffffffffffff1673ffffffffffffffffffffffffffffffffffffffff16815260200190815260200160002091826200044192919062000cc2565b505050505050565b600260009054906101000a900473ffffffffffffffffffffffffffffffffffffffff1681565b600360205280600052604060002060009150905080546200049090620009e8565b80601f0160208091040260200160405190810160405280929190818152602001828054620004be90620009e8565b80156200050f5780601f10620004e3576101008083540402835291602001916200050f565b820191906000526020600020905b815481529060010190602001808311620004f157829003601f168201915b505050505081565b600081815481106200052857600080fd5b906000526020600020016000915054906101000a900473ffffffffffffffffffffffffffffffffffffffff1681565b60606000805480602002602001604051908101604052809291908181526020018280548015620005dd57602002820191906000526020600020905b8160009054906101000a900473ffffffffffffffffffffffffffffffffffffffff1673ffffffffffffffffffffffffffffffffffffffff168152602001906001019080831162000592575b5050505050905090565b6120c78062000da883390190565b600080fd5b600080fd5b6000819050919050565b6200061481620005ff565b81146200062057600080fd5b50565b600081359050620006348162000609565b92915050565b600060208284031215620006535762000652620005f5565b5b6000620006638482850162000623565b91505092915050565b600081519050919050565b600082825260208201905092915050565b60005b83811015620006a85780820151818401526020810190506200068b565b60008484015250505050565b6000601f19601f8301169050919050565b6000620006d2826200066c565b620006de818562000677565b9350620006f081856020860162000688565b620006fb81620006b4565b840191505092915050565b60006020820190508181036000830152620007228184620006c5565b905092915050565b600080fd5b600080fd5b600080fd5b60008083601f8401126200075257620007516200072a565b5b8235905067ffffffffffffffff8111156200077257620007716200072f565b5b60208301915083600182028301111562000791576200079062000734565b5b9250929050565b600080600060408486031215620007b457620007b3620005f5565b5b600084013567ffffffffffffffff811115620007d557620007d4620005fa565b5b620007e38682870162000739565b93509350506020620007f88682870162000623565b9150509250925092565b600073ffffffffffffffffffffffffffffffffffffffff82169050919050565b60006200082f8262000802565b9050919050565b620008418162000822565b82525050565b60006020820190506200085e600083018462000836565b92915050565b6200086f8162000822565b81146200087b57600080fd5b50565b6000813590506200088f8162000864565b92915050565b600060208284031215620008ae57620008ad620005f5565b5b6000620008be848285016200087e565b91505092915050565b600081519050919050565b600082825260208201905092915050565b6000819050602082019050919050565b620008fe8162000822565b82525050565b6000620009128383620008f3565b60208301905092915050565b6000602082019050919050565b60006200093882620008c7565b620009448185620008d2565b93506200095183620008e3565b8060005b83811015620009885781516200096c888262000904565b975062000979836200091e565b92505060018101905062000955565b5085935050505092915050565b60006020820190508181036000830152620009b181846200092b565b905092915050565b7f4e487b7100000000000000000000000000000000000000000000000000000000600052602260045260246000fd5b6000600282049050600182168062000a0157607f821691505b60208210810362000a175762000a16620009b9565b5b50919050565b82818337600083830152505050565b600062000a3a838562000677565b935062000a4983858462000a1d565b62000a5483620006b4565b840190509392505050565b62000a6a81620005ff565b82525050565b600060608201905062000a87600083018762000836565b818103602083015262000a9c81858762000a2c565b905062000aad604083018462000a5f565b95945050505050565b600082905092915050565b7f4e487b7100000000000000000000000000000000000000000000000000000000600052604160045260246000fd5b60008190508160005260206000209050919050565b60006020601f8301049050919050565b600082821b905092915050565b60006008830262000b547fffffffffffffffffffffffffffffffffffffffffffffffffffffffffffffffff8262000b15565b62000b60868362000b15565b95508019841693508086168417925050509392505050565b6000819050919050565b600062000ba362000b9d62000b9784620005ff565b62000b78565b620005ff565b9050919050565b6000819050919050565b62000bbf8362000b82565b62000bd762000bce8262000baa565b84845462000b22565b825550505050565b600090565b62000bee62000bdf565b62000bfb81848462000bb4565b505050565b5b8181101562000c235762000c1760008262000be4565b60018101905062000c01565b5050565b601f82111562000c725762000c3c8162000af0565b62000c478462000b05565b8101602085101562000c57578190505b62000c6f62000c668562000b05565b83018262000c00565b50505b505050565b600082821c905092915050565b600062000c976000198460080262000c77565b1980831691505092915050565b600062000cb2838362000c84565b9150826002028217905092915050565b62000cce838362000ab6565b67ffffffffffffffff81111562000cea5762000ce962000ac1565b5b62000cf68254620009e8565b62000d0382828562000c27565b6000601f83116001811462000d37576000841562000d22578287013590505b62000d2e858262000ca4565b86555062000d9e565b601f19841662000d478662000af0565b60005b8281101562000d715784890135825560018201915060208501945060208101905062000d4a565b8683101562000d91578489013562000d8d601f89168262000c84565b8355505b6001600288020188555050505b5050505050505056fe60806040523480156200001157600080fd5b50604051620020c7380380620020c78339818101604052810190620000379190620002cd565b82600360006101000a81548173ffffffffffffffffffffffffffffffffffffffff021916908373ffffffffffffffffffffffffffffffffffffffff160217905550816002908162000089919062000589565b508060048190555050505062000670565b6000604051905090565b600080fd5b600080fd5b600073ffffffffffffffffffffffffffffffffffffffff82169050919050565b6000620000db82620000ae565b9050919050565b620000ed81620000ce565b8114620000f957600080fd5b50565b6000815190506200010d81620000e2565b92915050565b600080fd5b600080fd5b6000601f19601f8301169050919050565b7f4e487b7100000000000000000000000000000000000000000000000000000000600052604160045260246000fd5b62000168826200011d565b810181811067ffffffffffffffff821117156200018a57620001896200012e565b5b80604052505050565b60006200019f6200009a565b9050620001ad82826200015d565b919050565b600067ffffffffffffffff821115620001d057620001cf6200012e565b5b620001db826200011d565b9050602081019050919050565b60005b8381101562000208578082015181840152602081019050620001eb565b60008484015250505050565b60006200022b6200022584620001b2565b62000193565b9050828152602081018484840111156200024a576200024962000118565b5b62000257848285620001e8565b509392505050565b600082601f83011262000277576200027662000113565b5b81516200028984826020860162000214565b91505092915050565b6000819050919050565b620002a78162000292565b8114620002b357600080fd5b50565b600081519050620002c7816200029c565b92915050565b600080600060608486031215620002e957620002e8620000a4565b5b6000620002f986828701620000fc565b935050602084015167ffffffffffffffff8111156200031d576200031c620000a9565b5b6200032b868287016200025f565b92505060406200033e86828701620002b6565b9150509250925092565b600081519050919050565b7f4e487b7100000000000000000000000000000000000000000000000000000000600052602260045260246000fd5b600060028204905060018216806200039b57607f821691505b602082108103620003b157620003b062000353565b5b50919050565b60008190508160005260206000209050919050565b60006020601f8301049050919050565b600082821b905092915050565b6000600883026200041b7fffffffffffffffffffffffffffffffffffffffffffffffffffffffffffffffff82620003dc565b620004278683620003dc565b95508019841693508086168417925050509392505050565b6000819050919050565b60006200046a620004646200045e8462000292565b6200043f565b62000292565b9050919050565b6000819050919050565b620004868362000449565b6200049e620004958262000471565b848454620003e9565b825550505050565b600090565b620004b5620004a6565b620004c28184846200047b565b505050565b5b81811015620004ea57620004de600082620004ab565b600181019050620004c8565b5050565b601f82111562000539576200050381620003b7565b6200050e84620003cc565b810160208510156200051e578190505b620005366200052d85620003cc565b830182620004c7565b50505b505050565b600082821c905092915050565b60006200055e600019846008026200053e565b1980831691505092915050565b60006200057983836200054b565b9150826002028217905092915050565b620005948262000348565b67ffffffffffffffff811115620005b057620005af6200012e565b5b620005bc825462000382565b620005c9828285620004ee565b600060209050601f831160018114620006015760008415620005ec578287015190505b620005f885826200056b565b86555062000668565b601f1984166200061186620003b7565b60005b828110156200063b5784890151825560018201915060208501945060208101905062000614565b868310156200065b578489015162000657601f8916826200054b565b8355505b6001600288020188555050505b505050505050565b611a4780620006806000396000f3fe6080604052600436106100dd5760003560e01c80639ace38c21161007f578063a4e81be011610059578063a4e81be0146102b6578063c17c3521146102d2578063cc1e2cb0146102fb578063d0e30db014610326576100dd565b80639ace38c2146102115780639d5f65fc14610250578063a334b2951461028d576100dd565b8063474466c2116100bb578063474466c214610176578063481c6a751461019257806359a7b3fe146101bd5780636eaf9563146101e8576100dd565b80630fa8d54f146100e257806312065fe01461010b57806320ee128e14610136575b600080fd5b3480156100ee57600080fd5b5061010960048036038101906101049190611233565b610330565b005b34801561011757600080fd5b5061012061045b565b60405161012d919061126f565b60405180910390f35b34801561014257600080fd5b5061015d600480360381019061015891906112e8565b610463565b60405161016d9493929190611343565b60405180910390f35b610190600480360381019061018b91906113c6565b6104bd565b005b34801561019e57600080fd5b506101a76109c2565b6040516101b49190611415565b60405180910390f35b3480156101c957600080fd5b506101d26109e8565b6040516101df919061126f565b60405180910390f35b3480156101f457600080fd5b5061020f600480360381019061020a91906112e8565b6109ee565b005b34801561021d57600080fd5b5061023860048036038101906102339190611233565b610dcf565b604051610247939291906114c0565b60405180910390f35b34801561025c57600080fd5b50610277600480360381019061027291906114fe565b610eb1565b604051610284919061164d565b60405180910390f35b34801561029957600080fd5b506102b460048036038101906102af91906112e8565b610f88565b005b6102d060048036038101906102cb919061166f565b61100d565b005b3480156102de57600080fd5b506102f960048036038101906102f49190611233565b6110bd565b005b34801561030757600080fd5b50610310611116565b60405161031d91906116f1565b60405180910390f35b61032e6111a4565b005b6008600160003373ffffffffffffffffffffffffffffffffffffffff1673ffffffffffffffffffffffffffffffffffffffff168152602001908152602001600020805490501061037f57600080fd5b600160003373ffffffffffffffffffffffffffffffffffffffff1673ffffffffffffffffffffffffffffffffffffffff1681526020019081526020016000206040518060800160405280428152602001838152602001836004546103e39190611742565b815260200160001515815250908060018154018082558091505060019003906000526020600020906004020160009091909190915060008201518160000155602082015181600101556040820151816002015560608201518160030160006101000a81548160ff021916908315150217905550505050565b600047905090565b6001602052816000526040600020818154811061047f57600080fd5b9060005260206000209060040201600091509150508060000154908060010154908060020154908060030160009054906101000a900460ff16905084565b600360009054906101000a900473ffffffffffffffffffffffffffffffffffffffff1673ffffffffffffffffffffffffffffffffffffffff163373ffffffffffffffffffffffffffffffffffffffff161461054d576040517f08c379a0000000000000000000000000000000000000000000000000000000008152600401610544906117d0565b60405180910390fd5b600115158273ffffffffffffffffffffffffffffffffffffffff163373ffffffffffffffffffffffffffffffffffffffff167f62a0718d681b5a77ad80fbaf7e41ff461f77b69d49e3879cba8e045c85e2ac74600160008773ffffffffffffffffffffffffffffffffffffffff1673ffffffffffffffffffffffffffffffffffffffff16815260200190815260200160002085815481106105f1576105f06117f0565b5b906000526020600020906004020160000154600160008873ffffffffffffffffffffffffffffffffffffffff1673ffffffffffffffffffffffffffffffffffffffff1681526020019081526020016000208681548110610654576106536117f0565b5b906000526020600020906004020160010154600160008973ffffffffffffffffffffffffffffffffffffffff1673ffffffffffffffffffffffffffffffffffffffff16815260200190815260200160002087815481106106b7576106b66117f0565b5b9060005260206000209060040201600101546004546106d69190611742565b6040516106e59392919061181f565b60405180910390a48173ffffffffffffffffffffffffffffffffffffffff166108fc600160008573ffffffffffffffffffffffffffffffffffffffff1673ffffffffffffffffffffffffffffffffffffffff1681526020019081526020016000208381548110610758576107576117f0565b5b9060005260206000209060040201600101546004546107779190611742565b9081150290604051600060405180830381858888f193505050501580156107a2573d6000803e3d6000fd5b5060008190505b60018060008573ffffffffffffffffffffffffffffffffffffffff1673ffffffffffffffffffffffffffffffffffffffff168152602001908152602001600020805490506107f79190611856565b81101561092957600160008473ffffffffffffffffffffffffffffffffffffffff1673ffffffffffffffffffffffffffffffffffffffff16815260200190815260200160002060018261084a919061188a565b8154811061085b5761085a6117f0565b5b9060005260206000209060040201600160008573ffffffffffffffffffffffffffffffffffffffff1673ffffffffffffffffffffffffffffffffffffffff16815260200190815260200160002082815481106108ba576108b96117f0565b5b90600052602060002090600402016000820154816000015560018201548160010155600282015481600201556003820160009054906101000a900460ff168160030160006101000a81548160ff0219169083151502179055509050508080610921906118be565b9150506107a9565b50600160008373ffffffffffffffffffffffffffffffffffffffff1673ffffffffffffffffffffffffffffffffffffffff16815260200190815260200160002080548061097957610978611906565b5b6001900381819060005260206000209060040201600080820160009055600182016000905560028201600090556003820160006101000a81549060ff0219169055505090555050565b600360009054906101000a900473ffffffffffffffffffffffffffffffffffffffff1681565b60045481565b600360009054906101000a900473ffffffffffffffffffffffffffffffffffffffff1673ffffffffffffffffffffffffffffffffffffffff163373ffffffffffffffffffffffffffffffffffffffff1614610a7e576040517f08c379a0000000000000000000000000000000000000000000000000000000008152600401610a75906117d0565b60405180910390fd5b600015158273ffffffffffffffffffffffffffffffffffffffff163373ffffffffffffffffffffffffffffffffffffffff167f62a0718d681b5a77ad80fbaf7e41ff461f77b69d49e3879cba8e045c85e2ac74600160008773ffffffffffffffffffffffffffffffffffffffff1673ffffffffffffffffffffffffffffffffffffffff1681526020019081526020016000208581548110610b2257610b216117f0565b5b906000526020600020906004020160000154600160008873ffffffffffffffffffffffffffffffffffffffff1673ffffffffffffffffffffffffffffffffffffffff1681526020019081526020016000208681548110610b8557610b846117f0565b5b9060005260206000209060040201600101546000604051610ba89392919061197a565b60405180910390a460008190505b60018060008573ffffffffffffffffffffffffffffffffffffffff1673ffffffffffffffffffffffffffffffffffffffff16815260200190815260200160002080549050610c049190611856565b811015610d3657600160008473ffffffffffffffffffffffffffffffffffffffff1673ffffffffffffffffffffffffffffffffffffffff168152602001908152602001600020600182610c57919061188a565b81548110610c6857610c676117f0565b5b9060005260206000209060040201600160008573ffffffffffffffffffffffffffffffffffffffff1673ffffffffffffffffffffffffffffffffffffffff1681526020019081526020016000208281548110610cc757610cc66117f0565b5b90600052602060002090600402016000820154816000015560018201548160010155600282015481600201556003820160009054906101000a900460ff168160030160006101000a81548160ff0219169083151502179055509050508080610d2e906118be565b915050610bb6565b50600160008373ffffffffffffffffffffffffffffffffffffffff1673ffffffffffffffffffffffffffffffffffffffff168152602001908152602001600020805480610d8657610d85611906565b5b6001900381819060005260206000209060040201600080820160009055600182016000905560028201600090556003820160006101000a81549060ff0219169055505090555050565b60008181548110610ddf57600080fd5b90600052602060002090600302016000915090508060000160009054906101000a900473ffffffffffffffffffffffffffffffffffffffff1690806001015490806002018054610e2e906119e0565b80601f0160208091040260200160405190810160405280929190818152602001828054610e5a906119e0565b8015610ea75780601f10610e7c57610100808354040283529160200191610ea7565b820191906000526020600020905b815481529060010190602001808311610e8a57829003601f168201915b5050505050905083565b6060600160008373ffffffffffffffffffffffffffffffffffffffff1673ffffffffffffffffffffffffffffffffffffffff168152602001908152602001600020805480602002602001604051908101604052809291908181526020016000905b82821015610f7d57838290600052602060002090600402016040518060800160405290816000820154815260200160018201548152602001600282015481526020016003820160009054906101000a900460ff16151515158152505081526020019060010190610f12565b505050509050919050565b60008110158015610f9a575060058111155b610fa357600080fd5b428273ffffffffffffffffffffffffffffffffffffffff163373ffffffffffffffffffffffffffffffffffffffff167fdddb240fbb188a53bd8696322a87c3683a1ac31c64363d8fb20958c533d72b1e84604051611001919061126f565b60405180910390a45050565b8073ffffffffffffffffffffffffffffffffffffffff166108fc349081150290604051600060405180830381858888f19350505050158015611053573d6000803e3d6000fd5b50428173ffffffffffffffffffffffffffffffffffffffff163373ffffffffffffffffffffffffffffffffffffffff167f2165348cf27937d1d425739e783ea2b54d034c643767d704eb4a9f6ba834726d346040516110b2919061126f565b60405180910390a450565b423373ffffffffffffffffffffffffffffffffffffffff167f556a8d88a81363d3d82e0a4349b1c101aa81b26dd3f3c9e97a447b9f6cafbf5383604051611104919061126f565b60405180910390a38060048190555050565b60028054611123906119e0565b80601f016020809104026020016040519081016040528092919081815260200182805461114f906119e0565b801561119c5780601f106111715761010080835404028352916020019161119c565b820191906000526020600020905b81548152906001019060200180831161117f57829003601f168201915b505050505081565b3373ffffffffffffffffffffffffffffffffffffffff167f36af321ec8d3c75236829c5317affd40ddb308863a1236d2d277a4025cccee1e3447426040516111ee9392919061181f565b60405180910390a2565b600080fd5b6000819050919050565b611210816111fd565b811461121b57600080fd5b50565b60008135905061122d81611207565b92915050565b600060208284031215611249576112486111f8565b5b60006112578482850161121e565b91505092915050565b611269816111fd565b82525050565b60006020820190506112846000830184611260565b92915050565b600073ffffffffffffffffffffffffffffffffffffffff82169050919050565b60006112b58261128a565b9050919050565b6112c5816112aa565b81146112d057600080fd5b50565b6000813590506112e2816112bc565b92915050565b600080604083850312156112ff576112fe6111f8565b5b600061130d858286016112d3565b925050602061131e8582860161121e565b9150509250929050565b60008115159050919050565b61133d81611328565b82525050565b60006080820190506113586000830187611260565b6113656020830186611260565b6113726040830185611260565b61137f6060830184611334565b95945050505050565b60006113938261128a565b9050919050565b6113a381611388565b81146113ae57600080fd5b50565b6000813590506113c08161139a565b92915050565b600080604083850312156113dd576113dc6111f8565b5b60006113eb858286016113b1565b92505060206113fc8582860161121e565b9150509250929050565b61140f816112aa565b82525050565b600060208201905061142a6000830184611406565b92915050565b600081519050919050565b600082825260208201905092915050565b60005b8381101561146a57808201518184015260208101905061144f565b60008484015250505050565b6000601f19601f8301169050919050565b600061149282611430565b61149c818561143b565b93506114ac81856020860161144c565b6114b581611476565b840191505092915050565b60006060820190506114d56000830186611406565b6114e26020830185611260565b81810360408301526114f48184611487565b9050949350505050565b600060208284031215611514576115136111f8565b5b6000611522848285016112d3565b91505092915050565b600081519050919050565b600082825260208201905092915050565b6000819050602082019050919050565b611560816111fd565b82525050565b61156f81611328565b82525050565b60808201600082015161158b6000850182611557565b50602082015161159e6020850182611557565b5060408201516115b16040850182611557565b5060608201516115c46060850182611566565b50505050565b60006115d68383611575565b60808301905092915050565b6000602082019050919050565b60006115fa8261152b565b6116048185611536565b935061160f83611547565b8060005b8381101561164057815161162788826115ca565b9750611632836115e2565b925050600181019050611613565b5085935050505092915050565b6000602082019050818103600083015261166781846115ef565b905092915050565b600060208284031215611685576116846111f8565b5b6000611693848285016113b1565b91505092915050565b600081519050919050565b600082825260208201905092915050565b60006116c38261169c565b6116cd81856116a7565b93506116dd81856020860161144c565b6116e681611476565b840191505092915050565b6000602082019050818103600083015261170b81846116b8565b905092915050565b7f4e487b7100000000000000000000000000000000000000000000000000000000600052601160045260246000fd5b600061174d826111fd565b9150611758836111fd565b9250828202611766816111fd565b9150828204841483151761177d5761177c611713565b5b5092915050565b7f596f7520617265206e6f7420746865206d616e61676572000000000000000000600082015250565b60006117ba6017836116a7565b91506117c582611784565b602082019050919050565b600060208201905081810360008301526117e9816117ad565b9050919050565b7f4e487b7100000000000000000000000000000000000000000000000000000000600052603260045260246000fd5b60006060820190506118346000830186611260565b6118416020830185611260565b61184e6040830184611260565b949350505050565b6000611861826111fd565b915061186c836111fd565b925082820390508181111561188457611883611713565b5b92915050565b6000611895826111fd565b91506118a0836111fd565b92508282019050808211156118b8576118b7611713565b5b92915050565b60006118c9826111fd565b91507fffffffffffffffffffffffffffffffffffffffffffffffffffffffffffffffff82036118fb576118fa611713565b5b600182019050919050565b7f4e487b7100000000000000000000000000000000000000000000000000000000600052603160045260246000fd5b6000819050919050565b6000819050919050565b600061196461195f61195a84611935565b61193f565b6111fd565b9050919050565b61197481611949565b82525050565b600060608201905061198f6000830186611260565b61199c6020830185611260565b6119a9604083018461196b565b949350505050565b7f4e487b7100000000000000000000000000000000000000000000000000000000600052602260045260246000fd5b600060028204905060018216806119f857607f821691505b602082108103611a0b57611a0a6119b1565b5b5091905056fea2646970667358221220975de0320c4175ad12bb27f50fa10b345f70dda066375017c339e764b187828564736f6c63430008120033a26469706673582212208278143b9e15e67be2836267dfb50fce6d6305959780144b94a6c4e1d0a6e17c64736f6c63430008120033","opcodes":"PUSH1 0x80 PUSH1 0x40 MSTORE CALLVALUE DUP1 ISZERO PUSH2 0x10 JUMPI PUSH1 0x0 DUP1 REVERT JUMPDEST POP PUSH2 0x2EA4 DUP1 PUSH2 0x20 PUSH1 0x0 CODECOPY PUSH1 0x0 RETURN INVALID PUSH1 0x80 PUSH1 0x40 MSTORE PUSH1 0x4 CALLDATASIZE LT PUSH3 0x5C JUMPI PUSH1 0x0 CALLDATALOAD PUSH1 0xE0 SHR DUP1 PUSH4 0xB873358 EQ PUSH3 0x61 JUMPI DUP1 PUSH4 0x1CF82BD2 EQ PUSH3 0xA5 JUMPI DUP1 PUSH4 0x481C6A75 EQ PUSH3 0xC5 JUMPI DUP1 PUSH4 0x52BE03CF EQ PUSH3 0xF5 JUMPI DUP1 PUSH4 0x8E8389BF EQ PUSH3 0x139 JUMPI DUP1 PUSH4 0x9BFBA8A9 EQ PUSH3 0x17D JUMPI JUMPDEST PUSH1 0x0 DUP1 REVERT JUMPDEST CALLVALUE DUP1 ISZERO PUSH3 0x6E JUMPI PUSH1 0x0 DUP1 REVERT JUMPDEST POP PUSH3 0x8D PUSH1 0x4 DUP1 CALLDATASIZE SUB DUP2 ADD SWAP1 PUSH3 0x87 SWAP2 SWAP1 PUSH3 0x63A JUMP JUMPDEST PUSH3 0x1AD JUMP JUMPDEST PUSH1 0x40 MLOAD PUSH3 0x9C SWAP2 SWAP1 PUSH3 0x706 JUMP JUMPDEST PUSH1 0x40 MLOAD DUP1 SWAP2 SUB SWAP1 RETURN JUMPDEST PUSH3 0xC3 PUSH1 0x4 DUP1 CALLDATASIZE SUB DUP2 ADD SWAP1 PUSH3 0xBD SWAP2 SWAP1 PUSH3 0x798 JUMP JUMPDEST PUSH3 0x262 JUMP JUMPDEST STOP JUMPDEST CALLVALUE DUP1 ISZERO PUSH3 0xD2 JUMPI PUSH1 0x0 DUP1 REVERT JUMPDEST POP PUSH3 0xDD PUSH3 0x449 JUMP JUMPDEST PUSH1 0x40 MLOAD PUSH3 0xEC SWAP2 SWAP1 PUSH3 0x847 JUMP JUMPDEST PUSH1 0x40 MLOAD DUP1 SWAP2 SUB SWAP1 RETURN JUMPDEST CALLVALUE DUP1 ISZERO PUSH3 0x102 JUMPI PUSH1 0x0 DUP1 REVERT JUMPDEST POP PUSH3 0x121 PUSH1 0x4 DUP1 CALLDATASIZE SUB DUP2 ADD SWAP1 PUSH3 0x11B SWAP2 SWAP1 PUSH3 0x895 JUMP JUMPDEST PUSH3 0x46F JUMP JUMPDEST PUSH1 0x40 MLOAD PUSH3 0x130 SWAP2 SWAP1 PUSH3 0x706 JUMP JUMPDEST PUSH1 0x40 MLOAD DUP1 SWAP2 SUB SWAP1 RETURN JUMPDEST CALLVALUE DUP1 ISZERO PUSH3 0x146 JUMPI PUSH1 0x0 DUP1 REVERT JUMPDEST POP PUSH3 0x165 PUSH1 0x4 DUP1 CALLDATASIZE SUB DUP2 ADD SWAP1 PUSH3 0x15F SWAP2 SWAP1 PUSH3 0x63A JUMP JUMPDEST PUSH3 0x517 JUMP JUMPDEST PUSH1 0x40 MLOAD PUSH3 0x174 SWAP2 SWAP1 PUSH3 0x847 JUMP JUMPDEST PUSH1 0x40 MLOAD DUP1 SWAP2 SUB SWAP1 RETURN JUMPDEST CALLVALUE DUP1 ISZERO PUSH3 0x18A JUMPI PUSH1 0x0 DUP1 REVERT JUMPDEST POP PUSH3 0x195 PUSH3 0x557 JUMP JUMPDEST PUSH1 0x40 MLOAD PUSH3 0x1A4 SWAP2 SWAP1 PUSH3 0x995 JUMP JUMPDEST PUSH1 0x40 MLOAD DUP1 SWAP2 SUB SWAP1 RETURN JUMPDEST PUSH1 0x1 DUP2 DUP2 SLOAD DUP2 LT PUSH3 0x1BE JUMPI PUSH1 0x0 DUP1 REVERT JUMPDEST SWAP1 PUSH1 0x0 MSTORE PUSH1 0x20 PUSH1 0x0 KECCAK256 ADD PUSH1 0x0 SWAP2 POP SWAP1 POP DUP1 SLOAD PUSH3 0x1DB SWAP1 PUSH3 0x9E8 JUMP JUMPDEST DUP1 PUSH1 0x1F ADD PUSH1 0x20 DUP1 SWAP2 DIV MUL PUSH1 0x20 ADD PUSH1 0x40 MLOAD SWAP1 DUP2 ADD PUSH1 0x40 MSTORE DUP1 SWAP3 SWAP2 SWAP1 DUP2 DUP2 MSTORE PUSH1 0x20 ADD DUP3 DUP1 SLOAD PUSH3 0x209 SWAP1 PUSH3 0x9E8 JUMP JUMPDEST DUP1 ISZERO PUSH3 0x25A JUMPI DUP1 PUSH1 0x1F LT PUSH3 0x22E JUMPI PUSH2 0x100 DUP1 DUP4 SLOAD DIV MUL DUP4 MSTORE SWAP2 PUSH1 0x20 ADD SWAP2 PUSH3 0x25A JUMP JUMPDEST DUP3 ADD SWAP2 SWAP1 PUSH1 0x0 MSTORE PUSH1 0x20 PUSH1 0x0 KECCAK256 SWAP1 JUMPDEST DUP2 SLOAD DUP2 MSTORE SWAP1 PUSH1 0x1 ADD SWAP1 PUSH1 0x20 ADD DUP1 DUP4 GT PUSH3 0x23C JUMPI DUP3 SWAP1 SUB PUSH1 0x1F AND DUP3 ADD SWAP2 JUMPDEST POP POP POP POP POP DUP2 JUMP JUMPDEST CALLER PUSH1 0x2 PUSH1 0x0 PUSH2 0x100 EXP DUP2 SLOAD DUP2 PUSH20 0xFFFFFFFFFFFFFFFFFFFFFFFFFFFFFFFFFFFFFFFF MUL NOT AND SWAP1 DUP4 PUSH20 0xFFFFFFFFFFFFFFFFFFFFFFFFFFFFFFFFFFFFFFFF AND MUL OR SWAP1 SSTORE POP PUSH1 0x0 CALLER DUP5 DUP5 DUP5 PUSH1 0x40 MLOAD PUSH3 0x2B7 SWAP1 PUSH3 0x5E7 JUMP JUMPDEST PUSH3 0x2C6 SWAP5 SWAP4 SWAP3 SWAP2 SWAP1 PUSH3 0xA70 JUMP JUMPDEST PUSH1 0x40 MLOAD DUP1 SWAP2 SUB SWAP1 PUSH1 0x0 CREATE DUP1 ISZERO DUP1 ISZERO PUSH3 0x2E3 JUMPI RETURNDATASIZE PUSH1 0x0 DUP1 RETURNDATACOPY RETURNDATASIZE PUSH1 0x0 REVERT JUMPDEST POP SWAP1 POP PUSH1 0x1 DUP5 DUP5 SWAP1 SWAP2 DUP1 PUSH1 0x1 DUP2 SLOAD ADD DUP1 DUP3 SSTORE DUP1 SWAP2 POP POP PUSH1 0x1 SWAP1 SUB SWAP1 PUSH1 0x0 MSTORE PUSH1 0x20 PUSH1 0x0 KECCAK256 ADD PUSH1 0x0 SWAP1 SWAP2 SWAP3 SWAP1 SWAP2 SWAP3 SWAP1 SWAP2 SWAP3 SWAP1 SWAP2 SWAP3 POP SWAP2 DUP3 PUSH3 0x325 SWAP3 SWAP2 SWAP1 PUSH3 0xCC2 JUMP JUMPDEST POP PUSH1 0x0 DUP2 SWAP1 POP PUSH1 0x0 DUP2 SWAP1 DUP1 PUSH1 0x1 DUP2 SLOAD ADD DUP1 DUP3 SSTORE DUP1 SWAP2 POP POP PUSH1 0x1 SWAP1 SUB SWAP1 PUSH1 0x0 MSTORE PUSH1 0x20 PUSH1 0x0 KECCAK256 ADD PUSH1 0x0 SWAP1 SWAP2 SWAP1 SWAP2 SWAP1 SWAP2 PUSH2 0x100 EXP DUP2 SLOAD DUP2 PUSH20 0xFFFFFFFFFFFFFFFFFFFFFFFFFFFFFFFFFFFFFFFF MUL NOT AND SWAP1 DUP4 PUSH20 0xFFFFFFFFFFFFFFFFFFFFFFFFFFFFFFFFFFFFFFFF AND MUL OR SWAP1 SSTORE POP DUP2 PUSH20 0xFFFFFFFFFFFFFFFFFFFFFFFFFFFFFFFFFFFFFFFF AND PUSH4 0xD0E30DB0 CALLVALUE PUSH1 0x40 MLOAD DUP3 PUSH4 0xFFFFFFFF AND PUSH1 0xE0 SHL DUP2 MSTORE PUSH1 0x4 ADD PUSH1 0x0 PUSH1 0x40 MLOAD DUP1 DUP4 SUB DUP2 DUP6 DUP9 DUP1 EXTCODESIZE ISZERO DUP1 ISZERO PUSH3 0x3D7 JUMPI PUSH1 0x0 DUP1 REVERT JUMPDEST POP GAS CALL ISZERO DUP1 ISZERO PUSH3 0x3EC JUMPI RETURNDATASIZE PUSH1 0x0 DUP1 RETURNDATACOPY RETURNDATASIZE PUSH1 0x0 REVERT JUMPDEST POP POP POP POP POP DUP5 DUP5 PUSH1 0x3 PUSH1 0x0 DUP6 PUSH20 0xFFFFFFFFFFFFFFFFFFFFFFFFFFFFFFFFFFFFFFFF AND PUSH20 0xFFFFFFFFFFFFFFFFFFFFFFFFFFFFFFFFFFFFFFFF AND DUP2 MSTORE PUSH1 0x20 ADD SWAP1 DUP2 MSTORE PUSH1 0x20 ADD PUSH1 0x0 KECCAK256 SWAP2 DUP3 PUSH3 0x441 SWAP3 SWAP2 SWAP1 PUSH3 0xCC2 JUMP JUMPDEST POP POP POP POP POP POP JUMP JUMPDEST PUSH1 0x2 PUSH1 0x0 SWAP1 SLOAD SWAP1 PUSH2 0x100 EXP SWAP1 DIV PUSH20 0xFFFFFFFFFFFFFFFFFFFFFFFFFFFFFFFFFFFFFFFF AND DUP2 JUMP JUMPDEST PUSH1 0x3 PUSH1 0x20 MSTORE DUP1 PUSH1 0x0 MSTORE PUSH1 0x40 PUSH1 0x0 KECCAK256 PUSH1 0x0 SWAP2 POP SWAP1 POP DUP1 SLOAD PUSH3 0x490 SWAP1 PUSH3 0x9E8 JUMP JUMPDEST DUP1 PUSH1 0x1F ADD PUSH1 0x20 DUP1 SWAP2 DIV MUL PUSH1 0x20 ADD PUSH1 0x40 MLOAD SWAP1 DUP2 ADD PUSH1 0x40 MSTORE DUP1 SWAP3 SWAP2 SWAP1 DUP2 DUP2 MSTORE PUSH1 0x20 ADD DUP3 DUP1 SLOAD PUSH3 0x4BE SWAP1 PUSH3 0x9E8 JUMP JUMPDEST DUP1 ISZERO PUSH3 0x50F JUMPI DUP1 PUSH1 0x1F LT PUSH3 0x4E3 JUMPI PUSH2 0x100 DUP1 DUP4 SLOAD DIV MUL DUP4 MSTORE SWAP2 PUSH1 0x20 ADD SWAP2 PUSH3 0x50F JUMP JUMPDEST DUP3 ADD SWAP2 SWAP1 PUSH1 0x0 MSTORE PUSH1 0x20 PUSH1 0x0 KECCAK256 SWAP1 JUMPDEST DUP2 SLOAD DUP2 MSTORE SWAP1 PUSH1 0x1 ADD SWAP1 PUSH1 0x20 ADD DUP1 DUP4 GT PUSH3 0x4F1 JUMPI DUP3 SWAP1 SUB PUSH1 0x1F AND DUP3 ADD SWAP2 JUMPDEST POP POP POP POP POP DUP2 JUMP JUMPDEST PUSH1 0x0 DUP2 DUP2 SLOAD DUP2 LT PUSH3 0x528 JUMPI PUSH1 0x0 DUP1 REVERT JUMPDEST SWAP1 PUSH1 0x0 MSTORE PUSH1 0x20 PUSH1 0x0 KECCAK256 ADD PUSH1 0x0 SWAP2 POP SLOAD SWAP1 PUSH2 0x100 EXP SWAP1 DIV PUSH20 0xFFFFFFFFFFFFFFFFFFFFFFFFFFFFFFFFFFFFFFFF AND DUP2 JUMP JUMPDEST PUSH1 0x60 PUSH1 0x0 DUP1 SLOAD DUP1 PUSH1 0x20 MUL PUSH1 0x20 ADD PUSH1 0x40 MLOAD SWAP1 DUP2 ADD PUSH1 0x40 MSTORE DUP1 SWAP3 SWAP2 SWAP1 DUP2 DUP2 MSTORE PUSH1 0x20 ADD DUP3 DUP1 SLOAD DUP1 ISZERO PUSH3 0x5DD JUMPI PUSH1 0x20 MUL DUP3 ADD SWAP2 SWAP1 PUSH1 0x0 MSTORE PUSH1 0x20 PUSH1 0x0 KECCAK256 SWAP1 JUMPDEST DUP2 PUSH1 0x0 SWAP1 SLOAD SWAP1 PUSH2 0x100 EXP SWAP1 DIV PUSH20 0xFFFFFFFFFFFFFFFFFFFFFFFFFFFFFFFFFFFFFFFF AND PUSH20 0xFFFFFFFFFFFFFFFFFFFFFFFFFFFFFFFFFFFFFFFF AND DUP2 MSTORE PUSH1 0x20 ADD SWAP1 PUSH1 0x1 ADD SWAP1 DUP1 DUP4 GT PUSH3 0x592 JUMPI JUMPDEST POP POP POP POP POP SWAP1 POP SWAP1 JUMP JUMPDEST PUSH2 0x20C7 DUP1 PUSH3 0xDA8 DUP4 CODECOPY ADD SWAP1 JUMP JUMPDEST PUSH1 0x0 DUP1 REVERT JUMPDEST PUSH1 0x0 DUP1 REVERT JUMPDEST PUSH1 0x0 DUP2 SWAP1 POP SWAP2 SWAP1 POP JUMP JUMPDEST PUSH3 0x614 DUP2 PUSH3 0x5FF JUMP JUMPDEST DUP2 EQ PUSH3 0x620 JUMPI PUSH1 0x0 DUP1 REVERT JUMPDEST POP JUMP JUMPDEST PUSH1 0x0 DUP2 CALLDATALOAD SWAP1 POP PUSH3 0x634 DUP2 PUSH3 0x609 JUMP JUMPDEST SWAP3 SWAP2 POP POP JUMP JUMPDEST PUSH1 0x0 PUSH1 0x20 DUP3 DUP5 SUB SLT ISZERO PUSH3 0x653 JUMPI PUSH3 0x652 PUSH3 0x5F5 JUMP JUMPDEST JUMPDEST PUSH1 0x0 PUSH3 0x663 DUP5 DUP3 DUP6 ADD PUSH3 0x623 JUMP JUMPDEST SWAP2 POP POP SWAP3 SWAP2 POP POP JUMP JUMPDEST PUSH1 0x0 DUP2 MLOAD SWAP1 POP SWAP2 SWAP1 POP JUMP JUMPDEST PUSH1 0x0 DUP3 DUP3 MSTORE PUSH1 0x20 DUP3 ADD SWAP1 POP SWAP3 SWAP2 POP POP JUMP JUMPDEST PUSH1 0x0 JUMPDEST DUP4 DUP2 LT ISZERO PUSH3 0x6A8 JUMPI DUP1 DUP3 ADD MLOAD DUP2 DUP5 ADD MSTORE PUSH1 0x20 DUP2 ADD SWAP1 POP PUSH3 0x68B JUMP JUMPDEST PUSH1 0x0 DUP5 DUP5 ADD MSTORE POP POP POP POP JUMP JUMPDEST PUSH1 0x0 PUSH1 0x1F NOT PUSH1 0x1F DUP4 ADD AND SWAP1 POP SWAP2 SWAP1 POP JUMP JUMPDEST PUSH1 0x0 PUSH3 0x6D2 DUP3 PUSH3 0x66C JUMP JUMPDEST PUSH3 0x6DE DUP2 DUP6 PUSH3 0x677 JUMP JUMPDEST SWAP4 POP PUSH3 0x6F0 DUP2 DUP6 PUSH1 0x20 DUP7 ADD PUSH3 0x688 JUMP JUMPDEST PUSH3 0x6FB DUP2 PUSH3 0x6B4 JUMP JUMPDEST DUP5 ADD SWAP2 POP POP SWAP3 SWAP2 POP POP JUMP JUMPDEST PUSH1 0x0 PUSH1 0x20 DUP3 ADD SWAP1 POP DUP2 DUP2 SUB PUSH1 0x0 DUP4 ADD MSTORE PUSH3 0x722 DUP2 DUP5 PUSH3 0x6C5 JUMP JUMPDEST SWAP1 POP SWAP3 SWAP2 POP POP JUMP JUMPDEST PUSH1 0x0 DUP1 REVERT JUMPDEST PUSH1 0x0 DUP1 REVERT JUMPDEST PUSH1 0x0 DUP1 REVERT JUMPDEST PUSH1 0x0 DUP1 DUP4 PUSH1 0x1F DUP5 ADD SLT PUSH3 0x752 JUMPI PUSH3 0x751 PUSH3 0x72A JUMP JUMPDEST JUMPDEST DUP3 CALLDATALOAD SWAP1 POP PUSH8 0xFFFFFFFFFFFFFFFF DUP2 GT ISZERO PUSH3 0x772 JUMPI PUSH3 0x771 PUSH3 0x72F JUMP JUMPDEST JUMPDEST PUSH1 0x20 DUP4 ADD SWAP2 POP DUP4 PUSH1 0x1 DUP3 MUL DUP4 ADD GT ISZERO PUSH3 0x791 JUMPI PUSH3 0x790 PUSH3 0x734 JUMP JUMPDEST JUMPDEST SWAP3 POP SWAP3 SWAP1 POP JUMP JUMPDEST PUSH1 0x0 DUP1 PUSH1 0x0 PUSH1 0x40 DUP5 DUP7 SUB SLT ISZERO PUSH3 0x7B4 JUMPI PUSH3 0x7B3 PUSH3 0x5F5 JUMP JUMPDEST JUMPDEST PUSH1 0x0 DUP5 ADD CALLDATALOAD PUSH8 0xFFFFFFFFFFFFFFFF DUP2 GT ISZERO PUSH3 0x7D5 JUMPI PUSH3 0x7D4 PUSH3 0x5FA JUMP JUMPDEST JUMPDEST PUSH3 0x7E3 DUP7 DUP3 DUP8 ADD PUSH3 0x739 JUMP JUMPDEST SWAP4 POP SWAP4 POP POP PUSH1 0x20 PUSH3 0x7F8 DUP7 DUP3 DUP8 ADD PUSH3 0x623 JUMP JUMPDEST SWAP2 POP POP SWAP3 POP SWAP3 POP SWAP3 JUMP JUMPDEST PUSH1 0x0 PUSH20 0xFFFFFFFFFFFFFFFFFFFFFFFFFFFFFFFFFFFFFFFF DUP3 AND SWAP1 POP SWAP2 SWAP1 POP JUMP JUMPDEST PUSH1 0x0 PUSH3 0x82F DUP3 PUSH3 0x802 JUMP JUMPDEST SWAP1 POP SWAP2 SWAP1 POP JUMP JUMPDEST PUSH3 0x841 DUP2 PUSH3 0x822 JUMP JUMPDEST DUP3 MSTORE POP POP JUMP JUMPDEST PUSH1 0x0 PUSH1 0x20 DUP3 ADD SWAP1 POP PUSH3 0x85E PUSH1 0x0 DUP4 ADD DUP5 PUSH3 0x836 JUMP JUMPDEST SWAP3 SWAP2 POP POP JUMP JUMPDEST PUSH3 0x86F DUP2 PUSH3 0x822 JUMP JUMPDEST DUP2 EQ PUSH3 0x87B JUMPI PUSH1 0x0 DUP1 REVERT JUMPDEST POP JUMP JUMPDEST PUSH1 0x0 DUP2 CALLDATALOAD SWAP1 POP PUSH3 0x88F DUP2 PUSH3 0x864 JUMP JUMPDEST SWAP3 SWAP2 POP POP JUMP JUMPDEST PUSH1 0x0 PUSH1 0x20 DUP3 DUP5 SUB SLT ISZERO PUSH3 0x8AE JUMPI PUSH3 0x8AD PUSH3 0x5F5 JUMP JUMPDEST JUMPDEST PUSH1 0x0 PUSH3 0x8BE DUP5 DUP3 DUP6 ADD PUSH3 0x87E JUMP JUMPDEST SWAP2 POP POP SWAP3 SWAP2 POP POP JUMP JUMPDEST PUSH1 0x0 DUP2 MLOAD SWAP1 POP SWAP2 SWAP1 POP JUMP JUMPDEST PUSH1 0x0 DUP3 DUP3 MSTORE PUSH1 0x20 DUP3 ADD SWAP1 POP SWAP3 SWAP2 POP POP JUMP JUMPDEST PUSH1 0x0 DUP2 SWAP1 POP PUSH1 0x20 DUP3 ADD SWAP1 POP SWAP2 SWAP1 POP JUMP JUMPDEST PUSH3 0x8FE DUP2 PUSH3 0x822 JUMP JUMPDEST DUP3 MSTORE POP POP JUMP JUMPDEST PUSH1 0x0 PUSH3 0x912 DUP4 DUP4 PUSH3 0x8F3 JUMP JUMPDEST PUSH1 0x20 DUP4 ADD SWAP1 POP SWAP3 SWAP2 POP POP JUMP JUMPDEST PUSH1 0x0 PUSH1 0x20 DUP3 ADD SWAP1 POP SWAP2 SWAP1 POP JUMP JUMPDEST PUSH1 0x0 PUSH3 0x938 DUP3 PUSH3 0x8C7 JUMP JUMPDEST PUSH3 0x944 DUP2 DUP6 PUSH3 0x8D2 JUMP JUMPDEST SWAP4 POP PUSH3 0x951 DUP4 PUSH3 0x8E3 JUMP JUMPDEST DUP1 PUSH1 0x0 JUMPDEST DUP4 DUP2 LT ISZERO PUSH3 0x988 JUMPI DUP2 MLOAD PUSH3 0x96C DUP9 DUP3 PUSH3 0x904 JUMP JUMPDEST SWAP8 POP PUSH3 0x979 DUP4 PUSH3 0x91E JUMP JUMPDEST SWAP3 POP POP PUSH1 0x1 DUP2 ADD SWAP1 POP PUSH3 0x955 JUMP JUMPDEST POP DUP6 SWAP4 POP POP POP POP SWAP3 SWAP2 POP POP JUMP JUMPDEST PUSH1 0x0 PUSH1 0x20 DUP3 ADD SWAP1 POP DUP2 DUP2 SUB PUSH1 0x0 DUP4 ADD MSTORE PUSH3 0x9B1 DUP2 DUP5 PUSH3 0x92B JUMP JUMPDEST SWAP1 POP SWAP3 SWAP2 POP POP JUMP JUMPDEST PUSH32 0x4E487B7100000000000000000000000000000000000000000000000000000000 PUSH1 0x0 MSTORE PUSH1 0x22 PUSH1 0x4 MSTORE PUSH1 0x24 PUSH1 0x0 REVERT JUMPDEST PUSH1 0x0 PUSH1 0x2 DUP3 DIV SWAP1 POP PUSH1 0x1 DUP3 AND DUP1 PUSH3 0xA01 JUMPI PUSH1 0x7F DUP3 AND SWAP2 POP JUMPDEST PUSH1 0x20 DUP3 LT DUP2 SUB PUSH3 0xA17 JUMPI PUSH3 0xA16 PUSH3 0x9B9 JUMP JUMPDEST JUMPDEST POP SWAP2 SWAP1 POP JUMP JUMPDEST DUP3 DUP2 DUP4 CALLDATACOPY PUSH1 0x0 DUP4 DUP4 ADD MSTORE POP POP POP JUMP JUMPDEST PUSH1 0x0 PUSH3 0xA3A DUP4 DUP6 PUSH3 0x677 JUMP JUMPDEST SWAP4 POP PUSH3 0xA49 DUP4 DUP6 DUP5 PUSH3 0xA1D JUMP JUMPDEST PUSH3 0xA54 DUP4 PUSH3 0x6B4 JUMP JUMPDEST DUP5 ADD SWAP1 POP SWAP4 SWAP3 POP POP POP JUMP JUMPDEST PUSH3 0xA6A DUP2 PUSH3 0x5FF JUMP JUMPDEST DUP3 MSTORE POP POP JUMP JUMPDEST PUSH1 0x0 PUSH1 0x60 DUP3 ADD SWAP1 POP PUSH3 0xA87 PUSH1 0x0 DUP4 ADD DUP8 PUSH3 0x836 JUMP JUMPDEST DUP2 DUP2 SUB PUSH1 0x20 DUP4 ADD MSTORE PUSH3 0xA9C DUP2 DUP6 DUP8 PUSH3 0xA2C JUMP JUMPDEST SWAP1 POP PUSH3 0xAAD PUSH1 0x40 DUP4 ADD DUP5 PUSH3 0xA5F JUMP JUMPDEST SWAP6 SWAP5 POP POP POP POP POP JUMP JUMPDEST PUSH1 0x0 DUP3 SWAP1 POP SWAP3 SWAP2 POP POP JUMP JUMPDEST PUSH32 0x4E487B7100000000000000000000000000000000000000000000000000000000 PUSH1 0x0 MSTORE PUSH1 0x41 PUSH1 0x4 MSTORE PUSH1 0x24 PUSH1 0x0 REVERT JUMPDEST PUSH1 0x0 DUP2 SWAP1 POP DUP2 PUSH1 0x0 MSTORE PUSH1 0x20 PUSH1 0x0 KECCAK256 SWAP1 POP SWAP2 SWAP1 POP JUMP JUMPDEST PUSH1 0x0 PUSH1 0x20 PUSH1 0x1F DUP4 ADD DIV SWAP1 POP SWAP2 SWAP1 POP JUMP JUMPDEST PUSH1 0x0 DUP3 DUP3 SHL SWAP1 POP SWAP3 SWAP2 POP POP JUMP JUMPDEST PUSH1 0x0 PUSH1 0x8 DUP4 MUL PUSH3 0xB54 PUSH32 0xFFFFFFFFFFFFFFFFFFFFFFFFFFFFFFFFFFFFFFFFFFFFFFFFFFFFFFFFFFFFFFFF DUP3 PUSH3 0xB15 JUMP JUMPDEST PUSH3 0xB60 DUP7 DUP4 PUSH3 0xB15 JUMP JUMPDEST SWAP6 POP DUP1 NOT DUP5 AND SWAP4 POP DUP1 DUP7 AND DUP5 OR SWAP3 POP POP POP SWAP4 SWAP3 POP POP POP JUMP JUMPDEST PUSH1 0x0 DUP2 SWAP1 POP SWAP2 SWAP1 POP JUMP JUMPDEST PUSH1 0x0 PUSH3 0xBA3 PUSH3 0xB9D PUSH3 0xB97 DUP5 PUSH3 0x5FF JUMP JUMPDEST PUSH3 0xB78 JUMP JUMPDEST PUSH3 0x5FF JUMP JUMPDEST SWAP1 POP SWAP2 SWAP1 POP JUMP JUMPDEST PUSH1 0x0 DUP2 SWAP1 POP SWAP2 SWAP1 POP JUMP JUMPDEST PUSH3 0xBBF DUP4 PUSH3 0xB82 JUMP JUMPDEST PUSH3 0xBD7 PUSH3 0xBCE DUP3 PUSH3 0xBAA JUMP JUMPDEST DUP5 DUP5 SLOAD PUSH3 0xB22 JUMP JUMPDEST DUP3 SSTORE POP POP POP POP JUMP JUMPDEST PUSH1 0x0 SWAP1 JUMP JUMPDEST PUSH3 0xBEE PUSH3 0xBDF JUMP JUMPDEST PUSH3 0xBFB DUP2 DUP5 DUP5 PUSH3 0xBB4 JUMP JUMPDEST POP POP POP JUMP JUMPDEST JUMPDEST DUP2 DUP2 LT ISZERO PUSH3 0xC23 JUMPI PUSH3 0xC17 PUSH1 0x0 DUP3 PUSH3 0xBE4 JUMP JUMPDEST PUSH1 0x1 DUP2 ADD SWAP1 POP PUSH3 0xC01 JUMP JUMPDEST POP POP JUMP JUMPDEST PUSH1 0x1F DUP3 GT ISZERO PUSH3 0xC72 JUMPI PUSH3 0xC3C DUP2 PUSH3 0xAF0 JUMP JUMPDEST PUSH3 0xC47 DUP5 PUSH3 0xB05 JUMP JUMPDEST DUP2 ADD PUSH1 0x20 DUP6 LT ISZERO PUSH3 0xC57 JUMPI DUP2 SWAP1 POP JUMPDEST PUSH3 0xC6F PUSH3 0xC66 DUP6 PUSH3 0xB05 JUMP JUMPDEST DUP4 ADD DUP3 PUSH3 0xC00 JUMP JUMPDEST POP POP JUMPDEST POP POP POP JUMP JUMPDEST PUSH1 0x0 DUP3 DUP3 SHR SWAP1 POP SWAP3 SWAP2 POP POP JUMP JUMPDEST PUSH1 0x0 PUSH3 0xC97 PUSH1 0x0 NOT DUP5 PUSH1 0x8 MUL PUSH3 0xC77 JUMP JUMPDEST NOT DUP1 DUP4 AND SWAP2 POP POP SWAP3 SWAP2 POP POP JUMP JUMPDEST PUSH1 0x0 PUSH3 0xCB2 DUP4 DUP4 PUSH3 0xC84 JUMP JUMPDEST SWAP2 POP DUP3 PUSH1 0x2 MUL DUP3 OR SWAP1 POP SWAP3 SWAP2 POP POP JUMP JUMPDEST PUSH3 0xCCE DUP4 DUP4 PUSH3 0xAB6 JUMP JUMPDEST PUSH8 0xFFFFFFFFFFFFFFFF DUP2 GT ISZERO PUSH3 0xCEA JUMPI PUSH3 0xCE9 PUSH3 0xAC1 JUMP JUMPDEST JUMPDEST PUSH3 0xCF6 DUP3 SLOAD PUSH3 0x9E8 JUMP JUMPDEST PUSH3 0xD03 DUP3 DUP3 DUP6 PUSH3 0xC27 JUMP JUMPDEST PUSH1 0x0 PUSH1 0x1F DUP4 GT PUSH1 0x1 DUP2 EQ PUSH3 0xD37 JUMPI PUSH1 0x0 DUP5 ISZERO PUSH3 0xD22 JUMPI DUP3 DUP8 ADD CALLDATALOAD SWAP1 POP JUMPDEST PUSH3 0xD2E DUP6 DUP3 PUSH3 0xCA4 JUMP JUMPDEST DUP7 SSTORE POP PUSH3 0xD9E JUMP JUMPDEST PUSH1 0x1F NOT DUP5 AND PUSH3 0xD47 DUP7 PUSH3 0xAF0 JUMP JUMPDEST PUSH1 0x0 JUMPDEST DUP3 DUP2 LT ISZERO PUSH3 0xD71 JUMPI DUP5 DUP10 ADD CALLDATALOAD DUP3 SSTORE PUSH1 0x1 DUP3 ADD SWAP2 POP PUSH1 0x20 DUP6 ADD SWAP5 POP PUSH1 0x20 DUP2 ADD SWAP1 POP PUSH3 0xD4A JUMP JUMPDEST DUP7 DUP4 LT ISZERO PUSH3 0xD91 JUMPI DUP5 DUP10 ADD CALLDATALOAD PUSH3 0xD8D PUSH1 0x1F DUP10 AND DUP3 PUSH3 0xC84 JUMP JUMPDEST DUP4 SSTORE POP JUMPDEST PUSH1 0x1 PUSH1 0x2 DUP9 MUL ADD DUP9 SSTORE POP POP POP JUMPDEST POP POP POP POP POP POP POP JUMP INVALID PUSH1 0x80 PUSH1 0x40 MSTORE CALLVALUE DUP1 ISZERO PUSH3 0x11 JUMPI PUSH1 0x0 DUP1 REVERT JUMPDEST POP PUSH1 0x40 MLOAD PUSH3 0x20C7 CODESIZE SUB DUP1 PUSH3 0x20C7 DUP4 CODECOPY DUP2 DUP2 ADD PUSH1 0x40 MSTORE DUP2 ADD SWAP1 PUSH3 0x37 SWAP2 SWAP1 PUSH3 0x2CD JUMP JUMPDEST DUP3 PUSH1 0x3 PUSH1 0x0 PUSH2 0x100 EXP DUP2 SLOAD DUP2 PUSH20 0xFFFFFFFFFFFFFFFFFFFFFFFFFFFFFFFFFFFFFFFF MUL NOT AND SWAP1 DUP4 PUSH20 0xFFFFFFFFFFFFFFFFFFFFFFFFFFFFFFFFFFFFFFFF AND MUL OR SWAP1 SSTORE POP DUP2 PUSH1 0x2 SWAP1 DUP2 PUSH3 0x89 SWAP2 SWAP1 PUSH3 0x589 JUMP JUMPDEST POP DUP1 PUSH1 0x4 DUP2 SWAP1 SSTORE POP POP POP POP PUSH3 0x670 JUMP JUMPDEST PUSH1 0x0 PUSH1 0x40 MLOAD SWAP1 POP SWAP1 JUMP JUMPDEST PUSH1 0x0 DUP1 REVERT JUMPDEST PUSH1 0x0 DUP1 REVERT JUMPDEST PUSH1 0x0 PUSH20 0xFFFFFFFFFFFFFFFFFFFFFFFFFFFFFFFFFFFFFFFF DUP3 AND SWAP1 POP SWAP2 SWAP1 POP JUMP JUMPDEST PUSH1 0x0 PUSH3 0xDB DUP3 PUSH3 0xAE JUMP JUMPDEST SWAP1 POP SWAP2 SWAP1 POP JUMP JUMPDEST PUSH3 0xED DUP2 PUSH3 0xCE JUMP JUMPDEST DUP2 EQ PUSH3 0xF9 JUMPI PUSH1 0x0 DUP1 REVERT JUMPDEST POP JUMP JUMPDEST PUSH1 0x0 DUP2 MLOAD SWAP1 POP PUSH3 0x10D DUP2 PUSH3 0xE2 JUMP JUMPDEST SWAP3 SWAP2 POP POP JUMP JUMPDEST PUSH1 0x0 DUP1 REVERT JUMPDEST PUSH1 0x0 DUP1 REVERT JUMPDEST PUSH1 0x0 PUSH1 0x1F NOT PUSH1 0x1F DUP4 ADD AND SWAP1 POP SWAP2 SWAP1 POP JUMP JUMPDEST PUSH32 0x4E487B7100000000000000000000000000000000000000000000000000000000 PUSH1 0x0 MSTORE PUSH1 0x41 PUSH1 0x4 MSTORE PUSH1 0x24 PUSH1 0x0 REVERT JUMPDEST PUSH3 0x168 DUP3 PUSH3 0x11D JUMP JUMPDEST DUP2 ADD DUP2 DUP2 LT PUSH8 0xFFFFFFFFFFFFFFFF DUP3 GT OR ISZERO PUSH3 0x18A JUMPI PUSH3 0x189 PUSH3 0x12E JUMP JUMPDEST JUMPDEST DUP1 PUSH1 0x40 MSTORE POP POP POP JUMP JUMPDEST PUSH1 0x0 PUSH3 0x19F PUSH3 0x9A JUMP JUMPDEST SWAP1 POP PUSH3 0x1AD DUP3 DUP3 PUSH3 0x15D JUMP JUMPDEST SWAP2 SWAP1 POP JUMP JUMPDEST PUSH1 0x0 PUSH8 0xFFFFFFFFFFFFFFFF DUP3 GT ISZERO PUSH3 0x1D0 JUMPI PUSH3 0x1CF PUSH3 0x12E JUMP JUMPDEST JUMPDEST PUSH3 0x1DB DUP3 PUSH3 0x11D JUMP JUMPDEST SWAP1 POP PUSH1 0x20 DUP2 ADD SWAP1 POP SWAP2 SWAP1 POP JUMP JUMPDEST PUSH1 0x0 JUMPDEST DUP4 DUP2 LT ISZERO PUSH3 0x208 JUMPI DUP1 DUP3 ADD MLOAD DUP2 DUP5 ADD MSTORE PUSH1 0x20 DUP2 ADD SWAP1 POP PUSH3 0x1EB JUMP JUMPDEST PUSH1 0x0 DUP5 DUP5 ADD MSTORE POP POP POP POP JUMP JUMPDEST PUSH1 0x0 PUSH3 0x22B PUSH3 0x225 DUP5 PUSH3 0x1B2 JUMP JUMPDEST PUSH3 0x193 JUMP JUMPDEST SWAP1 POP DUP3 DUP2 MSTORE PUSH1 0x20 DUP2 ADD DUP5 DUP5 DUP5 ADD GT ISZERO PUSH3 0x24A JUMPI PUSH3 0x249 PUSH3 0x118 JUMP JUMPDEST JUMPDEST PUSH3 0x257 DUP5 DUP3 DUP6 PUSH3 0x1E8 JUMP JUMPDEST POP SWAP4 SWAP3 POP POP POP JUMP JUMPDEST PUSH1 0x0 DUP3 PUSH1 0x1F DUP4 ADD SLT PUSH3 0x277 JUMPI PUSH3 0x276 PUSH3 0x113 JUMP JUMPDEST JUMPDEST DUP2 MLOAD PUSH3 0x289 DUP5 DUP3 PUSH1 0x20 DUP7 ADD PUSH3 0x214 JUMP JUMPDEST SWAP2 POP POP SWAP3 SWAP2 POP POP JUMP JUMPDEST PUSH1 0x0 DUP2 SWAP1 POP SWAP2 SWAP1 POP JUMP JUMPDEST PUSH3 0x2A7 DUP2 PUSH3 0x292 JUMP JUMPDEST DUP2 EQ PUSH3 0x2B3 JUMPI PUSH1 0x0 DUP1 REVERT JUMPDEST POP JUMP JUMPDEST PUSH1 0x0 DUP2 MLOAD SWAP1 POP PUSH3 0x2C7 DUP2 PUSH3 0x29C JUMP JUMPDEST SWAP3 SWAP2 POP POP JUMP JUMPDEST PUSH1 0x0 DUP1 PUSH1 0x0 PUSH1 0x60 DUP5 DUP7 SUB SLT ISZERO PUSH3 0x2E9 JUMPI PUSH3 0x2E8 PUSH3 0xA4 JUMP JUMPDEST JUMPDEST PUSH1 0x0 PUSH3 0x2F9 DUP7 DUP3 DUP8 ADD PUSH3 0xFC JUMP JUMPDEST SWAP4 POP POP PUSH1 0x20 DUP5 ADD MLOAD PUSH8 0xFFFFFFFFFFFFFFFF DUP2 GT ISZERO PUSH3 0x31D JUMPI PUSH3 0x31C PUSH3 0xA9 JUMP JUMPDEST JUMPDEST PUSH3 0x32B DUP7 DUP3 DUP8 ADD PUSH3 0x25F JUMP JUMPDEST SWAP3 POP POP PUSH1 0x40 PUSH3 0x33E DUP7 DUP3 DUP8 ADD PUSH3 0x2B6 JUMP JUMPDEST SWAP2 POP POP SWAP3 POP SWAP3 POP SWAP3 JUMP JUMPDEST PUSH1 0x0 DUP2 MLOAD SWAP1 POP SWAP2 SWAP1 POP JUMP JUMPDEST PUSH32 0x4E487B7100000000000000000000000000000000000000000000000000000000 PUSH1 0x0 MSTORE PUSH1 0x22 PUSH1 0x4 MSTORE PUSH1 0x24 PUSH1 0x0 REVERT JUMPDEST PUSH1 0x0 PUSH1 0x2 DUP3 DIV SWAP1 POP PUSH1 0x1 DUP3 AND DUP1 PUSH3 0x39B JUMPI PUSH1 0x7F DUP3 AND SWAP2 POP JUMPDEST PUSH1 0x20 DUP3 LT DUP2 SUB PUSH3 0x3B1 JUMPI PUSH3 0x3B0 PUSH3 0x353 JUMP JUMPDEST JUMPDEST POP SWAP2 SWAP1 POP JUMP JUMPDEST PUSH1 0x0 DUP2 SWAP1 POP DUP2 PUSH1 0x0 MSTORE PUSH1 0x20 PUSH1 0x0 KECCAK256 SWAP1 POP SWAP2 SWAP1 POP JUMP JUMPDEST PUSH1 0x0 PUSH1 0x20 PUSH1 0x1F DUP4 ADD DIV SWAP1 POP SWAP2 SWAP1 POP JUMP JUMPDEST PUSH1 0x0 DUP3 DUP3 SHL SWAP1 POP SWAP3 SWAP2 POP POP JUMP JUMPDEST PUSH1 0x0 PUSH1 0x8 DUP4 MUL PUSH3 0x41B PUSH32 0xFFFFFFFFFFFFFFFFFFFFFFFFFFFFFFFFFFFFFFFFFFFFFFFFFFFFFFFFFFFFFFFF DUP3 PUSH3 0x3DC JUMP JUMPDEST PUSH3 0x427 DUP7 DUP4 PUSH3 0x3DC JUMP JUMPDEST SWAP6 POP DUP1 NOT DUP5 AND SWAP4 POP DUP1 DUP7 AND DUP5 OR SWAP3 POP POP POP SWAP4 SWAP3 POP POP POP JUMP JUMPDEST PUSH1 0x0 DUP2 SWAP1 POP SWAP2 SWAP1 POP JUMP JUMPDEST PUSH1 0x0 PUSH3 0x46A PUSH3 0x464 PUSH3 0x45E DUP5 PUSH3 0x292 JUMP JUMPDEST PUSH3 0x43F JUMP JUMPDEST PUSH3 0x292 JUMP JUMPDEST SWAP1 POP SWAP2 SWAP1 POP JUMP JUMPDEST PUSH1 0x0 DUP2 SWAP1 POP SWAP2 SWAP1 POP JUMP JUMPDEST PUSH3 0x486 DUP4 PUSH3 0x449 JUMP JUMPDEST PUSH3 0x49E PUSH3 0x495 DUP3 PUSH3 0x471 JUMP JUMPDEST DUP5 DUP5 SLOAD PUSH3 0x3E9 JUMP JUMPDEST DUP3 SSTORE POP POP POP POP JUMP JUMPDEST PUSH1 0x0 SWAP1 JUMP JUMPDEST PUSH3 0x4B5 PUSH3 0x4A6 JUMP JUMPDEST PUSH3 0x4C2 DUP2 DUP5 DUP5 PUSH3 0x47B JUMP JUMPDEST POP POP POP JUMP JUMPDEST JUMPDEST DUP2 DUP2 LT ISZERO PUSH3 0x4EA JUMPI PUSH3 0x4DE PUSH1 0x0 DUP3 PUSH3 0x4AB JUMP JUMPDEST PUSH1 0x1 DUP2 ADD SWAP1 POP PUSH3 0x4C8 JUMP JUMPDEST POP POP JUMP JUMPDEST PUSH1 0x1F DUP3 GT ISZERO PUSH3 0x539 JUMPI PUSH3 0x503 DUP2 PUSH3 0x3B7 JUMP JUMPDEST PUSH3 0x50E DUP5 PUSH3 0x3CC JUMP JUMPDEST DUP2 ADD PUSH1 0x20 DUP6 LT ISZERO PUSH3 0x51E JUMPI DUP2 SWAP1 POP JUMPDEST PUSH3 0x536 PUSH3 0x52D DUP6 PUSH3 0x3CC JUMP JUMPDEST DUP4 ADD DUP3 PUSH3 0x4C7 JUMP JUMPDEST POP POP JUMPDEST POP POP POP JUMP JUMPDEST PUSH1 0x0 DUP3 DUP3 SHR SWAP1 POP SWAP3 SWAP2 POP POP JUMP JUMPDEST PUSH1 0x0 PUSH3 0x55E PUSH1 0x0 NOT DUP5 PUSH1 0x8 MUL PUSH3 0x53E JUMP JUMPDEST NOT DUP1 DUP4 AND SWAP2 POP POP SWAP3 SWAP2 POP POP JUMP JUMPDEST PUSH1 0x0 PUSH3 0x579 DUP4 DUP4 PUSH3 0x54B JUMP JUMPDEST SWAP2 POP DUP3 PUSH1 0x2 MUL DUP3 OR SWAP1 POP SWAP3 SWAP2 POP POP JUMP JUMPDEST PUSH3 0x594 DUP3 PUSH3 0x348 JUMP JUMPDEST PUSH8 0xFFFFFFFFFFFFFFFF DUP2 GT ISZERO PUSH3 0x5B0 JUMPI PUSH3 0x5AF PUSH3 0x12E JUMP JUMPDEST JUMPDEST PUSH3 0x5BC DUP3 SLOAD PUSH3 0x382 JUMP JUMPDEST PUSH3 0x5C9 DUP3 DUP3 DUP6 PUSH3 0x4EE JUMP JUMPDEST PUSH1 0x0 PUSH1 0x20 SWAP1 POP PUSH1 0x1F DUP4 GT PUSH1 0x1 DUP2 EQ PUSH3 0x601 JUMPI PUSH1 0x0 DUP5 ISZERO PUSH3 0x5EC JUMPI DUP3 DUP8 ADD MLOAD SWAP1 POP JUMPDEST PUSH3 0x5F8 DUP6 DUP3 PUSH3 0x56B JUMP JUMPDEST DUP7 SSTORE POP PUSH3 0x668 JUMP JUMPDEST PUSH1 0x1F NOT DUP5 AND PUSH3 0x611 DUP7 PUSH3 0x3B7 JUMP JUMPDEST PUSH1 0x0 JUMPDEST DUP3 DUP2 LT ISZERO PUSH3 0x63B JUMPI DUP5 DUP10 ADD MLOAD DUP3 SSTORE PUSH1 0x1 DUP3 ADD SWAP2 POP PUSH1 0x20 DUP6 ADD SWAP5 POP PUSH1 0x20 DUP2 ADD SWAP1 POP PUSH3 0x614 JUMP JUMPDEST DUP7 DUP4 LT ISZERO PUSH3 0x65B JUMPI DUP5 DUP10 ADD MLOAD PUSH3 0x657 PUSH1 0x1F DUP10 AND DUP3 PUSH3 0x54B JUMP JUMPDEST DUP4 SSTORE POP JUMPDEST PUSH1 0x1 PUSH1 0x2 DUP9 MUL ADD DUP9 SSTORE POP POP POP JUMPDEST POP POP POP POP POP POP JUMP JUMPDEST PUSH2 0x1A47 DUP1 PUSH3 0x680 PUSH1 0x0 CODECOPY PUSH1 0x0 RETURN INVALID PUSH1 0x80 PUSH1 0x40 MSTORE PUSH1 0x4 CALLDATASIZE LT PUSH2 0xDD JUMPI PUSH1 0x0 CALLDATALOAD PUSH1 0xE0 SHR DUP1 PUSH4 0x9ACE38C2 GT PUSH2 0x7F JUMPI DUP1 PUSH4 0xA4E81BE0 GT PUSH2 0x59 JUMPI DUP1 PUSH4 0xA4E81BE0 EQ PUSH2 0x2B6 JUMPI DUP1 PUSH4 0xC17C3521 EQ PUSH2 0x2D2 JUMPI DUP1 PUSH4 0xCC1E2CB0 EQ PUSH2 0x2FB JUMPI DUP1 PUSH4 0xD0E30DB0 EQ PUSH2 0x326 JUMPI PUSH2 0xDD JUMP JUMPDEST DUP1 PUSH4 0x9ACE38C2 EQ PUSH2 0x211 JUMPI DUP1 PUSH4 0x9D5F65FC EQ PUSH2 0x250 JUMPI DUP1 PUSH4 0xA334B295 EQ PUSH2 0x28D JUMPI PUSH2 0xDD JUMP JUMPDEST DUP1 PUSH4 0x474466C2 GT PUSH2 0xBB JUMPI DUP1 PUSH4 0x474466C2 EQ PUSH2 0x176 JUMPI DUP1 PUSH4 0x481C6A75 EQ PUSH2 0x192 JUMPI DUP1 PUSH4 0x59A7B3FE EQ PUSH2 0x1BD JUMPI DUP1 PUSH4 0x6EAF9563 EQ PUSH2 0x1E8 JUMPI PUSH2 0xDD JUMP JUMPDEST DUP1 PUSH4 0xFA8D54F EQ PUSH2 0xE2 JUMPI DUP1 PUSH4 0x12065FE0 EQ PUSH2 0x10B JUMPI DUP1 PUSH4 0x20EE128E EQ PUSH2 0x136 JUMPI JUMPDEST PUSH1 0x0 DUP1 REVERT JUMPDEST CALLVALUE DUP1 ISZERO PUSH2 0xEE JUMPI PUSH1 0x0 DUP1 REVERT JUMPDEST POP PUSH2 0x109 PUSH1 0x4 DUP1 CALLDATASIZE SUB DUP2 ADD SWAP1 PUSH2 0x104 SWAP2 SWAP1 PUSH2 0x1233 JUMP JUMPDEST PUSH2 0x330 JUMP JUMPDEST STOP JUMPDEST CALLVALUE DUP1 ISZERO PUSH2 0x117 JUMPI PUSH1 0x0 DUP1 REVERT JUMPDEST POP PUSH2 0x120 PUSH2 0x45B JUMP JUMPDEST PUSH1 0x40 MLOAD PUSH2 0x12D SWAP2 SWAP1 PUSH2 0x126F JUMP JUMPDEST PUSH1 0x40 MLOAD DUP1 SWAP2 SUB SWAP1 RETURN JUMPDEST CALLVALUE DUP1 ISZERO PUSH2 0x142 JUMPI PUSH1 0x0 DUP1 REVERT JUMPDEST POP PUSH2 0x15D PUSH1 0x4 DUP1 CALLDATASIZE SUB DUP2 ADD SWAP1 PUSH2 0x158 SWAP2 SWAP1 PUSH2 0x12E8 JUMP JUMPDEST PUSH2 0x463 JUMP JUMPDEST PUSH1 0x40 MLOAD PUSH2 0x16D SWAP5 SWAP4 SWAP3 SWAP2 SWAP1 PUSH2 0x1343 JUMP JUMPDEST PUSH1 0x40 MLOAD DUP1 SWAP2 SUB SWAP1 RETURN JUMPDEST PUSH2 0x190 PUSH1 0x4 DUP1 CALLDATASIZE SUB DUP2 ADD SWAP1 PUSH2 0x18B SWAP2 SWAP1 PUSH2 0x13C6 JUMP JUMPDEST PUSH2 0x4BD JUMP JUMPDEST STOP JUMPDEST CALLVALUE DUP1 ISZERO PUSH2 0x19E JUMPI PUSH1 0x0 DUP1 REVERT JUMPDEST POP PUSH2 0x1A7 PUSH2 0x9C2 JUMP JUMPDEST PUSH1 0x40 MLOAD PUSH2 0x1B4 SWAP2 SWAP1 PUSH2 0x1415 JUMP JUMPDEST PUSH1 0x40 MLOAD DUP1 SWAP2 SUB SWAP1 RETURN JUMPDEST CALLVALUE DUP1 ISZERO PUSH2 0x1C9 JUMPI PUSH1 0x0 DUP1 REVERT JUMPDEST POP PUSH2 0x1D2 PUSH2 0x9E8 JUMP JUMPDEST PUSH1 0x40 MLOAD PUSH2 0x1DF SWAP2 SWAP1 PUSH2 0x126F JUMP JUMPDEST PUSH1 0x40 MLOAD DUP1 SWAP2 SUB SWAP1 RETURN JUMPDEST CALLVALUE DUP1 ISZERO PUSH2 0x1F4 JUMPI PUSH1 0x0 DUP1 REVERT JUMPDEST POP PUSH2 0x20F PUSH1 0x4 DUP1 CALLDATASIZE SUB DUP2 ADD SWAP1 PUSH2 0x20A SWAP2 SWAP1 PUSH2 0x12E8 JUMP JUMPDEST PUSH2 0x9EE JUMP JUMPDEST STOP JUMPDEST CALLVALUE DUP1 ISZERO PUSH2 0x21D JUMPI PUSH1 0x0 DUP1 REVERT JUMPDEST POP PUSH2 0x238 PUSH1 0x4 DUP1 CALLDATASIZE SUB DUP2 ADD SWAP1 PUSH2 0x233 SWAP2 SWAP1 PUSH2 0x1233 JUMP JUMPDEST PUSH2 0xDCF JUMP JUMPDEST PUSH1 0x40 MLOAD PUSH2 0x247 SWAP4 SWAP3 SWAP2 SWAP1 PUSH2 0x14C0 JUMP JUMPDEST PUSH1 0x40 MLOAD DUP1 SWAP2 SUB SWAP1 RETURN JUMPDEST CALLVALUE DUP1 ISZERO PUSH2 0x25C JUMPI PUSH1 0x0 DUP1 REVERT JUMPDEST POP PUSH2 0x277 PUSH1 0x4 DUP1 CALLDATASIZE SUB DUP2 ADD SWAP1 PUSH2 0x272 SWAP2 SWAP1 PUSH2 0x14FE JUMP JUMPDEST PUSH2 0xEB1 JUMP JUMPDEST PUSH1 0x40 MLOAD PUSH2 0x284 SWAP2 SWAP1 PUSH2 0x164D JUMP JUMPDEST PUSH1 0x40 MLOAD DUP1 SWAP2 SUB SWAP1 RETURN JUMPDEST CALLVALUE DUP1 ISZERO PUSH2 0x299 JUMPI PUSH1 0x0 DUP1 REVERT JUMPDEST POP PUSH2 0x2B4 PUSH1 0x4 DUP1 CALLDATASIZE SUB DUP2 ADD SWAP1 PUSH2 0x2AF SWAP2 SWAP1 PUSH2 0x12E8 JUMP JUMPDEST PUSH2 0xF88 JUMP JUMPDEST STOP JUMPDEST PUSH2 0x2D0 PUSH1 0x4 DUP1 CALLDATASIZE SUB DUP2 ADD SWAP1 PUSH2 0x2CB SWAP2 SWAP1 PUSH2 0x166F JUMP JUMPDEST PUSH2 0x100D JUMP JUMPDEST STOP JUMPDEST CALLVALUE DUP1 ISZERO PUSH2 0x2DE JUMPI PUSH1 0x0 DUP1 REVERT JUMPDEST POP PUSH2 0x2F9 PUSH1 0x4 DUP1 CALLDATASIZE SUB DUP2 ADD SWAP1 PUSH2 0x2F4 SWAP2 SWAP1 PUSH2 0x1233 JUMP JUMPDEST PUSH2 0x10BD JUMP JUMPDEST STOP JUMPDEST CALLVALUE DUP1 ISZERO PUSH2 0x307 JUMPI PUSH1 0x0 DUP1 REVERT JUMPDEST POP PUSH2 0x310 PUSH2 0x1116 JUMP JUMPDEST PUSH1 0x40 MLOAD PUSH2 0x31D SWAP2 SWAP1 PUSH2 0x16F1 JUMP JUMPDEST PUSH1 0x40 MLOAD DUP1 SWAP2 SUB SWAP1 RETURN JUMPDEST PUSH2 0x32E PUSH2 0x11A4 JUMP JUMPDEST STOP JUMPDEST PUSH1 0x8 PUSH1 0x1 PUSH1 0x0 CALLER PUSH20 0xFFFFFFFFFFFFFFFFFFFFFFFFFFFFFFFFFFFFFFFF AND PUSH20 0xFFFFFFFFFFFFFFFFFFFFFFFFFFFFFFFFFFFFFFFF AND DUP2 MSTORE PUSH1 0x20 ADD SWAP1 DUP2 MSTORE PUSH1 0x20 ADD PUSH1 0x0 KECCAK256 DUP1 SLOAD SWAP1 POP LT PUSH2 0x37F JUMPI PUSH1 0x0 DUP1 REVERT JUMPDEST PUSH1 0x1 PUSH1 0x0 CALLER PUSH20 0xFFFFFFFFFFFFFFFFFFFFFFFFFFFFFFFFFFFFFFFF AND PUSH20 0xFFFFFFFFFFFFFFFFFFFFFFFFFFFFFFFFFFFFFFFF AND DUP2 MSTORE PUSH1 0x20 ADD SWAP1 DUP2 MSTORE PUSH1 0x20 ADD PUSH1 0x0 KECCAK256 PUSH1 0x40 MLOAD DUP1 PUSH1 0x80 ADD PUSH1 0x40 MSTORE DUP1 TIMESTAMP DUP2 MSTORE PUSH1 0x20 ADD DUP4 DUP2 MSTORE PUSH1 0x20 ADD DUP4 PUSH1 0x4 SLOAD PUSH2 0x3E3 SWAP2 SWAP1 PUSH2 0x1742 JUMP JUMPDEST DUP2 MSTORE PUSH1 0x20 ADD PUSH1 0x0 ISZERO ISZERO DUP2 MSTORE POP SWAP1 DUP1 PUSH1 0x1 DUP2 SLOAD ADD DUP1 DUP3 SSTORE DUP1 SWAP2 POP POP PUSH1 0x1 SWAP1 SUB SWAP1 PUSH1 0x0 MSTORE PUSH1 0x20 PUSH1 0x0 KECCAK256 SWAP1 PUSH1 0x4 MUL ADD PUSH1 0x0 SWAP1 SWAP2 SWAP1 SWAP2 SWAP1 SWAP2 POP PUSH1 0x0 DUP3 ADD MLOAD DUP2 PUSH1 0x0 ADD SSTORE PUSH1 0x20 DUP3 ADD MLOAD DUP2 PUSH1 0x1 ADD SSTORE PUSH1 0x40 DUP3 ADD MLOAD DUP2 PUSH1 0x2 ADD SSTORE PUSH1 0x60 DUP3 ADD MLOAD DUP2 PUSH1 0x3 ADD PUSH1 0x0 PUSH2 0x100 EXP DUP2 SLOAD DUP2 PUSH1 0xFF MUL NOT AND SWAP1 DUP4 ISZERO ISZERO MUL OR SWAP1 SSTORE POP POP POP POP JUMP JUMPDEST PUSH1 0x0 SELFBALANCE SWAP1 POP SWAP1 JUMP JUMPDEST PUSH1 0x1 PUSH1 0x20 MSTORE DUP2 PUSH1 0x0 MSTORE PUSH1 0x40 PUSH1 0x0 KECCAK256 DUP2 DUP2 SLOAD DUP2 LT PUSH2 0x47F JUMPI PUSH1 0x0 DUP1 REVERT JUMPDEST SWAP1 PUSH1 0x0 MSTORE PUSH1 0x20 PUSH1 0x0 KECCAK256 SWAP1 PUSH1 0x4 MUL ADD PUSH1 0x0 SWAP2 POP SWAP2 POP POP DUP1 PUSH1 0x0 ADD SLOAD SWAP1 DUP1 PUSH1 0x1 ADD SLOAD SWAP1 DUP1 PUSH1 0x2 ADD SLOAD SWAP1 DUP1 PUSH1 0x3 ADD PUSH1 0x0 SWAP1 SLOAD SWAP1 PUSH2 0x100 EXP SWAP1 DIV PUSH1 0xFF AND SWAP1 POP DUP5 JUMP JUMPDEST PUSH1 0x3 PUSH1 0x0 SWAP1 SLOAD SWAP1 PUSH2 0x100 EXP SWAP1 DIV PUSH20 0xFFFFFFFFFFFFFFFFFFFFFFFFFFFFFFFFFFFFFFFF AND PUSH20 0xFFFFFFFFFFFFFFFFFFFFFFFFFFFFFFFFFFFFFFFF AND CALLER PUSH20 0xFFFFFFFFFFFFFFFFFFFFFFFFFFFFFFFFFFFFFFFF AND EQ PUSH2 0x54D JUMPI PUSH1 0x40 MLOAD PUSH32 0x8C379A000000000000000000000000000000000000000000000000000000000 DUP2 MSTORE PUSH1 0x4 ADD PUSH2 0x544 SWAP1 PUSH2 0x17D0 JUMP JUMPDEST PUSH1 0x40 MLOAD DUP1 SWAP2 SUB SWAP1 REVERT JUMPDEST PUSH1 0x1 ISZERO ISZERO DUP3 PUSH20 0xFFFFFFFFFFFFFFFFFFFFFFFFFFFFFFFFFFFFFFFF AND CALLER PUSH20 0xFFFFFFFFFFFFFFFFFFFFFFFFFFFFFFFFFFFFFFFF AND PUSH32 0x62A0718D681B5A77AD80FBAF7E41FF461F77B69D49E3879CBA8E045C85E2AC74 PUSH1 0x1 PUSH1 0x0 DUP8 PUSH20 0xFFFFFFFFFFFFFFFFFFFFFFFFFFFFFFFFFFFFFFFF AND PUSH20 0xFFFFFFFFFFFFFFFFFFFFFFFFFFFFFFFFFFFFFFFF AND DUP2 MSTORE PUSH1 0x20 ADD SWAP1 DUP2 MSTORE PUSH1 0x20 ADD PUSH1 0x0 KECCAK256 DUP6 DUP2 SLOAD DUP2 LT PUSH2 0x5F1 JUMPI PUSH2 0x5F0 PUSH2 0x17F0 JUMP JUMPDEST JUMPDEST SWAP1 PUSH1 0x0 MSTORE PUSH1 0x20 PUSH1 0x0 KECCAK256 SWAP1 PUSH1 0x4 MUL ADD PUSH1 0x0 ADD SLOAD PUSH1 0x1 PUSH1 0x0 DUP9 PUSH20 0xFFFFFFFFFFFFFFFFFFFFFFFFFFFFFFFFFFFFFFFF AND PUSH20 0xFFFFFFFFFFFFFFFFFFFFFFFFFFFFFFFFFFFFFFFF AND DUP2 MSTORE PUSH1 0x20 ADD SWAP1 DUP2 MSTORE PUSH1 0x20 ADD PUSH1 0x0 KECCAK256 DUP7 DUP2 SLOAD DUP2 LT PUSH2 0x654 JUMPI PUSH2 0x653 PUSH2 0x17F0 JUMP JUMPDEST JUMPDEST SWAP1 PUSH1 0x0 MSTORE PUSH1 0x20 PUSH1 0x0 KECCAK256 SWAP1 PUSH1 0x4 MUL ADD PUSH1 0x1 ADD SLOAD PUSH1 0x1 PUSH1 0x0 DUP10 PUSH20 0xFFFFFFFFFFFFFFFFFFFFFFFFFFFFFFFFFFFFFFFF AND PUSH20 0xFFFFFFFFFFFFFFFFFFFFFFFFFFFFFFFFFFFFFFFF AND DUP2 MSTORE PUSH1 0x20 ADD SWAP1 DUP2 MSTORE PUSH1 0x20 ADD PUSH1 0x0 KECCAK256 DUP8 DUP2 SLOAD DUP2 LT PUSH2 0x6B7 JUMPI PUSH2 0x6B6 PUSH2 0x17F0 JUMP JUMPDEST JUMPDEST SWAP1 PUSH1 0x0 MSTORE PUSH1 0x20 PUSH1 0x0 KECCAK256 SWAP1 PUSH1 0x4 MUL ADD PUSH1 0x1 ADD SLOAD PUSH1 0x4 SLOAD PUSH2 0x6D6 SWAP2 SWAP1 PUSH2 0x1742 JUMP JUMPDEST PUSH1 0x40 MLOAD PUSH2 0x6E5 SWAP4 SWAP3 SWAP2 SWAP1 PUSH2 0x181F JUMP JUMPDEST PUSH1 0x40 MLOAD DUP1 SWAP2 SUB SWAP1 LOG4 DUP2 PUSH20 0xFFFFFFFFFFFFFFFFFFFFFFFFFFFFFFFFFFFFFFFF AND PUSH2 0x8FC PUSH1 0x1 PUSH1 0x0 DUP6 PUSH20 0xFFFFFFFFFFFFFFFFFFFFFFFFFFFFFFFFFFFFFFFF AND PUSH20 0xFFFFFFFFFFFFFFFFFFFFFFFFFFFFFFFFFFFFFFFF AND DUP2 MSTORE PUSH1 0x20 ADD SWAP1 DUP2 MSTORE PUSH1 0x20 ADD PUSH1 0x0 KECCAK256 DUP4 DUP2 SLOAD DUP2 LT PUSH2 0x758 JUMPI PUSH2 0x757 PUSH2 0x17F0 JUMP JUMPDEST JUMPDEST SWAP1 PUSH1 0x0 MSTORE PUSH1 0x20 PUSH1 0x0 KECCAK256 SWAP1 PUSH1 0x4 MUL ADD PUSH1 0x1 ADD SLOAD PUSH1 0x4 SLOAD PUSH2 0x777 SWAP2 SWAP1 PUSH2 0x1742 JUMP JUMPDEST SWAP1 DUP2 ISZERO MUL SWAP1 PUSH1 0x40 MLOAD PUSH1 0x0 PUSH1 0x40 MLOAD DUP1 DUP4 SUB DUP2 DUP6 DUP9 DUP9 CALL SWAP4 POP POP POP POP ISZERO DUP1 ISZERO PUSH2 0x7A2 JUMPI RETURNDATASIZE PUSH1 0x0 DUP1 RETURNDATACOPY RETURNDATASIZE PUSH1 0x0 REVERT JUMPDEST POP PUSH1 0x0 DUP2 SWAP1 POP JUMPDEST PUSH1 0x1 DUP1 PUSH1 0x0 DUP6 PUSH20 0xFFFFFFFFFFFFFFFFFFFFFFFFFFFFFFFFFFFFFFFF AND PUSH20 0xFFFFFFFFFFFFFFFFFFFFFFFFFFFFFFFFFFFFFFFF AND DUP2 MSTORE PUSH1 0x20 ADD SWAP1 DUP2 MSTORE PUSH1 0x20 ADD PUSH1 0x0 KECCAK256 DUP1 SLOAD SWAP1 POP PUSH2 0x7F7 SWAP2 SWAP1 PUSH2 0x1856 JUMP JUMPDEST DUP2 LT ISZERO PUSH2 0x929 JUMPI PUSH1 0x1 PUSH1 0x0 DUP5 PUSH20 0xFFFFFFFFFFFFFFFFFFFFFFFFFFFFFFFFFFFFFFFF AND PUSH20 0xFFFFFFFFFFFFFFFFFFFFFFFFFFFFFFFFFFFFFFFF AND DUP2 MSTORE PUSH1 0x20 ADD SWAP1 DUP2 MSTORE PUSH1 0x20 ADD PUSH1 0x0 KECCAK256 PUSH1 0x1 DUP3 PUSH2 0x84A SWAP2 SWAP1 PUSH2 0x188A JUMP JUMPDEST DUP2 SLOAD DUP2 LT PUSH2 0x85B JUMPI PUSH2 0x85A PUSH2 0x17F0 JUMP JUMPDEST JUMPDEST SWAP1 PUSH1 0x0 MSTORE PUSH1 0x20 PUSH1 0x0 KECCAK256 SWAP1 PUSH1 0x4 MUL ADD PUSH1 0x1 PUSH1 0x0 DUP6 PUSH20 0xFFFFFFFFFFFFFFFFFFFFFFFFFFFFFFFFFFFFFFFF AND PUSH20 0xFFFFFFFFFFFFFFFFFFFFFFFFFFFFFFFFFFFFFFFF AND DUP2 MSTORE PUSH1 0x20 ADD SWAP1 DUP2 MSTORE PUSH1 0x20 ADD PUSH1 0x0 KECCAK256 DUP3 DUP2 SLOAD DUP2 LT PUSH2 0x8BA JUMPI PUSH2 0x8B9 PUSH2 0x17F0 JUMP JUMPDEST JUMPDEST SWAP1 PUSH1 0x0 MSTORE PUSH1 0x20 PUSH1 0x0 KECCAK256 SWAP1 PUSH1 0x4 MUL ADD PUSH1 0x0 DUP3 ADD SLOAD DUP2 PUSH1 0x0 ADD SSTORE PUSH1 0x1 DUP3 ADD SLOAD DUP2 PUSH1 0x1 ADD SSTORE PUSH1 0x2 DUP3 ADD SLOAD DUP2 PUSH1 0x2 ADD SSTORE PUSH1 0x3 DUP3 ADD PUSH1 0x0 SWAP1 SLOAD SWAP1 PUSH2 0x100 EXP SWAP1 DIV PUSH1 0xFF AND DUP2 PUSH1 0x3 ADD PUSH1 0x0 PUSH2 0x100 EXP DUP2 SLOAD DUP2 PUSH1 0xFF MUL NOT AND SWAP1 DUP4 ISZERO ISZERO MUL OR SWAP1 SSTORE POP SWAP1 POP POP DUP1 DUP1 PUSH2 0x921 SWAP1 PUSH2 0x18BE JUMP JUMPDEST SWAP2 POP POP PUSH2 0x7A9 JUMP JUMPDEST POP PUSH1 0x1 PUSH1 0x0 DUP4 PUSH20 0xFFFFFFFFFFFFFFFFFFFFFFFFFFFFFFFFFFFFFFFF AND PUSH20 0xFFFFFFFFFFFFFFFFFFFFFFFFFFFFFFFFFFFFFFFF AND DUP2 MSTORE PUSH1 0x20 ADD SWAP1 DUP2 MSTORE PUSH1 0x20 ADD PUSH1 0x0 KECCAK256 DUP1 SLOAD DUP1 PUSH2 0x979 JUMPI PUSH2 0x978 PUSH2 0x1906 JUMP JUMPDEST JUMPDEST PUSH1 0x1 SWAP1 SUB DUP2 DUP2 SWAP1 PUSH1 0x0 MSTORE PUSH1 0x20 PUSH1 0x0 KECCAK256 SWAP1 PUSH1 0x4 MUL ADD PUSH1 0x0 DUP1 DUP3 ADD PUSH1 0x0 SWAP1 SSTORE PUSH1 0x1 DUP3 ADD PUSH1 0x0 SWAP1 SSTORE PUSH1 0x2 DUP3 ADD PUSH1 0x0 SWAP1 SSTORE PUSH1 0x3 DUP3 ADD PUSH1 0x0 PUSH2 0x100 EXP DUP2 SLOAD SWAP1 PUSH1 0xFF MUL NOT AND SWAP1 SSTORE POP POP SWAP1 SSTORE POP POP JUMP JUMPDEST PUSH1 0x3 PUSH1 0x0 SWAP1 SLOAD SWAP1 PUSH2 0x100 EXP SWAP1 DIV PUSH20 0xFFFFFFFFFFFFFFFFFFFFFFFFFFFFFFFFFFFFFFFF AND DUP2 JUMP JUMPDEST PUSH1 0x4 SLOAD DUP2 JUMP JUMPDEST PUSH1 0x3 PUSH1 0x0 SWAP1 SLOAD SWAP1 PUSH2 0x100 EXP SWAP1 DIV PUSH20 0xFFFFFFFFFFFFFFFFFFFFFFFFFFFFFFFFFFFFFFFF AND PUSH20 0xFFFFFFFFFFFFFFFFFFFFFFFFFFFFFFFFFFFFFFFF AND CALLER PUSH20 0xFFFFFFFFFFFFFFFFFFFFFFFFFFFFFFFFFFFFFFFF AND EQ PUSH2 0xA7E JUMPI PUSH1 0x40 MLOAD PUSH32 0x8C379A000000000000000000000000000000000000000000000000000000000 DUP2 MSTORE PUSH1 0x4 ADD PUSH2 0xA75 SWAP1 PUSH2 0x17D0 JUMP JUMPDEST PUSH1 0x40 MLOAD DUP1 SWAP2 SUB SWAP1 REVERT JUMPDEST PUSH1 0x0 ISZERO ISZERO DUP3 PUSH20 0xFFFFFFFFFFFFFFFFFFFFFFFFFFFFFFFFFFFFFFFF AND CALLER PUSH20 0xFFFFFFFFFFFFFFFFFFFFFFFFFFFFFFFFFFFFFFFF AND PUSH32 0x62A0718D681B5A77AD80FBAF7E41FF461F77B69D49E3879CBA8E045C85E2AC74 PUSH1 0x1 PUSH1 0x0 DUP8 PUSH20 0xFFFFFFFFFFFFFFFFFFFFFFFFFFFFFFFFFFFFFFFF AND PUSH20 0xFFFFFFFFFFFFFFFFFFFFFFFFFFFFFFFFFFFFFFFF AND DUP2 MSTORE PUSH1 0x20 ADD SWAP1 DUP2 MSTORE PUSH1 0x20 ADD PUSH1 0x0 KECCAK256 DUP6 DUP2 SLOAD DUP2 LT PUSH2 0xB22 JUMPI PUSH2 0xB21 PUSH2 0x17F0 JUMP JUMPDEST JUMPDEST SWAP1 PUSH1 0x0 MSTORE PUSH1 0x20 PUSH1 0x0 KECCAK256 SWAP1 PUSH1 0x4 MUL ADD PUSH1 0x0 ADD SLOAD PUSH1 0x1 PUSH1 0x0 DUP9 PUSH20 0xFFFFFFFFFFFFFFFFFFFFFFFFFFFFFFFFFFFFFFFF AND PUSH20 0xFFFFFFFFFFFFFFFFFFFFFFFFFFFFFFFFFFFFFFFF AND DUP2 MSTORE PUSH1 0x20 ADD SWAP1 DUP2 MSTORE PUSH1 0x20 ADD PUSH1 0x0 KECCAK256 DUP7 DUP2 SLOAD DUP2 LT PUSH2 0xB85 JUMPI PUSH2 0xB84 PUSH2 0x17F0 JUMP JUMPDEST JUMPDEST SWAP1 PUSH1 0x0 MSTORE PUSH1 0x20 PUSH1 0x0 KECCAK256 SWAP1 PUSH1 0x4 MUL ADD PUSH1 0x1 ADD SLOAD PUSH1 0x0 PUSH1 0x40 MLOAD PUSH2 0xBA8 SWAP4 SWAP3 SWAP2 SWAP1 PUSH2 0x197A JUMP JUMPDEST PUSH1 0x40 MLOAD DUP1 SWAP2 SUB SWAP1 LOG4 PUSH1 0x0 DUP2 SWAP1 POP JUMPDEST PUSH1 0x1 DUP1 PUSH1 0x0 DUP6 PUSH20 0xFFFFFFFFFFFFFFFFFFFFFFFFFFFFFFFFFFFFFFFF AND PUSH20 0xFFFFFFFFFFFFFFFFFFFFFFFFFFFFFFFFFFFFFFFF AND DUP2 MSTORE PUSH1 0x20 ADD SWAP1 DUP2 MSTORE PUSH1 0x20 ADD PUSH1 0x0 KECCAK256 DUP1 SLOAD SWAP1 POP PUSH2 0xC04 SWAP2 SWAP1 PUSH2 0x1856 JUMP JUMPDEST DUP2 LT ISZERO PUSH2 0xD36 JUMPI PUSH1 0x1 PUSH1 0x0 DUP5 PUSH20 0xFFFFFFFFFFFFFFFFFFFFFFFFFFFFFFFFFFFFFFFF AND PUSH20 0xFFFFFFFFFFFFFFFFFFFFFFFFFFFFFFFFFFFFFFFF AND DUP2 MSTORE PUSH1 0x20 ADD SWAP1 DUP2 MSTORE PUSH1 0x20 ADD PUSH1 0x0 KECCAK256 PUSH1 0x1 DUP3 PUSH2 0xC57 SWAP2 SWAP1 PUSH2 0x188A JUMP JUMPDEST DUP2 SLOAD DUP2 LT PUSH2 0xC68 JUMPI PUSH2 0xC67 PUSH2 0x17F0 JUMP JUMPDEST JUMPDEST SWAP1 PUSH1 0x0 MSTORE PUSH1 0x20 PUSH1 0x0 KECCAK256 SWAP1 PUSH1 0x4 MUL ADD PUSH1 0x1 PUSH1 0x0 DUP6 PUSH20 0xFFFFFFFFFFFFFFFFFFFFFFFFFFFFFFFFFFFFFFFF AND PUSH20 0xFFFFFFFFFFFFFFFFFFFFFFFFFFFFFFFFFFFFFFFF AND DUP2 MSTORE PUSH1 0x20 ADD SWAP1 DUP2 MSTORE PUSH1 0x20 ADD PUSH1 0x0 KECCAK256 DUP3 DUP2 SLOAD DUP2 LT PUSH2 0xCC7 JUMPI PUSH2 0xCC6 PUSH2 0x17F0 JUMP JUMPDEST JUMPDEST SWAP1 PUSH1 0x0 MSTORE PUSH1 0x20 PUSH1 0x0 KECCAK256 SWAP1 PUSH1 0x4 MUL ADD PUSH1 0x0 DUP3 ADD SLOAD DUP2 PUSH1 0x0 ADD SSTORE PUSH1 0x1 DUP3 ADD SLOAD DUP2 PUSH1 0x1 ADD SSTORE PUSH1 0x2 DUP3 ADD SLOAD DUP2 PUSH1 0x2 ADD SSTORE PUSH1 0x3 DUP3 ADD PUSH1 0x0 SWAP1 SLOAD SWAP1 PUSH2 0x100 EXP SWAP1 DIV PUSH1 0xFF AND DUP2 PUSH1 0x3 ADD PUSH1 0x0 PUSH2 0x100 EXP DUP2 SLOAD DUP2 PUSH1 0xFF MUL NOT AND SWAP1 DUP4 ISZERO ISZERO MUL OR SWAP1 SSTORE POP SWAP1 POP POP DUP1 DUP1 PUSH2 0xD2E SWAP1 PUSH2 0x18BE JUMP JUMPDEST SWAP2 POP POP PUSH2 0xBB6 JUMP JUMPDEST POP PUSH1 0x1 PUSH1 0x0 DUP4 PUSH20 0xFFFFFFFFFFFFFFFFFFFFFFFFFFFFFFFFFFFFFFFF AND PUSH20 0xFFFFFFFFFFFFFFFFFFFFFFFFFFFFFFFFFFFFFFFF AND DUP2 MSTORE PUSH1 0x20 ADD SWAP1 DUP2 MSTORE PUSH1 0x20 ADD PUSH1 0x0 KECCAK256 DUP1 SLOAD DUP1 PUSH2 0xD86 JUMPI PUSH2 0xD85 PUSH2 0x1906 JUMP JUMPDEST JUMPDEST PUSH1 0x1 SWAP1 SUB DUP2 DUP2 SWAP1 PUSH1 0x0 MSTORE PUSH1 0x20 PUSH1 0x0 KECCAK256 SWAP1 PUSH1 0x4 MUL ADD PUSH1 0x0 DUP1 DUP3 ADD PUSH1 0x0 SWAP1 SSTORE PUSH1 0x1 DUP3 ADD PUSH1 0x0 SWAP1 SSTORE PUSH1 0x2 DUP3 ADD PUSH1 0x0 SWAP1 SSTORE PUSH1 0x3 DUP3 ADD PUSH1 0x0 PUSH2 0x100 EXP DUP2 SLOAD SWAP1 PUSH1 0xFF MUL NOT AND SWAP1 SSTORE POP POP SWAP1 SSTORE POP POP JUMP JUMPDEST PUSH1 0x0 DUP2 DUP2 SLOAD DUP2 LT PUSH2 0xDDF JUMPI PUSH1 0x0 DUP1 REVERT JUMPDEST SWAP1 PUSH1 0x0 MSTORE PUSH1 0x20 PUSH1 0x0 KECCAK256 SWAP1 PUSH1 0x3 MUL ADD PUSH1 0x0 SWAP2 POP SWAP1 POP DUP1 PUSH1 0x0 ADD PUSH1 0x0 SWAP1 SLOAD SWAP1 PUSH2 0x100 EXP SWAP1 DIV PUSH20 0xFFFFFFFFFFFFFFFFFFFFFFFFFFFFFFFFFFFFFFFF AND SWAP1 DUP1 PUSH1 0x1 ADD SLOAD SWAP1 DUP1 PUSH1 0x2 ADD DUP1 SLOAD PUSH2 0xE2E SWAP1 PUSH2 0x19E0 JUMP JUMPDEST DUP1 PUSH1 0x1F ADD PUSH1 0x20 DUP1 SWAP2 DIV MUL PUSH1 0x20 ADD PUSH1 0x40 MLOAD SWAP1 DUP2 ADD PUSH1 0x40 MSTORE DUP1 SWAP3 SWAP2 SWAP1 DUP2 DUP2 MSTORE PUSH1 0x20 ADD DUP3 DUP1 SLOAD PUSH2 0xE5A SWAP1 PUSH2 0x19E0 JUMP JUMPDEST DUP1 ISZERO PUSH2 0xEA7 JUMPI DUP1 PUSH1 0x1F LT PUSH2 0xE7C JUMPI PUSH2 0x100 DUP1 DUP4 SLOAD DIV MUL DUP4 MSTORE SWAP2 PUSH1 0x20 ADD SWAP2 PUSH2 0xEA7 JUMP JUMPDEST DUP3 ADD SWAP2 SWAP1 PUSH1 0x0 MSTORE PUSH1 0x20 PUSH1 0x0 KECCAK256 SWAP1 JUMPDEST DUP2 SLOAD DUP2 MSTORE SWAP1 PUSH1 0x1 ADD SWAP1 PUSH1 0x20 ADD DUP1 DUP4 GT PUSH2 0xE8A JUMPI DUP3 SWAP1 SUB PUSH1 0x1F AND DUP3 ADD SWAP2 JUMPDEST POP POP POP POP POP SWAP1 POP DUP4 JUMP JUMPDEST PUSH1 0x60 PUSH1 0x1 PUSH1 0x0 DUP4 PUSH20 0xFFFFFFFFFFFFFFFFFFFFFFFFFFFFFFFFFFFFFFFF AND PUSH20 0xFFFFFFFFFFFFFFFFFFFFFFFFFFFFFFFFFFFFFFFF AND DUP2 MSTORE PUSH1 0x20 ADD SWAP1 DUP2 MSTORE PUSH1 0x20 ADD PUSH1 0x0 KECCAK256 DUP1 SLOAD DUP1 PUSH1 0x20 MUL PUSH1 0x20 ADD PUSH1 0x40 MLOAD SWAP1 DUP2 ADD PUSH1 0x40 MSTORE DUP1 SWAP3 SWAP2 SWAP1 DUP2 DUP2 MSTORE PUSH1 0x20 ADD PUSH1 0x0 SWAP1 JUMPDEST DUP3 DUP3 LT ISZERO PUSH2 0xF7D JUMPI DUP4 DUP3 SWAP1 PUSH1 0x0 MSTORE PUSH1 0x20 PUSH1 0x0 KECCAK256 SWAP1 PUSH1 0x4 MUL ADD PUSH1 0x40 MLOAD DUP1 PUSH1 0x80 ADD PUSH1 0x40 MSTORE SWAP1 DUP2 PUSH1 0x0 DUP3 ADD SLOAD DUP2 MSTORE PUSH1 0x20 ADD PUSH1 0x1 DUP3 ADD SLOAD DUP2 MSTORE PUSH1 0x20 ADD PUSH1 0x2 DUP3 ADD SLOAD DUP2 MSTORE PUSH1 0x20 ADD PUSH1 0x3 DUP3 ADD PUSH1 0x0 SWAP1 SLOAD SWAP1 PUSH2 0x100 EXP SWAP1 DIV PUSH1 0xFF AND ISZERO ISZERO ISZERO ISZERO DUP2 MSTORE POP POP DUP2 MSTORE PUSH1 0x20 ADD SWAP1 PUSH1 0x1 ADD SWAP1 PUSH2 0xF12 JUMP JUMPDEST POP POP POP POP SWAP1 POP SWAP2 SWAP1 POP JUMP JUMPDEST PUSH1 0x0 DUP2 LT ISZERO DUP1 ISZERO PUSH2 0xF9A JUMPI POP PUSH1 0x5 DUP2 GT ISZERO JUMPDEST PUSH2 0xFA3 JUMPI PUSH1 0x0 DUP1 REVERT JUMPDEST TIMESTAMP DUP3 PUSH20 0xFFFFFFFFFFFFFFFFFFFFFFFFFFFFFFFFFFFFFFFF AND CALLER PUSH20 0xFFFFFFFFFFFFFFFFFFFFFFFFFFFFFFFFFFFFFFFF AND PUSH32 0xDDDB240FBB188A53BD8696322A87C3683A1AC31C64363D8FB20958C533D72B1E DUP5 PUSH1 0x40 MLOAD PUSH2 0x1001 SWAP2 SWAP1 PUSH2 0x126F JUMP JUMPDEST PUSH1 0x40 MLOAD DUP1 SWAP2 SUB SWAP1 LOG4 POP POP JUMP JUMPDEST DUP1 PUSH20 0xFFFFFFFFFFFFFFFFFFFFFFFFFFFFFFFFFFFFFFFF AND PUSH2 0x8FC CALLVALUE SWAP1 DUP2 ISZERO MUL SWAP1 PUSH1 0x40 MLOAD PUSH1 0x0 PUSH1 0x40 MLOAD DUP1 DUP4 SUB DUP2 DUP6 DUP9 DUP9 CALL SWAP4 POP POP POP POP ISZERO DUP1 ISZERO PUSH2 0x1053 JUMPI RETURNDATASIZE PUSH1 0x0 DUP1 RETURNDATACOPY RETURNDATASIZE PUSH1 0x0 REVERT JUMPDEST POP TIMESTAMP DUP2 PUSH20 0xFFFFFFFFFFFFFFFFFFFFFFFFFFFFFFFFFFFFFFFF AND CALLER PUSH20 0xFFFFFFFFFFFFFFFFFFFFFFFFFFFFFFFFFFFFFFFF AND PUSH32 0x2165348CF27937D1D425739E783EA2B54D034C643767D704EB4A9F6BA834726D CALLVALUE PUSH1 0x40 MLOAD PUSH2 0x10B2 SWAP2 SWAP1 PUSH2 0x126F JUMP JUMPDEST PUSH1 0x40 MLOAD DUP1 SWAP2 SUB SWAP1 LOG4 POP JUMP JUMPDEST TIMESTAMP CALLER PUSH20 0xFFFFFFFFFFFFFFFFFFFFFFFFFFFFFFFFFFFFFFFF AND PUSH32 0x556A8D88A81363D3D82E0A4349B1C101AA81B26DD3F3C9E97A447B9F6CAFBF53 DUP4 PUSH1 0x40 MLOAD PUSH2 0x1104 SWAP2 SWAP1 PUSH2 0x126F JUMP JUMPDEST PUSH1 0x40 MLOAD DUP1 SWAP2 SUB SWAP1 LOG3 DUP1 PUSH1 0x4 DUP2 SWAP1 SSTORE POP POP JUMP JUMPDEST PUSH1 0x2 DUP1 SLOAD PUSH2 0x1123 SWAP1 PUSH2 0x19E0 JUMP JUMPDEST DUP1 PUSH1 0x1F ADD PUSH1 0x20 DUP1 SWAP2 DIV MUL PUSH1 0x20 ADD PUSH1 0x40 MLOAD SWAP1 DUP2 ADD PUSH1 0x40 MSTORE DUP1 SWAP3 SWAP2 SWAP1 DUP2 DUP2 MSTORE PUSH1 0x20 ADD DUP3 DUP1 SLOAD PUSH2 0x114F SWAP1 PUSH2 0x19E0 JUMP JUMPDEST DUP1 ISZERO PUSH2 0x119C JUMPI DUP1 PUSH1 0x1F LT PUSH2 0x1171 JUMPI PUSH2 0x100 DUP1 DUP4 SLOAD DIV MUL DUP4 MSTORE SWAP2 PUSH1 0x20 ADD SWAP2 PUSH2 0x119C JUMP JUMPDEST DUP3 ADD SWAP2 SWAP1 PUSH1 0x0 MSTORE PUSH1 0x20 PUSH1 0x0 KECCAK256 SWAP1 JUMPDEST DUP2 SLOAD DUP2 MSTORE SWAP1 PUSH1 0x1 ADD SWAP1 PUSH1 0x20 ADD DUP1 DUP4 GT PUSH2 0x117F JUMPI DUP3 SWAP1 SUB PUSH1 0x1F AND DUP3 ADD SWAP2 JUMPDEST POP POP POP POP POP DUP2 JUMP JUMPDEST CALLER PUSH20 0xFFFFFFFFFFFFFFFFFFFFFFFFFFFFFFFFFFFFFFFF AND PUSH32 0x36AF321EC8D3C75236829C5317AFFD40DDB308863A1236D2D277A4025CCCEE1E CALLVALUE SELFBALANCE TIMESTAMP PUSH1 0x40 MLOAD PUSH2 0x11EE SWAP4 SWAP3 SWAP2 SWAP1 PUSH2 0x181F JUMP JUMPDEST PUSH1 0x40 MLOAD DUP1 SWAP2 SUB SWAP1 LOG2 JUMP JUMPDEST PUSH1 0x0 DUP1 REVERT JUMPDEST PUSH1 0x0 DUP2 SWAP1 POP SWAP2 SWAP1 POP JUMP JUMPDEST PUSH2 0x1210 DUP2 PUSH2 0x11FD JUMP JUMPDEST DUP2 EQ PUSH2 0x121B JUMPI PUSH1 0x0 DUP1 REVERT JUMPDEST POP JUMP JUMPDEST PUSH1 0x0 DUP2 CALLDATALOAD SWAP1 POP PUSH2 0x122D DUP2 PUSH2 0x1207 JUMP JUMPDEST SWAP3 SWAP2 POP POP JUMP JUMPDEST PUSH1 0x0 PUSH1 0x20 DUP3 DUP5 SUB SLT ISZERO PUSH2 0x1249 JUMPI PUSH2 0x1248 PUSH2 0x11F8 JUMP JUMPDEST JUMPDEST PUSH1 0x0 PUSH2 0x1257 DUP5 DUP3 DUP6 ADD PUSH2 0x121E JUMP JUMPDEST SWAP2 POP POP SWAP3 SWAP2 POP POP JUMP JUMPDEST PUSH2 0x1269 DUP2 PUSH2 0x11FD JUMP JUMPDEST DUP3 MSTORE POP POP JUMP JUMPDEST PUSH1 0x0 PUSH1 0x20 DUP3 ADD SWAP1 POP PUSH2 0x1284 PUSH1 0x0 DUP4 ADD DUP5 PUSH2 0x1260 JUMP JUMPDEST SWAP3 SWAP2 POP POP JUMP JUMPDEST PUSH1 0x0 PUSH20 0xFFFFFFFFFFFFFFFFFFFFFFFFFFFFFFFFFFFFFFFF DUP3 AND SWAP1 POP SWAP2 SWAP1 POP JUMP JUMPDEST PUSH1 0x0 PUSH2 0x12B5 DUP3 PUSH2 0x128A JUMP JUMPDEST SWAP1 POP SWAP2 SWAP1 POP JUMP JUMPDEST PUSH2 0x12C5 DUP2 PUSH2 0x12AA JUMP JUMPDEST DUP2 EQ PUSH2 0x12D0 JUMPI PUSH1 0x0 DUP1 REVERT JUMPDEST POP JUMP JUMPDEST PUSH1 0x0 DUP2 CALLDATALOAD SWAP1 POP PUSH2 0x12E2 DUP2 PUSH2 0x12BC JUMP JUMPDEST SWAP3 SWAP2 POP POP JUMP JUMPDEST PUSH1 0x0 DUP1 PUSH1 0x40 DUP4 DUP6 SUB SLT ISZERO PUSH2 0x12FF JUMPI PUSH2 0x12FE PUSH2 0x11F8 JUMP JUMPDEST JUMPDEST PUSH1 0x0 PUSH2 0x130D DUP6 DUP3 DUP7 ADD PUSH2 0x12D3 JUMP JUMPDEST SWAP3 POP POP PUSH1 0x20 PUSH2 0x131E DUP6 DUP3 DUP7 ADD PUSH2 0x121E JUMP JUMPDEST SWAP2 POP POP SWAP3 POP SWAP3 SWAP1 POP JUMP JUMPDEST PUSH1 0x0 DUP2 ISZERO ISZERO SWAP1 POP SWAP2 SWAP1 POP JUMP JUMPDEST PUSH2 0x133D DUP2 PUSH2 0x1328 JUMP JUMPDEST DUP3 MSTORE POP POP JUMP JUMPDEST PUSH1 0x0 PUSH1 0x80 DUP3 ADD SWAP1 POP PUSH2 0x1358 PUSH1 0x0 DUP4 ADD DUP8 PUSH2 0x1260 JUMP JUMPDEST PUSH2 0x1365 PUSH1 0x20 DUP4 ADD DUP7 PUSH2 0x1260 JUMP JUMPDEST PUSH2 0x1372 PUSH1 0x40 DUP4 ADD DUP6 PUSH2 0x1260 JUMP JUMPDEST PUSH2 0x137F PUSH1 0x60 DUP4 ADD DUP5 PUSH2 0x1334 JUMP JUMPDEST SWAP6 SWAP5 POP POP POP POP POP JUMP JUMPDEST PUSH1 0x0 PUSH2 0x1393 DUP3 PUSH2 0x128A JUMP JUMPDEST SWAP1 POP SWAP2 SWAP1 POP JUMP JUMPDEST PUSH2 0x13A3 DUP2 PUSH2 0x1388 JUMP JUMPDEST DUP2 EQ PUSH2 0x13AE JUMPI PUSH1 0x0 DUP1 REVERT JUMPDEST POP JUMP JUMPDEST PUSH1 0x0 DUP2 CALLDATALOAD SWAP1 POP PUSH2 0x13C0 DUP2 PUSH2 0x139A JUMP JUMPDEST SWAP3 SWAP2 POP POP JUMP JUMPDEST PUSH1 0x0 DUP1 PUSH1 0x40 DUP4 DUP6 SUB SLT ISZERO PUSH2 0x13DD JUMPI PUSH2 0x13DC PUSH2 0x11F8 JUMP JUMPDEST JUMPDEST PUSH1 0x0 PUSH2 0x13EB DUP6 DUP3 DUP7 ADD PUSH2 0x13B1 JUMP JUMPDEST SWAP3 POP POP PUSH1 0x20 PUSH2 0x13FC DUP6 DUP3 DUP7 ADD PUSH2 0x121E JUMP JUMPDEST SWAP2 POP POP SWAP3 POP SWAP3 SWAP1 POP JUMP JUMPDEST PUSH2 0x140F DUP2 PUSH2 0x12AA JUMP JUMPDEST DUP3 MSTORE POP POP JUMP JUMPDEST PUSH1 0x0 PUSH1 0x20 DUP3 ADD SWAP1 POP PUSH2 0x142A PUSH1 0x0 DUP4 ADD DUP5 PUSH2 0x1406 JUMP JUMPDEST SWAP3 SWAP2 POP POP JUMP JUMPDEST PUSH1 0x0 DUP2 MLOAD SWAP1 POP SWAP2 SWAP1 POP JUMP JUMPDEST PUSH1 0x0 DUP3 DUP3 MSTORE PUSH1 0x20 DUP3 ADD SWAP1 POP SWAP3 SWAP2 POP POP JUMP JUMPDEST PUSH1 0x0 JUMPDEST DUP4 DUP2 LT ISZERO PUSH2 0x146A JUMPI DUP1 DUP3 ADD MLOAD DUP2 DUP5 ADD MSTORE PUSH1 0x20 DUP2 ADD SWAP1 POP PUSH2 0x144F JUMP JUMPDEST PUSH1 0x0 DUP5 DUP5 ADD MSTORE POP POP POP POP JUMP JUMPDEST PUSH1 0x0 PUSH1 0x1F NOT PUSH1 0x1F DUP4 ADD AND SWAP1 POP SWAP2 SWAP1 POP JUMP JUMPDEST PUSH1 0x0 PUSH2 0x1492 DUP3 PUSH2 0x1430 JUMP JUMPDEST PUSH2 0x149C DUP2 DUP6 PUSH2 0x143B JUMP JUMPDEST SWAP4 POP PUSH2 0x14AC DUP2 DUP6 PUSH1 0x20 DUP7 ADD PUSH2 0x144C JUMP JUMPDEST PUSH2 0x14B5 DUP2 PUSH2 0x1476 JUMP JUMPDEST DUP5 ADD SWAP2 POP POP SWAP3 SWAP2 POP POP JUMP JUMPDEST PUSH1 0x0 PUSH1 0x60 DUP3 ADD SWAP1 POP PUSH2 0x14D5 PUSH1 0x0 DUP4 ADD DUP7 PUSH2 0x1406 JUMP JUMPDEST PUSH2 0x14E2 PUSH1 0x20 DUP4 ADD DUP6 PUSH2 0x1260 JUMP JUMPDEST DUP2 DUP2 SUB PUSH1 0x40 DUP4 ADD MSTORE PUSH2 0x14F4 DUP2 DUP5 PUSH2 0x1487 JUMP JUMPDEST SWAP1 POP SWAP5 SWAP4 POP POP POP POP JUMP JUMPDEST PUSH1 0x0 PUSH1 0x20 DUP3 DUP5 SUB SLT ISZERO PUSH2 0x1514 JUMPI PUSH2 0x1513 PUSH2 0x11F8 JUMP JUMPDEST JUMPDEST PUSH1 0x0 PUSH2 0x1522 DUP5 DUP3 DUP6 ADD PUSH2 0x12D3 JUMP JUMPDEST SWAP2 POP POP SWAP3 SWAP2 POP POP JUMP JUMPDEST PUSH1 0x0 DUP2 MLOAD SWAP1 POP SWAP2 SWAP1 POP JUMP JUMPDEST PUSH1 0x0 DUP3 DUP3 MSTORE PUSH1 0x20 DUP3 ADD SWAP1 POP SWAP3 SWAP2 POP POP JUMP JUMPDEST PUSH1 0x0 DUP2 SWAP1 POP PUSH1 0x20 DUP3 ADD SWAP1 POP SWAP2 SWAP1 POP JUMP JUMPDEST PUSH2 0x1560 DUP2 PUSH2 0x11FD JUMP JUMPDEST DUP3 MSTORE POP POP JUMP JUMPDEST PUSH2 0x156F DUP2 PUSH2 0x1328 JUMP JUMPDEST DUP3 MSTORE POP POP JUMP JUMPDEST PUSH1 0x80 DUP3 ADD PUSH1 0x0 DUP3 ADD MLOAD PUSH2 0x158B PUSH1 0x0 DUP6 ADD DUP3 PUSH2 0x1557 JUMP JUMPDEST POP PUSH1 0x20 DUP3 ADD MLOAD PUSH2 0x159E PUSH1 0x20 DUP6 ADD DUP3 PUSH2 0x1557 JUMP JUMPDEST POP PUSH1 0x40 DUP3 ADD MLOAD PUSH2 0x15B1 PUSH1 0x40 DUP6 ADD DUP3 PUSH2 0x1557 JUMP JUMPDEST POP PUSH1 0x60 DUP3 ADD MLOAD PUSH2 0x15C4 PUSH1 0x60 DUP6 ADD DUP3 PUSH2 0x1566 JUMP JUMPDEST POP POP POP POP JUMP JUMPDEST PUSH1 0x0 PUSH2 0x15D6 DUP4 DUP4 PUSH2 0x1575 JUMP JUMPDEST PUSH1 0x80 DUP4 ADD SWAP1 POP SWAP3 SWAP2 POP POP JUMP JUMPDEST PUSH1 0x0 PUSH1 0x20 DUP3 ADD SWAP1 POP SWAP2 SWAP1 POP JUMP JUMPDEST PUSH1 0x0 PUSH2 0x15FA DUP3 PUSH2 0x152B JUMP JUMPDEST PUSH2 0x1604 DUP2 DUP6 PUSH2 0x1536 JUMP JUMPDEST SWAP4 POP PUSH2 0x160F DUP4 PUSH2 0x1547 JUMP JUMPDEST DUP1 PUSH1 0x0 JUMPDEST DUP4 DUP2 LT ISZERO PUSH2 0x1640 JUMPI DUP2 MLOAD PUSH2 0x1627 DUP9 DUP3 PUSH2 0x15CA JUMP JUMPDEST SWAP8 POP PUSH2 0x1632 DUP4 PUSH2 0x15E2 JUMP JUMPDEST SWAP3 POP POP PUSH1 0x1 DUP2 ADD SWAP1 POP PUSH2 0x1613 JUMP JUMPDEST POP DUP6 SWAP4 POP POP POP POP SWAP3 SWAP2 POP POP JUMP JUMPDEST PUSH1 0x0 PUSH1 0x20 DUP3 ADD SWAP1 POP DUP2 DUP2 SUB PUSH1 0x0 DUP4 ADD MSTORE PUSH2 0x1667 DUP2 DUP5 PUSH2 0x15EF JUMP JUMPDEST SWAP1 POP SWAP3 SWAP2 POP POP JUMP JUMPDEST PUSH1 0x0 PUSH1 0x20 DUP3 DUP5 SUB SLT ISZERO PUSH2 0x1685 JUMPI PUSH2 0x1684 PUSH2 0x11F8 JUMP JUMPDEST JUMPDEST PUSH1 0x0 PUSH2 0x1693 DUP5 DUP3 DUP6 ADD PUSH2 0x13B1 JUMP JUMPDEST SWAP2 POP POP SWAP3 SWAP2 POP POP JUMP JUMPDEST PUSH1 0x0 DUP2 MLOAD SWAP1 POP SWAP2 SWAP1 POP JUMP JUMPDEST PUSH1 0x0 DUP3 DUP3 MSTORE PUSH1 0x20 DUP3 ADD SWAP1 POP SWAP3 SWAP2 POP POP JUMP JUMPDEST PUSH1 0x0 PUSH2 0x16C3 DUP3 PUSH2 0x169C JUMP JUMPDEST PUSH2 0x16CD DUP2 DUP6 PUSH2 0x16A7 JUMP JUMPDEST SWAP4 POP PUSH2 0x16DD DUP2 DUP6 PUSH1 0x20 DUP7 ADD PUSH2 0x144C JUMP JUMPDEST PUSH2 0x16E6 DUP2 PUSH2 0x1476 JUMP JUMPDEST DUP5 ADD SWAP2 POP POP SWAP3 SWAP2 POP POP JUMP JUMPDEST PUSH1 0x0 PUSH1 0x20 DUP3 ADD SWAP1 POP DUP2 DUP2 SUB PUSH1 0x0 DUP4 ADD MSTORE PUSH2 0x170B DUP2 DUP5 PUSH2 0x16B8 JUMP JUMPDEST SWAP1 POP SWAP3 SWAP2 POP POP JUMP JUMPDEST PUSH32 0x4E487B7100000000000000000000000000000000000000000000000000000000 PUSH1 0x0 MSTORE PUSH1 0x11 PUSH1 0x4 MSTORE PUSH1 0x24 PUSH1 0x0 REVERT JUMPDEST PUSH1 0x0 PUSH2 0x174D DUP3 PUSH2 0x11FD JUMP JUMPDEST SWAP2 POP PUSH2 0x1758 DUP4 PUSH2 0x11FD JUMP JUMPDEST SWAP3 POP DUP3 DUP3 MUL PUSH2 0x1766 DUP2 PUSH2 0x11FD JUMP JUMPDEST SWAP2 POP DUP3 DUP3 DIV DUP5 EQ DUP4 ISZERO OR PUSH2 0x177D JUMPI PUSH2 0x177C PUSH2 0x1713 JUMP JUMPDEST JUMPDEST POP SWAP3 SWAP2 POP POP JUMP JUMPDEST PUSH32 0x596F7520617265206E6F7420746865206D616E61676572000000000000000000 PUSH1 0x0 DUP3 ADD MSTORE POP JUMP JUMPDEST PUSH1 0x0 PUSH2 0x17BA PUSH1 0x17 DUP4 PUSH2 0x16A7 JUMP JUMPDEST SWAP2 POP PUSH2 0x17C5 DUP3 PUSH2 0x1784 JUMP JUMPDEST PUSH1 0x20 DUP3 ADD SWAP1 POP SWAP2 SWAP1 POP JUMP JUMPDEST PUSH1 0x0 PUSH1 0x20 DUP3 ADD SWAP1 POP DUP2 DUP2 SUB PUSH1 0x0 DUP4 ADD MSTORE PUSH2 0x17E9 DUP2 PUSH2 0x17AD JUMP JUMPDEST SWAP1 POP SWAP2 SWAP1 POP JUMP JUMPDEST PUSH32 0x4E487B7100000000000000000000000000000000000000000000000000000000 PUSH1 0x0 MSTORE PUSH1 0x32 PUSH1 0x4 MSTORE PUSH1 0x24 PUSH1 0x0 REVERT JUMPDEST PUSH1 0x0 PUSH1 0x60 DUP3 ADD SWAP1 POP PUSH2 0x1834 PUSH1 0x0 DUP4 ADD DUP7 PUSH2 0x1260 JUMP JUMPDEST PUSH2 0x1841 PUSH1 0x20 DUP4 ADD DUP6 PUSH2 0x1260 JUMP JUMPDEST PUSH2 0x184E PUSH1 0x40 DUP4 ADD DUP5 PUSH2 0x1260 JUMP JUMPDEST SWAP5 SWAP4 POP POP POP POP JUMP JUMPDEST PUSH1 0x0 PUSH2 0x1861 DUP3 PUSH2 0x11FD JUMP JUMPDEST SWAP2 POP PUSH2 0x186C DUP4 PUSH2 0x11FD JUMP JUMPDEST SWAP3 POP DUP3 DUP3 SUB SWAP1 POP DUP2 DUP2 GT ISZERO PUSH2 0x1884 JUMPI PUSH2 0x1883 PUSH2 0x1713 JUMP JUMPDEST JUMPDEST SWAP3 SWAP2 POP POP JUMP JUMPDEST PUSH1 0x0 PUSH2 0x1895 DUP3 PUSH2 0x11FD JUMP JUMPDEST SWAP2 POP PUSH2 0x18A0 DUP4 PUSH2 0x11FD JUMP JUMPDEST SWAP3 POP DUP3 DUP3 ADD SWAP1 POP DUP1 DUP3 GT ISZERO PUSH2 0x18B8 JUMPI PUSH2 0x18B7 PUSH2 0x1713 JUMP JUMPDEST JUMPDEST SWAP3 SWAP2 POP POP JUMP JUMPDEST PUSH1 0x0 PUSH2 0x18C9 DUP3 PUSH2 0x11FD JUMP JUMPDEST SWAP2 POP PUSH32 0xFFFFFFFFFFFFFFFFFFFFFFFFFFFFFFFFFFFFFFFFFFFFFFFFFFFFFFFFFFFFFFFF DUP3 SUB PUSH2 0x18FB JUMPI PUSH2 0x18FA PUSH2 0x1713 JUMP JUMPDEST JUMPDEST PUSH1 0x1 DUP3 ADD SWAP1 POP SWAP2 SWAP1 POP JUMP JUMPDEST PUSH32 0x4E487B7100000000000000000000000000000000000000000000000000000000 PUSH1 0x0 MSTORE PUSH1 0x31 PUSH1 0x4 MSTORE PUSH1 0x24 PUSH1 0x0 REVERT JUMPDEST PUSH1 0x0 DUP2 SWAP1 POP SWAP2 SWAP1 POP JUMP JUMPDEST PUSH1 0x0 DUP2 SWAP1 POP SWAP2 SWAP1 POP JUMP JUMPDEST PUSH1 0x0 PUSH2 0x1964 PUSH2 0x195F PUSH2 0x195A DUP5 PUSH2 0x1935 JUMP JUMPDEST PUSH2 0x193F JUMP JUMPDEST PUSH2 0x11FD JUMP JUMPDEST SWAP1 POP SWAP2 SWAP1 POP JUMP JUMPDEST PUSH2 0x1974 DUP2 PUSH2 0x1949 JUMP JUMPDEST DUP3 MSTORE POP POP JUMP JUMPDEST PUSH1 0x0 PUSH1 0x60 DUP3 ADD SWAP1 POP PUSH2 0x198F PUSH1 0x0 DUP4 ADD DUP7 PUSH2 0x1260 JUMP JUMPDEST PUSH2 0x199C PUSH1 0x20 DUP4 ADD DUP6 PUSH2 0x1260 JUMP JUMPDEST PUSH2 0x19A9 PUSH1 0x40 DUP4 ADD DUP5 PUSH2 0x196B JUMP JUMPDEST SWAP5 SWAP4 POP POP POP POP JUMP JUMPDEST PUSH32 0x4E487B7100000000000000000000000000000000000000000000000000000000 PUSH1 0x0 MSTORE PUSH1 0x22 PUSH1 0x4 MSTORE PUSH1 0x24 PUSH1 0x0 REVERT JUMPDEST PUSH1 0x0 PUSH1 0x2 DUP3 DIV SWAP1 POP PUSH1 0x1 DUP3 AND DUP1 PUSH2 0x19F8 JUMPI PUSH1 0x7F DUP3 AND SWAP2 POP JUMPDEST PUSH1 0x20 DUP3 LT DUP2 SUB PUSH2 0x1A0B JUMPI PUSH2 0x1A0A PUSH2 0x19B1 JUMP JUMPDEST JUMPDEST POP SWAP2 SWAP1 POP JUMP INVALID LOG2 PUSH5 0x6970667358 0x22 SLT KECCAK256 SWAP8 0x5D 0xE0 ORIGIN 0xC COINBASE PUSH22 0xAD12BB27F50FA10B345F70DDA066375017C339E764B1 DUP8 DUP3 DUP6 PUSH5 0x736F6C6343 STOP ADDMOD SLT STOP CALLER LOG2 PUSH5 0x6970667358 0x22 SLT KECCAK256 DUP3 PUSH25 0x143B9E15E67BE2836267DFB50FCE6D6305959780144B94A6C4 0xE1 0xD0 0xA6 0xE1 PUSH29 0x64736F6C63430008120033000000000000000000000000000000000000 "},"gasEstimates":{"creation":{"codeDepositCost":"2388000","executionCost":"2568","totalCost":"2390568"},"external":{"createService(string,uint256)":"infinite","deployedOrgNames(uint256)":"infinite","deployedServices(uint256)":"5022","getDeployedServices()":"infinite","manager()":"2536","orgNames(address)":"infinite"}},"methodIdentifiers":{"createService(string,uint256)":"1cf82bd2","deployedOrgNames(uint256)":"0b873358","deployedServices(uint256)":"8e8389bf","getDeployedServices()":"9bfba8a9","manager()":"481c6a75","orgNames(address)":"52be03cf"}},"storageLayout":{"storage":[{"astId":4,"contract":"ServiceChain.sol:Factory","label":"deployedServices","offset":0,"slot":"0","type":"t_array(t_address)dyn_storage"},{"astId":7,"contract":"ServiceChain.sol:Factory","label":"deployedOrgNames","offset":0,"slot":"1","type":"t_array(t_string_storage)dyn_storage"},{"astId":9,"contract":"ServiceChain.sol:Factory","label":"manager","offset":0,"slot":"2","type":"t_address"},{"astId":13,"contract":"ServiceChain.sol:Factory","label":"orgNames","offset":0,"slot":"3","type":"t_mapping(t_address,t_string_storage)"}],"types":{"t_address":{"encoding":"inplace","label":"address","numberOfBytes":"20"},"t_array(t_address)dyn_storage":{"base":"t_address","encoding":"dynamic_array","label":"address[]","numberOfBytes":"32"},"t_array(t_string_storage)dyn_storage":{"base":"t_string_storage","encoding":"dynamic_array","label":"string[]","numberOfBytes":"32"},"t_mapping(t_address,t_string_storage)":{"encoding":"mapping","key":"t_address","label":"mapping(address => string)","numberOfBytes":"32","value":"t_string_storage"},"t_string_storage":{"encoding":"bytes","label":"string","numberOfBytes":"32"}}},"userdoc":{"kind":"user","methods":{},"version":1}}