{"abi":[{"inputs":[{"internalType":"address","name":"creator","type":"address"},{"internalType":"string","name":"org","type":"string"}],"stateMutability":"nonpayable","type":"constructor"},{"anonymous":false,"inputs":[{"indexed":true,"internalType":"address","name":"sender","type":"address"},{"indexed":false,"internalType":"uint256","name":"amount","type":"uint256"},{"indexed":false,"internalType":"uint256","name":"balance","type":"uint256"}],"name":"Deposit","type":"event"},{"anonymous":false,"inputs":[{"indexed":true,"internalType":"address","name":"owner","type":"address"},{"indexed":true,"internalType":"uint256","name":"txIndex","type":"uint256"},{"indexed":true,"internalType":"address","name":"to","type":"address"},{"indexed":false,"internalType":"uint256","name":"value","type":"uint256"},{"indexed":false,"internalType":"bytes","name":"data","type":"bytes"}],"name":"SubmitTip","type":"event"},{"inputs":[],"name":"creator","outputs":[{"internalType":"address","name":"","type":"address"}],"stateMutability":"view","type":"function"},{"inputs":[{"internalType":"uint256","name":"value","type":"uint256"}],"name":"enterHours","outputs":[],"stateMutability":"nonpayable","type":"function"},{"inputs":[{"internalType":"address","name":"waiter","type":"address"}],"name":"getHourLog","outputs":[{"internalType":"uint256[]","name":"","type":"uint256[]"}],"stateMutability":"view","type":"function"},{"inputs":[{"internalType":"address","name":"waiter","type":"address"}],"name":"getRating","outputs":[{"internalType":"uint256","name":"avgRating","type":"uint256"}],"stateMutability":"view","type":"function"},{"inputs":[{"internalType":"address","name":"waiter","type":"address"}],"name":"getTotalHours","outputs":[{"internalType":"uint256","name":"vals","type":"uint256"}],"stateMutability":"view","type":"function"},{"inputs":[{"internalType":"uint256","name":"_txIndex","type":"uint256"}],"name":"getTransaction","outputs":[{"internalType":"address","name":"to","type":"address"},{"internalType":"uint256","name":"value","type":"uint256"},{"internalType":"bytes","name":"data","type":"bytes"}],"stateMutability":"view","type":"function"},{"inputs":[],"name":"getTransactionCount","outputs":[{"internalType":"uint256","name":"","type":"uint256"}],"stateMutability":"view","type":"function"},{"inputs":[{"internalType":"address","name":"","type":"address"},{"internalType":"uint256","name":"","type":"uint256"}],"name":"hourLog","outputs":[{"internalType":"uint256","name":"","type":"uint256"}],"stateMutability":"view","type":"function"},{"inputs":[],"name":"org","outputs":[{"internalType":"string","name":"","type":"string"}],"stateMutability":"view","type":"function"},{"inputs":[{"internalType":"address","name":"","type":"address"},{"internalType":"uint256","name":"","type":"uint256"}],"name":"ratings","outputs":[{"internalType":"address","name":"from","type":"address"},{"internalType":"uint256","name":"rating","type":"uint256"}],"stateMutability":"view","type":"function"},{"inputs":[{"internalType":"address","name":"customer","type":"address"},{"internalType":"address","name":"waiter","type":"address"},{"internalType":"uint256","name":"rating","type":"uint256"}],"name":"sendRatings","outputs":[],"stateMutability":"nonpayable","type":"function"},{"inputs":[{"internalType":"address","name":"_to","type":"address"},{"internalType":"uint256","name":"_value","type":"uint256"},{"internalType":"bytes","name":"_data","type":"bytes"}],"name":"submitTip","outputs":[],"stateMutability":"nonpayable","type":"function"},{"inputs":[{"internalType":"uint256","name":"","type":"uint256"}],"name":"transactions","outputs":[{"internalType":"address","name":"to","type":"address"},{"internalType":"uint256","name":"value","type":"uint256"},{"internalType":"bytes","name":"data","type":"bytes"}],"stateMutability":"view","type":"function"},{"stateMutability":"payable","type":"receive"}],"devdoc":{"kind":"dev","methods":{},"version":1},"evm":{"assembly":"    /* \"ServiceChain.sol\":391:3093  contract Service{... */\n  mstore(0x40, 0x80)\n    /* \"ServiceChain.sol\":1035:1146  constructor(address creator, string memory org) public {... */\n  callvalue\n  dup1\n  iszero\n  tag_1\n  jumpi\n  0x00\n  dup1\n  revert\ntag_1:\n  pop\n  mload(0x40)\n  sub(codesize, bytecodeSize)\n  dup1\n  bytecodeSize\n  dup4\n  codecopy\n  dup2\n  dup2\n  add\n  0x40\n  mstore\n  dup2\n  add\n  swap1\n  tag_2\n  swap2\n  swap1\n  tag_3\n  jump\t// in\ntag_2:\n  pop\n  pop\n    /* \"ServiceChain.sol\":391:3093  contract Service{... */\n  jump(tag_6)\n    /* \"#utility.yul\":7:82   */\ntag_7:\n    /* \"#utility.yul\":40:46   */\n  0x00\n    /* \"#utility.yul\":73:75   */\n  0x40\n    /* \"#utility.yul\":67:76   */\n  mload\n    /* \"#utility.yul\":57:76   */\n  swap1\n  pop\n    /* \"#utility.yul\":7:82   */\n  swap1\n  jump\t// out\n    /* \"#utility.yul\":88:205   */\ntag_8:\n    /* \"#utility.yul\":197:198   */\n  0x00\n    /* \"#utility.yul\":194:195   */\n  dup1\n    /* \"#utility.yul\":187:199   */\n  revert\n    /* \"#utility.yul\":211:328   */\ntag_9:\n    /* \"#utility.yul\":320:321   */\n  0x00\n    /* \"#utility.yul\":317:318   */\n  dup1\n    /* \"#utility.yul\":310:322   */\n  revert\n    /* \"#utility.yul\":334:460   */\ntag_10:\n    /* \"#utility.yul\":371:378   */\n  0x00\n    /* \"#utility.yul\":411:453   */\n  0xffffffffffffffffffffffffffffffffffffffff\n    /* \"#utility.yul\":404:409   */\n  dup3\n    /* \"#utility.yul\":400:454   */\n  and\n    /* \"#utility.yul\":389:454   */\n  swap1\n  pop\n    /* \"#utility.yul\":334:460   */\n  swap2\n  swap1\n  pop\n  jump\t// out\n    /* \"#utility.yul\":466:562   */\ntag_11:\n    /* \"#utility.yul\":503:510   */\n  0x00\n    /* \"#utility.yul\":532:556   */\n  tag_30\n    /* \"#utility.yul\":550:555   */\n  dup3\n    /* \"#utility.yul\":532:556   */\n  tag_10\n  jump\t// in\ntag_30:\n    /* \"#utility.yul\":521:556   */\n  swap1\n  pop\n    /* \"#utility.yul\":466:562   */\n  swap2\n  swap1\n  pop\n  jump\t// out\n    /* \"#utility.yul\":568:690   */\ntag_12:\n    /* \"#utility.yul\":641:665   */\n  tag_32\n    /* \"#utility.yul\":659:664   */\n  dup2\n    /* \"#utility.yul\":641:665   */\n  tag_11\n  jump\t// in\ntag_32:\n    /* \"#utility.yul\":634:639   */\n  dup2\n    /* \"#utility.yul\":631:666   */\n  eq\n    /* \"#utility.yul\":621:684   */\n  tag_33\n  jumpi\n    /* \"#utility.yul\":680:681   */\n  0x00\n    /* \"#utility.yul\":677:678   */\n  dup1\n    /* \"#utility.yul\":670:682   */\n  revert\n    /* \"#utility.yul\":621:684   */\ntag_33:\n    /* \"#utility.yul\":568:690   */\n  pop\n  jump\t// out\n    /* \"#utility.yul\":696:839   */\ntag_13:\n    /* \"#utility.yul\":753:758   */\n  0x00\n    /* \"#utility.yul\":784:790   */\n  dup2\n    /* \"#utility.yul\":778:791   */\n  mload\n    /* \"#utility.yul\":769:791   */\n  swap1\n  pop\n    /* \"#utility.yul\":800:833   */\n  tag_35\n    /* \"#utility.yul\":827:832   */\n  dup2\n    /* \"#utility.yul\":800:833   */\n  tag_12\n  jump\t// in\ntag_35:\n    /* \"#utility.yul\":696:839   */\n  swap3\n  swap2\n  pop\n  pop\n  jump\t// out\n    /* \"#utility.yul\":845:962   */\ntag_14:\n    /* \"#utility.yul\":954:955   */\n  0x00\n    /* \"#utility.yul\":951:952   */\n  dup1\n    /* \"#utility.yul\":944:956   */\n  revert\n    /* \"#utility.yul\":968:1085   */\ntag_15:\n    /* \"#utility.yul\":1077:1078   */\n  0x00\n    /* \"#utility.yul\":1074:1075   */\n  dup1\n    /* \"#utility.yul\":1067:1079   */\n  revert\n    /* \"#utility.yul\":1091:1193   */\ntag_16:\n    /* \"#utility.yul\":1132:1138   */\n  0x00\n    /* \"#utility.yul\":1183:1185   */\n  0x1f\n    /* \"#utility.yul\":1179:1186   */\n  not\n    /* \"#utility.yul\":1174:1176   */\n  0x1f\n    /* \"#utility.yul\":1167:1172   */\n  dup4\n    /* \"#utility.yul\":1163:1177   */\n  add\n    /* \"#utility.yul\":1159:1187   */\n  and\n    /* \"#utility.yul\":1149:1187   */\n  swap1\n  pop\n    /* \"#utility.yul\":1091:1193   */\n  swap2\n  swap1\n  pop\n  jump\t// out\n    /* \"#utility.yul\":1199:1379   */\ntag_17:\n    /* \"#utility.yul\":1247:1324   */\n  0x4e487b7100000000000000000000000000000000000000000000000000000000\n    /* \"#utility.yul\":1244:1245   */\n  0x00\n    /* \"#utility.yul\":1237:1325   */\n  mstore\n    /* \"#utility.yul\":1344:1348   */\n  0x41\n    /* \"#utility.yul\":1341:1342   */\n  0x04\n    /* \"#utility.yul\":1334:1349   */\n  mstore\n    /* \"#utility.yul\":1368:1372   */\n  0x24\n    /* \"#utility.yul\":1365:1366   */\n  0x00\n    /* \"#utility.yul\":1358:1373   */\n  revert\n    /* \"#utility.yul\":1385:1666   */\ntag_18:\n    /* \"#utility.yul\":1468:1495   */\n  tag_41\n    /* \"#utility.yul\":1490:1494   */\n  dup3\n    /* \"#utility.yul\":1468:1495   */\n  tag_16\n  jump\t// in\ntag_41:\n    /* \"#utility.yul\":1460:1466   */\n  dup2\n    /* \"#utility.yul\":1456:1496   */\n  add\n    /* \"#utility.yul\":1598:1604   */\n  dup2\n    /* \"#utility.yul\":1586:1596   */\n  dup2\n    /* \"#utility.yul\":1583:1605   */\n  lt\n    /* \"#utility.yul\":1562:1580   */\n  0xffffffffffffffff\n    /* \"#utility.yul\":1550:1560   */\n  dup3\n    /* \"#utility.yul\":1547:1581   */\n  gt\n    /* \"#utility.yul\":1544:1606   */\n  or\n    /* \"#utility.yul\":1541:1629   */\n  iszero\n  tag_42\n  jumpi\n    /* \"#utility.yul\":1609:1627   */\n  tag_43\n  tag_17\n  jump\t// in\ntag_43:\n    /* \"#utility.yul\":1541:1629   */\ntag_42:\n    /* \"#utility.yul\":1649:1659   */\n  dup1\n    /* \"#utility.yul\":1645:1647   */\n  0x40\n    /* \"#utility.yul\":1638:1660   */\n  mstore\n    /* \"#utility.yul\":1428:1666   */\n  pop\n    /* \"#utility.yul\":1385:1666   */\n  pop\n  pop\n  jump\t// out\n    /* \"#utility.yul\":1672:1801   */\ntag_19:\n    /* \"#utility.yul\":1706:1712   */\n  0x00\n    /* \"#utility.yul\":1733:1753   */\n  tag_45\n  tag_7\n  jump\t// in\ntag_45:\n    /* \"#utility.yul\":1723:1753   */\n  swap1\n  pop\n    /* \"#utility.yul\":1762:1795   */\n  tag_46\n    /* \"#utility.yul\":1790:1794   */\n  dup3\n    /* \"#utility.yul\":1782:1788   */\n  dup3\n    /* \"#utility.yul\":1762:1795   */\n  tag_18\n  jump\t// in\ntag_46:\n    /* \"#utility.yul\":1672:1801   */\n  swap2\n  swap1\n  pop\n  jump\t// out\n    /* \"#utility.yul\":1807:2115   */\ntag_20:\n    /* \"#utility.yul\":1869:1873   */\n  0x00\n    /* \"#utility.yul\":1959:1977   */\n  0xffffffffffffffff\n    /* \"#utility.yul\":1951:1957   */\n  dup3\n    /* \"#utility.yul\":1948:1978   */\n  gt\n    /* \"#utility.yul\":1945:2001   */\n  iszero\n  tag_48\n  jumpi\n    /* \"#utility.yul\":1981:1999   */\n  tag_49\n  tag_17\n  jump\t// in\ntag_49:\n    /* \"#utility.yul\":1945:2001   */\ntag_48:\n    /* \"#utility.yul\":2019:2048   */\n  tag_50\n    /* \"#utility.yul\":2041:2047   */\n  dup3\n    /* \"#utility.yul\":2019:2048   */\n  tag_16\n  jump\t// in\ntag_50:\n    /* \"#utility.yul\":2011:2048   */\n  swap1\n  pop\n    /* \"#utility.yul\":2103:2107   */\n  0x20\n    /* \"#utility.yul\":2097:2101   */\n  dup2\n    /* \"#utility.yul\":2093:2108   */\n  add\n    /* \"#utility.yul\":2085:2108   */\n  swap1\n  pop\n    /* \"#utility.yul\":1807:2115   */\n  swap2\n  swap1\n  pop\n  jump\t// out\n    /* \"#utility.yul\":2121:2367   */\ntag_21:\n    /* \"#utility.yul\":2202:2203   */\n  0x00\n    /* \"#utility.yul\":2212:2325   */\ntag_52:\n    /* \"#utility.yul\":2226:2232   */\n  dup4\n    /* \"#utility.yul\":2223:2224   */\n  dup2\n    /* \"#utility.yul\":2220:2233   */\n  lt\n    /* \"#utility.yul\":2212:2325   */\n  iszero\n  tag_54\n  jumpi\n    /* \"#utility.yul\":2311:2312   */\n  dup1\n    /* \"#utility.yul\":2306:2309   */\n  dup3\n    /* \"#utility.yul\":2302:2313   */\n  add\n    /* \"#utility.yul\":2296:2314   */\n  mload\n    /* \"#utility.yul\":2292:2293   */\n  dup2\n    /* \"#utility.yul\":2287:2290   */\n  dup5\n    /* \"#utility.yul\":2283:2294   */\n  add\n    /* \"#utility.yul\":2276:2315   */\n  mstore\n    /* \"#utility.yul\":2248:2250   */\n  0x20\n    /* \"#utility.yul\":2245:2246   */\n  dup2\n    /* \"#utility.yul\":2241:2251   */\n  add\n    /* \"#utility.yul\":2236:2251   */\n  swap1\n  pop\n    /* \"#utility.yul\":2212:2325   */\n  jump(tag_52)\ntag_54:\n    /* \"#utility.yul\":2359:2360   */\n  0x00\n    /* \"#utility.yul\":2350:2356   */\n  dup5\n    /* \"#utility.yul\":2345:2348   */\n  dup5\n    /* \"#utility.yul\":2341:2357   */\n  add\n    /* \"#utility.yul\":2334:2361   */\n  mstore\n    /* \"#utility.yul\":2183:2367   */\n  pop\n    /* \"#utility.yul\":2121:2367   */\n  pop\n  pop\n  pop\n  jump\t// out\n    /* \"#utility.yul\":2373:2807   */\ntag_22:\n    /* \"#utility.yul\":2462:2467   */\n  0x00\n    /* \"#utility.yul\":2487:2553   */\n  tag_56\n    /* \"#utility.yul\":2503:2552   */\n  tag_57\n    /* \"#utility.yul\":2545:2551   */\n  dup5\n    /* \"#utility.yul\":2503:2552   */\n  tag_20\n  jump\t// in\ntag_57:\n    /* \"#utility.yul\":2487:2553   */\n  tag_19\n  jump\t// in\ntag_56:\n    /* \"#utility.yul\":2478:2553   */\n  swap1\n  pop\n    /* \"#utility.yul\":2576:2582   */\n  dup3\n    /* \"#utility.yul\":2569:2574   */\n  dup2\n    /* \"#utility.yul\":2562:2583   */\n  mstore\n    /* \"#utility.yul\":2614:2618   */\n  0x20\n    /* \"#utility.yul\":2607:2612   */\n  dup2\n    /* \"#utility.yul\":2603:2619   */\n  add\n    /* \"#utility.yul\":2652:2655   */\n  dup5\n    /* \"#utility.yul\":2643:2649   */\n  dup5\n    /* \"#utility.yul\":2638:2641   */\n  dup5\n    /* \"#utility.yul\":2634:2650   */\n  add\n    /* \"#utility.yul\":2631:2656   */\n  gt\n    /* \"#utility.yul\":2628:2740   */\n  iszero\n  tag_58\n  jumpi\n    /* \"#utility.yul\":2659:2738   */\n  tag_59\n  tag_15\n  jump\t// in\ntag_59:\n    /* \"#utility.yul\":2628:2740   */\ntag_58:\n    /* \"#utility.yul\":2749:2801   */\n  tag_60\n    /* \"#utility.yul\":2794:2800   */\n  dup5\n    /* \"#utility.yul\":2789:2792   */\n  dup3\n    /* \"#utility.yul\":2784:2787   */\n  dup6\n    /* \"#utility.yul\":2749:2801   */\n  tag_21\n  jump\t// in\ntag_60:\n    /* \"#utility.yul\":2468:2807   */\n  pop\n    /* \"#utility.yul\":2373:2807   */\n  swap4\n  swap3\n  pop\n  pop\n  pop\n  jump\t// out\n    /* \"#utility.yul\":2827:3182   */\ntag_23:\n    /* \"#utility.yul\":2894:2899   */\n  0x00\n    /* \"#utility.yul\":2943:2946   */\n  dup3\n    /* \"#utility.yul\":2936:2940   */\n  0x1f\n    /* \"#utility.yul\":2928:2934   */\n  dup4\n    /* \"#utility.yul\":2924:2941   */\n  add\n    /* \"#utility.yul\":2920:2947   */\n  slt\n    /* \"#utility.yul\":2910:3032   */\n  tag_62\n  jumpi\n    /* \"#utility.yul\":2951:3030   */\n  tag_63\n  tag_14\n  jump\t// in\ntag_63:\n    /* \"#utility.yul\":2910:3032   */\ntag_62:\n    /* \"#utility.yul\":3061:3067   */\n  dup2\n    /* \"#utility.yul\":3055:3068   */\n  mload\n    /* \"#utility.yul\":3086:3176   */\n  tag_64\n    /* \"#utility.yul\":3172:3175   */\n  dup5\n    /* \"#utility.yul\":3164:3170   */\n  dup3\n    /* \"#utility.yul\":3157:3161   */\n  0x20\n    /* \"#utility.yul\":3149:3155   */\n  dup7\n    /* \"#utility.yul\":3145:3162   */\n  add\n    /* \"#utility.yul\":3086:3176   */\n  tag_22\n  jump\t// in\ntag_64:\n    /* \"#utility.yul\":3077:3176   */\n  swap2\n  pop\n    /* \"#utility.yul\":2900:3182   */\n  pop\n    /* \"#utility.yul\":2827:3182   */\n  swap3\n  swap2\n  pop\n  pop\n  jump\t// out\n    /* \"#utility.yul\":3188:3868   */\ntag_3:\n    /* \"#utility.yul\":3277:3283   */\n  0x00\n    /* \"#utility.yul\":3285:3291   */\n  dup1\n    /* \"#utility.yul\":3334:3336   */\n  0x40\n    /* \"#utility.yul\":3322:3331   */\n  dup4\n    /* \"#utility.yul\":3313:3320   */\n  dup6\n    /* \"#utility.yul\":3309:3332   */\n  sub\n    /* \"#utility.yul\":3305:3337   */\n  slt\n    /* \"#utility.yul\":3302:3421   */\n  iszero\n  tag_66\n  jumpi\n    /* \"#utility.yul\":3340:3419   */\n  tag_67\n  tag_8\n  jump\t// in\ntag_67:\n    /* \"#utility.yul\":3302:3421   */\ntag_66:\n    /* \"#utility.yul\":3460:3461   */\n  0x00\n    /* \"#utility.yul\":3485:3549   */\n  tag_68\n    /* \"#utility.yul\":3541:3548   */\n  dup6\n    /* \"#utility.yul\":3532:3538   */\n  dup3\n    /* \"#utility.yul\":3521:3530   */\n  dup7\n    /* \"#utility.yul\":3517:3539   */\n  add\n    /* \"#utility.yul\":3485:3549   */\n  tag_13\n  jump\t// in\ntag_68:\n    /* \"#utility.yul\":3475:3549   */\n  swap3\n  pop\n    /* \"#utility.yul\":3431:3559   */\n  pop\n    /* \"#utility.yul\":3619:3621   */\n  0x20\n    /* \"#utility.yul\":3608:3617   */\n  dup4\n    /* \"#utility.yul\":3604:3622   */\n  add\n    /* \"#utility.yul\":3598:3623   */\n  mload\n    /* \"#utility.yul\":3650:3668   */\n  0xffffffffffffffff\n    /* \"#utility.yul\":3642:3648   */\n  dup2\n    /* \"#utility.yul\":3639:3669   */\n  gt\n    /* \"#utility.yul\":3636:3753   */\n  iszero\n  tag_69\n  jumpi\n    /* \"#utility.yul\":3672:3751   */\n  tag_70\n  tag_9\n  jump\t// in\ntag_70:\n    /* \"#utility.yul\":3636:3753   */\ntag_69:\n    /* \"#utility.yul\":3777:3851   */\n  tag_71\n    /* \"#utility.yul\":3843:3850   */\n  dup6\n    /* \"#utility.yul\":3834:3840   */\n  dup3\n    /* \"#utility.yul\":3823:3832   */\n  dup7\n    /* \"#utility.yul\":3819:3841   */\n  add\n    /* \"#utility.yul\":3777:3851   */\n  tag_23\n  jump\t// in\ntag_71:\n    /* \"#utility.yul\":3767:3851   */\n  swap2\n  pop\n    /* \"#utility.yul\":3569:3861   */\n  pop\n    /* \"#utility.yul\":3188:3868   */\n  swap3\n  pop\n  swap3\n  swap1\n  pop\n  jump\t// out\n    /* \"ServiceChain.sol\":391:3093  contract Service{... */\ntag_6:\n  dataSize(sub_0)\n  dup1\n  dataOffset(sub_0)\n  0x00\n  codecopy\n  0x00\n  return\nstop\n\nsub_0: assembly {\n        /* \"ServiceChain.sol\":391:3093  contract Service{... */\n      mstore(0x40, 0x80)\n      jumpi(tag_1, lt(calldatasize, 0x04))\n      shr(0xe0, calldataload(0x00))\n      dup1\n      0x95cd63a0\n      gt\n      tag_16\n      jumpi\n      dup1\n      0x9d5f65fc\n      gt\n      tag_17\n      jumpi\n      dup1\n      0x9d5f65fc\n      eq\n      tag_12\n      jumpi\n      dup1\n      0xa329f8f6\n      eq\n      tag_13\n      jumpi\n      dup1\n      0xc12be929\n      eq\n      tag_14\n      jumpi\n      dup1\n      0xcc1e2cb0\n      eq\n      tag_15\n      jumpi\n      jump(tag_2)\n    tag_17:\n      dup1\n      0x95cd63a0\n      eq\n      tag_9\n      jumpi\n      dup1\n      0x96b98a65\n      eq\n      tag_10\n      jumpi\n      dup1\n      0x9ace38c2\n      eq\n      tag_11\n      jumpi\n      jump(tag_2)\n    tag_16:\n      dup1\n      0x02d05d3f\n      eq\n      tag_3\n      jumpi\n      dup1\n      0x2a0e54bd\n      eq\n      tag_4\n      jumpi\n      dup1\n      0x2e7700f0\n      eq\n      tag_5\n      jumpi\n      dup1\n      0x33ea3dc8\n      eq\n      tag_6\n      jumpi\n      dup1\n      0x66d34a9b\n      eq\n      tag_7\n      jumpi\n      dup1\n      0x80fc9c0e\n      eq\n      tag_8\n      jumpi\n      jump(tag_2)\n    tag_1:\n      jumpi(tag_2, calldatasize)\n        /* \"ServiceChain.sol\":2288:2298  msg.sender */\n      caller\n        /* \"ServiceChain.sol\":2280:2333  Deposit(msg.sender, msg.value, address(this).balance) */\n      0xffffffffffffffffffffffffffffffffffffffff\n      and\n      0x90890809c654f11d6e72a28fa60149770a0d11ec6c92319d6ceb2bb0a4ea1a15\n        /* \"ServiceChain.sol\":2300:2309  msg.value */\n      callvalue\n        /* \"ServiceChain.sol\":2311:2332  address(this).balance */\n      selfbalance\n        /* \"ServiceChain.sol\":2280:2333  Deposit(msg.sender, msg.value, address(this).balance) */\n      mload(0x40)\n      tag_20\n      swap3\n      swap2\n      swap1\n      tag_21\n      jump\t// in\n    tag_20:\n      mload(0x40)\n      dup1\n      swap2\n      sub\n      swap1\n      log2\n        /* \"ServiceChain.sol\":391:3093  contract Service{... */\n      stop\n    tag_2:\n      0x00\n      dup1\n      revert\n        /* \"ServiceChain.sol\":1002:1024  address public creator */\n    tag_3:\n      callvalue\n      dup1\n      iszero\n      tag_22\n      jumpi\n      0x00\n      dup1\n      revert\n    tag_22:\n      pop\n      tag_23\n      tag_24\n      jump\t// in\n    tag_23:\n      mload(0x40)\n      tag_25\n      swap2\n      swap1\n      tag_26\n      jump\t// in\n    tag_25:\n      mload(0x40)\n      dup1\n      swap2\n      sub\n      swap1\n      return\n        /* \"ServiceChain.sol\":922:971  mapping(address=>customerRating[]) public ratings */\n    tag_4:\n      callvalue\n      dup1\n      iszero\n      tag_27\n      jumpi\n      0x00\n      dup1\n      revert\n    tag_27:\n      pop\n      tag_28\n      0x04\n      dup1\n      calldatasize\n      sub\n      dup2\n      add\n      swap1\n      tag_29\n      swap2\n      swap1\n      tag_30\n      jump\t// in\n    tag_29:\n      tag_31\n      jump\t// in\n    tag_28:\n      mload(0x40)\n      tag_32\n      swap3\n      swap2\n      swap1\n      tag_33\n      jump\t// in\n    tag_32:\n      mload(0x40)\n      dup1\n      swap2\n      sub\n      swap1\n      return\n        /* \"ServiceChain.sol\":2694:2797  function getTransactionCount() public view returns (uint) {... */\n    tag_5:\n      callvalue\n      dup1\n      iszero\n      tag_34\n      jumpi\n      0x00\n      dup1\n      revert\n    tag_34:\n      pop\n      tag_35\n      tag_36\n      jump\t// in\n    tag_35:\n      mload(0x40)\n      tag_37\n      swap2\n      swap1\n      tag_38\n      jump\t// in\n    tag_37:\n      mload(0x40)\n      dup1\n      swap2\n      sub\n      swap1\n      return\n        /* \"ServiceChain.sol\":2805:3086  function getTransaction(uint _txIndex)... */\n    tag_6:\n      callvalue\n      dup1\n      iszero\n      tag_39\n      jumpi\n      0x00\n      dup1\n      revert\n    tag_39:\n      pop\n      tag_40\n      0x04\n      dup1\n      calldatasize\n      sub\n      dup2\n      add\n      swap1\n      tag_41\n      swap2\n      swap1\n      tag_42\n      jump\t// in\n    tag_41:\n      tag_43\n      jump\t// in\n    tag_40:\n      mload(0x40)\n      tag_44\n      swap4\n      swap3\n      swap2\n      swap1\n      tag_45\n      jump\t// in\n    tag_44:\n      mload(0x40)\n      dup1\n      swap2\n      sub\n      swap1\n      return\n        /* \"ServiceChain.sol\":2349:2684  function submitTip(address _to, uint _value, bytes memory _data)... */\n    tag_7:\n      callvalue\n      dup1\n      iszero\n      tag_46\n      jumpi\n      0x00\n      dup1\n      revert\n    tag_46:\n      pop\n      tag_47\n      0x04\n      dup1\n      calldatasize\n      sub\n      dup2\n      add\n      swap1\n      tag_48\n      swap2\n      swap1\n      tag_49\n      jump\t// in\n    tag_48:\n      tag_50\n      jump\t// in\n    tag_47:\n      stop\n        /* \"ServiceChain.sol\":1770:2089  function getRating(address waiter) public view returns (uint avgRating) {... */\n    tag_8:\n      callvalue\n      dup1\n      iszero\n      tag_51\n      jumpi\n      0x00\n      dup1\n      revert\n    tag_51:\n      pop\n      tag_52\n      0x04\n      dup1\n      calldatasize\n      sub\n      dup2\n      add\n      swap1\n      tag_53\n      swap2\n      swap1\n      tag_54\n      jump\t// in\n    tag_53:\n      tag_55\n      jump\t// in\n    tag_52:\n      mload(0x40)\n      tag_56\n      swap2\n      swap1\n      tag_38\n      jump\t// in\n    tag_56:\n      mload(0x40)\n      dup1\n      swap2\n      sub\n      swap1\n      return\n        /* \"ServiceChain.sol\":1163:1251  function enterHours(uint value) public{... */\n    tag_9:\n      callvalue\n      dup1\n      iszero\n      tag_57\n      jumpi\n      0x00\n      dup1\n      revert\n    tag_57:\n      pop\n      tag_58\n      0x04\n      dup1\n      calldatasize\n      sub\n      dup2\n      add\n      swap1\n      tag_59\n      swap2\n      swap1\n      tag_42\n      jump\t// in\n    tag_59:\n      tag_60\n      jump\t// in\n    tag_58:\n      stop\n        /* \"ServiceChain.sol\":876:915  mapping(address=>uint[]) public hourLog */\n    tag_10:\n      callvalue\n      dup1\n      iszero\n      tag_61\n      jumpi\n      0x00\n      dup1\n      revert\n    tag_61:\n      pop\n      tag_62\n      0x04\n      dup1\n      calldatasize\n      sub\n      dup2\n      add\n      swap1\n      tag_63\n      swap2\n      swap1\n      tag_30\n      jump\t// in\n    tag_63:\n      tag_64\n      jump\t// in\n    tag_62:\n      mload(0x40)\n      tag_65\n      swap2\n      swap1\n      tag_38\n      jump\t// in\n    tag_65:\n      mload(0x40)\n      dup1\n      swap2\n      sub\n      swap1\n      return\n        /* \"ServiceChain.sol\":836:869  Transaction[] public transactions */\n    tag_11:\n      callvalue\n      dup1\n      iszero\n      tag_66\n      jumpi\n      0x00\n      dup1\n      revert\n    tag_66:\n      pop\n      tag_67\n      0x04\n      dup1\n      calldatasize\n      sub\n      dup2\n      add\n      swap1\n      tag_68\n      swap2\n      swap1\n      tag_42\n      jump\t// in\n    tag_68:\n      tag_69\n      jump\t// in\n    tag_67:\n      mload(0x40)\n      tag_70\n      swap4\n      swap3\n      swap2\n      swap1\n      tag_45\n      jump\t// in\n    tag_70:\n      mload(0x40)\n      dup1\n      swap2\n      sub\n      swap1\n      return\n        /* \"ServiceChain.sol\":1486:1599  function getHourLog(address waiter) public view returns(uint[] memory){... */\n    tag_12:\n      callvalue\n      dup1\n      iszero\n      tag_71\n      jumpi\n      0x00\n      dup1\n      revert\n    tag_71:\n      pop\n      tag_72\n      0x04\n      dup1\n      calldatasize\n      sub\n      dup2\n      add\n      swap1\n      tag_73\n      swap2\n      swap1\n      tag_54\n      jump\t// in\n    tag_73:\n      tag_74\n      jump\t// in\n    tag_72:\n      mload(0x40)\n      tag_75\n      swap2\n      swap1\n      tag_76\n      jump\t// in\n    tag_75:\n      mload(0x40)\n      dup1\n      swap2\n      sub\n      swap1\n      return\n        /* \"ServiceChain.sol\":1617:1762  function sendRatings(address customer,address waiter,uint rating) public {... */\n    tag_13:\n      callvalue\n      dup1\n      iszero\n      tag_77\n      jumpi\n      0x00\n      dup1\n      revert\n    tag_77:\n      pop\n      tag_78\n      0x04\n      dup1\n      calldatasize\n      sub\n      dup2\n      add\n      swap1\n      tag_79\n      swap2\n      swap1\n      tag_80\n      jump\t// in\n    tag_79:\n      tag_81\n      jump\t// in\n    tag_78:\n      stop\n        /* \"ServiceChain.sol\":1257:1480  function getTotalHours(address waiter) public view returns(uint vals){... */\n    tag_14:\n      callvalue\n      dup1\n      iszero\n      tag_82\n      jumpi\n      0x00\n      dup1\n      revert\n    tag_82:\n      pop\n      tag_83\n      0x04\n      dup1\n      calldatasize\n      sub\n      dup2\n      add\n      swap1\n      tag_84\n      swap2\n      swap1\n      tag_54\n      jump\t// in\n    tag_84:\n      tag_85\n      jump\t// in\n    tag_83:\n      mload(0x40)\n      tag_86\n      swap2\n      swap1\n      tag_38\n      jump\t// in\n    tag_86:\n      mload(0x40)\n      dup1\n      swap2\n      sub\n      swap1\n      return\n        /* \"ServiceChain.sol\":978:995  string public org */\n    tag_15:\n      callvalue\n      dup1\n      iszero\n      tag_87\n      jumpi\n      0x00\n      dup1\n      revert\n    tag_87:\n      pop\n      tag_88\n      tag_89\n      jump\t// in\n    tag_88:\n      mload(0x40)\n      tag_90\n      swap2\n      swap1\n      tag_91\n      jump\t// in\n    tag_90:\n      mload(0x40)\n      dup1\n      swap2\n      sub\n      swap1\n      return\n        /* \"ServiceChain.sol\":1002:1024  address public creator */\n    tag_24:\n      0x04\n      0x00\n      swap1\n      sload\n      swap1\n      0x0100\n      exp\n      swap1\n      div\n      0xffffffffffffffffffffffffffffffffffffffff\n      and\n      dup2\n      jump\t// out\n        /* \"ServiceChain.sol\":922:971  mapping(address=>customerRating[]) public ratings */\n    tag_31:\n      mstore(0x20, 0x02)\n      dup2\n      0x00\n      mstore\n      keccak256(0x00, 0x40)\n      dup2\n      dup2\n      sload\n      dup2\n      lt\n      tag_92\n      jumpi\n      0x00\n      dup1\n      revert\n    tag_92:\n      swap1\n      0x00\n      mstore\n      keccak256(0x00, 0x20)\n      swap1\n      0x02\n      mul\n      add\n      0x00\n      swap2\n      pop\n      swap2\n      pop\n      pop\n      dup1\n      0x00\n      add\n      0x00\n      swap1\n      sload\n      swap1\n      0x0100\n      exp\n      swap1\n      div\n      0xffffffffffffffffffffffffffffffffffffffff\n      and\n      swap1\n      dup1\n      0x01\n      add\n      sload\n      swap1\n      pop\n      dup3\n      jump\t// out\n        /* \"ServiceChain.sol\":2694:2797  function getTransactionCount() public view returns (uint) {... */\n    tag_36:\n        /* \"ServiceChain.sol\":2746:2750  uint */\n      0x00\n        /* \"ServiceChain.sol\":2770:2782  transactions */\n      dup1\n        /* \"ServiceChain.sol\":2770:2789  transactions.length */\n      dup1\n      sload\n      swap1\n      pop\n        /* \"ServiceChain.sol\":2763:2789  return transactions.length */\n      swap1\n      pop\n        /* \"ServiceChain.sol\":2694:2797  function getTransactionCount() public view returns (uint) {... */\n      swap1\n      jump\t// out\n        /* \"ServiceChain.sol\":2805:3086  function getTransaction(uint _txIndex)... */\n    tag_43:\n        /* \"ServiceChain.sol\":2892:2902  address to */\n      0x00\n        /* \"ServiceChain.sol\":2904:2914  uint value */\n      dup1\n        /* \"ServiceChain.sol\":2916:2933  bytes memory data */\n      0x60\n        /* \"ServiceChain.sol\":2951:2982  Transaction storage transaction */\n      0x00\n        /* \"ServiceChain.sol\":2985:2997  transactions */\n      dup1\n        /* \"ServiceChain.sol\":2998:3006  _txIndex */\n      dup6\n        /* \"ServiceChain.sol\":2985:3007  transactions[_txIndex] */\n      dup2\n      sload\n      dup2\n      lt\n      tag_96\n      jumpi\n      tag_97\n      tag_98\n      jump\t// in\n    tag_97:\n    tag_96:\n      swap1\n      0x00\n      mstore\n      keccak256(0x00, 0x20)\n      swap1\n      0x03\n      mul\n      add\n        /* \"ServiceChain.sol\":2951:3007  Transaction storage transaction = transactions[_txIndex] */\n      swap1\n      pop\n        /* \"ServiceChain.sol\":3026:3037  transaction */\n      dup1\n        /* \"ServiceChain.sol\":3026:3040  transaction.to */\n      0x00\n      add\n      0x00\n      swap1\n      sload\n      swap1\n      0x0100\n      exp\n      swap1\n      div\n      0xffffffffffffffffffffffffffffffffffffffff\n      and\n        /* \"ServiceChain.sol\":3042:3053  transaction */\n      dup2\n        /* \"ServiceChain.sol\":3042:3059  transaction.value */\n      0x01\n      add\n      sload\n        /* \"ServiceChain.sol\":3061:3072  transaction */\n      dup3\n        /* \"ServiceChain.sol\":3061:3077  transaction.data */\n      0x02\n      add\n        /* \"ServiceChain.sol\":3018:3078  return (transaction.to, transaction.value, transaction.data) */\n      dup1\n      dup1\n      sload\n      tag_100\n      swap1\n      tag_101\n      jump\t// in\n    tag_100:\n      dup1\n      0x1f\n      add\n      0x20\n      dup1\n      swap2\n      div\n      mul\n      0x20\n      add\n      mload(0x40)\n      swap1\n      dup2\n      add\n      0x40\n      mstore\n      dup1\n      swap3\n      swap2\n      swap1\n      dup2\n      dup2\n      mstore\n      0x20\n      add\n      dup3\n      dup1\n      sload\n      tag_102\n      swap1\n      tag_101\n      jump\t// in\n    tag_102:\n      dup1\n      iszero\n      tag_103\n      jumpi\n      dup1\n      0x1f\n      lt\n      tag_104\n      jumpi\n      0x0100\n      dup1\n      dup4\n      sload\n      div\n      mul\n      dup4\n      mstore\n      swap2\n      0x20\n      add\n      swap2\n      jump(tag_103)\n    tag_104:\n      dup3\n      add\n      swap2\n      swap1\n      0x00\n      mstore\n      keccak256(0x00, 0x20)\n      swap1\n    tag_105:\n      dup2\n      sload\n      dup2\n      mstore\n      swap1\n      0x01\n      add\n      swap1\n      0x20\n      add\n      dup1\n      dup4\n      gt\n      tag_105\n      jumpi\n      dup3\n      swap1\n      sub\n      0x1f\n      and\n      dup3\n      add\n      swap2\n    tag_103:\n      pop\n      pop\n      pop\n      pop\n      pop\n      swap1\n      pop\n      swap4\n      pop\n      swap4\n      pop\n      swap4\n      pop\n      pop\n        /* \"ServiceChain.sol\":2805:3086  function getTransaction(uint _txIndex)... */\n      swap2\n      swap4\n      swap1\n      swap3\n      pop\n      jump\t// out\n        /* \"ServiceChain.sol\":2349:2684  function submitTip(address _to, uint _value, bytes memory _data)... */\n    tag_50:\n        /* \"ServiceChain.sol\":2446:2458  uint txIndex */\n      0x00\n        /* \"ServiceChain.sol\":2461:2473  transactions */\n      dup1\n        /* \"ServiceChain.sol\":2461:2480  transactions.length */\n      dup1\n      sload\n      swap1\n      pop\n        /* \"ServiceChain.sol\":2446:2480  uint txIndex = transactions.length */\n      swap1\n      pop\n        /* \"ServiceChain.sol\":2491:2503  transactions */\n      0x00\n        /* \"ServiceChain.sol\":2509:2609  Transaction({... */\n      mload(0x40)\n      dup1\n      0x60\n      add\n      0x40\n      mstore\n      dup1\n        /* \"ServiceChain.sol\":2540:2543  _to */\n      dup7\n        /* \"ServiceChain.sol\":2509:2609  Transaction({... */\n      0xffffffffffffffffffffffffffffffffffffffff\n      and\n      dup2\n      mstore\n      0x20\n      add\n        /* \"ServiceChain.sol\":2565:2571  _value */\n      dup6\n        /* \"ServiceChain.sol\":2509:2609  Transaction({... */\n      dup2\n      mstore\n      0x20\n      add\n        /* \"ServiceChain.sol\":2592:2597  _data */\n      dup5\n        /* \"ServiceChain.sol\":2509:2609  Transaction({... */\n      dup2\n      mstore\n      pop\n        /* \"ServiceChain.sol\":2491:2610  transactions.push(Transaction({... */\n      swap1\n      dup1\n      0x01\n      dup2\n      sload\n      add\n      dup1\n      dup3\n      sstore\n      dup1\n      swap2\n      pop\n      pop\n      0x01\n      swap1\n      sub\n      swap1\n      0x00\n      mstore\n      keccak256(0x00, 0x20)\n      swap1\n      0x03\n      mul\n      add\n      0x00\n      swap1\n      swap2\n      swap1\n      swap2\n      swap1\n      swap2\n      pop\n      0x00\n      dup3\n      add\n      mload\n      dup2\n      0x00\n      add\n      exp(0x0100, 0x00)\n      dup2\n      sload\n      dup2\n      0xffffffffffffffffffffffffffffffffffffffff\n      mul\n      not\n      and\n      swap1\n      dup4\n      0xffffffffffffffffffffffffffffffffffffffff\n      and\n      mul\n      or\n      swap1\n      sstore\n      pop\n      0x20\n      dup3\n      add\n      mload\n      dup2\n      0x01\n      add\n      sstore\n      0x40\n      dup3\n      add\n      mload\n      dup2\n      0x02\n      add\n      swap1\n      dup2\n      tag_108\n      swap2\n      swap1\n      tag_109\n      jump\t// in\n    tag_108:\n      pop\n      pop\n      pop\n        /* \"ServiceChain.sol\":2657:2660  _to */\n      dup4\n        /* \"ServiceChain.sol\":2626:2676  SubmitTip(msg.sender, txIndex, _to, _value, _data) */\n      0xffffffffffffffffffffffffffffffffffffffff\n      and\n        /* \"ServiceChain.sol\":2648:2655  txIndex */\n      dup2\n        /* \"ServiceChain.sol\":2636:2646  msg.sender */\n      caller\n        /* \"ServiceChain.sol\":2626:2676  SubmitTip(msg.sender, txIndex, _to, _value, _data) */\n      0xffffffffffffffffffffffffffffffffffffffff\n      and\n      0xff161496bb9879e11f4a70b7df1b7ba081936284851b65942ef4d782f9d39bea\n        /* \"ServiceChain.sol\":2662:2668  _value */\n      dup7\n        /* \"ServiceChain.sol\":2670:2675  _data */\n      dup7\n        /* \"ServiceChain.sol\":2626:2676  SubmitTip(msg.sender, txIndex, _to, _value, _data) */\n      mload(0x40)\n      tag_110\n      swap3\n      swap2\n      swap1\n      tag_111\n      jump\t// in\n    tag_110:\n      mload(0x40)\n      dup1\n      swap2\n      sub\n      swap1\n      log4\n        /* \"ServiceChain.sol\":2435:2684  {... */\n      pop\n        /* \"ServiceChain.sol\":2349:2684  function submitTip(address _to, uint _value, bytes memory _data)... */\n      pop\n      pop\n      pop\n      jump\t// out\n        /* \"ServiceChain.sol\":1770:2089  function getRating(address waiter) public view returns (uint avgRating) {... */\n    tag_55:\n        /* \"ServiceChain.sol\":1826:1840  uint avgRating */\n      0x00\n        /* \"ServiceChain.sol\":1853:1868  uint sumRatings */\n      dup1\n        /* \"ServiceChain.sol\":1871:1872  0 */\n      0x00\n        /* \"ServiceChain.sol\":1853:1872  uint sumRatings = 0 */\n      swap1\n      pop\n        /* \"ServiceChain.sol\":1888:1894  uint i */\n      0x00\n        /* \"ServiceChain.sol\":1883:1990  for (uint i=0;i<ratings[waiter].length;i++){... */\n    tag_113:\n        /* \"ServiceChain.sol\":1899:1906  ratings */\n      0x02\n        /* \"ServiceChain.sol\":1899:1914  ratings[waiter] */\n      0x00\n        /* \"ServiceChain.sol\":1907:1913  waiter */\n      dup6\n        /* \"ServiceChain.sol\":1899:1914  ratings[waiter] */\n      0xffffffffffffffffffffffffffffffffffffffff\n      and\n      0xffffffffffffffffffffffffffffffffffffffff\n      and\n      dup2\n      mstore\n      0x20\n      add\n      swap1\n      dup2\n      mstore\n      0x20\n      add\n      0x00\n      keccak256\n        /* \"ServiceChain.sol\":1899:1921  ratings[waiter].length */\n      dup1\n      sload\n      swap1\n      pop\n        /* \"ServiceChain.sol\":1897:1898  i */\n      dup2\n        /* \"ServiceChain.sol\":1897:1921  i<ratings[waiter].length */\n      lt\n        /* \"ServiceChain.sol\":1883:1990  for (uint i=0;i<ratings[waiter].length;i++){... */\n      iszero\n      tag_114\n      jumpi\n        /* \"ServiceChain.sol\":1953:1960  ratings */\n      0x02\n        /* \"ServiceChain.sol\":1953:1968  ratings[waiter] */\n      0x00\n        /* \"ServiceChain.sol\":1961:1967  waiter */\n      dup6\n        /* \"ServiceChain.sol\":1953:1968  ratings[waiter] */\n      0xffffffffffffffffffffffffffffffffffffffff\n      and\n      0xffffffffffffffffffffffffffffffffffffffff\n      and\n      dup2\n      mstore\n      0x20\n      add\n      swap1\n      dup2\n      mstore\n      0x20\n      add\n      0x00\n      keccak256\n        /* \"ServiceChain.sol\":1969:1970  i */\n      dup2\n        /* \"ServiceChain.sol\":1953:1971  ratings[waiter][i] */\n      dup2\n      sload\n      dup2\n      lt\n      tag_116\n      jumpi\n      tag_117\n      tag_98\n      jump\t// in\n    tag_117:\n    tag_116:\n      swap1\n      0x00\n      mstore\n      keccak256(0x00, 0x20)\n      swap1\n      0x02\n      mul\n      add\n        /* \"ServiceChain.sol\":1953:1978  ratings[waiter][i].rating */\n      0x01\n      add\n      sload\n        /* \"ServiceChain.sol\":1941:1978  sumRatings+=ratings[waiter][i].rating */\n      dup3\n      tag_119\n      swap2\n      swap1\n      tag_120\n      jump\t// in\n    tag_119:\n      swap2\n      pop\n        /* \"ServiceChain.sol\":1922:1925  i++ */\n      dup1\n      dup1\n      tag_121\n      swap1\n      tag_122\n      jump\t// in\n    tag_121:\n      swap2\n      pop\n      pop\n        /* \"ServiceChain.sol\":1883:1990  for (uint i=0;i<ratings[waiter].length;i++){... */\n      jump(tag_113)\n    tag_114:\n      pop\n        /* \"ServiceChain.sol\":2000:2014  uint avgRating */\n      0x00\n        /* \"ServiceChain.sol\":2028:2035  ratings */\n      0x02\n        /* \"ServiceChain.sol\":2028:2043  ratings[waiter] */\n      0x00\n        /* \"ServiceChain.sol\":2036:2042  waiter */\n      dup6\n        /* \"ServiceChain.sol\":2028:2043  ratings[waiter] */\n      0xffffffffffffffffffffffffffffffffffffffff\n      and\n      0xffffffffffffffffffffffffffffffffffffffff\n      and\n      dup2\n      mstore\n      0x20\n      add\n      swap1\n      dup2\n      mstore\n      0x20\n      add\n      0x00\n      keccak256\n        /* \"ServiceChain.sol\":2028:2050  ratings[waiter].length */\n      dup1\n      sload\n      swap1\n      pop\n        /* \"ServiceChain.sol\":2017:2027  sumRatings */\n      dup3\n        /* \"ServiceChain.sol\":2017:2050  sumRatings/ratings[waiter].length */\n      tag_123\n      swap2\n      swap1\n      tag_124\n      jump\t// in\n    tag_123:\n        /* \"ServiceChain.sol\":2000:2050  uint avgRating = sumRatings/ratings[waiter].length */\n      swap1\n      pop\n        /* \"ServiceChain.sol\":2068:2077  avgRating */\n      dup1\n        /* \"ServiceChain.sol\":2061:2077  return avgRating */\n      swap3\n      pop\n      pop\n      pop\n        /* \"ServiceChain.sol\":1770:2089  function getRating(address waiter) public view returns (uint avgRating) {... */\n      swap2\n      swap1\n      pop\n      jump\t// out\n        /* \"ServiceChain.sol\":1163:1251  function enterHours(uint value) public{... */\n    tag_60:\n        /* \"ServiceChain.sol\":1212:1219  hourLog */\n      0x01\n        /* \"ServiceChain.sol\":1212:1231  hourLog[msg.sender] */\n      0x00\n        /* \"ServiceChain.sol\":1220:1230  msg.sender */\n      caller\n        /* \"ServiceChain.sol\":1212:1231  hourLog[msg.sender] */\n      0xffffffffffffffffffffffffffffffffffffffff\n      and\n      0xffffffffffffffffffffffffffffffffffffffff\n      and\n      dup2\n      mstore\n      0x20\n      add\n      swap1\n      dup2\n      mstore\n      0x20\n      add\n      0x00\n      keccak256\n        /* \"ServiceChain.sol\":1237:1242  value */\n      dup2\n        /* \"ServiceChain.sol\":1212:1243  hourLog[msg.sender].push(value) */\n      swap1\n      dup1\n      0x01\n      dup2\n      sload\n      add\n      dup1\n      dup3\n      sstore\n      dup1\n      swap2\n      pop\n      pop\n      0x01\n      swap1\n      sub\n      swap1\n      0x00\n      mstore\n      keccak256(0x00, 0x20)\n      add\n      0x00\n      swap1\n      swap2\n      swap1\n      swap2\n      swap1\n      swap2\n      pop\n      sstore\n        /* \"ServiceChain.sol\":1163:1251  function enterHours(uint value) public{... */\n      pop\n      jump\t// out\n        /* \"ServiceChain.sol\":876:915  mapping(address=>uint[]) public hourLog */\n    tag_64:\n      mstore(0x20, 0x01)\n      dup2\n      0x00\n      mstore\n      keccak256(0x00, 0x40)\n      dup2\n      dup2\n      sload\n      dup2\n      lt\n      tag_127\n      jumpi\n      0x00\n      dup1\n      revert\n    tag_127:\n      swap1\n      0x00\n      mstore\n      keccak256(0x00, 0x20)\n      add\n      0x00\n      swap2\n      pop\n      swap2\n      pop\n      pop\n      sload\n      dup2\n      jump\t// out\n        /* \"ServiceChain.sol\":836:869  Transaction[] public transactions */\n    tag_69:\n      0x00\n      dup2\n      dup2\n      sload\n      dup2\n      lt\n      tag_129\n      jumpi\n      0x00\n      dup1\n      revert\n    tag_129:\n      swap1\n      0x00\n      mstore\n      keccak256(0x00, 0x20)\n      swap1\n      0x03\n      mul\n      add\n      0x00\n      swap2\n      pop\n      swap1\n      pop\n      dup1\n      0x00\n      add\n      0x00\n      swap1\n      sload\n      swap1\n      0x0100\n      exp\n      swap1\n      div\n      0xffffffffffffffffffffffffffffffffffffffff\n      and\n      swap1\n      dup1\n      0x01\n      add\n      sload\n      swap1\n      dup1\n      0x02\n      add\n      dup1\n      sload\n      tag_131\n      swap1\n      tag_101\n      jump\t// in\n    tag_131:\n      dup1\n      0x1f\n      add\n      0x20\n      dup1\n      swap2\n      div\n      mul\n      0x20\n      add\n      mload(0x40)\n      swap1\n      dup2\n      add\n      0x40\n      mstore\n      dup1\n      swap3\n      swap2\n      swap1\n      dup2\n      dup2\n      mstore\n      0x20\n      add\n      dup3\n      dup1\n      sload\n      tag_132\n      swap1\n      tag_101\n      jump\t// in\n    tag_132:\n      dup1\n      iszero\n      tag_133\n      jumpi\n      dup1\n      0x1f\n      lt\n      tag_134\n      jumpi\n      0x0100\n      dup1\n      dup4\n      sload\n      div\n      mul\n      dup4\n      mstore\n      swap2\n      0x20\n      add\n      swap2\n      jump(tag_133)\n    tag_134:\n      dup3\n      add\n      swap2\n      swap1\n      0x00\n      mstore\n      keccak256(0x00, 0x20)\n      swap1\n    tag_135:\n      dup2\n      sload\n      dup2\n      mstore\n      swap1\n      0x01\n      add\n      swap1\n      0x20\n      add\n      dup1\n      dup4\n      gt\n      tag_135\n      jumpi\n      dup3\n      swap1\n      sub\n      0x1f\n      and\n      dup3\n      add\n      swap2\n    tag_133:\n      pop\n      pop\n      pop\n      pop\n      pop\n      swap1\n      pop\n      dup4\n      jump\t// out\n        /* \"ServiceChain.sol\":1486:1599  function getHourLog(address waiter) public view returns(uint[] memory){... */\n    tag_74:\n        /* \"ServiceChain.sol\":1542:1555  uint[] memory */\n      0x60\n        /* \"ServiceChain.sol\":1574:1581  hourLog */\n      0x01\n        /* \"ServiceChain.sol\":1574:1589  hourLog[waiter] */\n      0x00\n        /* \"ServiceChain.sol\":1582:1588  waiter */\n      dup4\n        /* \"ServiceChain.sol\":1574:1589  hourLog[waiter] */\n      0xffffffffffffffffffffffffffffffffffffffff\n      and\n      0xffffffffffffffffffffffffffffffffffffffff\n      and\n      dup2\n      mstore\n      0x20\n      add\n      swap1\n      dup2\n      mstore\n      0x20\n      add\n      0x00\n      keccak256\n        /* \"ServiceChain.sol\":1567:1589  return hourLog[waiter] */\n      dup1\n      sload\n      dup1\n      0x20\n      mul\n      0x20\n      add\n      mload(0x40)\n      swap1\n      dup2\n      add\n      0x40\n      mstore\n      dup1\n      swap3\n      swap2\n      swap1\n      dup2\n      dup2\n      mstore\n      0x20\n      add\n      dup3\n      dup1\n      sload\n      dup1\n      iszero\n      tag_137\n      jumpi\n      0x20\n      mul\n      dup3\n      add\n      swap2\n      swap1\n      0x00\n      mstore\n      keccak256(0x00, 0x20)\n      swap1\n    tag_138:\n      dup2\n      sload\n      dup2\n      mstore\n      0x20\n      add\n      swap1\n      0x01\n      add\n      swap1\n      dup1\n      dup4\n      gt\n      tag_138\n      jumpi\n    tag_137:\n      pop\n      pop\n      pop\n      pop\n      pop\n      swap1\n      pop\n        /* \"ServiceChain.sol\":1486:1599  function getHourLog(address waiter) public view returns(uint[] memory){... */\n      swap2\n      swap1\n      pop\n      jump\t// out\n        /* \"ServiceChain.sol\":1617:1762  function sendRatings(address customer,address waiter,uint rating) public {... */\n    tag_81:\n        /* \"ServiceChain.sol\":1701:1708  ratings */\n      0x02\n        /* \"ServiceChain.sol\":1701:1716  ratings[waiter] */\n      0x00\n        /* \"ServiceChain.sol\":1709:1715  waiter */\n      dup4\n        /* \"ServiceChain.sol\":1701:1716  ratings[waiter] */\n      0xffffffffffffffffffffffffffffffffffffffff\n      and\n      0xffffffffffffffffffffffffffffffffffffffff\n      and\n      dup2\n      mstore\n      0x20\n      add\n      swap1\n      dup2\n      mstore\n      0x20\n      add\n      0x00\n      keccak256\n        /* \"ServiceChain.sol\":1722:1753  customerRating(customer,rating) */\n      mload(0x40)\n      dup1\n      0x40\n      add\n      0x40\n      mstore\n      dup1\n        /* \"ServiceChain.sol\":1737:1745  customer */\n      dup6\n        /* \"ServiceChain.sol\":1722:1753  customerRating(customer,rating) */\n      0xffffffffffffffffffffffffffffffffffffffff\n      and\n      dup2\n      mstore\n      0x20\n      add\n        /* \"ServiceChain.sol\":1746:1752  rating */\n      dup4\n        /* \"ServiceChain.sol\":1722:1753  customerRating(customer,rating) */\n      dup2\n      mstore\n      pop\n        /* \"ServiceChain.sol\":1701:1754  ratings[waiter].push(customerRating(customer,rating)) */\n      swap1\n      dup1\n      0x01\n      dup2\n      sload\n      add\n      dup1\n      dup3\n      sstore\n      dup1\n      swap2\n      pop\n      pop\n      0x01\n      swap1\n      sub\n      swap1\n      0x00\n      mstore\n      keccak256(0x00, 0x20)\n      swap1\n      0x02\n      mul\n      add\n      0x00\n      swap1\n      swap2\n      swap1\n      swap2\n      swap1\n      swap2\n      pop\n      0x00\n      dup3\n      add\n      mload\n      dup2\n      0x00\n      add\n      exp(0x0100, 0x00)\n      dup2\n      sload\n      dup2\n      0xffffffffffffffffffffffffffffffffffffffff\n      mul\n      not\n      and\n      swap1\n      dup4\n      0xffffffffffffffffffffffffffffffffffffffff\n      and\n      mul\n      or\n      swap1\n      sstore\n      pop\n      0x20\n      dup3\n      add\n      mload\n      dup2\n      0x01\n      add\n      sstore\n      pop\n      pop\n        /* \"ServiceChain.sol\":1617:1762  function sendRatings(address customer,address waiter,uint rating) public {... */\n      pop\n      pop\n      pop\n      jump\t// out\n        /* \"ServiceChain.sol\":1257:1480  function getTotalHours(address waiter) public view returns(uint vals){... */\n    tag_85:\n        /* \"ServiceChain.sol\":1316:1325  uint vals */\n      0x00\n        /* \"ServiceChain.sol\":1337:1345  uint sum */\n      dup1\n        /* \"ServiceChain.sol\":1348:1349  0 */\n      0x00\n        /* \"ServiceChain.sol\":1337:1349  uint sum = 0 */\n      swap1\n      pop\n        /* \"ServiceChain.sol\":1364:1370  uint i */\n      0x00\n        /* \"ServiceChain.sol\":1360:1452  for(uint i=0;i<hourLog[waiter].length;i++){... */\n    tag_142:\n        /* \"ServiceChain.sol\":1375:1382  hourLog */\n      0x01\n        /* \"ServiceChain.sol\":1375:1390  hourLog[waiter] */\n      0x00\n        /* \"ServiceChain.sol\":1383:1389  waiter */\n      dup6\n        /* \"ServiceChain.sol\":1375:1390  hourLog[waiter] */\n      0xffffffffffffffffffffffffffffffffffffffff\n      and\n      0xffffffffffffffffffffffffffffffffffffffff\n      and\n      dup2\n      mstore\n      0x20\n      add\n      swap1\n      dup2\n      mstore\n      0x20\n      add\n      0x00\n      keccak256\n        /* \"ServiceChain.sol\":1375:1397  hourLog[waiter].length */\n      dup1\n      sload\n      swap1\n      pop\n        /* \"ServiceChain.sol\":1373:1374  i */\n      dup2\n        /* \"ServiceChain.sol\":1373:1397  i<hourLog[waiter].length */\n      lt\n        /* \"ServiceChain.sol\":1360:1452  for(uint i=0;i<hourLog[waiter].length;i++){... */\n      iszero\n      tag_143\n      jumpi\n        /* \"ServiceChain.sol\":1422:1429  hourLog */\n      0x01\n        /* \"ServiceChain.sol\":1422:1437  hourLog[waiter] */\n      0x00\n        /* \"ServiceChain.sol\":1430:1436  waiter */\n      dup6\n        /* \"ServiceChain.sol\":1422:1437  hourLog[waiter] */\n      0xffffffffffffffffffffffffffffffffffffffff\n      and\n      0xffffffffffffffffffffffffffffffffffffffff\n      and\n      dup2\n      mstore\n      0x20\n      add\n      swap1\n      dup2\n      mstore\n      0x20\n      add\n      0x00\n      keccak256\n        /* \"ServiceChain.sol\":1438:1439  i */\n      dup2\n        /* \"ServiceChain.sol\":1422:1440  hourLog[waiter][i] */\n      dup2\n      sload\n      dup2\n      lt\n      tag_145\n      jumpi\n      tag_146\n      tag_98\n      jump\t// in\n    tag_146:\n    tag_145:\n      swap1\n      0x00\n      mstore\n      keccak256(0x00, 0x20)\n      add\n      sload\n        /* \"ServiceChain.sol\":1417:1440  sum+=hourLog[waiter][i] */\n      dup3\n      tag_148\n      swap2\n      swap1\n      tag_120\n      jump\t// in\n    tag_148:\n      swap2\n      pop\n        /* \"ServiceChain.sol\":1398:1401  i++ */\n      dup1\n      dup1\n      tag_149\n      swap1\n      tag_122\n      jump\t// in\n    tag_149:\n      swap2\n      pop\n      pop\n        /* \"ServiceChain.sol\":1360:1452  for(uint i=0;i<hourLog[waiter].length;i++){... */\n      jump(tag_142)\n    tag_143:\n      pop\n        /* \"ServiceChain.sol\":1469:1472  sum */\n      dup1\n        /* \"ServiceChain.sol\":1462:1472  return sum */\n      swap2\n      pop\n      pop\n        /* \"ServiceChain.sol\":1257:1480  function getTotalHours(address waiter) public view returns(uint vals){... */\n      swap2\n      swap1\n      pop\n      jump\t// out\n        /* \"ServiceChain.sol\":978:995  string public org */\n    tag_89:\n      0x03\n      dup1\n      sload\n      tag_150\n      swap1\n      tag_101\n      jump\t// in\n    tag_150:\n      dup1\n      0x1f\n      add\n      0x20\n      dup1\n      swap2\n      div\n      mul\n      0x20\n      add\n      mload(0x40)\n      swap1\n      dup2\n      add\n      0x40\n      mstore\n      dup1\n      swap3\n      swap2\n      swap1\n      dup2\n      dup2\n      mstore\n      0x20\n      add\n      dup3\n      dup1\n      sload\n      tag_151\n      swap1\n      tag_101\n      jump\t// in\n    tag_151:\n      dup1\n      iszero\n      tag_152\n      jumpi\n      dup1\n      0x1f\n      lt\n      tag_153\n      jumpi\n      0x0100\n      dup1\n      dup4\n      sload\n      div\n      mul\n      dup4\n      mstore\n      swap2\n      0x20\n      add\n      swap2\n      jump(tag_152)\n    tag_153:\n      dup3\n      add\n      swap2\n      swap1\n      0x00\n      mstore\n      keccak256(0x00, 0x20)\n      swap1\n    tag_154:\n      dup2\n      sload\n      dup2\n      mstore\n      swap1\n      0x01\n      add\n      swap1\n      0x20\n      add\n      dup1\n      dup4\n      gt\n      tag_154\n      jumpi\n      dup3\n      swap1\n      sub\n      0x1f\n      and\n      dup3\n      add\n      swap2\n    tag_152:\n      pop\n      pop\n      pop\n      pop\n      pop\n      dup2\n      jump\t// out\n        /* \"#utility.yul\":7:84   */\n    tag_155:\n        /* \"#utility.yul\":44:51   */\n      0x00\n        /* \"#utility.yul\":73:78   */\n      dup2\n        /* \"#utility.yul\":62:78   */\n      swap1\n      pop\n        /* \"#utility.yul\":7:84   */\n      swap2\n      swap1\n      pop\n      jump\t// out\n        /* \"#utility.yul\":90:208   */\n    tag_156:\n        /* \"#utility.yul\":177:201   */\n      tag_212\n        /* \"#utility.yul\":195:200   */\n      dup2\n        /* \"#utility.yul\":177:201   */\n      tag_155\n      jump\t// in\n    tag_212:\n        /* \"#utility.yul\":172:175   */\n      dup3\n        /* \"#utility.yul\":165:202   */\n      mstore\n        /* \"#utility.yul\":90:208   */\n      pop\n      pop\n      jump\t// out\n        /* \"#utility.yul\":214:546   */\n    tag_21:\n        /* \"#utility.yul\":335:339   */\n      0x00\n        /* \"#utility.yul\":373:375   */\n      0x40\n        /* \"#utility.yul\":362:371   */\n      dup3\n        /* \"#utility.yul\":358:376   */\n      add\n        /* \"#utility.yul\":350:376   */\n      swap1\n      pop\n        /* \"#utility.yul\":386:457   */\n      tag_214\n        /* \"#utility.yul\":454:455   */\n      0x00\n        /* \"#utility.yul\":443:452   */\n      dup4\n        /* \"#utility.yul\":439:456   */\n      add\n        /* \"#utility.yul\":430:436   */\n      dup6\n        /* \"#utility.yul\":386:457   */\n      tag_156\n      jump\t// in\n    tag_214:\n        /* \"#utility.yul\":467:539   */\n      tag_215\n        /* \"#utility.yul\":535:537   */\n      0x20\n        /* \"#utility.yul\":524:533   */\n      dup4\n        /* \"#utility.yul\":520:538   */\n      add\n        /* \"#utility.yul\":511:517   */\n      dup5\n        /* \"#utility.yul\":467:539   */\n      tag_156\n      jump\t// in\n    tag_215:\n        /* \"#utility.yul\":214:546   */\n      swap4\n      swap3\n      pop\n      pop\n      pop\n      jump\t// out\n        /* \"#utility.yul\":552:678   */\n    tag_157:\n        /* \"#utility.yul\":589:596   */\n      0x00\n        /* \"#utility.yul\":629:671   */\n      0xffffffffffffffffffffffffffffffffffffffff\n        /* \"#utility.yul\":622:627   */\n      dup3\n        /* \"#utility.yul\":618:672   */\n      and\n        /* \"#utility.yul\":607:672   */\n      swap1\n      pop\n        /* \"#utility.yul\":552:678   */\n      swap2\n      swap1\n      pop\n      jump\t// out\n        /* \"#utility.yul\":684:780   */\n    tag_158:\n        /* \"#utility.yul\":721:728   */\n      0x00\n        /* \"#utility.yul\":750:774   */\n      tag_218\n        /* \"#utility.yul\":768:773   */\n      dup3\n        /* \"#utility.yul\":750:774   */\n      tag_157\n      jump\t// in\n    tag_218:\n        /* \"#utility.yul\":739:774   */\n      swap1\n      pop\n        /* \"#utility.yul\":684:780   */\n      swap2\n      swap1\n      pop\n      jump\t// out\n        /* \"#utility.yul\":786:904   */\n    tag_159:\n        /* \"#utility.yul\":873:897   */\n      tag_220\n        /* \"#utility.yul\":891:896   */\n      dup2\n        /* \"#utility.yul\":873:897   */\n      tag_158\n      jump\t// in\n    tag_220:\n        /* \"#utility.yul\":868:871   */\n      dup3\n        /* \"#utility.yul\":861:898   */\n      mstore\n        /* \"#utility.yul\":786:904   */\n      pop\n      pop\n      jump\t// out\n        /* \"#utility.yul\":910:1132   */\n    tag_26:\n        /* \"#utility.yul\":1003:1007   */\n      0x00\n        /* \"#utility.yul\":1041:1043   */\n      0x20\n        /* \"#utility.yul\":1030:1039   */\n      dup3\n        /* \"#utility.yul\":1026:1044   */\n      add\n        /* \"#utility.yul\":1018:1044   */\n      swap1\n      pop\n        /* \"#utility.yul\":1054:1125   */\n      tag_222\n        /* \"#utility.yul\":1122:1123   */\n      0x00\n        /* \"#utility.yul\":1111:1120   */\n      dup4\n        /* \"#utility.yul\":1107:1124   */\n      add\n        /* \"#utility.yul\":1098:1104   */\n      dup5\n        /* \"#utility.yul\":1054:1125   */\n      tag_159\n      jump\t// in\n    tag_222:\n        /* \"#utility.yul\":910:1132   */\n      swap3\n      swap2\n      pop\n      pop\n      jump\t// out\n        /* \"#utility.yul\":1138:1213   */\n    tag_160:\n        /* \"#utility.yul\":1171:1177   */\n      0x00\n        /* \"#utility.yul\":1204:1206   */\n      0x40\n        /* \"#utility.yul\":1198:1207   */\n      mload\n        /* \"#utility.yul\":1188:1207   */\n      swap1\n      pop\n        /* \"#utility.yul\":1138:1213   */\n      swap1\n      jump\t// out\n        /* \"#utility.yul\":1219:1336   */\n    tag_161:\n        /* \"#utility.yul\":1328:1329   */\n      0x00\n        /* \"#utility.yul\":1325:1326   */\n      dup1\n        /* \"#utility.yul\":1318:1330   */\n      revert\n        /* \"#utility.yul\":1342:1459   */\n    tag_162:\n        /* \"#utility.yul\":1451:1452   */\n      0x00\n        /* \"#utility.yul\":1448:1449   */\n      dup1\n        /* \"#utility.yul\":1441:1453   */\n      revert\n        /* \"#utility.yul\":1465:1587   */\n    tag_163:\n        /* \"#utility.yul\":1538:1562   */\n      tag_227\n        /* \"#utility.yul\":1556:1561   */\n      dup2\n        /* \"#utility.yul\":1538:1562   */\n      tag_158\n      jump\t// in\n    tag_227:\n        /* \"#utility.yul\":1531:1536   */\n      dup2\n        /* \"#utility.yul\":1528:1563   */\n      eq\n        /* \"#utility.yul\":1518:1581   */\n      tag_228\n      jumpi\n        /* \"#utility.yul\":1577:1578   */\n      0x00\n        /* \"#utility.yul\":1574:1575   */\n      dup1\n        /* \"#utility.yul\":1567:1579   */\n      revert\n        /* \"#utility.yul\":1518:1581   */\n    tag_228:\n        /* \"#utility.yul\":1465:1587   */\n      pop\n      jump\t// out\n        /* \"#utility.yul\":1593:1732   */\n    tag_164:\n        /* \"#utility.yul\":1639:1644   */\n      0x00\n        /* \"#utility.yul\":1677:1683   */\n      dup2\n        /* \"#utility.yul\":1664:1684   */\n      calldataload\n        /* \"#utility.yul\":1655:1684   */\n      swap1\n      pop\n        /* \"#utility.yul\":1693:1726   */\n      tag_230\n        /* \"#utility.yul\":1720:1725   */\n      dup2\n        /* \"#utility.yul\":1693:1726   */\n      tag_163\n      jump\t// in\n    tag_230:\n        /* \"#utility.yul\":1593:1732   */\n      swap3\n      swap2\n      pop\n      pop\n      jump\t// out\n        /* \"#utility.yul\":1738:1860   */\n    tag_165:\n        /* \"#utility.yul\":1811:1835   */\n      tag_232\n        /* \"#utility.yul\":1829:1834   */\n      dup2\n        /* \"#utility.yul\":1811:1835   */\n      tag_155\n      jump\t// in\n    tag_232:\n        /* \"#utility.yul\":1804:1809   */\n      dup2\n        /* \"#utility.yul\":1801:1836   */\n      eq\n        /* \"#utility.yul\":1791:1854   */\n      tag_233\n      jumpi\n        /* \"#utility.yul\":1850:1851   */\n      0x00\n        /* \"#utility.yul\":1847:1848   */\n      dup1\n        /* \"#utility.yul\":1840:1852   */\n      revert\n        /* \"#utility.yul\":1791:1854   */\n    tag_233:\n        /* \"#utility.yul\":1738:1860   */\n      pop\n      jump\t// out\n        /* \"#utility.yul\":1866:2005   */\n    tag_166:\n        /* \"#utility.yul\":1912:1917   */\n      0x00\n        /* \"#utility.yul\":1950:1956   */\n      dup2\n        /* \"#utility.yul\":1937:1957   */\n      calldataload\n        /* \"#utility.yul\":1928:1957   */\n      swap1\n      pop\n        /* \"#utility.yul\":1966:1999   */\n      tag_235\n        /* \"#utility.yul\":1993:1998   */\n      dup2\n        /* \"#utility.yul\":1966:1999   */\n      tag_165\n      jump\t// in\n    tag_235:\n        /* \"#utility.yul\":1866:2005   */\n      swap3\n      swap2\n      pop\n      pop\n      jump\t// out\n        /* \"#utility.yul\":2011:2485   */\n    tag_30:\n        /* \"#utility.yul\":2079:2085   */\n      0x00\n        /* \"#utility.yul\":2087:2093   */\n      dup1\n        /* \"#utility.yul\":2136:2138   */\n      0x40\n        /* \"#utility.yul\":2124:2133   */\n      dup4\n        /* \"#utility.yul\":2115:2122   */\n      dup6\n        /* \"#utility.yul\":2111:2134   */\n      sub\n        /* \"#utility.yul\":2107:2139   */\n      slt\n        /* \"#utility.yul\":2104:2223   */\n      iszero\n      tag_237\n      jumpi\n        /* \"#utility.yul\":2142:2221   */\n      tag_238\n      tag_161\n      jump\t// in\n    tag_238:\n        /* \"#utility.yul\":2104:2223   */\n    tag_237:\n        /* \"#utility.yul\":2262:2263   */\n      0x00\n        /* \"#utility.yul\":2287:2340   */\n      tag_239\n        /* \"#utility.yul\":2332:2339   */\n      dup6\n        /* \"#utility.yul\":2323:2329   */\n      dup3\n        /* \"#utility.yul\":2312:2321   */\n      dup7\n        /* \"#utility.yul\":2308:2330   */\n      add\n        /* \"#utility.yul\":2287:2340   */\n      tag_164\n      jump\t// in\n    tag_239:\n        /* \"#utility.yul\":2277:2340   */\n      swap3\n      pop\n        /* \"#utility.yul\":2233:2350   */\n      pop\n        /* \"#utility.yul\":2389:2391   */\n      0x20\n        /* \"#utility.yul\":2415:2468   */\n      tag_240\n        /* \"#utility.yul\":2460:2467   */\n      dup6\n        /* \"#utility.yul\":2451:2457   */\n      dup3\n        /* \"#utility.yul\":2440:2449   */\n      dup7\n        /* \"#utility.yul\":2436:2458   */\n      add\n        /* \"#utility.yul\":2415:2468   */\n      tag_166\n      jump\t// in\n    tag_240:\n        /* \"#utility.yul\":2405:2468   */\n      swap2\n      pop\n        /* \"#utility.yul\":2360:2478   */\n      pop\n        /* \"#utility.yul\":2011:2485   */\n      swap3\n      pop\n      swap3\n      swap1\n      pop\n      jump\t// out\n        /* \"#utility.yul\":2491:2823   */\n    tag_33:\n        /* \"#utility.yul\":2612:2616   */\n      0x00\n        /* \"#utility.yul\":2650:2652   */\n      0x40\n        /* \"#utility.yul\":2639:2648   */\n      dup3\n        /* \"#utility.yul\":2635:2653   */\n      add\n        /* \"#utility.yul\":2627:2653   */\n      swap1\n      pop\n        /* \"#utility.yul\":2663:2734   */\n      tag_242\n        /* \"#utility.yul\":2731:2732   */\n      0x00\n        /* \"#utility.yul\":2720:2729   */\n      dup4\n        /* \"#utility.yul\":2716:2733   */\n      add\n        /* \"#utility.yul\":2707:2713   */\n      dup6\n        /* \"#utility.yul\":2663:2734   */\n      tag_159\n      jump\t// in\n    tag_242:\n        /* \"#utility.yul\":2744:2816   */\n      tag_243\n        /* \"#utility.yul\":2812:2814   */\n      0x20\n        /* \"#utility.yul\":2801:2810   */\n      dup4\n        /* \"#utility.yul\":2797:2815   */\n      add\n        /* \"#utility.yul\":2788:2794   */\n      dup5\n        /* \"#utility.yul\":2744:2816   */\n      tag_156\n      jump\t// in\n    tag_243:\n        /* \"#utility.yul\":2491:2823   */\n      swap4\n      swap3\n      pop\n      pop\n      pop\n      jump\t// out\n        /* \"#utility.yul\":2829:3051   */\n    tag_38:\n        /* \"#utility.yul\":2922:2926   */\n      0x00\n        /* \"#utility.yul\":2960:2962   */\n      0x20\n        /* \"#utility.yul\":2949:2958   */\n      dup3\n        /* \"#utility.yul\":2945:2963   */\n      add\n        /* \"#utility.yul\":2937:2963   */\n      swap1\n      pop\n        /* \"#utility.yul\":2973:3044   */\n      tag_245\n        /* \"#utility.yul\":3041:3042   */\n      0x00\n        /* \"#utility.yul\":3030:3039   */\n      dup4\n        /* \"#utility.yul\":3026:3043   */\n      add\n        /* \"#utility.yul\":3017:3023   */\n      dup5\n        /* \"#utility.yul\":2973:3044   */\n      tag_156\n      jump\t// in\n    tag_245:\n        /* \"#utility.yul\":2829:3051   */\n      swap3\n      swap2\n      pop\n      pop\n      jump\t// out\n        /* \"#utility.yul\":3057:3386   */\n    tag_42:\n        /* \"#utility.yul\":3116:3122   */\n      0x00\n        /* \"#utility.yul\":3165:3167   */\n      0x20\n        /* \"#utility.yul\":3153:3162   */\n      dup3\n        /* \"#utility.yul\":3144:3151   */\n      dup5\n        /* \"#utility.yul\":3140:3163   */\n      sub\n        /* \"#utility.yul\":3136:3168   */\n      slt\n        /* \"#utility.yul\":3133:3252   */\n      iszero\n      tag_247\n      jumpi\n        /* \"#utility.yul\":3171:3250   */\n      tag_248\n      tag_161\n      jump\t// in\n    tag_248:\n        /* \"#utility.yul\":3133:3252   */\n    tag_247:\n        /* \"#utility.yul\":3291:3292   */\n      0x00\n        /* \"#utility.yul\":3316:3369   */\n      tag_249\n        /* \"#utility.yul\":3361:3368   */\n      dup5\n        /* \"#utility.yul\":3352:3358   */\n      dup3\n        /* \"#utility.yul\":3341:3350   */\n      dup6\n        /* \"#utility.yul\":3337:3359   */\n      add\n        /* \"#utility.yul\":3316:3369   */\n      tag_166\n      jump\t// in\n    tag_249:\n        /* \"#utility.yul\":3306:3369   */\n      swap2\n      pop\n        /* \"#utility.yul\":3262:3379   */\n      pop\n        /* \"#utility.yul\":3057:3386   */\n      swap3\n      swap2\n      pop\n      pop\n      jump\t// out\n        /* \"#utility.yul\":3392:3490   */\n    tag_167:\n        /* \"#utility.yul\":3443:3449   */\n      0x00\n        /* \"#utility.yul\":3477:3482   */\n      dup2\n        /* \"#utility.yul\":3471:3483   */\n      mload\n        /* \"#utility.yul\":3461:3483   */\n      swap1\n      pop\n        /* \"#utility.yul\":3392:3490   */\n      swap2\n      swap1\n      pop\n      jump\t// out\n        /* \"#utility.yul\":3496:3664   */\n    tag_168:\n        /* \"#utility.yul\":3579:3590   */\n      0x00\n        /* \"#utility.yul\":3613:3619   */\n      dup3\n        /* \"#utility.yul\":3608:3611   */\n      dup3\n        /* \"#utility.yul\":3601:3620   */\n      mstore\n        /* \"#utility.yul\":3653:3657   */\n      0x20\n        /* \"#utility.yul\":3648:3651   */\n      dup3\n        /* \"#utility.yul\":3644:3658   */\n      add\n        /* \"#utility.yul\":3629:3658   */\n      swap1\n      pop\n        /* \"#utility.yul\":3496:3664   */\n      swap3\n      swap2\n      pop\n      pop\n      jump\t// out\n        /* \"#utility.yul\":3670:3916   */\n    tag_169:\n        /* \"#utility.yul\":3751:3752   */\n      0x00\n        /* \"#utility.yul\":3761:3874   */\n    tag_253:\n        /* \"#utility.yul\":3775:3781   */\n      dup4\n        /* \"#utility.yul\":3772:3773   */\n      dup2\n        /* \"#utility.yul\":3769:3782   */\n      lt\n        /* \"#utility.yul\":3761:3874   */\n      iszero\n      tag_255\n      jumpi\n        /* \"#utility.yul\":3860:3861   */\n      dup1\n        /* \"#utility.yul\":3855:3858   */\n      dup3\n        /* \"#utility.yul\":3851:3862   */\n      add\n        /* \"#utility.yul\":3845:3863   */\n      mload\n        /* \"#utility.yul\":3841:3842   */\n      dup2\n        /* \"#utility.yul\":3836:3839   */\n      dup5\n        /* \"#utility.yul\":3832:3843   */\n      add\n        /* \"#utility.yul\":3825:3864   */\n      mstore\n        /* \"#utility.yul\":3797:3799   */\n      0x20\n        /* \"#utility.yul\":3794:3795   */\n      dup2\n        /* \"#utility.yul\":3790:3800   */\n      add\n        /* \"#utility.yul\":3785:3800   */\n      swap1\n      pop\n        /* \"#utility.yul\":3761:3874   */\n      jump(tag_253)\n    tag_255:\n        /* \"#utility.yul\":3908:3909   */\n      0x00\n        /* \"#utility.yul\":3899:3905   */\n      dup5\n        /* \"#utility.yul\":3894:3897   */\n      dup5\n        /* \"#utility.yul\":3890:3906   */\n      add\n        /* \"#utility.yul\":3883:3910   */\n      mstore\n        /* \"#utility.yul\":3732:3916   */\n      pop\n        /* \"#utility.yul\":3670:3916   */\n      pop\n      pop\n      pop\n      jump\t// out\n        /* \"#utility.yul\":3922:4024   */\n    tag_170:\n        /* \"#utility.yul\":3963:3969   */\n      0x00\n        /* \"#utility.yul\":4014:4016   */\n      0x1f\n        /* \"#utility.yul\":4010:4017   */\n      not\n        /* \"#utility.yul\":4005:4007   */\n      0x1f\n        /* \"#utility.yul\":3998:4003   */\n      dup4\n        /* \"#utility.yul\":3994:4008   */\n      add\n        /* \"#utility.yul\":3990:4018   */\n      and\n        /* \"#utility.yul\":3980:4018   */\n      swap1\n      pop\n        /* \"#utility.yul\":3922:4024   */\n      swap2\n      swap1\n      pop\n      jump\t// out\n        /* \"#utility.yul\":4030:4403   */\n    tag_171:\n        /* \"#utility.yul\":4116:4119   */\n      0x00\n        /* \"#utility.yul\":4144:4182   */\n      tag_258\n        /* \"#utility.yul\":4176:4181   */\n      dup3\n        /* \"#utility.yul\":4144:4182   */\n      tag_167\n      jump\t// in\n    tag_258:\n        /* \"#utility.yul\":4198:4268   */\n      tag_259\n        /* \"#utility.yul\":4261:4267   */\n      dup2\n        /* \"#utility.yul\":4256:4259   */\n      dup6\n        /* \"#utility.yul\":4198:4268   */\n      tag_168\n      jump\t// in\n    tag_259:\n        /* \"#utility.yul\":4191:4268   */\n      swap4\n      pop\n        /* \"#utility.yul\":4277:4342   */\n      tag_260\n        /* \"#utility.yul\":4335:4341   */\n      dup2\n        /* \"#utility.yul\":4330:4333   */\n      dup6\n        /* \"#utility.yul\":4323:4327   */\n      0x20\n        /* \"#utility.yul\":4316:4321   */\n      dup7\n        /* \"#utility.yul\":4312:4328   */\n      add\n        /* \"#utility.yul\":4277:4342   */\n      tag_169\n      jump\t// in\n    tag_260:\n        /* \"#utility.yul\":4367:4396   */\n      tag_261\n        /* \"#utility.yul\":4389:4395   */\n      dup2\n        /* \"#utility.yul\":4367:4396   */\n      tag_170\n      jump\t// in\n    tag_261:\n        /* \"#utility.yul\":4362:4365   */\n      dup5\n        /* \"#utility.yul\":4358:4397   */\n      add\n        /* \"#utility.yul\":4351:4397   */\n      swap2\n      pop\n        /* \"#utility.yul\":4120:4403   */\n      pop\n        /* \"#utility.yul\":4030:4403   */\n      swap3\n      swap2\n      pop\n      pop\n      jump\t// out\n        /* \"#utility.yul\":4409:4938   */\n    tag_45:\n        /* \"#utility.yul\":4576:4580   */\n      0x00\n        /* \"#utility.yul\":4614:4616   */\n      0x60\n        /* \"#utility.yul\":4603:4612   */\n      dup3\n        /* \"#utility.yul\":4599:4617   */\n      add\n        /* \"#utility.yul\":4591:4617   */\n      swap1\n      pop\n        /* \"#utility.yul\":4627:4698   */\n      tag_263\n        /* \"#utility.yul\":4695:4696   */\n      0x00\n        /* \"#utility.yul\":4684:4693   */\n      dup4\n        /* \"#utility.yul\":4680:4697   */\n      add\n        /* \"#utility.yul\":4671:4677   */\n      dup7\n        /* \"#utility.yul\":4627:4698   */\n      tag_159\n      jump\t// in\n    tag_263:\n        /* \"#utility.yul\":4708:4780   */\n      tag_264\n        /* \"#utility.yul\":4776:4778   */\n      0x20\n        /* \"#utility.yul\":4765:4774   */\n      dup4\n        /* \"#utility.yul\":4761:4779   */\n      add\n        /* \"#utility.yul\":4752:4758   */\n      dup6\n        /* \"#utility.yul\":4708:4780   */\n      tag_156\n      jump\t// in\n    tag_264:\n        /* \"#utility.yul\":4827:4836   */\n      dup2\n        /* \"#utility.yul\":4821:4825   */\n      dup2\n        /* \"#utility.yul\":4817:4837   */\n      sub\n        /* \"#utility.yul\":4812:4814   */\n      0x40\n        /* \"#utility.yul\":4801:4810   */\n      dup4\n        /* \"#utility.yul\":4797:4815   */\n      add\n        /* \"#utility.yul\":4790:4838   */\n      mstore\n        /* \"#utility.yul\":4855:4931   */\n      tag_265\n        /* \"#utility.yul\":4926:4930   */\n      dup2\n        /* \"#utility.yul\":4917:4923   */\n      dup5\n        /* \"#utility.yul\":4855:4931   */\n      tag_171\n      jump\t// in\n    tag_265:\n        /* \"#utility.yul\":4847:4931   */\n      swap1\n      pop\n        /* \"#utility.yul\":4409:4938   */\n      swap5\n      swap4\n      pop\n      pop\n      pop\n      pop\n      jump\t// out\n        /* \"#utility.yul\":4944:5061   */\n    tag_172:\n        /* \"#utility.yul\":5053:5054   */\n      0x00\n        /* \"#utility.yul\":5050:5051   */\n      dup1\n        /* \"#utility.yul\":5043:5055   */\n      revert\n        /* \"#utility.yul\":5067:5184   */\n    tag_173:\n        /* \"#utility.yul\":5176:5177   */\n      0x00\n        /* \"#utility.yul\":5173:5174   */\n      dup1\n        /* \"#utility.yul\":5166:5178   */\n      revert\n        /* \"#utility.yul\":5190:5370   */\n    tag_174:\n        /* \"#utility.yul\":5238:5315   */\n      0x4e487b7100000000000000000000000000000000000000000000000000000000\n        /* \"#utility.yul\":5235:5236   */\n      0x00\n        /* \"#utility.yul\":5228:5316   */\n      mstore\n        /* \"#utility.yul\":5335:5339   */\n      0x41\n        /* \"#utility.yul\":5332:5333   */\n      0x04\n        /* \"#utility.yul\":5325:5340   */\n      mstore\n        /* \"#utility.yul\":5359:5363   */\n      0x24\n        /* \"#utility.yul\":5356:5357   */\n      0x00\n        /* \"#utility.yul\":5349:5364   */\n      revert\n        /* \"#utility.yul\":5376:5657   */\n    tag_175:\n        /* \"#utility.yul\":5459:5486   */\n      tag_270\n        /* \"#utility.yul\":5481:5485   */\n      dup3\n        /* \"#utility.yul\":5459:5486   */\n      tag_170\n      jump\t// in\n    tag_270:\n        /* \"#utility.yul\":5451:5457   */\n      dup2\n        /* \"#utility.yul\":5447:5487   */\n      add\n        /* \"#utility.yul\":5589:5595   */\n      dup2\n        /* \"#utility.yul\":5577:5587   */\n      dup2\n        /* \"#utility.yul\":5574:5596   */\n      lt\n        /* \"#utility.yul\":5553:5571   */\n      0xffffffffffffffff\n        /* \"#utility.yul\":5541:5551   */\n      dup3\n        /* \"#utility.yul\":5538:5572   */\n      gt\n        /* \"#utility.yul\":5535:5597   */\n      or\n        /* \"#utility.yul\":5532:5620   */\n      iszero\n      tag_271\n      jumpi\n        /* \"#utility.yul\":5600:5618   */\n      tag_272\n      tag_174\n      jump\t// in\n    tag_272:\n        /* \"#utility.yul\":5532:5620   */\n    tag_271:\n        /* \"#utility.yul\":5640:5650   */\n      dup1\n        /* \"#utility.yul\":5636:5638   */\n      0x40\n        /* \"#utility.yul\":5629:5651   */\n      mstore\n        /* \"#utility.yul\":5419:5657   */\n      pop\n        /* \"#utility.yul\":5376:5657   */\n      pop\n      pop\n      jump\t// out\n        /* \"#utility.yul\":5663:5792   */\n    tag_176:\n        /* \"#utility.yul\":5697:5703   */\n      0x00\n        /* \"#utility.yul\":5724:5744   */\n      tag_274\n      tag_160\n      jump\t// in\n    tag_274:\n        /* \"#utility.yul\":5714:5744   */\n      swap1\n      pop\n        /* \"#utility.yul\":5753:5786   */\n      tag_275\n        /* \"#utility.yul\":5781:5785   */\n      dup3\n        /* \"#utility.yul\":5773:5779   */\n      dup3\n        /* \"#utility.yul\":5753:5786   */\n      tag_175\n      jump\t// in\n    tag_275:\n        /* \"#utility.yul\":5663:5792   */\n      swap2\n      swap1\n      pop\n      jump\t// out\n        /* \"#utility.yul\":5798:6105   */\n    tag_177:\n        /* \"#utility.yul\":5859:5863   */\n      0x00\n        /* \"#utility.yul\":5949:5967   */\n      0xffffffffffffffff\n        /* \"#utility.yul\":5941:5947   */\n      dup3\n        /* \"#utility.yul\":5938:5968   */\n      gt\n        /* \"#utility.yul\":5935:5991   */\n      iszero\n      tag_277\n      jumpi\n        /* \"#utility.yul\":5971:5989   */\n      tag_278\n      tag_174\n      jump\t// in\n    tag_278:\n        /* \"#utility.yul\":5935:5991   */\n    tag_277:\n        /* \"#utility.yul\":6009:6038   */\n      tag_279\n        /* \"#utility.yul\":6031:6037   */\n      dup3\n        /* \"#utility.yul\":6009:6038   */\n      tag_170\n      jump\t// in\n    tag_279:\n        /* \"#utility.yul\":6001:6038   */\n      swap1\n      pop\n        /* \"#utility.yul\":6093:6097   */\n      0x20\n        /* \"#utility.yul\":6087:6091   */\n      dup2\n        /* \"#utility.yul\":6083:6098   */\n      add\n        /* \"#utility.yul\":6075:6098   */\n      swap1\n      pop\n        /* \"#utility.yul\":5798:6105   */\n      swap2\n      swap1\n      pop\n      jump\t// out\n        /* \"#utility.yul\":6111:6257   */\n    tag_178:\n        /* \"#utility.yul\":6208:6214   */\n      dup3\n        /* \"#utility.yul\":6203:6206   */\n      dup2\n        /* \"#utility.yul\":6198:6201   */\n      dup4\n        /* \"#utility.yul\":6185:6215   */\n      calldatacopy\n        /* \"#utility.yul\":6249:6250   */\n      0x00\n        /* \"#utility.yul\":6240:6246   */\n      dup4\n        /* \"#utility.yul\":6235:6238   */\n      dup4\n        /* \"#utility.yul\":6231:6247   */\n      add\n        /* \"#utility.yul\":6224:6251   */\n      mstore\n        /* \"#utility.yul\":6111:6257   */\n      pop\n      pop\n      pop\n      jump\t// out\n        /* \"#utility.yul\":6263:6686   */\n    tag_179:\n        /* \"#utility.yul\":6340:6345   */\n      0x00\n        /* \"#utility.yul\":6365:6430   */\n      tag_282\n        /* \"#utility.yul\":6381:6429   */\n      tag_283\n        /* \"#utility.yul\":6422:6428   */\n      dup5\n        /* \"#utility.yul\":6381:6429   */\n      tag_177\n      jump\t// in\n    tag_283:\n        /* \"#utility.yul\":6365:6430   */\n      tag_176\n      jump\t// in\n    tag_282:\n        /* \"#utility.yul\":6356:6430   */\n      swap1\n      pop\n        /* \"#utility.yul\":6453:6459   */\n      dup3\n        /* \"#utility.yul\":6446:6451   */\n      dup2\n        /* \"#utility.yul\":6439:6460   */\n      mstore\n        /* \"#utility.yul\":6491:6495   */\n      0x20\n        /* \"#utility.yul\":6484:6489   */\n      dup2\n        /* \"#utility.yul\":6480:6496   */\n      add\n        /* \"#utility.yul\":6529:6532   */\n      dup5\n        /* \"#utility.yul\":6520:6526   */\n      dup5\n        /* \"#utility.yul\":6515:6518   */\n      dup5\n        /* \"#utility.yul\":6511:6527   */\n      add\n        /* \"#utility.yul\":6508:6533   */\n      gt\n        /* \"#utility.yul\":6505:6617   */\n      iszero\n      tag_284\n      jumpi\n        /* \"#utility.yul\":6536:6615   */\n      tag_285\n      tag_173\n      jump\t// in\n    tag_285:\n        /* \"#utility.yul\":6505:6617   */\n    tag_284:\n        /* \"#utility.yul\":6626:6680   */\n      tag_286\n        /* \"#utility.yul\":6673:6679   */\n      dup5\n        /* \"#utility.yul\":6668:6671   */\n      dup3\n        /* \"#utility.yul\":6663:6666   */\n      dup6\n        /* \"#utility.yul\":6626:6680   */\n      tag_178\n      jump\t// in\n    tag_286:\n        /* \"#utility.yul\":6346:6686   */\n      pop\n        /* \"#utility.yul\":6263:6686   */\n      swap4\n      swap3\n      pop\n      pop\n      pop\n      jump\t// out\n        /* \"#utility.yul\":6705:7043   */\n    tag_180:\n        /* \"#utility.yul\":6760:6765   */\n      0x00\n        /* \"#utility.yul\":6809:6812   */\n      dup3\n        /* \"#utility.yul\":6802:6806   */\n      0x1f\n        /* \"#utility.yul\":6794:6800   */\n      dup4\n        /* \"#utility.yul\":6790:6807   */\n      add\n        /* \"#utility.yul\":6786:6813   */\n      slt\n        /* \"#utility.yul\":6776:6898   */\n      tag_288\n      jumpi\n        /* \"#utility.yul\":6817:6896   */\n      tag_289\n      tag_172\n      jump\t// in\n    tag_289:\n        /* \"#utility.yul\":6776:6898   */\n    tag_288:\n        /* \"#utility.yul\":6934:6940   */\n      dup2\n        /* \"#utility.yul\":6921:6941   */\n      calldataload\n        /* \"#utility.yul\":6959:7037   */\n      tag_290\n        /* \"#utility.yul\":7033:7036   */\n      dup5\n        /* \"#utility.yul\":7025:7031   */\n      dup3\n        /* \"#utility.yul\":7018:7022   */\n      0x20\n        /* \"#utility.yul\":7010:7016   */\n      dup7\n        /* \"#utility.yul\":7006:7023   */\n      add\n        /* \"#utility.yul\":6959:7037   */\n      tag_179\n      jump\t// in\n    tag_290:\n        /* \"#utility.yul\":6950:7037   */\n      swap2\n      pop\n        /* \"#utility.yul\":6766:7043   */\n      pop\n        /* \"#utility.yul\":6705:7043   */\n      swap3\n      swap2\n      pop\n      pop\n      jump\t// out\n        /* \"#utility.yul\":7049:7846   */\n    tag_49:\n        /* \"#utility.yul\":7135:7141   */\n      0x00\n        /* \"#utility.yul\":7143:7149   */\n      dup1\n        /* \"#utility.yul\":7151:7157   */\n      0x00\n        /* \"#utility.yul\":7200:7202   */\n      0x60\n        /* \"#utility.yul\":7188:7197   */\n      dup5\n        /* \"#utility.yul\":7179:7186   */\n      dup7\n        /* \"#utility.yul\":7175:7198   */\n      sub\n        /* \"#utility.yul\":7171:7203   */\n      slt\n        /* \"#utility.yul\":7168:7287   */\n      iszero\n      tag_292\n      jumpi\n        /* \"#utility.yul\":7206:7285   */\n      tag_293\n      tag_161\n      jump\t// in\n    tag_293:\n        /* \"#utility.yul\":7168:7287   */\n    tag_292:\n        /* \"#utility.yul\":7326:7327   */\n      0x00\n        /* \"#utility.yul\":7351:7404   */\n      tag_294\n        /* \"#utility.yul\":7396:7403   */\n      dup7\n        /* \"#utility.yul\":7387:7393   */\n      dup3\n        /* \"#utility.yul\":7376:7385   */\n      dup8\n        /* \"#utility.yul\":7372:7394   */\n      add\n        /* \"#utility.yul\":7351:7404   */\n      tag_164\n      jump\t// in\n    tag_294:\n        /* \"#utility.yul\":7341:7404   */\n      swap4\n      pop\n        /* \"#utility.yul\":7297:7414   */\n      pop\n        /* \"#utility.yul\":7453:7455   */\n      0x20\n        /* \"#utility.yul\":7479:7532   */\n      tag_295\n        /* \"#utility.yul\":7524:7531   */\n      dup7\n        /* \"#utility.yul\":7515:7521   */\n      dup3\n        /* \"#utility.yul\":7504:7513   */\n      dup8\n        /* \"#utility.yul\":7500:7522   */\n      add\n        /* \"#utility.yul\":7479:7532   */\n      tag_166\n      jump\t// in\n    tag_295:\n        /* \"#utility.yul\":7469:7532   */\n      swap3\n      pop\n        /* \"#utility.yul\":7424:7542   */\n      pop\n        /* \"#utility.yul\":7609:7611   */\n      0x40\n        /* \"#utility.yul\":7598:7607   */\n      dup5\n        /* \"#utility.yul\":7594:7612   */\n      add\n        /* \"#utility.yul\":7581:7613   */\n      calldataload\n        /* \"#utility.yul\":7640:7658   */\n      0xffffffffffffffff\n        /* \"#utility.yul\":7632:7638   */\n      dup2\n        /* \"#utility.yul\":7629:7659   */\n      gt\n        /* \"#utility.yul\":7626:7743   */\n      iszero\n      tag_296\n      jumpi\n        /* \"#utility.yul\":7662:7741   */\n      tag_297\n      tag_162\n      jump\t// in\n    tag_297:\n        /* \"#utility.yul\":7626:7743   */\n    tag_296:\n        /* \"#utility.yul\":7767:7829   */\n      tag_298\n        /* \"#utility.yul\":7821:7828   */\n      dup7\n        /* \"#utility.yul\":7812:7818   */\n      dup3\n        /* \"#utility.yul\":7801:7810   */\n      dup8\n        /* \"#utility.yul\":7797:7819   */\n      add\n        /* \"#utility.yul\":7767:7829   */\n      tag_180\n      jump\t// in\n    tag_298:\n        /* \"#utility.yul\":7757:7829   */\n      swap2\n      pop\n        /* \"#utility.yul\":7552:7839   */\n      pop\n        /* \"#utility.yul\":7049:7846   */\n      swap3\n      pop\n      swap3\n      pop\n      swap3\n      jump\t// out\n        /* \"#utility.yul\":7852:8181   */\n    tag_54:\n        /* \"#utility.yul\":7911:7917   */\n      0x00\n        /* \"#utility.yul\":7960:7962   */\n      0x20\n        /* \"#utility.yul\":7948:7957   */\n      dup3\n        /* \"#utility.yul\":7939:7946   */\n      dup5\n        /* \"#utility.yul\":7935:7958   */\n      sub\n        /* \"#utility.yul\":7931:7963   */\n      slt\n        /* \"#utility.yul\":7928:8047   */\n      iszero\n      tag_300\n      jumpi\n        /* \"#utility.yul\":7966:8045   */\n      tag_301\n      tag_161\n      jump\t// in\n    tag_301:\n        /* \"#utility.yul\":7928:8047   */\n    tag_300:\n        /* \"#utility.yul\":8086:8087   */\n      0x00\n        /* \"#utility.yul\":8111:8164   */\n      tag_302\n        /* \"#utility.yul\":8156:8163   */\n      dup5\n        /* \"#utility.yul\":8147:8153   */\n      dup3\n        /* \"#utility.yul\":8136:8145   */\n      dup6\n        /* \"#utility.yul\":8132:8154   */\n      add\n        /* \"#utility.yul\":8111:8164   */\n      tag_164\n      jump\t// in\n    tag_302:\n        /* \"#utility.yul\":8101:8164   */\n      swap2\n      pop\n        /* \"#utility.yul\":8057:8174   */\n      pop\n        /* \"#utility.yul\":7852:8181   */\n      swap3\n      swap2\n      pop\n      pop\n      jump\t// out\n        /* \"#utility.yul\":8187:8301   */\n    tag_181:\n        /* \"#utility.yul\":8254:8260   */\n      0x00\n        /* \"#utility.yul\":8288:8293   */\n      dup2\n        /* \"#utility.yul\":8282:8294   */\n      mload\n        /* \"#utility.yul\":8272:8294   */\n      swap1\n      pop\n        /* \"#utility.yul\":8187:8301   */\n      swap2\n      swap1\n      pop\n      jump\t// out\n        /* \"#utility.yul\":8307:8491   */\n    tag_182:\n        /* \"#utility.yul\":8406:8417   */\n      0x00\n        /* \"#utility.yul\":8440:8446   */\n      dup3\n        /* \"#utility.yul\":8435:8438   */\n      dup3\n        /* \"#utility.yul\":8428:8447   */\n      mstore\n        /* \"#utility.yul\":8480:8484   */\n      0x20\n        /* \"#utility.yul\":8475:8478   */\n      dup3\n        /* \"#utility.yul\":8471:8485   */\n      add\n        /* \"#utility.yul\":8456:8485   */\n      swap1\n      pop\n        /* \"#utility.yul\":8307:8491   */\n      swap3\n      swap2\n      pop\n      pop\n      jump\t// out\n        /* \"#utility.yul\":8497:8629   */\n    tag_183:\n        /* \"#utility.yul\":8564:8568   */\n      0x00\n        /* \"#utility.yul\":8587:8590   */\n      dup2\n        /* \"#utility.yul\":8579:8590   */\n      swap1\n      pop\n        /* \"#utility.yul\":8617:8621   */\n      0x20\n        /* \"#utility.yul\":8612:8615   */\n      dup3\n        /* \"#utility.yul\":8608:8622   */\n      add\n        /* \"#utility.yul\":8600:8622   */\n      swap1\n      pop\n        /* \"#utility.yul\":8497:8629   */\n      swap2\n      swap1\n      pop\n      jump\t// out\n        /* \"#utility.yul\":8635:8743   */\n    tag_184:\n        /* \"#utility.yul\":8712:8736   */\n      tag_307\n        /* \"#utility.yul\":8730:8735   */\n      dup2\n        /* \"#utility.yul\":8712:8736   */\n      tag_155\n      jump\t// in\n    tag_307:\n        /* \"#utility.yul\":8707:8710   */\n      dup3\n        /* \"#utility.yul\":8700:8737   */\n      mstore\n        /* \"#utility.yul\":8635:8743   */\n      pop\n      pop\n      jump\t// out\n        /* \"#utility.yul\":8749:8928   */\n    tag_185:\n        /* \"#utility.yul\":8818:8828   */\n      0x00\n        /* \"#utility.yul\":8839:8885   */\n      tag_309\n        /* \"#utility.yul\":8881:8884   */\n      dup4\n        /* \"#utility.yul\":8873:8879   */\n      dup4\n        /* \"#utility.yul\":8839:8885   */\n      tag_184\n      jump\t// in\n    tag_309:\n        /* \"#utility.yul\":8917:8921   */\n      0x20\n        /* \"#utility.yul\":8912:8915   */\n      dup4\n        /* \"#utility.yul\":8908:8922   */\n      add\n        /* \"#utility.yul\":8894:8922   */\n      swap1\n      pop\n        /* \"#utility.yul\":8749:8928   */\n      swap3\n      swap2\n      pop\n      pop\n      jump\t// out\n        /* \"#utility.yul\":8934:9047   */\n    tag_186:\n        /* \"#utility.yul\":9004:9008   */\n      0x00\n        /* \"#utility.yul\":9036:9040   */\n      0x20\n        /* \"#utility.yul\":9031:9034   */\n      dup3\n        /* \"#utility.yul\":9027:9041   */\n      add\n        /* \"#utility.yul\":9019:9041   */\n      swap1\n      pop\n        /* \"#utility.yul\":8934:9047   */\n      swap2\n      swap1\n      pop\n      jump\t// out\n        /* \"#utility.yul\":9083:9815   */\n    tag_187:\n        /* \"#utility.yul\":9202:9205   */\n      0x00\n        /* \"#utility.yul\":9231:9285   */\n      tag_312\n        /* \"#utility.yul\":9279:9284   */\n      dup3\n        /* \"#utility.yul\":9231:9285   */\n      tag_181\n      jump\t// in\n    tag_312:\n        /* \"#utility.yul\":9301:9387   */\n      tag_313\n        /* \"#utility.yul\":9380:9386   */\n      dup2\n        /* \"#utility.yul\":9375:9378   */\n      dup6\n        /* \"#utility.yul\":9301:9387   */\n      tag_182\n      jump\t// in\n    tag_313:\n        /* \"#utility.yul\":9294:9387   */\n      swap4\n      pop\n        /* \"#utility.yul\":9411:9467   */\n      tag_314\n        /* \"#utility.yul\":9461:9466   */\n      dup4\n        /* \"#utility.yul\":9411:9467   */\n      tag_183\n      jump\t// in\n    tag_314:\n        /* \"#utility.yul\":9490:9497   */\n      dup1\n        /* \"#utility.yul\":9521:9522   */\n      0x00\n        /* \"#utility.yul\":9506:9790   */\n    tag_315:\n        /* \"#utility.yul\":9531:9537   */\n      dup4\n        /* \"#utility.yul\":9528:9529   */\n      dup2\n        /* \"#utility.yul\":9525:9538   */\n      lt\n        /* \"#utility.yul\":9506:9790   */\n      iszero\n      tag_317\n      jumpi\n        /* \"#utility.yul\":9607:9613   */\n      dup2\n        /* \"#utility.yul\":9601:9614   */\n      mload\n        /* \"#utility.yul\":9634:9697   */\n      tag_318\n        /* \"#utility.yul\":9693:9696   */\n      dup9\n        /* \"#utility.yul\":9678:9691   */\n      dup3\n        /* \"#utility.yul\":9634:9697   */\n      tag_185\n      jump\t// in\n    tag_318:\n        /* \"#utility.yul\":9627:9697   */\n      swap8\n      pop\n        /* \"#utility.yul\":9720:9780   */\n      tag_319\n        /* \"#utility.yul\":9773:9779   */\n      dup4\n        /* \"#utility.yul\":9720:9780   */\n      tag_186\n      jump\t// in\n    tag_319:\n        /* \"#utility.yul\":9710:9780   */\n      swap3\n      pop\n        /* \"#utility.yul\":9566:9790   */\n      pop\n        /* \"#utility.yul\":9553:9554   */\n      0x01\n        /* \"#utility.yul\":9550:9551   */\n      dup2\n        /* \"#utility.yul\":9546:9555   */\n      add\n        /* \"#utility.yul\":9541:9555   */\n      swap1\n      pop\n        /* \"#utility.yul\":9506:9790   */\n      jump(tag_315)\n    tag_317:\n        /* \"#utility.yul\":9510:9524   */\n      pop\n        /* \"#utility.yul\":9806:9809   */\n      dup6\n        /* \"#utility.yul\":9799:9809   */\n      swap4\n      pop\n        /* \"#utility.yul\":9207:9815   */\n      pop\n      pop\n      pop\n        /* \"#utility.yul\":9083:9815   */\n      swap3\n      swap2\n      pop\n      pop\n      jump\t// out\n        /* \"#utility.yul\":9821:10194   */\n    tag_76:\n        /* \"#utility.yul\":9964:9968   */\n      0x00\n        /* \"#utility.yul\":10002:10004   */\n      0x20\n        /* \"#utility.yul\":9991:10000   */\n      dup3\n        /* \"#utility.yul\":9987:10005   */\n      add\n        /* \"#utility.yul\":9979:10005   */\n      swap1\n      pop\n        /* \"#utility.yul\":10051:10060   */\n      dup2\n        /* \"#utility.yul\":10045:10049   */\n      dup2\n        /* \"#utility.yul\":10041:10061   */\n      sub\n        /* \"#utility.yul\":10037:10038   */\n      0x00\n        /* \"#utility.yul\":10026:10035   */\n      dup4\n        /* \"#utility.yul\":10022:10039   */\n      add\n        /* \"#utility.yul\":10015:10062   */\n      mstore\n        /* \"#utility.yul\":10079:10187   */\n      tag_321\n        /* \"#utility.yul\":10182:10186   */\n      dup2\n        /* \"#utility.yul\":10173:10179   */\n      dup5\n        /* \"#utility.yul\":10079:10187   */\n      tag_187\n      jump\t// in\n    tag_321:\n        /* \"#utility.yul\":10071:10187   */\n      swap1\n      pop\n        /* \"#utility.yul\":9821:10194   */\n      swap3\n      swap2\n      pop\n      pop\n      jump\t// out\n        /* \"#utility.yul\":10200:10819   */\n    tag_80:\n        /* \"#utility.yul\":10277:10283   */\n      0x00\n        /* \"#utility.yul\":10285:10291   */\n      dup1\n        /* \"#utility.yul\":10293:10299   */\n      0x00\n        /* \"#utility.yul\":10342:10344   */\n      0x60\n        /* \"#utility.yul\":10330:10339   */\n      dup5\n        /* \"#utility.yul\":10321:10328   */\n      dup7\n        /* \"#utility.yul\":10317:10340   */\n      sub\n        /* \"#utility.yul\":10313:10345   */\n      slt\n        /* \"#utility.yul\":10310:10429   */\n      iszero\n      tag_323\n      jumpi\n        /* \"#utility.yul\":10348:10427   */\n      tag_324\n      tag_161\n      jump\t// in\n    tag_324:\n        /* \"#utility.yul\":10310:10429   */\n    tag_323:\n        /* \"#utility.yul\":10468:10469   */\n      0x00\n        /* \"#utility.yul\":10493:10546   */\n      tag_325\n        /* \"#utility.yul\":10538:10545   */\n      dup7\n        /* \"#utility.yul\":10529:10535   */\n      dup3\n        /* \"#utility.yul\":10518:10527   */\n      dup8\n        /* \"#utility.yul\":10514:10536   */\n      add\n        /* \"#utility.yul\":10493:10546   */\n      tag_164\n      jump\t// in\n    tag_325:\n        /* \"#utility.yul\":10483:10546   */\n      swap4\n      pop\n        /* \"#utility.yul\":10439:10556   */\n      pop\n        /* \"#utility.yul\":10595:10597   */\n      0x20\n        /* \"#utility.yul\":10621:10674   */\n      tag_326\n        /* \"#utility.yul\":10666:10673   */\n      dup7\n        /* \"#utility.yul\":10657:10663   */\n      dup3\n        /* \"#utility.yul\":10646:10655   */\n      dup8\n        /* \"#utility.yul\":10642:10664   */\n      add\n        /* \"#utility.yul\":10621:10674   */\n      tag_164\n      jump\t// in\n    tag_326:\n        /* \"#utility.yul\":10611:10674   */\n      swap3\n      pop\n        /* \"#utility.yul\":10566:10684   */\n      pop\n        /* \"#utility.yul\":10723:10725   */\n      0x40\n        /* \"#utility.yul\":10749:10802   */\n      tag_327\n        /* \"#utility.yul\":10794:10801   */\n      dup7\n        /* \"#utility.yul\":10785:10791   */\n      dup3\n        /* \"#utility.yul\":10774:10783   */\n      dup8\n        /* \"#utility.yul\":10770:10792   */\n      add\n        /* \"#utility.yul\":10749:10802   */\n      tag_166\n      jump\t// in\n    tag_327:\n        /* \"#utility.yul\":10739:10802   */\n      swap2\n      pop\n        /* \"#utility.yul\":10694:10812   */\n      pop\n        /* \"#utility.yul\":10200:10819   */\n      swap3\n      pop\n      swap3\n      pop\n      swap3\n      jump\t// out\n        /* \"#utility.yul\":10825:10924   */\n    tag_188:\n        /* \"#utility.yul\":10877:10883   */\n      0x00\n        /* \"#utility.yul\":10911:10916   */\n      dup2\n        /* \"#utility.yul\":10905:10917   */\n      mload\n        /* \"#utility.yul\":10895:10917   */\n      swap1\n      pop\n        /* \"#utility.yul\":10825:10924   */\n      swap2\n      swap1\n      pop\n      jump\t// out\n        /* \"#utility.yul\":10930:11099   */\n    tag_189:\n        /* \"#utility.yul\":11014:11025   */\n      0x00\n        /* \"#utility.yul\":11048:11054   */\n      dup3\n        /* \"#utility.yul\":11043:11046   */\n      dup3\n        /* \"#utility.yul\":11036:11055   */\n      mstore\n        /* \"#utility.yul\":11088:11092   */\n      0x20\n        /* \"#utility.yul\":11083:11086   */\n      dup3\n        /* \"#utility.yul\":11079:11093   */\n      add\n        /* \"#utility.yul\":11064:11093   */\n      swap1\n      pop\n        /* \"#utility.yul\":10930:11099   */\n      swap3\n      swap2\n      pop\n      pop\n      jump\t// out\n        /* \"#utility.yul\":11105:11482   */\n    tag_190:\n        /* \"#utility.yul\":11193:11196   */\n      0x00\n        /* \"#utility.yul\":11221:11260   */\n      tag_331\n        /* \"#utility.yul\":11254:11259   */\n      dup3\n        /* \"#utility.yul\":11221:11260   */\n      tag_188\n      jump\t// in\n    tag_331:\n        /* \"#utility.yul\":11276:11347   */\n      tag_332\n        /* \"#utility.yul\":11340:11346   */\n      dup2\n        /* \"#utility.yul\":11335:11338   */\n      dup6\n        /* \"#utility.yul\":11276:11347   */\n      tag_189\n      jump\t// in\n    tag_332:\n        /* \"#utility.yul\":11269:11347   */\n      swap4\n      pop\n        /* \"#utility.yul\":11356:11421   */\n      tag_333\n        /* \"#utility.yul\":11414:11420   */\n      dup2\n        /* \"#utility.yul\":11409:11412   */\n      dup6\n        /* \"#utility.yul\":11402:11406   */\n      0x20\n        /* \"#utility.yul\":11395:11400   */\n      dup7\n        /* \"#utility.yul\":11391:11407   */\n      add\n        /* \"#utility.yul\":11356:11421   */\n      tag_169\n      jump\t// in\n    tag_333:\n        /* \"#utility.yul\":11446:11475   */\n      tag_334\n        /* \"#utility.yul\":11468:11474   */\n      dup2\n        /* \"#utility.yul\":11446:11475   */\n      tag_170\n      jump\t// in\n    tag_334:\n        /* \"#utility.yul\":11441:11444   */\n      dup5\n        /* \"#utility.yul\":11437:11476   */\n      add\n        /* \"#utility.yul\":11430:11476   */\n      swap2\n      pop\n        /* \"#utility.yul\":11197:11482   */\n      pop\n        /* \"#utility.yul\":11105:11482   */\n      swap3\n      swap2\n      pop\n      pop\n      jump\t// out\n        /* \"#utility.yul\":11488:11801   */\n    tag_91:\n        /* \"#utility.yul\":11601:11605   */\n      0x00\n        /* \"#utility.yul\":11639:11641   */\n      0x20\n        /* \"#utility.yul\":11628:11637   */\n      dup3\n        /* \"#utility.yul\":11624:11642   */\n      add\n        /* \"#utility.yul\":11616:11642   */\n      swap1\n      pop\n        /* \"#utility.yul\":11688:11697   */\n      dup2\n        /* \"#utility.yul\":11682:11686   */\n      dup2\n        /* \"#utility.yul\":11678:11698   */\n      sub\n        /* \"#utility.yul\":11674:11675   */\n      0x00\n        /* \"#utility.yul\":11663:11672   */\n      dup4\n        /* \"#utility.yul\":11659:11676   */\n      add\n        /* \"#utility.yul\":11652:11699   */\n      mstore\n        /* \"#utility.yul\":11716:11794   */\n      tag_336\n        /* \"#utility.yul\":11789:11793   */\n      dup2\n        /* \"#utility.yul\":11780:11786   */\n      dup5\n        /* \"#utility.yul\":11716:11794   */\n      tag_190\n      jump\t// in\n    tag_336:\n        /* \"#utility.yul\":11708:11794   */\n      swap1\n      pop\n        /* \"#utility.yul\":11488:11801   */\n      swap3\n      swap2\n      pop\n      pop\n      jump\t// out\n        /* \"#utility.yul\":11807:11987   */\n    tag_98:\n        /* \"#utility.yul\":11855:11932   */\n      0x4e487b7100000000000000000000000000000000000000000000000000000000\n        /* \"#utility.yul\":11852:11853   */\n      0x00\n        /* \"#utility.yul\":11845:11933   */\n      mstore\n        /* \"#utility.yul\":11952:11956   */\n      0x32\n        /* \"#utility.yul\":11949:11950   */\n      0x04\n        /* \"#utility.yul\":11942:11957   */\n      mstore\n        /* \"#utility.yul\":11976:11980   */\n      0x24\n        /* \"#utility.yul\":11973:11974   */\n      0x00\n        /* \"#utility.yul\":11966:11981   */\n      revert\n        /* \"#utility.yul\":11993:12173   */\n    tag_191:\n        /* \"#utility.yul\":12041:12118   */\n      0x4e487b7100000000000000000000000000000000000000000000000000000000\n        /* \"#utility.yul\":12038:12039   */\n      0x00\n        /* \"#utility.yul\":12031:12119   */\n      mstore\n        /* \"#utility.yul\":12138:12142   */\n      0x22\n        /* \"#utility.yul\":12135:12136   */\n      0x04\n        /* \"#utility.yul\":12128:12143   */\n      mstore\n        /* \"#utility.yul\":12162:12166   */\n      0x24\n        /* \"#utility.yul\":12159:12160   */\n      0x00\n        /* \"#utility.yul\":12152:12167   */\n      revert\n        /* \"#utility.yul\":12179:12499   */\n    tag_101:\n        /* \"#utility.yul\":12223:12229   */\n      0x00\n        /* \"#utility.yul\":12260:12261   */\n      0x02\n        /* \"#utility.yul\":12254:12258   */\n      dup3\n        /* \"#utility.yul\":12250:12262   */\n      div\n        /* \"#utility.yul\":12240:12262   */\n      swap1\n      pop\n        /* \"#utility.yul\":12307:12308   */\n      0x01\n        /* \"#utility.yul\":12301:12305   */\n      dup3\n        /* \"#utility.yul\":12297:12309   */\n      and\n        /* \"#utility.yul\":12328:12346   */\n      dup1\n        /* \"#utility.yul\":12318:12399   */\n      tag_340\n      jumpi\n        /* \"#utility.yul\":12384:12388   */\n      0x7f\n        /* \"#utility.yul\":12376:12382   */\n      dup3\n        /* \"#utility.yul\":12372:12389   */\n      and\n        /* \"#utility.yul\":12362:12389   */\n      swap2\n      pop\n        /* \"#utility.yul\":12318:12399   */\n    tag_340:\n        /* \"#utility.yul\":12446:12448   */\n      0x20\n        /* \"#utility.yul\":12438:12444   */\n      dup3\n        /* \"#utility.yul\":12435:12449   */\n      lt\n        /* \"#utility.yul\":12415:12433   */\n      dup2\n        /* \"#utility.yul\":12412:12450   */\n      sub\n        /* \"#utility.yul\":12409:12493   */\n      tag_341\n      jumpi\n        /* \"#utility.yul\":12465:12483   */\n      tag_342\n      tag_191\n      jump\t// in\n    tag_342:\n        /* \"#utility.yul\":12409:12493   */\n    tag_341:\n        /* \"#utility.yul\":12230:12499   */\n      pop\n        /* \"#utility.yul\":12179:12499   */\n      swap2\n      swap1\n      pop\n      jump\t// out\n        /* \"#utility.yul\":12505:12645   */\n    tag_192:\n        /* \"#utility.yul\":12553:12557   */\n      0x00\n        /* \"#utility.yul\":12576:12579   */\n      dup2\n        /* \"#utility.yul\":12568:12579   */\n      swap1\n      pop\n        /* \"#utility.yul\":12599:12602   */\n      dup2\n        /* \"#utility.yul\":12596:12597   */\n      0x00\n        /* \"#utility.yul\":12589:12603   */\n      mstore\n        /* \"#utility.yul\":12633:12637   */\n      0x20\n        /* \"#utility.yul\":12630:12631   */\n      0x00\n        /* \"#utility.yul\":12620:12638   */\n      keccak256\n        /* \"#utility.yul\":12612:12638   */\n      swap1\n      pop\n        /* \"#utility.yul\":12505:12645   */\n      swap2\n      swap1\n      pop\n      jump\t// out\n        /* \"#utility.yul\":12651:12744   */\n    tag_193:\n        /* \"#utility.yul\":12688:12694   */\n      0x00\n        /* \"#utility.yul\":12735:12737   */\n      0x20\n        /* \"#utility.yul\":12730:12732   */\n      0x1f\n        /* \"#utility.yul\":12723:12728   */\n      dup4\n        /* \"#utility.yul\":12719:12733   */\n      add\n        /* \"#utility.yul\":12715:12738   */\n      div\n        /* \"#utility.yul\":12705:12738   */\n      swap1\n      pop\n        /* \"#utility.yul\":12651:12744   */\n      swap2\n      swap1\n      pop\n      jump\t// out\n        /* \"#utility.yul\":12750:12857   */\n    tag_194:\n        /* \"#utility.yul\":12794:12802   */\n      0x00\n        /* \"#utility.yul\":12844:12849   */\n      dup3\n        /* \"#utility.yul\":12838:12842   */\n      dup3\n        /* \"#utility.yul\":12834:12850   */\n      shl\n        /* \"#utility.yul\":12813:12850   */\n      swap1\n      pop\n        /* \"#utility.yul\":12750:12857   */\n      swap3\n      swap2\n      pop\n      pop\n      jump\t// out\n        /* \"#utility.yul\":12863:13256   */\n    tag_195:\n        /* \"#utility.yul\":12932:12938   */\n      0x00\n        /* \"#utility.yul\":12982:12983   */\n      0x08\n        /* \"#utility.yul\":12970:12980   */\n      dup4\n        /* \"#utility.yul\":12966:12984   */\n      mul\n        /* \"#utility.yul\":13005:13102   */\n      tag_347\n        /* \"#utility.yul\":13035:13101   */\n      0xffffffffffffffffffffffffffffffffffffffffffffffffffffffffffffffff\n        /* \"#utility.yul\":13024:13033   */\n      dup3\n        /* \"#utility.yul\":13005:13102   */\n      tag_194\n      jump\t// in\n    tag_347:\n        /* \"#utility.yul\":13123:13162   */\n      tag_348\n        /* \"#utility.yul\":13153:13161   */\n      dup7\n        /* \"#utility.yul\":13142:13151   */\n      dup4\n        /* \"#utility.yul\":13123:13162   */\n      tag_194\n      jump\t// in\n    tag_348:\n        /* \"#utility.yul\":13111:13162   */\n      swap6\n      pop\n        /* \"#utility.yul\":13195:13199   */\n      dup1\n        /* \"#utility.yul\":13191:13200   */\n      not\n        /* \"#utility.yul\":13184:13189   */\n      dup5\n        /* \"#utility.yul\":13180:13201   */\n      and\n        /* \"#utility.yul\":13171:13201   */\n      swap4\n      pop\n        /* \"#utility.yul\":13244:13248   */\n      dup1\n        /* \"#utility.yul\":13234:13242   */\n      dup7\n        /* \"#utility.yul\":13230:13249   */\n      and\n        /* \"#utility.yul\":13223:13228   */\n      dup5\n        /* \"#utility.yul\":13220:13250   */\n      or\n        /* \"#utility.yul\":13210:13250   */\n      swap3\n      pop\n        /* \"#utility.yul\":12939:13256   */\n      pop\n      pop\n        /* \"#utility.yul\":12863:13256   */\n      swap4\n      swap3\n      pop\n      pop\n      pop\n      jump\t// out\n        /* \"#utility.yul\":13262:13322   */\n    tag_196:\n        /* \"#utility.yul\":13290:13293   */\n      0x00\n        /* \"#utility.yul\":13311:13316   */\n      dup2\n        /* \"#utility.yul\":13304:13316   */\n      swap1\n      pop\n        /* \"#utility.yul\":13262:13322   */\n      swap2\n      swap1\n      pop\n      jump\t// out\n        /* \"#utility.yul\":13328:13470   */\n    tag_197:\n        /* \"#utility.yul\":13378:13387   */\n      0x00\n        /* \"#utility.yul\":13411:13464   */\n      tag_351\n        /* \"#utility.yul\":13429:13463   */\n      tag_352\n        /* \"#utility.yul\":13438:13462   */\n      tag_353\n        /* \"#utility.yul\":13456:13461   */\n      dup5\n        /* \"#utility.yul\":13438:13462   */\n      tag_155\n      jump\t// in\n    tag_353:\n        /* \"#utility.yul\":13429:13463   */\n      tag_196\n      jump\t// in\n    tag_352:\n        /* \"#utility.yul\":13411:13464   */\n      tag_155\n      jump\t// in\n    tag_351:\n        /* \"#utility.yul\":13398:13464   */\n      swap1\n      pop\n        /* \"#utility.yul\":13328:13470   */\n      swap2\n      swap1\n      pop\n      jump\t// out\n        /* \"#utility.yul\":13476:13551   */\n    tag_198:\n        /* \"#utility.yul\":13519:13522   */\n      0x00\n        /* \"#utility.yul\":13540:13545   */\n      dup2\n        /* \"#utility.yul\":13533:13545   */\n      swap1\n      pop\n        /* \"#utility.yul\":13476:13551   */\n      swap2\n      swap1\n      pop\n      jump\t// out\n        /* \"#utility.yul\":13557:13826   */\n    tag_199:\n        /* \"#utility.yul\":13667:13706   */\n      tag_356\n        /* \"#utility.yul\":13698:13705   */\n      dup4\n        /* \"#utility.yul\":13667:13706   */\n      tag_197\n      jump\t// in\n    tag_356:\n        /* \"#utility.yul\":13728:13819   */\n      tag_357\n        /* \"#utility.yul\":13777:13818   */\n      tag_358\n        /* \"#utility.yul\":13801:13817   */\n      dup3\n        /* \"#utility.yul\":13777:13818   */\n      tag_198\n      jump\t// in\n    tag_358:\n        /* \"#utility.yul\":13769:13775   */\n      dup5\n        /* \"#utility.yul\":13762:13766   */\n      dup5\n        /* \"#utility.yul\":13756:13767   */\n      sload\n        /* \"#utility.yul\":13728:13819   */\n      tag_195\n      jump\t// in\n    tag_357:\n        /* \"#utility.yul\":13722:13726   */\n      dup3\n        /* \"#utility.yul\":13715:13820   */\n      sstore\n        /* \"#utility.yul\":13633:13826   */\n      pop\n        /* \"#utility.yul\":13557:13826   */\n      pop\n      pop\n      pop\n      jump\t// out\n        /* \"#utility.yul\":13832:13905   */\n    tag_200:\n        /* \"#utility.yul\":13877:13880   */\n      0x00\n        /* \"#utility.yul\":13832:13905   */\n      swap1\n      jump\t// out\n        /* \"#utility.yul\":13911:14100   */\n    tag_201:\n        /* \"#utility.yul\":13988:14020   */\n      tag_361\n      tag_200\n      jump\t// in\n    tag_361:\n        /* \"#utility.yul\":14029:14094   */\n      tag_362\n        /* \"#utility.yul\":14087:14093   */\n      dup2\n        /* \"#utility.yul\":14079:14085   */\n      dup5\n        /* \"#utility.yul\":14073:14077   */\n      dup5\n        /* \"#utility.yul\":14029:14094   */\n      tag_199\n      jump\t// in\n    tag_362:\n        /* \"#utility.yul\":13964:14100   */\n      pop\n        /* \"#utility.yul\":13911:14100   */\n      pop\n      pop\n      jump\t// out\n        /* \"#utility.yul\":14106:14292   */\n    tag_202:\n        /* \"#utility.yul\":14166:14286   */\n    tag_364:\n        /* \"#utility.yul\":14183:14186   */\n      dup2\n        /* \"#utility.yul\":14176:14181   */\n      dup2\n        /* \"#utility.yul\":14173:14187   */\n      lt\n        /* \"#utility.yul\":14166:14286   */\n      iszero\n      tag_366\n      jumpi\n        /* \"#utility.yul\":14237:14276   */\n      tag_367\n        /* \"#utility.yul\":14274:14275   */\n      0x00\n        /* \"#utility.yul\":14267:14272   */\n      dup3\n        /* \"#utility.yul\":14237:14276   */\n      tag_201\n      jump\t// in\n    tag_367:\n        /* \"#utility.yul\":14210:14211   */\n      0x01\n        /* \"#utility.yul\":14203:14208   */\n      dup2\n        /* \"#utility.yul\":14199:14212   */\n      add\n        /* \"#utility.yul\":14190:14212   */\n      swap1\n      pop\n        /* \"#utility.yul\":14166:14286   */\n      jump(tag_364)\n    tag_366:\n        /* \"#utility.yul\":14106:14292   */\n      pop\n      pop\n      jump\t// out\n        /* \"#utility.yul\":14298:14839   */\n    tag_203:\n        /* \"#utility.yul\":14398:14400   */\n      0x1f\n        /* \"#utility.yul\":14393:14396   */\n      dup3\n        /* \"#utility.yul\":14390:14401   */\n      gt\n        /* \"#utility.yul\":14387:14832   */\n      iszero\n      tag_369\n      jumpi\n        /* \"#utility.yul\":14432:14469   */\n      tag_370\n        /* \"#utility.yul\":14463:14468   */\n      dup2\n        /* \"#utility.yul\":14432:14469   */\n      tag_192\n      jump\t// in\n    tag_370:\n        /* \"#utility.yul\":14515:14544   */\n      tag_371\n        /* \"#utility.yul\":14533:14543   */\n      dup5\n        /* \"#utility.yul\":14515:14544   */\n      tag_193\n      jump\t// in\n    tag_371:\n        /* \"#utility.yul\":14505:14513   */\n      dup2\n        /* \"#utility.yul\":14501:14545   */\n      add\n        /* \"#utility.yul\":14698:14700   */\n      0x20\n        /* \"#utility.yul\":14686:14696   */\n      dup6\n        /* \"#utility.yul\":14683:14701   */\n      lt\n        /* \"#utility.yul\":14680:14729   */\n      iszero\n      tag_372\n      jumpi\n        /* \"#utility.yul\":14719:14727   */\n      dup2\n        /* \"#utility.yul\":14704:14727   */\n      swap1\n      pop\n        /* \"#utility.yul\":14680:14729   */\n    tag_372:\n        /* \"#utility.yul\":14742:14822   */\n      tag_373\n        /* \"#utility.yul\":14798:14820   */\n      tag_374\n        /* \"#utility.yul\":14816:14819   */\n      dup6\n        /* \"#utility.yul\":14798:14820   */\n      tag_193\n      jump\t// in\n    tag_374:\n        /* \"#utility.yul\":14788:14796   */\n      dup4\n        /* \"#utility.yul\":14784:14821   */\n      add\n        /* \"#utility.yul\":14771:14782   */\n      dup3\n        /* \"#utility.yul\":14742:14822   */\n      tag_202\n      jump\t// in\n    tag_373:\n        /* \"#utility.yul\":14402:14832   */\n      pop\n      pop\n        /* \"#utility.yul\":14387:14832   */\n    tag_369:\n        /* \"#utility.yul\":14298:14839   */\n      pop\n      pop\n      pop\n      jump\t// out\n        /* \"#utility.yul\":14845:14962   */\n    tag_204:\n        /* \"#utility.yul\":14899:14907   */\n      0x00\n        /* \"#utility.yul\":14949:14954   */\n      dup3\n        /* \"#utility.yul\":14943:14947   */\n      dup3\n        /* \"#utility.yul\":14939:14955   */\n      shr\n        /* \"#utility.yul\":14918:14955   */\n      swap1\n      pop\n        /* \"#utility.yul\":14845:14962   */\n      swap3\n      swap2\n      pop\n      pop\n      jump\t// out\n        /* \"#utility.yul\":14968:15137   */\n    tag_205:\n        /* \"#utility.yul\":15012:15018   */\n      0x00\n        /* \"#utility.yul\":15045:15096   */\n      tag_377\n        /* \"#utility.yul\":15093:15094   */\n      0x00\n        /* \"#utility.yul\":15089:15095   */\n      not\n        /* \"#utility.yul\":15081:15086   */\n      dup5\n        /* \"#utility.yul\":15078:15079   */\n      0x08\n        /* \"#utility.yul\":15074:15087   */\n      mul\n        /* \"#utility.yul\":15045:15096   */\n      tag_204\n      jump\t// in\n    tag_377:\n        /* \"#utility.yul\":15041:15097   */\n      not\n        /* \"#utility.yul\":15126:15130   */\n      dup1\n        /* \"#utility.yul\":15120:15124   */\n      dup4\n        /* \"#utility.yul\":15116:15131   */\n      and\n        /* \"#utility.yul\":15106:15131   */\n      swap2\n      pop\n        /* \"#utility.yul\":15019:15137   */\n      pop\n        /* \"#utility.yul\":14968:15137   */\n      swap3\n      swap2\n      pop\n      pop\n      jump\t// out\n        /* \"#utility.yul\":15142:15437   */\n    tag_206:\n        /* \"#utility.yul\":15218:15222   */\n      0x00\n        /* \"#utility.yul\":15364:15393   */\n      tag_379\n        /* \"#utility.yul\":15389:15392   */\n      dup4\n        /* \"#utility.yul\":15383:15387   */\n      dup4\n        /* \"#utility.yul\":15364:15393   */\n      tag_205\n      jump\t// in\n    tag_379:\n        /* \"#utility.yul\":15356:15393   */\n      swap2\n      pop\n        /* \"#utility.yul\":15426:15429   */\n      dup3\n        /* \"#utility.yul\":15423:15424   */\n      0x02\n        /* \"#utility.yul\":15419:15430   */\n      mul\n        /* \"#utility.yul\":15413:15417   */\n      dup3\n        /* \"#utility.yul\":15410:15431   */\n      or\n        /* \"#utility.yul\":15402:15431   */\n      swap1\n      pop\n        /* \"#utility.yul\":15142:15437   */\n      swap3\n      swap2\n      pop\n      pop\n      jump\t// out\n        /* \"#utility.yul\":15442:16832   */\n    tag_109:\n        /* \"#utility.yul\":15557:15593   */\n      tag_381\n        /* \"#utility.yul\":15589:15592   */\n      dup3\n        /* \"#utility.yul\":15557:15593   */\n      tag_167\n      jump\t// in\n    tag_381:\n        /* \"#utility.yul\":15658:15676   */\n      0xffffffffffffffff\n        /* \"#utility.yul\":15650:15656   */\n      dup2\n        /* \"#utility.yul\":15647:15677   */\n      gt\n        /* \"#utility.yul\":15644:15700   */\n      iszero\n      tag_382\n      jumpi\n        /* \"#utility.yul\":15680:15698   */\n      tag_383\n      tag_174\n      jump\t// in\n    tag_383:\n        /* \"#utility.yul\":15644:15700   */\n    tag_382:\n        /* \"#utility.yul\":15724:15762   */\n      tag_384\n        /* \"#utility.yul\":15756:15760   */\n      dup3\n        /* \"#utility.yul\":15750:15761   */\n      sload\n        /* \"#utility.yul\":15724:15762   */\n      tag_101\n      jump\t// in\n    tag_384:\n        /* \"#utility.yul\":15809:15875   */\n      tag_385\n        /* \"#utility.yul\":15868:15874   */\n      dup3\n        /* \"#utility.yul\":15860:15866   */\n      dup3\n        /* \"#utility.yul\":15854:15858   */\n      dup6\n        /* \"#utility.yul\":15809:15875   */\n      tag_203\n      jump\t// in\n    tag_385:\n        /* \"#utility.yul\":15902:15903   */\n      0x00\n        /* \"#utility.yul\":15926:15930   */\n      0x20\n        /* \"#utility.yul\":15913:15930   */\n      swap1\n      pop\n        /* \"#utility.yul\":15958:15960   */\n      0x1f\n        /* \"#utility.yul\":15950:15956   */\n      dup4\n        /* \"#utility.yul\":15947:15961   */\n      gt\n        /* \"#utility.yul\":15975:15976   */\n      0x01\n        /* \"#utility.yul\":15970:16587   */\n      dup2\n      eq\n      tag_387\n      jumpi\n        /* \"#utility.yul\":16631:16632   */\n      0x00\n        /* \"#utility.yul\":16648:16654   */\n      dup5\n        /* \"#utility.yul\":16645:16722   */\n      iszero\n      tag_388\n      jumpi\n        /* \"#utility.yul\":16697:16706   */\n      dup3\n        /* \"#utility.yul\":16692:16695   */\n      dup8\n        /* \"#utility.yul\":16688:16707   */\n      add\n        /* \"#utility.yul\":16682:16708   */\n      mload\n        /* \"#utility.yul\":16673:16708   */\n      swap1\n      pop\n        /* \"#utility.yul\":16645:16722   */\n    tag_388:\n        /* \"#utility.yul\":16748:16815   */\n      tag_389\n        /* \"#utility.yul\":16808:16814   */\n      dup6\n        /* \"#utility.yul\":16801:16806   */\n      dup3\n        /* \"#utility.yul\":16748:16815   */\n      tag_206\n      jump\t// in\n    tag_389:\n        /* \"#utility.yul\":16742:16746   */\n      dup7\n        /* \"#utility.yul\":16735:16816   */\n      sstore\n        /* \"#utility.yul\":16604:16826   */\n      pop\n        /* \"#utility.yul\":15940:16826   */\n      jump(tag_386)\n        /* \"#utility.yul\":15970:16587   */\n    tag_387:\n        /* \"#utility.yul\":16022:16026   */\n      0x1f\n        /* \"#utility.yul\":16018:16027   */\n      not\n        /* \"#utility.yul\":16010:16016   */\n      dup5\n        /* \"#utility.yul\":16006:16028   */\n      and\n        /* \"#utility.yul\":16056:16092   */\n      tag_390\n        /* \"#utility.yul\":16087:16091   */\n      dup7\n        /* \"#utility.yul\":16056:16092   */\n      tag_192\n      jump\t// in\n    tag_390:\n        /* \"#utility.yul\":16114:16115   */\n      0x00\n        /* \"#utility.yul\":16128:16336   */\n    tag_391:\n        /* \"#utility.yul\":16142:16149   */\n      dup3\n        /* \"#utility.yul\":16139:16140   */\n      dup2\n        /* \"#utility.yul\":16136:16150   */\n      lt\n        /* \"#utility.yul\":16128:16336   */\n      iszero\n      tag_393\n      jumpi\n        /* \"#utility.yul\":16221:16230   */\n      dup5\n        /* \"#utility.yul\":16216:16219   */\n      dup10\n        /* \"#utility.yul\":16212:16231   */\n      add\n        /* \"#utility.yul\":16206:16232   */\n      mload\n        /* \"#utility.yul\":16198:16204   */\n      dup3\n        /* \"#utility.yul\":16191:16233   */\n      sstore\n        /* \"#utility.yul\":16272:16273   */\n      0x01\n        /* \"#utility.yul\":16264:16270   */\n      dup3\n        /* \"#utility.yul\":16260:16274   */\n      add\n        /* \"#utility.yul\":16250:16274   */\n      swap2\n      pop\n        /* \"#utility.yul\":16319:16321   */\n      0x20\n        /* \"#utility.yul\":16308:16317   */\n      dup6\n        /* \"#utility.yul\":16304:16322   */\n      add\n        /* \"#utility.yul\":16291:16322   */\n      swap5\n      pop\n        /* \"#utility.yul\":16165:16169   */\n      0x20\n        /* \"#utility.yul\":16162:16163   */\n      dup2\n        /* \"#utility.yul\":16158:16170   */\n      add\n        /* \"#utility.yul\":16153:16170   */\n      swap1\n      pop\n        /* \"#utility.yul\":16128:16336   */\n      jump(tag_391)\n    tag_393:\n        /* \"#utility.yul\":16364:16370   */\n      dup7\n        /* \"#utility.yul\":16355:16362   */\n      dup4\n        /* \"#utility.yul\":16352:16371   */\n      lt\n        /* \"#utility.yul\":16349:16528   */\n      iszero\n      tag_394\n      jumpi\n        /* \"#utility.yul\":16422:16431   */\n      dup5\n        /* \"#utility.yul\":16417:16420   */\n      dup10\n        /* \"#utility.yul\":16413:16432   */\n      add\n        /* \"#utility.yul\":16407:16433   */\n      mload\n        /* \"#utility.yul\":16465:16513   */\n      tag_395\n        /* \"#utility.yul\":16507:16511   */\n      0x1f\n        /* \"#utility.yul\":16499:16505   */\n      dup10\n        /* \"#utility.yul\":16495:16512   */\n      and\n        /* \"#utility.yul\":16484:16493   */\n      dup3\n        /* \"#utility.yul\":16465:16513   */\n      tag_205\n      jump\t// in\n    tag_395:\n        /* \"#utility.yul\":16457:16463   */\n      dup4\n        /* \"#utility.yul\":16450:16514   */\n      sstore\n        /* \"#utility.yul\":16372:16528   */\n      pop\n        /* \"#utility.yul\":16349:16528   */\n    tag_394:\n        /* \"#utility.yul\":16574:16575   */\n      0x01\n        /* \"#utility.yul\":16570:16571   */\n      0x02\n        /* \"#utility.yul\":16562:16568   */\n      dup9\n        /* \"#utility.yul\":16558:16572   */\n      mul\n        /* \"#utility.yul\":16554:16576   */\n      add\n        /* \"#utility.yul\":16548:16552   */\n      dup9\n        /* \"#utility.yul\":16541:16577   */\n      sstore\n        /* \"#utility.yul\":15977:16587   */\n      pop\n      pop\n      pop\n        /* \"#utility.yul\":15940:16826   */\n    tag_386:\n      pop\n        /* \"#utility.yul\":15532:16832   */\n      pop\n      pop\n      pop\n        /* \"#utility.yul\":15442:16832   */\n      pop\n      pop\n      jump\t// out\n        /* \"#utility.yul\":16838:17257   */\n    tag_111:\n        /* \"#utility.yul\":16977:16981   */\n      0x00\n        /* \"#utility.yul\":17015:17017   */\n      0x40\n        /* \"#utility.yul\":17004:17013   */\n      dup3\n        /* \"#utility.yul\":17000:17018   */\n      add\n        /* \"#utility.yul\":16992:17018   */\n      swap1\n      pop\n        /* \"#utility.yul\":17028:17099   */\n      tag_397\n        /* \"#utility.yul\":17096:17097   */\n      0x00\n        /* \"#utility.yul\":17085:17094   */\n      dup4\n        /* \"#utility.yul\":17081:17098   */\n      add\n        /* \"#utility.yul\":17072:17078   */\n      dup6\n        /* \"#utility.yul\":17028:17099   */\n      tag_156\n      jump\t// in\n    tag_397:\n        /* \"#utility.yul\":17146:17155   */\n      dup2\n        /* \"#utility.yul\":17140:17144   */\n      dup2\n        /* \"#utility.yul\":17136:17156   */\n      sub\n        /* \"#utility.yul\":17131:17133   */\n      0x20\n        /* \"#utility.yul\":17120:17129   */\n      dup4\n        /* \"#utility.yul\":17116:17134   */\n      add\n        /* \"#utility.yul\":17109:17157   */\n      mstore\n        /* \"#utility.yul\":17174:17250   */\n      tag_398\n        /* \"#utility.yul\":17245:17249   */\n      dup2\n        /* \"#utility.yul\":17236:17242   */\n      dup5\n        /* \"#utility.yul\":17174:17250   */\n      tag_171\n      jump\t// in\n    tag_398:\n        /* \"#utility.yul\":17166:17250   */\n      swap1\n      pop\n        /* \"#utility.yul\":16838:17257   */\n      swap4\n      swap3\n      pop\n      pop\n      pop\n      jump\t// out\n        /* \"#utility.yul\":17263:17443   */\n    tag_207:\n        /* \"#utility.yul\":17311:17388   */\n      0x4e487b7100000000000000000000000000000000000000000000000000000000\n        /* \"#utility.yul\":17308:17309   */\n      0x00\n        /* \"#utility.yul\":17301:17389   */\n      mstore\n        /* \"#utility.yul\":17408:17412   */\n      0x11\n        /* \"#utility.yul\":17405:17406   */\n      0x04\n        /* \"#utility.yul\":17398:17413   */\n      mstore\n        /* \"#utility.yul\":17432:17436   */\n      0x24\n        /* \"#utility.yul\":17429:17430   */\n      0x00\n        /* \"#utility.yul\":17422:17437   */\n      revert\n        /* \"#utility.yul\":17449:17640   */\n    tag_120:\n        /* \"#utility.yul\":17489:17492   */\n      0x00\n        /* \"#utility.yul\":17508:17528   */\n      tag_401\n        /* \"#utility.yul\":17526:17527   */\n      dup3\n        /* \"#utility.yul\":17508:17528   */\n      tag_155\n      jump\t// in\n    tag_401:\n        /* \"#utility.yul\":17503:17528   */\n      swap2\n      pop\n        /* \"#utility.yul\":17542:17562   */\n      tag_402\n        /* \"#utility.yul\":17560:17561   */\n      dup4\n        /* \"#utility.yul\":17542:17562   */\n      tag_155\n      jump\t// in\n    tag_402:\n        /* \"#utility.yul\":17537:17562   */\n      swap3\n      pop\n        /* \"#utility.yul\":17585:17586   */\n      dup3\n        /* \"#utility.yul\":17582:17583   */\n      dup3\n        /* \"#utility.yul\":17578:17587   */\n      add\n        /* \"#utility.yul\":17571:17587   */\n      swap1\n      pop\n        /* \"#utility.yul\":17606:17609   */\n      dup1\n        /* \"#utility.yul\":17603:17604   */\n      dup3\n        /* \"#utility.yul\":17600:17610   */\n      gt\n        /* \"#utility.yul\":17597:17633   */\n      iszero\n      tag_403\n      jumpi\n        /* \"#utility.yul\":17613:17631   */\n      tag_404\n      tag_207\n      jump\t// in\n    tag_404:\n        /* \"#utility.yul\":17597:17633   */\n    tag_403:\n        /* \"#utility.yul\":17449:17640   */\n      swap3\n      swap2\n      pop\n      pop\n      jump\t// out\n        /* \"#utility.yul\":17646:17879   */\n    tag_122:\n        /* \"#utility.yul\":17685:17688   */\n      0x00\n        /* \"#utility.yul\":17708:17732   */\n      tag_406\n        /* \"#utility.yul\":17726:17731   */\n      dup3\n        /* \"#utility.yul\":17708:17732   */\n      tag_155\n      jump\t// in\n    tag_406:\n        /* \"#utility.yul\":17699:17732   */\n      swap2\n      pop\n        /* \"#utility.yul\":17754:17820   */\n      0xffffffffffffffffffffffffffffffffffffffffffffffffffffffffffffffff\n        /* \"#utility.yul\":17747:17752   */\n      dup3\n        /* \"#utility.yul\":17744:17821   */\n      sub\n        /* \"#utility.yul\":17741:17844   */\n      tag_407\n      jumpi\n        /* \"#utility.yul\":17824:17842   */\n      tag_408\n      tag_207\n      jump\t// in\n    tag_408:\n        /* \"#utility.yul\":17741:17844   */\n    tag_407:\n        /* \"#utility.yul\":17871:17872   */\n      0x01\n        /* \"#utility.yul\":17864:17869   */\n      dup3\n        /* \"#utility.yul\":17860:17873   */\n      add\n        /* \"#utility.yul\":17853:17873   */\n      swap1\n      pop\n        /* \"#utility.yul\":17646:17879   */\n      swap2\n      swap1\n      pop\n      jump\t// out\n        /* \"#utility.yul\":17885:18065   */\n    tag_208:\n        /* \"#utility.yul\":17933:18010   */\n      0x4e487b7100000000000000000000000000000000000000000000000000000000\n        /* \"#utility.yul\":17930:17931   */\n      0x00\n        /* \"#utility.yul\":17923:18011   */\n      mstore\n        /* \"#utility.yul\":18030:18034   */\n      0x12\n        /* \"#utility.yul\":18027:18028   */\n      0x04\n        /* \"#utility.yul\":18020:18035   */\n      mstore\n        /* \"#utility.yul\":18054:18058   */\n      0x24\n        /* \"#utility.yul\":18051:18052   */\n      0x00\n        /* \"#utility.yul\":18044:18059   */\n      revert\n        /* \"#utility.yul\":18071:18256   */\n    tag_124:\n        /* \"#utility.yul\":18111:18112   */\n      0x00\n        /* \"#utility.yul\":18128:18148   */\n      tag_411\n        /* \"#utility.yul\":18146:18147   */\n      dup3\n        /* \"#utility.yul\":18128:18148   */\n      tag_155\n      jump\t// in\n    tag_411:\n        /* \"#utility.yul\":18123:18148   */\n      swap2\n      pop\n        /* \"#utility.yul\":18162:18182   */\n      tag_412\n        /* \"#utility.yul\":18180:18181   */\n      dup4\n        /* \"#utility.yul\":18162:18182   */\n      tag_155\n      jump\t// in\n    tag_412:\n        /* \"#utility.yul\":18157:18182   */\n      swap3\n      pop\n        /* \"#utility.yul\":18201:18202   */\n      dup3\n        /* \"#utility.yul\":18191:18226   */\n      tag_413\n      jumpi\n        /* \"#utility.yul\":18206:18224   */\n      tag_414\n      tag_208\n      jump\t// in\n    tag_414:\n        /* \"#utility.yul\":18191:18226   */\n    tag_413:\n        /* \"#utility.yul\":18248:18249   */\n      dup3\n        /* \"#utility.yul\":18245:18246   */\n      dup3\n        /* \"#utility.yul\":18241:18250   */\n      div\n        /* \"#utility.yul\":18236:18250   */\n      swap1\n      pop\n        /* \"#utility.yul\":18071:18256   */\n      swap3\n      swap2\n      pop\n      pop\n      jump\t// out\n\n    auxdata: 0xa2646970667358221220edca43536a3a4208a9a77ee5b9b85d9cd9b5ad509f672aabf57f6015a10b4ab964736f6c63430008120033\n}\n","bytecode":{"linkReferences":{},"object":"60806040523480156200001157600080fd5b506040516200195838038062001958833981810160405281019062000037919062000237565b50506200029d565b6000604051905090565b600080fd5b600080fd5b600073ffffffffffffffffffffffffffffffffffffffff82169050919050565b6000620000808262000053565b9050919050565b620000928162000073565b81146200009e57600080fd5b50565b600081519050620000b28162000087565b92915050565b600080fd5b600080fd5b6000601f19601f8301169050919050565b7f4e487b7100000000000000000000000000000000000000000000000000000000600052604160045260246000fd5b6200010d82620000c2565b810181811067ffffffffffffffff821117156200012f576200012e620000d3565b5b80604052505050565b6000620001446200003f565b905062000152828262000102565b919050565b600067ffffffffffffffff821115620001755762000174620000d3565b5b6200018082620000c2565b9050602081019050919050565b60005b83811015620001ad57808201518184015260208101905062000190565b60008484015250505050565b6000620001d0620001ca8462000157565b62000138565b905082815260208101848484011115620001ef57620001ee620000bd565b5b620001fc8482856200018d565b509392505050565b600082601f8301126200021c576200021b620000b8565b5b81516200022e848260208601620001b9565b91505092915050565b6000806040838503121562000251576200025062000049565b5b60006200026185828601620000a1565b925050602083015167ffffffffffffffff8111156200028557620002846200004e565b5b620002938582860162000204565b9150509250929050565b6116ab80620002ad6000396000f3fe6080604052600436106100c65760003560e01c806395cd63a01161007f5780639d5f65fc116100595780639d5f65fc14610300578063a329f8f61461033d578063c12be92914610366578063cc1e2cb0146103a35761011d565b806395cd63a01461025b57806396b98a65146102845780639ace38c2146102c15761011d565b806302d05d3f146101225780632a0e54bd1461014d5780632e7700f01461018b57806333ea3dc8146101b657806366d34a9b146101f557806380fc9c0e1461021e5761011d565b3661011d573373ffffffffffffffffffffffffffffffffffffffff167f90890809c654f11d6e72a28fa60149770a0d11ec6c92319d6ceb2bb0a4ea1a153447604051610113929190610c42565b60405180910390a2005b600080fd5b34801561012e57600080fd5b506101376103ce565b6040516101449190610cac565b60405180910390f35b34801561015957600080fd5b50610174600480360381019061016f9190610d33565b6103f4565b604051610182929190610d73565b60405180910390f35b34801561019757600080fd5b506101a0610455565b6040516101ad9190610d9c565b60405180910390f35b3480156101c257600080fd5b506101dd60048036038101906101d89190610db7565b610461565b6040516101ec93929190610e74565b60405180910390f35b34801561020157600080fd5b5061021c60048036038101906102179190610fe7565b610553565b005b34801561022a57600080fd5b5061024560048036038101906102409190611056565b61068f565b6040516102529190610d9c565b60405180910390f35b34801561026757600080fd5b50610282600480360381019061027d9190610db7565b6107c3565b005b34801561029057600080fd5b506102ab60048036038101906102a69190610d33565b61082c565b6040516102b89190610d9c565b60405180910390f35b3480156102cd57600080fd5b506102e860048036038101906102e39190610db7565b61085d565b6040516102f793929190610e74565b60405180910390f35b34801561030c57600080fd5b5061032760048036038101906103229190611056565b61093f565b6040516103349190611141565b60405180910390f35b34801561034957600080fd5b50610364600480360381019061035f9190611163565b6109d6565b005b34801561037257600080fd5b5061038d60048036038101906103889190611056565b610ac1565b60405161039a9190610d9c565b60405180910390f35b3480156103af57600080fd5b506103b8610b9b565b6040516103c5919061120b565b60405180910390f35b600460009054906101000a900473ffffffffffffffffffffffffffffffffffffffff1681565b6002602052816000526040600020818154811061041057600080fd5b9060005260206000209060020201600091509150508060000160009054906101000a900473ffffffffffffffffffffffffffffffffffffffff16908060010154905082565b60008080549050905090565b6000806060600080858154811061047b5761047a61122d565b5b906000526020600020906003020190508060000160009054906101000a900473ffffffffffffffffffffffffffffffffffffffff168160010154826002018080546104c59061128b565b80601f01602080910402602001604051908101604052809291908181526020018280546104f19061128b565b801561053e5780601f106105135761010080835404028352916020019161053e565b820191906000526020600020905b81548152906001019060200180831161052157829003601f168201915b50505050509050935093509350509193909250565b600080805490509050600060405180606001604052808673ffffffffffffffffffffffffffffffffffffffff16815260200185815260200184815250908060018154018082558091505060019003906000526020600020906003020160009091909190915060008201518160000160006101000a81548173ffffffffffffffffffffffffffffffffffffffff021916908373ffffffffffffffffffffffffffffffffffffffff16021790555060208201518160010155604082015181600201908161061e9190611468565b5050508373ffffffffffffffffffffffffffffffffffffffff16813373ffffffffffffffffffffffffffffffffffffffff167fff161496bb9879e11f4a70b7df1b7ba081936284851b65942ef4d782f9d39bea868660405161068192919061153a565b60405180910390a450505050565b6000806000905060005b600260008573ffffffffffffffffffffffffffffffffffffffff1673ffffffffffffffffffffffffffffffffffffffff1681526020019081526020016000208054905081101561076657600260008573ffffffffffffffffffffffffffffffffffffffff1673ffffffffffffffffffffffffffffffffffffffff16815260200190815260200160002081815481106107345761073361122d565b5b906000526020600020906002020160010154826107519190611599565b9150808061075e906115cd565b915050610699565b506000600260008573ffffffffffffffffffffffffffffffffffffffff1673ffffffffffffffffffffffffffffffffffffffff16815260200190815260200160002080549050826107b79190611644565b90508092505050919050565b600160003373ffffffffffffffffffffffffffffffffffffffff1673ffffffffffffffffffffffffffffffffffffffff16815260200190815260200160002081908060018154018082558091505060019003906000526020600020016000909190919091505550565b6001602052816000526040600020818154811061084857600080fd5b90600052602060002001600091509150505481565b6000818154811061086d57600080fd5b90600052602060002090600302016000915090508060000160009054906101000a900473ffffffffffffffffffffffffffffffffffffffff16908060010154908060020180546108bc9061128b565b80601f01602080910402602001604051908101604052809291908181526020018280546108e89061128b565b80156109355780601f1061090a57610100808354040283529160200191610935565b820191906000526020600020905b81548152906001019060200180831161091857829003601f168201915b5050505050905083565b6060600160008373ffffffffffffffffffffffffffffffffffffffff1673ffffffffffffffffffffffffffffffffffffffff1681526020019081526020016000208054806020026020016040519081016040528092919081815260200182805480156109ca57602002820191906000526020600020905b8154815260200190600101908083116109b6575b50505050509050919050565b600260008373ffffffffffffffffffffffffffffffffffffffff1673ffffffffffffffffffffffffffffffffffffffff16815260200190815260200160002060405180604001604052808573ffffffffffffffffffffffffffffffffffffffff16815260200183815250908060018154018082558091505060019003906000526020600020906002020160009091909190915060008201518160000160006101000a81548173ffffffffffffffffffffffffffffffffffffffff021916908373ffffffffffffffffffffffffffffffffffffffff160217905550602082015181600101555050505050565b6000806000905060005b600160008573ffffffffffffffffffffffffffffffffffffffff1673ffffffffffffffffffffffffffffffffffffffff16815260200190815260200160002080549050811015610b9157600160008573ffffffffffffffffffffffffffffffffffffffff1673ffffffffffffffffffffffffffffffffffffffff1681526020019081526020016000208181548110610b6657610b6561122d565b5b906000526020600020015482610b7c9190611599565b91508080610b89906115cd565b915050610acb565b5080915050919050565b60038054610ba89061128b565b80601f0160208091040260200160405190810160405280929190818152602001828054610bd49061128b565b8015610c215780601f10610bf657610100808354040283529160200191610c21565b820191906000526020600020905b815481529060010190602001808311610c0457829003601f168201915b505050505081565b6000819050919050565b610c3c81610c29565b82525050565b6000604082019050610c576000830185610c33565b610c646020830184610c33565b9392505050565b600073ffffffffffffffffffffffffffffffffffffffff82169050919050565b6000610c9682610c6b565b9050919050565b610ca681610c8b565b82525050565b6000602082019050610cc16000830184610c9d565b92915050565b6000604051905090565b600080fd5b600080fd5b610ce481610c8b565b8114610cef57600080fd5b50565b600081359050610d0181610cdb565b92915050565b610d1081610c29565b8114610d1b57600080fd5b50565b600081359050610d2d81610d07565b92915050565b60008060408385031215610d4a57610d49610cd1565b5b6000610d5885828601610cf2565b9250506020610d6985828601610d1e565b9150509250929050565b6000604082019050610d886000830185610c9d565b610d956020830184610c33565b9392505050565b6000602082019050610db16000830184610c33565b92915050565b600060208284031215610dcd57610dcc610cd1565b5b6000610ddb84828501610d1e565b91505092915050565b600081519050919050565b600082825260208201905092915050565b60005b83811015610e1e578082015181840152602081019050610e03565b60008484015250505050565b6000601f19601f8301169050919050565b6000610e4682610de4565b610e508185610def565b9350610e60818560208601610e00565b610e6981610e2a565b840191505092915050565b6000606082019050610e896000830186610c9d565b610e966020830185610c33565b8181036040830152610ea88184610e3b565b9050949350505050565b600080fd5b600080fd5b7f4e487b7100000000000000000000000000000000000000000000000000000000600052604160045260246000fd5b610ef482610e2a565b810181811067ffffffffffffffff82111715610f1357610f12610ebc565b5b80604052505050565b6000610f26610cc7565b9050610f328282610eeb565b919050565b600067ffffffffffffffff821115610f5257610f51610ebc565b5b610f5b82610e2a565b9050602081019050919050565b82818337600083830152505050565b6000610f8a610f8584610f37565b610f1c565b905082815260208101848484011115610fa657610fa5610eb7565b5b610fb1848285610f68565b509392505050565b600082601f830112610fce57610fcd610eb2565b5b8135610fde848260208601610f77565b91505092915050565b60008060006060848603121561100057610fff610cd1565b5b600061100e86828701610cf2565b935050602061101f86828701610d1e565b925050604084013567ffffffffffffffff8111156110405761103f610cd6565b5b61104c86828701610fb9565b9150509250925092565b60006020828403121561106c5761106b610cd1565b5b600061107a84828501610cf2565b91505092915050565b600081519050919050565b600082825260208201905092915050565b6000819050602082019050919050565b6110b881610c29565b82525050565b60006110ca83836110af565b60208301905092915050565b6000602082019050919050565b60006110ee82611083565b6110f8818561108e565b93506111038361109f565b8060005b8381101561113457815161111b88826110be565b9750611126836110d6565b925050600181019050611107565b5085935050505092915050565b6000602082019050818103600083015261115b81846110e3565b905092915050565b60008060006060848603121561117c5761117b610cd1565b5b600061118a86828701610cf2565b935050602061119b86828701610cf2565b92505060406111ac86828701610d1e565b9150509250925092565b600081519050919050565b600082825260208201905092915050565b60006111dd826111b6565b6111e781856111c1565b93506111f7818560208601610e00565b61120081610e2a565b840191505092915050565b6000602082019050818103600083015261122581846111d2565b905092915050565b7f4e487b7100000000000000000000000000000000000000000000000000000000600052603260045260246000fd5b7f4e487b7100000000000000000000000000000000000000000000000000000000600052602260045260246000fd5b600060028204905060018216806112a357607f821691505b6020821081036112b6576112b561125c565b5b50919050565b60008190508160005260206000209050919050565b60006020601f8301049050919050565b600082821b905092915050565b60006008830261131e7fffffffffffffffffffffffffffffffffffffffffffffffffffffffffffffffff826112e1565b61132886836112e1565b95508019841693508086168417925050509392505050565b6000819050919050565b600061136561136061135b84610c29565b611340565b610c29565b9050919050565b6000819050919050565b61137f8361134a565b61139361138b8261136c565b8484546112ee565b825550505050565b600090565b6113a861139b565b6113b3818484611376565b505050565b5b818110156113d7576113cc6000826113a0565b6001810190506113b9565b5050565b601f82111561141c576113ed816112bc565b6113f6846112d1565b81016020851015611405578190505b611419611411856112d1565b8301826113b8565b50505b505050565b600082821c905092915050565b600061143f60001984600802611421565b1980831691505092915050565b6000611458838361142e565b9150826002028217905092915050565b61147182610de4565b67ffffffffffffffff81111561148a57611489610ebc565b5b611494825461128b565b61149f8282856113db565b600060209050601f8311600181146114d257600084156114c0578287015190505b6114ca858261144c565b865550611532565b601f1984166114e0866112bc565b60005b82811015611508578489015182556001820191506020850194506020810190506114e3565b868310156115255784890151611521601f89168261142e565b8355505b6001600288020188555050505b505050505050565b600060408201905061154f6000830185610c33565b81810360208301526115618184610e3b565b90509392505050565b7f4e487b7100000000000000000000000000000000000000000000000000000000600052601160045260246000fd5b60006115a482610c29565b91506115af83610c29565b92508282019050808211156115c7576115c661156a565b5b92915050565b60006115d882610c29565b91507fffffffffffffffffffffffffffffffffffffffffffffffffffffffffffffffff820361160a5761160961156a565b5b600182019050919050565b7f4e487b7100000000000000000000000000000000000000000000000000000000600052601260045260246000fd5b600061164f82610c29565b915061165a83610c29565b92508261166a57611669611615565b5b82820490509291505056fea2646970667358221220edca43536a3a4208a9a77ee5b9b85d9cd9b5ad509f672aabf57f6015a10b4ab964736f6c63430008120033","opcodes":"PUSH1 0x80 PUSH1 0x40 MSTORE CALLVALUE DUP1 ISZERO PUSH3 0x11 JUMPI PUSH1 0x0 DUP1 REVERT JUMPDEST POP PUSH1 0x40 MLOAD PUSH3 0x1958 CODESIZE SUB DUP1 PUSH3 0x1958 DUP4 CODECOPY DUP2 DUP2 ADD PUSH1 0x40 MSTORE DUP2 ADD SWAP1 PUSH3 0x37 SWAP2 SWAP1 PUSH3 0x237 JUMP JUMPDEST POP POP PUSH3 0x29D JUMP JUMPDEST PUSH1 0x0 PUSH1 0x40 MLOAD SWAP1 POP SWAP1 JUMP JUMPDEST PUSH1 0x0 DUP1 REVERT JUMPDEST PUSH1 0x0 DUP1 REVERT JUMPDEST PUSH1 0x0 PUSH20 0xFFFFFFFFFFFFFFFFFFFFFFFFFFFFFFFFFFFFFFFF DUP3 AND SWAP1 POP SWAP2 SWAP1 POP JUMP JUMPDEST PUSH1 0x0 PUSH3 0x80 DUP3 PUSH3 0x53 JUMP JUMPDEST SWAP1 POP SWAP2 SWAP1 POP JUMP JUMPDEST PUSH3 0x92 DUP2 PUSH3 0x73 JUMP JUMPDEST DUP2 EQ PUSH3 0x9E JUMPI PUSH1 0x0 DUP1 REVERT JUMPDEST POP JUMP JUMPDEST PUSH1 0x0 DUP2 MLOAD SWAP1 POP PUSH3 0xB2 DUP2 PUSH3 0x87 JUMP JUMPDEST SWAP3 SWAP2 POP POP JUMP JUMPDEST PUSH1 0x0 DUP1 REVERT JUMPDEST PUSH1 0x0 DUP1 REVERT JUMPDEST PUSH1 0x0 PUSH1 0x1F NOT PUSH1 0x1F DUP4 ADD AND SWAP1 POP SWAP2 SWAP1 POP JUMP JUMPDEST PUSH32 0x4E487B7100000000000000000000000000000000000000000000000000000000 PUSH1 0x0 MSTORE PUSH1 0x41 PUSH1 0x4 MSTORE PUSH1 0x24 PUSH1 0x0 REVERT JUMPDEST PUSH3 0x10D DUP3 PUSH3 0xC2 JUMP JUMPDEST DUP2 ADD DUP2 DUP2 LT PUSH8 0xFFFFFFFFFFFFFFFF DUP3 GT OR ISZERO PUSH3 0x12F JUMPI PUSH3 0x12E PUSH3 0xD3 JUMP JUMPDEST JUMPDEST DUP1 PUSH1 0x40 MSTORE POP POP POP JUMP JUMPDEST PUSH1 0x0 PUSH3 0x144 PUSH3 0x3F JUMP JUMPDEST SWAP1 POP PUSH3 0x152 DUP3 DUP3 PUSH3 0x102 JUMP JUMPDEST SWAP2 SWAP1 POP JUMP JUMPDEST PUSH1 0x0 PUSH8 0xFFFFFFFFFFFFFFFF DUP3 GT ISZERO PUSH3 0x175 JUMPI PUSH3 0x174 PUSH3 0xD3 JUMP JUMPDEST JUMPDEST PUSH3 0x180 DUP3 PUSH3 0xC2 JUMP JUMPDEST SWAP1 POP PUSH1 0x20 DUP2 ADD SWAP1 POP SWAP2 SWAP1 POP JUMP JUMPDEST PUSH1 0x0 JUMPDEST DUP4 DUP2 LT ISZERO PUSH3 0x1AD JUMPI DUP1 DUP3 ADD MLOAD DUP2 DUP5 ADD MSTORE PUSH1 0x20 DUP2 ADD SWAP1 POP PUSH3 0x190 JUMP JUMPDEST PUSH1 0x0 DUP5 DUP5 ADD MSTORE POP POP POP POP JUMP JUMPDEST PUSH1 0x0 PUSH3 0x1D0 PUSH3 0x1CA DUP5 PUSH3 0x157 JUMP JUMPDEST PUSH3 0x138 JUMP JUMPDEST SWAP1 POP DUP3 DUP2 MSTORE PUSH1 0x20 DUP2 ADD DUP5 DUP5 DUP5 ADD GT ISZERO PUSH3 0x1EF JUMPI PUSH3 0x1EE PUSH3 0xBD JUMP JUMPDEST JUMPDEST PUSH3 0x1FC DUP5 DUP3 DUP6 PUSH3 0x18D JUMP JUMPDEST POP SWAP4 SWAP3 POP POP POP JUMP JUMPDEST PUSH1 0x0 DUP3 PUSH1 0x1F DUP4 ADD SLT PUSH3 0x21C JUMPI PUSH3 0x21B PUSH3 0xB8 JUMP JUMPDEST JUMPDEST DUP2 MLOAD PUSH3 0x22E DUP5 DUP3 PUSH1 0x20 DUP7 ADD PUSH3 0x1B9 JUMP JUMPDEST SWAP2 POP POP SWAP3 SWAP2 POP POP JUMP JUMPDEST PUSH1 0x0 DUP1 PUSH1 0x40 DUP4 DUP6 SUB SLT ISZERO PUSH3 0x251 JUMPI PUSH3 0x250 PUSH3 0x49 JUMP JUMPDEST JUMPDEST PUSH1 0x0 PUSH3 0x261 DUP6 DUP3 DUP7 ADD PUSH3 0xA1 JUMP JUMPDEST SWAP3 POP POP PUSH1 0x20 DUP4 ADD MLOAD PUSH8 0xFFFFFFFFFFFFFFFF DUP2 GT ISZERO PUSH3 0x285 JUMPI PUSH3 0x284 PUSH3 0x4E JUMP JUMPDEST JUMPDEST PUSH3 0x293 DUP6 DUP3 DUP7 ADD PUSH3 0x204 JUMP JUMPDEST SWAP2 POP POP SWAP3 POP SWAP3 SWAP1 POP JUMP JUMPDEST PUSH2 0x16AB DUP1 PUSH3 0x2AD PUSH1 0x0 CODECOPY PUSH1 0x0 RETURN INVALID PUSH1 0x80 PUSH1 0x40 MSTORE PUSH1 0x4 CALLDATASIZE LT PUSH2 0xC6 JUMPI PUSH1 0x0 CALLDATALOAD PUSH1 0xE0 SHR DUP1 PUSH4 0x95CD63A0 GT PUSH2 0x7F JUMPI DUP1 PUSH4 0x9D5F65FC GT PUSH2 0x59 JUMPI DUP1 PUSH4 0x9D5F65FC EQ PUSH2 0x300 JUMPI DUP1 PUSH4 0xA329F8F6 EQ PUSH2 0x33D JUMPI DUP1 PUSH4 0xC12BE929 EQ PUSH2 0x366 JUMPI DUP1 PUSH4 0xCC1E2CB0 EQ PUSH2 0x3A3 JUMPI PUSH2 0x11D JUMP JUMPDEST DUP1 PUSH4 0x95CD63A0 EQ PUSH2 0x25B JUMPI DUP1 PUSH4 0x96B98A65 EQ PUSH2 0x284 JUMPI DUP1 PUSH4 0x9ACE38C2 EQ PUSH2 0x2C1 JUMPI PUSH2 0x11D JUMP JUMPDEST DUP1 PUSH4 0x2D05D3F EQ PUSH2 0x122 JUMPI DUP1 PUSH4 0x2A0E54BD EQ PUSH2 0x14D JUMPI DUP1 PUSH4 0x2E7700F0 EQ PUSH2 0x18B JUMPI DUP1 PUSH4 0x33EA3DC8 EQ PUSH2 0x1B6 JUMPI DUP1 PUSH4 0x66D34A9B EQ PUSH2 0x1F5 JUMPI DUP1 PUSH4 0x80FC9C0E EQ PUSH2 0x21E JUMPI PUSH2 0x11D JUMP JUMPDEST CALLDATASIZE PUSH2 0x11D JUMPI CALLER PUSH20 0xFFFFFFFFFFFFFFFFFFFFFFFFFFFFFFFFFFFFFFFF AND PUSH32 0x90890809C654F11D6E72A28FA60149770A0D11EC6C92319D6CEB2BB0A4EA1A15 CALLVALUE SELFBALANCE PUSH1 0x40 MLOAD PUSH2 0x113 SWAP3 SWAP2 SWAP1 PUSH2 0xC42 JUMP JUMPDEST PUSH1 0x40 MLOAD DUP1 SWAP2 SUB SWAP1 LOG2 STOP JUMPDEST PUSH1 0x0 DUP1 REVERT JUMPDEST CALLVALUE DUP1 ISZERO PUSH2 0x12E JUMPI PUSH1 0x0 DUP1 REVERT JUMPDEST POP PUSH2 0x137 PUSH2 0x3CE JUMP JUMPDEST PUSH1 0x40 MLOAD PUSH2 0x144 SWAP2 SWAP1 PUSH2 0xCAC JUMP JUMPDEST PUSH1 0x40 MLOAD DUP1 SWAP2 SUB SWAP1 RETURN JUMPDEST CALLVALUE DUP1 ISZERO PUSH2 0x159 JUMPI PUSH1 0x0 DUP1 REVERT JUMPDEST POP PUSH2 0x174 PUSH1 0x4 DUP1 CALLDATASIZE SUB DUP2 ADD SWAP1 PUSH2 0x16F SWAP2 SWAP1 PUSH2 0xD33 JUMP JUMPDEST PUSH2 0x3F4 JUMP JUMPDEST PUSH1 0x40 MLOAD PUSH2 0x182 SWAP3 SWAP2 SWAP1 PUSH2 0xD73 JUMP JUMPDEST PUSH1 0x40 MLOAD DUP1 SWAP2 SUB SWAP1 RETURN JUMPDEST CALLVALUE DUP1 ISZERO PUSH2 0x197 JUMPI PUSH1 0x0 DUP1 REVERT JUMPDEST POP PUSH2 0x1A0 PUSH2 0x455 JUMP JUMPDEST PUSH1 0x40 MLOAD PUSH2 0x1AD SWAP2 SWAP1 PUSH2 0xD9C JUMP JUMPDEST PUSH1 0x40 MLOAD DUP1 SWAP2 SUB SWAP1 RETURN JUMPDEST CALLVALUE DUP1 ISZERO PUSH2 0x1C2 JUMPI PUSH1 0x0 DUP1 REVERT JUMPDEST POP PUSH2 0x1DD PUSH1 0x4 DUP1 CALLDATASIZE SUB DUP2 ADD SWAP1 PUSH2 0x1D8 SWAP2 SWAP1 PUSH2 0xDB7 JUMP JUMPDEST PUSH2 0x461 JUMP JUMPDEST PUSH1 0x40 MLOAD PUSH2 0x1EC SWAP4 SWAP3 SWAP2 SWAP1 PUSH2 0xE74 JUMP JUMPDEST PUSH1 0x40 MLOAD DUP1 SWAP2 SUB SWAP1 RETURN JUMPDEST CALLVALUE DUP1 ISZERO PUSH2 0x201 JUMPI PUSH1 0x0 DUP1 REVERT JUMPDEST POP PUSH2 0x21C PUSH1 0x4 DUP1 CALLDATASIZE SUB DUP2 ADD SWAP1 PUSH2 0x217 SWAP2 SWAP1 PUSH2 0xFE7 JUMP JUMPDEST PUSH2 0x553 JUMP JUMPDEST STOP JUMPDEST CALLVALUE DUP1 ISZERO PUSH2 0x22A JUMPI PUSH1 0x0 DUP1 REVERT JUMPDEST POP PUSH2 0x245 PUSH1 0x4 DUP1 CALLDATASIZE SUB DUP2 ADD SWAP1 PUSH2 0x240 SWAP2 SWAP1 PUSH2 0x1056 JUMP JUMPDEST PUSH2 0x68F JUMP JUMPDEST PUSH1 0x40 MLOAD PUSH2 0x252 SWAP2 SWAP1 PUSH2 0xD9C JUMP JUMPDEST PUSH1 0x40 MLOAD DUP1 SWAP2 SUB SWAP1 RETURN JUMPDEST CALLVALUE DUP1 ISZERO PUSH2 0x267 JUMPI PUSH1 0x0 DUP1 REVERT JUMPDEST POP PUSH2 0x282 PUSH1 0x4 DUP1 CALLDATASIZE SUB DUP2 ADD SWAP1 PUSH2 0x27D SWAP2 SWAP1 PUSH2 0xDB7 JUMP JUMPDEST PUSH2 0x7C3 JUMP JUMPDEST STOP JUMPDEST CALLVALUE DUP1 ISZERO PUSH2 0x290 JUMPI PUSH1 0x0 DUP1 REVERT JUMPDEST POP PUSH2 0x2AB PUSH1 0x4 DUP1 CALLDATASIZE SUB DUP2 ADD SWAP1 PUSH2 0x2A6 SWAP2 SWAP1 PUSH2 0xD33 JUMP JUMPDEST PUSH2 0x82C JUMP JUMPDEST PUSH1 0x40 MLOAD PUSH2 0x2B8 SWAP2 SWAP1 PUSH2 0xD9C JUMP JUMPDEST PUSH1 0x40 MLOAD DUP1 SWAP2 SUB SWAP1 RETURN JUMPDEST CALLVALUE DUP1 ISZERO PUSH2 0x2CD JUMPI PUSH1 0x0 DUP1 REVERT JUMPDEST POP PUSH2 0x2E8 PUSH1 0x4 DUP1 CALLDATASIZE SUB DUP2 ADD SWAP1 PUSH2 0x2E3 SWAP2 SWAP1 PUSH2 0xDB7 JUMP JUMPDEST PUSH2 0x85D JUMP JUMPDEST PUSH1 0x40 MLOAD PUSH2 0x2F7 SWAP4 SWAP3 SWAP2 SWAP1 PUSH2 0xE74 JUMP JUMPDEST PUSH1 0x40 MLOAD DUP1 SWAP2 SUB SWAP1 RETURN JUMPDEST CALLVALUE DUP1 ISZERO PUSH2 0x30C JUMPI PUSH1 0x0 DUP1 REVERT JUMPDEST POP PUSH2 0x327 PUSH1 0x4 DUP1 CALLDATASIZE SUB DUP2 ADD SWAP1 PUSH2 0x322 SWAP2 SWAP1 PUSH2 0x1056 JUMP JUMPDEST PUSH2 0x93F JUMP JUMPDEST PUSH1 0x40 MLOAD PUSH2 0x334 SWAP2 SWAP1 PUSH2 0x1141 JUMP JUMPDEST PUSH1 0x40 MLOAD DUP1 SWAP2 SUB SWAP1 RETURN JUMPDEST CALLVALUE DUP1 ISZERO PUSH2 0x349 JUMPI PUSH1 0x0 DUP1 REVERT JUMPDEST POP PUSH2 0x364 PUSH1 0x4 DUP1 CALLDATASIZE SUB DUP2 ADD SWAP1 PUSH2 0x35F SWAP2 SWAP1 PUSH2 0x1163 JUMP JUMPDEST PUSH2 0x9D6 JUMP JUMPDEST STOP JUMPDEST CALLVALUE DUP1 ISZERO PUSH2 0x372 JUMPI PUSH1 0x0 DUP1 REVERT JUMPDEST POP PUSH2 0x38D PUSH1 0x4 DUP1 CALLDATASIZE SUB DUP2 ADD SWAP1 PUSH2 0x388 SWAP2 SWAP1 PUSH2 0x1056 JUMP JUMPDEST PUSH2 0xAC1 JUMP JUMPDEST PUSH1 0x40 MLOAD PUSH2 0x39A SWAP2 SWAP1 PUSH2 0xD9C JUMP JUMPDEST PUSH1 0x40 MLOAD DUP1 SWAP2 SUB SWAP1 RETURN JUMPDEST CALLVALUE DUP1 ISZERO PUSH2 0x3AF JUMPI PUSH1 0x0 DUP1 REVERT JUMPDEST POP PUSH2 0x3B8 PUSH2 0xB9B JUMP JUMPDEST PUSH1 0x40 MLOAD PUSH2 0x3C5 SWAP2 SWAP1 PUSH2 0x120B JUMP JUMPDEST PUSH1 0x40 MLOAD DUP1 SWAP2 SUB SWAP1 RETURN JUMPDEST PUSH1 0x4 PUSH1 0x0 SWAP1 SLOAD SWAP1 PUSH2 0x100 EXP SWAP1 DIV PUSH20 0xFFFFFFFFFFFFFFFFFFFFFFFFFFFFFFFFFFFFFFFF AND DUP2 JUMP JUMPDEST PUSH1 0x2 PUSH1 0x20 MSTORE DUP2 PUSH1 0x0 MSTORE PUSH1 0x40 PUSH1 0x0 KECCAK256 DUP2 DUP2 SLOAD DUP2 LT PUSH2 0x410 JUMPI PUSH1 0x0 DUP1 REVERT JUMPDEST SWAP1 PUSH1 0x0 MSTORE PUSH1 0x20 PUSH1 0x0 KECCAK256 SWAP1 PUSH1 0x2 MUL ADD PUSH1 0x0 SWAP2 POP SWAP2 POP POP DUP1 PUSH1 0x0 ADD PUSH1 0x0 SWAP1 SLOAD SWAP1 PUSH2 0x100 EXP SWAP1 DIV PUSH20 0xFFFFFFFFFFFFFFFFFFFFFFFFFFFFFFFFFFFFFFFF AND SWAP1 DUP1 PUSH1 0x1 ADD SLOAD SWAP1 POP DUP3 JUMP JUMPDEST PUSH1 0x0 DUP1 DUP1 SLOAD SWAP1 POP SWAP1 POP SWAP1 JUMP JUMPDEST PUSH1 0x0 DUP1 PUSH1 0x60 PUSH1 0x0 DUP1 DUP6 DUP2 SLOAD DUP2 LT PUSH2 0x47B JUMPI PUSH2 0x47A PUSH2 0x122D JUMP JUMPDEST JUMPDEST SWAP1 PUSH1 0x0 MSTORE PUSH1 0x20 PUSH1 0x0 KECCAK256 SWAP1 PUSH1 0x3 MUL ADD SWAP1 POP DUP1 PUSH1 0x0 ADD PUSH1 0x0 SWAP1 SLOAD SWAP1 PUSH2 0x100 EXP SWAP1 DIV PUSH20 0xFFFFFFFFFFFFFFFFFFFFFFFFFFFFFFFFFFFFFFFF AND DUP2 PUSH1 0x1 ADD SLOAD DUP3 PUSH1 0x2 ADD DUP1 DUP1 SLOAD PUSH2 0x4C5 SWAP1 PUSH2 0x128B JUMP JUMPDEST DUP1 PUSH1 0x1F ADD PUSH1 0x20 DUP1 SWAP2 DIV MUL PUSH1 0x20 ADD PUSH1 0x40 MLOAD SWAP1 DUP2 ADD PUSH1 0x40 MSTORE DUP1 SWAP3 SWAP2 SWAP1 DUP2 DUP2 MSTORE PUSH1 0x20 ADD DUP3 DUP1 SLOAD PUSH2 0x4F1 SWAP1 PUSH2 0x128B JUMP JUMPDEST DUP1 ISZERO PUSH2 0x53E JUMPI DUP1 PUSH1 0x1F LT PUSH2 0x513 JUMPI PUSH2 0x100 DUP1 DUP4 SLOAD DIV MUL DUP4 MSTORE SWAP2 PUSH1 0x20 ADD SWAP2 PUSH2 0x53E JUMP JUMPDEST DUP3 ADD SWAP2 SWAP1 PUSH1 0x0 MSTORE PUSH1 0x20 PUSH1 0x0 KECCAK256 SWAP1 JUMPDEST DUP2 SLOAD DUP2 MSTORE SWAP1 PUSH1 0x1 ADD SWAP1 PUSH1 0x20 ADD DUP1 DUP4 GT PUSH2 0x521 JUMPI DUP3 SWAP1 SUB PUSH1 0x1F AND DUP3 ADD SWAP2 JUMPDEST POP POP POP POP POP SWAP1 POP SWAP4 POP SWAP4 POP SWAP4 POP POP SWAP2 SWAP4 SWAP1 SWAP3 POP JUMP JUMPDEST PUSH1 0x0 DUP1 DUP1 SLOAD SWAP1 POP SWAP1 POP PUSH1 0x0 PUSH1 0x40 MLOAD DUP1 PUSH1 0x60 ADD PUSH1 0x40 MSTORE DUP1 DUP7 PUSH20 0xFFFFFFFFFFFFFFFFFFFFFFFFFFFFFFFFFFFFFFFF AND DUP2 MSTORE PUSH1 0x20 ADD DUP6 DUP2 MSTORE PUSH1 0x20 ADD DUP5 DUP2 MSTORE POP SWAP1 DUP1 PUSH1 0x1 DUP2 SLOAD ADD DUP1 DUP3 SSTORE DUP1 SWAP2 POP POP PUSH1 0x1 SWAP1 SUB SWAP1 PUSH1 0x0 MSTORE PUSH1 0x20 PUSH1 0x0 KECCAK256 SWAP1 PUSH1 0x3 MUL ADD PUSH1 0x0 SWAP1 SWAP2 SWAP1 SWAP2 SWAP1 SWAP2 POP PUSH1 0x0 DUP3 ADD MLOAD DUP2 PUSH1 0x0 ADD PUSH1 0x0 PUSH2 0x100 EXP DUP2 SLOAD DUP2 PUSH20 0xFFFFFFFFFFFFFFFFFFFFFFFFFFFFFFFFFFFFFFFF MUL NOT AND SWAP1 DUP4 PUSH20 0xFFFFFFFFFFFFFFFFFFFFFFFFFFFFFFFFFFFFFFFF AND MUL OR SWAP1 SSTORE POP PUSH1 0x20 DUP3 ADD MLOAD DUP2 PUSH1 0x1 ADD SSTORE PUSH1 0x40 DUP3 ADD MLOAD DUP2 PUSH1 0x2 ADD SWAP1 DUP2 PUSH2 0x61E SWAP2 SWAP1 PUSH2 0x1468 JUMP JUMPDEST POP POP POP DUP4 PUSH20 0xFFFFFFFFFFFFFFFFFFFFFFFFFFFFFFFFFFFFFFFF AND DUP2 CALLER PUSH20 0xFFFFFFFFFFFFFFFFFFFFFFFFFFFFFFFFFFFFFFFF AND PUSH32 0xFF161496BB9879E11F4A70B7DF1B7BA081936284851B65942EF4D782F9D39BEA DUP7 DUP7 PUSH1 0x40 MLOAD PUSH2 0x681 SWAP3 SWAP2 SWAP1 PUSH2 0x153A JUMP JUMPDEST PUSH1 0x40 MLOAD DUP1 SWAP2 SUB SWAP1 LOG4 POP POP POP POP JUMP JUMPDEST PUSH1 0x0 DUP1 PUSH1 0x0 SWAP1 POP PUSH1 0x0 JUMPDEST PUSH1 0x2 PUSH1 0x0 DUP6 PUSH20 0xFFFFFFFFFFFFFFFFFFFFFFFFFFFFFFFFFFFFFFFF AND PUSH20 0xFFFFFFFFFFFFFFFFFFFFFFFFFFFFFFFFFFFFFFFF AND DUP2 MSTORE PUSH1 0x20 ADD SWAP1 DUP2 MSTORE PUSH1 0x20 ADD PUSH1 0x0 KECCAK256 DUP1 SLOAD SWAP1 POP DUP2 LT ISZERO PUSH2 0x766 JUMPI PUSH1 0x2 PUSH1 0x0 DUP6 PUSH20 0xFFFFFFFFFFFFFFFFFFFFFFFFFFFFFFFFFFFFFFFF AND PUSH20 0xFFFFFFFFFFFFFFFFFFFFFFFFFFFFFFFFFFFFFFFF AND DUP2 MSTORE PUSH1 0x20 ADD SWAP1 DUP2 MSTORE PUSH1 0x20 ADD PUSH1 0x0 KECCAK256 DUP2 DUP2 SLOAD DUP2 LT PUSH2 0x734 JUMPI PUSH2 0x733 PUSH2 0x122D JUMP JUMPDEST JUMPDEST SWAP1 PUSH1 0x0 MSTORE PUSH1 0x20 PUSH1 0x0 KECCAK256 SWAP1 PUSH1 0x2 MUL ADD PUSH1 0x1 ADD SLOAD DUP3 PUSH2 0x751 SWAP2 SWAP1 PUSH2 0x1599 JUMP JUMPDEST SWAP2 POP DUP1 DUP1 PUSH2 0x75E SWAP1 PUSH2 0x15CD JUMP JUMPDEST SWAP2 POP POP PUSH2 0x699 JUMP JUMPDEST POP PUSH1 0x0 PUSH1 0x2 PUSH1 0x0 DUP6 PUSH20 0xFFFFFFFFFFFFFFFFFFFFFFFFFFFFFFFFFFFFFFFF AND PUSH20 0xFFFFFFFFFFFFFFFFFFFFFFFFFFFFFFFFFFFFFFFF AND DUP2 MSTORE PUSH1 0x20 ADD SWAP1 DUP2 MSTORE PUSH1 0x20 ADD PUSH1 0x0 KECCAK256 DUP1 SLOAD SWAP1 POP DUP3 PUSH2 0x7B7 SWAP2 SWAP1 PUSH2 0x1644 JUMP JUMPDEST SWAP1 POP DUP1 SWAP3 POP POP POP SWAP2 SWAP1 POP JUMP JUMPDEST PUSH1 0x1 PUSH1 0x0 CALLER PUSH20 0xFFFFFFFFFFFFFFFFFFFFFFFFFFFFFFFFFFFFFFFF AND PUSH20 0xFFFFFFFFFFFFFFFFFFFFFFFFFFFFFFFFFFFFFFFF AND DUP2 MSTORE PUSH1 0x20 ADD SWAP1 DUP2 MSTORE PUSH1 0x20 ADD PUSH1 0x0 KECCAK256 DUP2 SWAP1 DUP1 PUSH1 0x1 DUP2 SLOAD ADD DUP1 DUP3 SSTORE DUP1 SWAP2 POP POP PUSH1 0x1 SWAP1 SUB SWAP1 PUSH1 0x0 MSTORE PUSH1 0x20 PUSH1 0x0 KECCAK256 ADD PUSH1 0x0 SWAP1 SWAP2 SWAP1 SWAP2 SWAP1 SWAP2 POP SSTORE POP JUMP JUMPDEST PUSH1 0x1 PUSH1 0x20 MSTORE DUP2 PUSH1 0x0 MSTORE PUSH1 0x40 PUSH1 0x0 KECCAK256 DUP2 DUP2 SLOAD DUP2 LT PUSH2 0x848 JUMPI PUSH1 0x0 DUP1 REVERT JUMPDEST SWAP1 PUSH1 0x0 MSTORE PUSH1 0x20 PUSH1 0x0 KECCAK256 ADD PUSH1 0x0 SWAP2 POP SWAP2 POP POP SLOAD DUP2 JUMP JUMPDEST PUSH1 0x0 DUP2 DUP2 SLOAD DUP2 LT PUSH2 0x86D JUMPI PUSH1 0x0 DUP1 REVERT JUMPDEST SWAP1 PUSH1 0x0 MSTORE PUSH1 0x20 PUSH1 0x0 KECCAK256 SWAP1 PUSH1 0x3 MUL ADD PUSH1 0x0 SWAP2 POP SWAP1 POP DUP1 PUSH1 0x0 ADD PUSH1 0x0 SWAP1 SLOAD SWAP1 PUSH2 0x100 EXP SWAP1 DIV PUSH20 0xFFFFFFFFFFFFFFFFFFFFFFFFFFFFFFFFFFFFFFFF AND SWAP1 DUP1 PUSH1 0x1 ADD SLOAD SWAP1 DUP1 PUSH1 0x2 ADD DUP1 SLOAD PUSH2 0x8BC SWAP1 PUSH2 0x128B JUMP JUMPDEST DUP1 PUSH1 0x1F ADD PUSH1 0x20 DUP1 SWAP2 DIV MUL PUSH1 0x20 ADD PUSH1 0x40 MLOAD SWAP1 DUP2 ADD PUSH1 0x40 MSTORE DUP1 SWAP3 SWAP2 SWAP1 DUP2 DUP2 MSTORE PUSH1 0x20 ADD DUP3 DUP1 SLOAD PUSH2 0x8E8 SWAP1 PUSH2 0x128B JUMP JUMPDEST DUP1 ISZERO PUSH2 0x935 JUMPI DUP1 PUSH1 0x1F LT PUSH2 0x90A JUMPI PUSH2 0x100 DUP1 DUP4 SLOAD DIV MUL DUP4 MSTORE SWAP2 PUSH1 0x20 ADD SWAP2 PUSH2 0x935 JUMP JUMPDEST DUP3 ADD SWAP2 SWAP1 PUSH1 0x0 MSTORE PUSH1 0x20 PUSH1 0x0 KECCAK256 SWAP1 JUMPDEST DUP2 SLOAD DUP2 MSTORE SWAP1 PUSH1 0x1 ADD SWAP1 PUSH1 0x20 ADD DUP1 DUP4 GT PUSH2 0x918 JUMPI DUP3 SWAP1 SUB PUSH1 0x1F AND DUP3 ADD SWAP2 JUMPDEST POP POP POP POP POP SWAP1 POP DUP4 JUMP JUMPDEST PUSH1 0x60 PUSH1 0x1 PUSH1 0x0 DUP4 PUSH20 0xFFFFFFFFFFFFFFFFFFFFFFFFFFFFFFFFFFFFFFFF AND PUSH20 0xFFFFFFFFFFFFFFFFFFFFFFFFFFFFFFFFFFFFFFFF AND DUP2 MSTORE PUSH1 0x20 ADD SWAP1 DUP2 MSTORE PUSH1 0x20 ADD PUSH1 0x0 KECCAK256 DUP1 SLOAD DUP1 PUSH1 0x20 MUL PUSH1 0x20 ADD PUSH1 0x40 MLOAD SWAP1 DUP2 ADD PUSH1 0x40 MSTORE DUP1 SWAP3 SWAP2 SWAP1 DUP2 DUP2 MSTORE PUSH1 0x20 ADD DUP3 DUP1 SLOAD DUP1 ISZERO PUSH2 0x9CA JUMPI PUSH1 0x20 MUL DUP3 ADD SWAP2 SWAP1 PUSH1 0x0 MSTORE PUSH1 0x20 PUSH1 0x0 KECCAK256 SWAP1 JUMPDEST DUP2 SLOAD DUP2 MSTORE PUSH1 0x20 ADD SWAP1 PUSH1 0x1 ADD SWAP1 DUP1 DUP4 GT PUSH2 0x9B6 JUMPI JUMPDEST POP POP POP POP POP SWAP1 POP SWAP2 SWAP1 POP JUMP JUMPDEST PUSH1 0x2 PUSH1 0x0 DUP4 PUSH20 0xFFFFFFFFFFFFFFFFFFFFFFFFFFFFFFFFFFFFFFFF AND PUSH20 0xFFFFFFFFFFFFFFFFFFFFFFFFFFFFFFFFFFFFFFFF AND DUP2 MSTORE PUSH1 0x20 ADD SWAP1 DUP2 MSTORE PUSH1 0x20 ADD PUSH1 0x0 KECCAK256 PUSH1 0x40 MLOAD DUP1 PUSH1 0x40 ADD PUSH1 0x40 MSTORE DUP1 DUP6 PUSH20 0xFFFFFFFFFFFFFFFFFFFFFFFFFFFFFFFFFFFFFFFF AND DUP2 MSTORE PUSH1 0x20 ADD DUP4 DUP2 MSTORE POP SWAP1 DUP1 PUSH1 0x1 DUP2 SLOAD ADD DUP1 DUP3 SSTORE DUP1 SWAP2 POP POP PUSH1 0x1 SWAP1 SUB SWAP1 PUSH1 0x0 MSTORE PUSH1 0x20 PUSH1 0x0 KECCAK256 SWAP1 PUSH1 0x2 MUL ADD PUSH1 0x0 SWAP1 SWAP2 SWAP1 SWAP2 SWAP1 SWAP2 POP PUSH1 0x0 DUP3 ADD MLOAD DUP2 PUSH1 0x0 ADD PUSH1 0x0 PUSH2 0x100 EXP DUP2 SLOAD DUP2 PUSH20 0xFFFFFFFFFFFFFFFFFFFFFFFFFFFFFFFFFFFFFFFF MUL NOT AND SWAP1 DUP4 PUSH20 0xFFFFFFFFFFFFFFFFFFFFFFFFFFFFFFFFFFFFFFFF AND MUL OR SWAP1 SSTORE POP PUSH1 0x20 DUP3 ADD MLOAD DUP2 PUSH1 0x1 ADD SSTORE POP POP POP POP POP JUMP JUMPDEST PUSH1 0x0 DUP1 PUSH1 0x0 SWAP1 POP PUSH1 0x0 JUMPDEST PUSH1 0x1 PUSH1 0x0 DUP6 PUSH20 0xFFFFFFFFFFFFFFFFFFFFFFFFFFFFFFFFFFFFFFFF AND PUSH20 0xFFFFFFFFFFFFFFFFFFFFFFFFFFFFFFFFFFFFFFFF AND DUP2 MSTORE PUSH1 0x20 ADD SWAP1 DUP2 MSTORE PUSH1 0x20 ADD PUSH1 0x0 KECCAK256 DUP1 SLOAD SWAP1 POP DUP2 LT ISZERO PUSH2 0xB91 JUMPI PUSH1 0x1 PUSH1 0x0 DUP6 PUSH20 0xFFFFFFFFFFFFFFFFFFFFFFFFFFFFFFFFFFFFFFFF AND PUSH20 0xFFFFFFFFFFFFFFFFFFFFFFFFFFFFFFFFFFFFFFFF AND DUP2 MSTORE PUSH1 0x20 ADD SWAP1 DUP2 MSTORE PUSH1 0x20 ADD PUSH1 0x0 KECCAK256 DUP2 DUP2 SLOAD DUP2 LT PUSH2 0xB66 JUMPI PUSH2 0xB65 PUSH2 0x122D JUMP JUMPDEST JUMPDEST SWAP1 PUSH1 0x0 MSTORE PUSH1 0x20 PUSH1 0x0 KECCAK256 ADD SLOAD DUP3 PUSH2 0xB7C SWAP2 SWAP1 PUSH2 0x1599 JUMP JUMPDEST SWAP2 POP DUP1 DUP1 PUSH2 0xB89 SWAP1 PUSH2 0x15CD JUMP JUMPDEST SWAP2 POP POP PUSH2 0xACB JUMP JUMPDEST POP DUP1 SWAP2 POP POP SWAP2 SWAP1 POP JUMP JUMPDEST PUSH1 0x3 DUP1 SLOAD PUSH2 0xBA8 SWAP1 PUSH2 0x128B JUMP JUMPDEST DUP1 PUSH1 0x1F ADD PUSH1 0x20 DUP1 SWAP2 DIV MUL PUSH1 0x20 ADD PUSH1 0x40 MLOAD SWAP1 DUP2 ADD PUSH1 0x40 MSTORE DUP1 SWAP3 SWAP2 SWAP1 DUP2 DUP2 MSTORE PUSH1 0x20 ADD DUP3 DUP1 SLOAD PUSH2 0xBD4 SWAP1 PUSH2 0x128B JUMP JUMPDEST DUP1 ISZERO PUSH2 0xC21 JUMPI DUP1 PUSH1 0x1F LT PUSH2 0xBF6 JUMPI PUSH2 0x100 DUP1 DUP4 SLOAD DIV MUL DUP4 MSTORE SWAP2 PUSH1 0x20 ADD SWAP2 PUSH2 0xC21 JUMP JUMPDEST DUP3 ADD SWAP2 SWAP1 PUSH1 0x0 MSTORE PUSH1 0x20 PUSH1 0x0 KECCAK256 SWAP1 JUMPDEST DUP2 SLOAD DUP2 MSTORE SWAP1 PUSH1 0x1 ADD SWAP1 PUSH1 0x20 ADD DUP1 DUP4 GT PUSH2 0xC04 JUMPI DUP3 SWAP1 SUB PUSH1 0x1F AND DUP3 ADD SWAP2 JUMPDEST POP POP POP POP POP DUP2 JUMP JUMPDEST PUSH1 0x0 DUP2 SWAP1 POP SWAP2 SWAP1 POP JUMP JUMPDEST PUSH2 0xC3C DUP2 PUSH2 0xC29 JUMP JUMPDEST DUP3 MSTORE POP POP JUMP JUMPDEST PUSH1 0x0 PUSH1 0x40 DUP3 ADD SWAP1 POP PUSH2 0xC57 PUSH1 0x0 DUP4 ADD DUP6 PUSH2 0xC33 JUMP JUMPDEST PUSH2 0xC64 PUSH1 0x20 DUP4 ADD DUP5 PUSH2 0xC33 JUMP JUMPDEST SWAP4 SWAP3 POP POP POP JUMP JUMPDEST PUSH1 0x0 PUSH20 0xFFFFFFFFFFFFFFFFFFFFFFFFFFFFFFFFFFFFFFFF DUP3 AND SWAP1 POP SWAP2 SWAP1 POP JUMP JUMPDEST PUSH1 0x0 PUSH2 0xC96 DUP3 PUSH2 0xC6B JUMP JUMPDEST SWAP1 POP SWAP2 SWAP1 POP JUMP JUMPDEST PUSH2 0xCA6 DUP2 PUSH2 0xC8B JUMP JUMPDEST DUP3 MSTORE POP POP JUMP JUMPDEST PUSH1 0x0 PUSH1 0x20 DUP3 ADD SWAP1 POP PUSH2 0xCC1 PUSH1 0x0 DUP4 ADD DUP5 PUSH2 0xC9D JUMP JUMPDEST SWAP3 SWAP2 POP POP JUMP JUMPDEST PUSH1 0x0 PUSH1 0x40 MLOAD SWAP1 POP SWAP1 JUMP JUMPDEST PUSH1 0x0 DUP1 REVERT JUMPDEST PUSH1 0x0 DUP1 REVERT JUMPDEST PUSH2 0xCE4 DUP2 PUSH2 0xC8B JUMP JUMPDEST DUP2 EQ PUSH2 0xCEF JUMPI PUSH1 0x0 DUP1 REVERT JUMPDEST POP JUMP JUMPDEST PUSH1 0x0 DUP2 CALLDATALOAD SWAP1 POP PUSH2 0xD01 DUP2 PUSH2 0xCDB JUMP JUMPDEST SWAP3 SWAP2 POP POP JUMP JUMPDEST PUSH2 0xD10 DUP2 PUSH2 0xC29 JUMP JUMPDEST DUP2 EQ PUSH2 0xD1B JUMPI PUSH1 0x0 DUP1 REVERT JUMPDEST POP JUMP JUMPDEST PUSH1 0x0 DUP2 CALLDATALOAD SWAP1 POP PUSH2 0xD2D DUP2 PUSH2 0xD07 JUMP JUMPDEST SWAP3 SWAP2 POP POP JUMP JUMPDEST PUSH1 0x0 DUP1 PUSH1 0x40 DUP4 DUP6 SUB SLT ISZERO PUSH2 0xD4A JUMPI PUSH2 0xD49 PUSH2 0xCD1 JUMP JUMPDEST JUMPDEST PUSH1 0x0 PUSH2 0xD58 DUP6 DUP3 DUP7 ADD PUSH2 0xCF2 JUMP JUMPDEST SWAP3 POP POP PUSH1 0x20 PUSH2 0xD69 DUP6 DUP3 DUP7 ADD PUSH2 0xD1E JUMP JUMPDEST SWAP2 POP POP SWAP3 POP SWAP3 SWAP1 POP JUMP JUMPDEST PUSH1 0x0 PUSH1 0x40 DUP3 ADD SWAP1 POP PUSH2 0xD88 PUSH1 0x0 DUP4 ADD DUP6 PUSH2 0xC9D JUMP JUMPDEST PUSH2 0xD95 PUSH1 0x20 DUP4 ADD DUP5 PUSH2 0xC33 JUMP JUMPDEST SWAP4 SWAP3 POP POP POP JUMP JUMPDEST PUSH1 0x0 PUSH1 0x20 DUP3 ADD SWAP1 POP PUSH2 0xDB1 PUSH1 0x0 DUP4 ADD DUP5 PUSH2 0xC33 JUMP JUMPDEST SWAP3 SWAP2 POP POP JUMP JUMPDEST PUSH1 0x0 PUSH1 0x20 DUP3 DUP5 SUB SLT ISZERO PUSH2 0xDCD JUMPI PUSH2 0xDCC PUSH2 0xCD1 JUMP JUMPDEST JUMPDEST PUSH1 0x0 PUSH2 0xDDB DUP5 DUP3 DUP6 ADD PUSH2 0xD1E JUMP JUMPDEST SWAP2 POP POP SWAP3 SWAP2 POP POP JUMP JUMPDEST PUSH1 0x0 DUP2 MLOAD SWAP1 POP SWAP2 SWAP1 POP JUMP JUMPDEST PUSH1 0x0 DUP3 DUP3 MSTORE PUSH1 0x20 DUP3 ADD SWAP1 POP SWAP3 SWAP2 POP POP JUMP JUMPDEST PUSH1 0x0 JUMPDEST DUP4 DUP2 LT ISZERO PUSH2 0xE1E JUMPI DUP1 DUP3 ADD MLOAD DUP2 DUP5 ADD MSTORE PUSH1 0x20 DUP2 ADD SWAP1 POP PUSH2 0xE03 JUMP JUMPDEST PUSH1 0x0 DUP5 DUP5 ADD MSTORE POP POP POP POP JUMP JUMPDEST PUSH1 0x0 PUSH1 0x1F NOT PUSH1 0x1F DUP4 ADD AND SWAP1 POP SWAP2 SWAP1 POP JUMP JUMPDEST PUSH1 0x0 PUSH2 0xE46 DUP3 PUSH2 0xDE4 JUMP JUMPDEST PUSH2 0xE50 DUP2 DUP6 PUSH2 0xDEF JUMP JUMPDEST SWAP4 POP PUSH2 0xE60 DUP2 DUP6 PUSH1 0x20 DUP7 ADD PUSH2 0xE00 JUMP JUMPDEST PUSH2 0xE69 DUP2 PUSH2 0xE2A JUMP JUMPDEST DUP5 ADD SWAP2 POP POP SWAP3 SWAP2 POP POP JUMP JUMPDEST PUSH1 0x0 PUSH1 0x60 DUP3 ADD SWAP1 POP PUSH2 0xE89 PUSH1 0x0 DUP4 ADD DUP7 PUSH2 0xC9D JUMP JUMPDEST PUSH2 0xE96 PUSH1 0x20 DUP4 ADD DUP6 PUSH2 0xC33 JUMP JUMPDEST DUP2 DUP2 SUB PUSH1 0x40 DUP4 ADD MSTORE PUSH2 0xEA8 DUP2 DUP5 PUSH2 0xE3B JUMP JUMPDEST SWAP1 POP SWAP5 SWAP4 POP POP POP POP JUMP JUMPDEST PUSH1 0x0 DUP1 REVERT JUMPDEST PUSH1 0x0 DUP1 REVERT JUMPDEST PUSH32 0x4E487B7100000000000000000000000000000000000000000000000000000000 PUSH1 0x0 MSTORE PUSH1 0x41 PUSH1 0x4 MSTORE PUSH1 0x24 PUSH1 0x0 REVERT JUMPDEST PUSH2 0xEF4 DUP3 PUSH2 0xE2A JUMP JUMPDEST DUP2 ADD DUP2 DUP2 LT PUSH8 0xFFFFFFFFFFFFFFFF DUP3 GT OR ISZERO PUSH2 0xF13 JUMPI PUSH2 0xF12 PUSH2 0xEBC JUMP JUMPDEST JUMPDEST DUP1 PUSH1 0x40 MSTORE POP POP POP JUMP JUMPDEST PUSH1 0x0 PUSH2 0xF26 PUSH2 0xCC7 JUMP JUMPDEST SWAP1 POP PUSH2 0xF32 DUP3 DUP3 PUSH2 0xEEB JUMP JUMPDEST SWAP2 SWAP1 POP JUMP JUMPDEST PUSH1 0x0 PUSH8 0xFFFFFFFFFFFFFFFF DUP3 GT ISZERO PUSH2 0xF52 JUMPI PUSH2 0xF51 PUSH2 0xEBC JUMP JUMPDEST JUMPDEST PUSH2 0xF5B DUP3 PUSH2 0xE2A JUMP JUMPDEST SWAP1 POP PUSH1 0x20 DUP2 ADD SWAP1 POP SWAP2 SWAP1 POP JUMP JUMPDEST DUP3 DUP2 DUP4 CALLDATACOPY PUSH1 0x0 DUP4 DUP4 ADD MSTORE POP POP POP JUMP JUMPDEST PUSH1 0x0 PUSH2 0xF8A PUSH2 0xF85 DUP5 PUSH2 0xF37 JUMP JUMPDEST PUSH2 0xF1C JUMP JUMPDEST SWAP1 POP DUP3 DUP2 MSTORE PUSH1 0x20 DUP2 ADD DUP5 DUP5 DUP5 ADD GT ISZERO PUSH2 0xFA6 JUMPI PUSH2 0xFA5 PUSH2 0xEB7 JUMP JUMPDEST JUMPDEST PUSH2 0xFB1 DUP5 DUP3 DUP6 PUSH2 0xF68 JUMP JUMPDEST POP SWAP4 SWAP3 POP POP POP JUMP JUMPDEST PUSH1 0x0 DUP3 PUSH1 0x1F DUP4 ADD SLT PUSH2 0xFCE JUMPI PUSH2 0xFCD PUSH2 0xEB2 JUMP JUMPDEST JUMPDEST DUP2 CALLDATALOAD PUSH2 0xFDE DUP5 DUP3 PUSH1 0x20 DUP7 ADD PUSH2 0xF77 JUMP JUMPDEST SWAP2 POP POP SWAP3 SWAP2 POP POP JUMP JUMPDEST PUSH1 0x0 DUP1 PUSH1 0x0 PUSH1 0x60 DUP5 DUP7 SUB SLT ISZERO PUSH2 0x1000 JUMPI PUSH2 0xFFF PUSH2 0xCD1 JUMP JUMPDEST JUMPDEST PUSH1 0x0 PUSH2 0x100E DUP7 DUP3 DUP8 ADD PUSH2 0xCF2 JUMP JUMPDEST SWAP4 POP POP PUSH1 0x20 PUSH2 0x101F DUP7 DUP3 DUP8 ADD PUSH2 0xD1E JUMP JUMPDEST SWAP3 POP POP PUSH1 0x40 DUP5 ADD CALLDATALOAD PUSH8 0xFFFFFFFFFFFFFFFF DUP2 GT ISZERO PUSH2 0x1040 JUMPI PUSH2 0x103F PUSH2 0xCD6 JUMP JUMPDEST JUMPDEST PUSH2 0x104C DUP7 DUP3 DUP8 ADD PUSH2 0xFB9 JUMP JUMPDEST SWAP2 POP POP SWAP3 POP SWAP3 POP SWAP3 JUMP JUMPDEST PUSH1 0x0 PUSH1 0x20 DUP3 DUP5 SUB SLT ISZERO PUSH2 0x106C JUMPI PUSH2 0x106B PUSH2 0xCD1 JUMP JUMPDEST JUMPDEST PUSH1 0x0 PUSH2 0x107A DUP5 DUP3 DUP6 ADD PUSH2 0xCF2 JUMP JUMPDEST SWAP2 POP POP SWAP3 SWAP2 POP POP JUMP JUMPDEST PUSH1 0x0 DUP2 MLOAD SWAP1 POP SWAP2 SWAP1 POP JUMP JUMPDEST PUSH1 0x0 DUP3 DUP3 MSTORE PUSH1 0x20 DUP3 ADD SWAP1 POP SWAP3 SWAP2 POP POP JUMP JUMPDEST PUSH1 0x0 DUP2 SWAP1 POP PUSH1 0x20 DUP3 ADD SWAP1 POP SWAP2 SWAP1 POP JUMP JUMPDEST PUSH2 0x10B8 DUP2 PUSH2 0xC29 JUMP JUMPDEST DUP3 MSTORE POP POP JUMP JUMPDEST PUSH1 0x0 PUSH2 0x10CA DUP4 DUP4 PUSH2 0x10AF JUMP JUMPDEST PUSH1 0x20 DUP4 ADD SWAP1 POP SWAP3 SWAP2 POP POP JUMP JUMPDEST PUSH1 0x0 PUSH1 0x20 DUP3 ADD SWAP1 POP SWAP2 SWAP1 POP JUMP JUMPDEST PUSH1 0x0 PUSH2 0x10EE DUP3 PUSH2 0x1083 JUMP JUMPDEST PUSH2 0x10F8 DUP2 DUP6 PUSH2 0x108E JUMP JUMPDEST SWAP4 POP PUSH2 0x1103 DUP4 PUSH2 0x109F JUMP JUMPDEST DUP1 PUSH1 0x0 JUMPDEST DUP4 DUP2 LT ISZERO PUSH2 0x1134 JUMPI DUP2 MLOAD PUSH2 0x111B DUP9 DUP3 PUSH2 0x10BE JUMP JUMPDEST SWAP8 POP PUSH2 0x1126 DUP4 PUSH2 0x10D6 JUMP JUMPDEST SWAP3 POP POP PUSH1 0x1 DUP2 ADD SWAP1 POP PUSH2 0x1107 JUMP JUMPDEST POP DUP6 SWAP4 POP POP POP POP SWAP3 SWAP2 POP POP JUMP JUMPDEST PUSH1 0x0 PUSH1 0x20 DUP3 ADD SWAP1 POP DUP2 DUP2 SUB PUSH1 0x0 DUP4 ADD MSTORE PUSH2 0x115B DUP2 DUP5 PUSH2 0x10E3 JUMP JUMPDEST SWAP1 POP SWAP3 SWAP2 POP POP JUMP JUMPDEST PUSH1 0x0 DUP1 PUSH1 0x0 PUSH1 0x60 DUP5 DUP7 SUB SLT ISZERO PUSH2 0x117C JUMPI PUSH2 0x117B PUSH2 0xCD1 JUMP JUMPDEST JUMPDEST PUSH1 0x0 PUSH2 0x118A DUP7 DUP3 DUP8 ADD PUSH2 0xCF2 JUMP JUMPDEST SWAP4 POP POP PUSH1 0x20 PUSH2 0x119B DUP7 DUP3 DUP8 ADD PUSH2 0xCF2 JUMP JUMPDEST SWAP3 POP POP PUSH1 0x40 PUSH2 0x11AC DUP7 DUP3 DUP8 ADD PUSH2 0xD1E JUMP JUMPDEST SWAP2 POP POP SWAP3 POP SWAP3 POP SWAP3 JUMP JUMPDEST PUSH1 0x0 DUP2 MLOAD SWAP1 POP SWAP2 SWAP1 POP JUMP JUMPDEST PUSH1 0x0 DUP3 DUP3 MSTORE PUSH1 0x20 DUP3 ADD SWAP1 POP SWAP3 SWAP2 POP POP JUMP JUMPDEST PUSH1 0x0 PUSH2 0x11DD DUP3 PUSH2 0x11B6 JUMP JUMPDEST PUSH2 0x11E7 DUP2 DUP6 PUSH2 0x11C1 JUMP JUMPDEST SWAP4 POP PUSH2 0x11F7 DUP2 DUP6 PUSH1 0x20 DUP7 ADD PUSH2 0xE00 JUMP JUMPDEST PUSH2 0x1200 DUP2 PUSH2 0xE2A JUMP JUMPDEST DUP5 ADD SWAP2 POP POP SWAP3 SWAP2 POP POP JUMP JUMPDEST PUSH1 0x0 PUSH1 0x20 DUP3 ADD SWAP1 POP DUP2 DUP2 SUB PUSH1 0x0 DUP4 ADD MSTORE PUSH2 0x1225 DUP2 DUP5 PUSH2 0x11D2 JUMP JUMPDEST SWAP1 POP SWAP3 SWAP2 POP POP JUMP JUMPDEST PUSH32 0x4E487B7100000000000000000000000000000000000000000000000000000000 PUSH1 0x0 MSTORE PUSH1 0x32 PUSH1 0x4 MSTORE PUSH1 0x24 PUSH1 0x0 REVERT JUMPDEST PUSH32 0x4E487B7100000000000000000000000000000000000000000000000000000000 PUSH1 0x0 MSTORE PUSH1 0x22 PUSH1 0x4 MSTORE PUSH1 0x24 PUSH1 0x0 REVERT JUMPDEST PUSH1 0x0 PUSH1 0x2 DUP3 DIV SWAP1 POP PUSH1 0x1 DUP3 AND DUP1 PUSH2 0x12A3 JUMPI PUSH1 0x7F DUP3 AND SWAP2 POP JUMPDEST PUSH1 0x20 DUP3 LT DUP2 SUB PUSH2 0x12B6 JUMPI PUSH2 0x12B5 PUSH2 0x125C JUMP JUMPDEST JUMPDEST POP SWAP2 SWAP1 POP JUMP JUMPDEST PUSH1 0x0 DUP2 SWAP1 POP DUP2 PUSH1 0x0 MSTORE PUSH1 0x20 PUSH1 0x0 KECCAK256 SWAP1 POP SWAP2 SWAP1 POP JUMP JUMPDEST PUSH1 0x0 PUSH1 0x20 PUSH1 0x1F DUP4 ADD DIV SWAP1 POP SWAP2 SWAP1 POP JUMP JUMPDEST PUSH1 0x0 DUP3 DUP3 SHL SWAP1 POP SWAP3 SWAP2 POP POP JUMP JUMPDEST PUSH1 0x0 PUSH1 0x8 DUP4 MUL PUSH2 0x131E PUSH32 0xFFFFFFFFFFFFFFFFFFFFFFFFFFFFFFFFFFFFFFFFFFFFFFFFFFFFFFFFFFFFFFFF DUP3 PUSH2 0x12E1 JUMP JUMPDEST PUSH2 0x1328 DUP7 DUP4 PUSH2 0x12E1 JUMP JUMPDEST SWAP6 POP DUP1 NOT DUP5 AND SWAP4 POP DUP1 DUP7 AND DUP5 OR SWAP3 POP POP POP SWAP4 SWAP3 POP POP POP JUMP JUMPDEST PUSH1 0x0 DUP2 SWAP1 POP SWAP2 SWAP1 POP JUMP JUMPDEST PUSH1 0x0 PUSH2 0x1365 PUSH2 0x1360 PUSH2 0x135B DUP5 PUSH2 0xC29 JUMP JUMPDEST PUSH2 0x1340 JUMP JUMPDEST PUSH2 0xC29 JUMP JUMPDEST SWAP1 POP SWAP2 SWAP1 POP JUMP JUMPDEST PUSH1 0x0 DUP2 SWAP1 POP SWAP2 SWAP1 POP JUMP JUMPDEST PUSH2 0x137F DUP4 PUSH2 0x134A JUMP JUMPDEST PUSH2 0x1393 PUSH2 0x138B DUP3 PUSH2 0x136C JUMP JUMPDEST DUP5 DUP5 SLOAD PUSH2 0x12EE JUMP JUMPDEST DUP3 SSTORE POP POP POP POP JUMP JUMPDEST PUSH1 0x0 SWAP1 JUMP JUMPDEST PUSH2 0x13A8 PUSH2 0x139B JUMP JUMPDEST PUSH2 0x13B3 DUP2 DUP5 DUP5 PUSH2 0x1376 JUMP JUMPDEST POP POP POP JUMP JUMPDEST JUMPDEST DUP2 DUP2 LT ISZERO PUSH2 0x13D7 JUMPI PUSH2 0x13CC PUSH1 0x0 DUP3 PUSH2 0x13A0 JUMP JUMPDEST PUSH1 0x1 DUP2 ADD SWAP1 POP PUSH2 0x13B9 JUMP JUMPDEST POP POP JUMP JUMPDEST PUSH1 0x1F DUP3 GT ISZERO PUSH2 0x141C JUMPI PUSH2 0x13ED DUP2 PUSH2 0x12BC JUMP JUMPDEST PUSH2 0x13F6 DUP5 PUSH2 0x12D1 JUMP JUMPDEST DUP2 ADD PUSH1 0x20 DUP6 LT ISZERO PUSH2 0x1405 JUMPI DUP2 SWAP1 POP JUMPDEST PUSH2 0x1419 PUSH2 0x1411 DUP6 PUSH2 0x12D1 JUMP JUMPDEST DUP4 ADD DUP3 PUSH2 0x13B8 JUMP JUMPDEST POP POP JUMPDEST POP POP POP JUMP JUMPDEST PUSH1 0x0 DUP3 DUP3 SHR SWAP1 POP SWAP3 SWAP2 POP POP JUMP JUMPDEST PUSH1 0x0 PUSH2 0x143F PUSH1 0x0 NOT DUP5 PUSH1 0x8 MUL PUSH2 0x1421 JUMP JUMPDEST NOT DUP1 DUP4 AND SWAP2 POP POP SWAP3 SWAP2 POP POP JUMP JUMPDEST PUSH1 0x0 PUSH2 0x1458 DUP4 DUP4 PUSH2 0x142E JUMP JUMPDEST SWAP2 POP DUP3 PUSH1 0x2 MUL DUP3 OR SWAP1 POP SWAP3 SWAP2 POP POP JUMP JUMPDEST PUSH2 0x1471 DUP3 PUSH2 0xDE4 JUMP JUMPDEST PUSH8 0xFFFFFFFFFFFFFFFF DUP2 GT ISZERO PUSH2 0x148A JUMPI PUSH2 0x1489 PUSH2 0xEBC JUMP JUMPDEST JUMPDEST PUSH2 0x1494 DUP3 SLOAD PUSH2 0x128B JUMP JUMPDEST PUSH2 0x149F DUP3 DUP3 DUP6 PUSH2 0x13DB JUMP JUMPDEST PUSH1 0x0 PUSH1 0x20 SWAP1 POP PUSH1 0x1F DUP4 GT PUSH1 0x1 DUP2 EQ PUSH2 0x14D2 JUMPI PUSH1 0x0 DUP5 ISZERO PUSH2 0x14C0 JUMPI DUP3 DUP8 ADD MLOAD SWAP1 POP JUMPDEST PUSH2 0x14CA DUP6 DUP3 PUSH2 0x144C JUMP JUMPDEST DUP7 SSTORE POP PUSH2 0x1532 JUMP JUMPDEST PUSH1 0x1F NOT DUP5 AND PUSH2 0x14E0 DUP7 PUSH2 0x12BC JUMP JUMPDEST PUSH1 0x0 JUMPDEST DUP3 DUP2 LT ISZERO PUSH2 0x1508 JUMPI DUP5 DUP10 ADD MLOAD DUP3 SSTORE PUSH1 0x1 DUP3 ADD SWAP2 POP PUSH1 0x20 DUP6 ADD SWAP5 POP PUSH1 0x20 DUP2 ADD SWAP1 POP PUSH2 0x14E3 JUMP JUMPDEST DUP7 DUP4 LT ISZERO PUSH2 0x1525 JUMPI DUP5 DUP10 ADD MLOAD PUSH2 0x1521 PUSH1 0x1F DUP10 AND DUP3 PUSH2 0x142E JUMP JUMPDEST DUP4 SSTORE POP JUMPDEST PUSH1 0x1 PUSH1 0x2 DUP9 MUL ADD DUP9 SSTORE POP POP POP JUMPDEST POP POP POP POP POP POP JUMP JUMPDEST PUSH1 0x0 PUSH1 0x40 DUP3 ADD SWAP1 POP PUSH2 0x154F PUSH1 0x0 DUP4 ADD DUP6 PUSH2 0xC33 JUMP JUMPDEST DUP2 DUP2 SUB PUSH1 0x20 DUP4 ADD MSTORE PUSH2 0x1561 DUP2 DUP5 PUSH2 0xE3B JUMP JUMPDEST SWAP1 POP SWAP4 SWAP3 POP POP POP JUMP JUMPDEST PUSH32 0x4E487B7100000000000000000000000000000000000000000000000000000000 PUSH1 0x0 MSTORE PUSH1 0x11 PUSH1 0x4 MSTORE PUSH1 0x24 PUSH1 0x0 REVERT JUMPDEST PUSH1 0x0 PUSH2 0x15A4 DUP3 PUSH2 0xC29 JUMP JUMPDEST SWAP2 POP PUSH2 0x15AF DUP4 PUSH2 0xC29 JUMP JUMPDEST SWAP3 POP DUP3 DUP3 ADD SWAP1 POP DUP1 DUP3 GT ISZERO PUSH2 0x15C7 JUMPI PUSH2 0x15C6 PUSH2 0x156A JUMP JUMPDEST JUMPDEST SWAP3 SWAP2 POP POP JUMP JUMPDEST PUSH1 0x0 PUSH2 0x15D8 DUP3 PUSH2 0xC29 JUMP JUMPDEST SWAP2 POP PUSH32 0xFFFFFFFFFFFFFFFFFFFFFFFFFFFFFFFFFFFFFFFFFFFFFFFFFFFFFFFFFFFFFFFF DUP3 SUB PUSH2 0x160A JUMPI PUSH2 0x1609 PUSH2 0x156A JUMP JUMPDEST JUMPDEST PUSH1 0x1 DUP3 ADD SWAP1 POP SWAP2 SWAP1 POP JUMP JUMPDEST PUSH32 0x4E487B7100000000000000000000000000000000000000000000000000000000 PUSH1 0x0 MSTORE PUSH1 0x12 PUSH1 0x4 MSTORE PUSH1 0x24 PUSH1 0x0 REVERT JUMPDEST PUSH1 0x0 PUSH2 0x164F DUP3 PUSH2 0xC29 JUMP JUMPDEST SWAP2 POP PUSH2 0x165A DUP4 PUSH2 0xC29 JUMP JUMPDEST SWAP3 POP DUP3 PUSH2 0x166A JUMPI PUSH2 0x1669 PUSH2 0x1615 JUMP JUMPDEST JUMPDEST DUP3 DUP3 DIV SWAP1 POP SWAP3 SWAP2 POP POP JUMP INVALID LOG2 PUSH5 0x6970667358 0x22 SLT KECCAK256 0xED 0xCA NUMBER MSTORE8 PUSH11 0x3A4208A9A77EE5B9B85D9C 0xD9 0xB5 0xAD POP SWAP16 PUSH8 0x2AABF57F6015A10B 0x4A 0xB9 PUSH5 0x736F6C6343 STOP ADDMOD SLT STOP CALLER "},"gasEstimates":{"creation":{"codeDepositCost":"1160600","executionCost":"infinite","totalCost":"infinite"},"external":{"creator()":"2515","enterHours(uint256)":"46941","getHourLog(address)":"infinite","getRating(address)":"infinite","getTotalHours(address)":"infinite","getTransaction(uint256)":"infinite","getTransactionCount()":"2490","hourLog(address,uint256)":"infinite","org()":"infinite","ratings(address,uint256)":"infinite","sendRatings(address,address,uint256)":"infinite","submitTip(address,uint256,bytes)":"infinite","transactions(uint256)":"infinite"}},"methodIdentifiers":{"creator()":"02d05d3f","enterHours(uint256)":"95cd63a0","getHourLog(address)":"9d5f65fc","getRating(address)":"80fc9c0e","getTotalHours(address)":"c12be929","getTransaction(uint256)":"33ea3dc8","getTransactionCount()":"2e7700f0","hourLog(address,uint256)":"96b98a65","org()":"cc1e2cb0","ratings(address,uint256)":"2a0e54bd","sendRatings(address,address,uint256)":"a329f8f6","submitTip(address,uint256,bytes)":"66d34a9b","transactions(uint256)":"9ace38c2"}},"storageLayout":{"storage":[{"astId":76,"contract":"ServiceChain.sol:Service","label":"transactions","offset":0,"slot":"0","type":"t_array(t_struct(Transaction)52_storage)dyn_storage"},{"astId":81,"contract":"ServiceChain.sol:Service","label":"hourLog","offset":0,"slot":"1","type":"t_mapping(t_address,t_array(t_uint256)dyn_storage)"},{"astId":87,"contract":"ServiceChain.sol:Service","label":"ratings","offset":0,"slot":"2","type":"t_mapping(t_address,t_array(t_struct(customerRating)45_storage)dyn_storage)"},{"astId":89,"contract":"ServiceChain.sol:Service","label":"org","offset":0,"slot":"3","type":"t_string_storage"},{"astId":91,"contract":"ServiceChain.sol:Service","label":"creator","offset":0,"slot":"4","type":"t_address"}],"types":{"t_address":{"encoding":"inplace","label":"address","numberOfBytes":"20"},"t_array(t_struct(Transaction)52_storage)dyn_storage":{"base":"t_struct(Transaction)52_storage","encoding":"dynamic_array","label":"struct Service.Transaction[]","numberOfBytes":"32"},"t_array(t_struct(customerRating)45_storage)dyn_storage":{"base":"t_struct(customerRating)45_storage","encoding":"dynamic_array","label":"struct Service.customerRating[]","numberOfBytes":"32"},"t_array(t_uint256)dyn_storage":{"base":"t_uint256","encoding":"dynamic_array","label":"uint256[]","numberOfBytes":"32"},"t_bytes_storage":{"encoding":"bytes","label":"bytes","numberOfBytes":"32"},"t_mapping(t_address,t_array(t_struct(customerRating)45_storage)dyn_storage)":{"encoding":"mapping","key":"t_address","label":"mapping(address => struct Service.customerRating[])","numberOfBytes":"32","value":"t_array(t_struct(customerRating)45_storage)dyn_storage"},"t_mapping(t_address,t_array(t_uint256)dyn_storage)":{"encoding":"mapping","key":"t_address","label":"mapping(address => uint256[])","numberOfBytes":"32","value":"t_array(t_uint256)dyn_storage"},"t_string_storage":{"encoding":"bytes","label":"string","numberOfBytes":"32"},"t_struct(Transaction)52_storage":{"encoding":"inplace","label":"struct Service.Transaction","members":[{"astId":47,"contract":"ServiceChain.sol:Service","label":"to","offset":0,"slot":"0","type":"t_address"},{"astId":49,"contract":"ServiceChain.sol:Service","label":"value","offset":0,"slot":"1","type":"t_uint256"},{"astId":51,"contract":"ServiceChain.sol:Service","label":"data","offset":0,"slot":"2","type":"t_bytes_storage"}],"numberOfBytes":"96"},"t_struct(customerRating)45_storage":{"encoding":"inplace","label":"struct Service.customerRating","members":[{"astId":42,"contract":"ServiceChain.sol:Service","label":"from","offset":0,"slot":"0","type":"t_address"},{"astId":44,"contract":"ServiceChain.sol:Service","label":"rating","offset":0,"slot":"1","type":"t_uint256"}],"numberOfBytes":"64"},"t_uint256":{"encoding":"inplace","label":"uint256","numberOfBytes":"32"}}},"userdoc":{"kind":"user","methods":{},"version":1}}