{"abi":[{"inputs":[{"internalType":"address","name":"sender","type":"address"},{"internalType":"string","name":"organization","type":"string"}],"stateMutability":"nonpayable","type":"constructor"},{"anonymous":false,"inputs":[{"indexed":true,"internalType":"address","name":"sender","type":"address"},{"indexed":false,"internalType":"uint256","name":"amount","type":"uint256"},{"indexed":false,"internalType":"uint256","name":"balance","type":"uint256"}],"name":"Deposit","type":"event"},{"anonymous":false,"inputs":[{"indexed":true,"internalType":"address","name":"owner","type":"address"},{"indexed":true,"internalType":"uint256","name":"txIndex","type":"uint256"},{"indexed":true,"internalType":"address","name":"to","type":"address"},{"indexed":false,"internalType":"uint256","name":"value","type":"uint256"},{"indexed":false,"internalType":"bytes","name":"data","type":"bytes"}],"name":"SubmitTip","type":"event"},{"anonymous":false,"inputs":[{"indexed":true,"internalType":"address","name":"sender","type":"address"},{"indexed":true,"internalType":"address","name":"recipient","type":"address"},{"indexed":true,"internalType":"uint256","name":"forDate","type":"uint256"},{"indexed":false,"internalType":"uint256","name":"hour","type":"uint256"}],"name":"submitApproval","type":"event"},{"anonymous":false,"inputs":[{"indexed":true,"internalType":"address","name":"sender","type":"address"},{"indexed":true,"internalType":"address","name":"recipient","type":"address"},{"indexed":false,"internalType":"uint256","name":"rating","type":"uint256"}],"name":"submitRating","type":"event"},{"inputs":[{"internalType":"address","name":"waiter","type":"address"},{"internalType":"uint256","name":"index","type":"uint256"}],"name":"confirmHours","outputs":[],"stateMutability":"nonpayable","type":"function"},{"inputs":[{"internalType":"address","name":"","type":"address"},{"internalType":"uint256","name":"","type":"uint256"}],"name":"empHours","outputs":[{"internalType":"uint256","name":"date","type":"uint256"},{"internalType":"uint256","name":"hour","type":"uint256"},{"internalType":"bool","name":"isApproved","type":"bool"}],"stateMutability":"view","type":"function"},{"inputs":[{"internalType":"address","name":"waiter","type":"address"}],"name":"getHourLog","outputs":[{"components":[{"internalType":"uint256","name":"date","type":"uint256"},{"internalType":"uint256","name":"hour","type":"uint256"},{"internalType":"bool","name":"isApproved","type":"bool"}],"internalType":"struct Service.hourLog[]","name":"","type":"tuple[]"}],"stateMutability":"view","type":"function"},{"inputs":[{"internalType":"address","name":"waiter","type":"address"}],"name":"getRating","outputs":[{"internalType":"uint256","name":"avgRating","type":"uint256"}],"stateMutability":"view","type":"function"},{"inputs":[{"internalType":"uint256","name":"_txIndex","type":"uint256"}],"name":"getTransaction","outputs":[{"internalType":"address","name":"to","type":"address"},{"internalType":"uint256","name":"value","type":"uint256"},{"internalType":"bytes","name":"data","type":"bytes"}],"stateMutability":"view","type":"function"},{"inputs":[],"name":"getTransactionCount","outputs":[{"internalType":"uint256","name":"","type":"uint256"}],"stateMutability":"view","type":"function"},{"inputs":[],"name":"manager","outputs":[{"internalType":"address","name":"","type":"address"}],"stateMutability":"view","type":"function"},{"inputs":[],"name":"org","outputs":[{"internalType":"string","name":"","type":"string"}],"stateMutability":"view","type":"function"},{"inputs":[{"internalType":"address","name":"","type":"address"},{"internalType":"uint256","name":"","type":"uint256"}],"name":"ratings","outputs":[{"internalType":"address","name":"from","type":"address"},{"internalType":"uint256","name":"rating","type":"uint256"}],"stateMutability":"view","type":"function"},{"inputs":[{"internalType":"uint256","name":"value","type":"uint256"}],"name":"requestHours","outputs":[],"stateMutability":"nonpayable","type":"function"},{"inputs":[{"internalType":"address","name":"customer","type":"address"},{"internalType":"address","name":"waiter","type":"address"},{"internalType":"uint256","name":"rating","type":"uint256"}],"name":"sendRatings","outputs":[],"stateMutability":"nonpayable","type":"function"},{"inputs":[{"internalType":"address","name":"_to","type":"address"},{"internalType":"uint256","name":"_value","type":"uint256"},{"internalType":"bytes","name":"_data","type":"bytes"}],"name":"submitTip","outputs":[],"stateMutability":"nonpayable","type":"function"},{"inputs":[{"internalType":"uint256","name":"","type":"uint256"}],"name":"transactions","outputs":[{"internalType":"address","name":"to","type":"address"},{"internalType":"uint256","name":"value","type":"uint256"},{"internalType":"bytes","name":"data","type":"bytes"}],"stateMutability":"view","type":"function"},{"stateMutability":"payable","type":"receive"}],"devdoc":{"kind":"dev","methods":{},"version":1},"evm":{"assembly":"    /* \"ServiceChain.sol\":619:4650  contract Service{... */\n  mstore(0x40, 0x80)\n    /* \"ServiceChain.sol\":1565:1683  constructor(address sender, string memory organization) {... */\n  callvalue\n  dup1\n  iszero\n  tag_1\n  jumpi\n  0x00\n  dup1\n  revert\ntag_1:\n  pop\n  mload(0x40)\n  sub(codesize, bytecodeSize)\n  dup1\n  bytecodeSize\n  dup4\n  codecopy\n  dup2\n  dup2\n  add\n  0x40\n  mstore\n  dup2\n  add\n  swap1\n  tag_2\n  swap2\n  swap1\n  tag_3\n  jump\t// in\ntag_2:\n    /* \"ServiceChain.sol\":1640:1646  sender */\n  dup2\n    /* \"ServiceChain.sol\":1632:1639  manager */\n  0x04\n  0x00\n    /* \"ServiceChain.sol\":1632:1646  manager=sender */\n  0x0100\n  exp\n  dup2\n  sload\n  dup2\n  0xffffffffffffffffffffffffffffffffffffffff\n  mul\n  not\n  and\n  swap1\n  dup4\n  0xffffffffffffffffffffffffffffffffffffffff\n  and\n  mul\n  or\n  swap1\n  sstore\n  pop\n    /* \"ServiceChain.sol\":1663:1675  organization */\n  dup1\n    /* \"ServiceChain.sol\":1657:1660  org */\n  0x03\n    /* \"ServiceChain.sol\":1657:1675  org = organization */\n  swap1\n  dup2\n  tag_6\n  swap2\n  swap1\n  tag_7\n  jump\t// in\ntag_6:\n  pop\n    /* \"ServiceChain.sol\":1565:1683  constructor(address sender, string memory organization) {... */\n  pop\n  pop\n    /* \"ServiceChain.sol\":619:4650  contract Service{... */\n  jump(tag_8)\n    /* \"#utility.yul\":7:82   */\ntag_9:\n    /* \"#utility.yul\":40:46   */\n  0x00\n    /* \"#utility.yul\":73:75   */\n  0x40\n    /* \"#utility.yul\":67:76   */\n  mload\n    /* \"#utility.yul\":57:76   */\n  swap1\n  pop\n    /* \"#utility.yul\":7:82   */\n  swap1\n  jump\t// out\n    /* \"#utility.yul\":88:205   */\ntag_10:\n    /* \"#utility.yul\":197:198   */\n  0x00\n    /* \"#utility.yul\":194:195   */\n  dup1\n    /* \"#utility.yul\":187:199   */\n  revert\n    /* \"#utility.yul\":211:328   */\ntag_11:\n    /* \"#utility.yul\":320:321   */\n  0x00\n    /* \"#utility.yul\":317:318   */\n  dup1\n    /* \"#utility.yul\":310:322   */\n  revert\n    /* \"#utility.yul\":334:460   */\ntag_12:\n    /* \"#utility.yul\":371:378   */\n  0x00\n    /* \"#utility.yul\":411:453   */\n  0xffffffffffffffffffffffffffffffffffffffff\n    /* \"#utility.yul\":404:409   */\n  dup3\n    /* \"#utility.yul\":400:454   */\n  and\n    /* \"#utility.yul\":389:454   */\n  swap1\n  pop\n    /* \"#utility.yul\":334:460   */\n  swap2\n  swap1\n  pop\n  jump\t// out\n    /* \"#utility.yul\":466:562   */\ntag_13:\n    /* \"#utility.yul\":503:510   */\n  0x00\n    /* \"#utility.yul\":532:556   */\n  tag_51\n    /* \"#utility.yul\":550:555   */\n  dup3\n    /* \"#utility.yul\":532:556   */\n  tag_12\n  jump\t// in\ntag_51:\n    /* \"#utility.yul\":521:556   */\n  swap1\n  pop\n    /* \"#utility.yul\":466:562   */\n  swap2\n  swap1\n  pop\n  jump\t// out\n    /* \"#utility.yul\":568:690   */\ntag_14:\n    /* \"#utility.yul\":641:665   */\n  tag_53\n    /* \"#utility.yul\":659:664   */\n  dup2\n    /* \"#utility.yul\":641:665   */\n  tag_13\n  jump\t// in\ntag_53:\n    /* \"#utility.yul\":634:639   */\n  dup2\n    /* \"#utility.yul\":631:666   */\n  eq\n    /* \"#utility.yul\":621:684   */\n  tag_54\n  jumpi\n    /* \"#utility.yul\":680:681   */\n  0x00\n    /* \"#utility.yul\":677:678   */\n  dup1\n    /* \"#utility.yul\":670:682   */\n  revert\n    /* \"#utility.yul\":621:684   */\ntag_54:\n    /* \"#utility.yul\":568:690   */\n  pop\n  jump\t// out\n    /* \"#utility.yul\":696:839   */\ntag_15:\n    /* \"#utility.yul\":753:758   */\n  0x00\n    /* \"#utility.yul\":784:790   */\n  dup2\n    /* \"#utility.yul\":778:791   */\n  mload\n    /* \"#utility.yul\":769:791   */\n  swap1\n  pop\n    /* \"#utility.yul\":800:833   */\n  tag_56\n    /* \"#utility.yul\":827:832   */\n  dup2\n    /* \"#utility.yul\":800:833   */\n  tag_14\n  jump\t// in\ntag_56:\n    /* \"#utility.yul\":696:839   */\n  swap3\n  swap2\n  pop\n  pop\n  jump\t// out\n    /* \"#utility.yul\":845:962   */\ntag_16:\n    /* \"#utility.yul\":954:955   */\n  0x00\n    /* \"#utility.yul\":951:952   */\n  dup1\n    /* \"#utility.yul\":944:956   */\n  revert\n    /* \"#utility.yul\":968:1085   */\ntag_17:\n    /* \"#utility.yul\":1077:1078   */\n  0x00\n    /* \"#utility.yul\":1074:1075   */\n  dup1\n    /* \"#utility.yul\":1067:1079   */\n  revert\n    /* \"#utility.yul\":1091:1193   */\ntag_18:\n    /* \"#utility.yul\":1132:1138   */\n  0x00\n    /* \"#utility.yul\":1183:1185   */\n  0x1f\n    /* \"#utility.yul\":1179:1186   */\n  not\n    /* \"#utility.yul\":1174:1176   */\n  0x1f\n    /* \"#utility.yul\":1167:1172   */\n  dup4\n    /* \"#utility.yul\":1163:1177   */\n  add\n    /* \"#utility.yul\":1159:1187   */\n  and\n    /* \"#utility.yul\":1149:1187   */\n  swap1\n  pop\n    /* \"#utility.yul\":1091:1193   */\n  swap2\n  swap1\n  pop\n  jump\t// out\n    /* \"#utility.yul\":1199:1379   */\ntag_19:\n    /* \"#utility.yul\":1247:1324   */\n  0x4e487b7100000000000000000000000000000000000000000000000000000000\n    /* \"#utility.yul\":1244:1245   */\n  0x00\n    /* \"#utility.yul\":1237:1325   */\n  mstore\n    /* \"#utility.yul\":1344:1348   */\n  0x41\n    /* \"#utility.yul\":1341:1342   */\n  0x04\n    /* \"#utility.yul\":1334:1349   */\n  mstore\n    /* \"#utility.yul\":1368:1372   */\n  0x24\n    /* \"#utility.yul\":1365:1366   */\n  0x00\n    /* \"#utility.yul\":1358:1373   */\n  revert\n    /* \"#utility.yul\":1385:1666   */\ntag_20:\n    /* \"#utility.yul\":1468:1495   */\n  tag_62\n    /* \"#utility.yul\":1490:1494   */\n  dup3\n    /* \"#utility.yul\":1468:1495   */\n  tag_18\n  jump\t// in\ntag_62:\n    /* \"#utility.yul\":1460:1466   */\n  dup2\n    /* \"#utility.yul\":1456:1496   */\n  add\n    /* \"#utility.yul\":1598:1604   */\n  dup2\n    /* \"#utility.yul\":1586:1596   */\n  dup2\n    /* \"#utility.yul\":1583:1605   */\n  lt\n    /* \"#utility.yul\":1562:1580   */\n  0xffffffffffffffff\n    /* \"#utility.yul\":1550:1560   */\n  dup3\n    /* \"#utility.yul\":1547:1581   */\n  gt\n    /* \"#utility.yul\":1544:1606   */\n  or\n    /* \"#utility.yul\":1541:1629   */\n  iszero\n  tag_63\n  jumpi\n    /* \"#utility.yul\":1609:1627   */\n  tag_64\n  tag_19\n  jump\t// in\ntag_64:\n    /* \"#utility.yul\":1541:1629   */\ntag_63:\n    /* \"#utility.yul\":1649:1659   */\n  dup1\n    /* \"#utility.yul\":1645:1647   */\n  0x40\n    /* \"#utility.yul\":1638:1660   */\n  mstore\n    /* \"#utility.yul\":1428:1666   */\n  pop\n    /* \"#utility.yul\":1385:1666   */\n  pop\n  pop\n  jump\t// out\n    /* \"#utility.yul\":1672:1801   */\ntag_21:\n    /* \"#utility.yul\":1706:1712   */\n  0x00\n    /* \"#utility.yul\":1733:1753   */\n  tag_66\n  tag_9\n  jump\t// in\ntag_66:\n    /* \"#utility.yul\":1723:1753   */\n  swap1\n  pop\n    /* \"#utility.yul\":1762:1795   */\n  tag_67\n    /* \"#utility.yul\":1790:1794   */\n  dup3\n    /* \"#utility.yul\":1782:1788   */\n  dup3\n    /* \"#utility.yul\":1762:1795   */\n  tag_20\n  jump\t// in\ntag_67:\n    /* \"#utility.yul\":1672:1801   */\n  swap2\n  swap1\n  pop\n  jump\t// out\n    /* \"#utility.yul\":1807:2115   */\ntag_22:\n    /* \"#utility.yul\":1869:1873   */\n  0x00\n    /* \"#utility.yul\":1959:1977   */\n  0xffffffffffffffff\n    /* \"#utility.yul\":1951:1957   */\n  dup3\n    /* \"#utility.yul\":1948:1978   */\n  gt\n    /* \"#utility.yul\":1945:2001   */\n  iszero\n  tag_69\n  jumpi\n    /* \"#utility.yul\":1981:1999   */\n  tag_70\n  tag_19\n  jump\t// in\ntag_70:\n    /* \"#utility.yul\":1945:2001   */\ntag_69:\n    /* \"#utility.yul\":2019:2048   */\n  tag_71\n    /* \"#utility.yul\":2041:2047   */\n  dup3\n    /* \"#utility.yul\":2019:2048   */\n  tag_18\n  jump\t// in\ntag_71:\n    /* \"#utility.yul\":2011:2048   */\n  swap1\n  pop\n    /* \"#utility.yul\":2103:2107   */\n  0x20\n    /* \"#utility.yul\":2097:2101   */\n  dup2\n    /* \"#utility.yul\":2093:2108   */\n  add\n    /* \"#utility.yul\":2085:2108   */\n  swap1\n  pop\n    /* \"#utility.yul\":1807:2115   */\n  swap2\n  swap1\n  pop\n  jump\t// out\n    /* \"#utility.yul\":2121:2367   */\ntag_23:\n    /* \"#utility.yul\":2202:2203   */\n  0x00\n    /* \"#utility.yul\":2212:2325   */\ntag_73:\n    /* \"#utility.yul\":2226:2232   */\n  dup4\n    /* \"#utility.yul\":2223:2224   */\n  dup2\n    /* \"#utility.yul\":2220:2233   */\n  lt\n    /* \"#utility.yul\":2212:2325   */\n  iszero\n  tag_75\n  jumpi\n    /* \"#utility.yul\":2311:2312   */\n  dup1\n    /* \"#utility.yul\":2306:2309   */\n  dup3\n    /* \"#utility.yul\":2302:2313   */\n  add\n    /* \"#utility.yul\":2296:2314   */\n  mload\n    /* \"#utility.yul\":2292:2293   */\n  dup2\n    /* \"#utility.yul\":2287:2290   */\n  dup5\n    /* \"#utility.yul\":2283:2294   */\n  add\n    /* \"#utility.yul\":2276:2315   */\n  mstore\n    /* \"#utility.yul\":2248:2250   */\n  0x20\n    /* \"#utility.yul\":2245:2246   */\n  dup2\n    /* \"#utility.yul\":2241:2251   */\n  add\n    /* \"#utility.yul\":2236:2251   */\n  swap1\n  pop\n    /* \"#utility.yul\":2212:2325   */\n  jump(tag_73)\ntag_75:\n    /* \"#utility.yul\":2359:2360   */\n  0x00\n    /* \"#utility.yul\":2350:2356   */\n  dup5\n    /* \"#utility.yul\":2345:2348   */\n  dup5\n    /* \"#utility.yul\":2341:2357   */\n  add\n    /* \"#utility.yul\":2334:2361   */\n  mstore\n    /* \"#utility.yul\":2183:2367   */\n  pop\n    /* \"#utility.yul\":2121:2367   */\n  pop\n  pop\n  pop\n  jump\t// out\n    /* \"#utility.yul\":2373:2807   */\ntag_24:\n    /* \"#utility.yul\":2462:2467   */\n  0x00\n    /* \"#utility.yul\":2487:2553   */\n  tag_77\n    /* \"#utility.yul\":2503:2552   */\n  tag_78\n    /* \"#utility.yul\":2545:2551   */\n  dup5\n    /* \"#utility.yul\":2503:2552   */\n  tag_22\n  jump\t// in\ntag_78:\n    /* \"#utility.yul\":2487:2553   */\n  tag_21\n  jump\t// in\ntag_77:\n    /* \"#utility.yul\":2478:2553   */\n  swap1\n  pop\n    /* \"#utility.yul\":2576:2582   */\n  dup3\n    /* \"#utility.yul\":2569:2574   */\n  dup2\n    /* \"#utility.yul\":2562:2583   */\n  mstore\n    /* \"#utility.yul\":2614:2618   */\n  0x20\n    /* \"#utility.yul\":2607:2612   */\n  dup2\n    /* \"#utility.yul\":2603:2619   */\n  add\n    /* \"#utility.yul\":2652:2655   */\n  dup5\n    /* \"#utility.yul\":2643:2649   */\n  dup5\n    /* \"#utility.yul\":2638:2641   */\n  dup5\n    /* \"#utility.yul\":2634:2650   */\n  add\n    /* \"#utility.yul\":2631:2656   */\n  gt\n    /* \"#utility.yul\":2628:2740   */\n  iszero\n  tag_79\n  jumpi\n    /* \"#utility.yul\":2659:2738   */\n  tag_80\n  tag_17\n  jump\t// in\ntag_80:\n    /* \"#utility.yul\":2628:2740   */\ntag_79:\n    /* \"#utility.yul\":2749:2801   */\n  tag_81\n    /* \"#utility.yul\":2794:2800   */\n  dup5\n    /* \"#utility.yul\":2789:2792   */\n  dup3\n    /* \"#utility.yul\":2784:2787   */\n  dup6\n    /* \"#utility.yul\":2749:2801   */\n  tag_23\n  jump\t// in\ntag_81:\n    /* \"#utility.yul\":2468:2807   */\n  pop\n    /* \"#utility.yul\":2373:2807   */\n  swap4\n  swap3\n  pop\n  pop\n  pop\n  jump\t// out\n    /* \"#utility.yul\":2827:3182   */\ntag_25:\n    /* \"#utility.yul\":2894:2899   */\n  0x00\n    /* \"#utility.yul\":2943:2946   */\n  dup3\n    /* \"#utility.yul\":2936:2940   */\n  0x1f\n    /* \"#utility.yul\":2928:2934   */\n  dup4\n    /* \"#utility.yul\":2924:2941   */\n  add\n    /* \"#utility.yul\":2920:2947   */\n  slt\n    /* \"#utility.yul\":2910:3032   */\n  tag_83\n  jumpi\n    /* \"#utility.yul\":2951:3030   */\n  tag_84\n  tag_16\n  jump\t// in\ntag_84:\n    /* \"#utility.yul\":2910:3032   */\ntag_83:\n    /* \"#utility.yul\":3061:3067   */\n  dup2\n    /* \"#utility.yul\":3055:3068   */\n  mload\n    /* \"#utility.yul\":3086:3176   */\n  tag_85\n    /* \"#utility.yul\":3172:3175   */\n  dup5\n    /* \"#utility.yul\":3164:3170   */\n  dup3\n    /* \"#utility.yul\":3157:3161   */\n  0x20\n    /* \"#utility.yul\":3149:3155   */\n  dup7\n    /* \"#utility.yul\":3145:3162   */\n  add\n    /* \"#utility.yul\":3086:3176   */\n  tag_24\n  jump\t// in\ntag_85:\n    /* \"#utility.yul\":3077:3176   */\n  swap2\n  pop\n    /* \"#utility.yul\":2900:3182   */\n  pop\n    /* \"#utility.yul\":2827:3182   */\n  swap3\n  swap2\n  pop\n  pop\n  jump\t// out\n    /* \"#utility.yul\":3188:3868   */\ntag_3:\n    /* \"#utility.yul\":3277:3283   */\n  0x00\n    /* \"#utility.yul\":3285:3291   */\n  dup1\n    /* \"#utility.yul\":3334:3336   */\n  0x40\n    /* \"#utility.yul\":3322:3331   */\n  dup4\n    /* \"#utility.yul\":3313:3320   */\n  dup6\n    /* \"#utility.yul\":3309:3332   */\n  sub\n    /* \"#utility.yul\":3305:3337   */\n  slt\n    /* \"#utility.yul\":3302:3421   */\n  iszero\n  tag_87\n  jumpi\n    /* \"#utility.yul\":3340:3419   */\n  tag_88\n  tag_10\n  jump\t// in\ntag_88:\n    /* \"#utility.yul\":3302:3421   */\ntag_87:\n    /* \"#utility.yul\":3460:3461   */\n  0x00\n    /* \"#utility.yul\":3485:3549   */\n  tag_89\n    /* \"#utility.yul\":3541:3548   */\n  dup6\n    /* \"#utility.yul\":3532:3538   */\n  dup3\n    /* \"#utility.yul\":3521:3530   */\n  dup7\n    /* \"#utility.yul\":3517:3539   */\n  add\n    /* \"#utility.yul\":3485:3549   */\n  tag_15\n  jump\t// in\ntag_89:\n    /* \"#utility.yul\":3475:3549   */\n  swap3\n  pop\n    /* \"#utility.yul\":3431:3559   */\n  pop\n    /* \"#utility.yul\":3619:3621   */\n  0x20\n    /* \"#utility.yul\":3608:3617   */\n  dup4\n    /* \"#utility.yul\":3604:3622   */\n  add\n    /* \"#utility.yul\":3598:3623   */\n  mload\n    /* \"#utility.yul\":3650:3668   */\n  0xffffffffffffffff\n    /* \"#utility.yul\":3642:3648   */\n  dup2\n    /* \"#utility.yul\":3639:3669   */\n  gt\n    /* \"#utility.yul\":3636:3753   */\n  iszero\n  tag_90\n  jumpi\n    /* \"#utility.yul\":3672:3751   */\n  tag_91\n  tag_11\n  jump\t// in\ntag_91:\n    /* \"#utility.yul\":3636:3753   */\ntag_90:\n    /* \"#utility.yul\":3777:3851   */\n  tag_92\n    /* \"#utility.yul\":3843:3850   */\n  dup6\n    /* \"#utility.yul\":3834:3840   */\n  dup3\n    /* \"#utility.yul\":3823:3832   */\n  dup7\n    /* \"#utility.yul\":3819:3841   */\n  add\n    /* \"#utility.yul\":3777:3851   */\n  tag_25\n  jump\t// in\ntag_92:\n    /* \"#utility.yul\":3767:3851   */\n  swap2\n  pop\n    /* \"#utility.yul\":3569:3861   */\n  pop\n    /* \"#utility.yul\":3188:3868   */\n  swap3\n  pop\n  swap3\n  swap1\n  pop\n  jump\t// out\n    /* \"#utility.yul\":3874:3973   */\ntag_26:\n    /* \"#utility.yul\":3926:3932   */\n  0x00\n    /* \"#utility.yul\":3960:3965   */\n  dup2\n    /* \"#utility.yul\":3954:3966   */\n  mload\n    /* \"#utility.yul\":3944:3966   */\n  swap1\n  pop\n    /* \"#utility.yul\":3874:3973   */\n  swap2\n  swap1\n  pop\n  jump\t// out\n    /* \"#utility.yul\":3979:4159   */\ntag_27:\n    /* \"#utility.yul\":4027:4104   */\n  0x4e487b7100000000000000000000000000000000000000000000000000000000\n    /* \"#utility.yul\":4024:4025   */\n  0x00\n    /* \"#utility.yul\":4017:4105   */\n  mstore\n    /* \"#utility.yul\":4124:4128   */\n  0x22\n    /* \"#utility.yul\":4121:4122   */\n  0x04\n    /* \"#utility.yul\":4114:4129   */\n  mstore\n    /* \"#utility.yul\":4148:4152   */\n  0x24\n    /* \"#utility.yul\":4145:4146   */\n  0x00\n    /* \"#utility.yul\":4138:4153   */\n  revert\n    /* \"#utility.yul\":4165:4485   */\ntag_28:\n    /* \"#utility.yul\":4209:4215   */\n  0x00\n    /* \"#utility.yul\":4246:4247   */\n  0x02\n    /* \"#utility.yul\":4240:4244   */\n  dup3\n    /* \"#utility.yul\":4236:4248   */\n  div\n    /* \"#utility.yul\":4226:4248   */\n  swap1\n  pop\n    /* \"#utility.yul\":4293:4294   */\n  0x01\n    /* \"#utility.yul\":4287:4291   */\n  dup3\n    /* \"#utility.yul\":4283:4295   */\n  and\n    /* \"#utility.yul\":4314:4332   */\n  dup1\n    /* \"#utility.yul\":4304:4385   */\n  tag_96\n  jumpi\n    /* \"#utility.yul\":4370:4374   */\n  0x7f\n    /* \"#utility.yul\":4362:4368   */\n  dup3\n    /* \"#utility.yul\":4358:4375   */\n  and\n    /* \"#utility.yul\":4348:4375   */\n  swap2\n  pop\n    /* \"#utility.yul\":4304:4385   */\ntag_96:\n    /* \"#utility.yul\":4432:4434   */\n  0x20\n    /* \"#utility.yul\":4424:4430   */\n  dup3\n    /* \"#utility.yul\":4421:4435   */\n  lt\n    /* \"#utility.yul\":4401:4419   */\n  dup2\n    /* \"#utility.yul\":4398:4436   */\n  sub\n    /* \"#utility.yul\":4395:4479   */\n  tag_97\n  jumpi\n    /* \"#utility.yul\":4451:4469   */\n  tag_98\n  tag_27\n  jump\t// in\ntag_98:\n    /* \"#utility.yul\":4395:4479   */\ntag_97:\n    /* \"#utility.yul\":4216:4485   */\n  pop\n    /* \"#utility.yul\":4165:4485   */\n  swap2\n  swap1\n  pop\n  jump\t// out\n    /* \"#utility.yul\":4491:4632   */\ntag_29:\n    /* \"#utility.yul\":4540:4544   */\n  0x00\n    /* \"#utility.yul\":4563:4566   */\n  dup2\n    /* \"#utility.yul\":4555:4566   */\n  swap1\n  pop\n    /* \"#utility.yul\":4586:4589   */\n  dup2\n    /* \"#utility.yul\":4583:4584   */\n  0x00\n    /* \"#utility.yul\":4576:4590   */\n  mstore\n    /* \"#utility.yul\":4620:4624   */\n  0x20\n    /* \"#utility.yul\":4617:4618   */\n  0x00\n    /* \"#utility.yul\":4607:4625   */\n  keccak256\n    /* \"#utility.yul\":4599:4625   */\n  swap1\n  pop\n    /* \"#utility.yul\":4491:4632   */\n  swap2\n  swap1\n  pop\n  jump\t// out\n    /* \"#utility.yul\":4638:4731   */\ntag_30:\n    /* \"#utility.yul\":4675:4681   */\n  0x00\n    /* \"#utility.yul\":4722:4724   */\n  0x20\n    /* \"#utility.yul\":4717:4719   */\n  0x1f\n    /* \"#utility.yul\":4710:4715   */\n  dup4\n    /* \"#utility.yul\":4706:4720   */\n  add\n    /* \"#utility.yul\":4702:4725   */\n  div\n    /* \"#utility.yul\":4692:4725   */\n  swap1\n  pop\n    /* \"#utility.yul\":4638:4731   */\n  swap2\n  swap1\n  pop\n  jump\t// out\n    /* \"#utility.yul\":4737:4844   */\ntag_31:\n    /* \"#utility.yul\":4781:4789   */\n  0x00\n    /* \"#utility.yul\":4831:4836   */\n  dup3\n    /* \"#utility.yul\":4825:4829   */\n  dup3\n    /* \"#utility.yul\":4821:4837   */\n  shl\n    /* \"#utility.yul\":4800:4837   */\n  swap1\n  pop\n    /* \"#utility.yul\":4737:4844   */\n  swap3\n  swap2\n  pop\n  pop\n  jump\t// out\n    /* \"#utility.yul\":4850:5243   */\ntag_32:\n    /* \"#utility.yul\":4919:4925   */\n  0x00\n    /* \"#utility.yul\":4969:4970   */\n  0x08\n    /* \"#utility.yul\":4957:4967   */\n  dup4\n    /* \"#utility.yul\":4953:4971   */\n  mul\n    /* \"#utility.yul\":4992:5089   */\n  tag_103\n    /* \"#utility.yul\":5022:5088   */\n  0xffffffffffffffffffffffffffffffffffffffffffffffffffffffffffffffff\n    /* \"#utility.yul\":5011:5020   */\n  dup3\n    /* \"#utility.yul\":4992:5089   */\n  tag_31\n  jump\t// in\ntag_103:\n    /* \"#utility.yul\":5110:5149   */\n  tag_104\n    /* \"#utility.yul\":5140:5148   */\n  dup7\n    /* \"#utility.yul\":5129:5138   */\n  dup4\n    /* \"#utility.yul\":5110:5149   */\n  tag_31\n  jump\t// in\ntag_104:\n    /* \"#utility.yul\":5098:5149   */\n  swap6\n  pop\n    /* \"#utility.yul\":5182:5186   */\n  dup1\n    /* \"#utility.yul\":5178:5187   */\n  not\n    /* \"#utility.yul\":5171:5176   */\n  dup5\n    /* \"#utility.yul\":5167:5188   */\n  and\n    /* \"#utility.yul\":5158:5188   */\n  swap4\n  pop\n    /* \"#utility.yul\":5231:5235   */\n  dup1\n    /* \"#utility.yul\":5221:5229   */\n  dup7\n    /* \"#utility.yul\":5217:5236   */\n  and\n    /* \"#utility.yul\":5210:5215   */\n  dup5\n    /* \"#utility.yul\":5207:5237   */\n  or\n    /* \"#utility.yul\":5197:5237   */\n  swap3\n  pop\n    /* \"#utility.yul\":4926:5243   */\n  pop\n  pop\n    /* \"#utility.yul\":4850:5243   */\n  swap4\n  swap3\n  pop\n  pop\n  pop\n  jump\t// out\n    /* \"#utility.yul\":5249:5326   */\ntag_33:\n    /* \"#utility.yul\":5286:5293   */\n  0x00\n    /* \"#utility.yul\":5315:5320   */\n  dup2\n    /* \"#utility.yul\":5304:5320   */\n  swap1\n  pop\n    /* \"#utility.yul\":5249:5326   */\n  swap2\n  swap1\n  pop\n  jump\t// out\n    /* \"#utility.yul\":5332:5392   */\ntag_34:\n    /* \"#utility.yul\":5360:5363   */\n  0x00\n    /* \"#utility.yul\":5381:5386   */\n  dup2\n    /* \"#utility.yul\":5374:5386   */\n  swap1\n  pop\n    /* \"#utility.yul\":5332:5392   */\n  swap2\n  swap1\n  pop\n  jump\t// out\n    /* \"#utility.yul\":5398:5540   */\ntag_35:\n    /* \"#utility.yul\":5448:5457   */\n  0x00\n    /* \"#utility.yul\":5481:5534   */\n  tag_108\n    /* \"#utility.yul\":5499:5533   */\n  tag_109\n    /* \"#utility.yul\":5508:5532   */\n  tag_110\n    /* \"#utility.yul\":5526:5531   */\n  dup5\n    /* \"#utility.yul\":5508:5532   */\n  tag_33\n  jump\t// in\ntag_110:\n    /* \"#utility.yul\":5499:5533   */\n  tag_34\n  jump\t// in\ntag_109:\n    /* \"#utility.yul\":5481:5534   */\n  tag_33\n  jump\t// in\ntag_108:\n    /* \"#utility.yul\":5468:5534   */\n  swap1\n  pop\n    /* \"#utility.yul\":5398:5540   */\n  swap2\n  swap1\n  pop\n  jump\t// out\n    /* \"#utility.yul\":5546:5621   */\ntag_36:\n    /* \"#utility.yul\":5589:5592   */\n  0x00\n    /* \"#utility.yul\":5610:5615   */\n  dup2\n    /* \"#utility.yul\":5603:5615   */\n  swap1\n  pop\n    /* \"#utility.yul\":5546:5621   */\n  swap2\n  swap1\n  pop\n  jump\t// out\n    /* \"#utility.yul\":5627:5896   */\ntag_37:\n    /* \"#utility.yul\":5737:5776   */\n  tag_113\n    /* \"#utility.yul\":5768:5775   */\n  dup4\n    /* \"#utility.yul\":5737:5776   */\n  tag_35\n  jump\t// in\ntag_113:\n    /* \"#utility.yul\":5798:5889   */\n  tag_114\n    /* \"#utility.yul\":5847:5888   */\n  tag_115\n    /* \"#utility.yul\":5871:5887   */\n  dup3\n    /* \"#utility.yul\":5847:5888   */\n  tag_36\n  jump\t// in\ntag_115:\n    /* \"#utility.yul\":5839:5845   */\n  dup5\n    /* \"#utility.yul\":5832:5836   */\n  dup5\n    /* \"#utility.yul\":5826:5837   */\n  sload\n    /* \"#utility.yul\":5798:5889   */\n  tag_32\n  jump\t// in\ntag_114:\n    /* \"#utility.yul\":5792:5796   */\n  dup3\n    /* \"#utility.yul\":5785:5890   */\n  sstore\n    /* \"#utility.yul\":5703:5896   */\n  pop\n    /* \"#utility.yul\":5627:5896   */\n  pop\n  pop\n  pop\n  jump\t// out\n    /* \"#utility.yul\":5902:5975   */\ntag_38:\n    /* \"#utility.yul\":5947:5950   */\n  0x00\n    /* \"#utility.yul\":5902:5975   */\n  swap1\n  jump\t// out\n    /* \"#utility.yul\":5981:6170   */\ntag_39:\n    /* \"#utility.yul\":6058:6090   */\n  tag_118\n  tag_38\n  jump\t// in\ntag_118:\n    /* \"#utility.yul\":6099:6164   */\n  tag_119\n    /* \"#utility.yul\":6157:6163   */\n  dup2\n    /* \"#utility.yul\":6149:6155   */\n  dup5\n    /* \"#utility.yul\":6143:6147   */\n  dup5\n    /* \"#utility.yul\":6099:6164   */\n  tag_37\n  jump\t// in\ntag_119:\n    /* \"#utility.yul\":6034:6170   */\n  pop\n    /* \"#utility.yul\":5981:6170   */\n  pop\n  pop\n  jump\t// out\n    /* \"#utility.yul\":6176:6362   */\ntag_40:\n    /* \"#utility.yul\":6236:6356   */\ntag_121:\n    /* \"#utility.yul\":6253:6256   */\n  dup2\n    /* \"#utility.yul\":6246:6251   */\n  dup2\n    /* \"#utility.yul\":6243:6257   */\n  lt\n    /* \"#utility.yul\":6236:6356   */\n  iszero\n  tag_123\n  jumpi\n    /* \"#utility.yul\":6307:6346   */\n  tag_124\n    /* \"#utility.yul\":6344:6345   */\n  0x00\n    /* \"#utility.yul\":6337:6342   */\n  dup3\n    /* \"#utility.yul\":6307:6346   */\n  tag_39\n  jump\t// in\ntag_124:\n    /* \"#utility.yul\":6280:6281   */\n  0x01\n    /* \"#utility.yul\":6273:6278   */\n  dup2\n    /* \"#utility.yul\":6269:6282   */\n  add\n    /* \"#utility.yul\":6260:6282   */\n  swap1\n  pop\n    /* \"#utility.yul\":6236:6356   */\n  jump(tag_121)\ntag_123:\n    /* \"#utility.yul\":6176:6362   */\n  pop\n  pop\n  jump\t// out\n    /* \"#utility.yul\":6368:6911   */\ntag_41:\n    /* \"#utility.yul\":6469:6471   */\n  0x1f\n    /* \"#utility.yul\":6464:6467   */\n  dup3\n    /* \"#utility.yul\":6461:6472   */\n  gt\n    /* \"#utility.yul\":6458:6904   */\n  iszero\n  tag_126\n  jumpi\n    /* \"#utility.yul\":6503:6541   */\n  tag_127\n    /* \"#utility.yul\":6535:6540   */\n  dup2\n    /* \"#utility.yul\":6503:6541   */\n  tag_29\n  jump\t// in\ntag_127:\n    /* \"#utility.yul\":6587:6616   */\n  tag_128\n    /* \"#utility.yul\":6605:6615   */\n  dup5\n    /* \"#utility.yul\":6587:6616   */\n  tag_30\n  jump\t// in\ntag_128:\n    /* \"#utility.yul\":6577:6585   */\n  dup2\n    /* \"#utility.yul\":6573:6617   */\n  add\n    /* \"#utility.yul\":6770:6772   */\n  0x20\n    /* \"#utility.yul\":6758:6768   */\n  dup6\n    /* \"#utility.yul\":6755:6773   */\n  lt\n    /* \"#utility.yul\":6752:6801   */\n  iszero\n  tag_129\n  jumpi\n    /* \"#utility.yul\":6791:6799   */\n  dup2\n    /* \"#utility.yul\":6776:6799   */\n  swap1\n  pop\n    /* \"#utility.yul\":6752:6801   */\ntag_129:\n    /* \"#utility.yul\":6814:6894   */\n  tag_130\n    /* \"#utility.yul\":6870:6892   */\n  tag_131\n    /* \"#utility.yul\":6888:6891   */\n  dup6\n    /* \"#utility.yul\":6870:6892   */\n  tag_30\n  jump\t// in\ntag_131:\n    /* \"#utility.yul\":6860:6868   */\n  dup4\n    /* \"#utility.yul\":6856:6893   */\n  add\n    /* \"#utility.yul\":6843:6854   */\n  dup3\n    /* \"#utility.yul\":6814:6894   */\n  tag_40\n  jump\t// in\ntag_130:\n    /* \"#utility.yul\":6473:6904   */\n  pop\n  pop\n    /* \"#utility.yul\":6458:6904   */\ntag_126:\n    /* \"#utility.yul\":6368:6911   */\n  pop\n  pop\n  pop\n  jump\t// out\n    /* \"#utility.yul\":6917:7034   */\ntag_42:\n    /* \"#utility.yul\":6971:6979   */\n  0x00\n    /* \"#utility.yul\":7021:7026   */\n  dup3\n    /* \"#utility.yul\":7015:7019   */\n  dup3\n    /* \"#utility.yul\":7011:7027   */\n  shr\n    /* \"#utility.yul\":6990:7027   */\n  swap1\n  pop\n    /* \"#utility.yul\":6917:7034   */\n  swap3\n  swap2\n  pop\n  pop\n  jump\t// out\n    /* \"#utility.yul\":7040:7209   */\ntag_43:\n    /* \"#utility.yul\":7084:7090   */\n  0x00\n    /* \"#utility.yul\":7117:7168   */\n  tag_134\n    /* \"#utility.yul\":7165:7166   */\n  0x00\n    /* \"#utility.yul\":7161:7167   */\n  not\n    /* \"#utility.yul\":7153:7158   */\n  dup5\n    /* \"#utility.yul\":7150:7151   */\n  0x08\n    /* \"#utility.yul\":7146:7159   */\n  mul\n    /* \"#utility.yul\":7117:7168   */\n  tag_42\n  jump\t// in\ntag_134:\n    /* \"#utility.yul\":7113:7169   */\n  not\n    /* \"#utility.yul\":7198:7202   */\n  dup1\n    /* \"#utility.yul\":7192:7196   */\n  dup4\n    /* \"#utility.yul\":7188:7203   */\n  and\n    /* \"#utility.yul\":7178:7203   */\n  swap2\n  pop\n    /* \"#utility.yul\":7091:7209   */\n  pop\n    /* \"#utility.yul\":7040:7209   */\n  swap3\n  swap2\n  pop\n  pop\n  jump\t// out\n    /* \"#utility.yul\":7214:7509   */\ntag_44:\n    /* \"#utility.yul\":7290:7294   */\n  0x00\n    /* \"#utility.yul\":7436:7465   */\n  tag_136\n    /* \"#utility.yul\":7461:7464   */\n  dup4\n    /* \"#utility.yul\":7455:7459   */\n  dup4\n    /* \"#utility.yul\":7436:7465   */\n  tag_43\n  jump\t// in\ntag_136:\n    /* \"#utility.yul\":7428:7465   */\n  swap2\n  pop\n    /* \"#utility.yul\":7498:7501   */\n  dup3\n    /* \"#utility.yul\":7495:7496   */\n  0x02\n    /* \"#utility.yul\":7491:7502   */\n  mul\n    /* \"#utility.yul\":7485:7489   */\n  dup3\n    /* \"#utility.yul\":7482:7503   */\n  or\n    /* \"#utility.yul\":7474:7503   */\n  swap1\n  pop\n    /* \"#utility.yul\":7214:7509   */\n  swap3\n  swap2\n  pop\n  pop\n  jump\t// out\n    /* \"#utility.yul\":7514:8909   */\ntag_7:\n    /* \"#utility.yul\":7631:7668   */\n  tag_138\n    /* \"#utility.yul\":7664:7667   */\n  dup3\n    /* \"#utility.yul\":7631:7668   */\n  tag_26\n  jump\t// in\ntag_138:\n    /* \"#utility.yul\":7733:7751   */\n  0xffffffffffffffff\n    /* \"#utility.yul\":7725:7731   */\n  dup2\n    /* \"#utility.yul\":7722:7752   */\n  gt\n    /* \"#utility.yul\":7719:7775   */\n  iszero\n  tag_139\n  jumpi\n    /* \"#utility.yul\":7755:7773   */\n  tag_140\n  tag_19\n  jump\t// in\ntag_140:\n    /* \"#utility.yul\":7719:7775   */\ntag_139:\n    /* \"#utility.yul\":7799:7837   */\n  tag_141\n    /* \"#utility.yul\":7831:7835   */\n  dup3\n    /* \"#utility.yul\":7825:7836   */\n  sload\n    /* \"#utility.yul\":7799:7837   */\n  tag_28\n  jump\t// in\ntag_141:\n    /* \"#utility.yul\":7884:7951   */\n  tag_142\n    /* \"#utility.yul\":7944:7950   */\n  dup3\n    /* \"#utility.yul\":7936:7942   */\n  dup3\n    /* \"#utility.yul\":7930:7934   */\n  dup6\n    /* \"#utility.yul\":7884:7951   */\n  tag_41\n  jump\t// in\ntag_142:\n    /* \"#utility.yul\":7978:7979   */\n  0x00\n    /* \"#utility.yul\":8002:8006   */\n  0x20\n    /* \"#utility.yul\":7989:8006   */\n  swap1\n  pop\n    /* \"#utility.yul\":8034:8036   */\n  0x1f\n    /* \"#utility.yul\":8026:8032   */\n  dup4\n    /* \"#utility.yul\":8023:8037   */\n  gt\n    /* \"#utility.yul\":8051:8052   */\n  0x01\n    /* \"#utility.yul\":8046:8664   */\n  dup2\n  eq\n  tag_144\n  jumpi\n    /* \"#utility.yul\":8708:8709   */\n  0x00\n    /* \"#utility.yul\":8725:8731   */\n  dup5\n    /* \"#utility.yul\":8722:8799   */\n  iszero\n  tag_145\n  jumpi\n    /* \"#utility.yul\":8774:8783   */\n  dup3\n    /* \"#utility.yul\":8769:8772   */\n  dup8\n    /* \"#utility.yul\":8765:8784   */\n  add\n    /* \"#utility.yul\":8759:8785   */\n  mload\n    /* \"#utility.yul\":8750:8785   */\n  swap1\n  pop\n    /* \"#utility.yul\":8722:8799   */\ntag_145:\n    /* \"#utility.yul\":8825:8892   */\n  tag_146\n    /* \"#utility.yul\":8885:8891   */\n  dup6\n    /* \"#utility.yul\":8878:8883   */\n  dup3\n    /* \"#utility.yul\":8825:8892   */\n  tag_44\n  jump\t// in\ntag_146:\n    /* \"#utility.yul\":8819:8823   */\n  dup7\n    /* \"#utility.yul\":8812:8893   */\n  sstore\n    /* \"#utility.yul\":8681:8903   */\n  pop\n    /* \"#utility.yul\":8016:8903   */\n  jump(tag_143)\n    /* \"#utility.yul\":8046:8664   */\ntag_144:\n    /* \"#utility.yul\":8098:8102   */\n  0x1f\n    /* \"#utility.yul\":8094:8103   */\n  not\n    /* \"#utility.yul\":8086:8092   */\n  dup5\n    /* \"#utility.yul\":8082:8104   */\n  and\n    /* \"#utility.yul\":8132:8169   */\n  tag_147\n    /* \"#utility.yul\":8164:8168   */\n  dup7\n    /* \"#utility.yul\":8132:8169   */\n  tag_29\n  jump\t// in\ntag_147:\n    /* \"#utility.yul\":8191:8192   */\n  0x00\n    /* \"#utility.yul\":8205:8413   */\ntag_148:\n    /* \"#utility.yul\":8219:8226   */\n  dup3\n    /* \"#utility.yul\":8216:8217   */\n  dup2\n    /* \"#utility.yul\":8213:8227   */\n  lt\n    /* \"#utility.yul\":8205:8413   */\n  iszero\n  tag_150\n  jumpi\n    /* \"#utility.yul\":8298:8307   */\n  dup5\n    /* \"#utility.yul\":8293:8296   */\n  dup10\n    /* \"#utility.yul\":8289:8308   */\n  add\n    /* \"#utility.yul\":8283:8309   */\n  mload\n    /* \"#utility.yul\":8275:8281   */\n  dup3\n    /* \"#utility.yul\":8268:8310   */\n  sstore\n    /* \"#utility.yul\":8349:8350   */\n  0x01\n    /* \"#utility.yul\":8341:8347   */\n  dup3\n    /* \"#utility.yul\":8337:8351   */\n  add\n    /* \"#utility.yul\":8327:8351   */\n  swap2\n  pop\n    /* \"#utility.yul\":8396:8398   */\n  0x20\n    /* \"#utility.yul\":8385:8394   */\n  dup6\n    /* \"#utility.yul\":8381:8399   */\n  add\n    /* \"#utility.yul\":8368:8399   */\n  swap5\n  pop\n    /* \"#utility.yul\":8242:8246   */\n  0x20\n    /* \"#utility.yul\":8239:8240   */\n  dup2\n    /* \"#utility.yul\":8235:8247   */\n  add\n    /* \"#utility.yul\":8230:8247   */\n  swap1\n  pop\n    /* \"#utility.yul\":8205:8413   */\n  jump(tag_148)\ntag_150:\n    /* \"#utility.yul\":8441:8447   */\n  dup7\n    /* \"#utility.yul\":8432:8439   */\n  dup4\n    /* \"#utility.yul\":8429:8448   */\n  lt\n    /* \"#utility.yul\":8426:8605   */\n  iszero\n  tag_151\n  jumpi\n    /* \"#utility.yul\":8499:8508   */\n  dup5\n    /* \"#utility.yul\":8494:8497   */\n  dup10\n    /* \"#utility.yul\":8490:8509   */\n  add\n    /* \"#utility.yul\":8484:8510   */\n  mload\n    /* \"#utility.yul\":8542:8590   */\n  tag_152\n    /* \"#utility.yul\":8584:8588   */\n  0x1f\n    /* \"#utility.yul\":8576:8582   */\n  dup10\n    /* \"#utility.yul\":8572:8589   */\n  and\n    /* \"#utility.yul\":8561:8570   */\n  dup3\n    /* \"#utility.yul\":8542:8590   */\n  tag_43\n  jump\t// in\ntag_152:\n    /* \"#utility.yul\":8534:8540   */\n  dup4\n    /* \"#utility.yul\":8527:8591   */\n  sstore\n    /* \"#utility.yul\":8449:8605   */\n  pop\n    /* \"#utility.yul\":8426:8605   */\ntag_151:\n    /* \"#utility.yul\":8651:8652   */\n  0x01\n    /* \"#utility.yul\":8647:8648   */\n  0x02\n    /* \"#utility.yul\":8639:8645   */\n  dup9\n    /* \"#utility.yul\":8635:8649   */\n  mul\n    /* \"#utility.yul\":8631:8653   */\n  add\n    /* \"#utility.yul\":8625:8629   */\n  dup9\n    /* \"#utility.yul\":8618:8654   */\n  sstore\n    /* \"#utility.yul\":8053:8664   */\n  pop\n  pop\n  pop\n    /* \"#utility.yul\":8016:8903   */\ntag_143:\n  pop\n    /* \"#utility.yul\":7606:8909   */\n  pop\n  pop\n  pop\n    /* \"#utility.yul\":7514:8909   */\n  pop\n  pop\n  jump\t// out\n    /* \"ServiceChain.sol\":619:4650  contract Service{... */\ntag_8:\n  dataSize(sub_0)\n  dup1\n  dataOffset(sub_0)\n  0x00\n  codecopy\n  0x00\n  return\nstop\n\nsub_0: assembly {\n        /* \"ServiceChain.sol\":619:4650  contract Service{... */\n      mstore(0x40, 0x80)\n      jumpi(tag_1, lt(calldatasize, 0x04))\n      shr(0xe0, calldataload(0x00))\n      dup1\n      0x481c6a75\n      gt\n      tag_16\n      jumpi\n      dup1\n      0x9ace38c2\n      gt\n      tag_17\n      jumpi\n      dup1\n      0x9ace38c2\n      eq\n      tag_12\n      jumpi\n      dup1\n      0x9d5f65fc\n      eq\n      tag_13\n      jumpi\n      dup1\n      0xa329f8f6\n      eq\n      tag_14\n      jumpi\n      dup1\n      0xcc1e2cb0\n      eq\n      tag_15\n      jumpi\n      jump(tag_2)\n    tag_17:\n      dup1\n      0x481c6a75\n      eq\n      tag_9\n      jumpi\n      dup1\n      0x66d34a9b\n      eq\n      tag_10\n      jumpi\n      dup1\n      0x80fc9c0e\n      eq\n      tag_11\n      jumpi\n      jump(tag_2)\n    tag_16:\n      dup1\n      0x0fa8d54f\n      eq\n      tag_3\n      jumpi\n      dup1\n      0x20ee128e\n      eq\n      tag_4\n      jumpi\n      dup1\n      0x2a0e54bd\n      eq\n      tag_5\n      jumpi\n      dup1\n      0x2e7700f0\n      eq\n      tag_6\n      jumpi\n      dup1\n      0x33ea3dc8\n      eq\n      tag_7\n      jumpi\n      dup1\n      0x474466c2\n      eq\n      tag_8\n      jumpi\n      jump(tag_2)\n    tag_1:\n      jumpi(tag_2, calldatasize)\n        /* \"ServiceChain.sol\":3835:3845  msg.sender */\n      caller\n        /* \"ServiceChain.sol\":3827:3880  Deposit(msg.sender, msg.value, address(this).balance) */\n      0xffffffffffffffffffffffffffffffffffffffff\n      and\n      0x90890809c654f11d6e72a28fa60149770a0d11ec6c92319d6ceb2bb0a4ea1a15\n        /* \"ServiceChain.sol\":3847:3856  msg.value */\n      callvalue\n        /* \"ServiceChain.sol\":3858:3879  address(this).balance */\n      selfbalance\n        /* \"ServiceChain.sol\":3827:3880  Deposit(msg.sender, msg.value, address(this).balance) */\n      mload(0x40)\n      tag_20\n      swap3\n      swap2\n      swap1\n      tag_21\n      jump\t// in\n    tag_20:\n      mload(0x40)\n      dup1\n      swap2\n      sub\n      swap1\n      log2\n        /* \"ServiceChain.sol\":619:4650  contract Service{... */\n      stop\n    tag_2:\n      0x00\n      dup1\n      revert\n        /* \"ServiceChain.sol\":1801:2061  function requestHours(uint value) public{... */\n    tag_3:\n      callvalue\n      dup1\n      iszero\n      tag_22\n      jumpi\n      0x00\n      dup1\n      revert\n    tag_22:\n      pop\n      tag_23\n      0x04\n      dup1\n      calldatasize\n      sub\n      dup2\n      add\n      swap1\n      tag_24\n      swap2\n      swap1\n      tag_25\n      jump\t// in\n    tag_24:\n      tag_26\n      jump\t// in\n    tag_23:\n      stop\n        /* \"ServiceChain.sol\":1402:1445  mapping(address=>hourLog[]) public empHours */\n    tag_4:\n      callvalue\n      dup1\n      iszero\n      tag_27\n      jumpi\n      0x00\n      dup1\n      revert\n    tag_27:\n      pop\n      tag_28\n      0x04\n      dup1\n      calldatasize\n      sub\n      dup2\n      add\n      swap1\n      tag_29\n      swap2\n      swap1\n      tag_30\n      jump\t// in\n    tag_29:\n      tag_31\n      jump\t// in\n    tag_28:\n      mload(0x40)\n      tag_32\n      swap4\n      swap3\n      swap2\n      swap1\n      tag_33\n      jump\t// in\n    tag_32:\n      mload(0x40)\n      dup1\n      swap2\n      sub\n      swap1\n      return\n        /* \"ServiceChain.sol\":1452:1501  mapping(address=>customerRating[]) public ratings */\n    tag_5:\n      callvalue\n      dup1\n      iszero\n      tag_34\n      jumpi\n      0x00\n      dup1\n      revert\n    tag_34:\n      pop\n      tag_35\n      0x04\n      dup1\n      calldatasize\n      sub\n      dup2\n      add\n      swap1\n      tag_36\n      swap2\n      swap1\n      tag_30\n      jump\t// in\n    tag_36:\n      tag_37\n      jump\t// in\n    tag_35:\n      mload(0x40)\n      tag_38\n      swap3\n      swap2\n      swap1\n      tag_39\n      jump\t// in\n    tag_38:\n      mload(0x40)\n      dup1\n      swap2\n      sub\n      swap1\n      return\n        /* \"ServiceChain.sol\":4251:4354  function getTransactionCount() public view returns (uint) {... */\n    tag_6:\n      callvalue\n      dup1\n      iszero\n      tag_40\n      jumpi\n      0x00\n      dup1\n      revert\n    tag_40:\n      pop\n      tag_41\n      tag_42\n      jump\t// in\n    tag_41:\n      mload(0x40)\n      tag_43\n      swap2\n      swap1\n      tag_44\n      jump\t// in\n    tag_43:\n      mload(0x40)\n      dup1\n      swap2\n      sub\n      swap1\n      return\n        /* \"ServiceChain.sol\":4362:4643  function getTransaction(uint _txIndex)... */\n    tag_7:\n      callvalue\n      dup1\n      iszero\n      tag_45\n      jumpi\n      0x00\n      dup1\n      revert\n    tag_45:\n      pop\n      tag_46\n      0x04\n      dup1\n      calldatasize\n      sub\n      dup2\n      add\n      swap1\n      tag_47\n      swap2\n      swap1\n      tag_25\n      jump\t// in\n    tag_47:\n      tag_48\n      jump\t// in\n    tag_46:\n      mload(0x40)\n      tag_49\n      swap4\n      swap3\n      swap2\n      swap1\n      tag_50\n      jump\t// in\n    tag_49:\n      mload(0x40)\n      dup1\n      swap2\n      sub\n      swap1\n      return\n        /* \"ServiceChain.sol\":2295:2918  function confirmHours(address waiter,uint index) public{... */\n    tag_8:\n      callvalue\n      dup1\n      iszero\n      tag_51\n      jumpi\n      0x00\n      dup1\n      revert\n    tag_51:\n      pop\n      tag_52\n      0x04\n      dup1\n      calldatasize\n      sub\n      dup2\n      add\n      swap1\n      tag_53\n      swap2\n      swap1\n      tag_30\n      jump\t// in\n    tag_53:\n      tag_54\n      jump\t// in\n    tag_52:\n      stop\n        /* \"ServiceChain.sol\":1532:1554  address public manager */\n    tag_9:\n      callvalue\n      dup1\n      iszero\n      tag_55\n      jumpi\n      0x00\n      dup1\n      revert\n    tag_55:\n      pop\n      tag_56\n      tag_57\n      jump\t// in\n    tag_56:\n      mload(0x40)\n      tag_58\n      swap2\n      swap1\n      tag_59\n      jump\t// in\n    tag_58:\n      mload(0x40)\n      dup1\n      swap2\n      sub\n      swap1\n      return\n        /* \"ServiceChain.sol\":3896:4241  function submitTip(address _to, uint _value, bytes memory _data)... */\n    tag_10:\n      callvalue\n      dup1\n      iszero\n      tag_60\n      jumpi\n      0x00\n      dup1\n      revert\n    tag_60:\n      pop\n      tag_61\n      0x04\n      dup1\n      calldatasize\n      sub\n      dup2\n      add\n      swap1\n      tag_62\n      swap2\n      swap1\n      tag_63\n      jump\t// in\n    tag_62:\n      tag_64\n      jump\t// in\n    tag_61:\n      stop\n        /* \"ServiceChain.sol\":3317:3636  function getRating(address waiter) public view returns (uint avgRating) {... */\n    tag_11:\n      callvalue\n      dup1\n      iszero\n      tag_65\n      jumpi\n      0x00\n      dup1\n      revert\n    tag_65:\n      pop\n      tag_66\n      0x04\n      dup1\n      calldatasize\n      sub\n      dup2\n      add\n      swap1\n      tag_67\n      swap2\n      swap1\n      tag_68\n      jump\t// in\n    tag_67:\n      tag_69\n      jump\t// in\n    tag_66:\n      mload(0x40)\n      tag_70\n      swap2\n      swap1\n      tag_44\n      jump\t// in\n    tag_70:\n      mload(0x40)\n      dup1\n      swap2\n      sub\n      swap1\n      return\n        /* \"ServiceChain.sol\":1362:1395  Transaction[] public transactions */\n    tag_12:\n      callvalue\n      dup1\n      iszero\n      tag_71\n      jumpi\n      0x00\n      dup1\n      revert\n    tag_71:\n      pop\n      tag_72\n      0x04\n      dup1\n      calldatasize\n      sub\n      dup2\n      add\n      swap1\n      tag_73\n      swap2\n      swap1\n      tag_25\n      jump\t// in\n    tag_73:\n      tag_74\n      jump\t// in\n    tag_72:\n      mload(0x40)\n      tag_75\n      swap4\n      swap3\n      swap2\n      swap1\n      tag_50\n      jump\t// in\n    tag_75:\n      mload(0x40)\n      dup1\n      swap2\n      sub\n      swap1\n      return\n        /* \"ServiceChain.sol\":2977:3094  function getHourLog(address waiter) public view returns(hourLog[] memory){... */\n    tag_13:\n      callvalue\n      dup1\n      iszero\n      tag_76\n      jumpi\n      0x00\n      dup1\n      revert\n    tag_76:\n      pop\n      tag_77\n      0x04\n      dup1\n      calldatasize\n      sub\n      dup2\n      add\n      swap1\n      tag_78\n      swap2\n      swap1\n      tag_68\n      jump\t// in\n    tag_78:\n      tag_79\n      jump\t// in\n    tag_77:\n      mload(0x40)\n      tag_80\n      swap2\n      swap1\n      tag_81\n      jump\t// in\n    tag_80:\n      mload(0x40)\n      dup1\n      swap2\n      sub\n      swap1\n      return\n        /* \"ServiceChain.sol\":3112:3309  function sendRatings(address customer,address waiter,uint rating) public {... */\n    tag_14:\n      callvalue\n      dup1\n      iszero\n      tag_82\n      jumpi\n      0x00\n      dup1\n      revert\n    tag_82:\n      pop\n      tag_83\n      0x04\n      dup1\n      calldatasize\n      sub\n      dup2\n      add\n      swap1\n      tag_84\n      swap2\n      swap1\n      tag_85\n      jump\t// in\n    tag_84:\n      tag_86\n      jump\t// in\n    tag_83:\n      stop\n        /* \"ServiceChain.sol\":1508:1525  string public org */\n    tag_15:\n      callvalue\n      dup1\n      iszero\n      tag_87\n      jumpi\n      0x00\n      dup1\n      revert\n    tag_87:\n      pop\n      tag_88\n      tag_89\n      jump\t// in\n    tag_88:\n      mload(0x40)\n      tag_90\n      swap2\n      swap1\n      tag_91\n      jump\t// in\n    tag_90:\n      mload(0x40)\n      dup1\n      swap2\n      sub\n      swap1\n      return\n        /* \"ServiceChain.sol\":1801:2061  function requestHours(uint value) public{... */\n    tag_26:\n        /* \"ServiceChain.sol\":1977:1978  8 */\n      0x08\n        /* \"ServiceChain.sol\":1947:1955  empHours */\n      0x01\n        /* \"ServiceChain.sol\":1947:1967  empHours[msg.sender] */\n      0x00\n        /* \"ServiceChain.sol\":1956:1966  msg.sender */\n      caller\n        /* \"ServiceChain.sol\":1947:1967  empHours[msg.sender] */\n      0xffffffffffffffffffffffffffffffffffffffff\n      and\n      0xffffffffffffffffffffffffffffffffffffffff\n      and\n      dup2\n      mstore\n      0x20\n      add\n      swap1\n      dup2\n      mstore\n      0x20\n      add\n      0x00\n      keccak256\n        /* \"ServiceChain.sol\":1947:1974  empHours[msg.sender].length */\n      dup1\n      sload\n      swap1\n      pop\n        /* \"ServiceChain.sol\":1947:1978  empHours[msg.sender].length < 8 */\n      lt\n        /* \"ServiceChain.sol\":1939:1979  require(empHours[msg.sender].length < 8) */\n      tag_93\n      jumpi\n      0x00\n      dup1\n      revert\n    tag_93:\n        /* \"ServiceChain.sol\":1990:1998  empHours */\n      0x01\n        /* \"ServiceChain.sol\":1990:2010  empHours[msg.sender] */\n      0x00\n        /* \"ServiceChain.sol\":1999:2009  msg.sender */\n      caller\n        /* \"ServiceChain.sol\":1990:2010  empHours[msg.sender] */\n      0xffffffffffffffffffffffffffffffffffffffff\n      and\n      0xffffffffffffffffffffffffffffffffffffffff\n      and\n      dup2\n      mstore\n      0x20\n      add\n      swap1\n      dup2\n      mstore\n      0x20\n      add\n      0x00\n      keccak256\n        /* \"ServiceChain.sol\":2016:2052  hourLog(block.timestamp,value,false) */\n      mload(0x40)\n      dup1\n      0x60\n      add\n      0x40\n      mstore\n      dup1\n        /* \"ServiceChain.sol\":2024:2039  block.timestamp */\n      timestamp\n        /* \"ServiceChain.sol\":2016:2052  hourLog(block.timestamp,value,false) */\n      dup2\n      mstore\n      0x20\n      add\n        /* \"ServiceChain.sol\":2040:2045  value */\n      dup4\n        /* \"ServiceChain.sol\":2016:2052  hourLog(block.timestamp,value,false) */\n      dup2\n      mstore\n      0x20\n      add\n        /* \"ServiceChain.sol\":2046:2051  false */\n      0x00\n        /* \"ServiceChain.sol\":2016:2052  hourLog(block.timestamp,value,false) */\n      iszero\n      iszero\n      dup2\n      mstore\n      pop\n        /* \"ServiceChain.sol\":1990:2053  empHours[msg.sender].push(hourLog(block.timestamp,value,false)) */\n      swap1\n      dup1\n      0x01\n      dup2\n      sload\n      add\n      dup1\n      dup3\n      sstore\n      dup1\n      swap2\n      pop\n      pop\n      0x01\n      swap1\n      sub\n      swap1\n      0x00\n      mstore\n      keccak256(0x00, 0x20)\n      swap1\n      0x03\n      mul\n      add\n      0x00\n      swap1\n      swap2\n      swap1\n      swap2\n      swap1\n      swap2\n      pop\n      0x00\n      dup3\n      add\n      mload\n      dup2\n      0x00\n      add\n      sstore\n      0x20\n      dup3\n      add\n      mload\n      dup2\n      0x01\n      add\n      sstore\n      0x40\n      dup3\n      add\n      mload\n      dup2\n      0x02\n      add\n      exp(0x0100, 0x00)\n      dup2\n      sload\n      dup2\n      0xff\n      mul\n      not\n      and\n      swap1\n      dup4\n      iszero\n      iszero\n      mul\n      or\n      swap1\n      sstore\n      pop\n      pop\n      pop\n        /* \"ServiceChain.sol\":1801:2061  function requestHours(uint value) public{... */\n      pop\n      jump\t// out\n        /* \"ServiceChain.sol\":1402:1445  mapping(address=>hourLog[]) public empHours */\n    tag_31:\n      mstore(0x20, 0x01)\n      dup2\n      0x00\n      mstore\n      keccak256(0x00, 0x40)\n      dup2\n      dup2\n      sload\n      dup2\n      lt\n      tag_95\n      jumpi\n      0x00\n      dup1\n      revert\n    tag_95:\n      swap1\n      0x00\n      mstore\n      keccak256(0x00, 0x20)\n      swap1\n      0x03\n      mul\n      add\n      0x00\n      swap2\n      pop\n      swap2\n      pop\n      pop\n      dup1\n      0x00\n      add\n      sload\n      swap1\n      dup1\n      0x01\n      add\n      sload\n      swap1\n      dup1\n      0x02\n      add\n      0x00\n      swap1\n      sload\n      swap1\n      0x0100\n      exp\n      swap1\n      div\n      0xff\n      and\n      swap1\n      pop\n      dup4\n      jump\t// out\n        /* \"ServiceChain.sol\":1452:1501  mapping(address=>customerRating[]) public ratings */\n    tag_37:\n      mstore(0x20, 0x02)\n      dup2\n      0x00\n      mstore\n      keccak256(0x00, 0x40)\n      dup2\n      dup2\n      sload\n      dup2\n      lt\n      tag_97\n      jumpi\n      0x00\n      dup1\n      revert\n    tag_97:\n      swap1\n      0x00\n      mstore\n      keccak256(0x00, 0x20)\n      swap1\n      0x02\n      mul\n      add\n      0x00\n      swap2\n      pop\n      swap2\n      pop\n      pop\n      dup1\n      0x00\n      add\n      0x00\n      swap1\n      sload\n      swap1\n      0x0100\n      exp\n      swap1\n      div\n      0xffffffffffffffffffffffffffffffffffffffff\n      and\n      swap1\n      dup1\n      0x01\n      add\n      sload\n      swap1\n      pop\n      dup3\n      jump\t// out\n        /* \"ServiceChain.sol\":4251:4354  function getTransactionCount() public view returns (uint) {... */\n    tag_42:\n        /* \"ServiceChain.sol\":4303:4307  uint */\n      0x00\n        /* \"ServiceChain.sol\":4327:4339  transactions */\n      dup1\n        /* \"ServiceChain.sol\":4327:4346  transactions.length */\n      dup1\n      sload\n      swap1\n      pop\n        /* \"ServiceChain.sol\":4320:4346  return transactions.length */\n      swap1\n      pop\n        /* \"ServiceChain.sol\":4251:4354  function getTransactionCount() public view returns (uint) {... */\n      swap1\n      jump\t// out\n        /* \"ServiceChain.sol\":4362:4643  function getTransaction(uint _txIndex)... */\n    tag_48:\n        /* \"ServiceChain.sol\":4449:4459  address to */\n      0x00\n        /* \"ServiceChain.sol\":4461:4471  uint value */\n      dup1\n        /* \"ServiceChain.sol\":4473:4490  bytes memory data */\n      0x60\n        /* \"ServiceChain.sol\":4508:4539  Transaction storage transaction */\n      0x00\n        /* \"ServiceChain.sol\":4542:4554  transactions */\n      dup1\n        /* \"ServiceChain.sol\":4555:4563  _txIndex */\n      dup6\n        /* \"ServiceChain.sol\":4542:4564  transactions[_txIndex] */\n      dup2\n      sload\n      dup2\n      lt\n      tag_101\n      jumpi\n      tag_102\n      tag_103\n      jump\t// in\n    tag_102:\n    tag_101:\n      swap1\n      0x00\n      mstore\n      keccak256(0x00, 0x20)\n      swap1\n      0x03\n      mul\n      add\n        /* \"ServiceChain.sol\":4508:4564  Transaction storage transaction = transactions[_txIndex] */\n      swap1\n      pop\n        /* \"ServiceChain.sol\":4583:4594  transaction */\n      dup1\n        /* \"ServiceChain.sol\":4583:4597  transaction.to */\n      0x00\n      add\n      0x00\n      swap1\n      sload\n      swap1\n      0x0100\n      exp\n      swap1\n      div\n      0xffffffffffffffffffffffffffffffffffffffff\n      and\n        /* \"ServiceChain.sol\":4599:4610  transaction */\n      dup2\n        /* \"ServiceChain.sol\":4599:4616  transaction.value */\n      0x01\n      add\n      sload\n        /* \"ServiceChain.sol\":4618:4629  transaction */\n      dup3\n        /* \"ServiceChain.sol\":4618:4634  transaction.data */\n      0x02\n      add\n        /* \"ServiceChain.sol\":4575:4635  return (transaction.to, transaction.value, transaction.data) */\n      dup1\n      dup1\n      sload\n      tag_105\n      swap1\n      tag_106\n      jump\t// in\n    tag_105:\n      dup1\n      0x1f\n      add\n      0x20\n      dup1\n      swap2\n      div\n      mul\n      0x20\n      add\n      mload(0x40)\n      swap1\n      dup2\n      add\n      0x40\n      mstore\n      dup1\n      swap3\n      swap2\n      swap1\n      dup2\n      dup2\n      mstore\n      0x20\n      add\n      dup3\n      dup1\n      sload\n      tag_107\n      swap1\n      tag_106\n      jump\t// in\n    tag_107:\n      dup1\n      iszero\n      tag_108\n      jumpi\n      dup1\n      0x1f\n      lt\n      tag_109\n      jumpi\n      0x0100\n      dup1\n      dup4\n      sload\n      div\n      mul\n      dup4\n      mstore\n      swap2\n      0x20\n      add\n      swap2\n      jump(tag_108)\n    tag_109:\n      dup3\n      add\n      swap2\n      swap1\n      0x00\n      mstore\n      keccak256(0x00, 0x20)\n      swap1\n    tag_110:\n      dup2\n      sload\n      dup2\n      mstore\n      swap1\n      0x01\n      add\n      swap1\n      0x20\n      add\n      dup1\n      dup4\n      gt\n      tag_110\n      jumpi\n      dup3\n      swap1\n      sub\n      0x1f\n      and\n      dup3\n      add\n      swap2\n    tag_108:\n      pop\n      pop\n      pop\n      pop\n      pop\n      swap1\n      pop\n      swap4\n      pop\n      swap4\n      pop\n      swap4\n      pop\n      pop\n        /* \"ServiceChain.sol\":4362:4643  function getTransaction(uint _txIndex)... */\n      swap2\n      swap4\n      swap1\n      swap3\n      pop\n      jump\t// out\n        /* \"ServiceChain.sol\":2295:2918  function confirmHours(address waiter,uint index) public{... */\n    tag_54:\n        /* \"ServiceChain.sol\":2383:2390  manager */\n      0x04\n      0x00\n      swap1\n      sload\n      swap1\n      0x0100\n      exp\n      swap1\n      div\n      0xffffffffffffffffffffffffffffffffffffffff\n      and\n        /* \"ServiceChain.sol\":2369:2390  msg.sender == manager */\n      0xffffffffffffffffffffffffffffffffffffffff\n      and\n        /* \"ServiceChain.sol\":2369:2379  msg.sender */\n      caller\n        /* \"ServiceChain.sol\":2369:2390  msg.sender == manager */\n      0xffffffffffffffffffffffffffffffffffffffff\n      and\n      eq\n        /* \"ServiceChain.sol\":2361:2417  require(msg.sender == manager,\"You are not the manager\") */\n      tag_112\n      jumpi\n      mload(0x40)\n      0x08c379a000000000000000000000000000000000000000000000000000000000\n      dup2\n      mstore\n      0x04\n      add\n      tag_113\n      swap1\n      tag_114\n      jump\t// in\n    tag_113:\n      mload(0x40)\n      dup1\n      swap2\n      sub\n      swap1\n      revert\n    tag_112:\n        /* \"ServiceChain.sol\":2581:2589  empHours */\n      0x01\n        /* \"ServiceChain.sol\":2581:2597  empHours[waiter] */\n      0x00\n        /* \"ServiceChain.sol\":2590:2596  waiter */\n      dup4\n        /* \"ServiceChain.sol\":2581:2597  empHours[waiter] */\n      0xffffffffffffffffffffffffffffffffffffffff\n      and\n      0xffffffffffffffffffffffffffffffffffffffff\n      and\n      dup2\n      mstore\n      0x20\n      add\n      swap1\n      dup2\n      mstore\n      0x20\n      add\n      0x00\n      keccak256\n        /* \"ServiceChain.sol\":2598:2603  index */\n      dup2\n        /* \"ServiceChain.sol\":2581:2604  empHours[waiter][index] */\n      dup2\n      sload\n      dup2\n      lt\n      tag_115\n      jumpi\n      tag_116\n      tag_103\n      jump\t// in\n    tag_116:\n    tag_115:\n      swap1\n      0x00\n      mstore\n      keccak256(0x00, 0x20)\n      swap1\n      0x03\n      mul\n      add\n        /* \"ServiceChain.sol\":2581:2609  empHours[waiter][index].date */\n      0x00\n      add\n      sload\n        /* \"ServiceChain.sol\":2574:2580  waiter */\n      dup3\n        /* \"ServiceChain.sol\":2548:2640  submitApproval(msg.sender,waiter,empHours[waiter][index].date, empHours[waiter][index].hour) */\n      0xffffffffffffffffffffffffffffffffffffffff\n      and\n        /* \"ServiceChain.sol\":2563:2573  msg.sender */\n      caller\n        /* \"ServiceChain.sol\":2548:2640  submitApproval(msg.sender,waiter,empHours[waiter][index].date, empHours[waiter][index].hour) */\n      0xffffffffffffffffffffffffffffffffffffffff\n      and\n      0x6c3b340ea4063c1ebf49afe1d61892de36fad954e56febb4c570600bd875dd28\n        /* \"ServiceChain.sol\":2611:2619  empHours */\n      0x01\n        /* \"ServiceChain.sol\":2611:2627  empHours[waiter] */\n      0x00\n        /* \"ServiceChain.sol\":2620:2626  waiter */\n      dup8\n        /* \"ServiceChain.sol\":2611:2627  empHours[waiter] */\n      0xffffffffffffffffffffffffffffffffffffffff\n      and\n      0xffffffffffffffffffffffffffffffffffffffff\n      and\n      dup2\n      mstore\n      0x20\n      add\n      swap1\n      dup2\n      mstore\n      0x20\n      add\n      0x00\n      keccak256\n        /* \"ServiceChain.sol\":2628:2633  index */\n      dup6\n        /* \"ServiceChain.sol\":2611:2634  empHours[waiter][index] */\n      dup2\n      sload\n      dup2\n      lt\n      tag_118\n      jumpi\n      tag_119\n      tag_103\n      jump\t// in\n    tag_119:\n    tag_118:\n      swap1\n      0x00\n      mstore\n      keccak256(0x00, 0x20)\n      swap1\n      0x03\n      mul\n      add\n        /* \"ServiceChain.sol\":2611:2639  empHours[waiter][index].hour */\n      0x01\n      add\n      sload\n        /* \"ServiceChain.sol\":2548:2640  submitApproval(msg.sender,waiter,empHours[waiter][index].date, empHours[waiter][index].hour) */\n      mload(0x40)\n      tag_121\n      swap2\n      swap1\n      tag_44\n      jump\t// in\n    tag_121:\n      mload(0x40)\n      dup1\n      swap2\n      sub\n      swap1\n      log4\n        /* \"ServiceChain.sol\":2704:2710  uint i */\n      0x00\n        /* \"ServiceChain.sol\":2712:2717  index */\n      dup2\n        /* \"ServiceChain.sol\":2704:2717  uint i =index */\n      swap1\n      pop\n        /* \"ServiceChain.sol\":2700:2820  for(uint i =index;i<empHours[waiter].length-1;i++){... */\n    tag_122:\n        /* \"ServiceChain.sol\":2744:2745  1 */\n      0x01\n        /* \"ServiceChain.sol\":2720:2728  empHours */\n      dup1\n        /* \"ServiceChain.sol\":2720:2736  empHours[waiter] */\n      0x00\n        /* \"ServiceChain.sol\":2729:2735  waiter */\n      dup6\n        /* \"ServiceChain.sol\":2720:2736  empHours[waiter] */\n      0xffffffffffffffffffffffffffffffffffffffff\n      and\n      0xffffffffffffffffffffffffffffffffffffffff\n      and\n      dup2\n      mstore\n      0x20\n      add\n      swap1\n      dup2\n      mstore\n      0x20\n      add\n      0x00\n      keccak256\n        /* \"ServiceChain.sol\":2720:2743  empHours[waiter].length */\n      dup1\n      sload\n      swap1\n      pop\n        /* \"ServiceChain.sol\":2720:2745  empHours[waiter].length-1 */\n      tag_125\n      swap2\n      swap1\n      tag_126\n      jump\t// in\n    tag_125:\n        /* \"ServiceChain.sol\":2718:2719  i */\n      dup2\n        /* \"ServiceChain.sol\":2718:2745  i<empHours[waiter].length-1 */\n      lt\n        /* \"ServiceChain.sol\":2700:2820  for(uint i =index;i<empHours[waiter].length-1;i++){... */\n      iszero\n      tag_123\n      jumpi\n        /* \"ServiceChain.sol\":2787:2795  empHours */\n      0x01\n        /* \"ServiceChain.sol\":2787:2803  empHours[waiter] */\n      0x00\n        /* \"ServiceChain.sol\":2796:2802  waiter */\n      dup5\n        /* \"ServiceChain.sol\":2787:2803  empHours[waiter] */\n      0xffffffffffffffffffffffffffffffffffffffff\n      and\n      0xffffffffffffffffffffffffffffffffffffffff\n      and\n      dup2\n      mstore\n      0x20\n      add\n      swap1\n      dup2\n      mstore\n      0x20\n      add\n      0x00\n      keccak256\n        /* \"ServiceChain.sol\":2806:2807  1 */\n      0x01\n        /* \"ServiceChain.sol\":2804:2805  i */\n      dup3\n        /* \"ServiceChain.sol\":2804:2807  i+1 */\n      tag_127\n      swap2\n      swap1\n      tag_128\n      jump\t// in\n    tag_127:\n        /* \"ServiceChain.sol\":2787:2808  empHours[waiter][i+1] */\n      dup2\n      sload\n      dup2\n      lt\n      tag_129\n      jumpi\n      tag_130\n      tag_103\n      jump\t// in\n    tag_130:\n    tag_129:\n      swap1\n      0x00\n      mstore\n      keccak256(0x00, 0x20)\n      swap1\n      0x03\n      mul\n      add\n        /* \"ServiceChain.sol\":2765:2773  empHours */\n      0x01\n        /* \"ServiceChain.sol\":2765:2781  empHours[waiter] */\n      0x00\n        /* \"ServiceChain.sol\":2774:2780  waiter */\n      dup6\n        /* \"ServiceChain.sol\":2765:2781  empHours[waiter] */\n      0xffffffffffffffffffffffffffffffffffffffff\n      and\n      0xffffffffffffffffffffffffffffffffffffffff\n      and\n      dup2\n      mstore\n      0x20\n      add\n      swap1\n      dup2\n      mstore\n      0x20\n      add\n      0x00\n      keccak256\n        /* \"ServiceChain.sol\":2782:2783  i */\n      dup3\n        /* \"ServiceChain.sol\":2765:2784  empHours[waiter][i] */\n      dup2\n      sload\n      dup2\n      lt\n      tag_132\n      jumpi\n      tag_133\n      tag_103\n      jump\t// in\n    tag_133:\n    tag_132:\n      swap1\n      0x00\n      mstore\n      keccak256(0x00, 0x20)\n      swap1\n      0x03\n      mul\n      add\n        /* \"ServiceChain.sol\":2765:2808  empHours[waiter][i] = empHours[waiter][i+1] */\n      0x00\n      dup3\n      add\n      sload\n      dup2\n      0x00\n      add\n      sstore\n      0x01\n      dup3\n      add\n      sload\n      dup2\n      0x01\n      add\n      sstore\n      0x02\n      dup3\n      add\n      0x00\n      swap1\n      sload\n      swap1\n      0x0100\n      exp\n      swap1\n      div\n      0xff\n      and\n      dup2\n      0x02\n      add\n      exp(0x0100, 0x00)\n      dup2\n      sload\n      dup2\n      0xff\n      mul\n      not\n      and\n      swap1\n      dup4\n      iszero\n      iszero\n      mul\n      or\n      swap1\n      sstore\n      pop\n      swap1\n      pop\n      pop\n        /* \"ServiceChain.sol\":2746:2749  i++ */\n      dup1\n      dup1\n      tag_135\n      swap1\n      tag_136\n      jump\t// in\n    tag_135:\n      swap2\n      pop\n      pop\n        /* \"ServiceChain.sol\":2700:2820  for(uint i =index;i<empHours[waiter].length-1;i++){... */\n      jump(tag_122)\n    tag_123:\n      pop\n        /* \"ServiceChain.sol\":2830:2838  empHours */\n      0x01\n        /* \"ServiceChain.sol\":2830:2846  empHours[waiter] */\n      0x00\n        /* \"ServiceChain.sol\":2839:2845  waiter */\n      dup4\n        /* \"ServiceChain.sol\":2830:2846  empHours[waiter] */\n      0xffffffffffffffffffffffffffffffffffffffff\n      and\n      0xffffffffffffffffffffffffffffffffffffffff\n      and\n      dup2\n      mstore\n      0x20\n      add\n      swap1\n      dup2\n      mstore\n      0x20\n      add\n      0x00\n      keccak256\n        /* \"ServiceChain.sol\":2830:2852  empHours[waiter].pop() */\n      dup1\n      sload\n      dup1\n      tag_137\n      jumpi\n      tag_138\n      tag_139\n      jump\t// in\n    tag_138:\n    tag_137:\n      0x01\n      swap1\n      sub\n      dup2\n      dup2\n      swap1\n      0x00\n      mstore\n      keccak256(0x00, 0x20)\n      swap1\n      0x03\n      mul\n      add\n      0x00\n      dup1\n      dup3\n      add\n      0x00\n      swap1\n      sstore\n      0x01\n      dup3\n      add\n      0x00\n      swap1\n      sstore\n      0x02\n      dup3\n      add\n      exp(0x0100, 0x00)\n      dup2\n      sload\n      swap1\n      0xff\n      mul\n      not\n      and\n      swap1\n      sstore\n      pop\n      pop\n      swap1\n      sstore\n        /* \"ServiceChain.sol\":2900:2904  true */\n      0x01\n        /* \"ServiceChain.sol\":2864:2872  empHours */\n      dup1\n        /* \"ServiceChain.sol\":2864:2880  empHours[waiter] */\n      0x00\n        /* \"ServiceChain.sol\":2873:2879  waiter */\n      dup5\n        /* \"ServiceChain.sol\":2864:2880  empHours[waiter] */\n      0xffffffffffffffffffffffffffffffffffffffff\n      and\n      0xffffffffffffffffffffffffffffffffffffffff\n      and\n      dup2\n      mstore\n      0x20\n      add\n      swap1\n      dup2\n      mstore\n      0x20\n      add\n      0x00\n      keccak256\n        /* \"ServiceChain.sol\":2881:2886  index */\n      dup3\n        /* \"ServiceChain.sol\":2864:2887  empHours[waiter][index] */\n      dup2\n      sload\n      dup2\n      lt\n      tag_141\n      jumpi\n      tag_142\n      tag_103\n      jump\t// in\n    tag_142:\n    tag_141:\n      swap1\n      0x00\n      mstore\n      keccak256(0x00, 0x20)\n      swap1\n      0x03\n      mul\n      add\n        /* \"ServiceChain.sol\":2864:2898  empHours[waiter][index].isApproved */\n      0x02\n      add\n      0x00\n        /* \"ServiceChain.sol\":2864:2904  empHours[waiter][index].isApproved= true */\n      0x0100\n      exp\n      dup2\n      sload\n      dup2\n      0xff\n      mul\n      not\n      and\n      swap1\n      dup4\n      iszero\n      iszero\n      mul\n      or\n      swap1\n      sstore\n      pop\n        /* \"ServiceChain.sol\":2295:2918  function confirmHours(address waiter,uint index) public{... */\n      pop\n      pop\n      jump\t// out\n        /* \"ServiceChain.sol\":1532:1554  address public manager */\n    tag_57:\n      0x04\n      0x00\n      swap1\n      sload\n      swap1\n      0x0100\n      exp\n      swap1\n      div\n      0xffffffffffffffffffffffffffffffffffffffff\n      and\n      dup2\n      jump\t// out\n        /* \"ServiceChain.sol\":3896:4241  function submitTip(address _to, uint _value, bytes memory _data)... */\n    tag_64:\n        /* \"ServiceChain.sol\":3993:4005  uint txIndex */\n      0x00\n        /* \"ServiceChain.sol\":4008:4020  transactions */\n      dup1\n        /* \"ServiceChain.sol\":4008:4027  transactions.length */\n      dup1\n      sload\n      swap1\n      pop\n        /* \"ServiceChain.sol\":3993:4027  uint txIndex = transactions.length */\n      swap1\n      pop\n        /* \"ServiceChain.sol\":4038:4050  transactions */\n      0x00\n        /* \"ServiceChain.sol\":4056:4156  Transaction({... */\n      mload(0x40)\n      dup1\n      0x60\n      add\n      0x40\n      mstore\n      dup1\n        /* \"ServiceChain.sol\":4087:4090  _to */\n      dup7\n        /* \"ServiceChain.sol\":4056:4156  Transaction({... */\n      0xffffffffffffffffffffffffffffffffffffffff\n      and\n      dup2\n      mstore\n      0x20\n      add\n        /* \"ServiceChain.sol\":4112:4118  _value */\n      dup6\n        /* \"ServiceChain.sol\":4056:4156  Transaction({... */\n      dup2\n      mstore\n      0x20\n      add\n        /* \"ServiceChain.sol\":4139:4144  _data */\n      dup5\n        /* \"ServiceChain.sol\":4056:4156  Transaction({... */\n      dup2\n      mstore\n      pop\n        /* \"ServiceChain.sol\":4038:4157  transactions.push(Transaction({... */\n      swap1\n      dup1\n      0x01\n      dup2\n      sload\n      add\n      dup1\n      dup3\n      sstore\n      dup1\n      swap2\n      pop\n      pop\n      0x01\n      swap1\n      sub\n      swap1\n      0x00\n      mstore\n      keccak256(0x00, 0x20)\n      swap1\n      0x03\n      mul\n      add\n      0x00\n      swap1\n      swap2\n      swap1\n      swap2\n      swap1\n      swap2\n      pop\n      0x00\n      dup3\n      add\n      mload\n      dup2\n      0x00\n      add\n      exp(0x0100, 0x00)\n      dup2\n      sload\n      dup2\n      0xffffffffffffffffffffffffffffffffffffffff\n      mul\n      not\n      and\n      swap1\n      dup4\n      0xffffffffffffffffffffffffffffffffffffffff\n      and\n      mul\n      or\n      swap1\n      sstore\n      pop\n      0x20\n      dup3\n      add\n      mload\n      dup2\n      0x01\n      add\n      sstore\n      0x40\n      dup3\n      add\n      mload\n      dup2\n      0x02\n      add\n      swap1\n      dup2\n      tag_146\n      swap2\n      swap1\n      tag_147\n      jump\t// in\n    tag_146:\n      pop\n      pop\n      pop\n        /* \"ServiceChain.sol\":4214:4217  _to */\n      dup4\n        /* \"ServiceChain.sol\":4183:4233  SubmitTip(msg.sender, txIndex, _to, _value, _data) */\n      0xffffffffffffffffffffffffffffffffffffffff\n      and\n        /* \"ServiceChain.sol\":4205:4212  txIndex */\n      dup2\n        /* \"ServiceChain.sol\":4193:4203  msg.sender */\n      caller\n        /* \"ServiceChain.sol\":4183:4233  SubmitTip(msg.sender, txIndex, _to, _value, _data) */\n      0xffffffffffffffffffffffffffffffffffffffff\n      and\n      0xff161496bb9879e11f4a70b7df1b7ba081936284851b65942ef4d782f9d39bea\n        /* \"ServiceChain.sol\":4219:4225  _value */\n      dup7\n        /* \"ServiceChain.sol\":4227:4232  _data */\n      dup7\n        /* \"ServiceChain.sol\":4183:4233  SubmitTip(msg.sender, txIndex, _to, _value, _data) */\n      mload(0x40)\n      tag_148\n      swap3\n      swap2\n      swap1\n      tag_149\n      jump\t// in\n    tag_148:\n      mload(0x40)\n      dup1\n      swap2\n      sub\n      swap1\n      log4\n        /* \"ServiceChain.sol\":3982:4241  {... */\n      pop\n        /* \"ServiceChain.sol\":3896:4241  function submitTip(address _to, uint _value, bytes memory _data)... */\n      pop\n      pop\n      pop\n      jump\t// out\n        /* \"ServiceChain.sol\":3317:3636  function getRating(address waiter) public view returns (uint avgRating) {... */\n    tag_69:\n        /* \"ServiceChain.sol\":3373:3387  uint avgRating */\n      0x00\n        /* \"ServiceChain.sol\":3400:3415  uint sumRatings */\n      dup1\n        /* \"ServiceChain.sol\":3418:3419  0 */\n      0x00\n        /* \"ServiceChain.sol\":3400:3419  uint sumRatings = 0 */\n      swap1\n      pop\n        /* \"ServiceChain.sol\":3435:3441  uint i */\n      0x00\n        /* \"ServiceChain.sol\":3430:3537  for (uint i=0;i<ratings[waiter].length;i++){... */\n    tag_151:\n        /* \"ServiceChain.sol\":3446:3453  ratings */\n      0x02\n        /* \"ServiceChain.sol\":3446:3461  ratings[waiter] */\n      0x00\n        /* \"ServiceChain.sol\":3454:3460  waiter */\n      dup6\n        /* \"ServiceChain.sol\":3446:3461  ratings[waiter] */\n      0xffffffffffffffffffffffffffffffffffffffff\n      and\n      0xffffffffffffffffffffffffffffffffffffffff\n      and\n      dup2\n      mstore\n      0x20\n      add\n      swap1\n      dup2\n      mstore\n      0x20\n      add\n      0x00\n      keccak256\n        /* \"ServiceChain.sol\":3446:3468  ratings[waiter].length */\n      dup1\n      sload\n      swap1\n      pop\n        /* \"ServiceChain.sol\":3444:3445  i */\n      dup2\n        /* \"ServiceChain.sol\":3444:3468  i<ratings[waiter].length */\n      lt\n        /* \"ServiceChain.sol\":3430:3537  for (uint i=0;i<ratings[waiter].length;i++){... */\n      iszero\n      tag_152\n      jumpi\n        /* \"ServiceChain.sol\":3500:3507  ratings */\n      0x02\n        /* \"ServiceChain.sol\":3500:3515  ratings[waiter] */\n      0x00\n        /* \"ServiceChain.sol\":3508:3514  waiter */\n      dup6\n        /* \"ServiceChain.sol\":3500:3515  ratings[waiter] */\n      0xffffffffffffffffffffffffffffffffffffffff\n      and\n      0xffffffffffffffffffffffffffffffffffffffff\n      and\n      dup2\n      mstore\n      0x20\n      add\n      swap1\n      dup2\n      mstore\n      0x20\n      add\n      0x00\n      keccak256\n        /* \"ServiceChain.sol\":3516:3517  i */\n      dup2\n        /* \"ServiceChain.sol\":3500:3518  ratings[waiter][i] */\n      dup2\n      sload\n      dup2\n      lt\n      tag_154\n      jumpi\n      tag_155\n      tag_103\n      jump\t// in\n    tag_155:\n    tag_154:\n      swap1\n      0x00\n      mstore\n      keccak256(0x00, 0x20)\n      swap1\n      0x02\n      mul\n      add\n        /* \"ServiceChain.sol\":3500:3525  ratings[waiter][i].rating */\n      0x01\n      add\n      sload\n        /* \"ServiceChain.sol\":3488:3525  sumRatings+=ratings[waiter][i].rating */\n      dup3\n      tag_157\n      swap2\n      swap1\n      tag_128\n      jump\t// in\n    tag_157:\n      swap2\n      pop\n        /* \"ServiceChain.sol\":3469:3472  i++ */\n      dup1\n      dup1\n      tag_158\n      swap1\n      tag_136\n      jump\t// in\n    tag_158:\n      swap2\n      pop\n      pop\n        /* \"ServiceChain.sol\":3430:3537  for (uint i=0;i<ratings[waiter].length;i++){... */\n      jump(tag_151)\n    tag_152:\n      pop\n        /* \"ServiceChain.sol\":3547:3561  uint avgRating */\n      0x00\n        /* \"ServiceChain.sol\":3575:3582  ratings */\n      0x02\n        /* \"ServiceChain.sol\":3575:3590  ratings[waiter] */\n      0x00\n        /* \"ServiceChain.sol\":3583:3589  waiter */\n      dup6\n        /* \"ServiceChain.sol\":3575:3590  ratings[waiter] */\n      0xffffffffffffffffffffffffffffffffffffffff\n      and\n      0xffffffffffffffffffffffffffffffffffffffff\n      and\n      dup2\n      mstore\n      0x20\n      add\n      swap1\n      dup2\n      mstore\n      0x20\n      add\n      0x00\n      keccak256\n        /* \"ServiceChain.sol\":3575:3597  ratings[waiter].length */\n      dup1\n      sload\n      swap1\n      pop\n        /* \"ServiceChain.sol\":3564:3574  sumRatings */\n      dup3\n        /* \"ServiceChain.sol\":3564:3597  sumRatings/ratings[waiter].length */\n      tag_159\n      swap2\n      swap1\n      tag_160\n      jump\t// in\n    tag_159:\n        /* \"ServiceChain.sol\":3547:3597  uint avgRating = sumRatings/ratings[waiter].length */\n      swap1\n      pop\n        /* \"ServiceChain.sol\":3615:3624  avgRating */\n      dup1\n        /* \"ServiceChain.sol\":3608:3624  return avgRating */\n      swap3\n      pop\n      pop\n      pop\n        /* \"ServiceChain.sol\":3317:3636  function getRating(address waiter) public view returns (uint avgRating) {... */\n      swap2\n      swap1\n      pop\n      jump\t// out\n        /* \"ServiceChain.sol\":1362:1395  Transaction[] public transactions */\n    tag_74:\n      0x00\n      dup2\n      dup2\n      sload\n      dup2\n      lt\n      tag_161\n      jumpi\n      0x00\n      dup1\n      revert\n    tag_161:\n      swap1\n      0x00\n      mstore\n      keccak256(0x00, 0x20)\n      swap1\n      0x03\n      mul\n      add\n      0x00\n      swap2\n      pop\n      swap1\n      pop\n      dup1\n      0x00\n      add\n      0x00\n      swap1\n      sload\n      swap1\n      0x0100\n      exp\n      swap1\n      div\n      0xffffffffffffffffffffffffffffffffffffffff\n      and\n      swap1\n      dup1\n      0x01\n      add\n      sload\n      swap1\n      dup1\n      0x02\n      add\n      dup1\n      sload\n      tag_163\n      swap1\n      tag_106\n      jump\t// in\n    tag_163:\n      dup1\n      0x1f\n      add\n      0x20\n      dup1\n      swap2\n      div\n      mul\n      0x20\n      add\n      mload(0x40)\n      swap1\n      dup2\n      add\n      0x40\n      mstore\n      dup1\n      swap3\n      swap2\n      swap1\n      dup2\n      dup2\n      mstore\n      0x20\n      add\n      dup3\n      dup1\n      sload\n      tag_164\n      swap1\n      tag_106\n      jump\t// in\n    tag_164:\n      dup1\n      iszero\n      tag_165\n      jumpi\n      dup1\n      0x1f\n      lt\n      tag_166\n      jumpi\n      0x0100\n      dup1\n      dup4\n      sload\n      div\n      mul\n      dup4\n      mstore\n      swap2\n      0x20\n      add\n      swap2\n      jump(tag_165)\n    tag_166:\n      dup3\n      add\n      swap2\n      swap1\n      0x00\n      mstore\n      keccak256(0x00, 0x20)\n      swap1\n    tag_167:\n      dup2\n      sload\n      dup2\n      mstore\n      swap1\n      0x01\n      add\n      swap1\n      0x20\n      add\n      dup1\n      dup4\n      gt\n      tag_167\n      jumpi\n      dup3\n      swap1\n      sub\n      0x1f\n      and\n      dup3\n      add\n      swap2\n    tag_165:\n      pop\n      pop\n      pop\n      pop\n      pop\n      swap1\n      pop\n      dup4\n      jump\t// out\n        /* \"ServiceChain.sol\":2977:3094  function getHourLog(address waiter) public view returns(hourLog[] memory){... */\n    tag_79:\n        /* \"ServiceChain.sol\":3033:3049  hourLog[] memory */\n      0x60\n        /* \"ServiceChain.sol\":3068:3076  empHours */\n      0x01\n        /* \"ServiceChain.sol\":3068:3084  empHours[waiter] */\n      0x00\n        /* \"ServiceChain.sol\":3077:3083  waiter */\n      dup4\n        /* \"ServiceChain.sol\":3068:3084  empHours[waiter] */\n      0xffffffffffffffffffffffffffffffffffffffff\n      and\n      0xffffffffffffffffffffffffffffffffffffffff\n      and\n      dup2\n      mstore\n      0x20\n      add\n      swap1\n      dup2\n      mstore\n      0x20\n      add\n      0x00\n      keccak256\n        /* \"ServiceChain.sol\":3061:3084  return empHours[waiter] */\n      dup1\n      sload\n      dup1\n      0x20\n      mul\n      0x20\n      add\n      mload(0x40)\n      swap1\n      dup2\n      add\n      0x40\n      mstore\n      dup1\n      swap3\n      swap2\n      swap1\n      dup2\n      dup2\n      mstore\n      0x20\n      add\n      0x00\n      swap1\n    tag_169:\n      dup3\n      dup3\n      lt\n      iszero\n      tag_170\n      jumpi\n      dup4\n      dup3\n      swap1\n      0x00\n      mstore\n      keccak256(0x00, 0x20)\n      swap1\n      0x03\n      mul\n      add\n      mload(0x40)\n      dup1\n      0x60\n      add\n      0x40\n      mstore\n      swap1\n      dup2\n      0x00\n      dup3\n      add\n      sload\n      dup2\n      mstore\n      0x20\n      add\n      0x01\n      dup3\n      add\n      sload\n      dup2\n      mstore\n      0x20\n      add\n      0x02\n      dup3\n      add\n      0x00\n      swap1\n      sload\n      swap1\n      0x0100\n      exp\n      swap1\n      div\n      0xff\n      and\n      iszero\n      iszero\n      iszero\n      iszero\n      dup2\n      mstore\n      pop\n      pop\n      dup2\n      mstore\n      0x20\n      add\n      swap1\n      0x01\n      add\n      swap1\n      jump(tag_169)\n    tag_170:\n      pop\n      pop\n      pop\n      pop\n      swap1\n      pop\n        /* \"ServiceChain.sol\":2977:3094  function getHourLog(address waiter) public view returns(hourLog[] memory){... */\n      swap2\n      swap1\n      pop\n      jump\t// out\n        /* \"ServiceChain.sol\":3112:3309  function sendRatings(address customer,address waiter,uint rating) public {... */\n    tag_86:\n        /* \"ServiceChain.sol\":3223:3229  waiter */\n      dup2\n        /* \"ServiceChain.sol\":3201:3237  submitRating(customer,waiter,rating) */\n      0xffffffffffffffffffffffffffffffffffffffff\n      and\n        /* \"ServiceChain.sol\":3214:3222  customer */\n      dup4\n        /* \"ServiceChain.sol\":3201:3237  submitRating(customer,waiter,rating) */\n      0xffffffffffffffffffffffffffffffffffffffff\n      and\n      0x5435029ae8e53f5303b6dbda07be9beb09ae106923c28bf30dc3c46852588f04\n        /* \"ServiceChain.sol\":3230:3236  rating */\n      dup4\n        /* \"ServiceChain.sol\":3201:3237  submitRating(customer,waiter,rating) */\n      mload(0x40)\n      tag_173\n      swap2\n      swap1\n      tag_44\n      jump\t// in\n    tag_173:\n      mload(0x40)\n      dup1\n      swap2\n      sub\n      swap1\n      log3\n        /* \"ServiceChain.sol\":3248:3255  ratings */\n      0x02\n        /* \"ServiceChain.sol\":3248:3263  ratings[waiter] */\n      0x00\n        /* \"ServiceChain.sol\":3256:3262  waiter */\n      dup4\n        /* \"ServiceChain.sol\":3248:3263  ratings[waiter] */\n      0xffffffffffffffffffffffffffffffffffffffff\n      and\n      0xffffffffffffffffffffffffffffffffffffffff\n      and\n      dup2\n      mstore\n      0x20\n      add\n      swap1\n      dup2\n      mstore\n      0x20\n      add\n      0x00\n      keccak256\n        /* \"ServiceChain.sol\":3269:3300  customerRating(customer,rating) */\n      mload(0x40)\n      dup1\n      0x40\n      add\n      0x40\n      mstore\n      dup1\n        /* \"ServiceChain.sol\":3284:3292  customer */\n      dup6\n        /* \"ServiceChain.sol\":3269:3300  customerRating(customer,rating) */\n      0xffffffffffffffffffffffffffffffffffffffff\n      and\n      dup2\n      mstore\n      0x20\n      add\n        /* \"ServiceChain.sol\":3293:3299  rating */\n      dup4\n        /* \"ServiceChain.sol\":3269:3300  customerRating(customer,rating) */\n      dup2\n      mstore\n      pop\n        /* \"ServiceChain.sol\":3248:3301  ratings[waiter].push(customerRating(customer,rating)) */\n      swap1\n      dup1\n      0x01\n      dup2\n      sload\n      add\n      dup1\n      dup3\n      sstore\n      dup1\n      swap2\n      pop\n      pop\n      0x01\n      swap1\n      sub\n      swap1\n      0x00\n      mstore\n      keccak256(0x00, 0x20)\n      swap1\n      0x02\n      mul\n      add\n      0x00\n      swap1\n      swap2\n      swap1\n      swap2\n      swap1\n      swap2\n      pop\n      0x00\n      dup3\n      add\n      mload\n      dup2\n      0x00\n      add\n      exp(0x0100, 0x00)\n      dup2\n      sload\n      dup2\n      0xffffffffffffffffffffffffffffffffffffffff\n      mul\n      not\n      and\n      swap1\n      dup4\n      0xffffffffffffffffffffffffffffffffffffffff\n      and\n      mul\n      or\n      swap1\n      sstore\n      pop\n      0x20\n      dup3\n      add\n      mload\n      dup2\n      0x01\n      add\n      sstore\n      pop\n      pop\n        /* \"ServiceChain.sol\":3112:3309  function sendRatings(address customer,address waiter,uint rating) public {... */\n      pop\n      pop\n      pop\n      jump\t// out\n        /* \"ServiceChain.sol\":1508:1525  string public org */\n    tag_89:\n      0x03\n      dup1\n      sload\n      tag_175\n      swap1\n      tag_106\n      jump\t// in\n    tag_175:\n      dup1\n      0x1f\n      add\n      0x20\n      dup1\n      swap2\n      div\n      mul\n      0x20\n      add\n      mload(0x40)\n      swap1\n      dup2\n      add\n      0x40\n      mstore\n      dup1\n      swap3\n      swap2\n      swap1\n      dup2\n      dup2\n      mstore\n      0x20\n      add\n      dup3\n      dup1\n      sload\n      tag_176\n      swap1\n      tag_106\n      jump\t// in\n    tag_176:\n      dup1\n      iszero\n      tag_177\n      jumpi\n      dup1\n      0x1f\n      lt\n      tag_178\n      jumpi\n      0x0100\n      dup1\n      dup4\n      sload\n      div\n      mul\n      dup4\n      mstore\n      swap2\n      0x20\n      add\n      swap2\n      jump(tag_177)\n    tag_178:\n      dup3\n      add\n      swap2\n      swap1\n      0x00\n      mstore\n      keccak256(0x00, 0x20)\n      swap1\n    tag_179:\n      dup2\n      sload\n      dup2\n      mstore\n      swap1\n      0x01\n      add\n      swap1\n      0x20\n      add\n      dup1\n      dup4\n      gt\n      tag_179\n      jumpi\n      dup3\n      swap1\n      sub\n      0x1f\n      and\n      dup3\n      add\n      swap2\n    tag_177:\n      pop\n      pop\n      pop\n      pop\n      pop\n      dup2\n      jump\t// out\n        /* \"#utility.yul\":7:84   */\n    tag_180:\n        /* \"#utility.yul\":44:51   */\n      0x00\n        /* \"#utility.yul\":73:78   */\n      dup2\n        /* \"#utility.yul\":62:78   */\n      swap1\n      pop\n        /* \"#utility.yul\":7:84   */\n      swap2\n      swap1\n      pop\n      jump\t// out\n        /* \"#utility.yul\":90:208   */\n    tag_181:\n        /* \"#utility.yul\":177:201   */\n      tag_243\n        /* \"#utility.yul\":195:200   */\n      dup2\n        /* \"#utility.yul\":177:201   */\n      tag_180\n      jump\t// in\n    tag_243:\n        /* \"#utility.yul\":172:175   */\n      dup3\n        /* \"#utility.yul\":165:202   */\n      mstore\n        /* \"#utility.yul\":90:208   */\n      pop\n      pop\n      jump\t// out\n        /* \"#utility.yul\":214:546   */\n    tag_21:\n        /* \"#utility.yul\":335:339   */\n      0x00\n        /* \"#utility.yul\":373:375   */\n      0x40\n        /* \"#utility.yul\":362:371   */\n      dup3\n        /* \"#utility.yul\":358:376   */\n      add\n        /* \"#utility.yul\":350:376   */\n      swap1\n      pop\n        /* \"#utility.yul\":386:457   */\n      tag_245\n        /* \"#utility.yul\":454:455   */\n      0x00\n        /* \"#utility.yul\":443:452   */\n      dup4\n        /* \"#utility.yul\":439:456   */\n      add\n        /* \"#utility.yul\":430:436   */\n      dup6\n        /* \"#utility.yul\":386:457   */\n      tag_181\n      jump\t// in\n    tag_245:\n        /* \"#utility.yul\":467:539   */\n      tag_246\n        /* \"#utility.yul\":535:537   */\n      0x20\n        /* \"#utility.yul\":524:533   */\n      dup4\n        /* \"#utility.yul\":520:538   */\n      add\n        /* \"#utility.yul\":511:517   */\n      dup5\n        /* \"#utility.yul\":467:539   */\n      tag_181\n      jump\t// in\n    tag_246:\n        /* \"#utility.yul\":214:546   */\n      swap4\n      swap3\n      pop\n      pop\n      pop\n      jump\t// out\n        /* \"#utility.yul\":552:627   */\n    tag_182:\n        /* \"#utility.yul\":585:591   */\n      0x00\n        /* \"#utility.yul\":618:620   */\n      0x40\n        /* \"#utility.yul\":612:621   */\n      mload\n        /* \"#utility.yul\":602:621   */\n      swap1\n      pop\n        /* \"#utility.yul\":552:627   */\n      swap1\n      jump\t// out\n        /* \"#utility.yul\":633:750   */\n    tag_183:\n        /* \"#utility.yul\":742:743   */\n      0x00\n        /* \"#utility.yul\":739:740   */\n      dup1\n        /* \"#utility.yul\":732:744   */\n      revert\n        /* \"#utility.yul\":756:873   */\n    tag_184:\n        /* \"#utility.yul\":865:866   */\n      0x00\n        /* \"#utility.yul\":862:863   */\n      dup1\n        /* \"#utility.yul\":855:867   */\n      revert\n        /* \"#utility.yul\":879:1001   */\n    tag_185:\n        /* \"#utility.yul\":952:976   */\n      tag_251\n        /* \"#utility.yul\":970:975   */\n      dup2\n        /* \"#utility.yul\":952:976   */\n      tag_180\n      jump\t// in\n    tag_251:\n        /* \"#utility.yul\":945:950   */\n      dup2\n        /* \"#utility.yul\":942:977   */\n      eq\n        /* \"#utility.yul\":932:995   */\n      tag_252\n      jumpi\n        /* \"#utility.yul\":991:992   */\n      0x00\n        /* \"#utility.yul\":988:989   */\n      dup1\n        /* \"#utility.yul\":981:993   */\n      revert\n        /* \"#utility.yul\":932:995   */\n    tag_252:\n        /* \"#utility.yul\":879:1001   */\n      pop\n      jump\t// out\n        /* \"#utility.yul\":1007:1146   */\n    tag_186:\n        /* \"#utility.yul\":1053:1058   */\n      0x00\n        /* \"#utility.yul\":1091:1097   */\n      dup2\n        /* \"#utility.yul\":1078:1098   */\n      calldataload\n        /* \"#utility.yul\":1069:1098   */\n      swap1\n      pop\n        /* \"#utility.yul\":1107:1140   */\n      tag_254\n        /* \"#utility.yul\":1134:1139   */\n      dup2\n        /* \"#utility.yul\":1107:1140   */\n      tag_185\n      jump\t// in\n    tag_254:\n        /* \"#utility.yul\":1007:1146   */\n      swap3\n      swap2\n      pop\n      pop\n      jump\t// out\n        /* \"#utility.yul\":1152:1481   */\n    tag_25:\n        /* \"#utility.yul\":1211:1217   */\n      0x00\n        /* \"#utility.yul\":1260:1262   */\n      0x20\n        /* \"#utility.yul\":1248:1257   */\n      dup3\n        /* \"#utility.yul\":1239:1246   */\n      dup5\n        /* \"#utility.yul\":1235:1258   */\n      sub\n        /* \"#utility.yul\":1231:1263   */\n      slt\n        /* \"#utility.yul\":1228:1347   */\n      iszero\n      tag_256\n      jumpi\n        /* \"#utility.yul\":1266:1345   */\n      tag_257\n      tag_183\n      jump\t// in\n    tag_257:\n        /* \"#utility.yul\":1228:1347   */\n    tag_256:\n        /* \"#utility.yul\":1386:1387   */\n      0x00\n        /* \"#utility.yul\":1411:1464   */\n      tag_258\n        /* \"#utility.yul\":1456:1463   */\n      dup5\n        /* \"#utility.yul\":1447:1453   */\n      dup3\n        /* \"#utility.yul\":1436:1445   */\n      dup6\n        /* \"#utility.yul\":1432:1454   */\n      add\n        /* \"#utility.yul\":1411:1464   */\n      tag_186\n      jump\t// in\n    tag_258:\n        /* \"#utility.yul\":1401:1464   */\n      swap2\n      pop\n        /* \"#utility.yul\":1357:1474   */\n      pop\n        /* \"#utility.yul\":1152:1481   */\n      swap3\n      swap2\n      pop\n      pop\n      jump\t// out\n        /* \"#utility.yul\":1487:1613   */\n    tag_187:\n        /* \"#utility.yul\":1524:1531   */\n      0x00\n        /* \"#utility.yul\":1564:1606   */\n      0xffffffffffffffffffffffffffffffffffffffff\n        /* \"#utility.yul\":1557:1562   */\n      dup3\n        /* \"#utility.yul\":1553:1607   */\n      and\n        /* \"#utility.yul\":1542:1607   */\n      swap1\n      pop\n        /* \"#utility.yul\":1487:1613   */\n      swap2\n      swap1\n      pop\n      jump\t// out\n        /* \"#utility.yul\":1619:1715   */\n    tag_188:\n        /* \"#utility.yul\":1656:1663   */\n      0x00\n        /* \"#utility.yul\":1685:1709   */\n      tag_261\n        /* \"#utility.yul\":1703:1708   */\n      dup3\n        /* \"#utility.yul\":1685:1709   */\n      tag_187\n      jump\t// in\n    tag_261:\n        /* \"#utility.yul\":1674:1709   */\n      swap1\n      pop\n        /* \"#utility.yul\":1619:1715   */\n      swap2\n      swap1\n      pop\n      jump\t// out\n        /* \"#utility.yul\":1721:1843   */\n    tag_189:\n        /* \"#utility.yul\":1794:1818   */\n      tag_263\n        /* \"#utility.yul\":1812:1817   */\n      dup2\n        /* \"#utility.yul\":1794:1818   */\n      tag_188\n      jump\t// in\n    tag_263:\n        /* \"#utility.yul\":1787:1792   */\n      dup2\n        /* \"#utility.yul\":1784:1819   */\n      eq\n        /* \"#utility.yul\":1774:1837   */\n      tag_264\n      jumpi\n        /* \"#utility.yul\":1833:1834   */\n      0x00\n        /* \"#utility.yul\":1830:1831   */\n      dup1\n        /* \"#utility.yul\":1823:1835   */\n      revert\n        /* \"#utility.yul\":1774:1837   */\n    tag_264:\n        /* \"#utility.yul\":1721:1843   */\n      pop\n      jump\t// out\n        /* \"#utility.yul\":1849:1988   */\n    tag_190:\n        /* \"#utility.yul\":1895:1900   */\n      0x00\n        /* \"#utility.yul\":1933:1939   */\n      dup2\n        /* \"#utility.yul\":1920:1940   */\n      calldataload\n        /* \"#utility.yul\":1911:1940   */\n      swap1\n      pop\n        /* \"#utility.yul\":1949:1982   */\n      tag_266\n        /* \"#utility.yul\":1976:1981   */\n      dup2\n        /* \"#utility.yul\":1949:1982   */\n      tag_189\n      jump\t// in\n    tag_266:\n        /* \"#utility.yul\":1849:1988   */\n      swap3\n      swap2\n      pop\n      pop\n      jump\t// out\n        /* \"#utility.yul\":1994:2468   */\n    tag_30:\n        /* \"#utility.yul\":2062:2068   */\n      0x00\n        /* \"#utility.yul\":2070:2076   */\n      dup1\n        /* \"#utility.yul\":2119:2121   */\n      0x40\n        /* \"#utility.yul\":2107:2116   */\n      dup4\n        /* \"#utility.yul\":2098:2105   */\n      dup6\n        /* \"#utility.yul\":2094:2117   */\n      sub\n        /* \"#utility.yul\":2090:2122   */\n      slt\n        /* \"#utility.yul\":2087:2206   */\n      iszero\n      tag_268\n      jumpi\n        /* \"#utility.yul\":2125:2204   */\n      tag_269\n      tag_183\n      jump\t// in\n    tag_269:\n        /* \"#utility.yul\":2087:2206   */\n    tag_268:\n        /* \"#utility.yul\":2245:2246   */\n      0x00\n        /* \"#utility.yul\":2270:2323   */\n      tag_270\n        /* \"#utility.yul\":2315:2322   */\n      dup6\n        /* \"#utility.yul\":2306:2312   */\n      dup3\n        /* \"#utility.yul\":2295:2304   */\n      dup7\n        /* \"#utility.yul\":2291:2313   */\n      add\n        /* \"#utility.yul\":2270:2323   */\n      tag_190\n      jump\t// in\n    tag_270:\n        /* \"#utility.yul\":2260:2323   */\n      swap3\n      pop\n        /* \"#utility.yul\":2216:2333   */\n      pop\n        /* \"#utility.yul\":2372:2374   */\n      0x20\n        /* \"#utility.yul\":2398:2451   */\n      tag_271\n        /* \"#utility.yul\":2443:2450   */\n      dup6\n        /* \"#utility.yul\":2434:2440   */\n      dup3\n        /* \"#utility.yul\":2423:2432   */\n      dup7\n        /* \"#utility.yul\":2419:2441   */\n      add\n        /* \"#utility.yul\":2398:2451   */\n      tag_186\n      jump\t// in\n    tag_271:\n        /* \"#utility.yul\":2388:2451   */\n      swap2\n      pop\n        /* \"#utility.yul\":2343:2461   */\n      pop\n        /* \"#utility.yul\":1994:2468   */\n      swap3\n      pop\n      swap3\n      swap1\n      pop\n      jump\t// out\n        /* \"#utility.yul\":2474:2564   */\n    tag_191:\n        /* \"#utility.yul\":2508:2515   */\n      0x00\n        /* \"#utility.yul\":2551:2556   */\n      dup2\n        /* \"#utility.yul\":2544:2557   */\n      iszero\n        /* \"#utility.yul\":2537:2558   */\n      iszero\n        /* \"#utility.yul\":2526:2558   */\n      swap1\n      pop\n        /* \"#utility.yul\":2474:2564   */\n      swap2\n      swap1\n      pop\n      jump\t// out\n        /* \"#utility.yul\":2570:2679   */\n    tag_192:\n        /* \"#utility.yul\":2651:2672   */\n      tag_274\n        /* \"#utility.yul\":2666:2671   */\n      dup2\n        /* \"#utility.yul\":2651:2672   */\n      tag_191\n      jump\t// in\n    tag_274:\n        /* \"#utility.yul\":2646:2649   */\n      dup3\n        /* \"#utility.yul\":2639:2673   */\n      mstore\n        /* \"#utility.yul\":2570:2679   */\n      pop\n      pop\n      jump\t// out\n        /* \"#utility.yul\":2685:3115   */\n    tag_33:\n        /* \"#utility.yul\":2828:2832   */\n      0x00\n        /* \"#utility.yul\":2866:2868   */\n      0x60\n        /* \"#utility.yul\":2855:2864   */\n      dup3\n        /* \"#utility.yul\":2851:2869   */\n      add\n        /* \"#utility.yul\":2843:2869   */\n      swap1\n      pop\n        /* \"#utility.yul\":2879:2950   */\n      tag_276\n        /* \"#utility.yul\":2947:2948   */\n      0x00\n        /* \"#utility.yul\":2936:2945   */\n      dup4\n        /* \"#utility.yul\":2932:2949   */\n      add\n        /* \"#utility.yul\":2923:2929   */\n      dup7\n        /* \"#utility.yul\":2879:2950   */\n      tag_181\n      jump\t// in\n    tag_276:\n        /* \"#utility.yul\":2960:3032   */\n      tag_277\n        /* \"#utility.yul\":3028:3030   */\n      0x20\n        /* \"#utility.yul\":3017:3026   */\n      dup4\n        /* \"#utility.yul\":3013:3031   */\n      add\n        /* \"#utility.yul\":3004:3010   */\n      dup6\n        /* \"#utility.yul\":2960:3032   */\n      tag_181\n      jump\t// in\n    tag_277:\n        /* \"#utility.yul\":3042:3108   */\n      tag_278\n        /* \"#utility.yul\":3104:3106   */\n      0x40\n        /* \"#utility.yul\":3093:3102   */\n      dup4\n        /* \"#utility.yul\":3089:3107   */\n      add\n        /* \"#utility.yul\":3080:3086   */\n      dup5\n        /* \"#utility.yul\":3042:3108   */\n      tag_192\n      jump\t// in\n    tag_278:\n        /* \"#utility.yul\":2685:3115   */\n      swap5\n      swap4\n      pop\n      pop\n      pop\n      pop\n      jump\t// out\n        /* \"#utility.yul\":3121:3239   */\n    tag_193:\n        /* \"#utility.yul\":3208:3232   */\n      tag_280\n        /* \"#utility.yul\":3226:3231   */\n      dup2\n        /* \"#utility.yul\":3208:3232   */\n      tag_188\n      jump\t// in\n    tag_280:\n        /* \"#utility.yul\":3203:3206   */\n      dup3\n        /* \"#utility.yul\":3196:3233   */\n      mstore\n        /* \"#utility.yul\":3121:3239   */\n      pop\n      pop\n      jump\t// out\n        /* \"#utility.yul\":3245:3577   */\n    tag_39:\n        /* \"#utility.yul\":3366:3370   */\n      0x00\n        /* \"#utility.yul\":3404:3406   */\n      0x40\n        /* \"#utility.yul\":3393:3402   */\n      dup3\n        /* \"#utility.yul\":3389:3407   */\n      add\n        /* \"#utility.yul\":3381:3407   */\n      swap1\n      pop\n        /* \"#utility.yul\":3417:3488   */\n      tag_282\n        /* \"#utility.yul\":3485:3486   */\n      0x00\n        /* \"#utility.yul\":3474:3483   */\n      dup4\n        /* \"#utility.yul\":3470:3487   */\n      add\n        /* \"#utility.yul\":3461:3467   */\n      dup6\n        /* \"#utility.yul\":3417:3488   */\n      tag_193\n      jump\t// in\n    tag_282:\n        /* \"#utility.yul\":3498:3570   */\n      tag_283\n        /* \"#utility.yul\":3566:3568   */\n      0x20\n        /* \"#utility.yul\":3555:3564   */\n      dup4\n        /* \"#utility.yul\":3551:3569   */\n      add\n        /* \"#utility.yul\":3542:3548   */\n      dup5\n        /* \"#utility.yul\":3498:3570   */\n      tag_181\n      jump\t// in\n    tag_283:\n        /* \"#utility.yul\":3245:3577   */\n      swap4\n      swap3\n      pop\n      pop\n      pop\n      jump\t// out\n        /* \"#utility.yul\":3583:3805   */\n    tag_44:\n        /* \"#utility.yul\":3676:3680   */\n      0x00\n        /* \"#utility.yul\":3714:3716   */\n      0x20\n        /* \"#utility.yul\":3703:3712   */\n      dup3\n        /* \"#utility.yul\":3699:3717   */\n      add\n        /* \"#utility.yul\":3691:3717   */\n      swap1\n      pop\n        /* \"#utility.yul\":3727:3798   */\n      tag_285\n        /* \"#utility.yul\":3795:3796   */\n      0x00\n        /* \"#utility.yul\":3784:3793   */\n      dup4\n        /* \"#utility.yul\":3780:3797   */\n      add\n        /* \"#utility.yul\":3771:3777   */\n      dup5\n        /* \"#utility.yul\":3727:3798   */\n      tag_181\n      jump\t// in\n    tag_285:\n        /* \"#utility.yul\":3583:3805   */\n      swap3\n      swap2\n      pop\n      pop\n      jump\t// out\n        /* \"#utility.yul\":3811:3909   */\n    tag_194:\n        /* \"#utility.yul\":3862:3868   */\n      0x00\n        /* \"#utility.yul\":3896:3901   */\n      dup2\n        /* \"#utility.yul\":3890:3902   */\n      mload\n        /* \"#utility.yul\":3880:3902   */\n      swap1\n      pop\n        /* \"#utility.yul\":3811:3909   */\n      swap2\n      swap1\n      pop\n      jump\t// out\n        /* \"#utility.yul\":3915:4083   */\n    tag_195:\n        /* \"#utility.yul\":3998:4009   */\n      0x00\n        /* \"#utility.yul\":4032:4038   */\n      dup3\n        /* \"#utility.yul\":4027:4030   */\n      dup3\n        /* \"#utility.yul\":4020:4039   */\n      mstore\n        /* \"#utility.yul\":4072:4076   */\n      0x20\n        /* \"#utility.yul\":4067:4070   */\n      dup3\n        /* \"#utility.yul\":4063:4077   */\n      add\n        /* \"#utility.yul\":4048:4077   */\n      swap1\n      pop\n        /* \"#utility.yul\":3915:4083   */\n      swap3\n      swap2\n      pop\n      pop\n      jump\t// out\n        /* \"#utility.yul\":4089:4335   */\n    tag_196:\n        /* \"#utility.yul\":4170:4171   */\n      0x00\n        /* \"#utility.yul\":4180:4293   */\n    tag_289:\n        /* \"#utility.yul\":4194:4200   */\n      dup4\n        /* \"#utility.yul\":4191:4192   */\n      dup2\n        /* \"#utility.yul\":4188:4201   */\n      lt\n        /* \"#utility.yul\":4180:4293   */\n      iszero\n      tag_291\n      jumpi\n        /* \"#utility.yul\":4279:4280   */\n      dup1\n        /* \"#utility.yul\":4274:4277   */\n      dup3\n        /* \"#utility.yul\":4270:4281   */\n      add\n        /* \"#utility.yul\":4264:4282   */\n      mload\n        /* \"#utility.yul\":4260:4261   */\n      dup2\n        /* \"#utility.yul\":4255:4258   */\n      dup5\n        /* \"#utility.yul\":4251:4262   */\n      add\n        /* \"#utility.yul\":4244:4283   */\n      mstore\n        /* \"#utility.yul\":4216:4218   */\n      0x20\n        /* \"#utility.yul\":4213:4214   */\n      dup2\n        /* \"#utility.yul\":4209:4219   */\n      add\n        /* \"#utility.yul\":4204:4219   */\n      swap1\n      pop\n        /* \"#utility.yul\":4180:4293   */\n      jump(tag_289)\n    tag_291:\n        /* \"#utility.yul\":4327:4328   */\n      0x00\n        /* \"#utility.yul\":4318:4324   */\n      dup5\n        /* \"#utility.yul\":4313:4316   */\n      dup5\n        /* \"#utility.yul\":4309:4325   */\n      add\n        /* \"#utility.yul\":4302:4329   */\n      mstore\n        /* \"#utility.yul\":4151:4335   */\n      pop\n        /* \"#utility.yul\":4089:4335   */\n      pop\n      pop\n      pop\n      jump\t// out\n        /* \"#utility.yul\":4341:4443   */\n    tag_197:\n        /* \"#utility.yul\":4382:4388   */\n      0x00\n        /* \"#utility.yul\":4433:4435   */\n      0x1f\n        /* \"#utility.yul\":4429:4436   */\n      not\n        /* \"#utility.yul\":4424:4426   */\n      0x1f\n        /* \"#utility.yul\":4417:4422   */\n      dup4\n        /* \"#utility.yul\":4413:4427   */\n      add\n        /* \"#utility.yul\":4409:4437   */\n      and\n        /* \"#utility.yul\":4399:4437   */\n      swap1\n      pop\n        /* \"#utility.yul\":4341:4443   */\n      swap2\n      swap1\n      pop\n      jump\t// out\n        /* \"#utility.yul\":4449:4822   */\n    tag_198:\n        /* \"#utility.yul\":4535:4538   */\n      0x00\n        /* \"#utility.yul\":4563:4601   */\n      tag_294\n        /* \"#utility.yul\":4595:4600   */\n      dup3\n        /* \"#utility.yul\":4563:4601   */\n      tag_194\n      jump\t// in\n    tag_294:\n        /* \"#utility.yul\":4617:4687   */\n      tag_295\n        /* \"#utility.yul\":4680:4686   */\n      dup2\n        /* \"#utility.yul\":4675:4678   */\n      dup6\n        /* \"#utility.yul\":4617:4687   */\n      tag_195\n      jump\t// in\n    tag_295:\n        /* \"#utility.yul\":4610:4687   */\n      swap4\n      pop\n        /* \"#utility.yul\":4696:4761   */\n      tag_296\n        /* \"#utility.yul\":4754:4760   */\n      dup2\n        /* \"#utility.yul\":4749:4752   */\n      dup6\n        /* \"#utility.yul\":4742:4746   */\n      0x20\n        /* \"#utility.yul\":4735:4740   */\n      dup7\n        /* \"#utility.yul\":4731:4747   */\n      add\n        /* \"#utility.yul\":4696:4761   */\n      tag_196\n      jump\t// in\n    tag_296:\n        /* \"#utility.yul\":4786:4815   */\n      tag_297\n        /* \"#utility.yul\":4808:4814   */\n      dup2\n        /* \"#utility.yul\":4786:4815   */\n      tag_197\n      jump\t// in\n    tag_297:\n        /* \"#utility.yul\":4781:4784   */\n      dup5\n        /* \"#utility.yul\":4777:4816   */\n      add\n        /* \"#utility.yul\":4770:4816   */\n      swap2\n      pop\n        /* \"#utility.yul\":4539:4822   */\n      pop\n        /* \"#utility.yul\":4449:4822   */\n      swap3\n      swap2\n      pop\n      pop\n      jump\t// out\n        /* \"#utility.yul\":4828:5357   */\n    tag_50:\n        /* \"#utility.yul\":4995:4999   */\n      0x00\n        /* \"#utility.yul\":5033:5035   */\n      0x60\n        /* \"#utility.yul\":5022:5031   */\n      dup3\n        /* \"#utility.yul\":5018:5036   */\n      add\n        /* \"#utility.yul\":5010:5036   */\n      swap1\n      pop\n        /* \"#utility.yul\":5046:5117   */\n      tag_299\n        /* \"#utility.yul\":5114:5115   */\n      0x00\n        /* \"#utility.yul\":5103:5112   */\n      dup4\n        /* \"#utility.yul\":5099:5116   */\n      add\n        /* \"#utility.yul\":5090:5096   */\n      dup7\n        /* \"#utility.yul\":5046:5117   */\n      tag_193\n      jump\t// in\n    tag_299:\n        /* \"#utility.yul\":5127:5199   */\n      tag_300\n        /* \"#utility.yul\":5195:5197   */\n      0x20\n        /* \"#utility.yul\":5184:5193   */\n      dup4\n        /* \"#utility.yul\":5180:5198   */\n      add\n        /* \"#utility.yul\":5171:5177   */\n      dup6\n        /* \"#utility.yul\":5127:5199   */\n      tag_181\n      jump\t// in\n    tag_300:\n        /* \"#utility.yul\":5246:5255   */\n      dup2\n        /* \"#utility.yul\":5240:5244   */\n      dup2\n        /* \"#utility.yul\":5236:5256   */\n      sub\n        /* \"#utility.yul\":5231:5233   */\n      0x40\n        /* \"#utility.yul\":5220:5229   */\n      dup4\n        /* \"#utility.yul\":5216:5234   */\n      add\n        /* \"#utility.yul\":5209:5257   */\n      mstore\n        /* \"#utility.yul\":5274:5350   */\n      tag_301\n        /* \"#utility.yul\":5345:5349   */\n      dup2\n        /* \"#utility.yul\":5336:5342   */\n      dup5\n        /* \"#utility.yul\":5274:5350   */\n      tag_198\n      jump\t// in\n    tag_301:\n        /* \"#utility.yul\":5266:5350   */\n      swap1\n      pop\n        /* \"#utility.yul\":4828:5357   */\n      swap5\n      swap4\n      pop\n      pop\n      pop\n      pop\n      jump\t// out\n        /* \"#utility.yul\":5363:5585   */\n    tag_59:\n        /* \"#utility.yul\":5456:5460   */\n      0x00\n        /* \"#utility.yul\":5494:5496   */\n      0x20\n        /* \"#utility.yul\":5483:5492   */\n      dup3\n        /* \"#utility.yul\":5479:5497   */\n      add\n        /* \"#utility.yul\":5471:5497   */\n      swap1\n      pop\n        /* \"#utility.yul\":5507:5578   */\n      tag_303\n        /* \"#utility.yul\":5575:5576   */\n      0x00\n        /* \"#utility.yul\":5564:5573   */\n      dup4\n        /* \"#utility.yul\":5560:5577   */\n      add\n        /* \"#utility.yul\":5551:5557   */\n      dup5\n        /* \"#utility.yul\":5507:5578   */\n      tag_193\n      jump\t// in\n    tag_303:\n        /* \"#utility.yul\":5363:5585   */\n      swap3\n      swap2\n      pop\n      pop\n      jump\t// out\n        /* \"#utility.yul\":5591:5708   */\n    tag_199:\n        /* \"#utility.yul\":5700:5701   */\n      0x00\n        /* \"#utility.yul\":5697:5698   */\n      dup1\n        /* \"#utility.yul\":5690:5702   */\n      revert\n        /* \"#utility.yul\":5714:5831   */\n    tag_200:\n        /* \"#utility.yul\":5823:5824   */\n      0x00\n        /* \"#utility.yul\":5820:5821   */\n      dup1\n        /* \"#utility.yul\":5813:5825   */\n      revert\n        /* \"#utility.yul\":5837:6017   */\n    tag_201:\n        /* \"#utility.yul\":5885:5962   */\n      0x4e487b7100000000000000000000000000000000000000000000000000000000\n        /* \"#utility.yul\":5882:5883   */\n      0x00\n        /* \"#utility.yul\":5875:5963   */\n      mstore\n        /* \"#utility.yul\":5982:5986   */\n      0x41\n        /* \"#utility.yul\":5979:5980   */\n      0x04\n        /* \"#utility.yul\":5972:5987   */\n      mstore\n        /* \"#utility.yul\":6006:6010   */\n      0x24\n        /* \"#utility.yul\":6003:6004   */\n      0x00\n        /* \"#utility.yul\":5996:6011   */\n      revert\n        /* \"#utility.yul\":6023:6304   */\n    tag_202:\n        /* \"#utility.yul\":6106:6133   */\n      tag_308\n        /* \"#utility.yul\":6128:6132   */\n      dup3\n        /* \"#utility.yul\":6106:6133   */\n      tag_197\n      jump\t// in\n    tag_308:\n        /* \"#utility.yul\":6098:6104   */\n      dup2\n        /* \"#utility.yul\":6094:6134   */\n      add\n        /* \"#utility.yul\":6236:6242   */\n      dup2\n        /* \"#utility.yul\":6224:6234   */\n      dup2\n        /* \"#utility.yul\":6221:6243   */\n      lt\n        /* \"#utility.yul\":6200:6218   */\n      0xffffffffffffffff\n        /* \"#utility.yul\":6188:6198   */\n      dup3\n        /* \"#utility.yul\":6185:6219   */\n      gt\n        /* \"#utility.yul\":6182:6244   */\n      or\n        /* \"#utility.yul\":6179:6267   */\n      iszero\n      tag_309\n      jumpi\n        /* \"#utility.yul\":6247:6265   */\n      tag_310\n      tag_201\n      jump\t// in\n    tag_310:\n        /* \"#utility.yul\":6179:6267   */\n    tag_309:\n        /* \"#utility.yul\":6287:6297   */\n      dup1\n        /* \"#utility.yul\":6283:6285   */\n      0x40\n        /* \"#utility.yul\":6276:6298   */\n      mstore\n        /* \"#utility.yul\":6066:6304   */\n      pop\n        /* \"#utility.yul\":6023:6304   */\n      pop\n      pop\n      jump\t// out\n        /* \"#utility.yul\":6310:6439   */\n    tag_203:\n        /* \"#utility.yul\":6344:6350   */\n      0x00\n        /* \"#utility.yul\":6371:6391   */\n      tag_312\n      tag_182\n      jump\t// in\n    tag_312:\n        /* \"#utility.yul\":6361:6391   */\n      swap1\n      pop\n        /* \"#utility.yul\":6400:6433   */\n      tag_313\n        /* \"#utility.yul\":6428:6432   */\n      dup3\n        /* \"#utility.yul\":6420:6426   */\n      dup3\n        /* \"#utility.yul\":6400:6433   */\n      tag_202\n      jump\t// in\n    tag_313:\n        /* \"#utility.yul\":6310:6439   */\n      swap2\n      swap1\n      pop\n      jump\t// out\n        /* \"#utility.yul\":6445:6752   */\n    tag_204:\n        /* \"#utility.yul\":6506:6510   */\n      0x00\n        /* \"#utility.yul\":6596:6614   */\n      0xffffffffffffffff\n        /* \"#utility.yul\":6588:6594   */\n      dup3\n        /* \"#utility.yul\":6585:6615   */\n      gt\n        /* \"#utility.yul\":6582:6638   */\n      iszero\n      tag_315\n      jumpi\n        /* \"#utility.yul\":6618:6636   */\n      tag_316\n      tag_201\n      jump\t// in\n    tag_316:\n        /* \"#utility.yul\":6582:6638   */\n    tag_315:\n        /* \"#utility.yul\":6656:6685   */\n      tag_317\n        /* \"#utility.yul\":6678:6684   */\n      dup3\n        /* \"#utility.yul\":6656:6685   */\n      tag_197\n      jump\t// in\n    tag_317:\n        /* \"#utility.yul\":6648:6685   */\n      swap1\n      pop\n        /* \"#utility.yul\":6740:6744   */\n      0x20\n        /* \"#utility.yul\":6734:6738   */\n      dup2\n        /* \"#utility.yul\":6730:6745   */\n      add\n        /* \"#utility.yul\":6722:6745   */\n      swap1\n      pop\n        /* \"#utility.yul\":6445:6752   */\n      swap2\n      swap1\n      pop\n      jump\t// out\n        /* \"#utility.yul\":6758:6904   */\n    tag_205:\n        /* \"#utility.yul\":6855:6861   */\n      dup3\n        /* \"#utility.yul\":6850:6853   */\n      dup2\n        /* \"#utility.yul\":6845:6848   */\n      dup4\n        /* \"#utility.yul\":6832:6862   */\n      calldatacopy\n        /* \"#utility.yul\":6896:6897   */\n      0x00\n        /* \"#utility.yul\":6887:6893   */\n      dup4\n        /* \"#utility.yul\":6882:6885   */\n      dup4\n        /* \"#utility.yul\":6878:6894   */\n      add\n        /* \"#utility.yul\":6871:6898   */\n      mstore\n        /* \"#utility.yul\":6758:6904   */\n      pop\n      pop\n      pop\n      jump\t// out\n        /* \"#utility.yul\":6910:7333   */\n    tag_206:\n        /* \"#utility.yul\":6987:6992   */\n      0x00\n        /* \"#utility.yul\":7012:7077   */\n      tag_320\n        /* \"#utility.yul\":7028:7076   */\n      tag_321\n        /* \"#utility.yul\":7069:7075   */\n      dup5\n        /* \"#utility.yul\":7028:7076   */\n      tag_204\n      jump\t// in\n    tag_321:\n        /* \"#utility.yul\":7012:7077   */\n      tag_203\n      jump\t// in\n    tag_320:\n        /* \"#utility.yul\":7003:7077   */\n      swap1\n      pop\n        /* \"#utility.yul\":7100:7106   */\n      dup3\n        /* \"#utility.yul\":7093:7098   */\n      dup2\n        /* \"#utility.yul\":7086:7107   */\n      mstore\n        /* \"#utility.yul\":7138:7142   */\n      0x20\n        /* \"#utility.yul\":7131:7136   */\n      dup2\n        /* \"#utility.yul\":7127:7143   */\n      add\n        /* \"#utility.yul\":7176:7179   */\n      dup5\n        /* \"#utility.yul\":7167:7173   */\n      dup5\n        /* \"#utility.yul\":7162:7165   */\n      dup5\n        /* \"#utility.yul\":7158:7174   */\n      add\n        /* \"#utility.yul\":7155:7180   */\n      gt\n        /* \"#utility.yul\":7152:7264   */\n      iszero\n      tag_322\n      jumpi\n        /* \"#utility.yul\":7183:7262   */\n      tag_323\n      tag_200\n      jump\t// in\n    tag_323:\n        /* \"#utility.yul\":7152:7264   */\n    tag_322:\n        /* \"#utility.yul\":7273:7327   */\n      tag_324\n        /* \"#utility.yul\":7320:7326   */\n      dup5\n        /* \"#utility.yul\":7315:7318   */\n      dup3\n        /* \"#utility.yul\":7310:7313   */\n      dup6\n        /* \"#utility.yul\":7273:7327   */\n      tag_205\n      jump\t// in\n    tag_324:\n        /* \"#utility.yul\":6993:7333   */\n      pop\n        /* \"#utility.yul\":6910:7333   */\n      swap4\n      swap3\n      pop\n      pop\n      pop\n      jump\t// out\n        /* \"#utility.yul\":7352:7690   */\n    tag_207:\n        /* \"#utility.yul\":7407:7412   */\n      0x00\n        /* \"#utility.yul\":7456:7459   */\n      dup3\n        /* \"#utility.yul\":7449:7453   */\n      0x1f\n        /* \"#utility.yul\":7441:7447   */\n      dup4\n        /* \"#utility.yul\":7437:7454   */\n      add\n        /* \"#utility.yul\":7433:7460   */\n      slt\n        /* \"#utility.yul\":7423:7545   */\n      tag_326\n      jumpi\n        /* \"#utility.yul\":7464:7543   */\n      tag_327\n      tag_199\n      jump\t// in\n    tag_327:\n        /* \"#utility.yul\":7423:7545   */\n    tag_326:\n        /* \"#utility.yul\":7581:7587   */\n      dup2\n        /* \"#utility.yul\":7568:7588   */\n      calldataload\n        /* \"#utility.yul\":7606:7684   */\n      tag_328\n        /* \"#utility.yul\":7680:7683   */\n      dup5\n        /* \"#utility.yul\":7672:7678   */\n      dup3\n        /* \"#utility.yul\":7665:7669   */\n      0x20\n        /* \"#utility.yul\":7657:7663   */\n      dup7\n        /* \"#utility.yul\":7653:7670   */\n      add\n        /* \"#utility.yul\":7606:7684   */\n      tag_206\n      jump\t// in\n    tag_328:\n        /* \"#utility.yul\":7597:7684   */\n      swap2\n      pop\n        /* \"#utility.yul\":7413:7690   */\n      pop\n        /* \"#utility.yul\":7352:7690   */\n      swap3\n      swap2\n      pop\n      pop\n      jump\t// out\n        /* \"#utility.yul\":7696:8493   */\n    tag_63:\n        /* \"#utility.yul\":7782:7788   */\n      0x00\n        /* \"#utility.yul\":7790:7796   */\n      dup1\n        /* \"#utility.yul\":7798:7804   */\n      0x00\n        /* \"#utility.yul\":7847:7849   */\n      0x60\n        /* \"#utility.yul\":7835:7844   */\n      dup5\n        /* \"#utility.yul\":7826:7833   */\n      dup7\n        /* \"#utility.yul\":7822:7845   */\n      sub\n        /* \"#utility.yul\":7818:7850   */\n      slt\n        /* \"#utility.yul\":7815:7934   */\n      iszero\n      tag_330\n      jumpi\n        /* \"#utility.yul\":7853:7932   */\n      tag_331\n      tag_183\n      jump\t// in\n    tag_331:\n        /* \"#utility.yul\":7815:7934   */\n    tag_330:\n        /* \"#utility.yul\":7973:7974   */\n      0x00\n        /* \"#utility.yul\":7998:8051   */\n      tag_332\n        /* \"#utility.yul\":8043:8050   */\n      dup7\n        /* \"#utility.yul\":8034:8040   */\n      dup3\n        /* \"#utility.yul\":8023:8032   */\n      dup8\n        /* \"#utility.yul\":8019:8041   */\n      add\n        /* \"#utility.yul\":7998:8051   */\n      tag_190\n      jump\t// in\n    tag_332:\n        /* \"#utility.yul\":7988:8051   */\n      swap4\n      pop\n        /* \"#utility.yul\":7944:8061   */\n      pop\n        /* \"#utility.yul\":8100:8102   */\n      0x20\n        /* \"#utility.yul\":8126:8179   */\n      tag_333\n        /* \"#utility.yul\":8171:8178   */\n      dup7\n        /* \"#utility.yul\":8162:8168   */\n      dup3\n        /* \"#utility.yul\":8151:8160   */\n      dup8\n        /* \"#utility.yul\":8147:8169   */\n      add\n        /* \"#utility.yul\":8126:8179   */\n      tag_186\n      jump\t// in\n    tag_333:\n        /* \"#utility.yul\":8116:8179   */\n      swap3\n      pop\n        /* \"#utility.yul\":8071:8189   */\n      pop\n        /* \"#utility.yul\":8256:8258   */\n      0x40\n        /* \"#utility.yul\":8245:8254   */\n      dup5\n        /* \"#utility.yul\":8241:8259   */\n      add\n        /* \"#utility.yul\":8228:8260   */\n      calldataload\n        /* \"#utility.yul\":8287:8305   */\n      0xffffffffffffffff\n        /* \"#utility.yul\":8279:8285   */\n      dup2\n        /* \"#utility.yul\":8276:8306   */\n      gt\n        /* \"#utility.yul\":8273:8390   */\n      iszero\n      tag_334\n      jumpi\n        /* \"#utility.yul\":8309:8388   */\n      tag_335\n      tag_184\n      jump\t// in\n    tag_335:\n        /* \"#utility.yul\":8273:8390   */\n    tag_334:\n        /* \"#utility.yul\":8414:8476   */\n      tag_336\n        /* \"#utility.yul\":8468:8475   */\n      dup7\n        /* \"#utility.yul\":8459:8465   */\n      dup3\n        /* \"#utility.yul\":8448:8457   */\n      dup8\n        /* \"#utility.yul\":8444:8466   */\n      add\n        /* \"#utility.yul\":8414:8476   */\n      tag_207\n      jump\t// in\n    tag_336:\n        /* \"#utility.yul\":8404:8476   */\n      swap2\n      pop\n        /* \"#utility.yul\":8199:8486   */\n      pop\n        /* \"#utility.yul\":7696:8493   */\n      swap3\n      pop\n      swap3\n      pop\n      swap3\n      jump\t// out\n        /* \"#utility.yul\":8499:8828   */\n    tag_68:\n        /* \"#utility.yul\":8558:8564   */\n      0x00\n        /* \"#utility.yul\":8607:8609   */\n      0x20\n        /* \"#utility.yul\":8595:8604   */\n      dup3\n        /* \"#utility.yul\":8586:8593   */\n      dup5\n        /* \"#utility.yul\":8582:8605   */\n      sub\n        /* \"#utility.yul\":8578:8610   */\n      slt\n        /* \"#utility.yul\":8575:8694   */\n      iszero\n      tag_338\n      jumpi\n        /* \"#utility.yul\":8613:8692   */\n      tag_339\n      tag_183\n      jump\t// in\n    tag_339:\n        /* \"#utility.yul\":8575:8694   */\n    tag_338:\n        /* \"#utility.yul\":8733:8734   */\n      0x00\n        /* \"#utility.yul\":8758:8811   */\n      tag_340\n        /* \"#utility.yul\":8803:8810   */\n      dup5\n        /* \"#utility.yul\":8794:8800   */\n      dup3\n        /* \"#utility.yul\":8783:8792   */\n      dup6\n        /* \"#utility.yul\":8779:8801   */\n      add\n        /* \"#utility.yul\":8758:8811   */\n      tag_190\n      jump\t// in\n    tag_340:\n        /* \"#utility.yul\":8748:8811   */\n      swap2\n      pop\n        /* \"#utility.yul\":8704:8821   */\n      pop\n        /* \"#utility.yul\":8499:8828   */\n      swap3\n      swap2\n      pop\n      pop\n      jump\t// out\n        /* \"#utility.yul\":8834:8971   */\n    tag_208:\n        /* \"#utility.yul\":8924:8930   */\n      0x00\n        /* \"#utility.yul\":8958:8963   */\n      dup2\n        /* \"#utility.yul\":8952:8964   */\n      mload\n        /* \"#utility.yul\":8942:8964   */\n      swap1\n      pop\n        /* \"#utility.yul\":8834:8971   */\n      swap2\n      swap1\n      pop\n      jump\t// out\n        /* \"#utility.yul\":8977:9184   */\n    tag_209:\n        /* \"#utility.yul\":9099:9110   */\n      0x00\n        /* \"#utility.yul\":9133:9139   */\n      dup3\n        /* \"#utility.yul\":9128:9131   */\n      dup3\n        /* \"#utility.yul\":9121:9140   */\n      mstore\n        /* \"#utility.yul\":9173:9177   */\n      0x20\n        /* \"#utility.yul\":9168:9171   */\n      dup3\n        /* \"#utility.yul\":9164:9178   */\n      add\n        /* \"#utility.yul\":9149:9178   */\n      swap1\n      pop\n        /* \"#utility.yul\":8977:9184   */\n      swap3\n      swap2\n      pop\n      pop\n      jump\t// out\n        /* \"#utility.yul\":9190:9345   */\n    tag_210:\n        /* \"#utility.yul\":9280:9284   */\n      0x00\n        /* \"#utility.yul\":9303:9306   */\n      dup2\n        /* \"#utility.yul\":9295:9306   */\n      swap1\n      pop\n        /* \"#utility.yul\":9333:9337   */\n      0x20\n        /* \"#utility.yul\":9328:9331   */\n      dup3\n        /* \"#utility.yul\":9324:9338   */\n      add\n        /* \"#utility.yul\":9316:9338   */\n      swap1\n      pop\n        /* \"#utility.yul\":9190:9345   */\n      swap2\n      swap1\n      pop\n      jump\t// out\n        /* \"#utility.yul\":9351:9459   */\n    tag_211:\n        /* \"#utility.yul\":9428:9452   */\n      tag_345\n        /* \"#utility.yul\":9446:9451   */\n      dup2\n        /* \"#utility.yul\":9428:9452   */\n      tag_180\n      jump\t// in\n    tag_345:\n        /* \"#utility.yul\":9423:9426   */\n      dup3\n        /* \"#utility.yul\":9416:9453   */\n      mstore\n        /* \"#utility.yul\":9351:9459   */\n      pop\n      pop\n      jump\t// out\n        /* \"#utility.yul\":9465:9564   */\n    tag_212:\n        /* \"#utility.yul\":9536:9557   */\n      tag_347\n        /* \"#utility.yul\":9551:9556   */\n      dup2\n        /* \"#utility.yul\":9536:9557   */\n      tag_191\n      jump\t// in\n    tag_347:\n        /* \"#utility.yul\":9531:9534   */\n      dup3\n        /* \"#utility.yul\":9524:9558   */\n      mstore\n        /* \"#utility.yul\":9465:9564   */\n      pop\n      pop\n      jump\t// out\n        /* \"#utility.yul\":9626:10293   */\n    tag_213:\n        /* \"#utility.yul\":9759:9763   */\n      0x60\n        /* \"#utility.yul\":9754:9757   */\n      dup3\n        /* \"#utility.yul\":9750:9764   */\n      add\n        /* \"#utility.yul\":9846:9850   */\n      0x00\n        /* \"#utility.yul\":9839:9844   */\n      dup3\n        /* \"#utility.yul\":9835:9851   */\n      add\n        /* \"#utility.yul\":9829:9852   */\n      mload\n        /* \"#utility.yul\":9865:9928   */\n      tag_349\n        /* \"#utility.yul\":9922:9926   */\n      0x00\n        /* \"#utility.yul\":9917:9920   */\n      dup6\n        /* \"#utility.yul\":9913:9927   */\n      add\n        /* \"#utility.yul\":9899:9911   */\n      dup3\n        /* \"#utility.yul\":9865:9928   */\n      tag_211\n      jump\t// in\n    tag_349:\n        /* \"#utility.yul\":9774:9938   */\n      pop\n        /* \"#utility.yul\":10020:10024   */\n      0x20\n        /* \"#utility.yul\":10013:10018   */\n      dup3\n        /* \"#utility.yul\":10009:10025   */\n      add\n        /* \"#utility.yul\":10003:10026   */\n      mload\n        /* \"#utility.yul\":10039:10102   */\n      tag_350\n        /* \"#utility.yul\":10096:10100   */\n      0x20\n        /* \"#utility.yul\":10091:10094   */\n      dup6\n        /* \"#utility.yul\":10087:10101   */\n      add\n        /* \"#utility.yul\":10073:10085   */\n      dup3\n        /* \"#utility.yul\":10039:10102   */\n      tag_211\n      jump\t// in\n    tag_350:\n        /* \"#utility.yul\":9948:10112   */\n      pop\n        /* \"#utility.yul\":10200:10204   */\n      0x40\n        /* \"#utility.yul\":10193:10198   */\n      dup3\n        /* \"#utility.yul\":10189:10205   */\n      add\n        /* \"#utility.yul\":10183:10206   */\n      mload\n        /* \"#utility.yul\":10219:10276   */\n      tag_351\n        /* \"#utility.yul\":10270:10274   */\n      0x40\n        /* \"#utility.yul\":10265:10268   */\n      dup6\n        /* \"#utility.yul\":10261:10275   */\n      add\n        /* \"#utility.yul\":10247:10259   */\n      dup3\n        /* \"#utility.yul\":10219:10276   */\n      tag_212\n      jump\t// in\n    tag_351:\n        /* \"#utility.yul\":10122:10286   */\n      pop\n        /* \"#utility.yul\":9728:10293   */\n      pop\n        /* \"#utility.yul\":9626:10293   */\n      pop\n      pop\n      jump\t// out\n        /* \"#utility.yul\":10299:10570   */\n    tag_214:\n        /* \"#utility.yul\":10414:10424   */\n      0x00\n        /* \"#utility.yul\":10435:10527   */\n      tag_353\n        /* \"#utility.yul\":10523:10526   */\n      dup4\n        /* \"#utility.yul\":10515:10521   */\n      dup4\n        /* \"#utility.yul\":10435:10527   */\n      tag_213\n      jump\t// in\n    tag_353:\n        /* \"#utility.yul\":10559:10563   */\n      0x60\n        /* \"#utility.yul\":10554:10557   */\n      dup4\n        /* \"#utility.yul\":10550:10564   */\n      add\n        /* \"#utility.yul\":10536:10564   */\n      swap1\n      pop\n        /* \"#utility.yul\":10299:10570   */\n      swap3\n      swap2\n      pop\n      pop\n      jump\t// out\n        /* \"#utility.yul\":10576:10712   */\n    tag_215:\n        /* \"#utility.yul\":10669:10673   */\n      0x00\n        /* \"#utility.yul\":10701:10705   */\n      0x20\n        /* \"#utility.yul\":10696:10699   */\n      dup3\n        /* \"#utility.yul\":10692:10706   */\n      add\n        /* \"#utility.yul\":10684:10706   */\n      swap1\n      pop\n        /* \"#utility.yul\":10576:10712   */\n      swap2\n      swap1\n      pop\n      jump\t// out\n        /* \"#utility.yul\":10778:11694   */\n    tag_216:\n        /* \"#utility.yul\":10943:10946   */\n      0x00\n        /* \"#utility.yul\":10972:11049   */\n      tag_356\n        /* \"#utility.yul\":11043:11048   */\n      dup3\n        /* \"#utility.yul\":10972:11049   */\n      tag_208\n      jump\t// in\n    tag_356:\n        /* \"#utility.yul\":11065:11174   */\n      tag_357\n        /* \"#utility.yul\":11167:11173   */\n      dup2\n        /* \"#utility.yul\":11162:11165   */\n      dup6\n        /* \"#utility.yul\":11065:11174   */\n      tag_209\n      jump\t// in\n    tag_357:\n        /* \"#utility.yul\":11058:11174   */\n      swap4\n      pop\n        /* \"#utility.yul\":11198:11277   */\n      tag_358\n        /* \"#utility.yul\":11271:11276   */\n      dup4\n        /* \"#utility.yul\":11198:11277   */\n      tag_210\n      jump\t// in\n    tag_358:\n        /* \"#utility.yul\":11300:11307   */\n      dup1\n        /* \"#utility.yul\":11331:11332   */\n      0x00\n        /* \"#utility.yul\":11316:11669   */\n    tag_359:\n        /* \"#utility.yul\":11341:11347   */\n      dup4\n        /* \"#utility.yul\":11338:11339   */\n      dup2\n        /* \"#utility.yul\":11335:11348   */\n      lt\n        /* \"#utility.yul\":11316:11669   */\n      iszero\n      tag_361\n      jumpi\n        /* \"#utility.yul\":11417:11423   */\n      dup2\n        /* \"#utility.yul\":11411:11424   */\n      mload\n        /* \"#utility.yul\":11444:11553   */\n      tag_362\n        /* \"#utility.yul\":11549:11552   */\n      dup9\n        /* \"#utility.yul\":11534:11547   */\n      dup3\n        /* \"#utility.yul\":11444:11553   */\n      tag_214\n      jump\t// in\n    tag_362:\n        /* \"#utility.yul\":11437:11553   */\n      swap8\n      pop\n        /* \"#utility.yul\":11576:11659   */\n      tag_363\n        /* \"#utility.yul\":11652:11658   */\n      dup4\n        /* \"#utility.yul\":11576:11659   */\n      tag_215\n      jump\t// in\n    tag_363:\n        /* \"#utility.yul\":11566:11659   */\n      swap3\n      pop\n        /* \"#utility.yul\":11376:11669   */\n      pop\n        /* \"#utility.yul\":11363:11364   */\n      0x01\n        /* \"#utility.yul\":11360:11361   */\n      dup2\n        /* \"#utility.yul\":11356:11365   */\n      add\n        /* \"#utility.yul\":11351:11365   */\n      swap1\n      pop\n        /* \"#utility.yul\":11316:11669   */\n      jump(tag_359)\n    tag_361:\n        /* \"#utility.yul\":11320:11334   */\n      pop\n        /* \"#utility.yul\":11685:11688   */\n      dup6\n        /* \"#utility.yul\":11678:11688   */\n      swap4\n      pop\n        /* \"#utility.yul\":10948:11694   */\n      pop\n      pop\n      pop\n        /* \"#utility.yul\":10778:11694   */\n      swap3\n      swap2\n      pop\n      pop\n      jump\t// out\n        /* \"#utility.yul\":11700:12165   */\n    tag_81:\n        /* \"#utility.yul\":11889:11893   */\n      0x00\n        /* \"#utility.yul\":11927:11929   */\n      0x20\n        /* \"#utility.yul\":11916:11925   */\n      dup3\n        /* \"#utility.yul\":11912:11930   */\n      add\n        /* \"#utility.yul\":11904:11930   */\n      swap1\n      pop\n        /* \"#utility.yul\":11976:11985   */\n      dup2\n        /* \"#utility.yul\":11970:11974   */\n      dup2\n        /* \"#utility.yul\":11966:11986   */\n      sub\n        /* \"#utility.yul\":11962:11963   */\n      0x00\n        /* \"#utility.yul\":11951:11960   */\n      dup4\n        /* \"#utility.yul\":11947:11964   */\n      add\n        /* \"#utility.yul\":11940:11987   */\n      mstore\n        /* \"#utility.yul\":12004:12158   */\n      tag_365\n        /* \"#utility.yul\":12153:12157   */\n      dup2\n        /* \"#utility.yul\":12144:12150   */\n      dup5\n        /* \"#utility.yul\":12004:12158   */\n      tag_216\n      jump\t// in\n    tag_365:\n        /* \"#utility.yul\":11996:12158   */\n      swap1\n      pop\n        /* \"#utility.yul\":11700:12165   */\n      swap3\n      swap2\n      pop\n      pop\n      jump\t// out\n        /* \"#utility.yul\":12171:12790   */\n    tag_85:\n        /* \"#utility.yul\":12248:12254   */\n      0x00\n        /* \"#utility.yul\":12256:12262   */\n      dup1\n        /* \"#utility.yul\":12264:12270   */\n      0x00\n        /* \"#utility.yul\":12313:12315   */\n      0x60\n        /* \"#utility.yul\":12301:12310   */\n      dup5\n        /* \"#utility.yul\":12292:12299   */\n      dup7\n        /* \"#utility.yul\":12288:12311   */\n      sub\n        /* \"#utility.yul\":12284:12316   */\n      slt\n        /* \"#utility.yul\":12281:12400   */\n      iszero\n      tag_367\n      jumpi\n        /* \"#utility.yul\":12319:12398   */\n      tag_368\n      tag_183\n      jump\t// in\n    tag_368:\n        /* \"#utility.yul\":12281:12400   */\n    tag_367:\n        /* \"#utility.yul\":12439:12440   */\n      0x00\n        /* \"#utility.yul\":12464:12517   */\n      tag_369\n        /* \"#utility.yul\":12509:12516   */\n      dup7\n        /* \"#utility.yul\":12500:12506   */\n      dup3\n        /* \"#utility.yul\":12489:12498   */\n      dup8\n        /* \"#utility.yul\":12485:12507   */\n      add\n        /* \"#utility.yul\":12464:12517   */\n      tag_190\n      jump\t// in\n    tag_369:\n        /* \"#utility.yul\":12454:12517   */\n      swap4\n      pop\n        /* \"#utility.yul\":12410:12527   */\n      pop\n        /* \"#utility.yul\":12566:12568   */\n      0x20\n        /* \"#utility.yul\":12592:12645   */\n      tag_370\n        /* \"#utility.yul\":12637:12644   */\n      dup7\n        /* \"#utility.yul\":12628:12634   */\n      dup3\n        /* \"#utility.yul\":12617:12626   */\n      dup8\n        /* \"#utility.yul\":12613:12635   */\n      add\n        /* \"#utility.yul\":12592:12645   */\n      tag_190\n      jump\t// in\n    tag_370:\n        /* \"#utility.yul\":12582:12645   */\n      swap3\n      pop\n        /* \"#utility.yul\":12537:12655   */\n      pop\n        /* \"#utility.yul\":12694:12696   */\n      0x40\n        /* \"#utility.yul\":12720:12773   */\n      tag_371\n        /* \"#utility.yul\":12765:12772   */\n      dup7\n        /* \"#utility.yul\":12756:12762   */\n      dup3\n        /* \"#utility.yul\":12745:12754   */\n      dup8\n        /* \"#utility.yul\":12741:12763   */\n      add\n        /* \"#utility.yul\":12720:12773   */\n      tag_186\n      jump\t// in\n    tag_371:\n        /* \"#utility.yul\":12710:12773   */\n      swap2\n      pop\n        /* \"#utility.yul\":12665:12783   */\n      pop\n        /* \"#utility.yul\":12171:12790   */\n      swap3\n      pop\n      swap3\n      pop\n      swap3\n      jump\t// out\n        /* \"#utility.yul\":12796:12895   */\n    tag_217:\n        /* \"#utility.yul\":12848:12854   */\n      0x00\n        /* \"#utility.yul\":12882:12887   */\n      dup2\n        /* \"#utility.yul\":12876:12888   */\n      mload\n        /* \"#utility.yul\":12866:12888   */\n      swap1\n      pop\n        /* \"#utility.yul\":12796:12895   */\n      swap2\n      swap1\n      pop\n      jump\t// out\n        /* \"#utility.yul\":12901:13070   */\n    tag_218:\n        /* \"#utility.yul\":12985:12996   */\n      0x00\n        /* \"#utility.yul\":13019:13025   */\n      dup3\n        /* \"#utility.yul\":13014:13017   */\n      dup3\n        /* \"#utility.yul\":13007:13026   */\n      mstore\n        /* \"#utility.yul\":13059:13063   */\n      0x20\n        /* \"#utility.yul\":13054:13057   */\n      dup3\n        /* \"#utility.yul\":13050:13064   */\n      add\n        /* \"#utility.yul\":13035:13064   */\n      swap1\n      pop\n        /* \"#utility.yul\":12901:13070   */\n      swap3\n      swap2\n      pop\n      pop\n      jump\t// out\n        /* \"#utility.yul\":13076:13453   */\n    tag_219:\n        /* \"#utility.yul\":13164:13167   */\n      0x00\n        /* \"#utility.yul\":13192:13231   */\n      tag_375\n        /* \"#utility.yul\":13225:13230   */\n      dup3\n        /* \"#utility.yul\":13192:13231   */\n      tag_217\n      jump\t// in\n    tag_375:\n        /* \"#utility.yul\":13247:13318   */\n      tag_376\n        /* \"#utility.yul\":13311:13317   */\n      dup2\n        /* \"#utility.yul\":13306:13309   */\n      dup6\n        /* \"#utility.yul\":13247:13318   */\n      tag_218\n      jump\t// in\n    tag_376:\n        /* \"#utility.yul\":13240:13318   */\n      swap4\n      pop\n        /* \"#utility.yul\":13327:13392   */\n      tag_377\n        /* \"#utility.yul\":13385:13391   */\n      dup2\n        /* \"#utility.yul\":13380:13383   */\n      dup6\n        /* \"#utility.yul\":13373:13377   */\n      0x20\n        /* \"#utility.yul\":13366:13371   */\n      dup7\n        /* \"#utility.yul\":13362:13378   */\n      add\n        /* \"#utility.yul\":13327:13392   */\n      tag_196\n      jump\t// in\n    tag_377:\n        /* \"#utility.yul\":13417:13446   */\n      tag_378\n        /* \"#utility.yul\":13439:13445   */\n      dup2\n        /* \"#utility.yul\":13417:13446   */\n      tag_197\n      jump\t// in\n    tag_378:\n        /* \"#utility.yul\":13412:13415   */\n      dup5\n        /* \"#utility.yul\":13408:13447   */\n      add\n        /* \"#utility.yul\":13401:13447   */\n      swap2\n      pop\n        /* \"#utility.yul\":13168:13453   */\n      pop\n        /* \"#utility.yul\":13076:13453   */\n      swap3\n      swap2\n      pop\n      pop\n      jump\t// out\n        /* \"#utility.yul\":13459:13772   */\n    tag_91:\n        /* \"#utility.yul\":13572:13576   */\n      0x00\n        /* \"#utility.yul\":13610:13612   */\n      0x20\n        /* \"#utility.yul\":13599:13608   */\n      dup3\n        /* \"#utility.yul\":13595:13613   */\n      add\n        /* \"#utility.yul\":13587:13613   */\n      swap1\n      pop\n        /* \"#utility.yul\":13659:13668   */\n      dup2\n        /* \"#utility.yul\":13653:13657   */\n      dup2\n        /* \"#utility.yul\":13649:13669   */\n      sub\n        /* \"#utility.yul\":13645:13646   */\n      0x00\n        /* \"#utility.yul\":13634:13643   */\n      dup4\n        /* \"#utility.yul\":13630:13647   */\n      add\n        /* \"#utility.yul\":13623:13670   */\n      mstore\n        /* \"#utility.yul\":13687:13765   */\n      tag_380\n        /* \"#utility.yul\":13760:13764   */\n      dup2\n        /* \"#utility.yul\":13751:13757   */\n      dup5\n        /* \"#utility.yul\":13687:13765   */\n      tag_219\n      jump\t// in\n    tag_380:\n        /* \"#utility.yul\":13679:13765   */\n      swap1\n      pop\n        /* \"#utility.yul\":13459:13772   */\n      swap3\n      swap2\n      pop\n      pop\n      jump\t// out\n        /* \"#utility.yul\":13778:13958   */\n    tag_103:\n        /* \"#utility.yul\":13826:13903   */\n      0x4e487b7100000000000000000000000000000000000000000000000000000000\n        /* \"#utility.yul\":13823:13824   */\n      0x00\n        /* \"#utility.yul\":13816:13904   */\n      mstore\n        /* \"#utility.yul\":13923:13927   */\n      0x32\n        /* \"#utility.yul\":13920:13921   */\n      0x04\n        /* \"#utility.yul\":13913:13928   */\n      mstore\n        /* \"#utility.yul\":13947:13951   */\n      0x24\n        /* \"#utility.yul\":13944:13945   */\n      0x00\n        /* \"#utility.yul\":13937:13952   */\n      revert\n        /* \"#utility.yul\":13964:14144   */\n    tag_220:\n        /* \"#utility.yul\":14012:14089   */\n      0x4e487b7100000000000000000000000000000000000000000000000000000000\n        /* \"#utility.yul\":14009:14010   */\n      0x00\n        /* \"#utility.yul\":14002:14090   */\n      mstore\n        /* \"#utility.yul\":14109:14113   */\n      0x22\n        /* \"#utility.yul\":14106:14107   */\n      0x04\n        /* \"#utility.yul\":14099:14114   */\n      mstore\n        /* \"#utility.yul\":14133:14137   */\n      0x24\n        /* \"#utility.yul\":14130:14131   */\n      0x00\n        /* \"#utility.yul\":14123:14138   */\n      revert\n        /* \"#utility.yul\":14150:14470   */\n    tag_106:\n        /* \"#utility.yul\":14194:14200   */\n      0x00\n        /* \"#utility.yul\":14231:14232   */\n      0x02\n        /* \"#utility.yul\":14225:14229   */\n      dup3\n        /* \"#utility.yul\":14221:14233   */\n      div\n        /* \"#utility.yul\":14211:14233   */\n      swap1\n      pop\n        /* \"#utility.yul\":14278:14279   */\n      0x01\n        /* \"#utility.yul\":14272:14276   */\n      dup3\n        /* \"#utility.yul\":14268:14280   */\n      and\n        /* \"#utility.yul\":14299:14317   */\n      dup1\n        /* \"#utility.yul\":14289:14370   */\n      tag_384\n      jumpi\n        /* \"#utility.yul\":14355:14359   */\n      0x7f\n        /* \"#utility.yul\":14347:14353   */\n      dup3\n        /* \"#utility.yul\":14343:14360   */\n      and\n        /* \"#utility.yul\":14333:14360   */\n      swap2\n      pop\n        /* \"#utility.yul\":14289:14370   */\n    tag_384:\n        /* \"#utility.yul\":14417:14419   */\n      0x20\n        /* \"#utility.yul\":14409:14415   */\n      dup3\n        /* \"#utility.yul\":14406:14420   */\n      lt\n        /* \"#utility.yul\":14386:14404   */\n      dup2\n        /* \"#utility.yul\":14383:14421   */\n      sub\n        /* \"#utility.yul\":14380:14464   */\n      tag_385\n      jumpi\n        /* \"#utility.yul\":14436:14454   */\n      tag_386\n      tag_220\n      jump\t// in\n    tag_386:\n        /* \"#utility.yul\":14380:14464   */\n    tag_385:\n        /* \"#utility.yul\":14201:14470   */\n      pop\n        /* \"#utility.yul\":14150:14470   */\n      swap2\n      swap1\n      pop\n      jump\t// out\n        /* \"#utility.yul\":14476:14649   */\n    tag_221:\n        /* \"#utility.yul\":14616:14641   */\n      0x596f7520617265206e6f7420746865206d616e61676572000000000000000000\n        /* \"#utility.yul\":14612:14613   */\n      0x00\n        /* \"#utility.yul\":14604:14610   */\n      dup3\n        /* \"#utility.yul\":14600:14614   */\n      add\n        /* \"#utility.yul\":14593:14642   */\n      mstore\n        /* \"#utility.yul\":14476:14649   */\n      pop\n      jump\t// out\n        /* \"#utility.yul\":14655:15021   */\n    tag_222:\n        /* \"#utility.yul\":14797:14800   */\n      0x00\n        /* \"#utility.yul\":14818:14885   */\n      tag_389\n        /* \"#utility.yul\":14882:14884   */\n      0x17\n        /* \"#utility.yul\":14877:14880   */\n      dup4\n        /* \"#utility.yul\":14818:14885   */\n      tag_218\n      jump\t// in\n    tag_389:\n        /* \"#utility.yul\":14811:14885   */\n      swap2\n      pop\n        /* \"#utility.yul\":14894:14987   */\n      tag_390\n        /* \"#utility.yul\":14983:14986   */\n      dup3\n        /* \"#utility.yul\":14894:14987   */\n      tag_221\n      jump\t// in\n    tag_390:\n        /* \"#utility.yul\":15012:15014   */\n      0x20\n        /* \"#utility.yul\":15007:15010   */\n      dup3\n        /* \"#utility.yul\":15003:15015   */\n      add\n        /* \"#utility.yul\":14996:15015   */\n      swap1\n      pop\n        /* \"#utility.yul\":14655:15021   */\n      swap2\n      swap1\n      pop\n      jump\t// out\n        /* \"#utility.yul\":15027:15446   */\n    tag_114:\n        /* \"#utility.yul\":15193:15197   */\n      0x00\n        /* \"#utility.yul\":15231:15233   */\n      0x20\n        /* \"#utility.yul\":15220:15229   */\n      dup3\n        /* \"#utility.yul\":15216:15234   */\n      add\n        /* \"#utility.yul\":15208:15234   */\n      swap1\n      pop\n        /* \"#utility.yul\":15280:15289   */\n      dup2\n        /* \"#utility.yul\":15274:15278   */\n      dup2\n        /* \"#utility.yul\":15270:15290   */\n      sub\n        /* \"#utility.yul\":15266:15267   */\n      0x00\n        /* \"#utility.yul\":15255:15264   */\n      dup4\n        /* \"#utility.yul\":15251:15268   */\n      add\n        /* \"#utility.yul\":15244:15291   */\n      mstore\n        /* \"#utility.yul\":15308:15439   */\n      tag_392\n        /* \"#utility.yul\":15434:15438   */\n      dup2\n        /* \"#utility.yul\":15308:15439   */\n      tag_222\n      jump\t// in\n    tag_392:\n        /* \"#utility.yul\":15300:15439   */\n      swap1\n      pop\n        /* \"#utility.yul\":15027:15446   */\n      swap2\n      swap1\n      pop\n      jump\t// out\n        /* \"#utility.yul\":15452:15632   */\n    tag_223:\n        /* \"#utility.yul\":15500:15577   */\n      0x4e487b7100000000000000000000000000000000000000000000000000000000\n        /* \"#utility.yul\":15497:15498   */\n      0x00\n        /* \"#utility.yul\":15490:15578   */\n      mstore\n        /* \"#utility.yul\":15597:15601   */\n      0x11\n        /* \"#utility.yul\":15594:15595   */\n      0x04\n        /* \"#utility.yul\":15587:15602   */\n      mstore\n        /* \"#utility.yul\":15621:15625   */\n      0x24\n        /* \"#utility.yul\":15618:15619   */\n      0x00\n        /* \"#utility.yul\":15611:15626   */\n      revert\n        /* \"#utility.yul\":15638:15832   */\n    tag_126:\n        /* \"#utility.yul\":15678:15682   */\n      0x00\n        /* \"#utility.yul\":15698:15718   */\n      tag_395\n        /* \"#utility.yul\":15716:15717   */\n      dup3\n        /* \"#utility.yul\":15698:15718   */\n      tag_180\n      jump\t// in\n    tag_395:\n        /* \"#utility.yul\":15693:15718   */\n      swap2\n      pop\n        /* \"#utility.yul\":15732:15752   */\n      tag_396\n        /* \"#utility.yul\":15750:15751   */\n      dup4\n        /* \"#utility.yul\":15732:15752   */\n      tag_180\n      jump\t// in\n    tag_396:\n        /* \"#utility.yul\":15727:15752   */\n      swap3\n      pop\n        /* \"#utility.yul\":15776:15777   */\n      dup3\n        /* \"#utility.yul\":15773:15774   */\n      dup3\n        /* \"#utility.yul\":15769:15778   */\n      sub\n        /* \"#utility.yul\":15761:15778   */\n      swap1\n      pop\n        /* \"#utility.yul\":15800:15801   */\n      dup2\n        /* \"#utility.yul\":15794:15798   */\n      dup2\n        /* \"#utility.yul\":15791:15802   */\n      gt\n        /* \"#utility.yul\":15788:15825   */\n      iszero\n      tag_397\n      jumpi\n        /* \"#utility.yul\":15805:15823   */\n      tag_398\n      tag_223\n      jump\t// in\n    tag_398:\n        /* \"#utility.yul\":15788:15825   */\n    tag_397:\n        /* \"#utility.yul\":15638:15832   */\n      swap3\n      swap2\n      pop\n      pop\n      jump\t// out\n        /* \"#utility.yul\":15838:16029   */\n    tag_128:\n        /* \"#utility.yul\":15878:15881   */\n      0x00\n        /* \"#utility.yul\":15897:15917   */\n      tag_400\n        /* \"#utility.yul\":15915:15916   */\n      dup3\n        /* \"#utility.yul\":15897:15917   */\n      tag_180\n      jump\t// in\n    tag_400:\n        /* \"#utility.yul\":15892:15917   */\n      swap2\n      pop\n        /* \"#utility.yul\":15931:15951   */\n      tag_401\n        /* \"#utility.yul\":15949:15950   */\n      dup4\n        /* \"#utility.yul\":15931:15951   */\n      tag_180\n      jump\t// in\n    tag_401:\n        /* \"#utility.yul\":15926:15951   */\n      swap3\n      pop\n        /* \"#utility.yul\":15974:15975   */\n      dup3\n        /* \"#utility.yul\":15971:15972   */\n      dup3\n        /* \"#utility.yul\":15967:15976   */\n      add\n        /* \"#utility.yul\":15960:15976   */\n      swap1\n      pop\n        /* \"#utility.yul\":15995:15998   */\n      dup1\n        /* \"#utility.yul\":15992:15993   */\n      dup3\n        /* \"#utility.yul\":15989:15999   */\n      gt\n        /* \"#utility.yul\":15986:16022   */\n      iszero\n      tag_402\n      jumpi\n        /* \"#utility.yul\":16002:16020   */\n      tag_403\n      tag_223\n      jump\t// in\n    tag_403:\n        /* \"#utility.yul\":15986:16022   */\n    tag_402:\n        /* \"#utility.yul\":15838:16029   */\n      swap3\n      swap2\n      pop\n      pop\n      jump\t// out\n        /* \"#utility.yul\":16035:16268   */\n    tag_136:\n        /* \"#utility.yul\":16074:16077   */\n      0x00\n        /* \"#utility.yul\":16097:16121   */\n      tag_405\n        /* \"#utility.yul\":16115:16120   */\n      dup3\n        /* \"#utility.yul\":16097:16121   */\n      tag_180\n      jump\t// in\n    tag_405:\n        /* \"#utility.yul\":16088:16121   */\n      swap2\n      pop\n        /* \"#utility.yul\":16143:16209   */\n      0xffffffffffffffffffffffffffffffffffffffffffffffffffffffffffffffff\n        /* \"#utility.yul\":16136:16141   */\n      dup3\n        /* \"#utility.yul\":16133:16210   */\n      sub\n        /* \"#utility.yul\":16130:16233   */\n      tag_406\n      jumpi\n        /* \"#utility.yul\":16213:16231   */\n      tag_407\n      tag_223\n      jump\t// in\n    tag_407:\n        /* \"#utility.yul\":16130:16233   */\n    tag_406:\n        /* \"#utility.yul\":16260:16261   */\n      0x01\n        /* \"#utility.yul\":16253:16258   */\n      dup3\n        /* \"#utility.yul\":16249:16262   */\n      add\n        /* \"#utility.yul\":16242:16262   */\n      swap1\n      pop\n        /* \"#utility.yul\":16035:16268   */\n      swap2\n      swap1\n      pop\n      jump\t// out\n        /* \"#utility.yul\":16274:16454   */\n    tag_139:\n        /* \"#utility.yul\":16322:16399   */\n      0x4e487b7100000000000000000000000000000000000000000000000000000000\n        /* \"#utility.yul\":16319:16320   */\n      0x00\n        /* \"#utility.yul\":16312:16400   */\n      mstore\n        /* \"#utility.yul\":16419:16423   */\n      0x31\n        /* \"#utility.yul\":16416:16417   */\n      0x04\n        /* \"#utility.yul\":16409:16424   */\n      mstore\n        /* \"#utility.yul\":16443:16447   */\n      0x24\n        /* \"#utility.yul\":16440:16441   */\n      0x00\n        /* \"#utility.yul\":16433:16448   */\n      revert\n        /* \"#utility.yul\":16460:16600   */\n    tag_224:\n        /* \"#utility.yul\":16508:16512   */\n      0x00\n        /* \"#utility.yul\":16531:16534   */\n      dup2\n        /* \"#utility.yul\":16523:16534   */\n      swap1\n      pop\n        /* \"#utility.yul\":16554:16557   */\n      dup2\n        /* \"#utility.yul\":16551:16552   */\n      0x00\n        /* \"#utility.yul\":16544:16558   */\n      mstore\n        /* \"#utility.yul\":16588:16592   */\n      0x20\n        /* \"#utility.yul\":16585:16586   */\n      0x00\n        /* \"#utility.yul\":16575:16593   */\n      keccak256\n        /* \"#utility.yul\":16567:16593   */\n      swap1\n      pop\n        /* \"#utility.yul\":16460:16600   */\n      swap2\n      swap1\n      pop\n      jump\t// out\n        /* \"#utility.yul\":16606:16699   */\n    tag_225:\n        /* \"#utility.yul\":16643:16649   */\n      0x00\n        /* \"#utility.yul\":16690:16692   */\n      0x20\n        /* \"#utility.yul\":16685:16687   */\n      0x1f\n        /* \"#utility.yul\":16678:16683   */\n      dup4\n        /* \"#utility.yul\":16674:16688   */\n      add\n        /* \"#utility.yul\":16670:16693   */\n      div\n        /* \"#utility.yul\":16660:16693   */\n      swap1\n      pop\n        /* \"#utility.yul\":16606:16699   */\n      swap2\n      swap1\n      pop\n      jump\t// out\n        /* \"#utility.yul\":16705:16812   */\n    tag_226:\n        /* \"#utility.yul\":16749:16757   */\n      0x00\n        /* \"#utility.yul\":16799:16804   */\n      dup3\n        /* \"#utility.yul\":16793:16797   */\n      dup3\n        /* \"#utility.yul\":16789:16805   */\n      shl\n        /* \"#utility.yul\":16768:16805   */\n      swap1\n      pop\n        /* \"#utility.yul\":16705:16812   */\n      swap3\n      swap2\n      pop\n      pop\n      jump\t// out\n        /* \"#utility.yul\":16818:17211   */\n    tag_227:\n        /* \"#utility.yul\":16887:16893   */\n      0x00\n        /* \"#utility.yul\":16937:16938   */\n      0x08\n        /* \"#utility.yul\":16925:16935   */\n      dup4\n        /* \"#utility.yul\":16921:16939   */\n      mul\n        /* \"#utility.yul\":16960:17057   */\n      tag_413\n        /* \"#utility.yul\":16990:17056   */\n      0xffffffffffffffffffffffffffffffffffffffffffffffffffffffffffffffff\n        /* \"#utility.yul\":16979:16988   */\n      dup3\n        /* \"#utility.yul\":16960:17057   */\n      tag_226\n      jump\t// in\n    tag_413:\n        /* \"#utility.yul\":17078:17117   */\n      tag_414\n        /* \"#utility.yul\":17108:17116   */\n      dup7\n        /* \"#utility.yul\":17097:17106   */\n      dup4\n        /* \"#utility.yul\":17078:17117   */\n      tag_226\n      jump\t// in\n    tag_414:\n        /* \"#utility.yul\":17066:17117   */\n      swap6\n      pop\n        /* \"#utility.yul\":17150:17154   */\n      dup1\n        /* \"#utility.yul\":17146:17155   */\n      not\n        /* \"#utility.yul\":17139:17144   */\n      dup5\n        /* \"#utility.yul\":17135:17156   */\n      and\n        /* \"#utility.yul\":17126:17156   */\n      swap4\n      pop\n        /* \"#utility.yul\":17199:17203   */\n      dup1\n        /* \"#utility.yul\":17189:17197   */\n      dup7\n        /* \"#utility.yul\":17185:17204   */\n      and\n        /* \"#utility.yul\":17178:17183   */\n      dup5\n        /* \"#utility.yul\":17175:17205   */\n      or\n        /* \"#utility.yul\":17165:17205   */\n      swap3\n      pop\n        /* \"#utility.yul\":16894:17211   */\n      pop\n      pop\n        /* \"#utility.yul\":16818:17211   */\n      swap4\n      swap3\n      pop\n      pop\n      pop\n      jump\t// out\n        /* \"#utility.yul\":17217:17277   */\n    tag_228:\n        /* \"#utility.yul\":17245:17248   */\n      0x00\n        /* \"#utility.yul\":17266:17271   */\n      dup2\n        /* \"#utility.yul\":17259:17271   */\n      swap1\n      pop\n        /* \"#utility.yul\":17217:17277   */\n      swap2\n      swap1\n      pop\n      jump\t// out\n        /* \"#utility.yul\":17283:17425   */\n    tag_229:\n        /* \"#utility.yul\":17333:17342   */\n      0x00\n        /* \"#utility.yul\":17366:17419   */\n      tag_417\n        /* \"#utility.yul\":17384:17418   */\n      tag_418\n        /* \"#utility.yul\":17393:17417   */\n      tag_419\n        /* \"#utility.yul\":17411:17416   */\n      dup5\n        /* \"#utility.yul\":17393:17417   */\n      tag_180\n      jump\t// in\n    tag_419:\n        /* \"#utility.yul\":17384:17418   */\n      tag_228\n      jump\t// in\n    tag_418:\n        /* \"#utility.yul\":17366:17419   */\n      tag_180\n      jump\t// in\n    tag_417:\n        /* \"#utility.yul\":17353:17419   */\n      swap1\n      pop\n        /* \"#utility.yul\":17283:17425   */\n      swap2\n      swap1\n      pop\n      jump\t// out\n        /* \"#utility.yul\":17431:17506   */\n    tag_230:\n        /* \"#utility.yul\":17474:17477   */\n      0x00\n        /* \"#utility.yul\":17495:17500   */\n      dup2\n        /* \"#utility.yul\":17488:17500   */\n      swap1\n      pop\n        /* \"#utility.yul\":17431:17506   */\n      swap2\n      swap1\n      pop\n      jump\t// out\n        /* \"#utility.yul\":17512:17781   */\n    tag_231:\n        /* \"#utility.yul\":17622:17661   */\n      tag_422\n        /* \"#utility.yul\":17653:17660   */\n      dup4\n        /* \"#utility.yul\":17622:17661   */\n      tag_229\n      jump\t// in\n    tag_422:\n        /* \"#utility.yul\":17683:17774   */\n      tag_423\n        /* \"#utility.yul\":17732:17773   */\n      tag_424\n        /* \"#utility.yul\":17756:17772   */\n      dup3\n        /* \"#utility.yul\":17732:17773   */\n      tag_230\n      jump\t// in\n    tag_424:\n        /* \"#utility.yul\":17724:17730   */\n      dup5\n        /* \"#utility.yul\":17717:17721   */\n      dup5\n        /* \"#utility.yul\":17711:17722   */\n      sload\n        /* \"#utility.yul\":17683:17774   */\n      tag_227\n      jump\t// in\n    tag_423:\n        /* \"#utility.yul\":17677:17681   */\n      dup3\n        /* \"#utility.yul\":17670:17775   */\n      sstore\n        /* \"#utility.yul\":17588:17781   */\n      pop\n        /* \"#utility.yul\":17512:17781   */\n      pop\n      pop\n      pop\n      jump\t// out\n        /* \"#utility.yul\":17787:17860   */\n    tag_232:\n        /* \"#utility.yul\":17832:17835   */\n      0x00\n        /* \"#utility.yul\":17787:17860   */\n      swap1\n      jump\t// out\n        /* \"#utility.yul\":17866:18055   */\n    tag_233:\n        /* \"#utility.yul\":17943:17975   */\n      tag_427\n      tag_232\n      jump\t// in\n    tag_427:\n        /* \"#utility.yul\":17984:18049   */\n      tag_428\n        /* \"#utility.yul\":18042:18048   */\n      dup2\n        /* \"#utility.yul\":18034:18040   */\n      dup5\n        /* \"#utility.yul\":18028:18032   */\n      dup5\n        /* \"#utility.yul\":17984:18049   */\n      tag_231\n      jump\t// in\n    tag_428:\n        /* \"#utility.yul\":17919:18055   */\n      pop\n        /* \"#utility.yul\":17866:18055   */\n      pop\n      pop\n      jump\t// out\n        /* \"#utility.yul\":18061:18247   */\n    tag_234:\n        /* \"#utility.yul\":18121:18241   */\n    tag_430:\n        /* \"#utility.yul\":18138:18141   */\n      dup2\n        /* \"#utility.yul\":18131:18136   */\n      dup2\n        /* \"#utility.yul\":18128:18142   */\n      lt\n        /* \"#utility.yul\":18121:18241   */\n      iszero\n      tag_432\n      jumpi\n        /* \"#utility.yul\":18192:18231   */\n      tag_433\n        /* \"#utility.yul\":18229:18230   */\n      0x00\n        /* \"#utility.yul\":18222:18227   */\n      dup3\n        /* \"#utility.yul\":18192:18231   */\n      tag_233\n      jump\t// in\n    tag_433:\n        /* \"#utility.yul\":18165:18166   */\n      0x01\n        /* \"#utility.yul\":18158:18163   */\n      dup2\n        /* \"#utility.yul\":18154:18167   */\n      add\n        /* \"#utility.yul\":18145:18167   */\n      swap1\n      pop\n        /* \"#utility.yul\":18121:18241   */\n      jump(tag_430)\n    tag_432:\n        /* \"#utility.yul\":18061:18247   */\n      pop\n      pop\n      jump\t// out\n        /* \"#utility.yul\":18253:18794   */\n    tag_235:\n        /* \"#utility.yul\":18353:18355   */\n      0x1f\n        /* \"#utility.yul\":18348:18351   */\n      dup3\n        /* \"#utility.yul\":18345:18356   */\n      gt\n        /* \"#utility.yul\":18342:18787   */\n      iszero\n      tag_435\n      jumpi\n        /* \"#utility.yul\":18387:18424   */\n      tag_436\n        /* \"#utility.yul\":18418:18423   */\n      dup2\n        /* \"#utility.yul\":18387:18424   */\n      tag_224\n      jump\t// in\n    tag_436:\n        /* \"#utility.yul\":18470:18499   */\n      tag_437\n        /* \"#utility.yul\":18488:18498   */\n      dup5\n        /* \"#utility.yul\":18470:18499   */\n      tag_225\n      jump\t// in\n    tag_437:\n        /* \"#utility.yul\":18460:18468   */\n      dup2\n        /* \"#utility.yul\":18456:18500   */\n      add\n        /* \"#utility.yul\":18653:18655   */\n      0x20\n        /* \"#utility.yul\":18641:18651   */\n      dup6\n        /* \"#utility.yul\":18638:18656   */\n      lt\n        /* \"#utility.yul\":18635:18684   */\n      iszero\n      tag_438\n      jumpi\n        /* \"#utility.yul\":18674:18682   */\n      dup2\n        /* \"#utility.yul\":18659:18682   */\n      swap1\n      pop\n        /* \"#utility.yul\":18635:18684   */\n    tag_438:\n        /* \"#utility.yul\":18697:18777   */\n      tag_439\n        /* \"#utility.yul\":18753:18775   */\n      tag_440\n        /* \"#utility.yul\":18771:18774   */\n      dup6\n        /* \"#utility.yul\":18753:18775   */\n      tag_225\n      jump\t// in\n    tag_440:\n        /* \"#utility.yul\":18743:18751   */\n      dup4\n        /* \"#utility.yul\":18739:18776   */\n      add\n        /* \"#utility.yul\":18726:18737   */\n      dup3\n        /* \"#utility.yul\":18697:18777   */\n      tag_234\n      jump\t// in\n    tag_439:\n        /* \"#utility.yul\":18357:18787   */\n      pop\n      pop\n        /* \"#utility.yul\":18342:18787   */\n    tag_435:\n        /* \"#utility.yul\":18253:18794   */\n      pop\n      pop\n      pop\n      jump\t// out\n        /* \"#utility.yul\":18800:18917   */\n    tag_236:\n        /* \"#utility.yul\":18854:18862   */\n      0x00\n        /* \"#utility.yul\":18904:18909   */\n      dup3\n        /* \"#utility.yul\":18898:18902   */\n      dup3\n        /* \"#utility.yul\":18894:18910   */\n      shr\n        /* \"#utility.yul\":18873:18910   */\n      swap1\n      pop\n        /* \"#utility.yul\":18800:18917   */\n      swap3\n      swap2\n      pop\n      pop\n      jump\t// out\n        /* \"#utility.yul\":18923:19092   */\n    tag_237:\n        /* \"#utility.yul\":18967:18973   */\n      0x00\n        /* \"#utility.yul\":19000:19051   */\n      tag_443\n        /* \"#utility.yul\":19048:19049   */\n      0x00\n        /* \"#utility.yul\":19044:19050   */\n      not\n        /* \"#utility.yul\":19036:19041   */\n      dup5\n        /* \"#utility.yul\":19033:19034   */\n      0x08\n        /* \"#utility.yul\":19029:19042   */\n      mul\n        /* \"#utility.yul\":19000:19051   */\n      tag_236\n      jump\t// in\n    tag_443:\n        /* \"#utility.yul\":18996:19052   */\n      not\n        /* \"#utility.yul\":19081:19085   */\n      dup1\n        /* \"#utility.yul\":19075:19079   */\n      dup4\n        /* \"#utility.yul\":19071:19086   */\n      and\n        /* \"#utility.yul\":19061:19086   */\n      swap2\n      pop\n        /* \"#utility.yul\":18974:19092   */\n      pop\n        /* \"#utility.yul\":18923:19092   */\n      swap3\n      swap2\n      pop\n      pop\n      jump\t// out\n        /* \"#utility.yul\":19097:19392   */\n    tag_238:\n        /* \"#utility.yul\":19173:19177   */\n      0x00\n        /* \"#utility.yul\":19319:19348   */\n      tag_445\n        /* \"#utility.yul\":19344:19347   */\n      dup4\n        /* \"#utility.yul\":19338:19342   */\n      dup4\n        /* \"#utility.yul\":19319:19348   */\n      tag_237\n      jump\t// in\n    tag_445:\n        /* \"#utility.yul\":19311:19348   */\n      swap2\n      pop\n        /* \"#utility.yul\":19381:19384   */\n      dup3\n        /* \"#utility.yul\":19378:19379   */\n      0x02\n        /* \"#utility.yul\":19374:19385   */\n      mul\n        /* \"#utility.yul\":19368:19372   */\n      dup3\n        /* \"#utility.yul\":19365:19386   */\n      or\n        /* \"#utility.yul\":19357:19386   */\n      swap1\n      pop\n        /* \"#utility.yul\":19097:19392   */\n      swap3\n      swap2\n      pop\n      pop\n      jump\t// out\n        /* \"#utility.yul\":19397:20787   */\n    tag_147:\n        /* \"#utility.yul\":19512:19548   */\n      tag_447\n        /* \"#utility.yul\":19544:19547   */\n      dup3\n        /* \"#utility.yul\":19512:19548   */\n      tag_194\n      jump\t// in\n    tag_447:\n        /* \"#utility.yul\":19613:19631   */\n      0xffffffffffffffff\n        /* \"#utility.yul\":19605:19611   */\n      dup2\n        /* \"#utility.yul\":19602:19632   */\n      gt\n        /* \"#utility.yul\":19599:19655   */\n      iszero\n      tag_448\n      jumpi\n        /* \"#utility.yul\":19635:19653   */\n      tag_449\n      tag_201\n      jump\t// in\n    tag_449:\n        /* \"#utility.yul\":19599:19655   */\n    tag_448:\n        /* \"#utility.yul\":19679:19717   */\n      tag_450\n        /* \"#utility.yul\":19711:19715   */\n      dup3\n        /* \"#utility.yul\":19705:19716   */\n      sload\n        /* \"#utility.yul\":19679:19717   */\n      tag_106\n      jump\t// in\n    tag_450:\n        /* \"#utility.yul\":19764:19830   */\n      tag_451\n        /* \"#utility.yul\":19823:19829   */\n      dup3\n        /* \"#utility.yul\":19815:19821   */\n      dup3\n        /* \"#utility.yul\":19809:19813   */\n      dup6\n        /* \"#utility.yul\":19764:19830   */\n      tag_235\n      jump\t// in\n    tag_451:\n        /* \"#utility.yul\":19857:19858   */\n      0x00\n        /* \"#utility.yul\":19881:19885   */\n      0x20\n        /* \"#utility.yul\":19868:19885   */\n      swap1\n      pop\n        /* \"#utility.yul\":19913:19915   */\n      0x1f\n        /* \"#utility.yul\":19905:19911   */\n      dup4\n        /* \"#utility.yul\":19902:19916   */\n      gt\n        /* \"#utility.yul\":19930:19931   */\n      0x01\n        /* \"#utility.yul\":19925:20542   */\n      dup2\n      eq\n      tag_453\n      jumpi\n        /* \"#utility.yul\":20586:20587   */\n      0x00\n        /* \"#utility.yul\":20603:20609   */\n      dup5\n        /* \"#utility.yul\":20600:20677   */\n      iszero\n      tag_454\n      jumpi\n        /* \"#utility.yul\":20652:20661   */\n      dup3\n        /* \"#utility.yul\":20647:20650   */\n      dup8\n        /* \"#utility.yul\":20643:20662   */\n      add\n        /* \"#utility.yul\":20637:20663   */\n      mload\n        /* \"#utility.yul\":20628:20663   */\n      swap1\n      pop\n        /* \"#utility.yul\":20600:20677   */\n    tag_454:\n        /* \"#utility.yul\":20703:20770   */\n      tag_455\n        /* \"#utility.yul\":20763:20769   */\n      dup6\n        /* \"#utility.yul\":20756:20761   */\n      dup3\n        /* \"#utility.yul\":20703:20770   */\n      tag_238\n      jump\t// in\n    tag_455:\n        /* \"#utility.yul\":20697:20701   */\n      dup7\n        /* \"#utility.yul\":20690:20771   */\n      sstore\n        /* \"#utility.yul\":20559:20781   */\n      pop\n        /* \"#utility.yul\":19895:20781   */\n      jump(tag_452)\n        /* \"#utility.yul\":19925:20542   */\n    tag_453:\n        /* \"#utility.yul\":19977:19981   */\n      0x1f\n        /* \"#utility.yul\":19973:19982   */\n      not\n        /* \"#utility.yul\":19965:19971   */\n      dup5\n        /* \"#utility.yul\":19961:19983   */\n      and\n        /* \"#utility.yul\":20011:20047   */\n      tag_456\n        /* \"#utility.yul\":20042:20046   */\n      dup7\n        /* \"#utility.yul\":20011:20047   */\n      tag_224\n      jump\t// in\n    tag_456:\n        /* \"#utility.yul\":20069:20070   */\n      0x00\n        /* \"#utility.yul\":20083:20291   */\n    tag_457:\n        /* \"#utility.yul\":20097:20104   */\n      dup3\n        /* \"#utility.yul\":20094:20095   */\n      dup2\n        /* \"#utility.yul\":20091:20105   */\n      lt\n        /* \"#utility.yul\":20083:20291   */\n      iszero\n      tag_459\n      jumpi\n        /* \"#utility.yul\":20176:20185   */\n      dup5\n        /* \"#utility.yul\":20171:20174   */\n      dup10\n        /* \"#utility.yul\":20167:20186   */\n      add\n        /* \"#utility.yul\":20161:20187   */\n      mload\n        /* \"#utility.yul\":20153:20159   */\n      dup3\n        /* \"#utility.yul\":20146:20188   */\n      sstore\n        /* \"#utility.yul\":20227:20228   */\n      0x01\n        /* \"#utility.yul\":20219:20225   */\n      dup3\n        /* \"#utility.yul\":20215:20229   */\n      add\n        /* \"#utility.yul\":20205:20229   */\n      swap2\n      pop\n        /* \"#utility.yul\":20274:20276   */\n      0x20\n        /* \"#utility.yul\":20263:20272   */\n      dup6\n        /* \"#utility.yul\":20259:20277   */\n      add\n        /* \"#utility.yul\":20246:20277   */\n      swap5\n      pop\n        /* \"#utility.yul\":20120:20124   */\n      0x20\n        /* \"#utility.yul\":20117:20118   */\n      dup2\n        /* \"#utility.yul\":20113:20125   */\n      add\n        /* \"#utility.yul\":20108:20125   */\n      swap1\n      pop\n        /* \"#utility.yul\":20083:20291   */\n      jump(tag_457)\n    tag_459:\n        /* \"#utility.yul\":20319:20325   */\n      dup7\n        /* \"#utility.yul\":20310:20317   */\n      dup4\n        /* \"#utility.yul\":20307:20326   */\n      lt\n        /* \"#utility.yul\":20304:20483   */\n      iszero\n      tag_460\n      jumpi\n        /* \"#utility.yul\":20377:20386   */\n      dup5\n        /* \"#utility.yul\":20372:20375   */\n      dup10\n        /* \"#utility.yul\":20368:20387   */\n      add\n        /* \"#utility.yul\":20362:20388   */\n      mload\n        /* \"#utility.yul\":20420:20468   */\n      tag_461\n        /* \"#utility.yul\":20462:20466   */\n      0x1f\n        /* \"#utility.yul\":20454:20460   */\n      dup10\n        /* \"#utility.yul\":20450:20467   */\n      and\n        /* \"#utility.yul\":20439:20448   */\n      dup3\n        /* \"#utility.yul\":20420:20468   */\n      tag_237\n      jump\t// in\n    tag_461:\n        /* \"#utility.yul\":20412:20418   */\n      dup4\n        /* \"#utility.yul\":20405:20469   */\n      sstore\n        /* \"#utility.yul\":20327:20483   */\n      pop\n        /* \"#utility.yul\":20304:20483   */\n    tag_460:\n        /* \"#utility.yul\":20529:20530   */\n      0x01\n        /* \"#utility.yul\":20525:20526   */\n      0x02\n        /* \"#utility.yul\":20517:20523   */\n      dup9\n        /* \"#utility.yul\":20513:20527   */\n      mul\n        /* \"#utility.yul\":20509:20531   */\n      add\n        /* \"#utility.yul\":20503:20507   */\n      dup9\n        /* \"#utility.yul\":20496:20532   */\n      sstore\n        /* \"#utility.yul\":19932:20542   */\n      pop\n      pop\n      pop\n        /* \"#utility.yul\":19895:20781   */\n    tag_452:\n      pop\n        /* \"#utility.yul\":19487:20787   */\n      pop\n      pop\n      pop\n        /* \"#utility.yul\":19397:20787   */\n      pop\n      pop\n      jump\t// out\n        /* \"#utility.yul\":20793:21212   */\n    tag_149:\n        /* \"#utility.yul\":20932:20936   */\n      0x00\n        /* \"#utility.yul\":20970:20972   */\n      0x40\n        /* \"#utility.yul\":20959:20968   */\n      dup3\n        /* \"#utility.yul\":20955:20973   */\n      add\n        /* \"#utility.yul\":20947:20973   */\n      swap1\n      pop\n        /* \"#utility.yul\":20983:21054   */\n      tag_463\n        /* \"#utility.yul\":21051:21052   */\n      0x00\n        /* \"#utility.yul\":21040:21049   */\n      dup4\n        /* \"#utility.yul\":21036:21053   */\n      add\n        /* \"#utility.yul\":21027:21033   */\n      dup6\n        /* \"#utility.yul\":20983:21054   */\n      tag_181\n      jump\t// in\n    tag_463:\n        /* \"#utility.yul\":21101:21110   */\n      dup2\n        /* \"#utility.yul\":21095:21099   */\n      dup2\n        /* \"#utility.yul\":21091:21111   */\n      sub\n        /* \"#utility.yul\":21086:21088   */\n      0x20\n        /* \"#utility.yul\":21075:21084   */\n      dup4\n        /* \"#utility.yul\":21071:21089   */\n      add\n        /* \"#utility.yul\":21064:21112   */\n      mstore\n        /* \"#utility.yul\":21129:21205   */\n      tag_464\n        /* \"#utility.yul\":21200:21204   */\n      dup2\n        /* \"#utility.yul\":21191:21197   */\n      dup5\n        /* \"#utility.yul\":21129:21205   */\n      tag_198\n      jump\t// in\n    tag_464:\n        /* \"#utility.yul\":21121:21205   */\n      swap1\n      pop\n        /* \"#utility.yul\":20793:21212   */\n      swap4\n      swap3\n      pop\n      pop\n      pop\n      jump\t// out\n        /* \"#utility.yul\":21218:21398   */\n    tag_239:\n        /* \"#utility.yul\":21266:21343   */\n      0x4e487b7100000000000000000000000000000000000000000000000000000000\n        /* \"#utility.yul\":21263:21264   */\n      0x00\n        /* \"#utility.yul\":21256:21344   */\n      mstore\n        /* \"#utility.yul\":21363:21367   */\n      0x12\n        /* \"#utility.yul\":21360:21361   */\n      0x04\n        /* \"#utility.yul\":21353:21368   */\n      mstore\n        /* \"#utility.yul\":21387:21391   */\n      0x24\n        /* \"#utility.yul\":21384:21385   */\n      0x00\n        /* \"#utility.yul\":21377:21392   */\n      revert\n        /* \"#utility.yul\":21404:21589   */\n    tag_160:\n        /* \"#utility.yul\":21444:21445   */\n      0x00\n        /* \"#utility.yul\":21461:21481   */\n      tag_467\n        /* \"#utility.yul\":21479:21480   */\n      dup3\n        /* \"#utility.yul\":21461:21481   */\n      tag_180\n      jump\t// in\n    tag_467:\n        /* \"#utility.yul\":21456:21481   */\n      swap2\n      pop\n        /* \"#utility.yul\":21495:21515   */\n      tag_468\n        /* \"#utility.yul\":21513:21514   */\n      dup4\n        /* \"#utility.yul\":21495:21515   */\n      tag_180\n      jump\t// in\n    tag_468:\n        /* \"#utility.yul\":21490:21515   */\n      swap3\n      pop\n        /* \"#utility.yul\":21534:21535   */\n      dup3\n        /* \"#utility.yul\":21524:21559   */\n      tag_469\n      jumpi\n        /* \"#utility.yul\":21539:21557   */\n      tag_470\n      tag_239\n      jump\t// in\n    tag_470:\n        /* \"#utility.yul\":21524:21559   */\n    tag_469:\n        /* \"#utility.yul\":21581:21582   */\n      dup3\n        /* \"#utility.yul\":21578:21579   */\n      dup3\n        /* \"#utility.yul\":21574:21583   */\n      div\n        /* \"#utility.yul\":21569:21583   */\n      swap1\n      pop\n        /* \"#utility.yul\":21404:21589   */\n      swap3\n      swap2\n      pop\n      pop\n      jump\t// out\n\n    auxdata: 0xa26469706673582212208ee7e39771fc2c1a4d06bfad6d9d7aad1bdd1450c4bade77e3bf067de0230bb464736f6c63430008120033\n}\n","bytecode":{"linkReferences":{},"object":"60806040523480156200001157600080fd5b50604051620023073803806200230783398181016040528101906200003791906200028a565b81600460006101000a81548173ffffffffffffffffffffffffffffffffffffffff021916908373ffffffffffffffffffffffffffffffffffffffff16021790555080600390816200008991906200053b565b50505062000622565b6000604051905090565b600080fd5b600080fd5b600073ffffffffffffffffffffffffffffffffffffffff82169050919050565b6000620000d382620000a6565b9050919050565b620000e581620000c6565b8114620000f157600080fd5b50565b6000815190506200010581620000da565b92915050565b600080fd5b600080fd5b6000601f19601f8301169050919050565b7f4e487b7100000000000000000000000000000000000000000000000000000000600052604160045260246000fd5b620001608262000115565b810181811067ffffffffffffffff8211171562000182576200018162000126565b5b80604052505050565b60006200019762000092565b9050620001a5828262000155565b919050565b600067ffffffffffffffff821115620001c857620001c762000126565b5b620001d38262000115565b9050602081019050919050565b60005b8381101562000200578082015181840152602081019050620001e3565b60008484015250505050565b6000620002236200021d84620001aa565b6200018b565b90508281526020810184848401111562000242576200024162000110565b5b6200024f848285620001e0565b509392505050565b600082601f8301126200026f576200026e6200010b565b5b8151620002818482602086016200020c565b91505092915050565b60008060408385031215620002a457620002a36200009c565b5b6000620002b485828601620000f4565b925050602083015167ffffffffffffffff811115620002d857620002d7620000a1565b5b620002e68582860162000257565b9150509250929050565b600081519050919050565b7f4e487b7100000000000000000000000000000000000000000000000000000000600052602260045260246000fd5b600060028204905060018216806200034357607f821691505b602082108103620003595762000358620002fb565b5b50919050565b60008190508160005260206000209050919050565b60006020601f8301049050919050565b600082821b905092915050565b600060088302620003c37fffffffffffffffffffffffffffffffffffffffffffffffffffffffffffffffff8262000384565b620003cf868362000384565b95508019841693508086168417925050509392505050565b6000819050919050565b6000819050919050565b60006200041c620004166200041084620003e7565b620003f1565b620003e7565b9050919050565b6000819050919050565b6200043883620003fb565b62000450620004478262000423565b84845462000391565b825550505050565b600090565b6200046762000458565b620004748184846200042d565b505050565b5b818110156200049c57620004906000826200045d565b6001810190506200047a565b5050565b601f821115620004eb57620004b5816200035f565b620004c08462000374565b81016020851015620004d0578190505b620004e8620004df8562000374565b83018262000479565b50505b505050565b600082821c905092915050565b60006200051060001984600802620004f0565b1980831691505092915050565b60006200052b8383620004fd565b9150826002028217905092915050565b6200054682620002f0565b67ffffffffffffffff81111562000562576200056162000126565b5b6200056e82546200032a565b6200057b828285620004a0565b600060209050601f831160018114620005b357600084156200059e578287015190505b620005aa85826200051d565b8655506200061a565b601f198416620005c3866200035f565b60005b82811015620005ed57848901518255600182019150602085019450602081019050620005c6565b868310156200060d578489015162000609601f891682620004fd565b8355505b6001600288020188555050505b505050505050565b611cd580620006326000396000f3fe6080604052600436106100c65760003560e01c8063481c6a751161007f5780639ace38c2116100595780639ace38c2146102ec5780639d5f65fc1461032b578063a329f8f614610368578063cc1e2cb0146103915761011d565b8063481c6a751461025b57806366d34a9b1461028657806380fc9c0e146102af5761011d565b80630fa8d54f1461012257806320ee128e1461014b5780632a0e54bd1461018a5780632e7700f0146101c857806333ea3dc8146101f3578063474466c2146102325761011d565b3661011d573373ffffffffffffffffffffffffffffffffffffffff167f90890809c654f11d6e72a28fa60149770a0d11ec6c92319d6ceb2bb0a4ea1a1534476040516101139291906110fa565b60405180910390a2005b600080fd5b34801561012e57600080fd5b5061014960048036038101906101449190611163565b6103bc565b005b34801561015757600080fd5b50610172600480360381019061016d91906111ee565b6104ca565b60405161018193929190611249565b60405180910390f35b34801561019657600080fd5b506101b160048036038101906101ac91906111ee565b61051e565b6040516101bf92919061128f565b60405180910390f35b3480156101d457600080fd5b506101dd61057f565b6040516101ea91906112b8565b60405180910390f35b3480156101ff57600080fd5b5061021a60048036038101906102159190611163565b61058b565b60405161022993929190611363565b60405180910390f35b34801561023e57600080fd5b50610259600480360381019061025491906111ee565b61067d565b005b34801561026757600080fd5b50610270610abe565b60405161027d91906113a1565b60405180910390f35b34801561029257600080fd5b506102ad60048036038101906102a891906114f1565b610ae4565b005b3480156102bb57600080fd5b506102d660048036038101906102d19190611560565b610c20565b6040516102e391906112b8565b60405180910390f35b3480156102f857600080fd5b50610313600480360381019061030e9190611163565b610d54565b60405161032293929190611363565b60405180910390f35b34801561033757600080fd5b50610352600480360381019061034d9190611560565b610e36565b60405161035f919061169c565b60405180910390f35b34801561037457600080fd5b5061038f600480360381019061038a91906116be565b610f03565b005b34801561039d57600080fd5b506103a6611053565b6040516103b39190611766565b60405180910390f35b6008600160003373ffffffffffffffffffffffffffffffffffffffff1673ffffffffffffffffffffffffffffffffffffffff168152602001908152602001600020805490501061040b57600080fd5b600160003373ffffffffffffffffffffffffffffffffffffffff1673ffffffffffffffffffffffffffffffffffffffff1681526020019081526020016000206040518060600160405280428152602001838152602001600015158152509080600181540180825580915050600190039060005260206000209060030201600090919091909150600082015181600001556020820151816001015560408201518160020160006101000a81548160ff021916908315150217905550505050565b600160205281600052604060002081815481106104e657600080fd5b9060005260206000209060030201600091509150508060000154908060010154908060020160009054906101000a900460ff16905083565b6002602052816000526040600020818154811061053a57600080fd5b9060005260206000209060020201600091509150508060000160009054906101000a900473ffffffffffffffffffffffffffffffffffffffff16908060010154905082565b60008080549050905090565b600080606060008085815481106105a5576105a4611788565b5b906000526020600020906003020190508060000160009054906101000a900473ffffffffffffffffffffffffffffffffffffffff168160010154826002018080546105ef906117e6565b80601f016020809104026020016040519081016040528092919081815260200182805461061b906117e6565b80156106685780601f1061063d57610100808354040283529160200191610668565b820191906000526020600020905b81548152906001019060200180831161064b57829003601f168201915b50505050509050935093509350509193909250565b600460009054906101000a900473ffffffffffffffffffffffffffffffffffffffff1673ffffffffffffffffffffffffffffffffffffffff163373ffffffffffffffffffffffffffffffffffffffff161461070d576040517f08c379a000000000000000000000000000000000000000000000000000000000815260040161070490611863565b60405180910390fd5b600160008373ffffffffffffffffffffffffffffffffffffffff1673ffffffffffffffffffffffffffffffffffffffff168152602001908152602001600020818154811061075e5761075d611788565b5b9060005260206000209060030201600001548273ffffffffffffffffffffffffffffffffffffffff163373ffffffffffffffffffffffffffffffffffffffff167f6c3b340ea4063c1ebf49afe1d61892de36fad954e56febb4c570600bd875dd28600160008773ffffffffffffffffffffffffffffffffffffffff1673ffffffffffffffffffffffffffffffffffffffff16815260200190815260200160002085815481106108105761080f611788565b5b90600052602060002090600302016001015460405161082f91906112b8565b60405180910390a460008190505b60018060008573ffffffffffffffffffffffffffffffffffffffff1673ffffffffffffffffffffffffffffffffffffffff1681526020019081526020016000208054905061088b91906118b2565b8110156109b357600160008473ffffffffffffffffffffffffffffffffffffffff1673ffffffffffffffffffffffffffffffffffffffff1681526020019081526020016000206001826108de91906118e6565b815481106108ef576108ee611788565b5b9060005260206000209060030201600160008573ffffffffffffffffffffffffffffffffffffffff1673ffffffffffffffffffffffffffffffffffffffff168152602001908152602001600020828154811061094e5761094d611788565b5b906000526020600020906003020160008201548160000155600182015481600101556002820160009054906101000a900460ff168160020160006101000a81548160ff02191690831515021790555090505080806109ab9061191a565b91505061083d565b50600160008373ffffffffffffffffffffffffffffffffffffffff1673ffffffffffffffffffffffffffffffffffffffff168152602001908152602001600020805480610a0357610a02611962565b5b600190038181906000526020600020906003020160008082016000905560018201600090556002820160006101000a81549060ff02191690555050905560018060008473ffffffffffffffffffffffffffffffffffffffff1673ffffffffffffffffffffffffffffffffffffffff1681526020019081526020016000208281548110610a9257610a91611788565b5b906000526020600020906003020160020160006101000a81548160ff0219169083151502179055505050565b600460009054906101000a900473ffffffffffffffffffffffffffffffffffffffff1681565b600080805490509050600060405180606001604052808673ffffffffffffffffffffffffffffffffffffffff16815260200185815260200184815250908060018154018082558091505060019003906000526020600020906003020160009091909190915060008201518160000160006101000a81548173ffffffffffffffffffffffffffffffffffffffff021916908373ffffffffffffffffffffffffffffffffffffffff160217905550602082015181600101556040820151816002019081610baf9190611b3d565b5050508373ffffffffffffffffffffffffffffffffffffffff16813373ffffffffffffffffffffffffffffffffffffffff167fff161496bb9879e11f4a70b7df1b7ba081936284851b65942ef4d782f9d39bea8686604051610c12929190611c0f565b60405180910390a450505050565b6000806000905060005b600260008573ffffffffffffffffffffffffffffffffffffffff1673ffffffffffffffffffffffffffffffffffffffff16815260200190815260200160002080549050811015610cf757600260008573ffffffffffffffffffffffffffffffffffffffff1673ffffffffffffffffffffffffffffffffffffffff1681526020019081526020016000208181548110610cc557610cc4611788565b5b90600052602060002090600202016001015482610ce291906118e6565b91508080610cef9061191a565b915050610c2a565b506000600260008573ffffffffffffffffffffffffffffffffffffffff1673ffffffffffffffffffffffffffffffffffffffff1681526020019081526020016000208054905082610d489190611c6e565b90508092505050919050565b60008181548110610d6457600080fd5b90600052602060002090600302016000915090508060000160009054906101000a900473ffffffffffffffffffffffffffffffffffffffff1690806001015490806002018054610db3906117e6565b80601f0160208091040260200160405190810160405280929190818152602001828054610ddf906117e6565b8015610e2c5780601f10610e0157610100808354040283529160200191610e2c565b820191906000526020600020905b815481529060010190602001808311610e0f57829003601f168201915b5050505050905083565b6060600160008373ffffffffffffffffffffffffffffffffffffffff1673ffffffffffffffffffffffffffffffffffffffff168152602001908152602001600020805480602002602001604051908101604052809291908181526020016000905b82821015610ef8578382906000526020600020906003020160405180606001604052908160008201548152602001600182015481526020016002820160009054906101000a900460ff16151515158152505081526020019060010190610e97565b505050509050919050565b8173ffffffffffffffffffffffffffffffffffffffff168373ffffffffffffffffffffffffffffffffffffffff167f5435029ae8e53f5303b6dbda07be9beb09ae106923c28bf30dc3c46852588f0483604051610f6091906112b8565b60405180910390a3600260008373ffffffffffffffffffffffffffffffffffffffff1673ffffffffffffffffffffffffffffffffffffffff16815260200190815260200160002060405180604001604052808573ffffffffffffffffffffffffffffffffffffffff16815260200183815250908060018154018082558091505060019003906000526020600020906002020160009091909190915060008201518160000160006101000a81548173ffffffffffffffffffffffffffffffffffffffff021916908373ffffffffffffffffffffffffffffffffffffffff160217905550602082015181600101555050505050565b60038054611060906117e6565b80601f016020809104026020016040519081016040528092919081815260200182805461108c906117e6565b80156110d95780601f106110ae576101008083540402835291602001916110d9565b820191906000526020600020905b8154815290600101906020018083116110bc57829003601f168201915b505050505081565b6000819050919050565b6110f4816110e1565b82525050565b600060408201905061110f60008301856110eb565b61111c60208301846110eb565b9392505050565b6000604051905090565b600080fd5b600080fd5b611140816110e1565b811461114b57600080fd5b50565b60008135905061115d81611137565b92915050565b6000602082840312156111795761117861112d565b5b60006111878482850161114e565b91505092915050565b600073ffffffffffffffffffffffffffffffffffffffff82169050919050565b60006111bb82611190565b9050919050565b6111cb816111b0565b81146111d657600080fd5b50565b6000813590506111e8816111c2565b92915050565b600080604083850312156112055761120461112d565b5b6000611213858286016111d9565b92505060206112248582860161114e565b9150509250929050565b60008115159050919050565b6112438161122e565b82525050565b600060608201905061125e60008301866110eb565b61126b60208301856110eb565b611278604083018461123a565b949350505050565b611289816111b0565b82525050565b60006040820190506112a46000830185611280565b6112b160208301846110eb565b9392505050565b60006020820190506112cd60008301846110eb565b92915050565b600081519050919050565b600082825260208201905092915050565b60005b8381101561130d5780820151818401526020810190506112f2565b60008484015250505050565b6000601f19601f8301169050919050565b6000611335826112d3565b61133f81856112de565b935061134f8185602086016112ef565b61135881611319565b840191505092915050565b60006060820190506113786000830186611280565b61138560208301856110eb565b8181036040830152611397818461132a565b9050949350505050565b60006020820190506113b66000830184611280565b92915050565b600080fd5b600080fd5b7f4e487b7100000000000000000000000000000000000000000000000000000000600052604160045260246000fd5b6113fe82611319565b810181811067ffffffffffffffff8211171561141d5761141c6113c6565b5b80604052505050565b6000611430611123565b905061143c82826113f5565b919050565b600067ffffffffffffffff82111561145c5761145b6113c6565b5b61146582611319565b9050602081019050919050565b82818337600083830152505050565b600061149461148f84611441565b611426565b9050828152602081018484840111156114b0576114af6113c1565b5b6114bb848285611472565b509392505050565b600082601f8301126114d8576114d76113bc565b5b81356114e8848260208601611481565b91505092915050565b60008060006060848603121561150a5761150961112d565b5b6000611518868287016111d9565b93505060206115298682870161114e565b925050604084013567ffffffffffffffff81111561154a57611549611132565b5b611556868287016114c3565b9150509250925092565b6000602082840312156115765761157561112d565b5b6000611584848285016111d9565b91505092915050565b600081519050919050565b600082825260208201905092915050565b6000819050602082019050919050565b6115c2816110e1565b82525050565b6115d18161122e565b82525050565b6060820160008201516115ed60008501826115b9565b50602082015161160060208501826115b9565b50604082015161161360408501826115c8565b50505050565b600061162583836115d7565b60608301905092915050565b6000602082019050919050565b60006116498261158d565b6116538185611598565b935061165e836115a9565b8060005b8381101561168f5781516116768882611619565b975061168183611631565b925050600181019050611662565b5085935050505092915050565b600060208201905081810360008301526116b6818461163e565b905092915050565b6000806000606084860312156116d7576116d661112d565b5b60006116e5868287016111d9565b93505060206116f6868287016111d9565b92505060406117078682870161114e565b9150509250925092565b600081519050919050565b600082825260208201905092915050565b600061173882611711565b611742818561171c565b93506117528185602086016112ef565b61175b81611319565b840191505092915050565b60006020820190508181036000830152611780818461172d565b905092915050565b7f4e487b7100000000000000000000000000000000000000000000000000000000600052603260045260246000fd5b7f4e487b7100000000000000000000000000000000000000000000000000000000600052602260045260246000fd5b600060028204905060018216806117fe57607f821691505b602082108103611811576118106117b7565b5b50919050565b7f596f7520617265206e6f7420746865206d616e61676572000000000000000000600082015250565b600061184d60178361171c565b915061185882611817565b602082019050919050565b6000602082019050818103600083015261187c81611840565b9050919050565b7f4e487b7100000000000000000000000000000000000000000000000000000000600052601160045260246000fd5b60006118bd826110e1565b91506118c8836110e1565b92508282039050818111156118e0576118df611883565b5b92915050565b60006118f1826110e1565b91506118fc836110e1565b925082820190508082111561191457611913611883565b5b92915050565b6000611925826110e1565b91507fffffffffffffffffffffffffffffffffffffffffffffffffffffffffffffffff820361195757611956611883565b5b600182019050919050565b7f4e487b7100000000000000000000000000000000000000000000000000000000600052603160045260246000fd5b60008190508160005260206000209050919050565b60006020601f8301049050919050565b600082821b905092915050565b6000600883026119f37fffffffffffffffffffffffffffffffffffffffffffffffffffffffffffffffff826119b6565b6119fd86836119b6565b95508019841693508086168417925050509392505050565b6000819050919050565b6000611a3a611a35611a30846110e1565b611a15565b6110e1565b9050919050565b6000819050919050565b611a5483611a1f565b611a68611a6082611a41565b8484546119c3565b825550505050565b600090565b611a7d611a70565b611a88818484611a4b565b505050565b5b81811015611aac57611aa1600082611a75565b600181019050611a8e565b5050565b601f821115611af157611ac281611991565b611acb846119a6565b81016020851015611ada578190505b611aee611ae6856119a6565b830182611a8d565b50505b505050565b600082821c905092915050565b6000611b1460001984600802611af6565b1980831691505092915050565b6000611b2d8383611b03565b9150826002028217905092915050565b611b46826112d3565b67ffffffffffffffff811115611b5f57611b5e6113c6565b5b611b6982546117e6565b611b74828285611ab0565b600060209050601f831160018114611ba75760008415611b95578287015190505b611b9f8582611b21565b865550611c07565b601f198416611bb586611991565b60005b82811015611bdd57848901518255600182019150602085019450602081019050611bb8565b86831015611bfa5784890151611bf6601f891682611b03565b8355505b6001600288020188555050505b505050505050565b6000604082019050611c2460008301856110eb565b8181036020830152611c36818461132a565b90509392505050565b7f4e487b7100000000000000000000000000000000000000000000000000000000600052601260045260246000fd5b6000611c79826110e1565b9150611c84836110e1565b925082611c9457611c93611c3f565b5b82820490509291505056fea26469706673582212208ee7e39771fc2c1a4d06bfad6d9d7aad1bdd1450c4bade77e3bf067de0230bb464736f6c63430008120033","opcodes":"PUSH1 0x80 PUSH1 0x40 MSTORE CALLVALUE DUP1 ISZERO PUSH3 0x11 JUMPI PUSH1 0x0 DUP1 REVERT JUMPDEST POP PUSH1 0x40 MLOAD PUSH3 0x2307 CODESIZE SUB DUP1 PUSH3 0x2307 DUP4 CODECOPY DUP2 DUP2 ADD PUSH1 0x40 MSTORE DUP2 ADD SWAP1 PUSH3 0x37 SWAP2 SWAP1 PUSH3 0x28A JUMP JUMPDEST DUP2 PUSH1 0x4 PUSH1 0x0 PUSH2 0x100 EXP DUP2 SLOAD DUP2 PUSH20 0xFFFFFFFFFFFFFFFFFFFFFFFFFFFFFFFFFFFFFFFF MUL NOT AND SWAP1 DUP4 PUSH20 0xFFFFFFFFFFFFFFFFFFFFFFFFFFFFFFFFFFFFFFFF AND MUL OR SWAP1 SSTORE POP DUP1 PUSH1 0x3 SWAP1 DUP2 PUSH3 0x89 SWAP2 SWAP1 PUSH3 0x53B JUMP JUMPDEST POP POP POP PUSH3 0x622 JUMP JUMPDEST PUSH1 0x0 PUSH1 0x40 MLOAD SWAP1 POP SWAP1 JUMP JUMPDEST PUSH1 0x0 DUP1 REVERT JUMPDEST PUSH1 0x0 DUP1 REVERT JUMPDEST PUSH1 0x0 PUSH20 0xFFFFFFFFFFFFFFFFFFFFFFFFFFFFFFFFFFFFFFFF DUP3 AND SWAP1 POP SWAP2 SWAP1 POP JUMP JUMPDEST PUSH1 0x0 PUSH3 0xD3 DUP3 PUSH3 0xA6 JUMP JUMPDEST SWAP1 POP SWAP2 SWAP1 POP JUMP JUMPDEST PUSH3 0xE5 DUP2 PUSH3 0xC6 JUMP JUMPDEST DUP2 EQ PUSH3 0xF1 JUMPI PUSH1 0x0 DUP1 REVERT JUMPDEST POP JUMP JUMPDEST PUSH1 0x0 DUP2 MLOAD SWAP1 POP PUSH3 0x105 DUP2 PUSH3 0xDA JUMP JUMPDEST SWAP3 SWAP2 POP POP JUMP JUMPDEST PUSH1 0x0 DUP1 REVERT JUMPDEST PUSH1 0x0 DUP1 REVERT JUMPDEST PUSH1 0x0 PUSH1 0x1F NOT PUSH1 0x1F DUP4 ADD AND SWAP1 POP SWAP2 SWAP1 POP JUMP JUMPDEST PUSH32 0x4E487B7100000000000000000000000000000000000000000000000000000000 PUSH1 0x0 MSTORE PUSH1 0x41 PUSH1 0x4 MSTORE PUSH1 0x24 PUSH1 0x0 REVERT JUMPDEST PUSH3 0x160 DUP3 PUSH3 0x115 JUMP JUMPDEST DUP2 ADD DUP2 DUP2 LT PUSH8 0xFFFFFFFFFFFFFFFF DUP3 GT OR ISZERO PUSH3 0x182 JUMPI PUSH3 0x181 PUSH3 0x126 JUMP JUMPDEST JUMPDEST DUP1 PUSH1 0x40 MSTORE POP POP POP JUMP JUMPDEST PUSH1 0x0 PUSH3 0x197 PUSH3 0x92 JUMP JUMPDEST SWAP1 POP PUSH3 0x1A5 DUP3 DUP3 PUSH3 0x155 JUMP JUMPDEST SWAP2 SWAP1 POP JUMP JUMPDEST PUSH1 0x0 PUSH8 0xFFFFFFFFFFFFFFFF DUP3 GT ISZERO PUSH3 0x1C8 JUMPI PUSH3 0x1C7 PUSH3 0x126 JUMP JUMPDEST JUMPDEST PUSH3 0x1D3 DUP3 PUSH3 0x115 JUMP JUMPDEST SWAP1 POP PUSH1 0x20 DUP2 ADD SWAP1 POP SWAP2 SWAP1 POP JUMP JUMPDEST PUSH1 0x0 JUMPDEST DUP4 DUP2 LT ISZERO PUSH3 0x200 JUMPI DUP1 DUP3 ADD MLOAD DUP2 DUP5 ADD MSTORE PUSH1 0x20 DUP2 ADD SWAP1 POP PUSH3 0x1E3 JUMP JUMPDEST PUSH1 0x0 DUP5 DUP5 ADD MSTORE POP POP POP POP JUMP JUMPDEST PUSH1 0x0 PUSH3 0x223 PUSH3 0x21D DUP5 PUSH3 0x1AA JUMP JUMPDEST PUSH3 0x18B JUMP JUMPDEST SWAP1 POP DUP3 DUP2 MSTORE PUSH1 0x20 DUP2 ADD DUP5 DUP5 DUP5 ADD GT ISZERO PUSH3 0x242 JUMPI PUSH3 0x241 PUSH3 0x110 JUMP JUMPDEST JUMPDEST PUSH3 0x24F DUP5 DUP3 DUP6 PUSH3 0x1E0 JUMP JUMPDEST POP SWAP4 SWAP3 POP POP POP JUMP JUMPDEST PUSH1 0x0 DUP3 PUSH1 0x1F DUP4 ADD SLT PUSH3 0x26F JUMPI PUSH3 0x26E PUSH3 0x10B JUMP JUMPDEST JUMPDEST DUP2 MLOAD PUSH3 0x281 DUP5 DUP3 PUSH1 0x20 DUP7 ADD PUSH3 0x20C JUMP JUMPDEST SWAP2 POP POP SWAP3 SWAP2 POP POP JUMP JUMPDEST PUSH1 0x0 DUP1 PUSH1 0x40 DUP4 DUP6 SUB SLT ISZERO PUSH3 0x2A4 JUMPI PUSH3 0x2A3 PUSH3 0x9C JUMP JUMPDEST JUMPDEST PUSH1 0x0 PUSH3 0x2B4 DUP6 DUP3 DUP7 ADD PUSH3 0xF4 JUMP JUMPDEST SWAP3 POP POP PUSH1 0x20 DUP4 ADD MLOAD PUSH8 0xFFFFFFFFFFFFFFFF DUP2 GT ISZERO PUSH3 0x2D8 JUMPI PUSH3 0x2D7 PUSH3 0xA1 JUMP JUMPDEST JUMPDEST PUSH3 0x2E6 DUP6 DUP3 DUP7 ADD PUSH3 0x257 JUMP JUMPDEST SWAP2 POP POP SWAP3 POP SWAP3 SWAP1 POP JUMP JUMPDEST PUSH1 0x0 DUP2 MLOAD SWAP1 POP SWAP2 SWAP1 POP JUMP JUMPDEST PUSH32 0x4E487B7100000000000000000000000000000000000000000000000000000000 PUSH1 0x0 MSTORE PUSH1 0x22 PUSH1 0x4 MSTORE PUSH1 0x24 PUSH1 0x0 REVERT JUMPDEST PUSH1 0x0 PUSH1 0x2 DUP3 DIV SWAP1 POP PUSH1 0x1 DUP3 AND DUP1 PUSH3 0x343 JUMPI PUSH1 0x7F DUP3 AND SWAP2 POP JUMPDEST PUSH1 0x20 DUP3 LT DUP2 SUB PUSH3 0x359 JUMPI PUSH3 0x358 PUSH3 0x2FB JUMP JUMPDEST JUMPDEST POP SWAP2 SWAP1 POP JUMP JUMPDEST PUSH1 0x0 DUP2 SWAP1 POP DUP2 PUSH1 0x0 MSTORE PUSH1 0x20 PUSH1 0x0 KECCAK256 SWAP1 POP SWAP2 SWAP1 POP JUMP JUMPDEST PUSH1 0x0 PUSH1 0x20 PUSH1 0x1F DUP4 ADD DIV SWAP1 POP SWAP2 SWAP1 POP JUMP JUMPDEST PUSH1 0x0 DUP3 DUP3 SHL SWAP1 POP SWAP3 SWAP2 POP POP JUMP JUMPDEST PUSH1 0x0 PUSH1 0x8 DUP4 MUL PUSH3 0x3C3 PUSH32 0xFFFFFFFFFFFFFFFFFFFFFFFFFFFFFFFFFFFFFFFFFFFFFFFFFFFFFFFFFFFFFFFF DUP3 PUSH3 0x384 JUMP JUMPDEST PUSH3 0x3CF DUP7 DUP4 PUSH3 0x384 JUMP JUMPDEST SWAP6 POP DUP1 NOT DUP5 AND SWAP4 POP DUP1 DUP7 AND DUP5 OR SWAP3 POP POP POP SWAP4 SWAP3 POP POP POP JUMP JUMPDEST PUSH1 0x0 DUP2 SWAP1 POP SWAP2 SWAP1 POP JUMP JUMPDEST PUSH1 0x0 DUP2 SWAP1 POP SWAP2 SWAP1 POP JUMP JUMPDEST PUSH1 0x0 PUSH3 0x41C PUSH3 0x416 PUSH3 0x410 DUP5 PUSH3 0x3E7 JUMP JUMPDEST PUSH3 0x3F1 JUMP JUMPDEST PUSH3 0x3E7 JUMP JUMPDEST SWAP1 POP SWAP2 SWAP1 POP JUMP JUMPDEST PUSH1 0x0 DUP2 SWAP1 POP SWAP2 SWAP1 POP JUMP JUMPDEST PUSH3 0x438 DUP4 PUSH3 0x3FB JUMP JUMPDEST PUSH3 0x450 PUSH3 0x447 DUP3 PUSH3 0x423 JUMP JUMPDEST DUP5 DUP5 SLOAD PUSH3 0x391 JUMP JUMPDEST DUP3 SSTORE POP POP POP POP JUMP JUMPDEST PUSH1 0x0 SWAP1 JUMP JUMPDEST PUSH3 0x467 PUSH3 0x458 JUMP JUMPDEST PUSH3 0x474 DUP2 DUP5 DUP5 PUSH3 0x42D JUMP JUMPDEST POP POP POP JUMP JUMPDEST JUMPDEST DUP2 DUP2 LT ISZERO PUSH3 0x49C JUMPI PUSH3 0x490 PUSH1 0x0 DUP3 PUSH3 0x45D JUMP JUMPDEST PUSH1 0x1 DUP2 ADD SWAP1 POP PUSH3 0x47A JUMP JUMPDEST POP POP JUMP JUMPDEST PUSH1 0x1F DUP3 GT ISZERO PUSH3 0x4EB JUMPI PUSH3 0x4B5 DUP2 PUSH3 0x35F JUMP JUMPDEST PUSH3 0x4C0 DUP5 PUSH3 0x374 JUMP JUMPDEST DUP2 ADD PUSH1 0x20 DUP6 LT ISZERO PUSH3 0x4D0 JUMPI DUP2 SWAP1 POP JUMPDEST PUSH3 0x4E8 PUSH3 0x4DF DUP6 PUSH3 0x374 JUMP JUMPDEST DUP4 ADD DUP3 PUSH3 0x479 JUMP JUMPDEST POP POP JUMPDEST POP POP POP JUMP JUMPDEST PUSH1 0x0 DUP3 DUP3 SHR SWAP1 POP SWAP3 SWAP2 POP POP JUMP JUMPDEST PUSH1 0x0 PUSH3 0x510 PUSH1 0x0 NOT DUP5 PUSH1 0x8 MUL PUSH3 0x4F0 JUMP JUMPDEST NOT DUP1 DUP4 AND SWAP2 POP POP SWAP3 SWAP2 POP POP JUMP JUMPDEST PUSH1 0x0 PUSH3 0x52B DUP4 DUP4 PUSH3 0x4FD JUMP JUMPDEST SWAP2 POP DUP3 PUSH1 0x2 MUL DUP3 OR SWAP1 POP SWAP3 SWAP2 POP POP JUMP JUMPDEST PUSH3 0x546 DUP3 PUSH3 0x2F0 JUMP JUMPDEST PUSH8 0xFFFFFFFFFFFFFFFF DUP2 GT ISZERO PUSH3 0x562 JUMPI PUSH3 0x561 PUSH3 0x126 JUMP JUMPDEST JUMPDEST PUSH3 0x56E DUP3 SLOAD PUSH3 0x32A JUMP JUMPDEST PUSH3 0x57B DUP3 DUP3 DUP6 PUSH3 0x4A0 JUMP JUMPDEST PUSH1 0x0 PUSH1 0x20 SWAP1 POP PUSH1 0x1F DUP4 GT PUSH1 0x1 DUP2 EQ PUSH3 0x5B3 JUMPI PUSH1 0x0 DUP5 ISZERO PUSH3 0x59E JUMPI DUP3 DUP8 ADD MLOAD SWAP1 POP JUMPDEST PUSH3 0x5AA DUP6 DUP3 PUSH3 0x51D JUMP JUMPDEST DUP7 SSTORE POP PUSH3 0x61A JUMP JUMPDEST PUSH1 0x1F NOT DUP5 AND PUSH3 0x5C3 DUP7 PUSH3 0x35F JUMP JUMPDEST PUSH1 0x0 JUMPDEST DUP3 DUP2 LT ISZERO PUSH3 0x5ED JUMPI DUP5 DUP10 ADD MLOAD DUP3 SSTORE PUSH1 0x1 DUP3 ADD SWAP2 POP PUSH1 0x20 DUP6 ADD SWAP5 POP PUSH1 0x20 DUP2 ADD SWAP1 POP PUSH3 0x5C6 JUMP JUMPDEST DUP7 DUP4 LT ISZERO PUSH3 0x60D JUMPI DUP5 DUP10 ADD MLOAD PUSH3 0x609 PUSH1 0x1F DUP10 AND DUP3 PUSH3 0x4FD JUMP JUMPDEST DUP4 SSTORE POP JUMPDEST PUSH1 0x1 PUSH1 0x2 DUP9 MUL ADD DUP9 SSTORE POP POP POP JUMPDEST POP POP POP POP POP POP JUMP JUMPDEST PUSH2 0x1CD5 DUP1 PUSH3 0x632 PUSH1 0x0 CODECOPY PUSH1 0x0 RETURN INVALID PUSH1 0x80 PUSH1 0x40 MSTORE PUSH1 0x4 CALLDATASIZE LT PUSH2 0xC6 JUMPI PUSH1 0x0 CALLDATALOAD PUSH1 0xE0 SHR DUP1 PUSH4 0x481C6A75 GT PUSH2 0x7F JUMPI DUP1 PUSH4 0x9ACE38C2 GT PUSH2 0x59 JUMPI DUP1 PUSH4 0x9ACE38C2 EQ PUSH2 0x2EC JUMPI DUP1 PUSH4 0x9D5F65FC EQ PUSH2 0x32B JUMPI DUP1 PUSH4 0xA329F8F6 EQ PUSH2 0x368 JUMPI DUP1 PUSH4 0xCC1E2CB0 EQ PUSH2 0x391 JUMPI PUSH2 0x11D JUMP JUMPDEST DUP1 PUSH4 0x481C6A75 EQ PUSH2 0x25B JUMPI DUP1 PUSH4 0x66D34A9B EQ PUSH2 0x286 JUMPI DUP1 PUSH4 0x80FC9C0E EQ PUSH2 0x2AF JUMPI PUSH2 0x11D JUMP JUMPDEST DUP1 PUSH4 0xFA8D54F EQ PUSH2 0x122 JUMPI DUP1 PUSH4 0x20EE128E EQ PUSH2 0x14B JUMPI DUP1 PUSH4 0x2A0E54BD EQ PUSH2 0x18A JUMPI DUP1 PUSH4 0x2E7700F0 EQ PUSH2 0x1C8 JUMPI DUP1 PUSH4 0x33EA3DC8 EQ PUSH2 0x1F3 JUMPI DUP1 PUSH4 0x474466C2 EQ PUSH2 0x232 JUMPI PUSH2 0x11D JUMP JUMPDEST CALLDATASIZE PUSH2 0x11D JUMPI CALLER PUSH20 0xFFFFFFFFFFFFFFFFFFFFFFFFFFFFFFFFFFFFFFFF AND PUSH32 0x90890809C654F11D6E72A28FA60149770A0D11EC6C92319D6CEB2BB0A4EA1A15 CALLVALUE SELFBALANCE PUSH1 0x40 MLOAD PUSH2 0x113 SWAP3 SWAP2 SWAP1 PUSH2 0x10FA JUMP JUMPDEST PUSH1 0x40 MLOAD DUP1 SWAP2 SUB SWAP1 LOG2 STOP JUMPDEST PUSH1 0x0 DUP1 REVERT JUMPDEST CALLVALUE DUP1 ISZERO PUSH2 0x12E JUMPI PUSH1 0x0 DUP1 REVERT JUMPDEST POP PUSH2 0x149 PUSH1 0x4 DUP1 CALLDATASIZE SUB DUP2 ADD SWAP1 PUSH2 0x144 SWAP2 SWAP1 PUSH2 0x1163 JUMP JUMPDEST PUSH2 0x3BC JUMP JUMPDEST STOP JUMPDEST CALLVALUE DUP1 ISZERO PUSH2 0x157 JUMPI PUSH1 0x0 DUP1 REVERT JUMPDEST POP PUSH2 0x172 PUSH1 0x4 DUP1 CALLDATASIZE SUB DUP2 ADD SWAP1 PUSH2 0x16D SWAP2 SWAP1 PUSH2 0x11EE JUMP JUMPDEST PUSH2 0x4CA JUMP JUMPDEST PUSH1 0x40 MLOAD PUSH2 0x181 SWAP4 SWAP3 SWAP2 SWAP1 PUSH2 0x1249 JUMP JUMPDEST PUSH1 0x40 MLOAD DUP1 SWAP2 SUB SWAP1 RETURN JUMPDEST CALLVALUE DUP1 ISZERO PUSH2 0x196 JUMPI PUSH1 0x0 DUP1 REVERT JUMPDEST POP PUSH2 0x1B1 PUSH1 0x4 DUP1 CALLDATASIZE SUB DUP2 ADD SWAP1 PUSH2 0x1AC SWAP2 SWAP1 PUSH2 0x11EE JUMP JUMPDEST PUSH2 0x51E JUMP JUMPDEST PUSH1 0x40 MLOAD PUSH2 0x1BF SWAP3 SWAP2 SWAP1 PUSH2 0x128F JUMP JUMPDEST PUSH1 0x40 MLOAD DUP1 SWAP2 SUB SWAP1 RETURN JUMPDEST CALLVALUE DUP1 ISZERO PUSH2 0x1D4 JUMPI PUSH1 0x0 DUP1 REVERT JUMPDEST POP PUSH2 0x1DD PUSH2 0x57F JUMP JUMPDEST PUSH1 0x40 MLOAD PUSH2 0x1EA SWAP2 SWAP1 PUSH2 0x12B8 JUMP JUMPDEST PUSH1 0x40 MLOAD DUP1 SWAP2 SUB SWAP1 RETURN JUMPDEST CALLVALUE DUP1 ISZERO PUSH2 0x1FF JUMPI PUSH1 0x0 DUP1 REVERT JUMPDEST POP PUSH2 0x21A PUSH1 0x4 DUP1 CALLDATASIZE SUB DUP2 ADD SWAP1 PUSH2 0x215 SWAP2 SWAP1 PUSH2 0x1163 JUMP JUMPDEST PUSH2 0x58B JUMP JUMPDEST PUSH1 0x40 MLOAD PUSH2 0x229 SWAP4 SWAP3 SWAP2 SWAP1 PUSH2 0x1363 JUMP JUMPDEST PUSH1 0x40 MLOAD DUP1 SWAP2 SUB SWAP1 RETURN JUMPDEST CALLVALUE DUP1 ISZERO PUSH2 0x23E JUMPI PUSH1 0x0 DUP1 REVERT JUMPDEST POP PUSH2 0x259 PUSH1 0x4 DUP1 CALLDATASIZE SUB DUP2 ADD SWAP1 PUSH2 0x254 SWAP2 SWAP1 PUSH2 0x11EE JUMP JUMPDEST PUSH2 0x67D JUMP JUMPDEST STOP JUMPDEST CALLVALUE DUP1 ISZERO PUSH2 0x267 JUMPI PUSH1 0x0 DUP1 REVERT JUMPDEST POP PUSH2 0x270 PUSH2 0xABE JUMP JUMPDEST PUSH1 0x40 MLOAD PUSH2 0x27D SWAP2 SWAP1 PUSH2 0x13A1 JUMP JUMPDEST PUSH1 0x40 MLOAD DUP1 SWAP2 SUB SWAP1 RETURN JUMPDEST CALLVALUE DUP1 ISZERO PUSH2 0x292 JUMPI PUSH1 0x0 DUP1 REVERT JUMPDEST POP PUSH2 0x2AD PUSH1 0x4 DUP1 CALLDATASIZE SUB DUP2 ADD SWAP1 PUSH2 0x2A8 SWAP2 SWAP1 PUSH2 0x14F1 JUMP JUMPDEST PUSH2 0xAE4 JUMP JUMPDEST STOP JUMPDEST CALLVALUE DUP1 ISZERO PUSH2 0x2BB JUMPI PUSH1 0x0 DUP1 REVERT JUMPDEST POP PUSH2 0x2D6 PUSH1 0x4 DUP1 CALLDATASIZE SUB DUP2 ADD SWAP1 PUSH2 0x2D1 SWAP2 SWAP1 PUSH2 0x1560 JUMP JUMPDEST PUSH2 0xC20 JUMP JUMPDEST PUSH1 0x40 MLOAD PUSH2 0x2E3 SWAP2 SWAP1 PUSH2 0x12B8 JUMP JUMPDEST PUSH1 0x40 MLOAD DUP1 SWAP2 SUB SWAP1 RETURN JUMPDEST CALLVALUE DUP1 ISZERO PUSH2 0x2F8 JUMPI PUSH1 0x0 DUP1 REVERT JUMPDEST POP PUSH2 0x313 PUSH1 0x4 DUP1 CALLDATASIZE SUB DUP2 ADD SWAP1 PUSH2 0x30E SWAP2 SWAP1 PUSH2 0x1163 JUMP JUMPDEST PUSH2 0xD54 JUMP JUMPDEST PUSH1 0x40 MLOAD PUSH2 0x322 SWAP4 SWAP3 SWAP2 SWAP1 PUSH2 0x1363 JUMP JUMPDEST PUSH1 0x40 MLOAD DUP1 SWAP2 SUB SWAP1 RETURN JUMPDEST CALLVALUE DUP1 ISZERO PUSH2 0x337 JUMPI PUSH1 0x0 DUP1 REVERT JUMPDEST POP PUSH2 0x352 PUSH1 0x4 DUP1 CALLDATASIZE SUB DUP2 ADD SWAP1 PUSH2 0x34D SWAP2 SWAP1 PUSH2 0x1560 JUMP JUMPDEST PUSH2 0xE36 JUMP JUMPDEST PUSH1 0x40 MLOAD PUSH2 0x35F SWAP2 SWAP1 PUSH2 0x169C JUMP JUMPDEST PUSH1 0x40 MLOAD DUP1 SWAP2 SUB SWAP1 RETURN JUMPDEST CALLVALUE DUP1 ISZERO PUSH2 0x374 JUMPI PUSH1 0x0 DUP1 REVERT JUMPDEST POP PUSH2 0x38F PUSH1 0x4 DUP1 CALLDATASIZE SUB DUP2 ADD SWAP1 PUSH2 0x38A SWAP2 SWAP1 PUSH2 0x16BE JUMP JUMPDEST PUSH2 0xF03 JUMP JUMPDEST STOP JUMPDEST CALLVALUE DUP1 ISZERO PUSH2 0x39D JUMPI PUSH1 0x0 DUP1 REVERT JUMPDEST POP PUSH2 0x3A6 PUSH2 0x1053 JUMP JUMPDEST PUSH1 0x40 MLOAD PUSH2 0x3B3 SWAP2 SWAP1 PUSH2 0x1766 JUMP JUMPDEST PUSH1 0x40 MLOAD DUP1 SWAP2 SUB SWAP1 RETURN JUMPDEST PUSH1 0x8 PUSH1 0x1 PUSH1 0x0 CALLER PUSH20 0xFFFFFFFFFFFFFFFFFFFFFFFFFFFFFFFFFFFFFFFF AND PUSH20 0xFFFFFFFFFFFFFFFFFFFFFFFFFFFFFFFFFFFFFFFF AND DUP2 MSTORE PUSH1 0x20 ADD SWAP1 DUP2 MSTORE PUSH1 0x20 ADD PUSH1 0x0 KECCAK256 DUP1 SLOAD SWAP1 POP LT PUSH2 0x40B JUMPI PUSH1 0x0 DUP1 REVERT JUMPDEST PUSH1 0x1 PUSH1 0x0 CALLER PUSH20 0xFFFFFFFFFFFFFFFFFFFFFFFFFFFFFFFFFFFFFFFF AND PUSH20 0xFFFFFFFFFFFFFFFFFFFFFFFFFFFFFFFFFFFFFFFF AND DUP2 MSTORE PUSH1 0x20 ADD SWAP1 DUP2 MSTORE PUSH1 0x20 ADD PUSH1 0x0 KECCAK256 PUSH1 0x40 MLOAD DUP1 PUSH1 0x60 ADD PUSH1 0x40 MSTORE DUP1 TIMESTAMP DUP2 MSTORE PUSH1 0x20 ADD DUP4 DUP2 MSTORE PUSH1 0x20 ADD PUSH1 0x0 ISZERO ISZERO DUP2 MSTORE POP SWAP1 DUP1 PUSH1 0x1 DUP2 SLOAD ADD DUP1 DUP3 SSTORE DUP1 SWAP2 POP POP PUSH1 0x1 SWAP1 SUB SWAP1 PUSH1 0x0 MSTORE PUSH1 0x20 PUSH1 0x0 KECCAK256 SWAP1 PUSH1 0x3 MUL ADD PUSH1 0x0 SWAP1 SWAP2 SWAP1 SWAP2 SWAP1 SWAP2 POP PUSH1 0x0 DUP3 ADD MLOAD DUP2 PUSH1 0x0 ADD SSTORE PUSH1 0x20 DUP3 ADD MLOAD DUP2 PUSH1 0x1 ADD SSTORE PUSH1 0x40 DUP3 ADD MLOAD DUP2 PUSH1 0x2 ADD PUSH1 0x0 PUSH2 0x100 EXP DUP2 SLOAD DUP2 PUSH1 0xFF MUL NOT AND SWAP1 DUP4 ISZERO ISZERO MUL OR SWAP1 SSTORE POP POP POP POP JUMP JUMPDEST PUSH1 0x1 PUSH1 0x20 MSTORE DUP2 PUSH1 0x0 MSTORE PUSH1 0x40 PUSH1 0x0 KECCAK256 DUP2 DUP2 SLOAD DUP2 LT PUSH2 0x4E6 JUMPI PUSH1 0x0 DUP1 REVERT JUMPDEST SWAP1 PUSH1 0x0 MSTORE PUSH1 0x20 PUSH1 0x0 KECCAK256 SWAP1 PUSH1 0x3 MUL ADD PUSH1 0x0 SWAP2 POP SWAP2 POP POP DUP1 PUSH1 0x0 ADD SLOAD SWAP1 DUP1 PUSH1 0x1 ADD SLOAD SWAP1 DUP1 PUSH1 0x2 ADD PUSH1 0x0 SWAP1 SLOAD SWAP1 PUSH2 0x100 EXP SWAP1 DIV PUSH1 0xFF AND SWAP1 POP DUP4 JUMP JUMPDEST PUSH1 0x2 PUSH1 0x20 MSTORE DUP2 PUSH1 0x0 MSTORE PUSH1 0x40 PUSH1 0x0 KECCAK256 DUP2 DUP2 SLOAD DUP2 LT PUSH2 0x53A JUMPI PUSH1 0x0 DUP1 REVERT JUMPDEST SWAP1 PUSH1 0x0 MSTORE PUSH1 0x20 PUSH1 0x0 KECCAK256 SWAP1 PUSH1 0x2 MUL ADD PUSH1 0x0 SWAP2 POP SWAP2 POP POP DUP1 PUSH1 0x0 ADD PUSH1 0x0 SWAP1 SLOAD SWAP1 PUSH2 0x100 EXP SWAP1 DIV PUSH20 0xFFFFFFFFFFFFFFFFFFFFFFFFFFFFFFFFFFFFFFFF AND SWAP1 DUP1 PUSH1 0x1 ADD SLOAD SWAP1 POP DUP3 JUMP JUMPDEST PUSH1 0x0 DUP1 DUP1 SLOAD SWAP1 POP SWAP1 POP SWAP1 JUMP JUMPDEST PUSH1 0x0 DUP1 PUSH1 0x60 PUSH1 0x0 DUP1 DUP6 DUP2 SLOAD DUP2 LT PUSH2 0x5A5 JUMPI PUSH2 0x5A4 PUSH2 0x1788 JUMP JUMPDEST JUMPDEST SWAP1 PUSH1 0x0 MSTORE PUSH1 0x20 PUSH1 0x0 KECCAK256 SWAP1 PUSH1 0x3 MUL ADD SWAP1 POP DUP1 PUSH1 0x0 ADD PUSH1 0x0 SWAP1 SLOAD SWAP1 PUSH2 0x100 EXP SWAP1 DIV PUSH20 0xFFFFFFFFFFFFFFFFFFFFFFFFFFFFFFFFFFFFFFFF AND DUP2 PUSH1 0x1 ADD SLOAD DUP3 PUSH1 0x2 ADD DUP1 DUP1 SLOAD PUSH2 0x5EF SWAP1 PUSH2 0x17E6 JUMP JUMPDEST DUP1 PUSH1 0x1F ADD PUSH1 0x20 DUP1 SWAP2 DIV MUL PUSH1 0x20 ADD PUSH1 0x40 MLOAD SWAP1 DUP2 ADD PUSH1 0x40 MSTORE DUP1 SWAP3 SWAP2 SWAP1 DUP2 DUP2 MSTORE PUSH1 0x20 ADD DUP3 DUP1 SLOAD PUSH2 0x61B SWAP1 PUSH2 0x17E6 JUMP JUMPDEST DUP1 ISZERO PUSH2 0x668 JUMPI DUP1 PUSH1 0x1F LT PUSH2 0x63D JUMPI PUSH2 0x100 DUP1 DUP4 SLOAD DIV MUL DUP4 MSTORE SWAP2 PUSH1 0x20 ADD SWAP2 PUSH2 0x668 JUMP JUMPDEST DUP3 ADD SWAP2 SWAP1 PUSH1 0x0 MSTORE PUSH1 0x20 PUSH1 0x0 KECCAK256 SWAP1 JUMPDEST DUP2 SLOAD DUP2 MSTORE SWAP1 PUSH1 0x1 ADD SWAP1 PUSH1 0x20 ADD DUP1 DUP4 GT PUSH2 0x64B JUMPI DUP3 SWAP1 SUB PUSH1 0x1F AND DUP3 ADD SWAP2 JUMPDEST POP POP POP POP POP SWAP1 POP SWAP4 POP SWAP4 POP SWAP4 POP POP SWAP2 SWAP4 SWAP1 SWAP3 POP JUMP JUMPDEST PUSH1 0x4 PUSH1 0x0 SWAP1 SLOAD SWAP1 PUSH2 0x100 EXP SWAP1 DIV PUSH20 0xFFFFFFFFFFFFFFFFFFFFFFFFFFFFFFFFFFFFFFFF AND PUSH20 0xFFFFFFFFFFFFFFFFFFFFFFFFFFFFFFFFFFFFFFFF AND CALLER PUSH20 0xFFFFFFFFFFFFFFFFFFFFFFFFFFFFFFFFFFFFFFFF AND EQ PUSH2 0x70D JUMPI PUSH1 0x40 MLOAD PUSH32 0x8C379A000000000000000000000000000000000000000000000000000000000 DUP2 MSTORE PUSH1 0x4 ADD PUSH2 0x704 SWAP1 PUSH2 0x1863 JUMP JUMPDEST PUSH1 0x40 MLOAD DUP1 SWAP2 SUB SWAP1 REVERT JUMPDEST PUSH1 0x1 PUSH1 0x0 DUP4 PUSH20 0xFFFFFFFFFFFFFFFFFFFFFFFFFFFFFFFFFFFFFFFF AND PUSH20 0xFFFFFFFFFFFFFFFFFFFFFFFFFFFFFFFFFFFFFFFF AND DUP2 MSTORE PUSH1 0x20 ADD SWAP1 DUP2 MSTORE PUSH1 0x20 ADD PUSH1 0x0 KECCAK256 DUP2 DUP2 SLOAD DUP2 LT PUSH2 0x75E JUMPI PUSH2 0x75D PUSH2 0x1788 JUMP JUMPDEST JUMPDEST SWAP1 PUSH1 0x0 MSTORE PUSH1 0x20 PUSH1 0x0 KECCAK256 SWAP1 PUSH1 0x3 MUL ADD PUSH1 0x0 ADD SLOAD DUP3 PUSH20 0xFFFFFFFFFFFFFFFFFFFFFFFFFFFFFFFFFFFFFFFF AND CALLER PUSH20 0xFFFFFFFFFFFFFFFFFFFFFFFFFFFFFFFFFFFFFFFF AND PUSH32 0x6C3B340EA4063C1EBF49AFE1D61892DE36FAD954E56FEBB4C570600BD875DD28 PUSH1 0x1 PUSH1 0x0 DUP8 PUSH20 0xFFFFFFFFFFFFFFFFFFFFFFFFFFFFFFFFFFFFFFFF AND PUSH20 0xFFFFFFFFFFFFFFFFFFFFFFFFFFFFFFFFFFFFFFFF AND DUP2 MSTORE PUSH1 0x20 ADD SWAP1 DUP2 MSTORE PUSH1 0x20 ADD PUSH1 0x0 KECCAK256 DUP6 DUP2 SLOAD DUP2 LT PUSH2 0x810 JUMPI PUSH2 0x80F PUSH2 0x1788 JUMP JUMPDEST JUMPDEST SWAP1 PUSH1 0x0 MSTORE PUSH1 0x20 PUSH1 0x0 KECCAK256 SWAP1 PUSH1 0x3 MUL ADD PUSH1 0x1 ADD SLOAD PUSH1 0x40 MLOAD PUSH2 0x82F SWAP2 SWAP1 PUSH2 0x12B8 JUMP JUMPDEST PUSH1 0x40 MLOAD DUP1 SWAP2 SUB SWAP1 LOG4 PUSH1 0x0 DUP2 SWAP1 POP JUMPDEST PUSH1 0x1 DUP1 PUSH1 0x0 DUP6 PUSH20 0xFFFFFFFFFFFFFFFFFFFFFFFFFFFFFFFFFFFFFFFF AND PUSH20 0xFFFFFFFFFFFFFFFFFFFFFFFFFFFFFFFFFFFFFFFF AND DUP2 MSTORE PUSH1 0x20 ADD SWAP1 DUP2 MSTORE PUSH1 0x20 ADD PUSH1 0x0 KECCAK256 DUP1 SLOAD SWAP1 POP PUSH2 0x88B SWAP2 SWAP1 PUSH2 0x18B2 JUMP JUMPDEST DUP2 LT ISZERO PUSH2 0x9B3 JUMPI PUSH1 0x1 PUSH1 0x0 DUP5 PUSH20 0xFFFFFFFFFFFFFFFFFFFFFFFFFFFFFFFFFFFFFFFF AND PUSH20 0xFFFFFFFFFFFFFFFFFFFFFFFFFFFFFFFFFFFFFFFF AND DUP2 MSTORE PUSH1 0x20 ADD SWAP1 DUP2 MSTORE PUSH1 0x20 ADD PUSH1 0x0 KECCAK256 PUSH1 0x1 DUP3 PUSH2 0x8DE SWAP2 SWAP1 PUSH2 0x18E6 JUMP JUMPDEST DUP2 SLOAD DUP2 LT PUSH2 0x8EF JUMPI PUSH2 0x8EE PUSH2 0x1788 JUMP JUMPDEST JUMPDEST SWAP1 PUSH1 0x0 MSTORE PUSH1 0x20 PUSH1 0x0 KECCAK256 SWAP1 PUSH1 0x3 MUL ADD PUSH1 0x1 PUSH1 0x0 DUP6 PUSH20 0xFFFFFFFFFFFFFFFFFFFFFFFFFFFFFFFFFFFFFFFF AND PUSH20 0xFFFFFFFFFFFFFFFFFFFFFFFFFFFFFFFFFFFFFFFF AND DUP2 MSTORE PUSH1 0x20 ADD SWAP1 DUP2 MSTORE PUSH1 0x20 ADD PUSH1 0x0 KECCAK256 DUP3 DUP2 SLOAD DUP2 LT PUSH2 0x94E JUMPI PUSH2 0x94D PUSH2 0x1788 JUMP JUMPDEST JUMPDEST SWAP1 PUSH1 0x0 MSTORE PUSH1 0x20 PUSH1 0x0 KECCAK256 SWAP1 PUSH1 0x3 MUL ADD PUSH1 0x0 DUP3 ADD SLOAD DUP2 PUSH1 0x0 ADD SSTORE PUSH1 0x1 DUP3 ADD SLOAD DUP2 PUSH1 0x1 ADD SSTORE PUSH1 0x2 DUP3 ADD PUSH1 0x0 SWAP1 SLOAD SWAP1 PUSH2 0x100 EXP SWAP1 DIV PUSH1 0xFF AND DUP2 PUSH1 0x2 ADD PUSH1 0x0 PUSH2 0x100 EXP DUP2 SLOAD DUP2 PUSH1 0xFF MUL NOT AND SWAP1 DUP4 ISZERO ISZERO MUL OR SWAP1 SSTORE POP SWAP1 POP POP DUP1 DUP1 PUSH2 0x9AB SWAP1 PUSH2 0x191A JUMP JUMPDEST SWAP2 POP POP PUSH2 0x83D JUMP JUMPDEST POP PUSH1 0x1 PUSH1 0x0 DUP4 PUSH20 0xFFFFFFFFFFFFFFFFFFFFFFFFFFFFFFFFFFFFFFFF AND PUSH20 0xFFFFFFFFFFFFFFFFFFFFFFFFFFFFFFFFFFFFFFFF AND DUP2 MSTORE PUSH1 0x20 ADD SWAP1 DUP2 MSTORE PUSH1 0x20 ADD PUSH1 0x0 KECCAK256 DUP1 SLOAD DUP1 PUSH2 0xA03 JUMPI PUSH2 0xA02 PUSH2 0x1962 JUMP JUMPDEST JUMPDEST PUSH1 0x1 SWAP1 SUB DUP2 DUP2 SWAP1 PUSH1 0x0 MSTORE PUSH1 0x20 PUSH1 0x0 KECCAK256 SWAP1 PUSH1 0x3 MUL ADD PUSH1 0x0 DUP1 DUP3 ADD PUSH1 0x0 SWAP1 SSTORE PUSH1 0x1 DUP3 ADD PUSH1 0x0 SWAP1 SSTORE PUSH1 0x2 DUP3 ADD PUSH1 0x0 PUSH2 0x100 EXP DUP2 SLOAD SWAP1 PUSH1 0xFF MUL NOT AND SWAP1 SSTORE POP POP SWAP1 SSTORE PUSH1 0x1 DUP1 PUSH1 0x0 DUP5 PUSH20 0xFFFFFFFFFFFFFFFFFFFFFFFFFFFFFFFFFFFFFFFF AND PUSH20 0xFFFFFFFFFFFFFFFFFFFFFFFFFFFFFFFFFFFFFFFF AND DUP2 MSTORE PUSH1 0x20 ADD SWAP1 DUP2 MSTORE PUSH1 0x20 ADD PUSH1 0x0 KECCAK256 DUP3 DUP2 SLOAD DUP2 LT PUSH2 0xA92 JUMPI PUSH2 0xA91 PUSH2 0x1788 JUMP JUMPDEST JUMPDEST SWAP1 PUSH1 0x0 MSTORE PUSH1 0x20 PUSH1 0x0 KECCAK256 SWAP1 PUSH1 0x3 MUL ADD PUSH1 0x2 ADD PUSH1 0x0 PUSH2 0x100 EXP DUP2 SLOAD DUP2 PUSH1 0xFF MUL NOT AND SWAP1 DUP4 ISZERO ISZERO MUL OR SWAP1 SSTORE POP POP POP JUMP JUMPDEST PUSH1 0x4 PUSH1 0x0 SWAP1 SLOAD SWAP1 PUSH2 0x100 EXP SWAP1 DIV PUSH20 0xFFFFFFFFFFFFFFFFFFFFFFFFFFFFFFFFFFFFFFFF AND DUP2 JUMP JUMPDEST PUSH1 0x0 DUP1 DUP1 SLOAD SWAP1 POP SWAP1 POP PUSH1 0x0 PUSH1 0x40 MLOAD DUP1 PUSH1 0x60 ADD PUSH1 0x40 MSTORE DUP1 DUP7 PUSH20 0xFFFFFFFFFFFFFFFFFFFFFFFFFFFFFFFFFFFFFFFF AND DUP2 MSTORE PUSH1 0x20 ADD DUP6 DUP2 MSTORE PUSH1 0x20 ADD DUP5 DUP2 MSTORE POP SWAP1 DUP1 PUSH1 0x1 DUP2 SLOAD ADD DUP1 DUP3 SSTORE DUP1 SWAP2 POP POP PUSH1 0x1 SWAP1 SUB SWAP1 PUSH1 0x0 MSTORE PUSH1 0x20 PUSH1 0x0 KECCAK256 SWAP1 PUSH1 0x3 MUL ADD PUSH1 0x0 SWAP1 SWAP2 SWAP1 SWAP2 SWAP1 SWAP2 POP PUSH1 0x0 DUP3 ADD MLOAD DUP2 PUSH1 0x0 ADD PUSH1 0x0 PUSH2 0x100 EXP DUP2 SLOAD DUP2 PUSH20 0xFFFFFFFFFFFFFFFFFFFFFFFFFFFFFFFFFFFFFFFF MUL NOT AND SWAP1 DUP4 PUSH20 0xFFFFFFFFFFFFFFFFFFFFFFFFFFFFFFFFFFFFFFFF AND MUL OR SWAP1 SSTORE POP PUSH1 0x20 DUP3 ADD MLOAD DUP2 PUSH1 0x1 ADD SSTORE PUSH1 0x40 DUP3 ADD MLOAD DUP2 PUSH1 0x2 ADD SWAP1 DUP2 PUSH2 0xBAF SWAP2 SWAP1 PUSH2 0x1B3D JUMP JUMPDEST POP POP POP DUP4 PUSH20 0xFFFFFFFFFFFFFFFFFFFFFFFFFFFFFFFFFFFFFFFF AND DUP2 CALLER PUSH20 0xFFFFFFFFFFFFFFFFFFFFFFFFFFFFFFFFFFFFFFFF AND PUSH32 0xFF161496BB9879E11F4A70B7DF1B7BA081936284851B65942EF4D782F9D39BEA DUP7 DUP7 PUSH1 0x40 MLOAD PUSH2 0xC12 SWAP3 SWAP2 SWAP1 PUSH2 0x1C0F JUMP JUMPDEST PUSH1 0x40 MLOAD DUP1 SWAP2 SUB SWAP1 LOG4 POP POP POP POP JUMP JUMPDEST PUSH1 0x0 DUP1 PUSH1 0x0 SWAP1 POP PUSH1 0x0 JUMPDEST PUSH1 0x2 PUSH1 0x0 DUP6 PUSH20 0xFFFFFFFFFFFFFFFFFFFFFFFFFFFFFFFFFFFFFFFF AND PUSH20 0xFFFFFFFFFFFFFFFFFFFFFFFFFFFFFFFFFFFFFFFF AND DUP2 MSTORE PUSH1 0x20 ADD SWAP1 DUP2 MSTORE PUSH1 0x20 ADD PUSH1 0x0 KECCAK256 DUP1 SLOAD SWAP1 POP DUP2 LT ISZERO PUSH2 0xCF7 JUMPI PUSH1 0x2 PUSH1 0x0 DUP6 PUSH20 0xFFFFFFFFFFFFFFFFFFFFFFFFFFFFFFFFFFFFFFFF AND PUSH20 0xFFFFFFFFFFFFFFFFFFFFFFFFFFFFFFFFFFFFFFFF AND DUP2 MSTORE PUSH1 0x20 ADD SWAP1 DUP2 MSTORE PUSH1 0x20 ADD PUSH1 0x0 KECCAK256 DUP2 DUP2 SLOAD DUP2 LT PUSH2 0xCC5 JUMPI PUSH2 0xCC4 PUSH2 0x1788 JUMP JUMPDEST JUMPDEST SWAP1 PUSH1 0x0 MSTORE PUSH1 0x20 PUSH1 0x0 KECCAK256 SWAP1 PUSH1 0x2 MUL ADD PUSH1 0x1 ADD SLOAD DUP3 PUSH2 0xCE2 SWAP2 SWAP1 PUSH2 0x18E6 JUMP JUMPDEST SWAP2 POP DUP1 DUP1 PUSH2 0xCEF SWAP1 PUSH2 0x191A JUMP JUMPDEST SWAP2 POP POP PUSH2 0xC2A JUMP JUMPDEST POP PUSH1 0x0 PUSH1 0x2 PUSH1 0x0 DUP6 PUSH20 0xFFFFFFFFFFFFFFFFFFFFFFFFFFFFFFFFFFFFFFFF AND PUSH20 0xFFFFFFFFFFFFFFFFFFFFFFFFFFFFFFFFFFFFFFFF AND DUP2 MSTORE PUSH1 0x20 ADD SWAP1 DUP2 MSTORE PUSH1 0x20 ADD PUSH1 0x0 KECCAK256 DUP1 SLOAD SWAP1 POP DUP3 PUSH2 0xD48 SWAP2 SWAP1 PUSH2 0x1C6E JUMP JUMPDEST SWAP1 POP DUP1 SWAP3 POP POP POP SWAP2 SWAP1 POP JUMP JUMPDEST PUSH1 0x0 DUP2 DUP2 SLOAD DUP2 LT PUSH2 0xD64 JUMPI PUSH1 0x0 DUP1 REVERT JUMPDEST SWAP1 PUSH1 0x0 MSTORE PUSH1 0x20 PUSH1 0x0 KECCAK256 SWAP1 PUSH1 0x3 MUL ADD PUSH1 0x0 SWAP2 POP SWAP1 POP DUP1 PUSH1 0x0 ADD PUSH1 0x0 SWAP1 SLOAD SWAP1 PUSH2 0x100 EXP SWAP1 DIV PUSH20 0xFFFFFFFFFFFFFFFFFFFFFFFFFFFFFFFFFFFFFFFF AND SWAP1 DUP1 PUSH1 0x1 ADD SLOAD SWAP1 DUP1 PUSH1 0x2 ADD DUP1 SLOAD PUSH2 0xDB3 SWAP1 PUSH2 0x17E6 JUMP JUMPDEST DUP1 PUSH1 0x1F ADD PUSH1 0x20 DUP1 SWAP2 DIV MUL PUSH1 0x20 ADD PUSH1 0x40 MLOAD SWAP1 DUP2 ADD PUSH1 0x40 MSTORE DUP1 SWAP3 SWAP2 SWAP1 DUP2 DUP2 MSTORE PUSH1 0x20 ADD DUP3 DUP1 SLOAD PUSH2 0xDDF SWAP1 PUSH2 0x17E6 JUMP JUMPDEST DUP1 ISZERO PUSH2 0xE2C JUMPI DUP1 PUSH1 0x1F LT PUSH2 0xE01 JUMPI PUSH2 0x100 DUP1 DUP4 SLOAD DIV MUL DUP4 MSTORE SWAP2 PUSH1 0x20 ADD SWAP2 PUSH2 0xE2C JUMP JUMPDEST DUP3 ADD SWAP2 SWAP1 PUSH1 0x0 MSTORE PUSH1 0x20 PUSH1 0x0 KECCAK256 SWAP1 JUMPDEST DUP2 SLOAD DUP2 MSTORE SWAP1 PUSH1 0x1 ADD SWAP1 PUSH1 0x20 ADD DUP1 DUP4 GT PUSH2 0xE0F JUMPI DUP3 SWAP1 SUB PUSH1 0x1F AND DUP3 ADD SWAP2 JUMPDEST POP POP POP POP POP SWAP1 POP DUP4 JUMP JUMPDEST PUSH1 0x60 PUSH1 0x1 PUSH1 0x0 DUP4 PUSH20 0xFFFFFFFFFFFFFFFFFFFFFFFFFFFFFFFFFFFFFFFF AND PUSH20 0xFFFFFFFFFFFFFFFFFFFFFFFFFFFFFFFFFFFFFFFF AND DUP2 MSTORE PUSH1 0x20 ADD SWAP1 DUP2 MSTORE PUSH1 0x20 ADD PUSH1 0x0 KECCAK256 DUP1 SLOAD DUP1 PUSH1 0x20 MUL PUSH1 0x20 ADD PUSH1 0x40 MLOAD SWAP1 DUP2 ADD PUSH1 0x40 MSTORE DUP1 SWAP3 SWAP2 SWAP1 DUP2 DUP2 MSTORE PUSH1 0x20 ADD PUSH1 0x0 SWAP1 JUMPDEST DUP3 DUP3 LT ISZERO PUSH2 0xEF8 JUMPI DUP4 DUP3 SWAP1 PUSH1 0x0 MSTORE PUSH1 0x20 PUSH1 0x0 KECCAK256 SWAP1 PUSH1 0x3 MUL ADD PUSH1 0x40 MLOAD DUP1 PUSH1 0x60 ADD PUSH1 0x40 MSTORE SWAP1 DUP2 PUSH1 0x0 DUP3 ADD SLOAD DUP2 MSTORE PUSH1 0x20 ADD PUSH1 0x1 DUP3 ADD SLOAD DUP2 MSTORE PUSH1 0x20 ADD PUSH1 0x2 DUP3 ADD PUSH1 0x0 SWAP1 SLOAD SWAP1 PUSH2 0x100 EXP SWAP1 DIV PUSH1 0xFF AND ISZERO ISZERO ISZERO ISZERO DUP2 MSTORE POP POP DUP2 MSTORE PUSH1 0x20 ADD SWAP1 PUSH1 0x1 ADD SWAP1 PUSH2 0xE97 JUMP JUMPDEST POP POP POP POP SWAP1 POP SWAP2 SWAP1 POP JUMP JUMPDEST DUP2 PUSH20 0xFFFFFFFFFFFFFFFFFFFFFFFFFFFFFFFFFFFFFFFF AND DUP4 PUSH20 0xFFFFFFFFFFFFFFFFFFFFFFFFFFFFFFFFFFFFFFFF AND PUSH32 0x5435029AE8E53F5303B6DBDA07BE9BEB09AE106923C28BF30DC3C46852588F04 DUP4 PUSH1 0x40 MLOAD PUSH2 0xF60 SWAP2 SWAP1 PUSH2 0x12B8 JUMP JUMPDEST PUSH1 0x40 MLOAD DUP1 SWAP2 SUB SWAP1 LOG3 PUSH1 0x2 PUSH1 0x0 DUP4 PUSH20 0xFFFFFFFFFFFFFFFFFFFFFFFFFFFFFFFFFFFFFFFF AND PUSH20 0xFFFFFFFFFFFFFFFFFFFFFFFFFFFFFFFFFFFFFFFF AND DUP2 MSTORE PUSH1 0x20 ADD SWAP1 DUP2 MSTORE PUSH1 0x20 ADD PUSH1 0x0 KECCAK256 PUSH1 0x40 MLOAD DUP1 PUSH1 0x40 ADD PUSH1 0x40 MSTORE DUP1 DUP6 PUSH20 0xFFFFFFFFFFFFFFFFFFFFFFFFFFFFFFFFFFFFFFFF AND DUP2 MSTORE PUSH1 0x20 ADD DUP4 DUP2 MSTORE POP SWAP1 DUP1 PUSH1 0x1 DUP2 SLOAD ADD DUP1 DUP3 SSTORE DUP1 SWAP2 POP POP PUSH1 0x1 SWAP1 SUB SWAP1 PUSH1 0x0 MSTORE PUSH1 0x20 PUSH1 0x0 KECCAK256 SWAP1 PUSH1 0x2 MUL ADD PUSH1 0x0 SWAP1 SWAP2 SWAP1 SWAP2 SWAP1 SWAP2 POP PUSH1 0x0 DUP3 ADD MLOAD DUP2 PUSH1 0x0 ADD PUSH1 0x0 PUSH2 0x100 EXP DUP2 SLOAD DUP2 PUSH20 0xFFFFFFFFFFFFFFFFFFFFFFFFFFFFFFFFFFFFFFFF MUL NOT AND SWAP1 DUP4 PUSH20 0xFFFFFFFFFFFFFFFFFFFFFFFFFFFFFFFFFFFFFFFF AND MUL OR SWAP1 SSTORE POP PUSH1 0x20 DUP3 ADD MLOAD DUP2 PUSH1 0x1 ADD SSTORE POP POP POP POP POP JUMP JUMPDEST PUSH1 0x3 DUP1 SLOAD PUSH2 0x1060 SWAP1 PUSH2 0x17E6 JUMP JUMPDEST DUP1 PUSH1 0x1F ADD PUSH1 0x20 DUP1 SWAP2 DIV MUL PUSH1 0x20 ADD PUSH1 0x40 MLOAD SWAP1 DUP2 ADD PUSH1 0x40 MSTORE DUP1 SWAP3 SWAP2 SWAP1 DUP2 DUP2 MSTORE PUSH1 0x20 ADD DUP3 DUP1 SLOAD PUSH2 0x108C SWAP1 PUSH2 0x17E6 JUMP JUMPDEST DUP1 ISZERO PUSH2 0x10D9 JUMPI DUP1 PUSH1 0x1F LT PUSH2 0x10AE JUMPI PUSH2 0x100 DUP1 DUP4 SLOAD DIV MUL DUP4 MSTORE SWAP2 PUSH1 0x20 ADD SWAP2 PUSH2 0x10D9 JUMP JUMPDEST DUP3 ADD SWAP2 SWAP1 PUSH1 0x0 MSTORE PUSH1 0x20 PUSH1 0x0 KECCAK256 SWAP1 JUMPDEST DUP2 SLOAD DUP2 MSTORE SWAP1 PUSH1 0x1 ADD SWAP1 PUSH1 0x20 ADD DUP1 DUP4 GT PUSH2 0x10BC JUMPI DUP3 SWAP1 SUB PUSH1 0x1F AND DUP3 ADD SWAP2 JUMPDEST POP POP POP POP POP DUP2 JUMP JUMPDEST PUSH1 0x0 DUP2 SWAP1 POP SWAP2 SWAP1 POP JUMP JUMPDEST PUSH2 0x10F4 DUP2 PUSH2 0x10E1 JUMP JUMPDEST DUP3 MSTORE POP POP JUMP JUMPDEST PUSH1 0x0 PUSH1 0x40 DUP3 ADD SWAP1 POP PUSH2 0x110F PUSH1 0x0 DUP4 ADD DUP6 PUSH2 0x10EB JUMP JUMPDEST PUSH2 0x111C PUSH1 0x20 DUP4 ADD DUP5 PUSH2 0x10EB JUMP JUMPDEST SWAP4 SWAP3 POP POP POP JUMP JUMPDEST PUSH1 0x0 PUSH1 0x40 MLOAD SWAP1 POP SWAP1 JUMP JUMPDEST PUSH1 0x0 DUP1 REVERT JUMPDEST PUSH1 0x0 DUP1 REVERT JUMPDEST PUSH2 0x1140 DUP2 PUSH2 0x10E1 JUMP JUMPDEST DUP2 EQ PUSH2 0x114B JUMPI PUSH1 0x0 DUP1 REVERT JUMPDEST POP JUMP JUMPDEST PUSH1 0x0 DUP2 CALLDATALOAD SWAP1 POP PUSH2 0x115D DUP2 PUSH2 0x1137 JUMP JUMPDEST SWAP3 SWAP2 POP POP JUMP JUMPDEST PUSH1 0x0 PUSH1 0x20 DUP3 DUP5 SUB SLT ISZERO PUSH2 0x1179 JUMPI PUSH2 0x1178 PUSH2 0x112D JUMP JUMPDEST JUMPDEST PUSH1 0x0 PUSH2 0x1187 DUP5 DUP3 DUP6 ADD PUSH2 0x114E JUMP JUMPDEST SWAP2 POP POP SWAP3 SWAP2 POP POP JUMP JUMPDEST PUSH1 0x0 PUSH20 0xFFFFFFFFFFFFFFFFFFFFFFFFFFFFFFFFFFFFFFFF DUP3 AND SWAP1 POP SWAP2 SWAP1 POP JUMP JUMPDEST PUSH1 0x0 PUSH2 0x11BB DUP3 PUSH2 0x1190 JUMP JUMPDEST SWAP1 POP SWAP2 SWAP1 POP JUMP JUMPDEST PUSH2 0x11CB DUP2 PUSH2 0x11B0 JUMP JUMPDEST DUP2 EQ PUSH2 0x11D6 JUMPI PUSH1 0x0 DUP1 REVERT JUMPDEST POP JUMP JUMPDEST PUSH1 0x0 DUP2 CALLDATALOAD SWAP1 POP PUSH2 0x11E8 DUP2 PUSH2 0x11C2 JUMP JUMPDEST SWAP3 SWAP2 POP POP JUMP JUMPDEST PUSH1 0x0 DUP1 PUSH1 0x40 DUP4 DUP6 SUB SLT ISZERO PUSH2 0x1205 JUMPI PUSH2 0x1204 PUSH2 0x112D JUMP JUMPDEST JUMPDEST PUSH1 0x0 PUSH2 0x1213 DUP6 DUP3 DUP7 ADD PUSH2 0x11D9 JUMP JUMPDEST SWAP3 POP POP PUSH1 0x20 PUSH2 0x1224 DUP6 DUP3 DUP7 ADD PUSH2 0x114E JUMP JUMPDEST SWAP2 POP POP SWAP3 POP SWAP3 SWAP1 POP JUMP JUMPDEST PUSH1 0x0 DUP2 ISZERO ISZERO SWAP1 POP SWAP2 SWAP1 POP JUMP JUMPDEST PUSH2 0x1243 DUP2 PUSH2 0x122E JUMP JUMPDEST DUP3 MSTORE POP POP JUMP JUMPDEST PUSH1 0x0 PUSH1 0x60 DUP3 ADD SWAP1 POP PUSH2 0x125E PUSH1 0x0 DUP4 ADD DUP7 PUSH2 0x10EB JUMP JUMPDEST PUSH2 0x126B PUSH1 0x20 DUP4 ADD DUP6 PUSH2 0x10EB JUMP JUMPDEST PUSH2 0x1278 PUSH1 0x40 DUP4 ADD DUP5 PUSH2 0x123A JUMP JUMPDEST SWAP5 SWAP4 POP POP POP POP JUMP JUMPDEST PUSH2 0x1289 DUP2 PUSH2 0x11B0 JUMP JUMPDEST DUP3 MSTORE POP POP JUMP JUMPDEST PUSH1 0x0 PUSH1 0x40 DUP3 ADD SWAP1 POP PUSH2 0x12A4 PUSH1 0x0 DUP4 ADD DUP6 PUSH2 0x1280 JUMP JUMPDEST PUSH2 0x12B1 PUSH1 0x20 DUP4 ADD DUP5 PUSH2 0x10EB JUMP JUMPDEST SWAP4 SWAP3 POP POP POP JUMP JUMPDEST PUSH1 0x0 PUSH1 0x20 DUP3 ADD SWAP1 POP PUSH2 0x12CD PUSH1 0x0 DUP4 ADD DUP5 PUSH2 0x10EB JUMP JUMPDEST SWAP3 SWAP2 POP POP JUMP JUMPDEST PUSH1 0x0 DUP2 MLOAD SWAP1 POP SWAP2 SWAP1 POP JUMP JUMPDEST PUSH1 0x0 DUP3 DUP3 MSTORE PUSH1 0x20 DUP3 ADD SWAP1 POP SWAP3 SWAP2 POP POP JUMP JUMPDEST PUSH1 0x0 JUMPDEST DUP4 DUP2 LT ISZERO PUSH2 0x130D JUMPI DUP1 DUP3 ADD MLOAD DUP2 DUP5 ADD MSTORE PUSH1 0x20 DUP2 ADD SWAP1 POP PUSH2 0x12F2 JUMP JUMPDEST PUSH1 0x0 DUP5 DUP5 ADD MSTORE POP POP POP POP JUMP JUMPDEST PUSH1 0x0 PUSH1 0x1F NOT PUSH1 0x1F DUP4 ADD AND SWAP1 POP SWAP2 SWAP1 POP JUMP JUMPDEST PUSH1 0x0 PUSH2 0x1335 DUP3 PUSH2 0x12D3 JUMP JUMPDEST PUSH2 0x133F DUP2 DUP6 PUSH2 0x12DE JUMP JUMPDEST SWAP4 POP PUSH2 0x134F DUP2 DUP6 PUSH1 0x20 DUP7 ADD PUSH2 0x12EF JUMP JUMPDEST PUSH2 0x1358 DUP2 PUSH2 0x1319 JUMP JUMPDEST DUP5 ADD SWAP2 POP POP SWAP3 SWAP2 POP POP JUMP JUMPDEST PUSH1 0x0 PUSH1 0x60 DUP3 ADD SWAP1 POP PUSH2 0x1378 PUSH1 0x0 DUP4 ADD DUP7 PUSH2 0x1280 JUMP JUMPDEST PUSH2 0x1385 PUSH1 0x20 DUP4 ADD DUP6 PUSH2 0x10EB JUMP JUMPDEST DUP2 DUP2 SUB PUSH1 0x40 DUP4 ADD MSTORE PUSH2 0x1397 DUP2 DUP5 PUSH2 0x132A JUMP JUMPDEST SWAP1 POP SWAP5 SWAP4 POP POP POP POP JUMP JUMPDEST PUSH1 0x0 PUSH1 0x20 DUP3 ADD SWAP1 POP PUSH2 0x13B6 PUSH1 0x0 DUP4 ADD DUP5 PUSH2 0x1280 JUMP JUMPDEST SWAP3 SWAP2 POP POP JUMP JUMPDEST PUSH1 0x0 DUP1 REVERT JUMPDEST PUSH1 0x0 DUP1 REVERT JUMPDEST PUSH32 0x4E487B7100000000000000000000000000000000000000000000000000000000 PUSH1 0x0 MSTORE PUSH1 0x41 PUSH1 0x4 MSTORE PUSH1 0x24 PUSH1 0x0 REVERT JUMPDEST PUSH2 0x13FE DUP3 PUSH2 0x1319 JUMP JUMPDEST DUP2 ADD DUP2 DUP2 LT PUSH8 0xFFFFFFFFFFFFFFFF DUP3 GT OR ISZERO PUSH2 0x141D JUMPI PUSH2 0x141C PUSH2 0x13C6 JUMP JUMPDEST JUMPDEST DUP1 PUSH1 0x40 MSTORE POP POP POP JUMP JUMPDEST PUSH1 0x0 PUSH2 0x1430 PUSH2 0x1123 JUMP JUMPDEST SWAP1 POP PUSH2 0x143C DUP3 DUP3 PUSH2 0x13F5 JUMP JUMPDEST SWAP2 SWAP1 POP JUMP JUMPDEST PUSH1 0x0 PUSH8 0xFFFFFFFFFFFFFFFF DUP3 GT ISZERO PUSH2 0x145C JUMPI PUSH2 0x145B PUSH2 0x13C6 JUMP JUMPDEST JUMPDEST PUSH2 0x1465 DUP3 PUSH2 0x1319 JUMP JUMPDEST SWAP1 POP PUSH1 0x20 DUP2 ADD SWAP1 POP SWAP2 SWAP1 POP JUMP JUMPDEST DUP3 DUP2 DUP4 CALLDATACOPY PUSH1 0x0 DUP4 DUP4 ADD MSTORE POP POP POP JUMP JUMPDEST PUSH1 0x0 PUSH2 0x1494 PUSH2 0x148F DUP5 PUSH2 0x1441 JUMP JUMPDEST PUSH2 0x1426 JUMP JUMPDEST SWAP1 POP DUP3 DUP2 MSTORE PUSH1 0x20 DUP2 ADD DUP5 DUP5 DUP5 ADD GT ISZERO PUSH2 0x14B0 JUMPI PUSH2 0x14AF PUSH2 0x13C1 JUMP JUMPDEST JUMPDEST PUSH2 0x14BB DUP5 DUP3 DUP6 PUSH2 0x1472 JUMP JUMPDEST POP SWAP4 SWAP3 POP POP POP JUMP JUMPDEST PUSH1 0x0 DUP3 PUSH1 0x1F DUP4 ADD SLT PUSH2 0x14D8 JUMPI PUSH2 0x14D7 PUSH2 0x13BC JUMP JUMPDEST JUMPDEST DUP2 CALLDATALOAD PUSH2 0x14E8 DUP5 DUP3 PUSH1 0x20 DUP7 ADD PUSH2 0x1481 JUMP JUMPDEST SWAP2 POP POP SWAP3 SWAP2 POP POP JUMP JUMPDEST PUSH1 0x0 DUP1 PUSH1 0x0 PUSH1 0x60 DUP5 DUP7 SUB SLT ISZERO PUSH2 0x150A JUMPI PUSH2 0x1509 PUSH2 0x112D JUMP JUMPDEST JUMPDEST PUSH1 0x0 PUSH2 0x1518 DUP7 DUP3 DUP8 ADD PUSH2 0x11D9 JUMP JUMPDEST SWAP4 POP POP PUSH1 0x20 PUSH2 0x1529 DUP7 DUP3 DUP8 ADD PUSH2 0x114E JUMP JUMPDEST SWAP3 POP POP PUSH1 0x40 DUP5 ADD CALLDATALOAD PUSH8 0xFFFFFFFFFFFFFFFF DUP2 GT ISZERO PUSH2 0x154A JUMPI PUSH2 0x1549 PUSH2 0x1132 JUMP JUMPDEST JUMPDEST PUSH2 0x1556 DUP7 DUP3 DUP8 ADD PUSH2 0x14C3 JUMP JUMPDEST SWAP2 POP POP SWAP3 POP SWAP3 POP SWAP3 JUMP JUMPDEST PUSH1 0x0 PUSH1 0x20 DUP3 DUP5 SUB SLT ISZERO PUSH2 0x1576 JUMPI PUSH2 0x1575 PUSH2 0x112D JUMP JUMPDEST JUMPDEST PUSH1 0x0 PUSH2 0x1584 DUP5 DUP3 DUP6 ADD PUSH2 0x11D9 JUMP JUMPDEST SWAP2 POP POP SWAP3 SWAP2 POP POP JUMP JUMPDEST PUSH1 0x0 DUP2 MLOAD SWAP1 POP SWAP2 SWAP1 POP JUMP JUMPDEST PUSH1 0x0 DUP3 DUP3 MSTORE PUSH1 0x20 DUP3 ADD SWAP1 POP SWAP3 SWAP2 POP POP JUMP JUMPDEST PUSH1 0x0 DUP2 SWAP1 POP PUSH1 0x20 DUP3 ADD SWAP1 POP SWAP2 SWAP1 POP JUMP JUMPDEST PUSH2 0x15C2 DUP2 PUSH2 0x10E1 JUMP JUMPDEST DUP3 MSTORE POP POP JUMP JUMPDEST PUSH2 0x15D1 DUP2 PUSH2 0x122E JUMP JUMPDEST DUP3 MSTORE POP POP JUMP JUMPDEST PUSH1 0x60 DUP3 ADD PUSH1 0x0 DUP3 ADD MLOAD PUSH2 0x15ED PUSH1 0x0 DUP6 ADD DUP3 PUSH2 0x15B9 JUMP JUMPDEST POP PUSH1 0x20 DUP3 ADD MLOAD PUSH2 0x1600 PUSH1 0x20 DUP6 ADD DUP3 PUSH2 0x15B9 JUMP JUMPDEST POP PUSH1 0x40 DUP3 ADD MLOAD PUSH2 0x1613 PUSH1 0x40 DUP6 ADD DUP3 PUSH2 0x15C8 JUMP JUMPDEST POP POP POP POP JUMP JUMPDEST PUSH1 0x0 PUSH2 0x1625 DUP4 DUP4 PUSH2 0x15D7 JUMP JUMPDEST PUSH1 0x60 DUP4 ADD SWAP1 POP SWAP3 SWAP2 POP POP JUMP JUMPDEST PUSH1 0x0 PUSH1 0x20 DUP3 ADD SWAP1 POP SWAP2 SWAP1 POP JUMP JUMPDEST PUSH1 0x0 PUSH2 0x1649 DUP3 PUSH2 0x158D JUMP JUMPDEST PUSH2 0x1653 DUP2 DUP6 PUSH2 0x1598 JUMP JUMPDEST SWAP4 POP PUSH2 0x165E DUP4 PUSH2 0x15A9 JUMP JUMPDEST DUP1 PUSH1 0x0 JUMPDEST DUP4 DUP2 LT ISZERO PUSH2 0x168F JUMPI DUP2 MLOAD PUSH2 0x1676 DUP9 DUP3 PUSH2 0x1619 JUMP JUMPDEST SWAP8 POP PUSH2 0x1681 DUP4 PUSH2 0x1631 JUMP JUMPDEST SWAP3 POP POP PUSH1 0x1 DUP2 ADD SWAP1 POP PUSH2 0x1662 JUMP JUMPDEST POP DUP6 SWAP4 POP POP POP POP SWAP3 SWAP2 POP POP JUMP JUMPDEST PUSH1 0x0 PUSH1 0x20 DUP3 ADD SWAP1 POP DUP2 DUP2 SUB PUSH1 0x0 DUP4 ADD MSTORE PUSH2 0x16B6 DUP2 DUP5 PUSH2 0x163E JUMP JUMPDEST SWAP1 POP SWAP3 SWAP2 POP POP JUMP JUMPDEST PUSH1 0x0 DUP1 PUSH1 0x0 PUSH1 0x60 DUP5 DUP7 SUB SLT ISZERO PUSH2 0x16D7 JUMPI PUSH2 0x16D6 PUSH2 0x112D JUMP JUMPDEST JUMPDEST PUSH1 0x0 PUSH2 0x16E5 DUP7 DUP3 DUP8 ADD PUSH2 0x11D9 JUMP JUMPDEST SWAP4 POP POP PUSH1 0x20 PUSH2 0x16F6 DUP7 DUP3 DUP8 ADD PUSH2 0x11D9 JUMP JUMPDEST SWAP3 POP POP PUSH1 0x40 PUSH2 0x1707 DUP7 DUP3 DUP8 ADD PUSH2 0x114E JUMP JUMPDEST SWAP2 POP POP SWAP3 POP SWAP3 POP SWAP3 JUMP JUMPDEST PUSH1 0x0 DUP2 MLOAD SWAP1 POP SWAP2 SWAP1 POP JUMP JUMPDEST PUSH1 0x0 DUP3 DUP3 MSTORE PUSH1 0x20 DUP3 ADD SWAP1 POP SWAP3 SWAP2 POP POP JUMP JUMPDEST PUSH1 0x0 PUSH2 0x1738 DUP3 PUSH2 0x1711 JUMP JUMPDEST PUSH2 0x1742 DUP2 DUP6 PUSH2 0x171C JUMP JUMPDEST SWAP4 POP PUSH2 0x1752 DUP2 DUP6 PUSH1 0x20 DUP7 ADD PUSH2 0x12EF JUMP JUMPDEST PUSH2 0x175B DUP2 PUSH2 0x1319 JUMP JUMPDEST DUP5 ADD SWAP2 POP POP SWAP3 SWAP2 POP POP JUMP JUMPDEST PUSH1 0x0 PUSH1 0x20 DUP3 ADD SWAP1 POP DUP2 DUP2 SUB PUSH1 0x0 DUP4 ADD MSTORE PUSH2 0x1780 DUP2 DUP5 PUSH2 0x172D JUMP JUMPDEST SWAP1 POP SWAP3 SWAP2 POP POP JUMP JUMPDEST PUSH32 0x4E487B7100000000000000000000000000000000000000000000000000000000 PUSH1 0x0 MSTORE PUSH1 0x32 PUSH1 0x4 MSTORE PUSH1 0x24 PUSH1 0x0 REVERT JUMPDEST PUSH32 0x4E487B7100000000000000000000000000000000000000000000000000000000 PUSH1 0x0 MSTORE PUSH1 0x22 PUSH1 0x4 MSTORE PUSH1 0x24 PUSH1 0x0 REVERT JUMPDEST PUSH1 0x0 PUSH1 0x2 DUP3 DIV SWAP1 POP PUSH1 0x1 DUP3 AND DUP1 PUSH2 0x17FE JUMPI PUSH1 0x7F DUP3 AND SWAP2 POP JUMPDEST PUSH1 0x20 DUP3 LT DUP2 SUB PUSH2 0x1811 JUMPI PUSH2 0x1810 PUSH2 0x17B7 JUMP JUMPDEST JUMPDEST POP SWAP2 SWAP1 POP JUMP JUMPDEST PUSH32 0x596F7520617265206E6F7420746865206D616E61676572000000000000000000 PUSH1 0x0 DUP3 ADD MSTORE POP JUMP JUMPDEST PUSH1 0x0 PUSH2 0x184D PUSH1 0x17 DUP4 PUSH2 0x171C JUMP JUMPDEST SWAP2 POP PUSH2 0x1858 DUP3 PUSH2 0x1817 JUMP JUMPDEST PUSH1 0x20 DUP3 ADD SWAP1 POP SWAP2 SWAP1 POP JUMP JUMPDEST PUSH1 0x0 PUSH1 0x20 DUP3 ADD SWAP1 POP DUP2 DUP2 SUB PUSH1 0x0 DUP4 ADD MSTORE PUSH2 0x187C DUP2 PUSH2 0x1840 JUMP JUMPDEST SWAP1 POP SWAP2 SWAP1 POP JUMP JUMPDEST PUSH32 0x4E487B7100000000000000000000000000000000000000000000000000000000 PUSH1 0x0 MSTORE PUSH1 0x11 PUSH1 0x4 MSTORE PUSH1 0x24 PUSH1 0x0 REVERT JUMPDEST PUSH1 0x0 PUSH2 0x18BD DUP3 PUSH2 0x10E1 JUMP JUMPDEST SWAP2 POP PUSH2 0x18C8 DUP4 PUSH2 0x10E1 JUMP JUMPDEST SWAP3 POP DUP3 DUP3 SUB SWAP1 POP DUP2 DUP2 GT ISZERO PUSH2 0x18E0 JUMPI PUSH2 0x18DF PUSH2 0x1883 JUMP JUMPDEST JUMPDEST SWAP3 SWAP2 POP POP JUMP JUMPDEST PUSH1 0x0 PUSH2 0x18F1 DUP3 PUSH2 0x10E1 JUMP JUMPDEST SWAP2 POP PUSH2 0x18FC DUP4 PUSH2 0x10E1 JUMP JUMPDEST SWAP3 POP DUP3 DUP3 ADD SWAP1 POP DUP1 DUP3 GT ISZERO PUSH2 0x1914 JUMPI PUSH2 0x1913 PUSH2 0x1883 JUMP JUMPDEST JUMPDEST SWAP3 SWAP2 POP POP JUMP JUMPDEST PUSH1 0x0 PUSH2 0x1925 DUP3 PUSH2 0x10E1 JUMP JUMPDEST SWAP2 POP PUSH32 0xFFFFFFFFFFFFFFFFFFFFFFFFFFFFFFFFFFFFFFFFFFFFFFFFFFFFFFFFFFFFFFFF DUP3 SUB PUSH2 0x1957 JUMPI PUSH2 0x1956 PUSH2 0x1883 JUMP JUMPDEST JUMPDEST PUSH1 0x1 DUP3 ADD SWAP1 POP SWAP2 SWAP1 POP JUMP JUMPDEST PUSH32 0x4E487B7100000000000000000000000000000000000000000000000000000000 PUSH1 0x0 MSTORE PUSH1 0x31 PUSH1 0x4 MSTORE PUSH1 0x24 PUSH1 0x0 REVERT JUMPDEST PUSH1 0x0 DUP2 SWAP1 POP DUP2 PUSH1 0x0 MSTORE PUSH1 0x20 PUSH1 0x0 KECCAK256 SWAP1 POP SWAP2 SWAP1 POP JUMP JUMPDEST PUSH1 0x0 PUSH1 0x20 PUSH1 0x1F DUP4 ADD DIV SWAP1 POP SWAP2 SWAP1 POP JUMP JUMPDEST PUSH1 0x0 DUP3 DUP3 SHL SWAP1 POP SWAP3 SWAP2 POP POP JUMP JUMPDEST PUSH1 0x0 PUSH1 0x8 DUP4 MUL PUSH2 0x19F3 PUSH32 0xFFFFFFFFFFFFFFFFFFFFFFFFFFFFFFFFFFFFFFFFFFFFFFFFFFFFFFFFFFFFFFFF DUP3 PUSH2 0x19B6 JUMP JUMPDEST PUSH2 0x19FD DUP7 DUP4 PUSH2 0x19B6 JUMP JUMPDEST SWAP6 POP DUP1 NOT DUP5 AND SWAP4 POP DUP1 DUP7 AND DUP5 OR SWAP3 POP POP POP SWAP4 SWAP3 POP POP POP JUMP JUMPDEST PUSH1 0x0 DUP2 SWAP1 POP SWAP2 SWAP1 POP JUMP JUMPDEST PUSH1 0x0 PUSH2 0x1A3A PUSH2 0x1A35 PUSH2 0x1A30 DUP5 PUSH2 0x10E1 JUMP JUMPDEST PUSH2 0x1A15 JUMP JUMPDEST PUSH2 0x10E1 JUMP JUMPDEST SWAP1 POP SWAP2 SWAP1 POP JUMP JUMPDEST PUSH1 0x0 DUP2 SWAP1 POP SWAP2 SWAP1 POP JUMP JUMPDEST PUSH2 0x1A54 DUP4 PUSH2 0x1A1F JUMP JUMPDEST PUSH2 0x1A68 PUSH2 0x1A60 DUP3 PUSH2 0x1A41 JUMP JUMPDEST DUP5 DUP5 SLOAD PUSH2 0x19C3 JUMP JUMPDEST DUP3 SSTORE POP POP POP POP JUMP JUMPDEST PUSH1 0x0 SWAP1 JUMP JUMPDEST PUSH2 0x1A7D PUSH2 0x1A70 JUMP JUMPDEST PUSH2 0x1A88 DUP2 DUP5 DUP5 PUSH2 0x1A4B JUMP JUMPDEST POP POP POP JUMP JUMPDEST JUMPDEST DUP2 DUP2 LT ISZERO PUSH2 0x1AAC JUMPI PUSH2 0x1AA1 PUSH1 0x0 DUP3 PUSH2 0x1A75 JUMP JUMPDEST PUSH1 0x1 DUP2 ADD SWAP1 POP PUSH2 0x1A8E JUMP JUMPDEST POP POP JUMP JUMPDEST PUSH1 0x1F DUP3 GT ISZERO PUSH2 0x1AF1 JUMPI PUSH2 0x1AC2 DUP2 PUSH2 0x1991 JUMP JUMPDEST PUSH2 0x1ACB DUP5 PUSH2 0x19A6 JUMP JUMPDEST DUP2 ADD PUSH1 0x20 DUP6 LT ISZERO PUSH2 0x1ADA JUMPI DUP2 SWAP1 POP JUMPDEST PUSH2 0x1AEE PUSH2 0x1AE6 DUP6 PUSH2 0x19A6 JUMP JUMPDEST DUP4 ADD DUP3 PUSH2 0x1A8D JUMP JUMPDEST POP POP JUMPDEST POP POP POP JUMP JUMPDEST PUSH1 0x0 DUP3 DUP3 SHR SWAP1 POP SWAP3 SWAP2 POP POP JUMP JUMPDEST PUSH1 0x0 PUSH2 0x1B14 PUSH1 0x0 NOT DUP5 PUSH1 0x8 MUL PUSH2 0x1AF6 JUMP JUMPDEST NOT DUP1 DUP4 AND SWAP2 POP POP SWAP3 SWAP2 POP POP JUMP JUMPDEST PUSH1 0x0 PUSH2 0x1B2D DUP4 DUP4 PUSH2 0x1B03 JUMP JUMPDEST SWAP2 POP DUP3 PUSH1 0x2 MUL DUP3 OR SWAP1 POP SWAP3 SWAP2 POP POP JUMP JUMPDEST PUSH2 0x1B46 DUP3 PUSH2 0x12D3 JUMP JUMPDEST PUSH8 0xFFFFFFFFFFFFFFFF DUP2 GT ISZERO PUSH2 0x1B5F JUMPI PUSH2 0x1B5E PUSH2 0x13C6 JUMP JUMPDEST JUMPDEST PUSH2 0x1B69 DUP3 SLOAD PUSH2 0x17E6 JUMP JUMPDEST PUSH2 0x1B74 DUP3 DUP3 DUP6 PUSH2 0x1AB0 JUMP JUMPDEST PUSH1 0x0 PUSH1 0x20 SWAP1 POP PUSH1 0x1F DUP4 GT PUSH1 0x1 DUP2 EQ PUSH2 0x1BA7 JUMPI PUSH1 0x0 DUP5 ISZERO PUSH2 0x1B95 JUMPI DUP3 DUP8 ADD MLOAD SWAP1 POP JUMPDEST PUSH2 0x1B9F DUP6 DUP3 PUSH2 0x1B21 JUMP JUMPDEST DUP7 SSTORE POP PUSH2 0x1C07 JUMP JUMPDEST PUSH1 0x1F NOT DUP5 AND PUSH2 0x1BB5 DUP7 PUSH2 0x1991 JUMP JUMPDEST PUSH1 0x0 JUMPDEST DUP3 DUP2 LT ISZERO PUSH2 0x1BDD JUMPI DUP5 DUP10 ADD MLOAD DUP3 SSTORE PUSH1 0x1 DUP3 ADD SWAP2 POP PUSH1 0x20 DUP6 ADD SWAP5 POP PUSH1 0x20 DUP2 ADD SWAP1 POP PUSH2 0x1BB8 JUMP JUMPDEST DUP7 DUP4 LT ISZERO PUSH2 0x1BFA JUMPI DUP5 DUP10 ADD MLOAD PUSH2 0x1BF6 PUSH1 0x1F DUP10 AND DUP3 PUSH2 0x1B03 JUMP JUMPDEST DUP4 SSTORE POP JUMPDEST PUSH1 0x1 PUSH1 0x2 DUP9 MUL ADD DUP9 SSTORE POP POP POP JUMPDEST POP POP POP POP POP POP JUMP JUMPDEST PUSH1 0x0 PUSH1 0x40 DUP3 ADD SWAP1 POP PUSH2 0x1C24 PUSH1 0x0 DUP4 ADD DUP6 PUSH2 0x10EB JUMP JUMPDEST DUP2 DUP2 SUB PUSH1 0x20 DUP4 ADD MSTORE PUSH2 0x1C36 DUP2 DUP5 PUSH2 0x132A JUMP JUMPDEST SWAP1 POP SWAP4 SWAP3 POP POP POP JUMP JUMPDEST PUSH32 0x4E487B7100000000000000000000000000000000000000000000000000000000 PUSH1 0x0 MSTORE PUSH1 0x12 PUSH1 0x4 MSTORE PUSH1 0x24 PUSH1 0x0 REVERT JUMPDEST PUSH1 0x0 PUSH2 0x1C79 DUP3 PUSH2 0x10E1 JUMP JUMPDEST SWAP2 POP PUSH2 0x1C84 DUP4 PUSH2 0x10E1 JUMP JUMPDEST SWAP3 POP DUP3 PUSH2 0x1C94 JUMPI PUSH2 0x1C93 PUSH2 0x1C3F JUMP JUMPDEST JUMPDEST DUP3 DUP3 DIV SWAP1 POP SWAP3 SWAP2 POP POP JUMP INVALID LOG2 PUSH5 0x6970667358 0x22 SLT KECCAK256 DUP15 0xE7 0xE3 SWAP8 PUSH18 0xFC2C1A4D06BFAD6D9D7AAD1BDD1450C4BADE PUSH24 0xE3BF067DE0230BB464736F6C634300081200330000000000 "},"gasEstimates":{"creation":{"codeDepositCost":"1476200","executionCost":"infinite","totalCost":"infinite"},"external":{"confirmHours(address,uint256)":"infinite","empHours(address,uint256)":"infinite","getHourLog(address)":"infinite","getRating(address)":"infinite","getTransaction(uint256)":"infinite","getTransactionCount()":"2512","manager()":"2537","org()":"infinite","ratings(address,uint256)":"infinite","requestHours(uint256)":"95657","sendRatings(address,address,uint256)":"infinite","submitTip(address,uint256,bytes)":"infinite","transactions(uint256)":"infinite"}},"methodIdentifiers":{"confirmHours(address,uint256)":"474466c2","empHours(address,uint256)":"20ee128e","getHourLog(address)":"9d5f65fc","getRating(address)":"80fc9c0e","getTransaction(uint256)":"33ea3dc8","getTransactionCount()":"2e7700f0","manager()":"481c6a75","org()":"cc1e2cb0","ratings(address,uint256)":"2a0e54bd","requestHours(uint256)":"0fa8d54f","sendRatings(address,address,uint256)":"a329f8f6","submitTip(address,uint256,bytes)":"66d34a9b","transactions(uint256)":"9ace38c2"}},"storageLayout":{"storage":[{"astId":130,"contract":"ServiceChain.sol:Service","label":"transactions","offset":0,"slot":"0","type":"t_array(t_struct(Transaction)81_storage)dyn_storage"},{"astId":136,"contract":"ServiceChain.sol:Service","label":"empHours","offset":0,"slot":"1","type":"t_mapping(t_address,t_array(t_struct(hourLog)88_storage)dyn_storage)"},{"astId":142,"contract":"ServiceChain.sol:Service","label":"ratings","offset":0,"slot":"2","type":"t_mapping(t_address,t_array(t_struct(customerRating)74_storage)dyn_storage)"},{"astId":144,"contract":"ServiceChain.sol:Service","label":"org","offset":0,"slot":"3","type":"t_string_storage"},{"astId":146,"contract":"ServiceChain.sol:Service","label":"manager","offset":0,"slot":"4","type":"t_address"}],"types":{"t_address":{"encoding":"inplace","label":"address","numberOfBytes":"20"},"t_array(t_struct(Transaction)81_storage)dyn_storage":{"base":"t_struct(Transaction)81_storage","encoding":"dynamic_array","label":"struct Service.Transaction[]","numberOfBytes":"32"},"t_array(t_struct(customerRating)74_storage)dyn_storage":{"base":"t_struct(customerRating)74_storage","encoding":"dynamic_array","label":"struct Service.customerRating[]","numberOfBytes":"32"},"t_array(t_struct(hourLog)88_storage)dyn_storage":{"base":"t_struct(hourLog)88_storage","encoding":"dynamic_array","label":"struct Service.hourLog[]","numberOfBytes":"32"},"t_bool":{"encoding":"inplace","label":"bool","numberOfBytes":"1"},"t_bytes_storage":{"encoding":"bytes","label":"bytes","numberOfBytes":"32"},"t_mapping(t_address,t_array(t_struct(customerRating)74_storage)dyn_storage)":{"encoding":"mapping","key":"t_address","label":"mapping(address => struct Service.customerRating[])","numberOfBytes":"32","value":"t_array(t_struct(customerRating)74_storage)dyn_storage"},"t_mapping(t_address,t_array(t_struct(hourLog)88_storage)dyn_storage)":{"encoding":"mapping","key":"t_address","label":"mapping(address => struct Service.hourLog[])","numberOfBytes":"32","value":"t_array(t_struct(hourLog)88_storage)dyn_storage"},"t_string_storage":{"encoding":"bytes","label":"string","numberOfBytes":"32"},"t_struct(Transaction)81_storage":{"encoding":"inplace","label":"struct Service.Transaction","members":[{"astId":76,"contract":"ServiceChain.sol:Service","label":"to","offset":0,"slot":"0","type":"t_address"},{"astId":78,"contract":"ServiceChain.sol:Service","label":"value","offset":0,"slot":"1","type":"t_uint256"},{"astId":80,"contract":"ServiceChain.sol:Service","label":"data","offset":0,"slot":"2","type":"t_bytes_storage"}],"numberOfBytes":"96"},"t_struct(customerRating)74_storage":{"encoding":"inplace","label":"struct Service.customerRating","members":[{"astId":71,"contract":"ServiceChain.sol:Service","label":"from","offset":0,"slot":"0","type":"t_address"},{"astId":73,"contract":"ServiceChain.sol:Service","label":"rating","offset":0,"slot":"1","type":"t_uint256"}],"numberOfBytes":"64"},"t_struct(hourLog)88_storage":{"encoding":"inplace","label":"struct Service.hourLog","members":[{"astId":83,"contract":"ServiceChain.sol:Service","label":"date","offset":0,"slot":"0","type":"t_uint256"},{"astId":85,"contract":"ServiceChain.sol:Service","label":"hour","offset":0,"slot":"1","type":"t_uint256"},{"astId":87,"contract":"ServiceChain.sol:Service","label":"isApproved","offset":0,"slot":"2","type":"t_bool"}],"numberOfBytes":"96"},"t_uint256":{"encoding":"inplace","label":"uint256","numberOfBytes":"32"}}},"userdoc":{"kind":"user","methods":{},"version":1}}