{"abi":[{"inputs":[{"internalType":"address","name":"sender","type":"address"},{"internalType":"string","name":"organization","type":"string"},{"internalType":"uint256","name":"pay","type":"uint256"}],"stateMutability":"nonpayable","type":"constructor"},{"anonymous":false,"inputs":[{"indexed":true,"internalType":"address","name":"sender","type":"address"},{"indexed":false,"internalType":"uint256","name":"amount","type":"uint256"},{"indexed":false,"internalType":"uint256","name":"balance","type":"uint256"},{"indexed":false,"internalType":"uint256","name":"date","type":"uint256"}],"name":"Deposit","type":"event"},{"anonymous":false,"inputs":[{"indexed":true,"internalType":"address","name":"sender","type":"address"},{"indexed":true,"internalType":"address","name":"recipient","type":"address"},{"indexed":true,"internalType":"bool","name":"isApproved","type":"bool"},{"indexed":false,"internalType":"uint256","name":"forDate","type":"uint256"},{"indexed":false,"internalType":"uint256","name":"hour","type":"uint256"},{"indexed":false,"internalType":"uint256","name":"amountPaid","type":"uint256"}],"name":"submitApproval","type":"event"},{"anonymous":false,"inputs":[{"indexed":true,"internalType":"address","name":"sender","type":"address"},{"indexed":true,"internalType":"uint256","name":"date","type":"uint256"},{"indexed":false,"internalType":"uint256","name":"hourlyRate","type":"uint256"}],"name":"submitHourlyRate","type":"event"},{"anonymous":false,"inputs":[{"indexed":true,"internalType":"address","name":"sender","type":"address"},{"indexed":true,"internalType":"address","name":"recipient","type":"address"},{"indexed":true,"internalType":"uint256","name":"rating","type":"uint256"}],"name":"submitRating","type":"event"},{"anonymous":false,"inputs":[{"indexed":true,"internalType":"address","name":"sender","type":"address"},{"indexed":true,"internalType":"address","name":"recipient","type":"address"},{"indexed":false,"internalType":"uint256","name":"tipAmount","type":"uint256"}],"name":"submitTip","type":"event"},{"inputs":[{"internalType":"address payable","name":"waiter","type":"address"},{"internalType":"uint256","name":"index","type":"uint256"}],"name":"confirmHours","outputs":[],"stateMutability":"payable","type":"function"},{"inputs":[{"internalType":"address","name":"waiter","type":"address"},{"internalType":"uint256","name":"index","type":"uint256"}],"name":"denyHours","outputs":[],"stateMutability":"nonpayable","type":"function"},{"inputs":[],"name":"deposit","outputs":[],"stateMutability":"payable","type":"function"},{"inputs":[{"internalType":"address","name":"","type":"address"},{"internalType":"uint256","name":"","type":"uint256"}],"name":"empHours","outputs":[{"internalType":"uint256","name":"date","type":"uint256"},{"internalType":"uint256","name":"hour","type":"uint256"},{"internalType":"uint256","name":"estimatedPayement","type":"uint256"},{"internalType":"bool","name":"isApproved","type":"bool"}],"stateMutability":"view","type":"function"},{"inputs":[],"name":"getBalance","outputs":[{"internalType":"uint256","name":"","type":"uint256"}],"stateMutability":"view","type":"function"},{"inputs":[{"internalType":"address","name":"waiter","type":"address"}],"name":"getHourLog","outputs":[{"components":[{"internalType":"uint256","name":"date","type":"uint256"},{"internalType":"uint256","name":"hour","type":"uint256"},{"internalType":"uint256","name":"estimatedPayement","type":"uint256"},{"internalType":"bool","name":"isApproved","type":"bool"}],"internalType":"struct Service.hourLog[]","name":"","type":"tuple[]"}],"stateMutability":"view","type":"function"},{"inputs":[],"name":"hourlyRate","outputs":[{"internalType":"uint256","name":"","type":"uint256"}],"stateMutability":"view","type":"function"},{"inputs":[],"name":"manager","outputs":[{"internalType":"address","name":"","type":"address"}],"stateMutability":"view","type":"function"},{"inputs":[],"name":"org","outputs":[{"internalType":"string","name":"","type":"string"}],"stateMutability":"view","type":"function"},{"inputs":[{"internalType":"address","name":"","type":"address"},{"internalType":"uint256","name":"","type":"uint256"}],"name":"ratings","outputs":[{"internalType":"address","name":"from","type":"address"},{"internalType":"uint256","name":"rating","type":"uint256"}],"stateMutability":"view","type":"function"},{"inputs":[{"internalType":"uint256","name":"value","type":"uint256"}],"name":"requestHours","outputs":[],"stateMutability":"nonpayable","type":"function"},{"inputs":[{"internalType":"address","name":"customer","type":"address"},{"internalType":"address","name":"waiter","type":"address"},{"internalType":"uint256","name":"rating","type":"uint256"}],"name":"sendRatings","outputs":[],"stateMutability":"nonpayable","type":"function"},{"inputs":[{"internalType":"address payable","name":"recipient","type":"address"}],"name":"sendTip","outputs":[],"stateMutability":"payable","type":"function"},{"inputs":[{"internalType":"uint256","name":"rate","type":"uint256"}],"name":"setHourlyRate","outputs":[],"stateMutability":"nonpayable","type":"function"},{"inputs":[{"internalType":"uint256","name":"","type":"uint256"}],"name":"transactions","outputs":[{"internalType":"address","name":"to","type":"address"},{"internalType":"uint256","name":"value","type":"uint256"},{"internalType":"bytes","name":"data","type":"bytes"}],"stateMutability":"view","type":"function"}],"devdoc":{"kind":"dev","methods":{},"version":1},"evm":{"assembly":"    /* \"ServiceChain.sol\":695:5117  contract Service{... */\n  mstore(0x40, 0x80)\n    /* \"ServiceChain.sol\":1761:1915  constructor(address sender, string memory organization,uint pay) {... */\n  callvalue\n  dup1\n  iszero\n  tag_1\n  jumpi\n  0x00\n  dup1\n  revert\ntag_1:\n  pop\n  mload(0x40)\n  sub(codesize, bytecodeSize)\n  dup1\n  bytecodeSize\n  dup4\n  codecopy\n  dup2\n  dup2\n  add\n  0x40\n  mstore\n  dup2\n  add\n  swap1\n  tag_2\n  swap2\n  swap1\n  tag_3\n  jump\t// in\ntag_2:\n    /* \"ServiceChain.sol\":1845:1851  sender */\n  dup3\n    /* \"ServiceChain.sol\":1837:1844  manager */\n  0x04\n  0x00\n    /* \"ServiceChain.sol\":1837:1851  manager=sender */\n  0x0100\n  exp\n  dup2\n  sload\n  dup2\n  0xffffffffffffffffffffffffffffffffffffffff\n  mul\n  not\n  and\n  swap1\n  dup4\n  0xffffffffffffffffffffffffffffffffffffffff\n  and\n  mul\n  or\n  swap1\n  sstore\n  pop\n    /* \"ServiceChain.sol\":1868:1880  organization */\n  dup2\n    /* \"ServiceChain.sol\":1862:1865  org */\n  0x03\n    /* \"ServiceChain.sol\":1862:1880  org = organization */\n  swap1\n  dup2\n  tag_6\n  swap2\n  swap1\n  tag_7\n  jump\t// in\ntag_6:\n  pop\n    /* \"ServiceChain.sol\":1904:1907  pay */\n  dup1\n    /* \"ServiceChain.sol\":1891:1901  hourlyRate */\n  0x05\n    /* \"ServiceChain.sol\":1891:1907  hourlyRate = pay */\n  dup2\n  swap1\n  sstore\n  pop\n    /* \"ServiceChain.sol\":1761:1915  constructor(address sender, string memory organization,uint pay) {... */\n  pop\n  pop\n  pop\n    /* \"ServiceChain.sol\":695:5117  contract Service{... */\n  jump(tag_8)\n    /* \"#utility.yul\":7:82   */\ntag_9:\n    /* \"#utility.yul\":40:46   */\n  0x00\n    /* \"#utility.yul\":73:75   */\n  0x40\n    /* \"#utility.yul\":67:76   */\n  mload\n    /* \"#utility.yul\":57:76   */\n  swap1\n  pop\n    /* \"#utility.yul\":7:82   */\n  swap1\n  jump\t// out\n    /* \"#utility.yul\":88:205   */\ntag_10:\n    /* \"#utility.yul\":197:198   */\n  0x00\n    /* \"#utility.yul\":194:195   */\n  dup1\n    /* \"#utility.yul\":187:199   */\n  revert\n    /* \"#utility.yul\":211:328   */\ntag_11:\n    /* \"#utility.yul\":320:321   */\n  0x00\n    /* \"#utility.yul\":317:318   */\n  dup1\n    /* \"#utility.yul\":310:322   */\n  revert\n    /* \"#utility.yul\":334:460   */\ntag_12:\n    /* \"#utility.yul\":371:378   */\n  0x00\n    /* \"#utility.yul\":411:453   */\n  0xffffffffffffffffffffffffffffffffffffffff\n    /* \"#utility.yul\":404:409   */\n  dup3\n    /* \"#utility.yul\":400:454   */\n  and\n    /* \"#utility.yul\":389:454   */\n  swap1\n  pop\n    /* \"#utility.yul\":334:460   */\n  swap2\n  swap1\n  pop\n  jump\t// out\n    /* \"#utility.yul\":466:562   */\ntag_13:\n    /* \"#utility.yul\":503:510   */\n  0x00\n    /* \"#utility.yul\":532:556   */\n  tag_53\n    /* \"#utility.yul\":550:555   */\n  dup3\n    /* \"#utility.yul\":532:556   */\n  tag_12\n  jump\t// in\ntag_53:\n    /* \"#utility.yul\":521:556   */\n  swap1\n  pop\n    /* \"#utility.yul\":466:562   */\n  swap2\n  swap1\n  pop\n  jump\t// out\n    /* \"#utility.yul\":568:690   */\ntag_14:\n    /* \"#utility.yul\":641:665   */\n  tag_55\n    /* \"#utility.yul\":659:664   */\n  dup2\n    /* \"#utility.yul\":641:665   */\n  tag_13\n  jump\t// in\ntag_55:\n    /* \"#utility.yul\":634:639   */\n  dup2\n    /* \"#utility.yul\":631:666   */\n  eq\n    /* \"#utility.yul\":621:684   */\n  tag_56\n  jumpi\n    /* \"#utility.yul\":680:681   */\n  0x00\n    /* \"#utility.yul\":677:678   */\n  dup1\n    /* \"#utility.yul\":670:682   */\n  revert\n    /* \"#utility.yul\":621:684   */\ntag_56:\n    /* \"#utility.yul\":568:690   */\n  pop\n  jump\t// out\n    /* \"#utility.yul\":696:839   */\ntag_15:\n    /* \"#utility.yul\":753:758   */\n  0x00\n    /* \"#utility.yul\":784:790   */\n  dup2\n    /* \"#utility.yul\":778:791   */\n  mload\n    /* \"#utility.yul\":769:791   */\n  swap1\n  pop\n    /* \"#utility.yul\":800:833   */\n  tag_58\n    /* \"#utility.yul\":827:832   */\n  dup2\n    /* \"#utility.yul\":800:833   */\n  tag_14\n  jump\t// in\ntag_58:\n    /* \"#utility.yul\":696:839   */\n  swap3\n  swap2\n  pop\n  pop\n  jump\t// out\n    /* \"#utility.yul\":845:962   */\ntag_16:\n    /* \"#utility.yul\":954:955   */\n  0x00\n    /* \"#utility.yul\":951:952   */\n  dup1\n    /* \"#utility.yul\":944:956   */\n  revert\n    /* \"#utility.yul\":968:1085   */\ntag_17:\n    /* \"#utility.yul\":1077:1078   */\n  0x00\n    /* \"#utility.yul\":1074:1075   */\n  dup1\n    /* \"#utility.yul\":1067:1079   */\n  revert\n    /* \"#utility.yul\":1091:1193   */\ntag_18:\n    /* \"#utility.yul\":1132:1138   */\n  0x00\n    /* \"#utility.yul\":1183:1185   */\n  0x1f\n    /* \"#utility.yul\":1179:1186   */\n  not\n    /* \"#utility.yul\":1174:1176   */\n  0x1f\n    /* \"#utility.yul\":1167:1172   */\n  dup4\n    /* \"#utility.yul\":1163:1177   */\n  add\n    /* \"#utility.yul\":1159:1187   */\n  and\n    /* \"#utility.yul\":1149:1187   */\n  swap1\n  pop\n    /* \"#utility.yul\":1091:1193   */\n  swap2\n  swap1\n  pop\n  jump\t// out\n    /* \"#utility.yul\":1199:1379   */\ntag_19:\n    /* \"#utility.yul\":1247:1324   */\n  0x4e487b7100000000000000000000000000000000000000000000000000000000\n    /* \"#utility.yul\":1244:1245   */\n  0x00\n    /* \"#utility.yul\":1237:1325   */\n  mstore\n    /* \"#utility.yul\":1344:1348   */\n  0x41\n    /* \"#utility.yul\":1341:1342   */\n  0x04\n    /* \"#utility.yul\":1334:1349   */\n  mstore\n    /* \"#utility.yul\":1368:1372   */\n  0x24\n    /* \"#utility.yul\":1365:1366   */\n  0x00\n    /* \"#utility.yul\":1358:1373   */\n  revert\n    /* \"#utility.yul\":1385:1666   */\ntag_20:\n    /* \"#utility.yul\":1468:1495   */\n  tag_64\n    /* \"#utility.yul\":1490:1494   */\n  dup3\n    /* \"#utility.yul\":1468:1495   */\n  tag_18\n  jump\t// in\ntag_64:\n    /* \"#utility.yul\":1460:1466   */\n  dup2\n    /* \"#utility.yul\":1456:1496   */\n  add\n    /* \"#utility.yul\":1598:1604   */\n  dup2\n    /* \"#utility.yul\":1586:1596   */\n  dup2\n    /* \"#utility.yul\":1583:1605   */\n  lt\n    /* \"#utility.yul\":1562:1580   */\n  0xffffffffffffffff\n    /* \"#utility.yul\":1550:1560   */\n  dup3\n    /* \"#utility.yul\":1547:1581   */\n  gt\n    /* \"#utility.yul\":1544:1606   */\n  or\n    /* \"#utility.yul\":1541:1629   */\n  iszero\n  tag_65\n  jumpi\n    /* \"#utility.yul\":1609:1627   */\n  tag_66\n  tag_19\n  jump\t// in\ntag_66:\n    /* \"#utility.yul\":1541:1629   */\ntag_65:\n    /* \"#utility.yul\":1649:1659   */\n  dup1\n    /* \"#utility.yul\":1645:1647   */\n  0x40\n    /* \"#utility.yul\":1638:1660   */\n  mstore\n    /* \"#utility.yul\":1428:1666   */\n  pop\n    /* \"#utility.yul\":1385:1666   */\n  pop\n  pop\n  jump\t// out\n    /* \"#utility.yul\":1672:1801   */\ntag_21:\n    /* \"#utility.yul\":1706:1712   */\n  0x00\n    /* \"#utility.yul\":1733:1753   */\n  tag_68\n  tag_9\n  jump\t// in\ntag_68:\n    /* \"#utility.yul\":1723:1753   */\n  swap1\n  pop\n    /* \"#utility.yul\":1762:1795   */\n  tag_69\n    /* \"#utility.yul\":1790:1794   */\n  dup3\n    /* \"#utility.yul\":1782:1788   */\n  dup3\n    /* \"#utility.yul\":1762:1795   */\n  tag_20\n  jump\t// in\ntag_69:\n    /* \"#utility.yul\":1672:1801   */\n  swap2\n  swap1\n  pop\n  jump\t// out\n    /* \"#utility.yul\":1807:2115   */\ntag_22:\n    /* \"#utility.yul\":1869:1873   */\n  0x00\n    /* \"#utility.yul\":1959:1977   */\n  0xffffffffffffffff\n    /* \"#utility.yul\":1951:1957   */\n  dup3\n    /* \"#utility.yul\":1948:1978   */\n  gt\n    /* \"#utility.yul\":1945:2001   */\n  iszero\n  tag_71\n  jumpi\n    /* \"#utility.yul\":1981:1999   */\n  tag_72\n  tag_19\n  jump\t// in\ntag_72:\n    /* \"#utility.yul\":1945:2001   */\ntag_71:\n    /* \"#utility.yul\":2019:2048   */\n  tag_73\n    /* \"#utility.yul\":2041:2047   */\n  dup3\n    /* \"#utility.yul\":2019:2048   */\n  tag_18\n  jump\t// in\ntag_73:\n    /* \"#utility.yul\":2011:2048   */\n  swap1\n  pop\n    /* \"#utility.yul\":2103:2107   */\n  0x20\n    /* \"#utility.yul\":2097:2101   */\n  dup2\n    /* \"#utility.yul\":2093:2108   */\n  add\n    /* \"#utility.yul\":2085:2108   */\n  swap1\n  pop\n    /* \"#utility.yul\":1807:2115   */\n  swap2\n  swap1\n  pop\n  jump\t// out\n    /* \"#utility.yul\":2121:2367   */\ntag_23:\n    /* \"#utility.yul\":2202:2203   */\n  0x00\n    /* \"#utility.yul\":2212:2325   */\ntag_75:\n    /* \"#utility.yul\":2226:2232   */\n  dup4\n    /* \"#utility.yul\":2223:2224   */\n  dup2\n    /* \"#utility.yul\":2220:2233   */\n  lt\n    /* \"#utility.yul\":2212:2325   */\n  iszero\n  tag_77\n  jumpi\n    /* \"#utility.yul\":2311:2312   */\n  dup1\n    /* \"#utility.yul\":2306:2309   */\n  dup3\n    /* \"#utility.yul\":2302:2313   */\n  add\n    /* \"#utility.yul\":2296:2314   */\n  mload\n    /* \"#utility.yul\":2292:2293   */\n  dup2\n    /* \"#utility.yul\":2287:2290   */\n  dup5\n    /* \"#utility.yul\":2283:2294   */\n  add\n    /* \"#utility.yul\":2276:2315   */\n  mstore\n    /* \"#utility.yul\":2248:2250   */\n  0x20\n    /* \"#utility.yul\":2245:2246   */\n  dup2\n    /* \"#utility.yul\":2241:2251   */\n  add\n    /* \"#utility.yul\":2236:2251   */\n  swap1\n  pop\n    /* \"#utility.yul\":2212:2325   */\n  jump(tag_75)\ntag_77:\n    /* \"#utility.yul\":2359:2360   */\n  0x00\n    /* \"#utility.yul\":2350:2356   */\n  dup5\n    /* \"#utility.yul\":2345:2348   */\n  dup5\n    /* \"#utility.yul\":2341:2357   */\n  add\n    /* \"#utility.yul\":2334:2361   */\n  mstore\n    /* \"#utility.yul\":2183:2367   */\n  pop\n    /* \"#utility.yul\":2121:2367   */\n  pop\n  pop\n  pop\n  jump\t// out\n    /* \"#utility.yul\":2373:2807   */\ntag_24:\n    /* \"#utility.yul\":2462:2467   */\n  0x00\n    /* \"#utility.yul\":2487:2553   */\n  tag_79\n    /* \"#utility.yul\":2503:2552   */\n  tag_80\n    /* \"#utility.yul\":2545:2551   */\n  dup5\n    /* \"#utility.yul\":2503:2552   */\n  tag_22\n  jump\t// in\ntag_80:\n    /* \"#utility.yul\":2487:2553   */\n  tag_21\n  jump\t// in\ntag_79:\n    /* \"#utility.yul\":2478:2553   */\n  swap1\n  pop\n    /* \"#utility.yul\":2576:2582   */\n  dup3\n    /* \"#utility.yul\":2569:2574   */\n  dup2\n    /* \"#utility.yul\":2562:2583   */\n  mstore\n    /* \"#utility.yul\":2614:2618   */\n  0x20\n    /* \"#utility.yul\":2607:2612   */\n  dup2\n    /* \"#utility.yul\":2603:2619   */\n  add\n    /* \"#utility.yul\":2652:2655   */\n  dup5\n    /* \"#utility.yul\":2643:2649   */\n  dup5\n    /* \"#utility.yul\":2638:2641   */\n  dup5\n    /* \"#utility.yul\":2634:2650   */\n  add\n    /* \"#utility.yul\":2631:2656   */\n  gt\n    /* \"#utility.yul\":2628:2740   */\n  iszero\n  tag_81\n  jumpi\n    /* \"#utility.yul\":2659:2738   */\n  tag_82\n  tag_17\n  jump\t// in\ntag_82:\n    /* \"#utility.yul\":2628:2740   */\ntag_81:\n    /* \"#utility.yul\":2749:2801   */\n  tag_83\n    /* \"#utility.yul\":2794:2800   */\n  dup5\n    /* \"#utility.yul\":2789:2792   */\n  dup3\n    /* \"#utility.yul\":2784:2787   */\n  dup6\n    /* \"#utility.yul\":2749:2801   */\n  tag_23\n  jump\t// in\ntag_83:\n    /* \"#utility.yul\":2468:2807   */\n  pop\n    /* \"#utility.yul\":2373:2807   */\n  swap4\n  swap3\n  pop\n  pop\n  pop\n  jump\t// out\n    /* \"#utility.yul\":2827:3182   */\ntag_25:\n    /* \"#utility.yul\":2894:2899   */\n  0x00\n    /* \"#utility.yul\":2943:2946   */\n  dup3\n    /* \"#utility.yul\":2936:2940   */\n  0x1f\n    /* \"#utility.yul\":2928:2934   */\n  dup4\n    /* \"#utility.yul\":2924:2941   */\n  add\n    /* \"#utility.yul\":2920:2947   */\n  slt\n    /* \"#utility.yul\":2910:3032   */\n  tag_85\n  jumpi\n    /* \"#utility.yul\":2951:3030   */\n  tag_86\n  tag_16\n  jump\t// in\ntag_86:\n    /* \"#utility.yul\":2910:3032   */\ntag_85:\n    /* \"#utility.yul\":3061:3067   */\n  dup2\n    /* \"#utility.yul\":3055:3068   */\n  mload\n    /* \"#utility.yul\":3086:3176   */\n  tag_87\n    /* \"#utility.yul\":3172:3175   */\n  dup5\n    /* \"#utility.yul\":3164:3170   */\n  dup3\n    /* \"#utility.yul\":3157:3161   */\n  0x20\n    /* \"#utility.yul\":3149:3155   */\n  dup7\n    /* \"#utility.yul\":3145:3162   */\n  add\n    /* \"#utility.yul\":3086:3176   */\n  tag_24\n  jump\t// in\ntag_87:\n    /* \"#utility.yul\":3077:3176   */\n  swap2\n  pop\n    /* \"#utility.yul\":2900:3182   */\n  pop\n    /* \"#utility.yul\":2827:3182   */\n  swap3\n  swap2\n  pop\n  pop\n  jump\t// out\n    /* \"#utility.yul\":3188:3265   */\ntag_26:\n    /* \"#utility.yul\":3225:3232   */\n  0x00\n    /* \"#utility.yul\":3254:3259   */\n  dup2\n    /* \"#utility.yul\":3243:3259   */\n  swap1\n  pop\n    /* \"#utility.yul\":3188:3265   */\n  swap2\n  swap1\n  pop\n  jump\t// out\n    /* \"#utility.yul\":3271:3393   */\ntag_27:\n    /* \"#utility.yul\":3344:3368   */\n  tag_90\n    /* \"#utility.yul\":3362:3367   */\n  dup2\n    /* \"#utility.yul\":3344:3368   */\n  tag_26\n  jump\t// in\ntag_90:\n    /* \"#utility.yul\":3337:3342   */\n  dup2\n    /* \"#utility.yul\":3334:3369   */\n  eq\n    /* \"#utility.yul\":3324:3387   */\n  tag_91\n  jumpi\n    /* \"#utility.yul\":3383:3384   */\n  0x00\n    /* \"#utility.yul\":3380:3381   */\n  dup1\n    /* \"#utility.yul\":3373:3385   */\n  revert\n    /* \"#utility.yul\":3324:3387   */\ntag_91:\n    /* \"#utility.yul\":3271:3393   */\n  pop\n  jump\t// out\n    /* \"#utility.yul\":3399:3542   */\ntag_28:\n    /* \"#utility.yul\":3456:3461   */\n  0x00\n    /* \"#utility.yul\":3487:3493   */\n  dup2\n    /* \"#utility.yul\":3481:3494   */\n  mload\n    /* \"#utility.yul\":3472:3494   */\n  swap1\n  pop\n    /* \"#utility.yul\":3503:3536   */\n  tag_93\n    /* \"#utility.yul\":3530:3535   */\n  dup2\n    /* \"#utility.yul\":3503:3536   */\n  tag_27\n  jump\t// in\ntag_93:\n    /* \"#utility.yul\":3399:3542   */\n  swap3\n  swap2\n  pop\n  pop\n  jump\t// out\n    /* \"#utility.yul\":3548:4384   */\ntag_3:\n    /* \"#utility.yul\":3646:3652   */\n  0x00\n    /* \"#utility.yul\":3654:3660   */\n  dup1\n    /* \"#utility.yul\":3662:3668   */\n  0x00\n    /* \"#utility.yul\":3711:3713   */\n  0x60\n    /* \"#utility.yul\":3699:3708   */\n  dup5\n    /* \"#utility.yul\":3690:3697   */\n  dup7\n    /* \"#utility.yul\":3686:3709   */\n  sub\n    /* \"#utility.yul\":3682:3714   */\n  slt\n    /* \"#utility.yul\":3679:3798   */\n  iszero\n  tag_95\n  jumpi\n    /* \"#utility.yul\":3717:3796   */\n  tag_96\n  tag_10\n  jump\t// in\ntag_96:\n    /* \"#utility.yul\":3679:3798   */\ntag_95:\n    /* \"#utility.yul\":3837:3838   */\n  0x00\n    /* \"#utility.yul\":3862:3926   */\n  tag_97\n    /* \"#utility.yul\":3918:3925   */\n  dup7\n    /* \"#utility.yul\":3909:3915   */\n  dup3\n    /* \"#utility.yul\":3898:3907   */\n  dup8\n    /* \"#utility.yul\":3894:3916   */\n  add\n    /* \"#utility.yul\":3862:3926   */\n  tag_15\n  jump\t// in\ntag_97:\n    /* \"#utility.yul\":3852:3926   */\n  swap4\n  pop\n    /* \"#utility.yul\":3808:3936   */\n  pop\n    /* \"#utility.yul\":3996:3998   */\n  0x20\n    /* \"#utility.yul\":3985:3994   */\n  dup5\n    /* \"#utility.yul\":3981:3999   */\n  add\n    /* \"#utility.yul\":3975:4000   */\n  mload\n    /* \"#utility.yul\":4027:4045   */\n  0xffffffffffffffff\n    /* \"#utility.yul\":4019:4025   */\n  dup2\n    /* \"#utility.yul\":4016:4046   */\n  gt\n    /* \"#utility.yul\":4013:4130   */\n  iszero\n  tag_98\n  jumpi\n    /* \"#utility.yul\":4049:4128   */\n  tag_99\n  tag_11\n  jump\t// in\ntag_99:\n    /* \"#utility.yul\":4013:4130   */\ntag_98:\n    /* \"#utility.yul\":4154:4228   */\n  tag_100\n    /* \"#utility.yul\":4220:4227   */\n  dup7\n    /* \"#utility.yul\":4211:4217   */\n  dup3\n    /* \"#utility.yul\":4200:4209   */\n  dup8\n    /* \"#utility.yul\":4196:4218   */\n  add\n    /* \"#utility.yul\":4154:4228   */\n  tag_25\n  jump\t// in\ntag_100:\n    /* \"#utility.yul\":4144:4228   */\n  swap3\n  pop\n    /* \"#utility.yul\":3946:4238   */\n  pop\n    /* \"#utility.yul\":4277:4279   */\n  0x40\n    /* \"#utility.yul\":4303:4367   */\n  tag_101\n    /* \"#utility.yul\":4359:4366   */\n  dup7\n    /* \"#utility.yul\":4350:4356   */\n  dup3\n    /* \"#utility.yul\":4339:4348   */\n  dup8\n    /* \"#utility.yul\":4335:4357   */\n  add\n    /* \"#utility.yul\":4303:4367   */\n  tag_28\n  jump\t// in\ntag_101:\n    /* \"#utility.yul\":4293:4367   */\n  swap2\n  pop\n    /* \"#utility.yul\":4248:4377   */\n  pop\n    /* \"#utility.yul\":3548:4384   */\n  swap3\n  pop\n  swap3\n  pop\n  swap3\n  jump\t// out\n    /* \"#utility.yul\":4390:4489   */\ntag_29:\n    /* \"#utility.yul\":4442:4448   */\n  0x00\n    /* \"#utility.yul\":4476:4481   */\n  dup2\n    /* \"#utility.yul\":4470:4482   */\n  mload\n    /* \"#utility.yul\":4460:4482   */\n  swap1\n  pop\n    /* \"#utility.yul\":4390:4489   */\n  swap2\n  swap1\n  pop\n  jump\t// out\n    /* \"#utility.yul\":4495:4675   */\ntag_30:\n    /* \"#utility.yul\":4543:4620   */\n  0x4e487b7100000000000000000000000000000000000000000000000000000000\n    /* \"#utility.yul\":4540:4541   */\n  0x00\n    /* \"#utility.yul\":4533:4621   */\n  mstore\n    /* \"#utility.yul\":4640:4644   */\n  0x22\n    /* \"#utility.yul\":4637:4638   */\n  0x04\n    /* \"#utility.yul\":4630:4645   */\n  mstore\n    /* \"#utility.yul\":4664:4668   */\n  0x24\n    /* \"#utility.yul\":4661:4662   */\n  0x00\n    /* \"#utility.yul\":4654:4669   */\n  revert\n    /* \"#utility.yul\":4681:5001   */\ntag_31:\n    /* \"#utility.yul\":4725:4731   */\n  0x00\n    /* \"#utility.yul\":4762:4763   */\n  0x02\n    /* \"#utility.yul\":4756:4760   */\n  dup3\n    /* \"#utility.yul\":4752:4764   */\n  div\n    /* \"#utility.yul\":4742:4764   */\n  swap1\n  pop\n    /* \"#utility.yul\":4809:4810   */\n  0x01\n    /* \"#utility.yul\":4803:4807   */\n  dup3\n    /* \"#utility.yul\":4799:4811   */\n  and\n    /* \"#utility.yul\":4830:4848   */\n  dup1\n    /* \"#utility.yul\":4820:4901   */\n  tag_105\n  jumpi\n    /* \"#utility.yul\":4886:4890   */\n  0x7f\n    /* \"#utility.yul\":4878:4884   */\n  dup3\n    /* \"#utility.yul\":4874:4891   */\n  and\n    /* \"#utility.yul\":4864:4891   */\n  swap2\n  pop\n    /* \"#utility.yul\":4820:4901   */\ntag_105:\n    /* \"#utility.yul\":4948:4950   */\n  0x20\n    /* \"#utility.yul\":4940:4946   */\n  dup3\n    /* \"#utility.yul\":4937:4951   */\n  lt\n    /* \"#utility.yul\":4917:4935   */\n  dup2\n    /* \"#utility.yul\":4914:4952   */\n  sub\n    /* \"#utility.yul\":4911:4995   */\n  tag_106\n  jumpi\n    /* \"#utility.yul\":4967:4985   */\n  tag_107\n  tag_30\n  jump\t// in\ntag_107:\n    /* \"#utility.yul\":4911:4995   */\ntag_106:\n    /* \"#utility.yul\":4732:5001   */\n  pop\n    /* \"#utility.yul\":4681:5001   */\n  swap2\n  swap1\n  pop\n  jump\t// out\n    /* \"#utility.yul\":5007:5148   */\ntag_32:\n    /* \"#utility.yul\":5056:5060   */\n  0x00\n    /* \"#utility.yul\":5079:5082   */\n  dup2\n    /* \"#utility.yul\":5071:5082   */\n  swap1\n  pop\n    /* \"#utility.yul\":5102:5105   */\n  dup2\n    /* \"#utility.yul\":5099:5100   */\n  0x00\n    /* \"#utility.yul\":5092:5106   */\n  mstore\n    /* \"#utility.yul\":5136:5140   */\n  0x20\n    /* \"#utility.yul\":5133:5134   */\n  0x00\n    /* \"#utility.yul\":5123:5141   */\n  keccak256\n    /* \"#utility.yul\":5115:5141   */\n  swap1\n  pop\n    /* \"#utility.yul\":5007:5148   */\n  swap2\n  swap1\n  pop\n  jump\t// out\n    /* \"#utility.yul\":5154:5247   */\ntag_33:\n    /* \"#utility.yul\":5191:5197   */\n  0x00\n    /* \"#utility.yul\":5238:5240   */\n  0x20\n    /* \"#utility.yul\":5233:5235   */\n  0x1f\n    /* \"#utility.yul\":5226:5231   */\n  dup4\n    /* \"#utility.yul\":5222:5236   */\n  add\n    /* \"#utility.yul\":5218:5241   */\n  div\n    /* \"#utility.yul\":5208:5241   */\n  swap1\n  pop\n    /* \"#utility.yul\":5154:5247   */\n  swap2\n  swap1\n  pop\n  jump\t// out\n    /* \"#utility.yul\":5253:5360   */\ntag_34:\n    /* \"#utility.yul\":5297:5305   */\n  0x00\n    /* \"#utility.yul\":5347:5352   */\n  dup3\n    /* \"#utility.yul\":5341:5345   */\n  dup3\n    /* \"#utility.yul\":5337:5353   */\n  shl\n    /* \"#utility.yul\":5316:5353   */\n  swap1\n  pop\n    /* \"#utility.yul\":5253:5360   */\n  swap3\n  swap2\n  pop\n  pop\n  jump\t// out\n    /* \"#utility.yul\":5366:5759   */\ntag_35:\n    /* \"#utility.yul\":5435:5441   */\n  0x00\n    /* \"#utility.yul\":5485:5486   */\n  0x08\n    /* \"#utility.yul\":5473:5483   */\n  dup4\n    /* \"#utility.yul\":5469:5487   */\n  mul\n    /* \"#utility.yul\":5508:5605   */\n  tag_112\n    /* \"#utility.yul\":5538:5604   */\n  0xffffffffffffffffffffffffffffffffffffffffffffffffffffffffffffffff\n    /* \"#utility.yul\":5527:5536   */\n  dup3\n    /* \"#utility.yul\":5508:5605   */\n  tag_34\n  jump\t// in\ntag_112:\n    /* \"#utility.yul\":5626:5665   */\n  tag_113\n    /* \"#utility.yul\":5656:5664   */\n  dup7\n    /* \"#utility.yul\":5645:5654   */\n  dup4\n    /* \"#utility.yul\":5626:5665   */\n  tag_34\n  jump\t// in\ntag_113:\n    /* \"#utility.yul\":5614:5665   */\n  swap6\n  pop\n    /* \"#utility.yul\":5698:5702   */\n  dup1\n    /* \"#utility.yul\":5694:5703   */\n  not\n    /* \"#utility.yul\":5687:5692   */\n  dup5\n    /* \"#utility.yul\":5683:5704   */\n  and\n    /* \"#utility.yul\":5674:5704   */\n  swap4\n  pop\n    /* \"#utility.yul\":5747:5751   */\n  dup1\n    /* \"#utility.yul\":5737:5745   */\n  dup7\n    /* \"#utility.yul\":5733:5752   */\n  and\n    /* \"#utility.yul\":5726:5731   */\n  dup5\n    /* \"#utility.yul\":5723:5753   */\n  or\n    /* \"#utility.yul\":5713:5753   */\n  swap3\n  pop\n    /* \"#utility.yul\":5442:5759   */\n  pop\n  pop\n    /* \"#utility.yul\":5366:5759   */\n  swap4\n  swap3\n  pop\n  pop\n  pop\n  jump\t// out\n    /* \"#utility.yul\":5765:5825   */\ntag_36:\n    /* \"#utility.yul\":5793:5796   */\n  0x00\n    /* \"#utility.yul\":5814:5819   */\n  dup2\n    /* \"#utility.yul\":5807:5819   */\n  swap1\n  pop\n    /* \"#utility.yul\":5765:5825   */\n  swap2\n  swap1\n  pop\n  jump\t// out\n    /* \"#utility.yul\":5831:5973   */\ntag_37:\n    /* \"#utility.yul\":5881:5890   */\n  0x00\n    /* \"#utility.yul\":5914:5967   */\n  tag_116\n    /* \"#utility.yul\":5932:5966   */\n  tag_117\n    /* \"#utility.yul\":5941:5965   */\n  tag_118\n    /* \"#utility.yul\":5959:5964   */\n  dup5\n    /* \"#utility.yul\":5941:5965   */\n  tag_26\n  jump\t// in\ntag_118:\n    /* \"#utility.yul\":5932:5966   */\n  tag_36\n  jump\t// in\ntag_117:\n    /* \"#utility.yul\":5914:5967   */\n  tag_26\n  jump\t// in\ntag_116:\n    /* \"#utility.yul\":5901:5967   */\n  swap1\n  pop\n    /* \"#utility.yul\":5831:5973   */\n  swap2\n  swap1\n  pop\n  jump\t// out\n    /* \"#utility.yul\":5979:6054   */\ntag_38:\n    /* \"#utility.yul\":6022:6025   */\n  0x00\n    /* \"#utility.yul\":6043:6048   */\n  dup2\n    /* \"#utility.yul\":6036:6048   */\n  swap1\n  pop\n    /* \"#utility.yul\":5979:6054   */\n  swap2\n  swap1\n  pop\n  jump\t// out\n    /* \"#utility.yul\":6060:6329   */\ntag_39:\n    /* \"#utility.yul\":6170:6209   */\n  tag_121\n    /* \"#utility.yul\":6201:6208   */\n  dup4\n    /* \"#utility.yul\":6170:6209   */\n  tag_37\n  jump\t// in\ntag_121:\n    /* \"#utility.yul\":6231:6322   */\n  tag_122\n    /* \"#utility.yul\":6280:6321   */\n  tag_123\n    /* \"#utility.yul\":6304:6320   */\n  dup3\n    /* \"#utility.yul\":6280:6321   */\n  tag_38\n  jump\t// in\ntag_123:\n    /* \"#utility.yul\":6272:6278   */\n  dup5\n    /* \"#utility.yul\":6265:6269   */\n  dup5\n    /* \"#utility.yul\":6259:6270   */\n  sload\n    /* \"#utility.yul\":6231:6322   */\n  tag_35\n  jump\t// in\ntag_122:\n    /* \"#utility.yul\":6225:6229   */\n  dup3\n    /* \"#utility.yul\":6218:6323   */\n  sstore\n    /* \"#utility.yul\":6136:6329   */\n  pop\n    /* \"#utility.yul\":6060:6329   */\n  pop\n  pop\n  pop\n  jump\t// out\n    /* \"#utility.yul\":6335:6408   */\ntag_40:\n    /* \"#utility.yul\":6380:6383   */\n  0x00\n    /* \"#utility.yul\":6335:6408   */\n  swap1\n  jump\t// out\n    /* \"#utility.yul\":6414:6603   */\ntag_41:\n    /* \"#utility.yul\":6491:6523   */\n  tag_126\n  tag_40\n  jump\t// in\ntag_126:\n    /* \"#utility.yul\":6532:6597   */\n  tag_127\n    /* \"#utility.yul\":6590:6596   */\n  dup2\n    /* \"#utility.yul\":6582:6588   */\n  dup5\n    /* \"#utility.yul\":6576:6580   */\n  dup5\n    /* \"#utility.yul\":6532:6597   */\n  tag_39\n  jump\t// in\ntag_127:\n    /* \"#utility.yul\":6467:6603   */\n  pop\n    /* \"#utility.yul\":6414:6603   */\n  pop\n  pop\n  jump\t// out\n    /* \"#utility.yul\":6609:6795   */\ntag_42:\n    /* \"#utility.yul\":6669:6789   */\ntag_129:\n    /* \"#utility.yul\":6686:6689   */\n  dup2\n    /* \"#utility.yul\":6679:6684   */\n  dup2\n    /* \"#utility.yul\":6676:6690   */\n  lt\n    /* \"#utility.yul\":6669:6789   */\n  iszero\n  tag_131\n  jumpi\n    /* \"#utility.yul\":6740:6779   */\n  tag_132\n    /* \"#utility.yul\":6777:6778   */\n  0x00\n    /* \"#utility.yul\":6770:6775   */\n  dup3\n    /* \"#utility.yul\":6740:6779   */\n  tag_41\n  jump\t// in\ntag_132:\n    /* \"#utility.yul\":6713:6714   */\n  0x01\n    /* \"#utility.yul\":6706:6711   */\n  dup2\n    /* \"#utility.yul\":6702:6715   */\n  add\n    /* \"#utility.yul\":6693:6715   */\n  swap1\n  pop\n    /* \"#utility.yul\":6669:6789   */\n  jump(tag_129)\ntag_131:\n    /* \"#utility.yul\":6609:6795   */\n  pop\n  pop\n  jump\t// out\n    /* \"#utility.yul\":6801:7344   */\ntag_43:\n    /* \"#utility.yul\":6902:6904   */\n  0x1f\n    /* \"#utility.yul\":6897:6900   */\n  dup3\n    /* \"#utility.yul\":6894:6905   */\n  gt\n    /* \"#utility.yul\":6891:7337   */\n  iszero\n  tag_134\n  jumpi\n    /* \"#utility.yul\":6936:6974   */\n  tag_135\n    /* \"#utility.yul\":6968:6973   */\n  dup2\n    /* \"#utility.yul\":6936:6974   */\n  tag_32\n  jump\t// in\ntag_135:\n    /* \"#utility.yul\":7020:7049   */\n  tag_136\n    /* \"#utility.yul\":7038:7048   */\n  dup5\n    /* \"#utility.yul\":7020:7049   */\n  tag_33\n  jump\t// in\ntag_136:\n    /* \"#utility.yul\":7010:7018   */\n  dup2\n    /* \"#utility.yul\":7006:7050   */\n  add\n    /* \"#utility.yul\":7203:7205   */\n  0x20\n    /* \"#utility.yul\":7191:7201   */\n  dup6\n    /* \"#utility.yul\":7188:7206   */\n  lt\n    /* \"#utility.yul\":7185:7234   */\n  iszero\n  tag_137\n  jumpi\n    /* \"#utility.yul\":7224:7232   */\n  dup2\n    /* \"#utility.yul\":7209:7232   */\n  swap1\n  pop\n    /* \"#utility.yul\":7185:7234   */\ntag_137:\n    /* \"#utility.yul\":7247:7327   */\n  tag_138\n    /* \"#utility.yul\":7303:7325   */\n  tag_139\n    /* \"#utility.yul\":7321:7324   */\n  dup6\n    /* \"#utility.yul\":7303:7325   */\n  tag_33\n  jump\t// in\ntag_139:\n    /* \"#utility.yul\":7293:7301   */\n  dup4\n    /* \"#utility.yul\":7289:7326   */\n  add\n    /* \"#utility.yul\":7276:7287   */\n  dup3\n    /* \"#utility.yul\":7247:7327   */\n  tag_42\n  jump\t// in\ntag_138:\n    /* \"#utility.yul\":6906:7337   */\n  pop\n  pop\n    /* \"#utility.yul\":6891:7337   */\ntag_134:\n    /* \"#utility.yul\":6801:7344   */\n  pop\n  pop\n  pop\n  jump\t// out\n    /* \"#utility.yul\":7350:7467   */\ntag_44:\n    /* \"#utility.yul\":7404:7412   */\n  0x00\n    /* \"#utility.yul\":7454:7459   */\n  dup3\n    /* \"#utility.yul\":7448:7452   */\n  dup3\n    /* \"#utility.yul\":7444:7460   */\n  shr\n    /* \"#utility.yul\":7423:7460   */\n  swap1\n  pop\n    /* \"#utility.yul\":7350:7467   */\n  swap3\n  swap2\n  pop\n  pop\n  jump\t// out\n    /* \"#utility.yul\":7473:7642   */\ntag_45:\n    /* \"#utility.yul\":7517:7523   */\n  0x00\n    /* \"#utility.yul\":7550:7601   */\n  tag_142\n    /* \"#utility.yul\":7598:7599   */\n  0x00\n    /* \"#utility.yul\":7594:7600   */\n  not\n    /* \"#utility.yul\":7586:7591   */\n  dup5\n    /* \"#utility.yul\":7583:7584   */\n  0x08\n    /* \"#utility.yul\":7579:7592   */\n  mul\n    /* \"#utility.yul\":7550:7601   */\n  tag_44\n  jump\t// in\ntag_142:\n    /* \"#utility.yul\":7546:7602   */\n  not\n    /* \"#utility.yul\":7631:7635   */\n  dup1\n    /* \"#utility.yul\":7625:7629   */\n  dup4\n    /* \"#utility.yul\":7621:7636   */\n  and\n    /* \"#utility.yul\":7611:7636   */\n  swap2\n  pop\n    /* \"#utility.yul\":7524:7642   */\n  pop\n    /* \"#utility.yul\":7473:7642   */\n  swap3\n  swap2\n  pop\n  pop\n  jump\t// out\n    /* \"#utility.yul\":7647:7942   */\ntag_46:\n    /* \"#utility.yul\":7723:7727   */\n  0x00\n    /* \"#utility.yul\":7869:7898   */\n  tag_144\n    /* \"#utility.yul\":7894:7897   */\n  dup4\n    /* \"#utility.yul\":7888:7892   */\n  dup4\n    /* \"#utility.yul\":7869:7898   */\n  tag_45\n  jump\t// in\ntag_144:\n    /* \"#utility.yul\":7861:7898   */\n  swap2\n  pop\n    /* \"#utility.yul\":7931:7934   */\n  dup3\n    /* \"#utility.yul\":7928:7929   */\n  0x02\n    /* \"#utility.yul\":7924:7935   */\n  mul\n    /* \"#utility.yul\":7918:7922   */\n  dup3\n    /* \"#utility.yul\":7915:7936   */\n  or\n    /* \"#utility.yul\":7907:7936   */\n  swap1\n  pop\n    /* \"#utility.yul\":7647:7942   */\n  swap3\n  swap2\n  pop\n  pop\n  jump\t// out\n    /* \"#utility.yul\":7947:9342   */\ntag_7:\n    /* \"#utility.yul\":8064:8101   */\n  tag_146\n    /* \"#utility.yul\":8097:8100   */\n  dup3\n    /* \"#utility.yul\":8064:8101   */\n  tag_29\n  jump\t// in\ntag_146:\n    /* \"#utility.yul\":8166:8184   */\n  0xffffffffffffffff\n    /* \"#utility.yul\":8158:8164   */\n  dup2\n    /* \"#utility.yul\":8155:8185   */\n  gt\n    /* \"#utility.yul\":8152:8208   */\n  iszero\n  tag_147\n  jumpi\n    /* \"#utility.yul\":8188:8206   */\n  tag_148\n  tag_19\n  jump\t// in\ntag_148:\n    /* \"#utility.yul\":8152:8208   */\ntag_147:\n    /* \"#utility.yul\":8232:8270   */\n  tag_149\n    /* \"#utility.yul\":8264:8268   */\n  dup3\n    /* \"#utility.yul\":8258:8269   */\n  sload\n    /* \"#utility.yul\":8232:8270   */\n  tag_31\n  jump\t// in\ntag_149:\n    /* \"#utility.yul\":8317:8384   */\n  tag_150\n    /* \"#utility.yul\":8377:8383   */\n  dup3\n    /* \"#utility.yul\":8369:8375   */\n  dup3\n    /* \"#utility.yul\":8363:8367   */\n  dup6\n    /* \"#utility.yul\":8317:8384   */\n  tag_43\n  jump\t// in\ntag_150:\n    /* \"#utility.yul\":8411:8412   */\n  0x00\n    /* \"#utility.yul\":8435:8439   */\n  0x20\n    /* \"#utility.yul\":8422:8439   */\n  swap1\n  pop\n    /* \"#utility.yul\":8467:8469   */\n  0x1f\n    /* \"#utility.yul\":8459:8465   */\n  dup4\n    /* \"#utility.yul\":8456:8470   */\n  gt\n    /* \"#utility.yul\":8484:8485   */\n  0x01\n    /* \"#utility.yul\":8479:9097   */\n  dup2\n  eq\n  tag_152\n  jumpi\n    /* \"#utility.yul\":9141:9142   */\n  0x00\n    /* \"#utility.yul\":9158:9164   */\n  dup5\n    /* \"#utility.yul\":9155:9232   */\n  iszero\n  tag_153\n  jumpi\n    /* \"#utility.yul\":9207:9216   */\n  dup3\n    /* \"#utility.yul\":9202:9205   */\n  dup8\n    /* \"#utility.yul\":9198:9217   */\n  add\n    /* \"#utility.yul\":9192:9218   */\n  mload\n    /* \"#utility.yul\":9183:9218   */\n  swap1\n  pop\n    /* \"#utility.yul\":9155:9232   */\ntag_153:\n    /* \"#utility.yul\":9258:9325   */\n  tag_154\n    /* \"#utility.yul\":9318:9324   */\n  dup6\n    /* \"#utility.yul\":9311:9316   */\n  dup3\n    /* \"#utility.yul\":9258:9325   */\n  tag_46\n  jump\t// in\ntag_154:\n    /* \"#utility.yul\":9252:9256   */\n  dup7\n    /* \"#utility.yul\":9245:9326   */\n  sstore\n    /* \"#utility.yul\":9114:9336   */\n  pop\n    /* \"#utility.yul\":8449:9336   */\n  jump(tag_151)\n    /* \"#utility.yul\":8479:9097   */\ntag_152:\n    /* \"#utility.yul\":8531:8535   */\n  0x1f\n    /* \"#utility.yul\":8527:8536   */\n  not\n    /* \"#utility.yul\":8519:8525   */\n  dup5\n    /* \"#utility.yul\":8515:8537   */\n  and\n    /* \"#utility.yul\":8565:8602   */\n  tag_155\n    /* \"#utility.yul\":8597:8601   */\n  dup7\n    /* \"#utility.yul\":8565:8602   */\n  tag_32\n  jump\t// in\ntag_155:\n    /* \"#utility.yul\":8624:8625   */\n  0x00\n    /* \"#utility.yul\":8638:8846   */\ntag_156:\n    /* \"#utility.yul\":8652:8659   */\n  dup3\n    /* \"#utility.yul\":8649:8650   */\n  dup2\n    /* \"#utility.yul\":8646:8660   */\n  lt\n    /* \"#utility.yul\":8638:8846   */\n  iszero\n  tag_158\n  jumpi\n    /* \"#utility.yul\":8731:8740   */\n  dup5\n    /* \"#utility.yul\":8726:8729   */\n  dup10\n    /* \"#utility.yul\":8722:8741   */\n  add\n    /* \"#utility.yul\":8716:8742   */\n  mload\n    /* \"#utility.yul\":8708:8714   */\n  dup3\n    /* \"#utility.yul\":8701:8743   */\n  sstore\n    /* \"#utility.yul\":8782:8783   */\n  0x01\n    /* \"#utility.yul\":8774:8780   */\n  dup3\n    /* \"#utility.yul\":8770:8784   */\n  add\n    /* \"#utility.yul\":8760:8784   */\n  swap2\n  pop\n    /* \"#utility.yul\":8829:8831   */\n  0x20\n    /* \"#utility.yul\":8818:8827   */\n  dup6\n    /* \"#utility.yul\":8814:8832   */\n  add\n    /* \"#utility.yul\":8801:8832   */\n  swap5\n  pop\n    /* \"#utility.yul\":8675:8679   */\n  0x20\n    /* \"#utility.yul\":8672:8673   */\n  dup2\n    /* \"#utility.yul\":8668:8680   */\n  add\n    /* \"#utility.yul\":8663:8680   */\n  swap1\n  pop\n    /* \"#utility.yul\":8638:8846   */\n  jump(tag_156)\ntag_158:\n    /* \"#utility.yul\":8874:8880   */\n  dup7\n    /* \"#utility.yul\":8865:8872   */\n  dup4\n    /* \"#utility.yul\":8862:8881   */\n  lt\n    /* \"#utility.yul\":8859:9038   */\n  iszero\n  tag_159\n  jumpi\n    /* \"#utility.yul\":8932:8941   */\n  dup5\n    /* \"#utility.yul\":8927:8930   */\n  dup10\n    /* \"#utility.yul\":8923:8942   */\n  add\n    /* \"#utility.yul\":8917:8943   */\n  mload\n    /* \"#utility.yul\":8975:9023   */\n  tag_160\n    /* \"#utility.yul\":9017:9021   */\n  0x1f\n    /* \"#utility.yul\":9009:9015   */\n  dup10\n    /* \"#utility.yul\":9005:9022   */\n  and\n    /* \"#utility.yul\":8994:9003   */\n  dup3\n    /* \"#utility.yul\":8975:9023   */\n  tag_45\n  jump\t// in\ntag_160:\n    /* \"#utility.yul\":8967:8973   */\n  dup4\n    /* \"#utility.yul\":8960:9024   */\n  sstore\n    /* \"#utility.yul\":8882:9038   */\n  pop\n    /* \"#utility.yul\":8859:9038   */\ntag_159:\n    /* \"#utility.yul\":9084:9085   */\n  0x01\n    /* \"#utility.yul\":9080:9081   */\n  0x02\n    /* \"#utility.yul\":9072:9078   */\n  dup9\n    /* \"#utility.yul\":9068:9082   */\n  mul\n    /* \"#utility.yul\":9064:9086   */\n  add\n    /* \"#utility.yul\":9058:9062   */\n  dup9\n    /* \"#utility.yul\":9051:9087   */\n  sstore\n    /* \"#utility.yul\":8486:9097   */\n  pop\n  pop\n  pop\n    /* \"#utility.yul\":8449:9336   */\ntag_151:\n  pop\n    /* \"#utility.yul\":8039:9342   */\n  pop\n  pop\n  pop\n    /* \"#utility.yul\":7947:9342   */\n  pop\n  pop\n  jump\t// out\n    /* \"ServiceChain.sol\":695:5117  contract Service{... */\ntag_8:\n  dataSize(sub_0)\n  dup1\n  dataOffset(sub_0)\n  0x00\n  codecopy\n  0x00\n  return\nstop\n\nsub_0: assembly {\n        /* \"ServiceChain.sol\":695:5117  contract Service{... */\n      mstore(0x40, 0x80)\n      jumpi(tag_1, lt(calldatasize, 0x04))\n      shr(0xe0, calldataload(0x00))\n      dup1\n      0x6eaf9563\n      gt\n      tag_17\n      jumpi\n      dup1\n      0xa4e81be0\n      gt\n      tag_18\n      jumpi\n      dup1\n      0xa4e81be0\n      eq\n      tag_13\n      jumpi\n      dup1\n      0xc17c3521\n      eq\n      tag_14\n      jumpi\n      dup1\n      0xcc1e2cb0\n      eq\n      tag_15\n      jumpi\n      dup1\n      0xd0e30db0\n      eq\n      tag_16\n      jumpi\n      jump(tag_1)\n    tag_18:\n      dup1\n      0x6eaf9563\n      eq\n      tag_9\n      jumpi\n      dup1\n      0x9ace38c2\n      eq\n      tag_10\n      jumpi\n      dup1\n      0x9d5f65fc\n      eq\n      tag_11\n      jumpi\n      dup1\n      0xa329f8f6\n      eq\n      tag_12\n      jumpi\n      jump(tag_1)\n    tag_17:\n      dup1\n      0x2a0e54bd\n      gt\n      tag_19\n      jumpi\n      dup1\n      0x2a0e54bd\n      eq\n      tag_5\n      jumpi\n      dup1\n      0x474466c2\n      eq\n      tag_6\n      jumpi\n      dup1\n      0x481c6a75\n      eq\n      tag_7\n      jumpi\n      dup1\n      0x59a7b3fe\n      eq\n      tag_8\n      jumpi\n      jump(tag_1)\n    tag_19:\n      dup1\n      0x0fa8d54f\n      eq\n      tag_2\n      jumpi\n      dup1\n      0x12065fe0\n      eq\n      tag_3\n      jumpi\n      dup1\n      0x20ee128e\n      eq\n      tag_4\n      jumpi\n    tag_1:\n      0x00\n      dup1\n      revert\n        /* \"ServiceChain.sol\":2225:2504  function requestHours(uint value) public{... */\n    tag_2:\n      callvalue\n      dup1\n      iszero\n      tag_20\n      jumpi\n      0x00\n      dup1\n      revert\n    tag_20:\n      pop\n      tag_21\n      0x04\n      dup1\n      calldatasize\n      sub\n      dup2\n      add\n      swap1\n      tag_22\n      swap2\n      swap1\n      tag_23\n      jump\t// in\n    tag_22:\n      tag_24\n      jump\t// in\n    tag_21:\n      stop\n        /* \"ServiceChain.sol\":5013:5108  function getBalance() public view returns(uint) {... */\n    tag_3:\n      callvalue\n      dup1\n      iszero\n      tag_25\n      jumpi\n      0x00\n      dup1\n      revert\n    tag_25:\n      pop\n      tag_26\n      tag_27\n      jump\t// in\n    tag_26:\n      mload(0x40)\n      tag_28\n      swap2\n      swap1\n      tag_29\n      jump\t// in\n    tag_28:\n      mload(0x40)\n      dup1\n      swap2\n      sub\n      swap1\n      return\n        /* \"ServiceChain.sol\":1569:1612  mapping(address=>hourLog[]) public empHours */\n    tag_4:\n      callvalue\n      dup1\n      iszero\n      tag_30\n      jumpi\n      0x00\n      dup1\n      revert\n    tag_30:\n      pop\n      tag_31\n      0x04\n      dup1\n      calldatasize\n      sub\n      dup2\n      add\n      swap1\n      tag_32\n      swap2\n      swap1\n      tag_33\n      jump\t// in\n    tag_32:\n      tag_34\n      jump\t// in\n    tag_31:\n      mload(0x40)\n      tag_35\n      swap5\n      swap4\n      swap3\n      swap2\n      swap1\n      tag_36\n      jump\t// in\n    tag_35:\n      mload(0x40)\n      dup1\n      swap2\n      sub\n      swap1\n      return\n        /* \"ServiceChain.sol\":1619:1668  mapping(address=>customerRating[]) public ratings */\n    tag_5:\n      callvalue\n      dup1\n      iszero\n      tag_37\n      jumpi\n      0x00\n      dup1\n      revert\n    tag_37:\n      pop\n      tag_38\n      0x04\n      dup1\n      calldatasize\n      sub\n      dup2\n      add\n      swap1\n      tag_39\n      swap2\n      swap1\n      tag_33\n      jump\t// in\n    tag_39:\n      tag_40\n      jump\t// in\n    tag_38:\n      mload(0x40)\n      tag_41\n      swap3\n      swap2\n      swap1\n      tag_42\n      jump\t// in\n    tag_41:\n      mload(0x40)\n      dup1\n      swap2\n      sub\n      swap1\n      return\n        /* \"ServiceChain.sol\":2738:3524  function confirmHours(address payable waiter,uint index) public payable{... */\n    tag_6:\n      tag_43\n      0x04\n      dup1\n      calldatasize\n      sub\n      dup2\n      add\n      swap1\n      tag_44\n      swap2\n      swap1\n      tag_45\n      jump\t// in\n    tag_44:\n      tag_46\n      jump\t// in\n    tag_43:\n      stop\n        /* \"ServiceChain.sol\":1699:1721  address public manager */\n    tag_7:\n      callvalue\n      dup1\n      iszero\n      tag_47\n      jumpi\n      0x00\n      dup1\n      revert\n    tag_47:\n      pop\n      tag_48\n      tag_49\n      jump\t// in\n    tag_48:\n      mload(0x40)\n      tag_50\n      swap2\n      swap1\n      tag_51\n      jump\t// in\n    tag_50:\n      mload(0x40)\n      dup1\n      swap2\n      sub\n      swap1\n      return\n        /* \"ServiceChain.sol\":1728:1750  uint public hourlyRate */\n    tag_8:\n      callvalue\n      dup1\n      iszero\n      tag_52\n      jumpi\n      0x00\n      dup1\n      revert\n    tag_52:\n      pop\n      tag_53\n      tag_54\n      jump\t// in\n    tag_53:\n      mload(0x40)\n      tag_55\n      swap2\n      swap1\n      tag_29\n      jump\t// in\n    tag_55:\n      mload(0x40)\n      dup1\n      swap2\n      sub\n      swap1\n      return\n        /* \"ServiceChain.sol\":3530:4102  function denyHours(address waiter,uint index) public{... */\n    tag_9:\n      callvalue\n      dup1\n      iszero\n      tag_56\n      jumpi\n      0x00\n      dup1\n      revert\n    tag_56:\n      pop\n      tag_57\n      0x04\n      dup1\n      calldatasize\n      sub\n      dup2\n      add\n      swap1\n      tag_58\n      swap2\n      swap1\n      tag_33\n      jump\t// in\n    tag_58:\n      tag_59\n      jump\t// in\n    tag_57:\n      stop\n        /* \"ServiceChain.sol\":1529:1562  Transaction[] public transactions */\n    tag_10:\n      callvalue\n      dup1\n      iszero\n      tag_60\n      jumpi\n      0x00\n      dup1\n      revert\n    tag_60:\n      pop\n      tag_61\n      0x04\n      dup1\n      calldatasize\n      sub\n      dup2\n      add\n      swap1\n      tag_62\n      swap2\n      swap1\n      tag_23\n      jump\t// in\n    tag_62:\n      tag_63\n      jump\t// in\n    tag_61:\n      mload(0x40)\n      tag_64\n      swap4\n      swap3\n      swap2\n      swap1\n      tag_65\n      jump\t// in\n    tag_64:\n      mload(0x40)\n      dup1\n      swap2\n      sub\n      swap1\n      return\n        /* \"ServiceChain.sol\":4161:4278  function getHourLog(address waiter) public view returns(hourLog[] memory){... */\n    tag_11:\n      callvalue\n      dup1\n      iszero\n      tag_66\n      jumpi\n      0x00\n      dup1\n      revert\n    tag_66:\n      pop\n      tag_67\n      0x04\n      dup1\n      calldatasize\n      sub\n      dup2\n      add\n      swap1\n      tag_68\n      swap2\n      swap1\n      tag_69\n      jump\t// in\n    tag_68:\n      tag_70\n      jump\t// in\n    tag_67:\n      mload(0x40)\n      tag_71\n      swap2\n      swap1\n      tag_72\n      jump\t// in\n    tag_71:\n      mload(0x40)\n      dup1\n      swap2\n      sub\n      swap1\n      return\n        /* \"ServiceChain.sol\":4300:4542  function sendRatings(address customer,address waiter,uint rating) public {... */\n    tag_12:\n      callvalue\n      dup1\n      iszero\n      tag_73\n      jumpi\n      0x00\n      dup1\n      revert\n    tag_73:\n      pop\n      tag_74\n      0x04\n      dup1\n      calldatasize\n      sub\n      dup2\n      add\n      swap1\n      tag_75\n      swap2\n      swap1\n      tag_76\n      jump\t// in\n    tag_75:\n      tag_77\n      jump\t// in\n    tag_74:\n      stop\n        /* \"ServiceChain.sol\":4838:5005  function sendTip(address payable recipient) public payable {... */\n    tag_13:\n      tag_78\n      0x04\n      dup1\n      calldatasize\n      sub\n      dup2\n      add\n      swap1\n      tag_79\n      swap2\n      swap1\n      tag_80\n      jump\t// in\n    tag_79:\n      tag_81\n      jump\t// in\n    tag_78:\n      stop\n        /* \"ServiceChain.sol\":1963:2107  function setHourlyRate(uint rate) public {... */\n    tag_14:\n      callvalue\n      dup1\n      iszero\n      tag_82\n      jumpi\n      0x00\n      dup1\n      revert\n    tag_82:\n      pop\n      tag_83\n      0x04\n      dup1\n      calldatasize\n      sub\n      dup2\n      add\n      swap1\n      tag_84\n      swap2\n      swap1\n      tag_23\n      jump\t// in\n    tag_84:\n      tag_85\n      jump\t// in\n    tag_83:\n      stop\n        /* \"ServiceChain.sol\":1675:1692  string public org */\n    tag_15:\n      callvalue\n      dup1\n      iszero\n      tag_86\n      jumpi\n      0x00\n      dup1\n      revert\n    tag_86:\n      pop\n      tag_87\n      tag_88\n      jump\t// in\n    tag_87:\n      mload(0x40)\n      tag_89\n      swap2\n      swap1\n      tag_90\n      jump\t// in\n    tag_89:\n      mload(0x40)\n      dup1\n      swap2\n      sub\n      swap1\n      return\n        /* \"ServiceChain.sol\":4585:4711  function deposit() public payable {... */\n    tag_16:\n      tag_91\n      tag_92\n      jump\t// in\n    tag_91:\n      stop\n        /* \"ServiceChain.sol\":2225:2504  function requestHours(uint value) public{... */\n    tag_24:\n        /* \"ServiceChain.sol\":2401:2402  8 */\n      0x08\n        /* \"ServiceChain.sol\":2371:2379  empHours */\n      0x01\n        /* \"ServiceChain.sol\":2371:2391  empHours[msg.sender] */\n      0x00\n        /* \"ServiceChain.sol\":2380:2390  msg.sender */\n      caller\n        /* \"ServiceChain.sol\":2371:2391  empHours[msg.sender] */\n      0xffffffffffffffffffffffffffffffffffffffff\n      and\n      0xffffffffffffffffffffffffffffffffffffffff\n      and\n      dup2\n      mstore\n      0x20\n      add\n      swap1\n      dup2\n      mstore\n      0x20\n      add\n      0x00\n      keccak256\n        /* \"ServiceChain.sol\":2371:2398  empHours[msg.sender].length */\n      dup1\n      sload\n      swap1\n      pop\n        /* \"ServiceChain.sol\":2371:2402  empHours[msg.sender].length < 8 */\n      lt\n        /* \"ServiceChain.sol\":2363:2403  require(empHours[msg.sender].length < 8) */\n      tag_94\n      jumpi\n      0x00\n      dup1\n      revert\n    tag_94:\n        /* \"ServiceChain.sol\":2414:2422  empHours */\n      0x01\n        /* \"ServiceChain.sol\":2414:2434  empHours[msg.sender] */\n      0x00\n        /* \"ServiceChain.sol\":2423:2433  msg.sender */\n      caller\n        /* \"ServiceChain.sol\":2414:2434  empHours[msg.sender] */\n      0xffffffffffffffffffffffffffffffffffffffff\n      and\n      0xffffffffffffffffffffffffffffffffffffffff\n      and\n      dup2\n      mstore\n      0x20\n      add\n      swap1\n      dup2\n      mstore\n      0x20\n      add\n      0x00\n      keccak256\n        /* \"ServiceChain.sol\":2440:2495  hourLog(block.timestamp,value,hourlyRate * value,false) */\n      mload(0x40)\n      dup1\n      0x80\n      add\n      0x40\n      mstore\n      dup1\n        /* \"ServiceChain.sol\":2448:2463  block.timestamp */\n      timestamp\n        /* \"ServiceChain.sol\":2440:2495  hourLog(block.timestamp,value,hourlyRate * value,false) */\n      dup2\n      mstore\n      0x20\n      add\n        /* \"ServiceChain.sol\":2464:2469  value */\n      dup4\n        /* \"ServiceChain.sol\":2440:2495  hourLog(block.timestamp,value,hourlyRate * value,false) */\n      dup2\n      mstore\n      0x20\n      add\n        /* \"ServiceChain.sol\":2483:2488  value */\n      dup4\n        /* \"ServiceChain.sol\":2470:2480  hourlyRate */\n      sload(0x05)\n        /* \"ServiceChain.sol\":2470:2488  hourlyRate * value */\n      tag_95\n      swap2\n      swap1\n      tag_96\n      jump\t// in\n    tag_95:\n        /* \"ServiceChain.sol\":2440:2495  hourLog(block.timestamp,value,hourlyRate * value,false) */\n      dup2\n      mstore\n      0x20\n      add\n        /* \"ServiceChain.sol\":2489:2494  false */\n      0x00\n        /* \"ServiceChain.sol\":2440:2495  hourLog(block.timestamp,value,hourlyRate * value,false) */\n      iszero\n      iszero\n      dup2\n      mstore\n      pop\n        /* \"ServiceChain.sol\":2414:2496  empHours[msg.sender].push(hourLog(block.timestamp,value,hourlyRate * value,false)) */\n      swap1\n      dup1\n      0x01\n      dup2\n      sload\n      add\n      dup1\n      dup3\n      sstore\n      dup1\n      swap2\n      pop\n      pop\n      0x01\n      swap1\n      sub\n      swap1\n      0x00\n      mstore\n      keccak256(0x00, 0x20)\n      swap1\n      0x04\n      mul\n      add\n      0x00\n      swap1\n      swap2\n      swap1\n      swap2\n      swap1\n      swap2\n      pop\n      0x00\n      dup3\n      add\n      mload\n      dup2\n      0x00\n      add\n      sstore\n      0x20\n      dup3\n      add\n      mload\n      dup2\n      0x01\n      add\n      sstore\n      0x40\n      dup3\n      add\n      mload\n      dup2\n      0x02\n      add\n      sstore\n      0x60\n      dup3\n      add\n      mload\n      dup2\n      0x03\n      add\n      exp(0x0100, 0x00)\n      dup2\n      sload\n      dup2\n      0xff\n      mul\n      not\n      and\n      swap1\n      dup4\n      iszero\n      iszero\n      mul\n      or\n      swap1\n      sstore\n      pop\n      pop\n      pop\n        /* \"ServiceChain.sol\":2225:2504  function requestHours(uint value) public{... */\n      pop\n      jump\t// out\n        /* \"ServiceChain.sol\":5013:5108  function getBalance() public view returns(uint) {... */\n    tag_27:\n        /* \"ServiceChain.sol\":5055:5059  uint */\n      0x00\n        /* \"ServiceChain.sol\":5079:5100  address(this).balance */\n      selfbalance\n        /* \"ServiceChain.sol\":5072:5100  return address(this).balance */\n      swap1\n      pop\n        /* \"ServiceChain.sol\":5013:5108  function getBalance() public view returns(uint) {... */\n      swap1\n      jump\t// out\n        /* \"ServiceChain.sol\":1569:1612  mapping(address=>hourLog[]) public empHours */\n    tag_34:\n      mstore(0x20, 0x01)\n      dup2\n      0x00\n      mstore\n      keccak256(0x00, 0x40)\n      dup2\n      dup2\n      sload\n      dup2\n      lt\n      tag_99\n      jumpi\n      0x00\n      dup1\n      revert\n    tag_99:\n      swap1\n      0x00\n      mstore\n      keccak256(0x00, 0x20)\n      swap1\n      0x04\n      mul\n      add\n      0x00\n      swap2\n      pop\n      swap2\n      pop\n      pop\n      dup1\n      0x00\n      add\n      sload\n      swap1\n      dup1\n      0x01\n      add\n      sload\n      swap1\n      dup1\n      0x02\n      add\n      sload\n      swap1\n      dup1\n      0x03\n      add\n      0x00\n      swap1\n      sload\n      swap1\n      0x0100\n      exp\n      swap1\n      div\n      0xff\n      and\n      swap1\n      pop\n      dup5\n      jump\t// out\n        /* \"ServiceChain.sol\":1619:1668  mapping(address=>customerRating[]) public ratings */\n    tag_40:\n      mstore(0x20, 0x02)\n      dup2\n      0x00\n      mstore\n      keccak256(0x00, 0x40)\n      dup2\n      dup2\n      sload\n      dup2\n      lt\n      tag_101\n      jumpi\n      0x00\n      dup1\n      revert\n    tag_101:\n      swap1\n      0x00\n      mstore\n      keccak256(0x00, 0x20)\n      swap1\n      0x02\n      mul\n      add\n      0x00\n      swap2\n      pop\n      swap2\n      pop\n      pop\n      dup1\n      0x00\n      add\n      0x00\n      swap1\n      sload\n      swap1\n      0x0100\n      exp\n      swap1\n      div\n      0xffffffffffffffffffffffffffffffffffffffff\n      and\n      swap1\n      dup1\n      0x01\n      add\n      sload\n      swap1\n      pop\n      dup3\n      jump\t// out\n        /* \"ServiceChain.sol\":2738:3524  function confirmHours(address payable waiter,uint index) public payable{... */\n    tag_46:\n        /* \"ServiceChain.sol\":2842:2849  manager */\n      0x04\n      0x00\n      swap1\n      sload\n      swap1\n      0x0100\n      exp\n      swap1\n      div\n      0xffffffffffffffffffffffffffffffffffffffff\n      and\n        /* \"ServiceChain.sol\":2828:2849  msg.sender == manager */\n      0xffffffffffffffffffffffffffffffffffffffff\n      and\n        /* \"ServiceChain.sol\":2828:2838  msg.sender */\n      caller\n        /* \"ServiceChain.sol\":2828:2849  msg.sender == manager */\n      0xffffffffffffffffffffffffffffffffffffffff\n      and\n      eq\n        /* \"ServiceChain.sol\":2820:2876  require(msg.sender == manager,\"You are not the manager\") */\n      tag_104\n      jumpi\n      mload(0x40)\n      0x08c379a000000000000000000000000000000000000000000000000000000000\n      dup2\n      mstore\n      0x04\n      add\n      tag_105\n      swap1\n      tag_106\n      jump\t// in\n    tag_105:\n      mload(0x40)\n      dup1\n      swap2\n      sub\n      swap1\n      revert\n    tag_104:\n        /* \"ServiceChain.sol\":3040:3044  true */\n      0x01\n        /* \"ServiceChain.sol\":3007:3146  submitApproval(msg.sender,waiter,true,empHours[waiter][index].date, empHours[waiter][index].hour,hourlyRate * empHours[waiter][index].hour) */\n      iszero\n      iszero\n        /* \"ServiceChain.sol\":3033:3039  waiter */\n      dup3\n        /* \"ServiceChain.sol\":3007:3146  submitApproval(msg.sender,waiter,true,empHours[waiter][index].date, empHours[waiter][index].hour,hourlyRate * empHours[waiter][index].hour) */\n      0xffffffffffffffffffffffffffffffffffffffff\n      and\n        /* \"ServiceChain.sol\":3022:3032  msg.sender */\n      caller\n        /* \"ServiceChain.sol\":3007:3146  submitApproval(msg.sender,waiter,true,empHours[waiter][index].date, empHours[waiter][index].hour,hourlyRate * empHours[waiter][index].hour) */\n      0xffffffffffffffffffffffffffffffffffffffff\n      and\n      0x62a0718d681b5a77ad80fbaf7e41ff461f77b69d49e3879cba8e045c85e2ac74\n        /* \"ServiceChain.sol\":3045:3053  empHours */\n      0x01\n        /* \"ServiceChain.sol\":3045:3061  empHours[waiter] */\n      0x00\n        /* \"ServiceChain.sol\":3054:3060  waiter */\n      dup8\n        /* \"ServiceChain.sol\":3045:3061  empHours[waiter] */\n      0xffffffffffffffffffffffffffffffffffffffff\n      and\n      0xffffffffffffffffffffffffffffffffffffffff\n      and\n      dup2\n      mstore\n      0x20\n      add\n      swap1\n      dup2\n      mstore\n      0x20\n      add\n      0x00\n      keccak256\n        /* \"ServiceChain.sol\":3062:3067  index */\n      dup6\n        /* \"ServiceChain.sol\":3045:3068  empHours[waiter][index] */\n      dup2\n      sload\n      dup2\n      lt\n      tag_107\n      jumpi\n      tag_108\n      tag_109\n      jump\t// in\n    tag_108:\n    tag_107:\n      swap1\n      0x00\n      mstore\n      keccak256(0x00, 0x20)\n      swap1\n      0x04\n      mul\n      add\n        /* \"ServiceChain.sol\":3045:3073  empHours[waiter][index].date */\n      0x00\n      add\n      sload\n        /* \"ServiceChain.sol\":3075:3083  empHours */\n      0x01\n        /* \"ServiceChain.sol\":3075:3091  empHours[waiter] */\n      0x00\n        /* \"ServiceChain.sol\":3084:3090  waiter */\n      dup9\n        /* \"ServiceChain.sol\":3075:3091  empHours[waiter] */\n      0xffffffffffffffffffffffffffffffffffffffff\n      and\n      0xffffffffffffffffffffffffffffffffffffffff\n      and\n      dup2\n      mstore\n      0x20\n      add\n      swap1\n      dup2\n      mstore\n      0x20\n      add\n      0x00\n      keccak256\n        /* \"ServiceChain.sol\":3092:3097  index */\n      dup7\n        /* \"ServiceChain.sol\":3075:3098  empHours[waiter][index] */\n      dup2\n      sload\n      dup2\n      lt\n      tag_111\n      jumpi\n      tag_112\n      tag_109\n      jump\t// in\n    tag_112:\n    tag_111:\n      swap1\n      0x00\n      mstore\n      keccak256(0x00, 0x20)\n      swap1\n      0x04\n      mul\n      add\n        /* \"ServiceChain.sol\":3075:3103  empHours[waiter][index].hour */\n      0x01\n      add\n      sload\n        /* \"ServiceChain.sol\":3117:3125  empHours */\n      0x01\n        /* \"ServiceChain.sol\":3117:3133  empHours[waiter] */\n      0x00\n        /* \"ServiceChain.sol\":3126:3132  waiter */\n      dup10\n        /* \"ServiceChain.sol\":3117:3133  empHours[waiter] */\n      0xffffffffffffffffffffffffffffffffffffffff\n      and\n      0xffffffffffffffffffffffffffffffffffffffff\n      and\n      dup2\n      mstore\n      0x20\n      add\n      swap1\n      dup2\n      mstore\n      0x20\n      add\n      0x00\n      keccak256\n        /* \"ServiceChain.sol\":3134:3139  index */\n      dup8\n        /* \"ServiceChain.sol\":3117:3140  empHours[waiter][index] */\n      dup2\n      sload\n      dup2\n      lt\n      tag_114\n      jumpi\n      tag_115\n      tag_109\n      jump\t// in\n    tag_115:\n    tag_114:\n      swap1\n      0x00\n      mstore\n      keccak256(0x00, 0x20)\n      swap1\n      0x04\n      mul\n      add\n        /* \"ServiceChain.sol\":3117:3145  empHours[waiter][index].hour */\n      0x01\n      add\n      sload\n        /* \"ServiceChain.sol\":3104:3114  hourlyRate */\n      sload(0x05)\n        /* \"ServiceChain.sol\":3104:3145  hourlyRate * empHours[waiter][index].hour */\n      tag_117\n      swap2\n      swap1\n      tag_96\n      jump\t// in\n    tag_117:\n        /* \"ServiceChain.sol\":3007:3146  submitApproval(msg.sender,waiter,true,empHours[waiter][index].date, empHours[waiter][index].hour,hourlyRate * empHours[waiter][index].hour) */\n      mload(0x40)\n      tag_118\n      swap4\n      swap3\n      swap2\n      swap1\n      tag_119\n      jump\t// in\n    tag_118:\n      mload(0x40)\n      dup1\n      swap2\n      sub\n      swap1\n      log4\n        /* \"ServiceChain.sol\":3239:3245  waiter */\n      dup2\n        /* \"ServiceChain.sol\":3239:3254  waiter.transfer */\n      0xffffffffffffffffffffffffffffffffffffffff\n      and\n        /* \"ServiceChain.sol\":3239:3299  waiter.transfer(hourlyRate*15* empHours[waiter][index].hour) */\n      0x08fc\n        /* \"ServiceChain.sol\":3270:3278  empHours */\n      0x01\n        /* \"ServiceChain.sol\":3270:3286  empHours[waiter] */\n      0x00\n        /* \"ServiceChain.sol\":3279:3285  waiter */\n      dup6\n        /* \"ServiceChain.sol\":3270:3286  empHours[waiter] */\n      0xffffffffffffffffffffffffffffffffffffffff\n      and\n      0xffffffffffffffffffffffffffffffffffffffff\n      and\n      dup2\n      mstore\n      0x20\n      add\n      swap1\n      dup2\n      mstore\n      0x20\n      add\n      0x00\n      keccak256\n        /* \"ServiceChain.sol\":3287:3292  index */\n      dup4\n        /* \"ServiceChain.sol\":3270:3293  empHours[waiter][index] */\n      dup2\n      sload\n      dup2\n      lt\n      tag_120\n      jumpi\n      tag_121\n      tag_109\n      jump\t// in\n    tag_121:\n    tag_120:\n      swap1\n      0x00\n      mstore\n      keccak256(0x00, 0x20)\n      swap1\n      0x04\n      mul\n      add\n        /* \"ServiceChain.sol\":3270:3298  empHours[waiter][index].hour */\n      0x01\n      add\n      sload\n        /* \"ServiceChain.sol\":3266:3268  15 */\n      0x0f\n        /* \"ServiceChain.sol\":3255:3265  hourlyRate */\n      sload(0x05)\n        /* \"ServiceChain.sol\":3255:3268  hourlyRate*15 */\n      tag_123\n      swap2\n      swap1\n      tag_96\n      jump\t// in\n    tag_123:\n        /* \"ServiceChain.sol\":3255:3298  hourlyRate*15* empHours[waiter][index].hour */\n      tag_124\n      swap2\n      swap1\n      tag_96\n      jump\t// in\n    tag_124:\n        /* \"ServiceChain.sol\":3239:3299  waiter.transfer(hourlyRate*15* empHours[waiter][index].hour) */\n      swap1\n      dup2\n      iszero\n      mul\n      swap1\n      mload(0x40)\n      0x00\n      mload(0x40)\n      dup1\n      dup4\n      sub\n      dup2\n      dup6\n      dup9\n      dup9\n      call\n      swap4\n      pop\n      pop\n      pop\n      pop\n      iszero\n      dup1\n      iszero\n      tag_126\n      jumpi\n      returndatasize\n      0x00\n      dup1\n      returndatacopy\n      revert(0x00, returndatasize)\n    tag_126:\n      pop\n        /* \"ServiceChain.sol\":3363:3369  uint i */\n      0x00\n        /* \"ServiceChain.sol\":3371:3376  index */\n      dup2\n        /* \"ServiceChain.sol\":3363:3376  uint i =index */\n      swap1\n      pop\n        /* \"ServiceChain.sol\":3359:3479  for(uint i =index;i<empHours[waiter].length-1;i++){... */\n    tag_127:\n        /* \"ServiceChain.sol\":3403:3404  1 */\n      0x01\n        /* \"ServiceChain.sol\":3379:3387  empHours */\n      dup1\n        /* \"ServiceChain.sol\":3379:3395  empHours[waiter] */\n      0x00\n        /* \"ServiceChain.sol\":3388:3394  waiter */\n      dup6\n        /* \"ServiceChain.sol\":3379:3395  empHours[waiter] */\n      0xffffffffffffffffffffffffffffffffffffffff\n      and\n      0xffffffffffffffffffffffffffffffffffffffff\n      and\n      dup2\n      mstore\n      0x20\n      add\n      swap1\n      dup2\n      mstore\n      0x20\n      add\n      0x00\n      keccak256\n        /* \"ServiceChain.sol\":3379:3402  empHours[waiter].length */\n      dup1\n      sload\n      swap1\n      pop\n        /* \"ServiceChain.sol\":3379:3404  empHours[waiter].length-1 */\n      tag_130\n      swap2\n      swap1\n      tag_131\n      jump\t// in\n    tag_130:\n        /* \"ServiceChain.sol\":3377:3378  i */\n      dup2\n        /* \"ServiceChain.sol\":3377:3404  i<empHours[waiter].length-1 */\n      lt\n        /* \"ServiceChain.sol\":3359:3479  for(uint i =index;i<empHours[waiter].length-1;i++){... */\n      iszero\n      tag_128\n      jumpi\n        /* \"ServiceChain.sol\":3446:3454  empHours */\n      0x01\n        /* \"ServiceChain.sol\":3446:3462  empHours[waiter] */\n      0x00\n        /* \"ServiceChain.sol\":3455:3461  waiter */\n      dup5\n        /* \"ServiceChain.sol\":3446:3462  empHours[waiter] */\n      0xffffffffffffffffffffffffffffffffffffffff\n      and\n      0xffffffffffffffffffffffffffffffffffffffff\n      and\n      dup2\n      mstore\n      0x20\n      add\n      swap1\n      dup2\n      mstore\n      0x20\n      add\n      0x00\n      keccak256\n        /* \"ServiceChain.sol\":3465:3466  1 */\n      0x01\n        /* \"ServiceChain.sol\":3463:3464  i */\n      dup3\n        /* \"ServiceChain.sol\":3463:3466  i+1 */\n      tag_132\n      swap2\n      swap1\n      tag_133\n      jump\t// in\n    tag_132:\n        /* \"ServiceChain.sol\":3446:3467  empHours[waiter][i+1] */\n      dup2\n      sload\n      dup2\n      lt\n      tag_134\n      jumpi\n      tag_135\n      tag_109\n      jump\t// in\n    tag_135:\n    tag_134:\n      swap1\n      0x00\n      mstore\n      keccak256(0x00, 0x20)\n      swap1\n      0x04\n      mul\n      add\n        /* \"ServiceChain.sol\":3424:3432  empHours */\n      0x01\n        /* \"ServiceChain.sol\":3424:3440  empHours[waiter] */\n      0x00\n        /* \"ServiceChain.sol\":3433:3439  waiter */\n      dup6\n        /* \"ServiceChain.sol\":3424:3440  empHours[waiter] */\n      0xffffffffffffffffffffffffffffffffffffffff\n      and\n      0xffffffffffffffffffffffffffffffffffffffff\n      and\n      dup2\n      mstore\n      0x20\n      add\n      swap1\n      dup2\n      mstore\n      0x20\n      add\n      0x00\n      keccak256\n        /* \"ServiceChain.sol\":3441:3442  i */\n      dup3\n        /* \"ServiceChain.sol\":3424:3443  empHours[waiter][i] */\n      dup2\n      sload\n      dup2\n      lt\n      tag_137\n      jumpi\n      tag_138\n      tag_109\n      jump\t// in\n    tag_138:\n    tag_137:\n      swap1\n      0x00\n      mstore\n      keccak256(0x00, 0x20)\n      swap1\n      0x04\n      mul\n      add\n        /* \"ServiceChain.sol\":3424:3467  empHours[waiter][i] = empHours[waiter][i+1] */\n      0x00\n      dup3\n      add\n      sload\n      dup2\n      0x00\n      add\n      sstore\n      0x01\n      dup3\n      add\n      sload\n      dup2\n      0x01\n      add\n      sstore\n      0x02\n      dup3\n      add\n      sload\n      dup2\n      0x02\n      add\n      sstore\n      0x03\n      dup3\n      add\n      0x00\n      swap1\n      sload\n      swap1\n      0x0100\n      exp\n      swap1\n      div\n      0xff\n      and\n      dup2\n      0x03\n      add\n      exp(0x0100, 0x00)\n      dup2\n      sload\n      dup2\n      0xff\n      mul\n      not\n      and\n      swap1\n      dup4\n      iszero\n      iszero\n      mul\n      or\n      swap1\n      sstore\n      pop\n      swap1\n      pop\n      pop\n        /* \"ServiceChain.sol\":3405:3408  i++ */\n      dup1\n      dup1\n      tag_140\n      swap1\n      tag_141\n      jump\t// in\n    tag_140:\n      swap2\n      pop\n      pop\n        /* \"ServiceChain.sol\":3359:3479  for(uint i =index;i<empHours[waiter].length-1;i++){... */\n      jump(tag_127)\n    tag_128:\n      pop\n        /* \"ServiceChain.sol\":3489:3497  empHours */\n      0x01\n        /* \"ServiceChain.sol\":3489:3505  empHours[waiter] */\n      0x00\n        /* \"ServiceChain.sol\":3498:3504  waiter */\n      dup4\n        /* \"ServiceChain.sol\":3489:3505  empHours[waiter] */\n      0xffffffffffffffffffffffffffffffffffffffff\n      and\n      0xffffffffffffffffffffffffffffffffffffffff\n      and\n      dup2\n      mstore\n      0x20\n      add\n      swap1\n      dup2\n      mstore\n      0x20\n      add\n      0x00\n      keccak256\n        /* \"ServiceChain.sol\":3489:3511  empHours[waiter].pop() */\n      dup1\n      sload\n      dup1\n      tag_142\n      jumpi\n      tag_143\n      tag_144\n      jump\t// in\n    tag_143:\n    tag_142:\n      0x01\n      swap1\n      sub\n      dup2\n      dup2\n      swap1\n      0x00\n      mstore\n      keccak256(0x00, 0x20)\n      swap1\n      0x04\n      mul\n      add\n      0x00\n      dup1\n      dup3\n      add\n      0x00\n      swap1\n      sstore\n      0x01\n      dup3\n      add\n      0x00\n      swap1\n      sstore\n      0x02\n      dup3\n      add\n      0x00\n      swap1\n      sstore\n      0x03\n      dup3\n      add\n      exp(0x0100, 0x00)\n      dup2\n      sload\n      swap1\n      0xff\n      mul\n      not\n      and\n      swap1\n      sstore\n      pop\n      pop\n      swap1\n      sstore\n        /* \"ServiceChain.sol\":2738:3524  function confirmHours(address payable waiter,uint index) public payable{... */\n      pop\n      pop\n      jump\t// out\n        /* \"ServiceChain.sol\":1699:1721  address public manager */\n    tag_49:\n      0x04\n      0x00\n      swap1\n      sload\n      swap1\n      0x0100\n      exp\n      swap1\n      div\n      0xffffffffffffffffffffffffffffffffffffffff\n      and\n      dup2\n      jump\t// out\n        /* \"ServiceChain.sol\":1728:1750  uint public hourlyRate */\n    tag_54:\n      sload(0x05)\n      dup2\n      jump\t// out\n        /* \"ServiceChain.sol\":3530:4102  function denyHours(address waiter,uint index) public{... */\n    tag_59:\n        /* \"ServiceChain.sol\":3615:3622  manager */\n      0x04\n      0x00\n      swap1\n      sload\n      swap1\n      0x0100\n      exp\n      swap1\n      div\n      0xffffffffffffffffffffffffffffffffffffffff\n      and\n        /* \"ServiceChain.sol\":3601:3622  msg.sender == manager */\n      0xffffffffffffffffffffffffffffffffffffffff\n      and\n        /* \"ServiceChain.sol\":3601:3611  msg.sender */\n      caller\n        /* \"ServiceChain.sol\":3601:3622  msg.sender == manager */\n      0xffffffffffffffffffffffffffffffffffffffff\n      and\n      eq\n        /* \"ServiceChain.sol\":3593:3649  require(msg.sender == manager,\"You are not the manager\") */\n      tag_147\n      jumpi\n      mload(0x40)\n      0x08c379a000000000000000000000000000000000000000000000000000000000\n      dup2\n      mstore\n      0x04\n      add\n      tag_148\n      swap1\n      tag_106\n      jump\t// in\n    tag_148:\n      mload(0x40)\n      dup1\n      swap2\n      sub\n      swap1\n      revert\n    tag_147:\n        /* \"ServiceChain.sol\":3813:3818  false */\n      0x00\n        /* \"ServiceChain.sol\":3780:3880  submitApproval(msg.sender,waiter,false,empHours[waiter][index].date, empHours[waiter][index].hour,0) */\n      iszero\n      iszero\n        /* \"ServiceChain.sol\":3806:3812  waiter */\n      dup3\n        /* \"ServiceChain.sol\":3780:3880  submitApproval(msg.sender,waiter,false,empHours[waiter][index].date, empHours[waiter][index].hour,0) */\n      0xffffffffffffffffffffffffffffffffffffffff\n      and\n        /* \"ServiceChain.sol\":3795:3805  msg.sender */\n      caller\n        /* \"ServiceChain.sol\":3780:3880  submitApproval(msg.sender,waiter,false,empHours[waiter][index].date, empHours[waiter][index].hour,0) */\n      0xffffffffffffffffffffffffffffffffffffffff\n      and\n      0x62a0718d681b5a77ad80fbaf7e41ff461f77b69d49e3879cba8e045c85e2ac74\n        /* \"ServiceChain.sol\":3819:3827  empHours */\n      0x01\n        /* \"ServiceChain.sol\":3819:3835  empHours[waiter] */\n      0x00\n        /* \"ServiceChain.sol\":3828:3834  waiter */\n      dup8\n        /* \"ServiceChain.sol\":3819:3835  empHours[waiter] */\n      0xffffffffffffffffffffffffffffffffffffffff\n      and\n      0xffffffffffffffffffffffffffffffffffffffff\n      and\n      dup2\n      mstore\n      0x20\n      add\n      swap1\n      dup2\n      mstore\n      0x20\n      add\n      0x00\n      keccak256\n        /* \"ServiceChain.sol\":3836:3841  index */\n      dup6\n        /* \"ServiceChain.sol\":3819:3842  empHours[waiter][index] */\n      dup2\n      sload\n      dup2\n      lt\n      tag_149\n      jumpi\n      tag_150\n      tag_109\n      jump\t// in\n    tag_150:\n    tag_149:\n      swap1\n      0x00\n      mstore\n      keccak256(0x00, 0x20)\n      swap1\n      0x04\n      mul\n      add\n        /* \"ServiceChain.sol\":3819:3847  empHours[waiter][index].date */\n      0x00\n      add\n      sload\n        /* \"ServiceChain.sol\":3849:3857  empHours */\n      0x01\n        /* \"ServiceChain.sol\":3849:3865  empHours[waiter] */\n      0x00\n        /* \"ServiceChain.sol\":3858:3864  waiter */\n      dup9\n        /* \"ServiceChain.sol\":3849:3865  empHours[waiter] */\n      0xffffffffffffffffffffffffffffffffffffffff\n      and\n      0xffffffffffffffffffffffffffffffffffffffff\n      and\n      dup2\n      mstore\n      0x20\n      add\n      swap1\n      dup2\n      mstore\n      0x20\n      add\n      0x00\n      keccak256\n        /* \"ServiceChain.sol\":3866:3871  index */\n      dup7\n        /* \"ServiceChain.sol\":3849:3872  empHours[waiter][index] */\n      dup2\n      sload\n      dup2\n      lt\n      tag_152\n      jumpi\n      tag_153\n      tag_109\n      jump\t// in\n    tag_153:\n    tag_152:\n      swap1\n      0x00\n      mstore\n      keccak256(0x00, 0x20)\n      swap1\n      0x04\n      mul\n      add\n        /* \"ServiceChain.sol\":3849:3877  empHours[waiter][index].hour */\n      0x01\n      add\n      sload\n        /* \"ServiceChain.sol\":3878:3879  0 */\n      0x00\n        /* \"ServiceChain.sol\":3780:3880  submitApproval(msg.sender,waiter,false,empHours[waiter][index].date, empHours[waiter][index].hour,0) */\n      mload(0x40)\n      tag_155\n      swap4\n      swap3\n      swap2\n      swap1\n      tag_156\n      jump\t// in\n    tag_155:\n      mload(0x40)\n      dup1\n      swap2\n      sub\n      swap1\n      log4\n        /* \"ServiceChain.sol\":3944:3950  uint i */\n      0x00\n        /* \"ServiceChain.sol\":3952:3957  index */\n      dup2\n        /* \"ServiceChain.sol\":3944:3957  uint i =index */\n      swap1\n      pop\n        /* \"ServiceChain.sol\":3940:4060  for(uint i =index;i<empHours[waiter].length-1;i++){... */\n    tag_157:\n        /* \"ServiceChain.sol\":3984:3985  1 */\n      0x01\n        /* \"ServiceChain.sol\":3960:3968  empHours */\n      dup1\n        /* \"ServiceChain.sol\":3960:3976  empHours[waiter] */\n      0x00\n        /* \"ServiceChain.sol\":3969:3975  waiter */\n      dup6\n        /* \"ServiceChain.sol\":3960:3976  empHours[waiter] */\n      0xffffffffffffffffffffffffffffffffffffffff\n      and\n      0xffffffffffffffffffffffffffffffffffffffff\n      and\n      dup2\n      mstore\n      0x20\n      add\n      swap1\n      dup2\n      mstore\n      0x20\n      add\n      0x00\n      keccak256\n        /* \"ServiceChain.sol\":3960:3983  empHours[waiter].length */\n      dup1\n      sload\n      swap1\n      pop\n        /* \"ServiceChain.sol\":3960:3985  empHours[waiter].length-1 */\n      tag_160\n      swap2\n      swap1\n      tag_131\n      jump\t// in\n    tag_160:\n        /* \"ServiceChain.sol\":3958:3959  i */\n      dup2\n        /* \"ServiceChain.sol\":3958:3985  i<empHours[waiter].length-1 */\n      lt\n        /* \"ServiceChain.sol\":3940:4060  for(uint i =index;i<empHours[waiter].length-1;i++){... */\n      iszero\n      tag_158\n      jumpi\n        /* \"ServiceChain.sol\":4027:4035  empHours */\n      0x01\n        /* \"ServiceChain.sol\":4027:4043  empHours[waiter] */\n      0x00\n        /* \"ServiceChain.sol\":4036:4042  waiter */\n      dup5\n        /* \"ServiceChain.sol\":4027:4043  empHours[waiter] */\n      0xffffffffffffffffffffffffffffffffffffffff\n      and\n      0xffffffffffffffffffffffffffffffffffffffff\n      and\n      dup2\n      mstore\n      0x20\n      add\n      swap1\n      dup2\n      mstore\n      0x20\n      add\n      0x00\n      keccak256\n        /* \"ServiceChain.sol\":4046:4047  1 */\n      0x01\n        /* \"ServiceChain.sol\":4044:4045  i */\n      dup3\n        /* \"ServiceChain.sol\":4044:4047  i+1 */\n      tag_161\n      swap2\n      swap1\n      tag_133\n      jump\t// in\n    tag_161:\n        /* \"ServiceChain.sol\":4027:4048  empHours[waiter][i+1] */\n      dup2\n      sload\n      dup2\n      lt\n      tag_162\n      jumpi\n      tag_163\n      tag_109\n      jump\t// in\n    tag_163:\n    tag_162:\n      swap1\n      0x00\n      mstore\n      keccak256(0x00, 0x20)\n      swap1\n      0x04\n      mul\n      add\n        /* \"ServiceChain.sol\":4005:4013  empHours */\n      0x01\n        /* \"ServiceChain.sol\":4005:4021  empHours[waiter] */\n      0x00\n        /* \"ServiceChain.sol\":4014:4020  waiter */\n      dup6\n        /* \"ServiceChain.sol\":4005:4021  empHours[waiter] */\n      0xffffffffffffffffffffffffffffffffffffffff\n      and\n      0xffffffffffffffffffffffffffffffffffffffff\n      and\n      dup2\n      mstore\n      0x20\n      add\n      swap1\n      dup2\n      mstore\n      0x20\n      add\n      0x00\n      keccak256\n        /* \"ServiceChain.sol\":4022:4023  i */\n      dup3\n        /* \"ServiceChain.sol\":4005:4024  empHours[waiter][i] */\n      dup2\n      sload\n      dup2\n      lt\n      tag_165\n      jumpi\n      tag_166\n      tag_109\n      jump\t// in\n    tag_166:\n    tag_165:\n      swap1\n      0x00\n      mstore\n      keccak256(0x00, 0x20)\n      swap1\n      0x04\n      mul\n      add\n        /* \"ServiceChain.sol\":4005:4048  empHours[waiter][i] = empHours[waiter][i+1] */\n      0x00\n      dup3\n      add\n      sload\n      dup2\n      0x00\n      add\n      sstore\n      0x01\n      dup3\n      add\n      sload\n      dup2\n      0x01\n      add\n      sstore\n      0x02\n      dup3\n      add\n      sload\n      dup2\n      0x02\n      add\n      sstore\n      0x03\n      dup3\n      add\n      0x00\n      swap1\n      sload\n      swap1\n      0x0100\n      exp\n      swap1\n      div\n      0xff\n      and\n      dup2\n      0x03\n      add\n      exp(0x0100, 0x00)\n      dup2\n      sload\n      dup2\n      0xff\n      mul\n      not\n      and\n      swap1\n      dup4\n      iszero\n      iszero\n      mul\n      or\n      swap1\n      sstore\n      pop\n      swap1\n      pop\n      pop\n        /* \"ServiceChain.sol\":3986:3989  i++ */\n      dup1\n      dup1\n      tag_168\n      swap1\n      tag_141\n      jump\t// in\n    tag_168:\n      swap2\n      pop\n      pop\n        /* \"ServiceChain.sol\":3940:4060  for(uint i =index;i<empHours[waiter].length-1;i++){... */\n      jump(tag_157)\n    tag_158:\n      pop\n        /* \"ServiceChain.sol\":4070:4078  empHours */\n      0x01\n        /* \"ServiceChain.sol\":4070:4086  empHours[waiter] */\n      0x00\n        /* \"ServiceChain.sol\":4079:4085  waiter */\n      dup4\n        /* \"ServiceChain.sol\":4070:4086  empHours[waiter] */\n      0xffffffffffffffffffffffffffffffffffffffff\n      and\n      0xffffffffffffffffffffffffffffffffffffffff\n      and\n      dup2\n      mstore\n      0x20\n      add\n      swap1\n      dup2\n      mstore\n      0x20\n      add\n      0x00\n      keccak256\n        /* \"ServiceChain.sol\":4070:4092  empHours[waiter].pop() */\n      dup1\n      sload\n      dup1\n      tag_169\n      jumpi\n      tag_170\n      tag_144\n      jump\t// in\n    tag_170:\n    tag_169:\n      0x01\n      swap1\n      sub\n      dup2\n      dup2\n      swap1\n      0x00\n      mstore\n      keccak256(0x00, 0x20)\n      swap1\n      0x04\n      mul\n      add\n      0x00\n      dup1\n      dup3\n      add\n      0x00\n      swap1\n      sstore\n      0x01\n      dup3\n      add\n      0x00\n      swap1\n      sstore\n      0x02\n      dup3\n      add\n      0x00\n      swap1\n      sstore\n      0x03\n      dup3\n      add\n      exp(0x0100, 0x00)\n      dup2\n      sload\n      swap1\n      0xff\n      mul\n      not\n      and\n      swap1\n      sstore\n      pop\n      pop\n      swap1\n      sstore\n        /* \"ServiceChain.sol\":3530:4102  function denyHours(address waiter,uint index) public{... */\n      pop\n      pop\n      jump\t// out\n        /* \"ServiceChain.sol\":1529:1562  Transaction[] public transactions */\n    tag_63:\n      0x00\n      dup2\n      dup2\n      sload\n      dup2\n      lt\n      tag_172\n      jumpi\n      0x00\n      dup1\n      revert\n    tag_172:\n      swap1\n      0x00\n      mstore\n      keccak256(0x00, 0x20)\n      swap1\n      0x03\n      mul\n      add\n      0x00\n      swap2\n      pop\n      swap1\n      pop\n      dup1\n      0x00\n      add\n      0x00\n      swap1\n      sload\n      swap1\n      0x0100\n      exp\n      swap1\n      div\n      0xffffffffffffffffffffffffffffffffffffffff\n      and\n      swap1\n      dup1\n      0x01\n      add\n      sload\n      swap1\n      dup1\n      0x02\n      add\n      dup1\n      sload\n      tag_174\n      swap1\n      tag_175\n      jump\t// in\n    tag_174:\n      dup1\n      0x1f\n      add\n      0x20\n      dup1\n      swap2\n      div\n      mul\n      0x20\n      add\n      mload(0x40)\n      swap1\n      dup2\n      add\n      0x40\n      mstore\n      dup1\n      swap3\n      swap2\n      swap1\n      dup2\n      dup2\n      mstore\n      0x20\n      add\n      dup3\n      dup1\n      sload\n      tag_176\n      swap1\n      tag_175\n      jump\t// in\n    tag_176:\n      dup1\n      iszero\n      tag_177\n      jumpi\n      dup1\n      0x1f\n      lt\n      tag_178\n      jumpi\n      0x0100\n      dup1\n      dup4\n      sload\n      div\n      mul\n      dup4\n      mstore\n      swap2\n      0x20\n      add\n      swap2\n      jump(tag_177)\n    tag_178:\n      dup3\n      add\n      swap2\n      swap1\n      0x00\n      mstore\n      keccak256(0x00, 0x20)\n      swap1\n    tag_179:\n      dup2\n      sload\n      dup2\n      mstore\n      swap1\n      0x01\n      add\n      swap1\n      0x20\n      add\n      dup1\n      dup4\n      gt\n      tag_179\n      jumpi\n      dup3\n      swap1\n      sub\n      0x1f\n      and\n      dup3\n      add\n      swap2\n    tag_177:\n      pop\n      pop\n      pop\n      pop\n      pop\n      swap1\n      pop\n      dup4\n      jump\t// out\n        /* \"ServiceChain.sol\":4161:4278  function getHourLog(address waiter) public view returns(hourLog[] memory){... */\n    tag_70:\n        /* \"ServiceChain.sol\":4217:4233  hourLog[] memory */\n      0x60\n        /* \"ServiceChain.sol\":4252:4260  empHours */\n      0x01\n        /* \"ServiceChain.sol\":4252:4268  empHours[waiter] */\n      0x00\n        /* \"ServiceChain.sol\":4261:4267  waiter */\n      dup4\n        /* \"ServiceChain.sol\":4252:4268  empHours[waiter] */\n      0xffffffffffffffffffffffffffffffffffffffff\n      and\n      0xffffffffffffffffffffffffffffffffffffffff\n      and\n      dup2\n      mstore\n      0x20\n      add\n      swap1\n      dup2\n      mstore\n      0x20\n      add\n      0x00\n      keccak256\n        /* \"ServiceChain.sol\":4245:4268  return empHours[waiter] */\n      dup1\n      sload\n      dup1\n      0x20\n      mul\n      0x20\n      add\n      mload(0x40)\n      swap1\n      dup2\n      add\n      0x40\n      mstore\n      dup1\n      swap3\n      swap2\n      swap1\n      dup2\n      dup2\n      mstore\n      0x20\n      add\n      0x00\n      swap1\n    tag_181:\n      dup3\n      dup3\n      lt\n      iszero\n      tag_182\n      jumpi\n      dup4\n      dup3\n      swap1\n      0x00\n      mstore\n      keccak256(0x00, 0x20)\n      swap1\n      0x04\n      mul\n      add\n      mload(0x40)\n      dup1\n      0x80\n      add\n      0x40\n      mstore\n      swap1\n      dup2\n      0x00\n      dup3\n      add\n      sload\n      dup2\n      mstore\n      0x20\n      add\n      0x01\n      dup3\n      add\n      sload\n      dup2\n      mstore\n      0x20\n      add\n      0x02\n      dup3\n      add\n      sload\n      dup2\n      mstore\n      0x20\n      add\n      0x03\n      dup3\n      add\n      0x00\n      swap1\n      sload\n      swap1\n      0x0100\n      exp\n      swap1\n      div\n      0xff\n      and\n      iszero\n      iszero\n      iszero\n      iszero\n      dup2\n      mstore\n      pop\n      pop\n      dup2\n      mstore\n      0x20\n      add\n      swap1\n      0x01\n      add\n      swap1\n      jump(tag_181)\n    tag_182:\n      pop\n      pop\n      pop\n      pop\n      swap1\n      pop\n        /* \"ServiceChain.sol\":4161:4278  function getHourLog(address waiter) public view returns(hourLog[] memory){... */\n      swap2\n      swap1\n      pop\n      jump\t// out\n        /* \"ServiceChain.sol\":4300:4542  function sendRatings(address customer,address waiter,uint rating) public {... */\n    tag_77:\n        /* \"ServiceChain.sol\":4402:4403  0 */\n      0x00\n        /* \"ServiceChain.sol\":4392:4398  rating */\n      dup2\n        /* \"ServiceChain.sol\":4392:4403  rating >= 0 */\n      lt\n      iszero\n        /* \"ServiceChain.sol\":4392:4417  rating >= 0 && rating <=5 */\n      dup1\n      iszero\n      tag_185\n      jumpi\n      pop\n        /* \"ServiceChain.sol\":4416:4417  5 */\n      0x05\n        /* \"ServiceChain.sol\":4407:4413  rating */\n      dup2\n        /* \"ServiceChain.sol\":4407:4417  rating <=5 */\n      gt\n      iszero\n        /* \"ServiceChain.sol\":4392:4417  rating >= 0 && rating <=5 */\n    tag_185:\n        /* \"ServiceChain.sol\":4384:4418  require(rating >= 0 && rating <=5) */\n      tag_186\n      jumpi\n      0x00\n      dup1\n      revert\n    tag_186:\n        /* \"ServiceChain.sol\":4463:4469  rating */\n      dup1\n        /* \"ServiceChain.sol\":4456:4462  waiter */\n      dup3\n        /* \"ServiceChain.sol\":4434:4470  submitRating(customer,waiter,rating) */\n      0xffffffffffffffffffffffffffffffffffffffff\n      and\n        /* \"ServiceChain.sol\":4447:4455  customer */\n      dup5\n        /* \"ServiceChain.sol\":4434:4470  submitRating(customer,waiter,rating) */\n      0xffffffffffffffffffffffffffffffffffffffff\n      and\n      0x5435029ae8e53f5303b6dbda07be9beb09ae106923c28bf30dc3c46852588f04\n      mload(0x40)\n      mload(0x40)\n      dup1\n      swap2\n      sub\n      swap1\n      log4\n        /* \"ServiceChain.sol\":4481:4488  ratings */\n      0x02\n        /* \"ServiceChain.sol\":4481:4496  ratings[waiter] */\n      0x00\n        /* \"ServiceChain.sol\":4489:4495  waiter */\n      dup4\n        /* \"ServiceChain.sol\":4481:4496  ratings[waiter] */\n      0xffffffffffffffffffffffffffffffffffffffff\n      and\n      0xffffffffffffffffffffffffffffffffffffffff\n      and\n      dup2\n      mstore\n      0x20\n      add\n      swap1\n      dup2\n      mstore\n      0x20\n      add\n      0x00\n      keccak256\n        /* \"ServiceChain.sol\":4502:4533  customerRating(customer,rating) */\n      mload(0x40)\n      dup1\n      0x40\n      add\n      0x40\n      mstore\n      dup1\n        /* \"ServiceChain.sol\":4517:4525  customer */\n      dup6\n        /* \"ServiceChain.sol\":4502:4533  customerRating(customer,rating) */\n      0xffffffffffffffffffffffffffffffffffffffff\n      and\n      dup2\n      mstore\n      0x20\n      add\n        /* \"ServiceChain.sol\":4526:4532  rating */\n      dup4\n        /* \"ServiceChain.sol\":4502:4533  customerRating(customer,rating) */\n      dup2\n      mstore\n      pop\n        /* \"ServiceChain.sol\":4481:4534  ratings[waiter].push(customerRating(customer,rating)) */\n      swap1\n      dup1\n      0x01\n      dup2\n      sload\n      add\n      dup1\n      dup3\n      sstore\n      dup1\n      swap2\n      pop\n      pop\n      0x01\n      swap1\n      sub\n      swap1\n      0x00\n      mstore\n      keccak256(0x00, 0x20)\n      swap1\n      0x02\n      mul\n      add\n      0x00\n      swap1\n      swap2\n      swap1\n      swap2\n      swap1\n      swap2\n      pop\n      0x00\n      dup3\n      add\n      mload\n      dup2\n      0x00\n      add\n      exp(0x0100, 0x00)\n      dup2\n      sload\n      dup2\n      0xffffffffffffffffffffffffffffffffffffffff\n      mul\n      not\n      and\n      swap1\n      dup4\n      0xffffffffffffffffffffffffffffffffffffffff\n      and\n      mul\n      or\n      swap1\n      sstore\n      pop\n      0x20\n      dup3\n      add\n      mload\n      dup2\n      0x01\n      add\n      sstore\n      pop\n      pop\n        /* \"ServiceChain.sol\":4300:4542  function sendRatings(address customer,address waiter,uint rating) public {... */\n      pop\n      pop\n      pop\n      jump\t// out\n        /* \"ServiceChain.sol\":4838:5005  function sendTip(address payable recipient) public payable {... */\n    tag_81:\n        /* \"ServiceChain.sol\":4908:4917  recipient */\n      dup1\n        /* \"ServiceChain.sol\":4908:4926  recipient.transfer */\n      0xffffffffffffffffffffffffffffffffffffffff\n      and\n        /* \"ServiceChain.sol\":4908:4937  recipient.transfer(msg.value) */\n      0x08fc\n        /* \"ServiceChain.sol\":4927:4936  msg.value */\n      callvalue\n        /* \"ServiceChain.sol\":4908:4937  recipient.transfer(msg.value) */\n      swap1\n      dup2\n      iszero\n      mul\n      swap1\n      mload(0x40)\n      0x00\n      mload(0x40)\n      dup1\n      dup4\n      sub\n      dup2\n      dup6\n      dup9\n      dup9\n      call\n      swap4\n      pop\n      pop\n      pop\n      pop\n      iszero\n      dup1\n      iszero\n      tag_190\n      jumpi\n      returndatasize\n      0x00\n      dup1\n      returndatacopy\n      revert(0x00, returndatasize)\n    tag_190:\n      pop\n        /* \"ServiceChain.sol\":4975:4984  recipient */\n      dup1\n        /* \"ServiceChain.sol\":4953:4997  submitTip(msg.sender, recipient, msg.value ) */\n      0xffffffffffffffffffffffffffffffffffffffff\n      and\n        /* \"ServiceChain.sol\":4963:4973  msg.sender */\n      caller\n        /* \"ServiceChain.sol\":4953:4997  submitTip(msg.sender, recipient, msg.value ) */\n      0xffffffffffffffffffffffffffffffffffffffff\n      and\n      0xad011377252e79c9d574ced1048c7d7020d2abd44385576062139ed308dfe972\n        /* \"ServiceChain.sol\":4986:4995  msg.value */\n      callvalue\n        /* \"ServiceChain.sol\":4953:4997  submitTip(msg.sender, recipient, msg.value ) */\n      mload(0x40)\n      tag_191\n      swap2\n      swap1\n      tag_29\n      jump\t// in\n    tag_191:\n      mload(0x40)\n      dup1\n      swap2\n      sub\n      swap1\n      log3\n        /* \"ServiceChain.sol\":4838:5005  function sendTip(address payable recipient) public payable {... */\n      pop\n      jump\t// out\n        /* \"ServiceChain.sol\":1963:2107  function setHourlyRate(uint rate) public {... */\n    tag_85:\n        /* \"ServiceChain.sol\":2048:2063  block.timestamp */\n      timestamp\n        /* \"ServiceChain.sol\":2037:2047  msg.sender */\n      caller\n        /* \"ServiceChain.sol\":2020:2069  submitHourlyRate(msg.sender,block.timestamp,rate) */\n      0xffffffffffffffffffffffffffffffffffffffff\n      and\n      0x556a8d88a81363d3d82e0a4349b1c101aa81b26dd3f3c9e97a447b9f6cafbf53\n        /* \"ServiceChain.sol\":2064:2068  rate */\n      dup4\n        /* \"ServiceChain.sol\":2020:2069  submitHourlyRate(msg.sender,block.timestamp,rate) */\n      mload(0x40)\n      tag_193\n      swap2\n      swap1\n      tag_29\n      jump\t// in\n    tag_193:\n      mload(0x40)\n      dup1\n      swap2\n      sub\n      swap1\n      log3\n        /* \"ServiceChain.sol\":2093:2097  rate */\n      dup1\n        /* \"ServiceChain.sol\":2080:2090  hourlyRate */\n      0x05\n        /* \"ServiceChain.sol\":2080:2097  hourlyRate = rate */\n      dup2\n      swap1\n      sstore\n      pop\n        /* \"ServiceChain.sol\":1963:2107  function setHourlyRate(uint rate) public {... */\n      pop\n      jump\t// out\n        /* \"ServiceChain.sol\":1675:1692  string public org */\n    tag_88:\n      0x03\n      dup1\n      sload\n      tag_194\n      swap1\n      tag_175\n      jump\t// in\n    tag_194:\n      dup1\n      0x1f\n      add\n      0x20\n      dup1\n      swap2\n      div\n      mul\n      0x20\n      add\n      mload(0x40)\n      swap1\n      dup2\n      add\n      0x40\n      mstore\n      dup1\n      swap3\n      swap2\n      swap1\n      dup2\n      dup2\n      mstore\n      0x20\n      add\n      dup3\n      dup1\n      sload\n      tag_195\n      swap1\n      tag_175\n      jump\t// in\n    tag_195:\n      dup1\n      iszero\n      tag_196\n      jumpi\n      dup1\n      0x1f\n      lt\n      tag_197\n      jumpi\n      0x0100\n      dup1\n      dup4\n      sload\n      div\n      mul\n      dup4\n      mstore\n      swap2\n      0x20\n      add\n      swap2\n      jump(tag_196)\n    tag_197:\n      dup3\n      add\n      swap2\n      swap1\n      0x00\n      mstore\n      keccak256(0x00, 0x20)\n      swap1\n    tag_198:\n      dup2\n      sload\n      dup2\n      mstore\n      swap1\n      0x01\n      add\n      swap1\n      0x20\n      add\n      dup1\n      dup4\n      gt\n      tag_198\n      jumpi\n      dup3\n      swap1\n      sub\n      0x1f\n      and\n      dup3\n      add\n      swap2\n    tag_196:\n      pop\n      pop\n      pop\n      pop\n      pop\n      dup2\n      jump\t// out\n        /* \"ServiceChain.sol\":4585:4711  function deposit() public payable {... */\n    tag_92:\n        /* \"ServiceChain.sol\":4643:4653  msg.sender */\n      caller\n        /* \"ServiceChain.sol\":4635:4703  Deposit(msg.sender,msg.value, address(this).balance,block.timestamp) */\n      0xffffffffffffffffffffffffffffffffffffffff\n      and\n      0x36af321ec8d3c75236829c5317affd40ddb308863a1236d2d277a4025cccee1e\n        /* \"ServiceChain.sol\":4654:4663  msg.value */\n      callvalue\n        /* \"ServiceChain.sol\":4665:4686  address(this).balance */\n      selfbalance\n        /* \"ServiceChain.sol\":4687:4702  block.timestamp */\n      timestamp\n        /* \"ServiceChain.sol\":4635:4703  Deposit(msg.sender,msg.value, address(this).balance,block.timestamp) */\n      mload(0x40)\n      tag_200\n      swap4\n      swap3\n      swap2\n      swap1\n      tag_119\n      jump\t// in\n    tag_200:\n      mload(0x40)\n      dup1\n      swap2\n      sub\n      swap1\n      log2\n        /* \"ServiceChain.sol\":4585:4711  function deposit() public payable {... */\n      jump\t// out\n        /* \"#utility.yul\":88:205   */\n    tag_202:\n        /* \"#utility.yul\":197:198   */\n      0x00\n        /* \"#utility.yul\":194:195   */\n      dup1\n        /* \"#utility.yul\":187:199   */\n      revert\n        /* \"#utility.yul\":334:411   */\n    tag_204:\n        /* \"#utility.yul\":371:378   */\n      0x00\n        /* \"#utility.yul\":400:405   */\n      dup2\n        /* \"#utility.yul\":389:405   */\n      swap1\n      pop\n        /* \"#utility.yul\":334:411   */\n      swap2\n      swap1\n      pop\n      jump\t// out\n        /* \"#utility.yul\":417:539   */\n    tag_205:\n        /* \"#utility.yul\":490:514   */\n      tag_249\n        /* \"#utility.yul\":508:513   */\n      dup2\n        /* \"#utility.yul\":490:514   */\n      tag_204\n      jump\t// in\n    tag_249:\n        /* \"#utility.yul\":483:488   */\n      dup2\n        /* \"#utility.yul\":480:515   */\n      eq\n        /* \"#utility.yul\":470:533   */\n      tag_250\n      jumpi\n        /* \"#utility.yul\":529:530   */\n      0x00\n        /* \"#utility.yul\":526:527   */\n      dup1\n        /* \"#utility.yul\":519:531   */\n      revert\n        /* \"#utility.yul\":470:533   */\n    tag_250:\n        /* \"#utility.yul\":417:539   */\n      pop\n      jump\t// out\n        /* \"#utility.yul\":545:684   */\n    tag_206:\n        /* \"#utility.yul\":591:596   */\n      0x00\n        /* \"#utility.yul\":629:635   */\n      dup2\n        /* \"#utility.yul\":616:636   */\n      calldataload\n        /* \"#utility.yul\":607:636   */\n      swap1\n      pop\n        /* \"#utility.yul\":645:678   */\n      tag_252\n        /* \"#utility.yul\":672:677   */\n      dup2\n        /* \"#utility.yul\":645:678   */\n      tag_205\n      jump\t// in\n    tag_252:\n        /* \"#utility.yul\":545:684   */\n      swap3\n      swap2\n      pop\n      pop\n      jump\t// out\n        /* \"#utility.yul\":690:1019   */\n    tag_23:\n        /* \"#utility.yul\":749:755   */\n      0x00\n        /* \"#utility.yul\":798:800   */\n      0x20\n        /* \"#utility.yul\":786:795   */\n      dup3\n        /* \"#utility.yul\":777:784   */\n      dup5\n        /* \"#utility.yul\":773:796   */\n      sub\n        /* \"#utility.yul\":769:801   */\n      slt\n        /* \"#utility.yul\":766:885   */\n      iszero\n      tag_254\n      jumpi\n        /* \"#utility.yul\":804:883   */\n      tag_255\n      tag_202\n      jump\t// in\n    tag_255:\n        /* \"#utility.yul\":766:885   */\n    tag_254:\n        /* \"#utility.yul\":924:925   */\n      0x00\n        /* \"#utility.yul\":949:1002   */\n      tag_256\n        /* \"#utility.yul\":994:1001   */\n      dup5\n        /* \"#utility.yul\":985:991   */\n      dup3\n        /* \"#utility.yul\":974:983   */\n      dup6\n        /* \"#utility.yul\":970:992   */\n      add\n        /* \"#utility.yul\":949:1002   */\n      tag_206\n      jump\t// in\n    tag_256:\n        /* \"#utility.yul\":939:1002   */\n      swap2\n      pop\n        /* \"#utility.yul\":895:1012   */\n      pop\n        /* \"#utility.yul\":690:1019   */\n      swap3\n      swap2\n      pop\n      pop\n      jump\t// out\n        /* \"#utility.yul\":1025:1143   */\n    tag_207:\n        /* \"#utility.yul\":1112:1136   */\n      tag_258\n        /* \"#utility.yul\":1130:1135   */\n      dup2\n        /* \"#utility.yul\":1112:1136   */\n      tag_204\n      jump\t// in\n    tag_258:\n        /* \"#utility.yul\":1107:1110   */\n      dup3\n        /* \"#utility.yul\":1100:1137   */\n      mstore\n        /* \"#utility.yul\":1025:1143   */\n      pop\n      pop\n      jump\t// out\n        /* \"#utility.yul\":1149:1371   */\n    tag_29:\n        /* \"#utility.yul\":1242:1246   */\n      0x00\n        /* \"#utility.yul\":1280:1282   */\n      0x20\n        /* \"#utility.yul\":1269:1278   */\n      dup3\n        /* \"#utility.yul\":1265:1283   */\n      add\n        /* \"#utility.yul\":1257:1283   */\n      swap1\n      pop\n        /* \"#utility.yul\":1293:1364   */\n      tag_260\n        /* \"#utility.yul\":1361:1362   */\n      0x00\n        /* \"#utility.yul\":1350:1359   */\n      dup4\n        /* \"#utility.yul\":1346:1363   */\n      add\n        /* \"#utility.yul\":1337:1343   */\n      dup5\n        /* \"#utility.yul\":1293:1364   */\n      tag_207\n      jump\t// in\n    tag_260:\n        /* \"#utility.yul\":1149:1371   */\n      swap3\n      swap2\n      pop\n      pop\n      jump\t// out\n        /* \"#utility.yul\":1377:1503   */\n    tag_208:\n        /* \"#utility.yul\":1414:1421   */\n      0x00\n        /* \"#utility.yul\":1454:1496   */\n      0xffffffffffffffffffffffffffffffffffffffff\n        /* \"#utility.yul\":1447:1452   */\n      dup3\n        /* \"#utility.yul\":1443:1497   */\n      and\n        /* \"#utility.yul\":1432:1497   */\n      swap1\n      pop\n        /* \"#utility.yul\":1377:1503   */\n      swap2\n      swap1\n      pop\n      jump\t// out\n        /* \"#utility.yul\":1509:1605   */\n    tag_209:\n        /* \"#utility.yul\":1546:1553   */\n      0x00\n        /* \"#utility.yul\":1575:1599   */\n      tag_263\n        /* \"#utility.yul\":1593:1598   */\n      dup3\n        /* \"#utility.yul\":1575:1599   */\n      tag_208\n      jump\t// in\n    tag_263:\n        /* \"#utility.yul\":1564:1599   */\n      swap1\n      pop\n        /* \"#utility.yul\":1509:1605   */\n      swap2\n      swap1\n      pop\n      jump\t// out\n        /* \"#utility.yul\":1611:1733   */\n    tag_210:\n        /* \"#utility.yul\":1684:1708   */\n      tag_265\n        /* \"#utility.yul\":1702:1707   */\n      dup2\n        /* \"#utility.yul\":1684:1708   */\n      tag_209\n      jump\t// in\n    tag_265:\n        /* \"#utility.yul\":1677:1682   */\n      dup2\n        /* \"#utility.yul\":1674:1709   */\n      eq\n        /* \"#utility.yul\":1664:1727   */\n      tag_266\n      jumpi\n        /* \"#utility.yul\":1723:1724   */\n      0x00\n        /* \"#utility.yul\":1720:1721   */\n      dup1\n        /* \"#utility.yul\":1713:1725   */\n      revert\n        /* \"#utility.yul\":1664:1727   */\n    tag_266:\n        /* \"#utility.yul\":1611:1733   */\n      pop\n      jump\t// out\n        /* \"#utility.yul\":1739:1878   */\n    tag_211:\n        /* \"#utility.yul\":1785:1790   */\n      0x00\n        /* \"#utility.yul\":1823:1829   */\n      dup2\n        /* \"#utility.yul\":1810:1830   */\n      calldataload\n        /* \"#utility.yul\":1801:1830   */\n      swap1\n      pop\n        /* \"#utility.yul\":1839:1872   */\n      tag_268\n        /* \"#utility.yul\":1866:1871   */\n      dup2\n        /* \"#utility.yul\":1839:1872   */\n      tag_210\n      jump\t// in\n    tag_268:\n        /* \"#utility.yul\":1739:1878   */\n      swap3\n      swap2\n      pop\n      pop\n      jump\t// out\n        /* \"#utility.yul\":1884:2358   */\n    tag_33:\n        /* \"#utility.yul\":1952:1958   */\n      0x00\n        /* \"#utility.yul\":1960:1966   */\n      dup1\n        /* \"#utility.yul\":2009:2011   */\n      0x40\n        /* \"#utility.yul\":1997:2006   */\n      dup4\n        /* \"#utility.yul\":1988:1995   */\n      dup6\n        /* \"#utility.yul\":1984:2007   */\n      sub\n        /* \"#utility.yul\":1980:2012   */\n      slt\n        /* \"#utility.yul\":1977:2096   */\n      iszero\n      tag_270\n      jumpi\n        /* \"#utility.yul\":2015:2094   */\n      tag_271\n      tag_202\n      jump\t// in\n    tag_271:\n        /* \"#utility.yul\":1977:2096   */\n    tag_270:\n        /* \"#utility.yul\":2135:2136   */\n      0x00\n        /* \"#utility.yul\":2160:2213   */\n      tag_272\n        /* \"#utility.yul\":2205:2212   */\n      dup6\n        /* \"#utility.yul\":2196:2202   */\n      dup3\n        /* \"#utility.yul\":2185:2194   */\n      dup7\n        /* \"#utility.yul\":2181:2203   */\n      add\n        /* \"#utility.yul\":2160:2213   */\n      tag_211\n      jump\t// in\n    tag_272:\n        /* \"#utility.yul\":2150:2213   */\n      swap3\n      pop\n        /* \"#utility.yul\":2106:2223   */\n      pop\n        /* \"#utility.yul\":2262:2264   */\n      0x20\n        /* \"#utility.yul\":2288:2341   */\n      tag_273\n        /* \"#utility.yul\":2333:2340   */\n      dup6\n        /* \"#utility.yul\":2324:2330   */\n      dup3\n        /* \"#utility.yul\":2313:2322   */\n      dup7\n        /* \"#utility.yul\":2309:2331   */\n      add\n        /* \"#utility.yul\":2288:2341   */\n      tag_206\n      jump\t// in\n    tag_273:\n        /* \"#utility.yul\":2278:2341   */\n      swap2\n      pop\n        /* \"#utility.yul\":2233:2351   */\n      pop\n        /* \"#utility.yul\":1884:2358   */\n      swap3\n      pop\n      swap3\n      swap1\n      pop\n      jump\t// out\n        /* \"#utility.yul\":2364:2454   */\n    tag_212:\n        /* \"#utility.yul\":2398:2405   */\n      0x00\n        /* \"#utility.yul\":2441:2446   */\n      dup2\n        /* \"#utility.yul\":2434:2447   */\n      iszero\n        /* \"#utility.yul\":2427:2448   */\n      iszero\n        /* \"#utility.yul\":2416:2448   */\n      swap1\n      pop\n        /* \"#utility.yul\":2364:2454   */\n      swap2\n      swap1\n      pop\n      jump\t// out\n        /* \"#utility.yul\":2460:2569   */\n    tag_213:\n        /* \"#utility.yul\":2541:2562   */\n      tag_276\n        /* \"#utility.yul\":2556:2561   */\n      dup2\n        /* \"#utility.yul\":2541:2562   */\n      tag_212\n      jump\t// in\n    tag_276:\n        /* \"#utility.yul\":2536:2539   */\n      dup3\n        /* \"#utility.yul\":2529:2563   */\n      mstore\n        /* \"#utility.yul\":2460:2569   */\n      pop\n      pop\n      jump\t// out\n        /* \"#utility.yul\":2575:3116   */\n    tag_36:\n        /* \"#utility.yul\":2746:2750   */\n      0x00\n        /* \"#utility.yul\":2784:2787   */\n      0x80\n        /* \"#utility.yul\":2773:2782   */\n      dup3\n        /* \"#utility.yul\":2769:2788   */\n      add\n        /* \"#utility.yul\":2761:2788   */\n      swap1\n      pop\n        /* \"#utility.yul\":2798:2869   */\n      tag_278\n        /* \"#utility.yul\":2866:2867   */\n      0x00\n        /* \"#utility.yul\":2855:2864   */\n      dup4\n        /* \"#utility.yul\":2851:2868   */\n      add\n        /* \"#utility.yul\":2842:2848   */\n      dup8\n        /* \"#utility.yul\":2798:2869   */\n      tag_207\n      jump\t// in\n    tag_278:\n        /* \"#utility.yul\":2879:2951   */\n      tag_279\n        /* \"#utility.yul\":2947:2949   */\n      0x20\n        /* \"#utility.yul\":2936:2945   */\n      dup4\n        /* \"#utility.yul\":2932:2950   */\n      add\n        /* \"#utility.yul\":2923:2929   */\n      dup7\n        /* \"#utility.yul\":2879:2951   */\n      tag_207\n      jump\t// in\n    tag_279:\n        /* \"#utility.yul\":2961:3033   */\n      tag_280\n        /* \"#utility.yul\":3029:3031   */\n      0x40\n        /* \"#utility.yul\":3018:3027   */\n      dup4\n        /* \"#utility.yul\":3014:3032   */\n      add\n        /* \"#utility.yul\":3005:3011   */\n      dup6\n        /* \"#utility.yul\":2961:3033   */\n      tag_207\n      jump\t// in\n    tag_280:\n        /* \"#utility.yul\":3043:3109   */\n      tag_281\n        /* \"#utility.yul\":3105:3107   */\n      0x60\n        /* \"#utility.yul\":3094:3103   */\n      dup4\n        /* \"#utility.yul\":3090:3108   */\n      add\n        /* \"#utility.yul\":3081:3087   */\n      dup5\n        /* \"#utility.yul\":3043:3109   */\n      tag_213\n      jump\t// in\n    tag_281:\n        /* \"#utility.yul\":2575:3116   */\n      swap6\n      swap5\n      pop\n      pop\n      pop\n      pop\n      pop\n      jump\t// out\n        /* \"#utility.yul\":3122:3240   */\n    tag_214:\n        /* \"#utility.yul\":3209:3233   */\n      tag_283\n        /* \"#utility.yul\":3227:3232   */\n      dup2\n        /* \"#utility.yul\":3209:3233   */\n      tag_209\n      jump\t// in\n    tag_283:\n        /* \"#utility.yul\":3204:3207   */\n      dup3\n        /* \"#utility.yul\":3197:3234   */\n      mstore\n        /* \"#utility.yul\":3122:3240   */\n      pop\n      pop\n      jump\t// out\n        /* \"#utility.yul\":3246:3578   */\n    tag_42:\n        /* \"#utility.yul\":3367:3371   */\n      0x00\n        /* \"#utility.yul\":3405:3407   */\n      0x40\n        /* \"#utility.yul\":3394:3403   */\n      dup3\n        /* \"#utility.yul\":3390:3408   */\n      add\n        /* \"#utility.yul\":3382:3408   */\n      swap1\n      pop\n        /* \"#utility.yul\":3418:3489   */\n      tag_285\n        /* \"#utility.yul\":3486:3487   */\n      0x00\n        /* \"#utility.yul\":3475:3484   */\n      dup4\n        /* \"#utility.yul\":3471:3488   */\n      add\n        /* \"#utility.yul\":3462:3468   */\n      dup6\n        /* \"#utility.yul\":3418:3489   */\n      tag_214\n      jump\t// in\n    tag_285:\n        /* \"#utility.yul\":3499:3571   */\n      tag_286\n        /* \"#utility.yul\":3567:3569   */\n      0x20\n        /* \"#utility.yul\":3556:3565   */\n      dup4\n        /* \"#utility.yul\":3552:3570   */\n      add\n        /* \"#utility.yul\":3543:3549   */\n      dup5\n        /* \"#utility.yul\":3499:3571   */\n      tag_207\n      jump\t// in\n    tag_286:\n        /* \"#utility.yul\":3246:3578   */\n      swap4\n      swap3\n      pop\n      pop\n      pop\n      jump\t// out\n        /* \"#utility.yul\":3584:3688   */\n    tag_215:\n        /* \"#utility.yul\":3629:3636   */\n      0x00\n        /* \"#utility.yul\":3658:3682   */\n      tag_288\n        /* \"#utility.yul\":3676:3681   */\n      dup3\n        /* \"#utility.yul\":3658:3682   */\n      tag_208\n      jump\t// in\n    tag_288:\n        /* \"#utility.yul\":3647:3682   */\n      swap1\n      pop\n        /* \"#utility.yul\":3584:3688   */\n      swap2\n      swap1\n      pop\n      jump\t// out\n        /* \"#utility.yul\":3694:3832   */\n    tag_216:\n        /* \"#utility.yul\":3775:3807   */\n      tag_290\n        /* \"#utility.yul\":3801:3806   */\n      dup2\n        /* \"#utility.yul\":3775:3807   */\n      tag_215\n      jump\t// in\n    tag_290:\n        /* \"#utility.yul\":3768:3773   */\n      dup2\n        /* \"#utility.yul\":3765:3808   */\n      eq\n        /* \"#utility.yul\":3755:3826   */\n      tag_291\n      jumpi\n        /* \"#utility.yul\":3822:3823   */\n      0x00\n        /* \"#utility.yul\":3819:3820   */\n      dup1\n        /* \"#utility.yul\":3812:3824   */\n      revert\n        /* \"#utility.yul\":3755:3826   */\n    tag_291:\n        /* \"#utility.yul\":3694:3832   */\n      pop\n      jump\t// out\n        /* \"#utility.yul\":3838:3993   */\n    tag_217:\n        /* \"#utility.yul\":3892:3897   */\n      0x00\n        /* \"#utility.yul\":3930:3936   */\n      dup2\n        /* \"#utility.yul\":3917:3937   */\n      calldataload\n        /* \"#utility.yul\":3908:3937   */\n      swap1\n      pop\n        /* \"#utility.yul\":3946:3987   */\n      tag_293\n        /* \"#utility.yul\":3981:3986   */\n      dup2\n        /* \"#utility.yul\":3946:3987   */\n      tag_216\n      jump\t// in\n    tag_293:\n        /* \"#utility.yul\":3838:3993   */\n      swap3\n      swap2\n      pop\n      pop\n      jump\t// out\n        /* \"#utility.yul\":3999:4489   */\n    tag_45:\n        /* \"#utility.yul\":4075:4081   */\n      0x00\n        /* \"#utility.yul\":4083:4089   */\n      dup1\n        /* \"#utility.yul\":4132:4134   */\n      0x40\n        /* \"#utility.yul\":4120:4129   */\n      dup4\n        /* \"#utility.yul\":4111:4118   */\n      dup6\n        /* \"#utility.yul\":4107:4130   */\n      sub\n        /* \"#utility.yul\":4103:4135   */\n      slt\n        /* \"#utility.yul\":4100:4219   */\n      iszero\n      tag_295\n      jumpi\n        /* \"#utility.yul\":4138:4217   */\n      tag_296\n      tag_202\n      jump\t// in\n    tag_296:\n        /* \"#utility.yul\":4100:4219   */\n    tag_295:\n        /* \"#utility.yul\":4258:4259   */\n      0x00\n        /* \"#utility.yul\":4283:4344   */\n      tag_297\n        /* \"#utility.yul\":4336:4343   */\n      dup6\n        /* \"#utility.yul\":4327:4333   */\n      dup3\n        /* \"#utility.yul\":4316:4325   */\n      dup7\n        /* \"#utility.yul\":4312:4334   */\n      add\n        /* \"#utility.yul\":4283:4344   */\n      tag_217\n      jump\t// in\n    tag_297:\n        /* \"#utility.yul\":4273:4344   */\n      swap3\n      pop\n        /* \"#utility.yul\":4229:4354   */\n      pop\n        /* \"#utility.yul\":4393:4395   */\n      0x20\n        /* \"#utility.yul\":4419:4472   */\n      tag_298\n        /* \"#utility.yul\":4464:4471   */\n      dup6\n        /* \"#utility.yul\":4455:4461   */\n      dup3\n        /* \"#utility.yul\":4444:4453   */\n      dup7\n        /* \"#utility.yul\":4440:4462   */\n      add\n        /* \"#utility.yul\":4419:4472   */\n      tag_206\n      jump\t// in\n    tag_298:\n        /* \"#utility.yul\":4409:4472   */\n      swap2\n      pop\n        /* \"#utility.yul\":4364:4482   */\n      pop\n        /* \"#utility.yul\":3999:4489   */\n      swap3\n      pop\n      swap3\n      swap1\n      pop\n      jump\t// out\n        /* \"#utility.yul\":4495:4717   */\n    tag_51:\n        /* \"#utility.yul\":4588:4592   */\n      0x00\n        /* \"#utility.yul\":4626:4628   */\n      0x20\n        /* \"#utility.yul\":4615:4624   */\n      dup3\n        /* \"#utility.yul\":4611:4629   */\n      add\n        /* \"#utility.yul\":4603:4629   */\n      swap1\n      pop\n        /* \"#utility.yul\":4639:4710   */\n      tag_300\n        /* \"#utility.yul\":4707:4708   */\n      0x00\n        /* \"#utility.yul\":4696:4705   */\n      dup4\n        /* \"#utility.yul\":4692:4709   */\n      add\n        /* \"#utility.yul\":4683:4689   */\n      dup5\n        /* \"#utility.yul\":4639:4710   */\n      tag_214\n      jump\t// in\n    tag_300:\n        /* \"#utility.yul\":4495:4717   */\n      swap3\n      swap2\n      pop\n      pop\n      jump\t// out\n        /* \"#utility.yul\":4723:4821   */\n    tag_218:\n        /* \"#utility.yul\":4774:4780   */\n      0x00\n        /* \"#utility.yul\":4808:4813   */\n      dup2\n        /* \"#utility.yul\":4802:4814   */\n      mload\n        /* \"#utility.yul\":4792:4814   */\n      swap1\n      pop\n        /* \"#utility.yul\":4723:4821   */\n      swap2\n      swap1\n      pop\n      jump\t// out\n        /* \"#utility.yul\":4827:4995   */\n    tag_219:\n        /* \"#utility.yul\":4910:4921   */\n      0x00\n        /* \"#utility.yul\":4944:4950   */\n      dup3\n        /* \"#utility.yul\":4939:4942   */\n      dup3\n        /* \"#utility.yul\":4932:4951   */\n      mstore\n        /* \"#utility.yul\":4984:4988   */\n      0x20\n        /* \"#utility.yul\":4979:4982   */\n      dup3\n        /* \"#utility.yul\":4975:4989   */\n      add\n        /* \"#utility.yul\":4960:4989   */\n      swap1\n      pop\n        /* \"#utility.yul\":4827:4995   */\n      swap3\n      swap2\n      pop\n      pop\n      jump\t// out\n        /* \"#utility.yul\":5001:5247   */\n    tag_220:\n        /* \"#utility.yul\":5082:5083   */\n      0x00\n        /* \"#utility.yul\":5092:5205   */\n    tag_304:\n        /* \"#utility.yul\":5106:5112   */\n      dup4\n        /* \"#utility.yul\":5103:5104   */\n      dup2\n        /* \"#utility.yul\":5100:5113   */\n      lt\n        /* \"#utility.yul\":5092:5205   */\n      iszero\n      tag_306\n      jumpi\n        /* \"#utility.yul\":5191:5192   */\n      dup1\n        /* \"#utility.yul\":5186:5189   */\n      dup3\n        /* \"#utility.yul\":5182:5193   */\n      add\n        /* \"#utility.yul\":5176:5194   */\n      mload\n        /* \"#utility.yul\":5172:5173   */\n      dup2\n        /* \"#utility.yul\":5167:5170   */\n      dup5\n        /* \"#utility.yul\":5163:5174   */\n      add\n        /* \"#utility.yul\":5156:5195   */\n      mstore\n        /* \"#utility.yul\":5128:5130   */\n      0x20\n        /* \"#utility.yul\":5125:5126   */\n      dup2\n        /* \"#utility.yul\":5121:5131   */\n      add\n        /* \"#utility.yul\":5116:5131   */\n      swap1\n      pop\n        /* \"#utility.yul\":5092:5205   */\n      jump(tag_304)\n    tag_306:\n        /* \"#utility.yul\":5239:5240   */\n      0x00\n        /* \"#utility.yul\":5230:5236   */\n      dup5\n        /* \"#utility.yul\":5225:5228   */\n      dup5\n        /* \"#utility.yul\":5221:5237   */\n      add\n        /* \"#utility.yul\":5214:5241   */\n      mstore\n        /* \"#utility.yul\":5063:5247   */\n      pop\n        /* \"#utility.yul\":5001:5247   */\n      pop\n      pop\n      pop\n      jump\t// out\n        /* \"#utility.yul\":5253:5355   */\n    tag_221:\n        /* \"#utility.yul\":5294:5300   */\n      0x00\n        /* \"#utility.yul\":5345:5347   */\n      0x1f\n        /* \"#utility.yul\":5341:5348   */\n      not\n        /* \"#utility.yul\":5336:5338   */\n      0x1f\n        /* \"#utility.yul\":5329:5334   */\n      dup4\n        /* \"#utility.yul\":5325:5339   */\n      add\n        /* \"#utility.yul\":5321:5349   */\n      and\n        /* \"#utility.yul\":5311:5349   */\n      swap1\n      pop\n        /* \"#utility.yul\":5253:5355   */\n      swap2\n      swap1\n      pop\n      jump\t// out\n        /* \"#utility.yul\":5361:5734   */\n    tag_222:\n        /* \"#utility.yul\":5447:5450   */\n      0x00\n        /* \"#utility.yul\":5475:5513   */\n      tag_309\n        /* \"#utility.yul\":5507:5512   */\n      dup3\n        /* \"#utility.yul\":5475:5513   */\n      tag_218\n      jump\t// in\n    tag_309:\n        /* \"#utility.yul\":5529:5599   */\n      tag_310\n        /* \"#utility.yul\":5592:5598   */\n      dup2\n        /* \"#utility.yul\":5587:5590   */\n      dup6\n        /* \"#utility.yul\":5529:5599   */\n      tag_219\n      jump\t// in\n    tag_310:\n        /* \"#utility.yul\":5522:5599   */\n      swap4\n      pop\n        /* \"#utility.yul\":5608:5673   */\n      tag_311\n        /* \"#utility.yul\":5666:5672   */\n      dup2\n        /* \"#utility.yul\":5661:5664   */\n      dup6\n        /* \"#utility.yul\":5654:5658   */\n      0x20\n        /* \"#utility.yul\":5647:5652   */\n      dup7\n        /* \"#utility.yul\":5643:5659   */\n      add\n        /* \"#utility.yul\":5608:5673   */\n      tag_220\n      jump\t// in\n    tag_311:\n        /* \"#utility.yul\":5698:5727   */\n      tag_312\n        /* \"#utility.yul\":5720:5726   */\n      dup2\n        /* \"#utility.yul\":5698:5727   */\n      tag_221\n      jump\t// in\n    tag_312:\n        /* \"#utility.yul\":5693:5696   */\n      dup5\n        /* \"#utility.yul\":5689:5728   */\n      add\n        /* \"#utility.yul\":5682:5728   */\n      swap2\n      pop\n        /* \"#utility.yul\":5451:5734   */\n      pop\n        /* \"#utility.yul\":5361:5734   */\n      swap3\n      swap2\n      pop\n      pop\n      jump\t// out\n        /* \"#utility.yul\":5740:6269   */\n    tag_65:\n        /* \"#utility.yul\":5907:5911   */\n      0x00\n        /* \"#utility.yul\":5945:5947   */\n      0x60\n        /* \"#utility.yul\":5934:5943   */\n      dup3\n        /* \"#utility.yul\":5930:5948   */\n      add\n        /* \"#utility.yul\":5922:5948   */\n      swap1\n      pop\n        /* \"#utility.yul\":5958:6029   */\n      tag_314\n        /* \"#utility.yul\":6026:6027   */\n      0x00\n        /* \"#utility.yul\":6015:6024   */\n      dup4\n        /* \"#utility.yul\":6011:6028   */\n      add\n        /* \"#utility.yul\":6002:6008   */\n      dup7\n        /* \"#utility.yul\":5958:6029   */\n      tag_214\n      jump\t// in\n    tag_314:\n        /* \"#utility.yul\":6039:6111   */\n      tag_315\n        /* \"#utility.yul\":6107:6109   */\n      0x20\n        /* \"#utility.yul\":6096:6105   */\n      dup4\n        /* \"#utility.yul\":6092:6110   */\n      add\n        /* \"#utility.yul\":6083:6089   */\n      dup6\n        /* \"#utility.yul\":6039:6111   */\n      tag_207\n      jump\t// in\n    tag_315:\n        /* \"#utility.yul\":6158:6167   */\n      dup2\n        /* \"#utility.yul\":6152:6156   */\n      dup2\n        /* \"#utility.yul\":6148:6168   */\n      sub\n        /* \"#utility.yul\":6143:6145   */\n      0x40\n        /* \"#utility.yul\":6132:6141   */\n      dup4\n        /* \"#utility.yul\":6128:6146   */\n      add\n        /* \"#utility.yul\":6121:6169   */\n      mstore\n        /* \"#utility.yul\":6186:6262   */\n      tag_316\n        /* \"#utility.yul\":6257:6261   */\n      dup2\n        /* \"#utility.yul\":6248:6254   */\n      dup5\n        /* \"#utility.yul\":6186:6262   */\n      tag_222\n      jump\t// in\n    tag_316:\n        /* \"#utility.yul\":6178:6262   */\n      swap1\n      pop\n        /* \"#utility.yul\":5740:6269   */\n      swap5\n      swap4\n      pop\n      pop\n      pop\n      pop\n      jump\t// out\n        /* \"#utility.yul\":6275:6604   */\n    tag_69:\n        /* \"#utility.yul\":6334:6340   */\n      0x00\n        /* \"#utility.yul\":6383:6385   */\n      0x20\n        /* \"#utility.yul\":6371:6380   */\n      dup3\n        /* \"#utility.yul\":6362:6369   */\n      dup5\n        /* \"#utility.yul\":6358:6381   */\n      sub\n        /* \"#utility.yul\":6354:6386   */\n      slt\n        /* \"#utility.yul\":6351:6470   */\n      iszero\n      tag_318\n      jumpi\n        /* \"#utility.yul\":6389:6468   */\n      tag_319\n      tag_202\n      jump\t// in\n    tag_319:\n        /* \"#utility.yul\":6351:6470   */\n    tag_318:\n        /* \"#utility.yul\":6509:6510   */\n      0x00\n        /* \"#utility.yul\":6534:6587   */\n      tag_320\n        /* \"#utility.yul\":6579:6586   */\n      dup5\n        /* \"#utility.yul\":6570:6576   */\n      dup3\n        /* \"#utility.yul\":6559:6568   */\n      dup6\n        /* \"#utility.yul\":6555:6577   */\n      add\n        /* \"#utility.yul\":6534:6587   */\n      tag_211\n      jump\t// in\n    tag_320:\n        /* \"#utility.yul\":6524:6587   */\n      swap2\n      pop\n        /* \"#utility.yul\":6480:6597   */\n      pop\n        /* \"#utility.yul\":6275:6604   */\n      swap3\n      swap2\n      pop\n      pop\n      jump\t// out\n        /* \"#utility.yul\":6610:6747   */\n    tag_223:\n        /* \"#utility.yul\":6700:6706   */\n      0x00\n        /* \"#utility.yul\":6734:6739   */\n      dup2\n        /* \"#utility.yul\":6728:6740   */\n      mload\n        /* \"#utility.yul\":6718:6740   */\n      swap1\n      pop\n        /* \"#utility.yul\":6610:6747   */\n      swap2\n      swap1\n      pop\n      jump\t// out\n        /* \"#utility.yul\":6753:6960   */\n    tag_224:\n        /* \"#utility.yul\":6875:6886   */\n      0x00\n        /* \"#utility.yul\":6909:6915   */\n      dup3\n        /* \"#utility.yul\":6904:6907   */\n      dup3\n        /* \"#utility.yul\":6897:6916   */\n      mstore\n        /* \"#utility.yul\":6949:6953   */\n      0x20\n        /* \"#utility.yul\":6944:6947   */\n      dup3\n        /* \"#utility.yul\":6940:6954   */\n      add\n        /* \"#utility.yul\":6925:6954   */\n      swap1\n      pop\n        /* \"#utility.yul\":6753:6960   */\n      swap3\n      swap2\n      pop\n      pop\n      jump\t// out\n        /* \"#utility.yul\":6966:7121   */\n    tag_225:\n        /* \"#utility.yul\":7056:7060   */\n      0x00\n        /* \"#utility.yul\":7079:7082   */\n      dup2\n        /* \"#utility.yul\":7071:7082   */\n      swap1\n      pop\n        /* \"#utility.yul\":7109:7113   */\n      0x20\n        /* \"#utility.yul\":7104:7107   */\n      dup3\n        /* \"#utility.yul\":7100:7114   */\n      add\n        /* \"#utility.yul\":7092:7114   */\n      swap1\n      pop\n        /* \"#utility.yul\":6966:7121   */\n      swap2\n      swap1\n      pop\n      jump\t// out\n        /* \"#utility.yul\":7127:7235   */\n    tag_226:\n        /* \"#utility.yul\":7204:7228   */\n      tag_325\n        /* \"#utility.yul\":7222:7227   */\n      dup2\n        /* \"#utility.yul\":7204:7228   */\n      tag_204\n      jump\t// in\n    tag_325:\n        /* \"#utility.yul\":7199:7202   */\n      dup3\n        /* \"#utility.yul\":7192:7229   */\n      mstore\n        /* \"#utility.yul\":7127:7235   */\n      pop\n      pop\n      jump\t// out\n        /* \"#utility.yul\":7241:7340   */\n    tag_227:\n        /* \"#utility.yul\":7312:7333   */\n      tag_327\n        /* \"#utility.yul\":7327:7332   */\n      dup2\n        /* \"#utility.yul\":7312:7333   */\n      tag_212\n      jump\t// in\n    tag_327:\n        /* \"#utility.yul\":7307:7310   */\n      dup3\n        /* \"#utility.yul\":7300:7334   */\n      mstore\n        /* \"#utility.yul\":7241:7340   */\n      pop\n      pop\n      jump\t// out\n        /* \"#utility.yul\":7402:8256   */\n    tag_228:\n        /* \"#utility.yul\":7535:7539   */\n      0x80\n        /* \"#utility.yul\":7530:7533   */\n      dup3\n        /* \"#utility.yul\":7526:7540   */\n      add\n        /* \"#utility.yul\":7622:7626   */\n      0x00\n        /* \"#utility.yul\":7615:7620   */\n      dup3\n        /* \"#utility.yul\":7611:7627   */\n      add\n        /* \"#utility.yul\":7605:7628   */\n      mload\n        /* \"#utility.yul\":7641:7704   */\n      tag_329\n        /* \"#utility.yul\":7698:7702   */\n      0x00\n        /* \"#utility.yul\":7693:7696   */\n      dup6\n        /* \"#utility.yul\":7689:7703   */\n      add\n        /* \"#utility.yul\":7675:7687   */\n      dup3\n        /* \"#utility.yul\":7641:7704   */\n      tag_226\n      jump\t// in\n    tag_329:\n        /* \"#utility.yul\":7550:7714   */\n      pop\n        /* \"#utility.yul\":7796:7800   */\n      0x20\n        /* \"#utility.yul\":7789:7794   */\n      dup3\n        /* \"#utility.yul\":7785:7801   */\n      add\n        /* \"#utility.yul\":7779:7802   */\n      mload\n        /* \"#utility.yul\":7815:7878   */\n      tag_330\n        /* \"#utility.yul\":7872:7876   */\n      0x20\n        /* \"#utility.yul\":7867:7870   */\n      dup6\n        /* \"#utility.yul\":7863:7877   */\n      add\n        /* \"#utility.yul\":7849:7861   */\n      dup3\n        /* \"#utility.yul\":7815:7878   */\n      tag_226\n      jump\t// in\n    tag_330:\n        /* \"#utility.yul\":7724:7888   */\n      pop\n        /* \"#utility.yul\":7983:7987   */\n      0x40\n        /* \"#utility.yul\":7976:7981   */\n      dup3\n        /* \"#utility.yul\":7972:7988   */\n      add\n        /* \"#utility.yul\":7966:7989   */\n      mload\n        /* \"#utility.yul\":8002:8065   */\n      tag_331\n        /* \"#utility.yul\":8059:8063   */\n      0x40\n        /* \"#utility.yul\":8054:8057   */\n      dup6\n        /* \"#utility.yul\":8050:8064   */\n      add\n        /* \"#utility.yul\":8036:8048   */\n      dup3\n        /* \"#utility.yul\":8002:8065   */\n      tag_226\n      jump\t// in\n    tag_331:\n        /* \"#utility.yul\":7898:8075   */\n      pop\n        /* \"#utility.yul\":8163:8167   */\n      0x60\n        /* \"#utility.yul\":8156:8161   */\n      dup3\n        /* \"#utility.yul\":8152:8168   */\n      add\n        /* \"#utility.yul\":8146:8169   */\n      mload\n        /* \"#utility.yul\":8182:8239   */\n      tag_332\n        /* \"#utility.yul\":8233:8237   */\n      0x60\n        /* \"#utility.yul\":8228:8231   */\n      dup6\n        /* \"#utility.yul\":8224:8238   */\n      add\n        /* \"#utility.yul\":8210:8222   */\n      dup3\n        /* \"#utility.yul\":8182:8239   */\n      tag_227\n      jump\t// in\n    tag_332:\n        /* \"#utility.yul\":8085:8249   */\n      pop\n        /* \"#utility.yul\":7504:8256   */\n      pop\n        /* \"#utility.yul\":7402:8256   */\n      pop\n      pop\n      jump\t// out\n        /* \"#utility.yul\":8262:8533   */\n    tag_229:\n        /* \"#utility.yul\":8377:8387   */\n      0x00\n        /* \"#utility.yul\":8398:8490   */\n      tag_334\n        /* \"#utility.yul\":8486:8489   */\n      dup4\n        /* \"#utility.yul\":8478:8484   */\n      dup4\n        /* \"#utility.yul\":8398:8490   */\n      tag_228\n      jump\t// in\n    tag_334:\n        /* \"#utility.yul\":8522:8526   */\n      0x80\n        /* \"#utility.yul\":8517:8520   */\n      dup4\n        /* \"#utility.yul\":8513:8527   */\n      add\n        /* \"#utility.yul\":8499:8527   */\n      swap1\n      pop\n        /* \"#utility.yul\":8262:8533   */\n      swap3\n      swap2\n      pop\n      pop\n      jump\t// out\n        /* \"#utility.yul\":8539:8675   */\n    tag_230:\n        /* \"#utility.yul\":8632:8636   */\n      0x00\n        /* \"#utility.yul\":8664:8668   */\n      0x20\n        /* \"#utility.yul\":8659:8662   */\n      dup3\n        /* \"#utility.yul\":8655:8669   */\n      add\n        /* \"#utility.yul\":8647:8669   */\n      swap1\n      pop\n        /* \"#utility.yul\":8539:8675   */\n      swap2\n      swap1\n      pop\n      jump\t// out\n        /* \"#utility.yul\":8741:9657   */\n    tag_231:\n        /* \"#utility.yul\":8906:8909   */\n      0x00\n        /* \"#utility.yul\":8935:9012   */\n      tag_337\n        /* \"#utility.yul\":9006:9011   */\n      dup3\n        /* \"#utility.yul\":8935:9012   */\n      tag_223\n      jump\t// in\n    tag_337:\n        /* \"#utility.yul\":9028:9137   */\n      tag_338\n        /* \"#utility.yul\":9130:9136   */\n      dup2\n        /* \"#utility.yul\":9125:9128   */\n      dup6\n        /* \"#utility.yul\":9028:9137   */\n      tag_224\n      jump\t// in\n    tag_338:\n        /* \"#utility.yul\":9021:9137   */\n      swap4\n      pop\n        /* \"#utility.yul\":9161:9240   */\n      tag_339\n        /* \"#utility.yul\":9234:9239   */\n      dup4\n        /* \"#utility.yul\":9161:9240   */\n      tag_225\n      jump\t// in\n    tag_339:\n        /* \"#utility.yul\":9263:9270   */\n      dup1\n        /* \"#utility.yul\":9294:9295   */\n      0x00\n        /* \"#utility.yul\":9279:9632   */\n    tag_340:\n        /* \"#utility.yul\":9304:9310   */\n      dup4\n        /* \"#utility.yul\":9301:9302   */\n      dup2\n        /* \"#utility.yul\":9298:9311   */\n      lt\n        /* \"#utility.yul\":9279:9632   */\n      iszero\n      tag_342\n      jumpi\n        /* \"#utility.yul\":9380:9386   */\n      dup2\n        /* \"#utility.yul\":9374:9387   */\n      mload\n        /* \"#utility.yul\":9407:9516   */\n      tag_343\n        /* \"#utility.yul\":9512:9515   */\n      dup9\n        /* \"#utility.yul\":9497:9510   */\n      dup3\n        /* \"#utility.yul\":9407:9516   */\n      tag_229\n      jump\t// in\n    tag_343:\n        /* \"#utility.yul\":9400:9516   */\n      swap8\n      pop\n        /* \"#utility.yul\":9539:9622   */\n      tag_344\n        /* \"#utility.yul\":9615:9621   */\n      dup4\n        /* \"#utility.yul\":9539:9622   */\n      tag_230\n      jump\t// in\n    tag_344:\n        /* \"#utility.yul\":9529:9622   */\n      swap3\n      pop\n        /* \"#utility.yul\":9339:9632   */\n      pop\n        /* \"#utility.yul\":9326:9327   */\n      0x01\n        /* \"#utility.yul\":9323:9324   */\n      dup2\n        /* \"#utility.yul\":9319:9328   */\n      add\n        /* \"#utility.yul\":9314:9328   */\n      swap1\n      pop\n        /* \"#utility.yul\":9279:9632   */\n      jump(tag_340)\n    tag_342:\n        /* \"#utility.yul\":9283:9297   */\n      pop\n        /* \"#utility.yul\":9648:9651   */\n      dup6\n        /* \"#utility.yul\":9641:9651   */\n      swap4\n      pop\n        /* \"#utility.yul\":8911:9657   */\n      pop\n      pop\n      pop\n        /* \"#utility.yul\":8741:9657   */\n      swap3\n      swap2\n      pop\n      pop\n      jump\t// out\n        /* \"#utility.yul\":9663:10128   */\n    tag_72:\n        /* \"#utility.yul\":9852:9856   */\n      0x00\n        /* \"#utility.yul\":9890:9892   */\n      0x20\n        /* \"#utility.yul\":9879:9888   */\n      dup3\n        /* \"#utility.yul\":9875:9893   */\n      add\n        /* \"#utility.yul\":9867:9893   */\n      swap1\n      pop\n        /* \"#utility.yul\":9939:9948   */\n      dup2\n        /* \"#utility.yul\":9933:9937   */\n      dup2\n        /* \"#utility.yul\":9929:9949   */\n      sub\n        /* \"#utility.yul\":9925:9926   */\n      0x00\n        /* \"#utility.yul\":9914:9923   */\n      dup4\n        /* \"#utility.yul\":9910:9927   */\n      add\n        /* \"#utility.yul\":9903:9950   */\n      mstore\n        /* \"#utility.yul\":9967:10121   */\n      tag_346\n        /* \"#utility.yul\":10116:10120   */\n      dup2\n        /* \"#utility.yul\":10107:10113   */\n      dup5\n        /* \"#utility.yul\":9967:10121   */\n      tag_231\n      jump\t// in\n    tag_346:\n        /* \"#utility.yul\":9959:10121   */\n      swap1\n      pop\n        /* \"#utility.yul\":9663:10128   */\n      swap3\n      swap2\n      pop\n      pop\n      jump\t// out\n        /* \"#utility.yul\":10134:10753   */\n    tag_76:\n        /* \"#utility.yul\":10211:10217   */\n      0x00\n        /* \"#utility.yul\":10219:10225   */\n      dup1\n        /* \"#utility.yul\":10227:10233   */\n      0x00\n        /* \"#utility.yul\":10276:10278   */\n      0x60\n        /* \"#utility.yul\":10264:10273   */\n      dup5\n        /* \"#utility.yul\":10255:10262   */\n      dup7\n        /* \"#utility.yul\":10251:10274   */\n      sub\n        /* \"#utility.yul\":10247:10279   */\n      slt\n        /* \"#utility.yul\":10244:10363   */\n      iszero\n      tag_348\n      jumpi\n        /* \"#utility.yul\":10282:10361   */\n      tag_349\n      tag_202\n      jump\t// in\n    tag_349:\n        /* \"#utility.yul\":10244:10363   */\n    tag_348:\n        /* \"#utility.yul\":10402:10403   */\n      0x00\n        /* \"#utility.yul\":10427:10480   */\n      tag_350\n        /* \"#utility.yul\":10472:10479   */\n      dup7\n        /* \"#utility.yul\":10463:10469   */\n      dup3\n        /* \"#utility.yul\":10452:10461   */\n      dup8\n        /* \"#utility.yul\":10448:10470   */\n      add\n        /* \"#utility.yul\":10427:10480   */\n      tag_211\n      jump\t// in\n    tag_350:\n        /* \"#utility.yul\":10417:10480   */\n      swap4\n      pop\n        /* \"#utility.yul\":10373:10490   */\n      pop\n        /* \"#utility.yul\":10529:10531   */\n      0x20\n        /* \"#utility.yul\":10555:10608   */\n      tag_351\n        /* \"#utility.yul\":10600:10607   */\n      dup7\n        /* \"#utility.yul\":10591:10597   */\n      dup3\n        /* \"#utility.yul\":10580:10589   */\n      dup8\n        /* \"#utility.yul\":10576:10598   */\n      add\n        /* \"#utility.yul\":10555:10608   */\n      tag_211\n      jump\t// in\n    tag_351:\n        /* \"#utility.yul\":10545:10608   */\n      swap3\n      pop\n        /* \"#utility.yul\":10500:10618   */\n      pop\n        /* \"#utility.yul\":10657:10659   */\n      0x40\n        /* \"#utility.yul\":10683:10736   */\n      tag_352\n        /* \"#utility.yul\":10728:10735   */\n      dup7\n        /* \"#utility.yul\":10719:10725   */\n      dup3\n        /* \"#utility.yul\":10708:10717   */\n      dup8\n        /* \"#utility.yul\":10704:10726   */\n      add\n        /* \"#utility.yul\":10683:10736   */\n      tag_206\n      jump\t// in\n    tag_352:\n        /* \"#utility.yul\":10673:10736   */\n      swap2\n      pop\n        /* \"#utility.yul\":10628:10746   */\n      pop\n        /* \"#utility.yul\":10134:10753   */\n      swap3\n      pop\n      swap3\n      pop\n      swap3\n      jump\t// out\n        /* \"#utility.yul\":10759:11104   */\n    tag_80:\n        /* \"#utility.yul\":10826:10832   */\n      0x00\n        /* \"#utility.yul\":10875:10877   */\n      0x20\n        /* \"#utility.yul\":10863:10872   */\n      dup3\n        /* \"#utility.yul\":10854:10861   */\n      dup5\n        /* \"#utility.yul\":10850:10873   */\n      sub\n        /* \"#utility.yul\":10846:10878   */\n      slt\n        /* \"#utility.yul\":10843:10962   */\n      iszero\n      tag_354\n      jumpi\n        /* \"#utility.yul\":10881:10960   */\n      tag_355\n      tag_202\n      jump\t// in\n    tag_355:\n        /* \"#utility.yul\":10843:10962   */\n    tag_354:\n        /* \"#utility.yul\":11001:11002   */\n      0x00\n        /* \"#utility.yul\":11026:11087   */\n      tag_356\n        /* \"#utility.yul\":11079:11086   */\n      dup5\n        /* \"#utility.yul\":11070:11076   */\n      dup3\n        /* \"#utility.yul\":11059:11068   */\n      dup6\n        /* \"#utility.yul\":11055:11077   */\n      add\n        /* \"#utility.yul\":11026:11087   */\n      tag_217\n      jump\t// in\n    tag_356:\n        /* \"#utility.yul\":11016:11087   */\n      swap2\n      pop\n        /* \"#utility.yul\":10972:11097   */\n      pop\n        /* \"#utility.yul\":10759:11104   */\n      swap3\n      swap2\n      pop\n      pop\n      jump\t// out\n        /* \"#utility.yul\":11110:11209   */\n    tag_232:\n        /* \"#utility.yul\":11162:11168   */\n      0x00\n        /* \"#utility.yul\":11196:11201   */\n      dup2\n        /* \"#utility.yul\":11190:11202   */\n      mload\n        /* \"#utility.yul\":11180:11202   */\n      swap1\n      pop\n        /* \"#utility.yul\":11110:11209   */\n      swap2\n      swap1\n      pop\n      jump\t// out\n        /* \"#utility.yul\":11215:11384   */\n    tag_233:\n        /* \"#utility.yul\":11299:11310   */\n      0x00\n        /* \"#utility.yul\":11333:11339   */\n      dup3\n        /* \"#utility.yul\":11328:11331   */\n      dup3\n        /* \"#utility.yul\":11321:11340   */\n      mstore\n        /* \"#utility.yul\":11373:11377   */\n      0x20\n        /* \"#utility.yul\":11368:11371   */\n      dup3\n        /* \"#utility.yul\":11364:11378   */\n      add\n        /* \"#utility.yul\":11349:11378   */\n      swap1\n      pop\n        /* \"#utility.yul\":11215:11384   */\n      swap3\n      swap2\n      pop\n      pop\n      jump\t// out\n        /* \"#utility.yul\":11390:11767   */\n    tag_234:\n        /* \"#utility.yul\":11478:11481   */\n      0x00\n        /* \"#utility.yul\":11506:11545   */\n      tag_360\n        /* \"#utility.yul\":11539:11544   */\n      dup3\n        /* \"#utility.yul\":11506:11545   */\n      tag_232\n      jump\t// in\n    tag_360:\n        /* \"#utility.yul\":11561:11632   */\n      tag_361\n        /* \"#utility.yul\":11625:11631   */\n      dup2\n        /* \"#utility.yul\":11620:11623   */\n      dup6\n        /* \"#utility.yul\":11561:11632   */\n      tag_233\n      jump\t// in\n    tag_361:\n        /* \"#utility.yul\":11554:11632   */\n      swap4\n      pop\n        /* \"#utility.yul\":11641:11706   */\n      tag_362\n        /* \"#utility.yul\":11699:11705   */\n      dup2\n        /* \"#utility.yul\":11694:11697   */\n      dup6\n        /* \"#utility.yul\":11687:11691   */\n      0x20\n        /* \"#utility.yul\":11680:11685   */\n      dup7\n        /* \"#utility.yul\":11676:11692   */\n      add\n        /* \"#utility.yul\":11641:11706   */\n      tag_220\n      jump\t// in\n    tag_362:\n        /* \"#utility.yul\":11731:11760   */\n      tag_363\n        /* \"#utility.yul\":11753:11759   */\n      dup2\n        /* \"#utility.yul\":11731:11760   */\n      tag_221\n      jump\t// in\n    tag_363:\n        /* \"#utility.yul\":11726:11729   */\n      dup5\n        /* \"#utility.yul\":11722:11761   */\n      add\n        /* \"#utility.yul\":11715:11761   */\n      swap2\n      pop\n        /* \"#utility.yul\":11482:11767   */\n      pop\n        /* \"#utility.yul\":11390:11767   */\n      swap3\n      swap2\n      pop\n      pop\n      jump\t// out\n        /* \"#utility.yul\":11773:12086   */\n    tag_90:\n        /* \"#utility.yul\":11886:11890   */\n      0x00\n        /* \"#utility.yul\":11924:11926   */\n      0x20\n        /* \"#utility.yul\":11913:11922   */\n      dup3\n        /* \"#utility.yul\":11909:11927   */\n      add\n        /* \"#utility.yul\":11901:11927   */\n      swap1\n      pop\n        /* \"#utility.yul\":11973:11982   */\n      dup2\n        /* \"#utility.yul\":11967:11971   */\n      dup2\n        /* \"#utility.yul\":11963:11983   */\n      sub\n        /* \"#utility.yul\":11959:11960   */\n      0x00\n        /* \"#utility.yul\":11948:11957   */\n      dup4\n        /* \"#utility.yul\":11944:11961   */\n      add\n        /* \"#utility.yul\":11937:11984   */\n      mstore\n        /* \"#utility.yul\":12001:12079   */\n      tag_365\n        /* \"#utility.yul\":12074:12078   */\n      dup2\n        /* \"#utility.yul\":12065:12071   */\n      dup5\n        /* \"#utility.yul\":12001:12079   */\n      tag_234\n      jump\t// in\n    tag_365:\n        /* \"#utility.yul\":11993:12079   */\n      swap1\n      pop\n        /* \"#utility.yul\":11773:12086   */\n      swap3\n      swap2\n      pop\n      pop\n      jump\t// out\n        /* \"#utility.yul\":12092:12272   */\n    tag_235:\n        /* \"#utility.yul\":12140:12217   */\n      0x4e487b7100000000000000000000000000000000000000000000000000000000\n        /* \"#utility.yul\":12137:12138   */\n      0x00\n        /* \"#utility.yul\":12130:12218   */\n      mstore\n        /* \"#utility.yul\":12237:12241   */\n      0x11\n        /* \"#utility.yul\":12234:12235   */\n      0x04\n        /* \"#utility.yul\":12227:12242   */\n      mstore\n        /* \"#utility.yul\":12261:12265   */\n      0x24\n        /* \"#utility.yul\":12258:12259   */\n      0x00\n        /* \"#utility.yul\":12251:12266   */\n      revert\n        /* \"#utility.yul\":12278:12688   */\n    tag_96:\n        /* \"#utility.yul\":12318:12325   */\n      0x00\n        /* \"#utility.yul\":12341:12361   */\n      tag_368\n        /* \"#utility.yul\":12359:12360   */\n      dup3\n        /* \"#utility.yul\":12341:12361   */\n      tag_204\n      jump\t// in\n    tag_368:\n        /* \"#utility.yul\":12336:12361   */\n      swap2\n      pop\n        /* \"#utility.yul\":12375:12395   */\n      tag_369\n        /* \"#utility.yul\":12393:12394   */\n      dup4\n        /* \"#utility.yul\":12375:12395   */\n      tag_204\n      jump\t// in\n    tag_369:\n        /* \"#utility.yul\":12370:12395   */\n      swap3\n      pop\n        /* \"#utility.yul\":12430:12431   */\n      dup3\n        /* \"#utility.yul\":12427:12428   */\n      dup3\n        /* \"#utility.yul\":12423:12432   */\n      mul\n        /* \"#utility.yul\":12452:12482   */\n      tag_370\n        /* \"#utility.yul\":12470:12481   */\n      dup2\n        /* \"#utility.yul\":12452:12482   */\n      tag_204\n      jump\t// in\n    tag_370:\n        /* \"#utility.yul\":12441:12482   */\n      swap2\n      pop\n        /* \"#utility.yul\":12631:12632   */\n      dup3\n        /* \"#utility.yul\":12622:12629   */\n      dup3\n        /* \"#utility.yul\":12618:12633   */\n      div\n        /* \"#utility.yul\":12615:12616   */\n      dup5\n        /* \"#utility.yul\":12612:12634   */\n      eq\n        /* \"#utility.yul\":12592:12593   */\n      dup4\n        /* \"#utility.yul\":12585:12594   */\n      iszero\n        /* \"#utility.yul\":12565:12648   */\n      or\n        /* \"#utility.yul\":12542:12681   */\n      tag_371\n      jumpi\n        /* \"#utility.yul\":12661:12679   */\n      tag_372\n      tag_235\n      jump\t// in\n    tag_372:\n        /* \"#utility.yul\":12542:12681   */\n    tag_371:\n        /* \"#utility.yul\":12326:12688   */\n      pop\n        /* \"#utility.yul\":12278:12688   */\n      swap3\n      swap2\n      pop\n      pop\n      jump\t// out\n        /* \"#utility.yul\":12694:12867   */\n    tag_236:\n        /* \"#utility.yul\":12834:12859   */\n      0x596f7520617265206e6f7420746865206d616e61676572000000000000000000\n        /* \"#utility.yul\":12830:12831   */\n      0x00\n        /* \"#utility.yul\":12822:12828   */\n      dup3\n        /* \"#utility.yul\":12818:12832   */\n      add\n        /* \"#utility.yul\":12811:12860   */\n      mstore\n        /* \"#utility.yul\":12694:12867   */\n      pop\n      jump\t// out\n        /* \"#utility.yul\":12873:13239   */\n    tag_237:\n        /* \"#utility.yul\":13015:13018   */\n      0x00\n        /* \"#utility.yul\":13036:13103   */\n      tag_375\n        /* \"#utility.yul\":13100:13102   */\n      0x17\n        /* \"#utility.yul\":13095:13098   */\n      dup4\n        /* \"#utility.yul\":13036:13103   */\n      tag_233\n      jump\t// in\n    tag_375:\n        /* \"#utility.yul\":13029:13103   */\n      swap2\n      pop\n        /* \"#utility.yul\":13112:13205   */\n      tag_376\n        /* \"#utility.yul\":13201:13204   */\n      dup3\n        /* \"#utility.yul\":13112:13205   */\n      tag_236\n      jump\t// in\n    tag_376:\n        /* \"#utility.yul\":13230:13232   */\n      0x20\n        /* \"#utility.yul\":13225:13228   */\n      dup3\n        /* \"#utility.yul\":13221:13233   */\n      add\n        /* \"#utility.yul\":13214:13233   */\n      swap1\n      pop\n        /* \"#utility.yul\":12873:13239   */\n      swap2\n      swap1\n      pop\n      jump\t// out\n        /* \"#utility.yul\":13245:13664   */\n    tag_106:\n        /* \"#utility.yul\":13411:13415   */\n      0x00\n        /* \"#utility.yul\":13449:13451   */\n      0x20\n        /* \"#utility.yul\":13438:13447   */\n      dup3\n        /* \"#utility.yul\":13434:13452   */\n      add\n        /* \"#utility.yul\":13426:13452   */\n      swap1\n      pop\n        /* \"#utility.yul\":13498:13507   */\n      dup2\n        /* \"#utility.yul\":13492:13496   */\n      dup2\n        /* \"#utility.yul\":13488:13508   */\n      sub\n        /* \"#utility.yul\":13484:13485   */\n      0x00\n        /* \"#utility.yul\":13473:13482   */\n      dup4\n        /* \"#utility.yul\":13469:13486   */\n      add\n        /* \"#utility.yul\":13462:13509   */\n      mstore\n        /* \"#utility.yul\":13526:13657   */\n      tag_378\n        /* \"#utility.yul\":13652:13656   */\n      dup2\n        /* \"#utility.yul\":13526:13657   */\n      tag_237\n      jump\t// in\n    tag_378:\n        /* \"#utility.yul\":13518:13657   */\n      swap1\n      pop\n        /* \"#utility.yul\":13245:13664   */\n      swap2\n      swap1\n      pop\n      jump\t// out\n        /* \"#utility.yul\":13670:13850   */\n    tag_109:\n        /* \"#utility.yul\":13718:13795   */\n      0x4e487b7100000000000000000000000000000000000000000000000000000000\n        /* \"#utility.yul\":13715:13716   */\n      0x00\n        /* \"#utility.yul\":13708:13796   */\n      mstore\n        /* \"#utility.yul\":13815:13819   */\n      0x32\n        /* \"#utility.yul\":13812:13813   */\n      0x04\n        /* \"#utility.yul\":13805:13820   */\n      mstore\n        /* \"#utility.yul\":13839:13843   */\n      0x24\n        /* \"#utility.yul\":13836:13837   */\n      0x00\n        /* \"#utility.yul\":13829:13844   */\n      revert\n        /* \"#utility.yul\":13856:14298   */\n    tag_119:\n        /* \"#utility.yul\":14005:14009   */\n      0x00\n        /* \"#utility.yul\":14043:14045   */\n      0x60\n        /* \"#utility.yul\":14032:14041   */\n      dup3\n        /* \"#utility.yul\":14028:14046   */\n      add\n        /* \"#utility.yul\":14020:14046   */\n      swap1\n      pop\n        /* \"#utility.yul\":14056:14127   */\n      tag_381\n        /* \"#utility.yul\":14124:14125   */\n      0x00\n        /* \"#utility.yul\":14113:14122   */\n      dup4\n        /* \"#utility.yul\":14109:14126   */\n      add\n        /* \"#utility.yul\":14100:14106   */\n      dup7\n        /* \"#utility.yul\":14056:14127   */\n      tag_207\n      jump\t// in\n    tag_381:\n        /* \"#utility.yul\":14137:14209   */\n      tag_382\n        /* \"#utility.yul\":14205:14207   */\n      0x20\n        /* \"#utility.yul\":14194:14203   */\n      dup4\n        /* \"#utility.yul\":14190:14208   */\n      add\n        /* \"#utility.yul\":14181:14187   */\n      dup6\n        /* \"#utility.yul\":14137:14209   */\n      tag_207\n      jump\t// in\n    tag_382:\n        /* \"#utility.yul\":14219:14291   */\n      tag_383\n        /* \"#utility.yul\":14287:14289   */\n      0x40\n        /* \"#utility.yul\":14276:14285   */\n      dup4\n        /* \"#utility.yul\":14272:14290   */\n      add\n        /* \"#utility.yul\":14263:14269   */\n      dup5\n        /* \"#utility.yul\":14219:14291   */\n      tag_207\n      jump\t// in\n    tag_383:\n        /* \"#utility.yul\":13856:14298   */\n      swap5\n      swap4\n      pop\n      pop\n      pop\n      pop\n      jump\t// out\n        /* \"#utility.yul\":14304:14498   */\n    tag_131:\n        /* \"#utility.yul\":14344:14348   */\n      0x00\n        /* \"#utility.yul\":14364:14384   */\n      tag_385\n        /* \"#utility.yul\":14382:14383   */\n      dup3\n        /* \"#utility.yul\":14364:14384   */\n      tag_204\n      jump\t// in\n    tag_385:\n        /* \"#utility.yul\":14359:14384   */\n      swap2\n      pop\n        /* \"#utility.yul\":14398:14418   */\n      tag_386\n        /* \"#utility.yul\":14416:14417   */\n      dup4\n        /* \"#utility.yul\":14398:14418   */\n      tag_204\n      jump\t// in\n    tag_386:\n        /* \"#utility.yul\":14393:14418   */\n      swap3\n      pop\n        /* \"#utility.yul\":14442:14443   */\n      dup3\n        /* \"#utility.yul\":14439:14440   */\n      dup3\n        /* \"#utility.yul\":14435:14444   */\n      sub\n        /* \"#utility.yul\":14427:14444   */\n      swap1\n      pop\n        /* \"#utility.yul\":14466:14467   */\n      dup2\n        /* \"#utility.yul\":14460:14464   */\n      dup2\n        /* \"#utility.yul\":14457:14468   */\n      gt\n        /* \"#utility.yul\":14454:14491   */\n      iszero\n      tag_387\n      jumpi\n        /* \"#utility.yul\":14471:14489   */\n      tag_388\n      tag_235\n      jump\t// in\n    tag_388:\n        /* \"#utility.yul\":14454:14491   */\n    tag_387:\n        /* \"#utility.yul\":14304:14498   */\n      swap3\n      swap2\n      pop\n      pop\n      jump\t// out\n        /* \"#utility.yul\":14504:14695   */\n    tag_133:\n        /* \"#utility.yul\":14544:14547   */\n      0x00\n        /* \"#utility.yul\":14563:14583   */\n      tag_390\n        /* \"#utility.yul\":14581:14582   */\n      dup3\n        /* \"#utility.yul\":14563:14583   */\n      tag_204\n      jump\t// in\n    tag_390:\n        /* \"#utility.yul\":14558:14583   */\n      swap2\n      pop\n        /* \"#utility.yul\":14597:14617   */\n      tag_391\n        /* \"#utility.yul\":14615:14616   */\n      dup4\n        /* \"#utility.yul\":14597:14617   */\n      tag_204\n      jump\t// in\n    tag_391:\n        /* \"#utility.yul\":14592:14617   */\n      swap3\n      pop\n        /* \"#utility.yul\":14640:14641   */\n      dup3\n        /* \"#utility.yul\":14637:14638   */\n      dup3\n        /* \"#utility.yul\":14633:14642   */\n      add\n        /* \"#utility.yul\":14626:14642   */\n      swap1\n      pop\n        /* \"#utility.yul\":14661:14664   */\n      dup1\n        /* \"#utility.yul\":14658:14659   */\n      dup3\n        /* \"#utility.yul\":14655:14665   */\n      gt\n        /* \"#utility.yul\":14652:14688   */\n      iszero\n      tag_392\n      jumpi\n        /* \"#utility.yul\":14668:14686   */\n      tag_393\n      tag_235\n      jump\t// in\n    tag_393:\n        /* \"#utility.yul\":14652:14688   */\n    tag_392:\n        /* \"#utility.yul\":14504:14695   */\n      swap3\n      swap2\n      pop\n      pop\n      jump\t// out\n        /* \"#utility.yul\":14701:14934   */\n    tag_141:\n        /* \"#utility.yul\":14740:14743   */\n      0x00\n        /* \"#utility.yul\":14763:14787   */\n      tag_395\n        /* \"#utility.yul\":14781:14786   */\n      dup3\n        /* \"#utility.yul\":14763:14787   */\n      tag_204\n      jump\t// in\n    tag_395:\n        /* \"#utility.yul\":14754:14787   */\n      swap2\n      pop\n        /* \"#utility.yul\":14809:14875   */\n      0xffffffffffffffffffffffffffffffffffffffffffffffffffffffffffffffff\n        /* \"#utility.yul\":14802:14807   */\n      dup3\n        /* \"#utility.yul\":14799:14876   */\n      sub\n        /* \"#utility.yul\":14796:14899   */\n      tag_396\n      jumpi\n        /* \"#utility.yul\":14879:14897   */\n      tag_397\n      tag_235\n      jump\t// in\n    tag_397:\n        /* \"#utility.yul\":14796:14899   */\n    tag_396:\n        /* \"#utility.yul\":14926:14927   */\n      0x01\n        /* \"#utility.yul\":14919:14924   */\n      dup3\n        /* \"#utility.yul\":14915:14928   */\n      add\n        /* \"#utility.yul\":14908:14928   */\n      swap1\n      pop\n        /* \"#utility.yul\":14701:14934   */\n      swap2\n      swap1\n      pop\n      jump\t// out\n        /* \"#utility.yul\":14940:15120   */\n    tag_144:\n        /* \"#utility.yul\":14988:15065   */\n      0x4e487b7100000000000000000000000000000000000000000000000000000000\n        /* \"#utility.yul\":14985:14986   */\n      0x00\n        /* \"#utility.yul\":14978:15066   */\n      mstore\n        /* \"#utility.yul\":15085:15089   */\n      0x31\n        /* \"#utility.yul\":15082:15083   */\n      0x04\n        /* \"#utility.yul\":15075:15090   */\n      mstore\n        /* \"#utility.yul\":15109:15113   */\n      0x24\n        /* \"#utility.yul\":15106:15107   */\n      0x00\n        /* \"#utility.yul\":15099:15114   */\n      revert\n        /* \"#utility.yul\":15126:15211   */\n    tag_238:\n        /* \"#utility.yul\":15171:15178   */\n      0x00\n        /* \"#utility.yul\":15200:15205   */\n      dup2\n        /* \"#utility.yul\":15189:15205   */\n      swap1\n      pop\n        /* \"#utility.yul\":15126:15211   */\n      swap2\n      swap1\n      pop\n      jump\t// out\n        /* \"#utility.yul\":15217:15277   */\n    tag_239:\n        /* \"#utility.yul\":15245:15248   */\n      0x00\n        /* \"#utility.yul\":15266:15271   */\n      dup2\n        /* \"#utility.yul\":15259:15271   */\n      swap1\n      pop\n        /* \"#utility.yul\":15217:15277   */\n      swap2\n      swap1\n      pop\n      jump\t// out\n        /* \"#utility.yul\":15283:15441   */\n    tag_240:\n        /* \"#utility.yul\":15341:15350   */\n      0x00\n        /* \"#utility.yul\":15374:15435   */\n      tag_402\n        /* \"#utility.yul\":15392:15434   */\n      tag_403\n        /* \"#utility.yul\":15401:15433   */\n      tag_404\n        /* \"#utility.yul\":15427:15432   */\n      dup5\n        /* \"#utility.yul\":15401:15433   */\n      tag_238\n      jump\t// in\n    tag_404:\n        /* \"#utility.yul\":15392:15434   */\n      tag_239\n      jump\t// in\n    tag_403:\n        /* \"#utility.yul\":15374:15435   */\n      tag_204\n      jump\t// in\n    tag_402:\n        /* \"#utility.yul\":15361:15435   */\n      swap1\n      pop\n        /* \"#utility.yul\":15283:15441   */\n      swap2\n      swap1\n      pop\n      jump\t// out\n        /* \"#utility.yul\":15447:15594   */\n    tag_241:\n        /* \"#utility.yul\":15542:15587   */\n      tag_406\n        /* \"#utility.yul\":15581:15586   */\n      dup2\n        /* \"#utility.yul\":15542:15587   */\n      tag_240\n      jump\t// in\n    tag_406:\n        /* \"#utility.yul\":15537:15540   */\n      dup3\n        /* \"#utility.yul\":15530:15588   */\n      mstore\n        /* \"#utility.yul\":15447:15594   */\n      pop\n      pop\n      jump\t// out\n        /* \"#utility.yul\":15600:16058   */\n    tag_156:\n        /* \"#utility.yul\":15757:15761   */\n      0x00\n        /* \"#utility.yul\":15795:15797   */\n      0x60\n        /* \"#utility.yul\":15784:15793   */\n      dup3\n        /* \"#utility.yul\":15780:15798   */\n      add\n        /* \"#utility.yul\":15772:15798   */\n      swap1\n      pop\n        /* \"#utility.yul\":15808:15879   */\n      tag_408\n        /* \"#utility.yul\":15876:15877   */\n      0x00\n        /* \"#utility.yul\":15865:15874   */\n      dup4\n        /* \"#utility.yul\":15861:15878   */\n      add\n        /* \"#utility.yul\":15852:15858   */\n      dup7\n        /* \"#utility.yul\":15808:15879   */\n      tag_207\n      jump\t// in\n    tag_408:\n        /* \"#utility.yul\":15889:15961   */\n      tag_409\n        /* \"#utility.yul\":15957:15959   */\n      0x20\n        /* \"#utility.yul\":15946:15955   */\n      dup4\n        /* \"#utility.yul\":15942:15960   */\n      add\n        /* \"#utility.yul\":15933:15939   */\n      dup6\n        /* \"#utility.yul\":15889:15961   */\n      tag_207\n      jump\t// in\n    tag_409:\n        /* \"#utility.yul\":15971:16051   */\n      tag_410\n        /* \"#utility.yul\":16047:16049   */\n      0x40\n        /* \"#utility.yul\":16036:16045   */\n      dup4\n        /* \"#utility.yul\":16032:16050   */\n      add\n        /* \"#utility.yul\":16023:16029   */\n      dup5\n        /* \"#utility.yul\":15971:16051   */\n      tag_241\n      jump\t// in\n    tag_410:\n        /* \"#utility.yul\":15600:16058   */\n      swap5\n      swap4\n      pop\n      pop\n      pop\n      pop\n      jump\t// out\n        /* \"#utility.yul\":16064:16244   */\n    tag_242:\n        /* \"#utility.yul\":16112:16189   */\n      0x4e487b7100000000000000000000000000000000000000000000000000000000\n        /* \"#utility.yul\":16109:16110   */\n      0x00\n        /* \"#utility.yul\":16102:16190   */\n      mstore\n        /* \"#utility.yul\":16209:16213   */\n      0x22\n        /* \"#utility.yul\":16206:16207   */\n      0x04\n        /* \"#utility.yul\":16199:16214   */\n      mstore\n        /* \"#utility.yul\":16233:16237   */\n      0x24\n        /* \"#utility.yul\":16230:16231   */\n      0x00\n        /* \"#utility.yul\":16223:16238   */\n      revert\n        /* \"#utility.yul\":16250:16570   */\n    tag_175:\n        /* \"#utility.yul\":16294:16300   */\n      0x00\n        /* \"#utility.yul\":16331:16332   */\n      0x02\n        /* \"#utility.yul\":16325:16329   */\n      dup3\n        /* \"#utility.yul\":16321:16333   */\n      div\n        /* \"#utility.yul\":16311:16333   */\n      swap1\n      pop\n        /* \"#utility.yul\":16378:16379   */\n      0x01\n        /* \"#utility.yul\":16372:16376   */\n      dup3\n        /* \"#utility.yul\":16368:16380   */\n      and\n        /* \"#utility.yul\":16399:16417   */\n      dup1\n        /* \"#utility.yul\":16389:16470   */\n      tag_413\n      jumpi\n        /* \"#utility.yul\":16455:16459   */\n      0x7f\n        /* \"#utility.yul\":16447:16453   */\n      dup3\n        /* \"#utility.yul\":16443:16460   */\n      and\n        /* \"#utility.yul\":16433:16460   */\n      swap2\n      pop\n        /* \"#utility.yul\":16389:16470   */\n    tag_413:\n        /* \"#utility.yul\":16517:16519   */\n      0x20\n        /* \"#utility.yul\":16509:16515   */\n      dup3\n        /* \"#utility.yul\":16506:16520   */\n      lt\n        /* \"#utility.yul\":16486:16504   */\n      dup2\n        /* \"#utility.yul\":16483:16521   */\n      sub\n        /* \"#utility.yul\":16480:16564   */\n      tag_414\n      jumpi\n        /* \"#utility.yul\":16536:16554   */\n      tag_415\n      tag_242\n      jump\t// in\n    tag_415:\n        /* \"#utility.yul\":16480:16564   */\n    tag_414:\n        /* \"#utility.yul\":16301:16570   */\n      pop\n        /* \"#utility.yul\":16250:16570   */\n      swap2\n      swap1\n      pop\n      jump\t// out\n\n    auxdata: 0xa2646970667358221220c4d9163245c5018ef36e9133a331ffa447668989ee428023e81ae92138a61a5764736f6c63430008120033\n}\n","bytecode":{"linkReferences":{},"object":"60806040523480156200001157600080fd5b50604051620022d4380380620022d48339818101604052810190620000379190620002cd565b82600460006101000a81548173ffffffffffffffffffffffffffffffffffffffff021916908373ffffffffffffffffffffffffffffffffffffffff160217905550816003908162000089919062000589565b508060058190555050505062000670565b6000604051905090565b600080fd5b600080fd5b600073ffffffffffffffffffffffffffffffffffffffff82169050919050565b6000620000db82620000ae565b9050919050565b620000ed81620000ce565b8114620000f957600080fd5b50565b6000815190506200010d81620000e2565b92915050565b600080fd5b600080fd5b6000601f19601f8301169050919050565b7f4e487b7100000000000000000000000000000000000000000000000000000000600052604160045260246000fd5b62000168826200011d565b810181811067ffffffffffffffff821117156200018a57620001896200012e565b5b80604052505050565b60006200019f6200009a565b9050620001ad82826200015d565b919050565b600067ffffffffffffffff821115620001d057620001cf6200012e565b5b620001db826200011d565b9050602081019050919050565b60005b8381101562000208578082015181840152602081019050620001eb565b60008484015250505050565b60006200022b6200022584620001b2565b62000193565b9050828152602081018484840111156200024a576200024962000118565b5b62000257848285620001e8565b509392505050565b600082601f83011262000277576200027662000113565b5b81516200028984826020860162000214565b91505092915050565b6000819050919050565b620002a78162000292565b8114620002b357600080fd5b50565b600081519050620002c7816200029c565b92915050565b600080600060608486031215620002e957620002e8620000a4565b5b6000620002f986828701620000fc565b935050602084015167ffffffffffffffff8111156200031d576200031c620000a9565b5b6200032b868287016200025f565b92505060406200033e86828701620002b6565b9150509250925092565b600081519050919050565b7f4e487b7100000000000000000000000000000000000000000000000000000000600052602260045260246000fd5b600060028204905060018216806200039b57607f821691505b602082108103620003b157620003b062000353565b5b50919050565b60008190508160005260206000209050919050565b60006020601f8301049050919050565b600082821b905092915050565b6000600883026200041b7fffffffffffffffffffffffffffffffffffffffffffffffffffffffffffffffff82620003dc565b620004278683620003dc565b95508019841693508086168417925050509392505050565b6000819050919050565b60006200046a620004646200045e8462000292565b6200043f565b62000292565b9050919050565b6000819050919050565b620004868362000449565b6200049e620004958262000471565b848454620003e9565b825550505050565b600090565b620004b5620004a6565b620004c28184846200047b565b505050565b5b81811015620004ea57620004de600082620004ab565b600181019050620004c8565b5050565b601f82111562000539576200050381620003b7565b6200050e84620003cc565b810160208510156200051e578190505b620005366200052d85620003cc565b830182620004c7565b50505b505050565b600082821c905092915050565b60006200055e600019846008026200053e565b1980831691505092915050565b60006200057983836200054b565b9150826002028217905092915050565b620005948262000348565b67ffffffffffffffff811115620005b057620005af6200012e565b5b620005bc825462000382565b620005c9828285620004ee565b600060209050601f831160018114620006015760008415620005ec578287015190505b620005f885826200056b565b86555062000668565b601f1984166200061186620003b7565b60005b828110156200063b5784890151825560018201915060208501945060208101905062000614565b868310156200065b578489015162000657601f8916826200054b565b8355505b6001600288020188555050505b505050505050565b611c5480620006806000396000f3fe6080604052600436106100e85760003560e01c80636eaf95631161008a578063a4e81be011610059578063a4e81be0146102ff578063c17c35211461031b578063cc1e2cb014610344578063d0e30db01461036f576100e8565b80636eaf9563146102315780639ace38c21461025a5780639d5f65fc14610299578063a329f8f6146102d6576100e8565b80632a0e54bd116100c65780632a0e54bd14610181578063474466c2146101bf578063481c6a75146101db57806359a7b3fe14610206576100e8565b80630fa8d54f146100ed57806312065fe01461011657806320ee128e14610141575b600080fd5b3480156100f957600080fd5b50610114600480360381019061010f91906113c4565b610379565b005b34801561012257600080fd5b5061012b6104a4565b6040516101389190611400565b60405180910390f35b34801561014d57600080fd5b5061016860048036038101906101639190611479565b6104ac565b60405161017894939291906114d4565b60405180910390f35b34801561018d57600080fd5b506101a860048036038101906101a39190611479565b610506565b6040516101b6929190611528565b60405180910390f35b6101d960048036038101906101d4919061158f565b610567565b005b3480156101e757600080fd5b506101f0610a78565b6040516101fd91906115cf565b60405180910390f35b34801561021257600080fd5b5061021b610a9e565b6040516102289190611400565b60405180910390f35b34801561023d57600080fd5b5061025860048036038101906102539190611479565b610aa4565b005b34801561026657600080fd5b50610281600480360381019061027c91906113c4565b610e85565b6040516102909392919061167a565b60405180910390f35b3480156102a557600080fd5b506102c060048036038101906102bb91906116b8565b610f67565b6040516102cd9190611807565b60405180910390f35b3480156102e257600080fd5b506102fd60048036038101906102f89190611829565b61103e565b005b6103196004803603810190610314919061187c565b61119f565b005b34801561032757600080fd5b50610342600480360381019061033d91906113c4565b61124e565b005b34801561035057600080fd5b506103596112a7565b60405161036691906118fe565b60405180910390f35b610377611335565b005b6008600160003373ffffffffffffffffffffffffffffffffffffffff1673ffffffffffffffffffffffffffffffffffffffff16815260200190815260200160002080549050106103c857600080fd5b600160003373ffffffffffffffffffffffffffffffffffffffff1673ffffffffffffffffffffffffffffffffffffffff16815260200190815260200160002060405180608001604052804281526020018381526020018360055461042c919061194f565b815260200160001515815250908060018154018082558091505060019003906000526020600020906004020160009091909190915060008201518160000155602082015181600101556040820151816002015560608201518160030160006101000a81548160ff021916908315150217905550505050565b600047905090565b600160205281600052604060002081815481106104c857600080fd5b9060005260206000209060040201600091509150508060000154908060010154908060020154908060030160009054906101000a900460ff16905084565b6002602052816000526040600020818154811061052257600080fd5b9060005260206000209060020201600091509150508060000160009054906101000a900473ffffffffffffffffffffffffffffffffffffffff16908060010154905082565b600460009054906101000a900473ffffffffffffffffffffffffffffffffffffffff1673ffffffffffffffffffffffffffffffffffffffff163373ffffffffffffffffffffffffffffffffffffffff16146105f7576040517f08c379a00000000000000000000000000000000000000000000000000000000081526004016105ee906119dd565b60405180910390fd5b600115158273ffffffffffffffffffffffffffffffffffffffff163373ffffffffffffffffffffffffffffffffffffffff167f62a0718d681b5a77ad80fbaf7e41ff461f77b69d49e3879cba8e045c85e2ac74600160008773ffffffffffffffffffffffffffffffffffffffff1673ffffffffffffffffffffffffffffffffffffffff168152602001908152602001600020858154811061069b5761069a6119fd565b5b906000526020600020906004020160000154600160008873ffffffffffffffffffffffffffffffffffffffff1673ffffffffffffffffffffffffffffffffffffffff16815260200190815260200160002086815481106106fe576106fd6119fd565b5b906000526020600020906004020160010154600160008973ffffffffffffffffffffffffffffffffffffffff1673ffffffffffffffffffffffffffffffffffffffff1681526020019081526020016000208781548110610761576107606119fd565b5b906000526020600020906004020160010154600554610780919061194f565b60405161078f93929190611a2c565b60405180910390a48173ffffffffffffffffffffffffffffffffffffffff166108fc600160008573ffffffffffffffffffffffffffffffffffffffff1673ffffffffffffffffffffffffffffffffffffffff1681526020019081526020016000208381548110610802576108016119fd565b5b906000526020600020906004020160010154600f600554610823919061194f565b61082d919061194f565b9081150290604051600060405180830381858888f19350505050158015610858573d6000803e3d6000fd5b5060008190505b60018060008573ffffffffffffffffffffffffffffffffffffffff1673ffffffffffffffffffffffffffffffffffffffff168152602001908152602001600020805490506108ad9190611a63565b8110156109df57600160008473ffffffffffffffffffffffffffffffffffffffff1673ffffffffffffffffffffffffffffffffffffffff1681526020019081526020016000206001826109009190611a97565b81548110610911576109106119fd565b5b9060005260206000209060040201600160008573ffffffffffffffffffffffffffffffffffffffff1673ffffffffffffffffffffffffffffffffffffffff16815260200190815260200160002082815481106109705761096f6119fd565b5b90600052602060002090600402016000820154816000015560018201548160010155600282015481600201556003820160009054906101000a900460ff168160030160006101000a81548160ff02191690831515021790555090505080806109d790611acb565b91505061085f565b50600160008373ffffffffffffffffffffffffffffffffffffffff1673ffffffffffffffffffffffffffffffffffffffff168152602001908152602001600020805480610a2f57610a2e611b13565b5b6001900381819060005260206000209060040201600080820160009055600182016000905560028201600090556003820160006101000a81549060ff0219169055505090555050565b600460009054906101000a900473ffffffffffffffffffffffffffffffffffffffff1681565b60055481565b600460009054906101000a900473ffffffffffffffffffffffffffffffffffffffff1673ffffffffffffffffffffffffffffffffffffffff163373ffffffffffffffffffffffffffffffffffffffff1614610b34576040517f08c379a0000000000000000000000000000000000000000000000000000000008152600401610b2b906119dd565b60405180910390fd5b600015158273ffffffffffffffffffffffffffffffffffffffff163373ffffffffffffffffffffffffffffffffffffffff167f62a0718d681b5a77ad80fbaf7e41ff461f77b69d49e3879cba8e045c85e2ac74600160008773ffffffffffffffffffffffffffffffffffffffff1673ffffffffffffffffffffffffffffffffffffffff1681526020019081526020016000208581548110610bd857610bd76119fd565b5b906000526020600020906004020160000154600160008873ffffffffffffffffffffffffffffffffffffffff1673ffffffffffffffffffffffffffffffffffffffff1681526020019081526020016000208681548110610c3b57610c3a6119fd565b5b9060005260206000209060040201600101546000604051610c5e93929190611b87565b60405180910390a460008190505b60018060008573ffffffffffffffffffffffffffffffffffffffff1673ffffffffffffffffffffffffffffffffffffffff16815260200190815260200160002080549050610cba9190611a63565b811015610dec57600160008473ffffffffffffffffffffffffffffffffffffffff1673ffffffffffffffffffffffffffffffffffffffff168152602001908152602001600020600182610d0d9190611a97565b81548110610d1e57610d1d6119fd565b5b9060005260206000209060040201600160008573ffffffffffffffffffffffffffffffffffffffff1673ffffffffffffffffffffffffffffffffffffffff1681526020019081526020016000208281548110610d7d57610d7c6119fd565b5b90600052602060002090600402016000820154816000015560018201548160010155600282015481600201556003820160009054906101000a900460ff168160030160006101000a81548160ff0219169083151502179055509050508080610de490611acb565b915050610c6c565b50600160008373ffffffffffffffffffffffffffffffffffffffff1673ffffffffffffffffffffffffffffffffffffffff168152602001908152602001600020805480610e3c57610e3b611b13565b5b6001900381819060005260206000209060040201600080820160009055600182016000905560028201600090556003820160006101000a81549060ff0219169055505090555050565b60008181548110610e9557600080fd5b90600052602060002090600302016000915090508060000160009054906101000a900473ffffffffffffffffffffffffffffffffffffffff1690806001015490806002018054610ee490611bed565b80601f0160208091040260200160405190810160405280929190818152602001828054610f1090611bed565b8015610f5d5780601f10610f3257610100808354040283529160200191610f5d565b820191906000526020600020905b815481529060010190602001808311610f4057829003601f168201915b5050505050905083565b6060600160008373ffffffffffffffffffffffffffffffffffffffff1673ffffffffffffffffffffffffffffffffffffffff168152602001908152602001600020805480602002602001604051908101604052809291908181526020016000905b8282101561103357838290600052602060002090600402016040518060800160405290816000820154815260200160018201548152602001600282015481526020016003820160009054906101000a900460ff16151515158152505081526020019060010190610fc8565b505050509050919050565b60008110158015611050575060058111155b61105957600080fd5b808273ffffffffffffffffffffffffffffffffffffffff168473ffffffffffffffffffffffffffffffffffffffff167f5435029ae8e53f5303b6dbda07be9beb09ae106923c28bf30dc3c46852588f0460405160405180910390a4600260008373ffffffffffffffffffffffffffffffffffffffff1673ffffffffffffffffffffffffffffffffffffffff16815260200190815260200160002060405180604001604052808573ffffffffffffffffffffffffffffffffffffffff16815260200183815250908060018154018082558091505060019003906000526020600020906002020160009091909190915060008201518160000160006101000a81548173ffffffffffffffffffffffffffffffffffffffff021916908373ffffffffffffffffffffffffffffffffffffffff160217905550602082015181600101555050505050565b8073ffffffffffffffffffffffffffffffffffffffff166108fc349081150290604051600060405180830381858888f193505050501580156111e5573d6000803e3d6000fd5b508073ffffffffffffffffffffffffffffffffffffffff163373ffffffffffffffffffffffffffffffffffffffff167fad011377252e79c9d574ced1048c7d7020d2abd44385576062139ed308dfe972346040516112439190611400565b60405180910390a350565b423373ffffffffffffffffffffffffffffffffffffffff167f556a8d88a81363d3d82e0a4349b1c101aa81b26dd3f3c9e97a447b9f6cafbf53836040516112959190611400565b60405180910390a38060058190555050565b600380546112b490611bed565b80601f01602080910402602001604051908101604052809291908181526020018280546112e090611bed565b801561132d5780601f106113025761010080835404028352916020019161132d565b820191906000526020600020905b81548152906001019060200180831161131057829003601f168201915b505050505081565b3373ffffffffffffffffffffffffffffffffffffffff167f36af321ec8d3c75236829c5317affd40ddb308863a1236d2d277a4025cccee1e34474260405161137f93929190611a2c565b60405180910390a2565b600080fd5b6000819050919050565b6113a18161138e565b81146113ac57600080fd5b50565b6000813590506113be81611398565b92915050565b6000602082840312156113da576113d9611389565b5b60006113e8848285016113af565b91505092915050565b6113fa8161138e565b82525050565b600060208201905061141560008301846113f1565b92915050565b600073ffffffffffffffffffffffffffffffffffffffff82169050919050565b60006114468261141b565b9050919050565b6114568161143b565b811461146157600080fd5b50565b6000813590506114738161144d565b92915050565b600080604083850312156114905761148f611389565b5b600061149e85828601611464565b92505060206114af858286016113af565b9150509250929050565b60008115159050919050565b6114ce816114b9565b82525050565b60006080820190506114e960008301876113f1565b6114f660208301866113f1565b61150360408301856113f1565b61151060608301846114c5565b95945050505050565b6115228161143b565b82525050565b600060408201905061153d6000830185611519565b61154a60208301846113f1565b9392505050565b600061155c8261141b565b9050919050565b61156c81611551565b811461157757600080fd5b50565b60008135905061158981611563565b92915050565b600080604083850312156115a6576115a5611389565b5b60006115b48582860161157a565b92505060206115c5858286016113af565b9150509250929050565b60006020820190506115e46000830184611519565b92915050565b600081519050919050565b600082825260208201905092915050565b60005b83811015611624578082015181840152602081019050611609565b60008484015250505050565b6000601f19601f8301169050919050565b600061164c826115ea565b61165681856115f5565b9350611666818560208601611606565b61166f81611630565b840191505092915050565b600060608201905061168f6000830186611519565b61169c60208301856113f1565b81810360408301526116ae8184611641565b9050949350505050565b6000602082840312156116ce576116cd611389565b5b60006116dc84828501611464565b91505092915050565b600081519050919050565b600082825260208201905092915050565b6000819050602082019050919050565b61171a8161138e565b82525050565b611729816114b9565b82525050565b6080820160008201516117456000850182611711565b5060208201516117586020850182611711565b50604082015161176b6040850182611711565b50606082015161177e6060850182611720565b50505050565b6000611790838361172f565b60808301905092915050565b6000602082019050919050565b60006117b4826116e5565b6117be81856116f0565b93506117c983611701565b8060005b838110156117fa5781516117e18882611784565b97506117ec8361179c565b9250506001810190506117cd565b5085935050505092915050565b6000602082019050818103600083015261182181846117a9565b905092915050565b60008060006060848603121561184257611841611389565b5b600061185086828701611464565b935050602061186186828701611464565b9250506040611872868287016113af565b9150509250925092565b60006020828403121561189257611891611389565b5b60006118a08482850161157a565b91505092915050565b600081519050919050565b600082825260208201905092915050565b60006118d0826118a9565b6118da81856118b4565b93506118ea818560208601611606565b6118f381611630565b840191505092915050565b6000602082019050818103600083015261191881846118c5565b905092915050565b7f4e487b7100000000000000000000000000000000000000000000000000000000600052601160045260246000fd5b600061195a8261138e565b91506119658361138e565b92508282026119738161138e565b9150828204841483151761198a57611989611920565b5b5092915050565b7f596f7520617265206e6f7420746865206d616e61676572000000000000000000600082015250565b60006119c76017836118b4565b91506119d282611991565b602082019050919050565b600060208201905081810360008301526119f6816119ba565b9050919050565b7f4e487b7100000000000000000000000000000000000000000000000000000000600052603260045260246000fd5b6000606082019050611a4160008301866113f1565b611a4e60208301856113f1565b611a5b60408301846113f1565b949350505050565b6000611a6e8261138e565b9150611a798361138e565b9250828203905081811115611a9157611a90611920565b5b92915050565b6000611aa28261138e565b9150611aad8361138e565b9250828201905080821115611ac557611ac4611920565b5b92915050565b6000611ad68261138e565b91507fffffffffffffffffffffffffffffffffffffffffffffffffffffffffffffffff8203611b0857611b07611920565b5b600182019050919050565b7f4e487b7100000000000000000000000000000000000000000000000000000000600052603160045260246000fd5b6000819050919050565b6000819050919050565b6000611b71611b6c611b6784611b42565b611b4c565b61138e565b9050919050565b611b8181611b56565b82525050565b6000606082019050611b9c60008301866113f1565b611ba960208301856113f1565b611bb66040830184611b78565b949350505050565b7f4e487b7100000000000000000000000000000000000000000000000000000000600052602260045260246000fd5b60006002820490506001821680611c0557607f821691505b602082108103611c1857611c17611bbe565b5b5091905056fea2646970667358221220c4d9163245c5018ef36e9133a331ffa447668989ee428023e81ae92138a61a5764736f6c63430008120033","opcodes":"PUSH1 0x80 PUSH1 0x40 MSTORE CALLVALUE DUP1 ISZERO PUSH3 0x11 JUMPI PUSH1 0x0 DUP1 REVERT JUMPDEST POP PUSH1 0x40 MLOAD PUSH3 0x22D4 CODESIZE SUB DUP1 PUSH3 0x22D4 DUP4 CODECOPY DUP2 DUP2 ADD PUSH1 0x40 MSTORE DUP2 ADD SWAP1 PUSH3 0x37 SWAP2 SWAP1 PUSH3 0x2CD JUMP JUMPDEST DUP3 PUSH1 0x4 PUSH1 0x0 PUSH2 0x100 EXP DUP2 SLOAD DUP2 PUSH20 0xFFFFFFFFFFFFFFFFFFFFFFFFFFFFFFFFFFFFFFFF MUL NOT AND SWAP1 DUP4 PUSH20 0xFFFFFFFFFFFFFFFFFFFFFFFFFFFFFFFFFFFFFFFF AND MUL OR SWAP1 SSTORE POP DUP2 PUSH1 0x3 SWAP1 DUP2 PUSH3 0x89 SWAP2 SWAP1 PUSH3 0x589 JUMP JUMPDEST POP DUP1 PUSH1 0x5 DUP2 SWAP1 SSTORE POP POP POP POP PUSH3 0x670 JUMP JUMPDEST PUSH1 0x0 PUSH1 0x40 MLOAD SWAP1 POP SWAP1 JUMP JUMPDEST PUSH1 0x0 DUP1 REVERT JUMPDEST PUSH1 0x0 DUP1 REVERT JUMPDEST PUSH1 0x0 PUSH20 0xFFFFFFFFFFFFFFFFFFFFFFFFFFFFFFFFFFFFFFFF DUP3 AND SWAP1 POP SWAP2 SWAP1 POP JUMP JUMPDEST PUSH1 0x0 PUSH3 0xDB DUP3 PUSH3 0xAE JUMP JUMPDEST SWAP1 POP SWAP2 SWAP1 POP JUMP JUMPDEST PUSH3 0xED DUP2 PUSH3 0xCE JUMP JUMPDEST DUP2 EQ PUSH3 0xF9 JUMPI PUSH1 0x0 DUP1 REVERT JUMPDEST POP JUMP JUMPDEST PUSH1 0x0 DUP2 MLOAD SWAP1 POP PUSH3 0x10D DUP2 PUSH3 0xE2 JUMP JUMPDEST SWAP3 SWAP2 POP POP JUMP JUMPDEST PUSH1 0x0 DUP1 REVERT JUMPDEST PUSH1 0x0 DUP1 REVERT JUMPDEST PUSH1 0x0 PUSH1 0x1F NOT PUSH1 0x1F DUP4 ADD AND SWAP1 POP SWAP2 SWAP1 POP JUMP JUMPDEST PUSH32 0x4E487B7100000000000000000000000000000000000000000000000000000000 PUSH1 0x0 MSTORE PUSH1 0x41 PUSH1 0x4 MSTORE PUSH1 0x24 PUSH1 0x0 REVERT JUMPDEST PUSH3 0x168 DUP3 PUSH3 0x11D JUMP JUMPDEST DUP2 ADD DUP2 DUP2 LT PUSH8 0xFFFFFFFFFFFFFFFF DUP3 GT OR ISZERO PUSH3 0x18A JUMPI PUSH3 0x189 PUSH3 0x12E JUMP JUMPDEST JUMPDEST DUP1 PUSH1 0x40 MSTORE POP POP POP JUMP JUMPDEST PUSH1 0x0 PUSH3 0x19F PUSH3 0x9A JUMP JUMPDEST SWAP1 POP PUSH3 0x1AD DUP3 DUP3 PUSH3 0x15D JUMP JUMPDEST SWAP2 SWAP1 POP JUMP JUMPDEST PUSH1 0x0 PUSH8 0xFFFFFFFFFFFFFFFF DUP3 GT ISZERO PUSH3 0x1D0 JUMPI PUSH3 0x1CF PUSH3 0x12E JUMP JUMPDEST JUMPDEST PUSH3 0x1DB DUP3 PUSH3 0x11D JUMP JUMPDEST SWAP1 POP PUSH1 0x20 DUP2 ADD SWAP1 POP SWAP2 SWAP1 POP JUMP JUMPDEST PUSH1 0x0 JUMPDEST DUP4 DUP2 LT ISZERO PUSH3 0x208 JUMPI DUP1 DUP3 ADD MLOAD DUP2 DUP5 ADD MSTORE PUSH1 0x20 DUP2 ADD SWAP1 POP PUSH3 0x1EB JUMP JUMPDEST PUSH1 0x0 DUP5 DUP5 ADD MSTORE POP POP POP POP JUMP JUMPDEST PUSH1 0x0 PUSH3 0x22B PUSH3 0x225 DUP5 PUSH3 0x1B2 JUMP JUMPDEST PUSH3 0x193 JUMP JUMPDEST SWAP1 POP DUP3 DUP2 MSTORE PUSH1 0x20 DUP2 ADD DUP5 DUP5 DUP5 ADD GT ISZERO PUSH3 0x24A JUMPI PUSH3 0x249 PUSH3 0x118 JUMP JUMPDEST JUMPDEST PUSH3 0x257 DUP5 DUP3 DUP6 PUSH3 0x1E8 JUMP JUMPDEST POP SWAP4 SWAP3 POP POP POP JUMP JUMPDEST PUSH1 0x0 DUP3 PUSH1 0x1F DUP4 ADD SLT PUSH3 0x277 JUMPI PUSH3 0x276 PUSH3 0x113 JUMP JUMPDEST JUMPDEST DUP2 MLOAD PUSH3 0x289 DUP5 DUP3 PUSH1 0x20 DUP7 ADD PUSH3 0x214 JUMP JUMPDEST SWAP2 POP POP SWAP3 SWAP2 POP POP JUMP JUMPDEST PUSH1 0x0 DUP2 SWAP1 POP SWAP2 SWAP1 POP JUMP JUMPDEST PUSH3 0x2A7 DUP2 PUSH3 0x292 JUMP JUMPDEST DUP2 EQ PUSH3 0x2B3 JUMPI PUSH1 0x0 DUP1 REVERT JUMPDEST POP JUMP JUMPDEST PUSH1 0x0 DUP2 MLOAD SWAP1 POP PUSH3 0x2C7 DUP2 PUSH3 0x29C JUMP JUMPDEST SWAP3 SWAP2 POP POP JUMP JUMPDEST PUSH1 0x0 DUP1 PUSH1 0x0 PUSH1 0x60 DUP5 DUP7 SUB SLT ISZERO PUSH3 0x2E9 JUMPI PUSH3 0x2E8 PUSH3 0xA4 JUMP JUMPDEST JUMPDEST PUSH1 0x0 PUSH3 0x2F9 DUP7 DUP3 DUP8 ADD PUSH3 0xFC JUMP JUMPDEST SWAP4 POP POP PUSH1 0x20 DUP5 ADD MLOAD PUSH8 0xFFFFFFFFFFFFFFFF DUP2 GT ISZERO PUSH3 0x31D JUMPI PUSH3 0x31C PUSH3 0xA9 JUMP JUMPDEST JUMPDEST PUSH3 0x32B DUP7 DUP3 DUP8 ADD PUSH3 0x25F JUMP JUMPDEST SWAP3 POP POP PUSH1 0x40 PUSH3 0x33E DUP7 DUP3 DUP8 ADD PUSH3 0x2B6 JUMP JUMPDEST SWAP2 POP POP SWAP3 POP SWAP3 POP SWAP3 JUMP JUMPDEST PUSH1 0x0 DUP2 MLOAD SWAP1 POP SWAP2 SWAP1 POP JUMP JUMPDEST PUSH32 0x4E487B7100000000000000000000000000000000000000000000000000000000 PUSH1 0x0 MSTORE PUSH1 0x22 PUSH1 0x4 MSTORE PUSH1 0x24 PUSH1 0x0 REVERT JUMPDEST PUSH1 0x0 PUSH1 0x2 DUP3 DIV SWAP1 POP PUSH1 0x1 DUP3 AND DUP1 PUSH3 0x39B JUMPI PUSH1 0x7F DUP3 AND SWAP2 POP JUMPDEST PUSH1 0x20 DUP3 LT DUP2 SUB PUSH3 0x3B1 JUMPI PUSH3 0x3B0 PUSH3 0x353 JUMP JUMPDEST JUMPDEST POP SWAP2 SWAP1 POP JUMP JUMPDEST PUSH1 0x0 DUP2 SWAP1 POP DUP2 PUSH1 0x0 MSTORE PUSH1 0x20 PUSH1 0x0 KECCAK256 SWAP1 POP SWAP2 SWAP1 POP JUMP JUMPDEST PUSH1 0x0 PUSH1 0x20 PUSH1 0x1F DUP4 ADD DIV SWAP1 POP SWAP2 SWAP1 POP JUMP JUMPDEST PUSH1 0x0 DUP3 DUP3 SHL SWAP1 POP SWAP3 SWAP2 POP POP JUMP JUMPDEST PUSH1 0x0 PUSH1 0x8 DUP4 MUL PUSH3 0x41B PUSH32 0xFFFFFFFFFFFFFFFFFFFFFFFFFFFFFFFFFFFFFFFFFFFFFFFFFFFFFFFFFFFFFFFF DUP3 PUSH3 0x3DC JUMP JUMPDEST PUSH3 0x427 DUP7 DUP4 PUSH3 0x3DC JUMP JUMPDEST SWAP6 POP DUP1 NOT DUP5 AND SWAP4 POP DUP1 DUP7 AND DUP5 OR SWAP3 POP POP POP SWAP4 SWAP3 POP POP POP JUMP JUMPDEST PUSH1 0x0 DUP2 SWAP1 POP SWAP2 SWAP1 POP JUMP JUMPDEST PUSH1 0x0 PUSH3 0x46A PUSH3 0x464 PUSH3 0x45E DUP5 PUSH3 0x292 JUMP JUMPDEST PUSH3 0x43F JUMP JUMPDEST PUSH3 0x292 JUMP JUMPDEST SWAP1 POP SWAP2 SWAP1 POP JUMP JUMPDEST PUSH1 0x0 DUP2 SWAP1 POP SWAP2 SWAP1 POP JUMP JUMPDEST PUSH3 0x486 DUP4 PUSH3 0x449 JUMP JUMPDEST PUSH3 0x49E PUSH3 0x495 DUP3 PUSH3 0x471 JUMP JUMPDEST DUP5 DUP5 SLOAD PUSH3 0x3E9 JUMP JUMPDEST DUP3 SSTORE POP POP POP POP JUMP JUMPDEST PUSH1 0x0 SWAP1 JUMP JUMPDEST PUSH3 0x4B5 PUSH3 0x4A6 JUMP JUMPDEST PUSH3 0x4C2 DUP2 DUP5 DUP5 PUSH3 0x47B JUMP JUMPDEST POP POP POP JUMP JUMPDEST JUMPDEST DUP2 DUP2 LT ISZERO PUSH3 0x4EA JUMPI PUSH3 0x4DE PUSH1 0x0 DUP3 PUSH3 0x4AB JUMP JUMPDEST PUSH1 0x1 DUP2 ADD SWAP1 POP PUSH3 0x4C8 JUMP JUMPDEST POP POP JUMP JUMPDEST PUSH1 0x1F DUP3 GT ISZERO PUSH3 0x539 JUMPI PUSH3 0x503 DUP2 PUSH3 0x3B7 JUMP JUMPDEST PUSH3 0x50E DUP5 PUSH3 0x3CC JUMP JUMPDEST DUP2 ADD PUSH1 0x20 DUP6 LT ISZERO PUSH3 0x51E JUMPI DUP2 SWAP1 POP JUMPDEST PUSH3 0x536 PUSH3 0x52D DUP6 PUSH3 0x3CC JUMP JUMPDEST DUP4 ADD DUP3 PUSH3 0x4C7 JUMP JUMPDEST POP POP JUMPDEST POP POP POP JUMP JUMPDEST PUSH1 0x0 DUP3 DUP3 SHR SWAP1 POP SWAP3 SWAP2 POP POP JUMP JUMPDEST PUSH1 0x0 PUSH3 0x55E PUSH1 0x0 NOT DUP5 PUSH1 0x8 MUL PUSH3 0x53E JUMP JUMPDEST NOT DUP1 DUP4 AND SWAP2 POP POP SWAP3 SWAP2 POP POP JUMP JUMPDEST PUSH1 0x0 PUSH3 0x579 DUP4 DUP4 PUSH3 0x54B JUMP JUMPDEST SWAP2 POP DUP3 PUSH1 0x2 MUL DUP3 OR SWAP1 POP SWAP3 SWAP2 POP POP JUMP JUMPDEST PUSH3 0x594 DUP3 PUSH3 0x348 JUMP JUMPDEST PUSH8 0xFFFFFFFFFFFFFFFF DUP2 GT ISZERO PUSH3 0x5B0 JUMPI PUSH3 0x5AF PUSH3 0x12E JUMP JUMPDEST JUMPDEST PUSH3 0x5BC DUP3 SLOAD PUSH3 0x382 JUMP JUMPDEST PUSH3 0x5C9 DUP3 DUP3 DUP6 PUSH3 0x4EE JUMP JUMPDEST PUSH1 0x0 PUSH1 0x20 SWAP1 POP PUSH1 0x1F DUP4 GT PUSH1 0x1 DUP2 EQ PUSH3 0x601 JUMPI PUSH1 0x0 DUP5 ISZERO PUSH3 0x5EC JUMPI DUP3 DUP8 ADD MLOAD SWAP1 POP JUMPDEST PUSH3 0x5F8 DUP6 DUP3 PUSH3 0x56B JUMP JUMPDEST DUP7 SSTORE POP PUSH3 0x668 JUMP JUMPDEST PUSH1 0x1F NOT DUP5 AND PUSH3 0x611 DUP7 PUSH3 0x3B7 JUMP JUMPDEST PUSH1 0x0 JUMPDEST DUP3 DUP2 LT ISZERO PUSH3 0x63B JUMPI DUP5 DUP10 ADD MLOAD DUP3 SSTORE PUSH1 0x1 DUP3 ADD SWAP2 POP PUSH1 0x20 DUP6 ADD SWAP5 POP PUSH1 0x20 DUP2 ADD SWAP1 POP PUSH3 0x614 JUMP JUMPDEST DUP7 DUP4 LT ISZERO PUSH3 0x65B JUMPI DUP5 DUP10 ADD MLOAD PUSH3 0x657 PUSH1 0x1F DUP10 AND DUP3 PUSH3 0x54B JUMP JUMPDEST DUP4 SSTORE POP JUMPDEST PUSH1 0x1 PUSH1 0x2 DUP9 MUL ADD DUP9 SSTORE POP POP POP JUMPDEST POP POP POP POP POP POP JUMP JUMPDEST PUSH2 0x1C54 DUP1 PUSH3 0x680 PUSH1 0x0 CODECOPY PUSH1 0x0 RETURN INVALID PUSH1 0x80 PUSH1 0x40 MSTORE PUSH1 0x4 CALLDATASIZE LT PUSH2 0xE8 JUMPI PUSH1 0x0 CALLDATALOAD PUSH1 0xE0 SHR DUP1 PUSH4 0x6EAF9563 GT PUSH2 0x8A JUMPI DUP1 PUSH4 0xA4E81BE0 GT PUSH2 0x59 JUMPI DUP1 PUSH4 0xA4E81BE0 EQ PUSH2 0x2FF JUMPI DUP1 PUSH4 0xC17C3521 EQ PUSH2 0x31B JUMPI DUP1 PUSH4 0xCC1E2CB0 EQ PUSH2 0x344 JUMPI DUP1 PUSH4 0xD0E30DB0 EQ PUSH2 0x36F JUMPI PUSH2 0xE8 JUMP JUMPDEST DUP1 PUSH4 0x6EAF9563 EQ PUSH2 0x231 JUMPI DUP1 PUSH4 0x9ACE38C2 EQ PUSH2 0x25A JUMPI DUP1 PUSH4 0x9D5F65FC EQ PUSH2 0x299 JUMPI DUP1 PUSH4 0xA329F8F6 EQ PUSH2 0x2D6 JUMPI PUSH2 0xE8 JUMP JUMPDEST DUP1 PUSH4 0x2A0E54BD GT PUSH2 0xC6 JUMPI DUP1 PUSH4 0x2A0E54BD EQ PUSH2 0x181 JUMPI DUP1 PUSH4 0x474466C2 EQ PUSH2 0x1BF JUMPI DUP1 PUSH4 0x481C6A75 EQ PUSH2 0x1DB JUMPI DUP1 PUSH4 0x59A7B3FE EQ PUSH2 0x206 JUMPI PUSH2 0xE8 JUMP JUMPDEST DUP1 PUSH4 0xFA8D54F EQ PUSH2 0xED JUMPI DUP1 PUSH4 0x12065FE0 EQ PUSH2 0x116 JUMPI DUP1 PUSH4 0x20EE128E EQ PUSH2 0x141 JUMPI JUMPDEST PUSH1 0x0 DUP1 REVERT JUMPDEST CALLVALUE DUP1 ISZERO PUSH2 0xF9 JUMPI PUSH1 0x0 DUP1 REVERT JUMPDEST POP PUSH2 0x114 PUSH1 0x4 DUP1 CALLDATASIZE SUB DUP2 ADD SWAP1 PUSH2 0x10F SWAP2 SWAP1 PUSH2 0x13C4 JUMP JUMPDEST PUSH2 0x379 JUMP JUMPDEST STOP JUMPDEST CALLVALUE DUP1 ISZERO PUSH2 0x122 JUMPI PUSH1 0x0 DUP1 REVERT JUMPDEST POP PUSH2 0x12B PUSH2 0x4A4 JUMP JUMPDEST PUSH1 0x40 MLOAD PUSH2 0x138 SWAP2 SWAP1 PUSH2 0x1400 JUMP JUMPDEST PUSH1 0x40 MLOAD DUP1 SWAP2 SUB SWAP1 RETURN JUMPDEST CALLVALUE DUP1 ISZERO PUSH2 0x14D JUMPI PUSH1 0x0 DUP1 REVERT JUMPDEST POP PUSH2 0x168 PUSH1 0x4 DUP1 CALLDATASIZE SUB DUP2 ADD SWAP1 PUSH2 0x163 SWAP2 SWAP1 PUSH2 0x1479 JUMP JUMPDEST PUSH2 0x4AC JUMP JUMPDEST PUSH1 0x40 MLOAD PUSH2 0x178 SWAP5 SWAP4 SWAP3 SWAP2 SWAP1 PUSH2 0x14D4 JUMP JUMPDEST PUSH1 0x40 MLOAD DUP1 SWAP2 SUB SWAP1 RETURN JUMPDEST CALLVALUE DUP1 ISZERO PUSH2 0x18D JUMPI PUSH1 0x0 DUP1 REVERT JUMPDEST POP PUSH2 0x1A8 PUSH1 0x4 DUP1 CALLDATASIZE SUB DUP2 ADD SWAP1 PUSH2 0x1A3 SWAP2 SWAP1 PUSH2 0x1479 JUMP JUMPDEST PUSH2 0x506 JUMP JUMPDEST PUSH1 0x40 MLOAD PUSH2 0x1B6 SWAP3 SWAP2 SWAP1 PUSH2 0x1528 JUMP JUMPDEST PUSH1 0x40 MLOAD DUP1 SWAP2 SUB SWAP1 RETURN JUMPDEST PUSH2 0x1D9 PUSH1 0x4 DUP1 CALLDATASIZE SUB DUP2 ADD SWAP1 PUSH2 0x1D4 SWAP2 SWAP1 PUSH2 0x158F JUMP JUMPDEST PUSH2 0x567 JUMP JUMPDEST STOP JUMPDEST CALLVALUE DUP1 ISZERO PUSH2 0x1E7 JUMPI PUSH1 0x0 DUP1 REVERT JUMPDEST POP PUSH2 0x1F0 PUSH2 0xA78 JUMP JUMPDEST PUSH1 0x40 MLOAD PUSH2 0x1FD SWAP2 SWAP1 PUSH2 0x15CF JUMP JUMPDEST PUSH1 0x40 MLOAD DUP1 SWAP2 SUB SWAP1 RETURN JUMPDEST CALLVALUE DUP1 ISZERO PUSH2 0x212 JUMPI PUSH1 0x0 DUP1 REVERT JUMPDEST POP PUSH2 0x21B PUSH2 0xA9E JUMP JUMPDEST PUSH1 0x40 MLOAD PUSH2 0x228 SWAP2 SWAP1 PUSH2 0x1400 JUMP JUMPDEST PUSH1 0x40 MLOAD DUP1 SWAP2 SUB SWAP1 RETURN JUMPDEST CALLVALUE DUP1 ISZERO PUSH2 0x23D JUMPI PUSH1 0x0 DUP1 REVERT JUMPDEST POP PUSH2 0x258 PUSH1 0x4 DUP1 CALLDATASIZE SUB DUP2 ADD SWAP1 PUSH2 0x253 SWAP2 SWAP1 PUSH2 0x1479 JUMP JUMPDEST PUSH2 0xAA4 JUMP JUMPDEST STOP JUMPDEST CALLVALUE DUP1 ISZERO PUSH2 0x266 JUMPI PUSH1 0x0 DUP1 REVERT JUMPDEST POP PUSH2 0x281 PUSH1 0x4 DUP1 CALLDATASIZE SUB DUP2 ADD SWAP1 PUSH2 0x27C SWAP2 SWAP1 PUSH2 0x13C4 JUMP JUMPDEST PUSH2 0xE85 JUMP JUMPDEST PUSH1 0x40 MLOAD PUSH2 0x290 SWAP4 SWAP3 SWAP2 SWAP1 PUSH2 0x167A JUMP JUMPDEST PUSH1 0x40 MLOAD DUP1 SWAP2 SUB SWAP1 RETURN JUMPDEST CALLVALUE DUP1 ISZERO PUSH2 0x2A5 JUMPI PUSH1 0x0 DUP1 REVERT JUMPDEST POP PUSH2 0x2C0 PUSH1 0x4 DUP1 CALLDATASIZE SUB DUP2 ADD SWAP1 PUSH2 0x2BB SWAP2 SWAP1 PUSH2 0x16B8 JUMP JUMPDEST PUSH2 0xF67 JUMP JUMPDEST PUSH1 0x40 MLOAD PUSH2 0x2CD SWAP2 SWAP1 PUSH2 0x1807 JUMP JUMPDEST PUSH1 0x40 MLOAD DUP1 SWAP2 SUB SWAP1 RETURN JUMPDEST CALLVALUE DUP1 ISZERO PUSH2 0x2E2 JUMPI PUSH1 0x0 DUP1 REVERT JUMPDEST POP PUSH2 0x2FD PUSH1 0x4 DUP1 CALLDATASIZE SUB DUP2 ADD SWAP1 PUSH2 0x2F8 SWAP2 SWAP1 PUSH2 0x1829 JUMP JUMPDEST PUSH2 0x103E JUMP JUMPDEST STOP JUMPDEST PUSH2 0x319 PUSH1 0x4 DUP1 CALLDATASIZE SUB DUP2 ADD SWAP1 PUSH2 0x314 SWAP2 SWAP1 PUSH2 0x187C JUMP JUMPDEST PUSH2 0x119F JUMP JUMPDEST STOP JUMPDEST CALLVALUE DUP1 ISZERO PUSH2 0x327 JUMPI PUSH1 0x0 DUP1 REVERT JUMPDEST POP PUSH2 0x342 PUSH1 0x4 DUP1 CALLDATASIZE SUB DUP2 ADD SWAP1 PUSH2 0x33D SWAP2 SWAP1 PUSH2 0x13C4 JUMP JUMPDEST PUSH2 0x124E JUMP JUMPDEST STOP JUMPDEST CALLVALUE DUP1 ISZERO PUSH2 0x350 JUMPI PUSH1 0x0 DUP1 REVERT JUMPDEST POP PUSH2 0x359 PUSH2 0x12A7 JUMP JUMPDEST PUSH1 0x40 MLOAD PUSH2 0x366 SWAP2 SWAP1 PUSH2 0x18FE JUMP JUMPDEST PUSH1 0x40 MLOAD DUP1 SWAP2 SUB SWAP1 RETURN JUMPDEST PUSH2 0x377 PUSH2 0x1335 JUMP JUMPDEST STOP JUMPDEST PUSH1 0x8 PUSH1 0x1 PUSH1 0x0 CALLER PUSH20 0xFFFFFFFFFFFFFFFFFFFFFFFFFFFFFFFFFFFFFFFF AND PUSH20 0xFFFFFFFFFFFFFFFFFFFFFFFFFFFFFFFFFFFFFFFF AND DUP2 MSTORE PUSH1 0x20 ADD SWAP1 DUP2 MSTORE PUSH1 0x20 ADD PUSH1 0x0 KECCAK256 DUP1 SLOAD SWAP1 POP LT PUSH2 0x3C8 JUMPI PUSH1 0x0 DUP1 REVERT JUMPDEST PUSH1 0x1 PUSH1 0x0 CALLER PUSH20 0xFFFFFFFFFFFFFFFFFFFFFFFFFFFFFFFFFFFFFFFF AND PUSH20 0xFFFFFFFFFFFFFFFFFFFFFFFFFFFFFFFFFFFFFFFF AND DUP2 MSTORE PUSH1 0x20 ADD SWAP1 DUP2 MSTORE PUSH1 0x20 ADD PUSH1 0x0 KECCAK256 PUSH1 0x40 MLOAD DUP1 PUSH1 0x80 ADD PUSH1 0x40 MSTORE DUP1 TIMESTAMP DUP2 MSTORE PUSH1 0x20 ADD DUP4 DUP2 MSTORE PUSH1 0x20 ADD DUP4 PUSH1 0x5 SLOAD PUSH2 0x42C SWAP2 SWAP1 PUSH2 0x194F JUMP JUMPDEST DUP2 MSTORE PUSH1 0x20 ADD PUSH1 0x0 ISZERO ISZERO DUP2 MSTORE POP SWAP1 DUP1 PUSH1 0x1 DUP2 SLOAD ADD DUP1 DUP3 SSTORE DUP1 SWAP2 POP POP PUSH1 0x1 SWAP1 SUB SWAP1 PUSH1 0x0 MSTORE PUSH1 0x20 PUSH1 0x0 KECCAK256 SWAP1 PUSH1 0x4 MUL ADD PUSH1 0x0 SWAP1 SWAP2 SWAP1 SWAP2 SWAP1 SWAP2 POP PUSH1 0x0 DUP3 ADD MLOAD DUP2 PUSH1 0x0 ADD SSTORE PUSH1 0x20 DUP3 ADD MLOAD DUP2 PUSH1 0x1 ADD SSTORE PUSH1 0x40 DUP3 ADD MLOAD DUP2 PUSH1 0x2 ADD SSTORE PUSH1 0x60 DUP3 ADD MLOAD DUP2 PUSH1 0x3 ADD PUSH1 0x0 PUSH2 0x100 EXP DUP2 SLOAD DUP2 PUSH1 0xFF MUL NOT AND SWAP1 DUP4 ISZERO ISZERO MUL OR SWAP1 SSTORE POP POP POP POP JUMP JUMPDEST PUSH1 0x0 SELFBALANCE SWAP1 POP SWAP1 JUMP JUMPDEST PUSH1 0x1 PUSH1 0x20 MSTORE DUP2 PUSH1 0x0 MSTORE PUSH1 0x40 PUSH1 0x0 KECCAK256 DUP2 DUP2 SLOAD DUP2 LT PUSH2 0x4C8 JUMPI PUSH1 0x0 DUP1 REVERT JUMPDEST SWAP1 PUSH1 0x0 MSTORE PUSH1 0x20 PUSH1 0x0 KECCAK256 SWAP1 PUSH1 0x4 MUL ADD PUSH1 0x0 SWAP2 POP SWAP2 POP POP DUP1 PUSH1 0x0 ADD SLOAD SWAP1 DUP1 PUSH1 0x1 ADD SLOAD SWAP1 DUP1 PUSH1 0x2 ADD SLOAD SWAP1 DUP1 PUSH1 0x3 ADD PUSH1 0x0 SWAP1 SLOAD SWAP1 PUSH2 0x100 EXP SWAP1 DIV PUSH1 0xFF AND SWAP1 POP DUP5 JUMP JUMPDEST PUSH1 0x2 PUSH1 0x20 MSTORE DUP2 PUSH1 0x0 MSTORE PUSH1 0x40 PUSH1 0x0 KECCAK256 DUP2 DUP2 SLOAD DUP2 LT PUSH2 0x522 JUMPI PUSH1 0x0 DUP1 REVERT JUMPDEST SWAP1 PUSH1 0x0 MSTORE PUSH1 0x20 PUSH1 0x0 KECCAK256 SWAP1 PUSH1 0x2 MUL ADD PUSH1 0x0 SWAP2 POP SWAP2 POP POP DUP1 PUSH1 0x0 ADD PUSH1 0x0 SWAP1 SLOAD SWAP1 PUSH2 0x100 EXP SWAP1 DIV PUSH20 0xFFFFFFFFFFFFFFFFFFFFFFFFFFFFFFFFFFFFFFFF AND SWAP1 DUP1 PUSH1 0x1 ADD SLOAD SWAP1 POP DUP3 JUMP JUMPDEST PUSH1 0x4 PUSH1 0x0 SWAP1 SLOAD SWAP1 PUSH2 0x100 EXP SWAP1 DIV PUSH20 0xFFFFFFFFFFFFFFFFFFFFFFFFFFFFFFFFFFFFFFFF AND PUSH20 0xFFFFFFFFFFFFFFFFFFFFFFFFFFFFFFFFFFFFFFFF AND CALLER PUSH20 0xFFFFFFFFFFFFFFFFFFFFFFFFFFFFFFFFFFFFFFFF AND EQ PUSH2 0x5F7 JUMPI PUSH1 0x40 MLOAD PUSH32 0x8C379A000000000000000000000000000000000000000000000000000000000 DUP2 MSTORE PUSH1 0x4 ADD PUSH2 0x5EE SWAP1 PUSH2 0x19DD JUMP JUMPDEST PUSH1 0x40 MLOAD DUP1 SWAP2 SUB SWAP1 REVERT JUMPDEST PUSH1 0x1 ISZERO ISZERO DUP3 PUSH20 0xFFFFFFFFFFFFFFFFFFFFFFFFFFFFFFFFFFFFFFFF AND CALLER PUSH20 0xFFFFFFFFFFFFFFFFFFFFFFFFFFFFFFFFFFFFFFFF AND PUSH32 0x62A0718D681B5A77AD80FBAF7E41FF461F77B69D49E3879CBA8E045C85E2AC74 PUSH1 0x1 PUSH1 0x0 DUP8 PUSH20 0xFFFFFFFFFFFFFFFFFFFFFFFFFFFFFFFFFFFFFFFF AND PUSH20 0xFFFFFFFFFFFFFFFFFFFFFFFFFFFFFFFFFFFFFFFF AND DUP2 MSTORE PUSH1 0x20 ADD SWAP1 DUP2 MSTORE PUSH1 0x20 ADD PUSH1 0x0 KECCAK256 DUP6 DUP2 SLOAD DUP2 LT PUSH2 0x69B JUMPI PUSH2 0x69A PUSH2 0x19FD JUMP JUMPDEST JUMPDEST SWAP1 PUSH1 0x0 MSTORE PUSH1 0x20 PUSH1 0x0 KECCAK256 SWAP1 PUSH1 0x4 MUL ADD PUSH1 0x0 ADD SLOAD PUSH1 0x1 PUSH1 0x0 DUP9 PUSH20 0xFFFFFFFFFFFFFFFFFFFFFFFFFFFFFFFFFFFFFFFF AND PUSH20 0xFFFFFFFFFFFFFFFFFFFFFFFFFFFFFFFFFFFFFFFF AND DUP2 MSTORE PUSH1 0x20 ADD SWAP1 DUP2 MSTORE PUSH1 0x20 ADD PUSH1 0x0 KECCAK256 DUP7 DUP2 SLOAD DUP2 LT PUSH2 0x6FE JUMPI PUSH2 0x6FD PUSH2 0x19FD JUMP JUMPDEST JUMPDEST SWAP1 PUSH1 0x0 MSTORE PUSH1 0x20 PUSH1 0x0 KECCAK256 SWAP1 PUSH1 0x4 MUL ADD PUSH1 0x1 ADD SLOAD PUSH1 0x1 PUSH1 0x0 DUP10 PUSH20 0xFFFFFFFFFFFFFFFFFFFFFFFFFFFFFFFFFFFFFFFF AND PUSH20 0xFFFFFFFFFFFFFFFFFFFFFFFFFFFFFFFFFFFFFFFF AND DUP2 MSTORE PUSH1 0x20 ADD SWAP1 DUP2 MSTORE PUSH1 0x20 ADD PUSH1 0x0 KECCAK256 DUP8 DUP2 SLOAD DUP2 LT PUSH2 0x761 JUMPI PUSH2 0x760 PUSH2 0x19FD JUMP JUMPDEST JUMPDEST SWAP1 PUSH1 0x0 MSTORE PUSH1 0x20 PUSH1 0x0 KECCAK256 SWAP1 PUSH1 0x4 MUL ADD PUSH1 0x1 ADD SLOAD PUSH1 0x5 SLOAD PUSH2 0x780 SWAP2 SWAP1 PUSH2 0x194F JUMP JUMPDEST PUSH1 0x40 MLOAD PUSH2 0x78F SWAP4 SWAP3 SWAP2 SWAP1 PUSH2 0x1A2C JUMP JUMPDEST PUSH1 0x40 MLOAD DUP1 SWAP2 SUB SWAP1 LOG4 DUP2 PUSH20 0xFFFFFFFFFFFFFFFFFFFFFFFFFFFFFFFFFFFFFFFF AND PUSH2 0x8FC PUSH1 0x1 PUSH1 0x0 DUP6 PUSH20 0xFFFFFFFFFFFFFFFFFFFFFFFFFFFFFFFFFFFFFFFF AND PUSH20 0xFFFFFFFFFFFFFFFFFFFFFFFFFFFFFFFFFFFFFFFF AND DUP2 MSTORE PUSH1 0x20 ADD SWAP1 DUP2 MSTORE PUSH1 0x20 ADD PUSH1 0x0 KECCAK256 DUP4 DUP2 SLOAD DUP2 LT PUSH2 0x802 JUMPI PUSH2 0x801 PUSH2 0x19FD JUMP JUMPDEST JUMPDEST SWAP1 PUSH1 0x0 MSTORE PUSH1 0x20 PUSH1 0x0 KECCAK256 SWAP1 PUSH1 0x4 MUL ADD PUSH1 0x1 ADD SLOAD PUSH1 0xF PUSH1 0x5 SLOAD PUSH2 0x823 SWAP2 SWAP1 PUSH2 0x194F JUMP JUMPDEST PUSH2 0x82D SWAP2 SWAP1 PUSH2 0x194F JUMP JUMPDEST SWAP1 DUP2 ISZERO MUL SWAP1 PUSH1 0x40 MLOAD PUSH1 0x0 PUSH1 0x40 MLOAD DUP1 DUP4 SUB DUP2 DUP6 DUP9 DUP9 CALL SWAP4 POP POP POP POP ISZERO DUP1 ISZERO PUSH2 0x858 JUMPI RETURNDATASIZE PUSH1 0x0 DUP1 RETURNDATACOPY RETURNDATASIZE PUSH1 0x0 REVERT JUMPDEST POP PUSH1 0x0 DUP2 SWAP1 POP JUMPDEST PUSH1 0x1 DUP1 PUSH1 0x0 DUP6 PUSH20 0xFFFFFFFFFFFFFFFFFFFFFFFFFFFFFFFFFFFFFFFF AND PUSH20 0xFFFFFFFFFFFFFFFFFFFFFFFFFFFFFFFFFFFFFFFF AND DUP2 MSTORE PUSH1 0x20 ADD SWAP1 DUP2 MSTORE PUSH1 0x20 ADD PUSH1 0x0 KECCAK256 DUP1 SLOAD SWAP1 POP PUSH2 0x8AD SWAP2 SWAP1 PUSH2 0x1A63 JUMP JUMPDEST DUP2 LT ISZERO PUSH2 0x9DF JUMPI PUSH1 0x1 PUSH1 0x0 DUP5 PUSH20 0xFFFFFFFFFFFFFFFFFFFFFFFFFFFFFFFFFFFFFFFF AND PUSH20 0xFFFFFFFFFFFFFFFFFFFFFFFFFFFFFFFFFFFFFFFF AND DUP2 MSTORE PUSH1 0x20 ADD SWAP1 DUP2 MSTORE PUSH1 0x20 ADD PUSH1 0x0 KECCAK256 PUSH1 0x1 DUP3 PUSH2 0x900 SWAP2 SWAP1 PUSH2 0x1A97 JUMP JUMPDEST DUP2 SLOAD DUP2 LT PUSH2 0x911 JUMPI PUSH2 0x910 PUSH2 0x19FD JUMP JUMPDEST JUMPDEST SWAP1 PUSH1 0x0 MSTORE PUSH1 0x20 PUSH1 0x0 KECCAK256 SWAP1 PUSH1 0x4 MUL ADD PUSH1 0x1 PUSH1 0x0 DUP6 PUSH20 0xFFFFFFFFFFFFFFFFFFFFFFFFFFFFFFFFFFFFFFFF AND PUSH20 0xFFFFFFFFFFFFFFFFFFFFFFFFFFFFFFFFFFFFFFFF AND DUP2 MSTORE PUSH1 0x20 ADD SWAP1 DUP2 MSTORE PUSH1 0x20 ADD PUSH1 0x0 KECCAK256 DUP3 DUP2 SLOAD DUP2 LT PUSH2 0x970 JUMPI PUSH2 0x96F PUSH2 0x19FD JUMP JUMPDEST JUMPDEST SWAP1 PUSH1 0x0 MSTORE PUSH1 0x20 PUSH1 0x0 KECCAK256 SWAP1 PUSH1 0x4 MUL ADD PUSH1 0x0 DUP3 ADD SLOAD DUP2 PUSH1 0x0 ADD SSTORE PUSH1 0x1 DUP3 ADD SLOAD DUP2 PUSH1 0x1 ADD SSTORE PUSH1 0x2 DUP3 ADD SLOAD DUP2 PUSH1 0x2 ADD SSTORE PUSH1 0x3 DUP3 ADD PUSH1 0x0 SWAP1 SLOAD SWAP1 PUSH2 0x100 EXP SWAP1 DIV PUSH1 0xFF AND DUP2 PUSH1 0x3 ADD PUSH1 0x0 PUSH2 0x100 EXP DUP2 SLOAD DUP2 PUSH1 0xFF MUL NOT AND SWAP1 DUP4 ISZERO ISZERO MUL OR SWAP1 SSTORE POP SWAP1 POP POP DUP1 DUP1 PUSH2 0x9D7 SWAP1 PUSH2 0x1ACB JUMP JUMPDEST SWAP2 POP POP PUSH2 0x85F JUMP JUMPDEST POP PUSH1 0x1 PUSH1 0x0 DUP4 PUSH20 0xFFFFFFFFFFFFFFFFFFFFFFFFFFFFFFFFFFFFFFFF AND PUSH20 0xFFFFFFFFFFFFFFFFFFFFFFFFFFFFFFFFFFFFFFFF AND DUP2 MSTORE PUSH1 0x20 ADD SWAP1 DUP2 MSTORE PUSH1 0x20 ADD PUSH1 0x0 KECCAK256 DUP1 SLOAD DUP1 PUSH2 0xA2F JUMPI PUSH2 0xA2E PUSH2 0x1B13 JUMP JUMPDEST JUMPDEST PUSH1 0x1 SWAP1 SUB DUP2 DUP2 SWAP1 PUSH1 0x0 MSTORE PUSH1 0x20 PUSH1 0x0 KECCAK256 SWAP1 PUSH1 0x4 MUL ADD PUSH1 0x0 DUP1 DUP3 ADD PUSH1 0x0 SWAP1 SSTORE PUSH1 0x1 DUP3 ADD PUSH1 0x0 SWAP1 SSTORE PUSH1 0x2 DUP3 ADD PUSH1 0x0 SWAP1 SSTORE PUSH1 0x3 DUP3 ADD PUSH1 0x0 PUSH2 0x100 EXP DUP2 SLOAD SWAP1 PUSH1 0xFF MUL NOT AND SWAP1 SSTORE POP POP SWAP1 SSTORE POP POP JUMP JUMPDEST PUSH1 0x4 PUSH1 0x0 SWAP1 SLOAD SWAP1 PUSH2 0x100 EXP SWAP1 DIV PUSH20 0xFFFFFFFFFFFFFFFFFFFFFFFFFFFFFFFFFFFFFFFF AND DUP2 JUMP JUMPDEST PUSH1 0x5 SLOAD DUP2 JUMP JUMPDEST PUSH1 0x4 PUSH1 0x0 SWAP1 SLOAD SWAP1 PUSH2 0x100 EXP SWAP1 DIV PUSH20 0xFFFFFFFFFFFFFFFFFFFFFFFFFFFFFFFFFFFFFFFF AND PUSH20 0xFFFFFFFFFFFFFFFFFFFFFFFFFFFFFFFFFFFFFFFF AND CALLER PUSH20 0xFFFFFFFFFFFFFFFFFFFFFFFFFFFFFFFFFFFFFFFF AND EQ PUSH2 0xB34 JUMPI PUSH1 0x40 MLOAD PUSH32 0x8C379A000000000000000000000000000000000000000000000000000000000 DUP2 MSTORE PUSH1 0x4 ADD PUSH2 0xB2B SWAP1 PUSH2 0x19DD JUMP JUMPDEST PUSH1 0x40 MLOAD DUP1 SWAP2 SUB SWAP1 REVERT JUMPDEST PUSH1 0x0 ISZERO ISZERO DUP3 PUSH20 0xFFFFFFFFFFFFFFFFFFFFFFFFFFFFFFFFFFFFFFFF AND CALLER PUSH20 0xFFFFFFFFFFFFFFFFFFFFFFFFFFFFFFFFFFFFFFFF AND PUSH32 0x62A0718D681B5A77AD80FBAF7E41FF461F77B69D49E3879CBA8E045C85E2AC74 PUSH1 0x1 PUSH1 0x0 DUP8 PUSH20 0xFFFFFFFFFFFFFFFFFFFFFFFFFFFFFFFFFFFFFFFF AND PUSH20 0xFFFFFFFFFFFFFFFFFFFFFFFFFFFFFFFFFFFFFFFF AND DUP2 MSTORE PUSH1 0x20 ADD SWAP1 DUP2 MSTORE PUSH1 0x20 ADD PUSH1 0x0 KECCAK256 DUP6 DUP2 SLOAD DUP2 LT PUSH2 0xBD8 JUMPI PUSH2 0xBD7 PUSH2 0x19FD JUMP JUMPDEST JUMPDEST SWAP1 PUSH1 0x0 MSTORE PUSH1 0x20 PUSH1 0x0 KECCAK256 SWAP1 PUSH1 0x4 MUL ADD PUSH1 0x0 ADD SLOAD PUSH1 0x1 PUSH1 0x0 DUP9 PUSH20 0xFFFFFFFFFFFFFFFFFFFFFFFFFFFFFFFFFFFFFFFF AND PUSH20 0xFFFFFFFFFFFFFFFFFFFFFFFFFFFFFFFFFFFFFFFF AND DUP2 MSTORE PUSH1 0x20 ADD SWAP1 DUP2 MSTORE PUSH1 0x20 ADD PUSH1 0x0 KECCAK256 DUP7 DUP2 SLOAD DUP2 LT PUSH2 0xC3B JUMPI PUSH2 0xC3A PUSH2 0x19FD JUMP JUMPDEST JUMPDEST SWAP1 PUSH1 0x0 MSTORE PUSH1 0x20 PUSH1 0x0 KECCAK256 SWAP1 PUSH1 0x4 MUL ADD PUSH1 0x1 ADD SLOAD PUSH1 0x0 PUSH1 0x40 MLOAD PUSH2 0xC5E SWAP4 SWAP3 SWAP2 SWAP1 PUSH2 0x1B87 JUMP JUMPDEST PUSH1 0x40 MLOAD DUP1 SWAP2 SUB SWAP1 LOG4 PUSH1 0x0 DUP2 SWAP1 POP JUMPDEST PUSH1 0x1 DUP1 PUSH1 0x0 DUP6 PUSH20 0xFFFFFFFFFFFFFFFFFFFFFFFFFFFFFFFFFFFFFFFF AND PUSH20 0xFFFFFFFFFFFFFFFFFFFFFFFFFFFFFFFFFFFFFFFF AND DUP2 MSTORE PUSH1 0x20 ADD SWAP1 DUP2 MSTORE PUSH1 0x20 ADD PUSH1 0x0 KECCAK256 DUP1 SLOAD SWAP1 POP PUSH2 0xCBA SWAP2 SWAP1 PUSH2 0x1A63 JUMP JUMPDEST DUP2 LT ISZERO PUSH2 0xDEC JUMPI PUSH1 0x1 PUSH1 0x0 DUP5 PUSH20 0xFFFFFFFFFFFFFFFFFFFFFFFFFFFFFFFFFFFFFFFF AND PUSH20 0xFFFFFFFFFFFFFFFFFFFFFFFFFFFFFFFFFFFFFFFF AND DUP2 MSTORE PUSH1 0x20 ADD SWAP1 DUP2 MSTORE PUSH1 0x20 ADD PUSH1 0x0 KECCAK256 PUSH1 0x1 DUP3 PUSH2 0xD0D SWAP2 SWAP1 PUSH2 0x1A97 JUMP JUMPDEST DUP2 SLOAD DUP2 LT PUSH2 0xD1E JUMPI PUSH2 0xD1D PUSH2 0x19FD JUMP JUMPDEST JUMPDEST SWAP1 PUSH1 0x0 MSTORE PUSH1 0x20 PUSH1 0x0 KECCAK256 SWAP1 PUSH1 0x4 MUL ADD PUSH1 0x1 PUSH1 0x0 DUP6 PUSH20 0xFFFFFFFFFFFFFFFFFFFFFFFFFFFFFFFFFFFFFFFF AND PUSH20 0xFFFFFFFFFFFFFFFFFFFFFFFFFFFFFFFFFFFFFFFF AND DUP2 MSTORE PUSH1 0x20 ADD SWAP1 DUP2 MSTORE PUSH1 0x20 ADD PUSH1 0x0 KECCAK256 DUP3 DUP2 SLOAD DUP2 LT PUSH2 0xD7D JUMPI PUSH2 0xD7C PUSH2 0x19FD JUMP JUMPDEST JUMPDEST SWAP1 PUSH1 0x0 MSTORE PUSH1 0x20 PUSH1 0x0 KECCAK256 SWAP1 PUSH1 0x4 MUL ADD PUSH1 0x0 DUP3 ADD SLOAD DUP2 PUSH1 0x0 ADD SSTORE PUSH1 0x1 DUP3 ADD SLOAD DUP2 PUSH1 0x1 ADD SSTORE PUSH1 0x2 DUP3 ADD SLOAD DUP2 PUSH1 0x2 ADD SSTORE PUSH1 0x3 DUP3 ADD PUSH1 0x0 SWAP1 SLOAD SWAP1 PUSH2 0x100 EXP SWAP1 DIV PUSH1 0xFF AND DUP2 PUSH1 0x3 ADD PUSH1 0x0 PUSH2 0x100 EXP DUP2 SLOAD DUP2 PUSH1 0xFF MUL NOT AND SWAP1 DUP4 ISZERO ISZERO MUL OR SWAP1 SSTORE POP SWAP1 POP POP DUP1 DUP1 PUSH2 0xDE4 SWAP1 PUSH2 0x1ACB JUMP JUMPDEST SWAP2 POP POP PUSH2 0xC6C JUMP JUMPDEST POP PUSH1 0x1 PUSH1 0x0 DUP4 PUSH20 0xFFFFFFFFFFFFFFFFFFFFFFFFFFFFFFFFFFFFFFFF AND PUSH20 0xFFFFFFFFFFFFFFFFFFFFFFFFFFFFFFFFFFFFFFFF AND DUP2 MSTORE PUSH1 0x20 ADD SWAP1 DUP2 MSTORE PUSH1 0x20 ADD PUSH1 0x0 KECCAK256 DUP1 SLOAD DUP1 PUSH2 0xE3C JUMPI PUSH2 0xE3B PUSH2 0x1B13 JUMP JUMPDEST JUMPDEST PUSH1 0x1 SWAP1 SUB DUP2 DUP2 SWAP1 PUSH1 0x0 MSTORE PUSH1 0x20 PUSH1 0x0 KECCAK256 SWAP1 PUSH1 0x4 MUL ADD PUSH1 0x0 DUP1 DUP3 ADD PUSH1 0x0 SWAP1 SSTORE PUSH1 0x1 DUP3 ADD PUSH1 0x0 SWAP1 SSTORE PUSH1 0x2 DUP3 ADD PUSH1 0x0 SWAP1 SSTORE PUSH1 0x3 DUP3 ADD PUSH1 0x0 PUSH2 0x100 EXP DUP2 SLOAD SWAP1 PUSH1 0xFF MUL NOT AND SWAP1 SSTORE POP POP SWAP1 SSTORE POP POP JUMP JUMPDEST PUSH1 0x0 DUP2 DUP2 SLOAD DUP2 LT PUSH2 0xE95 JUMPI PUSH1 0x0 DUP1 REVERT JUMPDEST SWAP1 PUSH1 0x0 MSTORE PUSH1 0x20 PUSH1 0x0 KECCAK256 SWAP1 PUSH1 0x3 MUL ADD PUSH1 0x0 SWAP2 POP SWAP1 POP DUP1 PUSH1 0x0 ADD PUSH1 0x0 SWAP1 SLOAD SWAP1 PUSH2 0x100 EXP SWAP1 DIV PUSH20 0xFFFFFFFFFFFFFFFFFFFFFFFFFFFFFFFFFFFFFFFF AND SWAP1 DUP1 PUSH1 0x1 ADD SLOAD SWAP1 DUP1 PUSH1 0x2 ADD DUP1 SLOAD PUSH2 0xEE4 SWAP1 PUSH2 0x1BED JUMP JUMPDEST DUP1 PUSH1 0x1F ADD PUSH1 0x20 DUP1 SWAP2 DIV MUL PUSH1 0x20 ADD PUSH1 0x40 MLOAD SWAP1 DUP2 ADD PUSH1 0x40 MSTORE DUP1 SWAP3 SWAP2 SWAP1 DUP2 DUP2 MSTORE PUSH1 0x20 ADD DUP3 DUP1 SLOAD PUSH2 0xF10 SWAP1 PUSH2 0x1BED JUMP JUMPDEST DUP1 ISZERO PUSH2 0xF5D JUMPI DUP1 PUSH1 0x1F LT PUSH2 0xF32 JUMPI PUSH2 0x100 DUP1 DUP4 SLOAD DIV MUL DUP4 MSTORE SWAP2 PUSH1 0x20 ADD SWAP2 PUSH2 0xF5D JUMP JUMPDEST DUP3 ADD SWAP2 SWAP1 PUSH1 0x0 MSTORE PUSH1 0x20 PUSH1 0x0 KECCAK256 SWAP1 JUMPDEST DUP2 SLOAD DUP2 MSTORE SWAP1 PUSH1 0x1 ADD SWAP1 PUSH1 0x20 ADD DUP1 DUP4 GT PUSH2 0xF40 JUMPI DUP3 SWAP1 SUB PUSH1 0x1F AND DUP3 ADD SWAP2 JUMPDEST POP POP POP POP POP SWAP1 POP DUP4 JUMP JUMPDEST PUSH1 0x60 PUSH1 0x1 PUSH1 0x0 DUP4 PUSH20 0xFFFFFFFFFFFFFFFFFFFFFFFFFFFFFFFFFFFFFFFF AND PUSH20 0xFFFFFFFFFFFFFFFFFFFFFFFFFFFFFFFFFFFFFFFF AND DUP2 MSTORE PUSH1 0x20 ADD SWAP1 DUP2 MSTORE PUSH1 0x20 ADD PUSH1 0x0 KECCAK256 DUP1 SLOAD DUP1 PUSH1 0x20 MUL PUSH1 0x20 ADD PUSH1 0x40 MLOAD SWAP1 DUP2 ADD PUSH1 0x40 MSTORE DUP1 SWAP3 SWAP2 SWAP1 DUP2 DUP2 MSTORE PUSH1 0x20 ADD PUSH1 0x0 SWAP1 JUMPDEST DUP3 DUP3 LT ISZERO PUSH2 0x1033 JUMPI DUP4 DUP3 SWAP1 PUSH1 0x0 MSTORE PUSH1 0x20 PUSH1 0x0 KECCAK256 SWAP1 PUSH1 0x4 MUL ADD PUSH1 0x40 MLOAD DUP1 PUSH1 0x80 ADD PUSH1 0x40 MSTORE SWAP1 DUP2 PUSH1 0x0 DUP3 ADD SLOAD DUP2 MSTORE PUSH1 0x20 ADD PUSH1 0x1 DUP3 ADD SLOAD DUP2 MSTORE PUSH1 0x20 ADD PUSH1 0x2 DUP3 ADD SLOAD DUP2 MSTORE PUSH1 0x20 ADD PUSH1 0x3 DUP3 ADD PUSH1 0x0 SWAP1 SLOAD SWAP1 PUSH2 0x100 EXP SWAP1 DIV PUSH1 0xFF AND ISZERO ISZERO ISZERO ISZERO DUP2 MSTORE POP POP DUP2 MSTORE PUSH1 0x20 ADD SWAP1 PUSH1 0x1 ADD SWAP1 PUSH2 0xFC8 JUMP JUMPDEST POP POP POP POP SWAP1 POP SWAP2 SWAP1 POP JUMP JUMPDEST PUSH1 0x0 DUP2 LT ISZERO DUP1 ISZERO PUSH2 0x1050 JUMPI POP PUSH1 0x5 DUP2 GT ISZERO JUMPDEST PUSH2 0x1059 JUMPI PUSH1 0x0 DUP1 REVERT JUMPDEST DUP1 DUP3 PUSH20 0xFFFFFFFFFFFFFFFFFFFFFFFFFFFFFFFFFFFFFFFF AND DUP5 PUSH20 0xFFFFFFFFFFFFFFFFFFFFFFFFFFFFFFFFFFFFFFFF AND PUSH32 0x5435029AE8E53F5303B6DBDA07BE9BEB09AE106923C28BF30DC3C46852588F04 PUSH1 0x40 MLOAD PUSH1 0x40 MLOAD DUP1 SWAP2 SUB SWAP1 LOG4 PUSH1 0x2 PUSH1 0x0 DUP4 PUSH20 0xFFFFFFFFFFFFFFFFFFFFFFFFFFFFFFFFFFFFFFFF AND PUSH20 0xFFFFFFFFFFFFFFFFFFFFFFFFFFFFFFFFFFFFFFFF AND DUP2 MSTORE PUSH1 0x20 ADD SWAP1 DUP2 MSTORE PUSH1 0x20 ADD PUSH1 0x0 KECCAK256 PUSH1 0x40 MLOAD DUP1 PUSH1 0x40 ADD PUSH1 0x40 MSTORE DUP1 DUP6 PUSH20 0xFFFFFFFFFFFFFFFFFFFFFFFFFFFFFFFFFFFFFFFF AND DUP2 MSTORE PUSH1 0x20 ADD DUP4 DUP2 MSTORE POP SWAP1 DUP1 PUSH1 0x1 DUP2 SLOAD ADD DUP1 DUP3 SSTORE DUP1 SWAP2 POP POP PUSH1 0x1 SWAP1 SUB SWAP1 PUSH1 0x0 MSTORE PUSH1 0x20 PUSH1 0x0 KECCAK256 SWAP1 PUSH1 0x2 MUL ADD PUSH1 0x0 SWAP1 SWAP2 SWAP1 SWAP2 SWAP1 SWAP2 POP PUSH1 0x0 DUP3 ADD MLOAD DUP2 PUSH1 0x0 ADD PUSH1 0x0 PUSH2 0x100 EXP DUP2 SLOAD DUP2 PUSH20 0xFFFFFFFFFFFFFFFFFFFFFFFFFFFFFFFFFFFFFFFF MUL NOT AND SWAP1 DUP4 PUSH20 0xFFFFFFFFFFFFFFFFFFFFFFFFFFFFFFFFFFFFFFFF AND MUL OR SWAP1 SSTORE POP PUSH1 0x20 DUP3 ADD MLOAD DUP2 PUSH1 0x1 ADD SSTORE POP POP POP POP POP JUMP JUMPDEST DUP1 PUSH20 0xFFFFFFFFFFFFFFFFFFFFFFFFFFFFFFFFFFFFFFFF AND PUSH2 0x8FC CALLVALUE SWAP1 DUP2 ISZERO MUL SWAP1 PUSH1 0x40 MLOAD PUSH1 0x0 PUSH1 0x40 MLOAD DUP1 DUP4 SUB DUP2 DUP6 DUP9 DUP9 CALL SWAP4 POP POP POP POP ISZERO DUP1 ISZERO PUSH2 0x11E5 JUMPI RETURNDATASIZE PUSH1 0x0 DUP1 RETURNDATACOPY RETURNDATASIZE PUSH1 0x0 REVERT JUMPDEST POP DUP1 PUSH20 0xFFFFFFFFFFFFFFFFFFFFFFFFFFFFFFFFFFFFFFFF AND CALLER PUSH20 0xFFFFFFFFFFFFFFFFFFFFFFFFFFFFFFFFFFFFFFFF AND PUSH32 0xAD011377252E79C9D574CED1048C7D7020D2ABD44385576062139ED308DFE972 CALLVALUE PUSH1 0x40 MLOAD PUSH2 0x1243 SWAP2 SWAP1 PUSH2 0x1400 JUMP JUMPDEST PUSH1 0x40 MLOAD DUP1 SWAP2 SUB SWAP1 LOG3 POP JUMP JUMPDEST TIMESTAMP CALLER PUSH20 0xFFFFFFFFFFFFFFFFFFFFFFFFFFFFFFFFFFFFFFFF AND PUSH32 0x556A8D88A81363D3D82E0A4349B1C101AA81B26DD3F3C9E97A447B9F6CAFBF53 DUP4 PUSH1 0x40 MLOAD PUSH2 0x1295 SWAP2 SWAP1 PUSH2 0x1400 JUMP JUMPDEST PUSH1 0x40 MLOAD DUP1 SWAP2 SUB SWAP1 LOG3 DUP1 PUSH1 0x5 DUP2 SWAP1 SSTORE POP POP JUMP JUMPDEST PUSH1 0x3 DUP1 SLOAD PUSH2 0x12B4 SWAP1 PUSH2 0x1BED JUMP JUMPDEST DUP1 PUSH1 0x1F ADD PUSH1 0x20 DUP1 SWAP2 DIV MUL PUSH1 0x20 ADD PUSH1 0x40 MLOAD SWAP1 DUP2 ADD PUSH1 0x40 MSTORE DUP1 SWAP3 SWAP2 SWAP1 DUP2 DUP2 MSTORE PUSH1 0x20 ADD DUP3 DUP1 SLOAD PUSH2 0x12E0 SWAP1 PUSH2 0x1BED JUMP JUMPDEST DUP1 ISZERO PUSH2 0x132D JUMPI DUP1 PUSH1 0x1F LT PUSH2 0x1302 JUMPI PUSH2 0x100 DUP1 DUP4 SLOAD DIV MUL DUP4 MSTORE SWAP2 PUSH1 0x20 ADD SWAP2 PUSH2 0x132D JUMP JUMPDEST DUP3 ADD SWAP2 SWAP1 PUSH1 0x0 MSTORE PUSH1 0x20 PUSH1 0x0 KECCAK256 SWAP1 JUMPDEST DUP2 SLOAD DUP2 MSTORE SWAP1 PUSH1 0x1 ADD SWAP1 PUSH1 0x20 ADD DUP1 DUP4 GT PUSH2 0x1310 JUMPI DUP3 SWAP1 SUB PUSH1 0x1F AND DUP3 ADD SWAP2 JUMPDEST POP POP POP POP POP DUP2 JUMP JUMPDEST CALLER PUSH20 0xFFFFFFFFFFFFFFFFFFFFFFFFFFFFFFFFFFFFFFFF AND PUSH32 0x36AF321EC8D3C75236829C5317AFFD40DDB308863A1236D2D277A4025CCCEE1E CALLVALUE SELFBALANCE TIMESTAMP PUSH1 0x40 MLOAD PUSH2 0x137F SWAP4 SWAP3 SWAP2 SWAP1 PUSH2 0x1A2C JUMP JUMPDEST PUSH1 0x40 MLOAD DUP1 SWAP2 SUB SWAP1 LOG2 JUMP JUMPDEST PUSH1 0x0 DUP1 REVERT JUMPDEST PUSH1 0x0 DUP2 SWAP1 POP SWAP2 SWAP1 POP JUMP JUMPDEST PUSH2 0x13A1 DUP2 PUSH2 0x138E JUMP JUMPDEST DUP2 EQ PUSH2 0x13AC JUMPI PUSH1 0x0 DUP1 REVERT JUMPDEST POP JUMP JUMPDEST PUSH1 0x0 DUP2 CALLDATALOAD SWAP1 POP PUSH2 0x13BE DUP2 PUSH2 0x1398 JUMP JUMPDEST SWAP3 SWAP2 POP POP JUMP JUMPDEST PUSH1 0x0 PUSH1 0x20 DUP3 DUP5 SUB SLT ISZERO PUSH2 0x13DA JUMPI PUSH2 0x13D9 PUSH2 0x1389 JUMP JUMPDEST JUMPDEST PUSH1 0x0 PUSH2 0x13E8 DUP5 DUP3 DUP6 ADD PUSH2 0x13AF JUMP JUMPDEST SWAP2 POP POP SWAP3 SWAP2 POP POP JUMP JUMPDEST PUSH2 0x13FA DUP2 PUSH2 0x138E JUMP JUMPDEST DUP3 MSTORE POP POP JUMP JUMPDEST PUSH1 0x0 PUSH1 0x20 DUP3 ADD SWAP1 POP PUSH2 0x1415 PUSH1 0x0 DUP4 ADD DUP5 PUSH2 0x13F1 JUMP JUMPDEST SWAP3 SWAP2 POP POP JUMP JUMPDEST PUSH1 0x0 PUSH20 0xFFFFFFFFFFFFFFFFFFFFFFFFFFFFFFFFFFFFFFFF DUP3 AND SWAP1 POP SWAP2 SWAP1 POP JUMP JUMPDEST PUSH1 0x0 PUSH2 0x1446 DUP3 PUSH2 0x141B JUMP JUMPDEST SWAP1 POP SWAP2 SWAP1 POP JUMP JUMPDEST PUSH2 0x1456 DUP2 PUSH2 0x143B JUMP JUMPDEST DUP2 EQ PUSH2 0x1461 JUMPI PUSH1 0x0 DUP1 REVERT JUMPDEST POP JUMP JUMPDEST PUSH1 0x0 DUP2 CALLDATALOAD SWAP1 POP PUSH2 0x1473 DUP2 PUSH2 0x144D JUMP JUMPDEST SWAP3 SWAP2 POP POP JUMP JUMPDEST PUSH1 0x0 DUP1 PUSH1 0x40 DUP4 DUP6 SUB SLT ISZERO PUSH2 0x1490 JUMPI PUSH2 0x148F PUSH2 0x1389 JUMP JUMPDEST JUMPDEST PUSH1 0x0 PUSH2 0x149E DUP6 DUP3 DUP7 ADD PUSH2 0x1464 JUMP JUMPDEST SWAP3 POP POP PUSH1 0x20 PUSH2 0x14AF DUP6 DUP3 DUP7 ADD PUSH2 0x13AF JUMP JUMPDEST SWAP2 POP POP SWAP3 POP SWAP3 SWAP1 POP JUMP JUMPDEST PUSH1 0x0 DUP2 ISZERO ISZERO SWAP1 POP SWAP2 SWAP1 POP JUMP JUMPDEST PUSH2 0x14CE DUP2 PUSH2 0x14B9 JUMP JUMPDEST DUP3 MSTORE POP POP JUMP JUMPDEST PUSH1 0x0 PUSH1 0x80 DUP3 ADD SWAP1 POP PUSH2 0x14E9 PUSH1 0x0 DUP4 ADD DUP8 PUSH2 0x13F1 JUMP JUMPDEST PUSH2 0x14F6 PUSH1 0x20 DUP4 ADD DUP7 PUSH2 0x13F1 JUMP JUMPDEST PUSH2 0x1503 PUSH1 0x40 DUP4 ADD DUP6 PUSH2 0x13F1 JUMP JUMPDEST PUSH2 0x1510 PUSH1 0x60 DUP4 ADD DUP5 PUSH2 0x14C5 JUMP JUMPDEST SWAP6 SWAP5 POP POP POP POP POP JUMP JUMPDEST PUSH2 0x1522 DUP2 PUSH2 0x143B JUMP JUMPDEST DUP3 MSTORE POP POP JUMP JUMPDEST PUSH1 0x0 PUSH1 0x40 DUP3 ADD SWAP1 POP PUSH2 0x153D PUSH1 0x0 DUP4 ADD DUP6 PUSH2 0x1519 JUMP JUMPDEST PUSH2 0x154A PUSH1 0x20 DUP4 ADD DUP5 PUSH2 0x13F1 JUMP JUMPDEST SWAP4 SWAP3 POP POP POP JUMP JUMPDEST PUSH1 0x0 PUSH2 0x155C DUP3 PUSH2 0x141B JUMP JUMPDEST SWAP1 POP SWAP2 SWAP1 POP JUMP JUMPDEST PUSH2 0x156C DUP2 PUSH2 0x1551 JUMP JUMPDEST DUP2 EQ PUSH2 0x1577 JUMPI PUSH1 0x0 DUP1 REVERT JUMPDEST POP JUMP JUMPDEST PUSH1 0x0 DUP2 CALLDATALOAD SWAP1 POP PUSH2 0x1589 DUP2 PUSH2 0x1563 JUMP JUMPDEST SWAP3 SWAP2 POP POP JUMP JUMPDEST PUSH1 0x0 DUP1 PUSH1 0x40 DUP4 DUP6 SUB SLT ISZERO PUSH2 0x15A6 JUMPI PUSH2 0x15A5 PUSH2 0x1389 JUMP JUMPDEST JUMPDEST PUSH1 0x0 PUSH2 0x15B4 DUP6 DUP3 DUP7 ADD PUSH2 0x157A JUMP JUMPDEST SWAP3 POP POP PUSH1 0x20 PUSH2 0x15C5 DUP6 DUP3 DUP7 ADD PUSH2 0x13AF JUMP JUMPDEST SWAP2 POP POP SWAP3 POP SWAP3 SWAP1 POP JUMP JUMPDEST PUSH1 0x0 PUSH1 0x20 DUP3 ADD SWAP1 POP PUSH2 0x15E4 PUSH1 0x0 DUP4 ADD DUP5 PUSH2 0x1519 JUMP JUMPDEST SWAP3 SWAP2 POP POP JUMP JUMPDEST PUSH1 0x0 DUP2 MLOAD SWAP1 POP SWAP2 SWAP1 POP JUMP JUMPDEST PUSH1 0x0 DUP3 DUP3 MSTORE PUSH1 0x20 DUP3 ADD SWAP1 POP SWAP3 SWAP2 POP POP JUMP JUMPDEST PUSH1 0x0 JUMPDEST DUP4 DUP2 LT ISZERO PUSH2 0x1624 JUMPI DUP1 DUP3 ADD MLOAD DUP2 DUP5 ADD MSTORE PUSH1 0x20 DUP2 ADD SWAP1 POP PUSH2 0x1609 JUMP JUMPDEST PUSH1 0x0 DUP5 DUP5 ADD MSTORE POP POP POP POP JUMP JUMPDEST PUSH1 0x0 PUSH1 0x1F NOT PUSH1 0x1F DUP4 ADD AND SWAP1 POP SWAP2 SWAP1 POP JUMP JUMPDEST PUSH1 0x0 PUSH2 0x164C DUP3 PUSH2 0x15EA JUMP JUMPDEST PUSH2 0x1656 DUP2 DUP6 PUSH2 0x15F5 JUMP JUMPDEST SWAP4 POP PUSH2 0x1666 DUP2 DUP6 PUSH1 0x20 DUP7 ADD PUSH2 0x1606 JUMP JUMPDEST PUSH2 0x166F DUP2 PUSH2 0x1630 JUMP JUMPDEST DUP5 ADD SWAP2 POP POP SWAP3 SWAP2 POP POP JUMP JUMPDEST PUSH1 0x0 PUSH1 0x60 DUP3 ADD SWAP1 POP PUSH2 0x168F PUSH1 0x0 DUP4 ADD DUP7 PUSH2 0x1519 JUMP JUMPDEST PUSH2 0x169C PUSH1 0x20 DUP4 ADD DUP6 PUSH2 0x13F1 JUMP JUMPDEST DUP2 DUP2 SUB PUSH1 0x40 DUP4 ADD MSTORE PUSH2 0x16AE DUP2 DUP5 PUSH2 0x1641 JUMP JUMPDEST SWAP1 POP SWAP5 SWAP4 POP POP POP POP JUMP JUMPDEST PUSH1 0x0 PUSH1 0x20 DUP3 DUP5 SUB SLT ISZERO PUSH2 0x16CE JUMPI PUSH2 0x16CD PUSH2 0x1389 JUMP JUMPDEST JUMPDEST PUSH1 0x0 PUSH2 0x16DC DUP5 DUP3 DUP6 ADD PUSH2 0x1464 JUMP JUMPDEST SWAP2 POP POP SWAP3 SWAP2 POP POP JUMP JUMPDEST PUSH1 0x0 DUP2 MLOAD SWAP1 POP SWAP2 SWAP1 POP JUMP JUMPDEST PUSH1 0x0 DUP3 DUP3 MSTORE PUSH1 0x20 DUP3 ADD SWAP1 POP SWAP3 SWAP2 POP POP JUMP JUMPDEST PUSH1 0x0 DUP2 SWAP1 POP PUSH1 0x20 DUP3 ADD SWAP1 POP SWAP2 SWAP1 POP JUMP JUMPDEST PUSH2 0x171A DUP2 PUSH2 0x138E JUMP JUMPDEST DUP3 MSTORE POP POP JUMP JUMPDEST PUSH2 0x1729 DUP2 PUSH2 0x14B9 JUMP JUMPDEST DUP3 MSTORE POP POP JUMP JUMPDEST PUSH1 0x80 DUP3 ADD PUSH1 0x0 DUP3 ADD MLOAD PUSH2 0x1745 PUSH1 0x0 DUP6 ADD DUP3 PUSH2 0x1711 JUMP JUMPDEST POP PUSH1 0x20 DUP3 ADD MLOAD PUSH2 0x1758 PUSH1 0x20 DUP6 ADD DUP3 PUSH2 0x1711 JUMP JUMPDEST POP PUSH1 0x40 DUP3 ADD MLOAD PUSH2 0x176B PUSH1 0x40 DUP6 ADD DUP3 PUSH2 0x1711 JUMP JUMPDEST POP PUSH1 0x60 DUP3 ADD MLOAD PUSH2 0x177E PUSH1 0x60 DUP6 ADD DUP3 PUSH2 0x1720 JUMP JUMPDEST POP POP POP POP JUMP JUMPDEST PUSH1 0x0 PUSH2 0x1790 DUP4 DUP4 PUSH2 0x172F JUMP JUMPDEST PUSH1 0x80 DUP4 ADD SWAP1 POP SWAP3 SWAP2 POP POP JUMP JUMPDEST PUSH1 0x0 PUSH1 0x20 DUP3 ADD SWAP1 POP SWAP2 SWAP1 POP JUMP JUMPDEST PUSH1 0x0 PUSH2 0x17B4 DUP3 PUSH2 0x16E5 JUMP JUMPDEST PUSH2 0x17BE DUP2 DUP6 PUSH2 0x16F0 JUMP JUMPDEST SWAP4 POP PUSH2 0x17C9 DUP4 PUSH2 0x1701 JUMP JUMPDEST DUP1 PUSH1 0x0 JUMPDEST DUP4 DUP2 LT ISZERO PUSH2 0x17FA JUMPI DUP2 MLOAD PUSH2 0x17E1 DUP9 DUP3 PUSH2 0x1784 JUMP JUMPDEST SWAP8 POP PUSH2 0x17EC DUP4 PUSH2 0x179C JUMP JUMPDEST SWAP3 POP POP PUSH1 0x1 DUP2 ADD SWAP1 POP PUSH2 0x17CD JUMP JUMPDEST POP DUP6 SWAP4 POP POP POP POP SWAP3 SWAP2 POP POP JUMP JUMPDEST PUSH1 0x0 PUSH1 0x20 DUP3 ADD SWAP1 POP DUP2 DUP2 SUB PUSH1 0x0 DUP4 ADD MSTORE PUSH2 0x1821 DUP2 DUP5 PUSH2 0x17A9 JUMP JUMPDEST SWAP1 POP SWAP3 SWAP2 POP POP JUMP JUMPDEST PUSH1 0x0 DUP1 PUSH1 0x0 PUSH1 0x60 DUP5 DUP7 SUB SLT ISZERO PUSH2 0x1842 JUMPI PUSH2 0x1841 PUSH2 0x1389 JUMP JUMPDEST JUMPDEST PUSH1 0x0 PUSH2 0x1850 DUP7 DUP3 DUP8 ADD PUSH2 0x1464 JUMP JUMPDEST SWAP4 POP POP PUSH1 0x20 PUSH2 0x1861 DUP7 DUP3 DUP8 ADD PUSH2 0x1464 JUMP JUMPDEST SWAP3 POP POP PUSH1 0x40 PUSH2 0x1872 DUP7 DUP3 DUP8 ADD PUSH2 0x13AF JUMP JUMPDEST SWAP2 POP POP SWAP3 POP SWAP3 POP SWAP3 JUMP JUMPDEST PUSH1 0x0 PUSH1 0x20 DUP3 DUP5 SUB SLT ISZERO PUSH2 0x1892 JUMPI PUSH2 0x1891 PUSH2 0x1389 JUMP JUMPDEST JUMPDEST PUSH1 0x0 PUSH2 0x18A0 DUP5 DUP3 DUP6 ADD PUSH2 0x157A JUMP JUMPDEST SWAP2 POP POP SWAP3 SWAP2 POP POP JUMP JUMPDEST PUSH1 0x0 DUP2 MLOAD SWAP1 POP SWAP2 SWAP1 POP JUMP JUMPDEST PUSH1 0x0 DUP3 DUP3 MSTORE PUSH1 0x20 DUP3 ADD SWAP1 POP SWAP3 SWAP2 POP POP JUMP JUMPDEST PUSH1 0x0 PUSH2 0x18D0 DUP3 PUSH2 0x18A9 JUMP JUMPDEST PUSH2 0x18DA DUP2 DUP6 PUSH2 0x18B4 JUMP JUMPDEST SWAP4 POP PUSH2 0x18EA DUP2 DUP6 PUSH1 0x20 DUP7 ADD PUSH2 0x1606 JUMP JUMPDEST PUSH2 0x18F3 DUP2 PUSH2 0x1630 JUMP JUMPDEST DUP5 ADD SWAP2 POP POP SWAP3 SWAP2 POP POP JUMP JUMPDEST PUSH1 0x0 PUSH1 0x20 DUP3 ADD SWAP1 POP DUP2 DUP2 SUB PUSH1 0x0 DUP4 ADD MSTORE PUSH2 0x1918 DUP2 DUP5 PUSH2 0x18C5 JUMP JUMPDEST SWAP1 POP SWAP3 SWAP2 POP POP JUMP JUMPDEST PUSH32 0x4E487B7100000000000000000000000000000000000000000000000000000000 PUSH1 0x0 MSTORE PUSH1 0x11 PUSH1 0x4 MSTORE PUSH1 0x24 PUSH1 0x0 REVERT JUMPDEST PUSH1 0x0 PUSH2 0x195A DUP3 PUSH2 0x138E JUMP JUMPDEST SWAP2 POP PUSH2 0x1965 DUP4 PUSH2 0x138E JUMP JUMPDEST SWAP3 POP DUP3 DUP3 MUL PUSH2 0x1973 DUP2 PUSH2 0x138E JUMP JUMPDEST SWAP2 POP DUP3 DUP3 DIV DUP5 EQ DUP4 ISZERO OR PUSH2 0x198A JUMPI PUSH2 0x1989 PUSH2 0x1920 JUMP JUMPDEST JUMPDEST POP SWAP3 SWAP2 POP POP JUMP JUMPDEST PUSH32 0x596F7520617265206E6F7420746865206D616E61676572000000000000000000 PUSH1 0x0 DUP3 ADD MSTORE POP JUMP JUMPDEST PUSH1 0x0 PUSH2 0x19C7 PUSH1 0x17 DUP4 PUSH2 0x18B4 JUMP JUMPDEST SWAP2 POP PUSH2 0x19D2 DUP3 PUSH2 0x1991 JUMP JUMPDEST PUSH1 0x20 DUP3 ADD SWAP1 POP SWAP2 SWAP1 POP JUMP JUMPDEST PUSH1 0x0 PUSH1 0x20 DUP3 ADD SWAP1 POP DUP2 DUP2 SUB PUSH1 0x0 DUP4 ADD MSTORE PUSH2 0x19F6 DUP2 PUSH2 0x19BA JUMP JUMPDEST SWAP1 POP SWAP2 SWAP1 POP JUMP JUMPDEST PUSH32 0x4E487B7100000000000000000000000000000000000000000000000000000000 PUSH1 0x0 MSTORE PUSH1 0x32 PUSH1 0x4 MSTORE PUSH1 0x24 PUSH1 0x0 REVERT JUMPDEST PUSH1 0x0 PUSH1 0x60 DUP3 ADD SWAP1 POP PUSH2 0x1A41 PUSH1 0x0 DUP4 ADD DUP7 PUSH2 0x13F1 JUMP JUMPDEST PUSH2 0x1A4E PUSH1 0x20 DUP4 ADD DUP6 PUSH2 0x13F1 JUMP JUMPDEST PUSH2 0x1A5B PUSH1 0x40 DUP4 ADD DUP5 PUSH2 0x13F1 JUMP JUMPDEST SWAP5 SWAP4 POP POP POP POP JUMP JUMPDEST PUSH1 0x0 PUSH2 0x1A6E DUP3 PUSH2 0x138E JUMP JUMPDEST SWAP2 POP PUSH2 0x1A79 DUP4 PUSH2 0x138E JUMP JUMPDEST SWAP3 POP DUP3 DUP3 SUB SWAP1 POP DUP2 DUP2 GT ISZERO PUSH2 0x1A91 JUMPI PUSH2 0x1A90 PUSH2 0x1920 JUMP JUMPDEST JUMPDEST SWAP3 SWAP2 POP POP JUMP JUMPDEST PUSH1 0x0 PUSH2 0x1AA2 DUP3 PUSH2 0x138E JUMP JUMPDEST SWAP2 POP PUSH2 0x1AAD DUP4 PUSH2 0x138E JUMP JUMPDEST SWAP3 POP DUP3 DUP3 ADD SWAP1 POP DUP1 DUP3 GT ISZERO PUSH2 0x1AC5 JUMPI PUSH2 0x1AC4 PUSH2 0x1920 JUMP JUMPDEST JUMPDEST SWAP3 SWAP2 POP POP JUMP JUMPDEST PUSH1 0x0 PUSH2 0x1AD6 DUP3 PUSH2 0x138E JUMP JUMPDEST SWAP2 POP PUSH32 0xFFFFFFFFFFFFFFFFFFFFFFFFFFFFFFFFFFFFFFFFFFFFFFFFFFFFFFFFFFFFFFFF DUP3 SUB PUSH2 0x1B08 JUMPI PUSH2 0x1B07 PUSH2 0x1920 JUMP JUMPDEST JUMPDEST PUSH1 0x1 DUP3 ADD SWAP1 POP SWAP2 SWAP1 POP JUMP JUMPDEST PUSH32 0x4E487B7100000000000000000000000000000000000000000000000000000000 PUSH1 0x0 MSTORE PUSH1 0x31 PUSH1 0x4 MSTORE PUSH1 0x24 PUSH1 0x0 REVERT JUMPDEST PUSH1 0x0 DUP2 SWAP1 POP SWAP2 SWAP1 POP JUMP JUMPDEST PUSH1 0x0 DUP2 SWAP1 POP SWAP2 SWAP1 POP JUMP JUMPDEST PUSH1 0x0 PUSH2 0x1B71 PUSH2 0x1B6C PUSH2 0x1B67 DUP5 PUSH2 0x1B42 JUMP JUMPDEST PUSH2 0x1B4C JUMP JUMPDEST PUSH2 0x138E JUMP JUMPDEST SWAP1 POP SWAP2 SWAP1 POP JUMP JUMPDEST PUSH2 0x1B81 DUP2 PUSH2 0x1B56 JUMP JUMPDEST DUP3 MSTORE POP POP JUMP JUMPDEST PUSH1 0x0 PUSH1 0x60 DUP3 ADD SWAP1 POP PUSH2 0x1B9C PUSH1 0x0 DUP4 ADD DUP7 PUSH2 0x13F1 JUMP JUMPDEST PUSH2 0x1BA9 PUSH1 0x20 DUP4 ADD DUP6 PUSH2 0x13F1 JUMP JUMPDEST PUSH2 0x1BB6 PUSH1 0x40 DUP4 ADD DUP5 PUSH2 0x1B78 JUMP JUMPDEST SWAP5 SWAP4 POP POP POP POP JUMP JUMPDEST PUSH32 0x4E487B7100000000000000000000000000000000000000000000000000000000 PUSH1 0x0 MSTORE PUSH1 0x22 PUSH1 0x4 MSTORE PUSH1 0x24 PUSH1 0x0 REVERT JUMPDEST PUSH1 0x0 PUSH1 0x2 DUP3 DIV SWAP1 POP PUSH1 0x1 DUP3 AND DUP1 PUSH2 0x1C05 JUMPI PUSH1 0x7F DUP3 AND SWAP2 POP JUMPDEST PUSH1 0x20 DUP3 LT DUP2 SUB PUSH2 0x1C18 JUMPI PUSH2 0x1C17 PUSH2 0x1BBE JUMP JUMPDEST JUMPDEST POP SWAP2 SWAP1 POP JUMP INVALID LOG2 PUSH5 0x6970667358 0x22 SLT KECCAK256 0xC4 0xD9 AND ORIGIN GASLIMIT 0xC5 ADD DUP15 RETURN PUSH15 0x9133A331FFA447668989EE428023E8 BYTE 0xE9 0x21 CODESIZE 0xA6 BYTE JUMPI PUSH5 0x736F6C6343 STOP ADDMOD SLT STOP CALLER "},"gasEstimates":{"creation":{"codeDepositCost":"1450400","executionCost":"infinite","totalCost":"infinite"},"external":{"confirmHours(address,uint256)":"infinite","denyHours(address,uint256)":"infinite","deposit()":"infinite","empHours(address,uint256)":"infinite","getBalance()":"385","getHourLog(address)":"infinite","hourlyRate()":"2518","manager()":"2581","org()":"infinite","ratings(address,uint256)":"infinite","requestHours(uint256)":"infinite","sendRatings(address,address,uint256)":"infinite","sendTip(address)":"infinite","setHourlyRate(uint256)":"infinite","transactions(uint256)":"infinite"}},"methodIdentifiers":{"confirmHours(address,uint256)":"474466c2","denyHours(address,uint256)":"6eaf9563","deposit()":"d0e30db0","empHours(address,uint256)":"20ee128e","getBalance()":"12065fe0","getHourLog(address)":"9d5f65fc","hourlyRate()":"59a7b3fe","manager()":"481c6a75","org()":"cc1e2cb0","ratings(address,uint256)":"2a0e54bd","requestHours(uint256)":"0fa8d54f","sendRatings(address,address,uint256)":"a329f8f6","sendTip(address)":"a4e81be0","setHourlyRate(uint256)":"c17c3521","transactions(uint256)":"9ace38c2"}},"storageLayout":{"storage":[{"astId":145,"contract":"ServiceChain.sol:Service","label":"transactions","offset":0,"slot":"0","type":"t_array(t_struct(Transaction)84_storage)dyn_storage"},{"astId":151,"contract":"ServiceChain.sol:Service","label":"empHours","offset":0,"slot":"1","type":"t_mapping(t_address,t_array(t_struct(hourLog)93_storage)dyn_storage)"},{"astId":157,"contract":"ServiceChain.sol:Service","label":"ratings","offset":0,"slot":"2","type":"t_mapping(t_address,t_array(t_struct(customerRating)77_storage)dyn_storage)"},{"astId":159,"contract":"ServiceChain.sol:Service","label":"org","offset":0,"slot":"3","type":"t_string_storage"},{"astId":161,"contract":"ServiceChain.sol:Service","label":"manager","offset":0,"slot":"4","type":"t_address"},{"astId":163,"contract":"ServiceChain.sol:Service","label":"hourlyRate","offset":0,"slot":"5","type":"t_uint256"}],"types":{"t_address":{"encoding":"inplace","label":"address","numberOfBytes":"20"},"t_array(t_struct(Transaction)84_storage)dyn_storage":{"base":"t_struct(Transaction)84_storage","encoding":"dynamic_array","label":"struct Service.Transaction[]","numberOfBytes":"32"},"t_array(t_struct(customerRating)77_storage)dyn_storage":{"base":"t_struct(customerRating)77_storage","encoding":"dynamic_array","label":"struct Service.customerRating[]","numberOfBytes":"32"},"t_array(t_struct(hourLog)93_storage)dyn_storage":{"base":"t_struct(hourLog)93_storage","encoding":"dynamic_array","label":"struct Service.hourLog[]","numberOfBytes":"32"},"t_bool":{"encoding":"inplace","label":"bool","numberOfBytes":"1"},"t_bytes_storage":{"encoding":"bytes","label":"bytes","numberOfBytes":"32"},"t_mapping(t_address,t_array(t_struct(customerRating)77_storage)dyn_storage)":{"encoding":"mapping","key":"t_address","label":"mapping(address => struct Service.customerRating[])","numberOfBytes":"32","value":"t_array(t_struct(customerRating)77_storage)dyn_storage"},"t_mapping(t_address,t_array(t_struct(hourLog)93_storage)dyn_storage)":{"encoding":"mapping","key":"t_address","label":"mapping(address => struct Service.hourLog[])","numberOfBytes":"32","value":"t_array(t_struct(hourLog)93_storage)dyn_storage"},"t_string_storage":{"encoding":"bytes","label":"string","numberOfBytes":"32"},"t_struct(Transaction)84_storage":{"encoding":"inplace","label":"struct Service.Transaction","members":[{"astId":79,"contract":"ServiceChain.sol:Service","label":"to","offset":0,"slot":"0","type":"t_address"},{"astId":81,"contract":"ServiceChain.sol:Service","label":"value","offset":0,"slot":"1","type":"t_uint256"},{"astId":83,"contract":"ServiceChain.sol:Service","label":"data","offset":0,"slot":"2","type":"t_bytes_storage"}],"numberOfBytes":"96"},"t_struct(customerRating)77_storage":{"encoding":"inplace","label":"struct Service.customerRating","members":[{"astId":74,"contract":"ServiceChain.sol:Service","label":"from","offset":0,"slot":"0","type":"t_address"},{"astId":76,"contract":"ServiceChain.sol:Service","label":"rating","offset":0,"slot":"1","type":"t_uint256"}],"numberOfBytes":"64"},"t_struct(hourLog)93_storage":{"encoding":"inplace","label":"struct Service.hourLog","members":[{"astId":86,"contract":"ServiceChain.sol:Service","label":"date","offset":0,"slot":"0","type":"t_uint256"},{"astId":88,"contract":"ServiceChain.sol:Service","label":"hour","offset":0,"slot":"1","type":"t_uint256"},{"astId":90,"contract":"ServiceChain.sol:Service","label":"estimatedPayement","offset":0,"slot":"2","type":"t_uint256"},{"astId":92,"contract":"ServiceChain.sol:Service","label":"isApproved","offset":0,"slot":"3","type":"t_bool"}],"numberOfBytes":"128"},"t_uint256":{"encoding":"inplace","label":"uint256","numberOfBytes":"32"}}},"userdoc":{"kind":"user","methods":{},"version":1}}