{"abi":[{"inputs":[{"internalType":"address","name":"sender","type":"address"},{"internalType":"string","name":"organization","type":"string"},{"internalType":"uint256","name":"pay","type":"uint256"}],"stateMutability":"nonpayable","type":"constructor"},{"anonymous":false,"inputs":[{"indexed":true,"internalType":"address","name":"sender","type":"address"},{"indexed":false,"internalType":"uint256","name":"amount","type":"uint256"},{"indexed":false,"internalType":"uint256","name":"balance","type":"uint256"},{"indexed":false,"internalType":"uint256","name":"date","type":"uint256"}],"name":"Deposit","type":"event"},{"anonymous":false,"inputs":[{"indexed":true,"internalType":"address","name":"sender","type":"address"},{"indexed":true,"internalType":"address","name":"recipient","type":"address"},{"indexed":true,"internalType":"bool","name":"isApproved","type":"bool"},{"indexed":false,"internalType":"uint256","name":"forDate","type":"uint256"},{"indexed":false,"internalType":"uint256","name":"hour","type":"uint256"},{"indexed":false,"internalType":"uint256","name":"amountPaid","type":"uint256"}],"name":"submitApproval","type":"event"},{"anonymous":false,"inputs":[{"indexed":true,"internalType":"address","name":"sender","type":"address"},{"indexed":true,"internalType":"uint256","name":"date","type":"uint256"},{"indexed":false,"internalType":"uint256","name":"hourlyRate","type":"uint256"}],"name":"submitHourlyRate","type":"event"},{"anonymous":false,"inputs":[{"indexed":true,"internalType":"address","name":"sender","type":"address"},{"indexed":true,"internalType":"address","name":"recipient","type":"address"},{"indexed":true,"internalType":"uint256","name":"rating","type":"uint256"}],"name":"submitRating","type":"event"},{"anonymous":false,"inputs":[{"indexed":true,"internalType":"address","name":"sender","type":"address"},{"indexed":true,"internalType":"address","name":"recipient","type":"address"},{"indexed":false,"internalType":"uint256","name":"tipAmount","type":"uint256"}],"name":"submitTip","type":"event"},{"inputs":[{"internalType":"address payable","name":"waiter","type":"address"},{"internalType":"uint256","name":"index","type":"uint256"}],"name":"confirmHours","outputs":[],"stateMutability":"payable","type":"function"},{"inputs":[{"internalType":"address","name":"waiter","type":"address"},{"internalType":"uint256","name":"index","type":"uint256"}],"name":"denyHours","outputs":[],"stateMutability":"nonpayable","type":"function"},{"inputs":[],"name":"deposit","outputs":[],"stateMutability":"payable","type":"function"},{"inputs":[{"internalType":"address","name":"","type":"address"},{"internalType":"uint256","name":"","type":"uint256"}],"name":"empHours","outputs":[{"internalType":"uint256","name":"date","type":"uint256"},{"internalType":"uint256","name":"hour","type":"uint256"},{"internalType":"uint256","name":"estimatedPayement","type":"uint256"},{"internalType":"bool","name":"isApproved","type":"bool"}],"stateMutability":"view","type":"function"},{"inputs":[],"name":"getBalance","outputs":[{"internalType":"uint256","name":"","type":"uint256"}],"stateMutability":"view","type":"function"},{"inputs":[{"internalType":"address","name":"waiter","type":"address"}],"name":"getHourLog","outputs":[{"components":[{"internalType":"uint256","name":"date","type":"uint256"},{"internalType":"uint256","name":"hour","type":"uint256"},{"internalType":"uint256","name":"estimatedPayement","type":"uint256"},{"internalType":"bool","name":"isApproved","type":"bool"}],"internalType":"struct Service.hourLog[]","name":"","type":"tuple[]"}],"stateMutability":"view","type":"function"},{"inputs":[],"name":"hourlyRate","outputs":[{"internalType":"uint256","name":"","type":"uint256"}],"stateMutability":"view","type":"function"},{"inputs":[],"name":"manager","outputs":[{"internalType":"address","name":"","type":"address"}],"stateMutability":"view","type":"function"},{"inputs":[],"name":"org","outputs":[{"internalType":"string","name":"","type":"string"}],"stateMutability":"view","type":"function"},{"inputs":[{"internalType":"uint256","name":"value","type":"uint256"}],"name":"requestHours","outputs":[],"stateMutability":"nonpayable","type":"function"},{"inputs":[{"internalType":"address","name":"waiter","type":"address"},{"internalType":"uint256","name":"rating","type":"uint256"}],"name":"sendRatings","outputs":[],"stateMutability":"nonpayable","type":"function"},{"inputs":[{"internalType":"address payable","name":"recipient","type":"address"}],"name":"sendTip","outputs":[],"stateMutability":"payable","type":"function"},{"inputs":[{"internalType":"uint256","name":"rate","type":"uint256"}],"name":"setHourlyRate","outputs":[],"stateMutability":"nonpayable","type":"function"},{"inputs":[{"internalType":"uint256","name":"","type":"uint256"}],"name":"transactions","outputs":[{"internalType":"address","name":"to","type":"address"},{"internalType":"uint256","name":"value","type":"uint256"},{"internalType":"bytes","name":"data","type":"bytes"}],"stateMutability":"view","type":"function"}],"devdoc":{"kind":"dev","methods":{},"version":1},"evm":{"assembly":"    /* \"ServiceChain.sol\":695:4988  contract Service{... */\n  mstore(0x40, 0x80)\n    /* \"ServiceChain.sol\":1711:1865  constructor(address sender, string memory organization,uint pay) {... */\n  callvalue\n  dup1\n  iszero\n  tag_1\n  jumpi\n  0x00\n  dup1\n  revert\ntag_1:\n  pop\n  mload(0x40)\n  sub(codesize, bytecodeSize)\n  dup1\n  bytecodeSize\n  dup4\n  codecopy\n  dup2\n  dup2\n  add\n  0x40\n  mstore\n  dup2\n  add\n  swap1\n  tag_2\n  swap2\n  swap1\n  tag_3\n  jump\t// in\ntag_2:\n    /* \"ServiceChain.sol\":1795:1801  sender */\n  dup3\n    /* \"ServiceChain.sol\":1787:1794  manager */\n  0x03\n  0x00\n    /* \"ServiceChain.sol\":1787:1801  manager=sender */\n  0x0100\n  exp\n  dup2\n  sload\n  dup2\n  0xffffffffffffffffffffffffffffffffffffffff\n  mul\n  not\n  and\n  swap1\n  dup4\n  0xffffffffffffffffffffffffffffffffffffffff\n  and\n  mul\n  or\n  swap1\n  sstore\n  pop\n    /* \"ServiceChain.sol\":1818:1830  organization */\n  dup2\n    /* \"ServiceChain.sol\":1812:1815  org */\n  0x02\n    /* \"ServiceChain.sol\":1812:1830  org = organization */\n  swap1\n  dup2\n  tag_6\n  swap2\n  swap1\n  tag_7\n  jump\t// in\ntag_6:\n  pop\n    /* \"ServiceChain.sol\":1854:1857  pay */\n  dup1\n    /* \"ServiceChain.sol\":1841:1851  hourlyRate */\n  0x04\n    /* \"ServiceChain.sol\":1841:1857  hourlyRate = pay */\n  dup2\n  swap1\n  sstore\n  pop\n    /* \"ServiceChain.sol\":1711:1865  constructor(address sender, string memory organization,uint pay) {... */\n  pop\n  pop\n  pop\n    /* \"ServiceChain.sol\":695:4988  contract Service{... */\n  jump(tag_8)\n    /* \"#utility.yul\":7:82   */\ntag_9:\n    /* \"#utility.yul\":40:46   */\n  0x00\n    /* \"#utility.yul\":73:75   */\n  0x40\n    /* \"#utility.yul\":67:76   */\n  mload\n    /* \"#utility.yul\":57:76   */\n  swap1\n  pop\n    /* \"#utility.yul\":7:82   */\n  swap1\n  jump\t// out\n    /* \"#utility.yul\":88:205   */\ntag_10:\n    /* \"#utility.yul\":197:198   */\n  0x00\n    /* \"#utility.yul\":194:195   */\n  dup1\n    /* \"#utility.yul\":187:199   */\n  revert\n    /* \"#utility.yul\":211:328   */\ntag_11:\n    /* \"#utility.yul\":320:321   */\n  0x00\n    /* \"#utility.yul\":317:318   */\n  dup1\n    /* \"#utility.yul\":310:322   */\n  revert\n    /* \"#utility.yul\":334:460   */\ntag_12:\n    /* \"#utility.yul\":371:378   */\n  0x00\n    /* \"#utility.yul\":411:453   */\n  0xffffffffffffffffffffffffffffffffffffffff\n    /* \"#utility.yul\":404:409   */\n  dup3\n    /* \"#utility.yul\":400:454   */\n  and\n    /* \"#utility.yul\":389:454   */\n  swap1\n  pop\n    /* \"#utility.yul\":334:460   */\n  swap2\n  swap1\n  pop\n  jump\t// out\n    /* \"#utility.yul\":466:562   */\ntag_13:\n    /* \"#utility.yul\":503:510   */\n  0x00\n    /* \"#utility.yul\":532:556   */\n  tag_53\n    /* \"#utility.yul\":550:555   */\n  dup3\n    /* \"#utility.yul\":532:556   */\n  tag_12\n  jump\t// in\ntag_53:\n    /* \"#utility.yul\":521:556   */\n  swap1\n  pop\n    /* \"#utility.yul\":466:562   */\n  swap2\n  swap1\n  pop\n  jump\t// out\n    /* \"#utility.yul\":568:690   */\ntag_14:\n    /* \"#utility.yul\":641:665   */\n  tag_55\n    /* \"#utility.yul\":659:664   */\n  dup2\n    /* \"#utility.yul\":641:665   */\n  tag_13\n  jump\t// in\ntag_55:\n    /* \"#utility.yul\":634:639   */\n  dup2\n    /* \"#utility.yul\":631:666   */\n  eq\n    /* \"#utility.yul\":621:684   */\n  tag_56\n  jumpi\n    /* \"#utility.yul\":680:681   */\n  0x00\n    /* \"#utility.yul\":677:678   */\n  dup1\n    /* \"#utility.yul\":670:682   */\n  revert\n    /* \"#utility.yul\":621:684   */\ntag_56:\n    /* \"#utility.yul\":568:690   */\n  pop\n  jump\t// out\n    /* \"#utility.yul\":696:839   */\ntag_15:\n    /* \"#utility.yul\":753:758   */\n  0x00\n    /* \"#utility.yul\":784:790   */\n  dup2\n    /* \"#utility.yul\":778:791   */\n  mload\n    /* \"#utility.yul\":769:791   */\n  swap1\n  pop\n    /* \"#utility.yul\":800:833   */\n  tag_58\n    /* \"#utility.yul\":827:832   */\n  dup2\n    /* \"#utility.yul\":800:833   */\n  tag_14\n  jump\t// in\ntag_58:\n    /* \"#utility.yul\":696:839   */\n  swap3\n  swap2\n  pop\n  pop\n  jump\t// out\n    /* \"#utility.yul\":845:962   */\ntag_16:\n    /* \"#utility.yul\":954:955   */\n  0x00\n    /* \"#utility.yul\":951:952   */\n  dup1\n    /* \"#utility.yul\":944:956   */\n  revert\n    /* \"#utility.yul\":968:1085   */\ntag_17:\n    /* \"#utility.yul\":1077:1078   */\n  0x00\n    /* \"#utility.yul\":1074:1075   */\n  dup1\n    /* \"#utility.yul\":1067:1079   */\n  revert\n    /* \"#utility.yul\":1091:1193   */\ntag_18:\n    /* \"#utility.yul\":1132:1138   */\n  0x00\n    /* \"#utility.yul\":1183:1185   */\n  0x1f\n    /* \"#utility.yul\":1179:1186   */\n  not\n    /* \"#utility.yul\":1174:1176   */\n  0x1f\n    /* \"#utility.yul\":1167:1172   */\n  dup4\n    /* \"#utility.yul\":1163:1177   */\n  add\n    /* \"#utility.yul\":1159:1187   */\n  and\n    /* \"#utility.yul\":1149:1187   */\n  swap1\n  pop\n    /* \"#utility.yul\":1091:1193   */\n  swap2\n  swap1\n  pop\n  jump\t// out\n    /* \"#utility.yul\":1199:1379   */\ntag_19:\n    /* \"#utility.yul\":1247:1324   */\n  0x4e487b7100000000000000000000000000000000000000000000000000000000\n    /* \"#utility.yul\":1244:1245   */\n  0x00\n    /* \"#utility.yul\":1237:1325   */\n  mstore\n    /* \"#utility.yul\":1344:1348   */\n  0x41\n    /* \"#utility.yul\":1341:1342   */\n  0x04\n    /* \"#utility.yul\":1334:1349   */\n  mstore\n    /* \"#utility.yul\":1368:1372   */\n  0x24\n    /* \"#utility.yul\":1365:1366   */\n  0x00\n    /* \"#utility.yul\":1358:1373   */\n  revert\n    /* \"#utility.yul\":1385:1666   */\ntag_20:\n    /* \"#utility.yul\":1468:1495   */\n  tag_64\n    /* \"#utility.yul\":1490:1494   */\n  dup3\n    /* \"#utility.yul\":1468:1495   */\n  tag_18\n  jump\t// in\ntag_64:\n    /* \"#utility.yul\":1460:1466   */\n  dup2\n    /* \"#utility.yul\":1456:1496   */\n  add\n    /* \"#utility.yul\":1598:1604   */\n  dup2\n    /* \"#utility.yul\":1586:1596   */\n  dup2\n    /* \"#utility.yul\":1583:1605   */\n  lt\n    /* \"#utility.yul\":1562:1580   */\n  0xffffffffffffffff\n    /* \"#utility.yul\":1550:1560   */\n  dup3\n    /* \"#utility.yul\":1547:1581   */\n  gt\n    /* \"#utility.yul\":1544:1606   */\n  or\n    /* \"#utility.yul\":1541:1629   */\n  iszero\n  tag_65\n  jumpi\n    /* \"#utility.yul\":1609:1627   */\n  tag_66\n  tag_19\n  jump\t// in\ntag_66:\n    /* \"#utility.yul\":1541:1629   */\ntag_65:\n    /* \"#utility.yul\":1649:1659   */\n  dup1\n    /* \"#utility.yul\":1645:1647   */\n  0x40\n    /* \"#utility.yul\":1638:1660   */\n  mstore\n    /* \"#utility.yul\":1428:1666   */\n  pop\n    /* \"#utility.yul\":1385:1666   */\n  pop\n  pop\n  jump\t// out\n    /* \"#utility.yul\":1672:1801   */\ntag_21:\n    /* \"#utility.yul\":1706:1712   */\n  0x00\n    /* \"#utility.yul\":1733:1753   */\n  tag_68\n  tag_9\n  jump\t// in\ntag_68:\n    /* \"#utility.yul\":1723:1753   */\n  swap1\n  pop\n    /* \"#utility.yul\":1762:1795   */\n  tag_69\n    /* \"#utility.yul\":1790:1794   */\n  dup3\n    /* \"#utility.yul\":1782:1788   */\n  dup3\n    /* \"#utility.yul\":1762:1795   */\n  tag_20\n  jump\t// in\ntag_69:\n    /* \"#utility.yul\":1672:1801   */\n  swap2\n  swap1\n  pop\n  jump\t// out\n    /* \"#utility.yul\":1807:2115   */\ntag_22:\n    /* \"#utility.yul\":1869:1873   */\n  0x00\n    /* \"#utility.yul\":1959:1977   */\n  0xffffffffffffffff\n    /* \"#utility.yul\":1951:1957   */\n  dup3\n    /* \"#utility.yul\":1948:1978   */\n  gt\n    /* \"#utility.yul\":1945:2001   */\n  iszero\n  tag_71\n  jumpi\n    /* \"#utility.yul\":1981:1999   */\n  tag_72\n  tag_19\n  jump\t// in\ntag_72:\n    /* \"#utility.yul\":1945:2001   */\ntag_71:\n    /* \"#utility.yul\":2019:2048   */\n  tag_73\n    /* \"#utility.yul\":2041:2047   */\n  dup3\n    /* \"#utility.yul\":2019:2048   */\n  tag_18\n  jump\t// in\ntag_73:\n    /* \"#utility.yul\":2011:2048   */\n  swap1\n  pop\n    /* \"#utility.yul\":2103:2107   */\n  0x20\n    /* \"#utility.yul\":2097:2101   */\n  dup2\n    /* \"#utility.yul\":2093:2108   */\n  add\n    /* \"#utility.yul\":2085:2108   */\n  swap1\n  pop\n    /* \"#utility.yul\":1807:2115   */\n  swap2\n  swap1\n  pop\n  jump\t// out\n    /* \"#utility.yul\":2121:2367   */\ntag_23:\n    /* \"#utility.yul\":2202:2203   */\n  0x00\n    /* \"#utility.yul\":2212:2325   */\ntag_75:\n    /* \"#utility.yul\":2226:2232   */\n  dup4\n    /* \"#utility.yul\":2223:2224   */\n  dup2\n    /* \"#utility.yul\":2220:2233   */\n  lt\n    /* \"#utility.yul\":2212:2325   */\n  iszero\n  tag_77\n  jumpi\n    /* \"#utility.yul\":2311:2312   */\n  dup1\n    /* \"#utility.yul\":2306:2309   */\n  dup3\n    /* \"#utility.yul\":2302:2313   */\n  add\n    /* \"#utility.yul\":2296:2314   */\n  mload\n    /* \"#utility.yul\":2292:2293   */\n  dup2\n    /* \"#utility.yul\":2287:2290   */\n  dup5\n    /* \"#utility.yul\":2283:2294   */\n  add\n    /* \"#utility.yul\":2276:2315   */\n  mstore\n    /* \"#utility.yul\":2248:2250   */\n  0x20\n    /* \"#utility.yul\":2245:2246   */\n  dup2\n    /* \"#utility.yul\":2241:2251   */\n  add\n    /* \"#utility.yul\":2236:2251   */\n  swap1\n  pop\n    /* \"#utility.yul\":2212:2325   */\n  jump(tag_75)\ntag_77:\n    /* \"#utility.yul\":2359:2360   */\n  0x00\n    /* \"#utility.yul\":2350:2356   */\n  dup5\n    /* \"#utility.yul\":2345:2348   */\n  dup5\n    /* \"#utility.yul\":2341:2357   */\n  add\n    /* \"#utility.yul\":2334:2361   */\n  mstore\n    /* \"#utility.yul\":2183:2367   */\n  pop\n    /* \"#utility.yul\":2121:2367   */\n  pop\n  pop\n  pop\n  jump\t// out\n    /* \"#utility.yul\":2373:2807   */\ntag_24:\n    /* \"#utility.yul\":2462:2467   */\n  0x00\n    /* \"#utility.yul\":2487:2553   */\n  tag_79\n    /* \"#utility.yul\":2503:2552   */\n  tag_80\n    /* \"#utility.yul\":2545:2551   */\n  dup5\n    /* \"#utility.yul\":2503:2552   */\n  tag_22\n  jump\t// in\ntag_80:\n    /* \"#utility.yul\":2487:2553   */\n  tag_21\n  jump\t// in\ntag_79:\n    /* \"#utility.yul\":2478:2553   */\n  swap1\n  pop\n    /* \"#utility.yul\":2576:2582   */\n  dup3\n    /* \"#utility.yul\":2569:2574   */\n  dup2\n    /* \"#utility.yul\":2562:2583   */\n  mstore\n    /* \"#utility.yul\":2614:2618   */\n  0x20\n    /* \"#utility.yul\":2607:2612   */\n  dup2\n    /* \"#utility.yul\":2603:2619   */\n  add\n    /* \"#utility.yul\":2652:2655   */\n  dup5\n    /* \"#utility.yul\":2643:2649   */\n  dup5\n    /* \"#utility.yul\":2638:2641   */\n  dup5\n    /* \"#utility.yul\":2634:2650   */\n  add\n    /* \"#utility.yul\":2631:2656   */\n  gt\n    /* \"#utility.yul\":2628:2740   */\n  iszero\n  tag_81\n  jumpi\n    /* \"#utility.yul\":2659:2738   */\n  tag_82\n  tag_17\n  jump\t// in\ntag_82:\n    /* \"#utility.yul\":2628:2740   */\ntag_81:\n    /* \"#utility.yul\":2749:2801   */\n  tag_83\n    /* \"#utility.yul\":2794:2800   */\n  dup5\n    /* \"#utility.yul\":2789:2792   */\n  dup3\n    /* \"#utility.yul\":2784:2787   */\n  dup6\n    /* \"#utility.yul\":2749:2801   */\n  tag_23\n  jump\t// in\ntag_83:\n    /* \"#utility.yul\":2468:2807   */\n  pop\n    /* \"#utility.yul\":2373:2807   */\n  swap4\n  swap3\n  pop\n  pop\n  pop\n  jump\t// out\n    /* \"#utility.yul\":2827:3182   */\ntag_25:\n    /* \"#utility.yul\":2894:2899   */\n  0x00\n    /* \"#utility.yul\":2943:2946   */\n  dup3\n    /* \"#utility.yul\":2936:2940   */\n  0x1f\n    /* \"#utility.yul\":2928:2934   */\n  dup4\n    /* \"#utility.yul\":2924:2941   */\n  add\n    /* \"#utility.yul\":2920:2947   */\n  slt\n    /* \"#utility.yul\":2910:3032   */\n  tag_85\n  jumpi\n    /* \"#utility.yul\":2951:3030   */\n  tag_86\n  tag_16\n  jump\t// in\ntag_86:\n    /* \"#utility.yul\":2910:3032   */\ntag_85:\n    /* \"#utility.yul\":3061:3067   */\n  dup2\n    /* \"#utility.yul\":3055:3068   */\n  mload\n    /* \"#utility.yul\":3086:3176   */\n  tag_87\n    /* \"#utility.yul\":3172:3175   */\n  dup5\n    /* \"#utility.yul\":3164:3170   */\n  dup3\n    /* \"#utility.yul\":3157:3161   */\n  0x20\n    /* \"#utility.yul\":3149:3155   */\n  dup7\n    /* \"#utility.yul\":3145:3162   */\n  add\n    /* \"#utility.yul\":3086:3176   */\n  tag_24\n  jump\t// in\ntag_87:\n    /* \"#utility.yul\":3077:3176   */\n  swap2\n  pop\n    /* \"#utility.yul\":2900:3182   */\n  pop\n    /* \"#utility.yul\":2827:3182   */\n  swap3\n  swap2\n  pop\n  pop\n  jump\t// out\n    /* \"#utility.yul\":3188:3265   */\ntag_26:\n    /* \"#utility.yul\":3225:3232   */\n  0x00\n    /* \"#utility.yul\":3254:3259   */\n  dup2\n    /* \"#utility.yul\":3243:3259   */\n  swap1\n  pop\n    /* \"#utility.yul\":3188:3265   */\n  swap2\n  swap1\n  pop\n  jump\t// out\n    /* \"#utility.yul\":3271:3393   */\ntag_27:\n    /* \"#utility.yul\":3344:3368   */\n  tag_90\n    /* \"#utility.yul\":3362:3367   */\n  dup2\n    /* \"#utility.yul\":3344:3368   */\n  tag_26\n  jump\t// in\ntag_90:\n    /* \"#utility.yul\":3337:3342   */\n  dup2\n    /* \"#utility.yul\":3334:3369   */\n  eq\n    /* \"#utility.yul\":3324:3387   */\n  tag_91\n  jumpi\n    /* \"#utility.yul\":3383:3384   */\n  0x00\n    /* \"#utility.yul\":3380:3381   */\n  dup1\n    /* \"#utility.yul\":3373:3385   */\n  revert\n    /* \"#utility.yul\":3324:3387   */\ntag_91:\n    /* \"#utility.yul\":3271:3393   */\n  pop\n  jump\t// out\n    /* \"#utility.yul\":3399:3542   */\ntag_28:\n    /* \"#utility.yul\":3456:3461   */\n  0x00\n    /* \"#utility.yul\":3487:3493   */\n  dup2\n    /* \"#utility.yul\":3481:3494   */\n  mload\n    /* \"#utility.yul\":3472:3494   */\n  swap1\n  pop\n    /* \"#utility.yul\":3503:3536   */\n  tag_93\n    /* \"#utility.yul\":3530:3535   */\n  dup2\n    /* \"#utility.yul\":3503:3536   */\n  tag_27\n  jump\t// in\ntag_93:\n    /* \"#utility.yul\":3399:3542   */\n  swap3\n  swap2\n  pop\n  pop\n  jump\t// out\n    /* \"#utility.yul\":3548:4384   */\ntag_3:\n    /* \"#utility.yul\":3646:3652   */\n  0x00\n    /* \"#utility.yul\":3654:3660   */\n  dup1\n    /* \"#utility.yul\":3662:3668   */\n  0x00\n    /* \"#utility.yul\":3711:3713   */\n  0x60\n    /* \"#utility.yul\":3699:3708   */\n  dup5\n    /* \"#utility.yul\":3690:3697   */\n  dup7\n    /* \"#utility.yul\":3686:3709   */\n  sub\n    /* \"#utility.yul\":3682:3714   */\n  slt\n    /* \"#utility.yul\":3679:3798   */\n  iszero\n  tag_95\n  jumpi\n    /* \"#utility.yul\":3717:3796   */\n  tag_96\n  tag_10\n  jump\t// in\ntag_96:\n    /* \"#utility.yul\":3679:3798   */\ntag_95:\n    /* \"#utility.yul\":3837:3838   */\n  0x00\n    /* \"#utility.yul\":3862:3926   */\n  tag_97\n    /* \"#utility.yul\":3918:3925   */\n  dup7\n    /* \"#utility.yul\":3909:3915   */\n  dup3\n    /* \"#utility.yul\":3898:3907   */\n  dup8\n    /* \"#utility.yul\":3894:3916   */\n  add\n    /* \"#utility.yul\":3862:3926   */\n  tag_15\n  jump\t// in\ntag_97:\n    /* \"#utility.yul\":3852:3926   */\n  swap4\n  pop\n    /* \"#utility.yul\":3808:3936   */\n  pop\n    /* \"#utility.yul\":3996:3998   */\n  0x20\n    /* \"#utility.yul\":3985:3994   */\n  dup5\n    /* \"#utility.yul\":3981:3999   */\n  add\n    /* \"#utility.yul\":3975:4000   */\n  mload\n    /* \"#utility.yul\":4027:4045   */\n  0xffffffffffffffff\n    /* \"#utility.yul\":4019:4025   */\n  dup2\n    /* \"#utility.yul\":4016:4046   */\n  gt\n    /* \"#utility.yul\":4013:4130   */\n  iszero\n  tag_98\n  jumpi\n    /* \"#utility.yul\":4049:4128   */\n  tag_99\n  tag_11\n  jump\t// in\ntag_99:\n    /* \"#utility.yul\":4013:4130   */\ntag_98:\n    /* \"#utility.yul\":4154:4228   */\n  tag_100\n    /* \"#utility.yul\":4220:4227   */\n  dup7\n    /* \"#utility.yul\":4211:4217   */\n  dup3\n    /* \"#utility.yul\":4200:4209   */\n  dup8\n    /* \"#utility.yul\":4196:4218   */\n  add\n    /* \"#utility.yul\":4154:4228   */\n  tag_25\n  jump\t// in\ntag_100:\n    /* \"#utility.yul\":4144:4228   */\n  swap3\n  pop\n    /* \"#utility.yul\":3946:4238   */\n  pop\n    /* \"#utility.yul\":4277:4279   */\n  0x40\n    /* \"#utility.yul\":4303:4367   */\n  tag_101\n    /* \"#utility.yul\":4359:4366   */\n  dup7\n    /* \"#utility.yul\":4350:4356   */\n  dup3\n    /* \"#utility.yul\":4339:4348   */\n  dup8\n    /* \"#utility.yul\":4335:4357   */\n  add\n    /* \"#utility.yul\":4303:4367   */\n  tag_28\n  jump\t// in\ntag_101:\n    /* \"#utility.yul\":4293:4367   */\n  swap2\n  pop\n    /* \"#utility.yul\":4248:4377   */\n  pop\n    /* \"#utility.yul\":3548:4384   */\n  swap3\n  pop\n  swap3\n  pop\n  swap3\n  jump\t// out\n    /* \"#utility.yul\":4390:4489   */\ntag_29:\n    /* \"#utility.yul\":4442:4448   */\n  0x00\n    /* \"#utility.yul\":4476:4481   */\n  dup2\n    /* \"#utility.yul\":4470:4482   */\n  mload\n    /* \"#utility.yul\":4460:4482   */\n  swap1\n  pop\n    /* \"#utility.yul\":4390:4489   */\n  swap2\n  swap1\n  pop\n  jump\t// out\n    /* \"#utility.yul\":4495:4675   */\ntag_30:\n    /* \"#utility.yul\":4543:4620   */\n  0x4e487b7100000000000000000000000000000000000000000000000000000000\n    /* \"#utility.yul\":4540:4541   */\n  0x00\n    /* \"#utility.yul\":4533:4621   */\n  mstore\n    /* \"#utility.yul\":4640:4644   */\n  0x22\n    /* \"#utility.yul\":4637:4638   */\n  0x04\n    /* \"#utility.yul\":4630:4645   */\n  mstore\n    /* \"#utility.yul\":4664:4668   */\n  0x24\n    /* \"#utility.yul\":4661:4662   */\n  0x00\n    /* \"#utility.yul\":4654:4669   */\n  revert\n    /* \"#utility.yul\":4681:5001   */\ntag_31:\n    /* \"#utility.yul\":4725:4731   */\n  0x00\n    /* \"#utility.yul\":4762:4763   */\n  0x02\n    /* \"#utility.yul\":4756:4760   */\n  dup3\n    /* \"#utility.yul\":4752:4764   */\n  div\n    /* \"#utility.yul\":4742:4764   */\n  swap1\n  pop\n    /* \"#utility.yul\":4809:4810   */\n  0x01\n    /* \"#utility.yul\":4803:4807   */\n  dup3\n    /* \"#utility.yul\":4799:4811   */\n  and\n    /* \"#utility.yul\":4830:4848   */\n  dup1\n    /* \"#utility.yul\":4820:4901   */\n  tag_105\n  jumpi\n    /* \"#utility.yul\":4886:4890   */\n  0x7f\n    /* \"#utility.yul\":4878:4884   */\n  dup3\n    /* \"#utility.yul\":4874:4891   */\n  and\n    /* \"#utility.yul\":4864:4891   */\n  swap2\n  pop\n    /* \"#utility.yul\":4820:4901   */\ntag_105:\n    /* \"#utility.yul\":4948:4950   */\n  0x20\n    /* \"#utility.yul\":4940:4946   */\n  dup3\n    /* \"#utility.yul\":4937:4951   */\n  lt\n    /* \"#utility.yul\":4917:4935   */\n  dup2\n    /* \"#utility.yul\":4914:4952   */\n  sub\n    /* \"#utility.yul\":4911:4995   */\n  tag_106\n  jumpi\n    /* \"#utility.yul\":4967:4985   */\n  tag_107\n  tag_30\n  jump\t// in\ntag_107:\n    /* \"#utility.yul\":4911:4995   */\ntag_106:\n    /* \"#utility.yul\":4732:5001   */\n  pop\n    /* \"#utility.yul\":4681:5001   */\n  swap2\n  swap1\n  pop\n  jump\t// out\n    /* \"#utility.yul\":5007:5148   */\ntag_32:\n    /* \"#utility.yul\":5056:5060   */\n  0x00\n    /* \"#utility.yul\":5079:5082   */\n  dup2\n    /* \"#utility.yul\":5071:5082   */\n  swap1\n  pop\n    /* \"#utility.yul\":5102:5105   */\n  dup2\n    /* \"#utility.yul\":5099:5100   */\n  0x00\n    /* \"#utility.yul\":5092:5106   */\n  mstore\n    /* \"#utility.yul\":5136:5140   */\n  0x20\n    /* \"#utility.yul\":5133:5134   */\n  0x00\n    /* \"#utility.yul\":5123:5141   */\n  keccak256\n    /* \"#utility.yul\":5115:5141   */\n  swap1\n  pop\n    /* \"#utility.yul\":5007:5148   */\n  swap2\n  swap1\n  pop\n  jump\t// out\n    /* \"#utility.yul\":5154:5247   */\ntag_33:\n    /* \"#utility.yul\":5191:5197   */\n  0x00\n    /* \"#utility.yul\":5238:5240   */\n  0x20\n    /* \"#utility.yul\":5233:5235   */\n  0x1f\n    /* \"#utility.yul\":5226:5231   */\n  dup4\n    /* \"#utility.yul\":5222:5236   */\n  add\n    /* \"#utility.yul\":5218:5241   */\n  div\n    /* \"#utility.yul\":5208:5241   */\n  swap1\n  pop\n    /* \"#utility.yul\":5154:5247   */\n  swap2\n  swap1\n  pop\n  jump\t// out\n    /* \"#utility.yul\":5253:5360   */\ntag_34:\n    /* \"#utility.yul\":5297:5305   */\n  0x00\n    /* \"#utility.yul\":5347:5352   */\n  dup3\n    /* \"#utility.yul\":5341:5345   */\n  dup3\n    /* \"#utility.yul\":5337:5353   */\n  shl\n    /* \"#utility.yul\":5316:5353   */\n  swap1\n  pop\n    /* \"#utility.yul\":5253:5360   */\n  swap3\n  swap2\n  pop\n  pop\n  jump\t// out\n    /* \"#utility.yul\":5366:5759   */\ntag_35:\n    /* \"#utility.yul\":5435:5441   */\n  0x00\n    /* \"#utility.yul\":5485:5486   */\n  0x08\n    /* \"#utility.yul\":5473:5483   */\n  dup4\n    /* \"#utility.yul\":5469:5487   */\n  mul\n    /* \"#utility.yul\":5508:5605   */\n  tag_112\n    /* \"#utility.yul\":5538:5604   */\n  0xffffffffffffffffffffffffffffffffffffffffffffffffffffffffffffffff\n    /* \"#utility.yul\":5527:5536   */\n  dup3\n    /* \"#utility.yul\":5508:5605   */\n  tag_34\n  jump\t// in\ntag_112:\n    /* \"#utility.yul\":5626:5665   */\n  tag_113\n    /* \"#utility.yul\":5656:5664   */\n  dup7\n    /* \"#utility.yul\":5645:5654   */\n  dup4\n    /* \"#utility.yul\":5626:5665   */\n  tag_34\n  jump\t// in\ntag_113:\n    /* \"#utility.yul\":5614:5665   */\n  swap6\n  pop\n    /* \"#utility.yul\":5698:5702   */\n  dup1\n    /* \"#utility.yul\":5694:5703   */\n  not\n    /* \"#utility.yul\":5687:5692   */\n  dup5\n    /* \"#utility.yul\":5683:5704   */\n  and\n    /* \"#utility.yul\":5674:5704   */\n  swap4\n  pop\n    /* \"#utility.yul\":5747:5751   */\n  dup1\n    /* \"#utility.yul\":5737:5745   */\n  dup7\n    /* \"#utility.yul\":5733:5752   */\n  and\n    /* \"#utility.yul\":5726:5731   */\n  dup5\n    /* \"#utility.yul\":5723:5753   */\n  or\n    /* \"#utility.yul\":5713:5753   */\n  swap3\n  pop\n    /* \"#utility.yul\":5442:5759   */\n  pop\n  pop\n    /* \"#utility.yul\":5366:5759   */\n  swap4\n  swap3\n  pop\n  pop\n  pop\n  jump\t// out\n    /* \"#utility.yul\":5765:5825   */\ntag_36:\n    /* \"#utility.yul\":5793:5796   */\n  0x00\n    /* \"#utility.yul\":5814:5819   */\n  dup2\n    /* \"#utility.yul\":5807:5819   */\n  swap1\n  pop\n    /* \"#utility.yul\":5765:5825   */\n  swap2\n  swap1\n  pop\n  jump\t// out\n    /* \"#utility.yul\":5831:5973   */\ntag_37:\n    /* \"#utility.yul\":5881:5890   */\n  0x00\n    /* \"#utility.yul\":5914:5967   */\n  tag_116\n    /* \"#utility.yul\":5932:5966   */\n  tag_117\n    /* \"#utility.yul\":5941:5965   */\n  tag_118\n    /* \"#utility.yul\":5959:5964   */\n  dup5\n    /* \"#utility.yul\":5941:5965   */\n  tag_26\n  jump\t// in\ntag_118:\n    /* \"#utility.yul\":5932:5966   */\n  tag_36\n  jump\t// in\ntag_117:\n    /* \"#utility.yul\":5914:5967   */\n  tag_26\n  jump\t// in\ntag_116:\n    /* \"#utility.yul\":5901:5967   */\n  swap1\n  pop\n    /* \"#utility.yul\":5831:5973   */\n  swap2\n  swap1\n  pop\n  jump\t// out\n    /* \"#utility.yul\":5979:6054   */\ntag_38:\n    /* \"#utility.yul\":6022:6025   */\n  0x00\n    /* \"#utility.yul\":6043:6048   */\n  dup2\n    /* \"#utility.yul\":6036:6048   */\n  swap1\n  pop\n    /* \"#utility.yul\":5979:6054   */\n  swap2\n  swap1\n  pop\n  jump\t// out\n    /* \"#utility.yul\":6060:6329   */\ntag_39:\n    /* \"#utility.yul\":6170:6209   */\n  tag_121\n    /* \"#utility.yul\":6201:6208   */\n  dup4\n    /* \"#utility.yul\":6170:6209   */\n  tag_37\n  jump\t// in\ntag_121:\n    /* \"#utility.yul\":6231:6322   */\n  tag_122\n    /* \"#utility.yul\":6280:6321   */\n  tag_123\n    /* \"#utility.yul\":6304:6320   */\n  dup3\n    /* \"#utility.yul\":6280:6321   */\n  tag_38\n  jump\t// in\ntag_123:\n    /* \"#utility.yul\":6272:6278   */\n  dup5\n    /* \"#utility.yul\":6265:6269   */\n  dup5\n    /* \"#utility.yul\":6259:6270   */\n  sload\n    /* \"#utility.yul\":6231:6322   */\n  tag_35\n  jump\t// in\ntag_122:\n    /* \"#utility.yul\":6225:6229   */\n  dup3\n    /* \"#utility.yul\":6218:6323   */\n  sstore\n    /* \"#utility.yul\":6136:6329   */\n  pop\n    /* \"#utility.yul\":6060:6329   */\n  pop\n  pop\n  pop\n  jump\t// out\n    /* \"#utility.yul\":6335:6408   */\ntag_40:\n    /* \"#utility.yul\":6380:6383   */\n  0x00\n    /* \"#utility.yul\":6335:6408   */\n  swap1\n  jump\t// out\n    /* \"#utility.yul\":6414:6603   */\ntag_41:\n    /* \"#utility.yul\":6491:6523   */\n  tag_126\n  tag_40\n  jump\t// in\ntag_126:\n    /* \"#utility.yul\":6532:6597   */\n  tag_127\n    /* \"#utility.yul\":6590:6596   */\n  dup2\n    /* \"#utility.yul\":6582:6588   */\n  dup5\n    /* \"#utility.yul\":6576:6580   */\n  dup5\n    /* \"#utility.yul\":6532:6597   */\n  tag_39\n  jump\t// in\ntag_127:\n    /* \"#utility.yul\":6467:6603   */\n  pop\n    /* \"#utility.yul\":6414:6603   */\n  pop\n  pop\n  jump\t// out\n    /* \"#utility.yul\":6609:6795   */\ntag_42:\n    /* \"#utility.yul\":6669:6789   */\ntag_129:\n    /* \"#utility.yul\":6686:6689   */\n  dup2\n    /* \"#utility.yul\":6679:6684   */\n  dup2\n    /* \"#utility.yul\":6676:6690   */\n  lt\n    /* \"#utility.yul\":6669:6789   */\n  iszero\n  tag_131\n  jumpi\n    /* \"#utility.yul\":6740:6779   */\n  tag_132\n    /* \"#utility.yul\":6777:6778   */\n  0x00\n    /* \"#utility.yul\":6770:6775   */\n  dup3\n    /* \"#utility.yul\":6740:6779   */\n  tag_41\n  jump\t// in\ntag_132:\n    /* \"#utility.yul\":6713:6714   */\n  0x01\n    /* \"#utility.yul\":6706:6711   */\n  dup2\n    /* \"#utility.yul\":6702:6715   */\n  add\n    /* \"#utility.yul\":6693:6715   */\n  swap1\n  pop\n    /* \"#utility.yul\":6669:6789   */\n  jump(tag_129)\ntag_131:\n    /* \"#utility.yul\":6609:6795   */\n  pop\n  pop\n  jump\t// out\n    /* \"#utility.yul\":6801:7344   */\ntag_43:\n    /* \"#utility.yul\":6902:6904   */\n  0x1f\n    /* \"#utility.yul\":6897:6900   */\n  dup3\n    /* \"#utility.yul\":6894:6905   */\n  gt\n    /* \"#utility.yul\":6891:7337   */\n  iszero\n  tag_134\n  jumpi\n    /* \"#utility.yul\":6936:6974   */\n  tag_135\n    /* \"#utility.yul\":6968:6973   */\n  dup2\n    /* \"#utility.yul\":6936:6974   */\n  tag_32\n  jump\t// in\ntag_135:\n    /* \"#utility.yul\":7020:7049   */\n  tag_136\n    /* \"#utility.yul\":7038:7048   */\n  dup5\n    /* \"#utility.yul\":7020:7049   */\n  tag_33\n  jump\t// in\ntag_136:\n    /* \"#utility.yul\":7010:7018   */\n  dup2\n    /* \"#utility.yul\":7006:7050   */\n  add\n    /* \"#utility.yul\":7203:7205   */\n  0x20\n    /* \"#utility.yul\":7191:7201   */\n  dup6\n    /* \"#utility.yul\":7188:7206   */\n  lt\n    /* \"#utility.yul\":7185:7234   */\n  iszero\n  tag_137\n  jumpi\n    /* \"#utility.yul\":7224:7232   */\n  dup2\n    /* \"#utility.yul\":7209:7232   */\n  swap1\n  pop\n    /* \"#utility.yul\":7185:7234   */\ntag_137:\n    /* \"#utility.yul\":7247:7327   */\n  tag_138\n    /* \"#utility.yul\":7303:7325   */\n  tag_139\n    /* \"#utility.yul\":7321:7324   */\n  dup6\n    /* \"#utility.yul\":7303:7325   */\n  tag_33\n  jump\t// in\ntag_139:\n    /* \"#utility.yul\":7293:7301   */\n  dup4\n    /* \"#utility.yul\":7289:7326   */\n  add\n    /* \"#utility.yul\":7276:7287   */\n  dup3\n    /* \"#utility.yul\":7247:7327   */\n  tag_42\n  jump\t// in\ntag_138:\n    /* \"#utility.yul\":6906:7337   */\n  pop\n  pop\n    /* \"#utility.yul\":6891:7337   */\ntag_134:\n    /* \"#utility.yul\":6801:7344   */\n  pop\n  pop\n  pop\n  jump\t// out\n    /* \"#utility.yul\":7350:7467   */\ntag_44:\n    /* \"#utility.yul\":7404:7412   */\n  0x00\n    /* \"#utility.yul\":7454:7459   */\n  dup3\n    /* \"#utility.yul\":7448:7452   */\n  dup3\n    /* \"#utility.yul\":7444:7460   */\n  shr\n    /* \"#utility.yul\":7423:7460   */\n  swap1\n  pop\n    /* \"#utility.yul\":7350:7467   */\n  swap3\n  swap2\n  pop\n  pop\n  jump\t// out\n    /* \"#utility.yul\":7473:7642   */\ntag_45:\n    /* \"#utility.yul\":7517:7523   */\n  0x00\n    /* \"#utility.yul\":7550:7601   */\n  tag_142\n    /* \"#utility.yul\":7598:7599   */\n  0x00\n    /* \"#utility.yul\":7594:7600   */\n  not\n    /* \"#utility.yul\":7586:7591   */\n  dup5\n    /* \"#utility.yul\":7583:7584   */\n  0x08\n    /* \"#utility.yul\":7579:7592   */\n  mul\n    /* \"#utility.yul\":7550:7601   */\n  tag_44\n  jump\t// in\ntag_142:\n    /* \"#utility.yul\":7546:7602   */\n  not\n    /* \"#utility.yul\":7631:7635   */\n  dup1\n    /* \"#utility.yul\":7625:7629   */\n  dup4\n    /* \"#utility.yul\":7621:7636   */\n  and\n    /* \"#utility.yul\":7611:7636   */\n  swap2\n  pop\n    /* \"#utility.yul\":7524:7642   */\n  pop\n    /* \"#utility.yul\":7473:7642   */\n  swap3\n  swap2\n  pop\n  pop\n  jump\t// out\n    /* \"#utility.yul\":7647:7942   */\ntag_46:\n    /* \"#utility.yul\":7723:7727   */\n  0x00\n    /* \"#utility.yul\":7869:7898   */\n  tag_144\n    /* \"#utility.yul\":7894:7897   */\n  dup4\n    /* \"#utility.yul\":7888:7892   */\n  dup4\n    /* \"#utility.yul\":7869:7898   */\n  tag_45\n  jump\t// in\ntag_144:\n    /* \"#utility.yul\":7861:7898   */\n  swap2\n  pop\n    /* \"#utility.yul\":7931:7934   */\n  dup3\n    /* \"#utility.yul\":7928:7929   */\n  0x02\n    /* \"#utility.yul\":7924:7935   */\n  mul\n    /* \"#utility.yul\":7918:7922   */\n  dup3\n    /* \"#utility.yul\":7915:7936   */\n  or\n    /* \"#utility.yul\":7907:7936   */\n  swap1\n  pop\n    /* \"#utility.yul\":7647:7942   */\n  swap3\n  swap2\n  pop\n  pop\n  jump\t// out\n    /* \"#utility.yul\":7947:9342   */\ntag_7:\n    /* \"#utility.yul\":8064:8101   */\n  tag_146\n    /* \"#utility.yul\":8097:8100   */\n  dup3\n    /* \"#utility.yul\":8064:8101   */\n  tag_29\n  jump\t// in\ntag_146:\n    /* \"#utility.yul\":8166:8184   */\n  0xffffffffffffffff\n    /* \"#utility.yul\":8158:8164   */\n  dup2\n    /* \"#utility.yul\":8155:8185   */\n  gt\n    /* \"#utility.yul\":8152:8208   */\n  iszero\n  tag_147\n  jumpi\n    /* \"#utility.yul\":8188:8206   */\n  tag_148\n  tag_19\n  jump\t// in\ntag_148:\n    /* \"#utility.yul\":8152:8208   */\ntag_147:\n    /* \"#utility.yul\":8232:8270   */\n  tag_149\n    /* \"#utility.yul\":8264:8268   */\n  dup3\n    /* \"#utility.yul\":8258:8269   */\n  sload\n    /* \"#utility.yul\":8232:8270   */\n  tag_31\n  jump\t// in\ntag_149:\n    /* \"#utility.yul\":8317:8384   */\n  tag_150\n    /* \"#utility.yul\":8377:8383   */\n  dup3\n    /* \"#utility.yul\":8369:8375   */\n  dup3\n    /* \"#utility.yul\":8363:8367   */\n  dup6\n    /* \"#utility.yul\":8317:8384   */\n  tag_43\n  jump\t// in\ntag_150:\n    /* \"#utility.yul\":8411:8412   */\n  0x00\n    /* \"#utility.yul\":8435:8439   */\n  0x20\n    /* \"#utility.yul\":8422:8439   */\n  swap1\n  pop\n    /* \"#utility.yul\":8467:8469   */\n  0x1f\n    /* \"#utility.yul\":8459:8465   */\n  dup4\n    /* \"#utility.yul\":8456:8470   */\n  gt\n    /* \"#utility.yul\":8484:8485   */\n  0x01\n    /* \"#utility.yul\":8479:9097   */\n  dup2\n  eq\n  tag_152\n  jumpi\n    /* \"#utility.yul\":9141:9142   */\n  0x00\n    /* \"#utility.yul\":9158:9164   */\n  dup5\n    /* \"#utility.yul\":9155:9232   */\n  iszero\n  tag_153\n  jumpi\n    /* \"#utility.yul\":9207:9216   */\n  dup3\n    /* \"#utility.yul\":9202:9205   */\n  dup8\n    /* \"#utility.yul\":9198:9217   */\n  add\n    /* \"#utility.yul\":9192:9218   */\n  mload\n    /* \"#utility.yul\":9183:9218   */\n  swap1\n  pop\n    /* \"#utility.yul\":9155:9232   */\ntag_153:\n    /* \"#utility.yul\":9258:9325   */\n  tag_154\n    /* \"#utility.yul\":9318:9324   */\n  dup6\n    /* \"#utility.yul\":9311:9316   */\n  dup3\n    /* \"#utility.yul\":9258:9325   */\n  tag_46\n  jump\t// in\ntag_154:\n    /* \"#utility.yul\":9252:9256   */\n  dup7\n    /* \"#utility.yul\":9245:9326   */\n  sstore\n    /* \"#utility.yul\":9114:9336   */\n  pop\n    /* \"#utility.yul\":8449:9336   */\n  jump(tag_151)\n    /* \"#utility.yul\":8479:9097   */\ntag_152:\n    /* \"#utility.yul\":8531:8535   */\n  0x1f\n    /* \"#utility.yul\":8527:8536   */\n  not\n    /* \"#utility.yul\":8519:8525   */\n  dup5\n    /* \"#utility.yul\":8515:8537   */\n  and\n    /* \"#utility.yul\":8565:8602   */\n  tag_155\n    /* \"#utility.yul\":8597:8601   */\n  dup7\n    /* \"#utility.yul\":8565:8602   */\n  tag_32\n  jump\t// in\ntag_155:\n    /* \"#utility.yul\":8624:8625   */\n  0x00\n    /* \"#utility.yul\":8638:8846   */\ntag_156:\n    /* \"#utility.yul\":8652:8659   */\n  dup3\n    /* \"#utility.yul\":8649:8650   */\n  dup2\n    /* \"#utility.yul\":8646:8660   */\n  lt\n    /* \"#utility.yul\":8638:8846   */\n  iszero\n  tag_158\n  jumpi\n    /* \"#utility.yul\":8731:8740   */\n  dup5\n    /* \"#utility.yul\":8726:8729   */\n  dup10\n    /* \"#utility.yul\":8722:8741   */\n  add\n    /* \"#utility.yul\":8716:8742   */\n  mload\n    /* \"#utility.yul\":8708:8714   */\n  dup3\n    /* \"#utility.yul\":8701:8743   */\n  sstore\n    /* \"#utility.yul\":8782:8783   */\n  0x01\n    /* \"#utility.yul\":8774:8780   */\n  dup3\n    /* \"#utility.yul\":8770:8784   */\n  add\n    /* \"#utility.yul\":8760:8784   */\n  swap2\n  pop\n    /* \"#utility.yul\":8829:8831   */\n  0x20\n    /* \"#utility.yul\":8818:8827   */\n  dup6\n    /* \"#utility.yul\":8814:8832   */\n  add\n    /* \"#utility.yul\":8801:8832   */\n  swap5\n  pop\n    /* \"#utility.yul\":8675:8679   */\n  0x20\n    /* \"#utility.yul\":8672:8673   */\n  dup2\n    /* \"#utility.yul\":8668:8680   */\n  add\n    /* \"#utility.yul\":8663:8680   */\n  swap1\n  pop\n    /* \"#utility.yul\":8638:8846   */\n  jump(tag_156)\ntag_158:\n    /* \"#utility.yul\":8874:8880   */\n  dup7\n    /* \"#utility.yul\":8865:8872   */\n  dup4\n    /* \"#utility.yul\":8862:8881   */\n  lt\n    /* \"#utility.yul\":8859:9038   */\n  iszero\n  tag_159\n  jumpi\n    /* \"#utility.yul\":8932:8941   */\n  dup5\n    /* \"#utility.yul\":8927:8930   */\n  dup10\n    /* \"#utility.yul\":8923:8942   */\n  add\n    /* \"#utility.yul\":8917:8943   */\n  mload\n    /* \"#utility.yul\":8975:9023   */\n  tag_160\n    /* \"#utility.yul\":9017:9021   */\n  0x1f\n    /* \"#utility.yul\":9009:9015   */\n  dup10\n    /* \"#utility.yul\":9005:9022   */\n  and\n    /* \"#utility.yul\":8994:9003   */\n  dup3\n    /* \"#utility.yul\":8975:9023   */\n  tag_45\n  jump\t// in\ntag_160:\n    /* \"#utility.yul\":8967:8973   */\n  dup4\n    /* \"#utility.yul\":8960:9024   */\n  sstore\n    /* \"#utility.yul\":8882:9038   */\n  pop\n    /* \"#utility.yul\":8859:9038   */\ntag_159:\n    /* \"#utility.yul\":9084:9085   */\n  0x01\n    /* \"#utility.yul\":9080:9081   */\n  0x02\n    /* \"#utility.yul\":9072:9078   */\n  dup9\n    /* \"#utility.yul\":9068:9082   */\n  mul\n    /* \"#utility.yul\":9064:9086   */\n  add\n    /* \"#utility.yul\":9058:9062   */\n  dup9\n    /* \"#utility.yul\":9051:9087   */\n  sstore\n    /* \"#utility.yul\":8486:9097   */\n  pop\n  pop\n  pop\n    /* \"#utility.yul\":8449:9336   */\ntag_151:\n  pop\n    /* \"#utility.yul\":8039:9342   */\n  pop\n  pop\n  pop\n    /* \"#utility.yul\":7947:9342   */\n  pop\n  pop\n  jump\t// out\n    /* \"ServiceChain.sol\":695:4988  contract Service{... */\ntag_8:\n  dataSize(sub_0)\n  dup1\n  dataOffset(sub_0)\n  0x00\n  codecopy\n  0x00\n  return\nstop\n\nsub_0: assembly {\n        /* \"ServiceChain.sol\":695:4988  contract Service{... */\n      mstore(0x40, 0x80)\n      jumpi(tag_1, lt(calldatasize, 0x04))\n      shr(0xe0, calldataload(0x00))\n      dup1\n      0x9ace38c2\n      gt\n      tag_16\n      jumpi\n      dup1\n      0xa4e81be0\n      gt\n      tag_17\n      jumpi\n      dup1\n      0xa4e81be0\n      eq\n      tag_12\n      jumpi\n      dup1\n      0xc17c3521\n      eq\n      tag_13\n      jumpi\n      dup1\n      0xcc1e2cb0\n      eq\n      tag_14\n      jumpi\n      dup1\n      0xd0e30db0\n      eq\n      tag_15\n      jumpi\n      jump(tag_1)\n    tag_17:\n      dup1\n      0x9ace38c2\n      eq\n      tag_9\n      jumpi\n      dup1\n      0x9d5f65fc\n      eq\n      tag_10\n      jumpi\n      dup1\n      0xa334b295\n      eq\n      tag_11\n      jumpi\n      jump(tag_1)\n    tag_16:\n      dup1\n      0x474466c2\n      gt\n      tag_18\n      jumpi\n      dup1\n      0x474466c2\n      eq\n      tag_5\n      jumpi\n      dup1\n      0x481c6a75\n      eq\n      tag_6\n      jumpi\n      dup1\n      0x59a7b3fe\n      eq\n      tag_7\n      jumpi\n      dup1\n      0x6eaf9563\n      eq\n      tag_8\n      jumpi\n      jump(tag_1)\n    tag_18:\n      dup1\n      0x0fa8d54f\n      eq\n      tag_2\n      jumpi\n      dup1\n      0x12065fe0\n      eq\n      tag_3\n      jumpi\n      dup1\n      0x20ee128e\n      eq\n      tag_4\n      jumpi\n    tag_1:\n      0x00\n      dup1\n      revert\n        /* \"ServiceChain.sol\":2175:2454  function requestHours(uint value) public{... */\n    tag_2:\n      callvalue\n      dup1\n      iszero\n      tag_19\n      jumpi\n      0x00\n      dup1\n      revert\n    tag_19:\n      pop\n      tag_20\n      0x04\n      dup1\n      calldatasize\n      sub\n      dup2\n      add\n      swap1\n      tag_21\n      swap2\n      swap1\n      tag_22\n      jump\t// in\n    tag_21:\n      tag_23\n      jump\t// in\n    tag_20:\n      stop\n        /* \"ServiceChain.sol\":4884:4979  function getBalance() public view returns(uint) {... */\n    tag_3:\n      callvalue\n      dup1\n      iszero\n      tag_24\n      jumpi\n      0x00\n      dup1\n      revert\n    tag_24:\n      pop\n      tag_25\n      tag_26\n      jump\t// in\n    tag_25:\n      mload(0x40)\n      tag_27\n      swap2\n      swap1\n      tag_28\n      jump\t// in\n    tag_27:\n      mload(0x40)\n      dup1\n      swap2\n      sub\n      swap1\n      return\n        /* \"ServiceChain.sol\":1569:1612  mapping(address=>hourLog[]) public empHours */\n    tag_4:\n      callvalue\n      dup1\n      iszero\n      tag_29\n      jumpi\n      0x00\n      dup1\n      revert\n    tag_29:\n      pop\n      tag_30\n      0x04\n      dup1\n      calldatasize\n      sub\n      dup2\n      add\n      swap1\n      tag_31\n      swap2\n      swap1\n      tag_32\n      jump\t// in\n    tag_31:\n      tag_33\n      jump\t// in\n    tag_30:\n      mload(0x40)\n      tag_34\n      swap5\n      swap4\n      swap3\n      swap2\n      swap1\n      tag_35\n      jump\t// in\n    tag_34:\n      mload(0x40)\n      dup1\n      swap2\n      sub\n      swap1\n      return\n        /* \"ServiceChain.sol\":2688:3474  function confirmHours(address payable waiter,uint index) public payable{... */\n    tag_5:\n      tag_36\n      0x04\n      dup1\n      calldatasize\n      sub\n      dup2\n      add\n      swap1\n      tag_37\n      swap2\n      swap1\n      tag_38\n      jump\t// in\n    tag_37:\n      tag_39\n      jump\t// in\n    tag_36:\n      stop\n        /* \"ServiceChain.sol\":1649:1671  address public manager */\n    tag_6:\n      callvalue\n      dup1\n      iszero\n      tag_40\n      jumpi\n      0x00\n      dup1\n      revert\n    tag_40:\n      pop\n      tag_41\n      tag_42\n      jump\t// in\n    tag_41:\n      mload(0x40)\n      tag_43\n      swap2\n      swap1\n      tag_44\n      jump\t// in\n    tag_43:\n      mload(0x40)\n      dup1\n      swap2\n      sub\n      swap1\n      return\n        /* \"ServiceChain.sol\":1678:1700  uint public hourlyRate */\n    tag_7:\n      callvalue\n      dup1\n      iszero\n      tag_45\n      jumpi\n      0x00\n      dup1\n      revert\n    tag_45:\n      pop\n      tag_46\n      tag_47\n      jump\t// in\n    tag_46:\n      mload(0x40)\n      tag_48\n      swap2\n      swap1\n      tag_28\n      jump\t// in\n    tag_48:\n      mload(0x40)\n      dup1\n      swap2\n      sub\n      swap1\n      return\n        /* \"ServiceChain.sol\":3480:4052  function denyHours(address waiter,uint index) public{... */\n    tag_8:\n      callvalue\n      dup1\n      iszero\n      tag_49\n      jumpi\n      0x00\n      dup1\n      revert\n    tag_49:\n      pop\n      tag_50\n      0x04\n      dup1\n      calldatasize\n      sub\n      dup2\n      add\n      swap1\n      tag_51\n      swap2\n      swap1\n      tag_32\n      jump\t// in\n    tag_51:\n      tag_52\n      jump\t// in\n    tag_50:\n      stop\n        /* \"ServiceChain.sol\":1529:1562  Transaction[] public transactions */\n    tag_9:\n      callvalue\n      dup1\n      iszero\n      tag_53\n      jumpi\n      0x00\n      dup1\n      revert\n    tag_53:\n      pop\n      tag_54\n      0x04\n      dup1\n      calldatasize\n      sub\n      dup2\n      add\n      swap1\n      tag_55\n      swap2\n      swap1\n      tag_22\n      jump\t// in\n    tag_55:\n      tag_56\n      jump\t// in\n    tag_54:\n      mload(0x40)\n      tag_57\n      swap4\n      swap3\n      swap2\n      swap1\n      tag_58\n      jump\t// in\n    tag_57:\n      mload(0x40)\n      dup1\n      swap2\n      sub\n      swap1\n      return\n        /* \"ServiceChain.sol\":4111:4228  function getHourLog(address waiter) public view returns(hourLog[] memory){... */\n    tag_10:\n      callvalue\n      dup1\n      iszero\n      tag_59\n      jumpi\n      0x00\n      dup1\n      revert\n    tag_59:\n      pop\n      tag_60\n      0x04\n      dup1\n      calldatasize\n      sub\n      dup2\n      add\n      swap1\n      tag_61\n      swap2\n      swap1\n      tag_62\n      jump\t// in\n    tag_61:\n      tag_63\n      jump\t// in\n    tag_60:\n      mload(0x40)\n      tag_64\n      swap2\n      swap1\n      tag_65\n      jump\t// in\n    tag_64:\n      mload(0x40)\n      dup1\n      swap2\n      sub\n      swap1\n      return\n        /* \"ServiceChain.sol\":4250:4413  function sendRatings(address waiter,uint rating) public {... */\n    tag_11:\n      callvalue\n      dup1\n      iszero\n      tag_66\n      jumpi\n      0x00\n      dup1\n      revert\n    tag_66:\n      pop\n      tag_67\n      0x04\n      dup1\n      calldatasize\n      sub\n      dup2\n      add\n      swap1\n      tag_68\n      swap2\n      swap1\n      tag_32\n      jump\t// in\n    tag_68:\n      tag_69\n      jump\t// in\n    tag_67:\n      stop\n        /* \"ServiceChain.sol\":4709:4876  function sendTip(address payable recipient) public payable {... */\n    tag_12:\n      tag_70\n      0x04\n      dup1\n      calldatasize\n      sub\n      dup2\n      add\n      swap1\n      tag_71\n      swap2\n      swap1\n      tag_72\n      jump\t// in\n    tag_71:\n      tag_73\n      jump\t// in\n    tag_70:\n      stop\n        /* \"ServiceChain.sol\":1913:2057  function setHourlyRate(uint rate) public {... */\n    tag_13:\n      callvalue\n      dup1\n      iszero\n      tag_74\n      jumpi\n      0x00\n      dup1\n      revert\n    tag_74:\n      pop\n      tag_75\n      0x04\n      dup1\n      calldatasize\n      sub\n      dup2\n      add\n      swap1\n      tag_76\n      swap2\n      swap1\n      tag_22\n      jump\t// in\n    tag_76:\n      tag_77\n      jump\t// in\n    tag_75:\n      stop\n        /* \"ServiceChain.sol\":1625:1642  string public org */\n    tag_14:\n      callvalue\n      dup1\n      iszero\n      tag_78\n      jumpi\n      0x00\n      dup1\n      revert\n    tag_78:\n      pop\n      tag_79\n      tag_80\n      jump\t// in\n    tag_79:\n      mload(0x40)\n      tag_81\n      swap2\n      swap1\n      tag_82\n      jump\t// in\n    tag_81:\n      mload(0x40)\n      dup1\n      swap2\n      sub\n      swap1\n      return\n        /* \"ServiceChain.sol\":4456:4582  function deposit() public payable {... */\n    tag_15:\n      tag_83\n      tag_84\n      jump\t// in\n    tag_83:\n      stop\n        /* \"ServiceChain.sol\":2175:2454  function requestHours(uint value) public{... */\n    tag_23:\n        /* \"ServiceChain.sol\":2351:2352  8 */\n      0x08\n        /* \"ServiceChain.sol\":2321:2329  empHours */\n      0x01\n        /* \"ServiceChain.sol\":2321:2341  empHours[msg.sender] */\n      0x00\n        /* \"ServiceChain.sol\":2330:2340  msg.sender */\n      caller\n        /* \"ServiceChain.sol\":2321:2341  empHours[msg.sender] */\n      0xffffffffffffffffffffffffffffffffffffffff\n      and\n      0xffffffffffffffffffffffffffffffffffffffff\n      and\n      dup2\n      mstore\n      0x20\n      add\n      swap1\n      dup2\n      mstore\n      0x20\n      add\n      0x00\n      keccak256\n        /* \"ServiceChain.sol\":2321:2348  empHours[msg.sender].length */\n      dup1\n      sload\n      swap1\n      pop\n        /* \"ServiceChain.sol\":2321:2352  empHours[msg.sender].length < 8 */\n      lt\n        /* \"ServiceChain.sol\":2313:2353  require(empHours[msg.sender].length < 8) */\n      tag_86\n      jumpi\n      0x00\n      dup1\n      revert\n    tag_86:\n        /* \"ServiceChain.sol\":2364:2372  empHours */\n      0x01\n        /* \"ServiceChain.sol\":2364:2384  empHours[msg.sender] */\n      0x00\n        /* \"ServiceChain.sol\":2373:2383  msg.sender */\n      caller\n        /* \"ServiceChain.sol\":2364:2384  empHours[msg.sender] */\n      0xffffffffffffffffffffffffffffffffffffffff\n      and\n      0xffffffffffffffffffffffffffffffffffffffff\n      and\n      dup2\n      mstore\n      0x20\n      add\n      swap1\n      dup2\n      mstore\n      0x20\n      add\n      0x00\n      keccak256\n        /* \"ServiceChain.sol\":2390:2445  hourLog(block.timestamp,value,hourlyRate * value,false) */\n      mload(0x40)\n      dup1\n      0x80\n      add\n      0x40\n      mstore\n      dup1\n        /* \"ServiceChain.sol\":2398:2413  block.timestamp */\n      timestamp\n        /* \"ServiceChain.sol\":2390:2445  hourLog(block.timestamp,value,hourlyRate * value,false) */\n      dup2\n      mstore\n      0x20\n      add\n        /* \"ServiceChain.sol\":2414:2419  value */\n      dup4\n        /* \"ServiceChain.sol\":2390:2445  hourLog(block.timestamp,value,hourlyRate * value,false) */\n      dup2\n      mstore\n      0x20\n      add\n        /* \"ServiceChain.sol\":2433:2438  value */\n      dup4\n        /* \"ServiceChain.sol\":2420:2430  hourlyRate */\n      sload(0x04)\n        /* \"ServiceChain.sol\":2420:2438  hourlyRate * value */\n      tag_87\n      swap2\n      swap1\n      tag_88\n      jump\t// in\n    tag_87:\n        /* \"ServiceChain.sol\":2390:2445  hourLog(block.timestamp,value,hourlyRate * value,false) */\n      dup2\n      mstore\n      0x20\n      add\n        /* \"ServiceChain.sol\":2439:2444  false */\n      0x00\n        /* \"ServiceChain.sol\":2390:2445  hourLog(block.timestamp,value,hourlyRate * value,false) */\n      iszero\n      iszero\n      dup2\n      mstore\n      pop\n        /* \"ServiceChain.sol\":2364:2446  empHours[msg.sender].push(hourLog(block.timestamp,value,hourlyRate * value,false)) */\n      swap1\n      dup1\n      0x01\n      dup2\n      sload\n      add\n      dup1\n      dup3\n      sstore\n      dup1\n      swap2\n      pop\n      pop\n      0x01\n      swap1\n      sub\n      swap1\n      0x00\n      mstore\n      keccak256(0x00, 0x20)\n      swap1\n      0x04\n      mul\n      add\n      0x00\n      swap1\n      swap2\n      swap1\n      swap2\n      swap1\n      swap2\n      pop\n      0x00\n      dup3\n      add\n      mload\n      dup2\n      0x00\n      add\n      sstore\n      0x20\n      dup3\n      add\n      mload\n      dup2\n      0x01\n      add\n      sstore\n      0x40\n      dup3\n      add\n      mload\n      dup2\n      0x02\n      add\n      sstore\n      0x60\n      dup3\n      add\n      mload\n      dup2\n      0x03\n      add\n      exp(0x0100, 0x00)\n      dup2\n      sload\n      dup2\n      0xff\n      mul\n      not\n      and\n      swap1\n      dup4\n      iszero\n      iszero\n      mul\n      or\n      swap1\n      sstore\n      pop\n      pop\n      pop\n        /* \"ServiceChain.sol\":2175:2454  function requestHours(uint value) public{... */\n      pop\n      jump\t// out\n        /* \"ServiceChain.sol\":4884:4979  function getBalance() public view returns(uint) {... */\n    tag_26:\n        /* \"ServiceChain.sol\":4926:4930  uint */\n      0x00\n        /* \"ServiceChain.sol\":4950:4971  address(this).balance */\n      selfbalance\n        /* \"ServiceChain.sol\":4943:4971  return address(this).balance */\n      swap1\n      pop\n        /* \"ServiceChain.sol\":4884:4979  function getBalance() public view returns(uint) {... */\n      swap1\n      jump\t// out\n        /* \"ServiceChain.sol\":1569:1612  mapping(address=>hourLog[]) public empHours */\n    tag_33:\n      mstore(0x20, 0x01)\n      dup2\n      0x00\n      mstore\n      keccak256(0x00, 0x40)\n      dup2\n      dup2\n      sload\n      dup2\n      lt\n      tag_91\n      jumpi\n      0x00\n      dup1\n      revert\n    tag_91:\n      swap1\n      0x00\n      mstore\n      keccak256(0x00, 0x20)\n      swap1\n      0x04\n      mul\n      add\n      0x00\n      swap2\n      pop\n      swap2\n      pop\n      pop\n      dup1\n      0x00\n      add\n      sload\n      swap1\n      dup1\n      0x01\n      add\n      sload\n      swap1\n      dup1\n      0x02\n      add\n      sload\n      swap1\n      dup1\n      0x03\n      add\n      0x00\n      swap1\n      sload\n      swap1\n      0x0100\n      exp\n      swap1\n      div\n      0xff\n      and\n      swap1\n      pop\n      dup5\n      jump\t// out\n        /* \"ServiceChain.sol\":2688:3474  function confirmHours(address payable waiter,uint index) public payable{... */\n    tag_39:\n        /* \"ServiceChain.sol\":2792:2799  manager */\n      0x03\n      0x00\n      swap1\n      sload\n      swap1\n      0x0100\n      exp\n      swap1\n      div\n      0xffffffffffffffffffffffffffffffffffffffff\n      and\n        /* \"ServiceChain.sol\":2778:2799  msg.sender == manager */\n      0xffffffffffffffffffffffffffffffffffffffff\n      and\n        /* \"ServiceChain.sol\":2778:2788  msg.sender */\n      caller\n        /* \"ServiceChain.sol\":2778:2799  msg.sender == manager */\n      0xffffffffffffffffffffffffffffffffffffffff\n      and\n      eq\n        /* \"ServiceChain.sol\":2770:2826  require(msg.sender == manager,\"You are not the manager\") */\n      tag_94\n      jumpi\n      mload(0x40)\n      0x08c379a000000000000000000000000000000000000000000000000000000000\n      dup2\n      mstore\n      0x04\n      add\n      tag_95\n      swap1\n      tag_96\n      jump\t// in\n    tag_95:\n      mload(0x40)\n      dup1\n      swap2\n      sub\n      swap1\n      revert\n    tag_94:\n        /* \"ServiceChain.sol\":2990:2994  true */\n      0x01\n        /* \"ServiceChain.sol\":2957:3096  submitApproval(msg.sender,waiter,true,empHours[waiter][index].date, empHours[waiter][index].hour,hourlyRate * empHours[waiter][index].hour) */\n      iszero\n      iszero\n        /* \"ServiceChain.sol\":2983:2989  waiter */\n      dup3\n        /* \"ServiceChain.sol\":2957:3096  submitApproval(msg.sender,waiter,true,empHours[waiter][index].date, empHours[waiter][index].hour,hourlyRate * empHours[waiter][index].hour) */\n      0xffffffffffffffffffffffffffffffffffffffff\n      and\n        /* \"ServiceChain.sol\":2972:2982  msg.sender */\n      caller\n        /* \"ServiceChain.sol\":2957:3096  submitApproval(msg.sender,waiter,true,empHours[waiter][index].date, empHours[waiter][index].hour,hourlyRate * empHours[waiter][index].hour) */\n      0xffffffffffffffffffffffffffffffffffffffff\n      and\n      0x62a0718d681b5a77ad80fbaf7e41ff461f77b69d49e3879cba8e045c85e2ac74\n        /* \"ServiceChain.sol\":2995:3003  empHours */\n      0x01\n        /* \"ServiceChain.sol\":2995:3011  empHours[waiter] */\n      0x00\n        /* \"ServiceChain.sol\":3004:3010  waiter */\n      dup8\n        /* \"ServiceChain.sol\":2995:3011  empHours[waiter] */\n      0xffffffffffffffffffffffffffffffffffffffff\n      and\n      0xffffffffffffffffffffffffffffffffffffffff\n      and\n      dup2\n      mstore\n      0x20\n      add\n      swap1\n      dup2\n      mstore\n      0x20\n      add\n      0x00\n      keccak256\n        /* \"ServiceChain.sol\":3012:3017  index */\n      dup6\n        /* \"ServiceChain.sol\":2995:3018  empHours[waiter][index] */\n      dup2\n      sload\n      dup2\n      lt\n      tag_97\n      jumpi\n      tag_98\n      tag_99\n      jump\t// in\n    tag_98:\n    tag_97:\n      swap1\n      0x00\n      mstore\n      keccak256(0x00, 0x20)\n      swap1\n      0x04\n      mul\n      add\n        /* \"ServiceChain.sol\":2995:3023  empHours[waiter][index].date */\n      0x00\n      add\n      sload\n        /* \"ServiceChain.sol\":3025:3033  empHours */\n      0x01\n        /* \"ServiceChain.sol\":3025:3041  empHours[waiter] */\n      0x00\n        /* \"ServiceChain.sol\":3034:3040  waiter */\n      dup9\n        /* \"ServiceChain.sol\":3025:3041  empHours[waiter] */\n      0xffffffffffffffffffffffffffffffffffffffff\n      and\n      0xffffffffffffffffffffffffffffffffffffffff\n      and\n      dup2\n      mstore\n      0x20\n      add\n      swap1\n      dup2\n      mstore\n      0x20\n      add\n      0x00\n      keccak256\n        /* \"ServiceChain.sol\":3042:3047  index */\n      dup7\n        /* \"ServiceChain.sol\":3025:3048  empHours[waiter][index] */\n      dup2\n      sload\n      dup2\n      lt\n      tag_101\n      jumpi\n      tag_102\n      tag_99\n      jump\t// in\n    tag_102:\n    tag_101:\n      swap1\n      0x00\n      mstore\n      keccak256(0x00, 0x20)\n      swap1\n      0x04\n      mul\n      add\n        /* \"ServiceChain.sol\":3025:3053  empHours[waiter][index].hour */\n      0x01\n      add\n      sload\n        /* \"ServiceChain.sol\":3067:3075  empHours */\n      0x01\n        /* \"ServiceChain.sol\":3067:3083  empHours[waiter] */\n      0x00\n        /* \"ServiceChain.sol\":3076:3082  waiter */\n      dup10\n        /* \"ServiceChain.sol\":3067:3083  empHours[waiter] */\n      0xffffffffffffffffffffffffffffffffffffffff\n      and\n      0xffffffffffffffffffffffffffffffffffffffff\n      and\n      dup2\n      mstore\n      0x20\n      add\n      swap1\n      dup2\n      mstore\n      0x20\n      add\n      0x00\n      keccak256\n        /* \"ServiceChain.sol\":3084:3089  index */\n      dup8\n        /* \"ServiceChain.sol\":3067:3090  empHours[waiter][index] */\n      dup2\n      sload\n      dup2\n      lt\n      tag_104\n      jumpi\n      tag_105\n      tag_99\n      jump\t// in\n    tag_105:\n    tag_104:\n      swap1\n      0x00\n      mstore\n      keccak256(0x00, 0x20)\n      swap1\n      0x04\n      mul\n      add\n        /* \"ServiceChain.sol\":3067:3095  empHours[waiter][index].hour */\n      0x01\n      add\n      sload\n        /* \"ServiceChain.sol\":3054:3064  hourlyRate */\n      sload(0x04)\n        /* \"ServiceChain.sol\":3054:3095  hourlyRate * empHours[waiter][index].hour */\n      tag_107\n      swap2\n      swap1\n      tag_88\n      jump\t// in\n    tag_107:\n        /* \"ServiceChain.sol\":2957:3096  submitApproval(msg.sender,waiter,true,empHours[waiter][index].date, empHours[waiter][index].hour,hourlyRate * empHours[waiter][index].hour) */\n      mload(0x40)\n      tag_108\n      swap4\n      swap3\n      swap2\n      swap1\n      tag_109\n      jump\t// in\n    tag_108:\n      mload(0x40)\n      dup1\n      swap2\n      sub\n      swap1\n      log4\n        /* \"ServiceChain.sol\":3189:3195  waiter */\n      dup2\n        /* \"ServiceChain.sol\":3189:3204  waiter.transfer */\n      0xffffffffffffffffffffffffffffffffffffffff\n      and\n        /* \"ServiceChain.sol\":3189:3249  waiter.transfer(hourlyRate*15* empHours[waiter][index].hour) */\n      0x08fc\n        /* \"ServiceChain.sol\":3220:3228  empHours */\n      0x01\n        /* \"ServiceChain.sol\":3220:3236  empHours[waiter] */\n      0x00\n        /* \"ServiceChain.sol\":3229:3235  waiter */\n      dup6\n        /* \"ServiceChain.sol\":3220:3236  empHours[waiter] */\n      0xffffffffffffffffffffffffffffffffffffffff\n      and\n      0xffffffffffffffffffffffffffffffffffffffff\n      and\n      dup2\n      mstore\n      0x20\n      add\n      swap1\n      dup2\n      mstore\n      0x20\n      add\n      0x00\n      keccak256\n        /* \"ServiceChain.sol\":3237:3242  index */\n      dup4\n        /* \"ServiceChain.sol\":3220:3243  empHours[waiter][index] */\n      dup2\n      sload\n      dup2\n      lt\n      tag_110\n      jumpi\n      tag_111\n      tag_99\n      jump\t// in\n    tag_111:\n    tag_110:\n      swap1\n      0x00\n      mstore\n      keccak256(0x00, 0x20)\n      swap1\n      0x04\n      mul\n      add\n        /* \"ServiceChain.sol\":3220:3248  empHours[waiter][index].hour */\n      0x01\n      add\n      sload\n        /* \"ServiceChain.sol\":3216:3218  15 */\n      0x0f\n        /* \"ServiceChain.sol\":3205:3215  hourlyRate */\n      sload(0x04)\n        /* \"ServiceChain.sol\":3205:3218  hourlyRate*15 */\n      tag_113\n      swap2\n      swap1\n      tag_88\n      jump\t// in\n    tag_113:\n        /* \"ServiceChain.sol\":3205:3248  hourlyRate*15* empHours[waiter][index].hour */\n      tag_114\n      swap2\n      swap1\n      tag_88\n      jump\t// in\n    tag_114:\n        /* \"ServiceChain.sol\":3189:3249  waiter.transfer(hourlyRate*15* empHours[waiter][index].hour) */\n      swap1\n      dup2\n      iszero\n      mul\n      swap1\n      mload(0x40)\n      0x00\n      mload(0x40)\n      dup1\n      dup4\n      sub\n      dup2\n      dup6\n      dup9\n      dup9\n      call\n      swap4\n      pop\n      pop\n      pop\n      pop\n      iszero\n      dup1\n      iszero\n      tag_116\n      jumpi\n      returndatasize\n      0x00\n      dup1\n      returndatacopy\n      revert(0x00, returndatasize)\n    tag_116:\n      pop\n        /* \"ServiceChain.sol\":3313:3319  uint i */\n      0x00\n        /* \"ServiceChain.sol\":3321:3326  index */\n      dup2\n        /* \"ServiceChain.sol\":3313:3326  uint i =index */\n      swap1\n      pop\n        /* \"ServiceChain.sol\":3309:3429  for(uint i =index;i<empHours[waiter].length-1;i++){... */\n    tag_117:\n        /* \"ServiceChain.sol\":3353:3354  1 */\n      0x01\n        /* \"ServiceChain.sol\":3329:3337  empHours */\n      dup1\n        /* \"ServiceChain.sol\":3329:3345  empHours[waiter] */\n      0x00\n        /* \"ServiceChain.sol\":3338:3344  waiter */\n      dup6\n        /* \"ServiceChain.sol\":3329:3345  empHours[waiter] */\n      0xffffffffffffffffffffffffffffffffffffffff\n      and\n      0xffffffffffffffffffffffffffffffffffffffff\n      and\n      dup2\n      mstore\n      0x20\n      add\n      swap1\n      dup2\n      mstore\n      0x20\n      add\n      0x00\n      keccak256\n        /* \"ServiceChain.sol\":3329:3352  empHours[waiter].length */\n      dup1\n      sload\n      swap1\n      pop\n        /* \"ServiceChain.sol\":3329:3354  empHours[waiter].length-1 */\n      tag_120\n      swap2\n      swap1\n      tag_121\n      jump\t// in\n    tag_120:\n        /* \"ServiceChain.sol\":3327:3328  i */\n      dup2\n        /* \"ServiceChain.sol\":3327:3354  i<empHours[waiter].length-1 */\n      lt\n        /* \"ServiceChain.sol\":3309:3429  for(uint i =index;i<empHours[waiter].length-1;i++){... */\n      iszero\n      tag_118\n      jumpi\n        /* \"ServiceChain.sol\":3396:3404  empHours */\n      0x01\n        /* \"ServiceChain.sol\":3396:3412  empHours[waiter] */\n      0x00\n        /* \"ServiceChain.sol\":3405:3411  waiter */\n      dup5\n        /* \"ServiceChain.sol\":3396:3412  empHours[waiter] */\n      0xffffffffffffffffffffffffffffffffffffffff\n      and\n      0xffffffffffffffffffffffffffffffffffffffff\n      and\n      dup2\n      mstore\n      0x20\n      add\n      swap1\n      dup2\n      mstore\n      0x20\n      add\n      0x00\n      keccak256\n        /* \"ServiceChain.sol\":3415:3416  1 */\n      0x01\n        /* \"ServiceChain.sol\":3413:3414  i */\n      dup3\n        /* \"ServiceChain.sol\":3413:3416  i+1 */\n      tag_122\n      swap2\n      swap1\n      tag_123\n      jump\t// in\n    tag_122:\n        /* \"ServiceChain.sol\":3396:3417  empHours[waiter][i+1] */\n      dup2\n      sload\n      dup2\n      lt\n      tag_124\n      jumpi\n      tag_125\n      tag_99\n      jump\t// in\n    tag_125:\n    tag_124:\n      swap1\n      0x00\n      mstore\n      keccak256(0x00, 0x20)\n      swap1\n      0x04\n      mul\n      add\n        /* \"ServiceChain.sol\":3374:3382  empHours */\n      0x01\n        /* \"ServiceChain.sol\":3374:3390  empHours[waiter] */\n      0x00\n        /* \"ServiceChain.sol\":3383:3389  waiter */\n      dup6\n        /* \"ServiceChain.sol\":3374:3390  empHours[waiter] */\n      0xffffffffffffffffffffffffffffffffffffffff\n      and\n      0xffffffffffffffffffffffffffffffffffffffff\n      and\n      dup2\n      mstore\n      0x20\n      add\n      swap1\n      dup2\n      mstore\n      0x20\n      add\n      0x00\n      keccak256\n        /* \"ServiceChain.sol\":3391:3392  i */\n      dup3\n        /* \"ServiceChain.sol\":3374:3393  empHours[waiter][i] */\n      dup2\n      sload\n      dup2\n      lt\n      tag_127\n      jumpi\n      tag_128\n      tag_99\n      jump\t// in\n    tag_128:\n    tag_127:\n      swap1\n      0x00\n      mstore\n      keccak256(0x00, 0x20)\n      swap1\n      0x04\n      mul\n      add\n        /* \"ServiceChain.sol\":3374:3417  empHours[waiter][i] = empHours[waiter][i+1] */\n      0x00\n      dup3\n      add\n      sload\n      dup2\n      0x00\n      add\n      sstore\n      0x01\n      dup3\n      add\n      sload\n      dup2\n      0x01\n      add\n      sstore\n      0x02\n      dup3\n      add\n      sload\n      dup2\n      0x02\n      add\n      sstore\n      0x03\n      dup3\n      add\n      0x00\n      swap1\n      sload\n      swap1\n      0x0100\n      exp\n      swap1\n      div\n      0xff\n      and\n      dup2\n      0x03\n      add\n      exp(0x0100, 0x00)\n      dup2\n      sload\n      dup2\n      0xff\n      mul\n      not\n      and\n      swap1\n      dup4\n      iszero\n      iszero\n      mul\n      or\n      swap1\n      sstore\n      pop\n      swap1\n      pop\n      pop\n        /* \"ServiceChain.sol\":3355:3358  i++ */\n      dup1\n      dup1\n      tag_130\n      swap1\n      tag_131\n      jump\t// in\n    tag_130:\n      swap2\n      pop\n      pop\n        /* \"ServiceChain.sol\":3309:3429  for(uint i =index;i<empHours[waiter].length-1;i++){... */\n      jump(tag_117)\n    tag_118:\n      pop\n        /* \"ServiceChain.sol\":3439:3447  empHours */\n      0x01\n        /* \"ServiceChain.sol\":3439:3455  empHours[waiter] */\n      0x00\n        /* \"ServiceChain.sol\":3448:3454  waiter */\n      dup4\n        /* \"ServiceChain.sol\":3439:3455  empHours[waiter] */\n      0xffffffffffffffffffffffffffffffffffffffff\n      and\n      0xffffffffffffffffffffffffffffffffffffffff\n      and\n      dup2\n      mstore\n      0x20\n      add\n      swap1\n      dup2\n      mstore\n      0x20\n      add\n      0x00\n      keccak256\n        /* \"ServiceChain.sol\":3439:3461  empHours[waiter].pop() */\n      dup1\n      sload\n      dup1\n      tag_132\n      jumpi\n      tag_133\n      tag_134\n      jump\t// in\n    tag_133:\n    tag_132:\n      0x01\n      swap1\n      sub\n      dup2\n      dup2\n      swap1\n      0x00\n      mstore\n      keccak256(0x00, 0x20)\n      swap1\n      0x04\n      mul\n      add\n      0x00\n      dup1\n      dup3\n      add\n      0x00\n      swap1\n      sstore\n      0x01\n      dup3\n      add\n      0x00\n      swap1\n      sstore\n      0x02\n      dup3\n      add\n      0x00\n      swap1\n      sstore\n      0x03\n      dup3\n      add\n      exp(0x0100, 0x00)\n      dup2\n      sload\n      swap1\n      0xff\n      mul\n      not\n      and\n      swap1\n      sstore\n      pop\n      pop\n      swap1\n      sstore\n        /* \"ServiceChain.sol\":2688:3474  function confirmHours(address payable waiter,uint index) public payable{... */\n      pop\n      pop\n      jump\t// out\n        /* \"ServiceChain.sol\":1649:1671  address public manager */\n    tag_42:\n      0x03\n      0x00\n      swap1\n      sload\n      swap1\n      0x0100\n      exp\n      swap1\n      div\n      0xffffffffffffffffffffffffffffffffffffffff\n      and\n      dup2\n      jump\t// out\n        /* \"ServiceChain.sol\":1678:1700  uint public hourlyRate */\n    tag_47:\n      sload(0x04)\n      dup2\n      jump\t// out\n        /* \"ServiceChain.sol\":3480:4052  function denyHours(address waiter,uint index) public{... */\n    tag_52:\n        /* \"ServiceChain.sol\":3565:3572  manager */\n      0x03\n      0x00\n      swap1\n      sload\n      swap1\n      0x0100\n      exp\n      swap1\n      div\n      0xffffffffffffffffffffffffffffffffffffffff\n      and\n        /* \"ServiceChain.sol\":3551:3572  msg.sender == manager */\n      0xffffffffffffffffffffffffffffffffffffffff\n      and\n        /* \"ServiceChain.sol\":3551:3561  msg.sender */\n      caller\n        /* \"ServiceChain.sol\":3551:3572  msg.sender == manager */\n      0xffffffffffffffffffffffffffffffffffffffff\n      and\n      eq\n        /* \"ServiceChain.sol\":3543:3599  require(msg.sender == manager,\"You are not the manager\") */\n      tag_137\n      jumpi\n      mload(0x40)\n      0x08c379a000000000000000000000000000000000000000000000000000000000\n      dup2\n      mstore\n      0x04\n      add\n      tag_138\n      swap1\n      tag_96\n      jump\t// in\n    tag_138:\n      mload(0x40)\n      dup1\n      swap2\n      sub\n      swap1\n      revert\n    tag_137:\n        /* \"ServiceChain.sol\":3763:3768  false */\n      0x00\n        /* \"ServiceChain.sol\":3730:3830  submitApproval(msg.sender,waiter,false,empHours[waiter][index].date, empHours[waiter][index].hour,0) */\n      iszero\n      iszero\n        /* \"ServiceChain.sol\":3756:3762  waiter */\n      dup3\n        /* \"ServiceChain.sol\":3730:3830  submitApproval(msg.sender,waiter,false,empHours[waiter][index].date, empHours[waiter][index].hour,0) */\n      0xffffffffffffffffffffffffffffffffffffffff\n      and\n        /* \"ServiceChain.sol\":3745:3755  msg.sender */\n      caller\n        /* \"ServiceChain.sol\":3730:3830  submitApproval(msg.sender,waiter,false,empHours[waiter][index].date, empHours[waiter][index].hour,0) */\n      0xffffffffffffffffffffffffffffffffffffffff\n      and\n      0x62a0718d681b5a77ad80fbaf7e41ff461f77b69d49e3879cba8e045c85e2ac74\n        /* \"ServiceChain.sol\":3769:3777  empHours */\n      0x01\n        /* \"ServiceChain.sol\":3769:3785  empHours[waiter] */\n      0x00\n        /* \"ServiceChain.sol\":3778:3784  waiter */\n      dup8\n        /* \"ServiceChain.sol\":3769:3785  empHours[waiter] */\n      0xffffffffffffffffffffffffffffffffffffffff\n      and\n      0xffffffffffffffffffffffffffffffffffffffff\n      and\n      dup2\n      mstore\n      0x20\n      add\n      swap1\n      dup2\n      mstore\n      0x20\n      add\n      0x00\n      keccak256\n        /* \"ServiceChain.sol\":3786:3791  index */\n      dup6\n        /* \"ServiceChain.sol\":3769:3792  empHours[waiter][index] */\n      dup2\n      sload\n      dup2\n      lt\n      tag_139\n      jumpi\n      tag_140\n      tag_99\n      jump\t// in\n    tag_140:\n    tag_139:\n      swap1\n      0x00\n      mstore\n      keccak256(0x00, 0x20)\n      swap1\n      0x04\n      mul\n      add\n        /* \"ServiceChain.sol\":3769:3797  empHours[waiter][index].date */\n      0x00\n      add\n      sload\n        /* \"ServiceChain.sol\":3799:3807  empHours */\n      0x01\n        /* \"ServiceChain.sol\":3799:3815  empHours[waiter] */\n      0x00\n        /* \"ServiceChain.sol\":3808:3814  waiter */\n      dup9\n        /* \"ServiceChain.sol\":3799:3815  empHours[waiter] */\n      0xffffffffffffffffffffffffffffffffffffffff\n      and\n      0xffffffffffffffffffffffffffffffffffffffff\n      and\n      dup2\n      mstore\n      0x20\n      add\n      swap1\n      dup2\n      mstore\n      0x20\n      add\n      0x00\n      keccak256\n        /* \"ServiceChain.sol\":3816:3821  index */\n      dup7\n        /* \"ServiceChain.sol\":3799:3822  empHours[waiter][index] */\n      dup2\n      sload\n      dup2\n      lt\n      tag_142\n      jumpi\n      tag_143\n      tag_99\n      jump\t// in\n    tag_143:\n    tag_142:\n      swap1\n      0x00\n      mstore\n      keccak256(0x00, 0x20)\n      swap1\n      0x04\n      mul\n      add\n        /* \"ServiceChain.sol\":3799:3827  empHours[waiter][index].hour */\n      0x01\n      add\n      sload\n        /* \"ServiceChain.sol\":3828:3829  0 */\n      0x00\n        /* \"ServiceChain.sol\":3730:3830  submitApproval(msg.sender,waiter,false,empHours[waiter][index].date, empHours[waiter][index].hour,0) */\n      mload(0x40)\n      tag_145\n      swap4\n      swap3\n      swap2\n      swap1\n      tag_146\n      jump\t// in\n    tag_145:\n      mload(0x40)\n      dup1\n      swap2\n      sub\n      swap1\n      log4\n        /* \"ServiceChain.sol\":3894:3900  uint i */\n      0x00\n        /* \"ServiceChain.sol\":3902:3907  index */\n      dup2\n        /* \"ServiceChain.sol\":3894:3907  uint i =index */\n      swap1\n      pop\n        /* \"ServiceChain.sol\":3890:4010  for(uint i =index;i<empHours[waiter].length-1;i++){... */\n    tag_147:\n        /* \"ServiceChain.sol\":3934:3935  1 */\n      0x01\n        /* \"ServiceChain.sol\":3910:3918  empHours */\n      dup1\n        /* \"ServiceChain.sol\":3910:3926  empHours[waiter] */\n      0x00\n        /* \"ServiceChain.sol\":3919:3925  waiter */\n      dup6\n        /* \"ServiceChain.sol\":3910:3926  empHours[waiter] */\n      0xffffffffffffffffffffffffffffffffffffffff\n      and\n      0xffffffffffffffffffffffffffffffffffffffff\n      and\n      dup2\n      mstore\n      0x20\n      add\n      swap1\n      dup2\n      mstore\n      0x20\n      add\n      0x00\n      keccak256\n        /* \"ServiceChain.sol\":3910:3933  empHours[waiter].length */\n      dup1\n      sload\n      swap1\n      pop\n        /* \"ServiceChain.sol\":3910:3935  empHours[waiter].length-1 */\n      tag_150\n      swap2\n      swap1\n      tag_121\n      jump\t// in\n    tag_150:\n        /* \"ServiceChain.sol\":3908:3909  i */\n      dup2\n        /* \"ServiceChain.sol\":3908:3935  i<empHours[waiter].length-1 */\n      lt\n        /* \"ServiceChain.sol\":3890:4010  for(uint i =index;i<empHours[waiter].length-1;i++){... */\n      iszero\n      tag_148\n      jumpi\n        /* \"ServiceChain.sol\":3977:3985  empHours */\n      0x01\n        /* \"ServiceChain.sol\":3977:3993  empHours[waiter] */\n      0x00\n        /* \"ServiceChain.sol\":3986:3992  waiter */\n      dup5\n        /* \"ServiceChain.sol\":3977:3993  empHours[waiter] */\n      0xffffffffffffffffffffffffffffffffffffffff\n      and\n      0xffffffffffffffffffffffffffffffffffffffff\n      and\n      dup2\n      mstore\n      0x20\n      add\n      swap1\n      dup2\n      mstore\n      0x20\n      add\n      0x00\n      keccak256\n        /* \"ServiceChain.sol\":3996:3997  1 */\n      0x01\n        /* \"ServiceChain.sol\":3994:3995  i */\n      dup3\n        /* \"ServiceChain.sol\":3994:3997  i+1 */\n      tag_151\n      swap2\n      swap1\n      tag_123\n      jump\t// in\n    tag_151:\n        /* \"ServiceChain.sol\":3977:3998  empHours[waiter][i+1] */\n      dup2\n      sload\n      dup2\n      lt\n      tag_152\n      jumpi\n      tag_153\n      tag_99\n      jump\t// in\n    tag_153:\n    tag_152:\n      swap1\n      0x00\n      mstore\n      keccak256(0x00, 0x20)\n      swap1\n      0x04\n      mul\n      add\n        /* \"ServiceChain.sol\":3955:3963  empHours */\n      0x01\n        /* \"ServiceChain.sol\":3955:3971  empHours[waiter] */\n      0x00\n        /* \"ServiceChain.sol\":3964:3970  waiter */\n      dup6\n        /* \"ServiceChain.sol\":3955:3971  empHours[waiter] */\n      0xffffffffffffffffffffffffffffffffffffffff\n      and\n      0xffffffffffffffffffffffffffffffffffffffff\n      and\n      dup2\n      mstore\n      0x20\n      add\n      swap1\n      dup2\n      mstore\n      0x20\n      add\n      0x00\n      keccak256\n        /* \"ServiceChain.sol\":3972:3973  i */\n      dup3\n        /* \"ServiceChain.sol\":3955:3974  empHours[waiter][i] */\n      dup2\n      sload\n      dup2\n      lt\n      tag_155\n      jumpi\n      tag_156\n      tag_99\n      jump\t// in\n    tag_156:\n    tag_155:\n      swap1\n      0x00\n      mstore\n      keccak256(0x00, 0x20)\n      swap1\n      0x04\n      mul\n      add\n        /* \"ServiceChain.sol\":3955:3998  empHours[waiter][i] = empHours[waiter][i+1] */\n      0x00\n      dup3\n      add\n      sload\n      dup2\n      0x00\n      add\n      sstore\n      0x01\n      dup3\n      add\n      sload\n      dup2\n      0x01\n      add\n      sstore\n      0x02\n      dup3\n      add\n      sload\n      dup2\n      0x02\n      add\n      sstore\n      0x03\n      dup3\n      add\n      0x00\n      swap1\n      sload\n      swap1\n      0x0100\n      exp\n      swap1\n      div\n      0xff\n      and\n      dup2\n      0x03\n      add\n      exp(0x0100, 0x00)\n      dup2\n      sload\n      dup2\n      0xff\n      mul\n      not\n      and\n      swap1\n      dup4\n      iszero\n      iszero\n      mul\n      or\n      swap1\n      sstore\n      pop\n      swap1\n      pop\n      pop\n        /* \"ServiceChain.sol\":3936:3939  i++ */\n      dup1\n      dup1\n      tag_158\n      swap1\n      tag_131\n      jump\t// in\n    tag_158:\n      swap2\n      pop\n      pop\n        /* \"ServiceChain.sol\":3890:4010  for(uint i =index;i<empHours[waiter].length-1;i++){... */\n      jump(tag_147)\n    tag_148:\n      pop\n        /* \"ServiceChain.sol\":4020:4028  empHours */\n      0x01\n        /* \"ServiceChain.sol\":4020:4036  empHours[waiter] */\n      0x00\n        /* \"ServiceChain.sol\":4029:4035  waiter */\n      dup4\n        /* \"ServiceChain.sol\":4020:4036  empHours[waiter] */\n      0xffffffffffffffffffffffffffffffffffffffff\n      and\n      0xffffffffffffffffffffffffffffffffffffffff\n      and\n      dup2\n      mstore\n      0x20\n      add\n      swap1\n      dup2\n      mstore\n      0x20\n      add\n      0x00\n      keccak256\n        /* \"ServiceChain.sol\":4020:4042  empHours[waiter].pop() */\n      dup1\n      sload\n      dup1\n      tag_159\n      jumpi\n      tag_160\n      tag_134\n      jump\t// in\n    tag_160:\n    tag_159:\n      0x01\n      swap1\n      sub\n      dup2\n      dup2\n      swap1\n      0x00\n      mstore\n      keccak256(0x00, 0x20)\n      swap1\n      0x04\n      mul\n      add\n      0x00\n      dup1\n      dup3\n      add\n      0x00\n      swap1\n      sstore\n      0x01\n      dup3\n      add\n      0x00\n      swap1\n      sstore\n      0x02\n      dup3\n      add\n      0x00\n      swap1\n      sstore\n      0x03\n      dup3\n      add\n      exp(0x0100, 0x00)\n      dup2\n      sload\n      swap1\n      0xff\n      mul\n      not\n      and\n      swap1\n      sstore\n      pop\n      pop\n      swap1\n      sstore\n        /* \"ServiceChain.sol\":3480:4052  function denyHours(address waiter,uint index) public{... */\n      pop\n      pop\n      jump\t// out\n        /* \"ServiceChain.sol\":1529:1562  Transaction[] public transactions */\n    tag_56:\n      0x00\n      dup2\n      dup2\n      sload\n      dup2\n      lt\n      tag_162\n      jumpi\n      0x00\n      dup1\n      revert\n    tag_162:\n      swap1\n      0x00\n      mstore\n      keccak256(0x00, 0x20)\n      swap1\n      0x03\n      mul\n      add\n      0x00\n      swap2\n      pop\n      swap1\n      pop\n      dup1\n      0x00\n      add\n      0x00\n      swap1\n      sload\n      swap1\n      0x0100\n      exp\n      swap1\n      div\n      0xffffffffffffffffffffffffffffffffffffffff\n      and\n      swap1\n      dup1\n      0x01\n      add\n      sload\n      swap1\n      dup1\n      0x02\n      add\n      dup1\n      sload\n      tag_164\n      swap1\n      tag_165\n      jump\t// in\n    tag_164:\n      dup1\n      0x1f\n      add\n      0x20\n      dup1\n      swap2\n      div\n      mul\n      0x20\n      add\n      mload(0x40)\n      swap1\n      dup2\n      add\n      0x40\n      mstore\n      dup1\n      swap3\n      swap2\n      swap1\n      dup2\n      dup2\n      mstore\n      0x20\n      add\n      dup3\n      dup1\n      sload\n      tag_166\n      swap1\n      tag_165\n      jump\t// in\n    tag_166:\n      dup1\n      iszero\n      tag_167\n      jumpi\n      dup1\n      0x1f\n      lt\n      tag_168\n      jumpi\n      0x0100\n      dup1\n      dup4\n      sload\n      div\n      mul\n      dup4\n      mstore\n      swap2\n      0x20\n      add\n      swap2\n      jump(tag_167)\n    tag_168:\n      dup3\n      add\n      swap2\n      swap1\n      0x00\n      mstore\n      keccak256(0x00, 0x20)\n      swap1\n    tag_169:\n      dup2\n      sload\n      dup2\n      mstore\n      swap1\n      0x01\n      add\n      swap1\n      0x20\n      add\n      dup1\n      dup4\n      gt\n      tag_169\n      jumpi\n      dup3\n      swap1\n      sub\n      0x1f\n      and\n      dup3\n      add\n      swap2\n    tag_167:\n      pop\n      pop\n      pop\n      pop\n      pop\n      swap1\n      pop\n      dup4\n      jump\t// out\n        /* \"ServiceChain.sol\":4111:4228  function getHourLog(address waiter) public view returns(hourLog[] memory){... */\n    tag_63:\n        /* \"ServiceChain.sol\":4167:4183  hourLog[] memory */\n      0x60\n        /* \"ServiceChain.sol\":4202:4210  empHours */\n      0x01\n        /* \"ServiceChain.sol\":4202:4218  empHours[waiter] */\n      0x00\n        /* \"ServiceChain.sol\":4211:4217  waiter */\n      dup4\n        /* \"ServiceChain.sol\":4202:4218  empHours[waiter] */\n      0xffffffffffffffffffffffffffffffffffffffff\n      and\n      0xffffffffffffffffffffffffffffffffffffffff\n      and\n      dup2\n      mstore\n      0x20\n      add\n      swap1\n      dup2\n      mstore\n      0x20\n      add\n      0x00\n      keccak256\n        /* \"ServiceChain.sol\":4195:4218  return empHours[waiter] */\n      dup1\n      sload\n      dup1\n      0x20\n      mul\n      0x20\n      add\n      mload(0x40)\n      swap1\n      dup2\n      add\n      0x40\n      mstore\n      dup1\n      swap3\n      swap2\n      swap1\n      dup2\n      dup2\n      mstore\n      0x20\n      add\n      0x00\n      swap1\n    tag_171:\n      dup3\n      dup3\n      lt\n      iszero\n      tag_172\n      jumpi\n      dup4\n      dup3\n      swap1\n      0x00\n      mstore\n      keccak256(0x00, 0x20)\n      swap1\n      0x04\n      mul\n      add\n      mload(0x40)\n      dup1\n      0x80\n      add\n      0x40\n      mstore\n      swap1\n      dup2\n      0x00\n      dup3\n      add\n      sload\n      dup2\n      mstore\n      0x20\n      add\n      0x01\n      dup3\n      add\n      sload\n      dup2\n      mstore\n      0x20\n      add\n      0x02\n      dup3\n      add\n      sload\n      dup2\n      mstore\n      0x20\n      add\n      0x03\n      dup3\n      add\n      0x00\n      swap1\n      sload\n      swap1\n      0x0100\n      exp\n      swap1\n      div\n      0xff\n      and\n      iszero\n      iszero\n      iszero\n      iszero\n      dup2\n      mstore\n      pop\n      pop\n      dup2\n      mstore\n      0x20\n      add\n      swap1\n      0x01\n      add\n      swap1\n      jump(tag_171)\n    tag_172:\n      pop\n      pop\n      pop\n      pop\n      swap1\n      pop\n        /* \"ServiceChain.sol\":4111:4228  function getHourLog(address waiter) public view returns(hourLog[] memory){... */\n      swap2\n      swap1\n      pop\n      jump\t// out\n        /* \"ServiceChain.sol\":4250:4413  function sendRatings(address waiter,uint rating) public {... */\n    tag_69:\n        /* \"ServiceChain.sol\":4335:4336  0 */\n      0x00\n        /* \"ServiceChain.sol\":4325:4331  rating */\n      dup2\n        /* \"ServiceChain.sol\":4325:4336  rating >= 0 */\n      lt\n      iszero\n        /* \"ServiceChain.sol\":4325:4350  rating >= 0 && rating <=5 */\n      dup1\n      iszero\n      tag_175\n      jumpi\n      pop\n        /* \"ServiceChain.sol\":4349:4350  5 */\n      0x05\n        /* \"ServiceChain.sol\":4340:4346  rating */\n      dup2\n        /* \"ServiceChain.sol\":4340:4350  rating <=5 */\n      gt\n      iszero\n        /* \"ServiceChain.sol\":4325:4350  rating >= 0 && rating <=5 */\n    tag_175:\n        /* \"ServiceChain.sol\":4317:4351  require(rating >= 0 && rating <=5) */\n      tag_176\n      jumpi\n      0x00\n      dup1\n      revert\n    tag_176:\n        /* \"ServiceChain.sol\":4398:4404  rating */\n      dup1\n        /* \"ServiceChain.sol\":4391:4397  waiter */\n      dup3\n        /* \"ServiceChain.sol\":4367:4405  submitRating(msg.sender,waiter,rating) */\n      0xffffffffffffffffffffffffffffffffffffffff\n      and\n        /* \"ServiceChain.sol\":4380:4390  msg.sender */\n      caller\n        /* \"ServiceChain.sol\":4367:4405  submitRating(msg.sender,waiter,rating) */\n      0xffffffffffffffffffffffffffffffffffffffff\n      and\n      0x5435029ae8e53f5303b6dbda07be9beb09ae106923c28bf30dc3c46852588f04\n      mload(0x40)\n      mload(0x40)\n      dup1\n      swap2\n      sub\n      swap1\n      log4\n        /* \"ServiceChain.sol\":4250:4413  function sendRatings(address waiter,uint rating) public {... */\n      pop\n      pop\n      jump\t// out\n        /* \"ServiceChain.sol\":4709:4876  function sendTip(address payable recipient) public payable {... */\n    tag_73:\n        /* \"ServiceChain.sol\":4779:4788  recipient */\n      dup1\n        /* \"ServiceChain.sol\":4779:4797  recipient.transfer */\n      0xffffffffffffffffffffffffffffffffffffffff\n      and\n        /* \"ServiceChain.sol\":4779:4808  recipient.transfer(msg.value) */\n      0x08fc\n        /* \"ServiceChain.sol\":4798:4807  msg.value */\n      callvalue\n        /* \"ServiceChain.sol\":4779:4808  recipient.transfer(msg.value) */\n      swap1\n      dup2\n      iszero\n      mul\n      swap1\n      mload(0x40)\n      0x00\n      mload(0x40)\n      dup1\n      dup4\n      sub\n      dup2\n      dup6\n      dup9\n      dup9\n      call\n      swap4\n      pop\n      pop\n      pop\n      pop\n      iszero\n      dup1\n      iszero\n      tag_179\n      jumpi\n      returndatasize\n      0x00\n      dup1\n      returndatacopy\n      revert(0x00, returndatasize)\n    tag_179:\n      pop\n        /* \"ServiceChain.sol\":4846:4855  recipient */\n      dup1\n        /* \"ServiceChain.sol\":4824:4868  submitTip(msg.sender, recipient, msg.value ) */\n      0xffffffffffffffffffffffffffffffffffffffff\n      and\n        /* \"ServiceChain.sol\":4834:4844  msg.sender */\n      caller\n        /* \"ServiceChain.sol\":4824:4868  submitTip(msg.sender, recipient, msg.value ) */\n      0xffffffffffffffffffffffffffffffffffffffff\n      and\n      0xad011377252e79c9d574ced1048c7d7020d2abd44385576062139ed308dfe972\n        /* \"ServiceChain.sol\":4857:4866  msg.value */\n      callvalue\n        /* \"ServiceChain.sol\":4824:4868  submitTip(msg.sender, recipient, msg.value ) */\n      mload(0x40)\n      tag_180\n      swap2\n      swap1\n      tag_28\n      jump\t// in\n    tag_180:\n      mload(0x40)\n      dup1\n      swap2\n      sub\n      swap1\n      log3\n        /* \"ServiceChain.sol\":4709:4876  function sendTip(address payable recipient) public payable {... */\n      pop\n      jump\t// out\n        /* \"ServiceChain.sol\":1913:2057  function setHourlyRate(uint rate) public {... */\n    tag_77:\n        /* \"ServiceChain.sol\":1998:2013  block.timestamp */\n      timestamp\n        /* \"ServiceChain.sol\":1987:1997  msg.sender */\n      caller\n        /* \"ServiceChain.sol\":1970:2019  submitHourlyRate(msg.sender,block.timestamp,rate) */\n      0xffffffffffffffffffffffffffffffffffffffff\n      and\n      0x556a8d88a81363d3d82e0a4349b1c101aa81b26dd3f3c9e97a447b9f6cafbf53\n        /* \"ServiceChain.sol\":2014:2018  rate */\n      dup4\n        /* \"ServiceChain.sol\":1970:2019  submitHourlyRate(msg.sender,block.timestamp,rate) */\n      mload(0x40)\n      tag_182\n      swap2\n      swap1\n      tag_28\n      jump\t// in\n    tag_182:\n      mload(0x40)\n      dup1\n      swap2\n      sub\n      swap1\n      log3\n        /* \"ServiceChain.sol\":2043:2047  rate */\n      dup1\n        /* \"ServiceChain.sol\":2030:2040  hourlyRate */\n      0x04\n        /* \"ServiceChain.sol\":2030:2047  hourlyRate = rate */\n      dup2\n      swap1\n      sstore\n      pop\n        /* \"ServiceChain.sol\":1913:2057  function setHourlyRate(uint rate) public {... */\n      pop\n      jump\t// out\n        /* \"ServiceChain.sol\":1625:1642  string public org */\n    tag_80:\n      0x02\n      dup1\n      sload\n      tag_183\n      swap1\n      tag_165\n      jump\t// in\n    tag_183:\n      dup1\n      0x1f\n      add\n      0x20\n      dup1\n      swap2\n      div\n      mul\n      0x20\n      add\n      mload(0x40)\n      swap1\n      dup2\n      add\n      0x40\n      mstore\n      dup1\n      swap3\n      swap2\n      swap1\n      dup2\n      dup2\n      mstore\n      0x20\n      add\n      dup3\n      dup1\n      sload\n      tag_184\n      swap1\n      tag_165\n      jump\t// in\n    tag_184:\n      dup1\n      iszero\n      tag_185\n      jumpi\n      dup1\n      0x1f\n      lt\n      tag_186\n      jumpi\n      0x0100\n      dup1\n      dup4\n      sload\n      div\n      mul\n      dup4\n      mstore\n      swap2\n      0x20\n      add\n      swap2\n      jump(tag_185)\n    tag_186:\n      dup3\n      add\n      swap2\n      swap1\n      0x00\n      mstore\n      keccak256(0x00, 0x20)\n      swap1\n    tag_187:\n      dup2\n      sload\n      dup2\n      mstore\n      swap1\n      0x01\n      add\n      swap1\n      0x20\n      add\n      dup1\n      dup4\n      gt\n      tag_187\n      jumpi\n      dup3\n      swap1\n      sub\n      0x1f\n      and\n      dup3\n      add\n      swap2\n    tag_185:\n      pop\n      pop\n      pop\n      pop\n      pop\n      dup2\n      jump\t// out\n        /* \"ServiceChain.sol\":4456:4582  function deposit() public payable {... */\n    tag_84:\n        /* \"ServiceChain.sol\":4514:4524  msg.sender */\n      caller\n        /* \"ServiceChain.sol\":4506:4574  Deposit(msg.sender,msg.value, address(this).balance,block.timestamp) */\n      0xffffffffffffffffffffffffffffffffffffffff\n      and\n      0x36af321ec8d3c75236829c5317affd40ddb308863a1236d2d277a4025cccee1e\n        /* \"ServiceChain.sol\":4525:4534  msg.value */\n      callvalue\n        /* \"ServiceChain.sol\":4536:4557  address(this).balance */\n      selfbalance\n        /* \"ServiceChain.sol\":4558:4573  block.timestamp */\n      timestamp\n        /* \"ServiceChain.sol\":4506:4574  Deposit(msg.sender,msg.value, address(this).balance,block.timestamp) */\n      mload(0x40)\n      tag_189\n      swap4\n      swap3\n      swap2\n      swap1\n      tag_109\n      jump\t// in\n    tag_189:\n      mload(0x40)\n      dup1\n      swap2\n      sub\n      swap1\n      log2\n        /* \"ServiceChain.sol\":4456:4582  function deposit() public payable {... */\n      jump\t// out\n        /* \"#utility.yul\":88:205   */\n    tag_191:\n        /* \"#utility.yul\":197:198   */\n      0x00\n        /* \"#utility.yul\":194:195   */\n      dup1\n        /* \"#utility.yul\":187:199   */\n      revert\n        /* \"#utility.yul\":334:411   */\n    tag_193:\n        /* \"#utility.yul\":371:378   */\n      0x00\n        /* \"#utility.yul\":400:405   */\n      dup2\n        /* \"#utility.yul\":389:405   */\n      swap1\n      pop\n        /* \"#utility.yul\":334:411   */\n      swap2\n      swap1\n      pop\n      jump\t// out\n        /* \"#utility.yul\":417:539   */\n    tag_194:\n        /* \"#utility.yul\":490:514   */\n      tag_238\n        /* \"#utility.yul\":508:513   */\n      dup2\n        /* \"#utility.yul\":490:514   */\n      tag_193\n      jump\t// in\n    tag_238:\n        /* \"#utility.yul\":483:488   */\n      dup2\n        /* \"#utility.yul\":480:515   */\n      eq\n        /* \"#utility.yul\":470:533   */\n      tag_239\n      jumpi\n        /* \"#utility.yul\":529:530   */\n      0x00\n        /* \"#utility.yul\":526:527   */\n      dup1\n        /* \"#utility.yul\":519:531   */\n      revert\n        /* \"#utility.yul\":470:533   */\n    tag_239:\n        /* \"#utility.yul\":417:539   */\n      pop\n      jump\t// out\n        /* \"#utility.yul\":545:684   */\n    tag_195:\n        /* \"#utility.yul\":591:596   */\n      0x00\n        /* \"#utility.yul\":629:635   */\n      dup2\n        /* \"#utility.yul\":616:636   */\n      calldataload\n        /* \"#utility.yul\":607:636   */\n      swap1\n      pop\n        /* \"#utility.yul\":645:678   */\n      tag_241\n        /* \"#utility.yul\":672:677   */\n      dup2\n        /* \"#utility.yul\":645:678   */\n      tag_194\n      jump\t// in\n    tag_241:\n        /* \"#utility.yul\":545:684   */\n      swap3\n      swap2\n      pop\n      pop\n      jump\t// out\n        /* \"#utility.yul\":690:1019   */\n    tag_22:\n        /* \"#utility.yul\":749:755   */\n      0x00\n        /* \"#utility.yul\":798:800   */\n      0x20\n        /* \"#utility.yul\":786:795   */\n      dup3\n        /* \"#utility.yul\":777:784   */\n      dup5\n        /* \"#utility.yul\":773:796   */\n      sub\n        /* \"#utility.yul\":769:801   */\n      slt\n        /* \"#utility.yul\":766:885   */\n      iszero\n      tag_243\n      jumpi\n        /* \"#utility.yul\":804:883   */\n      tag_244\n      tag_191\n      jump\t// in\n    tag_244:\n        /* \"#utility.yul\":766:885   */\n    tag_243:\n        /* \"#utility.yul\":924:925   */\n      0x00\n        /* \"#utility.yul\":949:1002   */\n      tag_245\n        /* \"#utility.yul\":994:1001   */\n      dup5\n        /* \"#utility.yul\":985:991   */\n      dup3\n        /* \"#utility.yul\":974:983   */\n      dup6\n        /* \"#utility.yul\":970:992   */\n      add\n        /* \"#utility.yul\":949:1002   */\n      tag_195\n      jump\t// in\n    tag_245:\n        /* \"#utility.yul\":939:1002   */\n      swap2\n      pop\n        /* \"#utility.yul\":895:1012   */\n      pop\n        /* \"#utility.yul\":690:1019   */\n      swap3\n      swap2\n      pop\n      pop\n      jump\t// out\n        /* \"#utility.yul\":1025:1143   */\n    tag_196:\n        /* \"#utility.yul\":1112:1136   */\n      tag_247\n        /* \"#utility.yul\":1130:1135   */\n      dup2\n        /* \"#utility.yul\":1112:1136   */\n      tag_193\n      jump\t// in\n    tag_247:\n        /* \"#utility.yul\":1107:1110   */\n      dup3\n        /* \"#utility.yul\":1100:1137   */\n      mstore\n        /* \"#utility.yul\":1025:1143   */\n      pop\n      pop\n      jump\t// out\n        /* \"#utility.yul\":1149:1371   */\n    tag_28:\n        /* \"#utility.yul\":1242:1246   */\n      0x00\n        /* \"#utility.yul\":1280:1282   */\n      0x20\n        /* \"#utility.yul\":1269:1278   */\n      dup3\n        /* \"#utility.yul\":1265:1283   */\n      add\n        /* \"#utility.yul\":1257:1283   */\n      swap1\n      pop\n        /* \"#utility.yul\":1293:1364   */\n      tag_249\n        /* \"#utility.yul\":1361:1362   */\n      0x00\n        /* \"#utility.yul\":1350:1359   */\n      dup4\n        /* \"#utility.yul\":1346:1363   */\n      add\n        /* \"#utility.yul\":1337:1343   */\n      dup5\n        /* \"#utility.yul\":1293:1364   */\n      tag_196\n      jump\t// in\n    tag_249:\n        /* \"#utility.yul\":1149:1371   */\n      swap3\n      swap2\n      pop\n      pop\n      jump\t// out\n        /* \"#utility.yul\":1377:1503   */\n    tag_197:\n        /* \"#utility.yul\":1414:1421   */\n      0x00\n        /* \"#utility.yul\":1454:1496   */\n      0xffffffffffffffffffffffffffffffffffffffff\n        /* \"#utility.yul\":1447:1452   */\n      dup3\n        /* \"#utility.yul\":1443:1497   */\n      and\n        /* \"#utility.yul\":1432:1497   */\n      swap1\n      pop\n        /* \"#utility.yul\":1377:1503   */\n      swap2\n      swap1\n      pop\n      jump\t// out\n        /* \"#utility.yul\":1509:1605   */\n    tag_198:\n        /* \"#utility.yul\":1546:1553   */\n      0x00\n        /* \"#utility.yul\":1575:1599   */\n      tag_252\n        /* \"#utility.yul\":1593:1598   */\n      dup3\n        /* \"#utility.yul\":1575:1599   */\n      tag_197\n      jump\t// in\n    tag_252:\n        /* \"#utility.yul\":1564:1599   */\n      swap1\n      pop\n        /* \"#utility.yul\":1509:1605   */\n      swap2\n      swap1\n      pop\n      jump\t// out\n        /* \"#utility.yul\":1611:1733   */\n    tag_199:\n        /* \"#utility.yul\":1684:1708   */\n      tag_254\n        /* \"#utility.yul\":1702:1707   */\n      dup2\n        /* \"#utility.yul\":1684:1708   */\n      tag_198\n      jump\t// in\n    tag_254:\n        /* \"#utility.yul\":1677:1682   */\n      dup2\n        /* \"#utility.yul\":1674:1709   */\n      eq\n        /* \"#utility.yul\":1664:1727   */\n      tag_255\n      jumpi\n        /* \"#utility.yul\":1723:1724   */\n      0x00\n        /* \"#utility.yul\":1720:1721   */\n      dup1\n        /* \"#utility.yul\":1713:1725   */\n      revert\n        /* \"#utility.yul\":1664:1727   */\n    tag_255:\n        /* \"#utility.yul\":1611:1733   */\n      pop\n      jump\t// out\n        /* \"#utility.yul\":1739:1878   */\n    tag_200:\n        /* \"#utility.yul\":1785:1790   */\n      0x00\n        /* \"#utility.yul\":1823:1829   */\n      dup2\n        /* \"#utility.yul\":1810:1830   */\n      calldataload\n        /* \"#utility.yul\":1801:1830   */\n      swap1\n      pop\n        /* \"#utility.yul\":1839:1872   */\n      tag_257\n        /* \"#utility.yul\":1866:1871   */\n      dup2\n        /* \"#utility.yul\":1839:1872   */\n      tag_199\n      jump\t// in\n    tag_257:\n        /* \"#utility.yul\":1739:1878   */\n      swap3\n      swap2\n      pop\n      pop\n      jump\t// out\n        /* \"#utility.yul\":1884:2358   */\n    tag_32:\n        /* \"#utility.yul\":1952:1958   */\n      0x00\n        /* \"#utility.yul\":1960:1966   */\n      dup1\n        /* \"#utility.yul\":2009:2011   */\n      0x40\n        /* \"#utility.yul\":1997:2006   */\n      dup4\n        /* \"#utility.yul\":1988:1995   */\n      dup6\n        /* \"#utility.yul\":1984:2007   */\n      sub\n        /* \"#utility.yul\":1980:2012   */\n      slt\n        /* \"#utility.yul\":1977:2096   */\n      iszero\n      tag_259\n      jumpi\n        /* \"#utility.yul\":2015:2094   */\n      tag_260\n      tag_191\n      jump\t// in\n    tag_260:\n        /* \"#utility.yul\":1977:2096   */\n    tag_259:\n        /* \"#utility.yul\":2135:2136   */\n      0x00\n        /* \"#utility.yul\":2160:2213   */\n      tag_261\n        /* \"#utility.yul\":2205:2212   */\n      dup6\n        /* \"#utility.yul\":2196:2202   */\n      dup3\n        /* \"#utility.yul\":2185:2194   */\n      dup7\n        /* \"#utility.yul\":2181:2203   */\n      add\n        /* \"#utility.yul\":2160:2213   */\n      tag_200\n      jump\t// in\n    tag_261:\n        /* \"#utility.yul\":2150:2213   */\n      swap3\n      pop\n        /* \"#utility.yul\":2106:2223   */\n      pop\n        /* \"#utility.yul\":2262:2264   */\n      0x20\n        /* \"#utility.yul\":2288:2341   */\n      tag_262\n        /* \"#utility.yul\":2333:2340   */\n      dup6\n        /* \"#utility.yul\":2324:2330   */\n      dup3\n        /* \"#utility.yul\":2313:2322   */\n      dup7\n        /* \"#utility.yul\":2309:2331   */\n      add\n        /* \"#utility.yul\":2288:2341   */\n      tag_195\n      jump\t// in\n    tag_262:\n        /* \"#utility.yul\":2278:2341   */\n      swap2\n      pop\n        /* \"#utility.yul\":2233:2351   */\n      pop\n        /* \"#utility.yul\":1884:2358   */\n      swap3\n      pop\n      swap3\n      swap1\n      pop\n      jump\t// out\n        /* \"#utility.yul\":2364:2454   */\n    tag_201:\n        /* \"#utility.yul\":2398:2405   */\n      0x00\n        /* \"#utility.yul\":2441:2446   */\n      dup2\n        /* \"#utility.yul\":2434:2447   */\n      iszero\n        /* \"#utility.yul\":2427:2448   */\n      iszero\n        /* \"#utility.yul\":2416:2448   */\n      swap1\n      pop\n        /* \"#utility.yul\":2364:2454   */\n      swap2\n      swap1\n      pop\n      jump\t// out\n        /* \"#utility.yul\":2460:2569   */\n    tag_202:\n        /* \"#utility.yul\":2541:2562   */\n      tag_265\n        /* \"#utility.yul\":2556:2561   */\n      dup2\n        /* \"#utility.yul\":2541:2562   */\n      tag_201\n      jump\t// in\n    tag_265:\n        /* \"#utility.yul\":2536:2539   */\n      dup3\n        /* \"#utility.yul\":2529:2563   */\n      mstore\n        /* \"#utility.yul\":2460:2569   */\n      pop\n      pop\n      jump\t// out\n        /* \"#utility.yul\":2575:3116   */\n    tag_35:\n        /* \"#utility.yul\":2746:2750   */\n      0x00\n        /* \"#utility.yul\":2784:2787   */\n      0x80\n        /* \"#utility.yul\":2773:2782   */\n      dup3\n        /* \"#utility.yul\":2769:2788   */\n      add\n        /* \"#utility.yul\":2761:2788   */\n      swap1\n      pop\n        /* \"#utility.yul\":2798:2869   */\n      tag_267\n        /* \"#utility.yul\":2866:2867   */\n      0x00\n        /* \"#utility.yul\":2855:2864   */\n      dup4\n        /* \"#utility.yul\":2851:2868   */\n      add\n        /* \"#utility.yul\":2842:2848   */\n      dup8\n        /* \"#utility.yul\":2798:2869   */\n      tag_196\n      jump\t// in\n    tag_267:\n        /* \"#utility.yul\":2879:2951   */\n      tag_268\n        /* \"#utility.yul\":2947:2949   */\n      0x20\n        /* \"#utility.yul\":2936:2945   */\n      dup4\n        /* \"#utility.yul\":2932:2950   */\n      add\n        /* \"#utility.yul\":2923:2929   */\n      dup7\n        /* \"#utility.yul\":2879:2951   */\n      tag_196\n      jump\t// in\n    tag_268:\n        /* \"#utility.yul\":2961:3033   */\n      tag_269\n        /* \"#utility.yul\":3029:3031   */\n      0x40\n        /* \"#utility.yul\":3018:3027   */\n      dup4\n        /* \"#utility.yul\":3014:3032   */\n      add\n        /* \"#utility.yul\":3005:3011   */\n      dup6\n        /* \"#utility.yul\":2961:3033   */\n      tag_196\n      jump\t// in\n    tag_269:\n        /* \"#utility.yul\":3043:3109   */\n      tag_270\n        /* \"#utility.yul\":3105:3107   */\n      0x60\n        /* \"#utility.yul\":3094:3103   */\n      dup4\n        /* \"#utility.yul\":3090:3108   */\n      add\n        /* \"#utility.yul\":3081:3087   */\n      dup5\n        /* \"#utility.yul\":3043:3109   */\n      tag_202\n      jump\t// in\n    tag_270:\n        /* \"#utility.yul\":2575:3116   */\n      swap6\n      swap5\n      pop\n      pop\n      pop\n      pop\n      pop\n      jump\t// out\n        /* \"#utility.yul\":3122:3226   */\n    tag_203:\n        /* \"#utility.yul\":3167:3174   */\n      0x00\n        /* \"#utility.yul\":3196:3220   */\n      tag_272\n        /* \"#utility.yul\":3214:3219   */\n      dup3\n        /* \"#utility.yul\":3196:3220   */\n      tag_197\n      jump\t// in\n    tag_272:\n        /* \"#utility.yul\":3185:3220   */\n      swap1\n      pop\n        /* \"#utility.yul\":3122:3226   */\n      swap2\n      swap1\n      pop\n      jump\t// out\n        /* \"#utility.yul\":3232:3370   */\n    tag_204:\n        /* \"#utility.yul\":3313:3345   */\n      tag_274\n        /* \"#utility.yul\":3339:3344   */\n      dup2\n        /* \"#utility.yul\":3313:3345   */\n      tag_203\n      jump\t// in\n    tag_274:\n        /* \"#utility.yul\":3306:3311   */\n      dup2\n        /* \"#utility.yul\":3303:3346   */\n      eq\n        /* \"#utility.yul\":3293:3364   */\n      tag_275\n      jumpi\n        /* \"#utility.yul\":3360:3361   */\n      0x00\n        /* \"#utility.yul\":3357:3358   */\n      dup1\n        /* \"#utility.yul\":3350:3362   */\n      revert\n        /* \"#utility.yul\":3293:3364   */\n    tag_275:\n        /* \"#utility.yul\":3232:3370   */\n      pop\n      jump\t// out\n        /* \"#utility.yul\":3376:3531   */\n    tag_205:\n        /* \"#utility.yul\":3430:3435   */\n      0x00\n        /* \"#utility.yul\":3468:3474   */\n      dup2\n        /* \"#utility.yul\":3455:3475   */\n      calldataload\n        /* \"#utility.yul\":3446:3475   */\n      swap1\n      pop\n        /* \"#utility.yul\":3484:3525   */\n      tag_277\n        /* \"#utility.yul\":3519:3524   */\n      dup2\n        /* \"#utility.yul\":3484:3525   */\n      tag_204\n      jump\t// in\n    tag_277:\n        /* \"#utility.yul\":3376:3531   */\n      swap3\n      swap2\n      pop\n      pop\n      jump\t// out\n        /* \"#utility.yul\":3537:4027   */\n    tag_38:\n        /* \"#utility.yul\":3613:3619   */\n      0x00\n        /* \"#utility.yul\":3621:3627   */\n      dup1\n        /* \"#utility.yul\":3670:3672   */\n      0x40\n        /* \"#utility.yul\":3658:3667   */\n      dup4\n        /* \"#utility.yul\":3649:3656   */\n      dup6\n        /* \"#utility.yul\":3645:3668   */\n      sub\n        /* \"#utility.yul\":3641:3673   */\n      slt\n        /* \"#utility.yul\":3638:3757   */\n      iszero\n      tag_279\n      jumpi\n        /* \"#utility.yul\":3676:3755   */\n      tag_280\n      tag_191\n      jump\t// in\n    tag_280:\n        /* \"#utility.yul\":3638:3757   */\n    tag_279:\n        /* \"#utility.yul\":3796:3797   */\n      0x00\n        /* \"#utility.yul\":3821:3882   */\n      tag_281\n        /* \"#utility.yul\":3874:3881   */\n      dup6\n        /* \"#utility.yul\":3865:3871   */\n      dup3\n        /* \"#utility.yul\":3854:3863   */\n      dup7\n        /* \"#utility.yul\":3850:3872   */\n      add\n        /* \"#utility.yul\":3821:3882   */\n      tag_205\n      jump\t// in\n    tag_281:\n        /* \"#utility.yul\":3811:3882   */\n      swap3\n      pop\n        /* \"#utility.yul\":3767:3892   */\n      pop\n        /* \"#utility.yul\":3931:3933   */\n      0x20\n        /* \"#utility.yul\":3957:4010   */\n      tag_282\n        /* \"#utility.yul\":4002:4009   */\n      dup6\n        /* \"#utility.yul\":3993:3999   */\n      dup3\n        /* \"#utility.yul\":3982:3991   */\n      dup7\n        /* \"#utility.yul\":3978:4000   */\n      add\n        /* \"#utility.yul\":3957:4010   */\n      tag_195\n      jump\t// in\n    tag_282:\n        /* \"#utility.yul\":3947:4010   */\n      swap2\n      pop\n        /* \"#utility.yul\":3902:4020   */\n      pop\n        /* \"#utility.yul\":3537:4027   */\n      swap3\n      pop\n      swap3\n      swap1\n      pop\n      jump\t// out\n        /* \"#utility.yul\":4033:4151   */\n    tag_206:\n        /* \"#utility.yul\":4120:4144   */\n      tag_284\n        /* \"#utility.yul\":4138:4143   */\n      dup2\n        /* \"#utility.yul\":4120:4144   */\n      tag_198\n      jump\t// in\n    tag_284:\n        /* \"#utility.yul\":4115:4118   */\n      dup3\n        /* \"#utility.yul\":4108:4145   */\n      mstore\n        /* \"#utility.yul\":4033:4151   */\n      pop\n      pop\n      jump\t// out\n        /* \"#utility.yul\":4157:4379   */\n    tag_44:\n        /* \"#utility.yul\":4250:4254   */\n      0x00\n        /* \"#utility.yul\":4288:4290   */\n      0x20\n        /* \"#utility.yul\":4277:4286   */\n      dup3\n        /* \"#utility.yul\":4273:4291   */\n      add\n        /* \"#utility.yul\":4265:4291   */\n      swap1\n      pop\n        /* \"#utility.yul\":4301:4372   */\n      tag_286\n        /* \"#utility.yul\":4369:4370   */\n      0x00\n        /* \"#utility.yul\":4358:4367   */\n      dup4\n        /* \"#utility.yul\":4354:4371   */\n      add\n        /* \"#utility.yul\":4345:4351   */\n      dup5\n        /* \"#utility.yul\":4301:4372   */\n      tag_206\n      jump\t// in\n    tag_286:\n        /* \"#utility.yul\":4157:4379   */\n      swap3\n      swap2\n      pop\n      pop\n      jump\t// out\n        /* \"#utility.yul\":4385:4483   */\n    tag_207:\n        /* \"#utility.yul\":4436:4442   */\n      0x00\n        /* \"#utility.yul\":4470:4475   */\n      dup2\n        /* \"#utility.yul\":4464:4476   */\n      mload\n        /* \"#utility.yul\":4454:4476   */\n      swap1\n      pop\n        /* \"#utility.yul\":4385:4483   */\n      swap2\n      swap1\n      pop\n      jump\t// out\n        /* \"#utility.yul\":4489:4657   */\n    tag_208:\n        /* \"#utility.yul\":4572:4583   */\n      0x00\n        /* \"#utility.yul\":4606:4612   */\n      dup3\n        /* \"#utility.yul\":4601:4604   */\n      dup3\n        /* \"#utility.yul\":4594:4613   */\n      mstore\n        /* \"#utility.yul\":4646:4650   */\n      0x20\n        /* \"#utility.yul\":4641:4644   */\n      dup3\n        /* \"#utility.yul\":4637:4651   */\n      add\n        /* \"#utility.yul\":4622:4651   */\n      swap1\n      pop\n        /* \"#utility.yul\":4489:4657   */\n      swap3\n      swap2\n      pop\n      pop\n      jump\t// out\n        /* \"#utility.yul\":4663:4909   */\n    tag_209:\n        /* \"#utility.yul\":4744:4745   */\n      0x00\n        /* \"#utility.yul\":4754:4867   */\n    tag_290:\n        /* \"#utility.yul\":4768:4774   */\n      dup4\n        /* \"#utility.yul\":4765:4766   */\n      dup2\n        /* \"#utility.yul\":4762:4775   */\n      lt\n        /* \"#utility.yul\":4754:4867   */\n      iszero\n      tag_292\n      jumpi\n        /* \"#utility.yul\":4853:4854   */\n      dup1\n        /* \"#utility.yul\":4848:4851   */\n      dup3\n        /* \"#utility.yul\":4844:4855   */\n      add\n        /* \"#utility.yul\":4838:4856   */\n      mload\n        /* \"#utility.yul\":4834:4835   */\n      dup2\n        /* \"#utility.yul\":4829:4832   */\n      dup5\n        /* \"#utility.yul\":4825:4836   */\n      add\n        /* \"#utility.yul\":4818:4857   */\n      mstore\n        /* \"#utility.yul\":4790:4792   */\n      0x20\n        /* \"#utility.yul\":4787:4788   */\n      dup2\n        /* \"#utility.yul\":4783:4793   */\n      add\n        /* \"#utility.yul\":4778:4793   */\n      swap1\n      pop\n        /* \"#utility.yul\":4754:4867   */\n      jump(tag_290)\n    tag_292:\n        /* \"#utility.yul\":4901:4902   */\n      0x00\n        /* \"#utility.yul\":4892:4898   */\n      dup5\n        /* \"#utility.yul\":4887:4890   */\n      dup5\n        /* \"#utility.yul\":4883:4899   */\n      add\n        /* \"#utility.yul\":4876:4903   */\n      mstore\n        /* \"#utility.yul\":4725:4909   */\n      pop\n        /* \"#utility.yul\":4663:4909   */\n      pop\n      pop\n      pop\n      jump\t// out\n        /* \"#utility.yul\":4915:5017   */\n    tag_210:\n        /* \"#utility.yul\":4956:4962   */\n      0x00\n        /* \"#utility.yul\":5007:5009   */\n      0x1f\n        /* \"#utility.yul\":5003:5010   */\n      not\n        /* \"#utility.yul\":4998:5000   */\n      0x1f\n        /* \"#utility.yul\":4991:4996   */\n      dup4\n        /* \"#utility.yul\":4987:5001   */\n      add\n        /* \"#utility.yul\":4983:5011   */\n      and\n        /* \"#utility.yul\":4973:5011   */\n      swap1\n      pop\n        /* \"#utility.yul\":4915:5017   */\n      swap2\n      swap1\n      pop\n      jump\t// out\n        /* \"#utility.yul\":5023:5396   */\n    tag_211:\n        /* \"#utility.yul\":5109:5112   */\n      0x00\n        /* \"#utility.yul\":5137:5175   */\n      tag_295\n        /* \"#utility.yul\":5169:5174   */\n      dup3\n        /* \"#utility.yul\":5137:5175   */\n      tag_207\n      jump\t// in\n    tag_295:\n        /* \"#utility.yul\":5191:5261   */\n      tag_296\n        /* \"#utility.yul\":5254:5260   */\n      dup2\n        /* \"#utility.yul\":5249:5252   */\n      dup6\n        /* \"#utility.yul\":5191:5261   */\n      tag_208\n      jump\t// in\n    tag_296:\n        /* \"#utility.yul\":5184:5261   */\n      swap4\n      pop\n        /* \"#utility.yul\":5270:5335   */\n      tag_297\n        /* \"#utility.yul\":5328:5334   */\n      dup2\n        /* \"#utility.yul\":5323:5326   */\n      dup6\n        /* \"#utility.yul\":5316:5320   */\n      0x20\n        /* \"#utility.yul\":5309:5314   */\n      dup7\n        /* \"#utility.yul\":5305:5321   */\n      add\n        /* \"#utility.yul\":5270:5335   */\n      tag_209\n      jump\t// in\n    tag_297:\n        /* \"#utility.yul\":5360:5389   */\n      tag_298\n        /* \"#utility.yul\":5382:5388   */\n      dup2\n        /* \"#utility.yul\":5360:5389   */\n      tag_210\n      jump\t// in\n    tag_298:\n        /* \"#utility.yul\":5355:5358   */\n      dup5\n        /* \"#utility.yul\":5351:5390   */\n      add\n        /* \"#utility.yul\":5344:5390   */\n      swap2\n      pop\n        /* \"#utility.yul\":5113:5396   */\n      pop\n        /* \"#utility.yul\":5023:5396   */\n      swap3\n      swap2\n      pop\n      pop\n      jump\t// out\n        /* \"#utility.yul\":5402:5931   */\n    tag_58:\n        /* \"#utility.yul\":5569:5573   */\n      0x00\n        /* \"#utility.yul\":5607:5609   */\n      0x60\n        /* \"#utility.yul\":5596:5605   */\n      dup3\n        /* \"#utility.yul\":5592:5610   */\n      add\n        /* \"#utility.yul\":5584:5610   */\n      swap1\n      pop\n        /* \"#utility.yul\":5620:5691   */\n      tag_300\n        /* \"#utility.yul\":5688:5689   */\n      0x00\n        /* \"#utility.yul\":5677:5686   */\n      dup4\n        /* \"#utility.yul\":5673:5690   */\n      add\n        /* \"#utility.yul\":5664:5670   */\n      dup7\n        /* \"#utility.yul\":5620:5691   */\n      tag_206\n      jump\t// in\n    tag_300:\n        /* \"#utility.yul\":5701:5773   */\n      tag_301\n        /* \"#utility.yul\":5769:5771   */\n      0x20\n        /* \"#utility.yul\":5758:5767   */\n      dup4\n        /* \"#utility.yul\":5754:5772   */\n      add\n        /* \"#utility.yul\":5745:5751   */\n      dup6\n        /* \"#utility.yul\":5701:5773   */\n      tag_196\n      jump\t// in\n    tag_301:\n        /* \"#utility.yul\":5820:5829   */\n      dup2\n        /* \"#utility.yul\":5814:5818   */\n      dup2\n        /* \"#utility.yul\":5810:5830   */\n      sub\n        /* \"#utility.yul\":5805:5807   */\n      0x40\n        /* \"#utility.yul\":5794:5803   */\n      dup4\n        /* \"#utility.yul\":5790:5808   */\n      add\n        /* \"#utility.yul\":5783:5831   */\n      mstore\n        /* \"#utility.yul\":5848:5924   */\n      tag_302\n        /* \"#utility.yul\":5919:5923   */\n      dup2\n        /* \"#utility.yul\":5910:5916   */\n      dup5\n        /* \"#utility.yul\":5848:5924   */\n      tag_211\n      jump\t// in\n    tag_302:\n        /* \"#utility.yul\":5840:5924   */\n      swap1\n      pop\n        /* \"#utility.yul\":5402:5931   */\n      swap5\n      swap4\n      pop\n      pop\n      pop\n      pop\n      jump\t// out\n        /* \"#utility.yul\":5937:6266   */\n    tag_62:\n        /* \"#utility.yul\":5996:6002   */\n      0x00\n        /* \"#utility.yul\":6045:6047   */\n      0x20\n        /* \"#utility.yul\":6033:6042   */\n      dup3\n        /* \"#utility.yul\":6024:6031   */\n      dup5\n        /* \"#utility.yul\":6020:6043   */\n      sub\n        /* \"#utility.yul\":6016:6048   */\n      slt\n        /* \"#utility.yul\":6013:6132   */\n      iszero\n      tag_304\n      jumpi\n        /* \"#utility.yul\":6051:6130   */\n      tag_305\n      tag_191\n      jump\t// in\n    tag_305:\n        /* \"#utility.yul\":6013:6132   */\n    tag_304:\n        /* \"#utility.yul\":6171:6172   */\n      0x00\n        /* \"#utility.yul\":6196:6249   */\n      tag_306\n        /* \"#utility.yul\":6241:6248   */\n      dup5\n        /* \"#utility.yul\":6232:6238   */\n      dup3\n        /* \"#utility.yul\":6221:6230   */\n      dup6\n        /* \"#utility.yul\":6217:6239   */\n      add\n        /* \"#utility.yul\":6196:6249   */\n      tag_200\n      jump\t// in\n    tag_306:\n        /* \"#utility.yul\":6186:6249   */\n      swap2\n      pop\n        /* \"#utility.yul\":6142:6259   */\n      pop\n        /* \"#utility.yul\":5937:6266   */\n      swap3\n      swap2\n      pop\n      pop\n      jump\t// out\n        /* \"#utility.yul\":6272:6409   */\n    tag_212:\n        /* \"#utility.yul\":6362:6368   */\n      0x00\n        /* \"#utility.yul\":6396:6401   */\n      dup2\n        /* \"#utility.yul\":6390:6402   */\n      mload\n        /* \"#utility.yul\":6380:6402   */\n      swap1\n      pop\n        /* \"#utility.yul\":6272:6409   */\n      swap2\n      swap1\n      pop\n      jump\t// out\n        /* \"#utility.yul\":6415:6622   */\n    tag_213:\n        /* \"#utility.yul\":6537:6548   */\n      0x00\n        /* \"#utility.yul\":6571:6577   */\n      dup3\n        /* \"#utility.yul\":6566:6569   */\n      dup3\n        /* \"#utility.yul\":6559:6578   */\n      mstore\n        /* \"#utility.yul\":6611:6615   */\n      0x20\n        /* \"#utility.yul\":6606:6609   */\n      dup3\n        /* \"#utility.yul\":6602:6616   */\n      add\n        /* \"#utility.yul\":6587:6616   */\n      swap1\n      pop\n        /* \"#utility.yul\":6415:6622   */\n      swap3\n      swap2\n      pop\n      pop\n      jump\t// out\n        /* \"#utility.yul\":6628:6783   */\n    tag_214:\n        /* \"#utility.yul\":6718:6722   */\n      0x00\n        /* \"#utility.yul\":6741:6744   */\n      dup2\n        /* \"#utility.yul\":6733:6744   */\n      swap1\n      pop\n        /* \"#utility.yul\":6771:6775   */\n      0x20\n        /* \"#utility.yul\":6766:6769   */\n      dup3\n        /* \"#utility.yul\":6762:6776   */\n      add\n        /* \"#utility.yul\":6754:6776   */\n      swap1\n      pop\n        /* \"#utility.yul\":6628:6783   */\n      swap2\n      swap1\n      pop\n      jump\t// out\n        /* \"#utility.yul\":6789:6897   */\n    tag_215:\n        /* \"#utility.yul\":6866:6890   */\n      tag_311\n        /* \"#utility.yul\":6884:6889   */\n      dup2\n        /* \"#utility.yul\":6866:6890   */\n      tag_193\n      jump\t// in\n    tag_311:\n        /* \"#utility.yul\":6861:6864   */\n      dup3\n        /* \"#utility.yul\":6854:6891   */\n      mstore\n        /* \"#utility.yul\":6789:6897   */\n      pop\n      pop\n      jump\t// out\n        /* \"#utility.yul\":6903:7002   */\n    tag_216:\n        /* \"#utility.yul\":6974:6995   */\n      tag_313\n        /* \"#utility.yul\":6989:6994   */\n      dup2\n        /* \"#utility.yul\":6974:6995   */\n      tag_201\n      jump\t// in\n    tag_313:\n        /* \"#utility.yul\":6969:6972   */\n      dup3\n        /* \"#utility.yul\":6962:6996   */\n      mstore\n        /* \"#utility.yul\":6903:7002   */\n      pop\n      pop\n      jump\t// out\n        /* \"#utility.yul\":7064:7918   */\n    tag_217:\n        /* \"#utility.yul\":7197:7201   */\n      0x80\n        /* \"#utility.yul\":7192:7195   */\n      dup3\n        /* \"#utility.yul\":7188:7202   */\n      add\n        /* \"#utility.yul\":7284:7288   */\n      0x00\n        /* \"#utility.yul\":7277:7282   */\n      dup3\n        /* \"#utility.yul\":7273:7289   */\n      add\n        /* \"#utility.yul\":7267:7290   */\n      mload\n        /* \"#utility.yul\":7303:7366   */\n      tag_315\n        /* \"#utility.yul\":7360:7364   */\n      0x00\n        /* \"#utility.yul\":7355:7358   */\n      dup6\n        /* \"#utility.yul\":7351:7365   */\n      add\n        /* \"#utility.yul\":7337:7349   */\n      dup3\n        /* \"#utility.yul\":7303:7366   */\n      tag_215\n      jump\t// in\n    tag_315:\n        /* \"#utility.yul\":7212:7376   */\n      pop\n        /* \"#utility.yul\":7458:7462   */\n      0x20\n        /* \"#utility.yul\":7451:7456   */\n      dup3\n        /* \"#utility.yul\":7447:7463   */\n      add\n        /* \"#utility.yul\":7441:7464   */\n      mload\n        /* \"#utility.yul\":7477:7540   */\n      tag_316\n        /* \"#utility.yul\":7534:7538   */\n      0x20\n        /* \"#utility.yul\":7529:7532   */\n      dup6\n        /* \"#utility.yul\":7525:7539   */\n      add\n        /* \"#utility.yul\":7511:7523   */\n      dup3\n        /* \"#utility.yul\":7477:7540   */\n      tag_215\n      jump\t// in\n    tag_316:\n        /* \"#utility.yul\":7386:7550   */\n      pop\n        /* \"#utility.yul\":7645:7649   */\n      0x40\n        /* \"#utility.yul\":7638:7643   */\n      dup3\n        /* \"#utility.yul\":7634:7650   */\n      add\n        /* \"#utility.yul\":7628:7651   */\n      mload\n        /* \"#utility.yul\":7664:7727   */\n      tag_317\n        /* \"#utility.yul\":7721:7725   */\n      0x40\n        /* \"#utility.yul\":7716:7719   */\n      dup6\n        /* \"#utility.yul\":7712:7726   */\n      add\n        /* \"#utility.yul\":7698:7710   */\n      dup3\n        /* \"#utility.yul\":7664:7727   */\n      tag_215\n      jump\t// in\n    tag_317:\n        /* \"#utility.yul\":7560:7737   */\n      pop\n        /* \"#utility.yul\":7825:7829   */\n      0x60\n        /* \"#utility.yul\":7818:7823   */\n      dup3\n        /* \"#utility.yul\":7814:7830   */\n      add\n        /* \"#utility.yul\":7808:7831   */\n      mload\n        /* \"#utility.yul\":7844:7901   */\n      tag_318\n        /* \"#utility.yul\":7895:7899   */\n      0x60\n        /* \"#utility.yul\":7890:7893   */\n      dup6\n        /* \"#utility.yul\":7886:7900   */\n      add\n        /* \"#utility.yul\":7872:7884   */\n      dup3\n        /* \"#utility.yul\":7844:7901   */\n      tag_216\n      jump\t// in\n    tag_318:\n        /* \"#utility.yul\":7747:7911   */\n      pop\n        /* \"#utility.yul\":7166:7918   */\n      pop\n        /* \"#utility.yul\":7064:7918   */\n      pop\n      pop\n      jump\t// out\n        /* \"#utility.yul\":7924:8195   */\n    tag_218:\n        /* \"#utility.yul\":8039:8049   */\n      0x00\n        /* \"#utility.yul\":8060:8152   */\n      tag_320\n        /* \"#utility.yul\":8148:8151   */\n      dup4\n        /* \"#utility.yul\":8140:8146   */\n      dup4\n        /* \"#utility.yul\":8060:8152   */\n      tag_217\n      jump\t// in\n    tag_320:\n        /* \"#utility.yul\":8184:8188   */\n      0x80\n        /* \"#utility.yul\":8179:8182   */\n      dup4\n        /* \"#utility.yul\":8175:8189   */\n      add\n        /* \"#utility.yul\":8161:8189   */\n      swap1\n      pop\n        /* \"#utility.yul\":7924:8195   */\n      swap3\n      swap2\n      pop\n      pop\n      jump\t// out\n        /* \"#utility.yul\":8201:8337   */\n    tag_219:\n        /* \"#utility.yul\":8294:8298   */\n      0x00\n        /* \"#utility.yul\":8326:8330   */\n      0x20\n        /* \"#utility.yul\":8321:8324   */\n      dup3\n        /* \"#utility.yul\":8317:8331   */\n      add\n        /* \"#utility.yul\":8309:8331   */\n      swap1\n      pop\n        /* \"#utility.yul\":8201:8337   */\n      swap2\n      swap1\n      pop\n      jump\t// out\n        /* \"#utility.yul\":8403:9319   */\n    tag_220:\n        /* \"#utility.yul\":8568:8571   */\n      0x00\n        /* \"#utility.yul\":8597:8674   */\n      tag_323\n        /* \"#utility.yul\":8668:8673   */\n      dup3\n        /* \"#utility.yul\":8597:8674   */\n      tag_212\n      jump\t// in\n    tag_323:\n        /* \"#utility.yul\":8690:8799   */\n      tag_324\n        /* \"#utility.yul\":8792:8798   */\n      dup2\n        /* \"#utility.yul\":8787:8790   */\n      dup6\n        /* \"#utility.yul\":8690:8799   */\n      tag_213\n      jump\t// in\n    tag_324:\n        /* \"#utility.yul\":8683:8799   */\n      swap4\n      pop\n        /* \"#utility.yul\":8823:8902   */\n      tag_325\n        /* \"#utility.yul\":8896:8901   */\n      dup4\n        /* \"#utility.yul\":8823:8902   */\n      tag_214\n      jump\t// in\n    tag_325:\n        /* \"#utility.yul\":8925:8932   */\n      dup1\n        /* \"#utility.yul\":8956:8957   */\n      0x00\n        /* \"#utility.yul\":8941:9294   */\n    tag_326:\n        /* \"#utility.yul\":8966:8972   */\n      dup4\n        /* \"#utility.yul\":8963:8964   */\n      dup2\n        /* \"#utility.yul\":8960:8973   */\n      lt\n        /* \"#utility.yul\":8941:9294   */\n      iszero\n      tag_328\n      jumpi\n        /* \"#utility.yul\":9042:9048   */\n      dup2\n        /* \"#utility.yul\":9036:9049   */\n      mload\n        /* \"#utility.yul\":9069:9178   */\n      tag_329\n        /* \"#utility.yul\":9174:9177   */\n      dup9\n        /* \"#utility.yul\":9159:9172   */\n      dup3\n        /* \"#utility.yul\":9069:9178   */\n      tag_218\n      jump\t// in\n    tag_329:\n        /* \"#utility.yul\":9062:9178   */\n      swap8\n      pop\n        /* \"#utility.yul\":9201:9284   */\n      tag_330\n        /* \"#utility.yul\":9277:9283   */\n      dup4\n        /* \"#utility.yul\":9201:9284   */\n      tag_219\n      jump\t// in\n    tag_330:\n        /* \"#utility.yul\":9191:9284   */\n      swap3\n      pop\n        /* \"#utility.yul\":9001:9294   */\n      pop\n        /* \"#utility.yul\":8988:8989   */\n      0x01\n        /* \"#utility.yul\":8985:8986   */\n      dup2\n        /* \"#utility.yul\":8981:8990   */\n      add\n        /* \"#utility.yul\":8976:8990   */\n      swap1\n      pop\n        /* \"#utility.yul\":8941:9294   */\n      jump(tag_326)\n    tag_328:\n        /* \"#utility.yul\":8945:8959   */\n      pop\n        /* \"#utility.yul\":9310:9313   */\n      dup6\n        /* \"#utility.yul\":9303:9313   */\n      swap4\n      pop\n        /* \"#utility.yul\":8573:9319   */\n      pop\n      pop\n      pop\n        /* \"#utility.yul\":8403:9319   */\n      swap3\n      swap2\n      pop\n      pop\n      jump\t// out\n        /* \"#utility.yul\":9325:9790   */\n    tag_65:\n        /* \"#utility.yul\":9514:9518   */\n      0x00\n        /* \"#utility.yul\":9552:9554   */\n      0x20\n        /* \"#utility.yul\":9541:9550   */\n      dup3\n        /* \"#utility.yul\":9537:9555   */\n      add\n        /* \"#utility.yul\":9529:9555   */\n      swap1\n      pop\n        /* \"#utility.yul\":9601:9610   */\n      dup2\n        /* \"#utility.yul\":9595:9599   */\n      dup2\n        /* \"#utility.yul\":9591:9611   */\n      sub\n        /* \"#utility.yul\":9587:9588   */\n      0x00\n        /* \"#utility.yul\":9576:9585   */\n      dup4\n        /* \"#utility.yul\":9572:9589   */\n      add\n        /* \"#utility.yul\":9565:9612   */\n      mstore\n        /* \"#utility.yul\":9629:9783   */\n      tag_332\n        /* \"#utility.yul\":9778:9782   */\n      dup2\n        /* \"#utility.yul\":9769:9775   */\n      dup5\n        /* \"#utility.yul\":9629:9783   */\n      tag_220\n      jump\t// in\n    tag_332:\n        /* \"#utility.yul\":9621:9783   */\n      swap1\n      pop\n        /* \"#utility.yul\":9325:9790   */\n      swap3\n      swap2\n      pop\n      pop\n      jump\t// out\n        /* \"#utility.yul\":9796:10141   */\n    tag_72:\n        /* \"#utility.yul\":9863:9869   */\n      0x00\n        /* \"#utility.yul\":9912:9914   */\n      0x20\n        /* \"#utility.yul\":9900:9909   */\n      dup3\n        /* \"#utility.yul\":9891:9898   */\n      dup5\n        /* \"#utility.yul\":9887:9910   */\n      sub\n        /* \"#utility.yul\":9883:9915   */\n      slt\n        /* \"#utility.yul\":9880:9999   */\n      iszero\n      tag_334\n      jumpi\n        /* \"#utility.yul\":9918:9997   */\n      tag_335\n      tag_191\n      jump\t// in\n    tag_335:\n        /* \"#utility.yul\":9880:9999   */\n    tag_334:\n        /* \"#utility.yul\":10038:10039   */\n      0x00\n        /* \"#utility.yul\":10063:10124   */\n      tag_336\n        /* \"#utility.yul\":10116:10123   */\n      dup5\n        /* \"#utility.yul\":10107:10113   */\n      dup3\n        /* \"#utility.yul\":10096:10105   */\n      dup6\n        /* \"#utility.yul\":10092:10114   */\n      add\n        /* \"#utility.yul\":10063:10124   */\n      tag_205\n      jump\t// in\n    tag_336:\n        /* \"#utility.yul\":10053:10124   */\n      swap2\n      pop\n        /* \"#utility.yul\":10009:10134   */\n      pop\n        /* \"#utility.yul\":9796:10141   */\n      swap3\n      swap2\n      pop\n      pop\n      jump\t// out\n        /* \"#utility.yul\":10147:10246   */\n    tag_221:\n        /* \"#utility.yul\":10199:10205   */\n      0x00\n        /* \"#utility.yul\":10233:10238   */\n      dup2\n        /* \"#utility.yul\":10227:10239   */\n      mload\n        /* \"#utility.yul\":10217:10239   */\n      swap1\n      pop\n        /* \"#utility.yul\":10147:10246   */\n      swap2\n      swap1\n      pop\n      jump\t// out\n        /* \"#utility.yul\":10252:10421   */\n    tag_222:\n        /* \"#utility.yul\":10336:10347   */\n      0x00\n        /* \"#utility.yul\":10370:10376   */\n      dup3\n        /* \"#utility.yul\":10365:10368   */\n      dup3\n        /* \"#utility.yul\":10358:10377   */\n      mstore\n        /* \"#utility.yul\":10410:10414   */\n      0x20\n        /* \"#utility.yul\":10405:10408   */\n      dup3\n        /* \"#utility.yul\":10401:10415   */\n      add\n        /* \"#utility.yul\":10386:10415   */\n      swap1\n      pop\n        /* \"#utility.yul\":10252:10421   */\n      swap3\n      swap2\n      pop\n      pop\n      jump\t// out\n        /* \"#utility.yul\":10427:10804   */\n    tag_223:\n        /* \"#utility.yul\":10515:10518   */\n      0x00\n        /* \"#utility.yul\":10543:10582   */\n      tag_340\n        /* \"#utility.yul\":10576:10581   */\n      dup3\n        /* \"#utility.yul\":10543:10582   */\n      tag_221\n      jump\t// in\n    tag_340:\n        /* \"#utility.yul\":10598:10669   */\n      tag_341\n        /* \"#utility.yul\":10662:10668   */\n      dup2\n        /* \"#utility.yul\":10657:10660   */\n      dup6\n        /* \"#utility.yul\":10598:10669   */\n      tag_222\n      jump\t// in\n    tag_341:\n        /* \"#utility.yul\":10591:10669   */\n      swap4\n      pop\n        /* \"#utility.yul\":10678:10743   */\n      tag_342\n        /* \"#utility.yul\":10736:10742   */\n      dup2\n        /* \"#utility.yul\":10731:10734   */\n      dup6\n        /* \"#utility.yul\":10724:10728   */\n      0x20\n        /* \"#utility.yul\":10717:10722   */\n      dup7\n        /* \"#utility.yul\":10713:10729   */\n      add\n        /* \"#utility.yul\":10678:10743   */\n      tag_209\n      jump\t// in\n    tag_342:\n        /* \"#utility.yul\":10768:10797   */\n      tag_343\n        /* \"#utility.yul\":10790:10796   */\n      dup2\n        /* \"#utility.yul\":10768:10797   */\n      tag_210\n      jump\t// in\n    tag_343:\n        /* \"#utility.yul\":10763:10766   */\n      dup5\n        /* \"#utility.yul\":10759:10798   */\n      add\n        /* \"#utility.yul\":10752:10798   */\n      swap2\n      pop\n        /* \"#utility.yul\":10519:10804   */\n      pop\n        /* \"#utility.yul\":10427:10804   */\n      swap3\n      swap2\n      pop\n      pop\n      jump\t// out\n        /* \"#utility.yul\":10810:11123   */\n    tag_82:\n        /* \"#utility.yul\":10923:10927   */\n      0x00\n        /* \"#utility.yul\":10961:10963   */\n      0x20\n        /* \"#utility.yul\":10950:10959   */\n      dup3\n        /* \"#utility.yul\":10946:10964   */\n      add\n        /* \"#utility.yul\":10938:10964   */\n      swap1\n      pop\n        /* \"#utility.yul\":11010:11019   */\n      dup2\n        /* \"#utility.yul\":11004:11008   */\n      dup2\n        /* \"#utility.yul\":11000:11020   */\n      sub\n        /* \"#utility.yul\":10996:10997   */\n      0x00\n        /* \"#utility.yul\":10985:10994   */\n      dup4\n        /* \"#utility.yul\":10981:10998   */\n      add\n        /* \"#utility.yul\":10974:11021   */\n      mstore\n        /* \"#utility.yul\":11038:11116   */\n      tag_345\n        /* \"#utility.yul\":11111:11115   */\n      dup2\n        /* \"#utility.yul\":11102:11108   */\n      dup5\n        /* \"#utility.yul\":11038:11116   */\n      tag_223\n      jump\t// in\n    tag_345:\n        /* \"#utility.yul\":11030:11116   */\n      swap1\n      pop\n        /* \"#utility.yul\":10810:11123   */\n      swap3\n      swap2\n      pop\n      pop\n      jump\t// out\n        /* \"#utility.yul\":11129:11309   */\n    tag_224:\n        /* \"#utility.yul\":11177:11254   */\n      0x4e487b7100000000000000000000000000000000000000000000000000000000\n        /* \"#utility.yul\":11174:11175   */\n      0x00\n        /* \"#utility.yul\":11167:11255   */\n      mstore\n        /* \"#utility.yul\":11274:11278   */\n      0x11\n        /* \"#utility.yul\":11271:11272   */\n      0x04\n        /* \"#utility.yul\":11264:11279   */\n      mstore\n        /* \"#utility.yul\":11298:11302   */\n      0x24\n        /* \"#utility.yul\":11295:11296   */\n      0x00\n        /* \"#utility.yul\":11288:11303   */\n      revert\n        /* \"#utility.yul\":11315:11725   */\n    tag_88:\n        /* \"#utility.yul\":11355:11362   */\n      0x00\n        /* \"#utility.yul\":11378:11398   */\n      tag_348\n        /* \"#utility.yul\":11396:11397   */\n      dup3\n        /* \"#utility.yul\":11378:11398   */\n      tag_193\n      jump\t// in\n    tag_348:\n        /* \"#utility.yul\":11373:11398   */\n      swap2\n      pop\n        /* \"#utility.yul\":11412:11432   */\n      tag_349\n        /* \"#utility.yul\":11430:11431   */\n      dup4\n        /* \"#utility.yul\":11412:11432   */\n      tag_193\n      jump\t// in\n    tag_349:\n        /* \"#utility.yul\":11407:11432   */\n      swap3\n      pop\n        /* \"#utility.yul\":11467:11468   */\n      dup3\n        /* \"#utility.yul\":11464:11465   */\n      dup3\n        /* \"#utility.yul\":11460:11469   */\n      mul\n        /* \"#utility.yul\":11489:11519   */\n      tag_350\n        /* \"#utility.yul\":11507:11518   */\n      dup2\n        /* \"#utility.yul\":11489:11519   */\n      tag_193\n      jump\t// in\n    tag_350:\n        /* \"#utility.yul\":11478:11519   */\n      swap2\n      pop\n        /* \"#utility.yul\":11668:11669   */\n      dup3\n        /* \"#utility.yul\":11659:11666   */\n      dup3\n        /* \"#utility.yul\":11655:11670   */\n      div\n        /* \"#utility.yul\":11652:11653   */\n      dup5\n        /* \"#utility.yul\":11649:11671   */\n      eq\n        /* \"#utility.yul\":11629:11630   */\n      dup4\n        /* \"#utility.yul\":11622:11631   */\n      iszero\n        /* \"#utility.yul\":11602:11685   */\n      or\n        /* \"#utility.yul\":11579:11718   */\n      tag_351\n      jumpi\n        /* \"#utility.yul\":11698:11716   */\n      tag_352\n      tag_224\n      jump\t// in\n    tag_352:\n        /* \"#utility.yul\":11579:11718   */\n    tag_351:\n        /* \"#utility.yul\":11363:11725   */\n      pop\n        /* \"#utility.yul\":11315:11725   */\n      swap3\n      swap2\n      pop\n      pop\n      jump\t// out\n        /* \"#utility.yul\":11731:11904   */\n    tag_225:\n        /* \"#utility.yul\":11871:11896   */\n      0x596f7520617265206e6f7420746865206d616e61676572000000000000000000\n        /* \"#utility.yul\":11867:11868   */\n      0x00\n        /* \"#utility.yul\":11859:11865   */\n      dup3\n        /* \"#utility.yul\":11855:11869   */\n      add\n        /* \"#utility.yul\":11848:11897   */\n      mstore\n        /* \"#utility.yul\":11731:11904   */\n      pop\n      jump\t// out\n        /* \"#utility.yul\":11910:12276   */\n    tag_226:\n        /* \"#utility.yul\":12052:12055   */\n      0x00\n        /* \"#utility.yul\":12073:12140   */\n      tag_355\n        /* \"#utility.yul\":12137:12139   */\n      0x17\n        /* \"#utility.yul\":12132:12135   */\n      dup4\n        /* \"#utility.yul\":12073:12140   */\n      tag_222\n      jump\t// in\n    tag_355:\n        /* \"#utility.yul\":12066:12140   */\n      swap2\n      pop\n        /* \"#utility.yul\":12149:12242   */\n      tag_356\n        /* \"#utility.yul\":12238:12241   */\n      dup3\n        /* \"#utility.yul\":12149:12242   */\n      tag_225\n      jump\t// in\n    tag_356:\n        /* \"#utility.yul\":12267:12269   */\n      0x20\n        /* \"#utility.yul\":12262:12265   */\n      dup3\n        /* \"#utility.yul\":12258:12270   */\n      add\n        /* \"#utility.yul\":12251:12270   */\n      swap1\n      pop\n        /* \"#utility.yul\":11910:12276   */\n      swap2\n      swap1\n      pop\n      jump\t// out\n        /* \"#utility.yul\":12282:12701   */\n    tag_96:\n        /* \"#utility.yul\":12448:12452   */\n      0x00\n        /* \"#utility.yul\":12486:12488   */\n      0x20\n        /* \"#utility.yul\":12475:12484   */\n      dup3\n        /* \"#utility.yul\":12471:12489   */\n      add\n        /* \"#utility.yul\":12463:12489   */\n      swap1\n      pop\n        /* \"#utility.yul\":12535:12544   */\n      dup2\n        /* \"#utility.yul\":12529:12533   */\n      dup2\n        /* \"#utility.yul\":12525:12545   */\n      sub\n        /* \"#utility.yul\":12521:12522   */\n      0x00\n        /* \"#utility.yul\":12510:12519   */\n      dup4\n        /* \"#utility.yul\":12506:12523   */\n      add\n        /* \"#utility.yul\":12499:12546   */\n      mstore\n        /* \"#utility.yul\":12563:12694   */\n      tag_358\n        /* \"#utility.yul\":12689:12693   */\n      dup2\n        /* \"#utility.yul\":12563:12694   */\n      tag_226\n      jump\t// in\n    tag_358:\n        /* \"#utility.yul\":12555:12694   */\n      swap1\n      pop\n        /* \"#utility.yul\":12282:12701   */\n      swap2\n      swap1\n      pop\n      jump\t// out\n        /* \"#utility.yul\":12707:12887   */\n    tag_99:\n        /* \"#utility.yul\":12755:12832   */\n      0x4e487b7100000000000000000000000000000000000000000000000000000000\n        /* \"#utility.yul\":12752:12753   */\n      0x00\n        /* \"#utility.yul\":12745:12833   */\n      mstore\n        /* \"#utility.yul\":12852:12856   */\n      0x32\n        /* \"#utility.yul\":12849:12850   */\n      0x04\n        /* \"#utility.yul\":12842:12857   */\n      mstore\n        /* \"#utility.yul\":12876:12880   */\n      0x24\n        /* \"#utility.yul\":12873:12874   */\n      0x00\n        /* \"#utility.yul\":12866:12881   */\n      revert\n        /* \"#utility.yul\":12893:13335   */\n    tag_109:\n        /* \"#utility.yul\":13042:13046   */\n      0x00\n        /* \"#utility.yul\":13080:13082   */\n      0x60\n        /* \"#utility.yul\":13069:13078   */\n      dup3\n        /* \"#utility.yul\":13065:13083   */\n      add\n        /* \"#utility.yul\":13057:13083   */\n      swap1\n      pop\n        /* \"#utility.yul\":13093:13164   */\n      tag_361\n        /* \"#utility.yul\":13161:13162   */\n      0x00\n        /* \"#utility.yul\":13150:13159   */\n      dup4\n        /* \"#utility.yul\":13146:13163   */\n      add\n        /* \"#utility.yul\":13137:13143   */\n      dup7\n        /* \"#utility.yul\":13093:13164   */\n      tag_196\n      jump\t// in\n    tag_361:\n        /* \"#utility.yul\":13174:13246   */\n      tag_362\n        /* \"#utility.yul\":13242:13244   */\n      0x20\n        /* \"#utility.yul\":13231:13240   */\n      dup4\n        /* \"#utility.yul\":13227:13245   */\n      add\n        /* \"#utility.yul\":13218:13224   */\n      dup6\n        /* \"#utility.yul\":13174:13246   */\n      tag_196\n      jump\t// in\n    tag_362:\n        /* \"#utility.yul\":13256:13328   */\n      tag_363\n        /* \"#utility.yul\":13324:13326   */\n      0x40\n        /* \"#utility.yul\":13313:13322   */\n      dup4\n        /* \"#utility.yul\":13309:13327   */\n      add\n        /* \"#utility.yul\":13300:13306   */\n      dup5\n        /* \"#utility.yul\":13256:13328   */\n      tag_196\n      jump\t// in\n    tag_363:\n        /* \"#utility.yul\":12893:13335   */\n      swap5\n      swap4\n      pop\n      pop\n      pop\n      pop\n      jump\t// out\n        /* \"#utility.yul\":13341:13535   */\n    tag_121:\n        /* \"#utility.yul\":13381:13385   */\n      0x00\n        /* \"#utility.yul\":13401:13421   */\n      tag_365\n        /* \"#utility.yul\":13419:13420   */\n      dup3\n        /* \"#utility.yul\":13401:13421   */\n      tag_193\n      jump\t// in\n    tag_365:\n        /* \"#utility.yul\":13396:13421   */\n      swap2\n      pop\n        /* \"#utility.yul\":13435:13455   */\n      tag_366\n        /* \"#utility.yul\":13453:13454   */\n      dup4\n        /* \"#utility.yul\":13435:13455   */\n      tag_193\n      jump\t// in\n    tag_366:\n        /* \"#utility.yul\":13430:13455   */\n      swap3\n      pop\n        /* \"#utility.yul\":13479:13480   */\n      dup3\n        /* \"#utility.yul\":13476:13477   */\n      dup3\n        /* \"#utility.yul\":13472:13481   */\n      sub\n        /* \"#utility.yul\":13464:13481   */\n      swap1\n      pop\n        /* \"#utility.yul\":13503:13504   */\n      dup2\n        /* \"#utility.yul\":13497:13501   */\n      dup2\n        /* \"#utility.yul\":13494:13505   */\n      gt\n        /* \"#utility.yul\":13491:13528   */\n      iszero\n      tag_367\n      jumpi\n        /* \"#utility.yul\":13508:13526   */\n      tag_368\n      tag_224\n      jump\t// in\n    tag_368:\n        /* \"#utility.yul\":13491:13528   */\n    tag_367:\n        /* \"#utility.yul\":13341:13535   */\n      swap3\n      swap2\n      pop\n      pop\n      jump\t// out\n        /* \"#utility.yul\":13541:13732   */\n    tag_123:\n        /* \"#utility.yul\":13581:13584   */\n      0x00\n        /* \"#utility.yul\":13600:13620   */\n      tag_370\n        /* \"#utility.yul\":13618:13619   */\n      dup3\n        /* \"#utility.yul\":13600:13620   */\n      tag_193\n      jump\t// in\n    tag_370:\n        /* \"#utility.yul\":13595:13620   */\n      swap2\n      pop\n        /* \"#utility.yul\":13634:13654   */\n      tag_371\n        /* \"#utility.yul\":13652:13653   */\n      dup4\n        /* \"#utility.yul\":13634:13654   */\n      tag_193\n      jump\t// in\n    tag_371:\n        /* \"#utility.yul\":13629:13654   */\n      swap3\n      pop\n        /* \"#utility.yul\":13677:13678   */\n      dup3\n        /* \"#utility.yul\":13674:13675   */\n      dup3\n        /* \"#utility.yul\":13670:13679   */\n      add\n        /* \"#utility.yul\":13663:13679   */\n      swap1\n      pop\n        /* \"#utility.yul\":13698:13701   */\n      dup1\n        /* \"#utility.yul\":13695:13696   */\n      dup3\n        /* \"#utility.yul\":13692:13702   */\n      gt\n        /* \"#utility.yul\":13689:13725   */\n      iszero\n      tag_372\n      jumpi\n        /* \"#utility.yul\":13705:13723   */\n      tag_373\n      tag_224\n      jump\t// in\n    tag_373:\n        /* \"#utility.yul\":13689:13725   */\n    tag_372:\n        /* \"#utility.yul\":13541:13732   */\n      swap3\n      swap2\n      pop\n      pop\n      jump\t// out\n        /* \"#utility.yul\":13738:13971   */\n    tag_131:\n        /* \"#utility.yul\":13777:13780   */\n      0x00\n        /* \"#utility.yul\":13800:13824   */\n      tag_375\n        /* \"#utility.yul\":13818:13823   */\n      dup3\n        /* \"#utility.yul\":13800:13824   */\n      tag_193\n      jump\t// in\n    tag_375:\n        /* \"#utility.yul\":13791:13824   */\n      swap2\n      pop\n        /* \"#utility.yul\":13846:13912   */\n      0xffffffffffffffffffffffffffffffffffffffffffffffffffffffffffffffff\n        /* \"#utility.yul\":13839:13844   */\n      dup3\n        /* \"#utility.yul\":13836:13913   */\n      sub\n        /* \"#utility.yul\":13833:13936   */\n      tag_376\n      jumpi\n        /* \"#utility.yul\":13916:13934   */\n      tag_377\n      tag_224\n      jump\t// in\n    tag_377:\n        /* \"#utility.yul\":13833:13936   */\n    tag_376:\n        /* \"#utility.yul\":13963:13964   */\n      0x01\n        /* \"#utility.yul\":13956:13961   */\n      dup3\n        /* \"#utility.yul\":13952:13965   */\n      add\n        /* \"#utility.yul\":13945:13965   */\n      swap1\n      pop\n        /* \"#utility.yul\":13738:13971   */\n      swap2\n      swap1\n      pop\n      jump\t// out\n        /* \"#utility.yul\":13977:14157   */\n    tag_134:\n        /* \"#utility.yul\":14025:14102   */\n      0x4e487b7100000000000000000000000000000000000000000000000000000000\n        /* \"#utility.yul\":14022:14023   */\n      0x00\n        /* \"#utility.yul\":14015:14103   */\n      mstore\n        /* \"#utility.yul\":14122:14126   */\n      0x31\n        /* \"#utility.yul\":14119:14120   */\n      0x04\n        /* \"#utility.yul\":14112:14127   */\n      mstore\n        /* \"#utility.yul\":14146:14150   */\n      0x24\n        /* \"#utility.yul\":14143:14144   */\n      0x00\n        /* \"#utility.yul\":14136:14151   */\n      revert\n        /* \"#utility.yul\":14163:14248   */\n    tag_227:\n        /* \"#utility.yul\":14208:14215   */\n      0x00\n        /* \"#utility.yul\":14237:14242   */\n      dup2\n        /* \"#utility.yul\":14226:14242   */\n      swap1\n      pop\n        /* \"#utility.yul\":14163:14248   */\n      swap2\n      swap1\n      pop\n      jump\t// out\n        /* \"#utility.yul\":14254:14314   */\n    tag_228:\n        /* \"#utility.yul\":14282:14285   */\n      0x00\n        /* \"#utility.yul\":14303:14308   */\n      dup2\n        /* \"#utility.yul\":14296:14308   */\n      swap1\n      pop\n        /* \"#utility.yul\":14254:14314   */\n      swap2\n      swap1\n      pop\n      jump\t// out\n        /* \"#utility.yul\":14320:14478   */\n    tag_229:\n        /* \"#utility.yul\":14378:14387   */\n      0x00\n        /* \"#utility.yul\":14411:14472   */\n      tag_382\n        /* \"#utility.yul\":14429:14471   */\n      tag_383\n        /* \"#utility.yul\":14438:14470   */\n      tag_384\n        /* \"#utility.yul\":14464:14469   */\n      dup5\n        /* \"#utility.yul\":14438:14470   */\n      tag_227\n      jump\t// in\n    tag_384:\n        /* \"#utility.yul\":14429:14471   */\n      tag_228\n      jump\t// in\n    tag_383:\n        /* \"#utility.yul\":14411:14472   */\n      tag_193\n      jump\t// in\n    tag_382:\n        /* \"#utility.yul\":14398:14472   */\n      swap1\n      pop\n        /* \"#utility.yul\":14320:14478   */\n      swap2\n      swap1\n      pop\n      jump\t// out\n        /* \"#utility.yul\":14484:14631   */\n    tag_230:\n        /* \"#utility.yul\":14579:14624   */\n      tag_386\n        /* \"#utility.yul\":14618:14623   */\n      dup2\n        /* \"#utility.yul\":14579:14624   */\n      tag_229\n      jump\t// in\n    tag_386:\n        /* \"#utility.yul\":14574:14577   */\n      dup3\n        /* \"#utility.yul\":14567:14625   */\n      mstore\n        /* \"#utility.yul\":14484:14631   */\n      pop\n      pop\n      jump\t// out\n        /* \"#utility.yul\":14637:15095   */\n    tag_146:\n        /* \"#utility.yul\":14794:14798   */\n      0x00\n        /* \"#utility.yul\":14832:14834   */\n      0x60\n        /* \"#utility.yul\":14821:14830   */\n      dup3\n        /* \"#utility.yul\":14817:14835   */\n      add\n        /* \"#utility.yul\":14809:14835   */\n      swap1\n      pop\n        /* \"#utility.yul\":14845:14916   */\n      tag_388\n        /* \"#utility.yul\":14913:14914   */\n      0x00\n        /* \"#utility.yul\":14902:14911   */\n      dup4\n        /* \"#utility.yul\":14898:14915   */\n      add\n        /* \"#utility.yul\":14889:14895   */\n      dup7\n        /* \"#utility.yul\":14845:14916   */\n      tag_196\n      jump\t// in\n    tag_388:\n        /* \"#utility.yul\":14926:14998   */\n      tag_389\n        /* \"#utility.yul\":14994:14996   */\n      0x20\n        /* \"#utility.yul\":14983:14992   */\n      dup4\n        /* \"#utility.yul\":14979:14997   */\n      add\n        /* \"#utility.yul\":14970:14976   */\n      dup6\n        /* \"#utility.yul\":14926:14998   */\n      tag_196\n      jump\t// in\n    tag_389:\n        /* \"#utility.yul\":15008:15088   */\n      tag_390\n        /* \"#utility.yul\":15084:15086   */\n      0x40\n        /* \"#utility.yul\":15073:15082   */\n      dup4\n        /* \"#utility.yul\":15069:15087   */\n      add\n        /* \"#utility.yul\":15060:15066   */\n      dup5\n        /* \"#utility.yul\":15008:15088   */\n      tag_230\n      jump\t// in\n    tag_390:\n        /* \"#utility.yul\":14637:15095   */\n      swap5\n      swap4\n      pop\n      pop\n      pop\n      pop\n      jump\t// out\n        /* \"#utility.yul\":15101:15281   */\n    tag_231:\n        /* \"#utility.yul\":15149:15226   */\n      0x4e487b7100000000000000000000000000000000000000000000000000000000\n        /* \"#utility.yul\":15146:15147   */\n      0x00\n        /* \"#utility.yul\":15139:15227   */\n      mstore\n        /* \"#utility.yul\":15246:15250   */\n      0x22\n        /* \"#utility.yul\":15243:15244   */\n      0x04\n        /* \"#utility.yul\":15236:15251   */\n      mstore\n        /* \"#utility.yul\":15270:15274   */\n      0x24\n        /* \"#utility.yul\":15267:15268   */\n      0x00\n        /* \"#utility.yul\":15260:15275   */\n      revert\n        /* \"#utility.yul\":15287:15607   */\n    tag_165:\n        /* \"#utility.yul\":15331:15337   */\n      0x00\n        /* \"#utility.yul\":15368:15369   */\n      0x02\n        /* \"#utility.yul\":15362:15366   */\n      dup3\n        /* \"#utility.yul\":15358:15370   */\n      div\n        /* \"#utility.yul\":15348:15370   */\n      swap1\n      pop\n        /* \"#utility.yul\":15415:15416   */\n      0x01\n        /* \"#utility.yul\":15409:15413   */\n      dup3\n        /* \"#utility.yul\":15405:15417   */\n      and\n        /* \"#utility.yul\":15436:15454   */\n      dup1\n        /* \"#utility.yul\":15426:15507   */\n      tag_393\n      jumpi\n        /* \"#utility.yul\":15492:15496   */\n      0x7f\n        /* \"#utility.yul\":15484:15490   */\n      dup3\n        /* \"#utility.yul\":15480:15497   */\n      and\n        /* \"#utility.yul\":15470:15497   */\n      swap2\n      pop\n        /* \"#utility.yul\":15426:15507   */\n    tag_393:\n        /* \"#utility.yul\":15554:15556   */\n      0x20\n        /* \"#utility.yul\":15546:15552   */\n      dup3\n        /* \"#utility.yul\":15543:15557   */\n      lt\n        /* \"#utility.yul\":15523:15541   */\n      dup2\n        /* \"#utility.yul\":15520:15558   */\n      sub\n        /* \"#utility.yul\":15517:15601   */\n      tag_394\n      jumpi\n        /* \"#utility.yul\":15573:15591   */\n      tag_395\n      tag_231\n      jump\t// in\n    tag_395:\n        /* \"#utility.yul\":15517:15601   */\n    tag_394:\n        /* \"#utility.yul\":15338:15607   */\n      pop\n        /* \"#utility.yul\":15287:15607   */\n      swap2\n      swap1\n      pop\n      jump\t// out\n\n    auxdata: 0xa26469706673582212204fb4a2c286116d411aa1d5800263012407860c254038e3ef4555b866f0d90a3764736f6c63430008120033\n}\n","bytecode":{"linkReferences":{},"object":"60806040523480156200001157600080fd5b50604051620020c7380380620020c78339818101604052810190620000379190620002cd565b82600360006101000a81548173ffffffffffffffffffffffffffffffffffffffff021916908373ffffffffffffffffffffffffffffffffffffffff160217905550816002908162000089919062000589565b508060048190555050505062000670565b6000604051905090565b600080fd5b600080fd5b600073ffffffffffffffffffffffffffffffffffffffff82169050919050565b6000620000db82620000ae565b9050919050565b620000ed81620000ce565b8114620000f957600080fd5b50565b6000815190506200010d81620000e2565b92915050565b600080fd5b600080fd5b6000601f19601f8301169050919050565b7f4e487b7100000000000000000000000000000000000000000000000000000000600052604160045260246000fd5b62000168826200011d565b810181811067ffffffffffffffff821117156200018a57620001896200012e565b5b80604052505050565b60006200019f6200009a565b9050620001ad82826200015d565b919050565b600067ffffffffffffffff821115620001d057620001cf6200012e565b5b620001db826200011d565b9050602081019050919050565b60005b8381101562000208578082015181840152602081019050620001eb565b60008484015250505050565b60006200022b6200022584620001b2565b62000193565b9050828152602081018484840111156200024a576200024962000118565b5b62000257848285620001e8565b509392505050565b600082601f83011262000277576200027662000113565b5b81516200028984826020860162000214565b91505092915050565b6000819050919050565b620002a78162000292565b8114620002b357600080fd5b50565b600081519050620002c7816200029c565b92915050565b600080600060608486031215620002e957620002e8620000a4565b5b6000620002f986828701620000fc565b935050602084015167ffffffffffffffff8111156200031d576200031c620000a9565b5b6200032b868287016200025f565b92505060406200033e86828701620002b6565b9150509250925092565b600081519050919050565b7f4e487b7100000000000000000000000000000000000000000000000000000000600052602260045260246000fd5b600060028204905060018216806200039b57607f821691505b602082108103620003b157620003b062000353565b5b50919050565b60008190508160005260206000209050919050565b60006020601f8301049050919050565b600082821b905092915050565b6000600883026200041b7fffffffffffffffffffffffffffffffffffffffffffffffffffffffffffffffff82620003dc565b620004278683620003dc565b95508019841693508086168417925050509392505050565b6000819050919050565b60006200046a620004646200045e8462000292565b6200043f565b62000292565b9050919050565b6000819050919050565b620004868362000449565b6200049e620004958262000471565b848454620003e9565b825550505050565b600090565b620004b5620004a6565b620004c28184846200047b565b505050565b5b81811015620004ea57620004de600082620004ab565b600181019050620004c8565b5050565b601f82111562000539576200050381620003b7565b6200050e84620003cc565b810160208510156200051e578190505b620005366200052d85620003cc565b830182620004c7565b50505b505050565b600082821c905092915050565b60006200055e600019846008026200053e565b1980831691505092915050565b60006200057983836200054b565b9150826002028217905092915050565b620005948262000348565b67ffffffffffffffff811115620005b057620005af6200012e565b5b620005bc825462000382565b620005c9828285620004ee565b600060209050601f831160018114620006015760008415620005ec578287015190505b620005f885826200056b565b86555062000668565b601f1984166200061186620003b7565b60005b828110156200063b5784890151825560018201915060208501945060208101905062000614565b868310156200065b578489015162000657601f8916826200054b565b8355505b6001600288020188555050505b505050505050565b611a4780620006806000396000f3fe6080604052600436106100dd5760003560e01c80639ace38c21161007f578063a4e81be011610059578063a4e81be0146102b6578063c17c3521146102d2578063cc1e2cb0146102fb578063d0e30db014610326576100dd565b80639ace38c2146102115780639d5f65fc14610250578063a334b2951461028d576100dd565b8063474466c2116100bb578063474466c214610176578063481c6a751461019257806359a7b3fe146101bd5780636eaf9563146101e8576100dd565b80630fa8d54f146100e257806312065fe01461010b57806320ee128e14610136575b600080fd5b3480156100ee57600080fd5b5061010960048036038101906101049190611233565b610330565b005b34801561011757600080fd5b5061012061045b565b60405161012d919061126f565b60405180910390f35b34801561014257600080fd5b5061015d600480360381019061015891906112e8565b610463565b60405161016d9493929190611343565b60405180910390f35b610190600480360381019061018b91906113c6565b6104bd565b005b34801561019e57600080fd5b506101a76109ce565b6040516101b49190611415565b60405180910390f35b3480156101c957600080fd5b506101d26109f4565b6040516101df919061126f565b60405180910390f35b3480156101f457600080fd5b5061020f600480360381019061020a91906112e8565b6109fa565b005b34801561021d57600080fd5b5061023860048036038101906102339190611233565b610ddb565b604051610247939291906114c0565b60405180910390f35b34801561025c57600080fd5b50610277600480360381019061027291906114fe565b610ebd565b604051610284919061164d565b60405180910390f35b34801561029957600080fd5b506102b460048036038101906102af91906112e8565b610f94565b005b6102d060048036038101906102cb919061166f565b61100e565b005b3480156102de57600080fd5b506102f960048036038101906102f49190611233565b6110bd565b005b34801561030757600080fd5b50610310611116565b60405161031d91906116f1565b60405180910390f35b61032e6111a4565b005b6008600160003373ffffffffffffffffffffffffffffffffffffffff1673ffffffffffffffffffffffffffffffffffffffff168152602001908152602001600020805490501061037f57600080fd5b600160003373ffffffffffffffffffffffffffffffffffffffff1673ffffffffffffffffffffffffffffffffffffffff1681526020019081526020016000206040518060800160405280428152602001838152602001836004546103e39190611742565b815260200160001515815250908060018154018082558091505060019003906000526020600020906004020160009091909190915060008201518160000155602082015181600101556040820151816002015560608201518160030160006101000a81548160ff021916908315150217905550505050565b600047905090565b6001602052816000526040600020818154811061047f57600080fd5b9060005260206000209060040201600091509150508060000154908060010154908060020154908060030160009054906101000a900460ff16905084565b600360009054906101000a900473ffffffffffffffffffffffffffffffffffffffff1673ffffffffffffffffffffffffffffffffffffffff163373ffffffffffffffffffffffffffffffffffffffff161461054d576040517f08c379a0000000000000000000000000000000000000000000000000000000008152600401610544906117d0565b60405180910390fd5b600115158273ffffffffffffffffffffffffffffffffffffffff163373ffffffffffffffffffffffffffffffffffffffff167f62a0718d681b5a77ad80fbaf7e41ff461f77b69d49e3879cba8e045c85e2ac74600160008773ffffffffffffffffffffffffffffffffffffffff1673ffffffffffffffffffffffffffffffffffffffff16815260200190815260200160002085815481106105f1576105f06117f0565b5b906000526020600020906004020160000154600160008873ffffffffffffffffffffffffffffffffffffffff1673ffffffffffffffffffffffffffffffffffffffff1681526020019081526020016000208681548110610654576106536117f0565b5b906000526020600020906004020160010154600160008973ffffffffffffffffffffffffffffffffffffffff1673ffffffffffffffffffffffffffffffffffffffff16815260200190815260200160002087815481106106b7576106b66117f0565b5b9060005260206000209060040201600101546004546106d69190611742565b6040516106e59392919061181f565b60405180910390a48173ffffffffffffffffffffffffffffffffffffffff166108fc600160008573ffffffffffffffffffffffffffffffffffffffff1673ffffffffffffffffffffffffffffffffffffffff1681526020019081526020016000208381548110610758576107576117f0565b5b906000526020600020906004020160010154600f6004546107799190611742565b6107839190611742565b9081150290604051600060405180830381858888f193505050501580156107ae573d6000803e3d6000fd5b5060008190505b60018060008573ffffffffffffffffffffffffffffffffffffffff1673ffffffffffffffffffffffffffffffffffffffff168152602001908152602001600020805490506108039190611856565b81101561093557600160008473ffffffffffffffffffffffffffffffffffffffff1673ffffffffffffffffffffffffffffffffffffffff168152602001908152602001600020600182610856919061188a565b81548110610867576108666117f0565b5b9060005260206000209060040201600160008573ffffffffffffffffffffffffffffffffffffffff1673ffffffffffffffffffffffffffffffffffffffff16815260200190815260200160002082815481106108c6576108c56117f0565b5b90600052602060002090600402016000820154816000015560018201548160010155600282015481600201556003820160009054906101000a900460ff168160030160006101000a81548160ff021916908315150217905550905050808061092d906118be565b9150506107b5565b50600160008373ffffffffffffffffffffffffffffffffffffffff1673ffffffffffffffffffffffffffffffffffffffff16815260200190815260200160002080548061098557610984611906565b5b6001900381819060005260206000209060040201600080820160009055600182016000905560028201600090556003820160006101000a81549060ff0219169055505090555050565b600360009054906101000a900473ffffffffffffffffffffffffffffffffffffffff1681565b60045481565b600360009054906101000a900473ffffffffffffffffffffffffffffffffffffffff1673ffffffffffffffffffffffffffffffffffffffff163373ffffffffffffffffffffffffffffffffffffffff1614610a8a576040517f08c379a0000000000000000000000000000000000000000000000000000000008152600401610a81906117d0565b60405180910390fd5b600015158273ffffffffffffffffffffffffffffffffffffffff163373ffffffffffffffffffffffffffffffffffffffff167f62a0718d681b5a77ad80fbaf7e41ff461f77b69d49e3879cba8e045c85e2ac74600160008773ffffffffffffffffffffffffffffffffffffffff1673ffffffffffffffffffffffffffffffffffffffff1681526020019081526020016000208581548110610b2e57610b2d6117f0565b5b906000526020600020906004020160000154600160008873ffffffffffffffffffffffffffffffffffffffff1673ffffffffffffffffffffffffffffffffffffffff1681526020019081526020016000208681548110610b9157610b906117f0565b5b9060005260206000209060040201600101546000604051610bb49392919061197a565b60405180910390a460008190505b60018060008573ffffffffffffffffffffffffffffffffffffffff1673ffffffffffffffffffffffffffffffffffffffff16815260200190815260200160002080549050610c109190611856565b811015610d4257600160008473ffffffffffffffffffffffffffffffffffffffff1673ffffffffffffffffffffffffffffffffffffffff168152602001908152602001600020600182610c63919061188a565b81548110610c7457610c736117f0565b5b9060005260206000209060040201600160008573ffffffffffffffffffffffffffffffffffffffff1673ffffffffffffffffffffffffffffffffffffffff1681526020019081526020016000208281548110610cd357610cd26117f0565b5b90600052602060002090600402016000820154816000015560018201548160010155600282015481600201556003820160009054906101000a900460ff168160030160006101000a81548160ff0219169083151502179055509050508080610d3a906118be565b915050610bc2565b50600160008373ffffffffffffffffffffffffffffffffffffffff1673ffffffffffffffffffffffffffffffffffffffff168152602001908152602001600020805480610d9257610d91611906565b5b6001900381819060005260206000209060040201600080820160009055600182016000905560028201600090556003820160006101000a81549060ff0219169055505090555050565b60008181548110610deb57600080fd5b90600052602060002090600302016000915090508060000160009054906101000a900473ffffffffffffffffffffffffffffffffffffffff1690806001015490806002018054610e3a906119e0565b80601f0160208091040260200160405190810160405280929190818152602001828054610e66906119e0565b8015610eb35780601f10610e8857610100808354040283529160200191610eb3565b820191906000526020600020905b815481529060010190602001808311610e9657829003601f168201915b5050505050905083565b6060600160008373ffffffffffffffffffffffffffffffffffffffff1673ffffffffffffffffffffffffffffffffffffffff168152602001908152602001600020805480602002602001604051908101604052809291908181526020016000905b82821015610f8957838290600052602060002090600402016040518060800160405290816000820154815260200160018201548152602001600282015481526020016003820160009054906101000a900460ff16151515158152505081526020019060010190610f1e565b505050509050919050565b60008110158015610fa6575060058111155b610faf57600080fd5b808273ffffffffffffffffffffffffffffffffffffffff163373ffffffffffffffffffffffffffffffffffffffff167f5435029ae8e53f5303b6dbda07be9beb09ae106923c28bf30dc3c46852588f0460405160405180910390a45050565b8073ffffffffffffffffffffffffffffffffffffffff166108fc349081150290604051600060405180830381858888f19350505050158015611054573d6000803e3d6000fd5b508073ffffffffffffffffffffffffffffffffffffffff163373ffffffffffffffffffffffffffffffffffffffff167fad011377252e79c9d574ced1048c7d7020d2abd44385576062139ed308dfe972346040516110b2919061126f565b60405180910390a350565b423373ffffffffffffffffffffffffffffffffffffffff167f556a8d88a81363d3d82e0a4349b1c101aa81b26dd3f3c9e97a447b9f6cafbf5383604051611104919061126f565b60405180910390a38060048190555050565b60028054611123906119e0565b80601f016020809104026020016040519081016040528092919081815260200182805461114f906119e0565b801561119c5780601f106111715761010080835404028352916020019161119c565b820191906000526020600020905b81548152906001019060200180831161117f57829003601f168201915b505050505081565b3373ffffffffffffffffffffffffffffffffffffffff167f36af321ec8d3c75236829c5317affd40ddb308863a1236d2d277a4025cccee1e3447426040516111ee9392919061181f565b60405180910390a2565b600080fd5b6000819050919050565b611210816111fd565b811461121b57600080fd5b50565b60008135905061122d81611207565b92915050565b600060208284031215611249576112486111f8565b5b60006112578482850161121e565b91505092915050565b611269816111fd565b82525050565b60006020820190506112846000830184611260565b92915050565b600073ffffffffffffffffffffffffffffffffffffffff82169050919050565b60006112b58261128a565b9050919050565b6112c5816112aa565b81146112d057600080fd5b50565b6000813590506112e2816112bc565b92915050565b600080604083850312156112ff576112fe6111f8565b5b600061130d858286016112d3565b925050602061131e8582860161121e565b9150509250929050565b60008115159050919050565b61133d81611328565b82525050565b60006080820190506113586000830187611260565b6113656020830186611260565b6113726040830185611260565b61137f6060830184611334565b95945050505050565b60006113938261128a565b9050919050565b6113a381611388565b81146113ae57600080fd5b50565b6000813590506113c08161139a565b92915050565b600080604083850312156113dd576113dc6111f8565b5b60006113eb858286016113b1565b92505060206113fc8582860161121e565b9150509250929050565b61140f816112aa565b82525050565b600060208201905061142a6000830184611406565b92915050565b600081519050919050565b600082825260208201905092915050565b60005b8381101561146a57808201518184015260208101905061144f565b60008484015250505050565b6000601f19601f8301169050919050565b600061149282611430565b61149c818561143b565b93506114ac81856020860161144c565b6114b581611476565b840191505092915050565b60006060820190506114d56000830186611406565b6114e26020830185611260565b81810360408301526114f48184611487565b9050949350505050565b600060208284031215611514576115136111f8565b5b6000611522848285016112d3565b91505092915050565b600081519050919050565b600082825260208201905092915050565b6000819050602082019050919050565b611560816111fd565b82525050565b61156f81611328565b82525050565b60808201600082015161158b6000850182611557565b50602082015161159e6020850182611557565b5060408201516115b16040850182611557565b5060608201516115c46060850182611566565b50505050565b60006115d68383611575565b60808301905092915050565b6000602082019050919050565b60006115fa8261152b565b6116048185611536565b935061160f83611547565b8060005b8381101561164057815161162788826115ca565b9750611632836115e2565b925050600181019050611613565b5085935050505092915050565b6000602082019050818103600083015261166781846115ef565b905092915050565b600060208284031215611685576116846111f8565b5b6000611693848285016113b1565b91505092915050565b600081519050919050565b600082825260208201905092915050565b60006116c38261169c565b6116cd81856116a7565b93506116dd81856020860161144c565b6116e681611476565b840191505092915050565b6000602082019050818103600083015261170b81846116b8565b905092915050565b7f4e487b7100000000000000000000000000000000000000000000000000000000600052601160045260246000fd5b600061174d826111fd565b9150611758836111fd565b9250828202611766816111fd565b9150828204841483151761177d5761177c611713565b5b5092915050565b7f596f7520617265206e6f7420746865206d616e61676572000000000000000000600082015250565b60006117ba6017836116a7565b91506117c582611784565b602082019050919050565b600060208201905081810360008301526117e9816117ad565b9050919050565b7f4e487b7100000000000000000000000000000000000000000000000000000000600052603260045260246000fd5b60006060820190506118346000830186611260565b6118416020830185611260565b61184e6040830184611260565b949350505050565b6000611861826111fd565b915061186c836111fd565b925082820390508181111561188457611883611713565b5b92915050565b6000611895826111fd565b91506118a0836111fd565b92508282019050808211156118b8576118b7611713565b5b92915050565b60006118c9826111fd565b91507fffffffffffffffffffffffffffffffffffffffffffffffffffffffffffffffff82036118fb576118fa611713565b5b600182019050919050565b7f4e487b7100000000000000000000000000000000000000000000000000000000600052603160045260246000fd5b6000819050919050565b6000819050919050565b600061196461195f61195a84611935565b61193f565b6111fd565b9050919050565b61197481611949565b82525050565b600060608201905061198f6000830186611260565b61199c6020830185611260565b6119a9604083018461196b565b949350505050565b7f4e487b7100000000000000000000000000000000000000000000000000000000600052602260045260246000fd5b600060028204905060018216806119f857607f821691505b602082108103611a0b57611a0a6119b1565b5b5091905056fea26469706673582212204fb4a2c286116d411aa1d5800263012407860c254038e3ef4555b866f0d90a3764736f6c63430008120033","opcodes":"PUSH1 0x80 PUSH1 0x40 MSTORE CALLVALUE DUP1 ISZERO PUSH3 0x11 JUMPI PUSH1 0x0 DUP1 REVERT JUMPDEST POP PUSH1 0x40 MLOAD PUSH3 0x20C7 CODESIZE SUB DUP1 PUSH3 0x20C7 DUP4 CODECOPY DUP2 DUP2 ADD PUSH1 0x40 MSTORE DUP2 ADD SWAP1 PUSH3 0x37 SWAP2 SWAP1 PUSH3 0x2CD JUMP JUMPDEST DUP3 PUSH1 0x3 PUSH1 0x0 PUSH2 0x100 EXP DUP2 SLOAD DUP2 PUSH20 0xFFFFFFFFFFFFFFFFFFFFFFFFFFFFFFFFFFFFFFFF MUL NOT AND SWAP1 DUP4 PUSH20 0xFFFFFFFFFFFFFFFFFFFFFFFFFFFFFFFFFFFFFFFF AND MUL OR SWAP1 SSTORE POP DUP2 PUSH1 0x2 SWAP1 DUP2 PUSH3 0x89 SWAP2 SWAP1 PUSH3 0x589 JUMP JUMPDEST POP DUP1 PUSH1 0x4 DUP2 SWAP1 SSTORE POP POP POP POP PUSH3 0x670 JUMP JUMPDEST PUSH1 0x0 PUSH1 0x40 MLOAD SWAP1 POP SWAP1 JUMP JUMPDEST PUSH1 0x0 DUP1 REVERT JUMPDEST PUSH1 0x0 DUP1 REVERT JUMPDEST PUSH1 0x0 PUSH20 0xFFFFFFFFFFFFFFFFFFFFFFFFFFFFFFFFFFFFFFFF DUP3 AND SWAP1 POP SWAP2 SWAP1 POP JUMP JUMPDEST PUSH1 0x0 PUSH3 0xDB DUP3 PUSH3 0xAE JUMP JUMPDEST SWAP1 POP SWAP2 SWAP1 POP JUMP JUMPDEST PUSH3 0xED DUP2 PUSH3 0xCE JUMP JUMPDEST DUP2 EQ PUSH3 0xF9 JUMPI PUSH1 0x0 DUP1 REVERT JUMPDEST POP JUMP JUMPDEST PUSH1 0x0 DUP2 MLOAD SWAP1 POP PUSH3 0x10D DUP2 PUSH3 0xE2 JUMP JUMPDEST SWAP3 SWAP2 POP POP JUMP JUMPDEST PUSH1 0x0 DUP1 REVERT JUMPDEST PUSH1 0x0 DUP1 REVERT JUMPDEST PUSH1 0x0 PUSH1 0x1F NOT PUSH1 0x1F DUP4 ADD AND SWAP1 POP SWAP2 SWAP1 POP JUMP JUMPDEST PUSH32 0x4E487B7100000000000000000000000000000000000000000000000000000000 PUSH1 0x0 MSTORE PUSH1 0x41 PUSH1 0x4 MSTORE PUSH1 0x24 PUSH1 0x0 REVERT JUMPDEST PUSH3 0x168 DUP3 PUSH3 0x11D JUMP JUMPDEST DUP2 ADD DUP2 DUP2 LT PUSH8 0xFFFFFFFFFFFFFFFF DUP3 GT OR ISZERO PUSH3 0x18A JUMPI PUSH3 0x189 PUSH3 0x12E JUMP JUMPDEST JUMPDEST DUP1 PUSH1 0x40 MSTORE POP POP POP JUMP JUMPDEST PUSH1 0x0 PUSH3 0x19F PUSH3 0x9A JUMP JUMPDEST SWAP1 POP PUSH3 0x1AD DUP3 DUP3 PUSH3 0x15D JUMP JUMPDEST SWAP2 SWAP1 POP JUMP JUMPDEST PUSH1 0x0 PUSH8 0xFFFFFFFFFFFFFFFF DUP3 GT ISZERO PUSH3 0x1D0 JUMPI PUSH3 0x1CF PUSH3 0x12E JUMP JUMPDEST JUMPDEST PUSH3 0x1DB DUP3 PUSH3 0x11D JUMP JUMPDEST SWAP1 POP PUSH1 0x20 DUP2 ADD SWAP1 POP SWAP2 SWAP1 POP JUMP JUMPDEST PUSH1 0x0 JUMPDEST DUP4 DUP2 LT ISZERO PUSH3 0x208 JUMPI DUP1 DUP3 ADD MLOAD DUP2 DUP5 ADD MSTORE PUSH1 0x20 DUP2 ADD SWAP1 POP PUSH3 0x1EB JUMP JUMPDEST PUSH1 0x0 DUP5 DUP5 ADD MSTORE POP POP POP POP JUMP JUMPDEST PUSH1 0x0 PUSH3 0x22B PUSH3 0x225 DUP5 PUSH3 0x1B2 JUMP JUMPDEST PUSH3 0x193 JUMP JUMPDEST SWAP1 POP DUP3 DUP2 MSTORE PUSH1 0x20 DUP2 ADD DUP5 DUP5 DUP5 ADD GT ISZERO PUSH3 0x24A JUMPI PUSH3 0x249 PUSH3 0x118 JUMP JUMPDEST JUMPDEST PUSH3 0x257 DUP5 DUP3 DUP6 PUSH3 0x1E8 JUMP JUMPDEST POP SWAP4 SWAP3 POP POP POP JUMP JUMPDEST PUSH1 0x0 DUP3 PUSH1 0x1F DUP4 ADD SLT PUSH3 0x277 JUMPI PUSH3 0x276 PUSH3 0x113 JUMP JUMPDEST JUMPDEST DUP2 MLOAD PUSH3 0x289 DUP5 DUP3 PUSH1 0x20 DUP7 ADD PUSH3 0x214 JUMP JUMPDEST SWAP2 POP POP SWAP3 SWAP2 POP POP JUMP JUMPDEST PUSH1 0x0 DUP2 SWAP1 POP SWAP2 SWAP1 POP JUMP JUMPDEST PUSH3 0x2A7 DUP2 PUSH3 0x292 JUMP JUMPDEST DUP2 EQ PUSH3 0x2B3 JUMPI PUSH1 0x0 DUP1 REVERT JUMPDEST POP JUMP JUMPDEST PUSH1 0x0 DUP2 MLOAD SWAP1 POP PUSH3 0x2C7 DUP2 PUSH3 0x29C JUMP JUMPDEST SWAP3 SWAP2 POP POP JUMP JUMPDEST PUSH1 0x0 DUP1 PUSH1 0x0 PUSH1 0x60 DUP5 DUP7 SUB SLT ISZERO PUSH3 0x2E9 JUMPI PUSH3 0x2E8 PUSH3 0xA4 JUMP JUMPDEST JUMPDEST PUSH1 0x0 PUSH3 0x2F9 DUP7 DUP3 DUP8 ADD PUSH3 0xFC JUMP JUMPDEST SWAP4 POP POP PUSH1 0x20 DUP5 ADD MLOAD PUSH8 0xFFFFFFFFFFFFFFFF DUP2 GT ISZERO PUSH3 0x31D JUMPI PUSH3 0x31C PUSH3 0xA9 JUMP JUMPDEST JUMPDEST PUSH3 0x32B DUP7 DUP3 DUP8 ADD PUSH3 0x25F JUMP JUMPDEST SWAP3 POP POP PUSH1 0x40 PUSH3 0x33E DUP7 DUP3 DUP8 ADD PUSH3 0x2B6 JUMP JUMPDEST SWAP2 POP POP SWAP3 POP SWAP3 POP SWAP3 JUMP JUMPDEST PUSH1 0x0 DUP2 MLOAD SWAP1 POP SWAP2 SWAP1 POP JUMP JUMPDEST PUSH32 0x4E487B7100000000000000000000000000000000000000000000000000000000 PUSH1 0x0 MSTORE PUSH1 0x22 PUSH1 0x4 MSTORE PUSH1 0x24 PUSH1 0x0 REVERT JUMPDEST PUSH1 0x0 PUSH1 0x2 DUP3 DIV SWAP1 POP PUSH1 0x1 DUP3 AND DUP1 PUSH3 0x39B JUMPI PUSH1 0x7F DUP3 AND SWAP2 POP JUMPDEST PUSH1 0x20 DUP3 LT DUP2 SUB PUSH3 0x3B1 JUMPI PUSH3 0x3B0 PUSH3 0x353 JUMP JUMPDEST JUMPDEST POP SWAP2 SWAP1 POP JUMP JUMPDEST PUSH1 0x0 DUP2 SWAP1 POP DUP2 PUSH1 0x0 MSTORE PUSH1 0x20 PUSH1 0x0 KECCAK256 SWAP1 POP SWAP2 SWAP1 POP JUMP JUMPDEST PUSH1 0x0 PUSH1 0x20 PUSH1 0x1F DUP4 ADD DIV SWAP1 POP SWAP2 SWAP1 POP JUMP JUMPDEST PUSH1 0x0 DUP3 DUP3 SHL SWAP1 POP SWAP3 SWAP2 POP POP JUMP JUMPDEST PUSH1 0x0 PUSH1 0x8 DUP4 MUL PUSH3 0x41B PUSH32 0xFFFFFFFFFFFFFFFFFFFFFFFFFFFFFFFFFFFFFFFFFFFFFFFFFFFFFFFFFFFFFFFF DUP3 PUSH3 0x3DC JUMP JUMPDEST PUSH3 0x427 DUP7 DUP4 PUSH3 0x3DC JUMP JUMPDEST SWAP6 POP DUP1 NOT DUP5 AND SWAP4 POP DUP1 DUP7 AND DUP5 OR SWAP3 POP POP POP SWAP4 SWAP3 POP POP POP JUMP JUMPDEST PUSH1 0x0 DUP2 SWAP1 POP SWAP2 SWAP1 POP JUMP JUMPDEST PUSH1 0x0 PUSH3 0x46A PUSH3 0x464 PUSH3 0x45E DUP5 PUSH3 0x292 JUMP JUMPDEST PUSH3 0x43F JUMP JUMPDEST PUSH3 0x292 JUMP JUMPDEST SWAP1 POP SWAP2 SWAP1 POP JUMP JUMPDEST PUSH1 0x0 DUP2 SWAP1 POP SWAP2 SWAP1 POP JUMP JUMPDEST PUSH3 0x486 DUP4 PUSH3 0x449 JUMP JUMPDEST PUSH3 0x49E PUSH3 0x495 DUP3 PUSH3 0x471 JUMP JUMPDEST DUP5 DUP5 SLOAD PUSH3 0x3E9 JUMP JUMPDEST DUP3 SSTORE POP POP POP POP JUMP JUMPDEST PUSH1 0x0 SWAP1 JUMP JUMPDEST PUSH3 0x4B5 PUSH3 0x4A6 JUMP JUMPDEST PUSH3 0x4C2 DUP2 DUP5 DUP5 PUSH3 0x47B JUMP JUMPDEST POP POP POP JUMP JUMPDEST JUMPDEST DUP2 DUP2 LT ISZERO PUSH3 0x4EA JUMPI PUSH3 0x4DE PUSH1 0x0 DUP3 PUSH3 0x4AB JUMP JUMPDEST PUSH1 0x1 DUP2 ADD SWAP1 POP PUSH3 0x4C8 JUMP JUMPDEST POP POP JUMP JUMPDEST PUSH1 0x1F DUP3 GT ISZERO PUSH3 0x539 JUMPI PUSH3 0x503 DUP2 PUSH3 0x3B7 JUMP JUMPDEST PUSH3 0x50E DUP5 PUSH3 0x3CC JUMP JUMPDEST DUP2 ADD PUSH1 0x20 DUP6 LT ISZERO PUSH3 0x51E JUMPI DUP2 SWAP1 POP JUMPDEST PUSH3 0x536 PUSH3 0x52D DUP6 PUSH3 0x3CC JUMP JUMPDEST DUP4 ADD DUP3 PUSH3 0x4C7 JUMP JUMPDEST POP POP JUMPDEST POP POP POP JUMP JUMPDEST PUSH1 0x0 DUP3 DUP3 SHR SWAP1 POP SWAP3 SWAP2 POP POP JUMP JUMPDEST PUSH1 0x0 PUSH3 0x55E PUSH1 0x0 NOT DUP5 PUSH1 0x8 MUL PUSH3 0x53E JUMP JUMPDEST NOT DUP1 DUP4 AND SWAP2 POP POP SWAP3 SWAP2 POP POP JUMP JUMPDEST PUSH1 0x0 PUSH3 0x579 DUP4 DUP4 PUSH3 0x54B JUMP JUMPDEST SWAP2 POP DUP3 PUSH1 0x2 MUL DUP3 OR SWAP1 POP SWAP3 SWAP2 POP POP JUMP JUMPDEST PUSH3 0x594 DUP3 PUSH3 0x348 JUMP JUMPDEST PUSH8 0xFFFFFFFFFFFFFFFF DUP2 GT ISZERO PUSH3 0x5B0 JUMPI PUSH3 0x5AF PUSH3 0x12E JUMP JUMPDEST JUMPDEST PUSH3 0x5BC DUP3 SLOAD PUSH3 0x382 JUMP JUMPDEST PUSH3 0x5C9 DUP3 DUP3 DUP6 PUSH3 0x4EE JUMP JUMPDEST PUSH1 0x0 PUSH1 0x20 SWAP1 POP PUSH1 0x1F DUP4 GT PUSH1 0x1 DUP2 EQ PUSH3 0x601 JUMPI PUSH1 0x0 DUP5 ISZERO PUSH3 0x5EC JUMPI DUP3 DUP8 ADD MLOAD SWAP1 POP JUMPDEST PUSH3 0x5F8 DUP6 DUP3 PUSH3 0x56B JUMP JUMPDEST DUP7 SSTORE POP PUSH3 0x668 JUMP JUMPDEST PUSH1 0x1F NOT DUP5 AND PUSH3 0x611 DUP7 PUSH3 0x3B7 JUMP JUMPDEST PUSH1 0x0 JUMPDEST DUP3 DUP2 LT ISZERO PUSH3 0x63B JUMPI DUP5 DUP10 ADD MLOAD DUP3 SSTORE PUSH1 0x1 DUP3 ADD SWAP2 POP PUSH1 0x20 DUP6 ADD SWAP5 POP PUSH1 0x20 DUP2 ADD SWAP1 POP PUSH3 0x614 JUMP JUMPDEST DUP7 DUP4 LT ISZERO PUSH3 0x65B JUMPI DUP5 DUP10 ADD MLOAD PUSH3 0x657 PUSH1 0x1F DUP10 AND DUP3 PUSH3 0x54B JUMP JUMPDEST DUP4 SSTORE POP JUMPDEST PUSH1 0x1 PUSH1 0x2 DUP9 MUL ADD DUP9 SSTORE POP POP POP JUMPDEST POP POP POP POP POP POP JUMP JUMPDEST PUSH2 0x1A47 DUP1 PUSH3 0x680 PUSH1 0x0 CODECOPY PUSH1 0x0 RETURN INVALID PUSH1 0x80 PUSH1 0x40 MSTORE PUSH1 0x4 CALLDATASIZE LT PUSH2 0xDD JUMPI PUSH1 0x0 CALLDATALOAD PUSH1 0xE0 SHR DUP1 PUSH4 0x9ACE38C2 GT PUSH2 0x7F JUMPI DUP1 PUSH4 0xA4E81BE0 GT PUSH2 0x59 JUMPI DUP1 PUSH4 0xA4E81BE0 EQ PUSH2 0x2B6 JUMPI DUP1 PUSH4 0xC17C3521 EQ PUSH2 0x2D2 JUMPI DUP1 PUSH4 0xCC1E2CB0 EQ PUSH2 0x2FB JUMPI DUP1 PUSH4 0xD0E30DB0 EQ PUSH2 0x326 JUMPI PUSH2 0xDD JUMP JUMPDEST DUP1 PUSH4 0x9ACE38C2 EQ PUSH2 0x211 JUMPI DUP1 PUSH4 0x9D5F65FC EQ PUSH2 0x250 JUMPI DUP1 PUSH4 0xA334B295 EQ PUSH2 0x28D JUMPI PUSH2 0xDD JUMP JUMPDEST DUP1 PUSH4 0x474466C2 GT PUSH2 0xBB JUMPI DUP1 PUSH4 0x474466C2 EQ PUSH2 0x176 JUMPI DUP1 PUSH4 0x481C6A75 EQ PUSH2 0x192 JUMPI DUP1 PUSH4 0x59A7B3FE EQ PUSH2 0x1BD JUMPI DUP1 PUSH4 0x6EAF9563 EQ PUSH2 0x1E8 JUMPI PUSH2 0xDD JUMP JUMPDEST DUP1 PUSH4 0xFA8D54F EQ PUSH2 0xE2 JUMPI DUP1 PUSH4 0x12065FE0 EQ PUSH2 0x10B JUMPI DUP1 PUSH4 0x20EE128E EQ PUSH2 0x136 JUMPI JUMPDEST PUSH1 0x0 DUP1 REVERT JUMPDEST CALLVALUE DUP1 ISZERO PUSH2 0xEE JUMPI PUSH1 0x0 DUP1 REVERT JUMPDEST POP PUSH2 0x109 PUSH1 0x4 DUP1 CALLDATASIZE SUB DUP2 ADD SWAP1 PUSH2 0x104 SWAP2 SWAP1 PUSH2 0x1233 JUMP JUMPDEST PUSH2 0x330 JUMP JUMPDEST STOP JUMPDEST CALLVALUE DUP1 ISZERO PUSH2 0x117 JUMPI PUSH1 0x0 DUP1 REVERT JUMPDEST POP PUSH2 0x120 PUSH2 0x45B JUMP JUMPDEST PUSH1 0x40 MLOAD PUSH2 0x12D SWAP2 SWAP1 PUSH2 0x126F JUMP JUMPDEST PUSH1 0x40 MLOAD DUP1 SWAP2 SUB SWAP1 RETURN JUMPDEST CALLVALUE DUP1 ISZERO PUSH2 0x142 JUMPI PUSH1 0x0 DUP1 REVERT JUMPDEST POP PUSH2 0x15D PUSH1 0x4 DUP1 CALLDATASIZE SUB DUP2 ADD SWAP1 PUSH2 0x158 SWAP2 SWAP1 PUSH2 0x12E8 JUMP JUMPDEST PUSH2 0x463 JUMP JUMPDEST PUSH1 0x40 MLOAD PUSH2 0x16D SWAP5 SWAP4 SWAP3 SWAP2 SWAP1 PUSH2 0x1343 JUMP JUMPDEST PUSH1 0x40 MLOAD DUP1 SWAP2 SUB SWAP1 RETURN JUMPDEST PUSH2 0x190 PUSH1 0x4 DUP1 CALLDATASIZE SUB DUP2 ADD SWAP1 PUSH2 0x18B SWAP2 SWAP1 PUSH2 0x13C6 JUMP JUMPDEST PUSH2 0x4BD JUMP JUMPDEST STOP JUMPDEST CALLVALUE DUP1 ISZERO PUSH2 0x19E JUMPI PUSH1 0x0 DUP1 REVERT JUMPDEST POP PUSH2 0x1A7 PUSH2 0x9CE JUMP JUMPDEST PUSH1 0x40 MLOAD PUSH2 0x1B4 SWAP2 SWAP1 PUSH2 0x1415 JUMP JUMPDEST PUSH1 0x40 MLOAD DUP1 SWAP2 SUB SWAP1 RETURN JUMPDEST CALLVALUE DUP1 ISZERO PUSH2 0x1C9 JUMPI PUSH1 0x0 DUP1 REVERT JUMPDEST POP PUSH2 0x1D2 PUSH2 0x9F4 JUMP JUMPDEST PUSH1 0x40 MLOAD PUSH2 0x1DF SWAP2 SWAP1 PUSH2 0x126F JUMP JUMPDEST PUSH1 0x40 MLOAD DUP1 SWAP2 SUB SWAP1 RETURN JUMPDEST CALLVALUE DUP1 ISZERO PUSH2 0x1F4 JUMPI PUSH1 0x0 DUP1 REVERT JUMPDEST POP PUSH2 0x20F PUSH1 0x4 DUP1 CALLDATASIZE SUB DUP2 ADD SWAP1 PUSH2 0x20A SWAP2 SWAP1 PUSH2 0x12E8 JUMP JUMPDEST PUSH2 0x9FA JUMP JUMPDEST STOP JUMPDEST CALLVALUE DUP1 ISZERO PUSH2 0x21D JUMPI PUSH1 0x0 DUP1 REVERT JUMPDEST POP PUSH2 0x238 PUSH1 0x4 DUP1 CALLDATASIZE SUB DUP2 ADD SWAP1 PUSH2 0x233 SWAP2 SWAP1 PUSH2 0x1233 JUMP JUMPDEST PUSH2 0xDDB JUMP JUMPDEST PUSH1 0x40 MLOAD PUSH2 0x247 SWAP4 SWAP3 SWAP2 SWAP1 PUSH2 0x14C0 JUMP JUMPDEST PUSH1 0x40 MLOAD DUP1 SWAP2 SUB SWAP1 RETURN JUMPDEST CALLVALUE DUP1 ISZERO PUSH2 0x25C JUMPI PUSH1 0x0 DUP1 REVERT JUMPDEST POP PUSH2 0x277 PUSH1 0x4 DUP1 CALLDATASIZE SUB DUP2 ADD SWAP1 PUSH2 0x272 SWAP2 SWAP1 PUSH2 0x14FE JUMP JUMPDEST PUSH2 0xEBD JUMP JUMPDEST PUSH1 0x40 MLOAD PUSH2 0x284 SWAP2 SWAP1 PUSH2 0x164D JUMP JUMPDEST PUSH1 0x40 MLOAD DUP1 SWAP2 SUB SWAP1 RETURN JUMPDEST CALLVALUE DUP1 ISZERO PUSH2 0x299 JUMPI PUSH1 0x0 DUP1 REVERT JUMPDEST POP PUSH2 0x2B4 PUSH1 0x4 DUP1 CALLDATASIZE SUB DUP2 ADD SWAP1 PUSH2 0x2AF SWAP2 SWAP1 PUSH2 0x12E8 JUMP JUMPDEST PUSH2 0xF94 JUMP JUMPDEST STOP JUMPDEST PUSH2 0x2D0 PUSH1 0x4 DUP1 CALLDATASIZE SUB DUP2 ADD SWAP1 PUSH2 0x2CB SWAP2 SWAP1 PUSH2 0x166F JUMP JUMPDEST PUSH2 0x100E JUMP JUMPDEST STOP JUMPDEST CALLVALUE DUP1 ISZERO PUSH2 0x2DE JUMPI PUSH1 0x0 DUP1 REVERT JUMPDEST POP PUSH2 0x2F9 PUSH1 0x4 DUP1 CALLDATASIZE SUB DUP2 ADD SWAP1 PUSH2 0x2F4 SWAP2 SWAP1 PUSH2 0x1233 JUMP JUMPDEST PUSH2 0x10BD JUMP JUMPDEST STOP JUMPDEST CALLVALUE DUP1 ISZERO PUSH2 0x307 JUMPI PUSH1 0x0 DUP1 REVERT JUMPDEST POP PUSH2 0x310 PUSH2 0x1116 JUMP JUMPDEST PUSH1 0x40 MLOAD PUSH2 0x31D SWAP2 SWAP1 PUSH2 0x16F1 JUMP JUMPDEST PUSH1 0x40 MLOAD DUP1 SWAP2 SUB SWAP1 RETURN JUMPDEST PUSH2 0x32E PUSH2 0x11A4 JUMP JUMPDEST STOP JUMPDEST PUSH1 0x8 PUSH1 0x1 PUSH1 0x0 CALLER PUSH20 0xFFFFFFFFFFFFFFFFFFFFFFFFFFFFFFFFFFFFFFFF AND PUSH20 0xFFFFFFFFFFFFFFFFFFFFFFFFFFFFFFFFFFFFFFFF AND DUP2 MSTORE PUSH1 0x20 ADD SWAP1 DUP2 MSTORE PUSH1 0x20 ADD PUSH1 0x0 KECCAK256 DUP1 SLOAD SWAP1 POP LT PUSH2 0x37F JUMPI PUSH1 0x0 DUP1 REVERT JUMPDEST PUSH1 0x1 PUSH1 0x0 CALLER PUSH20 0xFFFFFFFFFFFFFFFFFFFFFFFFFFFFFFFFFFFFFFFF AND PUSH20 0xFFFFFFFFFFFFFFFFFFFFFFFFFFFFFFFFFFFFFFFF AND DUP2 MSTORE PUSH1 0x20 ADD SWAP1 DUP2 MSTORE PUSH1 0x20 ADD PUSH1 0x0 KECCAK256 PUSH1 0x40 MLOAD DUP1 PUSH1 0x80 ADD PUSH1 0x40 MSTORE DUP1 TIMESTAMP DUP2 MSTORE PUSH1 0x20 ADD DUP4 DUP2 MSTORE PUSH1 0x20 ADD DUP4 PUSH1 0x4 SLOAD PUSH2 0x3E3 SWAP2 SWAP1 PUSH2 0x1742 JUMP JUMPDEST DUP2 MSTORE PUSH1 0x20 ADD PUSH1 0x0 ISZERO ISZERO DUP2 MSTORE POP SWAP1 DUP1 PUSH1 0x1 DUP2 SLOAD ADD DUP1 DUP3 SSTORE DUP1 SWAP2 POP POP PUSH1 0x1 SWAP1 SUB SWAP1 PUSH1 0x0 MSTORE PUSH1 0x20 PUSH1 0x0 KECCAK256 SWAP1 PUSH1 0x4 MUL ADD PUSH1 0x0 SWAP1 SWAP2 SWAP1 SWAP2 SWAP1 SWAP2 POP PUSH1 0x0 DUP3 ADD MLOAD DUP2 PUSH1 0x0 ADD SSTORE PUSH1 0x20 DUP3 ADD MLOAD DUP2 PUSH1 0x1 ADD SSTORE PUSH1 0x40 DUP3 ADD MLOAD DUP2 PUSH1 0x2 ADD SSTORE PUSH1 0x60 DUP3 ADD MLOAD DUP2 PUSH1 0x3 ADD PUSH1 0x0 PUSH2 0x100 EXP DUP2 SLOAD DUP2 PUSH1 0xFF MUL NOT AND SWAP1 DUP4 ISZERO ISZERO MUL OR SWAP1 SSTORE POP POP POP POP JUMP JUMPDEST PUSH1 0x0 SELFBALANCE SWAP1 POP SWAP1 JUMP JUMPDEST PUSH1 0x1 PUSH1 0x20 MSTORE DUP2 PUSH1 0x0 MSTORE PUSH1 0x40 PUSH1 0x0 KECCAK256 DUP2 DUP2 SLOAD DUP2 LT PUSH2 0x47F JUMPI PUSH1 0x0 DUP1 REVERT JUMPDEST SWAP1 PUSH1 0x0 MSTORE PUSH1 0x20 PUSH1 0x0 KECCAK256 SWAP1 PUSH1 0x4 MUL ADD PUSH1 0x0 SWAP2 POP SWAP2 POP POP DUP1 PUSH1 0x0 ADD SLOAD SWAP1 DUP1 PUSH1 0x1 ADD SLOAD SWAP1 DUP1 PUSH1 0x2 ADD SLOAD SWAP1 DUP1 PUSH1 0x3 ADD PUSH1 0x0 SWAP1 SLOAD SWAP1 PUSH2 0x100 EXP SWAP1 DIV PUSH1 0xFF AND SWAP1 POP DUP5 JUMP JUMPDEST PUSH1 0x3 PUSH1 0x0 SWAP1 SLOAD SWAP1 PUSH2 0x100 EXP SWAP1 DIV PUSH20 0xFFFFFFFFFFFFFFFFFFFFFFFFFFFFFFFFFFFFFFFF AND PUSH20 0xFFFFFFFFFFFFFFFFFFFFFFFFFFFFFFFFFFFFFFFF AND CALLER PUSH20 0xFFFFFFFFFFFFFFFFFFFFFFFFFFFFFFFFFFFFFFFF AND EQ PUSH2 0x54D JUMPI PUSH1 0x40 MLOAD PUSH32 0x8C379A000000000000000000000000000000000000000000000000000000000 DUP2 MSTORE PUSH1 0x4 ADD PUSH2 0x544 SWAP1 PUSH2 0x17D0 JUMP JUMPDEST PUSH1 0x40 MLOAD DUP1 SWAP2 SUB SWAP1 REVERT JUMPDEST PUSH1 0x1 ISZERO ISZERO DUP3 PUSH20 0xFFFFFFFFFFFFFFFFFFFFFFFFFFFFFFFFFFFFFFFF AND CALLER PUSH20 0xFFFFFFFFFFFFFFFFFFFFFFFFFFFFFFFFFFFFFFFF AND PUSH32 0x62A0718D681B5A77AD80FBAF7E41FF461F77B69D49E3879CBA8E045C85E2AC74 PUSH1 0x1 PUSH1 0x0 DUP8 PUSH20 0xFFFFFFFFFFFFFFFFFFFFFFFFFFFFFFFFFFFFFFFF AND PUSH20 0xFFFFFFFFFFFFFFFFFFFFFFFFFFFFFFFFFFFFFFFF AND DUP2 MSTORE PUSH1 0x20 ADD SWAP1 DUP2 MSTORE PUSH1 0x20 ADD PUSH1 0x0 KECCAK256 DUP6 DUP2 SLOAD DUP2 LT PUSH2 0x5F1 JUMPI PUSH2 0x5F0 PUSH2 0x17F0 JUMP JUMPDEST JUMPDEST SWAP1 PUSH1 0x0 MSTORE PUSH1 0x20 PUSH1 0x0 KECCAK256 SWAP1 PUSH1 0x4 MUL ADD PUSH1 0x0 ADD SLOAD PUSH1 0x1 PUSH1 0x0 DUP9 PUSH20 0xFFFFFFFFFFFFFFFFFFFFFFFFFFFFFFFFFFFFFFFF AND PUSH20 0xFFFFFFFFFFFFFFFFFFFFFFFFFFFFFFFFFFFFFFFF AND DUP2 MSTORE PUSH1 0x20 ADD SWAP1 DUP2 MSTORE PUSH1 0x20 ADD PUSH1 0x0 KECCAK256 DUP7 DUP2 SLOAD DUP2 LT PUSH2 0x654 JUMPI PUSH2 0x653 PUSH2 0x17F0 JUMP JUMPDEST JUMPDEST SWAP1 PUSH1 0x0 MSTORE PUSH1 0x20 PUSH1 0x0 KECCAK256 SWAP1 PUSH1 0x4 MUL ADD PUSH1 0x1 ADD SLOAD PUSH1 0x1 PUSH1 0x0 DUP10 PUSH20 0xFFFFFFFFFFFFFFFFFFFFFFFFFFFFFFFFFFFFFFFF AND PUSH20 0xFFFFFFFFFFFFFFFFFFFFFFFFFFFFFFFFFFFFFFFF AND DUP2 MSTORE PUSH1 0x20 ADD SWAP1 DUP2 MSTORE PUSH1 0x20 ADD PUSH1 0x0 KECCAK256 DUP8 DUP2 SLOAD DUP2 LT PUSH2 0x6B7 JUMPI PUSH2 0x6B6 PUSH2 0x17F0 JUMP JUMPDEST JUMPDEST SWAP1 PUSH1 0x0 MSTORE PUSH1 0x20 PUSH1 0x0 KECCAK256 SWAP1 PUSH1 0x4 MUL ADD PUSH1 0x1 ADD SLOAD PUSH1 0x4 SLOAD PUSH2 0x6D6 SWAP2 SWAP1 PUSH2 0x1742 JUMP JUMPDEST PUSH1 0x40 MLOAD PUSH2 0x6E5 SWAP4 SWAP3 SWAP2 SWAP1 PUSH2 0x181F JUMP JUMPDEST PUSH1 0x40 MLOAD DUP1 SWAP2 SUB SWAP1 LOG4 DUP2 PUSH20 0xFFFFFFFFFFFFFFFFFFFFFFFFFFFFFFFFFFFFFFFF AND PUSH2 0x8FC PUSH1 0x1 PUSH1 0x0 DUP6 PUSH20 0xFFFFFFFFFFFFFFFFFFFFFFFFFFFFFFFFFFFFFFFF AND PUSH20 0xFFFFFFFFFFFFFFFFFFFFFFFFFFFFFFFFFFFFFFFF AND DUP2 MSTORE PUSH1 0x20 ADD SWAP1 DUP2 MSTORE PUSH1 0x20 ADD PUSH1 0x0 KECCAK256 DUP4 DUP2 SLOAD DUP2 LT PUSH2 0x758 JUMPI PUSH2 0x757 PUSH2 0x17F0 JUMP JUMPDEST JUMPDEST SWAP1 PUSH1 0x0 MSTORE PUSH1 0x20 PUSH1 0x0 KECCAK256 SWAP1 PUSH1 0x4 MUL ADD PUSH1 0x1 ADD SLOAD PUSH1 0xF PUSH1 0x4 SLOAD PUSH2 0x779 SWAP2 SWAP1 PUSH2 0x1742 JUMP JUMPDEST PUSH2 0x783 SWAP2 SWAP1 PUSH2 0x1742 JUMP JUMPDEST SWAP1 DUP2 ISZERO MUL SWAP1 PUSH1 0x40 MLOAD PUSH1 0x0 PUSH1 0x40 MLOAD DUP1 DUP4 SUB DUP2 DUP6 DUP9 DUP9 CALL SWAP4 POP POP POP POP ISZERO DUP1 ISZERO PUSH2 0x7AE JUMPI RETURNDATASIZE PUSH1 0x0 DUP1 RETURNDATACOPY RETURNDATASIZE PUSH1 0x0 REVERT JUMPDEST POP PUSH1 0x0 DUP2 SWAP1 POP JUMPDEST PUSH1 0x1 DUP1 PUSH1 0x0 DUP6 PUSH20 0xFFFFFFFFFFFFFFFFFFFFFFFFFFFFFFFFFFFFFFFF AND PUSH20 0xFFFFFFFFFFFFFFFFFFFFFFFFFFFFFFFFFFFFFFFF AND DUP2 MSTORE PUSH1 0x20 ADD SWAP1 DUP2 MSTORE PUSH1 0x20 ADD PUSH1 0x0 KECCAK256 DUP1 SLOAD SWAP1 POP PUSH2 0x803 SWAP2 SWAP1 PUSH2 0x1856 JUMP JUMPDEST DUP2 LT ISZERO PUSH2 0x935 JUMPI PUSH1 0x1 PUSH1 0x0 DUP5 PUSH20 0xFFFFFFFFFFFFFFFFFFFFFFFFFFFFFFFFFFFFFFFF AND PUSH20 0xFFFFFFFFFFFFFFFFFFFFFFFFFFFFFFFFFFFFFFFF AND DUP2 MSTORE PUSH1 0x20 ADD SWAP1 DUP2 MSTORE PUSH1 0x20 ADD PUSH1 0x0 KECCAK256 PUSH1 0x1 DUP3 PUSH2 0x856 SWAP2 SWAP1 PUSH2 0x188A JUMP JUMPDEST DUP2 SLOAD DUP2 LT PUSH2 0x867 JUMPI PUSH2 0x866 PUSH2 0x17F0 JUMP JUMPDEST JUMPDEST SWAP1 PUSH1 0x0 MSTORE PUSH1 0x20 PUSH1 0x0 KECCAK256 SWAP1 PUSH1 0x4 MUL ADD PUSH1 0x1 PUSH1 0x0 DUP6 PUSH20 0xFFFFFFFFFFFFFFFFFFFFFFFFFFFFFFFFFFFFFFFF AND PUSH20 0xFFFFFFFFFFFFFFFFFFFFFFFFFFFFFFFFFFFFFFFF AND DUP2 MSTORE PUSH1 0x20 ADD SWAP1 DUP2 MSTORE PUSH1 0x20 ADD PUSH1 0x0 KECCAK256 DUP3 DUP2 SLOAD DUP2 LT PUSH2 0x8C6 JUMPI PUSH2 0x8C5 PUSH2 0x17F0 JUMP JUMPDEST JUMPDEST SWAP1 PUSH1 0x0 MSTORE PUSH1 0x20 PUSH1 0x0 KECCAK256 SWAP1 PUSH1 0x4 MUL ADD PUSH1 0x0 DUP3 ADD SLOAD DUP2 PUSH1 0x0 ADD SSTORE PUSH1 0x1 DUP3 ADD SLOAD DUP2 PUSH1 0x1 ADD SSTORE PUSH1 0x2 DUP3 ADD SLOAD DUP2 PUSH1 0x2 ADD SSTORE PUSH1 0x3 DUP3 ADD PUSH1 0x0 SWAP1 SLOAD SWAP1 PUSH2 0x100 EXP SWAP1 DIV PUSH1 0xFF AND DUP2 PUSH1 0x3 ADD PUSH1 0x0 PUSH2 0x100 EXP DUP2 SLOAD DUP2 PUSH1 0xFF MUL NOT AND SWAP1 DUP4 ISZERO ISZERO MUL OR SWAP1 SSTORE POP SWAP1 POP POP DUP1 DUP1 PUSH2 0x92D SWAP1 PUSH2 0x18BE JUMP JUMPDEST SWAP2 POP POP PUSH2 0x7B5 JUMP JUMPDEST POP PUSH1 0x1 PUSH1 0x0 DUP4 PUSH20 0xFFFFFFFFFFFFFFFFFFFFFFFFFFFFFFFFFFFFFFFF AND PUSH20 0xFFFFFFFFFFFFFFFFFFFFFFFFFFFFFFFFFFFFFFFF AND DUP2 MSTORE PUSH1 0x20 ADD SWAP1 DUP2 MSTORE PUSH1 0x20 ADD PUSH1 0x0 KECCAK256 DUP1 SLOAD DUP1 PUSH2 0x985 JUMPI PUSH2 0x984 PUSH2 0x1906 JUMP JUMPDEST JUMPDEST PUSH1 0x1 SWAP1 SUB DUP2 DUP2 SWAP1 PUSH1 0x0 MSTORE PUSH1 0x20 PUSH1 0x0 KECCAK256 SWAP1 PUSH1 0x4 MUL ADD PUSH1 0x0 DUP1 DUP3 ADD PUSH1 0x0 SWAP1 SSTORE PUSH1 0x1 DUP3 ADD PUSH1 0x0 SWAP1 SSTORE PUSH1 0x2 DUP3 ADD PUSH1 0x0 SWAP1 SSTORE PUSH1 0x3 DUP3 ADD PUSH1 0x0 PUSH2 0x100 EXP DUP2 SLOAD SWAP1 PUSH1 0xFF MUL NOT AND SWAP1 SSTORE POP POP SWAP1 SSTORE POP POP JUMP JUMPDEST PUSH1 0x3 PUSH1 0x0 SWAP1 SLOAD SWAP1 PUSH2 0x100 EXP SWAP1 DIV PUSH20 0xFFFFFFFFFFFFFFFFFFFFFFFFFFFFFFFFFFFFFFFF AND DUP2 JUMP JUMPDEST PUSH1 0x4 SLOAD DUP2 JUMP JUMPDEST PUSH1 0x3 PUSH1 0x0 SWAP1 SLOAD SWAP1 PUSH2 0x100 EXP SWAP1 DIV PUSH20 0xFFFFFFFFFFFFFFFFFFFFFFFFFFFFFFFFFFFFFFFF AND PUSH20 0xFFFFFFFFFFFFFFFFFFFFFFFFFFFFFFFFFFFFFFFF AND CALLER PUSH20 0xFFFFFFFFFFFFFFFFFFFFFFFFFFFFFFFFFFFFFFFF AND EQ PUSH2 0xA8A JUMPI PUSH1 0x40 MLOAD PUSH32 0x8C379A000000000000000000000000000000000000000000000000000000000 DUP2 MSTORE PUSH1 0x4 ADD PUSH2 0xA81 SWAP1 PUSH2 0x17D0 JUMP JUMPDEST PUSH1 0x40 MLOAD DUP1 SWAP2 SUB SWAP1 REVERT JUMPDEST PUSH1 0x0 ISZERO ISZERO DUP3 PUSH20 0xFFFFFFFFFFFFFFFFFFFFFFFFFFFFFFFFFFFFFFFF AND CALLER PUSH20 0xFFFFFFFFFFFFFFFFFFFFFFFFFFFFFFFFFFFFFFFF AND PUSH32 0x62A0718D681B5A77AD80FBAF7E41FF461F77B69D49E3879CBA8E045C85E2AC74 PUSH1 0x1 PUSH1 0x0 DUP8 PUSH20 0xFFFFFFFFFFFFFFFFFFFFFFFFFFFFFFFFFFFFFFFF AND PUSH20 0xFFFFFFFFFFFFFFFFFFFFFFFFFFFFFFFFFFFFFFFF AND DUP2 MSTORE PUSH1 0x20 ADD SWAP1 DUP2 MSTORE PUSH1 0x20 ADD PUSH1 0x0 KECCAK256 DUP6 DUP2 SLOAD DUP2 LT PUSH2 0xB2E JUMPI PUSH2 0xB2D PUSH2 0x17F0 JUMP JUMPDEST JUMPDEST SWAP1 PUSH1 0x0 MSTORE PUSH1 0x20 PUSH1 0x0 KECCAK256 SWAP1 PUSH1 0x4 MUL ADD PUSH1 0x0 ADD SLOAD PUSH1 0x1 PUSH1 0x0 DUP9 PUSH20 0xFFFFFFFFFFFFFFFFFFFFFFFFFFFFFFFFFFFFFFFF AND PUSH20 0xFFFFFFFFFFFFFFFFFFFFFFFFFFFFFFFFFFFFFFFF AND DUP2 MSTORE PUSH1 0x20 ADD SWAP1 DUP2 MSTORE PUSH1 0x20 ADD PUSH1 0x0 KECCAK256 DUP7 DUP2 SLOAD DUP2 LT PUSH2 0xB91 JUMPI PUSH2 0xB90 PUSH2 0x17F0 JUMP JUMPDEST JUMPDEST SWAP1 PUSH1 0x0 MSTORE PUSH1 0x20 PUSH1 0x0 KECCAK256 SWAP1 PUSH1 0x4 MUL ADD PUSH1 0x1 ADD SLOAD PUSH1 0x0 PUSH1 0x40 MLOAD PUSH2 0xBB4 SWAP4 SWAP3 SWAP2 SWAP1 PUSH2 0x197A JUMP JUMPDEST PUSH1 0x40 MLOAD DUP1 SWAP2 SUB SWAP1 LOG4 PUSH1 0x0 DUP2 SWAP1 POP JUMPDEST PUSH1 0x1 DUP1 PUSH1 0x0 DUP6 PUSH20 0xFFFFFFFFFFFFFFFFFFFFFFFFFFFFFFFFFFFFFFFF AND PUSH20 0xFFFFFFFFFFFFFFFFFFFFFFFFFFFFFFFFFFFFFFFF AND DUP2 MSTORE PUSH1 0x20 ADD SWAP1 DUP2 MSTORE PUSH1 0x20 ADD PUSH1 0x0 KECCAK256 DUP1 SLOAD SWAP1 POP PUSH2 0xC10 SWAP2 SWAP1 PUSH2 0x1856 JUMP JUMPDEST DUP2 LT ISZERO PUSH2 0xD42 JUMPI PUSH1 0x1 PUSH1 0x0 DUP5 PUSH20 0xFFFFFFFFFFFFFFFFFFFFFFFFFFFFFFFFFFFFFFFF AND PUSH20 0xFFFFFFFFFFFFFFFFFFFFFFFFFFFFFFFFFFFFFFFF AND DUP2 MSTORE PUSH1 0x20 ADD SWAP1 DUP2 MSTORE PUSH1 0x20 ADD PUSH1 0x0 KECCAK256 PUSH1 0x1 DUP3 PUSH2 0xC63 SWAP2 SWAP1 PUSH2 0x188A JUMP JUMPDEST DUP2 SLOAD DUP2 LT PUSH2 0xC74 JUMPI PUSH2 0xC73 PUSH2 0x17F0 JUMP JUMPDEST JUMPDEST SWAP1 PUSH1 0x0 MSTORE PUSH1 0x20 PUSH1 0x0 KECCAK256 SWAP1 PUSH1 0x4 MUL ADD PUSH1 0x1 PUSH1 0x0 DUP6 PUSH20 0xFFFFFFFFFFFFFFFFFFFFFFFFFFFFFFFFFFFFFFFF AND PUSH20 0xFFFFFFFFFFFFFFFFFFFFFFFFFFFFFFFFFFFFFFFF AND DUP2 MSTORE PUSH1 0x20 ADD SWAP1 DUP2 MSTORE PUSH1 0x20 ADD PUSH1 0x0 KECCAK256 DUP3 DUP2 SLOAD DUP2 LT PUSH2 0xCD3 JUMPI PUSH2 0xCD2 PUSH2 0x17F0 JUMP JUMPDEST JUMPDEST SWAP1 PUSH1 0x0 MSTORE PUSH1 0x20 PUSH1 0x0 KECCAK256 SWAP1 PUSH1 0x4 MUL ADD PUSH1 0x0 DUP3 ADD SLOAD DUP2 PUSH1 0x0 ADD SSTORE PUSH1 0x1 DUP3 ADD SLOAD DUP2 PUSH1 0x1 ADD SSTORE PUSH1 0x2 DUP3 ADD SLOAD DUP2 PUSH1 0x2 ADD SSTORE PUSH1 0x3 DUP3 ADD PUSH1 0x0 SWAP1 SLOAD SWAP1 PUSH2 0x100 EXP SWAP1 DIV PUSH1 0xFF AND DUP2 PUSH1 0x3 ADD PUSH1 0x0 PUSH2 0x100 EXP DUP2 SLOAD DUP2 PUSH1 0xFF MUL NOT AND SWAP1 DUP4 ISZERO ISZERO MUL OR SWAP1 SSTORE POP SWAP1 POP POP DUP1 DUP1 PUSH2 0xD3A SWAP1 PUSH2 0x18BE JUMP JUMPDEST SWAP2 POP POP PUSH2 0xBC2 JUMP JUMPDEST POP PUSH1 0x1 PUSH1 0x0 DUP4 PUSH20 0xFFFFFFFFFFFFFFFFFFFFFFFFFFFFFFFFFFFFFFFF AND PUSH20 0xFFFFFFFFFFFFFFFFFFFFFFFFFFFFFFFFFFFFFFFF AND DUP2 MSTORE PUSH1 0x20 ADD SWAP1 DUP2 MSTORE PUSH1 0x20 ADD PUSH1 0x0 KECCAK256 DUP1 SLOAD DUP1 PUSH2 0xD92 JUMPI PUSH2 0xD91 PUSH2 0x1906 JUMP JUMPDEST JUMPDEST PUSH1 0x1 SWAP1 SUB DUP2 DUP2 SWAP1 PUSH1 0x0 MSTORE PUSH1 0x20 PUSH1 0x0 KECCAK256 SWAP1 PUSH1 0x4 MUL ADD PUSH1 0x0 DUP1 DUP3 ADD PUSH1 0x0 SWAP1 SSTORE PUSH1 0x1 DUP3 ADD PUSH1 0x0 SWAP1 SSTORE PUSH1 0x2 DUP3 ADD PUSH1 0x0 SWAP1 SSTORE PUSH1 0x3 DUP3 ADD PUSH1 0x0 PUSH2 0x100 EXP DUP2 SLOAD SWAP1 PUSH1 0xFF MUL NOT AND SWAP1 SSTORE POP POP SWAP1 SSTORE POP POP JUMP JUMPDEST PUSH1 0x0 DUP2 DUP2 SLOAD DUP2 LT PUSH2 0xDEB JUMPI PUSH1 0x0 DUP1 REVERT JUMPDEST SWAP1 PUSH1 0x0 MSTORE PUSH1 0x20 PUSH1 0x0 KECCAK256 SWAP1 PUSH1 0x3 MUL ADD PUSH1 0x0 SWAP2 POP SWAP1 POP DUP1 PUSH1 0x0 ADD PUSH1 0x0 SWAP1 SLOAD SWAP1 PUSH2 0x100 EXP SWAP1 DIV PUSH20 0xFFFFFFFFFFFFFFFFFFFFFFFFFFFFFFFFFFFFFFFF AND SWAP1 DUP1 PUSH1 0x1 ADD SLOAD SWAP1 DUP1 PUSH1 0x2 ADD DUP1 SLOAD PUSH2 0xE3A SWAP1 PUSH2 0x19E0 JUMP JUMPDEST DUP1 PUSH1 0x1F ADD PUSH1 0x20 DUP1 SWAP2 DIV MUL PUSH1 0x20 ADD PUSH1 0x40 MLOAD SWAP1 DUP2 ADD PUSH1 0x40 MSTORE DUP1 SWAP3 SWAP2 SWAP1 DUP2 DUP2 MSTORE PUSH1 0x20 ADD DUP3 DUP1 SLOAD PUSH2 0xE66 SWAP1 PUSH2 0x19E0 JUMP JUMPDEST DUP1 ISZERO PUSH2 0xEB3 JUMPI DUP1 PUSH1 0x1F LT PUSH2 0xE88 JUMPI PUSH2 0x100 DUP1 DUP4 SLOAD DIV MUL DUP4 MSTORE SWAP2 PUSH1 0x20 ADD SWAP2 PUSH2 0xEB3 JUMP JUMPDEST DUP3 ADD SWAP2 SWAP1 PUSH1 0x0 MSTORE PUSH1 0x20 PUSH1 0x0 KECCAK256 SWAP1 JUMPDEST DUP2 SLOAD DUP2 MSTORE SWAP1 PUSH1 0x1 ADD SWAP1 PUSH1 0x20 ADD DUP1 DUP4 GT PUSH2 0xE96 JUMPI DUP3 SWAP1 SUB PUSH1 0x1F AND DUP3 ADD SWAP2 JUMPDEST POP POP POP POP POP SWAP1 POP DUP4 JUMP JUMPDEST PUSH1 0x60 PUSH1 0x1 PUSH1 0x0 DUP4 PUSH20 0xFFFFFFFFFFFFFFFFFFFFFFFFFFFFFFFFFFFFFFFF AND PUSH20 0xFFFFFFFFFFFFFFFFFFFFFFFFFFFFFFFFFFFFFFFF AND DUP2 MSTORE PUSH1 0x20 ADD SWAP1 DUP2 MSTORE PUSH1 0x20 ADD PUSH1 0x0 KECCAK256 DUP1 SLOAD DUP1 PUSH1 0x20 MUL PUSH1 0x20 ADD PUSH1 0x40 MLOAD SWAP1 DUP2 ADD PUSH1 0x40 MSTORE DUP1 SWAP3 SWAP2 SWAP1 DUP2 DUP2 MSTORE PUSH1 0x20 ADD PUSH1 0x0 SWAP1 JUMPDEST DUP3 DUP3 LT ISZERO PUSH2 0xF89 JUMPI DUP4 DUP3 SWAP1 PUSH1 0x0 MSTORE PUSH1 0x20 PUSH1 0x0 KECCAK256 SWAP1 PUSH1 0x4 MUL ADD PUSH1 0x40 MLOAD DUP1 PUSH1 0x80 ADD PUSH1 0x40 MSTORE SWAP1 DUP2 PUSH1 0x0 DUP3 ADD SLOAD DUP2 MSTORE PUSH1 0x20 ADD PUSH1 0x1 DUP3 ADD SLOAD DUP2 MSTORE PUSH1 0x20 ADD PUSH1 0x2 DUP3 ADD SLOAD DUP2 MSTORE PUSH1 0x20 ADD PUSH1 0x3 DUP3 ADD PUSH1 0x0 SWAP1 SLOAD SWAP1 PUSH2 0x100 EXP SWAP1 DIV PUSH1 0xFF AND ISZERO ISZERO ISZERO ISZERO DUP2 MSTORE POP POP DUP2 MSTORE PUSH1 0x20 ADD SWAP1 PUSH1 0x1 ADD SWAP1 PUSH2 0xF1E JUMP JUMPDEST POP POP POP POP SWAP1 POP SWAP2 SWAP1 POP JUMP JUMPDEST PUSH1 0x0 DUP2 LT ISZERO DUP1 ISZERO PUSH2 0xFA6 JUMPI POP PUSH1 0x5 DUP2 GT ISZERO JUMPDEST PUSH2 0xFAF JUMPI PUSH1 0x0 DUP1 REVERT JUMPDEST DUP1 DUP3 PUSH20 0xFFFFFFFFFFFFFFFFFFFFFFFFFFFFFFFFFFFFFFFF AND CALLER PUSH20 0xFFFFFFFFFFFFFFFFFFFFFFFFFFFFFFFFFFFFFFFF AND PUSH32 0x5435029AE8E53F5303B6DBDA07BE9BEB09AE106923C28BF30DC3C46852588F04 PUSH1 0x40 MLOAD PUSH1 0x40 MLOAD DUP1 SWAP2 SUB SWAP1 LOG4 POP POP JUMP JUMPDEST DUP1 PUSH20 0xFFFFFFFFFFFFFFFFFFFFFFFFFFFFFFFFFFFFFFFF AND PUSH2 0x8FC CALLVALUE SWAP1 DUP2 ISZERO MUL SWAP1 PUSH1 0x40 MLOAD PUSH1 0x0 PUSH1 0x40 MLOAD DUP1 DUP4 SUB DUP2 DUP6 DUP9 DUP9 CALL SWAP4 POP POP POP POP ISZERO DUP1 ISZERO PUSH2 0x1054 JUMPI RETURNDATASIZE PUSH1 0x0 DUP1 RETURNDATACOPY RETURNDATASIZE PUSH1 0x0 REVERT JUMPDEST POP DUP1 PUSH20 0xFFFFFFFFFFFFFFFFFFFFFFFFFFFFFFFFFFFFFFFF AND CALLER PUSH20 0xFFFFFFFFFFFFFFFFFFFFFFFFFFFFFFFFFFFFFFFF AND PUSH32 0xAD011377252E79C9D574CED1048C7D7020D2ABD44385576062139ED308DFE972 CALLVALUE PUSH1 0x40 MLOAD PUSH2 0x10B2 SWAP2 SWAP1 PUSH2 0x126F JUMP JUMPDEST PUSH1 0x40 MLOAD DUP1 SWAP2 SUB SWAP1 LOG3 POP JUMP JUMPDEST TIMESTAMP CALLER PUSH20 0xFFFFFFFFFFFFFFFFFFFFFFFFFFFFFFFFFFFFFFFF AND PUSH32 0x556A8D88A81363D3D82E0A4349B1C101AA81B26DD3F3C9E97A447B9F6CAFBF53 DUP4 PUSH1 0x40 MLOAD PUSH2 0x1104 SWAP2 SWAP1 PUSH2 0x126F JUMP JUMPDEST PUSH1 0x40 MLOAD DUP1 SWAP2 SUB SWAP1 LOG3 DUP1 PUSH1 0x4 DUP2 SWAP1 SSTORE POP POP JUMP JUMPDEST PUSH1 0x2 DUP1 SLOAD PUSH2 0x1123 SWAP1 PUSH2 0x19E0 JUMP JUMPDEST DUP1 PUSH1 0x1F ADD PUSH1 0x20 DUP1 SWAP2 DIV MUL PUSH1 0x20 ADD PUSH1 0x40 MLOAD SWAP1 DUP2 ADD PUSH1 0x40 MSTORE DUP1 SWAP3 SWAP2 SWAP1 DUP2 DUP2 MSTORE PUSH1 0x20 ADD DUP3 DUP1 SLOAD PUSH2 0x114F SWAP1 PUSH2 0x19E0 JUMP JUMPDEST DUP1 ISZERO PUSH2 0x119C JUMPI DUP1 PUSH1 0x1F LT PUSH2 0x1171 JUMPI PUSH2 0x100 DUP1 DUP4 SLOAD DIV MUL DUP4 MSTORE SWAP2 PUSH1 0x20 ADD SWAP2 PUSH2 0x119C JUMP JUMPDEST DUP3 ADD SWAP2 SWAP1 PUSH1 0x0 MSTORE PUSH1 0x20 PUSH1 0x0 KECCAK256 SWAP1 JUMPDEST DUP2 SLOAD DUP2 MSTORE SWAP1 PUSH1 0x1 ADD SWAP1 PUSH1 0x20 ADD DUP1 DUP4 GT PUSH2 0x117F JUMPI DUP3 SWAP1 SUB PUSH1 0x1F AND DUP3 ADD SWAP2 JUMPDEST POP POP POP POP POP DUP2 JUMP JUMPDEST CALLER PUSH20 0xFFFFFFFFFFFFFFFFFFFFFFFFFFFFFFFFFFFFFFFF AND PUSH32 0x36AF321EC8D3C75236829C5317AFFD40DDB308863A1236D2D277A4025CCCEE1E CALLVALUE SELFBALANCE TIMESTAMP PUSH1 0x40 MLOAD PUSH2 0x11EE SWAP4 SWAP3 SWAP2 SWAP1 PUSH2 0x181F JUMP JUMPDEST PUSH1 0x40 MLOAD DUP1 SWAP2 SUB SWAP1 LOG2 JUMP JUMPDEST PUSH1 0x0 DUP1 REVERT JUMPDEST PUSH1 0x0 DUP2 SWAP1 POP SWAP2 SWAP1 POP JUMP JUMPDEST PUSH2 0x1210 DUP2 PUSH2 0x11FD JUMP JUMPDEST DUP2 EQ PUSH2 0x121B JUMPI PUSH1 0x0 DUP1 REVERT JUMPDEST POP JUMP JUMPDEST PUSH1 0x0 DUP2 CALLDATALOAD SWAP1 POP PUSH2 0x122D DUP2 PUSH2 0x1207 JUMP JUMPDEST SWAP3 SWAP2 POP POP JUMP JUMPDEST PUSH1 0x0 PUSH1 0x20 DUP3 DUP5 SUB SLT ISZERO PUSH2 0x1249 JUMPI PUSH2 0x1248 PUSH2 0x11F8 JUMP JUMPDEST JUMPDEST PUSH1 0x0 PUSH2 0x1257 DUP5 DUP3 DUP6 ADD PUSH2 0x121E JUMP JUMPDEST SWAP2 POP POP SWAP3 SWAP2 POP POP JUMP JUMPDEST PUSH2 0x1269 DUP2 PUSH2 0x11FD JUMP JUMPDEST DUP3 MSTORE POP POP JUMP JUMPDEST PUSH1 0x0 PUSH1 0x20 DUP3 ADD SWAP1 POP PUSH2 0x1284 PUSH1 0x0 DUP4 ADD DUP5 PUSH2 0x1260 JUMP JUMPDEST SWAP3 SWAP2 POP POP JUMP JUMPDEST PUSH1 0x0 PUSH20 0xFFFFFFFFFFFFFFFFFFFFFFFFFFFFFFFFFFFFFFFF DUP3 AND SWAP1 POP SWAP2 SWAP1 POP JUMP JUMPDEST PUSH1 0x0 PUSH2 0x12B5 DUP3 PUSH2 0x128A JUMP JUMPDEST SWAP1 POP SWAP2 SWAP1 POP JUMP JUMPDEST PUSH2 0x12C5 DUP2 PUSH2 0x12AA JUMP JUMPDEST DUP2 EQ PUSH2 0x12D0 JUMPI PUSH1 0x0 DUP1 REVERT JUMPDEST POP JUMP JUMPDEST PUSH1 0x0 DUP2 CALLDATALOAD SWAP1 POP PUSH2 0x12E2 DUP2 PUSH2 0x12BC JUMP JUMPDEST SWAP3 SWAP2 POP POP JUMP JUMPDEST PUSH1 0x0 DUP1 PUSH1 0x40 DUP4 DUP6 SUB SLT ISZERO PUSH2 0x12FF JUMPI PUSH2 0x12FE PUSH2 0x11F8 JUMP JUMPDEST JUMPDEST PUSH1 0x0 PUSH2 0x130D DUP6 DUP3 DUP7 ADD PUSH2 0x12D3 JUMP JUMPDEST SWAP3 POP POP PUSH1 0x20 PUSH2 0x131E DUP6 DUP3 DUP7 ADD PUSH2 0x121E JUMP JUMPDEST SWAP2 POP POP SWAP3 POP SWAP3 SWAP1 POP JUMP JUMPDEST PUSH1 0x0 DUP2 ISZERO ISZERO SWAP1 POP SWAP2 SWAP1 POP JUMP JUMPDEST PUSH2 0x133D DUP2 PUSH2 0x1328 JUMP JUMPDEST DUP3 MSTORE POP POP JUMP JUMPDEST PUSH1 0x0 PUSH1 0x80 DUP3 ADD SWAP1 POP PUSH2 0x1358 PUSH1 0x0 DUP4 ADD DUP8 PUSH2 0x1260 JUMP JUMPDEST PUSH2 0x1365 PUSH1 0x20 DUP4 ADD DUP7 PUSH2 0x1260 JUMP JUMPDEST PUSH2 0x1372 PUSH1 0x40 DUP4 ADD DUP6 PUSH2 0x1260 JUMP JUMPDEST PUSH2 0x137F PUSH1 0x60 DUP4 ADD DUP5 PUSH2 0x1334 JUMP JUMPDEST SWAP6 SWAP5 POP POP POP POP POP JUMP JUMPDEST PUSH1 0x0 PUSH2 0x1393 DUP3 PUSH2 0x128A JUMP JUMPDEST SWAP1 POP SWAP2 SWAP1 POP JUMP JUMPDEST PUSH2 0x13A3 DUP2 PUSH2 0x1388 JUMP JUMPDEST DUP2 EQ PUSH2 0x13AE JUMPI PUSH1 0x0 DUP1 REVERT JUMPDEST POP JUMP JUMPDEST PUSH1 0x0 DUP2 CALLDATALOAD SWAP1 POP PUSH2 0x13C0 DUP2 PUSH2 0x139A JUMP JUMPDEST SWAP3 SWAP2 POP POP JUMP JUMPDEST PUSH1 0x0 DUP1 PUSH1 0x40 DUP4 DUP6 SUB SLT ISZERO PUSH2 0x13DD JUMPI PUSH2 0x13DC PUSH2 0x11F8 JUMP JUMPDEST JUMPDEST PUSH1 0x0 PUSH2 0x13EB DUP6 DUP3 DUP7 ADD PUSH2 0x13B1 JUMP JUMPDEST SWAP3 POP POP PUSH1 0x20 PUSH2 0x13FC DUP6 DUP3 DUP7 ADD PUSH2 0x121E JUMP JUMPDEST SWAP2 POP POP SWAP3 POP SWAP3 SWAP1 POP JUMP JUMPDEST PUSH2 0x140F DUP2 PUSH2 0x12AA JUMP JUMPDEST DUP3 MSTORE POP POP JUMP JUMPDEST PUSH1 0x0 PUSH1 0x20 DUP3 ADD SWAP1 POP PUSH2 0x142A PUSH1 0x0 DUP4 ADD DUP5 PUSH2 0x1406 JUMP JUMPDEST SWAP3 SWAP2 POP POP JUMP JUMPDEST PUSH1 0x0 DUP2 MLOAD SWAP1 POP SWAP2 SWAP1 POP JUMP JUMPDEST PUSH1 0x0 DUP3 DUP3 MSTORE PUSH1 0x20 DUP3 ADD SWAP1 POP SWAP3 SWAP2 POP POP JUMP JUMPDEST PUSH1 0x0 JUMPDEST DUP4 DUP2 LT ISZERO PUSH2 0x146A JUMPI DUP1 DUP3 ADD MLOAD DUP2 DUP5 ADD MSTORE PUSH1 0x20 DUP2 ADD SWAP1 POP PUSH2 0x144F JUMP JUMPDEST PUSH1 0x0 DUP5 DUP5 ADD MSTORE POP POP POP POP JUMP JUMPDEST PUSH1 0x0 PUSH1 0x1F NOT PUSH1 0x1F DUP4 ADD AND SWAP1 POP SWAP2 SWAP1 POP JUMP JUMPDEST PUSH1 0x0 PUSH2 0x1492 DUP3 PUSH2 0x1430 JUMP JUMPDEST PUSH2 0x149C DUP2 DUP6 PUSH2 0x143B JUMP JUMPDEST SWAP4 POP PUSH2 0x14AC DUP2 DUP6 PUSH1 0x20 DUP7 ADD PUSH2 0x144C JUMP JUMPDEST PUSH2 0x14B5 DUP2 PUSH2 0x1476 JUMP JUMPDEST DUP5 ADD SWAP2 POP POP SWAP3 SWAP2 POP POP JUMP JUMPDEST PUSH1 0x0 PUSH1 0x60 DUP3 ADD SWAP1 POP PUSH2 0x14D5 PUSH1 0x0 DUP4 ADD DUP7 PUSH2 0x1406 JUMP JUMPDEST PUSH2 0x14E2 PUSH1 0x20 DUP4 ADD DUP6 PUSH2 0x1260 JUMP JUMPDEST DUP2 DUP2 SUB PUSH1 0x40 DUP4 ADD MSTORE PUSH2 0x14F4 DUP2 DUP5 PUSH2 0x1487 JUMP JUMPDEST SWAP1 POP SWAP5 SWAP4 POP POP POP POP JUMP JUMPDEST PUSH1 0x0 PUSH1 0x20 DUP3 DUP5 SUB SLT ISZERO PUSH2 0x1514 JUMPI PUSH2 0x1513 PUSH2 0x11F8 JUMP JUMPDEST JUMPDEST PUSH1 0x0 PUSH2 0x1522 DUP5 DUP3 DUP6 ADD PUSH2 0x12D3 JUMP JUMPDEST SWAP2 POP POP SWAP3 SWAP2 POP POP JUMP JUMPDEST PUSH1 0x0 DUP2 MLOAD SWAP1 POP SWAP2 SWAP1 POP JUMP JUMPDEST PUSH1 0x0 DUP3 DUP3 MSTORE PUSH1 0x20 DUP3 ADD SWAP1 POP SWAP3 SWAP2 POP POP JUMP JUMPDEST PUSH1 0x0 DUP2 SWAP1 POP PUSH1 0x20 DUP3 ADD SWAP1 POP SWAP2 SWAP1 POP JUMP JUMPDEST PUSH2 0x1560 DUP2 PUSH2 0x11FD JUMP JUMPDEST DUP3 MSTORE POP POP JUMP JUMPDEST PUSH2 0x156F DUP2 PUSH2 0x1328 JUMP JUMPDEST DUP3 MSTORE POP POP JUMP JUMPDEST PUSH1 0x80 DUP3 ADD PUSH1 0x0 DUP3 ADD MLOAD PUSH2 0x158B PUSH1 0x0 DUP6 ADD DUP3 PUSH2 0x1557 JUMP JUMPDEST POP PUSH1 0x20 DUP3 ADD MLOAD PUSH2 0x159E PUSH1 0x20 DUP6 ADD DUP3 PUSH2 0x1557 JUMP JUMPDEST POP PUSH1 0x40 DUP3 ADD MLOAD PUSH2 0x15B1 PUSH1 0x40 DUP6 ADD DUP3 PUSH2 0x1557 JUMP JUMPDEST POP PUSH1 0x60 DUP3 ADD MLOAD PUSH2 0x15C4 PUSH1 0x60 DUP6 ADD DUP3 PUSH2 0x1566 JUMP JUMPDEST POP POP POP POP JUMP JUMPDEST PUSH1 0x0 PUSH2 0x15D6 DUP4 DUP4 PUSH2 0x1575 JUMP JUMPDEST PUSH1 0x80 DUP4 ADD SWAP1 POP SWAP3 SWAP2 POP POP JUMP JUMPDEST PUSH1 0x0 PUSH1 0x20 DUP3 ADD SWAP1 POP SWAP2 SWAP1 POP JUMP JUMPDEST PUSH1 0x0 PUSH2 0x15FA DUP3 PUSH2 0x152B JUMP JUMPDEST PUSH2 0x1604 DUP2 DUP6 PUSH2 0x1536 JUMP JUMPDEST SWAP4 POP PUSH2 0x160F DUP4 PUSH2 0x1547 JUMP JUMPDEST DUP1 PUSH1 0x0 JUMPDEST DUP4 DUP2 LT ISZERO PUSH2 0x1640 JUMPI DUP2 MLOAD PUSH2 0x1627 DUP9 DUP3 PUSH2 0x15CA JUMP JUMPDEST SWAP8 POP PUSH2 0x1632 DUP4 PUSH2 0x15E2 JUMP JUMPDEST SWAP3 POP POP PUSH1 0x1 DUP2 ADD SWAP1 POP PUSH2 0x1613 JUMP JUMPDEST POP DUP6 SWAP4 POP POP POP POP SWAP3 SWAP2 POP POP JUMP JUMPDEST PUSH1 0x0 PUSH1 0x20 DUP3 ADD SWAP1 POP DUP2 DUP2 SUB PUSH1 0x0 DUP4 ADD MSTORE PUSH2 0x1667 DUP2 DUP5 PUSH2 0x15EF JUMP JUMPDEST SWAP1 POP SWAP3 SWAP2 POP POP JUMP JUMPDEST PUSH1 0x0 PUSH1 0x20 DUP3 DUP5 SUB SLT ISZERO PUSH2 0x1685 JUMPI PUSH2 0x1684 PUSH2 0x11F8 JUMP JUMPDEST JUMPDEST PUSH1 0x0 PUSH2 0x1693 DUP5 DUP3 DUP6 ADD PUSH2 0x13B1 JUMP JUMPDEST SWAP2 POP POP SWAP3 SWAP2 POP POP JUMP JUMPDEST PUSH1 0x0 DUP2 MLOAD SWAP1 POP SWAP2 SWAP1 POP JUMP JUMPDEST PUSH1 0x0 DUP3 DUP3 MSTORE PUSH1 0x20 DUP3 ADD SWAP1 POP SWAP3 SWAP2 POP POP JUMP JUMPDEST PUSH1 0x0 PUSH2 0x16C3 DUP3 PUSH2 0x169C JUMP JUMPDEST PUSH2 0x16CD DUP2 DUP6 PUSH2 0x16A7 JUMP JUMPDEST SWAP4 POP PUSH2 0x16DD DUP2 DUP6 PUSH1 0x20 DUP7 ADD PUSH2 0x144C JUMP JUMPDEST PUSH2 0x16E6 DUP2 PUSH2 0x1476 JUMP JUMPDEST DUP5 ADD SWAP2 POP POP SWAP3 SWAP2 POP POP JUMP JUMPDEST PUSH1 0x0 PUSH1 0x20 DUP3 ADD SWAP1 POP DUP2 DUP2 SUB PUSH1 0x0 DUP4 ADD MSTORE PUSH2 0x170B DUP2 DUP5 PUSH2 0x16B8 JUMP JUMPDEST SWAP1 POP SWAP3 SWAP2 POP POP JUMP JUMPDEST PUSH32 0x4E487B7100000000000000000000000000000000000000000000000000000000 PUSH1 0x0 MSTORE PUSH1 0x11 PUSH1 0x4 MSTORE PUSH1 0x24 PUSH1 0x0 REVERT JUMPDEST PUSH1 0x0 PUSH2 0x174D DUP3 PUSH2 0x11FD JUMP JUMPDEST SWAP2 POP PUSH2 0x1758 DUP4 PUSH2 0x11FD JUMP JUMPDEST SWAP3 POP DUP3 DUP3 MUL PUSH2 0x1766 DUP2 PUSH2 0x11FD JUMP JUMPDEST SWAP2 POP DUP3 DUP3 DIV DUP5 EQ DUP4 ISZERO OR PUSH2 0x177D JUMPI PUSH2 0x177C PUSH2 0x1713 JUMP JUMPDEST JUMPDEST POP SWAP3 SWAP2 POP POP JUMP JUMPDEST PUSH32 0x596F7520617265206E6F7420746865206D616E61676572000000000000000000 PUSH1 0x0 DUP3 ADD MSTORE POP JUMP JUMPDEST PUSH1 0x0 PUSH2 0x17BA PUSH1 0x17 DUP4 PUSH2 0x16A7 JUMP JUMPDEST SWAP2 POP PUSH2 0x17C5 DUP3 PUSH2 0x1784 JUMP JUMPDEST PUSH1 0x20 DUP3 ADD SWAP1 POP SWAP2 SWAP1 POP JUMP JUMPDEST PUSH1 0x0 PUSH1 0x20 DUP3 ADD SWAP1 POP DUP2 DUP2 SUB PUSH1 0x0 DUP4 ADD MSTORE PUSH2 0x17E9 DUP2 PUSH2 0x17AD JUMP JUMPDEST SWAP1 POP SWAP2 SWAP1 POP JUMP JUMPDEST PUSH32 0x4E487B7100000000000000000000000000000000000000000000000000000000 PUSH1 0x0 MSTORE PUSH1 0x32 PUSH1 0x4 MSTORE PUSH1 0x24 PUSH1 0x0 REVERT JUMPDEST PUSH1 0x0 PUSH1 0x60 DUP3 ADD SWAP1 POP PUSH2 0x1834 PUSH1 0x0 DUP4 ADD DUP7 PUSH2 0x1260 JUMP JUMPDEST PUSH2 0x1841 PUSH1 0x20 DUP4 ADD DUP6 PUSH2 0x1260 JUMP JUMPDEST PUSH2 0x184E PUSH1 0x40 DUP4 ADD DUP5 PUSH2 0x1260 JUMP JUMPDEST SWAP5 SWAP4 POP POP POP POP JUMP JUMPDEST PUSH1 0x0 PUSH2 0x1861 DUP3 PUSH2 0x11FD JUMP JUMPDEST SWAP2 POP PUSH2 0x186C DUP4 PUSH2 0x11FD JUMP JUMPDEST SWAP3 POP DUP3 DUP3 SUB SWAP1 POP DUP2 DUP2 GT ISZERO PUSH2 0x1884 JUMPI PUSH2 0x1883 PUSH2 0x1713 JUMP JUMPDEST JUMPDEST SWAP3 SWAP2 POP POP JUMP JUMPDEST PUSH1 0x0 PUSH2 0x1895 DUP3 PUSH2 0x11FD JUMP JUMPDEST SWAP2 POP PUSH2 0x18A0 DUP4 PUSH2 0x11FD JUMP JUMPDEST SWAP3 POP DUP3 DUP3 ADD SWAP1 POP DUP1 DUP3 GT ISZERO PUSH2 0x18B8 JUMPI PUSH2 0x18B7 PUSH2 0x1713 JUMP JUMPDEST JUMPDEST SWAP3 SWAP2 POP POP JUMP JUMPDEST PUSH1 0x0 PUSH2 0x18C9 DUP3 PUSH2 0x11FD JUMP JUMPDEST SWAP2 POP PUSH32 0xFFFFFFFFFFFFFFFFFFFFFFFFFFFFFFFFFFFFFFFFFFFFFFFFFFFFFFFFFFFFFFFF DUP3 SUB PUSH2 0x18FB JUMPI PUSH2 0x18FA PUSH2 0x1713 JUMP JUMPDEST JUMPDEST PUSH1 0x1 DUP3 ADD SWAP1 POP SWAP2 SWAP1 POP JUMP JUMPDEST PUSH32 0x4E487B7100000000000000000000000000000000000000000000000000000000 PUSH1 0x0 MSTORE PUSH1 0x31 PUSH1 0x4 MSTORE PUSH1 0x24 PUSH1 0x0 REVERT JUMPDEST PUSH1 0x0 DUP2 SWAP1 POP SWAP2 SWAP1 POP JUMP JUMPDEST PUSH1 0x0 DUP2 SWAP1 POP SWAP2 SWAP1 POP JUMP JUMPDEST PUSH1 0x0 PUSH2 0x1964 PUSH2 0x195F PUSH2 0x195A DUP5 PUSH2 0x1935 JUMP JUMPDEST PUSH2 0x193F JUMP JUMPDEST PUSH2 0x11FD JUMP JUMPDEST SWAP1 POP SWAP2 SWAP1 POP JUMP JUMPDEST PUSH2 0x1974 DUP2 PUSH2 0x1949 JUMP JUMPDEST DUP3 MSTORE POP POP JUMP JUMPDEST PUSH1 0x0 PUSH1 0x60 DUP3 ADD SWAP1 POP PUSH2 0x198F PUSH1 0x0 DUP4 ADD DUP7 PUSH2 0x1260 JUMP JUMPDEST PUSH2 0x199C PUSH1 0x20 DUP4 ADD DUP6 PUSH2 0x1260 JUMP JUMPDEST PUSH2 0x19A9 PUSH1 0x40 DUP4 ADD DUP5 PUSH2 0x196B JUMP JUMPDEST SWAP5 SWAP4 POP POP POP POP JUMP JUMPDEST PUSH32 0x4E487B7100000000000000000000000000000000000000000000000000000000 PUSH1 0x0 MSTORE PUSH1 0x22 PUSH1 0x4 MSTORE PUSH1 0x24 PUSH1 0x0 REVERT JUMPDEST PUSH1 0x0 PUSH1 0x2 DUP3 DIV SWAP1 POP PUSH1 0x1 DUP3 AND DUP1 PUSH2 0x19F8 JUMPI PUSH1 0x7F DUP3 AND SWAP2 POP JUMPDEST PUSH1 0x20 DUP3 LT DUP2 SUB PUSH2 0x1A0B JUMPI PUSH2 0x1A0A PUSH2 0x19B1 JUMP JUMPDEST JUMPDEST POP SWAP2 SWAP1 POP JUMP INVALID LOG2 PUSH5 0x6970667358 0x22 SLT KECCAK256 0x4F 0xB4 LOG2 0xC2 DUP7 GT PUSH14 0x411AA1D5800263012407860C2540 CODESIZE 0xE3 0xEF GASLIMIT SSTORE 0xB8 PUSH7 0xF0D90A3764736F PUSH13 0x63430008120033000000000000 "},"gasEstimates":{"creation":{"codeDepositCost":"1345400","executionCost":"infinite","totalCost":"infinite"},"external":{"confirmHours(address,uint256)":"infinite","denyHours(address,uint256)":"infinite","deposit()":"infinite","empHours(address,uint256)":"infinite","getBalance()":"385","getHourLog(address)":"infinite","hourlyRate()":"2496","manager()":"2559","org()":"infinite","requestHours(uint256)":"infinite","sendRatings(address,uint256)":"2677","sendTip(address)":"infinite","setHourlyRate(uint256)":"infinite","transactions(uint256)":"infinite"}},"methodIdentifiers":{"confirmHours(address,uint256)":"474466c2","denyHours(address,uint256)":"6eaf9563","deposit()":"d0e30db0","empHours(address,uint256)":"20ee128e","getBalance()":"12065fe0","getHourLog(address)":"9d5f65fc","hourlyRate()":"59a7b3fe","manager()":"481c6a75","org()":"cc1e2cb0","requestHours(uint256)":"0fa8d54f","sendRatings(address,uint256)":"a334b295","sendTip(address)":"a4e81be0","setHourlyRate(uint256)":"c17c3521","transactions(uint256)":"9ace38c2"}},"storageLayout":{"storage":[{"astId":145,"contract":"ServiceChain.sol:Service","label":"transactions","offset":0,"slot":"0","type":"t_array(t_struct(Transaction)84_storage)dyn_storage"},{"astId":151,"contract":"ServiceChain.sol:Service","label":"empHours","offset":0,"slot":"1","type":"t_mapping(t_address,t_array(t_struct(hourLog)93_storage)dyn_storage)"},{"astId":153,"contract":"ServiceChain.sol:Service","label":"org","offset":0,"slot":"2","type":"t_string_storage"},{"astId":155,"contract":"ServiceChain.sol:Service","label":"manager","offset":0,"slot":"3","type":"t_address"},{"astId":157,"contract":"ServiceChain.sol:Service","label":"hourlyRate","offset":0,"slot":"4","type":"t_uint256"}],"types":{"t_address":{"encoding":"inplace","label":"address","numberOfBytes":"20"},"t_array(t_struct(Transaction)84_storage)dyn_storage":{"base":"t_struct(Transaction)84_storage","encoding":"dynamic_array","label":"struct Service.Transaction[]","numberOfBytes":"32"},"t_array(t_struct(hourLog)93_storage)dyn_storage":{"base":"t_struct(hourLog)93_storage","encoding":"dynamic_array","label":"struct Service.hourLog[]","numberOfBytes":"32"},"t_bool":{"encoding":"inplace","label":"bool","numberOfBytes":"1"},"t_bytes_storage":{"encoding":"bytes","label":"bytes","numberOfBytes":"32"},"t_mapping(t_address,t_array(t_struct(hourLog)93_storage)dyn_storage)":{"encoding":"mapping","key":"t_address","label":"mapping(address => struct Service.hourLog[])","numberOfBytes":"32","value":"t_array(t_struct(hourLog)93_storage)dyn_storage"},"t_string_storage":{"encoding":"bytes","label":"string","numberOfBytes":"32"},"t_struct(Transaction)84_storage":{"encoding":"inplace","label":"struct Service.Transaction","members":[{"astId":79,"contract":"ServiceChain.sol:Service","label":"to","offset":0,"slot":"0","type":"t_address"},{"astId":81,"contract":"ServiceChain.sol:Service","label":"value","offset":0,"slot":"1","type":"t_uint256"},{"astId":83,"contract":"ServiceChain.sol:Service","label":"data","offset":0,"slot":"2","type":"t_bytes_storage"}],"numberOfBytes":"96"},"t_struct(hourLog)93_storage":{"encoding":"inplace","label":"struct Service.hourLog","members":[{"astId":86,"contract":"ServiceChain.sol:Service","label":"date","offset":0,"slot":"0","type":"t_uint256"},{"astId":88,"contract":"ServiceChain.sol:Service","label":"hour","offset":0,"slot":"1","type":"t_uint256"},{"astId":90,"contract":"ServiceChain.sol:Service","label":"estimatedPayement","offset":0,"slot":"2","type":"t_uint256"},{"astId":92,"contract":"ServiceChain.sol:Service","label":"isApproved","offset":0,"slot":"3","type":"t_bool"}],"numberOfBytes":"128"},"t_uint256":{"encoding":"inplace","label":"uint256","numberOfBytes":"32"}}},"userdoc":{"kind":"user","methods":{},"version":1}}