{"abi":[{"inputs":[{"internalType":"address","name":"sender","type":"address"},{"internalType":"string","name":"organization","type":"string"},{"internalType":"uint256","name":"pay","type":"uint256"}],"stateMutability":"nonpayable","type":"constructor"},{"anonymous":false,"inputs":[{"indexed":true,"internalType":"address","name":"sender","type":"address"},{"indexed":false,"internalType":"uint256","name":"amount","type":"uint256"},{"indexed":false,"internalType":"uint256","name":"balance","type":"uint256"},{"indexed":false,"internalType":"uint256","name":"date","type":"uint256"}],"name":"Deposit","type":"event"},{"anonymous":false,"inputs":[{"indexed":true,"internalType":"address","name":"sender","type":"address"},{"indexed":true,"internalType":"address","name":"recipient","type":"address"},{"indexed":true,"internalType":"bool","name":"isApproved","type":"bool"},{"indexed":false,"internalType":"uint256","name":"forDate","type":"uint256"},{"indexed":false,"internalType":"uint256","name":"hour","type":"uint256"},{"indexed":false,"internalType":"uint256","name":"amountPaid","type":"uint256"}],"name":"submitApproval","type":"event"},{"anonymous":false,"inputs":[{"indexed":true,"internalType":"address","name":"sender","type":"address"},{"indexed":true,"internalType":"uint256","name":"date","type":"uint256"},{"indexed":false,"internalType":"uint256","name":"hourlyRate","type":"uint256"}],"name":"submitHourlyRate","type":"event"},{"anonymous":false,"inputs":[{"indexed":true,"internalType":"address","name":"sender","type":"address"},{"indexed":true,"internalType":"address","name":"recipient","type":"address"},{"indexed":true,"internalType":"uint256","name":"rating","type":"uint256"}],"name":"submitRating","type":"event"},{"anonymous":false,"inputs":[{"indexed":true,"internalType":"address","name":"sender","type":"address"},{"indexed":true,"internalType":"address","name":"recipient","type":"address"},{"indexed":false,"internalType":"uint256","name":"tipAmount","type":"uint256"}],"name":"submitTip","type":"event"},{"inputs":[{"internalType":"address payable","name":"waiter","type":"address"},{"internalType":"uint256","name":"index","type":"uint256"}],"name":"confirmHours","outputs":[],"stateMutability":"payable","type":"function"},{"inputs":[{"internalType":"address","name":"waiter","type":"address"},{"internalType":"uint256","name":"index","type":"uint256"}],"name":"denyHours","outputs":[],"stateMutability":"nonpayable","type":"function"},{"inputs":[],"name":"deposit","outputs":[],"stateMutability":"payable","type":"function"},{"inputs":[{"internalType":"address","name":"","type":"address"},{"internalType":"uint256","name":"","type":"uint256"}],"name":"empHours","outputs":[{"internalType":"uint256","name":"date","type":"uint256"},{"internalType":"uint256","name":"hour","type":"uint256"},{"internalType":"uint256","name":"estimatedPayement","type":"uint256"},{"internalType":"bool","name":"isApproved","type":"bool"}],"stateMutability":"view","type":"function"},{"inputs":[],"name":"getBalance","outputs":[{"internalType":"uint256","name":"","type":"uint256"}],"stateMutability":"view","type":"function"},{"inputs":[{"internalType":"address","name":"waiter","type":"address"}],"name":"getHourLog","outputs":[{"components":[{"internalType":"uint256","name":"date","type":"uint256"},{"internalType":"uint256","name":"hour","type":"uint256"},{"internalType":"uint256","name":"estimatedPayement","type":"uint256"},{"internalType":"bool","name":"isApproved","type":"bool"}],"internalType":"struct Service.hourLog[]","name":"","type":"tuple[]"}],"stateMutability":"view","type":"function"},{"inputs":[],"name":"hourlyRate","outputs":[{"internalType":"uint256","name":"","type":"uint256"}],"stateMutability":"view","type":"function"},{"inputs":[],"name":"manager","outputs":[{"internalType":"address","name":"","type":"address"}],"stateMutability":"view","type":"function"},{"inputs":[],"name":"org","outputs":[{"internalType":"string","name":"","type":"string"}],"stateMutability":"view","type":"function"},{"inputs":[{"internalType":"uint256","name":"value","type":"uint256"}],"name":"requestHours","outputs":[],"stateMutability":"nonpayable","type":"function"},{"inputs":[{"internalType":"address","name":"waiter","type":"address"},{"internalType":"uint256","name":"rating","type":"uint256"}],"name":"sendRatings","outputs":[],"stateMutability":"nonpayable","type":"function"},{"inputs":[{"internalType":"address payable","name":"recipient","type":"address"}],"name":"sendTip","outputs":[],"stateMutability":"payable","type":"function"},{"inputs":[{"internalType":"uint256","name":"rate","type":"uint256"}],"name":"setHourlyRate","outputs":[],"stateMutability":"nonpayable","type":"function"},{"inputs":[{"internalType":"uint256","name":"","type":"uint256"}],"name":"transactions","outputs":[{"internalType":"address","name":"to","type":"address"},{"internalType":"uint256","name":"value","type":"uint256"},{"internalType":"bytes","name":"data","type":"bytes"}],"stateMutability":"view","type":"function"}],"devdoc":{"kind":"dev","methods":{},"version":1},"evm":{"assembly":"    /* \"ServiceChain.sol\":802:5092  contract Service{... */\n  mstore(0x40, 0x80)\n    /* \"ServiceChain.sol\":1818:1972  constructor(address sender, string memory organization,uint pay) {... */\n  callvalue\n  dup1\n  iszero\n  tag_1\n  jumpi\n  0x00\n  dup1\n  revert\ntag_1:\n  pop\n  mload(0x40)\n  sub(codesize, bytecodeSize)\n  dup1\n  bytecodeSize\n  dup4\n  codecopy\n  dup2\n  dup2\n  add\n  0x40\n  mstore\n  dup2\n  add\n  swap1\n  tag_2\n  swap2\n  swap1\n  tag_3\n  jump\t// in\ntag_2:\n    /* \"ServiceChain.sol\":1902:1908  sender */\n  dup3\n    /* \"ServiceChain.sol\":1894:1901  manager */\n  0x03\n  0x00\n    /* \"ServiceChain.sol\":1894:1908  manager=sender */\n  0x0100\n  exp\n  dup2\n  sload\n  dup2\n  0xffffffffffffffffffffffffffffffffffffffff\n  mul\n  not\n  and\n  swap1\n  dup4\n  0xffffffffffffffffffffffffffffffffffffffff\n  and\n  mul\n  or\n  swap1\n  sstore\n  pop\n    /* \"ServiceChain.sol\":1925:1937  organization */\n  dup2\n    /* \"ServiceChain.sol\":1919:1922  org */\n  0x02\n    /* \"ServiceChain.sol\":1919:1937  org = organization */\n  swap1\n  dup2\n  tag_6\n  swap2\n  swap1\n  tag_7\n  jump\t// in\ntag_6:\n  pop\n    /* \"ServiceChain.sol\":1961:1964  pay */\n  dup1\n    /* \"ServiceChain.sol\":1948:1958  hourlyRate */\n  0x04\n    /* \"ServiceChain.sol\":1948:1964  hourlyRate = pay */\n  dup2\n  swap1\n  sstore\n  pop\n    /* \"ServiceChain.sol\":1818:1972  constructor(address sender, string memory organization,uint pay) {... */\n  pop\n  pop\n  pop\n    /* \"ServiceChain.sol\":802:5092  contract Service{... */\n  jump(tag_8)\n    /* \"#utility.yul\":7:82   */\ntag_9:\n    /* \"#utility.yul\":40:46   */\n  0x00\n    /* \"#utility.yul\":73:75   */\n  0x40\n    /* \"#utility.yul\":67:76   */\n  mload\n    /* \"#utility.yul\":57:76   */\n  swap1\n  pop\n    /* \"#utility.yul\":7:82   */\n  swap1\n  jump\t// out\n    /* \"#utility.yul\":88:205   */\ntag_10:\n    /* \"#utility.yul\":197:198   */\n  0x00\n    /* \"#utility.yul\":194:195   */\n  dup1\n    /* \"#utility.yul\":187:199   */\n  revert\n    /* \"#utility.yul\":211:328   */\ntag_11:\n    /* \"#utility.yul\":320:321   */\n  0x00\n    /* \"#utility.yul\":317:318   */\n  dup1\n    /* \"#utility.yul\":310:322   */\n  revert\n    /* \"#utility.yul\":334:460   */\ntag_12:\n    /* \"#utility.yul\":371:378   */\n  0x00\n    /* \"#utility.yul\":411:453   */\n  0xffffffffffffffffffffffffffffffffffffffff\n    /* \"#utility.yul\":404:409   */\n  dup3\n    /* \"#utility.yul\":400:454   */\n  and\n    /* \"#utility.yul\":389:454   */\n  swap1\n  pop\n    /* \"#utility.yul\":334:460   */\n  swap2\n  swap1\n  pop\n  jump\t// out\n    /* \"#utility.yul\":466:562   */\ntag_13:\n    /* \"#utility.yul\":503:510   */\n  0x00\n    /* \"#utility.yul\":532:556   */\n  tag_53\n    /* \"#utility.yul\":550:555   */\n  dup3\n    /* \"#utility.yul\":532:556   */\n  tag_12\n  jump\t// in\ntag_53:\n    /* \"#utility.yul\":521:556   */\n  swap1\n  pop\n    /* \"#utility.yul\":466:562   */\n  swap2\n  swap1\n  pop\n  jump\t// out\n    /* \"#utility.yul\":568:690   */\ntag_14:\n    /* \"#utility.yul\":641:665   */\n  tag_55\n    /* \"#utility.yul\":659:664   */\n  dup2\n    /* \"#utility.yul\":641:665   */\n  tag_13\n  jump\t// in\ntag_55:\n    /* \"#utility.yul\":634:639   */\n  dup2\n    /* \"#utility.yul\":631:666   */\n  eq\n    /* \"#utility.yul\":621:684   */\n  tag_56\n  jumpi\n    /* \"#utility.yul\":680:681   */\n  0x00\n    /* \"#utility.yul\":677:678   */\n  dup1\n    /* \"#utility.yul\":670:682   */\n  revert\n    /* \"#utility.yul\":621:684   */\ntag_56:\n    /* \"#utility.yul\":568:690   */\n  pop\n  jump\t// out\n    /* \"#utility.yul\":696:839   */\ntag_15:\n    /* \"#utility.yul\":753:758   */\n  0x00\n    /* \"#utility.yul\":784:790   */\n  dup2\n    /* \"#utility.yul\":778:791   */\n  mload\n    /* \"#utility.yul\":769:791   */\n  swap1\n  pop\n    /* \"#utility.yul\":800:833   */\n  tag_58\n    /* \"#utility.yul\":827:832   */\n  dup2\n    /* \"#utility.yul\":800:833   */\n  tag_14\n  jump\t// in\ntag_58:\n    /* \"#utility.yul\":696:839   */\n  swap3\n  swap2\n  pop\n  pop\n  jump\t// out\n    /* \"#utility.yul\":845:962   */\ntag_16:\n    /* \"#utility.yul\":954:955   */\n  0x00\n    /* \"#utility.yul\":951:952   */\n  dup1\n    /* \"#utility.yul\":944:956   */\n  revert\n    /* \"#utility.yul\":968:1085   */\ntag_17:\n    /* \"#utility.yul\":1077:1078   */\n  0x00\n    /* \"#utility.yul\":1074:1075   */\n  dup1\n    /* \"#utility.yul\":1067:1079   */\n  revert\n    /* \"#utility.yul\":1091:1193   */\ntag_18:\n    /* \"#utility.yul\":1132:1138   */\n  0x00\n    /* \"#utility.yul\":1183:1185   */\n  0x1f\n    /* \"#utility.yul\":1179:1186   */\n  not\n    /* \"#utility.yul\":1174:1176   */\n  0x1f\n    /* \"#utility.yul\":1167:1172   */\n  dup4\n    /* \"#utility.yul\":1163:1177   */\n  add\n    /* \"#utility.yul\":1159:1187   */\n  and\n    /* \"#utility.yul\":1149:1187   */\n  swap1\n  pop\n    /* \"#utility.yul\":1091:1193   */\n  swap2\n  swap1\n  pop\n  jump\t// out\n    /* \"#utility.yul\":1199:1379   */\ntag_19:\n    /* \"#utility.yul\":1247:1324   */\n  0x4e487b7100000000000000000000000000000000000000000000000000000000\n    /* \"#utility.yul\":1244:1245   */\n  0x00\n    /* \"#utility.yul\":1237:1325   */\n  mstore\n    /* \"#utility.yul\":1344:1348   */\n  0x41\n    /* \"#utility.yul\":1341:1342   */\n  0x04\n    /* \"#utility.yul\":1334:1349   */\n  mstore\n    /* \"#utility.yul\":1368:1372   */\n  0x24\n    /* \"#utility.yul\":1365:1366   */\n  0x00\n    /* \"#utility.yul\":1358:1373   */\n  revert\n    /* \"#utility.yul\":1385:1666   */\ntag_20:\n    /* \"#utility.yul\":1468:1495   */\n  tag_64\n    /* \"#utility.yul\":1490:1494   */\n  dup3\n    /* \"#utility.yul\":1468:1495   */\n  tag_18\n  jump\t// in\ntag_64:\n    /* \"#utility.yul\":1460:1466   */\n  dup2\n    /* \"#utility.yul\":1456:1496   */\n  add\n    /* \"#utility.yul\":1598:1604   */\n  dup2\n    /* \"#utility.yul\":1586:1596   */\n  dup2\n    /* \"#utility.yul\":1583:1605   */\n  lt\n    /* \"#utility.yul\":1562:1580   */\n  0xffffffffffffffff\n    /* \"#utility.yul\":1550:1560   */\n  dup3\n    /* \"#utility.yul\":1547:1581   */\n  gt\n    /* \"#utility.yul\":1544:1606   */\n  or\n    /* \"#utility.yul\":1541:1629   */\n  iszero\n  tag_65\n  jumpi\n    /* \"#utility.yul\":1609:1627   */\n  tag_66\n  tag_19\n  jump\t// in\ntag_66:\n    /* \"#utility.yul\":1541:1629   */\ntag_65:\n    /* \"#utility.yul\":1649:1659   */\n  dup1\n    /* \"#utility.yul\":1645:1647   */\n  0x40\n    /* \"#utility.yul\":1638:1660   */\n  mstore\n    /* \"#utility.yul\":1428:1666   */\n  pop\n    /* \"#utility.yul\":1385:1666   */\n  pop\n  pop\n  jump\t// out\n    /* \"#utility.yul\":1672:1801   */\ntag_21:\n    /* \"#utility.yul\":1706:1712   */\n  0x00\n    /* \"#utility.yul\":1733:1753   */\n  tag_68\n  tag_9\n  jump\t// in\ntag_68:\n    /* \"#utility.yul\":1723:1753   */\n  swap1\n  pop\n    /* \"#utility.yul\":1762:1795   */\n  tag_69\n    /* \"#utility.yul\":1790:1794   */\n  dup3\n    /* \"#utility.yul\":1782:1788   */\n  dup3\n    /* \"#utility.yul\":1762:1795   */\n  tag_20\n  jump\t// in\ntag_69:\n    /* \"#utility.yul\":1672:1801   */\n  swap2\n  swap1\n  pop\n  jump\t// out\n    /* \"#utility.yul\":1807:2115   */\ntag_22:\n    /* \"#utility.yul\":1869:1873   */\n  0x00\n    /* \"#utility.yul\":1959:1977   */\n  0xffffffffffffffff\n    /* \"#utility.yul\":1951:1957   */\n  dup3\n    /* \"#utility.yul\":1948:1978   */\n  gt\n    /* \"#utility.yul\":1945:2001   */\n  iszero\n  tag_71\n  jumpi\n    /* \"#utility.yul\":1981:1999   */\n  tag_72\n  tag_19\n  jump\t// in\ntag_72:\n    /* \"#utility.yul\":1945:2001   */\ntag_71:\n    /* \"#utility.yul\":2019:2048   */\n  tag_73\n    /* \"#utility.yul\":2041:2047   */\n  dup3\n    /* \"#utility.yul\":2019:2048   */\n  tag_18\n  jump\t// in\ntag_73:\n    /* \"#utility.yul\":2011:2048   */\n  swap1\n  pop\n    /* \"#utility.yul\":2103:2107   */\n  0x20\n    /* \"#utility.yul\":2097:2101   */\n  dup2\n    /* \"#utility.yul\":2093:2108   */\n  add\n    /* \"#utility.yul\":2085:2108   */\n  swap1\n  pop\n    /* \"#utility.yul\":1807:2115   */\n  swap2\n  swap1\n  pop\n  jump\t// out\n    /* \"#utility.yul\":2121:2367   */\ntag_23:\n    /* \"#utility.yul\":2202:2203   */\n  0x00\n    /* \"#utility.yul\":2212:2325   */\ntag_75:\n    /* \"#utility.yul\":2226:2232   */\n  dup4\n    /* \"#utility.yul\":2223:2224   */\n  dup2\n    /* \"#utility.yul\":2220:2233   */\n  lt\n    /* \"#utility.yul\":2212:2325   */\n  iszero\n  tag_77\n  jumpi\n    /* \"#utility.yul\":2311:2312   */\n  dup1\n    /* \"#utility.yul\":2306:2309   */\n  dup3\n    /* \"#utility.yul\":2302:2313   */\n  add\n    /* \"#utility.yul\":2296:2314   */\n  mload\n    /* \"#utility.yul\":2292:2293   */\n  dup2\n    /* \"#utility.yul\":2287:2290   */\n  dup5\n    /* \"#utility.yul\":2283:2294   */\n  add\n    /* \"#utility.yul\":2276:2315   */\n  mstore\n    /* \"#utility.yul\":2248:2250   */\n  0x20\n    /* \"#utility.yul\":2245:2246   */\n  dup2\n    /* \"#utility.yul\":2241:2251   */\n  add\n    /* \"#utility.yul\":2236:2251   */\n  swap1\n  pop\n    /* \"#utility.yul\":2212:2325   */\n  jump(tag_75)\ntag_77:\n    /* \"#utility.yul\":2359:2360   */\n  0x00\n    /* \"#utility.yul\":2350:2356   */\n  dup5\n    /* \"#utility.yul\":2345:2348   */\n  dup5\n    /* \"#utility.yul\":2341:2357   */\n  add\n    /* \"#utility.yul\":2334:2361   */\n  mstore\n    /* \"#utility.yul\":2183:2367   */\n  pop\n    /* \"#utility.yul\":2121:2367   */\n  pop\n  pop\n  pop\n  jump\t// out\n    /* \"#utility.yul\":2373:2807   */\ntag_24:\n    /* \"#utility.yul\":2462:2467   */\n  0x00\n    /* \"#utility.yul\":2487:2553   */\n  tag_79\n    /* \"#utility.yul\":2503:2552   */\n  tag_80\n    /* \"#utility.yul\":2545:2551   */\n  dup5\n    /* \"#utility.yul\":2503:2552   */\n  tag_22\n  jump\t// in\ntag_80:\n    /* \"#utility.yul\":2487:2553   */\n  tag_21\n  jump\t// in\ntag_79:\n    /* \"#utility.yul\":2478:2553   */\n  swap1\n  pop\n    /* \"#utility.yul\":2576:2582   */\n  dup3\n    /* \"#utility.yul\":2569:2574   */\n  dup2\n    /* \"#utility.yul\":2562:2583   */\n  mstore\n    /* \"#utility.yul\":2614:2618   */\n  0x20\n    /* \"#utility.yul\":2607:2612   */\n  dup2\n    /* \"#utility.yul\":2603:2619   */\n  add\n    /* \"#utility.yul\":2652:2655   */\n  dup5\n    /* \"#utility.yul\":2643:2649   */\n  dup5\n    /* \"#utility.yul\":2638:2641   */\n  dup5\n    /* \"#utility.yul\":2634:2650   */\n  add\n    /* \"#utility.yul\":2631:2656   */\n  gt\n    /* \"#utility.yul\":2628:2740   */\n  iszero\n  tag_81\n  jumpi\n    /* \"#utility.yul\":2659:2738   */\n  tag_82\n  tag_17\n  jump\t// in\ntag_82:\n    /* \"#utility.yul\":2628:2740   */\ntag_81:\n    /* \"#utility.yul\":2749:2801   */\n  tag_83\n    /* \"#utility.yul\":2794:2800   */\n  dup5\n    /* \"#utility.yul\":2789:2792   */\n  dup3\n    /* \"#utility.yul\":2784:2787   */\n  dup6\n    /* \"#utility.yul\":2749:2801   */\n  tag_23\n  jump\t// in\ntag_83:\n    /* \"#utility.yul\":2468:2807   */\n  pop\n    /* \"#utility.yul\":2373:2807   */\n  swap4\n  swap3\n  pop\n  pop\n  pop\n  jump\t// out\n    /* \"#utility.yul\":2827:3182   */\ntag_25:\n    /* \"#utility.yul\":2894:2899   */\n  0x00\n    /* \"#utility.yul\":2943:2946   */\n  dup3\n    /* \"#utility.yul\":2936:2940   */\n  0x1f\n    /* \"#utility.yul\":2928:2934   */\n  dup4\n    /* \"#utility.yul\":2924:2941   */\n  add\n    /* \"#utility.yul\":2920:2947   */\n  slt\n    /* \"#utility.yul\":2910:3032   */\n  tag_85\n  jumpi\n    /* \"#utility.yul\":2951:3030   */\n  tag_86\n  tag_16\n  jump\t// in\ntag_86:\n    /* \"#utility.yul\":2910:3032   */\ntag_85:\n    /* \"#utility.yul\":3061:3067   */\n  dup2\n    /* \"#utility.yul\":3055:3068   */\n  mload\n    /* \"#utility.yul\":3086:3176   */\n  tag_87\n    /* \"#utility.yul\":3172:3175   */\n  dup5\n    /* \"#utility.yul\":3164:3170   */\n  dup3\n    /* \"#utility.yul\":3157:3161   */\n  0x20\n    /* \"#utility.yul\":3149:3155   */\n  dup7\n    /* \"#utility.yul\":3145:3162   */\n  add\n    /* \"#utility.yul\":3086:3176   */\n  tag_24\n  jump\t// in\ntag_87:\n    /* \"#utility.yul\":3077:3176   */\n  swap2\n  pop\n    /* \"#utility.yul\":2900:3182   */\n  pop\n    /* \"#utility.yul\":2827:3182   */\n  swap3\n  swap2\n  pop\n  pop\n  jump\t// out\n    /* \"#utility.yul\":3188:3265   */\ntag_26:\n    /* \"#utility.yul\":3225:3232   */\n  0x00\n    /* \"#utility.yul\":3254:3259   */\n  dup2\n    /* \"#utility.yul\":3243:3259   */\n  swap1\n  pop\n    /* \"#utility.yul\":3188:3265   */\n  swap2\n  swap1\n  pop\n  jump\t// out\n    /* \"#utility.yul\":3271:3393   */\ntag_27:\n    /* \"#utility.yul\":3344:3368   */\n  tag_90\n    /* \"#utility.yul\":3362:3367   */\n  dup2\n    /* \"#utility.yul\":3344:3368   */\n  tag_26\n  jump\t// in\ntag_90:\n    /* \"#utility.yul\":3337:3342   */\n  dup2\n    /* \"#utility.yul\":3334:3369   */\n  eq\n    /* \"#utility.yul\":3324:3387   */\n  tag_91\n  jumpi\n    /* \"#utility.yul\":3383:3384   */\n  0x00\n    /* \"#utility.yul\":3380:3381   */\n  dup1\n    /* \"#utility.yul\":3373:3385   */\n  revert\n    /* \"#utility.yul\":3324:3387   */\ntag_91:\n    /* \"#utility.yul\":3271:3393   */\n  pop\n  jump\t// out\n    /* \"#utility.yul\":3399:3542   */\ntag_28:\n    /* \"#utility.yul\":3456:3461   */\n  0x00\n    /* \"#utility.yul\":3487:3493   */\n  dup2\n    /* \"#utility.yul\":3481:3494   */\n  mload\n    /* \"#utility.yul\":3472:3494   */\n  swap1\n  pop\n    /* \"#utility.yul\":3503:3536   */\n  tag_93\n    /* \"#utility.yul\":3530:3535   */\n  dup2\n    /* \"#utility.yul\":3503:3536   */\n  tag_27\n  jump\t// in\ntag_93:\n    /* \"#utility.yul\":3399:3542   */\n  swap3\n  swap2\n  pop\n  pop\n  jump\t// out\n    /* \"#utility.yul\":3548:4384   */\ntag_3:\n    /* \"#utility.yul\":3646:3652   */\n  0x00\n    /* \"#utility.yul\":3654:3660   */\n  dup1\n    /* \"#utility.yul\":3662:3668   */\n  0x00\n    /* \"#utility.yul\":3711:3713   */\n  0x60\n    /* \"#utility.yul\":3699:3708   */\n  dup5\n    /* \"#utility.yul\":3690:3697   */\n  dup7\n    /* \"#utility.yul\":3686:3709   */\n  sub\n    /* \"#utility.yul\":3682:3714   */\n  slt\n    /* \"#utility.yul\":3679:3798   */\n  iszero\n  tag_95\n  jumpi\n    /* \"#utility.yul\":3717:3796   */\n  tag_96\n  tag_10\n  jump\t// in\ntag_96:\n    /* \"#utility.yul\":3679:3798   */\ntag_95:\n    /* \"#utility.yul\":3837:3838   */\n  0x00\n    /* \"#utility.yul\":3862:3926   */\n  tag_97\n    /* \"#utility.yul\":3918:3925   */\n  dup7\n    /* \"#utility.yul\":3909:3915   */\n  dup3\n    /* \"#utility.yul\":3898:3907   */\n  dup8\n    /* \"#utility.yul\":3894:3916   */\n  add\n    /* \"#utility.yul\":3862:3926   */\n  tag_15\n  jump\t// in\ntag_97:\n    /* \"#utility.yul\":3852:3926   */\n  swap4\n  pop\n    /* \"#utility.yul\":3808:3936   */\n  pop\n    /* \"#utility.yul\":3996:3998   */\n  0x20\n    /* \"#utility.yul\":3985:3994   */\n  dup5\n    /* \"#utility.yul\":3981:3999   */\n  add\n    /* \"#utility.yul\":3975:4000   */\n  mload\n    /* \"#utility.yul\":4027:4045   */\n  0xffffffffffffffff\n    /* \"#utility.yul\":4019:4025   */\n  dup2\n    /* \"#utility.yul\":4016:4046   */\n  gt\n    /* \"#utility.yul\":4013:4130   */\n  iszero\n  tag_98\n  jumpi\n    /* \"#utility.yul\":4049:4128   */\n  tag_99\n  tag_11\n  jump\t// in\ntag_99:\n    /* \"#utility.yul\":4013:4130   */\ntag_98:\n    /* \"#utility.yul\":4154:4228   */\n  tag_100\n    /* \"#utility.yul\":4220:4227   */\n  dup7\n    /* \"#utility.yul\":4211:4217   */\n  dup3\n    /* \"#utility.yul\":4200:4209   */\n  dup8\n    /* \"#utility.yul\":4196:4218   */\n  add\n    /* \"#utility.yul\":4154:4228   */\n  tag_25\n  jump\t// in\ntag_100:\n    /* \"#utility.yul\":4144:4228   */\n  swap3\n  pop\n    /* \"#utility.yul\":3946:4238   */\n  pop\n    /* \"#utility.yul\":4277:4279   */\n  0x40\n    /* \"#utility.yul\":4303:4367   */\n  tag_101\n    /* \"#utility.yul\":4359:4366   */\n  dup7\n    /* \"#utility.yul\":4350:4356   */\n  dup3\n    /* \"#utility.yul\":4339:4348   */\n  dup8\n    /* \"#utility.yul\":4335:4357   */\n  add\n    /* \"#utility.yul\":4303:4367   */\n  tag_28\n  jump\t// in\ntag_101:\n    /* \"#utility.yul\":4293:4367   */\n  swap2\n  pop\n    /* \"#utility.yul\":4248:4377   */\n  pop\n    /* \"#utility.yul\":3548:4384   */\n  swap3\n  pop\n  swap3\n  pop\n  swap3\n  jump\t// out\n    /* \"#utility.yul\":4390:4489   */\ntag_29:\n    /* \"#utility.yul\":4442:4448   */\n  0x00\n    /* \"#utility.yul\":4476:4481   */\n  dup2\n    /* \"#utility.yul\":4470:4482   */\n  mload\n    /* \"#utility.yul\":4460:4482   */\n  swap1\n  pop\n    /* \"#utility.yul\":4390:4489   */\n  swap2\n  swap1\n  pop\n  jump\t// out\n    /* \"#utility.yul\":4495:4675   */\ntag_30:\n    /* \"#utility.yul\":4543:4620   */\n  0x4e487b7100000000000000000000000000000000000000000000000000000000\n    /* \"#utility.yul\":4540:4541   */\n  0x00\n    /* \"#utility.yul\":4533:4621   */\n  mstore\n    /* \"#utility.yul\":4640:4644   */\n  0x22\n    /* \"#utility.yul\":4637:4638   */\n  0x04\n    /* \"#utility.yul\":4630:4645   */\n  mstore\n    /* \"#utility.yul\":4664:4668   */\n  0x24\n    /* \"#utility.yul\":4661:4662   */\n  0x00\n    /* \"#utility.yul\":4654:4669   */\n  revert\n    /* \"#utility.yul\":4681:5001   */\ntag_31:\n    /* \"#utility.yul\":4725:4731   */\n  0x00\n    /* \"#utility.yul\":4762:4763   */\n  0x02\n    /* \"#utility.yul\":4756:4760   */\n  dup3\n    /* \"#utility.yul\":4752:4764   */\n  div\n    /* \"#utility.yul\":4742:4764   */\n  swap1\n  pop\n    /* \"#utility.yul\":4809:4810   */\n  0x01\n    /* \"#utility.yul\":4803:4807   */\n  dup3\n    /* \"#utility.yul\":4799:4811   */\n  and\n    /* \"#utility.yul\":4830:4848   */\n  dup1\n    /* \"#utility.yul\":4820:4901   */\n  tag_105\n  jumpi\n    /* \"#utility.yul\":4886:4890   */\n  0x7f\n    /* \"#utility.yul\":4878:4884   */\n  dup3\n    /* \"#utility.yul\":4874:4891   */\n  and\n    /* \"#utility.yul\":4864:4891   */\n  swap2\n  pop\n    /* \"#utility.yul\":4820:4901   */\ntag_105:\n    /* \"#utility.yul\":4948:4950   */\n  0x20\n    /* \"#utility.yul\":4940:4946   */\n  dup3\n    /* \"#utility.yul\":4937:4951   */\n  lt\n    /* \"#utility.yul\":4917:4935   */\n  dup2\n    /* \"#utility.yul\":4914:4952   */\n  sub\n    /* \"#utility.yul\":4911:4995   */\n  tag_106\n  jumpi\n    /* \"#utility.yul\":4967:4985   */\n  tag_107\n  tag_30\n  jump\t// in\ntag_107:\n    /* \"#utility.yul\":4911:4995   */\ntag_106:\n    /* \"#utility.yul\":4732:5001   */\n  pop\n    /* \"#utility.yul\":4681:5001   */\n  swap2\n  swap1\n  pop\n  jump\t// out\n    /* \"#utility.yul\":5007:5148   */\ntag_32:\n    /* \"#utility.yul\":5056:5060   */\n  0x00\n    /* \"#utility.yul\":5079:5082   */\n  dup2\n    /* \"#utility.yul\":5071:5082   */\n  swap1\n  pop\n    /* \"#utility.yul\":5102:5105   */\n  dup2\n    /* \"#utility.yul\":5099:5100   */\n  0x00\n    /* \"#utility.yul\":5092:5106   */\n  mstore\n    /* \"#utility.yul\":5136:5140   */\n  0x20\n    /* \"#utility.yul\":5133:5134   */\n  0x00\n    /* \"#utility.yul\":5123:5141   */\n  keccak256\n    /* \"#utility.yul\":5115:5141   */\n  swap1\n  pop\n    /* \"#utility.yul\":5007:5148   */\n  swap2\n  swap1\n  pop\n  jump\t// out\n    /* \"#utility.yul\":5154:5247   */\ntag_33:\n    /* \"#utility.yul\":5191:5197   */\n  0x00\n    /* \"#utility.yul\":5238:5240   */\n  0x20\n    /* \"#utility.yul\":5233:5235   */\n  0x1f\n    /* \"#utility.yul\":5226:5231   */\n  dup4\n    /* \"#utility.yul\":5222:5236   */\n  add\n    /* \"#utility.yul\":5218:5241   */\n  div\n    /* \"#utility.yul\":5208:5241   */\n  swap1\n  pop\n    /* \"#utility.yul\":5154:5247   */\n  swap2\n  swap1\n  pop\n  jump\t// out\n    /* \"#utility.yul\":5253:5360   */\ntag_34:\n    /* \"#utility.yul\":5297:5305   */\n  0x00\n    /* \"#utility.yul\":5347:5352   */\n  dup3\n    /* \"#utility.yul\":5341:5345   */\n  dup3\n    /* \"#utility.yul\":5337:5353   */\n  shl\n    /* \"#utility.yul\":5316:5353   */\n  swap1\n  pop\n    /* \"#utility.yul\":5253:5360   */\n  swap3\n  swap2\n  pop\n  pop\n  jump\t// out\n    /* \"#utility.yul\":5366:5759   */\ntag_35:\n    /* \"#utility.yul\":5435:5441   */\n  0x00\n    /* \"#utility.yul\":5485:5486   */\n  0x08\n    /* \"#utility.yul\":5473:5483   */\n  dup4\n    /* \"#utility.yul\":5469:5487   */\n  mul\n    /* \"#utility.yul\":5508:5605   */\n  tag_112\n    /* \"#utility.yul\":5538:5604   */\n  0xffffffffffffffffffffffffffffffffffffffffffffffffffffffffffffffff\n    /* \"#utility.yul\":5527:5536   */\n  dup3\n    /* \"#utility.yul\":5508:5605   */\n  tag_34\n  jump\t// in\ntag_112:\n    /* \"#utility.yul\":5626:5665   */\n  tag_113\n    /* \"#utility.yul\":5656:5664   */\n  dup7\n    /* \"#utility.yul\":5645:5654   */\n  dup4\n    /* \"#utility.yul\":5626:5665   */\n  tag_34\n  jump\t// in\ntag_113:\n    /* \"#utility.yul\":5614:5665   */\n  swap6\n  pop\n    /* \"#utility.yul\":5698:5702   */\n  dup1\n    /* \"#utility.yul\":5694:5703   */\n  not\n    /* \"#utility.yul\":5687:5692   */\n  dup5\n    /* \"#utility.yul\":5683:5704   */\n  and\n    /* \"#utility.yul\":5674:5704   */\n  swap4\n  pop\n    /* \"#utility.yul\":5747:5751   */\n  dup1\n    /* \"#utility.yul\":5737:5745   */\n  dup7\n    /* \"#utility.yul\":5733:5752   */\n  and\n    /* \"#utility.yul\":5726:5731   */\n  dup5\n    /* \"#utility.yul\":5723:5753   */\n  or\n    /* \"#utility.yul\":5713:5753   */\n  swap3\n  pop\n    /* \"#utility.yul\":5442:5759   */\n  pop\n  pop\n    /* \"#utility.yul\":5366:5759   */\n  swap4\n  swap3\n  pop\n  pop\n  pop\n  jump\t// out\n    /* \"#utility.yul\":5765:5825   */\ntag_36:\n    /* \"#utility.yul\":5793:5796   */\n  0x00\n    /* \"#utility.yul\":5814:5819   */\n  dup2\n    /* \"#utility.yul\":5807:5819   */\n  swap1\n  pop\n    /* \"#utility.yul\":5765:5825   */\n  swap2\n  swap1\n  pop\n  jump\t// out\n    /* \"#utility.yul\":5831:5973   */\ntag_37:\n    /* \"#utility.yul\":5881:5890   */\n  0x00\n    /* \"#utility.yul\":5914:5967   */\n  tag_116\n    /* \"#utility.yul\":5932:5966   */\n  tag_117\n    /* \"#utility.yul\":5941:5965   */\n  tag_118\n    /* \"#utility.yul\":5959:5964   */\n  dup5\n    /* \"#utility.yul\":5941:5965   */\n  tag_26\n  jump\t// in\ntag_118:\n    /* \"#utility.yul\":5932:5966   */\n  tag_36\n  jump\t// in\ntag_117:\n    /* \"#utility.yul\":5914:5967   */\n  tag_26\n  jump\t// in\ntag_116:\n    /* \"#utility.yul\":5901:5967   */\n  swap1\n  pop\n    /* \"#utility.yul\":5831:5973   */\n  swap2\n  swap1\n  pop\n  jump\t// out\n    /* \"#utility.yul\":5979:6054   */\ntag_38:\n    /* \"#utility.yul\":6022:6025   */\n  0x00\n    /* \"#utility.yul\":6043:6048   */\n  dup2\n    /* \"#utility.yul\":6036:6048   */\n  swap1\n  pop\n    /* \"#utility.yul\":5979:6054   */\n  swap2\n  swap1\n  pop\n  jump\t// out\n    /* \"#utility.yul\":6060:6329   */\ntag_39:\n    /* \"#utility.yul\":6170:6209   */\n  tag_121\n    /* \"#utility.yul\":6201:6208   */\n  dup4\n    /* \"#utility.yul\":6170:6209   */\n  tag_37\n  jump\t// in\ntag_121:\n    /* \"#utility.yul\":6231:6322   */\n  tag_122\n    /* \"#utility.yul\":6280:6321   */\n  tag_123\n    /* \"#utility.yul\":6304:6320   */\n  dup3\n    /* \"#utility.yul\":6280:6321   */\n  tag_38\n  jump\t// in\ntag_123:\n    /* \"#utility.yul\":6272:6278   */\n  dup5\n    /* \"#utility.yul\":6265:6269   */\n  dup5\n    /* \"#utility.yul\":6259:6270   */\n  sload\n    /* \"#utility.yul\":6231:6322   */\n  tag_35\n  jump\t// in\ntag_122:\n    /* \"#utility.yul\":6225:6229   */\n  dup3\n    /* \"#utility.yul\":6218:6323   */\n  sstore\n    /* \"#utility.yul\":6136:6329   */\n  pop\n    /* \"#utility.yul\":6060:6329   */\n  pop\n  pop\n  pop\n  jump\t// out\n    /* \"#utility.yul\":6335:6408   */\ntag_40:\n    /* \"#utility.yul\":6380:6383   */\n  0x00\n    /* \"#utility.yul\":6335:6408   */\n  swap1\n  jump\t// out\n    /* \"#utility.yul\":6414:6603   */\ntag_41:\n    /* \"#utility.yul\":6491:6523   */\n  tag_126\n  tag_40\n  jump\t// in\ntag_126:\n    /* \"#utility.yul\":6532:6597   */\n  tag_127\n    /* \"#utility.yul\":6590:6596   */\n  dup2\n    /* \"#utility.yul\":6582:6588   */\n  dup5\n    /* \"#utility.yul\":6576:6580   */\n  dup5\n    /* \"#utility.yul\":6532:6597   */\n  tag_39\n  jump\t// in\ntag_127:\n    /* \"#utility.yul\":6467:6603   */\n  pop\n    /* \"#utility.yul\":6414:6603   */\n  pop\n  pop\n  jump\t// out\n    /* \"#utility.yul\":6609:6795   */\ntag_42:\n    /* \"#utility.yul\":6669:6789   */\ntag_129:\n    /* \"#utility.yul\":6686:6689   */\n  dup2\n    /* \"#utility.yul\":6679:6684   */\n  dup2\n    /* \"#utility.yul\":6676:6690   */\n  lt\n    /* \"#utility.yul\":6669:6789   */\n  iszero\n  tag_131\n  jumpi\n    /* \"#utility.yul\":6740:6779   */\n  tag_132\n    /* \"#utility.yul\":6777:6778   */\n  0x00\n    /* \"#utility.yul\":6770:6775   */\n  dup3\n    /* \"#utility.yul\":6740:6779   */\n  tag_41\n  jump\t// in\ntag_132:\n    /* \"#utility.yul\":6713:6714   */\n  0x01\n    /* \"#utility.yul\":6706:6711   */\n  dup2\n    /* \"#utility.yul\":6702:6715   */\n  add\n    /* \"#utility.yul\":6693:6715   */\n  swap1\n  pop\n    /* \"#utility.yul\":6669:6789   */\n  jump(tag_129)\ntag_131:\n    /* \"#utility.yul\":6609:6795   */\n  pop\n  pop\n  jump\t// out\n    /* \"#utility.yul\":6801:7344   */\ntag_43:\n    /* \"#utility.yul\":6902:6904   */\n  0x1f\n    /* \"#utility.yul\":6897:6900   */\n  dup3\n    /* \"#utility.yul\":6894:6905   */\n  gt\n    /* \"#utility.yul\":6891:7337   */\n  iszero\n  tag_134\n  jumpi\n    /* \"#utility.yul\":6936:6974   */\n  tag_135\n    /* \"#utility.yul\":6968:6973   */\n  dup2\n    /* \"#utility.yul\":6936:6974   */\n  tag_32\n  jump\t// in\ntag_135:\n    /* \"#utility.yul\":7020:7049   */\n  tag_136\n    /* \"#utility.yul\":7038:7048   */\n  dup5\n    /* \"#utility.yul\":7020:7049   */\n  tag_33\n  jump\t// in\ntag_136:\n    /* \"#utility.yul\":7010:7018   */\n  dup2\n    /* \"#utility.yul\":7006:7050   */\n  add\n    /* \"#utility.yul\":7203:7205   */\n  0x20\n    /* \"#utility.yul\":7191:7201   */\n  dup6\n    /* \"#utility.yul\":7188:7206   */\n  lt\n    /* \"#utility.yul\":7185:7234   */\n  iszero\n  tag_137\n  jumpi\n    /* \"#utility.yul\":7224:7232   */\n  dup2\n    /* \"#utility.yul\":7209:7232   */\n  swap1\n  pop\n    /* \"#utility.yul\":7185:7234   */\ntag_137:\n    /* \"#utility.yul\":7247:7327   */\n  tag_138\n    /* \"#utility.yul\":7303:7325   */\n  tag_139\n    /* \"#utility.yul\":7321:7324   */\n  dup6\n    /* \"#utility.yul\":7303:7325   */\n  tag_33\n  jump\t// in\ntag_139:\n    /* \"#utility.yul\":7293:7301   */\n  dup4\n    /* \"#utility.yul\":7289:7326   */\n  add\n    /* \"#utility.yul\":7276:7287   */\n  dup3\n    /* \"#utility.yul\":7247:7327   */\n  tag_42\n  jump\t// in\ntag_138:\n    /* \"#utility.yul\":6906:7337   */\n  pop\n  pop\n    /* \"#utility.yul\":6891:7337   */\ntag_134:\n    /* \"#utility.yul\":6801:7344   */\n  pop\n  pop\n  pop\n  jump\t// out\n    /* \"#utility.yul\":7350:7467   */\ntag_44:\n    /* \"#utility.yul\":7404:7412   */\n  0x00\n    /* \"#utility.yul\":7454:7459   */\n  dup3\n    /* \"#utility.yul\":7448:7452   */\n  dup3\n    /* \"#utility.yul\":7444:7460   */\n  shr\n    /* \"#utility.yul\":7423:7460   */\n  swap1\n  pop\n    /* \"#utility.yul\":7350:7467   */\n  swap3\n  swap2\n  pop\n  pop\n  jump\t// out\n    /* \"#utility.yul\":7473:7642   */\ntag_45:\n    /* \"#utility.yul\":7517:7523   */\n  0x00\n    /* \"#utility.yul\":7550:7601   */\n  tag_142\n    /* \"#utility.yul\":7598:7599   */\n  0x00\n    /* \"#utility.yul\":7594:7600   */\n  not\n    /* \"#utility.yul\":7586:7591   */\n  dup5\n    /* \"#utility.yul\":7583:7584   */\n  0x08\n    /* \"#utility.yul\":7579:7592   */\n  mul\n    /* \"#utility.yul\":7550:7601   */\n  tag_44\n  jump\t// in\ntag_142:\n    /* \"#utility.yul\":7546:7602   */\n  not\n    /* \"#utility.yul\":7631:7635   */\n  dup1\n    /* \"#utility.yul\":7625:7629   */\n  dup4\n    /* \"#utility.yul\":7621:7636   */\n  and\n    /* \"#utility.yul\":7611:7636   */\n  swap2\n  pop\n    /* \"#utility.yul\":7524:7642   */\n  pop\n    /* \"#utility.yul\":7473:7642   */\n  swap3\n  swap2\n  pop\n  pop\n  jump\t// out\n    /* \"#utility.yul\":7647:7942   */\ntag_46:\n    /* \"#utility.yul\":7723:7727   */\n  0x00\n    /* \"#utility.yul\":7869:7898   */\n  tag_144\n    /* \"#utility.yul\":7894:7897   */\n  dup4\n    /* \"#utility.yul\":7888:7892   */\n  dup4\n    /* \"#utility.yul\":7869:7898   */\n  tag_45\n  jump\t// in\ntag_144:\n    /* \"#utility.yul\":7861:7898   */\n  swap2\n  pop\n    /* \"#utility.yul\":7931:7934   */\n  dup3\n    /* \"#utility.yul\":7928:7929   */\n  0x02\n    /* \"#utility.yul\":7924:7935   */\n  mul\n    /* \"#utility.yul\":7918:7922   */\n  dup3\n    /* \"#utility.yul\":7915:7936   */\n  or\n    /* \"#utility.yul\":7907:7936   */\n  swap1\n  pop\n    /* \"#utility.yul\":7647:7942   */\n  swap3\n  swap2\n  pop\n  pop\n  jump\t// out\n    /* \"#utility.yul\":7947:9342   */\ntag_7:\n    /* \"#utility.yul\":8064:8101   */\n  tag_146\n    /* \"#utility.yul\":8097:8100   */\n  dup3\n    /* \"#utility.yul\":8064:8101   */\n  tag_29\n  jump\t// in\ntag_146:\n    /* \"#utility.yul\":8166:8184   */\n  0xffffffffffffffff\n    /* \"#utility.yul\":8158:8164   */\n  dup2\n    /* \"#utility.yul\":8155:8185   */\n  gt\n    /* \"#utility.yul\":8152:8208   */\n  iszero\n  tag_147\n  jumpi\n    /* \"#utility.yul\":8188:8206   */\n  tag_148\n  tag_19\n  jump\t// in\ntag_148:\n    /* \"#utility.yul\":8152:8208   */\ntag_147:\n    /* \"#utility.yul\":8232:8270   */\n  tag_149\n    /* \"#utility.yul\":8264:8268   */\n  dup3\n    /* \"#utility.yul\":8258:8269   */\n  sload\n    /* \"#utility.yul\":8232:8270   */\n  tag_31\n  jump\t// in\ntag_149:\n    /* \"#utility.yul\":8317:8384   */\n  tag_150\n    /* \"#utility.yul\":8377:8383   */\n  dup3\n    /* \"#utility.yul\":8369:8375   */\n  dup3\n    /* \"#utility.yul\":8363:8367   */\n  dup6\n    /* \"#utility.yul\":8317:8384   */\n  tag_43\n  jump\t// in\ntag_150:\n    /* \"#utility.yul\":8411:8412   */\n  0x00\n    /* \"#utility.yul\":8435:8439   */\n  0x20\n    /* \"#utility.yul\":8422:8439   */\n  swap1\n  pop\n    /* \"#utility.yul\":8467:8469   */\n  0x1f\n    /* \"#utility.yul\":8459:8465   */\n  dup4\n    /* \"#utility.yul\":8456:8470   */\n  gt\n    /* \"#utility.yul\":8484:8485   */\n  0x01\n    /* \"#utility.yul\":8479:9097   */\n  dup2\n  eq\n  tag_152\n  jumpi\n    /* \"#utility.yul\":9141:9142   */\n  0x00\n    /* \"#utility.yul\":9158:9164   */\n  dup5\n    /* \"#utility.yul\":9155:9232   */\n  iszero\n  tag_153\n  jumpi\n    /* \"#utility.yul\":9207:9216   */\n  dup3\n    /* \"#utility.yul\":9202:9205   */\n  dup8\n    /* \"#utility.yul\":9198:9217   */\n  add\n    /* \"#utility.yul\":9192:9218   */\n  mload\n    /* \"#utility.yul\":9183:9218   */\n  swap1\n  pop\n    /* \"#utility.yul\":9155:9232   */\ntag_153:\n    /* \"#utility.yul\":9258:9325   */\n  tag_154\n    /* \"#utility.yul\":9318:9324   */\n  dup6\n    /* \"#utility.yul\":9311:9316   */\n  dup3\n    /* \"#utility.yul\":9258:9325   */\n  tag_46\n  jump\t// in\ntag_154:\n    /* \"#utility.yul\":9252:9256   */\n  dup7\n    /* \"#utility.yul\":9245:9326   */\n  sstore\n    /* \"#utility.yul\":9114:9336   */\n  pop\n    /* \"#utility.yul\":8449:9336   */\n  jump(tag_151)\n    /* \"#utility.yul\":8479:9097   */\ntag_152:\n    /* \"#utility.yul\":8531:8535   */\n  0x1f\n    /* \"#utility.yul\":8527:8536   */\n  not\n    /* \"#utility.yul\":8519:8525   */\n  dup5\n    /* \"#utility.yul\":8515:8537   */\n  and\n    /* \"#utility.yul\":8565:8602   */\n  tag_155\n    /* \"#utility.yul\":8597:8601   */\n  dup7\n    /* \"#utility.yul\":8565:8602   */\n  tag_32\n  jump\t// in\ntag_155:\n    /* \"#utility.yul\":8624:8625   */\n  0x00\n    /* \"#utility.yul\":8638:8846   */\ntag_156:\n    /* \"#utility.yul\":8652:8659   */\n  dup3\n    /* \"#utility.yul\":8649:8650   */\n  dup2\n    /* \"#utility.yul\":8646:8660   */\n  lt\n    /* \"#utility.yul\":8638:8846   */\n  iszero\n  tag_158\n  jumpi\n    /* \"#utility.yul\":8731:8740   */\n  dup5\n    /* \"#utility.yul\":8726:8729   */\n  dup10\n    /* \"#utility.yul\":8722:8741   */\n  add\n    /* \"#utility.yul\":8716:8742   */\n  mload\n    /* \"#utility.yul\":8708:8714   */\n  dup3\n    /* \"#utility.yul\":8701:8743   */\n  sstore\n    /* \"#utility.yul\":8782:8783   */\n  0x01\n    /* \"#utility.yul\":8774:8780   */\n  dup3\n    /* \"#utility.yul\":8770:8784   */\n  add\n    /* \"#utility.yul\":8760:8784   */\n  swap2\n  pop\n    /* \"#utility.yul\":8829:8831   */\n  0x20\n    /* \"#utility.yul\":8818:8827   */\n  dup6\n    /* \"#utility.yul\":8814:8832   */\n  add\n    /* \"#utility.yul\":8801:8832   */\n  swap5\n  pop\n    /* \"#utility.yul\":8675:8679   */\n  0x20\n    /* \"#utility.yul\":8672:8673   */\n  dup2\n    /* \"#utility.yul\":8668:8680   */\n  add\n    /* \"#utility.yul\":8663:8680   */\n  swap1\n  pop\n    /* \"#utility.yul\":8638:8846   */\n  jump(tag_156)\ntag_158:\n    /* \"#utility.yul\":8874:8880   */\n  dup7\n    /* \"#utility.yul\":8865:8872   */\n  dup4\n    /* \"#utility.yul\":8862:8881   */\n  lt\n    /* \"#utility.yul\":8859:9038   */\n  iszero\n  tag_159\n  jumpi\n    /* \"#utility.yul\":8932:8941   */\n  dup5\n    /* \"#utility.yul\":8927:8930   */\n  dup10\n    /* \"#utility.yul\":8923:8942   */\n  add\n    /* \"#utility.yul\":8917:8943   */\n  mload\n    /* \"#utility.yul\":8975:9023   */\n  tag_160\n    /* \"#utility.yul\":9017:9021   */\n  0x1f\n    /* \"#utility.yul\":9009:9015   */\n  dup10\n    /* \"#utility.yul\":9005:9022   */\n  and\n    /* \"#utility.yul\":8994:9003   */\n  dup3\n    /* \"#utility.yul\":8975:9023   */\n  tag_45\n  jump\t// in\ntag_160:\n    /* \"#utility.yul\":8967:8973   */\n  dup4\n    /* \"#utility.yul\":8960:9024   */\n  sstore\n    /* \"#utility.yul\":8882:9038   */\n  pop\n    /* \"#utility.yul\":8859:9038   */\ntag_159:\n    /* \"#utility.yul\":9084:9085   */\n  0x01\n    /* \"#utility.yul\":9080:9081   */\n  0x02\n    /* \"#utility.yul\":9072:9078   */\n  dup9\n    /* \"#utility.yul\":9068:9082   */\n  mul\n    /* \"#utility.yul\":9064:9086   */\n  add\n    /* \"#utility.yul\":9058:9062   */\n  dup9\n    /* \"#utility.yul\":9051:9087   */\n  sstore\n    /* \"#utility.yul\":8486:9097   */\n  pop\n  pop\n  pop\n    /* \"#utility.yul\":8449:9336   */\ntag_151:\n  pop\n    /* \"#utility.yul\":8039:9342   */\n  pop\n  pop\n  pop\n    /* \"#utility.yul\":7947:9342   */\n  pop\n  pop\n  jump\t// out\n    /* \"ServiceChain.sol\":802:5092  contract Service{... */\ntag_8:\n  dataSize(sub_0)\n  dup1\n  dataOffset(sub_0)\n  0x00\n  codecopy\n  0x00\n  return\nstop\n\nsub_0: assembly {\n        /* \"ServiceChain.sol\":802:5092  contract Service{... */\n      mstore(0x40, 0x80)\n      jumpi(tag_1, lt(calldatasize, 0x04))\n      shr(0xe0, calldataload(0x00))\n      dup1\n      0x9ace38c2\n      gt\n      tag_16\n      jumpi\n      dup1\n      0xa4e81be0\n      gt\n      tag_17\n      jumpi\n      dup1\n      0xa4e81be0\n      eq\n      tag_12\n      jumpi\n      dup1\n      0xc17c3521\n      eq\n      tag_13\n      jumpi\n      dup1\n      0xcc1e2cb0\n      eq\n      tag_14\n      jumpi\n      dup1\n      0xd0e30db0\n      eq\n      tag_15\n      jumpi\n      jump(tag_1)\n    tag_17:\n      dup1\n      0x9ace38c2\n      eq\n      tag_9\n      jumpi\n      dup1\n      0x9d5f65fc\n      eq\n      tag_10\n      jumpi\n      dup1\n      0xa334b295\n      eq\n      tag_11\n      jumpi\n      jump(tag_1)\n    tag_16:\n      dup1\n      0x474466c2\n      gt\n      tag_18\n      jumpi\n      dup1\n      0x474466c2\n      eq\n      tag_5\n      jumpi\n      dup1\n      0x481c6a75\n      eq\n      tag_6\n      jumpi\n      dup1\n      0x59a7b3fe\n      eq\n      tag_7\n      jumpi\n      dup1\n      0x6eaf9563\n      eq\n      tag_8\n      jumpi\n      jump(tag_1)\n    tag_18:\n      dup1\n      0x0fa8d54f\n      eq\n      tag_2\n      jumpi\n      dup1\n      0x12065fe0\n      eq\n      tag_3\n      jumpi\n      dup1\n      0x20ee128e\n      eq\n      tag_4\n      jumpi\n    tag_1:\n      0x00\n      dup1\n      revert\n        /* \"ServiceChain.sol\":2282:2561  function requestHours(uint value) public{... */\n    tag_2:\n      callvalue\n      dup1\n      iszero\n      tag_19\n      jumpi\n      0x00\n      dup1\n      revert\n    tag_19:\n      pop\n      tag_20\n      0x04\n      dup1\n      calldatasize\n      sub\n      dup2\n      add\n      swap1\n      tag_21\n      swap2\n      swap1\n      tag_22\n      jump\t// in\n    tag_21:\n      tag_23\n      jump\t// in\n    tag_20:\n      stop\n        /* \"ServiceChain.sol\":4988:5083  function getBalance() public view returns(uint) {... */\n    tag_3:\n      callvalue\n      dup1\n      iszero\n      tag_24\n      jumpi\n      0x00\n      dup1\n      revert\n    tag_24:\n      pop\n      tag_25\n      tag_26\n      jump\t// in\n    tag_25:\n      mload(0x40)\n      tag_27\n      swap2\n      swap1\n      tag_28\n      jump\t// in\n    tag_27:\n      mload(0x40)\n      dup1\n      swap2\n      sub\n      swap1\n      return\n        /* \"ServiceChain.sol\":1676:1719  mapping(address=>hourLog[]) public empHours */\n    tag_4:\n      callvalue\n      dup1\n      iszero\n      tag_29\n      jumpi\n      0x00\n      dup1\n      revert\n    tag_29:\n      pop\n      tag_30\n      0x04\n      dup1\n      calldatasize\n      sub\n      dup2\n      add\n      swap1\n      tag_31\n      swap2\n      swap1\n      tag_32\n      jump\t// in\n    tag_31:\n      tag_33\n      jump\t// in\n    tag_30:\n      mload(0x40)\n      tag_34\n      swap5\n      swap4\n      swap3\n      swap2\n      swap1\n      tag_35\n      jump\t// in\n    tag_34:\n      mload(0x40)\n      dup1\n      swap2\n      sub\n      swap1\n      return\n        /* \"ServiceChain.sol\":2795:3578  function confirmHours(address payable waiter,uint index) public payable{... */\n    tag_5:\n      tag_36\n      0x04\n      dup1\n      calldatasize\n      sub\n      dup2\n      add\n      swap1\n      tag_37\n      swap2\n      swap1\n      tag_38\n      jump\t// in\n    tag_37:\n      tag_39\n      jump\t// in\n    tag_36:\n      stop\n        /* \"ServiceChain.sol\":1756:1778  address public manager */\n    tag_6:\n      callvalue\n      dup1\n      iszero\n      tag_40\n      jumpi\n      0x00\n      dup1\n      revert\n    tag_40:\n      pop\n      tag_41\n      tag_42\n      jump\t// in\n    tag_41:\n      mload(0x40)\n      tag_43\n      swap2\n      swap1\n      tag_44\n      jump\t// in\n    tag_43:\n      mload(0x40)\n      dup1\n      swap2\n      sub\n      swap1\n      return\n        /* \"ServiceChain.sol\":1785:1807  uint public hourlyRate */\n    tag_7:\n      callvalue\n      dup1\n      iszero\n      tag_45\n      jumpi\n      0x00\n      dup1\n      revert\n    tag_45:\n      pop\n      tag_46\n      tag_47\n      jump\t// in\n    tag_46:\n      mload(0x40)\n      tag_48\n      swap2\n      swap1\n      tag_28\n      jump\t// in\n    tag_48:\n      mload(0x40)\n      dup1\n      swap2\n      sub\n      swap1\n      return\n        /* \"ServiceChain.sol\":3584:4156  function denyHours(address waiter,uint index) public{... */\n    tag_8:\n      callvalue\n      dup1\n      iszero\n      tag_49\n      jumpi\n      0x00\n      dup1\n      revert\n    tag_49:\n      pop\n      tag_50\n      0x04\n      dup1\n      calldatasize\n      sub\n      dup2\n      add\n      swap1\n      tag_51\n      swap2\n      swap1\n      tag_32\n      jump\t// in\n    tag_51:\n      tag_52\n      jump\t// in\n    tag_50:\n      stop\n        /* \"ServiceChain.sol\":1636:1669  Transaction[] public transactions */\n    tag_9:\n      callvalue\n      dup1\n      iszero\n      tag_53\n      jumpi\n      0x00\n      dup1\n      revert\n    tag_53:\n      pop\n      tag_54\n      0x04\n      dup1\n      calldatasize\n      sub\n      dup2\n      add\n      swap1\n      tag_55\n      swap2\n      swap1\n      tag_22\n      jump\t// in\n    tag_55:\n      tag_56\n      jump\t// in\n    tag_54:\n      mload(0x40)\n      tag_57\n      swap4\n      swap3\n      swap2\n      swap1\n      tag_58\n      jump\t// in\n    tag_57:\n      mload(0x40)\n      dup1\n      swap2\n      sub\n      swap1\n      return\n        /* \"ServiceChain.sol\":4215:4332  function getHourLog(address waiter) public view returns(hourLog[] memory){... */\n    tag_10:\n      callvalue\n      dup1\n      iszero\n      tag_59\n      jumpi\n      0x00\n      dup1\n      revert\n    tag_59:\n      pop\n      tag_60\n      0x04\n      dup1\n      calldatasize\n      sub\n      dup2\n      add\n      swap1\n      tag_61\n      swap2\n      swap1\n      tag_62\n      jump\t// in\n    tag_61:\n      tag_63\n      jump\t// in\n    tag_60:\n      mload(0x40)\n      tag_64\n      swap2\n      swap1\n      tag_65\n      jump\t// in\n    tag_64:\n      mload(0x40)\n      dup1\n      swap2\n      sub\n      swap1\n      return\n        /* \"ServiceChain.sol\":4354:4517  function sendRatings(address waiter,uint rating) public {... */\n    tag_11:\n      callvalue\n      dup1\n      iszero\n      tag_66\n      jumpi\n      0x00\n      dup1\n      revert\n    tag_66:\n      pop\n      tag_67\n      0x04\n      dup1\n      calldatasize\n      sub\n      dup2\n      add\n      swap1\n      tag_68\n      swap2\n      swap1\n      tag_32\n      jump\t// in\n    tag_68:\n      tag_69\n      jump\t// in\n    tag_67:\n      stop\n        /* \"ServiceChain.sol\":4813:4980  function sendTip(address payable recipient) public payable {... */\n    tag_12:\n      tag_70\n      0x04\n      dup1\n      calldatasize\n      sub\n      dup2\n      add\n      swap1\n      tag_71\n      swap2\n      swap1\n      tag_72\n      jump\t// in\n    tag_71:\n      tag_73\n      jump\t// in\n    tag_70:\n      stop\n        /* \"ServiceChain.sol\":2020:2164  function setHourlyRate(uint rate) public {... */\n    tag_13:\n      callvalue\n      dup1\n      iszero\n      tag_74\n      jumpi\n      0x00\n      dup1\n      revert\n    tag_74:\n      pop\n      tag_75\n      0x04\n      dup1\n      calldatasize\n      sub\n      dup2\n      add\n      swap1\n      tag_76\n      swap2\n      swap1\n      tag_22\n      jump\t// in\n    tag_76:\n      tag_77\n      jump\t// in\n    tag_75:\n      stop\n        /* \"ServiceChain.sol\":1732:1749  string public org */\n    tag_14:\n      callvalue\n      dup1\n      iszero\n      tag_78\n      jumpi\n      0x00\n      dup1\n      revert\n    tag_78:\n      pop\n      tag_79\n      tag_80\n      jump\t// in\n    tag_79:\n      mload(0x40)\n      tag_81\n      swap2\n      swap1\n      tag_82\n      jump\t// in\n    tag_81:\n      mload(0x40)\n      dup1\n      swap2\n      sub\n      swap1\n      return\n        /* \"ServiceChain.sol\":4560:4686  function deposit() public payable {... */\n    tag_15:\n      tag_83\n      tag_84\n      jump\t// in\n    tag_83:\n      stop\n        /* \"ServiceChain.sol\":2282:2561  function requestHours(uint value) public{... */\n    tag_23:\n        /* \"ServiceChain.sol\":2458:2459  8 */\n      0x08\n        /* \"ServiceChain.sol\":2428:2436  empHours */\n      0x01\n        /* \"ServiceChain.sol\":2428:2448  empHours[msg.sender] */\n      0x00\n        /* \"ServiceChain.sol\":2437:2447  msg.sender */\n      caller\n        /* \"ServiceChain.sol\":2428:2448  empHours[msg.sender] */\n      0xffffffffffffffffffffffffffffffffffffffff\n      and\n      0xffffffffffffffffffffffffffffffffffffffff\n      and\n      dup2\n      mstore\n      0x20\n      add\n      swap1\n      dup2\n      mstore\n      0x20\n      add\n      0x00\n      keccak256\n        /* \"ServiceChain.sol\":2428:2455  empHours[msg.sender].length */\n      dup1\n      sload\n      swap1\n      pop\n        /* \"ServiceChain.sol\":2428:2459  empHours[msg.sender].length < 8 */\n      lt\n        /* \"ServiceChain.sol\":2420:2460  require(empHours[msg.sender].length < 8) */\n      tag_86\n      jumpi\n      0x00\n      dup1\n      revert\n    tag_86:\n        /* \"ServiceChain.sol\":2471:2479  empHours */\n      0x01\n        /* \"ServiceChain.sol\":2471:2491  empHours[msg.sender] */\n      0x00\n        /* \"ServiceChain.sol\":2480:2490  msg.sender */\n      caller\n        /* \"ServiceChain.sol\":2471:2491  empHours[msg.sender] */\n      0xffffffffffffffffffffffffffffffffffffffff\n      and\n      0xffffffffffffffffffffffffffffffffffffffff\n      and\n      dup2\n      mstore\n      0x20\n      add\n      swap1\n      dup2\n      mstore\n      0x20\n      add\n      0x00\n      keccak256\n        /* \"ServiceChain.sol\":2497:2552  hourLog(block.timestamp,value,hourlyRate * value,false) */\n      mload(0x40)\n      dup1\n      0x80\n      add\n      0x40\n      mstore\n      dup1\n        /* \"ServiceChain.sol\":2505:2520  block.timestamp */\n      timestamp\n        /* \"ServiceChain.sol\":2497:2552  hourLog(block.timestamp,value,hourlyRate * value,false) */\n      dup2\n      mstore\n      0x20\n      add\n        /* \"ServiceChain.sol\":2521:2526  value */\n      dup4\n        /* \"ServiceChain.sol\":2497:2552  hourLog(block.timestamp,value,hourlyRate * value,false) */\n      dup2\n      mstore\n      0x20\n      add\n        /* \"ServiceChain.sol\":2540:2545  value */\n      dup4\n        /* \"ServiceChain.sol\":2527:2537  hourlyRate */\n      sload(0x04)\n        /* \"ServiceChain.sol\":2527:2545  hourlyRate * value */\n      tag_87\n      swap2\n      swap1\n      tag_88\n      jump\t// in\n    tag_87:\n        /* \"ServiceChain.sol\":2497:2552  hourLog(block.timestamp,value,hourlyRate * value,false) */\n      dup2\n      mstore\n      0x20\n      add\n        /* \"ServiceChain.sol\":2546:2551  false */\n      0x00\n        /* \"ServiceChain.sol\":2497:2552  hourLog(block.timestamp,value,hourlyRate * value,false) */\n      iszero\n      iszero\n      dup2\n      mstore\n      pop\n        /* \"ServiceChain.sol\":2471:2553  empHours[msg.sender].push(hourLog(block.timestamp,value,hourlyRate * value,false)) */\n      swap1\n      dup1\n      0x01\n      dup2\n      sload\n      add\n      dup1\n      dup3\n      sstore\n      dup1\n      swap2\n      pop\n      pop\n      0x01\n      swap1\n      sub\n      swap1\n      0x00\n      mstore\n      keccak256(0x00, 0x20)\n      swap1\n      0x04\n      mul\n      add\n      0x00\n      swap1\n      swap2\n      swap1\n      swap2\n      swap1\n      swap2\n      pop\n      0x00\n      dup3\n      add\n      mload\n      dup2\n      0x00\n      add\n      sstore\n      0x20\n      dup3\n      add\n      mload\n      dup2\n      0x01\n      add\n      sstore\n      0x40\n      dup3\n      add\n      mload\n      dup2\n      0x02\n      add\n      sstore\n      0x60\n      dup3\n      add\n      mload\n      dup2\n      0x03\n      add\n      exp(0x0100, 0x00)\n      dup2\n      sload\n      dup2\n      0xff\n      mul\n      not\n      and\n      swap1\n      dup4\n      iszero\n      iszero\n      mul\n      or\n      swap1\n      sstore\n      pop\n      pop\n      pop\n        /* \"ServiceChain.sol\":2282:2561  function requestHours(uint value) public{... */\n      pop\n      jump\t// out\n        /* \"ServiceChain.sol\":4988:5083  function getBalance() public view returns(uint) {... */\n    tag_26:\n        /* \"ServiceChain.sol\":5030:5034  uint */\n      0x00\n        /* \"ServiceChain.sol\":5054:5075  address(this).balance */\n      selfbalance\n        /* \"ServiceChain.sol\":5047:5075  return address(this).balance */\n      swap1\n      pop\n        /* \"ServiceChain.sol\":4988:5083  function getBalance() public view returns(uint) {... */\n      swap1\n      jump\t// out\n        /* \"ServiceChain.sol\":1676:1719  mapping(address=>hourLog[]) public empHours */\n    tag_33:\n      mstore(0x20, 0x01)\n      dup2\n      0x00\n      mstore\n      keccak256(0x00, 0x40)\n      dup2\n      dup2\n      sload\n      dup2\n      lt\n      tag_91\n      jumpi\n      0x00\n      dup1\n      revert\n    tag_91:\n      swap1\n      0x00\n      mstore\n      keccak256(0x00, 0x20)\n      swap1\n      0x04\n      mul\n      add\n      0x00\n      swap2\n      pop\n      swap2\n      pop\n      pop\n      dup1\n      0x00\n      add\n      sload\n      swap1\n      dup1\n      0x01\n      add\n      sload\n      swap1\n      dup1\n      0x02\n      add\n      sload\n      swap1\n      dup1\n      0x03\n      add\n      0x00\n      swap1\n      sload\n      swap1\n      0x0100\n      exp\n      swap1\n      div\n      0xff\n      and\n      swap1\n      pop\n      dup5\n      jump\t// out\n        /* \"ServiceChain.sol\":2795:3578  function confirmHours(address payable waiter,uint index) public payable{... */\n    tag_39:\n        /* \"ServiceChain.sol\":2899:2906  manager */\n      0x03\n      0x00\n      swap1\n      sload\n      swap1\n      0x0100\n      exp\n      swap1\n      div\n      0xffffffffffffffffffffffffffffffffffffffff\n      and\n        /* \"ServiceChain.sol\":2885:2906  msg.sender == manager */\n      0xffffffffffffffffffffffffffffffffffffffff\n      and\n        /* \"ServiceChain.sol\":2885:2895  msg.sender */\n      caller\n        /* \"ServiceChain.sol\":2885:2906  msg.sender == manager */\n      0xffffffffffffffffffffffffffffffffffffffff\n      and\n      eq\n        /* \"ServiceChain.sol\":2877:2933  require(msg.sender == manager,\"You are not the manager\") */\n      tag_94\n      jumpi\n      mload(0x40)\n      0x08c379a000000000000000000000000000000000000000000000000000000000\n      dup2\n      mstore\n      0x04\n      add\n      tag_95\n      swap1\n      tag_96\n      jump\t// in\n    tag_95:\n      mload(0x40)\n      dup1\n      swap2\n      sub\n      swap1\n      revert\n    tag_94:\n        /* \"ServiceChain.sol\":3097:3101  true */\n      0x01\n        /* \"ServiceChain.sol\":3064:3203  submitApproval(msg.sender,waiter,true,empHours[waiter][index].date, empHours[waiter][index].hour,hourlyRate * empHours[waiter][index].hour) */\n      iszero\n      iszero\n        /* \"ServiceChain.sol\":3090:3096  waiter */\n      dup3\n        /* \"ServiceChain.sol\":3064:3203  submitApproval(msg.sender,waiter,true,empHours[waiter][index].date, empHours[waiter][index].hour,hourlyRate * empHours[waiter][index].hour) */\n      0xffffffffffffffffffffffffffffffffffffffff\n      and\n        /* \"ServiceChain.sol\":3079:3089  msg.sender */\n      caller\n        /* \"ServiceChain.sol\":3064:3203  submitApproval(msg.sender,waiter,true,empHours[waiter][index].date, empHours[waiter][index].hour,hourlyRate * empHours[waiter][index].hour) */\n      0xffffffffffffffffffffffffffffffffffffffff\n      and\n      0x62a0718d681b5a77ad80fbaf7e41ff461f77b69d49e3879cba8e045c85e2ac74\n        /* \"ServiceChain.sol\":3102:3110  empHours */\n      0x01\n        /* \"ServiceChain.sol\":3102:3118  empHours[waiter] */\n      0x00\n        /* \"ServiceChain.sol\":3111:3117  waiter */\n      dup8\n        /* \"ServiceChain.sol\":3102:3118  empHours[waiter] */\n      0xffffffffffffffffffffffffffffffffffffffff\n      and\n      0xffffffffffffffffffffffffffffffffffffffff\n      and\n      dup2\n      mstore\n      0x20\n      add\n      swap1\n      dup2\n      mstore\n      0x20\n      add\n      0x00\n      keccak256\n        /* \"ServiceChain.sol\":3119:3124  index */\n      dup6\n        /* \"ServiceChain.sol\":3102:3125  empHours[waiter][index] */\n      dup2\n      sload\n      dup2\n      lt\n      tag_97\n      jumpi\n      tag_98\n      tag_99\n      jump\t// in\n    tag_98:\n    tag_97:\n      swap1\n      0x00\n      mstore\n      keccak256(0x00, 0x20)\n      swap1\n      0x04\n      mul\n      add\n        /* \"ServiceChain.sol\":3102:3130  empHours[waiter][index].date */\n      0x00\n      add\n      sload\n        /* \"ServiceChain.sol\":3132:3140  empHours */\n      0x01\n        /* \"ServiceChain.sol\":3132:3148  empHours[waiter] */\n      0x00\n        /* \"ServiceChain.sol\":3141:3147  waiter */\n      dup9\n        /* \"ServiceChain.sol\":3132:3148  empHours[waiter] */\n      0xffffffffffffffffffffffffffffffffffffffff\n      and\n      0xffffffffffffffffffffffffffffffffffffffff\n      and\n      dup2\n      mstore\n      0x20\n      add\n      swap1\n      dup2\n      mstore\n      0x20\n      add\n      0x00\n      keccak256\n        /* \"ServiceChain.sol\":3149:3154  index */\n      dup7\n        /* \"ServiceChain.sol\":3132:3155  empHours[waiter][index] */\n      dup2\n      sload\n      dup2\n      lt\n      tag_101\n      jumpi\n      tag_102\n      tag_99\n      jump\t// in\n    tag_102:\n    tag_101:\n      swap1\n      0x00\n      mstore\n      keccak256(0x00, 0x20)\n      swap1\n      0x04\n      mul\n      add\n        /* \"ServiceChain.sol\":3132:3160  empHours[waiter][index].hour */\n      0x01\n      add\n      sload\n        /* \"ServiceChain.sol\":3174:3182  empHours */\n      0x01\n        /* \"ServiceChain.sol\":3174:3190  empHours[waiter] */\n      0x00\n        /* \"ServiceChain.sol\":3183:3189  waiter */\n      dup10\n        /* \"ServiceChain.sol\":3174:3190  empHours[waiter] */\n      0xffffffffffffffffffffffffffffffffffffffff\n      and\n      0xffffffffffffffffffffffffffffffffffffffff\n      and\n      dup2\n      mstore\n      0x20\n      add\n      swap1\n      dup2\n      mstore\n      0x20\n      add\n      0x00\n      keccak256\n        /* \"ServiceChain.sol\":3191:3196  index */\n      dup8\n        /* \"ServiceChain.sol\":3174:3197  empHours[waiter][index] */\n      dup2\n      sload\n      dup2\n      lt\n      tag_104\n      jumpi\n      tag_105\n      tag_99\n      jump\t// in\n    tag_105:\n    tag_104:\n      swap1\n      0x00\n      mstore\n      keccak256(0x00, 0x20)\n      swap1\n      0x04\n      mul\n      add\n        /* \"ServiceChain.sol\":3174:3202  empHours[waiter][index].hour */\n      0x01\n      add\n      sload\n        /* \"ServiceChain.sol\":3161:3171  hourlyRate */\n      sload(0x04)\n        /* \"ServiceChain.sol\":3161:3202  hourlyRate * empHours[waiter][index].hour */\n      tag_107\n      swap2\n      swap1\n      tag_88\n      jump\t// in\n    tag_107:\n        /* \"ServiceChain.sol\":3064:3203  submitApproval(msg.sender,waiter,true,empHours[waiter][index].date, empHours[waiter][index].hour,hourlyRate * empHours[waiter][index].hour) */\n      mload(0x40)\n      tag_108\n      swap4\n      swap3\n      swap2\n      swap1\n      tag_109\n      jump\t// in\n    tag_108:\n      mload(0x40)\n      dup1\n      swap2\n      sub\n      swap1\n      log4\n        /* \"ServiceChain.sol\":3296:3302  waiter */\n      dup2\n        /* \"ServiceChain.sol\":3296:3311  waiter.transfer */\n      0xffffffffffffffffffffffffffffffffffffffff\n      and\n        /* \"ServiceChain.sol\":3296:3353  waiter.transfer(hourlyRate* empHours[waiter][index].hour) */\n      0x08fc\n        /* \"ServiceChain.sol\":3324:3332  empHours */\n      0x01\n        /* \"ServiceChain.sol\":3324:3340  empHours[waiter] */\n      0x00\n        /* \"ServiceChain.sol\":3333:3339  waiter */\n      dup6\n        /* \"ServiceChain.sol\":3324:3340  empHours[waiter] */\n      0xffffffffffffffffffffffffffffffffffffffff\n      and\n      0xffffffffffffffffffffffffffffffffffffffff\n      and\n      dup2\n      mstore\n      0x20\n      add\n      swap1\n      dup2\n      mstore\n      0x20\n      add\n      0x00\n      keccak256\n        /* \"ServiceChain.sol\":3341:3346  index */\n      dup4\n        /* \"ServiceChain.sol\":3324:3347  empHours[waiter][index] */\n      dup2\n      sload\n      dup2\n      lt\n      tag_110\n      jumpi\n      tag_111\n      tag_99\n      jump\t// in\n    tag_111:\n    tag_110:\n      swap1\n      0x00\n      mstore\n      keccak256(0x00, 0x20)\n      swap1\n      0x04\n      mul\n      add\n        /* \"ServiceChain.sol\":3324:3352  empHours[waiter][index].hour */\n      0x01\n      add\n      sload\n        /* \"ServiceChain.sol\":3312:3322  hourlyRate */\n      sload(0x04)\n        /* \"ServiceChain.sol\":3312:3352  hourlyRate* empHours[waiter][index].hour */\n      tag_113\n      swap2\n      swap1\n      tag_88\n      jump\t// in\n    tag_113:\n        /* \"ServiceChain.sol\":3296:3353  waiter.transfer(hourlyRate* empHours[waiter][index].hour) */\n      swap1\n      dup2\n      iszero\n      mul\n      swap1\n      mload(0x40)\n      0x00\n      mload(0x40)\n      dup1\n      dup4\n      sub\n      dup2\n      dup6\n      dup9\n      dup9\n      call\n      swap4\n      pop\n      pop\n      pop\n      pop\n      iszero\n      dup1\n      iszero\n      tag_115\n      jumpi\n      returndatasize\n      0x00\n      dup1\n      returndatacopy\n      revert(0x00, returndatasize)\n    tag_115:\n      pop\n        /* \"ServiceChain.sol\":3417:3423  uint i */\n      0x00\n        /* \"ServiceChain.sol\":3425:3430  index */\n      dup2\n        /* \"ServiceChain.sol\":3417:3430  uint i =index */\n      swap1\n      pop\n        /* \"ServiceChain.sol\":3413:3533  for(uint i =index;i<empHours[waiter].length-1;i++){... */\n    tag_116:\n        /* \"ServiceChain.sol\":3457:3458  1 */\n      0x01\n        /* \"ServiceChain.sol\":3433:3441  empHours */\n      dup1\n        /* \"ServiceChain.sol\":3433:3449  empHours[waiter] */\n      0x00\n        /* \"ServiceChain.sol\":3442:3448  waiter */\n      dup6\n        /* \"ServiceChain.sol\":3433:3449  empHours[waiter] */\n      0xffffffffffffffffffffffffffffffffffffffff\n      and\n      0xffffffffffffffffffffffffffffffffffffffff\n      and\n      dup2\n      mstore\n      0x20\n      add\n      swap1\n      dup2\n      mstore\n      0x20\n      add\n      0x00\n      keccak256\n        /* \"ServiceChain.sol\":3433:3456  empHours[waiter].length */\n      dup1\n      sload\n      swap1\n      pop\n        /* \"ServiceChain.sol\":3433:3458  empHours[waiter].length-1 */\n      tag_119\n      swap2\n      swap1\n      tag_120\n      jump\t// in\n    tag_119:\n        /* \"ServiceChain.sol\":3431:3432  i */\n      dup2\n        /* \"ServiceChain.sol\":3431:3458  i<empHours[waiter].length-1 */\n      lt\n        /* \"ServiceChain.sol\":3413:3533  for(uint i =index;i<empHours[waiter].length-1;i++){... */\n      iszero\n      tag_117\n      jumpi\n        /* \"ServiceChain.sol\":3500:3508  empHours */\n      0x01\n        /* \"ServiceChain.sol\":3500:3516  empHours[waiter] */\n      0x00\n        /* \"ServiceChain.sol\":3509:3515  waiter */\n      dup5\n        /* \"ServiceChain.sol\":3500:3516  empHours[waiter] */\n      0xffffffffffffffffffffffffffffffffffffffff\n      and\n      0xffffffffffffffffffffffffffffffffffffffff\n      and\n      dup2\n      mstore\n      0x20\n      add\n      swap1\n      dup2\n      mstore\n      0x20\n      add\n      0x00\n      keccak256\n        /* \"ServiceChain.sol\":3519:3520  1 */\n      0x01\n        /* \"ServiceChain.sol\":3517:3518  i */\n      dup3\n        /* \"ServiceChain.sol\":3517:3520  i+1 */\n      tag_121\n      swap2\n      swap1\n      tag_122\n      jump\t// in\n    tag_121:\n        /* \"ServiceChain.sol\":3500:3521  empHours[waiter][i+1] */\n      dup2\n      sload\n      dup2\n      lt\n      tag_123\n      jumpi\n      tag_124\n      tag_99\n      jump\t// in\n    tag_124:\n    tag_123:\n      swap1\n      0x00\n      mstore\n      keccak256(0x00, 0x20)\n      swap1\n      0x04\n      mul\n      add\n        /* \"ServiceChain.sol\":3478:3486  empHours */\n      0x01\n        /* \"ServiceChain.sol\":3478:3494  empHours[waiter] */\n      0x00\n        /* \"ServiceChain.sol\":3487:3493  waiter */\n      dup6\n        /* \"ServiceChain.sol\":3478:3494  empHours[waiter] */\n      0xffffffffffffffffffffffffffffffffffffffff\n      and\n      0xffffffffffffffffffffffffffffffffffffffff\n      and\n      dup2\n      mstore\n      0x20\n      add\n      swap1\n      dup2\n      mstore\n      0x20\n      add\n      0x00\n      keccak256\n        /* \"ServiceChain.sol\":3495:3496  i */\n      dup3\n        /* \"ServiceChain.sol\":3478:3497  empHours[waiter][i] */\n      dup2\n      sload\n      dup2\n      lt\n      tag_126\n      jumpi\n      tag_127\n      tag_99\n      jump\t// in\n    tag_127:\n    tag_126:\n      swap1\n      0x00\n      mstore\n      keccak256(0x00, 0x20)\n      swap1\n      0x04\n      mul\n      add\n        /* \"ServiceChain.sol\":3478:3521  empHours[waiter][i] = empHours[waiter][i+1] */\n      0x00\n      dup3\n      add\n      sload\n      dup2\n      0x00\n      add\n      sstore\n      0x01\n      dup3\n      add\n      sload\n      dup2\n      0x01\n      add\n      sstore\n      0x02\n      dup3\n      add\n      sload\n      dup2\n      0x02\n      add\n      sstore\n      0x03\n      dup3\n      add\n      0x00\n      swap1\n      sload\n      swap1\n      0x0100\n      exp\n      swap1\n      div\n      0xff\n      and\n      dup2\n      0x03\n      add\n      exp(0x0100, 0x00)\n      dup2\n      sload\n      dup2\n      0xff\n      mul\n      not\n      and\n      swap1\n      dup4\n      iszero\n      iszero\n      mul\n      or\n      swap1\n      sstore\n      pop\n      swap1\n      pop\n      pop\n        /* \"ServiceChain.sol\":3459:3462  i++ */\n      dup1\n      dup1\n      tag_129\n      swap1\n      tag_130\n      jump\t// in\n    tag_129:\n      swap2\n      pop\n      pop\n        /* \"ServiceChain.sol\":3413:3533  for(uint i =index;i<empHours[waiter].length-1;i++){... */\n      jump(tag_116)\n    tag_117:\n      pop\n        /* \"ServiceChain.sol\":3543:3551  empHours */\n      0x01\n        /* \"ServiceChain.sol\":3543:3559  empHours[waiter] */\n      0x00\n        /* \"ServiceChain.sol\":3552:3558  waiter */\n      dup4\n        /* \"ServiceChain.sol\":3543:3559  empHours[waiter] */\n      0xffffffffffffffffffffffffffffffffffffffff\n      and\n      0xffffffffffffffffffffffffffffffffffffffff\n      and\n      dup2\n      mstore\n      0x20\n      add\n      swap1\n      dup2\n      mstore\n      0x20\n      add\n      0x00\n      keccak256\n        /* \"ServiceChain.sol\":3543:3565  empHours[waiter].pop() */\n      dup1\n      sload\n      dup1\n      tag_131\n      jumpi\n      tag_132\n      tag_133\n      jump\t// in\n    tag_132:\n    tag_131:\n      0x01\n      swap1\n      sub\n      dup2\n      dup2\n      swap1\n      0x00\n      mstore\n      keccak256(0x00, 0x20)\n      swap1\n      0x04\n      mul\n      add\n      0x00\n      dup1\n      dup3\n      add\n      0x00\n      swap1\n      sstore\n      0x01\n      dup3\n      add\n      0x00\n      swap1\n      sstore\n      0x02\n      dup3\n      add\n      0x00\n      swap1\n      sstore\n      0x03\n      dup3\n      add\n      exp(0x0100, 0x00)\n      dup2\n      sload\n      swap1\n      0xff\n      mul\n      not\n      and\n      swap1\n      sstore\n      pop\n      pop\n      swap1\n      sstore\n        /* \"ServiceChain.sol\":2795:3578  function confirmHours(address payable waiter,uint index) public payable{... */\n      pop\n      pop\n      jump\t// out\n        /* \"ServiceChain.sol\":1756:1778  address public manager */\n    tag_42:\n      0x03\n      0x00\n      swap1\n      sload\n      swap1\n      0x0100\n      exp\n      swap1\n      div\n      0xffffffffffffffffffffffffffffffffffffffff\n      and\n      dup2\n      jump\t// out\n        /* \"ServiceChain.sol\":1785:1807  uint public hourlyRate */\n    tag_47:\n      sload(0x04)\n      dup2\n      jump\t// out\n        /* \"ServiceChain.sol\":3584:4156  function denyHours(address waiter,uint index) public{... */\n    tag_52:\n        /* \"ServiceChain.sol\":3669:3676  manager */\n      0x03\n      0x00\n      swap1\n      sload\n      swap1\n      0x0100\n      exp\n      swap1\n      div\n      0xffffffffffffffffffffffffffffffffffffffff\n      and\n        /* \"ServiceChain.sol\":3655:3676  msg.sender == manager */\n      0xffffffffffffffffffffffffffffffffffffffff\n      and\n        /* \"ServiceChain.sol\":3655:3665  msg.sender */\n      caller\n        /* \"ServiceChain.sol\":3655:3676  msg.sender == manager */\n      0xffffffffffffffffffffffffffffffffffffffff\n      and\n      eq\n        /* \"ServiceChain.sol\":3647:3703  require(msg.sender == manager,\"You are not the manager\") */\n      tag_136\n      jumpi\n      mload(0x40)\n      0x08c379a000000000000000000000000000000000000000000000000000000000\n      dup2\n      mstore\n      0x04\n      add\n      tag_137\n      swap1\n      tag_96\n      jump\t// in\n    tag_137:\n      mload(0x40)\n      dup1\n      swap2\n      sub\n      swap1\n      revert\n    tag_136:\n        /* \"ServiceChain.sol\":3867:3872  false */\n      0x00\n        /* \"ServiceChain.sol\":3834:3934  submitApproval(msg.sender,waiter,false,empHours[waiter][index].date, empHours[waiter][index].hour,0) */\n      iszero\n      iszero\n        /* \"ServiceChain.sol\":3860:3866  waiter */\n      dup3\n        /* \"ServiceChain.sol\":3834:3934  submitApproval(msg.sender,waiter,false,empHours[waiter][index].date, empHours[waiter][index].hour,0) */\n      0xffffffffffffffffffffffffffffffffffffffff\n      and\n        /* \"ServiceChain.sol\":3849:3859  msg.sender */\n      caller\n        /* \"ServiceChain.sol\":3834:3934  submitApproval(msg.sender,waiter,false,empHours[waiter][index].date, empHours[waiter][index].hour,0) */\n      0xffffffffffffffffffffffffffffffffffffffff\n      and\n      0x62a0718d681b5a77ad80fbaf7e41ff461f77b69d49e3879cba8e045c85e2ac74\n        /* \"ServiceChain.sol\":3873:3881  empHours */\n      0x01\n        /* \"ServiceChain.sol\":3873:3889  empHours[waiter] */\n      0x00\n        /* \"ServiceChain.sol\":3882:3888  waiter */\n      dup8\n        /* \"ServiceChain.sol\":3873:3889  empHours[waiter] */\n      0xffffffffffffffffffffffffffffffffffffffff\n      and\n      0xffffffffffffffffffffffffffffffffffffffff\n      and\n      dup2\n      mstore\n      0x20\n      add\n      swap1\n      dup2\n      mstore\n      0x20\n      add\n      0x00\n      keccak256\n        /* \"ServiceChain.sol\":3890:3895  index */\n      dup6\n        /* \"ServiceChain.sol\":3873:3896  empHours[waiter][index] */\n      dup2\n      sload\n      dup2\n      lt\n      tag_138\n      jumpi\n      tag_139\n      tag_99\n      jump\t// in\n    tag_139:\n    tag_138:\n      swap1\n      0x00\n      mstore\n      keccak256(0x00, 0x20)\n      swap1\n      0x04\n      mul\n      add\n        /* \"ServiceChain.sol\":3873:3901  empHours[waiter][index].date */\n      0x00\n      add\n      sload\n        /* \"ServiceChain.sol\":3903:3911  empHours */\n      0x01\n        /* \"ServiceChain.sol\":3903:3919  empHours[waiter] */\n      0x00\n        /* \"ServiceChain.sol\":3912:3918  waiter */\n      dup9\n        /* \"ServiceChain.sol\":3903:3919  empHours[waiter] */\n      0xffffffffffffffffffffffffffffffffffffffff\n      and\n      0xffffffffffffffffffffffffffffffffffffffff\n      and\n      dup2\n      mstore\n      0x20\n      add\n      swap1\n      dup2\n      mstore\n      0x20\n      add\n      0x00\n      keccak256\n        /* \"ServiceChain.sol\":3920:3925  index */\n      dup7\n        /* \"ServiceChain.sol\":3903:3926  empHours[waiter][index] */\n      dup2\n      sload\n      dup2\n      lt\n      tag_141\n      jumpi\n      tag_142\n      tag_99\n      jump\t// in\n    tag_142:\n    tag_141:\n      swap1\n      0x00\n      mstore\n      keccak256(0x00, 0x20)\n      swap1\n      0x04\n      mul\n      add\n        /* \"ServiceChain.sol\":3903:3931  empHours[waiter][index].hour */\n      0x01\n      add\n      sload\n        /* \"ServiceChain.sol\":3932:3933  0 */\n      0x00\n        /* \"ServiceChain.sol\":3834:3934  submitApproval(msg.sender,waiter,false,empHours[waiter][index].date, empHours[waiter][index].hour,0) */\n      mload(0x40)\n      tag_144\n      swap4\n      swap3\n      swap2\n      swap1\n      tag_145\n      jump\t// in\n    tag_144:\n      mload(0x40)\n      dup1\n      swap2\n      sub\n      swap1\n      log4\n        /* \"ServiceChain.sol\":3998:4004  uint i */\n      0x00\n        /* \"ServiceChain.sol\":4006:4011  index */\n      dup2\n        /* \"ServiceChain.sol\":3998:4011  uint i =index */\n      swap1\n      pop\n        /* \"ServiceChain.sol\":3994:4114  for(uint i =index;i<empHours[waiter].length-1;i++){... */\n    tag_146:\n        /* \"ServiceChain.sol\":4038:4039  1 */\n      0x01\n        /* \"ServiceChain.sol\":4014:4022  empHours */\n      dup1\n        /* \"ServiceChain.sol\":4014:4030  empHours[waiter] */\n      0x00\n        /* \"ServiceChain.sol\":4023:4029  waiter */\n      dup6\n        /* \"ServiceChain.sol\":4014:4030  empHours[waiter] */\n      0xffffffffffffffffffffffffffffffffffffffff\n      and\n      0xffffffffffffffffffffffffffffffffffffffff\n      and\n      dup2\n      mstore\n      0x20\n      add\n      swap1\n      dup2\n      mstore\n      0x20\n      add\n      0x00\n      keccak256\n        /* \"ServiceChain.sol\":4014:4037  empHours[waiter].length */\n      dup1\n      sload\n      swap1\n      pop\n        /* \"ServiceChain.sol\":4014:4039  empHours[waiter].length-1 */\n      tag_149\n      swap2\n      swap1\n      tag_120\n      jump\t// in\n    tag_149:\n        /* \"ServiceChain.sol\":4012:4013  i */\n      dup2\n        /* \"ServiceChain.sol\":4012:4039  i<empHours[waiter].length-1 */\n      lt\n        /* \"ServiceChain.sol\":3994:4114  for(uint i =index;i<empHours[waiter].length-1;i++){... */\n      iszero\n      tag_147\n      jumpi\n        /* \"ServiceChain.sol\":4081:4089  empHours */\n      0x01\n        /* \"ServiceChain.sol\":4081:4097  empHours[waiter] */\n      0x00\n        /* \"ServiceChain.sol\":4090:4096  waiter */\n      dup5\n        /* \"ServiceChain.sol\":4081:4097  empHours[waiter] */\n      0xffffffffffffffffffffffffffffffffffffffff\n      and\n      0xffffffffffffffffffffffffffffffffffffffff\n      and\n      dup2\n      mstore\n      0x20\n      add\n      swap1\n      dup2\n      mstore\n      0x20\n      add\n      0x00\n      keccak256\n        /* \"ServiceChain.sol\":4100:4101  1 */\n      0x01\n        /* \"ServiceChain.sol\":4098:4099  i */\n      dup3\n        /* \"ServiceChain.sol\":4098:4101  i+1 */\n      tag_150\n      swap2\n      swap1\n      tag_122\n      jump\t// in\n    tag_150:\n        /* \"ServiceChain.sol\":4081:4102  empHours[waiter][i+1] */\n      dup2\n      sload\n      dup2\n      lt\n      tag_151\n      jumpi\n      tag_152\n      tag_99\n      jump\t// in\n    tag_152:\n    tag_151:\n      swap1\n      0x00\n      mstore\n      keccak256(0x00, 0x20)\n      swap1\n      0x04\n      mul\n      add\n        /* \"ServiceChain.sol\":4059:4067  empHours */\n      0x01\n        /* \"ServiceChain.sol\":4059:4075  empHours[waiter] */\n      0x00\n        /* \"ServiceChain.sol\":4068:4074  waiter */\n      dup6\n        /* \"ServiceChain.sol\":4059:4075  empHours[waiter] */\n      0xffffffffffffffffffffffffffffffffffffffff\n      and\n      0xffffffffffffffffffffffffffffffffffffffff\n      and\n      dup2\n      mstore\n      0x20\n      add\n      swap1\n      dup2\n      mstore\n      0x20\n      add\n      0x00\n      keccak256\n        /* \"ServiceChain.sol\":4076:4077  i */\n      dup3\n        /* \"ServiceChain.sol\":4059:4078  empHours[waiter][i] */\n      dup2\n      sload\n      dup2\n      lt\n      tag_154\n      jumpi\n      tag_155\n      tag_99\n      jump\t// in\n    tag_155:\n    tag_154:\n      swap1\n      0x00\n      mstore\n      keccak256(0x00, 0x20)\n      swap1\n      0x04\n      mul\n      add\n        /* \"ServiceChain.sol\":4059:4102  empHours[waiter][i] = empHours[waiter][i+1] */\n      0x00\n      dup3\n      add\n      sload\n      dup2\n      0x00\n      add\n      sstore\n      0x01\n      dup3\n      add\n      sload\n      dup2\n      0x01\n      add\n      sstore\n      0x02\n      dup3\n      add\n      sload\n      dup2\n      0x02\n      add\n      sstore\n      0x03\n      dup3\n      add\n      0x00\n      swap1\n      sload\n      swap1\n      0x0100\n      exp\n      swap1\n      div\n      0xff\n      and\n      dup2\n      0x03\n      add\n      exp(0x0100, 0x00)\n      dup2\n      sload\n      dup2\n      0xff\n      mul\n      not\n      and\n      swap1\n      dup4\n      iszero\n      iszero\n      mul\n      or\n      swap1\n      sstore\n      pop\n      swap1\n      pop\n      pop\n        /* \"ServiceChain.sol\":4040:4043  i++ */\n      dup1\n      dup1\n      tag_157\n      swap1\n      tag_130\n      jump\t// in\n    tag_157:\n      swap2\n      pop\n      pop\n        /* \"ServiceChain.sol\":3994:4114  for(uint i =index;i<empHours[waiter].length-1;i++){... */\n      jump(tag_146)\n    tag_147:\n      pop\n        /* \"ServiceChain.sol\":4124:4132  empHours */\n      0x01\n        /* \"ServiceChain.sol\":4124:4140  empHours[waiter] */\n      0x00\n        /* \"ServiceChain.sol\":4133:4139  waiter */\n      dup4\n        /* \"ServiceChain.sol\":4124:4140  empHours[waiter] */\n      0xffffffffffffffffffffffffffffffffffffffff\n      and\n      0xffffffffffffffffffffffffffffffffffffffff\n      and\n      dup2\n      mstore\n      0x20\n      add\n      swap1\n      dup2\n      mstore\n      0x20\n      add\n      0x00\n      keccak256\n        /* \"ServiceChain.sol\":4124:4146  empHours[waiter].pop() */\n      dup1\n      sload\n      dup1\n      tag_158\n      jumpi\n      tag_159\n      tag_133\n      jump\t// in\n    tag_159:\n    tag_158:\n      0x01\n      swap1\n      sub\n      dup2\n      dup2\n      swap1\n      0x00\n      mstore\n      keccak256(0x00, 0x20)\n      swap1\n      0x04\n      mul\n      add\n      0x00\n      dup1\n      dup3\n      add\n      0x00\n      swap1\n      sstore\n      0x01\n      dup3\n      add\n      0x00\n      swap1\n      sstore\n      0x02\n      dup3\n      add\n      0x00\n      swap1\n      sstore\n      0x03\n      dup3\n      add\n      exp(0x0100, 0x00)\n      dup2\n      sload\n      swap1\n      0xff\n      mul\n      not\n      and\n      swap1\n      sstore\n      pop\n      pop\n      swap1\n      sstore\n        /* \"ServiceChain.sol\":3584:4156  function denyHours(address waiter,uint index) public{... */\n      pop\n      pop\n      jump\t// out\n        /* \"ServiceChain.sol\":1636:1669  Transaction[] public transactions */\n    tag_56:\n      0x00\n      dup2\n      dup2\n      sload\n      dup2\n      lt\n      tag_161\n      jumpi\n      0x00\n      dup1\n      revert\n    tag_161:\n      swap1\n      0x00\n      mstore\n      keccak256(0x00, 0x20)\n      swap1\n      0x03\n      mul\n      add\n      0x00\n      swap2\n      pop\n      swap1\n      pop\n      dup1\n      0x00\n      add\n      0x00\n      swap1\n      sload\n      swap1\n      0x0100\n      exp\n      swap1\n      div\n      0xffffffffffffffffffffffffffffffffffffffff\n      and\n      swap1\n      dup1\n      0x01\n      add\n      sload\n      swap1\n      dup1\n      0x02\n      add\n      dup1\n      sload\n      tag_163\n      swap1\n      tag_164\n      jump\t// in\n    tag_163:\n      dup1\n      0x1f\n      add\n      0x20\n      dup1\n      swap2\n      div\n      mul\n      0x20\n      add\n      mload(0x40)\n      swap1\n      dup2\n      add\n      0x40\n      mstore\n      dup1\n      swap3\n      swap2\n      swap1\n      dup2\n      dup2\n      mstore\n      0x20\n      add\n      dup3\n      dup1\n      sload\n      tag_165\n      swap1\n      tag_164\n      jump\t// in\n    tag_165:\n      dup1\n      iszero\n      tag_166\n      jumpi\n      dup1\n      0x1f\n      lt\n      tag_167\n      jumpi\n      0x0100\n      dup1\n      dup4\n      sload\n      div\n      mul\n      dup4\n      mstore\n      swap2\n      0x20\n      add\n      swap2\n      jump(tag_166)\n    tag_167:\n      dup3\n      add\n      swap2\n      swap1\n      0x00\n      mstore\n      keccak256(0x00, 0x20)\n      swap1\n    tag_168:\n      dup2\n      sload\n      dup2\n      mstore\n      swap1\n      0x01\n      add\n      swap1\n      0x20\n      add\n      dup1\n      dup4\n      gt\n      tag_168\n      jumpi\n      dup3\n      swap1\n      sub\n      0x1f\n      and\n      dup3\n      add\n      swap2\n    tag_166:\n      pop\n      pop\n      pop\n      pop\n      pop\n      swap1\n      pop\n      dup4\n      jump\t// out\n        /* \"ServiceChain.sol\":4215:4332  function getHourLog(address waiter) public view returns(hourLog[] memory){... */\n    tag_63:\n        /* \"ServiceChain.sol\":4271:4287  hourLog[] memory */\n      0x60\n        /* \"ServiceChain.sol\":4306:4314  empHours */\n      0x01\n        /* \"ServiceChain.sol\":4306:4322  empHours[waiter] */\n      0x00\n        /* \"ServiceChain.sol\":4315:4321  waiter */\n      dup4\n        /* \"ServiceChain.sol\":4306:4322  empHours[waiter] */\n      0xffffffffffffffffffffffffffffffffffffffff\n      and\n      0xffffffffffffffffffffffffffffffffffffffff\n      and\n      dup2\n      mstore\n      0x20\n      add\n      swap1\n      dup2\n      mstore\n      0x20\n      add\n      0x00\n      keccak256\n        /* \"ServiceChain.sol\":4299:4322  return empHours[waiter] */\n      dup1\n      sload\n      dup1\n      0x20\n      mul\n      0x20\n      add\n      mload(0x40)\n      swap1\n      dup2\n      add\n      0x40\n      mstore\n      dup1\n      swap3\n      swap2\n      swap1\n      dup2\n      dup2\n      mstore\n      0x20\n      add\n      0x00\n      swap1\n    tag_170:\n      dup3\n      dup3\n      lt\n      iszero\n      tag_171\n      jumpi\n      dup4\n      dup3\n      swap1\n      0x00\n      mstore\n      keccak256(0x00, 0x20)\n      swap1\n      0x04\n      mul\n      add\n      mload(0x40)\n      dup1\n      0x80\n      add\n      0x40\n      mstore\n      swap1\n      dup2\n      0x00\n      dup3\n      add\n      sload\n      dup2\n      mstore\n      0x20\n      add\n      0x01\n      dup3\n      add\n      sload\n      dup2\n      mstore\n      0x20\n      add\n      0x02\n      dup3\n      add\n      sload\n      dup2\n      mstore\n      0x20\n      add\n      0x03\n      dup3\n      add\n      0x00\n      swap1\n      sload\n      swap1\n      0x0100\n      exp\n      swap1\n      div\n      0xff\n      and\n      iszero\n      iszero\n      iszero\n      iszero\n      dup2\n      mstore\n      pop\n      pop\n      dup2\n      mstore\n      0x20\n      add\n      swap1\n      0x01\n      add\n      swap1\n      jump(tag_170)\n    tag_171:\n      pop\n      pop\n      pop\n      pop\n      swap1\n      pop\n        /* \"ServiceChain.sol\":4215:4332  function getHourLog(address waiter) public view returns(hourLog[] memory){... */\n      swap2\n      swap1\n      pop\n      jump\t// out\n        /* \"ServiceChain.sol\":4354:4517  function sendRatings(address waiter,uint rating) public {... */\n    tag_69:\n        /* \"ServiceChain.sol\":4439:4440  0 */\n      0x00\n        /* \"ServiceChain.sol\":4429:4435  rating */\n      dup2\n        /* \"ServiceChain.sol\":4429:4440  rating >= 0 */\n      lt\n      iszero\n        /* \"ServiceChain.sol\":4429:4454  rating >= 0 && rating <=5 */\n      dup1\n      iszero\n      tag_174\n      jumpi\n      pop\n        /* \"ServiceChain.sol\":4453:4454  5 */\n      0x05\n        /* \"ServiceChain.sol\":4444:4450  rating */\n      dup2\n        /* \"ServiceChain.sol\":4444:4454  rating <=5 */\n      gt\n      iszero\n        /* \"ServiceChain.sol\":4429:4454  rating >= 0 && rating <=5 */\n    tag_174:\n        /* \"ServiceChain.sol\":4421:4455  require(rating >= 0 && rating <=5) */\n      tag_175\n      jumpi\n      0x00\n      dup1\n      revert\n    tag_175:\n        /* \"ServiceChain.sol\":4502:4508  rating */\n      dup1\n        /* \"ServiceChain.sol\":4495:4501  waiter */\n      dup3\n        /* \"ServiceChain.sol\":4471:4509  submitRating(msg.sender,waiter,rating) */\n      0xffffffffffffffffffffffffffffffffffffffff\n      and\n        /* \"ServiceChain.sol\":4484:4494  msg.sender */\n      caller\n        /* \"ServiceChain.sol\":4471:4509  submitRating(msg.sender,waiter,rating) */\n      0xffffffffffffffffffffffffffffffffffffffff\n      and\n      0x5435029ae8e53f5303b6dbda07be9beb09ae106923c28bf30dc3c46852588f04\n      mload(0x40)\n      mload(0x40)\n      dup1\n      swap2\n      sub\n      swap1\n      log4\n        /* \"ServiceChain.sol\":4354:4517  function sendRatings(address waiter,uint rating) public {... */\n      pop\n      pop\n      jump\t// out\n        /* \"ServiceChain.sol\":4813:4980  function sendTip(address payable recipient) public payable {... */\n    tag_73:\n        /* \"ServiceChain.sol\":4883:4892  recipient */\n      dup1\n        /* \"ServiceChain.sol\":4883:4901  recipient.transfer */\n      0xffffffffffffffffffffffffffffffffffffffff\n      and\n        /* \"ServiceChain.sol\":4883:4912  recipient.transfer(msg.value) */\n      0x08fc\n        /* \"ServiceChain.sol\":4902:4911  msg.value */\n      callvalue\n        /* \"ServiceChain.sol\":4883:4912  recipient.transfer(msg.value) */\n      swap1\n      dup2\n      iszero\n      mul\n      swap1\n      mload(0x40)\n      0x00\n      mload(0x40)\n      dup1\n      dup4\n      sub\n      dup2\n      dup6\n      dup9\n      dup9\n      call\n      swap4\n      pop\n      pop\n      pop\n      pop\n      iszero\n      dup1\n      iszero\n      tag_178\n      jumpi\n      returndatasize\n      0x00\n      dup1\n      returndatacopy\n      revert(0x00, returndatasize)\n    tag_178:\n      pop\n        /* \"ServiceChain.sol\":4950:4959  recipient */\n      dup1\n        /* \"ServiceChain.sol\":4928:4972  submitTip(msg.sender, recipient, msg.value ) */\n      0xffffffffffffffffffffffffffffffffffffffff\n      and\n        /* \"ServiceChain.sol\":4938:4948  msg.sender */\n      caller\n        /* \"ServiceChain.sol\":4928:4972  submitTip(msg.sender, recipient, msg.value ) */\n      0xffffffffffffffffffffffffffffffffffffffff\n      and\n      0xad011377252e79c9d574ced1048c7d7020d2abd44385576062139ed308dfe972\n        /* \"ServiceChain.sol\":4961:4970  msg.value */\n      callvalue\n        /* \"ServiceChain.sol\":4928:4972  submitTip(msg.sender, recipient, msg.value ) */\n      mload(0x40)\n      tag_179\n      swap2\n      swap1\n      tag_28\n      jump\t// in\n    tag_179:\n      mload(0x40)\n      dup1\n      swap2\n      sub\n      swap1\n      log3\n        /* \"ServiceChain.sol\":4813:4980  function sendTip(address payable recipient) public payable {... */\n      pop\n      jump\t// out\n        /* \"ServiceChain.sol\":2020:2164  function setHourlyRate(uint rate) public {... */\n    tag_77:\n        /* \"ServiceChain.sol\":2105:2120  block.timestamp */\n      timestamp\n        /* \"ServiceChain.sol\":2094:2104  msg.sender */\n      caller\n        /* \"ServiceChain.sol\":2077:2126  submitHourlyRate(msg.sender,block.timestamp,rate) */\n      0xffffffffffffffffffffffffffffffffffffffff\n      and\n      0x556a8d88a81363d3d82e0a4349b1c101aa81b26dd3f3c9e97a447b9f6cafbf53\n        /* \"ServiceChain.sol\":2121:2125  rate */\n      dup4\n        /* \"ServiceChain.sol\":2077:2126  submitHourlyRate(msg.sender,block.timestamp,rate) */\n      mload(0x40)\n      tag_181\n      swap2\n      swap1\n      tag_28\n      jump\t// in\n    tag_181:\n      mload(0x40)\n      dup1\n      swap2\n      sub\n      swap1\n      log3\n        /* \"ServiceChain.sol\":2150:2154  rate */\n      dup1\n        /* \"ServiceChain.sol\":2137:2147  hourlyRate */\n      0x04\n        /* \"ServiceChain.sol\":2137:2154  hourlyRate = rate */\n      dup2\n      swap1\n      sstore\n      pop\n        /* \"ServiceChain.sol\":2020:2164  function setHourlyRate(uint rate) public {... */\n      pop\n      jump\t// out\n        /* \"ServiceChain.sol\":1732:1749  string public org */\n    tag_80:\n      0x02\n      dup1\n      sload\n      tag_182\n      swap1\n      tag_164\n      jump\t// in\n    tag_182:\n      dup1\n      0x1f\n      add\n      0x20\n      dup1\n      swap2\n      div\n      mul\n      0x20\n      add\n      mload(0x40)\n      swap1\n      dup2\n      add\n      0x40\n      mstore\n      dup1\n      swap3\n      swap2\n      swap1\n      dup2\n      dup2\n      mstore\n      0x20\n      add\n      dup3\n      dup1\n      sload\n      tag_183\n      swap1\n      tag_164\n      jump\t// in\n    tag_183:\n      dup1\n      iszero\n      tag_184\n      jumpi\n      dup1\n      0x1f\n      lt\n      tag_185\n      jumpi\n      0x0100\n      dup1\n      dup4\n      sload\n      div\n      mul\n      dup4\n      mstore\n      swap2\n      0x20\n      add\n      swap2\n      jump(tag_184)\n    tag_185:\n      dup3\n      add\n      swap2\n      swap1\n      0x00\n      mstore\n      keccak256(0x00, 0x20)\n      swap1\n    tag_186:\n      dup2\n      sload\n      dup2\n      mstore\n      swap1\n      0x01\n      add\n      swap1\n      0x20\n      add\n      dup1\n      dup4\n      gt\n      tag_186\n      jumpi\n      dup3\n      swap1\n      sub\n      0x1f\n      and\n      dup3\n      add\n      swap2\n    tag_184:\n      pop\n      pop\n      pop\n      pop\n      pop\n      dup2\n      jump\t// out\n        /* \"ServiceChain.sol\":4560:4686  function deposit() public payable {... */\n    tag_84:\n        /* \"ServiceChain.sol\":4618:4628  msg.sender */\n      caller\n        /* \"ServiceChain.sol\":4610:4678  Deposit(msg.sender,msg.value, address(this).balance,block.timestamp) */\n      0xffffffffffffffffffffffffffffffffffffffff\n      and\n      0x36af321ec8d3c75236829c5317affd40ddb308863a1236d2d277a4025cccee1e\n        /* \"ServiceChain.sol\":4629:4638  msg.value */\n      callvalue\n        /* \"ServiceChain.sol\":4640:4661  address(this).balance */\n      selfbalance\n        /* \"ServiceChain.sol\":4662:4677  block.timestamp */\n      timestamp\n        /* \"ServiceChain.sol\":4610:4678  Deposit(msg.sender,msg.value, address(this).balance,block.timestamp) */\n      mload(0x40)\n      tag_188\n      swap4\n      swap3\n      swap2\n      swap1\n      tag_109\n      jump\t// in\n    tag_188:\n      mload(0x40)\n      dup1\n      swap2\n      sub\n      swap1\n      log2\n        /* \"ServiceChain.sol\":4560:4686  function deposit() public payable {... */\n      jump\t// out\n        /* \"#utility.yul\":88:205   */\n    tag_190:\n        /* \"#utility.yul\":197:198   */\n      0x00\n        /* \"#utility.yul\":194:195   */\n      dup1\n        /* \"#utility.yul\":187:199   */\n      revert\n        /* \"#utility.yul\":334:411   */\n    tag_192:\n        /* \"#utility.yul\":371:378   */\n      0x00\n        /* \"#utility.yul\":400:405   */\n      dup2\n        /* \"#utility.yul\":389:405   */\n      swap1\n      pop\n        /* \"#utility.yul\":334:411   */\n      swap2\n      swap1\n      pop\n      jump\t// out\n        /* \"#utility.yul\":417:539   */\n    tag_193:\n        /* \"#utility.yul\":490:514   */\n      tag_237\n        /* \"#utility.yul\":508:513   */\n      dup2\n        /* \"#utility.yul\":490:514   */\n      tag_192\n      jump\t// in\n    tag_237:\n        /* \"#utility.yul\":483:488   */\n      dup2\n        /* \"#utility.yul\":480:515   */\n      eq\n        /* \"#utility.yul\":470:533   */\n      tag_238\n      jumpi\n        /* \"#utility.yul\":529:530   */\n      0x00\n        /* \"#utility.yul\":526:527   */\n      dup1\n        /* \"#utility.yul\":519:531   */\n      revert\n        /* \"#utility.yul\":470:533   */\n    tag_238:\n        /* \"#utility.yul\":417:539   */\n      pop\n      jump\t// out\n        /* \"#utility.yul\":545:684   */\n    tag_194:\n        /* \"#utility.yul\":591:596   */\n      0x00\n        /* \"#utility.yul\":629:635   */\n      dup2\n        /* \"#utility.yul\":616:636   */\n      calldataload\n        /* \"#utility.yul\":607:636   */\n      swap1\n      pop\n        /* \"#utility.yul\":645:678   */\n      tag_240\n        /* \"#utility.yul\":672:677   */\n      dup2\n        /* \"#utility.yul\":645:678   */\n      tag_193\n      jump\t// in\n    tag_240:\n        /* \"#utility.yul\":545:684   */\n      swap3\n      swap2\n      pop\n      pop\n      jump\t// out\n        /* \"#utility.yul\":690:1019   */\n    tag_22:\n        /* \"#utility.yul\":749:755   */\n      0x00\n        /* \"#utility.yul\":798:800   */\n      0x20\n        /* \"#utility.yul\":786:795   */\n      dup3\n        /* \"#utility.yul\":777:784   */\n      dup5\n        /* \"#utility.yul\":773:796   */\n      sub\n        /* \"#utility.yul\":769:801   */\n      slt\n        /* \"#utility.yul\":766:885   */\n      iszero\n      tag_242\n      jumpi\n        /* \"#utility.yul\":804:883   */\n      tag_243\n      tag_190\n      jump\t// in\n    tag_243:\n        /* \"#utility.yul\":766:885   */\n    tag_242:\n        /* \"#utility.yul\":924:925   */\n      0x00\n        /* \"#utility.yul\":949:1002   */\n      tag_244\n        /* \"#utility.yul\":994:1001   */\n      dup5\n        /* \"#utility.yul\":985:991   */\n      dup3\n        /* \"#utility.yul\":974:983   */\n      dup6\n        /* \"#utility.yul\":970:992   */\n      add\n        /* \"#utility.yul\":949:1002   */\n      tag_194\n      jump\t// in\n    tag_244:\n        /* \"#utility.yul\":939:1002   */\n      swap2\n      pop\n        /* \"#utility.yul\":895:1012   */\n      pop\n        /* \"#utility.yul\":690:1019   */\n      swap3\n      swap2\n      pop\n      pop\n      jump\t// out\n        /* \"#utility.yul\":1025:1143   */\n    tag_195:\n        /* \"#utility.yul\":1112:1136   */\n      tag_246\n        /* \"#utility.yul\":1130:1135   */\n      dup2\n        /* \"#utility.yul\":1112:1136   */\n      tag_192\n      jump\t// in\n    tag_246:\n        /* \"#utility.yul\":1107:1110   */\n      dup3\n        /* \"#utility.yul\":1100:1137   */\n      mstore\n        /* \"#utility.yul\":1025:1143   */\n      pop\n      pop\n      jump\t// out\n        /* \"#utility.yul\":1149:1371   */\n    tag_28:\n        /* \"#utility.yul\":1242:1246   */\n      0x00\n        /* \"#utility.yul\":1280:1282   */\n      0x20\n        /* \"#utility.yul\":1269:1278   */\n      dup3\n        /* \"#utility.yul\":1265:1283   */\n      add\n        /* \"#utility.yul\":1257:1283   */\n      swap1\n      pop\n        /* \"#utility.yul\":1293:1364   */\n      tag_248\n        /* \"#utility.yul\":1361:1362   */\n      0x00\n        /* \"#utility.yul\":1350:1359   */\n      dup4\n        /* \"#utility.yul\":1346:1363   */\n      add\n        /* \"#utility.yul\":1337:1343   */\n      dup5\n        /* \"#utility.yul\":1293:1364   */\n      tag_195\n      jump\t// in\n    tag_248:\n        /* \"#utility.yul\":1149:1371   */\n      swap3\n      swap2\n      pop\n      pop\n      jump\t// out\n        /* \"#utility.yul\":1377:1503   */\n    tag_196:\n        /* \"#utility.yul\":1414:1421   */\n      0x00\n        /* \"#utility.yul\":1454:1496   */\n      0xffffffffffffffffffffffffffffffffffffffff\n        /* \"#utility.yul\":1447:1452   */\n      dup3\n        /* \"#utility.yul\":1443:1497   */\n      and\n        /* \"#utility.yul\":1432:1497   */\n      swap1\n      pop\n        /* \"#utility.yul\":1377:1503   */\n      swap2\n      swap1\n      pop\n      jump\t// out\n        /* \"#utility.yul\":1509:1605   */\n    tag_197:\n        /* \"#utility.yul\":1546:1553   */\n      0x00\n        /* \"#utility.yul\":1575:1599   */\n      tag_251\n        /* \"#utility.yul\":1593:1598   */\n      dup3\n        /* \"#utility.yul\":1575:1599   */\n      tag_196\n      jump\t// in\n    tag_251:\n        /* \"#utility.yul\":1564:1599   */\n      swap1\n      pop\n        /* \"#utility.yul\":1509:1605   */\n      swap2\n      swap1\n      pop\n      jump\t// out\n        /* \"#utility.yul\":1611:1733   */\n    tag_198:\n        /* \"#utility.yul\":1684:1708   */\n      tag_253\n        /* \"#utility.yul\":1702:1707   */\n      dup2\n        /* \"#utility.yul\":1684:1708   */\n      tag_197\n      jump\t// in\n    tag_253:\n        /* \"#utility.yul\":1677:1682   */\n      dup2\n        /* \"#utility.yul\":1674:1709   */\n      eq\n        /* \"#utility.yul\":1664:1727   */\n      tag_254\n      jumpi\n        /* \"#utility.yul\":1723:1724   */\n      0x00\n        /* \"#utility.yul\":1720:1721   */\n      dup1\n        /* \"#utility.yul\":1713:1725   */\n      revert\n        /* \"#utility.yul\":1664:1727   */\n    tag_254:\n        /* \"#utility.yul\":1611:1733   */\n      pop\n      jump\t// out\n        /* \"#utility.yul\":1739:1878   */\n    tag_199:\n        /* \"#utility.yul\":1785:1790   */\n      0x00\n        /* \"#utility.yul\":1823:1829   */\n      dup2\n        /* \"#utility.yul\":1810:1830   */\n      calldataload\n        /* \"#utility.yul\":1801:1830   */\n      swap1\n      pop\n        /* \"#utility.yul\":1839:1872   */\n      tag_256\n        /* \"#utility.yul\":1866:1871   */\n      dup2\n        /* \"#utility.yul\":1839:1872   */\n      tag_198\n      jump\t// in\n    tag_256:\n        /* \"#utility.yul\":1739:1878   */\n      swap3\n      swap2\n      pop\n      pop\n      jump\t// out\n        /* \"#utility.yul\":1884:2358   */\n    tag_32:\n        /* \"#utility.yul\":1952:1958   */\n      0x00\n        /* \"#utility.yul\":1960:1966   */\n      dup1\n        /* \"#utility.yul\":2009:2011   */\n      0x40\n        /* \"#utility.yul\":1997:2006   */\n      dup4\n        /* \"#utility.yul\":1988:1995   */\n      dup6\n        /* \"#utility.yul\":1984:2007   */\n      sub\n        /* \"#utility.yul\":1980:2012   */\n      slt\n        /* \"#utility.yul\":1977:2096   */\n      iszero\n      tag_258\n      jumpi\n        /* \"#utility.yul\":2015:2094   */\n      tag_259\n      tag_190\n      jump\t// in\n    tag_259:\n        /* \"#utility.yul\":1977:2096   */\n    tag_258:\n        /* \"#utility.yul\":2135:2136   */\n      0x00\n        /* \"#utility.yul\":2160:2213   */\n      tag_260\n        /* \"#utility.yul\":2205:2212   */\n      dup6\n        /* \"#utility.yul\":2196:2202   */\n      dup3\n        /* \"#utility.yul\":2185:2194   */\n      dup7\n        /* \"#utility.yul\":2181:2203   */\n      add\n        /* \"#utility.yul\":2160:2213   */\n      tag_199\n      jump\t// in\n    tag_260:\n        /* \"#utility.yul\":2150:2213   */\n      swap3\n      pop\n        /* \"#utility.yul\":2106:2223   */\n      pop\n        /* \"#utility.yul\":2262:2264   */\n      0x20\n        /* \"#utility.yul\":2288:2341   */\n      tag_261\n        /* \"#utility.yul\":2333:2340   */\n      dup6\n        /* \"#utility.yul\":2324:2330   */\n      dup3\n        /* \"#utility.yul\":2313:2322   */\n      dup7\n        /* \"#utility.yul\":2309:2331   */\n      add\n        /* \"#utility.yul\":2288:2341   */\n      tag_194\n      jump\t// in\n    tag_261:\n        /* \"#utility.yul\":2278:2341   */\n      swap2\n      pop\n        /* \"#utility.yul\":2233:2351   */\n      pop\n        /* \"#utility.yul\":1884:2358   */\n      swap3\n      pop\n      swap3\n      swap1\n      pop\n      jump\t// out\n        /* \"#utility.yul\":2364:2454   */\n    tag_200:\n        /* \"#utility.yul\":2398:2405   */\n      0x00\n        /* \"#utility.yul\":2441:2446   */\n      dup2\n        /* \"#utility.yul\":2434:2447   */\n      iszero\n        /* \"#utility.yul\":2427:2448   */\n      iszero\n        /* \"#utility.yul\":2416:2448   */\n      swap1\n      pop\n        /* \"#utility.yul\":2364:2454   */\n      swap2\n      swap1\n      pop\n      jump\t// out\n        /* \"#utility.yul\":2460:2569   */\n    tag_201:\n        /* \"#utility.yul\":2541:2562   */\n      tag_264\n        /* \"#utility.yul\":2556:2561   */\n      dup2\n        /* \"#utility.yul\":2541:2562   */\n      tag_200\n      jump\t// in\n    tag_264:\n        /* \"#utility.yul\":2536:2539   */\n      dup3\n        /* \"#utility.yul\":2529:2563   */\n      mstore\n        /* \"#utility.yul\":2460:2569   */\n      pop\n      pop\n      jump\t// out\n        /* \"#utility.yul\":2575:3116   */\n    tag_35:\n        /* \"#utility.yul\":2746:2750   */\n      0x00\n        /* \"#utility.yul\":2784:2787   */\n      0x80\n        /* \"#utility.yul\":2773:2782   */\n      dup3\n        /* \"#utility.yul\":2769:2788   */\n      add\n        /* \"#utility.yul\":2761:2788   */\n      swap1\n      pop\n        /* \"#utility.yul\":2798:2869   */\n      tag_266\n        /* \"#utility.yul\":2866:2867   */\n      0x00\n        /* \"#utility.yul\":2855:2864   */\n      dup4\n        /* \"#utility.yul\":2851:2868   */\n      add\n        /* \"#utility.yul\":2842:2848   */\n      dup8\n        /* \"#utility.yul\":2798:2869   */\n      tag_195\n      jump\t// in\n    tag_266:\n        /* \"#utility.yul\":2879:2951   */\n      tag_267\n        /* \"#utility.yul\":2947:2949   */\n      0x20\n        /* \"#utility.yul\":2936:2945   */\n      dup4\n        /* \"#utility.yul\":2932:2950   */\n      add\n        /* \"#utility.yul\":2923:2929   */\n      dup7\n        /* \"#utility.yul\":2879:2951   */\n      tag_195\n      jump\t// in\n    tag_267:\n        /* \"#utility.yul\":2961:3033   */\n      tag_268\n        /* \"#utility.yul\":3029:3031   */\n      0x40\n        /* \"#utility.yul\":3018:3027   */\n      dup4\n        /* \"#utility.yul\":3014:3032   */\n      add\n        /* \"#utility.yul\":3005:3011   */\n      dup6\n        /* \"#utility.yul\":2961:3033   */\n      tag_195\n      jump\t// in\n    tag_268:\n        /* \"#utility.yul\":3043:3109   */\n      tag_269\n        /* \"#utility.yul\":3105:3107   */\n      0x60\n        /* \"#utility.yul\":3094:3103   */\n      dup4\n        /* \"#utility.yul\":3090:3108   */\n      add\n        /* \"#utility.yul\":3081:3087   */\n      dup5\n        /* \"#utility.yul\":3043:3109   */\n      tag_201\n      jump\t// in\n    tag_269:\n        /* \"#utility.yul\":2575:3116   */\n      swap6\n      swap5\n      pop\n      pop\n      pop\n      pop\n      pop\n      jump\t// out\n        /* \"#utility.yul\":3122:3226   */\n    tag_202:\n        /* \"#utility.yul\":3167:3174   */\n      0x00\n        /* \"#utility.yul\":3196:3220   */\n      tag_271\n        /* \"#utility.yul\":3214:3219   */\n      dup3\n        /* \"#utility.yul\":3196:3220   */\n      tag_196\n      jump\t// in\n    tag_271:\n        /* \"#utility.yul\":3185:3220   */\n      swap1\n      pop\n        /* \"#utility.yul\":3122:3226   */\n      swap2\n      swap1\n      pop\n      jump\t// out\n        /* \"#utility.yul\":3232:3370   */\n    tag_203:\n        /* \"#utility.yul\":3313:3345   */\n      tag_273\n        /* \"#utility.yul\":3339:3344   */\n      dup2\n        /* \"#utility.yul\":3313:3345   */\n      tag_202\n      jump\t// in\n    tag_273:\n        /* \"#utility.yul\":3306:3311   */\n      dup2\n        /* \"#utility.yul\":3303:3346   */\n      eq\n        /* \"#utility.yul\":3293:3364   */\n      tag_274\n      jumpi\n        /* \"#utility.yul\":3360:3361   */\n      0x00\n        /* \"#utility.yul\":3357:3358   */\n      dup1\n        /* \"#utility.yul\":3350:3362   */\n      revert\n        /* \"#utility.yul\":3293:3364   */\n    tag_274:\n        /* \"#utility.yul\":3232:3370   */\n      pop\n      jump\t// out\n        /* \"#utility.yul\":3376:3531   */\n    tag_204:\n        /* \"#utility.yul\":3430:3435   */\n      0x00\n        /* \"#utility.yul\":3468:3474   */\n      dup2\n        /* \"#utility.yul\":3455:3475   */\n      calldataload\n        /* \"#utility.yul\":3446:3475   */\n      swap1\n      pop\n        /* \"#utility.yul\":3484:3525   */\n      tag_276\n        /* \"#utility.yul\":3519:3524   */\n      dup2\n        /* \"#utility.yul\":3484:3525   */\n      tag_203\n      jump\t// in\n    tag_276:\n        /* \"#utility.yul\":3376:3531   */\n      swap3\n      swap2\n      pop\n      pop\n      jump\t// out\n        /* \"#utility.yul\":3537:4027   */\n    tag_38:\n        /* \"#utility.yul\":3613:3619   */\n      0x00\n        /* \"#utility.yul\":3621:3627   */\n      dup1\n        /* \"#utility.yul\":3670:3672   */\n      0x40\n        /* \"#utility.yul\":3658:3667   */\n      dup4\n        /* \"#utility.yul\":3649:3656   */\n      dup6\n        /* \"#utility.yul\":3645:3668   */\n      sub\n        /* \"#utility.yul\":3641:3673   */\n      slt\n        /* \"#utility.yul\":3638:3757   */\n      iszero\n      tag_278\n      jumpi\n        /* \"#utility.yul\":3676:3755   */\n      tag_279\n      tag_190\n      jump\t// in\n    tag_279:\n        /* \"#utility.yul\":3638:3757   */\n    tag_278:\n        /* \"#utility.yul\":3796:3797   */\n      0x00\n        /* \"#utility.yul\":3821:3882   */\n      tag_280\n        /* \"#utility.yul\":3874:3881   */\n      dup6\n        /* \"#utility.yul\":3865:3871   */\n      dup3\n        /* \"#utility.yul\":3854:3863   */\n      dup7\n        /* \"#utility.yul\":3850:3872   */\n      add\n        /* \"#utility.yul\":3821:3882   */\n      tag_204\n      jump\t// in\n    tag_280:\n        /* \"#utility.yul\":3811:3882   */\n      swap3\n      pop\n        /* \"#utility.yul\":3767:3892   */\n      pop\n        /* \"#utility.yul\":3931:3933   */\n      0x20\n        /* \"#utility.yul\":3957:4010   */\n      tag_281\n        /* \"#utility.yul\":4002:4009   */\n      dup6\n        /* \"#utility.yul\":3993:3999   */\n      dup3\n        /* \"#utility.yul\":3982:3991   */\n      dup7\n        /* \"#utility.yul\":3978:4000   */\n      add\n        /* \"#utility.yul\":3957:4010   */\n      tag_194\n      jump\t// in\n    tag_281:\n        /* \"#utility.yul\":3947:4010   */\n      swap2\n      pop\n        /* \"#utility.yul\":3902:4020   */\n      pop\n        /* \"#utility.yul\":3537:4027   */\n      swap3\n      pop\n      swap3\n      swap1\n      pop\n      jump\t// out\n        /* \"#utility.yul\":4033:4151   */\n    tag_205:\n        /* \"#utility.yul\":4120:4144   */\n      tag_283\n        /* \"#utility.yul\":4138:4143   */\n      dup2\n        /* \"#utility.yul\":4120:4144   */\n      tag_197\n      jump\t// in\n    tag_283:\n        /* \"#utility.yul\":4115:4118   */\n      dup3\n        /* \"#utility.yul\":4108:4145   */\n      mstore\n        /* \"#utility.yul\":4033:4151   */\n      pop\n      pop\n      jump\t// out\n        /* \"#utility.yul\":4157:4379   */\n    tag_44:\n        /* \"#utility.yul\":4250:4254   */\n      0x00\n        /* \"#utility.yul\":4288:4290   */\n      0x20\n        /* \"#utility.yul\":4277:4286   */\n      dup3\n        /* \"#utility.yul\":4273:4291   */\n      add\n        /* \"#utility.yul\":4265:4291   */\n      swap1\n      pop\n        /* \"#utility.yul\":4301:4372   */\n      tag_285\n        /* \"#utility.yul\":4369:4370   */\n      0x00\n        /* \"#utility.yul\":4358:4367   */\n      dup4\n        /* \"#utility.yul\":4354:4371   */\n      add\n        /* \"#utility.yul\":4345:4351   */\n      dup5\n        /* \"#utility.yul\":4301:4372   */\n      tag_205\n      jump\t// in\n    tag_285:\n        /* \"#utility.yul\":4157:4379   */\n      swap3\n      swap2\n      pop\n      pop\n      jump\t// out\n        /* \"#utility.yul\":4385:4483   */\n    tag_206:\n        /* \"#utility.yul\":4436:4442   */\n      0x00\n        /* \"#utility.yul\":4470:4475   */\n      dup2\n        /* \"#utility.yul\":4464:4476   */\n      mload\n        /* \"#utility.yul\":4454:4476   */\n      swap1\n      pop\n        /* \"#utility.yul\":4385:4483   */\n      swap2\n      swap1\n      pop\n      jump\t// out\n        /* \"#utility.yul\":4489:4657   */\n    tag_207:\n        /* \"#utility.yul\":4572:4583   */\n      0x00\n        /* \"#utility.yul\":4606:4612   */\n      dup3\n        /* \"#utility.yul\":4601:4604   */\n      dup3\n        /* \"#utility.yul\":4594:4613   */\n      mstore\n        /* \"#utility.yul\":4646:4650   */\n      0x20\n        /* \"#utility.yul\":4641:4644   */\n      dup3\n        /* \"#utility.yul\":4637:4651   */\n      add\n        /* \"#utility.yul\":4622:4651   */\n      swap1\n      pop\n        /* \"#utility.yul\":4489:4657   */\n      swap3\n      swap2\n      pop\n      pop\n      jump\t// out\n        /* \"#utility.yul\":4663:4909   */\n    tag_208:\n        /* \"#utility.yul\":4744:4745   */\n      0x00\n        /* \"#utility.yul\":4754:4867   */\n    tag_289:\n        /* \"#utility.yul\":4768:4774   */\n      dup4\n        /* \"#utility.yul\":4765:4766   */\n      dup2\n        /* \"#utility.yul\":4762:4775   */\n      lt\n        /* \"#utility.yul\":4754:4867   */\n      iszero\n      tag_291\n      jumpi\n        /* \"#utility.yul\":4853:4854   */\n      dup1\n        /* \"#utility.yul\":4848:4851   */\n      dup3\n        /* \"#utility.yul\":4844:4855   */\n      add\n        /* \"#utility.yul\":4838:4856   */\n      mload\n        /* \"#utility.yul\":4834:4835   */\n      dup2\n        /* \"#utility.yul\":4829:4832   */\n      dup5\n        /* \"#utility.yul\":4825:4836   */\n      add\n        /* \"#utility.yul\":4818:4857   */\n      mstore\n        /* \"#utility.yul\":4790:4792   */\n      0x20\n        /* \"#utility.yul\":4787:4788   */\n      dup2\n        /* \"#utility.yul\":4783:4793   */\n      add\n        /* \"#utility.yul\":4778:4793   */\n      swap1\n      pop\n        /* \"#utility.yul\":4754:4867   */\n      jump(tag_289)\n    tag_291:\n        /* \"#utility.yul\":4901:4902   */\n      0x00\n        /* \"#utility.yul\":4892:4898   */\n      dup5\n        /* \"#utility.yul\":4887:4890   */\n      dup5\n        /* \"#utility.yul\":4883:4899   */\n      add\n        /* \"#utility.yul\":4876:4903   */\n      mstore\n        /* \"#utility.yul\":4725:4909   */\n      pop\n        /* \"#utility.yul\":4663:4909   */\n      pop\n      pop\n      pop\n      jump\t// out\n        /* \"#utility.yul\":4915:5017   */\n    tag_209:\n        /* \"#utility.yul\":4956:4962   */\n      0x00\n        /* \"#utility.yul\":5007:5009   */\n      0x1f\n        /* \"#utility.yul\":5003:5010   */\n      not\n        /* \"#utility.yul\":4998:5000   */\n      0x1f\n        /* \"#utility.yul\":4991:4996   */\n      dup4\n        /* \"#utility.yul\":4987:5001   */\n      add\n        /* \"#utility.yul\":4983:5011   */\n      and\n        /* \"#utility.yul\":4973:5011   */\n      swap1\n      pop\n        /* \"#utility.yul\":4915:5017   */\n      swap2\n      swap1\n      pop\n      jump\t// out\n        /* \"#utility.yul\":5023:5396   */\n    tag_210:\n        /* \"#utility.yul\":5109:5112   */\n      0x00\n        /* \"#utility.yul\":5137:5175   */\n      tag_294\n        /* \"#utility.yul\":5169:5174   */\n      dup3\n        /* \"#utility.yul\":5137:5175   */\n      tag_206\n      jump\t// in\n    tag_294:\n        /* \"#utility.yul\":5191:5261   */\n      tag_295\n        /* \"#utility.yul\":5254:5260   */\n      dup2\n        /* \"#utility.yul\":5249:5252   */\n      dup6\n        /* \"#utility.yul\":5191:5261   */\n      tag_207\n      jump\t// in\n    tag_295:\n        /* \"#utility.yul\":5184:5261   */\n      swap4\n      pop\n        /* \"#utility.yul\":5270:5335   */\n      tag_296\n        /* \"#utility.yul\":5328:5334   */\n      dup2\n        /* \"#utility.yul\":5323:5326   */\n      dup6\n        /* \"#utility.yul\":5316:5320   */\n      0x20\n        /* \"#utility.yul\":5309:5314   */\n      dup7\n        /* \"#utility.yul\":5305:5321   */\n      add\n        /* \"#utility.yul\":5270:5335   */\n      tag_208\n      jump\t// in\n    tag_296:\n        /* \"#utility.yul\":5360:5389   */\n      tag_297\n        /* \"#utility.yul\":5382:5388   */\n      dup2\n        /* \"#utility.yul\":5360:5389   */\n      tag_209\n      jump\t// in\n    tag_297:\n        /* \"#utility.yul\":5355:5358   */\n      dup5\n        /* \"#utility.yul\":5351:5390   */\n      add\n        /* \"#utility.yul\":5344:5390   */\n      swap2\n      pop\n        /* \"#utility.yul\":5113:5396   */\n      pop\n        /* \"#utility.yul\":5023:5396   */\n      swap3\n      swap2\n      pop\n      pop\n      jump\t// out\n        /* \"#utility.yul\":5402:5931   */\n    tag_58:\n        /* \"#utility.yul\":5569:5573   */\n      0x00\n        /* \"#utility.yul\":5607:5609   */\n      0x60\n        /* \"#utility.yul\":5596:5605   */\n      dup3\n        /* \"#utility.yul\":5592:5610   */\n      add\n        /* \"#utility.yul\":5584:5610   */\n      swap1\n      pop\n        /* \"#utility.yul\":5620:5691   */\n      tag_299\n        /* \"#utility.yul\":5688:5689   */\n      0x00\n        /* \"#utility.yul\":5677:5686   */\n      dup4\n        /* \"#utility.yul\":5673:5690   */\n      add\n        /* \"#utility.yul\":5664:5670   */\n      dup7\n        /* \"#utility.yul\":5620:5691   */\n      tag_205\n      jump\t// in\n    tag_299:\n        /* \"#utility.yul\":5701:5773   */\n      tag_300\n        /* \"#utility.yul\":5769:5771   */\n      0x20\n        /* \"#utility.yul\":5758:5767   */\n      dup4\n        /* \"#utility.yul\":5754:5772   */\n      add\n        /* \"#utility.yul\":5745:5751   */\n      dup6\n        /* \"#utility.yul\":5701:5773   */\n      tag_195\n      jump\t// in\n    tag_300:\n        /* \"#utility.yul\":5820:5829   */\n      dup2\n        /* \"#utility.yul\":5814:5818   */\n      dup2\n        /* \"#utility.yul\":5810:5830   */\n      sub\n        /* \"#utility.yul\":5805:5807   */\n      0x40\n        /* \"#utility.yul\":5794:5803   */\n      dup4\n        /* \"#utility.yul\":5790:5808   */\n      add\n        /* \"#utility.yul\":5783:5831   */\n      mstore\n        /* \"#utility.yul\":5848:5924   */\n      tag_301\n        /* \"#utility.yul\":5919:5923   */\n      dup2\n        /* \"#utility.yul\":5910:5916   */\n      dup5\n        /* \"#utility.yul\":5848:5924   */\n      tag_210\n      jump\t// in\n    tag_301:\n        /* \"#utility.yul\":5840:5924   */\n      swap1\n      pop\n        /* \"#utility.yul\":5402:5931   */\n      swap5\n      swap4\n      pop\n      pop\n      pop\n      pop\n      jump\t// out\n        /* \"#utility.yul\":5937:6266   */\n    tag_62:\n        /* \"#utility.yul\":5996:6002   */\n      0x00\n        /* \"#utility.yul\":6045:6047   */\n      0x20\n        /* \"#utility.yul\":6033:6042   */\n      dup3\n        /* \"#utility.yul\":6024:6031   */\n      dup5\n        /* \"#utility.yul\":6020:6043   */\n      sub\n        /* \"#utility.yul\":6016:6048   */\n      slt\n        /* \"#utility.yul\":6013:6132   */\n      iszero\n      tag_303\n      jumpi\n        /* \"#utility.yul\":6051:6130   */\n      tag_304\n      tag_190\n      jump\t// in\n    tag_304:\n        /* \"#utility.yul\":6013:6132   */\n    tag_303:\n        /* \"#utility.yul\":6171:6172   */\n      0x00\n        /* \"#utility.yul\":6196:6249   */\n      tag_305\n        /* \"#utility.yul\":6241:6248   */\n      dup5\n        /* \"#utility.yul\":6232:6238   */\n      dup3\n        /* \"#utility.yul\":6221:6230   */\n      dup6\n        /* \"#utility.yul\":6217:6239   */\n      add\n        /* \"#utility.yul\":6196:6249   */\n      tag_199\n      jump\t// in\n    tag_305:\n        /* \"#utility.yul\":6186:6249   */\n      swap2\n      pop\n        /* \"#utility.yul\":6142:6259   */\n      pop\n        /* \"#utility.yul\":5937:6266   */\n      swap3\n      swap2\n      pop\n      pop\n      jump\t// out\n        /* \"#utility.yul\":6272:6410   */\n    tag_211:\n        /* \"#utility.yul\":6363:6369   */\n      0x00\n        /* \"#utility.yul\":6397:6402   */\n      dup2\n        /* \"#utility.yul\":6391:6403   */\n      mload\n        /* \"#utility.yul\":6381:6403   */\n      swap1\n      pop\n        /* \"#utility.yul\":6272:6410   */\n      swap2\n      swap1\n      pop\n      jump\t// out\n        /* \"#utility.yul\":6416:6624   */\n    tag_212:\n        /* \"#utility.yul\":6539:6550   */\n      0x00\n        /* \"#utility.yul\":6573:6579   */\n      dup3\n        /* \"#utility.yul\":6568:6571   */\n      dup3\n        /* \"#utility.yul\":6561:6580   */\n      mstore\n        /* \"#utility.yul\":6613:6617   */\n      0x20\n        /* \"#utility.yul\":6608:6611   */\n      dup3\n        /* \"#utility.yul\":6604:6618   */\n      add\n        /* \"#utility.yul\":6589:6618   */\n      swap1\n      pop\n        /* \"#utility.yul\":6416:6624   */\n      swap3\n      swap2\n      pop\n      pop\n      jump\t// out\n        /* \"#utility.yul\":6630:6786   */\n    tag_213:\n        /* \"#utility.yul\":6721:6725   */\n      0x00\n        /* \"#utility.yul\":6744:6747   */\n      dup2\n        /* \"#utility.yul\":6736:6747   */\n      swap1\n      pop\n        /* \"#utility.yul\":6774:6778   */\n      0x20\n        /* \"#utility.yul\":6769:6772   */\n      dup3\n        /* \"#utility.yul\":6765:6779   */\n      add\n        /* \"#utility.yul\":6757:6779   */\n      swap1\n      pop\n        /* \"#utility.yul\":6630:6786   */\n      swap2\n      swap1\n      pop\n      jump\t// out\n        /* \"#utility.yul\":6792:6900   */\n    tag_214:\n        /* \"#utility.yul\":6869:6893   */\n      tag_310\n        /* \"#utility.yul\":6887:6892   */\n      dup2\n        /* \"#utility.yul\":6869:6893   */\n      tag_192\n      jump\t// in\n    tag_310:\n        /* \"#utility.yul\":6864:6867   */\n      dup3\n        /* \"#utility.yul\":6857:6894   */\n      mstore\n        /* \"#utility.yul\":6792:6900   */\n      pop\n      pop\n      jump\t// out\n        /* \"#utility.yul\":6906:7005   */\n    tag_215:\n        /* \"#utility.yul\":6977:6998   */\n      tag_312\n        /* \"#utility.yul\":6992:6997   */\n      dup2\n        /* \"#utility.yul\":6977:6998   */\n      tag_200\n      jump\t// in\n    tag_312:\n        /* \"#utility.yul\":6972:6975   */\n      dup3\n        /* \"#utility.yul\":6965:6999   */\n      mstore\n        /* \"#utility.yul\":6906:7005   */\n      pop\n      pop\n      jump\t// out\n        /* \"#utility.yul\":7067:7923   */\n    tag_216:\n        /* \"#utility.yul\":7202:7206   */\n      0x80\n        /* \"#utility.yul\":7197:7200   */\n      dup3\n        /* \"#utility.yul\":7193:7207   */\n      add\n        /* \"#utility.yul\":7289:7293   */\n      0x00\n        /* \"#utility.yul\":7282:7287   */\n      dup3\n        /* \"#utility.yul\":7278:7294   */\n      add\n        /* \"#utility.yul\":7272:7295   */\n      mload\n        /* \"#utility.yul\":7308:7371   */\n      tag_314\n        /* \"#utility.yul\":7365:7369   */\n      0x00\n        /* \"#utility.yul\":7360:7363   */\n      dup6\n        /* \"#utility.yul\":7356:7370   */\n      add\n        /* \"#utility.yul\":7342:7354   */\n      dup3\n        /* \"#utility.yul\":7308:7371   */\n      tag_214\n      jump\t// in\n    tag_314:\n        /* \"#utility.yul\":7217:7381   */\n      pop\n        /* \"#utility.yul\":7463:7467   */\n      0x20\n        /* \"#utility.yul\":7456:7461   */\n      dup3\n        /* \"#utility.yul\":7452:7468   */\n      add\n        /* \"#utility.yul\":7446:7469   */\n      mload\n        /* \"#utility.yul\":7482:7545   */\n      tag_315\n        /* \"#utility.yul\":7539:7543   */\n      0x20\n        /* \"#utility.yul\":7534:7537   */\n      dup6\n        /* \"#utility.yul\":7530:7544   */\n      add\n        /* \"#utility.yul\":7516:7528   */\n      dup3\n        /* \"#utility.yul\":7482:7545   */\n      tag_214\n      jump\t// in\n    tag_315:\n        /* \"#utility.yul\":7391:7555   */\n      pop\n        /* \"#utility.yul\":7650:7654   */\n      0x40\n        /* \"#utility.yul\":7643:7648   */\n      dup3\n        /* \"#utility.yul\":7639:7655   */\n      add\n        /* \"#utility.yul\":7633:7656   */\n      mload\n        /* \"#utility.yul\":7669:7732   */\n      tag_316\n        /* \"#utility.yul\":7726:7730   */\n      0x40\n        /* \"#utility.yul\":7721:7724   */\n      dup6\n        /* \"#utility.yul\":7717:7731   */\n      add\n        /* \"#utility.yul\":7703:7715   */\n      dup3\n        /* \"#utility.yul\":7669:7732   */\n      tag_214\n      jump\t// in\n    tag_316:\n        /* \"#utility.yul\":7565:7742   */\n      pop\n        /* \"#utility.yul\":7830:7834   */\n      0x60\n        /* \"#utility.yul\":7823:7828   */\n      dup3\n        /* \"#utility.yul\":7819:7835   */\n      add\n        /* \"#utility.yul\":7813:7836   */\n      mload\n        /* \"#utility.yul\":7849:7906   */\n      tag_317\n        /* \"#utility.yul\":7900:7904   */\n      0x60\n        /* \"#utility.yul\":7895:7898   */\n      dup6\n        /* \"#utility.yul\":7891:7905   */\n      add\n        /* \"#utility.yul\":7877:7889   */\n      dup3\n        /* \"#utility.yul\":7849:7906   */\n      tag_215\n      jump\t// in\n    tag_317:\n        /* \"#utility.yul\":7752:7916   */\n      pop\n        /* \"#utility.yul\":7171:7923   */\n      pop\n        /* \"#utility.yul\":7067:7923   */\n      pop\n      pop\n      jump\t// out\n        /* \"#utility.yul\":7929:8204   */\n    tag_217:\n        /* \"#utility.yul\":8046:8056   */\n      0x00\n        /* \"#utility.yul\":8067:8161   */\n      tag_319\n        /* \"#utility.yul\":8157:8160   */\n      dup4\n        /* \"#utility.yul\":8149:8155   */\n      dup4\n        /* \"#utility.yul\":8067:8161   */\n      tag_216\n      jump\t// in\n    tag_319:\n        /* \"#utility.yul\":8193:8197   */\n      0x80\n        /* \"#utility.yul\":8188:8191   */\n      dup4\n        /* \"#utility.yul\":8184:8198   */\n      add\n        /* \"#utility.yul\":8170:8198   */\n      swap1\n      pop\n        /* \"#utility.yul\":7929:8204   */\n      swap3\n      swap2\n      pop\n      pop\n      jump\t// out\n        /* \"#utility.yul\":8210:8347   */\n    tag_218:\n        /* \"#utility.yul\":8304:8308   */\n      0x00\n        /* \"#utility.yul\":8336:8340   */\n      0x20\n        /* \"#utility.yul\":8331:8334   */\n      dup3\n        /* \"#utility.yul\":8327:8341   */\n      add\n        /* \"#utility.yul\":8319:8341   */\n      swap1\n      pop\n        /* \"#utility.yul\":8210:8347   */\n      swap2\n      swap1\n      pop\n      jump\t// out\n        /* \"#utility.yul\":8413:9337   */\n    tag_219:\n        /* \"#utility.yul\":8580:8583   */\n      0x00\n        /* \"#utility.yul\":8609:8687   */\n      tag_322\n        /* \"#utility.yul\":8681:8686   */\n      dup3\n        /* \"#utility.yul\":8609:8687   */\n      tag_211\n      jump\t// in\n    tag_322:\n        /* \"#utility.yul\":8703:8813   */\n      tag_323\n        /* \"#utility.yul\":8806:8812   */\n      dup2\n        /* \"#utility.yul\":8801:8804   */\n      dup6\n        /* \"#utility.yul\":8703:8813   */\n      tag_212\n      jump\t// in\n    tag_323:\n        /* \"#utility.yul\":8696:8813   */\n      swap4\n      pop\n        /* \"#utility.yul\":8837:8917   */\n      tag_324\n        /* \"#utility.yul\":8911:8916   */\n      dup4\n        /* \"#utility.yul\":8837:8917   */\n      tag_213\n      jump\t// in\n    tag_324:\n        /* \"#utility.yul\":8940:8947   */\n      dup1\n        /* \"#utility.yul\":8971:8972   */\n      0x00\n        /* \"#utility.yul\":8956:9312   */\n    tag_325:\n        /* \"#utility.yul\":8981:8987   */\n      dup4\n        /* \"#utility.yul\":8978:8979   */\n      dup2\n        /* \"#utility.yul\":8975:8988   */\n      lt\n        /* \"#utility.yul\":8956:9312   */\n      iszero\n      tag_327\n      jumpi\n        /* \"#utility.yul\":9057:9063   */\n      dup2\n        /* \"#utility.yul\":9051:9064   */\n      mload\n        /* \"#utility.yul\":9084:9195   */\n      tag_328\n        /* \"#utility.yul\":9191:9194   */\n      dup9\n        /* \"#utility.yul\":9176:9189   */\n      dup3\n        /* \"#utility.yul\":9084:9195   */\n      tag_217\n      jump\t// in\n    tag_328:\n        /* \"#utility.yul\":9077:9195   */\n      swap8\n      pop\n        /* \"#utility.yul\":9218:9302   */\n      tag_329\n        /* \"#utility.yul\":9295:9301   */\n      dup4\n        /* \"#utility.yul\":9218:9302   */\n      tag_218\n      jump\t// in\n    tag_329:\n        /* \"#utility.yul\":9208:9302   */\n      swap3\n      pop\n        /* \"#utility.yul\":9016:9312   */\n      pop\n        /* \"#utility.yul\":9003:9004   */\n      0x01\n        /* \"#utility.yul\":9000:9001   */\n      dup2\n        /* \"#utility.yul\":8996:9005   */\n      add\n        /* \"#utility.yul\":8991:9005   */\n      swap1\n      pop\n        /* \"#utility.yul\":8956:9312   */\n      jump(tag_325)\n    tag_327:\n        /* \"#utility.yul\":8960:8974   */\n      pop\n        /* \"#utility.yul\":9328:9331   */\n      dup6\n        /* \"#utility.yul\":9321:9331   */\n      swap4\n      pop\n        /* \"#utility.yul\":8585:9337   */\n      pop\n      pop\n      pop\n        /* \"#utility.yul\":8413:9337   */\n      swap3\n      swap2\n      pop\n      pop\n      jump\t// out\n        /* \"#utility.yul\":9343:9812   */\n    tag_65:\n        /* \"#utility.yul\":9534:9538   */\n      0x00\n        /* \"#utility.yul\":9572:9574   */\n      0x20\n        /* \"#utility.yul\":9561:9570   */\n      dup3\n        /* \"#utility.yul\":9557:9575   */\n      add\n        /* \"#utility.yul\":9549:9575   */\n      swap1\n      pop\n        /* \"#utility.yul\":9621:9630   */\n      dup2\n        /* \"#utility.yul\":9615:9619   */\n      dup2\n        /* \"#utility.yul\":9611:9631   */\n      sub\n        /* \"#utility.yul\":9607:9608   */\n      0x00\n        /* \"#utility.yul\":9596:9605   */\n      dup4\n        /* \"#utility.yul\":9592:9609   */\n      add\n        /* \"#utility.yul\":9585:9632   */\n      mstore\n        /* \"#utility.yul\":9649:9805   */\n      tag_331\n        /* \"#utility.yul\":9800:9804   */\n      dup2\n        /* \"#utility.yul\":9791:9797   */\n      dup5\n        /* \"#utility.yul\":9649:9805   */\n      tag_219\n      jump\t// in\n    tag_331:\n        /* \"#utility.yul\":9641:9805   */\n      swap1\n      pop\n        /* \"#utility.yul\":9343:9812   */\n      swap3\n      swap2\n      pop\n      pop\n      jump\t// out\n        /* \"#utility.yul\":9818:10163   */\n    tag_72:\n        /* \"#utility.yul\":9885:9891   */\n      0x00\n        /* \"#utility.yul\":9934:9936   */\n      0x20\n        /* \"#utility.yul\":9922:9931   */\n      dup3\n        /* \"#utility.yul\":9913:9920   */\n      dup5\n        /* \"#utility.yul\":9909:9932   */\n      sub\n        /* \"#utility.yul\":9905:9937   */\n      slt\n        /* \"#utility.yul\":9902:10021   */\n      iszero\n      tag_333\n      jumpi\n        /* \"#utility.yul\":9940:10019   */\n      tag_334\n      tag_190\n      jump\t// in\n    tag_334:\n        /* \"#utility.yul\":9902:10021   */\n    tag_333:\n        /* \"#utility.yul\":10060:10061   */\n      0x00\n        /* \"#utility.yul\":10085:10146   */\n      tag_335\n        /* \"#utility.yul\":10138:10145   */\n      dup5\n        /* \"#utility.yul\":10129:10135   */\n      dup3\n        /* \"#utility.yul\":10118:10127   */\n      dup6\n        /* \"#utility.yul\":10114:10136   */\n      add\n        /* \"#utility.yul\":10085:10146   */\n      tag_204\n      jump\t// in\n    tag_335:\n        /* \"#utility.yul\":10075:10146   */\n      swap2\n      pop\n        /* \"#utility.yul\":10031:10156   */\n      pop\n        /* \"#utility.yul\":9818:10163   */\n      swap3\n      swap2\n      pop\n      pop\n      jump\t// out\n        /* \"#utility.yul\":10169:10268   */\n    tag_220:\n        /* \"#utility.yul\":10221:10227   */\n      0x00\n        /* \"#utility.yul\":10255:10260   */\n      dup2\n        /* \"#utility.yul\":10249:10261   */\n      mload\n        /* \"#utility.yul\":10239:10261   */\n      swap1\n      pop\n        /* \"#utility.yul\":10169:10268   */\n      swap2\n      swap1\n      pop\n      jump\t// out\n        /* \"#utility.yul\":10274:10443   */\n    tag_221:\n        /* \"#utility.yul\":10358:10369   */\n      0x00\n        /* \"#utility.yul\":10392:10398   */\n      dup3\n        /* \"#utility.yul\":10387:10390   */\n      dup3\n        /* \"#utility.yul\":10380:10399   */\n      mstore\n        /* \"#utility.yul\":10432:10436   */\n      0x20\n        /* \"#utility.yul\":10427:10430   */\n      dup3\n        /* \"#utility.yul\":10423:10437   */\n      add\n        /* \"#utility.yul\":10408:10437   */\n      swap1\n      pop\n        /* \"#utility.yul\":10274:10443   */\n      swap3\n      swap2\n      pop\n      pop\n      jump\t// out\n        /* \"#utility.yul\":10449:10826   */\n    tag_222:\n        /* \"#utility.yul\":10537:10540   */\n      0x00\n        /* \"#utility.yul\":10565:10604   */\n      tag_339\n        /* \"#utility.yul\":10598:10603   */\n      dup3\n        /* \"#utility.yul\":10565:10604   */\n      tag_220\n      jump\t// in\n    tag_339:\n        /* \"#utility.yul\":10620:10691   */\n      tag_340\n        /* \"#utility.yul\":10684:10690   */\n      dup2\n        /* \"#utility.yul\":10679:10682   */\n      dup6\n        /* \"#utility.yul\":10620:10691   */\n      tag_221\n      jump\t// in\n    tag_340:\n        /* \"#utility.yul\":10613:10691   */\n      swap4\n      pop\n        /* \"#utility.yul\":10700:10765   */\n      tag_341\n        /* \"#utility.yul\":10758:10764   */\n      dup2\n        /* \"#utility.yul\":10753:10756   */\n      dup6\n        /* \"#utility.yul\":10746:10750   */\n      0x20\n        /* \"#utility.yul\":10739:10744   */\n      dup7\n        /* \"#utility.yul\":10735:10751   */\n      add\n        /* \"#utility.yul\":10700:10765   */\n      tag_208\n      jump\t// in\n    tag_341:\n        /* \"#utility.yul\":10790:10819   */\n      tag_342\n        /* \"#utility.yul\":10812:10818   */\n      dup2\n        /* \"#utility.yul\":10790:10819   */\n      tag_209\n      jump\t// in\n    tag_342:\n        /* \"#utility.yul\":10785:10788   */\n      dup5\n        /* \"#utility.yul\":10781:10820   */\n      add\n        /* \"#utility.yul\":10774:10820   */\n      swap2\n      pop\n        /* \"#utility.yul\":10541:10826   */\n      pop\n        /* \"#utility.yul\":10449:10826   */\n      swap3\n      swap2\n      pop\n      pop\n      jump\t// out\n        /* \"#utility.yul\":10832:11145   */\n    tag_82:\n        /* \"#utility.yul\":10945:10949   */\n      0x00\n        /* \"#utility.yul\":10983:10985   */\n      0x20\n        /* \"#utility.yul\":10972:10981   */\n      dup3\n        /* \"#utility.yul\":10968:10986   */\n      add\n        /* \"#utility.yul\":10960:10986   */\n      swap1\n      pop\n        /* \"#utility.yul\":11032:11041   */\n      dup2\n        /* \"#utility.yul\":11026:11030   */\n      dup2\n        /* \"#utility.yul\":11022:11042   */\n      sub\n        /* \"#utility.yul\":11018:11019   */\n      0x00\n        /* \"#utility.yul\":11007:11016   */\n      dup4\n        /* \"#utility.yul\":11003:11020   */\n      add\n        /* \"#utility.yul\":10996:11043   */\n      mstore\n        /* \"#utility.yul\":11060:11138   */\n      tag_344\n        /* \"#utility.yul\":11133:11137   */\n      dup2\n        /* \"#utility.yul\":11124:11130   */\n      dup5\n        /* \"#utility.yul\":11060:11138   */\n      tag_222\n      jump\t// in\n    tag_344:\n        /* \"#utility.yul\":11052:11138   */\n      swap1\n      pop\n        /* \"#utility.yul\":10832:11145   */\n      swap3\n      swap2\n      pop\n      pop\n      jump\t// out\n        /* \"#utility.yul\":11151:11331   */\n    tag_223:\n        /* \"#utility.yul\":11199:11276   */\n      0x4e487b7100000000000000000000000000000000000000000000000000000000\n        /* \"#utility.yul\":11196:11197   */\n      0x00\n        /* \"#utility.yul\":11189:11277   */\n      mstore\n        /* \"#utility.yul\":11296:11300   */\n      0x11\n        /* \"#utility.yul\":11293:11294   */\n      0x04\n        /* \"#utility.yul\":11286:11301   */\n      mstore\n        /* \"#utility.yul\":11320:11324   */\n      0x24\n        /* \"#utility.yul\":11317:11318   */\n      0x00\n        /* \"#utility.yul\":11310:11325   */\n      revert\n        /* \"#utility.yul\":11337:11747   */\n    tag_88:\n        /* \"#utility.yul\":11377:11384   */\n      0x00\n        /* \"#utility.yul\":11400:11420   */\n      tag_347\n        /* \"#utility.yul\":11418:11419   */\n      dup3\n        /* \"#utility.yul\":11400:11420   */\n      tag_192\n      jump\t// in\n    tag_347:\n        /* \"#utility.yul\":11395:11420   */\n      swap2\n      pop\n        /* \"#utility.yul\":11434:11454   */\n      tag_348\n        /* \"#utility.yul\":11452:11453   */\n      dup4\n        /* \"#utility.yul\":11434:11454   */\n      tag_192\n      jump\t// in\n    tag_348:\n        /* \"#utility.yul\":11429:11454   */\n      swap3\n      pop\n        /* \"#utility.yul\":11489:11490   */\n      dup3\n        /* \"#utility.yul\":11486:11487   */\n      dup3\n        /* \"#utility.yul\":11482:11491   */\n      mul\n        /* \"#utility.yul\":11511:11541   */\n      tag_349\n        /* \"#utility.yul\":11529:11540   */\n      dup2\n        /* \"#utility.yul\":11511:11541   */\n      tag_192\n      jump\t// in\n    tag_349:\n        /* \"#utility.yul\":11500:11541   */\n      swap2\n      pop\n        /* \"#utility.yul\":11690:11691   */\n      dup3\n        /* \"#utility.yul\":11681:11688   */\n      dup3\n        /* \"#utility.yul\":11677:11692   */\n      div\n        /* \"#utility.yul\":11674:11675   */\n      dup5\n        /* \"#utility.yul\":11671:11693   */\n      eq\n        /* \"#utility.yul\":11651:11652   */\n      dup4\n        /* \"#utility.yul\":11644:11653   */\n      iszero\n        /* \"#utility.yul\":11624:11707   */\n      or\n        /* \"#utility.yul\":11601:11740   */\n      tag_350\n      jumpi\n        /* \"#utility.yul\":11720:11738   */\n      tag_351\n      tag_223\n      jump\t// in\n    tag_351:\n        /* \"#utility.yul\":11601:11740   */\n    tag_350:\n        /* \"#utility.yul\":11385:11747   */\n      pop\n        /* \"#utility.yul\":11337:11747   */\n      swap3\n      swap2\n      pop\n      pop\n      jump\t// out\n        /* \"#utility.yul\":11753:11926   */\n    tag_224:\n        /* \"#utility.yul\":11893:11918   */\n      0x596f7520617265206e6f7420746865206d616e61676572000000000000000000\n        /* \"#utility.yul\":11889:11890   */\n      0x00\n        /* \"#utility.yul\":11881:11887   */\n      dup3\n        /* \"#utility.yul\":11877:11891   */\n      add\n        /* \"#utility.yul\":11870:11919   */\n      mstore\n        /* \"#utility.yul\":11753:11926   */\n      pop\n      jump\t// out\n        /* \"#utility.yul\":11932:12298   */\n    tag_225:\n        /* \"#utility.yul\":12074:12077   */\n      0x00\n        /* \"#utility.yul\":12095:12162   */\n      tag_354\n        /* \"#utility.yul\":12159:12161   */\n      0x17\n        /* \"#utility.yul\":12154:12157   */\n      dup4\n        /* \"#utility.yul\":12095:12162   */\n      tag_221\n      jump\t// in\n    tag_354:\n        /* \"#utility.yul\":12088:12162   */\n      swap2\n      pop\n        /* \"#utility.yul\":12171:12264   */\n      tag_355\n        /* \"#utility.yul\":12260:12263   */\n      dup3\n        /* \"#utility.yul\":12171:12264   */\n      tag_224\n      jump\t// in\n    tag_355:\n        /* \"#utility.yul\":12289:12291   */\n      0x20\n        /* \"#utility.yul\":12284:12287   */\n      dup3\n        /* \"#utility.yul\":12280:12292   */\n      add\n        /* \"#utility.yul\":12273:12292   */\n      swap1\n      pop\n        /* \"#utility.yul\":11932:12298   */\n      swap2\n      swap1\n      pop\n      jump\t// out\n        /* \"#utility.yul\":12304:12723   */\n    tag_96:\n        /* \"#utility.yul\":12470:12474   */\n      0x00\n        /* \"#utility.yul\":12508:12510   */\n      0x20\n        /* \"#utility.yul\":12497:12506   */\n      dup3\n        /* \"#utility.yul\":12493:12511   */\n      add\n        /* \"#utility.yul\":12485:12511   */\n      swap1\n      pop\n        /* \"#utility.yul\":12557:12566   */\n      dup2\n        /* \"#utility.yul\":12551:12555   */\n      dup2\n        /* \"#utility.yul\":12547:12567   */\n      sub\n        /* \"#utility.yul\":12543:12544   */\n      0x00\n        /* \"#utility.yul\":12532:12541   */\n      dup4\n        /* \"#utility.yul\":12528:12545   */\n      add\n        /* \"#utility.yul\":12521:12568   */\n      mstore\n        /* \"#utility.yul\":12585:12716   */\n      tag_357\n        /* \"#utility.yul\":12711:12715   */\n      dup2\n        /* \"#utility.yul\":12585:12716   */\n      tag_225\n      jump\t// in\n    tag_357:\n        /* \"#utility.yul\":12577:12716   */\n      swap1\n      pop\n        /* \"#utility.yul\":12304:12723   */\n      swap2\n      swap1\n      pop\n      jump\t// out\n        /* \"#utility.yul\":12729:12909   */\n    tag_99:\n        /* \"#utility.yul\":12777:12854   */\n      0x4e487b7100000000000000000000000000000000000000000000000000000000\n        /* \"#utility.yul\":12774:12775   */\n      0x00\n        /* \"#utility.yul\":12767:12855   */\n      mstore\n        /* \"#utility.yul\":12874:12878   */\n      0x32\n        /* \"#utility.yul\":12871:12872   */\n      0x04\n        /* \"#utility.yul\":12864:12879   */\n      mstore\n        /* \"#utility.yul\":12898:12902   */\n      0x24\n        /* \"#utility.yul\":12895:12896   */\n      0x00\n        /* \"#utility.yul\":12888:12903   */\n      revert\n        /* \"#utility.yul\":12915:13357   */\n    tag_109:\n        /* \"#utility.yul\":13064:13068   */\n      0x00\n        /* \"#utility.yul\":13102:13104   */\n      0x60\n        /* \"#utility.yul\":13091:13100   */\n      dup3\n        /* \"#utility.yul\":13087:13105   */\n      add\n        /* \"#utility.yul\":13079:13105   */\n      swap1\n      pop\n        /* \"#utility.yul\":13115:13186   */\n      tag_360\n        /* \"#utility.yul\":13183:13184   */\n      0x00\n        /* \"#utility.yul\":13172:13181   */\n      dup4\n        /* \"#utility.yul\":13168:13185   */\n      add\n        /* \"#utility.yul\":13159:13165   */\n      dup7\n        /* \"#utility.yul\":13115:13186   */\n      tag_195\n      jump\t// in\n    tag_360:\n        /* \"#utility.yul\":13196:13268   */\n      tag_361\n        /* \"#utility.yul\":13264:13266   */\n      0x20\n        /* \"#utility.yul\":13253:13262   */\n      dup4\n        /* \"#utility.yul\":13249:13267   */\n      add\n        /* \"#utility.yul\":13240:13246   */\n      dup6\n        /* \"#utility.yul\":13196:13268   */\n      tag_195\n      jump\t// in\n    tag_361:\n        /* \"#utility.yul\":13278:13350   */\n      tag_362\n        /* \"#utility.yul\":13346:13348   */\n      0x40\n        /* \"#utility.yul\":13335:13344   */\n      dup4\n        /* \"#utility.yul\":13331:13349   */\n      add\n        /* \"#utility.yul\":13322:13328   */\n      dup5\n        /* \"#utility.yul\":13278:13350   */\n      tag_195\n      jump\t// in\n    tag_362:\n        /* \"#utility.yul\":12915:13357   */\n      swap5\n      swap4\n      pop\n      pop\n      pop\n      pop\n      jump\t// out\n        /* \"#utility.yul\":13363:13557   */\n    tag_120:\n        /* \"#utility.yul\":13403:13407   */\n      0x00\n        /* \"#utility.yul\":13423:13443   */\n      tag_364\n        /* \"#utility.yul\":13441:13442   */\n      dup3\n        /* \"#utility.yul\":13423:13443   */\n      tag_192\n      jump\t// in\n    tag_364:\n        /* \"#utility.yul\":13418:13443   */\n      swap2\n      pop\n        /* \"#utility.yul\":13457:13477   */\n      tag_365\n        /* \"#utility.yul\":13475:13476   */\n      dup4\n        /* \"#utility.yul\":13457:13477   */\n      tag_192\n      jump\t// in\n    tag_365:\n        /* \"#utility.yul\":13452:13477   */\n      swap3\n      pop\n        /* \"#utility.yul\":13501:13502   */\n      dup3\n        /* \"#utility.yul\":13498:13499   */\n      dup3\n        /* \"#utility.yul\":13494:13503   */\n      sub\n        /* \"#utility.yul\":13486:13503   */\n      swap1\n      pop\n        /* \"#utility.yul\":13525:13526   */\n      dup2\n        /* \"#utility.yul\":13519:13523   */\n      dup2\n        /* \"#utility.yul\":13516:13527   */\n      gt\n        /* \"#utility.yul\":13513:13550   */\n      iszero\n      tag_366\n      jumpi\n        /* \"#utility.yul\":13530:13548   */\n      tag_367\n      tag_223\n      jump\t// in\n    tag_367:\n        /* \"#utility.yul\":13513:13550   */\n    tag_366:\n        /* \"#utility.yul\":13363:13557   */\n      swap3\n      swap2\n      pop\n      pop\n      jump\t// out\n        /* \"#utility.yul\":13563:13754   */\n    tag_122:\n        /* \"#utility.yul\":13603:13606   */\n      0x00\n        /* \"#utility.yul\":13622:13642   */\n      tag_369\n        /* \"#utility.yul\":13640:13641   */\n      dup3\n        /* \"#utility.yul\":13622:13642   */\n      tag_192\n      jump\t// in\n    tag_369:\n        /* \"#utility.yul\":13617:13642   */\n      swap2\n      pop\n        /* \"#utility.yul\":13656:13676   */\n      tag_370\n        /* \"#utility.yul\":13674:13675   */\n      dup4\n        /* \"#utility.yul\":13656:13676   */\n      tag_192\n      jump\t// in\n    tag_370:\n        /* \"#utility.yul\":13651:13676   */\n      swap3\n      pop\n        /* \"#utility.yul\":13699:13700   */\n      dup3\n        /* \"#utility.yul\":13696:13697   */\n      dup3\n        /* \"#utility.yul\":13692:13701   */\n      add\n        /* \"#utility.yul\":13685:13701   */\n      swap1\n      pop\n        /* \"#utility.yul\":13720:13723   */\n      dup1\n        /* \"#utility.yul\":13717:13718   */\n      dup3\n        /* \"#utility.yul\":13714:13724   */\n      gt\n        /* \"#utility.yul\":13711:13747   */\n      iszero\n      tag_371\n      jumpi\n        /* \"#utility.yul\":13727:13745   */\n      tag_372\n      tag_223\n      jump\t// in\n    tag_372:\n        /* \"#utility.yul\":13711:13747   */\n    tag_371:\n        /* \"#utility.yul\":13563:13754   */\n      swap3\n      swap2\n      pop\n      pop\n      jump\t// out\n        /* \"#utility.yul\":13760:13993   */\n    tag_130:\n        /* \"#utility.yul\":13799:13802   */\n      0x00\n        /* \"#utility.yul\":13822:13846   */\n      tag_374\n        /* \"#utility.yul\":13840:13845   */\n      dup3\n        /* \"#utility.yul\":13822:13846   */\n      tag_192\n      jump\t// in\n    tag_374:\n        /* \"#utility.yul\":13813:13846   */\n      swap2\n      pop\n        /* \"#utility.yul\":13868:13934   */\n      0xffffffffffffffffffffffffffffffffffffffffffffffffffffffffffffffff\n        /* \"#utility.yul\":13861:13866   */\n      dup3\n        /* \"#utility.yul\":13858:13935   */\n      sub\n        /* \"#utility.yul\":13855:13958   */\n      tag_375\n      jumpi\n        /* \"#utility.yul\":13938:13956   */\n      tag_376\n      tag_223\n      jump\t// in\n    tag_376:\n        /* \"#utility.yul\":13855:13958   */\n    tag_375:\n        /* \"#utility.yul\":13985:13986   */\n      0x01\n        /* \"#utility.yul\":13978:13983   */\n      dup3\n        /* \"#utility.yul\":13974:13987   */\n      add\n        /* \"#utility.yul\":13967:13987   */\n      swap1\n      pop\n        /* \"#utility.yul\":13760:13993   */\n      swap2\n      swap1\n      pop\n      jump\t// out\n        /* \"#utility.yul\":13999:14179   */\n    tag_133:\n        /* \"#utility.yul\":14047:14124   */\n      0x4e487b7100000000000000000000000000000000000000000000000000000000\n        /* \"#utility.yul\":14044:14045   */\n      0x00\n        /* \"#utility.yul\":14037:14125   */\n      mstore\n        /* \"#utility.yul\":14144:14148   */\n      0x31\n        /* \"#utility.yul\":14141:14142   */\n      0x04\n        /* \"#utility.yul\":14134:14149   */\n      mstore\n        /* \"#utility.yul\":14168:14172   */\n      0x24\n        /* \"#utility.yul\":14165:14166   */\n      0x00\n        /* \"#utility.yul\":14158:14173   */\n      revert\n        /* \"#utility.yul\":14185:14270   */\n    tag_226:\n        /* \"#utility.yul\":14230:14237   */\n      0x00\n        /* \"#utility.yul\":14259:14264   */\n      dup2\n        /* \"#utility.yul\":14248:14264   */\n      swap1\n      pop\n        /* \"#utility.yul\":14185:14270   */\n      swap2\n      swap1\n      pop\n      jump\t// out\n        /* \"#utility.yul\":14276:14336   */\n    tag_227:\n        /* \"#utility.yul\":14304:14307   */\n      0x00\n        /* \"#utility.yul\":14325:14330   */\n      dup2\n        /* \"#utility.yul\":14318:14330   */\n      swap1\n      pop\n        /* \"#utility.yul\":14276:14336   */\n      swap2\n      swap1\n      pop\n      jump\t// out\n        /* \"#utility.yul\":14342:14500   */\n    tag_228:\n        /* \"#utility.yul\":14400:14409   */\n      0x00\n        /* \"#utility.yul\":14433:14494   */\n      tag_381\n        /* \"#utility.yul\":14451:14493   */\n      tag_382\n        /* \"#utility.yul\":14460:14492   */\n      tag_383\n        /* \"#utility.yul\":14486:14491   */\n      dup5\n        /* \"#utility.yul\":14460:14492   */\n      tag_226\n      jump\t// in\n    tag_383:\n        /* \"#utility.yul\":14451:14493   */\n      tag_227\n      jump\t// in\n    tag_382:\n        /* \"#utility.yul\":14433:14494   */\n      tag_192\n      jump\t// in\n    tag_381:\n        /* \"#utility.yul\":14420:14494   */\n      swap1\n      pop\n        /* \"#utility.yul\":14342:14500   */\n      swap2\n      swap1\n      pop\n      jump\t// out\n        /* \"#utility.yul\":14506:14653   */\n    tag_229:\n        /* \"#utility.yul\":14601:14646   */\n      tag_385\n        /* \"#utility.yul\":14640:14645   */\n      dup2\n        /* \"#utility.yul\":14601:14646   */\n      tag_228\n      jump\t// in\n    tag_385:\n        /* \"#utility.yul\":14596:14599   */\n      dup3\n        /* \"#utility.yul\":14589:14647   */\n      mstore\n        /* \"#utility.yul\":14506:14653   */\n      pop\n      pop\n      jump\t// out\n        /* \"#utility.yul\":14659:15117   */\n    tag_145:\n        /* \"#utility.yul\":14816:14820   */\n      0x00\n        /* \"#utility.yul\":14854:14856   */\n      0x60\n        /* \"#utility.yul\":14843:14852   */\n      dup3\n        /* \"#utility.yul\":14839:14857   */\n      add\n        /* \"#utility.yul\":14831:14857   */\n      swap1\n      pop\n        /* \"#utility.yul\":14867:14938   */\n      tag_387\n        /* \"#utility.yul\":14935:14936   */\n      0x00\n        /* \"#utility.yul\":14924:14933   */\n      dup4\n        /* \"#utility.yul\":14920:14937   */\n      add\n        /* \"#utility.yul\":14911:14917   */\n      dup7\n        /* \"#utility.yul\":14867:14938   */\n      tag_195\n      jump\t// in\n    tag_387:\n        /* \"#utility.yul\":14948:15020   */\n      tag_388\n        /* \"#utility.yul\":15016:15018   */\n      0x20\n        /* \"#utility.yul\":15005:15014   */\n      dup4\n        /* \"#utility.yul\":15001:15019   */\n      add\n        /* \"#utility.yul\":14992:14998   */\n      dup6\n        /* \"#utility.yul\":14948:15020   */\n      tag_195\n      jump\t// in\n    tag_388:\n        /* \"#utility.yul\":15030:15110   */\n      tag_389\n        /* \"#utility.yul\":15106:15108   */\n      0x40\n        /* \"#utility.yul\":15095:15104   */\n      dup4\n        /* \"#utility.yul\":15091:15109   */\n      add\n        /* \"#utility.yul\":15082:15088   */\n      dup5\n        /* \"#utility.yul\":15030:15110   */\n      tag_229\n      jump\t// in\n    tag_389:\n        /* \"#utility.yul\":14659:15117   */\n      swap5\n      swap4\n      pop\n      pop\n      pop\n      pop\n      jump\t// out\n        /* \"#utility.yul\":15123:15303   */\n    tag_230:\n        /* \"#utility.yul\":15171:15248   */\n      0x4e487b7100000000000000000000000000000000000000000000000000000000\n        /* \"#utility.yul\":15168:15169   */\n      0x00\n        /* \"#utility.yul\":15161:15249   */\n      mstore\n        /* \"#utility.yul\":15268:15272   */\n      0x22\n        /* \"#utility.yul\":15265:15266   */\n      0x04\n        /* \"#utility.yul\":15258:15273   */\n      mstore\n        /* \"#utility.yul\":15292:15296   */\n      0x24\n        /* \"#utility.yul\":15289:15290   */\n      0x00\n        /* \"#utility.yul\":15282:15297   */\n      revert\n        /* \"#utility.yul\":15309:15629   */\n    tag_164:\n        /* \"#utility.yul\":15353:15359   */\n      0x00\n        /* \"#utility.yul\":15390:15391   */\n      0x02\n        /* \"#utility.yul\":15384:15388   */\n      dup3\n        /* \"#utility.yul\":15380:15392   */\n      div\n        /* \"#utility.yul\":15370:15392   */\n      swap1\n      pop\n        /* \"#utility.yul\":15437:15438   */\n      0x01\n        /* \"#utility.yul\":15431:15435   */\n      dup3\n        /* \"#utility.yul\":15427:15439   */\n      and\n        /* \"#utility.yul\":15458:15476   */\n      dup1\n        /* \"#utility.yul\":15448:15529   */\n      tag_392\n      jumpi\n        /* \"#utility.yul\":15514:15518   */\n      0x7f\n        /* \"#utility.yul\":15506:15512   */\n      dup3\n        /* \"#utility.yul\":15502:15519   */\n      and\n        /* \"#utility.yul\":15492:15519   */\n      swap2\n      pop\n        /* \"#utility.yul\":15448:15529   */\n    tag_392:\n        /* \"#utility.yul\":15576:15578   */\n      0x20\n        /* \"#utility.yul\":15568:15574   */\n      dup3\n        /* \"#utility.yul\":15565:15579   */\n      lt\n        /* \"#utility.yul\":15545:15563   */\n      dup2\n        /* \"#utility.yul\":15542:15580   */\n      sub\n        /* \"#utility.yul\":15539:15623   */\n      tag_393\n      jumpi\n        /* \"#utility.yul\":15595:15613   */\n      tag_394\n      tag_230\n      jump\t// in\n    tag_394:\n        /* \"#utility.yul\":15539:15623   */\n    tag_393:\n        /* \"#utility.yul\":15360:15629   */\n      pop\n        /* \"#utility.yul\":15309:15629   */\n      swap2\n      swap1\n      pop\n      jump\t// out\n\n    auxdata: 0xa264697066735822122050b46baa2dae5ce91878cd0dfc7e63c25d1e2299f5736bbc62d3b416741bdd3464736f6c63430008120033\n}\n","bytecode":{"linkReferences":{},"object":"60806040523480156200001157600080fd5b50604051620020bb380380620020bb8339818101604052810190620000379190620002cd565b82600360006101000a81548173ffffffffffffffffffffffffffffffffffffffff021916908373ffffffffffffffffffffffffffffffffffffffff160217905550816002908162000089919062000589565b508060048190555050505062000670565b6000604051905090565b600080fd5b600080fd5b600073ffffffffffffffffffffffffffffffffffffffff82169050919050565b6000620000db82620000ae565b9050919050565b620000ed81620000ce565b8114620000f957600080fd5b50565b6000815190506200010d81620000e2565b92915050565b600080fd5b600080fd5b6000601f19601f8301169050919050565b7f4e487b7100000000000000000000000000000000000000000000000000000000600052604160045260246000fd5b62000168826200011d565b810181811067ffffffffffffffff821117156200018a57620001896200012e565b5b80604052505050565b60006200019f6200009a565b9050620001ad82826200015d565b919050565b600067ffffffffffffffff821115620001d057620001cf6200012e565b5b620001db826200011d565b9050602081019050919050565b60005b8381101562000208578082015181840152602081019050620001eb565b60008484015250505050565b60006200022b6200022584620001b2565b62000193565b9050828152602081018484840111156200024a576200024962000118565b5b62000257848285620001e8565b509392505050565b600082601f83011262000277576200027662000113565b5b81516200028984826020860162000214565b91505092915050565b6000819050919050565b620002a78162000292565b8114620002b357600080fd5b50565b600081519050620002c7816200029c565b92915050565b600080600060608486031215620002e957620002e8620000a4565b5b6000620002f986828701620000fc565b935050602084015167ffffffffffffffff8111156200031d576200031c620000a9565b5b6200032b868287016200025f565b92505060406200033e86828701620002b6565b9150509250925092565b600081519050919050565b7f4e487b7100000000000000000000000000000000000000000000000000000000600052602260045260246000fd5b600060028204905060018216806200039b57607f821691505b602082108103620003b157620003b062000353565b5b50919050565b60008190508160005260206000209050919050565b60006020601f8301049050919050565b600082821b905092915050565b6000600883026200041b7fffffffffffffffffffffffffffffffffffffffffffffffffffffffffffffffff82620003dc565b620004278683620003dc565b95508019841693508086168417925050509392505050565b6000819050919050565b60006200046a620004646200045e8462000292565b6200043f565b62000292565b9050919050565b6000819050919050565b620004868362000449565b6200049e620004958262000471565b848454620003e9565b825550505050565b600090565b620004b5620004a6565b620004c28184846200047b565b505050565b5b81811015620004ea57620004de600082620004ab565b600181019050620004c8565b5050565b601f82111562000539576200050381620003b7565b6200050e84620003cc565b810160208510156200051e578190505b620005366200052d85620003cc565b830182620004c7565b50505b505050565b600082821c905092915050565b60006200055e600019846008026200053e565b1980831691505092915050565b60006200057983836200054b565b9150826002028217905092915050565b620005948262000348565b67ffffffffffffffff811115620005b057620005af6200012e565b5b620005bc825462000382565b620005c9828285620004ee565b600060209050601f831160018114620006015760008415620005ec578287015190505b620005f885826200056b565b86555062000668565b601f1984166200061186620003b7565b60005b828110156200063b5784890151825560018201915060208501945060208101905062000614565b868310156200065b578489015162000657601f8916826200054b565b8355505b6001600288020188555050505b505050505050565b611a3b80620006806000396000f3fe6080604052600436106100dd5760003560e01c80639ace38c21161007f578063a4e81be011610059578063a4e81be0146102b6578063c17c3521146102d2578063cc1e2cb0146102fb578063d0e30db014610326576100dd565b80639ace38c2146102115780639d5f65fc14610250578063a334b2951461028d576100dd565b8063474466c2116100bb578063474466c214610176578063481c6a751461019257806359a7b3fe146101bd5780636eaf9563146101e8576100dd565b80630fa8d54f146100e257806312065fe01461010b57806320ee128e14610136575b600080fd5b3480156100ee57600080fd5b5061010960048036038101906101049190611227565b610330565b005b34801561011757600080fd5b5061012061045b565b60405161012d9190611263565b60405180910390f35b34801561014257600080fd5b5061015d600480360381019061015891906112dc565b610463565b60405161016d9493929190611337565b60405180910390f35b610190600480360381019061018b91906113ba565b6104bd565b005b34801561019e57600080fd5b506101a76109c2565b6040516101b49190611409565b60405180910390f35b3480156101c957600080fd5b506101d26109e8565b6040516101df9190611263565b60405180910390f35b3480156101f457600080fd5b5061020f600480360381019061020a91906112dc565b6109ee565b005b34801561021d57600080fd5b5061023860048036038101906102339190611227565b610dcf565b604051610247939291906114b4565b60405180910390f35b34801561025c57600080fd5b50610277600480360381019061027291906114f2565b610eb1565b6040516102849190611641565b60405180910390f35b34801561029957600080fd5b506102b460048036038101906102af91906112dc565b610f88565b005b6102d060048036038101906102cb9190611663565b611002565b005b3480156102de57600080fd5b506102f960048036038101906102f49190611227565b6110b1565b005b34801561030757600080fd5b5061031061110a565b60405161031d91906116e5565b60405180910390f35b61032e611198565b005b6008600160003373ffffffffffffffffffffffffffffffffffffffff1673ffffffffffffffffffffffffffffffffffffffff168152602001908152602001600020805490501061037f57600080fd5b600160003373ffffffffffffffffffffffffffffffffffffffff1673ffffffffffffffffffffffffffffffffffffffff1681526020019081526020016000206040518060800160405280428152602001838152602001836004546103e39190611736565b815260200160001515815250908060018154018082558091505060019003906000526020600020906004020160009091909190915060008201518160000155602082015181600101556040820151816002015560608201518160030160006101000a81548160ff021916908315150217905550505050565b600047905090565b6001602052816000526040600020818154811061047f57600080fd5b9060005260206000209060040201600091509150508060000154908060010154908060020154908060030160009054906101000a900460ff16905084565b600360009054906101000a900473ffffffffffffffffffffffffffffffffffffffff1673ffffffffffffffffffffffffffffffffffffffff163373ffffffffffffffffffffffffffffffffffffffff161461054d576040517f08c379a0000000000000000000000000000000000000000000000000000000008152600401610544906117c4565b60405180910390fd5b600115158273ffffffffffffffffffffffffffffffffffffffff163373ffffffffffffffffffffffffffffffffffffffff167f62a0718d681b5a77ad80fbaf7e41ff461f77b69d49e3879cba8e045c85e2ac74600160008773ffffffffffffffffffffffffffffffffffffffff1673ffffffffffffffffffffffffffffffffffffffff16815260200190815260200160002085815481106105f1576105f06117e4565b5b906000526020600020906004020160000154600160008873ffffffffffffffffffffffffffffffffffffffff1673ffffffffffffffffffffffffffffffffffffffff1681526020019081526020016000208681548110610654576106536117e4565b5b906000526020600020906004020160010154600160008973ffffffffffffffffffffffffffffffffffffffff1673ffffffffffffffffffffffffffffffffffffffff16815260200190815260200160002087815481106106b7576106b66117e4565b5b9060005260206000209060040201600101546004546106d69190611736565b6040516106e593929190611813565b60405180910390a48173ffffffffffffffffffffffffffffffffffffffff166108fc600160008573ffffffffffffffffffffffffffffffffffffffff1673ffffffffffffffffffffffffffffffffffffffff1681526020019081526020016000208381548110610758576107576117e4565b5b9060005260206000209060040201600101546004546107779190611736565b9081150290604051600060405180830381858888f193505050501580156107a2573d6000803e3d6000fd5b5060008190505b60018060008573ffffffffffffffffffffffffffffffffffffffff1673ffffffffffffffffffffffffffffffffffffffff168152602001908152602001600020805490506107f7919061184a565b81101561092957600160008473ffffffffffffffffffffffffffffffffffffffff1673ffffffffffffffffffffffffffffffffffffffff16815260200190815260200160002060018261084a919061187e565b8154811061085b5761085a6117e4565b5b9060005260206000209060040201600160008573ffffffffffffffffffffffffffffffffffffffff1673ffffffffffffffffffffffffffffffffffffffff16815260200190815260200160002082815481106108ba576108b96117e4565b5b90600052602060002090600402016000820154816000015560018201548160010155600282015481600201556003820160009054906101000a900460ff168160030160006101000a81548160ff0219169083151502179055509050508080610921906118b2565b9150506107a9565b50600160008373ffffffffffffffffffffffffffffffffffffffff1673ffffffffffffffffffffffffffffffffffffffff168152602001908152602001600020805480610979576109786118fa565b5b6001900381819060005260206000209060040201600080820160009055600182016000905560028201600090556003820160006101000a81549060ff0219169055505090555050565b600360009054906101000a900473ffffffffffffffffffffffffffffffffffffffff1681565b60045481565b600360009054906101000a900473ffffffffffffffffffffffffffffffffffffffff1673ffffffffffffffffffffffffffffffffffffffff163373ffffffffffffffffffffffffffffffffffffffff1614610a7e576040517f08c379a0000000000000000000000000000000000000000000000000000000008152600401610a75906117c4565b60405180910390fd5b600015158273ffffffffffffffffffffffffffffffffffffffff163373ffffffffffffffffffffffffffffffffffffffff167f62a0718d681b5a77ad80fbaf7e41ff461f77b69d49e3879cba8e045c85e2ac74600160008773ffffffffffffffffffffffffffffffffffffffff1673ffffffffffffffffffffffffffffffffffffffff1681526020019081526020016000208581548110610b2257610b216117e4565b5b906000526020600020906004020160000154600160008873ffffffffffffffffffffffffffffffffffffffff1673ffffffffffffffffffffffffffffffffffffffff1681526020019081526020016000208681548110610b8557610b846117e4565b5b9060005260206000209060040201600101546000604051610ba89392919061196e565b60405180910390a460008190505b60018060008573ffffffffffffffffffffffffffffffffffffffff1673ffffffffffffffffffffffffffffffffffffffff16815260200190815260200160002080549050610c04919061184a565b811015610d3657600160008473ffffffffffffffffffffffffffffffffffffffff1673ffffffffffffffffffffffffffffffffffffffff168152602001908152602001600020600182610c57919061187e565b81548110610c6857610c676117e4565b5b9060005260206000209060040201600160008573ffffffffffffffffffffffffffffffffffffffff1673ffffffffffffffffffffffffffffffffffffffff1681526020019081526020016000208281548110610cc757610cc66117e4565b5b90600052602060002090600402016000820154816000015560018201548160010155600282015481600201556003820160009054906101000a900460ff168160030160006101000a81548160ff0219169083151502179055509050508080610d2e906118b2565b915050610bb6565b50600160008373ffffffffffffffffffffffffffffffffffffffff1673ffffffffffffffffffffffffffffffffffffffff168152602001908152602001600020805480610d8657610d856118fa565b5b6001900381819060005260206000209060040201600080820160009055600182016000905560028201600090556003820160006101000a81549060ff0219169055505090555050565b60008181548110610ddf57600080fd5b90600052602060002090600302016000915090508060000160009054906101000a900473ffffffffffffffffffffffffffffffffffffffff1690806001015490806002018054610e2e906119d4565b80601f0160208091040260200160405190810160405280929190818152602001828054610e5a906119d4565b8015610ea75780601f10610e7c57610100808354040283529160200191610ea7565b820191906000526020600020905b815481529060010190602001808311610e8a57829003601f168201915b5050505050905083565b6060600160008373ffffffffffffffffffffffffffffffffffffffff1673ffffffffffffffffffffffffffffffffffffffff168152602001908152602001600020805480602002602001604051908101604052809291908181526020016000905b82821015610f7d57838290600052602060002090600402016040518060800160405290816000820154815260200160018201548152602001600282015481526020016003820160009054906101000a900460ff16151515158152505081526020019060010190610f12565b505050509050919050565b60008110158015610f9a575060058111155b610fa357600080fd5b808273ffffffffffffffffffffffffffffffffffffffff163373ffffffffffffffffffffffffffffffffffffffff167f5435029ae8e53f5303b6dbda07be9beb09ae106923c28bf30dc3c46852588f0460405160405180910390a45050565b8073ffffffffffffffffffffffffffffffffffffffff166108fc349081150290604051600060405180830381858888f19350505050158015611048573d6000803e3d6000fd5b508073ffffffffffffffffffffffffffffffffffffffff163373ffffffffffffffffffffffffffffffffffffffff167fad011377252e79c9d574ced1048c7d7020d2abd44385576062139ed308dfe972346040516110a69190611263565b60405180910390a350565b423373ffffffffffffffffffffffffffffffffffffffff167f556a8d88a81363d3d82e0a4349b1c101aa81b26dd3f3c9e97a447b9f6cafbf53836040516110f89190611263565b60405180910390a38060048190555050565b60028054611117906119d4565b80601f0160208091040260200160405190810160405280929190818152602001828054611143906119d4565b80156111905780601f1061116557610100808354040283529160200191611190565b820191906000526020600020905b81548152906001019060200180831161117357829003601f168201915b505050505081565b3373ffffffffffffffffffffffffffffffffffffffff167f36af321ec8d3c75236829c5317affd40ddb308863a1236d2d277a4025cccee1e3447426040516111e293929190611813565b60405180910390a2565b600080fd5b6000819050919050565b611204816111f1565b811461120f57600080fd5b50565b600081359050611221816111fb565b92915050565b60006020828403121561123d5761123c6111ec565b5b600061124b84828501611212565b91505092915050565b61125d816111f1565b82525050565b60006020820190506112786000830184611254565b92915050565b600073ffffffffffffffffffffffffffffffffffffffff82169050919050565b60006112a98261127e565b9050919050565b6112b98161129e565b81146112c457600080fd5b50565b6000813590506112d6816112b0565b92915050565b600080604083850312156112f3576112f26111ec565b5b6000611301858286016112c7565b925050602061131285828601611212565b9150509250929050565b60008115159050919050565b6113318161131c565b82525050565b600060808201905061134c6000830187611254565b6113596020830186611254565b6113666040830185611254565b6113736060830184611328565b95945050505050565b60006113878261127e565b9050919050565b6113978161137c565b81146113a257600080fd5b50565b6000813590506113b48161138e565b92915050565b600080604083850312156113d1576113d06111ec565b5b60006113df858286016113a5565b92505060206113f085828601611212565b9150509250929050565b6114038161129e565b82525050565b600060208201905061141e60008301846113fa565b92915050565b600081519050919050565b600082825260208201905092915050565b60005b8381101561145e578082015181840152602081019050611443565b60008484015250505050565b6000601f19601f8301169050919050565b600061148682611424565b611490818561142f565b93506114a0818560208601611440565b6114a98161146a565b840191505092915050565b60006060820190506114c960008301866113fa565b6114d66020830185611254565b81810360408301526114e8818461147b565b9050949350505050565b600060208284031215611508576115076111ec565b5b6000611516848285016112c7565b91505092915050565b600081519050919050565b600082825260208201905092915050565b6000819050602082019050919050565b611554816111f1565b82525050565b6115638161131c565b82525050565b60808201600082015161157f600085018261154b565b506020820151611592602085018261154b565b5060408201516115a5604085018261154b565b5060608201516115b8606085018261155a565b50505050565b60006115ca8383611569565b60808301905092915050565b6000602082019050919050565b60006115ee8261151f565b6115f8818561152a565b93506116038361153b565b8060005b8381101561163457815161161b88826115be565b9750611626836115d6565b925050600181019050611607565b5085935050505092915050565b6000602082019050818103600083015261165b81846115e3565b905092915050565b600060208284031215611679576116786111ec565b5b6000611687848285016113a5565b91505092915050565b600081519050919050565b600082825260208201905092915050565b60006116b782611690565b6116c1818561169b565b93506116d1818560208601611440565b6116da8161146a565b840191505092915050565b600060208201905081810360008301526116ff81846116ac565b905092915050565b7f4e487b7100000000000000000000000000000000000000000000000000000000600052601160045260246000fd5b6000611741826111f1565b915061174c836111f1565b925082820261175a816111f1565b9150828204841483151761177157611770611707565b5b5092915050565b7f596f7520617265206e6f7420746865206d616e61676572000000000000000000600082015250565b60006117ae60178361169b565b91506117b982611778565b602082019050919050565b600060208201905081810360008301526117dd816117a1565b9050919050565b7f4e487b7100000000000000000000000000000000000000000000000000000000600052603260045260246000fd5b60006060820190506118286000830186611254565b6118356020830185611254565b6118426040830184611254565b949350505050565b6000611855826111f1565b9150611860836111f1565b925082820390508181111561187857611877611707565b5b92915050565b6000611889826111f1565b9150611894836111f1565b92508282019050808211156118ac576118ab611707565b5b92915050565b60006118bd826111f1565b91507fffffffffffffffffffffffffffffffffffffffffffffffffffffffffffffffff82036118ef576118ee611707565b5b600182019050919050565b7f4e487b7100000000000000000000000000000000000000000000000000000000600052603160045260246000fd5b6000819050919050565b6000819050919050565b600061195861195361194e84611929565b611933565b6111f1565b9050919050565b6119688161193d565b82525050565b60006060820190506119836000830186611254565b6119906020830185611254565b61199d604083018461195f565b949350505050565b7f4e487b7100000000000000000000000000000000000000000000000000000000600052602260045260246000fd5b600060028204905060018216806119ec57607f821691505b6020821081036119ff576119fe6119a5565b5b5091905056fea264697066735822122050b46baa2dae5ce91878cd0dfc7e63c25d1e2299f5736bbc62d3b416741bdd3464736f6c63430008120033","opcodes":"PUSH1 0x80 PUSH1 0x40 MSTORE CALLVALUE DUP1 ISZERO PUSH3 0x11 JUMPI PUSH1 0x0 DUP1 REVERT JUMPDEST POP PUSH1 0x40 MLOAD PUSH3 0x20BB CODESIZE SUB DUP1 PUSH3 0x20BB DUP4 CODECOPY DUP2 DUP2 ADD PUSH1 0x40 MSTORE DUP2 ADD SWAP1 PUSH3 0x37 SWAP2 SWAP1 PUSH3 0x2CD JUMP JUMPDEST DUP3 PUSH1 0x3 PUSH1 0x0 PUSH2 0x100 EXP DUP2 SLOAD DUP2 PUSH20 0xFFFFFFFFFFFFFFFFFFFFFFFFFFFFFFFFFFFFFFFF MUL NOT AND SWAP1 DUP4 PUSH20 0xFFFFFFFFFFFFFFFFFFFFFFFFFFFFFFFFFFFFFFFF AND MUL OR SWAP1 SSTORE POP DUP2 PUSH1 0x2 SWAP1 DUP2 PUSH3 0x89 SWAP2 SWAP1 PUSH3 0x589 JUMP JUMPDEST POP DUP1 PUSH1 0x4 DUP2 SWAP1 SSTORE POP POP POP POP PUSH3 0x670 JUMP JUMPDEST PUSH1 0x0 PUSH1 0x40 MLOAD SWAP1 POP SWAP1 JUMP JUMPDEST PUSH1 0x0 DUP1 REVERT JUMPDEST PUSH1 0x0 DUP1 REVERT JUMPDEST PUSH1 0x0 PUSH20 0xFFFFFFFFFFFFFFFFFFFFFFFFFFFFFFFFFFFFFFFF DUP3 AND SWAP1 POP SWAP2 SWAP1 POP JUMP JUMPDEST PUSH1 0x0 PUSH3 0xDB DUP3 PUSH3 0xAE JUMP JUMPDEST SWAP1 POP SWAP2 SWAP1 POP JUMP JUMPDEST PUSH3 0xED DUP2 PUSH3 0xCE JUMP JUMPDEST DUP2 EQ PUSH3 0xF9 JUMPI PUSH1 0x0 DUP1 REVERT JUMPDEST POP JUMP JUMPDEST PUSH1 0x0 DUP2 MLOAD SWAP1 POP PUSH3 0x10D DUP2 PUSH3 0xE2 JUMP JUMPDEST SWAP3 SWAP2 POP POP JUMP JUMPDEST PUSH1 0x0 DUP1 REVERT JUMPDEST PUSH1 0x0 DUP1 REVERT JUMPDEST PUSH1 0x0 PUSH1 0x1F NOT PUSH1 0x1F DUP4 ADD AND SWAP1 POP SWAP2 SWAP1 POP JUMP JUMPDEST PUSH32 0x4E487B7100000000000000000000000000000000000000000000000000000000 PUSH1 0x0 MSTORE PUSH1 0x41 PUSH1 0x4 MSTORE PUSH1 0x24 PUSH1 0x0 REVERT JUMPDEST PUSH3 0x168 DUP3 PUSH3 0x11D JUMP JUMPDEST DUP2 ADD DUP2 DUP2 LT PUSH8 0xFFFFFFFFFFFFFFFF DUP3 GT OR ISZERO PUSH3 0x18A JUMPI PUSH3 0x189 PUSH3 0x12E JUMP JUMPDEST JUMPDEST DUP1 PUSH1 0x40 MSTORE POP POP POP JUMP JUMPDEST PUSH1 0x0 PUSH3 0x19F PUSH3 0x9A JUMP JUMPDEST SWAP1 POP PUSH3 0x1AD DUP3 DUP3 PUSH3 0x15D JUMP JUMPDEST SWAP2 SWAP1 POP JUMP JUMPDEST PUSH1 0x0 PUSH8 0xFFFFFFFFFFFFFFFF DUP3 GT ISZERO PUSH3 0x1D0 JUMPI PUSH3 0x1CF PUSH3 0x12E JUMP JUMPDEST JUMPDEST PUSH3 0x1DB DUP3 PUSH3 0x11D JUMP JUMPDEST SWAP1 POP PUSH1 0x20 DUP2 ADD SWAP1 POP SWAP2 SWAP1 POP JUMP JUMPDEST PUSH1 0x0 JUMPDEST DUP4 DUP2 LT ISZERO PUSH3 0x208 JUMPI DUP1 DUP3 ADD MLOAD DUP2 DUP5 ADD MSTORE PUSH1 0x20 DUP2 ADD SWAP1 POP PUSH3 0x1EB JUMP JUMPDEST PUSH1 0x0 DUP5 DUP5 ADD MSTORE POP POP POP POP JUMP JUMPDEST PUSH1 0x0 PUSH3 0x22B PUSH3 0x225 DUP5 PUSH3 0x1B2 JUMP JUMPDEST PUSH3 0x193 JUMP JUMPDEST SWAP1 POP DUP3 DUP2 MSTORE PUSH1 0x20 DUP2 ADD DUP5 DUP5 DUP5 ADD GT ISZERO PUSH3 0x24A JUMPI PUSH3 0x249 PUSH3 0x118 JUMP JUMPDEST JUMPDEST PUSH3 0x257 DUP5 DUP3 DUP6 PUSH3 0x1E8 JUMP JUMPDEST POP SWAP4 SWAP3 POP POP POP JUMP JUMPDEST PUSH1 0x0 DUP3 PUSH1 0x1F DUP4 ADD SLT PUSH3 0x277 JUMPI PUSH3 0x276 PUSH3 0x113 JUMP JUMPDEST JUMPDEST DUP2 MLOAD PUSH3 0x289 DUP5 DUP3 PUSH1 0x20 DUP7 ADD PUSH3 0x214 JUMP JUMPDEST SWAP2 POP POP SWAP3 SWAP2 POP POP JUMP JUMPDEST PUSH1 0x0 DUP2 SWAP1 POP SWAP2 SWAP1 POP JUMP JUMPDEST PUSH3 0x2A7 DUP2 PUSH3 0x292 JUMP JUMPDEST DUP2 EQ PUSH3 0x2B3 JUMPI PUSH1 0x0 DUP1 REVERT JUMPDEST POP JUMP JUMPDEST PUSH1 0x0 DUP2 MLOAD SWAP1 POP PUSH3 0x2C7 DUP2 PUSH3 0x29C JUMP JUMPDEST SWAP3 SWAP2 POP POP JUMP JUMPDEST PUSH1 0x0 DUP1 PUSH1 0x0 PUSH1 0x60 DUP5 DUP7 SUB SLT ISZERO PUSH3 0x2E9 JUMPI PUSH3 0x2E8 PUSH3 0xA4 JUMP JUMPDEST JUMPDEST PUSH1 0x0 PUSH3 0x2F9 DUP7 DUP3 DUP8 ADD PUSH3 0xFC JUMP JUMPDEST SWAP4 POP POP PUSH1 0x20 DUP5 ADD MLOAD PUSH8 0xFFFFFFFFFFFFFFFF DUP2 GT ISZERO PUSH3 0x31D JUMPI PUSH3 0x31C PUSH3 0xA9 JUMP JUMPDEST JUMPDEST PUSH3 0x32B DUP7 DUP3 DUP8 ADD PUSH3 0x25F JUMP JUMPDEST SWAP3 POP POP PUSH1 0x40 PUSH3 0x33E DUP7 DUP3 DUP8 ADD PUSH3 0x2B6 JUMP JUMPDEST SWAP2 POP POP SWAP3 POP SWAP3 POP SWAP3 JUMP JUMPDEST PUSH1 0x0 DUP2 MLOAD SWAP1 POP SWAP2 SWAP1 POP JUMP JUMPDEST PUSH32 0x4E487B7100000000000000000000000000000000000000000000000000000000 PUSH1 0x0 MSTORE PUSH1 0x22 PUSH1 0x4 MSTORE PUSH1 0x24 PUSH1 0x0 REVERT JUMPDEST PUSH1 0x0 PUSH1 0x2 DUP3 DIV SWAP1 POP PUSH1 0x1 DUP3 AND DUP1 PUSH3 0x39B JUMPI PUSH1 0x7F DUP3 AND SWAP2 POP JUMPDEST PUSH1 0x20 DUP3 LT DUP2 SUB PUSH3 0x3B1 JUMPI PUSH3 0x3B0 PUSH3 0x353 JUMP JUMPDEST JUMPDEST POP SWAP2 SWAP1 POP JUMP JUMPDEST PUSH1 0x0 DUP2 SWAP1 POP DUP2 PUSH1 0x0 MSTORE PUSH1 0x20 PUSH1 0x0 KECCAK256 SWAP1 POP SWAP2 SWAP1 POP JUMP JUMPDEST PUSH1 0x0 PUSH1 0x20 PUSH1 0x1F DUP4 ADD DIV SWAP1 POP SWAP2 SWAP1 POP JUMP JUMPDEST PUSH1 0x0 DUP3 DUP3 SHL SWAP1 POP SWAP3 SWAP2 POP POP JUMP JUMPDEST PUSH1 0x0 PUSH1 0x8 DUP4 MUL PUSH3 0x41B PUSH32 0xFFFFFFFFFFFFFFFFFFFFFFFFFFFFFFFFFFFFFFFFFFFFFFFFFFFFFFFFFFFFFFFF DUP3 PUSH3 0x3DC JUMP JUMPDEST PUSH3 0x427 DUP7 DUP4 PUSH3 0x3DC JUMP JUMPDEST SWAP6 POP DUP1 NOT DUP5 AND SWAP4 POP DUP1 DUP7 AND DUP5 OR SWAP3 POP POP POP SWAP4 SWAP3 POP POP POP JUMP JUMPDEST PUSH1 0x0 DUP2 SWAP1 POP SWAP2 SWAP1 POP JUMP JUMPDEST PUSH1 0x0 PUSH3 0x46A PUSH3 0x464 PUSH3 0x45E DUP5 PUSH3 0x292 JUMP JUMPDEST PUSH3 0x43F JUMP JUMPDEST PUSH3 0x292 JUMP JUMPDEST SWAP1 POP SWAP2 SWAP1 POP JUMP JUMPDEST PUSH1 0x0 DUP2 SWAP1 POP SWAP2 SWAP1 POP JUMP JUMPDEST PUSH3 0x486 DUP4 PUSH3 0x449 JUMP JUMPDEST PUSH3 0x49E PUSH3 0x495 DUP3 PUSH3 0x471 JUMP JUMPDEST DUP5 DUP5 SLOAD PUSH3 0x3E9 JUMP JUMPDEST DUP3 SSTORE POP POP POP POP JUMP JUMPDEST PUSH1 0x0 SWAP1 JUMP JUMPDEST PUSH3 0x4B5 PUSH3 0x4A6 JUMP JUMPDEST PUSH3 0x4C2 DUP2 DUP5 DUP5 PUSH3 0x47B JUMP JUMPDEST POP POP POP JUMP JUMPDEST JUMPDEST DUP2 DUP2 LT ISZERO PUSH3 0x4EA JUMPI PUSH3 0x4DE PUSH1 0x0 DUP3 PUSH3 0x4AB JUMP JUMPDEST PUSH1 0x1 DUP2 ADD SWAP1 POP PUSH3 0x4C8 JUMP JUMPDEST POP POP JUMP JUMPDEST PUSH1 0x1F DUP3 GT ISZERO PUSH3 0x539 JUMPI PUSH3 0x503 DUP2 PUSH3 0x3B7 JUMP JUMPDEST PUSH3 0x50E DUP5 PUSH3 0x3CC JUMP JUMPDEST DUP2 ADD PUSH1 0x20 DUP6 LT ISZERO PUSH3 0x51E JUMPI DUP2 SWAP1 POP JUMPDEST PUSH3 0x536 PUSH3 0x52D DUP6 PUSH3 0x3CC JUMP JUMPDEST DUP4 ADD DUP3 PUSH3 0x4C7 JUMP JUMPDEST POP POP JUMPDEST POP POP POP JUMP JUMPDEST PUSH1 0x0 DUP3 DUP3 SHR SWAP1 POP SWAP3 SWAP2 POP POP JUMP JUMPDEST PUSH1 0x0 PUSH3 0x55E PUSH1 0x0 NOT DUP5 PUSH1 0x8 MUL PUSH3 0x53E JUMP JUMPDEST NOT DUP1 DUP4 AND SWAP2 POP POP SWAP3 SWAP2 POP POP JUMP JUMPDEST PUSH1 0x0 PUSH3 0x579 DUP4 DUP4 PUSH3 0x54B JUMP JUMPDEST SWAP2 POP DUP3 PUSH1 0x2 MUL DUP3 OR SWAP1 POP SWAP3 SWAP2 POP POP JUMP JUMPDEST PUSH3 0x594 DUP3 PUSH3 0x348 JUMP JUMPDEST PUSH8 0xFFFFFFFFFFFFFFFF DUP2 GT ISZERO PUSH3 0x5B0 JUMPI PUSH3 0x5AF PUSH3 0x12E JUMP JUMPDEST JUMPDEST PUSH3 0x5BC DUP3 SLOAD PUSH3 0x382 JUMP JUMPDEST PUSH3 0x5C9 DUP3 DUP3 DUP6 PUSH3 0x4EE JUMP JUMPDEST PUSH1 0x0 PUSH1 0x20 SWAP1 POP PUSH1 0x1F DUP4 GT PUSH1 0x1 DUP2 EQ PUSH3 0x601 JUMPI PUSH1 0x0 DUP5 ISZERO PUSH3 0x5EC JUMPI DUP3 DUP8 ADD MLOAD SWAP1 POP JUMPDEST PUSH3 0x5F8 DUP6 DUP3 PUSH3 0x56B JUMP JUMPDEST DUP7 SSTORE POP PUSH3 0x668 JUMP JUMPDEST PUSH1 0x1F NOT DUP5 AND PUSH3 0x611 DUP7 PUSH3 0x3B7 JUMP JUMPDEST PUSH1 0x0 JUMPDEST DUP3 DUP2 LT ISZERO PUSH3 0x63B JUMPI DUP5 DUP10 ADD MLOAD DUP3 SSTORE PUSH1 0x1 DUP3 ADD SWAP2 POP PUSH1 0x20 DUP6 ADD SWAP5 POP PUSH1 0x20 DUP2 ADD SWAP1 POP PUSH3 0x614 JUMP JUMPDEST DUP7 DUP4 LT ISZERO PUSH3 0x65B JUMPI DUP5 DUP10 ADD MLOAD PUSH3 0x657 PUSH1 0x1F DUP10 AND DUP3 PUSH3 0x54B JUMP JUMPDEST DUP4 SSTORE POP JUMPDEST PUSH1 0x1 PUSH1 0x2 DUP9 MUL ADD DUP9 SSTORE POP POP POP JUMPDEST POP POP POP POP POP POP JUMP JUMPDEST PUSH2 0x1A3B DUP1 PUSH3 0x680 PUSH1 0x0 CODECOPY PUSH1 0x0 RETURN INVALID PUSH1 0x80 PUSH1 0x40 MSTORE PUSH1 0x4 CALLDATASIZE LT PUSH2 0xDD JUMPI PUSH1 0x0 CALLDATALOAD PUSH1 0xE0 SHR DUP1 PUSH4 0x9ACE38C2 GT PUSH2 0x7F JUMPI DUP1 PUSH4 0xA4E81BE0 GT PUSH2 0x59 JUMPI DUP1 PUSH4 0xA4E81BE0 EQ PUSH2 0x2B6 JUMPI DUP1 PUSH4 0xC17C3521 EQ PUSH2 0x2D2 JUMPI DUP1 PUSH4 0xCC1E2CB0 EQ PUSH2 0x2FB JUMPI DUP1 PUSH4 0xD0E30DB0 EQ PUSH2 0x326 JUMPI PUSH2 0xDD JUMP JUMPDEST DUP1 PUSH4 0x9ACE38C2 EQ PUSH2 0x211 JUMPI DUP1 PUSH4 0x9D5F65FC EQ PUSH2 0x250 JUMPI DUP1 PUSH4 0xA334B295 EQ PUSH2 0x28D JUMPI PUSH2 0xDD JUMP JUMPDEST DUP1 PUSH4 0x474466C2 GT PUSH2 0xBB JUMPI DUP1 PUSH4 0x474466C2 EQ PUSH2 0x176 JUMPI DUP1 PUSH4 0x481C6A75 EQ PUSH2 0x192 JUMPI DUP1 PUSH4 0x59A7B3FE EQ PUSH2 0x1BD JUMPI DUP1 PUSH4 0x6EAF9563 EQ PUSH2 0x1E8 JUMPI PUSH2 0xDD JUMP JUMPDEST DUP1 PUSH4 0xFA8D54F EQ PUSH2 0xE2 JUMPI DUP1 PUSH4 0x12065FE0 EQ PUSH2 0x10B JUMPI DUP1 PUSH4 0x20EE128E EQ PUSH2 0x136 JUMPI JUMPDEST PUSH1 0x0 DUP1 REVERT JUMPDEST CALLVALUE DUP1 ISZERO PUSH2 0xEE JUMPI PUSH1 0x0 DUP1 REVERT JUMPDEST POP PUSH2 0x109 PUSH1 0x4 DUP1 CALLDATASIZE SUB DUP2 ADD SWAP1 PUSH2 0x104 SWAP2 SWAP1 PUSH2 0x1227 JUMP JUMPDEST PUSH2 0x330 JUMP JUMPDEST STOP JUMPDEST CALLVALUE DUP1 ISZERO PUSH2 0x117 JUMPI PUSH1 0x0 DUP1 REVERT JUMPDEST POP PUSH2 0x120 PUSH2 0x45B JUMP JUMPDEST PUSH1 0x40 MLOAD PUSH2 0x12D SWAP2 SWAP1 PUSH2 0x1263 JUMP JUMPDEST PUSH1 0x40 MLOAD DUP1 SWAP2 SUB SWAP1 RETURN JUMPDEST CALLVALUE DUP1 ISZERO PUSH2 0x142 JUMPI PUSH1 0x0 DUP1 REVERT JUMPDEST POP PUSH2 0x15D PUSH1 0x4 DUP1 CALLDATASIZE SUB DUP2 ADD SWAP1 PUSH2 0x158 SWAP2 SWAP1 PUSH2 0x12DC JUMP JUMPDEST PUSH2 0x463 JUMP JUMPDEST PUSH1 0x40 MLOAD PUSH2 0x16D SWAP5 SWAP4 SWAP3 SWAP2 SWAP1 PUSH2 0x1337 JUMP JUMPDEST PUSH1 0x40 MLOAD DUP1 SWAP2 SUB SWAP1 RETURN JUMPDEST PUSH2 0x190 PUSH1 0x4 DUP1 CALLDATASIZE SUB DUP2 ADD SWAP1 PUSH2 0x18B SWAP2 SWAP1 PUSH2 0x13BA JUMP JUMPDEST PUSH2 0x4BD JUMP JUMPDEST STOP JUMPDEST CALLVALUE DUP1 ISZERO PUSH2 0x19E JUMPI PUSH1 0x0 DUP1 REVERT JUMPDEST POP PUSH2 0x1A7 PUSH2 0x9C2 JUMP JUMPDEST PUSH1 0x40 MLOAD PUSH2 0x1B4 SWAP2 SWAP1 PUSH2 0x1409 JUMP JUMPDEST PUSH1 0x40 MLOAD DUP1 SWAP2 SUB SWAP1 RETURN JUMPDEST CALLVALUE DUP1 ISZERO PUSH2 0x1C9 JUMPI PUSH1 0x0 DUP1 REVERT JUMPDEST POP PUSH2 0x1D2 PUSH2 0x9E8 JUMP JUMPDEST PUSH1 0x40 MLOAD PUSH2 0x1DF SWAP2 SWAP1 PUSH2 0x1263 JUMP JUMPDEST PUSH1 0x40 MLOAD DUP1 SWAP2 SUB SWAP1 RETURN JUMPDEST CALLVALUE DUP1 ISZERO PUSH2 0x1F4 JUMPI PUSH1 0x0 DUP1 REVERT JUMPDEST POP PUSH2 0x20F PUSH1 0x4 DUP1 CALLDATASIZE SUB DUP2 ADD SWAP1 PUSH2 0x20A SWAP2 SWAP1 PUSH2 0x12DC JUMP JUMPDEST PUSH2 0x9EE JUMP JUMPDEST STOP JUMPDEST CALLVALUE DUP1 ISZERO PUSH2 0x21D JUMPI PUSH1 0x0 DUP1 REVERT JUMPDEST POP PUSH2 0x238 PUSH1 0x4 DUP1 CALLDATASIZE SUB DUP2 ADD SWAP1 PUSH2 0x233 SWAP2 SWAP1 PUSH2 0x1227 JUMP JUMPDEST PUSH2 0xDCF JUMP JUMPDEST PUSH1 0x40 MLOAD PUSH2 0x247 SWAP4 SWAP3 SWAP2 SWAP1 PUSH2 0x14B4 JUMP JUMPDEST PUSH1 0x40 MLOAD DUP1 SWAP2 SUB SWAP1 RETURN JUMPDEST CALLVALUE DUP1 ISZERO PUSH2 0x25C JUMPI PUSH1 0x0 DUP1 REVERT JUMPDEST POP PUSH2 0x277 PUSH1 0x4 DUP1 CALLDATASIZE SUB DUP2 ADD SWAP1 PUSH2 0x272 SWAP2 SWAP1 PUSH2 0x14F2 JUMP JUMPDEST PUSH2 0xEB1 JUMP JUMPDEST PUSH1 0x40 MLOAD PUSH2 0x284 SWAP2 SWAP1 PUSH2 0x1641 JUMP JUMPDEST PUSH1 0x40 MLOAD DUP1 SWAP2 SUB SWAP1 RETURN JUMPDEST CALLVALUE DUP1 ISZERO PUSH2 0x299 JUMPI PUSH1 0x0 DUP1 REVERT JUMPDEST POP PUSH2 0x2B4 PUSH1 0x4 DUP1 CALLDATASIZE SUB DUP2 ADD SWAP1 PUSH2 0x2AF SWAP2 SWAP1 PUSH2 0x12DC JUMP JUMPDEST PUSH2 0xF88 JUMP JUMPDEST STOP JUMPDEST PUSH2 0x2D0 PUSH1 0x4 DUP1 CALLDATASIZE SUB DUP2 ADD SWAP1 PUSH2 0x2CB SWAP2 SWAP1 PUSH2 0x1663 JUMP JUMPDEST PUSH2 0x1002 JUMP JUMPDEST STOP JUMPDEST CALLVALUE DUP1 ISZERO PUSH2 0x2DE JUMPI PUSH1 0x0 DUP1 REVERT JUMPDEST POP PUSH2 0x2F9 PUSH1 0x4 DUP1 CALLDATASIZE SUB DUP2 ADD SWAP1 PUSH2 0x2F4 SWAP2 SWAP1 PUSH2 0x1227 JUMP JUMPDEST PUSH2 0x10B1 JUMP JUMPDEST STOP JUMPDEST CALLVALUE DUP1 ISZERO PUSH2 0x307 JUMPI PUSH1 0x0 DUP1 REVERT JUMPDEST POP PUSH2 0x310 PUSH2 0x110A JUMP JUMPDEST PUSH1 0x40 MLOAD PUSH2 0x31D SWAP2 SWAP1 PUSH2 0x16E5 JUMP JUMPDEST PUSH1 0x40 MLOAD DUP1 SWAP2 SUB SWAP1 RETURN JUMPDEST PUSH2 0x32E PUSH2 0x1198 JUMP JUMPDEST STOP JUMPDEST PUSH1 0x8 PUSH1 0x1 PUSH1 0x0 CALLER PUSH20 0xFFFFFFFFFFFFFFFFFFFFFFFFFFFFFFFFFFFFFFFF AND PUSH20 0xFFFFFFFFFFFFFFFFFFFFFFFFFFFFFFFFFFFFFFFF AND DUP2 MSTORE PUSH1 0x20 ADD SWAP1 DUP2 MSTORE PUSH1 0x20 ADD PUSH1 0x0 KECCAK256 DUP1 SLOAD SWAP1 POP LT PUSH2 0x37F JUMPI PUSH1 0x0 DUP1 REVERT JUMPDEST PUSH1 0x1 PUSH1 0x0 CALLER PUSH20 0xFFFFFFFFFFFFFFFFFFFFFFFFFFFFFFFFFFFFFFFF AND PUSH20 0xFFFFFFFFFFFFFFFFFFFFFFFFFFFFFFFFFFFFFFFF AND DUP2 MSTORE PUSH1 0x20 ADD SWAP1 DUP2 MSTORE PUSH1 0x20 ADD PUSH1 0x0 KECCAK256 PUSH1 0x40 MLOAD DUP1 PUSH1 0x80 ADD PUSH1 0x40 MSTORE DUP1 TIMESTAMP DUP2 MSTORE PUSH1 0x20 ADD DUP4 DUP2 MSTORE PUSH1 0x20 ADD DUP4 PUSH1 0x4 SLOAD PUSH2 0x3E3 SWAP2 SWAP1 PUSH2 0x1736 JUMP JUMPDEST DUP2 MSTORE PUSH1 0x20 ADD PUSH1 0x0 ISZERO ISZERO DUP2 MSTORE POP SWAP1 DUP1 PUSH1 0x1 DUP2 SLOAD ADD DUP1 DUP3 SSTORE DUP1 SWAP2 POP POP PUSH1 0x1 SWAP1 SUB SWAP1 PUSH1 0x0 MSTORE PUSH1 0x20 PUSH1 0x0 KECCAK256 SWAP1 PUSH1 0x4 MUL ADD PUSH1 0x0 SWAP1 SWAP2 SWAP1 SWAP2 SWAP1 SWAP2 POP PUSH1 0x0 DUP3 ADD MLOAD DUP2 PUSH1 0x0 ADD SSTORE PUSH1 0x20 DUP3 ADD MLOAD DUP2 PUSH1 0x1 ADD SSTORE PUSH1 0x40 DUP3 ADD MLOAD DUP2 PUSH1 0x2 ADD SSTORE PUSH1 0x60 DUP3 ADD MLOAD DUP2 PUSH1 0x3 ADD PUSH1 0x0 PUSH2 0x100 EXP DUP2 SLOAD DUP2 PUSH1 0xFF MUL NOT AND SWAP1 DUP4 ISZERO ISZERO MUL OR SWAP1 SSTORE POP POP POP POP JUMP JUMPDEST PUSH1 0x0 SELFBALANCE SWAP1 POP SWAP1 JUMP JUMPDEST PUSH1 0x1 PUSH1 0x20 MSTORE DUP2 PUSH1 0x0 MSTORE PUSH1 0x40 PUSH1 0x0 KECCAK256 DUP2 DUP2 SLOAD DUP2 LT PUSH2 0x47F JUMPI PUSH1 0x0 DUP1 REVERT JUMPDEST SWAP1 PUSH1 0x0 MSTORE PUSH1 0x20 PUSH1 0x0 KECCAK256 SWAP1 PUSH1 0x4 MUL ADD PUSH1 0x0 SWAP2 POP SWAP2 POP POP DUP1 PUSH1 0x0 ADD SLOAD SWAP1 DUP1 PUSH1 0x1 ADD SLOAD SWAP1 DUP1 PUSH1 0x2 ADD SLOAD SWAP1 DUP1 PUSH1 0x3 ADD PUSH1 0x0 SWAP1 SLOAD SWAP1 PUSH2 0x100 EXP SWAP1 DIV PUSH1 0xFF AND SWAP1 POP DUP5 JUMP JUMPDEST PUSH1 0x3 PUSH1 0x0 SWAP1 SLOAD SWAP1 PUSH2 0x100 EXP SWAP1 DIV PUSH20 0xFFFFFFFFFFFFFFFFFFFFFFFFFFFFFFFFFFFFFFFF AND PUSH20 0xFFFFFFFFFFFFFFFFFFFFFFFFFFFFFFFFFFFFFFFF AND CALLER PUSH20 0xFFFFFFFFFFFFFFFFFFFFFFFFFFFFFFFFFFFFFFFF AND EQ PUSH2 0x54D JUMPI PUSH1 0x40 MLOAD PUSH32 0x8C379A000000000000000000000000000000000000000000000000000000000 DUP2 MSTORE PUSH1 0x4 ADD PUSH2 0x544 SWAP1 PUSH2 0x17C4 JUMP JUMPDEST PUSH1 0x40 MLOAD DUP1 SWAP2 SUB SWAP1 REVERT JUMPDEST PUSH1 0x1 ISZERO ISZERO DUP3 PUSH20 0xFFFFFFFFFFFFFFFFFFFFFFFFFFFFFFFFFFFFFFFF AND CALLER PUSH20 0xFFFFFFFFFFFFFFFFFFFFFFFFFFFFFFFFFFFFFFFF AND PUSH32 0x62A0718D681B5A77AD80FBAF7E41FF461F77B69D49E3879CBA8E045C85E2AC74 PUSH1 0x1 PUSH1 0x0 DUP8 PUSH20 0xFFFFFFFFFFFFFFFFFFFFFFFFFFFFFFFFFFFFFFFF AND PUSH20 0xFFFFFFFFFFFFFFFFFFFFFFFFFFFFFFFFFFFFFFFF AND DUP2 MSTORE PUSH1 0x20 ADD SWAP1 DUP2 MSTORE PUSH1 0x20 ADD PUSH1 0x0 KECCAK256 DUP6 DUP2 SLOAD DUP2 LT PUSH2 0x5F1 JUMPI PUSH2 0x5F0 PUSH2 0x17E4 JUMP JUMPDEST JUMPDEST SWAP1 PUSH1 0x0 MSTORE PUSH1 0x20 PUSH1 0x0 KECCAK256 SWAP1 PUSH1 0x4 MUL ADD PUSH1 0x0 ADD SLOAD PUSH1 0x1 PUSH1 0x0 DUP9 PUSH20 0xFFFFFFFFFFFFFFFFFFFFFFFFFFFFFFFFFFFFFFFF AND PUSH20 0xFFFFFFFFFFFFFFFFFFFFFFFFFFFFFFFFFFFFFFFF AND DUP2 MSTORE PUSH1 0x20 ADD SWAP1 DUP2 MSTORE PUSH1 0x20 ADD PUSH1 0x0 KECCAK256 DUP7 DUP2 SLOAD DUP2 LT PUSH2 0x654 JUMPI PUSH2 0x653 PUSH2 0x17E4 JUMP JUMPDEST JUMPDEST SWAP1 PUSH1 0x0 MSTORE PUSH1 0x20 PUSH1 0x0 KECCAK256 SWAP1 PUSH1 0x4 MUL ADD PUSH1 0x1 ADD SLOAD PUSH1 0x1 PUSH1 0x0 DUP10 PUSH20 0xFFFFFFFFFFFFFFFFFFFFFFFFFFFFFFFFFFFFFFFF AND PUSH20 0xFFFFFFFFFFFFFFFFFFFFFFFFFFFFFFFFFFFFFFFF AND DUP2 MSTORE PUSH1 0x20 ADD SWAP1 DUP2 MSTORE PUSH1 0x20 ADD PUSH1 0x0 KECCAK256 DUP8 DUP2 SLOAD DUP2 LT PUSH2 0x6B7 JUMPI PUSH2 0x6B6 PUSH2 0x17E4 JUMP JUMPDEST JUMPDEST SWAP1 PUSH1 0x0 MSTORE PUSH1 0x20 PUSH1 0x0 KECCAK256 SWAP1 PUSH1 0x4 MUL ADD PUSH1 0x1 ADD SLOAD PUSH1 0x4 SLOAD PUSH2 0x6D6 SWAP2 SWAP1 PUSH2 0x1736 JUMP JUMPDEST PUSH1 0x40 MLOAD PUSH2 0x6E5 SWAP4 SWAP3 SWAP2 SWAP1 PUSH2 0x1813 JUMP JUMPDEST PUSH1 0x40 MLOAD DUP1 SWAP2 SUB SWAP1 LOG4 DUP2 PUSH20 0xFFFFFFFFFFFFFFFFFFFFFFFFFFFFFFFFFFFFFFFF AND PUSH2 0x8FC PUSH1 0x1 PUSH1 0x0 DUP6 PUSH20 0xFFFFFFFFFFFFFFFFFFFFFFFFFFFFFFFFFFFFFFFF AND PUSH20 0xFFFFFFFFFFFFFFFFFFFFFFFFFFFFFFFFFFFFFFFF AND DUP2 MSTORE PUSH1 0x20 ADD SWAP1 DUP2 MSTORE PUSH1 0x20 ADD PUSH1 0x0 KECCAK256 DUP4 DUP2 SLOAD DUP2 LT PUSH2 0x758 JUMPI PUSH2 0x757 PUSH2 0x17E4 JUMP JUMPDEST JUMPDEST SWAP1 PUSH1 0x0 MSTORE PUSH1 0x20 PUSH1 0x0 KECCAK256 SWAP1 PUSH1 0x4 MUL ADD PUSH1 0x1 ADD SLOAD PUSH1 0x4 SLOAD PUSH2 0x777 SWAP2 SWAP1 PUSH2 0x1736 JUMP JUMPDEST SWAP1 DUP2 ISZERO MUL SWAP1 PUSH1 0x40 MLOAD PUSH1 0x0 PUSH1 0x40 MLOAD DUP1 DUP4 SUB DUP2 DUP6 DUP9 DUP9 CALL SWAP4 POP POP POP POP ISZERO DUP1 ISZERO PUSH2 0x7A2 JUMPI RETURNDATASIZE PUSH1 0x0 DUP1 RETURNDATACOPY RETURNDATASIZE PUSH1 0x0 REVERT JUMPDEST POP PUSH1 0x0 DUP2 SWAP1 POP JUMPDEST PUSH1 0x1 DUP1 PUSH1 0x0 DUP6 PUSH20 0xFFFFFFFFFFFFFFFFFFFFFFFFFFFFFFFFFFFFFFFF AND PUSH20 0xFFFFFFFFFFFFFFFFFFFFFFFFFFFFFFFFFFFFFFFF AND DUP2 MSTORE PUSH1 0x20 ADD SWAP1 DUP2 MSTORE PUSH1 0x20 ADD PUSH1 0x0 KECCAK256 DUP1 SLOAD SWAP1 POP PUSH2 0x7F7 SWAP2 SWAP1 PUSH2 0x184A JUMP JUMPDEST DUP2 LT ISZERO PUSH2 0x929 JUMPI PUSH1 0x1 PUSH1 0x0 DUP5 PUSH20 0xFFFFFFFFFFFFFFFFFFFFFFFFFFFFFFFFFFFFFFFF AND PUSH20 0xFFFFFFFFFFFFFFFFFFFFFFFFFFFFFFFFFFFFFFFF AND DUP2 MSTORE PUSH1 0x20 ADD SWAP1 DUP2 MSTORE PUSH1 0x20 ADD PUSH1 0x0 KECCAK256 PUSH1 0x1 DUP3 PUSH2 0x84A SWAP2 SWAP1 PUSH2 0x187E JUMP JUMPDEST DUP2 SLOAD DUP2 LT PUSH2 0x85B JUMPI PUSH2 0x85A PUSH2 0x17E4 JUMP JUMPDEST JUMPDEST SWAP1 PUSH1 0x0 MSTORE PUSH1 0x20 PUSH1 0x0 KECCAK256 SWAP1 PUSH1 0x4 MUL ADD PUSH1 0x1 PUSH1 0x0 DUP6 PUSH20 0xFFFFFFFFFFFFFFFFFFFFFFFFFFFFFFFFFFFFFFFF AND PUSH20 0xFFFFFFFFFFFFFFFFFFFFFFFFFFFFFFFFFFFFFFFF AND DUP2 MSTORE PUSH1 0x20 ADD SWAP1 DUP2 MSTORE PUSH1 0x20 ADD PUSH1 0x0 KECCAK256 DUP3 DUP2 SLOAD DUP2 LT PUSH2 0x8BA JUMPI PUSH2 0x8B9 PUSH2 0x17E4 JUMP JUMPDEST JUMPDEST SWAP1 PUSH1 0x0 MSTORE PUSH1 0x20 PUSH1 0x0 KECCAK256 SWAP1 PUSH1 0x4 MUL ADD PUSH1 0x0 DUP3 ADD SLOAD DUP2 PUSH1 0x0 ADD SSTORE PUSH1 0x1 DUP3 ADD SLOAD DUP2 PUSH1 0x1 ADD SSTORE PUSH1 0x2 DUP3 ADD SLOAD DUP2 PUSH1 0x2 ADD SSTORE PUSH1 0x3 DUP3 ADD PUSH1 0x0 SWAP1 SLOAD SWAP1 PUSH2 0x100 EXP SWAP1 DIV PUSH1 0xFF AND DUP2 PUSH1 0x3 ADD PUSH1 0x0 PUSH2 0x100 EXP DUP2 SLOAD DUP2 PUSH1 0xFF MUL NOT AND SWAP1 DUP4 ISZERO ISZERO MUL OR SWAP1 SSTORE POP SWAP1 POP POP DUP1 DUP1 PUSH2 0x921 SWAP1 PUSH2 0x18B2 JUMP JUMPDEST SWAP2 POP POP PUSH2 0x7A9 JUMP JUMPDEST POP PUSH1 0x1 PUSH1 0x0 DUP4 PUSH20 0xFFFFFFFFFFFFFFFFFFFFFFFFFFFFFFFFFFFFFFFF AND PUSH20 0xFFFFFFFFFFFFFFFFFFFFFFFFFFFFFFFFFFFFFFFF AND DUP2 MSTORE PUSH1 0x20 ADD SWAP1 DUP2 MSTORE PUSH1 0x20 ADD PUSH1 0x0 KECCAK256 DUP1 SLOAD DUP1 PUSH2 0x979 JUMPI PUSH2 0x978 PUSH2 0x18FA JUMP JUMPDEST JUMPDEST PUSH1 0x1 SWAP1 SUB DUP2 DUP2 SWAP1 PUSH1 0x0 MSTORE PUSH1 0x20 PUSH1 0x0 KECCAK256 SWAP1 PUSH1 0x4 MUL ADD PUSH1 0x0 DUP1 DUP3 ADD PUSH1 0x0 SWAP1 SSTORE PUSH1 0x1 DUP3 ADD PUSH1 0x0 SWAP1 SSTORE PUSH1 0x2 DUP3 ADD PUSH1 0x0 SWAP1 SSTORE PUSH1 0x3 DUP3 ADD PUSH1 0x0 PUSH2 0x100 EXP DUP2 SLOAD SWAP1 PUSH1 0xFF MUL NOT AND SWAP1 SSTORE POP POP SWAP1 SSTORE POP POP JUMP JUMPDEST PUSH1 0x3 PUSH1 0x0 SWAP1 SLOAD SWAP1 PUSH2 0x100 EXP SWAP1 DIV PUSH20 0xFFFFFFFFFFFFFFFFFFFFFFFFFFFFFFFFFFFFFFFF AND DUP2 JUMP JUMPDEST PUSH1 0x4 SLOAD DUP2 JUMP JUMPDEST PUSH1 0x3 PUSH1 0x0 SWAP1 SLOAD SWAP1 PUSH2 0x100 EXP SWAP1 DIV PUSH20 0xFFFFFFFFFFFFFFFFFFFFFFFFFFFFFFFFFFFFFFFF AND PUSH20 0xFFFFFFFFFFFFFFFFFFFFFFFFFFFFFFFFFFFFFFFF AND CALLER PUSH20 0xFFFFFFFFFFFFFFFFFFFFFFFFFFFFFFFFFFFFFFFF AND EQ PUSH2 0xA7E JUMPI PUSH1 0x40 MLOAD PUSH32 0x8C379A000000000000000000000000000000000000000000000000000000000 DUP2 MSTORE PUSH1 0x4 ADD PUSH2 0xA75 SWAP1 PUSH2 0x17C4 JUMP JUMPDEST PUSH1 0x40 MLOAD DUP1 SWAP2 SUB SWAP1 REVERT JUMPDEST PUSH1 0x0 ISZERO ISZERO DUP3 PUSH20 0xFFFFFFFFFFFFFFFFFFFFFFFFFFFFFFFFFFFFFFFF AND CALLER PUSH20 0xFFFFFFFFFFFFFFFFFFFFFFFFFFFFFFFFFFFFFFFF AND PUSH32 0x62A0718D681B5A77AD80FBAF7E41FF461F77B69D49E3879CBA8E045C85E2AC74 PUSH1 0x1 PUSH1 0x0 DUP8 PUSH20 0xFFFFFFFFFFFFFFFFFFFFFFFFFFFFFFFFFFFFFFFF AND PUSH20 0xFFFFFFFFFFFFFFFFFFFFFFFFFFFFFFFFFFFFFFFF AND DUP2 MSTORE PUSH1 0x20 ADD SWAP1 DUP2 MSTORE PUSH1 0x20 ADD PUSH1 0x0 KECCAK256 DUP6 DUP2 SLOAD DUP2 LT PUSH2 0xB22 JUMPI PUSH2 0xB21 PUSH2 0x17E4 JUMP JUMPDEST JUMPDEST SWAP1 PUSH1 0x0 MSTORE PUSH1 0x20 PUSH1 0x0 KECCAK256 SWAP1 PUSH1 0x4 MUL ADD PUSH1 0x0 ADD SLOAD PUSH1 0x1 PUSH1 0x0 DUP9 PUSH20 0xFFFFFFFFFFFFFFFFFFFFFFFFFFFFFFFFFFFFFFFF AND PUSH20 0xFFFFFFFFFFFFFFFFFFFFFFFFFFFFFFFFFFFFFFFF AND DUP2 MSTORE PUSH1 0x20 ADD SWAP1 DUP2 MSTORE PUSH1 0x20 ADD PUSH1 0x0 KECCAK256 DUP7 DUP2 SLOAD DUP2 LT PUSH2 0xB85 JUMPI PUSH2 0xB84 PUSH2 0x17E4 JUMP JUMPDEST JUMPDEST SWAP1 PUSH1 0x0 MSTORE PUSH1 0x20 PUSH1 0x0 KECCAK256 SWAP1 PUSH1 0x4 MUL ADD PUSH1 0x1 ADD SLOAD PUSH1 0x0 PUSH1 0x40 MLOAD PUSH2 0xBA8 SWAP4 SWAP3 SWAP2 SWAP1 PUSH2 0x196E JUMP JUMPDEST PUSH1 0x40 MLOAD DUP1 SWAP2 SUB SWAP1 LOG4 PUSH1 0x0 DUP2 SWAP1 POP JUMPDEST PUSH1 0x1 DUP1 PUSH1 0x0 DUP6 PUSH20 0xFFFFFFFFFFFFFFFFFFFFFFFFFFFFFFFFFFFFFFFF AND PUSH20 0xFFFFFFFFFFFFFFFFFFFFFFFFFFFFFFFFFFFFFFFF AND DUP2 MSTORE PUSH1 0x20 ADD SWAP1 DUP2 MSTORE PUSH1 0x20 ADD PUSH1 0x0 KECCAK256 DUP1 SLOAD SWAP1 POP PUSH2 0xC04 SWAP2 SWAP1 PUSH2 0x184A JUMP JUMPDEST DUP2 LT ISZERO PUSH2 0xD36 JUMPI PUSH1 0x1 PUSH1 0x0 DUP5 PUSH20 0xFFFFFFFFFFFFFFFFFFFFFFFFFFFFFFFFFFFFFFFF AND PUSH20 0xFFFFFFFFFFFFFFFFFFFFFFFFFFFFFFFFFFFFFFFF AND DUP2 MSTORE PUSH1 0x20 ADD SWAP1 DUP2 MSTORE PUSH1 0x20 ADD PUSH1 0x0 KECCAK256 PUSH1 0x1 DUP3 PUSH2 0xC57 SWAP2 SWAP1 PUSH2 0x187E JUMP JUMPDEST DUP2 SLOAD DUP2 LT PUSH2 0xC68 JUMPI PUSH2 0xC67 PUSH2 0x17E4 JUMP JUMPDEST JUMPDEST SWAP1 PUSH1 0x0 MSTORE PUSH1 0x20 PUSH1 0x0 KECCAK256 SWAP1 PUSH1 0x4 MUL ADD PUSH1 0x1 PUSH1 0x0 DUP6 PUSH20 0xFFFFFFFFFFFFFFFFFFFFFFFFFFFFFFFFFFFFFFFF AND PUSH20 0xFFFFFFFFFFFFFFFFFFFFFFFFFFFFFFFFFFFFFFFF AND DUP2 MSTORE PUSH1 0x20 ADD SWAP1 DUP2 MSTORE PUSH1 0x20 ADD PUSH1 0x0 KECCAK256 DUP3 DUP2 SLOAD DUP2 LT PUSH2 0xCC7 JUMPI PUSH2 0xCC6 PUSH2 0x17E4 JUMP JUMPDEST JUMPDEST SWAP1 PUSH1 0x0 MSTORE PUSH1 0x20 PUSH1 0x0 KECCAK256 SWAP1 PUSH1 0x4 MUL ADD PUSH1 0x0 DUP3 ADD SLOAD DUP2 PUSH1 0x0 ADD SSTORE PUSH1 0x1 DUP3 ADD SLOAD DUP2 PUSH1 0x1 ADD SSTORE PUSH1 0x2 DUP3 ADD SLOAD DUP2 PUSH1 0x2 ADD SSTORE PUSH1 0x3 DUP3 ADD PUSH1 0x0 SWAP1 SLOAD SWAP1 PUSH2 0x100 EXP SWAP1 DIV PUSH1 0xFF AND DUP2 PUSH1 0x3 ADD PUSH1 0x0 PUSH2 0x100 EXP DUP2 SLOAD DUP2 PUSH1 0xFF MUL NOT AND SWAP1 DUP4 ISZERO ISZERO MUL OR SWAP1 SSTORE POP SWAP1 POP POP DUP1 DUP1 PUSH2 0xD2E SWAP1 PUSH2 0x18B2 JUMP JUMPDEST SWAP2 POP POP PUSH2 0xBB6 JUMP JUMPDEST POP PUSH1 0x1 PUSH1 0x0 DUP4 PUSH20 0xFFFFFFFFFFFFFFFFFFFFFFFFFFFFFFFFFFFFFFFF AND PUSH20 0xFFFFFFFFFFFFFFFFFFFFFFFFFFFFFFFFFFFFFFFF AND DUP2 MSTORE PUSH1 0x20 ADD SWAP1 DUP2 MSTORE PUSH1 0x20 ADD PUSH1 0x0 KECCAK256 DUP1 SLOAD DUP1 PUSH2 0xD86 JUMPI PUSH2 0xD85 PUSH2 0x18FA JUMP JUMPDEST JUMPDEST PUSH1 0x1 SWAP1 SUB DUP2 DUP2 SWAP1 PUSH1 0x0 MSTORE PUSH1 0x20 PUSH1 0x0 KECCAK256 SWAP1 PUSH1 0x4 MUL ADD PUSH1 0x0 DUP1 DUP3 ADD PUSH1 0x0 SWAP1 SSTORE PUSH1 0x1 DUP3 ADD PUSH1 0x0 SWAP1 SSTORE PUSH1 0x2 DUP3 ADD PUSH1 0x0 SWAP1 SSTORE PUSH1 0x3 DUP3 ADD PUSH1 0x0 PUSH2 0x100 EXP DUP2 SLOAD SWAP1 PUSH1 0xFF MUL NOT AND SWAP1 SSTORE POP POP SWAP1 SSTORE POP POP JUMP JUMPDEST PUSH1 0x0 DUP2 DUP2 SLOAD DUP2 LT PUSH2 0xDDF JUMPI PUSH1 0x0 DUP1 REVERT JUMPDEST SWAP1 PUSH1 0x0 MSTORE PUSH1 0x20 PUSH1 0x0 KECCAK256 SWAP1 PUSH1 0x3 MUL ADD PUSH1 0x0 SWAP2 POP SWAP1 POP DUP1 PUSH1 0x0 ADD PUSH1 0x0 SWAP1 SLOAD SWAP1 PUSH2 0x100 EXP SWAP1 DIV PUSH20 0xFFFFFFFFFFFFFFFFFFFFFFFFFFFFFFFFFFFFFFFF AND SWAP1 DUP1 PUSH1 0x1 ADD SLOAD SWAP1 DUP1 PUSH1 0x2 ADD DUP1 SLOAD PUSH2 0xE2E SWAP1 PUSH2 0x19D4 JUMP JUMPDEST DUP1 PUSH1 0x1F ADD PUSH1 0x20 DUP1 SWAP2 DIV MUL PUSH1 0x20 ADD PUSH1 0x40 MLOAD SWAP1 DUP2 ADD PUSH1 0x40 MSTORE DUP1 SWAP3 SWAP2 SWAP1 DUP2 DUP2 MSTORE PUSH1 0x20 ADD DUP3 DUP1 SLOAD PUSH2 0xE5A SWAP1 PUSH2 0x19D4 JUMP JUMPDEST DUP1 ISZERO PUSH2 0xEA7 JUMPI DUP1 PUSH1 0x1F LT PUSH2 0xE7C JUMPI PUSH2 0x100 DUP1 DUP4 SLOAD DIV MUL DUP4 MSTORE SWAP2 PUSH1 0x20 ADD SWAP2 PUSH2 0xEA7 JUMP JUMPDEST DUP3 ADD SWAP2 SWAP1 PUSH1 0x0 MSTORE PUSH1 0x20 PUSH1 0x0 KECCAK256 SWAP1 JUMPDEST DUP2 SLOAD DUP2 MSTORE SWAP1 PUSH1 0x1 ADD SWAP1 PUSH1 0x20 ADD DUP1 DUP4 GT PUSH2 0xE8A JUMPI DUP3 SWAP1 SUB PUSH1 0x1F AND DUP3 ADD SWAP2 JUMPDEST POP POP POP POP POP SWAP1 POP DUP4 JUMP JUMPDEST PUSH1 0x60 PUSH1 0x1 PUSH1 0x0 DUP4 PUSH20 0xFFFFFFFFFFFFFFFFFFFFFFFFFFFFFFFFFFFFFFFF AND PUSH20 0xFFFFFFFFFFFFFFFFFFFFFFFFFFFFFFFFFFFFFFFF AND DUP2 MSTORE PUSH1 0x20 ADD SWAP1 DUP2 MSTORE PUSH1 0x20 ADD PUSH1 0x0 KECCAK256 DUP1 SLOAD DUP1 PUSH1 0x20 MUL PUSH1 0x20 ADD PUSH1 0x40 MLOAD SWAP1 DUP2 ADD PUSH1 0x40 MSTORE DUP1 SWAP3 SWAP2 SWAP1 DUP2 DUP2 MSTORE PUSH1 0x20 ADD PUSH1 0x0 SWAP1 JUMPDEST DUP3 DUP3 LT ISZERO PUSH2 0xF7D JUMPI DUP4 DUP3 SWAP1 PUSH1 0x0 MSTORE PUSH1 0x20 PUSH1 0x0 KECCAK256 SWAP1 PUSH1 0x4 MUL ADD PUSH1 0x40 MLOAD DUP1 PUSH1 0x80 ADD PUSH1 0x40 MSTORE SWAP1 DUP2 PUSH1 0x0 DUP3 ADD SLOAD DUP2 MSTORE PUSH1 0x20 ADD PUSH1 0x1 DUP3 ADD SLOAD DUP2 MSTORE PUSH1 0x20 ADD PUSH1 0x2 DUP3 ADD SLOAD DUP2 MSTORE PUSH1 0x20 ADD PUSH1 0x3 DUP3 ADD PUSH1 0x0 SWAP1 SLOAD SWAP1 PUSH2 0x100 EXP SWAP1 DIV PUSH1 0xFF AND ISZERO ISZERO ISZERO ISZERO DUP2 MSTORE POP POP DUP2 MSTORE PUSH1 0x20 ADD SWAP1 PUSH1 0x1 ADD SWAP1 PUSH2 0xF12 JUMP JUMPDEST POP POP POP POP SWAP1 POP SWAP2 SWAP1 POP JUMP JUMPDEST PUSH1 0x0 DUP2 LT ISZERO DUP1 ISZERO PUSH2 0xF9A JUMPI POP PUSH1 0x5 DUP2 GT ISZERO JUMPDEST PUSH2 0xFA3 JUMPI PUSH1 0x0 DUP1 REVERT JUMPDEST DUP1 DUP3 PUSH20 0xFFFFFFFFFFFFFFFFFFFFFFFFFFFFFFFFFFFFFFFF AND CALLER PUSH20 0xFFFFFFFFFFFFFFFFFFFFFFFFFFFFFFFFFFFFFFFF AND PUSH32 0x5435029AE8E53F5303B6DBDA07BE9BEB09AE106923C28BF30DC3C46852588F04 PUSH1 0x40 MLOAD PUSH1 0x40 MLOAD DUP1 SWAP2 SUB SWAP1 LOG4 POP POP JUMP JUMPDEST DUP1 PUSH20 0xFFFFFFFFFFFFFFFFFFFFFFFFFFFFFFFFFFFFFFFF AND PUSH2 0x8FC CALLVALUE SWAP1 DUP2 ISZERO MUL SWAP1 PUSH1 0x40 MLOAD PUSH1 0x0 PUSH1 0x40 MLOAD DUP1 DUP4 SUB DUP2 DUP6 DUP9 DUP9 CALL SWAP4 POP POP POP POP ISZERO DUP1 ISZERO PUSH2 0x1048 JUMPI RETURNDATASIZE PUSH1 0x0 DUP1 RETURNDATACOPY RETURNDATASIZE PUSH1 0x0 REVERT JUMPDEST POP DUP1 PUSH20 0xFFFFFFFFFFFFFFFFFFFFFFFFFFFFFFFFFFFFFFFF AND CALLER PUSH20 0xFFFFFFFFFFFFFFFFFFFFFFFFFFFFFFFFFFFFFFFF AND PUSH32 0xAD011377252E79C9D574CED1048C7D7020D2ABD44385576062139ED308DFE972 CALLVALUE PUSH1 0x40 MLOAD PUSH2 0x10A6 SWAP2 SWAP1 PUSH2 0x1263 JUMP JUMPDEST PUSH1 0x40 MLOAD DUP1 SWAP2 SUB SWAP1 LOG3 POP JUMP JUMPDEST TIMESTAMP CALLER PUSH20 0xFFFFFFFFFFFFFFFFFFFFFFFFFFFFFFFFFFFFFFFF AND PUSH32 0x556A8D88A81363D3D82E0A4349B1C101AA81B26DD3F3C9E97A447B9F6CAFBF53 DUP4 PUSH1 0x40 MLOAD PUSH2 0x10F8 SWAP2 SWAP1 PUSH2 0x1263 JUMP JUMPDEST PUSH1 0x40 MLOAD DUP1 SWAP2 SUB SWAP1 LOG3 DUP1 PUSH1 0x4 DUP2 SWAP1 SSTORE POP POP JUMP JUMPDEST PUSH1 0x2 DUP1 SLOAD PUSH2 0x1117 SWAP1 PUSH2 0x19D4 JUMP JUMPDEST DUP1 PUSH1 0x1F ADD PUSH1 0x20 DUP1 SWAP2 DIV MUL PUSH1 0x20 ADD PUSH1 0x40 MLOAD SWAP1 DUP2 ADD PUSH1 0x40 MSTORE DUP1 SWAP3 SWAP2 SWAP1 DUP2 DUP2 MSTORE PUSH1 0x20 ADD DUP3 DUP1 SLOAD PUSH2 0x1143 SWAP1 PUSH2 0x19D4 JUMP JUMPDEST DUP1 ISZERO PUSH2 0x1190 JUMPI DUP1 PUSH1 0x1F LT PUSH2 0x1165 JUMPI PUSH2 0x100 DUP1 DUP4 SLOAD DIV MUL DUP4 MSTORE SWAP2 PUSH1 0x20 ADD SWAP2 PUSH2 0x1190 JUMP JUMPDEST DUP3 ADD SWAP2 SWAP1 PUSH1 0x0 MSTORE PUSH1 0x20 PUSH1 0x0 KECCAK256 SWAP1 JUMPDEST DUP2 SLOAD DUP2 MSTORE SWAP1 PUSH1 0x1 ADD SWAP1 PUSH1 0x20 ADD DUP1 DUP4 GT PUSH2 0x1173 JUMPI DUP3 SWAP1 SUB PUSH1 0x1F AND DUP3 ADD SWAP2 JUMPDEST POP POP POP POP POP DUP2 JUMP JUMPDEST CALLER PUSH20 0xFFFFFFFFFFFFFFFFFFFFFFFFFFFFFFFFFFFFFFFF AND PUSH32 0x36AF321EC8D3C75236829C5317AFFD40DDB308863A1236D2D277A4025CCCEE1E CALLVALUE SELFBALANCE TIMESTAMP PUSH1 0x40 MLOAD PUSH2 0x11E2 SWAP4 SWAP3 SWAP2 SWAP1 PUSH2 0x1813 JUMP JUMPDEST PUSH1 0x40 MLOAD DUP1 SWAP2 SUB SWAP1 LOG2 JUMP JUMPDEST PUSH1 0x0 DUP1 REVERT JUMPDEST PUSH1 0x0 DUP2 SWAP1 POP SWAP2 SWAP1 POP JUMP JUMPDEST PUSH2 0x1204 DUP2 PUSH2 0x11F1 JUMP JUMPDEST DUP2 EQ PUSH2 0x120F JUMPI PUSH1 0x0 DUP1 REVERT JUMPDEST POP JUMP JUMPDEST PUSH1 0x0 DUP2 CALLDATALOAD SWAP1 POP PUSH2 0x1221 DUP2 PUSH2 0x11FB JUMP JUMPDEST SWAP3 SWAP2 POP POP JUMP JUMPDEST PUSH1 0x0 PUSH1 0x20 DUP3 DUP5 SUB SLT ISZERO PUSH2 0x123D JUMPI PUSH2 0x123C PUSH2 0x11EC JUMP JUMPDEST JUMPDEST PUSH1 0x0 PUSH2 0x124B DUP5 DUP3 DUP6 ADD PUSH2 0x1212 JUMP JUMPDEST SWAP2 POP POP SWAP3 SWAP2 POP POP JUMP JUMPDEST PUSH2 0x125D DUP2 PUSH2 0x11F1 JUMP JUMPDEST DUP3 MSTORE POP POP JUMP JUMPDEST PUSH1 0x0 PUSH1 0x20 DUP3 ADD SWAP1 POP PUSH2 0x1278 PUSH1 0x0 DUP4 ADD DUP5 PUSH2 0x1254 JUMP JUMPDEST SWAP3 SWAP2 POP POP JUMP JUMPDEST PUSH1 0x0 PUSH20 0xFFFFFFFFFFFFFFFFFFFFFFFFFFFFFFFFFFFFFFFF DUP3 AND SWAP1 POP SWAP2 SWAP1 POP JUMP JUMPDEST PUSH1 0x0 PUSH2 0x12A9 DUP3 PUSH2 0x127E JUMP JUMPDEST SWAP1 POP SWAP2 SWAP1 POP JUMP JUMPDEST PUSH2 0x12B9 DUP2 PUSH2 0x129E JUMP JUMPDEST DUP2 EQ PUSH2 0x12C4 JUMPI PUSH1 0x0 DUP1 REVERT JUMPDEST POP JUMP JUMPDEST PUSH1 0x0 DUP2 CALLDATALOAD SWAP1 POP PUSH2 0x12D6 DUP2 PUSH2 0x12B0 JUMP JUMPDEST SWAP3 SWAP2 POP POP JUMP JUMPDEST PUSH1 0x0 DUP1 PUSH1 0x40 DUP4 DUP6 SUB SLT ISZERO PUSH2 0x12F3 JUMPI PUSH2 0x12F2 PUSH2 0x11EC JUMP JUMPDEST JUMPDEST PUSH1 0x0 PUSH2 0x1301 DUP6 DUP3 DUP7 ADD PUSH2 0x12C7 JUMP JUMPDEST SWAP3 POP POP PUSH1 0x20 PUSH2 0x1312 DUP6 DUP3 DUP7 ADD PUSH2 0x1212 JUMP JUMPDEST SWAP2 POP POP SWAP3 POP SWAP3 SWAP1 POP JUMP JUMPDEST PUSH1 0x0 DUP2 ISZERO ISZERO SWAP1 POP SWAP2 SWAP1 POP JUMP JUMPDEST PUSH2 0x1331 DUP2 PUSH2 0x131C JUMP JUMPDEST DUP3 MSTORE POP POP JUMP JUMPDEST PUSH1 0x0 PUSH1 0x80 DUP3 ADD SWAP1 POP PUSH2 0x134C PUSH1 0x0 DUP4 ADD DUP8 PUSH2 0x1254 JUMP JUMPDEST PUSH2 0x1359 PUSH1 0x20 DUP4 ADD DUP7 PUSH2 0x1254 JUMP JUMPDEST PUSH2 0x1366 PUSH1 0x40 DUP4 ADD DUP6 PUSH2 0x1254 JUMP JUMPDEST PUSH2 0x1373 PUSH1 0x60 DUP4 ADD DUP5 PUSH2 0x1328 JUMP JUMPDEST SWAP6 SWAP5 POP POP POP POP POP JUMP JUMPDEST PUSH1 0x0 PUSH2 0x1387 DUP3 PUSH2 0x127E JUMP JUMPDEST SWAP1 POP SWAP2 SWAP1 POP JUMP JUMPDEST PUSH2 0x1397 DUP2 PUSH2 0x137C JUMP JUMPDEST DUP2 EQ PUSH2 0x13A2 JUMPI PUSH1 0x0 DUP1 REVERT JUMPDEST POP JUMP JUMPDEST PUSH1 0x0 DUP2 CALLDATALOAD SWAP1 POP PUSH2 0x13B4 DUP2 PUSH2 0x138E JUMP JUMPDEST SWAP3 SWAP2 POP POP JUMP JUMPDEST PUSH1 0x0 DUP1 PUSH1 0x40 DUP4 DUP6 SUB SLT ISZERO PUSH2 0x13D1 JUMPI PUSH2 0x13D0 PUSH2 0x11EC JUMP JUMPDEST JUMPDEST PUSH1 0x0 PUSH2 0x13DF DUP6 DUP3 DUP7 ADD PUSH2 0x13A5 JUMP JUMPDEST SWAP3 POP POP PUSH1 0x20 PUSH2 0x13F0 DUP6 DUP3 DUP7 ADD PUSH2 0x1212 JUMP JUMPDEST SWAP2 POP POP SWAP3 POP SWAP3 SWAP1 POP JUMP JUMPDEST PUSH2 0x1403 DUP2 PUSH2 0x129E JUMP JUMPDEST DUP3 MSTORE POP POP JUMP JUMPDEST PUSH1 0x0 PUSH1 0x20 DUP3 ADD SWAP1 POP PUSH2 0x141E PUSH1 0x0 DUP4 ADD DUP5 PUSH2 0x13FA JUMP JUMPDEST SWAP3 SWAP2 POP POP JUMP JUMPDEST PUSH1 0x0 DUP2 MLOAD SWAP1 POP SWAP2 SWAP1 POP JUMP JUMPDEST PUSH1 0x0 DUP3 DUP3 MSTORE PUSH1 0x20 DUP3 ADD SWAP1 POP SWAP3 SWAP2 POP POP JUMP JUMPDEST PUSH1 0x0 JUMPDEST DUP4 DUP2 LT ISZERO PUSH2 0x145E JUMPI DUP1 DUP3 ADD MLOAD DUP2 DUP5 ADD MSTORE PUSH1 0x20 DUP2 ADD SWAP1 POP PUSH2 0x1443 JUMP JUMPDEST PUSH1 0x0 DUP5 DUP5 ADD MSTORE POP POP POP POP JUMP JUMPDEST PUSH1 0x0 PUSH1 0x1F NOT PUSH1 0x1F DUP4 ADD AND SWAP1 POP SWAP2 SWAP1 POP JUMP JUMPDEST PUSH1 0x0 PUSH2 0x1486 DUP3 PUSH2 0x1424 JUMP JUMPDEST PUSH2 0x1490 DUP2 DUP6 PUSH2 0x142F JUMP JUMPDEST SWAP4 POP PUSH2 0x14A0 DUP2 DUP6 PUSH1 0x20 DUP7 ADD PUSH2 0x1440 JUMP JUMPDEST PUSH2 0x14A9 DUP2 PUSH2 0x146A JUMP JUMPDEST DUP5 ADD SWAP2 POP POP SWAP3 SWAP2 POP POP JUMP JUMPDEST PUSH1 0x0 PUSH1 0x60 DUP3 ADD SWAP1 POP PUSH2 0x14C9 PUSH1 0x0 DUP4 ADD DUP7 PUSH2 0x13FA JUMP JUMPDEST PUSH2 0x14D6 PUSH1 0x20 DUP4 ADD DUP6 PUSH2 0x1254 JUMP JUMPDEST DUP2 DUP2 SUB PUSH1 0x40 DUP4 ADD MSTORE PUSH2 0x14E8 DUP2 DUP5 PUSH2 0x147B JUMP JUMPDEST SWAP1 POP SWAP5 SWAP4 POP POP POP POP JUMP JUMPDEST PUSH1 0x0 PUSH1 0x20 DUP3 DUP5 SUB SLT ISZERO PUSH2 0x1508 JUMPI PUSH2 0x1507 PUSH2 0x11EC JUMP JUMPDEST JUMPDEST PUSH1 0x0 PUSH2 0x1516 DUP5 DUP3 DUP6 ADD PUSH2 0x12C7 JUMP JUMPDEST SWAP2 POP POP SWAP3 SWAP2 POP POP JUMP JUMPDEST PUSH1 0x0 DUP2 MLOAD SWAP1 POP SWAP2 SWAP1 POP JUMP JUMPDEST PUSH1 0x0 DUP3 DUP3 MSTORE PUSH1 0x20 DUP3 ADD SWAP1 POP SWAP3 SWAP2 POP POP JUMP JUMPDEST PUSH1 0x0 DUP2 SWAP1 POP PUSH1 0x20 DUP3 ADD SWAP1 POP SWAP2 SWAP1 POP JUMP JUMPDEST PUSH2 0x1554 DUP2 PUSH2 0x11F1 JUMP JUMPDEST DUP3 MSTORE POP POP JUMP JUMPDEST PUSH2 0x1563 DUP2 PUSH2 0x131C JUMP JUMPDEST DUP3 MSTORE POP POP JUMP JUMPDEST PUSH1 0x80 DUP3 ADD PUSH1 0x0 DUP3 ADD MLOAD PUSH2 0x157F PUSH1 0x0 DUP6 ADD DUP3 PUSH2 0x154B JUMP JUMPDEST POP PUSH1 0x20 DUP3 ADD MLOAD PUSH2 0x1592 PUSH1 0x20 DUP6 ADD DUP3 PUSH2 0x154B JUMP JUMPDEST POP PUSH1 0x40 DUP3 ADD MLOAD PUSH2 0x15A5 PUSH1 0x40 DUP6 ADD DUP3 PUSH2 0x154B JUMP JUMPDEST POP PUSH1 0x60 DUP3 ADD MLOAD PUSH2 0x15B8 PUSH1 0x60 DUP6 ADD DUP3 PUSH2 0x155A JUMP JUMPDEST POP POP POP POP JUMP JUMPDEST PUSH1 0x0 PUSH2 0x15CA DUP4 DUP4 PUSH2 0x1569 JUMP JUMPDEST PUSH1 0x80 DUP4 ADD SWAP1 POP SWAP3 SWAP2 POP POP JUMP JUMPDEST PUSH1 0x0 PUSH1 0x20 DUP3 ADD SWAP1 POP SWAP2 SWAP1 POP JUMP JUMPDEST PUSH1 0x0 PUSH2 0x15EE DUP3 PUSH2 0x151F JUMP JUMPDEST PUSH2 0x15F8 DUP2 DUP6 PUSH2 0x152A JUMP JUMPDEST SWAP4 POP PUSH2 0x1603 DUP4 PUSH2 0x153B JUMP JUMPDEST DUP1 PUSH1 0x0 JUMPDEST DUP4 DUP2 LT ISZERO PUSH2 0x1634 JUMPI DUP2 MLOAD PUSH2 0x161B DUP9 DUP3 PUSH2 0x15BE JUMP JUMPDEST SWAP8 POP PUSH2 0x1626 DUP4 PUSH2 0x15D6 JUMP JUMPDEST SWAP3 POP POP PUSH1 0x1 DUP2 ADD SWAP1 POP PUSH2 0x1607 JUMP JUMPDEST POP DUP6 SWAP4 POP POP POP POP SWAP3 SWAP2 POP POP JUMP JUMPDEST PUSH1 0x0 PUSH1 0x20 DUP3 ADD SWAP1 POP DUP2 DUP2 SUB PUSH1 0x0 DUP4 ADD MSTORE PUSH2 0x165B DUP2 DUP5 PUSH2 0x15E3 JUMP JUMPDEST SWAP1 POP SWAP3 SWAP2 POP POP JUMP JUMPDEST PUSH1 0x0 PUSH1 0x20 DUP3 DUP5 SUB SLT ISZERO PUSH2 0x1679 JUMPI PUSH2 0x1678 PUSH2 0x11EC JUMP JUMPDEST JUMPDEST PUSH1 0x0 PUSH2 0x1687 DUP5 DUP3 DUP6 ADD PUSH2 0x13A5 JUMP JUMPDEST SWAP2 POP POP SWAP3 SWAP2 POP POP JUMP JUMPDEST PUSH1 0x0 DUP2 MLOAD SWAP1 POP SWAP2 SWAP1 POP JUMP JUMPDEST PUSH1 0x0 DUP3 DUP3 MSTORE PUSH1 0x20 DUP3 ADD SWAP1 POP SWAP3 SWAP2 POP POP JUMP JUMPDEST PUSH1 0x0 PUSH2 0x16B7 DUP3 PUSH2 0x1690 JUMP JUMPDEST PUSH2 0x16C1 DUP2 DUP6 PUSH2 0x169B JUMP JUMPDEST SWAP4 POP PUSH2 0x16D1 DUP2 DUP6 PUSH1 0x20 DUP7 ADD PUSH2 0x1440 JUMP JUMPDEST PUSH2 0x16DA DUP2 PUSH2 0x146A JUMP JUMPDEST DUP5 ADD SWAP2 POP POP SWAP3 SWAP2 POP POP JUMP JUMPDEST PUSH1 0x0 PUSH1 0x20 DUP3 ADD SWAP1 POP DUP2 DUP2 SUB PUSH1 0x0 DUP4 ADD MSTORE PUSH2 0x16FF DUP2 DUP5 PUSH2 0x16AC JUMP JUMPDEST SWAP1 POP SWAP3 SWAP2 POP POP JUMP JUMPDEST PUSH32 0x4E487B7100000000000000000000000000000000000000000000000000000000 PUSH1 0x0 MSTORE PUSH1 0x11 PUSH1 0x4 MSTORE PUSH1 0x24 PUSH1 0x0 REVERT JUMPDEST PUSH1 0x0 PUSH2 0x1741 DUP3 PUSH2 0x11F1 JUMP JUMPDEST SWAP2 POP PUSH2 0x174C DUP4 PUSH2 0x11F1 JUMP JUMPDEST SWAP3 POP DUP3 DUP3 MUL PUSH2 0x175A DUP2 PUSH2 0x11F1 JUMP JUMPDEST SWAP2 POP DUP3 DUP3 DIV DUP5 EQ DUP4 ISZERO OR PUSH2 0x1771 JUMPI PUSH2 0x1770 PUSH2 0x1707 JUMP JUMPDEST JUMPDEST POP SWAP3 SWAP2 POP POP JUMP JUMPDEST PUSH32 0x596F7520617265206E6F7420746865206D616E61676572000000000000000000 PUSH1 0x0 DUP3 ADD MSTORE POP JUMP JUMPDEST PUSH1 0x0 PUSH2 0x17AE PUSH1 0x17 DUP4 PUSH2 0x169B JUMP JUMPDEST SWAP2 POP PUSH2 0x17B9 DUP3 PUSH2 0x1778 JUMP JUMPDEST PUSH1 0x20 DUP3 ADD SWAP1 POP SWAP2 SWAP1 POP JUMP JUMPDEST PUSH1 0x0 PUSH1 0x20 DUP3 ADD SWAP1 POP DUP2 DUP2 SUB PUSH1 0x0 DUP4 ADD MSTORE PUSH2 0x17DD DUP2 PUSH2 0x17A1 JUMP JUMPDEST SWAP1 POP SWAP2 SWAP1 POP JUMP JUMPDEST PUSH32 0x4E487B7100000000000000000000000000000000000000000000000000000000 PUSH1 0x0 MSTORE PUSH1 0x32 PUSH1 0x4 MSTORE PUSH1 0x24 PUSH1 0x0 REVERT JUMPDEST PUSH1 0x0 PUSH1 0x60 DUP3 ADD SWAP1 POP PUSH2 0x1828 PUSH1 0x0 DUP4 ADD DUP7 PUSH2 0x1254 JUMP JUMPDEST PUSH2 0x1835 PUSH1 0x20 DUP4 ADD DUP6 PUSH2 0x1254 JUMP JUMPDEST PUSH2 0x1842 PUSH1 0x40 DUP4 ADD DUP5 PUSH2 0x1254 JUMP JUMPDEST SWAP5 SWAP4 POP POP POP POP JUMP JUMPDEST PUSH1 0x0 PUSH2 0x1855 DUP3 PUSH2 0x11F1 JUMP JUMPDEST SWAP2 POP PUSH2 0x1860 DUP4 PUSH2 0x11F1 JUMP JUMPDEST SWAP3 POP DUP3 DUP3 SUB SWAP1 POP DUP2 DUP2 GT ISZERO PUSH2 0x1878 JUMPI PUSH2 0x1877 PUSH2 0x1707 JUMP JUMPDEST JUMPDEST SWAP3 SWAP2 POP POP JUMP JUMPDEST PUSH1 0x0 PUSH2 0x1889 DUP3 PUSH2 0x11F1 JUMP JUMPDEST SWAP2 POP PUSH2 0x1894 DUP4 PUSH2 0x11F1 JUMP JUMPDEST SWAP3 POP DUP3 DUP3 ADD SWAP1 POP DUP1 DUP3 GT ISZERO PUSH2 0x18AC JUMPI PUSH2 0x18AB PUSH2 0x1707 JUMP JUMPDEST JUMPDEST SWAP3 SWAP2 POP POP JUMP JUMPDEST PUSH1 0x0 PUSH2 0x18BD DUP3 PUSH2 0x11F1 JUMP JUMPDEST SWAP2 POP PUSH32 0xFFFFFFFFFFFFFFFFFFFFFFFFFFFFFFFFFFFFFFFFFFFFFFFFFFFFFFFFFFFFFFFF DUP3 SUB PUSH2 0x18EF JUMPI PUSH2 0x18EE PUSH2 0x1707 JUMP JUMPDEST JUMPDEST PUSH1 0x1 DUP3 ADD SWAP1 POP SWAP2 SWAP1 POP JUMP JUMPDEST PUSH32 0x4E487B7100000000000000000000000000000000000000000000000000000000 PUSH1 0x0 MSTORE PUSH1 0x31 PUSH1 0x4 MSTORE PUSH1 0x24 PUSH1 0x0 REVERT JUMPDEST PUSH1 0x0 DUP2 SWAP1 POP SWAP2 SWAP1 POP JUMP JUMPDEST PUSH1 0x0 DUP2 SWAP1 POP SWAP2 SWAP1 POP JUMP JUMPDEST PUSH1 0x0 PUSH2 0x1958 PUSH2 0x1953 PUSH2 0x194E DUP5 PUSH2 0x1929 JUMP JUMPDEST PUSH2 0x1933 JUMP JUMPDEST PUSH2 0x11F1 JUMP JUMPDEST SWAP1 POP SWAP2 SWAP1 POP JUMP JUMPDEST PUSH2 0x1968 DUP2 PUSH2 0x193D JUMP JUMPDEST DUP3 MSTORE POP POP JUMP JUMPDEST PUSH1 0x0 PUSH1 0x60 DUP3 ADD SWAP1 POP PUSH2 0x1983 PUSH1 0x0 DUP4 ADD DUP7 PUSH2 0x1254 JUMP JUMPDEST PUSH2 0x1990 PUSH1 0x20 DUP4 ADD DUP6 PUSH2 0x1254 JUMP JUMPDEST PUSH2 0x199D PUSH1 0x40 DUP4 ADD DUP5 PUSH2 0x195F JUMP JUMPDEST SWAP5 SWAP4 POP POP POP POP JUMP JUMPDEST PUSH32 0x4E487B7100000000000000000000000000000000000000000000000000000000 PUSH1 0x0 MSTORE PUSH1 0x22 PUSH1 0x4 MSTORE PUSH1 0x24 PUSH1 0x0 REVERT JUMPDEST PUSH1 0x0 PUSH1 0x2 DUP3 DIV SWAP1 POP PUSH1 0x1 DUP3 AND DUP1 PUSH2 0x19EC JUMPI PUSH1 0x7F DUP3 AND SWAP2 POP JUMPDEST PUSH1 0x20 DUP3 LT DUP2 SUB PUSH2 0x19FF JUMPI PUSH2 0x19FE PUSH2 0x19A5 JUMP JUMPDEST JUMPDEST POP SWAP2 SWAP1 POP JUMP INVALID LOG2 PUSH5 0x6970667358 0x22 SLT KECCAK256 POP 0xB4 PUSH12 0xAA2DAE5CE91878CD0DFC7E63 0xC2 0x5D 0x1E 0x22 SWAP10 CREATE2 PUSH20 0x6BBC62D3B416741BDD3464736F6C634300081200 CALLER "},"gasEstimates":{"creation":{"codeDepositCost":"1343000","executionCost":"infinite","totalCost":"infinite"},"external":{"confirmHours(address,uint256)":"infinite","denyHours(address,uint256)":"infinite","deposit()":"infinite","empHours(address,uint256)":"infinite","getBalance()":"385","getHourLog(address)":"infinite","hourlyRate()":"2496","manager()":"2559","org()":"infinite","requestHours(uint256)":"infinite","sendRatings(address,uint256)":"2677","sendTip(address)":"infinite","setHourlyRate(uint256)":"infinite","transactions(uint256)":"infinite"}},"methodIdentifiers":{"confirmHours(address,uint256)":"474466c2","denyHours(address,uint256)":"6eaf9563","deposit()":"d0e30db0","empHours(address,uint256)":"20ee128e","getBalance()":"12065fe0","getHourLog(address)":"9d5f65fc","hourlyRate()":"59a7b3fe","manager()":"481c6a75","org()":"cc1e2cb0","requestHours(uint256)":"0fa8d54f","sendRatings(address,uint256)":"a334b295","sendTip(address)":"a4e81be0","setHourlyRate(uint256)":"c17c3521","transactions(uint256)":"9ace38c2"}},"storageLayout":{"storage":[{"astId":157,"contract":"ServiceChain.sol:Service","label":"transactions","offset":0,"slot":"0","type":"t_array(t_struct(Transaction)96_storage)dyn_storage"},{"astId":163,"contract":"ServiceChain.sol:Service","label":"empHours","offset":0,"slot":"1","type":"t_mapping(t_address,t_array(t_struct(hourLog)105_storage)dyn_storage)"},{"astId":165,"contract":"ServiceChain.sol:Service","label":"org","offset":0,"slot":"2","type":"t_string_storage"},{"astId":167,"contract":"ServiceChain.sol:Service","label":"manager","offset":0,"slot":"3","type":"t_address"},{"astId":169,"contract":"ServiceChain.sol:Service","label":"hourlyRate","offset":0,"slot":"4","type":"t_uint256"}],"types":{"t_address":{"encoding":"inplace","label":"address","numberOfBytes":"20"},"t_array(t_struct(Transaction)96_storage)dyn_storage":{"base":"t_struct(Transaction)96_storage","encoding":"dynamic_array","label":"struct Service.Transaction[]","numberOfBytes":"32"},"t_array(t_struct(hourLog)105_storage)dyn_storage":{"base":"t_struct(hourLog)105_storage","encoding":"dynamic_array","label":"struct Service.hourLog[]","numberOfBytes":"32"},"t_bool":{"encoding":"inplace","label":"bool","numberOfBytes":"1"},"t_bytes_storage":{"encoding":"bytes","label":"bytes","numberOfBytes":"32"},"t_mapping(t_address,t_array(t_struct(hourLog)105_storage)dyn_storage)":{"encoding":"mapping","key":"t_address","label":"mapping(address => struct Service.hourLog[])","numberOfBytes":"32","value":"t_array(t_struct(hourLog)105_storage)dyn_storage"},"t_string_storage":{"encoding":"bytes","label":"string","numberOfBytes":"32"},"t_struct(Transaction)96_storage":{"encoding":"inplace","label":"struct Service.Transaction","members":[{"astId":91,"contract":"ServiceChain.sol:Service","label":"to","offset":0,"slot":"0","type":"t_address"},{"astId":93,"contract":"ServiceChain.sol:Service","label":"value","offset":0,"slot":"1","type":"t_uint256"},{"astId":95,"contract":"ServiceChain.sol:Service","label":"data","offset":0,"slot":"2","type":"t_bytes_storage"}],"numberOfBytes":"96"},"t_struct(hourLog)105_storage":{"encoding":"inplace","label":"struct Service.hourLog","members":[{"astId":98,"contract":"ServiceChain.sol:Service","label":"date","offset":0,"slot":"0","type":"t_uint256"},{"astId":100,"contract":"ServiceChain.sol:Service","label":"hour","offset":0,"slot":"1","type":"t_uint256"},{"astId":102,"contract":"ServiceChain.sol:Service","label":"estimatedPayement","offset":0,"slot":"2","type":"t_uint256"},{"astId":104,"contract":"ServiceChain.sol:Service","label":"isApproved","offset":0,"slot":"3","type":"t_bool"}],"numberOfBytes":"128"},"t_uint256":{"encoding":"inplace","label":"uint256","numberOfBytes":"32"}}},"userdoc":{"kind":"user","methods":{},"version":1}}